{
	"contracts/MedicalCert.sol": {
		"MedicalCertificate": {
			"abi": [
				{
					"anonymous": false,
					"inputs": [
						{
							"indexed": false,
							"internalType": "uint256",
							"name": "numMC",
							"type": "uint256"
						}
					],
					"name": "mcCreated",
					"type": "event"
				},
				{
					"inputs": [
						{
							"internalType": "bytes32",
							"name": "",
							"type": "bytes32"
						}
					],
					"name": "MC",
					"outputs": [
						{
							"internalType": "bytes",
							"name": "ID",
							"type": "bytes"
						},
						{
							"internalType": "uint256",
							"name": "HospitalID",
							"type": "uint256"
						},
						{
							"components": [
								{
									"internalType": "uint256",
									"name": "personId",
									"type": "uint256"
								},
								{
									"internalType": "string",
									"name": "name",
									"type": "string"
								},
								{
									"internalType": "string",
									"name": "NRIC",
									"type": "string"
								},
								{
									"internalType": "string",
									"name": "sex",
									"type": "string"
								},
								{
									"internalType": "string",
									"name": "birthdate",
									"type": "string"
								},
								{
									"internalType": "string",
									"name": "race_nationality",
									"type": "string"
								}
							],
							"internalType": "struct MedicalCertificate.personalInfo",
							"name": "personal_info",
							"type": "tuple"
						},
						{
							"internalType": "enum MedicalCertificate.certCategory",
							"name": "incident",
							"type": "uint8"
						},
						{
							"internalType": "string",
							"name": "dateTimeIncident",
							"type": "string"
						},
						{
							"internalType": "string",
							"name": "titleOfCertifier",
							"type": "string"
						}
					],
					"stateMutability": "view",
					"type": "function"
				},
				{
					"inputs": [
						{
							"internalType": "uint256",
							"name": "hospital",
							"type": "uint256"
						},
						{
							"internalType": "string",
							"name": "password",
							"type": "string"
						},
						{
							"internalType": "uint256",
							"name": "personId",
							"type": "uint256"
						},
						{
							"internalType": "enum MedicalCertificate.certCategory",
							"name": "incidentType",
							"type": "uint8"
						},
						{
							"internalType": "string",
							"name": "incidentYYYYMMDDHHMM",
							"type": "string"
						},
						{
							"internalType": "string",
							"name": "certifierName",
							"type": "string"
						}
					],
					"name": "addMC",
					"outputs": [
						{
							"internalType": "bytes",
							"name": "",
							"type": "bytes"
						}
					],
					"stateMutability": "nonpayable",
					"type": "function"
				},
				{
					"inputs": [
						{
							"internalType": "uint256",
							"name": "hospitalId",
							"type": "uint256"
						},
						{
							"internalType": "string",
							"name": "password",
							"type": "string"
						},
						{
							"internalType": "string",
							"name": "name",
							"type": "string"
						},
						{
							"internalType": "string",
							"name": "NRIC",
							"type": "string"
						},
						{
							"internalType": "string",
							"name": "sex",
							"type": "string"
						},
						{
							"internalType": "string",
							"name": "birthdateYYYYMMDD",
							"type": "string"
						},
						{
							"internalType": "string",
							"name": "race_nationality",
							"type": "string"
						}
					],
					"name": "createPersonalInfo",
					"outputs": [
						{
							"internalType": "uint256",
							"name": "",
							"type": "uint256"
						}
					],
					"stateMutability": "nonpayable",
					"type": "function"
				},
				{
					"inputs": [
						{
							"internalType": "bytes",
							"name": "id",
							"type": "bytes"
						}
					],
					"name": "getMCCategory",
					"outputs": [
						{
							"internalType": "enum MedicalCertificate.certCategory",
							"name": "",
							"type": "uint8"
						}
					],
					"stateMutability": "view",
					"type": "function"
				},
				{
					"inputs": [
						{
							"internalType": "bytes",
							"name": "id",
							"type": "bytes"
						}
					],
					"name": "getMCNRIC",
					"outputs": [
						{
							"internalType": "string",
							"name": "",
							"type": "string"
						}
					],
					"stateMutability": "view",
					"type": "function"
				},
				{
					"inputs": [
						{
							"internalType": "bytes",
							"name": "id",
							"type": "bytes"
						}
					],
					"name": "getMCName",
					"outputs": [
						{
							"internalType": "string",
							"name": "",
							"type": "string"
						}
					],
					"stateMutability": "view",
					"type": "function"
				},
				{
					"inputs": [
						{
							"internalType": "uint256",
							"name": "",
							"type": "uint256"
						}
					],
					"name": "infos",
					"outputs": [
						{
							"internalType": "uint256",
							"name": "personId",
							"type": "uint256"
						},
						{
							"internalType": "string",
							"name": "name",
							"type": "string"
						},
						{
							"internalType": "string",
							"name": "NRIC",
							"type": "string"
						},
						{
							"internalType": "string",
							"name": "sex",
							"type": "string"
						},
						{
							"internalType": "string",
							"name": "birthdate",
							"type": "string"
						},
						{
							"internalType": "string",
							"name": "race_nationality",
							"type": "string"
						}
					],
					"stateMutability": "view",
					"type": "function"
				}
			],
			"devdoc": {
				"kind": "dev",
				"methods": {},
				"version": 1
			},
			"evm": {
				"assembly": "    /* \"contracts/MedicalCert.sol\":60:1678  contract MedicalCertificate {... */\n  mstore(0x40, 0x80)\n    /* \"contracts/MedicalCert.sol\":112:113  0 */\n  0x00\n    /* \"contracts/MedicalCert.sol\":94:113  uint256 counter = 0 */\n  dup1\n  sstore\n    /* \"contracts/MedicalCert.sol\":736:737  0 */\n  0x00\n    /* \"contracts/MedicalCert.sol\":714:737  uint256 numOfPeople = 0 */\n  0x03\n  sstore\n    /* \"contracts/MedicalCert.sol\":60:1678  contract MedicalCertificate {... */\n  callvalue\n  dup1\n  iszero\n  tag_1\n  jumpi\n  0x00\n  dup1\n  revert\ntag_1:\n  pop\n  dataSize(sub_0)\n  dup1\n  dataOffset(sub_0)\n  0x00\n  codecopy\n  0x00\n  return\nstop\n\nsub_0: assembly {\n        /* \"contracts/MedicalCert.sol\":60:1678  contract MedicalCertificate {... */\n      mstore(0x40, 0x80)\n      callvalue\n      dup1\n      iszero\n      tag_1\n      jumpi\n      0x00\n      dup1\n      revert\n    tag_1:\n      pop\n      jumpi(tag_2, lt(calldatasize, 0x04))\n      shr(0xe0, calldataload(0x00))\n      dup1\n      0x66e918b8\n      gt\n      tag_10\n      jumpi\n      dup1\n      0x66e918b8\n      eq\n      tag_6\n      jumpi\n      dup1\n      0x74946460\n      eq\n      tag_7\n      jumpi\n      dup1\n      0xd4c85366\n      eq\n      tag_8\n      jumpi\n      dup1\n      0xf29a6f44\n      eq\n      tag_9\n      jumpi\n      jump(tag_2)\n    tag_10:\n      dup1\n      0x109075f1\n      eq\n      tag_3\n      jumpi\n      dup1\n      0x28de3c9b\n      eq\n      tag_4\n      jumpi\n      dup1\n      0x29efb4a9\n      eq\n      tag_5\n      jumpi\n    tag_2:\n      0x00\n      dup1\n      revert\n        /* \"contracts/MedicalCert.sol\":615:656  mapping(bytes32 => medicalCert) public MC */\n    tag_3:\n      tag_11\n      0x04\n      dup1\n      calldatasize\n      sub\n      dup2\n      add\n      swap1\n      tag_12\n      swap2\n      swap1\n      tag_13\n      jump\t// in\n    tag_12:\n      tag_14\n      jump\t// in\n    tag_11:\n      mload(0x40)\n      tag_15\n      swap7\n      swap6\n      swap5\n      swap4\n      swap3\n      swap2\n      swap1\n      tag_16\n      jump\t// in\n    tag_15:\n      mload(0x40)\n      dup1\n      swap2\n      sub\n      swap1\n      return\n        /* \"contracts/MedicalCert.sol\":662:707  mapping(uint256 => personalInfo) public infos */\n    tag_4:\n      tag_17\n      0x04\n      dup1\n      calldatasize\n      sub\n      dup2\n      add\n      swap1\n      tag_18\n      swap2\n      swap1\n      tag_19\n      jump\t// in\n    tag_18:\n      tag_20\n      jump\t// in\n    tag_17:\n      mload(0x40)\n      tag_21\n      swap7\n      swap6\n      swap5\n      swap4\n      swap3\n      swap2\n      swap1\n      tag_22\n      jump\t// in\n    tag_21:\n      mload(0x40)\n      dup1\n      swap2\n      sub\n      swap1\n      return\n        /* \"contracts/MedicalCert.sol\":1552:1676  function getMCCategory(bytes memory id) public view returns(certCategory) {... */\n    tag_5:\n      tag_23\n      0x04\n      dup1\n      calldatasize\n      sub\n      dup2\n      add\n      swap1\n      tag_24\n      swap2\n      swap1\n      tag_25\n      jump\t// in\n    tag_24:\n      tag_26\n      jump\t// in\n    tag_23:\n      mload(0x40)\n      tag_27\n      swap2\n      swap1\n      tag_28\n      jump\t// in\n    tag_27:\n      mload(0x40)\n      dup1\n      swap2\n      sub\n      swap1\n      return\n        /* \"contracts/MedicalCert.sol\":1028:1272  function addMC(uint256 hospital, string memory password, uint256 personId,... */\n    tag_6:\n      tag_29\n      0x04\n      dup1\n      calldatasize\n      sub\n      dup2\n      add\n      swap1\n      tag_30\n      swap2\n      swap1\n      tag_31\n      jump\t// in\n    tag_30:\n      tag_32\n      jump\t// in\n    tag_29:\n      mload(0x40)\n      tag_33\n      swap2\n      swap1\n      tag_34\n      jump\t// in\n    tag_33:\n      mload(0x40)\n      dup1\n      swap2\n      sub\n      swap1\n      return\n        /* \"contracts/MedicalCert.sol\":781:1022  function createPersonalInfo (uint256 hospitalId, string memory password,... */\n    tag_7:\n      tag_35\n      0x04\n      dup1\n      calldatasize\n      sub\n      dup2\n      add\n      swap1\n      tag_36\n      swap2\n      swap1\n      tag_37\n      jump\t// in\n    tag_36:\n      tag_38\n      jump\t// in\n    tag_35:\n      mload(0x40)\n      tag_39\n      swap2\n      swap1\n      tag_40\n      jump\t// in\n    tag_39:\n      mload(0x40)\n      dup1\n      swap2\n      sub\n      swap1\n      return\n        /* \"contracts/MedicalCert.sol\":1415:1546  function getMCNRIC(bytes memory id) public view returns(string memory) {... */\n    tag_8:\n      tag_41\n      0x04\n      dup1\n      calldatasize\n      sub\n      dup2\n      add\n      swap1\n      tag_42\n      swap2\n      swap1\n      tag_25\n      jump\t// in\n    tag_42:\n      tag_43\n      jump\t// in\n    tag_41:\n      mload(0x40)\n      tag_44\n      swap2\n      swap1\n      tag_45\n      jump\t// in\n    tag_44:\n      mload(0x40)\n      dup1\n      swap2\n      sub\n      swap1\n      return\n        /* \"contracts/MedicalCert.sol\":1278:1409  function getMCName(bytes memory id) public view returns(string memory) {... */\n    tag_9:\n      tag_46\n      0x04\n      dup1\n      calldatasize\n      sub\n      dup2\n      add\n      swap1\n      tag_47\n      swap2\n      swap1\n      tag_25\n      jump\t// in\n    tag_47:\n      tag_48\n      jump\t// in\n    tag_46:\n      mload(0x40)\n      tag_49\n      swap2\n      swap1\n      tag_45\n      jump\t// in\n    tag_49:\n      mload(0x40)\n      dup1\n      swap2\n      sub\n      swap1\n      return\n        /* \"contracts/MedicalCert.sol\":615:656  mapping(bytes32 => medicalCert) public MC */\n    tag_14:\n      mstore(0x20, 0x01)\n      dup1\n      0x00\n      mstore\n      keccak256(0x00, 0x40)\n      0x00\n      swap2\n      pop\n      swap1\n      pop\n      dup1\n      0x00\n      add\n      dup1\n      sload\n      tag_50\n      swap1\n      tag_51\n      jump\t// in\n    tag_50:\n      dup1\n      0x1f\n      add\n      0x20\n      dup1\n      swap2\n      div\n      mul\n      0x20\n      add\n      mload(0x40)\n      swap1\n      dup2\n      add\n      0x40\n      mstore\n      dup1\n      swap3\n      swap2\n      swap1\n      dup2\n      dup2\n      mstore\n      0x20\n      add\n      dup3\n      dup1\n      sload\n      tag_52\n      swap1\n      tag_51\n      jump\t// in\n    tag_52:\n      dup1\n      iszero\n      tag_53\n      jumpi\n      dup1\n      0x1f\n      lt\n      tag_54\n      jumpi\n      0x0100\n      dup1\n      dup4\n      sload\n      div\n      mul\n      dup4\n      mstore\n      swap2\n      0x20\n      add\n      swap2\n      jump(tag_53)\n    tag_54:\n      dup3\n      add\n      swap2\n      swap1\n      0x00\n      mstore\n      keccak256(0x00, 0x20)\n      swap1\n    tag_55:\n      dup2\n      sload\n      dup2\n      mstore\n      swap1\n      0x01\n      add\n      swap1\n      0x20\n      add\n      dup1\n      dup4\n      gt\n      tag_55\n      jumpi\n      dup3\n      swap1\n      sub\n      0x1f\n      and\n      dup3\n      add\n      swap2\n    tag_53:\n      pop\n      pop\n      pop\n      pop\n      pop\n      swap1\n      dup1\n      0x01\n      add\n      sload\n      swap1\n      dup1\n      0x02\n      add\n      mload(0x40)\n      dup1\n      0xc0\n      add\n      0x40\n      mstore\n      swap1\n      dup2\n      0x00\n      dup3\n      add\n      sload\n      dup2\n      mstore\n      0x20\n      add\n      0x01\n      dup3\n      add\n      dup1\n      sload\n      tag_56\n      swap1\n      tag_51\n      jump\t// in\n    tag_56:\n      dup1\n      0x1f\n      add\n      0x20\n      dup1\n      swap2\n      div\n      mul\n      0x20\n      add\n      mload(0x40)\n      swap1\n      dup2\n      add\n      0x40\n      mstore\n      dup1\n      swap3\n      swap2\n      swap1\n      dup2\n      dup2\n      mstore\n      0x20\n      add\n      dup3\n      dup1\n      sload\n      tag_57\n      swap1\n      tag_51\n      jump\t// in\n    tag_57:\n      dup1\n      iszero\n      tag_58\n      jumpi\n      dup1\n      0x1f\n      lt\n      tag_59\n      jumpi\n      0x0100\n      dup1\n      dup4\n      sload\n      div\n      mul\n      dup4\n      mstore\n      swap2\n      0x20\n      add\n      swap2\n      jump(tag_58)\n    tag_59:\n      dup3\n      add\n      swap2\n      swap1\n      0x00\n      mstore\n      keccak256(0x00, 0x20)\n      swap1\n    tag_60:\n      dup2\n      sload\n      dup2\n      mstore\n      swap1\n      0x01\n      add\n      swap1\n      0x20\n      add\n      dup1\n      dup4\n      gt\n      tag_60\n      jumpi\n      dup3\n      swap1\n      sub\n      0x1f\n      and\n      dup3\n      add\n      swap2\n    tag_58:\n      pop\n      pop\n      pop\n      pop\n      pop\n      dup2\n      mstore\n      0x20\n      add\n      0x02\n      dup3\n      add\n      dup1\n      sload\n      tag_61\n      swap1\n      tag_51\n      jump\t// in\n    tag_61:\n      dup1\n      0x1f\n      add\n      0x20\n      dup1\n      swap2\n      div\n      mul\n      0x20\n      add\n      mload(0x40)\n      swap1\n      dup2\n      add\n      0x40\n      mstore\n      dup1\n      swap3\n      swap2\n      swap1\n      dup2\n      dup2\n      mstore\n      0x20\n      add\n      dup3\n      dup1\n      sload\n      tag_62\n      swap1\n      tag_51\n      jump\t// in\n    tag_62:\n      dup1\n      iszero\n      tag_63\n      jumpi\n      dup1\n      0x1f\n      lt\n      tag_64\n      jumpi\n      0x0100\n      dup1\n      dup4\n      sload\n      div\n      mul\n      dup4\n      mstore\n      swap2\n      0x20\n      add\n      swap2\n      jump(tag_63)\n    tag_64:\n      dup3\n      add\n      swap2\n      swap1\n      0x00\n      mstore\n      keccak256(0x00, 0x20)\n      swap1\n    tag_65:\n      dup2\n      sload\n      dup2\n      mstore\n      swap1\n      0x01\n      add\n      swap1\n      0x20\n      add\n      dup1\n      dup4\n      gt\n      tag_65\n      jumpi\n      dup3\n      swap1\n      sub\n      0x1f\n      and\n      dup3\n      add\n      swap2\n    tag_63:\n      pop\n      pop\n      pop\n      pop\n      pop\n      dup2\n      mstore\n      0x20\n      add\n      0x03\n      dup3\n      add\n      dup1\n      sload\n      tag_66\n      swap1\n      tag_51\n      jump\t// in\n    tag_66:\n      dup1\n      0x1f\n      add\n      0x20\n      dup1\n      swap2\n      div\n      mul\n      0x20\n      add\n      mload(0x40)\n      swap1\n      dup2\n      add\n      0x40\n      mstore\n      dup1\n      swap3\n      swap2\n      swap1\n      dup2\n      dup2\n      mstore\n      0x20\n      add\n      dup3\n      dup1\n      sload\n      tag_67\n      swap1\n      tag_51\n      jump\t// in\n    tag_67:\n      dup1\n      iszero\n      tag_68\n      jumpi\n      dup1\n      0x1f\n      lt\n      tag_69\n      jumpi\n      0x0100\n      dup1\n      dup4\n      sload\n      div\n      mul\n      dup4\n      mstore\n      swap2\n      0x20\n      add\n      swap2\n      jump(tag_68)\n    tag_69:\n      dup3\n      add\n      swap2\n      swap1\n      0x00\n      mstore\n      keccak256(0x00, 0x20)\n      swap1\n    tag_70:\n      dup2\n      sload\n      dup2\n      mstore\n      swap1\n      0x01\n      add\n      swap1\n      0x20\n      add\n      dup1\n      dup4\n      gt\n      tag_70\n      jumpi\n      dup3\n      swap1\n      sub\n      0x1f\n      and\n      dup3\n      add\n      swap2\n    tag_68:\n      pop\n      pop\n      pop\n      pop\n      pop\n      dup2\n      mstore\n      0x20\n      add\n      0x04\n      dup3\n      add\n      dup1\n      sload\n      tag_71\n      swap1\n      tag_51\n      jump\t// in\n    tag_71:\n      dup1\n      0x1f\n      add\n      0x20\n      dup1\n      swap2\n      div\n      mul\n      0x20\n      add\n      mload(0x40)\n      swap1\n      dup2\n      add\n      0x40\n      mstore\n      dup1\n      swap3\n      swap2\n      swap1\n      dup2\n      dup2\n      mstore\n      0x20\n      add\n      dup3\n      dup1\n      sload\n      tag_72\n      swap1\n      tag_51\n      jump\t// in\n    tag_72:\n      dup1\n      iszero\n      tag_73\n      jumpi\n      dup1\n      0x1f\n      lt\n      tag_74\n      jumpi\n      0x0100\n      dup1\n      dup4\n      sload\n      div\n      mul\n      dup4\n      mstore\n      swap2\n      0x20\n      add\n      swap2\n      jump(tag_73)\n    tag_74:\n      dup3\n      add\n      swap2\n      swap1\n      0x00\n      mstore\n      keccak256(0x00, 0x20)\n      swap1\n    tag_75:\n      dup2\n      sload\n      dup2\n      mstore\n      swap1\n      0x01\n      add\n      swap1\n      0x20\n      add\n      dup1\n      dup4\n      gt\n      tag_75\n      jumpi\n      dup3\n      swap1\n      sub\n      0x1f\n      and\n      dup3\n      add\n      swap2\n    tag_73:\n      pop\n      pop\n      pop\n      pop\n      pop\n      dup2\n      mstore\n      0x20\n      add\n      0x05\n      dup3\n      add\n      dup1\n      sload\n      tag_76\n      swap1\n      tag_51\n      jump\t// in\n    tag_76:\n      dup1\n      0x1f\n      add\n      0x20\n      dup1\n      swap2\n      div\n      mul\n      0x20\n      add\n      mload(0x40)\n      swap1\n      dup2\n      add\n      0x40\n      mstore\n      dup1\n      swap3\n      swap2\n      swap1\n      dup2\n      dup2\n      mstore\n      0x20\n      add\n      dup3\n      dup1\n      sload\n      tag_77\n      swap1\n      tag_51\n      jump\t// in\n    tag_77:\n      dup1\n      iszero\n      tag_78\n      jumpi\n      dup1\n      0x1f\n      lt\n      tag_79\n      jumpi\n      0x0100\n      dup1\n      dup4\n      sload\n      div\n      mul\n      dup4\n      mstore\n      swap2\n      0x20\n      add\n      swap2\n      jump(tag_78)\n    tag_79:\n      dup3\n      add\n      swap2\n      swap1\n      0x00\n      mstore\n      keccak256(0x00, 0x20)\n      swap1\n    tag_80:\n      dup2\n      sload\n      dup2\n      mstore\n      swap1\n      0x01\n      add\n      swap1\n      0x20\n      add\n      dup1\n      dup4\n      gt\n      tag_80\n      jumpi\n      dup3\n      swap1\n      sub\n      0x1f\n      and\n      dup3\n      add\n      swap2\n    tag_78:\n      pop\n      pop\n      pop\n      pop\n      pop\n      dup2\n      mstore\n      pop\n      pop\n      swap1\n      dup1\n      0x08\n      add\n      0x00\n      swap1\n      sload\n      swap1\n      0x0100\n      exp\n      swap1\n      div\n      0xff\n      and\n      swap1\n      dup1\n      0x09\n      add\n      dup1\n      sload\n      tag_81\n      swap1\n      tag_51\n      jump\t// in\n    tag_81:\n      dup1\n      0x1f\n      add\n      0x20\n      dup1\n      swap2\n      div\n      mul\n      0x20\n      add\n      mload(0x40)\n      swap1\n      dup2\n      add\n      0x40\n      mstore\n      dup1\n      swap3\n      swap2\n      swap1\n      dup2\n      dup2\n      mstore\n      0x20\n      add\n      dup3\n      dup1\n      sload\n      tag_82\n      swap1\n      tag_51\n      jump\t// in\n    tag_82:\n      dup1\n      iszero\n      tag_83\n      jumpi\n      dup1\n      0x1f\n      lt\n      tag_84\n      jumpi\n      0x0100\n      dup1\n      dup4\n      sload\n      div\n      mul\n      dup4\n      mstore\n      swap2\n      0x20\n      add\n      swap2\n      jump(tag_83)\n    tag_84:\n      dup3\n      add\n      swap2\n      swap1\n      0x00\n      mstore\n      keccak256(0x00, 0x20)\n      swap1\n    tag_85:\n      dup2\n      sload\n      dup2\n      mstore\n      swap1\n      0x01\n      add\n      swap1\n      0x20\n      add\n      dup1\n      dup4\n      gt\n      tag_85\n      jumpi\n      dup3\n      swap1\n      sub\n      0x1f\n      and\n      dup3\n      add\n      swap2\n    tag_83:\n      pop\n      pop\n      pop\n      pop\n      pop\n      swap1\n      dup1\n      0x0a\n      add\n      dup1\n      sload\n      tag_86\n      swap1\n      tag_51\n      jump\t// in\n    tag_86:\n      dup1\n      0x1f\n      add\n      0x20\n      dup1\n      swap2\n      div\n      mul\n      0x20\n      add\n      mload(0x40)\n      swap1\n      dup2\n      add\n      0x40\n      mstore\n      dup1\n      swap3\n      swap2\n      swap1\n      dup2\n      dup2\n      mstore\n      0x20\n      add\n      dup3\n      dup1\n      sload\n      tag_87\n      swap1\n      tag_51\n      jump\t// in\n    tag_87:\n      dup1\n      iszero\n      tag_88\n      jumpi\n      dup1\n      0x1f\n      lt\n      tag_89\n      jumpi\n      0x0100\n      dup1\n      dup4\n      sload\n      div\n      mul\n      dup4\n      mstore\n      swap2\n      0x20\n      add\n      swap2\n      jump(tag_88)\n    tag_89:\n      dup3\n      add\n      swap2\n      swap1\n      0x00\n      mstore\n      keccak256(0x00, 0x20)\n      swap1\n    tag_90:\n      dup2\n      sload\n      dup2\n      mstore\n      swap1\n      0x01\n      add\n      swap1\n      0x20\n      add\n      dup1\n      dup4\n      gt\n      tag_90\n      jumpi\n      dup3\n      swap1\n      sub\n      0x1f\n      and\n      dup3\n      add\n      swap2\n    tag_88:\n      pop\n      pop\n      pop\n      pop\n      pop\n      swap1\n      pop\n      dup7\n      jump\t// out\n        /* \"contracts/MedicalCert.sol\":662:707  mapping(uint256 => personalInfo) public infos */\n    tag_20:\n      mstore(0x20, 0x02)\n      dup1\n      0x00\n      mstore\n      keccak256(0x00, 0x40)\n      0x00\n      swap2\n      pop\n      swap1\n      pop\n      dup1\n      0x00\n      add\n      sload\n      swap1\n      dup1\n      0x01\n      add\n      dup1\n      sload\n      tag_91\n      swap1\n      tag_51\n      jump\t// in\n    tag_91:\n      dup1\n      0x1f\n      add\n      0x20\n      dup1\n      swap2\n      div\n      mul\n      0x20\n      add\n      mload(0x40)\n      swap1\n      dup2\n      add\n      0x40\n      mstore\n      dup1\n      swap3\n      swap2\n      swap1\n      dup2\n      dup2\n      mstore\n      0x20\n      add\n      dup3\n      dup1\n      sload\n      tag_92\n      swap1\n      tag_51\n      jump\t// in\n    tag_92:\n      dup1\n      iszero\n      tag_93\n      jumpi\n      dup1\n      0x1f\n      lt\n      tag_94\n      jumpi\n      0x0100\n      dup1\n      dup4\n      sload\n      div\n      mul\n      dup4\n      mstore\n      swap2\n      0x20\n      add\n      swap2\n      jump(tag_93)\n    tag_94:\n      dup3\n      add\n      swap2\n      swap1\n      0x00\n      mstore\n      keccak256(0x00, 0x20)\n      swap1\n    tag_95:\n      dup2\n      sload\n      dup2\n      mstore\n      swap1\n      0x01\n      add\n      swap1\n      0x20\n      add\n      dup1\n      dup4\n      gt\n      tag_95\n      jumpi\n      dup3\n      swap1\n      sub\n      0x1f\n      and\n      dup3\n      add\n      swap2\n    tag_93:\n      pop\n      pop\n      pop\n      pop\n      pop\n      swap1\n      dup1\n      0x02\n      add\n      dup1\n      sload\n      tag_96\n      swap1\n      tag_51\n      jump\t// in\n    tag_96:\n      dup1\n      0x1f\n      add\n      0x20\n      dup1\n      swap2\n      div\n      mul\n      0x20\n      add\n      mload(0x40)\n      swap1\n      dup2\n      add\n      0x40\n      mstore\n      dup1\n      swap3\n      swap2\n      swap1\n      dup2\n      dup2\n      mstore\n      0x20\n      add\n      dup3\n      dup1\n      sload\n      tag_97\n      swap1\n      tag_51\n      jump\t// in\n    tag_97:\n      dup1\n      iszero\n      tag_98\n      jumpi\n      dup1\n      0x1f\n      lt\n      tag_99\n      jumpi\n      0x0100\n      dup1\n      dup4\n      sload\n      div\n      mul\n      dup4\n      mstore\n      swap2\n      0x20\n      add\n      swap2\n      jump(tag_98)\n    tag_99:\n      dup3\n      add\n      swap2\n      swap1\n      0x00\n      mstore\n      keccak256(0x00, 0x20)\n      swap1\n    tag_100:\n      dup2\n      sload\n      dup2\n      mstore\n      swap1\n      0x01\n      add\n      swap1\n      0x20\n      add\n      dup1\n      dup4\n      gt\n      tag_100\n      jumpi\n      dup3\n      swap1\n      sub\n      0x1f\n      and\n      dup3\n      add\n      swap2\n    tag_98:\n      pop\n      pop\n      pop\n      pop\n      pop\n      swap1\n      dup1\n      0x03\n      add\n      dup1\n      sload\n      tag_101\n      swap1\n      tag_51\n      jump\t// in\n    tag_101:\n      dup1\n      0x1f\n      add\n      0x20\n      dup1\n      swap2\n      div\n      mul\n      0x20\n      add\n      mload(0x40)\n      swap1\n      dup2\n      add\n      0x40\n      mstore\n      dup1\n      swap3\n      swap2\n      swap1\n      dup2\n      dup2\n      mstore\n      0x20\n      add\n      dup3\n      dup1\n      sload\n      tag_102\n      swap1\n      tag_51\n      jump\t// in\n    tag_102:\n      dup1\n      iszero\n      tag_103\n      jumpi\n      dup1\n      0x1f\n      lt\n      tag_104\n      jumpi\n      0x0100\n      dup1\n      dup4\n      sload\n      div\n      mul\n      dup4\n      mstore\n      swap2\n      0x20\n      add\n      swap2\n      jump(tag_103)\n    tag_104:\n      dup3\n      add\n      swap2\n      swap1\n      0x00\n      mstore\n      keccak256(0x00, 0x20)\n      swap1\n    tag_105:\n      dup2\n      sload\n      dup2\n      mstore\n      swap1\n      0x01\n      add\n      swap1\n      0x20\n      add\n      dup1\n      dup4\n      gt\n      tag_105\n      jumpi\n      dup3\n      swap1\n      sub\n      0x1f\n      and\n      dup3\n      add\n      swap2\n    tag_103:\n      pop\n      pop\n      pop\n      pop\n      pop\n      swap1\n      dup1\n      0x04\n      add\n      dup1\n      sload\n      tag_106\n      swap1\n      tag_51\n      jump\t// in\n    tag_106:\n      dup1\n      0x1f\n      add\n      0x20\n      dup1\n      swap2\n      div\n      mul\n      0x20\n      add\n      mload(0x40)\n      swap1\n      dup2\n      add\n      0x40\n      mstore\n      dup1\n      swap3\n      swap2\n      swap1\n      dup2\n      dup2\n      mstore\n      0x20\n      add\n      dup3\n      dup1\n      sload\n      tag_107\n      swap1\n      tag_51\n      jump\t// in\n    tag_107:\n      dup1\n      iszero\n      tag_108\n      jumpi\n      dup1\n      0x1f\n      lt\n      tag_109\n      jumpi\n      0x0100\n      dup1\n      dup4\n      sload\n      div\n      mul\n      dup4\n      mstore\n      swap2\n      0x20\n      add\n      swap2\n      jump(tag_108)\n    tag_109:\n      dup3\n      add\n      swap2\n      swap1\n      0x00\n      mstore\n      keccak256(0x00, 0x20)\n      swap1\n    tag_110:\n      dup2\n      sload\n      dup2\n      mstore\n      swap1\n      0x01\n      add\n      swap1\n      0x20\n      add\n      dup1\n      dup4\n      gt\n      tag_110\n      jumpi\n      dup3\n      swap1\n      sub\n      0x1f\n      and\n      dup3\n      add\n      swap2\n    tag_108:\n      pop\n      pop\n      pop\n      pop\n      pop\n      swap1\n      dup1\n      0x05\n      add\n      dup1\n      sload\n      tag_111\n      swap1\n      tag_51\n      jump\t// in\n    tag_111:\n      dup1\n      0x1f\n      add\n      0x20\n      dup1\n      swap2\n      div\n      mul\n      0x20\n      add\n      mload(0x40)\n      swap1\n      dup2\n      add\n      0x40\n      mstore\n      dup1\n      swap3\n      swap2\n      swap1\n      dup2\n      dup2\n      mstore\n      0x20\n      add\n      dup3\n      dup1\n      sload\n      tag_112\n      swap1\n      tag_51\n      jump\t// in\n    tag_112:\n      dup1\n      iszero\n      tag_113\n      jumpi\n      dup1\n      0x1f\n      lt\n      tag_114\n      jumpi\n      0x0100\n      dup1\n      dup4\n      sload\n      div\n      mul\n      dup4\n      mstore\n      swap2\n      0x20\n      add\n      swap2\n      jump(tag_113)\n    tag_114:\n      dup3\n      add\n      swap2\n      swap1\n      0x00\n      mstore\n      keccak256(0x00, 0x20)\n      swap1\n    tag_115:\n      dup2\n      sload\n      dup2\n      mstore\n      swap1\n      0x01\n      add\n      swap1\n      0x20\n      add\n      dup1\n      dup4\n      gt\n      tag_115\n      jumpi\n      dup3\n      swap1\n      sub\n      0x1f\n      and\n      dup3\n      add\n      swap2\n    tag_113:\n      pop\n      pop\n      pop\n      pop\n      pop\n      swap1\n      pop\n      dup7\n      jump\t// out\n        /* \"contracts/MedicalCert.sol\":1552:1676  function getMCCategory(bytes memory id) public view returns(certCategory) {... */\n    tag_26:\n        /* \"contracts/MedicalCert.sol\":1612:1624  certCategory */\n      0x00\n        /* \"contracts/MedicalCert.sol\":1643:1645  MC */\n      0x01\n        /* \"contracts/MedicalCert.sol\":1643:1660  MC[keccak256(id)] */\n      0x00\n        /* \"contracts/MedicalCert.sol\":1656:1658  id */\n      dup4\n        /* \"contracts/MedicalCert.sol\":1646:1659  keccak256(id) */\n      dup1\n      mload\n      swap1\n      0x20\n      add\n      keccak256\n        /* \"contracts/MedicalCert.sol\":1643:1660  MC[keccak256(id)] */\n      dup2\n      mstore\n      0x20\n      add\n      swap1\n      dup2\n      mstore\n      0x20\n      add\n      0x00\n      keccak256\n        /* \"contracts/MedicalCert.sol\":1643:1669  MC[keccak256(id)].incident */\n      0x08\n      add\n      0x00\n      swap1\n      sload\n      swap1\n      0x0100\n      exp\n      swap1\n      div\n      0xff\n      and\n        /* \"contracts/MedicalCert.sol\":1636:1669  return MC[keccak256(id)].incident */\n      swap1\n      pop\n        /* \"contracts/MedicalCert.sol\":1552:1676  function getMCCategory(bytes memory id) public view returns(certCategory) {... */\n      swap2\n      swap1\n      pop\n      jump\t// out\n        /* \"contracts/MedicalCert.sol\":1028:1272  function addMC(uint256 hospital, string memory password, uint256 personId,... */\n    tag_32:\n        /* \"contracts/MedicalCert.sol\":1251:1263  bytes memory */\n      0x60\n        /* \"contracts/MedicalCert.sol\":1028:1272  function addMC(uint256 hospital, string memory password, uint256 personId,... */\n      swap7\n      swap6\n      pop\n      pop\n      pop\n      pop\n      pop\n      pop\n      jump\t// out\n        /* \"contracts/MedicalCert.sol\":781:1022  function createPersonalInfo (uint256 hospitalId, string memory password,... */\n    tag_38:\n        /* \"contracts/MedicalCert.sol\":1011:1018  uint256 */\n      0x00\n        /* \"contracts/MedicalCert.sol\":781:1022  function createPersonalInfo (uint256 hospitalId, string memory password,... */\n      swap8\n      swap7\n      pop\n      pop\n      pop\n      pop\n      pop\n      pop\n      pop\n      jump\t// out\n        /* \"contracts/MedicalCert.sol\":1415:1546  function getMCNRIC(bytes memory id) public view returns(string memory) {... */\n    tag_43:\n        /* \"contracts/MedicalCert.sol\":1471:1484  string memory */\n      0x60\n        /* \"contracts/MedicalCert.sol\":1503:1505  MC */\n      0x01\n        /* \"contracts/MedicalCert.sol\":1503:1520  MC[keccak256(id)] */\n      0x00\n        /* \"contracts/MedicalCert.sol\":1516:1518  id */\n      dup4\n        /* \"contracts/MedicalCert.sol\":1506:1519  keccak256(id) */\n      dup1\n      mload\n      swap1\n      0x20\n      add\n      keccak256\n        /* \"contracts/MedicalCert.sol\":1503:1520  MC[keccak256(id)] */\n      dup2\n      mstore\n      0x20\n      add\n      swap1\n      dup2\n      mstore\n      0x20\n      add\n      0x00\n      keccak256\n        /* \"contracts/MedicalCert.sol\":1503:1534  MC[keccak256(id)].personal_info */\n      0x02\n      add\n        /* \"contracts/MedicalCert.sol\":1503:1539  MC[keccak256(id)].personal_info.NRIC */\n      0x02\n      add\n        /* \"contracts/MedicalCert.sol\":1496:1539  return MC[keccak256(id)].personal_info.NRIC */\n      dup1\n      sload\n      tag_120\n      swap1\n      tag_51\n      jump\t// in\n    tag_120:\n      dup1\n      0x1f\n      add\n      0x20\n      dup1\n      swap2\n      div\n      mul\n      0x20\n      add\n      mload(0x40)\n      swap1\n      dup2\n      add\n      0x40\n      mstore\n      dup1\n      swap3\n      swap2\n      swap1\n      dup2\n      dup2\n      mstore\n      0x20\n      add\n      dup3\n      dup1\n      sload\n      tag_121\n      swap1\n      tag_51\n      jump\t// in\n    tag_121:\n      dup1\n      iszero\n      tag_122\n      jumpi\n      dup1\n      0x1f\n      lt\n      tag_123\n      jumpi\n      0x0100\n      dup1\n      dup4\n      sload\n      div\n      mul\n      dup4\n      mstore\n      swap2\n      0x20\n      add\n      swap2\n      jump(tag_122)\n    tag_123:\n      dup3\n      add\n      swap2\n      swap1\n      0x00\n      mstore\n      keccak256(0x00, 0x20)\n      swap1\n    tag_124:\n      dup2\n      sload\n      dup2\n      mstore\n      swap1\n      0x01\n      add\n      swap1\n      0x20\n      add\n      dup1\n      dup4\n      gt\n      tag_124\n      jumpi\n      dup3\n      swap1\n      sub\n      0x1f\n      and\n      dup3\n      add\n      swap2\n    tag_122:\n      pop\n      pop\n      pop\n      pop\n      pop\n      swap1\n      pop\n        /* \"contracts/MedicalCert.sol\":1415:1546  function getMCNRIC(bytes memory id) public view returns(string memory) {... */\n      swap2\n      swap1\n      pop\n      jump\t// out\n        /* \"contracts/MedicalCert.sol\":1278:1409  function getMCName(bytes memory id) public view returns(string memory) {... */\n    tag_48:\n        /* \"contracts/MedicalCert.sol\":1334:1347  string memory */\n      0x60\n        /* \"contracts/MedicalCert.sol\":1366:1368  MC */\n      0x01\n        /* \"contracts/MedicalCert.sol\":1366:1383  MC[keccak256(id)] */\n      0x00\n        /* \"contracts/MedicalCert.sol\":1379:1381  id */\n      dup4\n        /* \"contracts/MedicalCert.sol\":1369:1382  keccak256(id) */\n      dup1\n      mload\n      swap1\n      0x20\n      add\n      keccak256\n        /* \"contracts/MedicalCert.sol\":1366:1383  MC[keccak256(id)] */\n      dup2\n      mstore\n      0x20\n      add\n      swap1\n      dup2\n      mstore\n      0x20\n      add\n      0x00\n      keccak256\n        /* \"contracts/MedicalCert.sol\":1366:1397  MC[keccak256(id)].personal_info */\n      0x02\n      add\n        /* \"contracts/MedicalCert.sol\":1366:1402  MC[keccak256(id)].personal_info.name */\n      0x01\n      add\n        /* \"contracts/MedicalCert.sol\":1359:1402  return MC[keccak256(id)].personal_info.name */\n      dup1\n      sload\n      tag_126\n      swap1\n      tag_51\n      jump\t// in\n    tag_126:\n      dup1\n      0x1f\n      add\n      0x20\n      dup1\n      swap2\n      div\n      mul\n      0x20\n      add\n      mload(0x40)\n      swap1\n      dup2\n      add\n      0x40\n      mstore\n      dup1\n      swap3\n      swap2\n      swap1\n      dup2\n      dup2\n      mstore\n      0x20\n      add\n      dup3\n      dup1\n      sload\n      tag_127\n      swap1\n      tag_51\n      jump\t// in\n    tag_127:\n      dup1\n      iszero\n      tag_128\n      jumpi\n      dup1\n      0x1f\n      lt\n      tag_129\n      jumpi\n      0x0100\n      dup1\n      dup4\n      sload\n      div\n      mul\n      dup4\n      mstore\n      swap2\n      0x20\n      add\n      swap2\n      jump(tag_128)\n    tag_129:\n      dup3\n      add\n      swap2\n      swap1\n      0x00\n      mstore\n      keccak256(0x00, 0x20)\n      swap1\n    tag_130:\n      dup2\n      sload\n      dup2\n      mstore\n      swap1\n      0x01\n      add\n      swap1\n      0x20\n      add\n      dup1\n      dup4\n      gt\n      tag_130\n      jumpi\n      dup3\n      swap1\n      sub\n      0x1f\n      and\n      dup3\n      add\n      swap2\n    tag_128:\n      pop\n      pop\n      pop\n      pop\n      pop\n      swap1\n      pop\n        /* \"contracts/MedicalCert.sol\":1278:1409  function getMCName(bytes memory id) public view returns(string memory) {... */\n      swap2\n      swap1\n      pop\n      jump\t// out\n        /* \"#utility.yul\":7:82   */\n    tag_131:\n        /* \"#utility.yul\":40:46   */\n      0x00\n        /* \"#utility.yul\":73:75   */\n      0x40\n        /* \"#utility.yul\":67:76   */\n      mload\n        /* \"#utility.yul\":57:76   */\n      swap1\n      pop\n        /* \"#utility.yul\":7:82   */\n      swap1\n      jump\t// out\n        /* \"#utility.yul\":88:205   */\n    tag_132:\n        /* \"#utility.yul\":197:198   */\n      0x00\n        /* \"#utility.yul\":194:195   */\n      dup1\n        /* \"#utility.yul\":187:199   */\n      revert\n        /* \"#utility.yul\":211:328   */\n    tag_133:\n        /* \"#utility.yul\":320:321   */\n      0x00\n        /* \"#utility.yul\":317:318   */\n      dup1\n        /* \"#utility.yul\":310:322   */\n      revert\n        /* \"#utility.yul\":334:411   */\n    tag_134:\n        /* \"#utility.yul\":371:378   */\n      0x00\n        /* \"#utility.yul\":400:405   */\n      dup2\n        /* \"#utility.yul\":389:405   */\n      swap1\n      pop\n        /* \"#utility.yul\":334:411   */\n      swap2\n      swap1\n      pop\n      jump\t// out\n        /* \"#utility.yul\":417:539   */\n    tag_135:\n        /* \"#utility.yul\":490:514   */\n      tag_179\n        /* \"#utility.yul\":508:513   */\n      dup2\n        /* \"#utility.yul\":490:514   */\n      tag_134\n      jump\t// in\n    tag_179:\n        /* \"#utility.yul\":483:488   */\n      dup2\n        /* \"#utility.yul\":480:515   */\n      eq\n        /* \"#utility.yul\":470:533   */\n      tag_180\n      jumpi\n        /* \"#utility.yul\":529:530   */\n      0x00\n        /* \"#utility.yul\":526:527   */\n      dup1\n        /* \"#utility.yul\":519:531   */\n      revert\n        /* \"#utility.yul\":470:533   */\n    tag_180:\n        /* \"#utility.yul\":417:539   */\n      pop\n      jump\t// out\n        /* \"#utility.yul\":545:684   */\n    tag_136:\n        /* \"#utility.yul\":591:596   */\n      0x00\n        /* \"#utility.yul\":629:635   */\n      dup2\n        /* \"#utility.yul\":616:636   */\n      calldataload\n        /* \"#utility.yul\":607:636   */\n      swap1\n      pop\n        /* \"#utility.yul\":645:678   */\n      tag_182\n        /* \"#utility.yul\":672:677   */\n      dup2\n        /* \"#utility.yul\":645:678   */\n      tag_135\n      jump\t// in\n    tag_182:\n        /* \"#utility.yul\":545:684   */\n      swap3\n      swap2\n      pop\n      pop\n      jump\t// out\n        /* \"#utility.yul\":690:1019   */\n    tag_13:\n        /* \"#utility.yul\":749:755   */\n      0x00\n        /* \"#utility.yul\":798:800   */\n      0x20\n        /* \"#utility.yul\":786:795   */\n      dup3\n        /* \"#utility.yul\":777:784   */\n      dup5\n        /* \"#utility.yul\":773:796   */\n      sub\n        /* \"#utility.yul\":769:801   */\n      slt\n        /* \"#utility.yul\":766:885   */\n      iszero\n      tag_184\n      jumpi\n        /* \"#utility.yul\":804:883   */\n      tag_185\n      tag_132\n      jump\t// in\n    tag_185:\n        /* \"#utility.yul\":766:885   */\n    tag_184:\n        /* \"#utility.yul\":924:925   */\n      0x00\n        /* \"#utility.yul\":949:1002   */\n      tag_186\n        /* \"#utility.yul\":994:1001   */\n      dup5\n        /* \"#utility.yul\":985:991   */\n      dup3\n        /* \"#utility.yul\":974:983   */\n      dup6\n        /* \"#utility.yul\":970:992   */\n      add\n        /* \"#utility.yul\":949:1002   */\n      tag_136\n      jump\t// in\n    tag_186:\n        /* \"#utility.yul\":939:1002   */\n      swap2\n      pop\n        /* \"#utility.yul\":895:1012   */\n      pop\n        /* \"#utility.yul\":690:1019   */\n      swap3\n      swap2\n      pop\n      pop\n      jump\t// out\n        /* \"#utility.yul\":1025:1123   */\n    tag_137:\n        /* \"#utility.yul\":1076:1082   */\n      0x00\n        /* \"#utility.yul\":1110:1115   */\n      dup2\n        /* \"#utility.yul\":1104:1116   */\n      mload\n        /* \"#utility.yul\":1094:1116   */\n      swap1\n      pop\n        /* \"#utility.yul\":1025:1123   */\n      swap2\n      swap1\n      pop\n      jump\t// out\n        /* \"#utility.yul\":1129:1297   */\n    tag_138:\n        /* \"#utility.yul\":1212:1223   */\n      0x00\n        /* \"#utility.yul\":1246:1252   */\n      dup3\n        /* \"#utility.yul\":1241:1244   */\n      dup3\n        /* \"#utility.yul\":1234:1253   */\n      mstore\n        /* \"#utility.yul\":1286:1290   */\n      0x20\n        /* \"#utility.yul\":1281:1284   */\n      dup3\n        /* \"#utility.yul\":1277:1291   */\n      add\n        /* \"#utility.yul\":1262:1291   */\n      swap1\n      pop\n        /* \"#utility.yul\":1129:1297   */\n      swap3\n      swap2\n      pop\n      pop\n      jump\t// out\n        /* \"#utility.yul\":1303:1549   */\n    tag_139:\n        /* \"#utility.yul\":1384:1385   */\n      0x00\n        /* \"#utility.yul\":1394:1507   */\n    tag_190:\n        /* \"#utility.yul\":1408:1414   */\n      dup4\n        /* \"#utility.yul\":1405:1406   */\n      dup2\n        /* \"#utility.yul\":1402:1415   */\n      lt\n        /* \"#utility.yul\":1394:1507   */\n      iszero\n      tag_192\n      jumpi\n        /* \"#utility.yul\":1493:1494   */\n      dup1\n        /* \"#utility.yul\":1488:1491   */\n      dup3\n        /* \"#utility.yul\":1484:1495   */\n      add\n        /* \"#utility.yul\":1478:1496   */\n      mload\n        /* \"#utility.yul\":1474:1475   */\n      dup2\n        /* \"#utility.yul\":1469:1472   */\n      dup5\n        /* \"#utility.yul\":1465:1476   */\n      add\n        /* \"#utility.yul\":1458:1497   */\n      mstore\n        /* \"#utility.yul\":1430:1432   */\n      0x20\n        /* \"#utility.yul\":1427:1428   */\n      dup2\n        /* \"#utility.yul\":1423:1433   */\n      add\n        /* \"#utility.yul\":1418:1433   */\n      swap1\n      pop\n        /* \"#utility.yul\":1394:1507   */\n      jump(tag_190)\n    tag_192:\n        /* \"#utility.yul\":1541:1542   */\n      0x00\n        /* \"#utility.yul\":1532:1538   */\n      dup5\n        /* \"#utility.yul\":1527:1530   */\n      dup5\n        /* \"#utility.yul\":1523:1539   */\n      add\n        /* \"#utility.yul\":1516:1543   */\n      mstore\n        /* \"#utility.yul\":1365:1549   */\n      pop\n        /* \"#utility.yul\":1303:1549   */\n      pop\n      pop\n      pop\n      jump\t// out\n        /* \"#utility.yul\":1555:1657   */\n    tag_140:\n        /* \"#utility.yul\":1596:1602   */\n      0x00\n        /* \"#utility.yul\":1647:1649   */\n      0x1f\n        /* \"#utility.yul\":1643:1650   */\n      not\n        /* \"#utility.yul\":1638:1640   */\n      0x1f\n        /* \"#utility.yul\":1631:1636   */\n      dup4\n        /* \"#utility.yul\":1627:1641   */\n      add\n        /* \"#utility.yul\":1623:1651   */\n      and\n        /* \"#utility.yul\":1613:1651   */\n      swap1\n      pop\n        /* \"#utility.yul\":1555:1657   */\n      swap2\n      swap1\n      pop\n      jump\t// out\n        /* \"#utility.yul\":1663:2036   */\n    tag_141:\n        /* \"#utility.yul\":1749:1752   */\n      0x00\n        /* \"#utility.yul\":1777:1815   */\n      tag_195\n        /* \"#utility.yul\":1809:1814   */\n      dup3\n        /* \"#utility.yul\":1777:1815   */\n      tag_137\n      jump\t// in\n    tag_195:\n        /* \"#utility.yul\":1831:1901   */\n      tag_196\n        /* \"#utility.yul\":1894:1900   */\n      dup2\n        /* \"#utility.yul\":1889:1892   */\n      dup6\n        /* \"#utility.yul\":1831:1901   */\n      tag_138\n      jump\t// in\n    tag_196:\n        /* \"#utility.yul\":1824:1901   */\n      swap4\n      pop\n        /* \"#utility.yul\":1910:1975   */\n      tag_197\n        /* \"#utility.yul\":1968:1974   */\n      dup2\n        /* \"#utility.yul\":1963:1966   */\n      dup6\n        /* \"#utility.yul\":1956:1960   */\n      0x20\n        /* \"#utility.yul\":1949:1954   */\n      dup7\n        /* \"#utility.yul\":1945:1961   */\n      add\n        /* \"#utility.yul\":1910:1975   */\n      tag_139\n      jump\t// in\n    tag_197:\n        /* \"#utility.yul\":2000:2029   */\n      tag_198\n        /* \"#utility.yul\":2022:2028   */\n      dup2\n        /* \"#utility.yul\":2000:2029   */\n      tag_140\n      jump\t// in\n    tag_198:\n        /* \"#utility.yul\":1995:1998   */\n      dup5\n        /* \"#utility.yul\":1991:2030   */\n      add\n        /* \"#utility.yul\":1984:2030   */\n      swap2\n      pop\n        /* \"#utility.yul\":1753:2036   */\n      pop\n        /* \"#utility.yul\":1663:2036   */\n      swap3\n      swap2\n      pop\n      pop\n      jump\t// out\n        /* \"#utility.yul\":2042:2119   */\n    tag_142:\n        /* \"#utility.yul\":2079:2086   */\n      0x00\n        /* \"#utility.yul\":2108:2113   */\n      dup2\n        /* \"#utility.yul\":2097:2113   */\n      swap1\n      pop\n        /* \"#utility.yul\":2042:2119   */\n      swap2\n      swap1\n      pop\n      jump\t// out\n        /* \"#utility.yul\":2125:2243   */\n    tag_143:\n        /* \"#utility.yul\":2212:2236   */\n      tag_201\n        /* \"#utility.yul\":2230:2235   */\n      dup2\n        /* \"#utility.yul\":2212:2236   */\n      tag_142\n      jump\t// in\n    tag_201:\n        /* \"#utility.yul\":2207:2210   */\n      dup3\n        /* \"#utility.yul\":2200:2237   */\n      mstore\n        /* \"#utility.yul\":2125:2243   */\n      pop\n      pop\n      jump\t// out\n        /* \"#utility.yul\":2249:2357   */\n    tag_144:\n        /* \"#utility.yul\":2326:2350   */\n      tag_203\n        /* \"#utility.yul\":2344:2349   */\n      dup2\n        /* \"#utility.yul\":2326:2350   */\n      tag_142\n      jump\t// in\n    tag_203:\n        /* \"#utility.yul\":2321:2324   */\n      dup3\n        /* \"#utility.yul\":2314:2351   */\n      mstore\n        /* \"#utility.yul\":2249:2357   */\n      pop\n      pop\n      jump\t// out\n        /* \"#utility.yul\":2363:2462   */\n    tag_145:\n        /* \"#utility.yul\":2415:2421   */\n      0x00\n        /* \"#utility.yul\":2449:2454   */\n      dup2\n        /* \"#utility.yul\":2443:2455   */\n      mload\n        /* \"#utility.yul\":2433:2455   */\n      swap1\n      pop\n        /* \"#utility.yul\":2363:2462   */\n      swap2\n      swap1\n      pop\n      jump\t// out\n        /* \"#utility.yul\":2468:2627   */\n    tag_146:\n        /* \"#utility.yul\":2542:2553   */\n      0x00\n        /* \"#utility.yul\":2576:2582   */\n      dup3\n        /* \"#utility.yul\":2571:2574   */\n      dup3\n        /* \"#utility.yul\":2564:2583   */\n      mstore\n        /* \"#utility.yul\":2616:2620   */\n      0x20\n        /* \"#utility.yul\":2611:2614   */\n      dup3\n        /* \"#utility.yul\":2607:2621   */\n      add\n        /* \"#utility.yul\":2592:2621   */\n      swap1\n      pop\n        /* \"#utility.yul\":2468:2627   */\n      swap3\n      swap2\n      pop\n      pop\n      jump\t// out\n        /* \"#utility.yul\":2633:2990   */\n    tag_147:\n        /* \"#utility.yul\":2711:2714   */\n      0x00\n        /* \"#utility.yul\":2739:2778   */\n      tag_207\n        /* \"#utility.yul\":2772:2777   */\n      dup3\n        /* \"#utility.yul\":2739:2778   */\n      tag_145\n      jump\t// in\n    tag_207:\n        /* \"#utility.yul\":2794:2855   */\n      tag_208\n        /* \"#utility.yul\":2848:2854   */\n      dup2\n        /* \"#utility.yul\":2843:2846   */\n      dup6\n        /* \"#utility.yul\":2794:2855   */\n      tag_146\n      jump\t// in\n    tag_208:\n        /* \"#utility.yul\":2787:2855   */\n      swap4\n      pop\n        /* \"#utility.yul\":2864:2929   */\n      tag_209\n        /* \"#utility.yul\":2922:2928   */\n      dup2\n        /* \"#utility.yul\":2917:2920   */\n      dup6\n        /* \"#utility.yul\":2910:2914   */\n      0x20\n        /* \"#utility.yul\":2903:2908   */\n      dup7\n        /* \"#utility.yul\":2899:2915   */\n      add\n        /* \"#utility.yul\":2864:2929   */\n      tag_139\n      jump\t// in\n    tag_209:\n        /* \"#utility.yul\":2954:2983   */\n      tag_210\n        /* \"#utility.yul\":2976:2982   */\n      dup2\n        /* \"#utility.yul\":2954:2983   */\n      tag_140\n      jump\t// in\n    tag_210:\n        /* \"#utility.yul\":2949:2952   */\n      dup5\n        /* \"#utility.yul\":2945:2984   */\n      add\n        /* \"#utility.yul\":2938:2984   */\n      swap2\n      pop\n        /* \"#utility.yul\":2715:2990   */\n      pop\n        /* \"#utility.yul\":2633:2990   */\n      swap3\n      swap2\n      pop\n      pop\n      jump\t// out\n        /* \"#utility.yul\":3084:4696   */\n    tag_148:\n        /* \"#utility.yul\":3209:3212   */\n      0x00\n        /* \"#utility.yul\":3245:3249   */\n      0xc0\n        /* \"#utility.yul\":3240:3243   */\n      dup4\n        /* \"#utility.yul\":3236:3250   */\n      add\n        /* \"#utility.yul\":3336:3340   */\n      0x00\n        /* \"#utility.yul\":3329:3334   */\n      dup4\n        /* \"#utility.yul\":3325:3341   */\n      add\n        /* \"#utility.yul\":3319:3342   */\n      mload\n        /* \"#utility.yul\":3355:3418   */\n      tag_212\n        /* \"#utility.yul\":3412:3416   */\n      0x00\n        /* \"#utility.yul\":3407:3410   */\n      dup7\n        /* \"#utility.yul\":3403:3417   */\n      add\n        /* \"#utility.yul\":3389:3401   */\n      dup3\n        /* \"#utility.yul\":3355:3418   */\n      tag_144\n      jump\t// in\n    tag_212:\n        /* \"#utility.yul\":3260:3428   */\n      pop\n        /* \"#utility.yul\":3510:3514   */\n      0x20\n        /* \"#utility.yul\":3503:3508   */\n      dup4\n        /* \"#utility.yul\":3499:3515   */\n      add\n        /* \"#utility.yul\":3493:3516   */\n      mload\n        /* \"#utility.yul\":3563:3566   */\n      dup5\n        /* \"#utility.yul\":3557:3561   */\n      dup3\n        /* \"#utility.yul\":3553:3567   */\n      sub\n        /* \"#utility.yul\":3546:3550   */\n      0x20\n        /* \"#utility.yul\":3541:3544   */\n      dup7\n        /* \"#utility.yul\":3537:3551   */\n      add\n        /* \"#utility.yul\":3530:3568   */\n      mstore\n        /* \"#utility.yul\":3589:3662   */\n      tag_213\n        /* \"#utility.yul\":3657:3661   */\n      dup3\n        /* \"#utility.yul\":3643:3655   */\n      dup3\n        /* \"#utility.yul\":3589:3662   */\n      tag_147\n      jump\t// in\n    tag_213:\n        /* \"#utility.yul\":3581:3662   */\n      swap2\n      pop\n        /* \"#utility.yul\":3438:3673   */\n      pop\n        /* \"#utility.yul\":3755:3759   */\n      0x40\n        /* \"#utility.yul\":3748:3753   */\n      dup4\n        /* \"#utility.yul\":3744:3760   */\n      add\n        /* \"#utility.yul\":3738:3761   */\n      mload\n        /* \"#utility.yul\":3808:3811   */\n      dup5\n        /* \"#utility.yul\":3802:3806   */\n      dup3\n        /* \"#utility.yul\":3798:3812   */\n      sub\n        /* \"#utility.yul\":3791:3795   */\n      0x40\n        /* \"#utility.yul\":3786:3789   */\n      dup7\n        /* \"#utility.yul\":3782:3796   */\n      add\n        /* \"#utility.yul\":3775:3813   */\n      mstore\n        /* \"#utility.yul\":3834:3907   */\n      tag_214\n        /* \"#utility.yul\":3902:3906   */\n      dup3\n        /* \"#utility.yul\":3888:3900   */\n      dup3\n        /* \"#utility.yul\":3834:3907   */\n      tag_147\n      jump\t// in\n    tag_214:\n        /* \"#utility.yul\":3826:3907   */\n      swap2\n      pop\n        /* \"#utility.yul\":3683:3918   */\n      pop\n        /* \"#utility.yul\":3999:4003   */\n      0x60\n        /* \"#utility.yul\":3992:3997   */\n      dup4\n        /* \"#utility.yul\":3988:4004   */\n      add\n        /* \"#utility.yul\":3982:4005   */\n      mload\n        /* \"#utility.yul\":4052:4055   */\n      dup5\n        /* \"#utility.yul\":4046:4050   */\n      dup3\n        /* \"#utility.yul\":4042:4056   */\n      sub\n        /* \"#utility.yul\":4035:4039   */\n      0x60\n        /* \"#utility.yul\":4030:4033   */\n      dup7\n        /* \"#utility.yul\":4026:4040   */\n      add\n        /* \"#utility.yul\":4019:4057   */\n      mstore\n        /* \"#utility.yul\":4078:4151   */\n      tag_215\n        /* \"#utility.yul\":4146:4150   */\n      dup3\n        /* \"#utility.yul\":4132:4144   */\n      dup3\n        /* \"#utility.yul\":4078:4151   */\n      tag_147\n      jump\t// in\n    tag_215:\n        /* \"#utility.yul\":4070:4151   */\n      swap2\n      pop\n        /* \"#utility.yul\":3928:4162   */\n      pop\n        /* \"#utility.yul\":4249:4253   */\n      0x80\n        /* \"#utility.yul\":4242:4247   */\n      dup4\n        /* \"#utility.yul\":4238:4254   */\n      add\n        /* \"#utility.yul\":4232:4255   */\n      mload\n        /* \"#utility.yul\":4302:4305   */\n      dup5\n        /* \"#utility.yul\":4296:4300   */\n      dup3\n        /* \"#utility.yul\":4292:4306   */\n      sub\n        /* \"#utility.yul\":4285:4289   */\n      0x80\n        /* \"#utility.yul\":4280:4283   */\n      dup7\n        /* \"#utility.yul\":4276:4290   */\n      add\n        /* \"#utility.yul\":4269:4307   */\n      mstore\n        /* \"#utility.yul\":4328:4401   */\n      tag_216\n        /* \"#utility.yul\":4396:4400   */\n      dup3\n        /* \"#utility.yul\":4382:4394   */\n      dup3\n        /* \"#utility.yul\":4328:4401   */\n      tag_147\n      jump\t// in\n    tag_216:\n        /* \"#utility.yul\":4320:4401   */\n      swap2\n      pop\n        /* \"#utility.yul\":4172:4412   */\n      pop\n        /* \"#utility.yul\":4506:4510   */\n      0xa0\n        /* \"#utility.yul\":4499:4504   */\n      dup4\n        /* \"#utility.yul\":4495:4511   */\n      add\n        /* \"#utility.yul\":4489:4512   */\n      mload\n        /* \"#utility.yul\":4559:4562   */\n      dup5\n        /* \"#utility.yul\":4553:4557   */\n      dup3\n        /* \"#utility.yul\":4549:4563   */\n      sub\n        /* \"#utility.yul\":4542:4546   */\n      0xa0\n        /* \"#utility.yul\":4537:4540   */\n      dup7\n        /* \"#utility.yul\":4533:4547   */\n      add\n        /* \"#utility.yul\":4526:4564   */\n      mstore\n        /* \"#utility.yul\":4585:4658   */\n      tag_217\n        /* \"#utility.yul\":4653:4657   */\n      dup3\n        /* \"#utility.yul\":4639:4651   */\n      dup3\n        /* \"#utility.yul\":4585:4658   */\n      tag_147\n      jump\t// in\n    tag_217:\n        /* \"#utility.yul\":4577:4658   */\n      swap2\n      pop\n        /* \"#utility.yul\":4422:4669   */\n      pop\n        /* \"#utility.yul\":4686:4690   */\n      dup1\n        /* \"#utility.yul\":4679:4690   */\n      swap2\n      pop\n        /* \"#utility.yul\":3214:4696   */\n      pop\n        /* \"#utility.yul\":3084:4696   */\n      swap3\n      swap2\n      pop\n      pop\n      jump\t// out\n        /* \"#utility.yul\":4702:4882   */\n    tag_149:\n        /* \"#utility.yul\":4750:4827   */\n      0x4e487b7100000000000000000000000000000000000000000000000000000000\n        /* \"#utility.yul\":4747:4748   */\n      0x00\n        /* \"#utility.yul\":4740:4828   */\n      mstore\n        /* \"#utility.yul\":4847:4851   */\n      0x21\n        /* \"#utility.yul\":4844:4845   */\n      0x04\n        /* \"#utility.yul\":4837:4852   */\n      mstore\n        /* \"#utility.yul\":4871:4875   */\n      0x24\n        /* \"#utility.yul\":4868:4869   */\n      0x00\n        /* \"#utility.yul\":4861:4876   */\n      revert\n        /* \"#utility.yul\":4888:5007   */\n    tag_150:\n        /* \"#utility.yul\":4975:4976   */\n      0x03\n        /* \"#utility.yul\":4968:4973   */\n      dup2\n        /* \"#utility.yul\":4965:4977   */\n      lt\n        /* \"#utility.yul\":4955:5001   */\n      tag_220\n      jumpi\n        /* \"#utility.yul\":4981:4999   */\n      tag_221\n      tag_149\n      jump\t// in\n    tag_221:\n        /* \"#utility.yul\":4955:5001   */\n    tag_220:\n        /* \"#utility.yul\":4888:5007   */\n      pop\n      jump\t// out\n        /* \"#utility.yul\":5013:5152   */\n    tag_151:\n        /* \"#utility.yul\":5064:5071   */\n      0x00\n        /* \"#utility.yul\":5093:5098   */\n      dup2\n        /* \"#utility.yul\":5082:5098   */\n      swap1\n      pop\n        /* \"#utility.yul\":5099:5146   */\n      tag_223\n        /* \"#utility.yul\":5140:5145   */\n      dup3\n        /* \"#utility.yul\":5099:5146   */\n      tag_150\n      jump\t// in\n    tag_223:\n        /* \"#utility.yul\":5013:5152   */\n      swap2\n      swap1\n      pop\n      jump\t// out\n        /* \"#utility.yul\":5158:5297   */\n    tag_152:\n        /* \"#utility.yul\":5220:5229   */\n      0x00\n        /* \"#utility.yul\":5253:5291   */\n      tag_225\n        /* \"#utility.yul\":5285:5290   */\n      dup3\n        /* \"#utility.yul\":5253:5291   */\n      tag_151\n      jump\t// in\n    tag_225:\n        /* \"#utility.yul\":5240:5291   */\n      swap1\n      pop\n        /* \"#utility.yul\":5158:5297   */\n      swap2\n      swap1\n      pop\n      jump\t// out\n        /* \"#utility.yul\":5303:5458   */\n    tag_153:\n        /* \"#utility.yul\":5402:5451   */\n      tag_227\n        /* \"#utility.yul\":5445:5450   */\n      dup2\n        /* \"#utility.yul\":5402:5451   */\n      tag_152\n      jump\t// in\n    tag_227:\n        /* \"#utility.yul\":5397:5400   */\n      dup3\n        /* \"#utility.yul\":5390:5452   */\n      mstore\n        /* \"#utility.yul\":5303:5458   */\n      pop\n      pop\n      jump\t// out\n        /* \"#utility.yul\":5464:5633   */\n    tag_154:\n        /* \"#utility.yul\":5548:5559   */\n      0x00\n        /* \"#utility.yul\":5582:5588   */\n      dup3\n        /* \"#utility.yul\":5577:5580   */\n      dup3\n        /* \"#utility.yul\":5570:5589   */\n      mstore\n        /* \"#utility.yul\":5622:5626   */\n      0x20\n        /* \"#utility.yul\":5617:5620   */\n      dup3\n        /* \"#utility.yul\":5613:5627   */\n      add\n        /* \"#utility.yul\":5598:5627   */\n      swap1\n      pop\n        /* \"#utility.yul\":5464:5633   */\n      swap3\n      swap2\n      pop\n      pop\n      jump\t// out\n        /* \"#utility.yul\":5639:6016   */\n    tag_155:\n        /* \"#utility.yul\":5727:5730   */\n      0x00\n        /* \"#utility.yul\":5755:5794   */\n      tag_230\n        /* \"#utility.yul\":5788:5793   */\n      dup3\n        /* \"#utility.yul\":5755:5794   */\n      tag_145\n      jump\t// in\n    tag_230:\n        /* \"#utility.yul\":5810:5881   */\n      tag_231\n        /* \"#utility.yul\":5874:5880   */\n      dup2\n        /* \"#utility.yul\":5869:5872   */\n      dup6\n        /* \"#utility.yul\":5810:5881   */\n      tag_154\n      jump\t// in\n    tag_231:\n        /* \"#utility.yul\":5803:5881   */\n      swap4\n      pop\n        /* \"#utility.yul\":5890:5955   */\n      tag_232\n        /* \"#utility.yul\":5948:5954   */\n      dup2\n        /* \"#utility.yul\":5943:5946   */\n      dup6\n        /* \"#utility.yul\":5936:5940   */\n      0x20\n        /* \"#utility.yul\":5929:5934   */\n      dup7\n        /* \"#utility.yul\":5925:5941   */\n      add\n        /* \"#utility.yul\":5890:5955   */\n      tag_139\n      jump\t// in\n    tag_232:\n        /* \"#utility.yul\":5980:6009   */\n      tag_233\n        /* \"#utility.yul\":6002:6008   */\n      dup2\n        /* \"#utility.yul\":5980:6009   */\n      tag_140\n      jump\t// in\n    tag_233:\n        /* \"#utility.yul\":5975:5978   */\n      dup5\n        /* \"#utility.yul\":5971:6010   */\n      add\n        /* \"#utility.yul\":5964:6010   */\n      swap2\n      pop\n        /* \"#utility.yul\":5731:6016   */\n      pop\n        /* \"#utility.yul\":5639:6016   */\n      swap3\n      swap2\n      pop\n      pop\n      jump\t// out\n        /* \"#utility.yul\":6022:7253   */\n    tag_16:\n        /* \"#utility.yul\":6381:6385   */\n      0x00\n        /* \"#utility.yul\":6419:6422   */\n      0xc0\n        /* \"#utility.yul\":6408:6417   */\n      dup3\n        /* \"#utility.yul\":6404:6423   */\n      add\n        /* \"#utility.yul\":6396:6423   */\n      swap1\n      pop\n        /* \"#utility.yul\":6469:6478   */\n      dup2\n        /* \"#utility.yul\":6463:6467   */\n      dup2\n        /* \"#utility.yul\":6459:6479   */\n      sub\n        /* \"#utility.yul\":6455:6456   */\n      0x00\n        /* \"#utility.yul\":6444:6453   */\n      dup4\n        /* \"#utility.yul\":6440:6457   */\n      add\n        /* \"#utility.yul\":6433:6480   */\n      mstore\n        /* \"#utility.yul\":6497:6573   */\n      tag_235\n        /* \"#utility.yul\":6568:6572   */\n      dup2\n        /* \"#utility.yul\":6559:6565   */\n      dup10\n        /* \"#utility.yul\":6497:6573   */\n      tag_141\n      jump\t// in\n    tag_235:\n        /* \"#utility.yul\":6489:6573   */\n      swap1\n      pop\n        /* \"#utility.yul\":6583:6655   */\n      tag_236\n        /* \"#utility.yul\":6651:6653   */\n      0x20\n        /* \"#utility.yul\":6640:6649   */\n      dup4\n        /* \"#utility.yul\":6636:6654   */\n      add\n        /* \"#utility.yul\":6627:6633   */\n      dup9\n        /* \"#utility.yul\":6583:6655   */\n      tag_143\n      jump\t// in\n    tag_236:\n        /* \"#utility.yul\":6702:6711   */\n      dup2\n        /* \"#utility.yul\":6696:6700   */\n      dup2\n        /* \"#utility.yul\":6692:6712   */\n      sub\n        /* \"#utility.yul\":6687:6689   */\n      0x40\n        /* \"#utility.yul\":6676:6685   */\n      dup4\n        /* \"#utility.yul\":6672:6690   */\n      add\n        /* \"#utility.yul\":6665:6713   */\n      mstore\n        /* \"#utility.yul\":6730:6844   */\n      tag_237\n        /* \"#utility.yul\":6839:6843   */\n      dup2\n        /* \"#utility.yul\":6830:6836   */\n      dup8\n        /* \"#utility.yul\":6730:6844   */\n      tag_148\n      jump\t// in\n    tag_237:\n        /* \"#utility.yul\":6722:6844   */\n      swap1\n      pop\n        /* \"#utility.yul\":6854:6938   */\n      tag_238\n        /* \"#utility.yul\":6934:6936   */\n      0x60\n        /* \"#utility.yul\":6923:6932   */\n      dup4\n        /* \"#utility.yul\":6919:6937   */\n      add\n        /* \"#utility.yul\":6910:6916   */\n      dup7\n        /* \"#utility.yul\":6854:6938   */\n      tag_153\n      jump\t// in\n    tag_238:\n        /* \"#utility.yul\":6986:6995   */\n      dup2\n        /* \"#utility.yul\":6980:6984   */\n      dup2\n        /* \"#utility.yul\":6976:6996   */\n      sub\n        /* \"#utility.yul\":6970:6973   */\n      0x80\n        /* \"#utility.yul\":6959:6968   */\n      dup4\n        /* \"#utility.yul\":6955:6974   */\n      add\n        /* \"#utility.yul\":6948:6997   */\n      mstore\n        /* \"#utility.yul\":7014:7092   */\n      tag_239\n        /* \"#utility.yul\":7087:7091   */\n      dup2\n        /* \"#utility.yul\":7078:7084   */\n      dup6\n        /* \"#utility.yul\":7014:7092   */\n      tag_155\n      jump\t// in\n    tag_239:\n        /* \"#utility.yul\":7006:7092   */\n      swap1\n      pop\n        /* \"#utility.yul\":7140:7149   */\n      dup2\n        /* \"#utility.yul\":7134:7138   */\n      dup2\n        /* \"#utility.yul\":7130:7150   */\n      sub\n        /* \"#utility.yul\":7124:7127   */\n      0xa0\n        /* \"#utility.yul\":7113:7122   */\n      dup4\n        /* \"#utility.yul\":7109:7128   */\n      add\n        /* \"#utility.yul\":7102:7151   */\n      mstore\n        /* \"#utility.yul\":7168:7246   */\n      tag_240\n        /* \"#utility.yul\":7241:7245   */\n      dup2\n        /* \"#utility.yul\":7232:7238   */\n      dup5\n        /* \"#utility.yul\":7168:7246   */\n      tag_155\n      jump\t// in\n    tag_240:\n        /* \"#utility.yul\":7160:7246   */\n      swap1\n      pop\n        /* \"#utility.yul\":6022:7253   */\n      swap8\n      swap7\n      pop\n      pop\n      pop\n      pop\n      pop\n      pop\n      pop\n      jump\t// out\n        /* \"#utility.yul\":7259:7381   */\n    tag_156:\n        /* \"#utility.yul\":7332:7356   */\n      tag_242\n        /* \"#utility.yul\":7350:7355   */\n      dup2\n        /* \"#utility.yul\":7332:7356   */\n      tag_142\n      jump\t// in\n    tag_242:\n        /* \"#utility.yul\":7325:7330   */\n      dup2\n        /* \"#utility.yul\":7322:7357   */\n      eq\n        /* \"#utility.yul\":7312:7375   */\n      tag_243\n      jumpi\n        /* \"#utility.yul\":7371:7372   */\n      0x00\n        /* \"#utility.yul\":7368:7369   */\n      dup1\n        /* \"#utility.yul\":7361:7373   */\n      revert\n        /* \"#utility.yul\":7312:7375   */\n    tag_243:\n        /* \"#utility.yul\":7259:7381   */\n      pop\n      jump\t// out\n        /* \"#utility.yul\":7387:7526   */\n    tag_157:\n        /* \"#utility.yul\":7433:7438   */\n      0x00\n        /* \"#utility.yul\":7471:7477   */\n      dup2\n        /* \"#utility.yul\":7458:7478   */\n      calldataload\n        /* \"#utility.yul\":7449:7478   */\n      swap1\n      pop\n        /* \"#utility.yul\":7487:7520   */\n      tag_245\n        /* \"#utility.yul\":7514:7519   */\n      dup2\n        /* \"#utility.yul\":7487:7520   */\n      tag_156\n      jump\t// in\n    tag_245:\n        /* \"#utility.yul\":7387:7526   */\n      swap3\n      swap2\n      pop\n      pop\n      jump\t// out\n        /* \"#utility.yul\":7532:7861   */\n    tag_19:\n        /* \"#utility.yul\":7591:7597   */\n      0x00\n        /* \"#utility.yul\":7640:7642   */\n      0x20\n        /* \"#utility.yul\":7628:7637   */\n      dup3\n        /* \"#utility.yul\":7619:7626   */\n      dup5\n        /* \"#utility.yul\":7615:7638   */\n      sub\n        /* \"#utility.yul\":7611:7643   */\n      slt\n        /* \"#utility.yul\":7608:7727   */\n      iszero\n      tag_247\n      jumpi\n        /* \"#utility.yul\":7646:7725   */\n      tag_248\n      tag_132\n      jump\t// in\n    tag_248:\n        /* \"#utility.yul\":7608:7727   */\n    tag_247:\n        /* \"#utility.yul\":7766:7767   */\n      0x00\n        /* \"#utility.yul\":7791:7844   */\n      tag_249\n        /* \"#utility.yul\":7836:7843   */\n      dup5\n        /* \"#utility.yul\":7827:7833   */\n      dup3\n        /* \"#utility.yul\":7816:7825   */\n      dup6\n        /* \"#utility.yul\":7812:7834   */\n      add\n        /* \"#utility.yul\":7791:7844   */\n      tag_157\n      jump\t// in\n    tag_249:\n        /* \"#utility.yul\":7781:7844   */\n      swap2\n      pop\n        /* \"#utility.yul\":7737:7854   */\n      pop\n        /* \"#utility.yul\":7532:7861   */\n      swap3\n      swap2\n      pop\n      pop\n      jump\t// out\n        /* \"#utility.yul\":7867:9097   */\n    tag_22:\n        /* \"#utility.yul\":8200:8204   */\n      0x00\n        /* \"#utility.yul\":8238:8241   */\n      0xc0\n        /* \"#utility.yul\":8227:8236   */\n      dup3\n        /* \"#utility.yul\":8223:8242   */\n      add\n        /* \"#utility.yul\":8215:8242   */\n      swap1\n      pop\n        /* \"#utility.yul\":8252:8323   */\n      tag_251\n        /* \"#utility.yul\":8320:8321   */\n      0x00\n        /* \"#utility.yul\":8309:8318   */\n      dup4\n        /* \"#utility.yul\":8305:8322   */\n      add\n        /* \"#utility.yul\":8296:8302   */\n      dup10\n        /* \"#utility.yul\":8252:8323   */\n      tag_143\n      jump\t// in\n    tag_251:\n        /* \"#utility.yul\":8370:8379   */\n      dup2\n        /* \"#utility.yul\":8364:8368   */\n      dup2\n        /* \"#utility.yul\":8360:8380   */\n      sub\n        /* \"#utility.yul\":8355:8357   */\n      0x20\n        /* \"#utility.yul\":8344:8353   */\n      dup4\n        /* \"#utility.yul\":8340:8358   */\n      add\n        /* \"#utility.yul\":8333:8381   */\n      mstore\n        /* \"#utility.yul\":8398:8476   */\n      tag_252\n        /* \"#utility.yul\":8471:8475   */\n      dup2\n        /* \"#utility.yul\":8462:8468   */\n      dup9\n        /* \"#utility.yul\":8398:8476   */\n      tag_155\n      jump\t// in\n    tag_252:\n        /* \"#utility.yul\":8390:8476   */\n      swap1\n      pop\n        /* \"#utility.yul\":8523:8532   */\n      dup2\n        /* \"#utility.yul\":8517:8521   */\n      dup2\n        /* \"#utility.yul\":8513:8533   */\n      sub\n        /* \"#utility.yul\":8508:8510   */\n      0x40\n        /* \"#utility.yul\":8497:8506   */\n      dup4\n        /* \"#utility.yul\":8493:8511   */\n      add\n        /* \"#utility.yul\":8486:8534   */\n      mstore\n        /* \"#utility.yul\":8551:8629   */\n      tag_253\n        /* \"#utility.yul\":8624:8628   */\n      dup2\n        /* \"#utility.yul\":8615:8621   */\n      dup8\n        /* \"#utility.yul\":8551:8629   */\n      tag_155\n      jump\t// in\n    tag_253:\n        /* \"#utility.yul\":8543:8629   */\n      swap1\n      pop\n        /* \"#utility.yul\":8676:8685   */\n      dup2\n        /* \"#utility.yul\":8670:8674   */\n      dup2\n        /* \"#utility.yul\":8666:8686   */\n      sub\n        /* \"#utility.yul\":8661:8663   */\n      0x60\n        /* \"#utility.yul\":8650:8659   */\n      dup4\n        /* \"#utility.yul\":8646:8664   */\n      add\n        /* \"#utility.yul\":8639:8687   */\n      mstore\n        /* \"#utility.yul\":8704:8782   */\n      tag_254\n        /* \"#utility.yul\":8777:8781   */\n      dup2\n        /* \"#utility.yul\":8768:8774   */\n      dup7\n        /* \"#utility.yul\":8704:8782   */\n      tag_155\n      jump\t// in\n    tag_254:\n        /* \"#utility.yul\":8696:8782   */\n      swap1\n      pop\n        /* \"#utility.yul\":8830:8839   */\n      dup2\n        /* \"#utility.yul\":8824:8828   */\n      dup2\n        /* \"#utility.yul\":8820:8840   */\n      sub\n        /* \"#utility.yul\":8814:8817   */\n      0x80\n        /* \"#utility.yul\":8803:8812   */\n      dup4\n        /* \"#utility.yul\":8799:8818   */\n      add\n        /* \"#utility.yul\":8792:8841   */\n      mstore\n        /* \"#utility.yul\":8858:8936   */\n      tag_255\n        /* \"#utility.yul\":8931:8935   */\n      dup2\n        /* \"#utility.yul\":8922:8928   */\n      dup6\n        /* \"#utility.yul\":8858:8936   */\n      tag_155\n      jump\t// in\n    tag_255:\n        /* \"#utility.yul\":8850:8936   */\n      swap1\n      pop\n        /* \"#utility.yul\":8984:8993   */\n      dup2\n        /* \"#utility.yul\":8978:8982   */\n      dup2\n        /* \"#utility.yul\":8974:8994   */\n      sub\n        /* \"#utility.yul\":8968:8971   */\n      0xa0\n        /* \"#utility.yul\":8957:8966   */\n      dup4\n        /* \"#utility.yul\":8953:8972   */\n      add\n        /* \"#utility.yul\":8946:8995   */\n      mstore\n        /* \"#utility.yul\":9012:9090   */\n      tag_256\n        /* \"#utility.yul\":9085:9089   */\n      dup2\n        /* \"#utility.yul\":9076:9082   */\n      dup5\n        /* \"#utility.yul\":9012:9090   */\n      tag_155\n      jump\t// in\n    tag_256:\n        /* \"#utility.yul\":9004:9090   */\n      swap1\n      pop\n        /* \"#utility.yul\":7867:9097   */\n      swap8\n      swap7\n      pop\n      pop\n      pop\n      pop\n      pop\n      pop\n      pop\n      jump\t// out\n        /* \"#utility.yul\":9103:9220   */\n    tag_158:\n        /* \"#utility.yul\":9212:9213   */\n      0x00\n        /* \"#utility.yul\":9209:9210   */\n      dup1\n        /* \"#utility.yul\":9202:9214   */\n      revert\n        /* \"#utility.yul\":9226:9343   */\n    tag_159:\n        /* \"#utility.yul\":9335:9336   */\n      0x00\n        /* \"#utility.yul\":9332:9333   */\n      dup1\n        /* \"#utility.yul\":9325:9337   */\n      revert\n        /* \"#utility.yul\":9349:9529   */\n    tag_160:\n        /* \"#utility.yul\":9397:9474   */\n      0x4e487b7100000000000000000000000000000000000000000000000000000000\n        /* \"#utility.yul\":9394:9395   */\n      0x00\n        /* \"#utility.yul\":9387:9475   */\n      mstore\n        /* \"#utility.yul\":9494:9498   */\n      0x41\n        /* \"#utility.yul\":9491:9492   */\n      0x04\n        /* \"#utility.yul\":9484:9499   */\n      mstore\n        /* \"#utility.yul\":9518:9522   */\n      0x24\n        /* \"#utility.yul\":9515:9516   */\n      0x00\n        /* \"#utility.yul\":9508:9523   */\n      revert\n        /* \"#utility.yul\":9535:9816   */\n    tag_161:\n        /* \"#utility.yul\":9618:9645   */\n      tag_261\n        /* \"#utility.yul\":9640:9644   */\n      dup3\n        /* \"#utility.yul\":9618:9645   */\n      tag_140\n      jump\t// in\n    tag_261:\n        /* \"#utility.yul\":9610:9616   */\n      dup2\n        /* \"#utility.yul\":9606:9646   */\n      add\n        /* \"#utility.yul\":9748:9754   */\n      dup2\n        /* \"#utility.yul\":9736:9746   */\n      dup2\n        /* \"#utility.yul\":9733:9755   */\n      lt\n        /* \"#utility.yul\":9712:9730   */\n      0xffffffffffffffff\n        /* \"#utility.yul\":9700:9710   */\n      dup3\n        /* \"#utility.yul\":9697:9731   */\n      gt\n        /* \"#utility.yul\":9694:9756   */\n      or\n        /* \"#utility.yul\":9691:9779   */\n      iszero\n      tag_262\n      jumpi\n        /* \"#utility.yul\":9759:9777   */\n      tag_263\n      tag_160\n      jump\t// in\n    tag_263:\n        /* \"#utility.yul\":9691:9779   */\n    tag_262:\n        /* \"#utility.yul\":9799:9809   */\n      dup1\n        /* \"#utility.yul\":9795:9797   */\n      0x40\n        /* \"#utility.yul\":9788:9810   */\n      mstore\n        /* \"#utility.yul\":9578:9816   */\n      pop\n        /* \"#utility.yul\":9535:9816   */\n      pop\n      pop\n      jump\t// out\n        /* \"#utility.yul\":9822:9951   */\n    tag_162:\n        /* \"#utility.yul\":9856:9862   */\n      0x00\n        /* \"#utility.yul\":9883:9903   */\n      tag_265\n      tag_131\n      jump\t// in\n    tag_265:\n        /* \"#utility.yul\":9873:9903   */\n      swap1\n      pop\n        /* \"#utility.yul\":9912:9945   */\n      tag_266\n        /* \"#utility.yul\":9940:9944   */\n      dup3\n        /* \"#utility.yul\":9932:9938   */\n      dup3\n        /* \"#utility.yul\":9912:9945   */\n      tag_161\n      jump\t// in\n    tag_266:\n        /* \"#utility.yul\":9822:9951   */\n      swap2\n      swap1\n      pop\n      jump\t// out\n        /* \"#utility.yul\":9957:10264   */\n    tag_163:\n        /* \"#utility.yul\":10018:10022   */\n      0x00\n        /* \"#utility.yul\":10108:10126   */\n      0xffffffffffffffff\n        /* \"#utility.yul\":10100:10106   */\n      dup3\n        /* \"#utility.yul\":10097:10127   */\n      gt\n        /* \"#utility.yul\":10094:10150   */\n      iszero\n      tag_268\n      jumpi\n        /* \"#utility.yul\":10130:10148   */\n      tag_269\n      tag_160\n      jump\t// in\n    tag_269:\n        /* \"#utility.yul\":10094:10150   */\n    tag_268:\n        /* \"#utility.yul\":10168:10197   */\n      tag_270\n        /* \"#utility.yul\":10190:10196   */\n      dup3\n        /* \"#utility.yul\":10168:10197   */\n      tag_140\n      jump\t// in\n    tag_270:\n        /* \"#utility.yul\":10160:10197   */\n      swap1\n      pop\n        /* \"#utility.yul\":10252:10256   */\n      0x20\n        /* \"#utility.yul\":10246:10250   */\n      dup2\n        /* \"#utility.yul\":10242:10257   */\n      add\n        /* \"#utility.yul\":10234:10257   */\n      swap1\n      pop\n        /* \"#utility.yul\":9957:10264   */\n      swap2\n      swap1\n      pop\n      jump\t// out\n        /* \"#utility.yul\":10270:10416   */\n    tag_164:\n        /* \"#utility.yul\":10367:10373   */\n      dup3\n        /* \"#utility.yul\":10362:10365   */\n      dup2\n        /* \"#utility.yul\":10357:10360   */\n      dup4\n        /* \"#utility.yul\":10344:10374   */\n      calldatacopy\n        /* \"#utility.yul\":10408:10409   */\n      0x00\n        /* \"#utility.yul\":10399:10405   */\n      dup4\n        /* \"#utility.yul\":10394:10397   */\n      dup4\n        /* \"#utility.yul\":10390:10406   */\n      add\n        /* \"#utility.yul\":10383:10410   */\n      mstore\n        /* \"#utility.yul\":10270:10416   */\n      pop\n      pop\n      pop\n      jump\t// out\n        /* \"#utility.yul\":10422:10845   */\n    tag_165:\n        /* \"#utility.yul\":10499:10504   */\n      0x00\n        /* \"#utility.yul\":10524:10589   */\n      tag_273\n        /* \"#utility.yul\":10540:10588   */\n      tag_274\n        /* \"#utility.yul\":10581:10587   */\n      dup5\n        /* \"#utility.yul\":10540:10588   */\n      tag_163\n      jump\t// in\n    tag_274:\n        /* \"#utility.yul\":10524:10589   */\n      tag_162\n      jump\t// in\n    tag_273:\n        /* \"#utility.yul\":10515:10589   */\n      swap1\n      pop\n        /* \"#utility.yul\":10612:10618   */\n      dup3\n        /* \"#utility.yul\":10605:10610   */\n      dup2\n        /* \"#utility.yul\":10598:10619   */\n      mstore\n        /* \"#utility.yul\":10650:10654   */\n      0x20\n        /* \"#utility.yul\":10643:10648   */\n      dup2\n        /* \"#utility.yul\":10639:10655   */\n      add\n        /* \"#utility.yul\":10688:10691   */\n      dup5\n        /* \"#utility.yul\":10679:10685   */\n      dup5\n        /* \"#utility.yul\":10674:10677   */\n      dup5\n        /* \"#utility.yul\":10670:10686   */\n      add\n        /* \"#utility.yul\":10667:10692   */\n      gt\n        /* \"#utility.yul\":10664:10776   */\n      iszero\n      tag_275\n      jumpi\n        /* \"#utility.yul\":10695:10774   */\n      tag_276\n      tag_159\n      jump\t// in\n    tag_276:\n        /* \"#utility.yul\":10664:10776   */\n    tag_275:\n        /* \"#utility.yul\":10785:10839   */\n      tag_277\n        /* \"#utility.yul\":10832:10838   */\n      dup5\n        /* \"#utility.yul\":10827:10830   */\n      dup3\n        /* \"#utility.yul\":10822:10825   */\n      dup6\n        /* \"#utility.yul\":10785:10839   */\n      tag_164\n      jump\t// in\n    tag_277:\n        /* \"#utility.yul\":10505:10845   */\n      pop\n        /* \"#utility.yul\":10422:10845   */\n      swap4\n      swap3\n      pop\n      pop\n      pop\n      jump\t// out\n        /* \"#utility.yul\":10864:11202   */\n    tag_166:\n        /* \"#utility.yul\":10919:10924   */\n      0x00\n        /* \"#utility.yul\":10968:10971   */\n      dup3\n        /* \"#utility.yul\":10961:10965   */\n      0x1f\n        /* \"#utility.yul\":10953:10959   */\n      dup4\n        /* \"#utility.yul\":10949:10966   */\n      add\n        /* \"#utility.yul\":10945:10972   */\n      slt\n        /* \"#utility.yul\":10935:11057   */\n      tag_279\n      jumpi\n        /* \"#utility.yul\":10976:11055   */\n      tag_280\n      tag_158\n      jump\t// in\n    tag_280:\n        /* \"#utility.yul\":10935:11057   */\n    tag_279:\n        /* \"#utility.yul\":11093:11099   */\n      dup2\n        /* \"#utility.yul\":11080:11100   */\n      calldataload\n        /* \"#utility.yul\":11118:11196   */\n      tag_281\n        /* \"#utility.yul\":11192:11195   */\n      dup5\n        /* \"#utility.yul\":11184:11190   */\n      dup3\n        /* \"#utility.yul\":11177:11181   */\n      0x20\n        /* \"#utility.yul\":11169:11175   */\n      dup7\n        /* \"#utility.yul\":11165:11182   */\n      add\n        /* \"#utility.yul\":11118:11196   */\n      tag_165\n      jump\t// in\n    tag_281:\n        /* \"#utility.yul\":11109:11196   */\n      swap2\n      pop\n        /* \"#utility.yul\":10925:11202   */\n      pop\n        /* \"#utility.yul\":10864:11202   */\n      swap3\n      swap2\n      pop\n      pop\n      jump\t// out\n        /* \"#utility.yul\":11208:11715   */\n    tag_25:\n        /* \"#utility.yul\":11276:11282   */\n      0x00\n        /* \"#utility.yul\":11325:11327   */\n      0x20\n        /* \"#utility.yul\":11313:11322   */\n      dup3\n        /* \"#utility.yul\":11304:11311   */\n      dup5\n        /* \"#utility.yul\":11300:11323   */\n      sub\n        /* \"#utility.yul\":11296:11328   */\n      slt\n        /* \"#utility.yul\":11293:11412   */\n      iszero\n      tag_283\n      jumpi\n        /* \"#utility.yul\":11331:11410   */\n      tag_284\n      tag_132\n      jump\t// in\n    tag_284:\n        /* \"#utility.yul\":11293:11412   */\n    tag_283:\n        /* \"#utility.yul\":11479:11480   */\n      0x00\n        /* \"#utility.yul\":11468:11477   */\n      dup3\n        /* \"#utility.yul\":11464:11481   */\n      add\n        /* \"#utility.yul\":11451:11482   */\n      calldataload\n        /* \"#utility.yul\":11509:11527   */\n      0xffffffffffffffff\n        /* \"#utility.yul\":11501:11507   */\n      dup2\n        /* \"#utility.yul\":11498:11528   */\n      gt\n        /* \"#utility.yul\":11495:11612   */\n      iszero\n      tag_285\n      jumpi\n        /* \"#utility.yul\":11531:11610   */\n      tag_286\n      tag_133\n      jump\t// in\n    tag_286:\n        /* \"#utility.yul\":11495:11612   */\n    tag_285:\n        /* \"#utility.yul\":11636:11698   */\n      tag_287\n        /* \"#utility.yul\":11690:11697   */\n      dup5\n        /* \"#utility.yul\":11681:11687   */\n      dup3\n        /* \"#utility.yul\":11670:11679   */\n      dup6\n        /* \"#utility.yul\":11666:11688   */\n      add\n        /* \"#utility.yul\":11636:11698   */\n      tag_166\n      jump\t// in\n    tag_287:\n        /* \"#utility.yul\":11626:11698   */\n      swap2\n      pop\n        /* \"#utility.yul\":11422:11708   */\n      pop\n        /* \"#utility.yul\":11208:11715   */\n      swap3\n      swap2\n      pop\n      pop\n      jump\t// out\n        /* \"#utility.yul\":11721:11967   */\n    tag_28:\n        /* \"#utility.yul\":11826:11830   */\n      0x00\n        /* \"#utility.yul\":11864:11866   */\n      0x20\n        /* \"#utility.yul\":11853:11862   */\n      dup3\n        /* \"#utility.yul\":11849:11867   */\n      add\n        /* \"#utility.yul\":11841:11867   */\n      swap1\n      pop\n        /* \"#utility.yul\":11877:11960   */\n      tag_289\n        /* \"#utility.yul\":11957:11958   */\n      0x00\n        /* \"#utility.yul\":11946:11955   */\n      dup4\n        /* \"#utility.yul\":11942:11959   */\n      add\n        /* \"#utility.yul\":11933:11939   */\n      dup5\n        /* \"#utility.yul\":11877:11960   */\n      tag_153\n      jump\t// in\n    tag_289:\n        /* \"#utility.yul\":11721:11967   */\n      swap3\n      swap2\n      pop\n      pop\n      jump\t// out\n        /* \"#utility.yul\":11973:12281   */\n    tag_167:\n        /* \"#utility.yul\":12035:12039   */\n      0x00\n        /* \"#utility.yul\":12125:12143   */\n      0xffffffffffffffff\n        /* \"#utility.yul\":12117:12123   */\n      dup3\n        /* \"#utility.yul\":12114:12144   */\n      gt\n        /* \"#utility.yul\":12111:12167   */\n      iszero\n      tag_291\n      jumpi\n        /* \"#utility.yul\":12147:12165   */\n      tag_292\n      tag_160\n      jump\t// in\n    tag_292:\n        /* \"#utility.yul\":12111:12167   */\n    tag_291:\n        /* \"#utility.yul\":12185:12214   */\n      tag_293\n        /* \"#utility.yul\":12207:12213   */\n      dup3\n        /* \"#utility.yul\":12185:12214   */\n      tag_140\n      jump\t// in\n    tag_293:\n        /* \"#utility.yul\":12177:12214   */\n      swap1\n      pop\n        /* \"#utility.yul\":12269:12273   */\n      0x20\n        /* \"#utility.yul\":12263:12267   */\n      dup2\n        /* \"#utility.yul\":12259:12274   */\n      add\n        /* \"#utility.yul\":12251:12274   */\n      swap1\n      pop\n        /* \"#utility.yul\":11973:12281   */\n      swap2\n      swap1\n      pop\n      jump\t// out\n        /* \"#utility.yul\":12287:12712   */\n    tag_168:\n        /* \"#utility.yul\":12365:12370   */\n      0x00\n        /* \"#utility.yul\":12390:12456   */\n      tag_295\n        /* \"#utility.yul\":12406:12455   */\n      tag_296\n        /* \"#utility.yul\":12448:12454   */\n      dup5\n        /* \"#utility.yul\":12406:12455   */\n      tag_167\n      jump\t// in\n    tag_296:\n        /* \"#utility.yul\":12390:12456   */\n      tag_162\n      jump\t// in\n    tag_295:\n        /* \"#utility.yul\":12381:12456   */\n      swap1\n      pop\n        /* \"#utility.yul\":12479:12485   */\n      dup3\n        /* \"#utility.yul\":12472:12477   */\n      dup2\n        /* \"#utility.yul\":12465:12486   */\n      mstore\n        /* \"#utility.yul\":12517:12521   */\n      0x20\n        /* \"#utility.yul\":12510:12515   */\n      dup2\n        /* \"#utility.yul\":12506:12522   */\n      add\n        /* \"#utility.yul\":12555:12558   */\n      dup5\n        /* \"#utility.yul\":12546:12552   */\n      dup5\n        /* \"#utility.yul\":12541:12544   */\n      dup5\n        /* \"#utility.yul\":12537:12553   */\n      add\n        /* \"#utility.yul\":12534:12559   */\n      gt\n        /* \"#utility.yul\":12531:12643   */\n      iszero\n      tag_297\n      jumpi\n        /* \"#utility.yul\":12562:12641   */\n      tag_298\n      tag_159\n      jump\t// in\n    tag_298:\n        /* \"#utility.yul\":12531:12643   */\n    tag_297:\n        /* \"#utility.yul\":12652:12706   */\n      tag_299\n        /* \"#utility.yul\":12699:12705   */\n      dup5\n        /* \"#utility.yul\":12694:12697   */\n      dup3\n        /* \"#utility.yul\":12689:12692   */\n      dup6\n        /* \"#utility.yul\":12652:12706   */\n      tag_164\n      jump\t// in\n    tag_299:\n        /* \"#utility.yul\":12371:12712   */\n      pop\n        /* \"#utility.yul\":12287:12712   */\n      swap4\n      swap3\n      pop\n      pop\n      pop\n      jump\t// out\n        /* \"#utility.yul\":12732:13072   */\n    tag_169:\n        /* \"#utility.yul\":12788:12793   */\n      0x00\n        /* \"#utility.yul\":12837:12840   */\n      dup3\n        /* \"#utility.yul\":12830:12834   */\n      0x1f\n        /* \"#utility.yul\":12822:12828   */\n      dup4\n        /* \"#utility.yul\":12818:12835   */\n      add\n        /* \"#utility.yul\":12814:12841   */\n      slt\n        /* \"#utility.yul\":12804:12926   */\n      tag_301\n      jumpi\n        /* \"#utility.yul\":12845:12924   */\n      tag_302\n      tag_158\n      jump\t// in\n    tag_302:\n        /* \"#utility.yul\":12804:12926   */\n    tag_301:\n        /* \"#utility.yul\":12962:12968   */\n      dup2\n        /* \"#utility.yul\":12949:12969   */\n      calldataload\n        /* \"#utility.yul\":12987:13066   */\n      tag_303\n        /* \"#utility.yul\":13062:13065   */\n      dup5\n        /* \"#utility.yul\":13054:13060   */\n      dup3\n        /* \"#utility.yul\":13047:13051   */\n      0x20\n        /* \"#utility.yul\":13039:13045   */\n      dup7\n        /* \"#utility.yul\":13035:13052   */\n      add\n        /* \"#utility.yul\":12987:13066   */\n      tag_168\n      jump\t// in\n    tag_303:\n        /* \"#utility.yul\":12978:13066   */\n      swap2\n      pop\n        /* \"#utility.yul\":12794:13072   */\n      pop\n        /* \"#utility.yul\":12732:13072   */\n      swap3\n      swap2\n      pop\n      pop\n      jump\t// out\n        /* \"#utility.yul\":13078:13191   */\n    tag_170:\n        /* \"#utility.yul\":13165:13166   */\n      0x03\n        /* \"#utility.yul\":13158:13163   */\n      dup2\n        /* \"#utility.yul\":13155:13167   */\n      lt\n        /* \"#utility.yul\":13145:13185   */\n      tag_305\n      jumpi\n        /* \"#utility.yul\":13181:13182   */\n      0x00\n        /* \"#utility.yul\":13178:13179   */\n      dup1\n        /* \"#utility.yul\":13171:13183   */\n      revert\n        /* \"#utility.yul\":13145:13185   */\n    tag_305:\n        /* \"#utility.yul\":13078:13191   */\n      pop\n      jump\t// out\n        /* \"#utility.yul\":13197:13364   */\n    tag_171:\n        /* \"#utility.yul\":13257:13262   */\n      0x00\n        /* \"#utility.yul\":13295:13301   */\n      dup2\n        /* \"#utility.yul\":13282:13302   */\n      calldataload\n        /* \"#utility.yul\":13273:13302   */\n      swap1\n      pop\n        /* \"#utility.yul\":13311:13358   */\n      tag_307\n        /* \"#utility.yul\":13352:13357   */\n      dup2\n        /* \"#utility.yul\":13311:13358   */\n      tag_170\n      jump\t// in\n    tag_307:\n        /* \"#utility.yul\":13197:13364   */\n      swap3\n      swap2\n      pop\n      pop\n      jump\t// out\n        /* \"#utility.yul\":13370:14995   */\n    tag_31:\n        /* \"#utility.yul\":13518:13524   */\n      0x00\n        /* \"#utility.yul\":13526:13532   */\n      dup1\n        /* \"#utility.yul\":13534:13540   */\n      0x00\n        /* \"#utility.yul\":13542:13548   */\n      dup1\n        /* \"#utility.yul\":13550:13556   */\n      0x00\n        /* \"#utility.yul\":13558:13564   */\n      dup1\n        /* \"#utility.yul\":13607:13610   */\n      0xc0\n        /* \"#utility.yul\":13595:13604   */\n      dup8\n        /* \"#utility.yul\":13586:13593   */\n      dup10\n        /* \"#utility.yul\":13582:13605   */\n      sub\n        /* \"#utility.yul\":13578:13611   */\n      slt\n        /* \"#utility.yul\":13575:13695   */\n      iszero\n      tag_309\n      jumpi\n        /* \"#utility.yul\":13614:13693   */\n      tag_310\n      tag_132\n      jump\t// in\n    tag_310:\n        /* \"#utility.yul\":13575:13695   */\n    tag_309:\n        /* \"#utility.yul\":13734:13735   */\n      0x00\n        /* \"#utility.yul\":13759:13812   */\n      tag_311\n        /* \"#utility.yul\":13804:13811   */\n      dup10\n        /* \"#utility.yul\":13795:13801   */\n      dup3\n        /* \"#utility.yul\":13784:13793   */\n      dup11\n        /* \"#utility.yul\":13780:13802   */\n      add\n        /* \"#utility.yul\":13759:13812   */\n      tag_157\n      jump\t// in\n    tag_311:\n        /* \"#utility.yul\":13749:13812   */\n      swap7\n      pop\n        /* \"#utility.yul\":13705:13822   */\n      pop\n        /* \"#utility.yul\":13889:13891   */\n      0x20\n        /* \"#utility.yul\":13878:13887   */\n      dup8\n        /* \"#utility.yul\":13874:13892   */\n      add\n        /* \"#utility.yul\":13861:13893   */\n      calldataload\n        /* \"#utility.yul\":13920:13938   */\n      0xffffffffffffffff\n        /* \"#utility.yul\":13912:13918   */\n      dup2\n        /* \"#utility.yul\":13909:13939   */\n      gt\n        /* \"#utility.yul\":13906:14023   */\n      iszero\n      tag_312\n      jumpi\n        /* \"#utility.yul\":13942:14021   */\n      tag_313\n      tag_133\n      jump\t// in\n    tag_313:\n        /* \"#utility.yul\":13906:14023   */\n    tag_312:\n        /* \"#utility.yul\":14047:14110   */\n      tag_314\n        /* \"#utility.yul\":14102:14109   */\n      dup10\n        /* \"#utility.yul\":14093:14099   */\n      dup3\n        /* \"#utility.yul\":14082:14091   */\n      dup11\n        /* \"#utility.yul\":14078:14100   */\n      add\n        /* \"#utility.yul\":14047:14110   */\n      tag_169\n      jump\t// in\n    tag_314:\n        /* \"#utility.yul\":14037:14110   */\n      swap6\n      pop\n        /* \"#utility.yul\":13832:14120   */\n      pop\n        /* \"#utility.yul\":14159:14161   */\n      0x40\n        /* \"#utility.yul\":14185:14238   */\n      tag_315\n        /* \"#utility.yul\":14230:14237   */\n      dup10\n        /* \"#utility.yul\":14221:14227   */\n      dup3\n        /* \"#utility.yul\":14210:14219   */\n      dup11\n        /* \"#utility.yul\":14206:14228   */\n      add\n        /* \"#utility.yul\":14185:14238   */\n      tag_157\n      jump\t// in\n    tag_315:\n        /* \"#utility.yul\":14175:14238   */\n      swap5\n      pop\n        /* \"#utility.yul\":14130:14248   */\n      pop\n        /* \"#utility.yul\":14287:14289   */\n      0x60\n        /* \"#utility.yul\":14313:14380   */\n      tag_316\n        /* \"#utility.yul\":14372:14379   */\n      dup10\n        /* \"#utility.yul\":14363:14369   */\n      dup3\n        /* \"#utility.yul\":14352:14361   */\n      dup11\n        /* \"#utility.yul\":14348:14370   */\n      add\n        /* \"#utility.yul\":14313:14380   */\n      tag_171\n      jump\t// in\n    tag_316:\n        /* \"#utility.yul\":14303:14380   */\n      swap4\n      pop\n        /* \"#utility.yul\":14258:14390   */\n      pop\n        /* \"#utility.yul\":14457:14460   */\n      0x80\n        /* \"#utility.yul\":14446:14455   */\n      dup8\n        /* \"#utility.yul\":14442:14461   */\n      add\n        /* \"#utility.yul\":14429:14462   */\n      calldataload\n        /* \"#utility.yul\":14489:14507   */\n      0xffffffffffffffff\n        /* \"#utility.yul\":14481:14487   */\n      dup2\n        /* \"#utility.yul\":14478:14508   */\n      gt\n        /* \"#utility.yul\":14475:14592   */\n      iszero\n      tag_317\n      jumpi\n        /* \"#utility.yul\":14511:14590   */\n      tag_318\n      tag_133\n      jump\t// in\n    tag_318:\n        /* \"#utility.yul\":14475:14592   */\n    tag_317:\n        /* \"#utility.yul\":14616:14679   */\n      tag_319\n        /* \"#utility.yul\":14671:14678   */\n      dup10\n        /* \"#utility.yul\":14662:14668   */\n      dup3\n        /* \"#utility.yul\":14651:14660   */\n      dup11\n        /* \"#utility.yul\":14647:14669   */\n      add\n        /* \"#utility.yul\":14616:14679   */\n      tag_169\n      jump\t// in\n    tag_319:\n        /* \"#utility.yul\":14606:14679   */\n      swap3\n      pop\n        /* \"#utility.yul\":14400:14689   */\n      pop\n        /* \"#utility.yul\":14756:14759   */\n      0xa0\n        /* \"#utility.yul\":14745:14754   */\n      dup8\n        /* \"#utility.yul\":14741:14760   */\n      add\n        /* \"#utility.yul\":14728:14761   */\n      calldataload\n        /* \"#utility.yul\":14788:14806   */\n      0xffffffffffffffff\n        /* \"#utility.yul\":14780:14786   */\n      dup2\n        /* \"#utility.yul\":14777:14807   */\n      gt\n        /* \"#utility.yul\":14774:14891   */\n      iszero\n      tag_320\n      jumpi\n        /* \"#utility.yul\":14810:14889   */\n      tag_321\n      tag_133\n      jump\t// in\n    tag_321:\n        /* \"#utility.yul\":14774:14891   */\n    tag_320:\n        /* \"#utility.yul\":14915:14978   */\n      tag_322\n        /* \"#utility.yul\":14970:14977   */\n      dup10\n        /* \"#utility.yul\":14961:14967   */\n      dup3\n        /* \"#utility.yul\":14950:14959   */\n      dup11\n        /* \"#utility.yul\":14946:14968   */\n      add\n        /* \"#utility.yul\":14915:14978   */\n      tag_169\n      jump\t// in\n    tag_322:\n        /* \"#utility.yul\":14905:14978   */\n      swap2\n      pop\n        /* \"#utility.yul\":14699:14988   */\n      pop\n        /* \"#utility.yul\":13370:14995   */\n      swap3\n      swap6\n      pop\n      swap3\n      swap6\n      pop\n      swap3\n      swap6\n      jump\t// out\n        /* \"#utility.yul\":15001:15310   */\n    tag_34:\n        /* \"#utility.yul\":15112:15116   */\n      0x00\n        /* \"#utility.yul\":15150:15152   */\n      0x20\n        /* \"#utility.yul\":15139:15148   */\n      dup3\n        /* \"#utility.yul\":15135:15153   */\n      add\n        /* \"#utility.yul\":15127:15153   */\n      swap1\n      pop\n        /* \"#utility.yul\":15199:15208   */\n      dup2\n        /* \"#utility.yul\":15193:15197   */\n      dup2\n        /* \"#utility.yul\":15189:15209   */\n      sub\n        /* \"#utility.yul\":15185:15186   */\n      0x00\n        /* \"#utility.yul\":15174:15183   */\n      dup4\n        /* \"#utility.yul\":15170:15187   */\n      add\n        /* \"#utility.yul\":15163:15210   */\n      mstore\n        /* \"#utility.yul\":15227:15303   */\n      tag_324\n        /* \"#utility.yul\":15298:15302   */\n      dup2\n        /* \"#utility.yul\":15289:15295   */\n      dup5\n        /* \"#utility.yul\":15227:15303   */\n      tag_141\n      jump\t// in\n    tag_324:\n        /* \"#utility.yul\":15219:15303   */\n      swap1\n      pop\n        /* \"#utility.yul\":15001:15310   */\n      swap3\n      swap2\n      pop\n      pop\n      jump\t// out\n        /* \"#utility.yul\":15316:17599   */\n    tag_37:\n        /* \"#utility.yul\":15489:15495   */\n      0x00\n        /* \"#utility.yul\":15497:15503   */\n      dup1\n        /* \"#utility.yul\":15505:15511   */\n      0x00\n        /* \"#utility.yul\":15513:15519   */\n      dup1\n        /* \"#utility.yul\":15521:15527   */\n      0x00\n        /* \"#utility.yul\":15529:15535   */\n      dup1\n        /* \"#utility.yul\":15537:15543   */\n      0x00\n        /* \"#utility.yul\":15586:15589   */\n      0xe0\n        /* \"#utility.yul\":15574:15583   */\n      dup9\n        /* \"#utility.yul\":15565:15572   */\n      dup11\n        /* \"#utility.yul\":15561:15584   */\n      sub\n        /* \"#utility.yul\":15557:15590   */\n      slt\n        /* \"#utility.yul\":15554:15674   */\n      iszero\n      tag_326\n      jumpi\n        /* \"#utility.yul\":15593:15672   */\n      tag_327\n      tag_132\n      jump\t// in\n    tag_327:\n        /* \"#utility.yul\":15554:15674   */\n    tag_326:\n        /* \"#utility.yul\":15713:15714   */\n      0x00\n        /* \"#utility.yul\":15738:15791   */\n      tag_328\n        /* \"#utility.yul\":15783:15790   */\n      dup11\n        /* \"#utility.yul\":15774:15780   */\n      dup3\n        /* \"#utility.yul\":15763:15772   */\n      dup12\n        /* \"#utility.yul\":15759:15781   */\n      add\n        /* \"#utility.yul\":15738:15791   */\n      tag_157\n      jump\t// in\n    tag_328:\n        /* \"#utility.yul\":15728:15791   */\n      swap8\n      pop\n        /* \"#utility.yul\":15684:15801   */\n      pop\n        /* \"#utility.yul\":15868:15870   */\n      0x20\n        /* \"#utility.yul\":15857:15866   */\n      dup9\n        /* \"#utility.yul\":15853:15871   */\n      add\n        /* \"#utility.yul\":15840:15872   */\n      calldataload\n        /* \"#utility.yul\":15899:15917   */\n      0xffffffffffffffff\n        /* \"#utility.yul\":15891:15897   */\n      dup2\n        /* \"#utility.yul\":15888:15918   */\n      gt\n        /* \"#utility.yul\":15885:16002   */\n      iszero\n      tag_329\n      jumpi\n        /* \"#utility.yul\":15921:16000   */\n      tag_330\n      tag_133\n      jump\t// in\n    tag_330:\n        /* \"#utility.yul\":15885:16002   */\n    tag_329:\n        /* \"#utility.yul\":16026:16089   */\n      tag_331\n        /* \"#utility.yul\":16081:16088   */\n      dup11\n        /* \"#utility.yul\":16072:16078   */\n      dup3\n        /* \"#utility.yul\":16061:16070   */\n      dup12\n        /* \"#utility.yul\":16057:16079   */\n      add\n        /* \"#utility.yul\":16026:16089   */\n      tag_169\n      jump\t// in\n    tag_331:\n        /* \"#utility.yul\":16016:16089   */\n      swap7\n      pop\n        /* \"#utility.yul\":15811:16099   */\n      pop\n        /* \"#utility.yul\":16166:16168   */\n      0x40\n        /* \"#utility.yul\":16155:16164   */\n      dup9\n        /* \"#utility.yul\":16151:16169   */\n      add\n        /* \"#utility.yul\":16138:16170   */\n      calldataload\n        /* \"#utility.yul\":16197:16215   */\n      0xffffffffffffffff\n        /* \"#utility.yul\":16189:16195   */\n      dup2\n        /* \"#utility.yul\":16186:16216   */\n      gt\n        /* \"#utility.yul\":16183:16300   */\n      iszero\n      tag_332\n      jumpi\n        /* \"#utility.yul\":16219:16298   */\n      tag_333\n      tag_133\n      jump\t// in\n    tag_333:\n        /* \"#utility.yul\":16183:16300   */\n    tag_332:\n        /* \"#utility.yul\":16324:16387   */\n      tag_334\n        /* \"#utility.yul\":16379:16386   */\n      dup11\n        /* \"#utility.yul\":16370:16376   */\n      dup3\n        /* \"#utility.yul\":16359:16368   */\n      dup12\n        /* \"#utility.yul\":16355:16377   */\n      add\n        /* \"#utility.yul\":16324:16387   */\n      tag_169\n      jump\t// in\n    tag_334:\n        /* \"#utility.yul\":16314:16387   */\n      swap6\n      pop\n        /* \"#utility.yul\":16109:16397   */\n      pop\n        /* \"#utility.yul\":16464:16466   */\n      0x60\n        /* \"#utility.yul\":16453:16462   */\n      dup9\n        /* \"#utility.yul\":16449:16467   */\n      add\n        /* \"#utility.yul\":16436:16468   */\n      calldataload\n        /* \"#utility.yul\":16495:16513   */\n      0xffffffffffffffff\n        /* \"#utility.yul\":16487:16493   */\n      dup2\n        /* \"#utility.yul\":16484:16514   */\n      gt\n        /* \"#utility.yul\":16481:16598   */\n      iszero\n      tag_335\n      jumpi\n        /* \"#utility.yul\":16517:16596   */\n      tag_336\n      tag_133\n      jump\t// in\n    tag_336:\n        /* \"#utility.yul\":16481:16598   */\n    tag_335:\n        /* \"#utility.yul\":16622:16685   */\n      tag_337\n        /* \"#utility.yul\":16677:16684   */\n      dup11\n        /* \"#utility.yul\":16668:16674   */\n      dup3\n        /* \"#utility.yul\":16657:16666   */\n      dup12\n        /* \"#utility.yul\":16653:16675   */\n      add\n        /* \"#utility.yul\":16622:16685   */\n      tag_169\n      jump\t// in\n    tag_337:\n        /* \"#utility.yul\":16612:16685   */\n      swap5\n      pop\n        /* \"#utility.yul\":16407:16695   */\n      pop\n        /* \"#utility.yul\":16762:16765   */\n      0x80\n        /* \"#utility.yul\":16751:16760   */\n      dup9\n        /* \"#utility.yul\":16747:16766   */\n      add\n        /* \"#utility.yul\":16734:16767   */\n      calldataload\n        /* \"#utility.yul\":16794:16812   */\n      0xffffffffffffffff\n        /* \"#utility.yul\":16786:16792   */\n      dup2\n        /* \"#utility.yul\":16783:16813   */\n      gt\n        /* \"#utility.yul\":16780:16897   */\n      iszero\n      tag_338\n      jumpi\n        /* \"#utility.yul\":16816:16895   */\n      tag_339\n      tag_133\n      jump\t// in\n    tag_339:\n        /* \"#utility.yul\":16780:16897   */\n    tag_338:\n        /* \"#utility.yul\":16921:16984   */\n      tag_340\n        /* \"#utility.yul\":16976:16983   */\n      dup11\n        /* \"#utility.yul\":16967:16973   */\n      dup3\n        /* \"#utility.yul\":16956:16965   */\n      dup12\n        /* \"#utility.yul\":16952:16974   */\n      add\n        /* \"#utility.yul\":16921:16984   */\n      tag_169\n      jump\t// in\n    tag_340:\n        /* \"#utility.yul\":16911:16984   */\n      swap4\n      pop\n        /* \"#utility.yul\":16705:16994   */\n      pop\n        /* \"#utility.yul\":17061:17064   */\n      0xa0\n        /* \"#utility.yul\":17050:17059   */\n      dup9\n        /* \"#utility.yul\":17046:17065   */\n      add\n        /* \"#utility.yul\":17033:17066   */\n      calldataload\n        /* \"#utility.yul\":17093:17111   */\n      0xffffffffffffffff\n        /* \"#utility.yul\":17085:17091   */\n      dup2\n        /* \"#utility.yul\":17082:17112   */\n      gt\n        /* \"#utility.yul\":17079:17196   */\n      iszero\n      tag_341\n      jumpi\n        /* \"#utility.yul\":17115:17194   */\n      tag_342\n      tag_133\n      jump\t// in\n    tag_342:\n        /* \"#utility.yul\":17079:17196   */\n    tag_341:\n        /* \"#utility.yul\":17220:17283   */\n      tag_343\n        /* \"#utility.yul\":17275:17282   */\n      dup11\n        /* \"#utility.yul\":17266:17272   */\n      dup3\n        /* \"#utility.yul\":17255:17264   */\n      dup12\n        /* \"#utility.yul\":17251:17273   */\n      add\n        /* \"#utility.yul\":17220:17283   */\n      tag_169\n      jump\t// in\n    tag_343:\n        /* \"#utility.yul\":17210:17283   */\n      swap3\n      pop\n        /* \"#utility.yul\":17004:17293   */\n      pop\n        /* \"#utility.yul\":17360:17363   */\n      0xc0\n        /* \"#utility.yul\":17349:17358   */\n      dup9\n        /* \"#utility.yul\":17345:17364   */\n      add\n        /* \"#utility.yul\":17332:17365   */\n      calldataload\n        /* \"#utility.yul\":17392:17410   */\n      0xffffffffffffffff\n        /* \"#utility.yul\":17384:17390   */\n      dup2\n        /* \"#utility.yul\":17381:17411   */\n      gt\n        /* \"#utility.yul\":17378:17495   */\n      iszero\n      tag_344\n      jumpi\n        /* \"#utility.yul\":17414:17493   */\n      tag_345\n      tag_133\n      jump\t// in\n    tag_345:\n        /* \"#utility.yul\":17378:17495   */\n    tag_344:\n        /* \"#utility.yul\":17519:17582   */\n      tag_346\n        /* \"#utility.yul\":17574:17581   */\n      dup11\n        /* \"#utility.yul\":17565:17571   */\n      dup3\n        /* \"#utility.yul\":17554:17563   */\n      dup12\n        /* \"#utility.yul\":17550:17572   */\n      add\n        /* \"#utility.yul\":17519:17582   */\n      tag_169\n      jump\t// in\n    tag_346:\n        /* \"#utility.yul\":17509:17582   */\n      swap2\n      pop\n        /* \"#utility.yul\":17303:17592   */\n      pop\n        /* \"#utility.yul\":15316:17599   */\n      swap3\n      swap6\n      swap9\n      swap2\n      swap5\n      swap8\n      pop\n      swap3\n      swap6\n      pop\n      jump\t// out\n        /* \"#utility.yul\":17605:17827   */\n    tag_40:\n        /* \"#utility.yul\":17698:17702   */\n      0x00\n        /* \"#utility.yul\":17736:17738   */\n      0x20\n        /* \"#utility.yul\":17725:17734   */\n      dup3\n        /* \"#utility.yul\":17721:17739   */\n      add\n        /* \"#utility.yul\":17713:17739   */\n      swap1\n      pop\n        /* \"#utility.yul\":17749:17820   */\n      tag_348\n        /* \"#utility.yul\":17817:17818   */\n      0x00\n        /* \"#utility.yul\":17806:17815   */\n      dup4\n        /* \"#utility.yul\":17802:17819   */\n      add\n        /* \"#utility.yul\":17793:17799   */\n      dup5\n        /* \"#utility.yul\":17749:17820   */\n      tag_143\n      jump\t// in\n    tag_348:\n        /* \"#utility.yul\":17605:17827   */\n      swap3\n      swap2\n      pop\n      pop\n      jump\t// out\n        /* \"#utility.yul\":17833:18146   */\n    tag_45:\n        /* \"#utility.yul\":17946:17950   */\n      0x00\n        /* \"#utility.yul\":17984:17986   */\n      0x20\n        /* \"#utility.yul\":17973:17982   */\n      dup3\n        /* \"#utility.yul\":17969:17987   */\n      add\n        /* \"#utility.yul\":17961:17987   */\n      swap1\n      pop\n        /* \"#utility.yul\":18033:18042   */\n      dup2\n        /* \"#utility.yul\":18027:18031   */\n      dup2\n        /* \"#utility.yul\":18023:18043   */\n      sub\n        /* \"#utility.yul\":18019:18020   */\n      0x00\n        /* \"#utility.yul\":18008:18017   */\n      dup4\n        /* \"#utility.yul\":18004:18021   */\n      add\n        /* \"#utility.yul\":17997:18044   */\n      mstore\n        /* \"#utility.yul\":18061:18139   */\n      tag_350\n        /* \"#utility.yul\":18134:18138   */\n      dup2\n        /* \"#utility.yul\":18125:18131   */\n      dup5\n        /* \"#utility.yul\":18061:18139   */\n      tag_155\n      jump\t// in\n    tag_350:\n        /* \"#utility.yul\":18053:18139   */\n      swap1\n      pop\n        /* \"#utility.yul\":17833:18146   */\n      swap3\n      swap2\n      pop\n      pop\n      jump\t// out\n        /* \"#utility.yul\":18152:18332   */\n    tag_172:\n        /* \"#utility.yul\":18200:18277   */\n      0x4e487b7100000000000000000000000000000000000000000000000000000000\n        /* \"#utility.yul\":18197:18198   */\n      0x00\n        /* \"#utility.yul\":18190:18278   */\n      mstore\n        /* \"#utility.yul\":18297:18301   */\n      0x22\n        /* \"#utility.yul\":18294:18295   */\n      0x04\n        /* \"#utility.yul\":18287:18302   */\n      mstore\n        /* \"#utility.yul\":18321:18325   */\n      0x24\n        /* \"#utility.yul\":18318:18319   */\n      0x00\n        /* \"#utility.yul\":18311:18326   */\n      revert\n        /* \"#utility.yul\":18338:18658   */\n    tag_51:\n        /* \"#utility.yul\":18382:18388   */\n      0x00\n        /* \"#utility.yul\":18419:18420   */\n      0x02\n        /* \"#utility.yul\":18413:18417   */\n      dup3\n        /* \"#utility.yul\":18409:18421   */\n      div\n        /* \"#utility.yul\":18399:18421   */\n      swap1\n      pop\n        /* \"#utility.yul\":18466:18467   */\n      0x01\n        /* \"#utility.yul\":18460:18464   */\n      dup3\n        /* \"#utility.yul\":18456:18468   */\n      and\n        /* \"#utility.yul\":18487:18505   */\n      dup1\n        /* \"#utility.yul\":18477:18558   */\n      tag_353\n      jumpi\n        /* \"#utility.yul\":18543:18547   */\n      0x7f\n        /* \"#utility.yul\":18535:18541   */\n      dup3\n        /* \"#utility.yul\":18531:18548   */\n      and\n        /* \"#utility.yul\":18521:18548   */\n      swap2\n      pop\n        /* \"#utility.yul\":18477:18558   */\n    tag_353:\n        /* \"#utility.yul\":18605:18607   */\n      0x20\n        /* \"#utility.yul\":18597:18603   */\n      dup3\n        /* \"#utility.yul\":18594:18608   */\n      lt\n        /* \"#utility.yul\":18574:18592   */\n      dup2\n        /* \"#utility.yul\":18571:18609   */\n      sub\n        /* \"#utility.yul\":18568:18652   */\n      tag_354\n      jumpi\n        /* \"#utility.yul\":18624:18642   */\n      tag_355\n      tag_172\n      jump\t// in\n    tag_355:\n        /* \"#utility.yul\":18568:18652   */\n    tag_354:\n        /* \"#utility.yul\":18389:18658   */\n      pop\n        /* \"#utility.yul\":18338:18658   */\n      swap2\n      swap1\n      pop\n      jump\t// out\n\n    auxdata: 0xa26469706673582212203213d635f588a68234cc02f9e0c3018828b208e586529271d5b84dd54296596b64736f6c63430008130033\n}\n",
				"bytecode": {
					"linkReferences": {},
					"object": "608060405260008055600060035534801561001957600080fd5b50611503806100296000396000f3fe608060405234801561001057600080fd5b506004361061007d5760003560e01c806366e918b81161005b57806366e918b81461011c578063749464601461014c578063d4c853661461017c578063f29a6f44146101ac5761007d565b8063109075f11461008257806328de3c9b146100b757806329efb4a9146100ec575b600080fd5b61009c60048036038101906100979190610b8a565b6101dc565b6040516100ae96959493929190610e2a565b60405180910390f35b6100d160048036038101906100cc9190610ed3565b6106ab565b6040516100e396959493929190610f00565b60405180910390f35b610106600480360381019061010191906110b9565b61098f565b6040516101139190611102565b60405180910390f35b610136600480360381019061013191906111e3565b6109c3565b60405161014391906112c4565b60405180910390f35b610166600480360381019061016191906112e6565b6109cf565b6040516101739190611430565b60405180910390f35b610196600480360381019061019191906110b9565b6109dc565b6040516101a3919061144b565b60405180910390f35b6101c660048036038101906101c191906110b9565b610a8e565b6040516101d3919061144b565b60405180910390f35b60016020528060005260406000206000915090508060000180546101ff9061149c565b80601f016020809104026020016040519081016040528092919081815260200182805461022b9061149c565b80156102785780601f1061024d57610100808354040283529160200191610278565b820191906000526020600020905b81548152906001019060200180831161025b57829003601f168201915b505050505090806001015490806002016040518060c0016040529081600082015481526020016001820180546102ad9061149c565b80601f01602080910402602001604051908101604052809291908181526020018280546102d99061149c565b80156103265780601f106102fb57610100808354040283529160200191610326565b820191906000526020600020905b81548152906001019060200180831161030957829003601f168201915b5050505050815260200160028201805461033f9061149c565b80601f016020809104026020016040519081016040528092919081815260200182805461036b9061149c565b80156103b85780601f1061038d576101008083540402835291602001916103b8565b820191906000526020600020905b81548152906001019060200180831161039b57829003601f168201915b505050505081526020016003820180546103d19061149c565b80601f01602080910402602001604051908101604052809291908181526020018280546103fd9061149c565b801561044a5780601f1061041f5761010080835404028352916020019161044a565b820191906000526020600020905b81548152906001019060200180831161042d57829003601f168201915b505050505081526020016004820180546104639061149c565b80601f016020809104026020016040519081016040528092919081815260200182805461048f9061149c565b80156104dc5780601f106104b1576101008083540402835291602001916104dc565b820191906000526020600020905b8154815290600101906020018083116104bf57829003601f168201915b505050505081526020016005820180546104f59061149c565b80601f01602080910402602001604051908101604052809291908181526020018280546105219061149c565b801561056e5780601f106105435761010080835404028352916020019161056e565b820191906000526020600020905b81548152906001019060200180831161055157829003601f168201915b505050505081525050908060080160009054906101000a900460ff169080600901805461059a9061149c565b80601f01602080910402602001604051908101604052809291908181526020018280546105c69061149c565b80156106135780601f106105e857610100808354040283529160200191610613565b820191906000526020600020905b8154815290600101906020018083116105f657829003601f168201915b50505050509080600a0180546106289061149c565b80601f01602080910402602001604051908101604052809291908181526020018280546106549061149c565b80156106a15780601f10610676576101008083540402835291602001916106a1565b820191906000526020600020905b81548152906001019060200180831161068457829003601f168201915b5050505050905086565b60026020528060005260406000206000915090508060000154908060010180546106d49061149c565b80601f01602080910402602001604051908101604052809291908181526020018280546107009061149c565b801561074d5780601f106107225761010080835404028352916020019161074d565b820191906000526020600020905b81548152906001019060200180831161073057829003601f168201915b5050505050908060020180546107629061149c565b80601f016020809104026020016040519081016040528092919081815260200182805461078e9061149c565b80156107db5780601f106107b0576101008083540402835291602001916107db565b820191906000526020600020905b8154815290600101906020018083116107be57829003601f168201915b5050505050908060030180546107f09061149c565b80601f016020809104026020016040519081016040528092919081815260200182805461081c9061149c565b80156108695780601f1061083e57610100808354040283529160200191610869565b820191906000526020600020905b81548152906001019060200180831161084c57829003601f168201915b50505050509080600401805461087e9061149c565b80601f01602080910402602001604051908101604052809291908181526020018280546108aa9061149c565b80156108f75780601f106108cc576101008083540402835291602001916108f7565b820191906000526020600020905b8154815290600101906020018083116108da57829003601f168201915b50505050509080600501805461090c9061149c565b80601f01602080910402602001604051908101604052809291908181526020018280546109389061149c565b80156109855780601f1061095a57610100808354040283529160200191610985565b820191906000526020600020905b81548152906001019060200180831161096857829003601f168201915b5050505050905086565b6000600160008380519060200120815260200190815260200160002060080160009054906101000a900460ff169050919050565b60609695505050505050565b6000979650505050505050565b606060016000838051906020012081526020019081526020016000206002016002018054610a099061149c565b80601f0160208091040260200160405190810160405280929190818152602001828054610a359061149c565b8015610a825780601f10610a5757610100808354040283529160200191610a82565b820191906000526020600020905b815481529060010190602001808311610a6557829003601f168201915b50505050509050919050565b606060016000838051906020012081526020019081526020016000206002016001018054610abb9061149c565b80601f0160208091040260200160405190810160405280929190818152602001828054610ae79061149c565b8015610b345780601f10610b0957610100808354040283529160200191610b34565b820191906000526020600020905b815481529060010190602001808311610b1757829003601f168201915b50505050509050919050565b6000604051905090565b600080fd5b600080fd5b6000819050919050565b610b6781610b54565b8114610b7257600080fd5b50565b600081359050610b8481610b5e565b92915050565b600060208284031215610ba057610b9f610b4a565b5b6000610bae84828501610b75565b91505092915050565b600081519050919050565b600082825260208201905092915050565b60005b83811015610bf1578082015181840152602081019050610bd6565b60008484015250505050565b6000601f19601f8301169050919050565b6000610c1982610bb7565b610c238185610bc2565b9350610c33818560208601610bd3565b610c3c81610bfd565b840191505092915050565b6000819050919050565b610c5a81610c47565b82525050565b610c6981610c47565b82525050565b600081519050919050565b600082825260208201905092915050565b6000610c9682610c6f565b610ca08185610c7a565b9350610cb0818560208601610bd3565b610cb981610bfd565b840191505092915050565b600060c083016000830151610cdc6000860182610c60565b5060208301518482036020860152610cf48282610c8b565b91505060408301518482036040860152610d0e8282610c8b565b91505060608301518482036060860152610d288282610c8b565b91505060808301518482036080860152610d428282610c8b565b91505060a083015184820360a0860152610d5c8282610c8b565b9150508091505092915050565b7f4e487b7100000000000000000000000000000000000000000000000000000000600052602160045260246000fd5b60038110610da957610da8610d69565b5b50565b6000819050610dba82610d98565b919050565b6000610dca82610dac565b9050919050565b610dda81610dbf565b82525050565b600082825260208201905092915050565b6000610dfc82610c6f565b610e068185610de0565b9350610e16818560208601610bd3565b610e1f81610bfd565b840191505092915050565b600060c0820190508181036000830152610e448189610c0e565b9050610e536020830188610c51565b8181036040830152610e658187610cc4565b9050610e746060830186610dd1565b8181036080830152610e868185610df1565b905081810360a0830152610e9a8184610df1565b9050979650505050505050565b610eb081610c47565b8114610ebb57600080fd5b50565b600081359050610ecd81610ea7565b92915050565b600060208284031215610ee957610ee8610b4a565b5b6000610ef784828501610ebe565b91505092915050565b600060c082019050610f156000830189610c51565b8181036020830152610f278188610df1565b90508181036040830152610f3b8187610df1565b90508181036060830152610f4f8186610df1565b90508181036080830152610f638185610df1565b905081810360a0830152610f778184610df1565b9050979650505050505050565b600080fd5b600080fd5b7f4e487b7100000000000000000000000000000000000000000000000000000000600052604160045260246000fd5b610fc682610bfd565b810181811067ffffffffffffffff82111715610fe557610fe4610f8e565b5b80604052505050565b6000610ff8610b40565b90506110048282610fbd565b919050565b600067ffffffffffffffff82111561102457611023610f8e565b5b61102d82610bfd565b9050602081019050919050565b82818337600083830152505050565b600061105c61105784611009565b610fee565b90508281526020810184848401111561107857611077610f89565b5b61108384828561103a565b509392505050565b600082601f8301126110a05761109f610f84565b5b81356110b0848260208601611049565b91505092915050565b6000602082840312156110cf576110ce610b4a565b5b600082013567ffffffffffffffff8111156110ed576110ec610b4f565b5b6110f98482850161108b565b91505092915050565b60006020820190506111176000830184610dd1565b92915050565b600067ffffffffffffffff82111561113857611137610f8e565b5b61114182610bfd565b9050602081019050919050565b600061116161115c8461111d565b610fee565b90508281526020810184848401111561117d5761117c610f89565b5b61118884828561103a565b509392505050565b600082601f8301126111a5576111a4610f84565b5b81356111b584826020860161114e565b91505092915050565b600381106111cb57600080fd5b50565b6000813590506111dd816111be565b92915050565b60008060008060008060c08789031215611200576111ff610b4a565b5b600061120e89828a01610ebe565b965050602087013567ffffffffffffffff81111561122f5761122e610b4f565b5b61123b89828a01611190565b955050604061124c89828a01610ebe565b945050606061125d89828a016111ce565b935050608087013567ffffffffffffffff81111561127e5761127d610b4f565b5b61128a89828a01611190565b92505060a087013567ffffffffffffffff8111156112ab576112aa610b4f565b5b6112b789828a01611190565b9150509295509295509295565b600060208201905081810360008301526112de8184610c0e565b905092915050565b600080600080600080600060e0888a03121561130557611304610b4a565b5b60006113138a828b01610ebe565b975050602088013567ffffffffffffffff81111561133457611333610b4f565b5b6113408a828b01611190565b965050604088013567ffffffffffffffff81111561136157611360610b4f565b5b61136d8a828b01611190565b955050606088013567ffffffffffffffff81111561138e5761138d610b4f565b5b61139a8a828b01611190565b945050608088013567ffffffffffffffff8111156113bb576113ba610b4f565b5b6113c78a828b01611190565b93505060a088013567ffffffffffffffff8111156113e8576113e7610b4f565b5b6113f48a828b01611190565b92505060c088013567ffffffffffffffff81111561141557611414610b4f565b5b6114218a828b01611190565b91505092959891949750929550565b60006020820190506114456000830184610c51565b92915050565b600060208201905081810360008301526114658184610df1565b905092915050565b7f4e487b7100000000000000000000000000000000000000000000000000000000600052602260045260246000fd5b600060028204905060018216806114b457607f821691505b6020821081036114c7576114c661146d565b5b5091905056fea26469706673582212203213d635f588a68234cc02f9e0c3018828b208e586529271d5b84dd54296596b64736f6c63430008130033",
					"opcodes": "PUSH1 0x80 PUSH1 0x40 MSTORE PUSH1 0x0 DUP1 SSTORE PUSH1 0x0 PUSH1 0x3 SSTORE CALLVALUE DUP1 ISZERO PUSH2 0x19 JUMPI PUSH1 0x0 DUP1 REVERT JUMPDEST POP PUSH2 0x1503 DUP1 PUSH2 0x29 PUSH1 0x0 CODECOPY PUSH1 0x0 RETURN INVALID PUSH1 0x80 PUSH1 0x40 MSTORE CALLVALUE DUP1 ISZERO PUSH2 0x10 JUMPI PUSH1 0x0 DUP1 REVERT JUMPDEST POP PUSH1 0x4 CALLDATASIZE LT PUSH2 0x7D JUMPI PUSH1 0x0 CALLDATALOAD PUSH1 0xE0 SHR DUP1 PUSH4 0x66E918B8 GT PUSH2 0x5B JUMPI DUP1 PUSH4 0x66E918B8 EQ PUSH2 0x11C JUMPI DUP1 PUSH4 0x74946460 EQ PUSH2 0x14C JUMPI DUP1 PUSH4 0xD4C85366 EQ PUSH2 0x17C JUMPI DUP1 PUSH4 0xF29A6F44 EQ PUSH2 0x1AC JUMPI PUSH2 0x7D JUMP JUMPDEST DUP1 PUSH4 0x109075F1 EQ PUSH2 0x82 JUMPI DUP1 PUSH4 0x28DE3C9B EQ PUSH2 0xB7 JUMPI DUP1 PUSH4 0x29EFB4A9 EQ PUSH2 0xEC JUMPI JUMPDEST PUSH1 0x0 DUP1 REVERT JUMPDEST PUSH2 0x9C PUSH1 0x4 DUP1 CALLDATASIZE SUB DUP2 ADD SWAP1 PUSH2 0x97 SWAP2 SWAP1 PUSH2 0xB8A JUMP JUMPDEST PUSH2 0x1DC JUMP JUMPDEST PUSH1 0x40 MLOAD PUSH2 0xAE SWAP7 SWAP6 SWAP5 SWAP4 SWAP3 SWAP2 SWAP1 PUSH2 0xE2A JUMP JUMPDEST PUSH1 0x40 MLOAD DUP1 SWAP2 SUB SWAP1 RETURN JUMPDEST PUSH2 0xD1 PUSH1 0x4 DUP1 CALLDATASIZE SUB DUP2 ADD SWAP1 PUSH2 0xCC SWAP2 SWAP1 PUSH2 0xED3 JUMP JUMPDEST PUSH2 0x6AB JUMP JUMPDEST PUSH1 0x40 MLOAD PUSH2 0xE3 SWAP7 SWAP6 SWAP5 SWAP4 SWAP3 SWAP2 SWAP1 PUSH2 0xF00 JUMP JUMPDEST PUSH1 0x40 MLOAD DUP1 SWAP2 SUB SWAP1 RETURN JUMPDEST PUSH2 0x106 PUSH1 0x4 DUP1 CALLDATASIZE SUB DUP2 ADD SWAP1 PUSH2 0x101 SWAP2 SWAP1 PUSH2 0x10B9 JUMP JUMPDEST PUSH2 0x98F JUMP JUMPDEST PUSH1 0x40 MLOAD PUSH2 0x113 SWAP2 SWAP1 PUSH2 0x1102 JUMP JUMPDEST PUSH1 0x40 MLOAD DUP1 SWAP2 SUB SWAP1 RETURN JUMPDEST PUSH2 0x136 PUSH1 0x4 DUP1 CALLDATASIZE SUB DUP2 ADD SWAP1 PUSH2 0x131 SWAP2 SWAP1 PUSH2 0x11E3 JUMP JUMPDEST PUSH2 0x9C3 JUMP JUMPDEST PUSH1 0x40 MLOAD PUSH2 0x143 SWAP2 SWAP1 PUSH2 0x12C4 JUMP JUMPDEST PUSH1 0x40 MLOAD DUP1 SWAP2 SUB SWAP1 RETURN JUMPDEST PUSH2 0x166 PUSH1 0x4 DUP1 CALLDATASIZE SUB DUP2 ADD SWAP1 PUSH2 0x161 SWAP2 SWAP1 PUSH2 0x12E6 JUMP JUMPDEST PUSH2 0x9CF JUMP JUMPDEST PUSH1 0x40 MLOAD PUSH2 0x173 SWAP2 SWAP1 PUSH2 0x1430 JUMP JUMPDEST PUSH1 0x40 MLOAD DUP1 SWAP2 SUB SWAP1 RETURN JUMPDEST PUSH2 0x196 PUSH1 0x4 DUP1 CALLDATASIZE SUB DUP2 ADD SWAP1 PUSH2 0x191 SWAP2 SWAP1 PUSH2 0x10B9 JUMP JUMPDEST PUSH2 0x9DC JUMP JUMPDEST PUSH1 0x40 MLOAD PUSH2 0x1A3 SWAP2 SWAP1 PUSH2 0x144B JUMP JUMPDEST PUSH1 0x40 MLOAD DUP1 SWAP2 SUB SWAP1 RETURN JUMPDEST PUSH2 0x1C6 PUSH1 0x4 DUP1 CALLDATASIZE SUB DUP2 ADD SWAP1 PUSH2 0x1C1 SWAP2 SWAP1 PUSH2 0x10B9 JUMP JUMPDEST PUSH2 0xA8E JUMP JUMPDEST PUSH1 0x40 MLOAD PUSH2 0x1D3 SWAP2 SWAP1 PUSH2 0x144B JUMP JUMPDEST PUSH1 0x40 MLOAD DUP1 SWAP2 SUB SWAP1 RETURN JUMPDEST PUSH1 0x1 PUSH1 0x20 MSTORE DUP1 PUSH1 0x0 MSTORE PUSH1 0x40 PUSH1 0x0 KECCAK256 PUSH1 0x0 SWAP2 POP SWAP1 POP DUP1 PUSH1 0x0 ADD DUP1 SLOAD PUSH2 0x1FF SWAP1 PUSH2 0x149C JUMP JUMPDEST DUP1 PUSH1 0x1F ADD PUSH1 0x20 DUP1 SWAP2 DIV MUL PUSH1 0x20 ADD PUSH1 0x40 MLOAD SWAP1 DUP2 ADD PUSH1 0x40 MSTORE DUP1 SWAP3 SWAP2 SWAP1 DUP2 DUP2 MSTORE PUSH1 0x20 ADD DUP3 DUP1 SLOAD PUSH2 0x22B SWAP1 PUSH2 0x149C JUMP JUMPDEST DUP1 ISZERO PUSH2 0x278 JUMPI DUP1 PUSH1 0x1F LT PUSH2 0x24D JUMPI PUSH2 0x100 DUP1 DUP4 SLOAD DIV MUL DUP4 MSTORE SWAP2 PUSH1 0x20 ADD SWAP2 PUSH2 0x278 JUMP JUMPDEST DUP3 ADD SWAP2 SWAP1 PUSH1 0x0 MSTORE PUSH1 0x20 PUSH1 0x0 KECCAK256 SWAP1 JUMPDEST DUP2 SLOAD DUP2 MSTORE SWAP1 PUSH1 0x1 ADD SWAP1 PUSH1 0x20 ADD DUP1 DUP4 GT PUSH2 0x25B JUMPI DUP3 SWAP1 SUB PUSH1 0x1F AND DUP3 ADD SWAP2 JUMPDEST POP POP POP POP POP SWAP1 DUP1 PUSH1 0x1 ADD SLOAD SWAP1 DUP1 PUSH1 0x2 ADD PUSH1 0x40 MLOAD DUP1 PUSH1 0xC0 ADD PUSH1 0x40 MSTORE SWAP1 DUP2 PUSH1 0x0 DUP3 ADD SLOAD DUP2 MSTORE PUSH1 0x20 ADD PUSH1 0x1 DUP3 ADD DUP1 SLOAD PUSH2 0x2AD SWAP1 PUSH2 0x149C JUMP JUMPDEST DUP1 PUSH1 0x1F ADD PUSH1 0x20 DUP1 SWAP2 DIV MUL PUSH1 0x20 ADD PUSH1 0x40 MLOAD SWAP1 DUP2 ADD PUSH1 0x40 MSTORE DUP1 SWAP3 SWAP2 SWAP1 DUP2 DUP2 MSTORE PUSH1 0x20 ADD DUP3 DUP1 SLOAD PUSH2 0x2D9 SWAP1 PUSH2 0x149C JUMP JUMPDEST DUP1 ISZERO PUSH2 0x326 JUMPI DUP1 PUSH1 0x1F LT PUSH2 0x2FB JUMPI PUSH2 0x100 DUP1 DUP4 SLOAD DIV MUL DUP4 MSTORE SWAP2 PUSH1 0x20 ADD SWAP2 PUSH2 0x326 JUMP JUMPDEST DUP3 ADD SWAP2 SWAP1 PUSH1 0x0 MSTORE PUSH1 0x20 PUSH1 0x0 KECCAK256 SWAP1 JUMPDEST DUP2 SLOAD DUP2 MSTORE SWAP1 PUSH1 0x1 ADD SWAP1 PUSH1 0x20 ADD DUP1 DUP4 GT PUSH2 0x309 JUMPI DUP3 SWAP1 SUB PUSH1 0x1F AND DUP3 ADD SWAP2 JUMPDEST POP POP POP POP POP DUP2 MSTORE PUSH1 0x20 ADD PUSH1 0x2 DUP3 ADD DUP1 SLOAD PUSH2 0x33F SWAP1 PUSH2 0x149C JUMP JUMPDEST DUP1 PUSH1 0x1F ADD PUSH1 0x20 DUP1 SWAP2 DIV MUL PUSH1 0x20 ADD PUSH1 0x40 MLOAD SWAP1 DUP2 ADD PUSH1 0x40 MSTORE DUP1 SWAP3 SWAP2 SWAP1 DUP2 DUP2 MSTORE PUSH1 0x20 ADD DUP3 DUP1 SLOAD PUSH2 0x36B SWAP1 PUSH2 0x149C JUMP JUMPDEST DUP1 ISZERO PUSH2 0x3B8 JUMPI DUP1 PUSH1 0x1F LT PUSH2 0x38D JUMPI PUSH2 0x100 DUP1 DUP4 SLOAD DIV MUL DUP4 MSTORE SWAP2 PUSH1 0x20 ADD SWAP2 PUSH2 0x3B8 JUMP JUMPDEST DUP3 ADD SWAP2 SWAP1 PUSH1 0x0 MSTORE PUSH1 0x20 PUSH1 0x0 KECCAK256 SWAP1 JUMPDEST DUP2 SLOAD DUP2 MSTORE SWAP1 PUSH1 0x1 ADD SWAP1 PUSH1 0x20 ADD DUP1 DUP4 GT PUSH2 0x39B JUMPI DUP3 SWAP1 SUB PUSH1 0x1F AND DUP3 ADD SWAP2 JUMPDEST POP POP POP POP POP DUP2 MSTORE PUSH1 0x20 ADD PUSH1 0x3 DUP3 ADD DUP1 SLOAD PUSH2 0x3D1 SWAP1 PUSH2 0x149C JUMP JUMPDEST DUP1 PUSH1 0x1F ADD PUSH1 0x20 DUP1 SWAP2 DIV MUL PUSH1 0x20 ADD PUSH1 0x40 MLOAD SWAP1 DUP2 ADD PUSH1 0x40 MSTORE DUP1 SWAP3 SWAP2 SWAP1 DUP2 DUP2 MSTORE PUSH1 0x20 ADD DUP3 DUP1 SLOAD PUSH2 0x3FD SWAP1 PUSH2 0x149C JUMP JUMPDEST DUP1 ISZERO PUSH2 0x44A JUMPI DUP1 PUSH1 0x1F LT PUSH2 0x41F JUMPI PUSH2 0x100 DUP1 DUP4 SLOAD DIV MUL DUP4 MSTORE SWAP2 PUSH1 0x20 ADD SWAP2 PUSH2 0x44A JUMP JUMPDEST DUP3 ADD SWAP2 SWAP1 PUSH1 0x0 MSTORE PUSH1 0x20 PUSH1 0x0 KECCAK256 SWAP1 JUMPDEST DUP2 SLOAD DUP2 MSTORE SWAP1 PUSH1 0x1 ADD SWAP1 PUSH1 0x20 ADD DUP1 DUP4 GT PUSH2 0x42D JUMPI DUP3 SWAP1 SUB PUSH1 0x1F AND DUP3 ADD SWAP2 JUMPDEST POP POP POP POP POP DUP2 MSTORE PUSH1 0x20 ADD PUSH1 0x4 DUP3 ADD DUP1 SLOAD PUSH2 0x463 SWAP1 PUSH2 0x149C JUMP JUMPDEST DUP1 PUSH1 0x1F ADD PUSH1 0x20 DUP1 SWAP2 DIV MUL PUSH1 0x20 ADD PUSH1 0x40 MLOAD SWAP1 DUP2 ADD PUSH1 0x40 MSTORE DUP1 SWAP3 SWAP2 SWAP1 DUP2 DUP2 MSTORE PUSH1 0x20 ADD DUP3 DUP1 SLOAD PUSH2 0x48F SWAP1 PUSH2 0x149C JUMP JUMPDEST DUP1 ISZERO PUSH2 0x4DC JUMPI DUP1 PUSH1 0x1F LT PUSH2 0x4B1 JUMPI PUSH2 0x100 DUP1 DUP4 SLOAD DIV MUL DUP4 MSTORE SWAP2 PUSH1 0x20 ADD SWAP2 PUSH2 0x4DC JUMP JUMPDEST DUP3 ADD SWAP2 SWAP1 PUSH1 0x0 MSTORE PUSH1 0x20 PUSH1 0x0 KECCAK256 SWAP1 JUMPDEST DUP2 SLOAD DUP2 MSTORE SWAP1 PUSH1 0x1 ADD SWAP1 PUSH1 0x20 ADD DUP1 DUP4 GT PUSH2 0x4BF JUMPI DUP3 SWAP1 SUB PUSH1 0x1F AND DUP3 ADD SWAP2 JUMPDEST POP POP POP POP POP DUP2 MSTORE PUSH1 0x20 ADD PUSH1 0x5 DUP3 ADD DUP1 SLOAD PUSH2 0x4F5 SWAP1 PUSH2 0x149C JUMP JUMPDEST DUP1 PUSH1 0x1F ADD PUSH1 0x20 DUP1 SWAP2 DIV MUL PUSH1 0x20 ADD PUSH1 0x40 MLOAD SWAP1 DUP2 ADD PUSH1 0x40 MSTORE DUP1 SWAP3 SWAP2 SWAP1 DUP2 DUP2 MSTORE PUSH1 0x20 ADD DUP3 DUP1 SLOAD PUSH2 0x521 SWAP1 PUSH2 0x149C JUMP JUMPDEST DUP1 ISZERO PUSH2 0x56E JUMPI DUP1 PUSH1 0x1F LT PUSH2 0x543 JUMPI PUSH2 0x100 DUP1 DUP4 SLOAD DIV MUL DUP4 MSTORE SWAP2 PUSH1 0x20 ADD SWAP2 PUSH2 0x56E JUMP JUMPDEST DUP3 ADD SWAP2 SWAP1 PUSH1 0x0 MSTORE PUSH1 0x20 PUSH1 0x0 KECCAK256 SWAP1 JUMPDEST DUP2 SLOAD DUP2 MSTORE SWAP1 PUSH1 0x1 ADD SWAP1 PUSH1 0x20 ADD DUP1 DUP4 GT PUSH2 0x551 JUMPI DUP3 SWAP1 SUB PUSH1 0x1F AND DUP3 ADD SWAP2 JUMPDEST POP POP POP POP POP DUP2 MSTORE POP POP SWAP1 DUP1 PUSH1 0x8 ADD PUSH1 0x0 SWAP1 SLOAD SWAP1 PUSH2 0x100 EXP SWAP1 DIV PUSH1 0xFF AND SWAP1 DUP1 PUSH1 0x9 ADD DUP1 SLOAD PUSH2 0x59A SWAP1 PUSH2 0x149C JUMP JUMPDEST DUP1 PUSH1 0x1F ADD PUSH1 0x20 DUP1 SWAP2 DIV MUL PUSH1 0x20 ADD PUSH1 0x40 MLOAD SWAP1 DUP2 ADD PUSH1 0x40 MSTORE DUP1 SWAP3 SWAP2 SWAP1 DUP2 DUP2 MSTORE PUSH1 0x20 ADD DUP3 DUP1 SLOAD PUSH2 0x5C6 SWAP1 PUSH2 0x149C JUMP JUMPDEST DUP1 ISZERO PUSH2 0x613 JUMPI DUP1 PUSH1 0x1F LT PUSH2 0x5E8 JUMPI PUSH2 0x100 DUP1 DUP4 SLOAD DIV MUL DUP4 MSTORE SWAP2 PUSH1 0x20 ADD SWAP2 PUSH2 0x613 JUMP JUMPDEST DUP3 ADD SWAP2 SWAP1 PUSH1 0x0 MSTORE PUSH1 0x20 PUSH1 0x0 KECCAK256 SWAP1 JUMPDEST DUP2 SLOAD DUP2 MSTORE SWAP1 PUSH1 0x1 ADD SWAP1 PUSH1 0x20 ADD DUP1 DUP4 GT PUSH2 0x5F6 JUMPI DUP3 SWAP1 SUB PUSH1 0x1F AND DUP3 ADD SWAP2 JUMPDEST POP POP POP POP POP SWAP1 DUP1 PUSH1 0xA ADD DUP1 SLOAD PUSH2 0x628 SWAP1 PUSH2 0x149C JUMP JUMPDEST DUP1 PUSH1 0x1F ADD PUSH1 0x20 DUP1 SWAP2 DIV MUL PUSH1 0x20 ADD PUSH1 0x40 MLOAD SWAP1 DUP2 ADD PUSH1 0x40 MSTORE DUP1 SWAP3 SWAP2 SWAP1 DUP2 DUP2 MSTORE PUSH1 0x20 ADD DUP3 DUP1 SLOAD PUSH2 0x654 SWAP1 PUSH2 0x149C JUMP JUMPDEST DUP1 ISZERO PUSH2 0x6A1 JUMPI DUP1 PUSH1 0x1F LT PUSH2 0x676 JUMPI PUSH2 0x100 DUP1 DUP4 SLOAD DIV MUL DUP4 MSTORE SWAP2 PUSH1 0x20 ADD SWAP2 PUSH2 0x6A1 JUMP JUMPDEST DUP3 ADD SWAP2 SWAP1 PUSH1 0x0 MSTORE PUSH1 0x20 PUSH1 0x0 KECCAK256 SWAP1 JUMPDEST DUP2 SLOAD DUP2 MSTORE SWAP1 PUSH1 0x1 ADD SWAP1 PUSH1 0x20 ADD DUP1 DUP4 GT PUSH2 0x684 JUMPI DUP3 SWAP1 SUB PUSH1 0x1F AND DUP3 ADD SWAP2 JUMPDEST POP POP POP POP POP SWAP1 POP DUP7 JUMP JUMPDEST PUSH1 0x2 PUSH1 0x20 MSTORE DUP1 PUSH1 0x0 MSTORE PUSH1 0x40 PUSH1 0x0 KECCAK256 PUSH1 0x0 SWAP2 POP SWAP1 POP DUP1 PUSH1 0x0 ADD SLOAD SWAP1 DUP1 PUSH1 0x1 ADD DUP1 SLOAD PUSH2 0x6D4 SWAP1 PUSH2 0x149C JUMP JUMPDEST DUP1 PUSH1 0x1F ADD PUSH1 0x20 DUP1 SWAP2 DIV MUL PUSH1 0x20 ADD PUSH1 0x40 MLOAD SWAP1 DUP2 ADD PUSH1 0x40 MSTORE DUP1 SWAP3 SWAP2 SWAP1 DUP2 DUP2 MSTORE PUSH1 0x20 ADD DUP3 DUP1 SLOAD PUSH2 0x700 SWAP1 PUSH2 0x149C JUMP JUMPDEST DUP1 ISZERO PUSH2 0x74D JUMPI DUP1 PUSH1 0x1F LT PUSH2 0x722 JUMPI PUSH2 0x100 DUP1 DUP4 SLOAD DIV MUL DUP4 MSTORE SWAP2 PUSH1 0x20 ADD SWAP2 PUSH2 0x74D JUMP JUMPDEST DUP3 ADD SWAP2 SWAP1 PUSH1 0x0 MSTORE PUSH1 0x20 PUSH1 0x0 KECCAK256 SWAP1 JUMPDEST DUP2 SLOAD DUP2 MSTORE SWAP1 PUSH1 0x1 ADD SWAP1 PUSH1 0x20 ADD DUP1 DUP4 GT PUSH2 0x730 JUMPI DUP3 SWAP1 SUB PUSH1 0x1F AND DUP3 ADD SWAP2 JUMPDEST POP POP POP POP POP SWAP1 DUP1 PUSH1 0x2 ADD DUP1 SLOAD PUSH2 0x762 SWAP1 PUSH2 0x149C JUMP JUMPDEST DUP1 PUSH1 0x1F ADD PUSH1 0x20 DUP1 SWAP2 DIV MUL PUSH1 0x20 ADD PUSH1 0x40 MLOAD SWAP1 DUP2 ADD PUSH1 0x40 MSTORE DUP1 SWAP3 SWAP2 SWAP1 DUP2 DUP2 MSTORE PUSH1 0x20 ADD DUP3 DUP1 SLOAD PUSH2 0x78E SWAP1 PUSH2 0x149C JUMP JUMPDEST DUP1 ISZERO PUSH2 0x7DB JUMPI DUP1 PUSH1 0x1F LT PUSH2 0x7B0 JUMPI PUSH2 0x100 DUP1 DUP4 SLOAD DIV MUL DUP4 MSTORE SWAP2 PUSH1 0x20 ADD SWAP2 PUSH2 0x7DB JUMP JUMPDEST DUP3 ADD SWAP2 SWAP1 PUSH1 0x0 MSTORE PUSH1 0x20 PUSH1 0x0 KECCAK256 SWAP1 JUMPDEST DUP2 SLOAD DUP2 MSTORE SWAP1 PUSH1 0x1 ADD SWAP1 PUSH1 0x20 ADD DUP1 DUP4 GT PUSH2 0x7BE JUMPI DUP3 SWAP1 SUB PUSH1 0x1F AND DUP3 ADD SWAP2 JUMPDEST POP POP POP POP POP SWAP1 DUP1 PUSH1 0x3 ADD DUP1 SLOAD PUSH2 0x7F0 SWAP1 PUSH2 0x149C JUMP JUMPDEST DUP1 PUSH1 0x1F ADD PUSH1 0x20 DUP1 SWAP2 DIV MUL PUSH1 0x20 ADD PUSH1 0x40 MLOAD SWAP1 DUP2 ADD PUSH1 0x40 MSTORE DUP1 SWAP3 SWAP2 SWAP1 DUP2 DUP2 MSTORE PUSH1 0x20 ADD DUP3 DUP1 SLOAD PUSH2 0x81C SWAP1 PUSH2 0x149C JUMP JUMPDEST DUP1 ISZERO PUSH2 0x869 JUMPI DUP1 PUSH1 0x1F LT PUSH2 0x83E JUMPI PUSH2 0x100 DUP1 DUP4 SLOAD DIV MUL DUP4 MSTORE SWAP2 PUSH1 0x20 ADD SWAP2 PUSH2 0x869 JUMP JUMPDEST DUP3 ADD SWAP2 SWAP1 PUSH1 0x0 MSTORE PUSH1 0x20 PUSH1 0x0 KECCAK256 SWAP1 JUMPDEST DUP2 SLOAD DUP2 MSTORE SWAP1 PUSH1 0x1 ADD SWAP1 PUSH1 0x20 ADD DUP1 DUP4 GT PUSH2 0x84C JUMPI DUP3 SWAP1 SUB PUSH1 0x1F AND DUP3 ADD SWAP2 JUMPDEST POP POP POP POP POP SWAP1 DUP1 PUSH1 0x4 ADD DUP1 SLOAD PUSH2 0x87E SWAP1 PUSH2 0x149C JUMP JUMPDEST DUP1 PUSH1 0x1F ADD PUSH1 0x20 DUP1 SWAP2 DIV MUL PUSH1 0x20 ADD PUSH1 0x40 MLOAD SWAP1 DUP2 ADD PUSH1 0x40 MSTORE DUP1 SWAP3 SWAP2 SWAP1 DUP2 DUP2 MSTORE PUSH1 0x20 ADD DUP3 DUP1 SLOAD PUSH2 0x8AA SWAP1 PUSH2 0x149C JUMP JUMPDEST DUP1 ISZERO PUSH2 0x8F7 JUMPI DUP1 PUSH1 0x1F LT PUSH2 0x8CC JUMPI PUSH2 0x100 DUP1 DUP4 SLOAD DIV MUL DUP4 MSTORE SWAP2 PUSH1 0x20 ADD SWAP2 PUSH2 0x8F7 JUMP JUMPDEST DUP3 ADD SWAP2 SWAP1 PUSH1 0x0 MSTORE PUSH1 0x20 PUSH1 0x0 KECCAK256 SWAP1 JUMPDEST DUP2 SLOAD DUP2 MSTORE SWAP1 PUSH1 0x1 ADD SWAP1 PUSH1 0x20 ADD DUP1 DUP4 GT PUSH2 0x8DA JUMPI DUP3 SWAP1 SUB PUSH1 0x1F AND DUP3 ADD SWAP2 JUMPDEST POP POP POP POP POP SWAP1 DUP1 PUSH1 0x5 ADD DUP1 SLOAD PUSH2 0x90C SWAP1 PUSH2 0x149C JUMP JUMPDEST DUP1 PUSH1 0x1F ADD PUSH1 0x20 DUP1 SWAP2 DIV MUL PUSH1 0x20 ADD PUSH1 0x40 MLOAD SWAP1 DUP2 ADD PUSH1 0x40 MSTORE DUP1 SWAP3 SWAP2 SWAP1 DUP2 DUP2 MSTORE PUSH1 0x20 ADD DUP3 DUP1 SLOAD PUSH2 0x938 SWAP1 PUSH2 0x149C JUMP JUMPDEST DUP1 ISZERO PUSH2 0x985 JUMPI DUP1 PUSH1 0x1F LT PUSH2 0x95A JUMPI PUSH2 0x100 DUP1 DUP4 SLOAD DIV MUL DUP4 MSTORE SWAP2 PUSH1 0x20 ADD SWAP2 PUSH2 0x985 JUMP JUMPDEST DUP3 ADD SWAP2 SWAP1 PUSH1 0x0 MSTORE PUSH1 0x20 PUSH1 0x0 KECCAK256 SWAP1 JUMPDEST DUP2 SLOAD DUP2 MSTORE SWAP1 PUSH1 0x1 ADD SWAP1 PUSH1 0x20 ADD DUP1 DUP4 GT PUSH2 0x968 JUMPI DUP3 SWAP1 SUB PUSH1 0x1F AND DUP3 ADD SWAP2 JUMPDEST POP POP POP POP POP SWAP1 POP DUP7 JUMP JUMPDEST PUSH1 0x0 PUSH1 0x1 PUSH1 0x0 DUP4 DUP1 MLOAD SWAP1 PUSH1 0x20 ADD KECCAK256 DUP2 MSTORE PUSH1 0x20 ADD SWAP1 DUP2 MSTORE PUSH1 0x20 ADD PUSH1 0x0 KECCAK256 PUSH1 0x8 ADD PUSH1 0x0 SWAP1 SLOAD SWAP1 PUSH2 0x100 EXP SWAP1 DIV PUSH1 0xFF AND SWAP1 POP SWAP2 SWAP1 POP JUMP JUMPDEST PUSH1 0x60 SWAP7 SWAP6 POP POP POP POP POP POP JUMP JUMPDEST PUSH1 0x0 SWAP8 SWAP7 POP POP POP POP POP POP POP JUMP JUMPDEST PUSH1 0x60 PUSH1 0x1 PUSH1 0x0 DUP4 DUP1 MLOAD SWAP1 PUSH1 0x20 ADD KECCAK256 DUP2 MSTORE PUSH1 0x20 ADD SWAP1 DUP2 MSTORE PUSH1 0x20 ADD PUSH1 0x0 KECCAK256 PUSH1 0x2 ADD PUSH1 0x2 ADD DUP1 SLOAD PUSH2 0xA09 SWAP1 PUSH2 0x149C JUMP JUMPDEST DUP1 PUSH1 0x1F ADD PUSH1 0x20 DUP1 SWAP2 DIV MUL PUSH1 0x20 ADD PUSH1 0x40 MLOAD SWAP1 DUP2 ADD PUSH1 0x40 MSTORE DUP1 SWAP3 SWAP2 SWAP1 DUP2 DUP2 MSTORE PUSH1 0x20 ADD DUP3 DUP1 SLOAD PUSH2 0xA35 SWAP1 PUSH2 0x149C JUMP JUMPDEST DUP1 ISZERO PUSH2 0xA82 JUMPI DUP1 PUSH1 0x1F LT PUSH2 0xA57 JUMPI PUSH2 0x100 DUP1 DUP4 SLOAD DIV MUL DUP4 MSTORE SWAP2 PUSH1 0x20 ADD SWAP2 PUSH2 0xA82 JUMP JUMPDEST DUP3 ADD SWAP2 SWAP1 PUSH1 0x0 MSTORE PUSH1 0x20 PUSH1 0x0 KECCAK256 SWAP1 JUMPDEST DUP2 SLOAD DUP2 MSTORE SWAP1 PUSH1 0x1 ADD SWAP1 PUSH1 0x20 ADD DUP1 DUP4 GT PUSH2 0xA65 JUMPI DUP3 SWAP1 SUB PUSH1 0x1F AND DUP3 ADD SWAP2 JUMPDEST POP POP POP POP POP SWAP1 POP SWAP2 SWAP1 POP JUMP JUMPDEST PUSH1 0x60 PUSH1 0x1 PUSH1 0x0 DUP4 DUP1 MLOAD SWAP1 PUSH1 0x20 ADD KECCAK256 DUP2 MSTORE PUSH1 0x20 ADD SWAP1 DUP2 MSTORE PUSH1 0x20 ADD PUSH1 0x0 KECCAK256 PUSH1 0x2 ADD PUSH1 0x1 ADD DUP1 SLOAD PUSH2 0xABB SWAP1 PUSH2 0x149C JUMP JUMPDEST DUP1 PUSH1 0x1F ADD PUSH1 0x20 DUP1 SWAP2 DIV MUL PUSH1 0x20 ADD PUSH1 0x40 MLOAD SWAP1 DUP2 ADD PUSH1 0x40 MSTORE DUP1 SWAP3 SWAP2 SWAP1 DUP2 DUP2 MSTORE PUSH1 0x20 ADD DUP3 DUP1 SLOAD PUSH2 0xAE7 SWAP1 PUSH2 0x149C JUMP JUMPDEST DUP1 ISZERO PUSH2 0xB34 JUMPI DUP1 PUSH1 0x1F LT PUSH2 0xB09 JUMPI PUSH2 0x100 DUP1 DUP4 SLOAD DIV MUL DUP4 MSTORE SWAP2 PUSH1 0x20 ADD SWAP2 PUSH2 0xB34 JUMP JUMPDEST DUP3 ADD SWAP2 SWAP1 PUSH1 0x0 MSTORE PUSH1 0x20 PUSH1 0x0 KECCAK256 SWAP1 JUMPDEST DUP2 SLOAD DUP2 MSTORE SWAP1 PUSH1 0x1 ADD SWAP1 PUSH1 0x20 ADD DUP1 DUP4 GT PUSH2 0xB17 JUMPI DUP3 SWAP1 SUB PUSH1 0x1F AND DUP3 ADD SWAP2 JUMPDEST POP POP POP POP POP SWAP1 POP SWAP2 SWAP1 POP JUMP JUMPDEST PUSH1 0x0 PUSH1 0x40 MLOAD SWAP1 POP SWAP1 JUMP JUMPDEST PUSH1 0x0 DUP1 REVERT JUMPDEST PUSH1 0x0 DUP1 REVERT JUMPDEST PUSH1 0x0 DUP2 SWAP1 POP SWAP2 SWAP1 POP JUMP JUMPDEST PUSH2 0xB67 DUP2 PUSH2 0xB54 JUMP JUMPDEST DUP2 EQ PUSH2 0xB72 JUMPI PUSH1 0x0 DUP1 REVERT JUMPDEST POP JUMP JUMPDEST PUSH1 0x0 DUP2 CALLDATALOAD SWAP1 POP PUSH2 0xB84 DUP2 PUSH2 0xB5E JUMP JUMPDEST SWAP3 SWAP2 POP POP JUMP JUMPDEST PUSH1 0x0 PUSH1 0x20 DUP3 DUP5 SUB SLT ISZERO PUSH2 0xBA0 JUMPI PUSH2 0xB9F PUSH2 0xB4A JUMP JUMPDEST JUMPDEST PUSH1 0x0 PUSH2 0xBAE DUP5 DUP3 DUP6 ADD PUSH2 0xB75 JUMP JUMPDEST SWAP2 POP POP SWAP3 SWAP2 POP POP JUMP JUMPDEST PUSH1 0x0 DUP2 MLOAD SWAP1 POP SWAP2 SWAP1 POP JUMP JUMPDEST PUSH1 0x0 DUP3 DUP3 MSTORE PUSH1 0x20 DUP3 ADD SWAP1 POP SWAP3 SWAP2 POP POP JUMP JUMPDEST PUSH1 0x0 JUMPDEST DUP4 DUP2 LT ISZERO PUSH2 0xBF1 JUMPI DUP1 DUP3 ADD MLOAD DUP2 DUP5 ADD MSTORE PUSH1 0x20 DUP2 ADD SWAP1 POP PUSH2 0xBD6 JUMP JUMPDEST PUSH1 0x0 DUP5 DUP5 ADD MSTORE POP POP POP POP JUMP JUMPDEST PUSH1 0x0 PUSH1 0x1F NOT PUSH1 0x1F DUP4 ADD AND SWAP1 POP SWAP2 SWAP1 POP JUMP JUMPDEST PUSH1 0x0 PUSH2 0xC19 DUP3 PUSH2 0xBB7 JUMP JUMPDEST PUSH2 0xC23 DUP2 DUP6 PUSH2 0xBC2 JUMP JUMPDEST SWAP4 POP PUSH2 0xC33 DUP2 DUP6 PUSH1 0x20 DUP7 ADD PUSH2 0xBD3 JUMP JUMPDEST PUSH2 0xC3C DUP2 PUSH2 0xBFD JUMP JUMPDEST DUP5 ADD SWAP2 POP POP SWAP3 SWAP2 POP POP JUMP JUMPDEST PUSH1 0x0 DUP2 SWAP1 POP SWAP2 SWAP1 POP JUMP JUMPDEST PUSH2 0xC5A DUP2 PUSH2 0xC47 JUMP JUMPDEST DUP3 MSTORE POP POP JUMP JUMPDEST PUSH2 0xC69 DUP2 PUSH2 0xC47 JUMP JUMPDEST DUP3 MSTORE POP POP JUMP JUMPDEST PUSH1 0x0 DUP2 MLOAD SWAP1 POP SWAP2 SWAP1 POP JUMP JUMPDEST PUSH1 0x0 DUP3 DUP3 MSTORE PUSH1 0x20 DUP3 ADD SWAP1 POP SWAP3 SWAP2 POP POP JUMP JUMPDEST PUSH1 0x0 PUSH2 0xC96 DUP3 PUSH2 0xC6F JUMP JUMPDEST PUSH2 0xCA0 DUP2 DUP6 PUSH2 0xC7A JUMP JUMPDEST SWAP4 POP PUSH2 0xCB0 DUP2 DUP6 PUSH1 0x20 DUP7 ADD PUSH2 0xBD3 JUMP JUMPDEST PUSH2 0xCB9 DUP2 PUSH2 0xBFD JUMP JUMPDEST DUP5 ADD SWAP2 POP POP SWAP3 SWAP2 POP POP JUMP JUMPDEST PUSH1 0x0 PUSH1 0xC0 DUP4 ADD PUSH1 0x0 DUP4 ADD MLOAD PUSH2 0xCDC PUSH1 0x0 DUP7 ADD DUP3 PUSH2 0xC60 JUMP JUMPDEST POP PUSH1 0x20 DUP4 ADD MLOAD DUP5 DUP3 SUB PUSH1 0x20 DUP7 ADD MSTORE PUSH2 0xCF4 DUP3 DUP3 PUSH2 0xC8B JUMP JUMPDEST SWAP2 POP POP PUSH1 0x40 DUP4 ADD MLOAD DUP5 DUP3 SUB PUSH1 0x40 DUP7 ADD MSTORE PUSH2 0xD0E DUP3 DUP3 PUSH2 0xC8B JUMP JUMPDEST SWAP2 POP POP PUSH1 0x60 DUP4 ADD MLOAD DUP5 DUP3 SUB PUSH1 0x60 DUP7 ADD MSTORE PUSH2 0xD28 DUP3 DUP3 PUSH2 0xC8B JUMP JUMPDEST SWAP2 POP POP PUSH1 0x80 DUP4 ADD MLOAD DUP5 DUP3 SUB PUSH1 0x80 DUP7 ADD MSTORE PUSH2 0xD42 DUP3 DUP3 PUSH2 0xC8B JUMP JUMPDEST SWAP2 POP POP PUSH1 0xA0 DUP4 ADD MLOAD DUP5 DUP3 SUB PUSH1 0xA0 DUP7 ADD MSTORE PUSH2 0xD5C DUP3 DUP3 PUSH2 0xC8B JUMP JUMPDEST SWAP2 POP POP DUP1 SWAP2 POP POP SWAP3 SWAP2 POP POP JUMP JUMPDEST PUSH32 0x4E487B7100000000000000000000000000000000000000000000000000000000 PUSH1 0x0 MSTORE PUSH1 0x21 PUSH1 0x4 MSTORE PUSH1 0x24 PUSH1 0x0 REVERT JUMPDEST PUSH1 0x3 DUP2 LT PUSH2 0xDA9 JUMPI PUSH2 0xDA8 PUSH2 0xD69 JUMP JUMPDEST JUMPDEST POP JUMP JUMPDEST PUSH1 0x0 DUP2 SWAP1 POP PUSH2 0xDBA DUP3 PUSH2 0xD98 JUMP JUMPDEST SWAP2 SWAP1 POP JUMP JUMPDEST PUSH1 0x0 PUSH2 0xDCA DUP3 PUSH2 0xDAC JUMP JUMPDEST SWAP1 POP SWAP2 SWAP1 POP JUMP JUMPDEST PUSH2 0xDDA DUP2 PUSH2 0xDBF JUMP JUMPDEST DUP3 MSTORE POP POP JUMP JUMPDEST PUSH1 0x0 DUP3 DUP3 MSTORE PUSH1 0x20 DUP3 ADD SWAP1 POP SWAP3 SWAP2 POP POP JUMP JUMPDEST PUSH1 0x0 PUSH2 0xDFC DUP3 PUSH2 0xC6F JUMP JUMPDEST PUSH2 0xE06 DUP2 DUP6 PUSH2 0xDE0 JUMP JUMPDEST SWAP4 POP PUSH2 0xE16 DUP2 DUP6 PUSH1 0x20 DUP7 ADD PUSH2 0xBD3 JUMP JUMPDEST PUSH2 0xE1F DUP2 PUSH2 0xBFD JUMP JUMPDEST DUP5 ADD SWAP2 POP POP SWAP3 SWAP2 POP POP JUMP JUMPDEST PUSH1 0x0 PUSH1 0xC0 DUP3 ADD SWAP1 POP DUP2 DUP2 SUB PUSH1 0x0 DUP4 ADD MSTORE PUSH2 0xE44 DUP2 DUP10 PUSH2 0xC0E JUMP JUMPDEST SWAP1 POP PUSH2 0xE53 PUSH1 0x20 DUP4 ADD DUP9 PUSH2 0xC51 JUMP JUMPDEST DUP2 DUP2 SUB PUSH1 0x40 DUP4 ADD MSTORE PUSH2 0xE65 DUP2 DUP8 PUSH2 0xCC4 JUMP JUMPDEST SWAP1 POP PUSH2 0xE74 PUSH1 0x60 DUP4 ADD DUP7 PUSH2 0xDD1 JUMP JUMPDEST DUP2 DUP2 SUB PUSH1 0x80 DUP4 ADD MSTORE PUSH2 0xE86 DUP2 DUP6 PUSH2 0xDF1 JUMP JUMPDEST SWAP1 POP DUP2 DUP2 SUB PUSH1 0xA0 DUP4 ADD MSTORE PUSH2 0xE9A DUP2 DUP5 PUSH2 0xDF1 JUMP JUMPDEST SWAP1 POP SWAP8 SWAP7 POP POP POP POP POP POP POP JUMP JUMPDEST PUSH2 0xEB0 DUP2 PUSH2 0xC47 JUMP JUMPDEST DUP2 EQ PUSH2 0xEBB JUMPI PUSH1 0x0 DUP1 REVERT JUMPDEST POP JUMP JUMPDEST PUSH1 0x0 DUP2 CALLDATALOAD SWAP1 POP PUSH2 0xECD DUP2 PUSH2 0xEA7 JUMP JUMPDEST SWAP3 SWAP2 POP POP JUMP JUMPDEST PUSH1 0x0 PUSH1 0x20 DUP3 DUP5 SUB SLT ISZERO PUSH2 0xEE9 JUMPI PUSH2 0xEE8 PUSH2 0xB4A JUMP JUMPDEST JUMPDEST PUSH1 0x0 PUSH2 0xEF7 DUP5 DUP3 DUP6 ADD PUSH2 0xEBE JUMP JUMPDEST SWAP2 POP POP SWAP3 SWAP2 POP POP JUMP JUMPDEST PUSH1 0x0 PUSH1 0xC0 DUP3 ADD SWAP1 POP PUSH2 0xF15 PUSH1 0x0 DUP4 ADD DUP10 PUSH2 0xC51 JUMP JUMPDEST DUP2 DUP2 SUB PUSH1 0x20 DUP4 ADD MSTORE PUSH2 0xF27 DUP2 DUP9 PUSH2 0xDF1 JUMP JUMPDEST SWAP1 POP DUP2 DUP2 SUB PUSH1 0x40 DUP4 ADD MSTORE PUSH2 0xF3B DUP2 DUP8 PUSH2 0xDF1 JUMP JUMPDEST SWAP1 POP DUP2 DUP2 SUB PUSH1 0x60 DUP4 ADD MSTORE PUSH2 0xF4F DUP2 DUP7 PUSH2 0xDF1 JUMP JUMPDEST SWAP1 POP DUP2 DUP2 SUB PUSH1 0x80 DUP4 ADD MSTORE PUSH2 0xF63 DUP2 DUP6 PUSH2 0xDF1 JUMP JUMPDEST SWAP1 POP DUP2 DUP2 SUB PUSH1 0xA0 DUP4 ADD MSTORE PUSH2 0xF77 DUP2 DUP5 PUSH2 0xDF1 JUMP JUMPDEST SWAP1 POP SWAP8 SWAP7 POP POP POP POP POP POP POP JUMP JUMPDEST PUSH1 0x0 DUP1 REVERT JUMPDEST PUSH1 0x0 DUP1 REVERT JUMPDEST PUSH32 0x4E487B7100000000000000000000000000000000000000000000000000000000 PUSH1 0x0 MSTORE PUSH1 0x41 PUSH1 0x4 MSTORE PUSH1 0x24 PUSH1 0x0 REVERT JUMPDEST PUSH2 0xFC6 DUP3 PUSH2 0xBFD JUMP JUMPDEST DUP2 ADD DUP2 DUP2 LT PUSH8 0xFFFFFFFFFFFFFFFF DUP3 GT OR ISZERO PUSH2 0xFE5 JUMPI PUSH2 0xFE4 PUSH2 0xF8E JUMP JUMPDEST JUMPDEST DUP1 PUSH1 0x40 MSTORE POP POP POP JUMP JUMPDEST PUSH1 0x0 PUSH2 0xFF8 PUSH2 0xB40 JUMP JUMPDEST SWAP1 POP PUSH2 0x1004 DUP3 DUP3 PUSH2 0xFBD JUMP JUMPDEST SWAP2 SWAP1 POP JUMP JUMPDEST PUSH1 0x0 PUSH8 0xFFFFFFFFFFFFFFFF DUP3 GT ISZERO PUSH2 0x1024 JUMPI PUSH2 0x1023 PUSH2 0xF8E JUMP JUMPDEST JUMPDEST PUSH2 0x102D DUP3 PUSH2 0xBFD JUMP JUMPDEST SWAP1 POP PUSH1 0x20 DUP2 ADD SWAP1 POP SWAP2 SWAP1 POP JUMP JUMPDEST DUP3 DUP2 DUP4 CALLDATACOPY PUSH1 0x0 DUP4 DUP4 ADD MSTORE POP POP POP JUMP JUMPDEST PUSH1 0x0 PUSH2 0x105C PUSH2 0x1057 DUP5 PUSH2 0x1009 JUMP JUMPDEST PUSH2 0xFEE JUMP JUMPDEST SWAP1 POP DUP3 DUP2 MSTORE PUSH1 0x20 DUP2 ADD DUP5 DUP5 DUP5 ADD GT ISZERO PUSH2 0x1078 JUMPI PUSH2 0x1077 PUSH2 0xF89 JUMP JUMPDEST JUMPDEST PUSH2 0x1083 DUP5 DUP3 DUP6 PUSH2 0x103A JUMP JUMPDEST POP SWAP4 SWAP3 POP POP POP JUMP JUMPDEST PUSH1 0x0 DUP3 PUSH1 0x1F DUP4 ADD SLT PUSH2 0x10A0 JUMPI PUSH2 0x109F PUSH2 0xF84 JUMP JUMPDEST JUMPDEST DUP2 CALLDATALOAD PUSH2 0x10B0 DUP5 DUP3 PUSH1 0x20 DUP7 ADD PUSH2 0x1049 JUMP JUMPDEST SWAP2 POP POP SWAP3 SWAP2 POP POP JUMP JUMPDEST PUSH1 0x0 PUSH1 0x20 DUP3 DUP5 SUB SLT ISZERO PUSH2 0x10CF JUMPI PUSH2 0x10CE PUSH2 0xB4A JUMP JUMPDEST JUMPDEST PUSH1 0x0 DUP3 ADD CALLDATALOAD PUSH8 0xFFFFFFFFFFFFFFFF DUP2 GT ISZERO PUSH2 0x10ED JUMPI PUSH2 0x10EC PUSH2 0xB4F JUMP JUMPDEST JUMPDEST PUSH2 0x10F9 DUP5 DUP3 DUP6 ADD PUSH2 0x108B JUMP JUMPDEST SWAP2 POP POP SWAP3 SWAP2 POP POP JUMP JUMPDEST PUSH1 0x0 PUSH1 0x20 DUP3 ADD SWAP1 POP PUSH2 0x1117 PUSH1 0x0 DUP4 ADD DUP5 PUSH2 0xDD1 JUMP JUMPDEST SWAP3 SWAP2 POP POP JUMP JUMPDEST PUSH1 0x0 PUSH8 0xFFFFFFFFFFFFFFFF DUP3 GT ISZERO PUSH2 0x1138 JUMPI PUSH2 0x1137 PUSH2 0xF8E JUMP JUMPDEST JUMPDEST PUSH2 0x1141 DUP3 PUSH2 0xBFD JUMP JUMPDEST SWAP1 POP PUSH1 0x20 DUP2 ADD SWAP1 POP SWAP2 SWAP1 POP JUMP JUMPDEST PUSH1 0x0 PUSH2 0x1161 PUSH2 0x115C DUP5 PUSH2 0x111D JUMP JUMPDEST PUSH2 0xFEE JUMP JUMPDEST SWAP1 POP DUP3 DUP2 MSTORE PUSH1 0x20 DUP2 ADD DUP5 DUP5 DUP5 ADD GT ISZERO PUSH2 0x117D JUMPI PUSH2 0x117C PUSH2 0xF89 JUMP JUMPDEST JUMPDEST PUSH2 0x1188 DUP5 DUP3 DUP6 PUSH2 0x103A JUMP JUMPDEST POP SWAP4 SWAP3 POP POP POP JUMP JUMPDEST PUSH1 0x0 DUP3 PUSH1 0x1F DUP4 ADD SLT PUSH2 0x11A5 JUMPI PUSH2 0x11A4 PUSH2 0xF84 JUMP JUMPDEST JUMPDEST DUP2 CALLDATALOAD PUSH2 0x11B5 DUP5 DUP3 PUSH1 0x20 DUP7 ADD PUSH2 0x114E JUMP JUMPDEST SWAP2 POP POP SWAP3 SWAP2 POP POP JUMP JUMPDEST PUSH1 0x3 DUP2 LT PUSH2 0x11CB JUMPI PUSH1 0x0 DUP1 REVERT JUMPDEST POP JUMP JUMPDEST PUSH1 0x0 DUP2 CALLDATALOAD SWAP1 POP PUSH2 0x11DD DUP2 PUSH2 0x11BE JUMP JUMPDEST SWAP3 SWAP2 POP POP JUMP JUMPDEST PUSH1 0x0 DUP1 PUSH1 0x0 DUP1 PUSH1 0x0 DUP1 PUSH1 0xC0 DUP8 DUP10 SUB SLT ISZERO PUSH2 0x1200 JUMPI PUSH2 0x11FF PUSH2 0xB4A JUMP JUMPDEST JUMPDEST PUSH1 0x0 PUSH2 0x120E DUP10 DUP3 DUP11 ADD PUSH2 0xEBE JUMP JUMPDEST SWAP7 POP POP PUSH1 0x20 DUP8 ADD CALLDATALOAD PUSH8 0xFFFFFFFFFFFFFFFF DUP2 GT ISZERO PUSH2 0x122F JUMPI PUSH2 0x122E PUSH2 0xB4F JUMP JUMPDEST JUMPDEST PUSH2 0x123B DUP10 DUP3 DUP11 ADD PUSH2 0x1190 JUMP JUMPDEST SWAP6 POP POP PUSH1 0x40 PUSH2 0x124C DUP10 DUP3 DUP11 ADD PUSH2 0xEBE JUMP JUMPDEST SWAP5 POP POP PUSH1 0x60 PUSH2 0x125D DUP10 DUP3 DUP11 ADD PUSH2 0x11CE JUMP JUMPDEST SWAP4 POP POP PUSH1 0x80 DUP8 ADD CALLDATALOAD PUSH8 0xFFFFFFFFFFFFFFFF DUP2 GT ISZERO PUSH2 0x127E JUMPI PUSH2 0x127D PUSH2 0xB4F JUMP JUMPDEST JUMPDEST PUSH2 0x128A DUP10 DUP3 DUP11 ADD PUSH2 0x1190 JUMP JUMPDEST SWAP3 POP POP PUSH1 0xA0 DUP8 ADD CALLDATALOAD PUSH8 0xFFFFFFFFFFFFFFFF DUP2 GT ISZERO PUSH2 0x12AB JUMPI PUSH2 0x12AA PUSH2 0xB4F JUMP JUMPDEST JUMPDEST PUSH2 0x12B7 DUP10 DUP3 DUP11 ADD PUSH2 0x1190 JUMP JUMPDEST SWAP2 POP POP SWAP3 SWAP6 POP SWAP3 SWAP6 POP SWAP3 SWAP6 JUMP JUMPDEST PUSH1 0x0 PUSH1 0x20 DUP3 ADD SWAP1 POP DUP2 DUP2 SUB PUSH1 0x0 DUP4 ADD MSTORE PUSH2 0x12DE DUP2 DUP5 PUSH2 0xC0E JUMP JUMPDEST SWAP1 POP SWAP3 SWAP2 POP POP JUMP JUMPDEST PUSH1 0x0 DUP1 PUSH1 0x0 DUP1 PUSH1 0x0 DUP1 PUSH1 0x0 PUSH1 0xE0 DUP9 DUP11 SUB SLT ISZERO PUSH2 0x1305 JUMPI PUSH2 0x1304 PUSH2 0xB4A JUMP JUMPDEST JUMPDEST PUSH1 0x0 PUSH2 0x1313 DUP11 DUP3 DUP12 ADD PUSH2 0xEBE JUMP JUMPDEST SWAP8 POP POP PUSH1 0x20 DUP9 ADD CALLDATALOAD PUSH8 0xFFFFFFFFFFFFFFFF DUP2 GT ISZERO PUSH2 0x1334 JUMPI PUSH2 0x1333 PUSH2 0xB4F JUMP JUMPDEST JUMPDEST PUSH2 0x1340 DUP11 DUP3 DUP12 ADD PUSH2 0x1190 JUMP JUMPDEST SWAP7 POP POP PUSH1 0x40 DUP9 ADD CALLDATALOAD PUSH8 0xFFFFFFFFFFFFFFFF DUP2 GT ISZERO PUSH2 0x1361 JUMPI PUSH2 0x1360 PUSH2 0xB4F JUMP JUMPDEST JUMPDEST PUSH2 0x136D DUP11 DUP3 DUP12 ADD PUSH2 0x1190 JUMP JUMPDEST SWAP6 POP POP PUSH1 0x60 DUP9 ADD CALLDATALOAD PUSH8 0xFFFFFFFFFFFFFFFF DUP2 GT ISZERO PUSH2 0x138E JUMPI PUSH2 0x138D PUSH2 0xB4F JUMP JUMPDEST JUMPDEST PUSH2 0x139A DUP11 DUP3 DUP12 ADD PUSH2 0x1190 JUMP JUMPDEST SWAP5 POP POP PUSH1 0x80 DUP9 ADD CALLDATALOAD PUSH8 0xFFFFFFFFFFFFFFFF DUP2 GT ISZERO PUSH2 0x13BB JUMPI PUSH2 0x13BA PUSH2 0xB4F JUMP JUMPDEST JUMPDEST PUSH2 0x13C7 DUP11 DUP3 DUP12 ADD PUSH2 0x1190 JUMP JUMPDEST SWAP4 POP POP PUSH1 0xA0 DUP9 ADD CALLDATALOAD PUSH8 0xFFFFFFFFFFFFFFFF DUP2 GT ISZERO PUSH2 0x13E8 JUMPI PUSH2 0x13E7 PUSH2 0xB4F JUMP JUMPDEST JUMPDEST PUSH2 0x13F4 DUP11 DUP3 DUP12 ADD PUSH2 0x1190 JUMP JUMPDEST SWAP3 POP POP PUSH1 0xC0 DUP9 ADD CALLDATALOAD PUSH8 0xFFFFFFFFFFFFFFFF DUP2 GT ISZERO PUSH2 0x1415 JUMPI PUSH2 0x1414 PUSH2 0xB4F JUMP JUMPDEST JUMPDEST PUSH2 0x1421 DUP11 DUP3 DUP12 ADD PUSH2 0x1190 JUMP JUMPDEST SWAP2 POP POP SWAP3 SWAP6 SWAP9 SWAP2 SWAP5 SWAP8 POP SWAP3 SWAP6 POP JUMP JUMPDEST PUSH1 0x0 PUSH1 0x20 DUP3 ADD SWAP1 POP PUSH2 0x1445 PUSH1 0x0 DUP4 ADD DUP5 PUSH2 0xC51 JUMP JUMPDEST SWAP3 SWAP2 POP POP JUMP JUMPDEST PUSH1 0x0 PUSH1 0x20 DUP3 ADD SWAP1 POP DUP2 DUP2 SUB PUSH1 0x0 DUP4 ADD MSTORE PUSH2 0x1465 DUP2 DUP5 PUSH2 0xDF1 JUMP JUMPDEST SWAP1 POP SWAP3 SWAP2 POP POP JUMP JUMPDEST PUSH32 0x4E487B7100000000000000000000000000000000000000000000000000000000 PUSH1 0x0 MSTORE PUSH1 0x22 PUSH1 0x4 MSTORE PUSH1 0x24 PUSH1 0x0 REVERT JUMPDEST PUSH1 0x0 PUSH1 0x2 DUP3 DIV SWAP1 POP PUSH1 0x1 DUP3 AND DUP1 PUSH2 0x14B4 JUMPI PUSH1 0x7F DUP3 AND SWAP2 POP JUMPDEST PUSH1 0x20 DUP3 LT DUP2 SUB PUSH2 0x14C7 JUMPI PUSH2 0x14C6 PUSH2 0x146D JUMP JUMPDEST JUMPDEST POP SWAP2 SWAP1 POP JUMP INVALID LOG2 PUSH5 0x6970667358 0x22 SLT KECCAK256 ORIGIN SGT 0xD6 CALLDATALOAD CREATE2 DUP9 0xA6 DUP3 CALLVALUE 0xCC MUL 0xF9 0xE0 0xC3 ADD DUP9 0x28 0xB2 ADDMOD 0xE5 DUP7 MSTORE SWAP3 PUSH18 0xD5B84DD54296596B64736F6C634300081300 CALLER "
				},
				"gasEstimates": {
					"creation": {
						"codeDepositCost": "1075800",
						"executionCost": "11132",
						"totalCost": "1086932"
					},
					"external": {
						"MC(bytes32)": "infinite",
						"addMC(uint256,string,uint256,uint8,string,string)": "infinite",
						"createPersonalInfo(uint256,string,string,string,string,string,string)": "infinite",
						"getMCCategory(bytes)": "infinite",
						"getMCNRIC(bytes)": "infinite",
						"getMCName(bytes)": "infinite",
						"infos(uint256)": "infinite"
					}
				},
				"methodIdentifiers": {
					"MC(bytes32)": "109075f1",
					"addMC(uint256,string,uint256,uint8,string,string)": "66e918b8",
					"createPersonalInfo(uint256,string,string,string,string,string,string)": "74946460",
					"getMCCategory(bytes)": "29efb4a9",
					"getMCNRIC(bytes)": "d4c85366",
					"getMCName(bytes)": "f29a6f44",
					"infos(uint256)": "28de3c9b"
				}
			},
			"storageLayout": {
				"storage": [
					{
						"astId": 5,
						"contract": "contracts/MedicalCert.sol:MedicalCertificate",
						"label": "counter",
						"offset": 0,
						"slot": "0",
						"type": "t_uint256"
					},
					{
						"astId": 42,
						"contract": "contracts/MedicalCert.sol:MedicalCertificate",
						"label": "MC",
						"offset": 0,
						"slot": "1",
						"type": "t_mapping(t_bytes32,t_struct(medicalCert)37_storage)"
					},
					{
						"astId": 47,
						"contract": "contracts/MedicalCert.sol:MedicalCertificate",
						"label": "infos",
						"offset": 0,
						"slot": "2",
						"type": "t_mapping(t_uint256,t_struct(personalInfo)22_storage)"
					},
					{
						"astId": 50,
						"contract": "contracts/MedicalCert.sol:MedicalCertificate",
						"label": "numOfPeople",
						"offset": 0,
						"slot": "3",
						"type": "t_uint256"
					}
				],
				"types": {
					"t_bytes32": {
						"encoding": "inplace",
						"label": "bytes32",
						"numberOfBytes": "32"
					},
					"t_bytes_storage": {
						"encoding": "bytes",
						"label": "bytes",
						"numberOfBytes": "32"
					},
					"t_enum(certCategory)9": {
						"encoding": "inplace",
						"label": "enum MedicalCertificate.certCategory",
						"numberOfBytes": "1"
					},
					"t_mapping(t_bytes32,t_struct(medicalCert)37_storage)": {
						"encoding": "mapping",
						"key": "t_bytes32",
						"label": "mapping(bytes32 => struct MedicalCertificate.medicalCert)",
						"numberOfBytes": "32",
						"value": "t_struct(medicalCert)37_storage"
					},
					"t_mapping(t_uint256,t_struct(personalInfo)22_storage)": {
						"encoding": "mapping",
						"key": "t_uint256",
						"label": "mapping(uint256 => struct MedicalCertificate.personalInfo)",
						"numberOfBytes": "32",
						"value": "t_struct(personalInfo)22_storage"
					},
					"t_string_storage": {
						"encoding": "bytes",
						"label": "string",
						"numberOfBytes": "32"
					},
					"t_struct(medicalCert)37_storage": {
						"encoding": "inplace",
						"label": "struct MedicalCertificate.medicalCert",
						"members": [
							{
								"astId": 24,
								"contract": "contracts/MedicalCert.sol:MedicalCertificate",
								"label": "ID",
								"offset": 0,
								"slot": "0",
								"type": "t_bytes_storage"
							},
							{
								"astId": 26,
								"contract": "contracts/MedicalCert.sol:MedicalCertificate",
								"label": "HospitalID",
								"offset": 0,
								"slot": "1",
								"type": "t_uint256"
							},
							{
								"astId": 29,
								"contract": "contracts/MedicalCert.sol:MedicalCertificate",
								"label": "personal_info",
								"offset": 0,
								"slot": "2",
								"type": "t_struct(personalInfo)22_storage"
							},
							{
								"astId": 32,
								"contract": "contracts/MedicalCert.sol:MedicalCertificate",
								"label": "incident",
								"offset": 0,
								"slot": "8",
								"type": "t_enum(certCategory)9"
							},
							{
								"astId": 34,
								"contract": "contracts/MedicalCert.sol:MedicalCertificate",
								"label": "dateTimeIncident",
								"offset": 0,
								"slot": "9",
								"type": "t_string_storage"
							},
							{
								"astId": 36,
								"contract": "contracts/MedicalCert.sol:MedicalCertificate",
								"label": "titleOfCertifier",
								"offset": 0,
								"slot": "10",
								"type": "t_string_storage"
							}
						],
						"numberOfBytes": "352"
					},
					"t_struct(personalInfo)22_storage": {
						"encoding": "inplace",
						"label": "struct MedicalCertificate.personalInfo",
						"members": [
							{
								"astId": 11,
								"contract": "contracts/MedicalCert.sol:MedicalCertificate",
								"label": "personId",
								"offset": 0,
								"slot": "0",
								"type": "t_uint256"
							},
							{
								"astId": 13,
								"contract": "contracts/MedicalCert.sol:MedicalCertificate",
								"label": "name",
								"offset": 0,
								"slot": "1",
								"type": "t_string_storage"
							},
							{
								"astId": 15,
								"contract": "contracts/MedicalCert.sol:MedicalCertificate",
								"label": "NRIC",
								"offset": 0,
								"slot": "2",
								"type": "t_string_storage"
							},
							{
								"astId": 17,
								"contract": "contracts/MedicalCert.sol:MedicalCertificate",
								"label": "sex",
								"offset": 0,
								"slot": "3",
								"type": "t_string_storage"
							},
							{
								"astId": 19,
								"contract": "contracts/MedicalCert.sol:MedicalCertificate",
								"label": "birthdate",
								"offset": 0,
								"slot": "4",
								"type": "t_string_storage"
							},
							{
								"astId": 21,
								"contract": "contracts/MedicalCert.sol:MedicalCertificate",
								"label": "race_nationality",
								"offset": 0,
								"slot": "5",
								"type": "t_string_storage"
							}
						],
						"numberOfBytes": "192"
					},
					"t_uint256": {
						"encoding": "inplace",
						"label": "uint256",
						"numberOfBytes": "32"
					}
				}
			},
			"userdoc": {
				"kind": "user",
				"methods": {},
				"version": 1
			}
		}
	}
}