{
	"contracts/Hospital.sol": {
		"Hospital": {
			"abi": [
				{
					"anonymous": false,
					"inputs": [],
					"name": "createOneMC",
					"type": "event"
				},
				{
					"anonymous": false,
					"inputs": [
						{
							"indexed": false,
							"internalType": "uint256[]",
							"name": "requestids",
							"type": "uint256[]"
						},
						{
							"indexed": false,
							"internalType": "uint256[]",
							"name": "stakeholderids",
							"type": "uint256[]"
						},
						{
							"indexed": false,
							"internalType": "string[]",
							"name": "names",
							"type": "string[]"
						},
						{
							"indexed": false,
							"internalType": "string[]",
							"name": "ics",
							"type": "string[]"
						}
					],
					"name": "liveRequest",
					"type": "event"
				},
				{
					"anonymous": false,
					"inputs": [
						{
							"indexed": false,
							"internalType": "uint256",
							"name": "numMC",
							"type": "uint256"
						}
					],
					"name": "mcCreated",
					"type": "event"
				},
				{
					"anonymous": false,
					"inputs": [],
					"name": "presidentChanged",
					"type": "event"
				},
				{
					"anonymous": false,
					"inputs": [],
					"name": "registered",
					"type": "event"
				},
				{
					"anonymous": false,
					"inputs": [
						{
							"indexed": false,
							"internalType": "uint256",
							"name": "reqeustId",
							"type": "uint256"
						}
					],
					"name": "requestMade",
					"type": "event"
				},
				{
					"anonymous": false,
					"inputs": [
						{
							"indexed": false,
							"internalType": "uint256",
							"name": "requestId",
							"type": "uint256"
						}
					],
					"name": "requestSolve",
					"type": "event"
				},
				{
					"inputs": [
						{
							"internalType": "uint256",
							"name": "hospital",
							"type": "uint256"
						},
						{
							"internalType": "string",
							"name": "password",
							"type": "string"
						},
						{
							"internalType": "uint256",
							"name": "personInfoId",
							"type": "uint256"
						},
						{
							"internalType": "enum MedicalCertificate.certCategory",
							"name": "incidentType0incident1death2suicide",
							"type": "uint8"
						},
						{
							"internalType": "string",
							"name": "incidentYYYYMMDDHHMM",
							"type": "string"
						},
						{
							"internalType": "string",
							"name": "certifierName",
							"type": "string"
						}
					],
					"name": "addMC",
					"outputs": [
						{
							"internalType": "uint256",
							"name": "",
							"type": "uint256"
						}
					],
					"stateMutability": "nonpayable",
					"type": "function"
				},
				{
					"inputs": [
						{
							"internalType": "uint256",
							"name": "hospitalId",
							"type": "uint256"
						},
						{
							"internalType": "string",
							"name": "oldpassword",
							"type": "string"
						},
						{
							"internalType": "string",
							"name": "newpassword",
							"type": "string"
						}
					],
					"name": "changePassword",
					"outputs": [],
					"stateMutability": "nonpayable",
					"type": "function"
				},
				{
					"inputs": [
						{
							"internalType": "uint256",
							"name": "hospitalId",
							"type": "uint256"
						},
						{
							"internalType": "string",
							"name": "password",
							"type": "string"
						},
						{
							"internalType": "string",
							"name": "NRIC",
							"type": "string"
						}
					],
					"name": "changePresident",
					"outputs": [],
					"stateMutability": "nonpayable",
					"type": "function"
				},
				{
					"inputs": [
						{
							"internalType": "uint256",
							"name": "_hospitalId",
							"type": "uint256"
						},
						{
							"internalType": "uint256",
							"name": "_requestId",
							"type": "uint256"
						},
						{
							"internalType": "uint256",
							"name": "_stakeholderId",
							"type": "uint256"
						}
					],
					"name": "checkMCIdFromStakeholder",
					"outputs": [
						{
							"internalType": "uint256",
							"name": "",
							"type": "uint256"
						}
					],
					"stateMutability": "view",
					"type": "function"
				},
				{
					"inputs": [
						{
							"internalType": "uint256",
							"name": "hospitalId",
							"type": "uint256"
						},
						{
							"internalType": "string",
							"name": "password",
							"type": "string"
						}
					],
					"name": "checkRequestFromHospital",
					"outputs": [],
					"stateMutability": "nonpayable",
					"type": "function"
				},
				{
					"inputs": [
						{
							"internalType": "uint256",
							"name": "hospitalId",
							"type": "uint256"
						},
						{
							"internalType": "string",
							"name": "password",
							"type": "string"
						},
						{
							"internalType": "string",
							"name": "name",
							"type": "string"
						},
						{
							"internalType": "string",
							"name": "NRIC",
							"type": "string"
						},
						{
							"internalType": "string",
							"name": "sex",
							"type": "string"
						},
						{
							"internalType": "string",
							"name": "birthdateYYYYMMDD",
							"type": "string"
						},
						{
							"internalType": "string",
							"name": "race_nationality",
							"type": "string"
						}
					],
					"name": "createPersonalInfo",
					"outputs": [
						{
							"internalType": "uint256",
							"name": "",
							"type": "uint256"
						}
					],
					"stateMutability": "nonpayable",
					"type": "function"
				},
				{
					"inputs": [
						{
							"internalType": "address",
							"name": "president",
							"type": "address"
						}
					],
					"name": "getHospitalId",
					"outputs": [
						{
							"internalType": "uint256",
							"name": "",
							"type": "uint256"
						}
					],
					"stateMutability": "view",
					"type": "function"
				},
				{
					"inputs": [
						{
							"internalType": "uint256",
							"name": "id",
							"type": "uint256"
						}
					],
					"name": "getMCCategory",
					"outputs": [
						{
							"internalType": "enum MedicalCertificate.certCategory",
							"name": "",
							"type": "uint8"
						}
					],
					"stateMutability": "view",
					"type": "function"
				},
				{
					"inputs": [
						{
							"internalType": "uint256",
							"name": "id",
							"type": "uint256"
						}
					],
					"name": "getMCNRIC",
					"outputs": [
						{
							"internalType": "string",
							"name": "",
							"type": "string"
						}
					],
					"stateMutability": "view",
					"type": "function"
				},
				{
					"inputs": [
						{
							"internalType": "uint256",
							"name": "id",
							"type": "uint256"
						}
					],
					"name": "getMCName",
					"outputs": [
						{
							"internalType": "string",
							"name": "",
							"type": "string"
						}
					],
					"stateMutability": "view",
					"type": "function"
				},
				{
					"inputs": [
						{
							"internalType": "uint256",
							"name": "hospitalId",
							"type": "uint256"
						}
					],
					"name": "getPassword",
					"outputs": [
						{
							"internalType": "string",
							"name": "",
							"type": "string"
						}
					],
					"stateMutability": "view",
					"type": "function"
				},
				{
					"inputs": [
						{
							"internalType": "uint256",
							"name": "hospitalId",
							"type": "uint256"
						}
					],
					"name": "getPresident",
					"outputs": [
						{
							"internalType": "address",
							"name": "",
							"type": "address"
						}
					],
					"stateMutability": "view",
					"type": "function"
				},
				{
					"inputs": [
						{
							"internalType": "string",
							"name": "NRIC",
							"type": "string"
						},
						{
							"internalType": "string",
							"name": "password",
							"type": "string"
						}
					],
					"name": "register",
					"outputs": [
						{
							"internalType": "uint256",
							"name": "",
							"type": "uint256"
						}
					],
					"stateMutability": "payable",
					"type": "function"
				},
				{
					"inputs": [
						{
							"internalType": "uint256",
							"name": "hospitalId",
							"type": "uint256"
						},
						{
							"internalType": "uint256",
							"name": "stakeholderId",
							"type": "uint256"
						},
						{
							"internalType": "string",
							"name": "nameAssured",
							"type": "string"
						},
						{
							"internalType": "string",
							"name": "icAssured",
							"type": "string"
						}
					],
					"name": "requestMC",
					"outputs": [
						{
							"internalType": "uint256",
							"name": "",
							"type": "uint256"
						}
					],
					"stateMutability": "nonpayable",
					"type": "function"
				},
				{
					"inputs": [
						{
							"internalType": "uint256",
							"name": "hospitalId",
							"type": "uint256"
						},
						{
							"internalType": "string",
							"name": "password",
							"type": "string"
						},
						{
							"internalType": "uint256",
							"name": "mcId",
							"type": "uint256"
						},
						{
							"internalType": "uint256",
							"name": "requestId",
							"type": "uint256"
						},
						{
							"internalType": "uint256",
							"name": "stakeholderId",
							"type": "uint256"
						}
					],
					"name": "solveRequest",
					"outputs": [],
					"stateMutability": "nonpayable",
					"type": "function"
				}
			],
			"devdoc": {
				"kind": "dev",
				"methods": {
					"changePassword(uint256,string,string)": {
						"details": "change password of hospital",
						"params": {
							"newpassword": "the new password",
							"oldpassword": "old password needed to change"
						}
					},
					"changePresident(uint256,string,string)": {
						"details": "change president of hospital",
						"params": {
							"NRIC": "president NRIC",
							"hospitalId": "hospital id",
							"password": "password to register"
						}
					},
					"register(string,string)": {
						"details": "register the hospital on chain",
						"params": {
							"NRIC": "president NRIC",
							"password": "password to register"
						},
						"returns": {
							"_0": "uint256 registered hospital id"
						}
					}
				},
				"version": 1
			},
			"evm": {
				"assembly": "    /* \"contracts/Hospital.sol\":88:11499  contract Hospital is MedicalCertificate  {... */\n  mstore(0x40, 0x80)\n    /* \"contracts/MedicalCert.sol\":112:113  0 */\n  0x00\n    /* \"contracts/MedicalCert.sol\":94:113  uint256 counter = 0 */\n  dup1\n  sstore\n    /* \"contracts/Hospital.sol\":392:393  0 */\n  0x00\n    /* \"contracts/Hospital.sol\":368:393  uint256 totalHospital = 0 */\n  0x06\n  sstore\n    /* \"contracts/Hospital.sol\":949:950  0 */\n  0x00\n    /* \"contracts/Hospital.sol\":929:950  uint256 numOfReqs = 0 */\n  0x07\n  sstore\n    /* \"contracts/Hospital.sol\":978:979  0 */\n  0x00\n    /* \"contracts/Hospital.sol\":956:979  uint256 numOfPeople = 0 */\n  0x08\n  sstore\n    /* \"contracts/Hospital.sol\":1003:1004  0 */\n  0x00\n    /* \"contracts/Hospital.sol\":985:1004  uint256 numOfMC = 0 */\n  0x09\n  sstore\n    /* \"contracts/Hospital.sol\":88:11499  contract Hospital is MedicalCertificate  {... */\n  callvalue\n  dup1\n  iszero\n  tag_1\n  jumpi\n  0x00\n  dup1\n  revert\ntag_1:\n  pop\n  dataSize(sub_0)\n  dup1\n  dataOffset(sub_0)\n  0x00\n  codecopy\n  0x00\n  return\nstop\n\nsub_0: assembly {\n        /* \"contracts/Hospital.sol\":88:11499  contract Hospital is MedicalCertificate  {... */\n      mstore(0x40, 0x80)\n      jumpi(tag_1, lt(calldatasize, 0x04))\n      shr(0xe0, calldataload(0x00))\n      dup1\n      0x66e918b8\n      gt\n      tag_17\n      jumpi\n      dup1\n      0xca630e1f\n      gt\n      tag_18\n      jumpi\n      dup1\n      0xca630e1f\n      eq\n      tag_13\n      jumpi\n      dup1\n      0xcaafc4fb\n      eq\n      tag_14\n      jumpi\n      dup1\n      0xf043e745\n      eq\n      tag_15\n      jumpi\n      dup1\n      0xf38c6bb6\n      eq\n      tag_16\n      jumpi\n      jump(tag_1)\n    tag_18:\n      dup1\n      0x66e918b8\n      eq\n      tag_9\n      jumpi\n      dup1\n      0x74946460\n      eq\n      tag_10\n      jumpi\n      dup1\n      0x9cb3d01f\n      eq\n      tag_11\n      jumpi\n      dup1\n      0xbaaab57a\n      eq\n      tag_12\n      jumpi\n      jump(tag_1)\n    tag_17:\n      dup1\n      0x2a177158\n      gt\n      tag_19\n      jumpi\n      dup1\n      0x2a177158\n      eq\n      tag_5\n      jumpi\n      dup1\n      0x302e1ab1\n      eq\n      tag_6\n      jumpi\n      dup1\n      0x3ffbd47f\n      eq\n      tag_7\n      jumpi\n      dup1\n      0x452ba754\n      eq\n      tag_8\n      jumpi\n      jump(tag_1)\n    tag_19:\n      dup1\n      0x10ab2570\n      eq\n      tag_2\n      jumpi\n      dup1\n      0x18c40f27\n      eq\n      tag_3\n      jumpi\n      dup1\n      0x1e8993d9\n      eq\n      tag_4\n      jumpi\n    tag_1:\n      0x00\n      dup1\n      revert\n        /* \"contracts/Hospital.sol\":10663:10800  function getPresident(uint256 hospitalId) public view returns(address) {... */\n    tag_2:\n      callvalue\n      dup1\n      iszero\n      tag_20\n      jumpi\n      0x00\n      dup1\n      revert\n    tag_20:\n      pop\n      tag_21\n      0x04\n      dup1\n      calldatasize\n      sub\n      dup2\n      add\n      swap1\n      tag_22\n      swap2\n      swap1\n      tag_23\n      jump\t// in\n    tag_22:\n      tag_24\n      jump\t// in\n    tag_21:\n      mload(0x40)\n      tag_25\n      swap2\n      swap1\n      tag_26\n      jump\t// in\n    tag_25:\n      mload(0x40)\n      dup1\n      swap2\n      sub\n      swap1\n      return\n        /* \"contracts/Hospital.sol\":5040:6072  function solveRequest(uint256 hospitalId, string memory password, ... */\n    tag_3:\n      callvalue\n      dup1\n      iszero\n      tag_27\n      jumpi\n      0x00\n      dup1\n      revert\n    tag_27:\n      pop\n      tag_28\n      0x04\n      dup1\n      calldatasize\n      sub\n      dup2\n      add\n      swap1\n      tag_29\n      swap2\n      swap1\n      tag_30\n      jump\t// in\n    tag_29:\n      tag_31\n      jump\t// in\n    tag_28:\n      stop\n        /* \"contracts/Hospital.sol\":9765:10101  function changePresident(uint256 hospitalId, string memory password, string memory NRIC)... */\n    tag_4:\n      callvalue\n      dup1\n      iszero\n      tag_32\n      jumpi\n      0x00\n      dup1\n      revert\n    tag_32:\n      pop\n      tag_33\n      0x04\n      dup1\n      calldatasize\n      sub\n      dup2\n      add\n      swap1\n      tag_34\n      swap2\n      swap1\n      tag_35\n      jump\t// in\n    tag_34:\n      tag_36\n      jump\t// in\n    tag_33:\n      stop\n        /* \"contracts/Hospital.sol\":10548:10657  function getHospitalId(address president) public view returns(uint256) {... */\n    tag_5:\n      callvalue\n      dup1\n      iszero\n      tag_37\n      jumpi\n      0x00\n      dup1\n      revert\n    tag_37:\n      pop\n      tag_38\n      0x04\n      dup1\n      calldatasize\n      sub\n      dup2\n      add\n      swap1\n      tag_39\n      swap2\n      swap1\n      tag_40\n      jump\t// in\n    tag_39:\n      tag_41\n      jump\t// in\n    tag_38:\n      mload(0x40)\n      tag_42\n      swap2\n      swap1\n      tag_43\n      jump\t// in\n    tag_42:\n      mload(0x40)\n      dup1\n      swap2\n      sub\n      swap1\n      return\n        /* \"contracts/MedicalCert.sol\":1271:1393  function getMCName(uint256 id) public view returns(string memory) {... */\n    tag_6:\n      callvalue\n      dup1\n      iszero\n      tag_44\n      jumpi\n      0x00\n      dup1\n      revert\n    tag_44:\n      pop\n      tag_45\n      0x04\n      dup1\n      calldatasize\n      sub\n      dup2\n      add\n      swap1\n      tag_46\n      swap2\n      swap1\n      tag_23\n      jump\t// in\n    tag_46:\n      tag_47\n      jump\t// in\n    tag_45:\n      mload(0x40)\n      tag_48\n      swap2\n      swap1\n      tag_49\n      jump\t// in\n    tag_48:\n      mload(0x40)\n      dup1\n      swap2\n      sub\n      swap1\n      return\n        /* \"contracts/Hospital.sol\":2929:3577  function register(string memory NRIC, string memory password) public payable validIC(NRIC) returns(uint256) {... */\n    tag_7:\n      tag_50\n      0x04\n      dup1\n      calldatasize\n      sub\n      dup2\n      add\n      swap1\n      tag_51\n      swap2\n      swap1\n      tag_52\n      jump\t// in\n    tag_51:\n      tag_53\n      jump\t// in\n    tag_50:\n      mload(0x40)\n      tag_54\n      swap2\n      swap1\n      tag_43\n      jump\t// in\n    tag_54:\n      mload(0x40)\n      dup1\n      swap2\n      sub\n      swap1\n      return\n        /* \"contracts/Hospital.sol\":7234:8585  function checkRequestFromHospital (uint256 hospitalId, string memory password) ... */\n    tag_8:\n      callvalue\n      dup1\n      iszero\n      tag_55\n      jumpi\n      0x00\n      dup1\n      revert\n    tag_55:\n      pop\n      tag_56\n      0x04\n      dup1\n      calldatasize\n      sub\n      dup2\n      add\n      swap1\n      tag_57\n      swap2\n      swap1\n      tag_58\n      jump\t// in\n    tag_57:\n      tag_59\n      jump\t// in\n    tag_56:\n      stop\n        /* \"contracts/Hospital.sol\":4279:5030  function addMC(uint256 hospital, string memory password, uint256 personInfoId,... */\n    tag_9:\n      callvalue\n      dup1\n      iszero\n      tag_60\n      jumpi\n      0x00\n      dup1\n      revert\n    tag_60:\n      pop\n      tag_61\n      0x04\n      dup1\n      calldatasize\n      sub\n      dup2\n      add\n      swap1\n      tag_62\n      swap2\n      swap1\n      tag_63\n      jump\t// in\n    tag_62:\n      tag_64\n      jump\t// in\n    tag_61:\n      mload(0x40)\n      tag_65\n      swap2\n      swap1\n      tag_43\n      jump\t// in\n    tag_65:\n      mload(0x40)\n      dup1\n      swap2\n      sub\n      swap1\n      return\n        /* \"contracts/Hospital.sol\":3583:4273  function createPersonalInfo (uint256 hospitalId, string memory password, ... */\n    tag_10:\n      callvalue\n      dup1\n      iszero\n      tag_66\n      jumpi\n      0x00\n      dup1\n      revert\n    tag_66:\n      pop\n      tag_67\n      0x04\n      dup1\n      calldatasize\n      sub\n      dup2\n      add\n      swap1\n      tag_68\n      swap2\n      swap1\n      tag_69\n      jump\t// in\n    tag_68:\n      tag_70\n      jump\t// in\n    tag_67:\n      mload(0x40)\n      tag_71\n      swap2\n      swap1\n      tag_43\n      jump\t// in\n    tag_71:\n      mload(0x40)\n      dup1\n      swap2\n      sub\n      swap1\n      return\n        /* \"contracts/Hospital.sol\":8865:9592  function checkMCIdFromStakeholder(uint256 _hospitalId, uint256 _requestId, uint256 _stakeholderId)... */\n    tag_11:\n      callvalue\n      dup1\n      iszero\n      tag_72\n      jumpi\n      0x00\n      dup1\n      revert\n    tag_72:\n      pop\n      tag_73\n      0x04\n      dup1\n      calldatasize\n      sub\n      dup2\n      add\n      swap1\n      tag_74\n      swap2\n      swap1\n      tag_75\n      jump\t// in\n    tag_74:\n      tag_76\n      jump\t// in\n    tag_73:\n      mload(0x40)\n      tag_77\n      swap2\n      swap1\n      tag_43\n      jump\t// in\n    tag_77:\n      mload(0x40)\n      dup1\n      swap2\n      sub\n      swap1\n      return\n        /* \"contracts/MedicalCert.sol\":1527:1635  function getMCCategory(uint256 id) public view returns(certCategory) {... */\n    tag_12:\n      callvalue\n      dup1\n      iszero\n      tag_78\n      jumpi\n      0x00\n      dup1\n      revert\n    tag_78:\n      pop\n      tag_79\n      0x04\n      dup1\n      calldatasize\n      sub\n      dup2\n      add\n      swap1\n      tag_80\n      swap2\n      swap1\n      tag_23\n      jump\t// in\n    tag_80:\n      tag_81\n      jump\t// in\n    tag_79:\n      mload(0x40)\n      tag_82\n      swap2\n      swap1\n      tag_83\n      jump\t// in\n    tag_82:\n      mload(0x40)\n      dup1\n      swap2\n      sub\n      swap1\n      return\n        /* \"contracts/Hospital.sol\":10259:10527  function changePassword(uint256 hospitalId, string memory oldpassword, string memory newpassword)... */\n    tag_13:\n      callvalue\n      dup1\n      iszero\n      tag_84\n      jumpi\n      0x00\n      dup1\n      revert\n    tag_84:\n      pop\n      tag_85\n      0x04\n      dup1\n      calldatasize\n      sub\n      dup2\n      add\n      swap1\n      tag_86\n      swap2\n      swap1\n      tag_35\n      jump\t// in\n    tag_86:\n      tag_87\n      jump\t// in\n    tag_85:\n      stop\n        /* \"contracts/MedicalCert.sol\":1399:1521  function getMCNRIC(uint256 id) public view returns(string memory) {... */\n    tag_14:\n      callvalue\n      dup1\n      iszero\n      tag_88\n      jumpi\n      0x00\n      dup1\n      revert\n    tag_88:\n      pop\n      tag_89\n      0x04\n      dup1\n      calldatasize\n      sub\n      dup2\n      add\n      swap1\n      tag_90\n      swap2\n      swap1\n      tag_23\n      jump\t// in\n    tag_90:\n      tag_91\n      jump\t// in\n    tag_89:\n      mload(0x40)\n      tag_92\n      swap2\n      swap1\n      tag_49\n      jump\t// in\n    tag_92:\n      mload(0x40)\n      dup1\n      swap2\n      sub\n      swap1\n      return\n        /* \"contracts/Hospital.sol\":6391:7071  function requestMC(uint256 hospitalId, uint256 stakeholderId, string memory nameAssured, string memory icAssured) ... */\n    tag_15:\n      callvalue\n      dup1\n      iszero\n      tag_93\n      jumpi\n      0x00\n      dup1\n      revert\n    tag_93:\n      pop\n      tag_94\n      0x04\n      dup1\n      calldatasize\n      sub\n      dup2\n      add\n      swap1\n      tag_95\n      swap2\n      swap1\n      tag_96\n      jump\t// in\n    tag_95:\n      tag_97\n      jump\t// in\n    tag_94:\n      mload(0x40)\n      tag_98\n      swap2\n      swap1\n      tag_43\n      jump\t// in\n    tag_98:\n      mload(0x40)\n      dup1\n      swap2\n      sub\n      swap1\n      return\n        /* \"contracts/Hospital.sol\":10806:11090  function getPassword(uint256 hospitalId) ... */\n    tag_16:\n      callvalue\n      dup1\n      iszero\n      tag_99\n      jumpi\n      0x00\n      dup1\n      revert\n    tag_99:\n      pop\n      tag_100\n      0x04\n      dup1\n      calldatasize\n      sub\n      dup2\n      add\n      swap1\n      tag_101\n      swap2\n      swap1\n      tag_23\n      jump\t// in\n    tag_101:\n      tag_102\n      jump\t// in\n    tag_100:\n      mload(0x40)\n      tag_103\n      swap2\n      swap1\n      tag_49\n      jump\t// in\n    tag_103:\n      mload(0x40)\n      dup1\n      swap2\n      sub\n      swap1\n      return\n        /* \"contracts/Hospital.sol\":10663:10800  function getPresident(uint256 hospitalId) public view returns(address) {... */\n    tag_24:\n        /* \"contracts/Hospital.sol\":10725:10732  address */\n      0x00\n        /* \"contracts/Hospital.sol\":10752:10770  registeredHospital */\n      0x03\n        /* \"contracts/Hospital.sol\":10752:10783  registeredHospital[ hospitalId] */\n      0x00\n        /* \"contracts/Hospital.sol\":10772:10782  hospitalId */\n      dup4\n        /* \"contracts/Hospital.sol\":10752:10783  registeredHospital[ hospitalId] */\n      dup2\n      mstore\n      0x20\n      add\n      swap1\n      dup2\n      mstore\n      0x20\n      add\n      0x00\n      keccak256\n        /* \"contracts/Hospital.sol\":10752:10793  registeredHospital[ hospitalId].president */\n      0x00\n      add\n      0x00\n      swap1\n      sload\n      swap1\n      0x0100\n      exp\n      swap1\n      div\n      0xffffffffffffffffffffffffffffffffffffffff\n      and\n        /* \"contracts/Hospital.sol\":10744:10793  return  registeredHospital[ hospitalId].president */\n      swap1\n      pop\n        /* \"contracts/Hospital.sol\":10663:10800  function getPresident(uint256 hospitalId) public view returns(address) {... */\n      swap2\n      swap1\n      pop\n      jump\t// out\n        /* \"contracts/Hospital.sol\":5040:6072  function solveRequest(uint256 hospitalId, string memory password, ... */\n    tag_31:\n        /* \"contracts/Hospital.sol\":5197:5207  hospitalId */\n      dup5\n        /* \"contracts/Hospital.sol\":1438:1439  0 */\n      0x00\n        /* \"contracts/Hospital.sol\":1393:1411  registeredHospital */\n      0x03\n        /* \"contracts/Hospital.sol\":1393:1424  registeredHospital[_hospitalId] */\n      0x00\n        /* \"contracts/Hospital.sol\":1412:1423  _hospitalId */\n      dup4\n        /* \"contracts/Hospital.sol\":1393:1424  registeredHospital[_hospitalId] */\n      dup2\n      mstore\n      0x20\n      add\n      swap1\n      dup2\n      mstore\n      0x20\n      add\n      0x00\n      keccak256\n        /* \"contracts/Hospital.sol\":1393:1435  registeredHospital[_hospitalId].hospitalId */\n      0x03\n      add\n      sload\n        /* \"contracts/Hospital.sol\":1393:1439  registeredHospital[_hospitalId].hospitalId > 0 */\n      gt\n        /* \"contracts/Hospital.sol\":1385:1464  require(registeredHospital[_hospitalId].hospitalId > 0, \"Invalid hospital id!\") */\n      tag_106\n      jumpi\n      mload(0x40)\n      0x08c379a000000000000000000000000000000000000000000000000000000000\n      dup2\n      mstore\n      0x04\n      add\n      tag_107\n      swap1\n      tag_108\n      jump\t// in\n    tag_107:\n      mload(0x40)\n      dup1\n      swap2\n      sub\n      swap1\n      revert\n    tag_106:\n        /* \"contracts/Hospital.sol\":5224:5234  hospitalId */\n      dup6\n        /* \"contracts/Hospital.sol\":5235:5243  password */\n      dup6\n        /* \"contracts/Hospital.sol\":1914:1932  registeredHospital */\n      0x03\n        /* \"contracts/Hospital.sol\":1914:1946  registeredHospital[ _hospitalId] */\n      0x00\n        /* \"contracts/Hospital.sol\":1934:1945  _hospitalId */\n      dup4\n        /* \"contracts/Hospital.sol\":1914:1946  registeredHospital[ _hospitalId] */\n      dup2\n      mstore\n      0x20\n      add\n      swap1\n      dup2\n      mstore\n      0x20\n      add\n      0x00\n      keccak256\n        /* \"contracts/Hospital.sol\":1914:1955  registeredHospital[ _hospitalId].password */\n      0x02\n      add\n        /* \"contracts/Hospital.sol\":1904:1956  keccak256(registeredHospital[ _hospitalId].password) */\n      mload(0x40)\n      tag_110\n      swap2\n      swap1\n      tag_111\n      jump\t// in\n    tag_110:\n      mload(0x40)\n      dup1\n      swap2\n      sub\n      swap1\n      keccak256\n        /* \"contracts/Hospital.sol\":1878:1887  _password */\n      dup2\n        /* \"contracts/Hospital.sol\":1867:1899  abi.encode(_password,\"password\") */\n      add(0x20, mload(0x40))\n      tag_112\n      swap2\n      swap1\n      tag_113\n      jump\t// in\n    tag_112:\n      mload(0x40)\n      0x20\n      dup2\n      dup4\n      sub\n      sub\n      dup2\n      mstore\n      swap1\n      0x40\n      mstore\n        /* \"contracts/Hospital.sol\":1857:1900  keccak256(abi.encode(_password,\"password\")) */\n      dup1\n      mload\n      swap1\n      0x20\n      add\n      keccak256\n        /* \"contracts/Hospital.sol\":1857:1956  keccak256(abi.encode(_password,\"password\")) == keccak256(registeredHospital[ _hospitalId].password) */\n      eq\n        /* \"contracts/Hospital.sol\":1848:1976  require (keccak256(abi.encode(_password,\"password\")) == keccak256(registeredHospital[ _hospitalId].password), \"Wrong password!\") */\n      tag_114\n      jumpi\n      mload(0x40)\n      0x08c379a000000000000000000000000000000000000000000000000000000000\n      dup2\n      mstore\n      0x04\n      add\n      tag_115\n      swap1\n      tag_116\n      jump\t// in\n    tag_115:\n      mload(0x40)\n      dup1\n      swap2\n      sub\n      swap1\n      revert\n    tag_114:\n        /* \"contracts/Hospital.sol\":5278:5279  0 */\n      0x00\n        /* \"contracts/Hospital.sol\":5265:5274  requestId */\n      dup6\n        /* \"contracts/Hospital.sol\":5265:5279  requestId != 0 */\n      eq\n        /* \"contracts/Hospital.sol\":5261:6048  if (requestId != 0) {... */\n      tag_118\n      jumpi\n        /* \"contracts/Hospital.sol\":5367:5368  0 */\n      0x00\n        /* \"contracts/Hospital.sol\":5303:5321  registeredHospital */\n      0x03\n        /* \"contracts/Hospital.sol\":5303:5333  registeredHospital[hospitalId] */\n      0x00\n        /* \"contracts/Hospital.sol\":5322:5332  hospitalId */\n      dup11\n        /* \"contracts/Hospital.sol\":5303:5333  registeredHospital[hospitalId] */\n      dup2\n      mstore\n      0x20\n      add\n      swap1\n      dup2\n      mstore\n      0x20\n      add\n      0x00\n      keccak256\n        /* \"contracts/Hospital.sol\":5303:5342  registeredHospital[hospitalId].requests */\n      0x05\n      add\n        /* \"contracts/Hospital.sol\":5303:5357  registeredHospital[hospitalId].requests[stakeholderId] */\n      0x00\n        /* \"contracts/Hospital.sol\":5343:5356  stakeholderId */\n      dup7\n        /* \"contracts/Hospital.sol\":5303:5357  registeredHospital[hospitalId].requests[stakeholderId] */\n      dup2\n      mstore\n      0x20\n      add\n      swap1\n      dup2\n      mstore\n      0x20\n      add\n      0x00\n      keccak256\n        /* \"contracts/Hospital.sol\":5303:5364  registeredHospital[hospitalId].requests[stakeholderId].length */\n      dup1\n      sload\n      swap1\n      pop\n        /* \"contracts/Hospital.sol\":5303:5368  registeredHospital[hospitalId].requests[stakeholderId].length > 0 */\n      gt\n        /* \"contracts/Hospital.sol\":5295:5389  require(registeredHospital[hospitalId].requests[stakeholderId].length > 0, \"Not request yet!\") */\n      tag_119\n      jumpi\n      mload(0x40)\n      0x08c379a000000000000000000000000000000000000000000000000000000000\n      dup2\n      mstore\n      0x04\n      add\n      tag_120\n      swap1\n      tag_121\n      jump\t// in\n    tag_120:\n      mload(0x40)\n      dup1\n      swap2\n      sub\n      swap1\n      revert\n    tag_119:\n        /* \"contracts/Hospital.sol\":5416:5437  Request[] memory reqs */\n      0x00\n        /* \"contracts/Hospital.sol\":5440:5458  registeredHospital */\n      0x03\n        /* \"contracts/Hospital.sol\":5440:5470  registeredHospital[hospitalId] */\n      0x00\n        /* \"contracts/Hospital.sol\":5459:5469  hospitalId */\n      dup11\n        /* \"contracts/Hospital.sol\":5440:5470  registeredHospital[hospitalId] */\n      dup2\n      mstore\n      0x20\n      add\n      swap1\n      dup2\n      mstore\n      0x20\n      add\n      0x00\n      keccak256\n        /* \"contracts/Hospital.sol\":5440:5479  registeredHospital[hospitalId].requests */\n      0x05\n      add\n        /* \"contracts/Hospital.sol\":5440:5494  registeredHospital[hospitalId].requests[stakeholderId] */\n      0x00\n        /* \"contracts/Hospital.sol\":5480:5493  stakeholderId */\n      dup7\n        /* \"contracts/Hospital.sol\":5440:5494  registeredHospital[hospitalId].requests[stakeholderId] */\n      dup2\n      mstore\n      0x20\n      add\n      swap1\n      dup2\n      mstore\n      0x20\n      add\n      0x00\n      keccak256\n        /* \"contracts/Hospital.sol\":5416:5494  Request[] memory reqs = registeredHospital[hospitalId].requests[stakeholderId] */\n      dup1\n      sload\n      dup1\n      0x20\n      mul\n      0x20\n      add\n      mload(0x40)\n      swap1\n      dup2\n      add\n      0x40\n      mstore\n      dup1\n      swap3\n      swap2\n      swap1\n      dup2\n      dup2\n      mstore\n      0x20\n      add\n      0x00\n      swap1\n    tag_122:\n      dup3\n      dup3\n      lt\n      iszero\n      tag_123\n      jumpi\n      dup4\n      dup3\n      swap1\n      0x00\n      mstore\n      keccak256(0x00, 0x20)\n      swap1\n      0x05\n      mul\n      add\n      mload(0x40)\n      dup1\n      0xa0\n      add\n      0x40\n      mstore\n      swap1\n      dup2\n      0x00\n      dup3\n      add\n      sload\n      dup2\n      mstore\n      0x20\n      add\n      0x01\n      dup3\n      add\n      sload\n      dup2\n      mstore\n      0x20\n      add\n      0x02\n      dup3\n      add\n      dup1\n      sload\n      tag_125\n      swap1\n      tag_126\n      jump\t// in\n    tag_125:\n      dup1\n      0x1f\n      add\n      0x20\n      dup1\n      swap2\n      div\n      mul\n      0x20\n      add\n      mload(0x40)\n      swap1\n      dup2\n      add\n      0x40\n      mstore\n      dup1\n      swap3\n      swap2\n      swap1\n      dup2\n      dup2\n      mstore\n      0x20\n      add\n      dup3\n      dup1\n      sload\n      tag_127\n      swap1\n      tag_126\n      jump\t// in\n    tag_127:\n      dup1\n      iszero\n      tag_128\n      jumpi\n      dup1\n      0x1f\n      lt\n      tag_129\n      jumpi\n      0x0100\n      dup1\n      dup4\n      sload\n      div\n      mul\n      dup4\n      mstore\n      swap2\n      0x20\n      add\n      swap2\n      jump(tag_128)\n    tag_129:\n      dup3\n      add\n      swap2\n      swap1\n      0x00\n      mstore\n      keccak256(0x00, 0x20)\n      swap1\n    tag_130:\n      dup2\n      sload\n      dup2\n      mstore\n      swap1\n      0x01\n      add\n      swap1\n      0x20\n      add\n      dup1\n      dup4\n      gt\n      tag_130\n      jumpi\n      dup3\n      swap1\n      sub\n      0x1f\n      and\n      dup3\n      add\n      swap2\n    tag_128:\n      pop\n      pop\n      pop\n      pop\n      pop\n      dup2\n      mstore\n      0x20\n      add\n      0x03\n      dup3\n      add\n      dup1\n      sload\n      tag_131\n      swap1\n      tag_126\n      jump\t// in\n    tag_131:\n      dup1\n      0x1f\n      add\n      0x20\n      dup1\n      swap2\n      div\n      mul\n      0x20\n      add\n      mload(0x40)\n      swap1\n      dup2\n      add\n      0x40\n      mstore\n      dup1\n      swap3\n      swap2\n      swap1\n      dup2\n      dup2\n      mstore\n      0x20\n      add\n      dup3\n      dup1\n      sload\n      tag_132\n      swap1\n      tag_126\n      jump\t// in\n    tag_132:\n      dup1\n      iszero\n      tag_133\n      jumpi\n      dup1\n      0x1f\n      lt\n      tag_134\n      jumpi\n      0x0100\n      dup1\n      dup4\n      sload\n      div\n      mul\n      dup4\n      mstore\n      swap2\n      0x20\n      add\n      swap2\n      jump(tag_133)\n    tag_134:\n      dup3\n      add\n      swap2\n      swap1\n      0x00\n      mstore\n      keccak256(0x00, 0x20)\n      swap1\n    tag_135:\n      dup2\n      sload\n      dup2\n      mstore\n      swap1\n      0x01\n      add\n      swap1\n      0x20\n      add\n      dup1\n      dup4\n      gt\n      tag_135\n      jumpi\n      dup3\n      swap1\n      sub\n      0x1f\n      and\n      dup3\n      add\n      swap2\n    tag_133:\n      pop\n      pop\n      pop\n      pop\n      pop\n      dup2\n      mstore\n      0x20\n      add\n      0x04\n      dup3\n      add\n      sload\n      dup2\n      mstore\n      pop\n      pop\n      dup2\n      mstore\n      0x20\n      add\n      swap1\n      0x01\n      add\n      swap1\n      jump(tag_122)\n    tag_123:\n      pop\n      pop\n      pop\n      pop\n      swap1\n      pop\n        /* \"contracts/Hospital.sol\":5508:5522  uint256 length */\n      0x00\n        /* \"contracts/Hospital.sol\":5525:5529  reqs */\n      dup2\n        /* \"contracts/Hospital.sol\":5525:5536  reqs.length */\n      mload\n        /* \"contracts/Hospital.sol\":5508:5536  uint256 length = reqs.length */\n      swap1\n      pop\n        /* \"contracts/Hospital.sol\":5550:5559  bool find */\n      0x00\n        /* \"contracts/Hospital.sol\":5581:5594  uint256 index */\n      dup1\n        /* \"contracts/Hospital.sol\":5613:5622  uint256 i */\n      dup1\n        /* \"contracts/Hospital.sol\":5625:5626  0 */\n      0x00\n        /* \"contracts/Hospital.sol\":5613:5626  uint256 i = 0 */\n      swap1\n      pop\n        /* \"contracts/Hospital.sol\":5608:5792  for (uint256 i = 0; i < length; i++) {... */\n    tag_136:\n        /* \"contracts/Hospital.sol\":5632:5638  length */\n      dup4\n        /* \"contracts/Hospital.sol\":5628:5629  i */\n      dup2\n        /* \"contracts/Hospital.sol\":5628:5638  i < length */\n      lt\n        /* \"contracts/Hospital.sol\":5608:5792  for (uint256 i = 0; i < length; i++) {... */\n      iszero\n      tag_137\n      jumpi\n        /* \"contracts/Hospital.sol\":5684:5693  requestId */\n      dup10\n        /* \"contracts/Hospital.sol\":5667:5671  reqs */\n      dup6\n        /* \"contracts/Hospital.sol\":5672:5673  i */\n      dup3\n        /* \"contracts/Hospital.sol\":5667:5674  reqs[i] */\n      dup2\n      mload\n      dup2\n      lt\n      tag_139\n      jumpi\n      tag_140\n      tag_141\n      jump\t// in\n    tag_140:\n    tag_139:\n      0x20\n      mul\n      0x20\n      add\n      add\n      mload\n        /* \"contracts/Hospital.sol\":5667:5680  reqs[i].reqId */\n      0x00\n      add\n      mload\n        /* \"contracts/Hospital.sol\":5667:5693  reqs[i].reqId == requestId */\n      sub\n        /* \"contracts/Hospital.sol\":5663:5778  if (reqs[i].reqId == requestId) {... */\n      tag_142\n      jumpi\n        /* \"contracts/Hospital.sol\":5725:5726  i */\n      dup1\n        /* \"contracts/Hospital.sol\":5717:5726  index = i */\n      swap2\n      pop\n        /* \"contracts/Hospital.sol\":5755:5759  true */\n      0x01\n        /* \"contracts/Hospital.sol\":5748:5759  find = true */\n      swap3\n      pop\n        /* \"contracts/Hospital.sol\":5663:5778  if (reqs[i].reqId == requestId) {... */\n    tag_142:\n        /* \"contracts/Hospital.sol\":5640:5643  i++ */\n      dup1\n      dup1\n      tag_143\n      swap1\n      tag_144\n      jump\t// in\n    tag_143:\n      swap2\n      pop\n      pop\n        /* \"contracts/Hospital.sol\":5608:5792  for (uint256 i = 0; i < length; i++) {... */\n      jump(tag_136)\n    tag_137:\n      pop\n        /* \"contracts/Hospital.sol\":5834:5838  true */\n      0x01\n        /* \"contracts/Hospital.sol\":5826:5838  find == true */\n      iszero\n      iszero\n        /* \"contracts/Hospital.sol\":5826:5830  find */\n      dup3\n        /* \"contracts/Hospital.sol\":5826:5838  find == true */\n      iszero\n      iszero\n      eq\n        /* \"contracts/Hospital.sol\":5818:5862  require(find == true, \"Invalid request id!\") */\n      tag_145\n      jumpi\n      mload(0x40)\n      0x08c379a000000000000000000000000000000000000000000000000000000000\n      dup2\n      mstore\n      0x04\n      add\n      tag_146\n      swap1\n      tag_147\n      jump\t// in\n    tag_146:\n      mload(0x40)\n      dup1\n      swap2\n      sub\n      swap1\n      revert\n    tag_145:\n        /* \"contracts/Hospital.sol\":5880:5884  find */\n      dup2\n        /* \"contracts/Hospital.sol\":5876:6038  if (find) {... */\n      iszero\n      tag_148\n      jumpi\n        /* \"contracts/Hospital.sol\":5973:5977  mcId */\n      dup10\n        /* \"contracts/Hospital.sol\":5904:5922  registeredHospital */\n      0x03\n        /* \"contracts/Hospital.sol\":5904:5934  registeredHospital[hospitalId] */\n      0x00\n        /* \"contracts/Hospital.sol\":5923:5933  hospitalId */\n      dup15\n        /* \"contracts/Hospital.sol\":5904:5934  registeredHospital[hospitalId] */\n      dup2\n      mstore\n      0x20\n      add\n      swap1\n      dup2\n      mstore\n      0x20\n      add\n      0x00\n      keccak256\n        /* \"contracts/Hospital.sol\":5904:5943  registeredHospital[hospitalId].requests */\n      0x05\n      add\n        /* \"contracts/Hospital.sol\":5904:5958  registeredHospital[hospitalId].requests[stakeholderId] */\n      0x00\n        /* \"contracts/Hospital.sol\":5944:5957  stakeholderId */\n      dup11\n        /* \"contracts/Hospital.sol\":5904:5958  registeredHospital[hospitalId].requests[stakeholderId] */\n      dup2\n      mstore\n      0x20\n      add\n      swap1\n      dup2\n      mstore\n      0x20\n      add\n      0x00\n      keccak256\n        /* \"contracts/Hospital.sol\":5959:5964  index */\n      dup3\n        /* \"contracts/Hospital.sol\":5904:5965  registeredHospital[hospitalId].requests[stakeholderId][index] */\n      dup2\n      sload\n      dup2\n      lt\n      tag_149\n      jumpi\n      tag_150\n      tag_141\n      jump\t// in\n    tag_150:\n    tag_149:\n      swap1\n      0x00\n      mstore\n      keccak256(0x00, 0x20)\n      swap1\n      0x05\n      mul\n      add\n        /* \"contracts/Hospital.sol\":5904:5970  registeredHospital[hospitalId].requests[stakeholderId][index].mcid */\n      0x04\n      add\n        /* \"contracts/Hospital.sol\":5904:5977  registeredHospital[hospitalId].requests[stakeholderId][index].mcid = mcId */\n      dup2\n      swap1\n      sstore\n      pop\n        /* \"contracts/Hospital.sol\":6000:6023  requestSolve(requestId) */\n      0xc01a711a994234663e49bcaf267235941ef164ac0dea30de367e8cdb0eeabd5a\n        /* \"contracts/Hospital.sol\":6013:6022  requestId */\n      dup10\n        /* \"contracts/Hospital.sol\":6000:6023  requestSolve(requestId) */\n      mload(0x40)\n      tag_152\n      swap2\n      swap1\n      tag_43\n      jump\t// in\n    tag_152:\n      mload(0x40)\n      dup1\n      swap2\n      sub\n      swap1\n      log1\n        /* \"contracts/Hospital.sol\":5876:6038  if (find) {... */\n    tag_148:\n        /* \"contracts/Hospital.sol\":5281:6048  {... */\n      pop\n      pop\n      pop\n      pop\n        /* \"contracts/Hospital.sol\":5261:6048  if (requestId != 0) {... */\n    tag_118:\n        /* \"contracts/Hospital.sol\":1474:1475  _ */\n      pop\n      pop\n        /* \"contracts/Hospital.sol\":5040:6072  function solveRequest(uint256 hospitalId, string memory password, ... */\n      pop\n      pop\n      pop\n      pop\n      pop\n      pop\n      jump\t// out\n        /* \"contracts/Hospital.sol\":9765:10101  function changePresident(uint256 hospitalId, string memory password, string memory NRIC)... */\n    tag_36:\n        /* \"contracts/Hospital.sol\":9880:9890  hospitalId */\n      dup3\n        /* \"contracts/Hospital.sol\":9891:9899  password */\n      dup3\n        /* \"contracts/Hospital.sol\":1914:1932  registeredHospital */\n      0x03\n        /* \"contracts/Hospital.sol\":1914:1946  registeredHospital[ _hospitalId] */\n      0x00\n        /* \"contracts/Hospital.sol\":1934:1945  _hospitalId */\n      dup4\n        /* \"contracts/Hospital.sol\":1914:1946  registeredHospital[ _hospitalId] */\n      dup2\n      mstore\n      0x20\n      add\n      swap1\n      dup2\n      mstore\n      0x20\n      add\n      0x00\n      keccak256\n        /* \"contracts/Hospital.sol\":1914:1955  registeredHospital[ _hospitalId].password */\n      0x02\n      add\n        /* \"contracts/Hospital.sol\":1904:1956  keccak256(registeredHospital[ _hospitalId].password) */\n      mload(0x40)\n      tag_154\n      swap2\n      swap1\n      tag_111\n      jump\t// in\n    tag_154:\n      mload(0x40)\n      dup1\n      swap2\n      sub\n      swap1\n      keccak256\n        /* \"contracts/Hospital.sol\":1878:1887  _password */\n      dup2\n        /* \"contracts/Hospital.sol\":1867:1899  abi.encode(_password,\"password\") */\n      add(0x20, mload(0x40))\n      tag_155\n      swap2\n      swap1\n      tag_113\n      jump\t// in\n    tag_155:\n      mload(0x40)\n      0x20\n      dup2\n      dup4\n      sub\n      sub\n      dup2\n      mstore\n      swap1\n      0x40\n      mstore\n        /* \"contracts/Hospital.sol\":1857:1900  keccak256(abi.encode(_password,\"password\")) */\n      dup1\n      mload\n      swap1\n      0x20\n      add\n      keccak256\n        /* \"contracts/Hospital.sol\":1857:1956  keccak256(abi.encode(_password,\"password\")) == keccak256(registeredHospital[ _hospitalId].password) */\n      eq\n        /* \"contracts/Hospital.sol\":1848:1976  require (keccak256(abi.encode(_password,\"password\")) == keccak256(registeredHospital[ _hospitalId].password), \"Wrong password!\") */\n      tag_156\n      jumpi\n      mload(0x40)\n      0x08c379a000000000000000000000000000000000000000000000000000000000\n      dup2\n      mstore\n      0x04\n      add\n      tag_157\n      swap1\n      tag_116\n      jump\t// in\n    tag_157:\n      mload(0x40)\n      dup1\n      swap2\n      sub\n      swap1\n      revert\n    tag_156:\n        /* \"contracts/Hospital.sol\":9909:9913  NRIC */\n      dup3\n        /* \"contracts/Hospital.sol\":1562:1563  9 */\n      0x09\n        /* \"contracts/Hospital.sol\":1547:1550  _ic */\n      dup2\n        /* \"contracts/Hospital.sol\":1541:1558  bytes(_ic).length */\n      mload\n        /* \"contracts/Hospital.sol\":1541:1563  bytes(_ic).length == 9 */\n      eq\n        /* \"contracts/Hospital.sol\":1533:1587  require(bytes(_ic).length == 9, \"invalid NRIC number\") */\n      tag_159\n      jumpi\n      mload(0x40)\n      0x08c379a000000000000000000000000000000000000000000000000000000000\n      dup2\n      mstore\n      0x04\n      add\n      tag_160\n      swap1\n      tag_161\n      jump\t// in\n    tag_160:\n      mload(0x40)\n      dup1\n      swap2\n      sub\n      swap1\n      revert\n    tag_159:\n        /* \"contracts/Hospital.sol\":9973:9983  msg.sender */\n      caller\n        /* \"contracts/Hospital.sol\":9929:9947  registeredHospital */\n      0x03\n        /* \"contracts/Hospital.sol\":9929:9960  registeredHospital[ hospitalId] */\n      0x00\n        /* \"contracts/Hospital.sol\":9949:9959  hospitalId */\n      dup9\n        /* \"contracts/Hospital.sol\":9929:9960  registeredHospital[ hospitalId] */\n      dup2\n      mstore\n      0x20\n      add\n      swap1\n      dup2\n      mstore\n      0x20\n      add\n      0x00\n      keccak256\n        /* \"contracts/Hospital.sol\":9929:9970  registeredHospital[ hospitalId].president */\n      0x00\n      add\n      0x00\n        /* \"contracts/Hospital.sol\":9929:9983  registeredHospital[ hospitalId].president = msg.sender */\n      0x0100\n      exp\n      dup2\n      sload\n      dup2\n      0xffffffffffffffffffffffffffffffffffffffff\n      mul\n      not\n      and\n      swap1\n      dup4\n      0xffffffffffffffffffffffffffffffffffffffff\n      and\n      mul\n      or\n      swap1\n      sstore\n      pop\n        /* \"contracts/Hospital.sol\":10051:10055  NRIC */\n      dup4\n        /* \"contracts/Hospital.sol\":10040:10061  abi.encode(NRIC,\"ic\") */\n      add(0x20, mload(0x40))\n      tag_163\n      swap2\n      swap1\n      tag_164\n      jump\t// in\n    tag_163:\n      mload(0x40)\n      0x20\n      dup2\n      dup4\n      sub\n      sub\n      dup2\n      mstore\n      swap1\n      0x40\n      mstore\n        /* \"contracts/Hospital.sol\":9993:10011  registeredHospital */\n      0x03\n        /* \"contracts/Hospital.sol\":9993:10024  registeredHospital[ hospitalId] */\n      0x00\n        /* \"contracts/Hospital.sol\":10013:10023  hospitalId */\n      dup9\n        /* \"contracts/Hospital.sol\":9993:10024  registeredHospital[ hospitalId] */\n      dup2\n      mstore\n      0x20\n      add\n      swap1\n      dup2\n      mstore\n      0x20\n      add\n      0x00\n      keccak256\n        /* \"contracts/Hospital.sol\":9993:10037  registeredHospital[ hospitalId].president_ic */\n      0x01\n      add\n        /* \"contracts/Hospital.sol\":9993:10061  registeredHospital[ hospitalId].president_ic = abi.encode(NRIC,\"ic\") */\n      swap1\n      dup2\n      tag_165\n      swap2\n      swap1\n      tag_166\n      jump\t// in\n    tag_165:\n      pop\n        /* \"contracts/Hospital.sol\":10076:10094  presidentChanged() */\n      0xdc5f6b9352635161a74876313a5729a4d33d34f1f65e69809e2e4275fb16be55\n      mload(0x40)\n      mload(0x40)\n      dup1\n      swap2\n      sub\n      swap1\n      log1\n        /* \"contracts/Hospital.sol\":1986:1987  _ */\n      pop\n        /* \"contracts/Hospital.sol\":9765:10101  function changePresident(uint256 hospitalId, string memory password, string memory NRIC)... */\n      pop\n      pop\n      pop\n      pop\n      pop\n      jump\t// out\n        /* \"contracts/Hospital.sol\":10548:10657  function getHospitalId(address president) public view returns(uint256) {... */\n    tag_41:\n        /* \"contracts/Hospital.sol\":10610:10617  uint256 */\n      0x00\n        /* \"contracts/Hospital.sol\":10636:10639  ids */\n      0x04\n        /* \"contracts/Hospital.sol\":10636:10650  ids[president] */\n      0x00\n        /* \"contracts/Hospital.sol\":10640:10649  president */\n      dup4\n        /* \"contracts/Hospital.sol\":10636:10650  ids[president] */\n      0xffffffffffffffffffffffffffffffffffffffff\n      and\n      0xffffffffffffffffffffffffffffffffffffffff\n      and\n      dup2\n      mstore\n      0x20\n      add\n      swap1\n      dup2\n      mstore\n      0x20\n      add\n      0x00\n      keccak256\n      sload\n        /* \"contracts/Hospital.sol\":10629:10650  return ids[president] */\n      swap1\n      pop\n        /* \"contracts/Hospital.sol\":10548:10657  function getHospitalId(address president) public view returns(uint256) {... */\n      swap2\n      swap1\n      pop\n      jump\t// out\n        /* \"contracts/MedicalCert.sol\":1271:1393  function getMCName(uint256 id) public view returns(string memory) {... */\n    tag_47:\n        /* \"contracts/MedicalCert.sol\":1322:1335  string memory */\n      0x60\n        /* \"contracts/MedicalCert.sol\":1354:1359  infos */\n      0x02\n        /* \"contracts/MedicalCert.sol\":1354:1381  infos[MC[id].personal_info] */\n      0x00\n        /* \"contracts/MedicalCert.sol\":1360:1362  MC */\n      0x01\n        /* \"contracts/MedicalCert.sol\":1360:1366  MC[id] */\n      0x00\n        /* \"contracts/MedicalCert.sol\":1363:1365  id */\n      dup6\n        /* \"contracts/MedicalCert.sol\":1360:1366  MC[id] */\n      dup2\n      mstore\n      0x20\n      add\n      swap1\n      dup2\n      mstore\n      0x20\n      add\n      0x00\n      keccak256\n        /* \"contracts/MedicalCert.sol\":1360:1380  MC[id].personal_info */\n      0x02\n      add\n      sload\n        /* \"contracts/MedicalCert.sol\":1354:1381  infos[MC[id].personal_info] */\n      dup2\n      mstore\n      0x20\n      add\n      swap1\n      dup2\n      mstore\n      0x20\n      add\n      0x00\n      keccak256\n        /* \"contracts/MedicalCert.sol\":1354:1386  infos[MC[id].personal_info].name */\n      0x01\n      add\n        /* \"contracts/MedicalCert.sol\":1347:1386  return infos[MC[id].personal_info].name */\n      dup1\n      sload\n      tag_169\n      swap1\n      tag_126\n      jump\t// in\n    tag_169:\n      dup1\n      0x1f\n      add\n      0x20\n      dup1\n      swap2\n      div\n      mul\n      0x20\n      add\n      mload(0x40)\n      swap1\n      dup2\n      add\n      0x40\n      mstore\n      dup1\n      swap3\n      swap2\n      swap1\n      dup2\n      dup2\n      mstore\n      0x20\n      add\n      dup3\n      dup1\n      sload\n      tag_170\n      swap1\n      tag_126\n      jump\t// in\n    tag_170:\n      dup1\n      iszero\n      tag_171\n      jumpi\n      dup1\n      0x1f\n      lt\n      tag_172\n      jumpi\n      0x0100\n      dup1\n      dup4\n      sload\n      div\n      mul\n      dup4\n      mstore\n      swap2\n      0x20\n      add\n      swap2\n      jump(tag_171)\n    tag_172:\n      dup3\n      add\n      swap2\n      swap1\n      0x00\n      mstore\n      keccak256(0x00, 0x20)\n      swap1\n    tag_173:\n      dup2\n      sload\n      dup2\n      mstore\n      swap1\n      0x01\n      add\n      swap1\n      0x20\n      add\n      dup1\n      dup4\n      gt\n      tag_173\n      jumpi\n      dup3\n      swap1\n      sub\n      0x1f\n      and\n      dup3\n      add\n      swap2\n    tag_171:\n      pop\n      pop\n      pop\n      pop\n      pop\n      swap1\n      pop\n        /* \"contracts/MedicalCert.sol\":1271:1393  function getMCName(uint256 id) public view returns(string memory) {... */\n      swap2\n      swap1\n      pop\n      jump\t// out\n        /* \"contracts/Hospital.sol\":2929:3577  function register(string memory NRIC, string memory password) public payable validIC(NRIC) returns(uint256) {... */\n    tag_53:\n        /* \"contracts/Hospital.sol\":3028:3035  uint256 */\n      0x00\n        /* \"contracts/Hospital.sol\":3014:3018  NRIC */\n      dup3\n        /* \"contracts/Hospital.sol\":1562:1563  9 */\n      0x09\n        /* \"contracts/Hospital.sol\":1547:1550  _ic */\n      dup2\n        /* \"contracts/Hospital.sol\":1541:1558  bytes(_ic).length */\n      mload\n        /* \"contracts/Hospital.sol\":1541:1563  bytes(_ic).length == 9 */\n      eq\n        /* \"contracts/Hospital.sol\":1533:1587  require(bytes(_ic).length == 9, \"invalid NRIC number\") */\n      tag_175\n      jumpi\n      mload(0x40)\n      0x08c379a000000000000000000000000000000000000000000000000000000000\n      dup2\n      mstore\n      0x04\n      add\n      tag_176\n      swap1\n      tag_161\n      jump\t// in\n    tag_176:\n      mload(0x40)\n      dup1\n      swap2\n      sub\n      swap1\n      revert\n    tag_175:\n        /* \"contracts/Hospital.sol\":3068:3078  0.01 ether */\n      0x2386f26fc10000\n        /* \"contracts/Hospital.sol\":3055:3064  msg.value */\n      callvalue\n        /* \"contracts/Hospital.sol\":3055:3078  msg.value >= 0.01 ether */\n      lt\n      iszero\n        /* \"contracts/Hospital.sol\":3047:3127  require(msg.value >= 0.01 ether, \"0.01 ETH is needed to register your hospital\") */\n      tag_178\n      jumpi\n      mload(0x40)\n      0x08c379a000000000000000000000000000000000000000000000000000000000\n      dup2\n      mstore\n      0x04\n      add\n      tag_179\n      swap1\n      tag_180\n      jump\t// in\n    tag_179:\n      mload(0x40)\n      dup1\n      swap2\n      sub\n      swap1\n      revert\n    tag_178:\n        /* \"contracts/Hospital.sol\":3138:3151  totalHospital */\n      0x06\n      0x00\n        /* \"contracts/Hospital.sol\":3138:3153  totalHospital++ */\n      dup2\n      sload\n      dup1\n      swap3\n      swap2\n      swap1\n      tag_181\n      swap1\n      tag_144\n      jump\t// in\n    tag_181:\n      swap2\n      swap1\n      pop\n      sstore\n      pop\n        /* \"contracts/Hospital.sol\":3163:3191  hospital storage newHospital */\n      0x00\n        /* \"contracts/Hospital.sol\":3194:3212  registeredHospital */\n      0x03\n        /* \"contracts/Hospital.sol\":3194:3227  registeredHospital[totalHospital] */\n      0x00\n        /* \"contracts/Hospital.sol\":3213:3226  totalHospital */\n      sload(0x06)\n        /* \"contracts/Hospital.sol\":3194:3227  registeredHospital[totalHospital] */\n      dup2\n      mstore\n      0x20\n      add\n      swap1\n      dup2\n      mstore\n      0x20\n      add\n      0x00\n      keccak256\n        /* \"contracts/Hospital.sol\":3163:3227  hospital storage newHospital = registeredHospital[totalHospital] */\n      swap1\n      pop\n        /* \"contracts/Hospital.sol\":3263:3273  msg.sender */\n      caller\n        /* \"contracts/Hospital.sol\":3238:3249  newHospital */\n      dup2\n        /* \"contracts/Hospital.sol\":3238:3259  newHospital.president */\n      0x00\n      add\n      0x00\n        /* \"contracts/Hospital.sol\":3238:3273  newHospital.president =  msg.sender */\n      0x0100\n      exp\n      dup2\n      sload\n      dup2\n      0xffffffffffffffffffffffffffffffffffffffff\n      mul\n      not\n      and\n      swap1\n      dup4\n      0xffffffffffffffffffffffffffffffffffffffff\n      and\n      mul\n      or\n      swap1\n      sstore\n      pop\n        /* \"contracts/Hospital.sol\":3321:3325  NRIC */\n      dup5\n        /* \"contracts/Hospital.sol\":3310:3331  abi.encode(NRIC,\"ic\") */\n      add(0x20, mload(0x40))\n      tag_182\n      swap2\n      swap1\n      tag_164\n      jump\t// in\n    tag_182:\n      mload(0x40)\n      0x20\n      dup2\n      dup4\n      sub\n      sub\n      dup2\n      mstore\n      swap1\n      0x40\n      mstore\n        /* \"contracts/Hospital.sol\":3283:3294  newHospital */\n      dup2\n        /* \"contracts/Hospital.sol\":3283:3307  newHospital.president_ic */\n      0x01\n      add\n        /* \"contracts/Hospital.sol\":3283:3331  newHospital.president_ic = abi.encode(NRIC,\"ic\") */\n      swap1\n      dup2\n      tag_183\n      swap2\n      swap1\n      tag_166\n      jump\t// in\n    tag_183:\n      pop\n        /* \"contracts/Hospital.sol\":3376:3384  password */\n      dup4\n        /* \"contracts/Hospital.sol\":3365:3396  abi.encode(password,\"password\") */\n      add(0x20, mload(0x40))\n      tag_184\n      swap2\n      swap1\n      tag_113\n      jump\t// in\n    tag_184:\n      mload(0x40)\n      0x20\n      dup2\n      dup4\n      sub\n      sub\n      dup2\n      mstore\n      swap1\n      0x40\n      mstore\n        /* \"contracts/Hospital.sol\":3341:3352  newHospital */\n      dup2\n        /* \"contracts/Hospital.sol\":3341:3361  newHospital.password */\n      0x02\n      add\n        /* \"contracts/Hospital.sol\":3341:3396  newHospital.password =  abi.encode(password,\"password\") */\n      swap1\n      dup2\n      tag_185\n      swap2\n      swap1\n      tag_166\n      jump\t// in\n    tag_185:\n      pop\n        /* \"contracts/Hospital.sol\":3432:3445  totalHospital */\n      sload(0x06)\n        /* \"contracts/Hospital.sol\":3406:3417  newHospital */\n      dup2\n        /* \"contracts/Hospital.sol\":3406:3428  newHospital.hospitalId */\n      0x03\n      add\n        /* \"contracts/Hospital.sol\":3406:3445  newHospital.hospitalId =  totalHospital */\n      dup2\n      swap1\n      sstore\n      pop\n        /* \"contracts/Hospital.sol\":3491:3504  totalHospital */\n      sload(0x06)\n        /* \"contracts/Hospital.sol\":3473:3476  ids */\n      0x04\n        /* \"contracts/Hospital.sol\":3473:3488  ids[msg.sender] */\n      0x00\n        /* \"contracts/Hospital.sol\":3477:3487  msg.sender */\n      caller\n        /* \"contracts/Hospital.sol\":3473:3488  ids[msg.sender] */\n      0xffffffffffffffffffffffffffffffffffffffff\n      and\n      0xffffffffffffffffffffffffffffffffffffffff\n      and\n      dup2\n      mstore\n      0x20\n      add\n      swap1\n      dup2\n      mstore\n      0x20\n      add\n      0x00\n      keccak256\n        /* \"contracts/Hospital.sol\":3473:3504  ids[msg.sender] = totalHospital */\n      dup2\n      swap1\n      sstore\n      pop\n        /* \"contracts/Hospital.sol\":3528:3540  registered() */\n      0x2de40ce37397b7fb2d98ae62dc520d88b46e2c50beac9f696f11ccc6605ef3eb\n      mload(0x40)\n      mload(0x40)\n      dup1\n      swap2\n      sub\n      swap1\n      log1\n        /* \"contracts/Hospital.sol\":3557:3570  totalHospital */\n      sload(0x06)\n        /* \"contracts/Hospital.sol\":3550:3570  return totalHospital */\n      swap3\n      pop\n      pop\n        /* \"contracts/Hospital.sol\":2929:3577  function register(string memory NRIC, string memory password) public payable validIC(NRIC) returns(uint256) {... */\n      pop\n      swap3\n      swap2\n      pop\n      pop\n      jump\t// out\n        /* \"contracts/Hospital.sol\":7234:8585  function checkRequestFromHospital (uint256 hospitalId, string memory password) ... */\n    tag_59:\n        /* \"contracts/Hospital.sol\":7339:7349  hospitalId */\n      dup2\n        /* \"contracts/Hospital.sol\":1438:1439  0 */\n      0x00\n        /* \"contracts/Hospital.sol\":1393:1411  registeredHospital */\n      0x03\n        /* \"contracts/Hospital.sol\":1393:1424  registeredHospital[_hospitalId] */\n      0x00\n        /* \"contracts/Hospital.sol\":1412:1423  _hospitalId */\n      dup4\n        /* \"contracts/Hospital.sol\":1393:1424  registeredHospital[_hospitalId] */\n      dup2\n      mstore\n      0x20\n      add\n      swap1\n      dup2\n      mstore\n      0x20\n      add\n      0x00\n      keccak256\n        /* \"contracts/Hospital.sol\":1393:1435  registeredHospital[_hospitalId].hospitalId */\n      0x03\n      add\n      sload\n        /* \"contracts/Hospital.sol\":1393:1439  registeredHospital[_hospitalId].hospitalId > 0 */\n      gt\n        /* \"contracts/Hospital.sol\":1385:1464  require(registeredHospital[_hospitalId].hospitalId > 0, \"Invalid hospital id!\") */\n      tag_187\n      jumpi\n      mload(0x40)\n      0x08c379a000000000000000000000000000000000000000000000000000000000\n      dup2\n      mstore\n      0x04\n      add\n      tag_188\n      swap1\n      tag_108\n      jump\t// in\n    tag_188:\n      mload(0x40)\n      dup1\n      swap2\n      sub\n      swap1\n      revert\n    tag_187:\n        /* \"contracts/Hospital.sol\":7366:7376  hospitalId */\n      dup3\n        /* \"contracts/Hospital.sol\":7377:7385  password */\n      dup3\n        /* \"contracts/Hospital.sol\":1914:1932  registeredHospital */\n      0x03\n        /* \"contracts/Hospital.sol\":1914:1946  registeredHospital[ _hospitalId] */\n      0x00\n        /* \"contracts/Hospital.sol\":1934:1945  _hospitalId */\n      dup4\n        /* \"contracts/Hospital.sol\":1914:1946  registeredHospital[ _hospitalId] */\n      dup2\n      mstore\n      0x20\n      add\n      swap1\n      dup2\n      mstore\n      0x20\n      add\n      0x00\n      keccak256\n        /* \"contracts/Hospital.sol\":1914:1955  registeredHospital[ _hospitalId].password */\n      0x02\n      add\n        /* \"contracts/Hospital.sol\":1904:1956  keccak256(registeredHospital[ _hospitalId].password) */\n      mload(0x40)\n      tag_190\n      swap2\n      swap1\n      tag_111\n      jump\t// in\n    tag_190:\n      mload(0x40)\n      dup1\n      swap2\n      sub\n      swap1\n      keccak256\n        /* \"contracts/Hospital.sol\":1878:1887  _password */\n      dup2\n        /* \"contracts/Hospital.sol\":1867:1899  abi.encode(_password,\"password\") */\n      add(0x20, mload(0x40))\n      tag_191\n      swap2\n      swap1\n      tag_113\n      jump\t// in\n    tag_191:\n      mload(0x40)\n      0x20\n      dup2\n      dup4\n      sub\n      sub\n      dup2\n      mstore\n      swap1\n      0x40\n      mstore\n        /* \"contracts/Hospital.sol\":1857:1900  keccak256(abi.encode(_password,\"password\")) */\n      dup1\n      mload\n      swap1\n      0x20\n      add\n      keccak256\n        /* \"contracts/Hospital.sol\":1857:1956  keccak256(abi.encode(_password,\"password\")) == keccak256(registeredHospital[ _hospitalId].password) */\n      eq\n        /* \"contracts/Hospital.sol\":1848:1976  require (keccak256(abi.encode(_password,\"password\")) == keccak256(registeredHospital[ _hospitalId].password), \"Wrong password!\") */\n      tag_192\n      jumpi\n      mload(0x40)\n      0x08c379a000000000000000000000000000000000000000000000000000000000\n      dup2\n      mstore\n      0x04\n      add\n      tag_193\n      swap1\n      tag_116\n      jump\t// in\n    tag_193:\n      mload(0x40)\n      dup1\n      swap2\n      sub\n      swap1\n      revert\n    tag_192:\n        /* \"contracts/Hospital.sol\":7402:7429  uint256[] memory requestids */\n      0x00\n        /* \"contracts/Hospital.sol\":7446:7455  numOfReqs */\n      sload(0x07)\n        /* \"contracts/Hospital.sol\":7432:7456  new uint256[](numOfReqs) */\n      0xffffffffffffffff\n      dup2\n      gt\n      iszero\n      tag_195\n      jumpi\n      tag_196\n      tag_197\n      jump\t// in\n    tag_196:\n    tag_195:\n      mload(0x40)\n      swap1\n      dup1\n      dup3\n      mstore\n      dup1\n      0x20\n      mul\n      0x20\n      add\n      dup3\n      add\n      0x40\n      mstore\n      dup1\n      iszero\n      tag_198\n      jumpi\n      dup2\n      0x20\n      add\n      0x20\n      dup3\n      mul\n      dup1\n      calldatasize\n      dup4\n      calldatacopy\n      dup1\n      dup3\n      add\n      swap2\n      pop\n      pop\n      swap1\n      pop\n    tag_198:\n      pop\n        /* \"contracts/Hospital.sol\":7402:7456  uint256[] memory requestids = new uint256[](numOfReqs) */\n      swap1\n      pop\n        /* \"contracts/Hospital.sol\":7466:7497  uint256[] memory stakeholderids */\n      0x00\n        /* \"contracts/Hospital.sol\":7514:7523  numOfReqs */\n      sload(0x07)\n        /* \"contracts/Hospital.sol\":7500:7524  new uint256[](numOfReqs) */\n      0xffffffffffffffff\n      dup2\n      gt\n      iszero\n      tag_199\n      jumpi\n      tag_200\n      tag_197\n      jump\t// in\n    tag_200:\n    tag_199:\n      mload(0x40)\n      swap1\n      dup1\n      dup3\n      mstore\n      dup1\n      0x20\n      mul\n      0x20\n      add\n      dup3\n      add\n      0x40\n      mstore\n      dup1\n      iszero\n      tag_201\n      jumpi\n      dup2\n      0x20\n      add\n      0x20\n      dup3\n      mul\n      dup1\n      calldatasize\n      dup4\n      calldatacopy\n      dup1\n      dup3\n      add\n      swap2\n      pop\n      pop\n      swap1\n      pop\n    tag_201:\n      pop\n        /* \"contracts/Hospital.sol\":7466:7524  uint256[] memory stakeholderids = new uint256[](numOfReqs) */\n      swap1\n      pop\n        /* \"contracts/Hospital.sol\":7534:7555  string[] memory names */\n      0x00\n        /* \"contracts/Hospital.sol\":7571:7580  numOfReqs */\n      sload(0x07)\n        /* \"contracts/Hospital.sol\":7558:7581  new string[](numOfReqs) */\n      0xffffffffffffffff\n      dup2\n      gt\n      iszero\n      tag_202\n      jumpi\n      tag_203\n      tag_197\n      jump\t// in\n    tag_203:\n    tag_202:\n      mload(0x40)\n      swap1\n      dup1\n      dup3\n      mstore\n      dup1\n      0x20\n      mul\n      0x20\n      add\n      dup3\n      add\n      0x40\n      mstore\n      dup1\n      iszero\n      tag_204\n      jumpi\n      dup2\n      0x20\n      add\n    tag_205:\n      0x60\n      dup2\n      mstore\n      0x20\n      add\n      swap1\n      0x01\n      swap1\n      sub\n      swap1\n      dup2\n      tag_205\n      jumpi\n      swap1\n      pop\n    tag_204:\n      pop\n        /* \"contracts/Hospital.sol\":7534:7581  string[] memory names = new string[](numOfReqs) */\n      swap1\n      pop\n        /* \"contracts/Hospital.sol\":7591:7609  string[]memory ics */\n      0x00\n        /* \"contracts/Hospital.sol\":7625:7634  numOfReqs */\n      sload(0x07)\n        /* \"contracts/Hospital.sol\":7612:7635  new string[](numOfReqs) */\n      0xffffffffffffffff\n      dup2\n      gt\n      iszero\n      tag_206\n      jumpi\n      tag_207\n      tag_197\n      jump\t// in\n    tag_207:\n    tag_206:\n      mload(0x40)\n      swap1\n      dup1\n      dup3\n      mstore\n      dup1\n      0x20\n      mul\n      0x20\n      add\n      dup3\n      add\n      0x40\n      mstore\n      dup1\n      iszero\n      tag_208\n      jumpi\n      dup2\n      0x20\n      add\n    tag_209:\n      0x60\n      dup2\n      mstore\n      0x20\n      add\n      swap1\n      0x01\n      swap1\n      sub\n      swap1\n      dup2\n      tag_209\n      jumpi\n      swap1\n      pop\n    tag_208:\n      pop\n        /* \"contracts/Hospital.sol\":7591:7635  string[]memory ics = new string[](numOfReqs) */\n      swap1\n      pop\n        /* \"contracts/Hospital.sol\":7646:7684  uint256[] memory requestedstakeholders */\n      0x00\n        /* \"contracts/Hospital.sol\":7687:7699  stakeholders */\n      0x05\n        /* \"contracts/Hospital.sol\":7687:7711  stakeholders[hospitalId] */\n      0x00\n        /* \"contracts/Hospital.sol\":7700:7710  hospitalId */\n      dup12\n        /* \"contracts/Hospital.sol\":7687:7711  stakeholders[hospitalId] */\n      dup2\n      mstore\n      0x20\n      add\n      swap1\n      dup2\n      mstore\n      0x20\n      add\n      0x00\n      keccak256\n        /* \"contracts/Hospital.sol\":7646:7711  uint256[] memory requestedstakeholders = stakeholders[hospitalId] */\n      dup1\n      sload\n      dup1\n      0x20\n      mul\n      0x20\n      add\n      mload(0x40)\n      swap1\n      dup2\n      add\n      0x40\n      mstore\n      dup1\n      swap3\n      swap2\n      swap1\n      dup2\n      dup2\n      mstore\n      0x20\n      add\n      dup3\n      dup1\n      sload\n      dup1\n      iszero\n      tag_210\n      jumpi\n      0x20\n      mul\n      dup3\n      add\n      swap2\n      swap1\n      0x00\n      mstore\n      keccak256(0x00, 0x20)\n      swap1\n    tag_211:\n      dup2\n      sload\n      dup2\n      mstore\n      0x20\n      add\n      swap1\n      0x01\n      add\n      swap1\n      dup1\n      dup4\n      gt\n      tag_211\n      jumpi\n    tag_210:\n      pop\n      pop\n      pop\n      pop\n      pop\n      swap1\n      pop\n        /* \"contracts/Hospital.sol\":7722:7740  uint256 total_reqs */\n      0x00\n        /* \"contracts/Hospital.sol\":7760:7769  uint256 i */\n      dup1\n        /* \"contracts/Hospital.sol\":7755:8514  for (uint256 i = 0; i < requestedstakeholders.length; i++) {... */\n    tag_212:\n        /* \"contracts/Hospital.sol\":7779:7800  requestedstakeholders */\n      dup3\n        /* \"contracts/Hospital.sol\":7779:7807  requestedstakeholders.length */\n      mload\n        /* \"contracts/Hospital.sol\":7775:7776  i */\n      dup2\n        /* \"contracts/Hospital.sol\":7775:7807  i < requestedstakeholders.length */\n      lt\n        /* \"contracts/Hospital.sol\":7755:8514  for (uint256 i = 0; i < requestedstakeholders.length; i++) {... */\n      iszero\n      tag_213\n      jumpi\n        /* \"contracts/Hospital.sol\":7828:7849  uint256 stakeholderId */\n      0x00\n        /* \"contracts/Hospital.sol\":7852:7873  requestedstakeholders */\n      dup4\n        /* \"contracts/Hospital.sol\":7874:7875  i */\n      dup3\n        /* \"contracts/Hospital.sol\":7852:7876  requestedstakeholders[i] */\n      dup2\n      mload\n      dup2\n      lt\n      tag_215\n      jumpi\n      tag_216\n      tag_141\n      jump\t// in\n    tag_216:\n    tag_215:\n      0x20\n      mul\n      0x20\n      add\n      add\n      mload\n        /* \"contracts/Hospital.sol\":7828:7876  uint256 stakeholderId = requestedstakeholders[i] */\n      swap1\n      pop\n        /* \"contracts/Hospital.sol\":7890:7911  Request[] memory reqs */\n      0x00\n        /* \"contracts/Hospital.sol\":7914:7932  registeredHospital */\n      0x03\n        /* \"contracts/Hospital.sol\":7914:7944  registeredHospital[hospitalId] */\n      0x00\n        /* \"contracts/Hospital.sol\":7933:7943  hospitalId */\n      dup16\n        /* \"contracts/Hospital.sol\":7914:7944  registeredHospital[hospitalId] */\n      dup2\n      mstore\n      0x20\n      add\n      swap1\n      dup2\n      mstore\n      0x20\n      add\n      0x00\n      keccak256\n        /* \"contracts/Hospital.sol\":7914:7953  registeredHospital[hospitalId].requests */\n      0x05\n      add\n        /* \"contracts/Hospital.sol\":7914:7968  registeredHospital[hospitalId].requests[stakeholderId] */\n      0x00\n        /* \"contracts/Hospital.sol\":7954:7967  stakeholderId */\n      dup4\n        /* \"contracts/Hospital.sol\":7914:7968  registeredHospital[hospitalId].requests[stakeholderId] */\n      dup2\n      mstore\n      0x20\n      add\n      swap1\n      dup2\n      mstore\n      0x20\n      add\n      0x00\n      keccak256\n        /* \"contracts/Hospital.sol\":7890:7968  Request[] memory reqs = registeredHospital[hospitalId].requests[stakeholderId] */\n      dup1\n      sload\n      dup1\n      0x20\n      mul\n      0x20\n      add\n      mload(0x40)\n      swap1\n      dup2\n      add\n      0x40\n      mstore\n      dup1\n      swap3\n      swap2\n      swap1\n      dup2\n      dup2\n      mstore\n      0x20\n      add\n      0x00\n      swap1\n    tag_217:\n      dup3\n      dup3\n      lt\n      iszero\n      tag_218\n      jumpi\n      dup4\n      dup3\n      swap1\n      0x00\n      mstore\n      keccak256(0x00, 0x20)\n      swap1\n      0x05\n      mul\n      add\n      mload(0x40)\n      dup1\n      0xa0\n      add\n      0x40\n      mstore\n      swap1\n      dup2\n      0x00\n      dup3\n      add\n      sload\n      dup2\n      mstore\n      0x20\n      add\n      0x01\n      dup3\n      add\n      sload\n      dup2\n      mstore\n      0x20\n      add\n      0x02\n      dup3\n      add\n      dup1\n      sload\n      tag_220\n      swap1\n      tag_126\n      jump\t// in\n    tag_220:\n      dup1\n      0x1f\n      add\n      0x20\n      dup1\n      swap2\n      div\n      mul\n      0x20\n      add\n      mload(0x40)\n      swap1\n      dup2\n      add\n      0x40\n      mstore\n      dup1\n      swap3\n      swap2\n      swap1\n      dup2\n      dup2\n      mstore\n      0x20\n      add\n      dup3\n      dup1\n      sload\n      tag_221\n      swap1\n      tag_126\n      jump\t// in\n    tag_221:\n      dup1\n      iszero\n      tag_222\n      jumpi\n      dup1\n      0x1f\n      lt\n      tag_223\n      jumpi\n      0x0100\n      dup1\n      dup4\n      sload\n      div\n      mul\n      dup4\n      mstore\n      swap2\n      0x20\n      add\n      swap2\n      jump(tag_222)\n    tag_223:\n      dup3\n      add\n      swap2\n      swap1\n      0x00\n      mstore\n      keccak256(0x00, 0x20)\n      swap1\n    tag_224:\n      dup2\n      sload\n      dup2\n      mstore\n      swap1\n      0x01\n      add\n      swap1\n      0x20\n      add\n      dup1\n      dup4\n      gt\n      tag_224\n      jumpi\n      dup3\n      swap1\n      sub\n      0x1f\n      and\n      dup3\n      add\n      swap2\n    tag_222:\n      pop\n      pop\n      pop\n      pop\n      pop\n      dup2\n      mstore\n      0x20\n      add\n      0x03\n      dup3\n      add\n      dup1\n      sload\n      tag_225\n      swap1\n      tag_126\n      jump\t// in\n    tag_225:\n      dup1\n      0x1f\n      add\n      0x20\n      dup1\n      swap2\n      div\n      mul\n      0x20\n      add\n      mload(0x40)\n      swap1\n      dup2\n      add\n      0x40\n      mstore\n      dup1\n      swap3\n      swap2\n      swap1\n      dup2\n      dup2\n      mstore\n      0x20\n      add\n      dup3\n      dup1\n      sload\n      tag_226\n      swap1\n      tag_126\n      jump\t// in\n    tag_226:\n      dup1\n      iszero\n      tag_227\n      jumpi\n      dup1\n      0x1f\n      lt\n      tag_228\n      jumpi\n      0x0100\n      dup1\n      dup4\n      sload\n      div\n      mul\n      dup4\n      mstore\n      swap2\n      0x20\n      add\n      swap2\n      jump(tag_227)\n    tag_228:\n      dup3\n      add\n      swap2\n      swap1\n      0x00\n      mstore\n      keccak256(0x00, 0x20)\n      swap1\n    tag_229:\n      dup2\n      sload\n      dup2\n      mstore\n      swap1\n      0x01\n      add\n      swap1\n      0x20\n      add\n      dup1\n      dup4\n      gt\n      tag_229\n      jumpi\n      dup3\n      swap1\n      sub\n      0x1f\n      and\n      dup3\n      add\n      swap2\n    tag_227:\n      pop\n      pop\n      pop\n      pop\n      pop\n      dup2\n      mstore\n      0x20\n      add\n      0x04\n      dup3\n      add\n      sload\n      dup2\n      mstore\n      pop\n      pop\n      dup2\n      mstore\n      0x20\n      add\n      swap1\n      0x01\n      add\n      swap1\n      jump(tag_217)\n    tag_218:\n      pop\n      pop\n      pop\n      pop\n      swap1\n      pop\n        /* \"contracts/Hospital.sol\":7986:7995  uint256 j */\n      0x00\n        /* \"contracts/Hospital.sol\":7982:8492  for(uint256 j = 0; j < reqs.length; j++) {... */\n    tag_230:\n        /* \"contracts/Hospital.sol\":8005:8009  reqs */\n      dup2\n        /* \"contracts/Hospital.sol\":8005:8016  reqs.length */\n      mload\n        /* \"contracts/Hospital.sol\":8001:8002  j */\n      dup2\n        /* \"contracts/Hospital.sol\":8001:8016  j < reqs.length */\n      lt\n        /* \"contracts/Hospital.sol\":7982:8492  for(uint256 j = 0; j < reqs.length; j++) {... */\n      iszero\n      tag_231\n      jumpi\n        /* \"contracts/Hospital.sol\":8041:8059  Request memory req */\n      0x00\n        /* \"contracts/Hospital.sol\":8062:8066  reqs */\n      dup3\n        /* \"contracts/Hospital.sol\":8067:8068  j */\n      dup3\n        /* \"contracts/Hospital.sol\":8062:8069  reqs[j] */\n      dup2\n      mload\n      dup2\n      lt\n      tag_233\n      jumpi\n      tag_234\n      tag_141\n      jump\t// in\n    tag_234:\n    tag_233:\n      0x20\n      mul\n      0x20\n      add\n      add\n      mload\n        /* \"contracts/Hospital.sol\":8041:8069  Request memory req = reqs[j] */\n      swap1\n      pop\n        /* \"contracts/Hospital.sol\":8176:8187  bytes(\"0x\") */\n      mload(0x40)\n      dup1\n      0x40\n      add\n      0x40\n      mstore\n      dup1\n      0x02\n      dup2\n      mstore\n      0x20\n      add\n      0x3078000000000000000000000000000000000000000000000000000000000000\n      dup2\n      mstore\n      pop\n        /* \"contracts/Hospital.sol\":8159:8188  abi.encodePacked(bytes(\"0x\")) */\n      add(0x20, mload(0x40))\n      tag_235\n      swap2\n      swap1\n      tag_236\n      jump\t// in\n    tag_235:\n      mload(0x40)\n      0x20\n      dup2\n      dup4\n      sub\n      sub\n      dup2\n      mstore\n      swap1\n      0x40\n      mstore\n        /* \"contracts/Hospital.sol\":8149:8189  keccak256(abi.encodePacked(bytes(\"0x\"))) */\n      dup1\n      mload\n      swap1\n      0x20\n      add\n      keccak256\n        /* \"contracts/Hospital.sol\":8135:8138  req */\n      dup2\n        /* \"contracts/Hospital.sol\":8135:8143  req.mcid */\n      0x80\n      add\n      mload\n        /* \"contracts/Hospital.sol\":8118:8144  abi.encodePacked(req.mcid) */\n      add(0x20, mload(0x40))\n      tag_237\n      swap2\n      swap1\n      tag_238\n      jump\t// in\n    tag_237:\n      mload(0x40)\n      0x20\n      dup2\n      dup4\n      sub\n      sub\n      dup2\n      mstore\n      swap1\n      0x40\n      mstore\n        /* \"contracts/Hospital.sol\":8108:8145  keccak256(abi.encodePacked(req.mcid)) */\n      dup1\n      mload\n      swap1\n      0x20\n      add\n      keccak256\n        /* \"contracts/Hospital.sol\":8108:8189  keccak256(abi.encodePacked(req.mcid)) != keccak256(abi.encodePacked(bytes(\"0x\"))) */\n      eq\n        /* \"contracts/Hospital.sol\":8104:8478  if (keccak256(abi.encodePacked(req.mcid)) != keccak256(abi.encodePacked(bytes(\"0x\")))) {... */\n      tag_239\n      jumpi\n        /* \"contracts/Hospital.sol\":8238:8241  req */\n      dup1\n        /* \"contracts/Hospital.sol\":8238:8247  req.reqId */\n      0x00\n      add\n      mload\n        /* \"contracts/Hospital.sol\":8213:8223  requestids */\n      dup12\n        /* \"contracts/Hospital.sol\":8224:8234  total_reqs */\n      dup8\n        /* \"contracts/Hospital.sol\":8213:8235  requestids[total_reqs] */\n      dup2\n      mload\n      dup2\n      lt\n      tag_240\n      jumpi\n      tag_241\n      tag_141\n      jump\t// in\n    tag_241:\n    tag_240:\n      0x20\n      mul\n      0x20\n      add\n      add\n        /* \"contracts/Hospital.sol\":8213:8247  requestids[total_reqs] = req.reqId */\n      dup2\n      dup2\n      mstore\n      pop\n      pop\n        /* \"contracts/Hospital.sol\":8298:8301  req */\n      dup1\n        /* \"contracts/Hospital.sol\":8298:8315  req.stakeholderId */\n      0x20\n      add\n      mload\n        /* \"contracts/Hospital.sol\":8269:8283  stakeholderids */\n      dup11\n        /* \"contracts/Hospital.sol\":8284:8294  total_reqs */\n      dup8\n        /* \"contracts/Hospital.sol\":8269:8295  stakeholderids[total_reqs] */\n      dup2\n      mload\n      dup2\n      lt\n      tag_242\n      jumpi\n      tag_243\n      tag_141\n      jump\t// in\n    tag_243:\n    tag_242:\n      0x20\n      mul\n      0x20\n      add\n      add\n        /* \"contracts/Hospital.sol\":8269:8315  stakeholderids[total_reqs] = req.stakeholderId */\n      dup2\n      dup2\n      mstore\n      pop\n      pop\n        /* \"contracts/Hospital.sol\":8357:8360  req */\n      dup1\n        /* \"contracts/Hospital.sol\":8357:8372  req.nameAssured */\n      0x40\n      add\n      mload\n        /* \"contracts/Hospital.sol\":8337:8342  names */\n      dup10\n        /* \"contracts/Hospital.sol\":8343:8353  total_reqs */\n      dup8\n        /* \"contracts/Hospital.sol\":8337:8354  names[total_reqs] */\n      dup2\n      mload\n      dup2\n      lt\n      tag_244\n      jumpi\n      tag_245\n      tag_141\n      jump\t// in\n    tag_245:\n    tag_244:\n      0x20\n      mul\n      0x20\n      add\n      add\n        /* \"contracts/Hospital.sol\":8337:8372  names[total_reqs] = req.nameAssured */\n      dup2\n      swap1\n      mstore\n      pop\n        /* \"contracts/Hospital.sol\":8412:8415  req */\n      dup1\n        /* \"contracts/Hospital.sol\":8412:8425  req.icAssured */\n      0x60\n      add\n      mload\n        /* \"contracts/Hospital.sol\":8394:8397  ics */\n      dup9\n        /* \"contracts/Hospital.sol\":8398:8408  total_reqs */\n      dup8\n        /* \"contracts/Hospital.sol\":8394:8409  ics[total_reqs] */\n      dup2\n      mload\n      dup2\n      lt\n      tag_246\n      jumpi\n      tag_247\n      tag_141\n      jump\t// in\n    tag_247:\n    tag_246:\n      0x20\n      mul\n      0x20\n      add\n      add\n        /* \"contracts/Hospital.sol\":8394:8425  ics[total_reqs] = req.icAssured */\n      dup2\n      swap1\n      mstore\n      pop\n        /* \"contracts/Hospital.sol\":8447:8459  total_reqs++ */\n      dup6\n      dup1\n      tag_248\n      swap1\n      tag_144\n      jump\t// in\n    tag_248:\n      swap7\n      pop\n      pop\n        /* \"contracts/Hospital.sol\":8104:8478  if (keccak256(abi.encodePacked(req.mcid)) != keccak256(abi.encodePacked(bytes(\"0x\")))) {... */\n    tag_239:\n        /* \"contracts/Hospital.sol\":8023:8492  {... */\n      pop\n        /* \"contracts/Hospital.sol\":8018:8021  j++ */\n      dup1\n      dup1\n      tag_249\n      swap1\n      tag_144\n      jump\t// in\n    tag_249:\n      swap2\n      pop\n      pop\n        /* \"contracts/Hospital.sol\":7982:8492  for(uint256 j = 0; j < reqs.length; j++) {... */\n      jump(tag_230)\n    tag_231:\n      pop\n        /* \"contracts/Hospital.sol\":7814:8514  {... */\n      pop\n      pop\n        /* \"contracts/Hospital.sol\":7809:7812  i++ */\n      dup1\n      dup1\n      tag_250\n      swap1\n      tag_144\n      jump\t// in\n    tag_250:\n      swap2\n      pop\n      pop\n        /* \"contracts/Hospital.sol\":7755:8514  for (uint256 i = 0; i < requestedstakeholders.length; i++) {... */\n      jump(tag_212)\n    tag_213:\n      pop\n        /* \"contracts/Hospital.sol\":8529:8578  liveRequest(requestids,stakeholderids, names,ics) */\n      0xf27964db71fbfa9cae0795251acb513d2227e5f9a4e8c35b6b5572a7267c243a\n        /* \"contracts/Hospital.sol\":8541:8551  requestids */\n      dup7\n        /* \"contracts/Hospital.sol\":8552:8566  stakeholderids */\n      dup7\n        /* \"contracts/Hospital.sol\":8568:8573  names */\n      dup7\n        /* \"contracts/Hospital.sol\":8574:8577  ics */\n      dup7\n        /* \"contracts/Hospital.sol\":8529:8578  liveRequest(requestids,stakeholderids, names,ics) */\n      mload(0x40)\n      tag_251\n      swap5\n      swap4\n      swap3\n      swap2\n      swap1\n      tag_252\n      jump\t// in\n    tag_251:\n      mload(0x40)\n      dup1\n      swap2\n      sub\n      swap1\n      log1\n        /* \"contracts/Hospital.sol\":7392:8585  {... */\n      pop\n      pop\n      pop\n      pop\n      pop\n      pop\n        /* \"contracts/Hospital.sol\":1474:1475  _ */\n      pop\n      pop\n        /* \"contracts/Hospital.sol\":7234:8585  function checkRequestFromHospital (uint256 hospitalId, string memory password) ... */\n      pop\n      pop\n      pop\n      jump\t// out\n        /* \"contracts/Hospital.sol\":4279:5030  function addMC(uint256 hospital, string memory password, uint256 personInfoId,... */\n    tag_64:\n        /* \"contracts/Hospital.sol\":4618:4625  uint256 */\n      0x00\n        /* \"contracts/Hospital.sol\":4513:4521  hospital */\n      dup7\n        /* \"contracts/Hospital.sol\":1438:1439  0 */\n      0x00\n        /* \"contracts/Hospital.sol\":1393:1411  registeredHospital */\n      0x03\n        /* \"contracts/Hospital.sol\":1393:1424  registeredHospital[_hospitalId] */\n      0x00\n        /* \"contracts/Hospital.sol\":1412:1423  _hospitalId */\n      dup4\n        /* \"contracts/Hospital.sol\":1393:1424  registeredHospital[_hospitalId] */\n      dup2\n      mstore\n      0x20\n      add\n      swap1\n      dup2\n      mstore\n      0x20\n      add\n      0x00\n      keccak256\n        /* \"contracts/Hospital.sol\":1393:1435  registeredHospital[_hospitalId].hospitalId */\n      0x03\n      add\n      sload\n        /* \"contracts/Hospital.sol\":1393:1439  registeredHospital[_hospitalId].hospitalId > 0 */\n      gt\n        /* \"contracts/Hospital.sol\":1385:1464  require(registeredHospital[_hospitalId].hospitalId > 0, \"Invalid hospital id!\") */\n      tag_254\n      jumpi\n      mload(0x40)\n      0x08c379a000000000000000000000000000000000000000000000000000000000\n      dup2\n      mstore\n      0x04\n      add\n      tag_255\n      swap1\n      tag_108\n      jump\t// in\n    tag_255:\n      mload(0x40)\n      dup1\n      swap2\n      sub\n      swap1\n      revert\n    tag_254:\n        /* \"contracts/Hospital.sol\":4538:4546  hospital */\n      dup8\n        /* \"contracts/Hospital.sol\":4547:4555  password */\n      dup8\n        /* \"contracts/Hospital.sol\":1914:1932  registeredHospital */\n      0x03\n        /* \"contracts/Hospital.sol\":1914:1946  registeredHospital[ _hospitalId] */\n      0x00\n        /* \"contracts/Hospital.sol\":1934:1945  _hospitalId */\n      dup4\n        /* \"contracts/Hospital.sol\":1914:1946  registeredHospital[ _hospitalId] */\n      dup2\n      mstore\n      0x20\n      add\n      swap1\n      dup2\n      mstore\n      0x20\n      add\n      0x00\n      keccak256\n        /* \"contracts/Hospital.sol\":1914:1955  registeredHospital[ _hospitalId].password */\n      0x02\n      add\n        /* \"contracts/Hospital.sol\":1904:1956  keccak256(registeredHospital[ _hospitalId].password) */\n      mload(0x40)\n      tag_257\n      swap2\n      swap1\n      tag_111\n      jump\t// in\n    tag_257:\n      mload(0x40)\n      dup1\n      swap2\n      sub\n      swap1\n      keccak256\n        /* \"contracts/Hospital.sol\":1878:1887  _password */\n      dup2\n        /* \"contracts/Hospital.sol\":1867:1899  abi.encode(_password,\"password\") */\n      add(0x20, mload(0x40))\n      tag_258\n      swap2\n      swap1\n      tag_113\n      jump\t// in\n    tag_258:\n      mload(0x40)\n      0x20\n      dup2\n      dup4\n      sub\n      sub\n      dup2\n      mstore\n      swap1\n      0x40\n      mstore\n        /* \"contracts/Hospital.sol\":1857:1900  keccak256(abi.encode(_password,\"password\")) */\n      dup1\n      mload\n      swap1\n      0x20\n      add\n      keccak256\n        /* \"contracts/Hospital.sol\":1857:1956  keccak256(abi.encode(_password,\"password\")) == keccak256(registeredHospital[ _hospitalId].password) */\n      eq\n        /* \"contracts/Hospital.sol\":1848:1976  require (keccak256(abi.encode(_password,\"password\")) == keccak256(registeredHospital[ _hospitalId].password), \"Wrong password!\") */\n      tag_259\n      jumpi\n      mload(0x40)\n      0x08c379a000000000000000000000000000000000000000000000000000000000\n      dup2\n      mstore\n      0x04\n      add\n      tag_260\n      swap1\n      tag_116\n      jump\t// in\n    tag_260:\n      mload(0x40)\n      dup1\n      swap2\n      sub\n      swap1\n      revert\n    tag_259:\n        /* \"contracts/Hospital.sol\":4575:4595  incidentYYYYMMDDHHMM */\n      dup6\n        /* \"contracts/Hospital.sol\":2385:2387  12 */\n      0x0c\n        /* \"contracts/Hospital.sol\":2372:2373  s */\n      dup2\n        /* \"contracts/Hospital.sol\":2366:2381  bytes(s).length */\n      mload\n        /* \"contracts/Hospital.sol\":2366:2387  bytes(s).length == 12 */\n      eq\n        /* \"contracts/Hospital.sol\":2358:2405  require(bytes(s).length == 12, \"Invalid date!\") */\n      tag_262\n      jumpi\n      mload(0x40)\n      0x08c379a000000000000000000000000000000000000000000000000000000000\n      dup2\n      mstore\n      0x04\n      add\n      tag_263\n      swap1\n      tag_264\n      jump\t// in\n    tag_263:\n      mload(0x40)\n      dup1\n      swap2\n      sub\n      swap1\n      revert\n    tag_262:\n        /* \"contracts/Hospital.sol\":4637:4644  numOfMC */\n      0x09\n      0x00\n        /* \"contracts/Hospital.sol\":4637:4646  numOfMC++ */\n      dup2\n      sload\n      dup1\n      swap3\n      swap2\n      swap1\n      tag_266\n      swap1\n      tag_144\n      jump\t// in\n    tag_266:\n      swap2\n      swap1\n      pop\n      sstore\n      pop\n        /* \"contracts/Hospital.sol\":4658:4680  medicalCert storage mc */\n      0x00\n        /* \"contracts/Hospital.sol\":4683:4685  MC */\n      0x01\n        /* \"contracts/Hospital.sol\":4683:4694  MC[numOfMC] */\n      0x00\n        /* \"contracts/Hospital.sol\":4686:4693  numOfMC */\n      sload(0x09)\n        /* \"contracts/Hospital.sol\":4683:4694  MC[numOfMC] */\n      dup2\n      mstore\n      0x20\n      add\n      swap1\n      dup2\n      mstore\n      0x20\n      add\n      0x00\n      keccak256\n        /* \"contracts/Hospital.sol\":4658:4694  medicalCert storage mc = MC[numOfMC] */\n      swap1\n      pop\n        /* \"contracts/Hospital.sol\":4721:4728  numOfMC */\n      sload(0x09)\n        /* \"contracts/Hospital.sol\":4713:4715  mc */\n      dup2\n        /* \"contracts/Hospital.sol\":4713:4718  mc.ID */\n      0x00\n      add\n        /* \"contracts/Hospital.sol\":4713:4728  mc.ID = numOfMC */\n      dup2\n      swap1\n      sstore\n      pop\n        /* \"contracts/Hospital.sol\":4755:4763  hospital */\n      dup12\n        /* \"contracts/Hospital.sol\":4739:4741  mc */\n      dup2\n        /* \"contracts/Hospital.sol\":4739:4752  mc.HospitalID */\n      0x01\n      add\n        /* \"contracts/Hospital.sol\":4739:4763  mc.HospitalID = hospital */\n      dup2\n      swap1\n      sstore\n      pop\n        /* \"contracts/Hospital.sol\":4792:4804  personInfoId */\n      dup10\n        /* \"contracts/Hospital.sol\":4773:4775  mc */\n      dup2\n        /* \"contracts/Hospital.sol\":4773:4789  mc.personal_info */\n      0x02\n      add\n        /* \"contracts/Hospital.sol\":4773:4804  mc.personal_info = personInfoId */\n      dup2\n      swap1\n      sstore\n      pop\n        /* \"contracts/Hospital.sol\":4828:4863  incidentType0incident1death2suicide */\n      dup9\n        /* \"contracts/Hospital.sol\":4814:4816  mc */\n      dup2\n        /* \"contracts/Hospital.sol\":4814:4825  mc.incident */\n      0x03\n      add\n      0x00\n        /* \"contracts/Hospital.sol\":4814:4863  mc.incident = incidentType0incident1death2suicide */\n      0x0100\n      exp\n      dup2\n      sload\n      dup2\n      0xff\n      mul\n      not\n      and\n      swap1\n      dup4\n      0x02\n      dup2\n      gt\n      iszero\n      tag_267\n      jumpi\n      tag_268\n      tag_269\n      jump\t// in\n    tag_268:\n    tag_267:\n      mul\n      or\n      swap1\n      sstore\n      pop\n        /* \"contracts/Hospital.sol\":4895:4915  incidentYYYYMMDDHHMM */\n      dup8\n        /* \"contracts/Hospital.sol\":4873:4875  mc */\n      dup2\n        /* \"contracts/Hospital.sol\":4873:4892  mc.dateTimeIncident */\n      0x04\n      add\n        /* \"contracts/Hospital.sol\":4873:4915  mc.dateTimeIncident = incidentYYYYMMDDHHMM */\n      swap1\n      dup2\n      tag_270\n      swap2\n      swap1\n      tag_271\n      jump\t// in\n    tag_270:\n      pop\n        /* \"contracts/Hospital.sol\":4947:4960  certifierName */\n      dup7\n        /* \"contracts/Hospital.sol\":4925:4927  mc */\n      dup2\n        /* \"contracts/Hospital.sol\":4925:4944  mc.titleOfCertifier */\n      0x05\n      add\n        /* \"contracts/Hospital.sol\":4925:4960  mc.titleOfCertifier = certifierName */\n      swap1\n      dup2\n      tag_272\n      swap2\n      swap1\n      tag_271\n      jump\t// in\n    tag_272:\n      pop\n        /* \"contracts/Hospital.sol\":4976:4994  mcCreated(numOfMC) */\n      0x08b2c200b5f16565b86d1596988527109771ff8ed118f330cca9ee70d6ba9a16\n        /* \"contracts/Hospital.sol\":4986:4993  numOfMC */\n      sload(0x09)\n        /* \"contracts/Hospital.sol\":4976:4994  mcCreated(numOfMC) */\n      mload(0x40)\n      tag_273\n      swap2\n      swap1\n      tag_43\n      jump\t// in\n    tag_273:\n      mload(0x40)\n      dup1\n      swap2\n      sub\n      swap1\n      log1\n        /* \"contracts/Hospital.sol\":5012:5019  numOfMC */\n      sload(0x09)\n        /* \"contracts/Hospital.sol\":5005:5019  return numOfMC */\n      swap6\n      pop\n      pop\n        /* \"contracts/Hospital.sol\":1986:1987  _ */\n      pop\n        /* \"contracts/Hospital.sol\":1474:1475  _ */\n      pop\n      pop\n        /* \"contracts/Hospital.sol\":4279:5030  function addMC(uint256 hospital, string memory password, uint256 personInfoId,... */\n      pop\n      swap7\n      swap6\n      pop\n      pop\n      pop\n      pop\n      pop\n      pop\n      jump\t// out\n        /* \"contracts/Hospital.sol\":3583:4273  function createPersonalInfo (uint256 hospitalId, string memory password, ... */\n    tag_70:\n        /* \"contracts/Hospital.sol\":3928:3935  uint256 */\n      0x00\n        /* \"contracts/Hospital.sol\":3828:3838  hospitalId */\n      dup8\n        /* \"contracts/Hospital.sol\":1438:1439  0 */\n      0x00\n        /* \"contracts/Hospital.sol\":1393:1411  registeredHospital */\n      0x03\n        /* \"contracts/Hospital.sol\":1393:1424  registeredHospital[_hospitalId] */\n      0x00\n        /* \"contracts/Hospital.sol\":1412:1423  _hospitalId */\n      dup4\n        /* \"contracts/Hospital.sol\":1393:1424  registeredHospital[_hospitalId] */\n      dup2\n      mstore\n      0x20\n      add\n      swap1\n      dup2\n      mstore\n      0x20\n      add\n      0x00\n      keccak256\n        /* \"contracts/Hospital.sol\":1393:1435  registeredHospital[_hospitalId].hospitalId */\n      0x03\n      add\n      sload\n        /* \"contracts/Hospital.sol\":1393:1439  registeredHospital[_hospitalId].hospitalId > 0 */\n      gt\n        /* \"contracts/Hospital.sol\":1385:1464  require(registeredHospital[_hospitalId].hospitalId > 0, \"Invalid hospital id!\") */\n      tag_275\n      jumpi\n      mload(0x40)\n      0x08c379a000000000000000000000000000000000000000000000000000000000\n      dup2\n      mstore\n      0x04\n      add\n      tag_276\n      swap1\n      tag_108\n      jump\t// in\n    tag_276:\n      mload(0x40)\n      dup1\n      swap2\n      sub\n      swap1\n      revert\n    tag_275:\n        /* \"contracts/Hospital.sol\":3855:3865  hospitalId */\n      dup9\n        /* \"contracts/Hospital.sol\":3866:3874  password */\n      dup9\n        /* \"contracts/Hospital.sol\":1914:1932  registeredHospital */\n      0x03\n        /* \"contracts/Hospital.sol\":1914:1946  registeredHospital[ _hospitalId] */\n      0x00\n        /* \"contracts/Hospital.sol\":1934:1945  _hospitalId */\n      dup4\n        /* \"contracts/Hospital.sol\":1914:1946  registeredHospital[ _hospitalId] */\n      dup2\n      mstore\n      0x20\n      add\n      swap1\n      dup2\n      mstore\n      0x20\n      add\n      0x00\n      keccak256\n        /* \"contracts/Hospital.sol\":1914:1955  registeredHospital[ _hospitalId].password */\n      0x02\n      add\n        /* \"contracts/Hospital.sol\":1904:1956  keccak256(registeredHospital[ _hospitalId].password) */\n      mload(0x40)\n      tag_278\n      swap2\n      swap1\n      tag_111\n      jump\t// in\n    tag_278:\n      mload(0x40)\n      dup1\n      swap2\n      sub\n      swap1\n      keccak256\n        /* \"contracts/Hospital.sol\":1878:1887  _password */\n      dup2\n        /* \"contracts/Hospital.sol\":1867:1899  abi.encode(_password,\"password\") */\n      add(0x20, mload(0x40))\n      tag_279\n      swap2\n      swap1\n      tag_113\n      jump\t// in\n    tag_279:\n      mload(0x40)\n      0x20\n      dup2\n      dup4\n      sub\n      sub\n      dup2\n      mstore\n      swap1\n      0x40\n      mstore\n        /* \"contracts/Hospital.sol\":1857:1900  keccak256(abi.encode(_password,\"password\")) */\n      dup1\n      mload\n      swap1\n      0x20\n      add\n      keccak256\n        /* \"contracts/Hospital.sol\":1857:1956  keccak256(abi.encode(_password,\"password\")) == keccak256(registeredHospital[ _hospitalId].password) */\n      eq\n        /* \"contracts/Hospital.sol\":1848:1976  require (keccak256(abi.encode(_password,\"password\")) == keccak256(registeredHospital[ _hospitalId].password), \"Wrong password!\") */\n      tag_280\n      jumpi\n      mload(0x40)\n      0x08c379a000000000000000000000000000000000000000000000000000000000\n      dup2\n      mstore\n      0x04\n      add\n      tag_281\n      swap1\n      tag_116\n      jump\t// in\n    tag_281:\n      mload(0x40)\n      dup1\n      swap2\n      sub\n      swap1\n      revert\n    tag_280:\n        /* \"contracts/Hospital.sol\":3887:3904  birthdateYYYYMMDD */\n      dup6\n        /* \"contracts/Hospital.sol\":2262:2263  8 */\n      0x08\n        /* \"contracts/Hospital.sol\":2249:2250  s */\n      dup2\n        /* \"contracts/Hospital.sol\":2243:2258  bytes(s).length */\n      mload\n        /* \"contracts/Hospital.sol\":2243:2263  bytes(s).length == 8 */\n      eq\n        /* \"contracts/Hospital.sol\":2235:2281  require(bytes(s).length == 8, \"Invalid date!\") */\n      tag_283\n      jumpi\n      mload(0x40)\n      0x08c379a000000000000000000000000000000000000000000000000000000000\n      dup2\n      mstore\n      0x04\n      add\n      tag_284\n      swap1\n      tag_264\n      jump\t// in\n    tag_284:\n      mload(0x40)\n      dup1\n      swap2\n      sub\n      swap1\n      revert\n    tag_283:\n        /* \"contracts/Hospital.sol\":3947:3958  numOfPeople */\n      0x08\n      0x00\n        /* \"contracts/Hospital.sol\":3947:3960  numOfPeople++ */\n      dup2\n      sload\n      dup1\n      swap3\n      swap2\n      swap1\n      tag_286\n      swap1\n      tag_144\n      jump\t// in\n    tag_286:\n      swap2\n      swap1\n      pop\n      sstore\n      pop\n        /* \"contracts/Hospital.sol\":3970:3997  personalInfo storage person */\n      0x00\n        /* \"contracts/Hospital.sol\":4000:4005  infos */\n      0x02\n        /* \"contracts/Hospital.sol\":4000:4018  infos[numOfPeople] */\n      0x00\n        /* \"contracts/Hospital.sol\":4006:4017  numOfPeople */\n      sload(0x08)\n        /* \"contracts/Hospital.sol\":4000:4018  infos[numOfPeople] */\n      dup2\n      mstore\n      0x20\n      add\n      swap1\n      dup2\n      mstore\n      0x20\n      add\n      0x00\n      keccak256\n        /* \"contracts/Hospital.sol\":3970:4018  personalInfo storage person = infos[numOfPeople] */\n      swap1\n      pop\n        /* \"contracts/Hospital.sol\":4046:4057  numOfPeople */\n      sload(0x08)\n        /* \"contracts/Hospital.sol\":4028:4034  person */\n      dup2\n        /* \"contracts/Hospital.sol\":4028:4043  person.personId */\n      0x00\n      add\n        /* \"contracts/Hospital.sol\":4028:4057  person.personId = numOfPeople */\n      dup2\n      swap1\n      sstore\n      pop\n        /* \"contracts/Hospital.sol\":4081:4085  name */\n      dup11\n        /* \"contracts/Hospital.sol\":4067:4073  person */\n      dup2\n        /* \"contracts/Hospital.sol\":4067:4078  person.name */\n      0x01\n      add\n        /* \"contracts/Hospital.sol\":4067:4085  person.name = name */\n      swap1\n      dup2\n      tag_287\n      swap2\n      swap1\n      tag_271\n      jump\t// in\n    tag_287:\n      pop\n        /* \"contracts/Hospital.sol\":4109:4113  NRIC */\n      dup10\n        /* \"contracts/Hospital.sol\":4095:4101  person */\n      dup2\n        /* \"contracts/Hospital.sol\":4095:4106  person.NRIC */\n      0x02\n      add\n        /* \"contracts/Hospital.sol\":4095:4113  person.NRIC = NRIC */\n      swap1\n      dup2\n      tag_288\n      swap2\n      swap1\n      tag_271\n      jump\t// in\n    tag_288:\n      pop\n        /* \"contracts/Hospital.sol\":4136:4139  sex */\n      dup9\n        /* \"contracts/Hospital.sol\":4123:4129  person */\n      dup2\n        /* \"contracts/Hospital.sol\":4123:4133  person.sex */\n      0x03\n      add\n        /* \"contracts/Hospital.sol\":4123:4139  person.sex = sex */\n      swap1\n      dup2\n      tag_289\n      swap2\n      swap1\n      tag_271\n      jump\t// in\n    tag_289:\n      pop\n        /* \"contracts/Hospital.sol\":4168:4185  birthdateYYYYMMDD */\n      dup8\n        /* \"contracts/Hospital.sol\":4149:4155  person */\n      dup2\n        /* \"contracts/Hospital.sol\":4149:4165  person.birthdate */\n      0x04\n      add\n        /* \"contracts/Hospital.sol\":4149:4185  person.birthdate = birthdateYYYYMMDD */\n      swap1\n      dup2\n      tag_290\n      swap2\n      swap1\n      tag_271\n      jump\t// in\n    tag_290:\n      pop\n        /* \"contracts/Hospital.sol\":4221:4237  race_nationality */\n      dup7\n        /* \"contracts/Hospital.sol\":4195:4201  person */\n      dup2\n        /* \"contracts/Hospital.sol\":4195:4218  person.race_nationality */\n      0x05\n      add\n        /* \"contracts/Hospital.sol\":4195:4237  person.race_nationality = race_nationality */\n      swap1\n      dup2\n      tag_291\n      swap2\n      swap1\n      tag_271\n      jump\t// in\n    tag_291:\n      pop\n        /* \"contracts/Hospital.sol\":4255:4266  numOfPeople */\n      sload(0x08)\n        /* \"contracts/Hospital.sol\":4248:4266  return numOfPeople */\n      swap6\n      pop\n      pop\n        /* \"contracts/Hospital.sol\":1986:1987  _ */\n      pop\n        /* \"contracts/Hospital.sol\":1474:1475  _ */\n      pop\n      pop\n        /* \"contracts/Hospital.sol\":3583:4273  function createPersonalInfo (uint256 hospitalId, string memory password, ... */\n      pop\n      swap8\n      swap7\n      pop\n      pop\n      pop\n      pop\n      pop\n      pop\n      pop\n      jump\t// out\n        /* \"contracts/Hospital.sol\":8865:9592  function checkMCIdFromStakeholder(uint256 _hospitalId, uint256 _requestId, uint256 _stakeholderId)... */\n    tag_76:\n        /* \"contracts/Hospital.sol\":9081:9088  uint256 */\n      0x00\n        /* \"contracts/Hospital.sol\":8998:9009  _hospitalId */\n      dup4\n        /* \"contracts/Hospital.sol\":1438:1439  0 */\n      0x00\n        /* \"contracts/Hospital.sol\":1393:1411  registeredHospital */\n      0x03\n        /* \"contracts/Hospital.sol\":1393:1424  registeredHospital[_hospitalId] */\n      0x00\n        /* \"contracts/Hospital.sol\":1412:1423  _hospitalId */\n      dup4\n        /* \"contracts/Hospital.sol\":1393:1424  registeredHospital[_hospitalId] */\n      dup2\n      mstore\n      0x20\n      add\n      swap1\n      dup2\n      mstore\n      0x20\n      add\n      0x00\n      keccak256\n        /* \"contracts/Hospital.sol\":1393:1435  registeredHospital[_hospitalId].hospitalId */\n      0x03\n      add\n      sload\n        /* \"contracts/Hospital.sol\":1393:1439  registeredHospital[_hospitalId].hospitalId > 0 */\n      gt\n        /* \"contracts/Hospital.sol\":1385:1464  require(registeredHospital[_hospitalId].hospitalId > 0, \"Invalid hospital id!\") */\n      tag_293\n      jumpi\n      mload(0x40)\n      0x08c379a000000000000000000000000000000000000000000000000000000000\n      dup2\n      mstore\n      0x04\n      add\n      tag_294\n      swap1\n      tag_108\n      jump\t// in\n    tag_294:\n      mload(0x40)\n      dup1\n      swap2\n      sub\n      swap1\n      revert\n    tag_293:\n        /* \"contracts/Hospital.sol\":9104:9125  Request[] memory reqs */\n      0x00\n        /* \"contracts/Hospital.sol\":9128:9146  registeredHospital */\n      0x03\n        /* \"contracts/Hospital.sol\":9128:9159  registeredHospital[_hospitalId] */\n      0x00\n        /* \"contracts/Hospital.sol\":9147:9158  _hospitalId */\n      dup8\n        /* \"contracts/Hospital.sol\":9128:9159  registeredHospital[_hospitalId] */\n      dup2\n      mstore\n      0x20\n      add\n      swap1\n      dup2\n      mstore\n      0x20\n      add\n      0x00\n      keccak256\n        /* \"contracts/Hospital.sol\":9128:9168  registeredHospital[_hospitalId].requests */\n      0x05\n      add\n        /* \"contracts/Hospital.sol\":9128:9184  registeredHospital[_hospitalId].requests[_stakeholderId] */\n      0x00\n        /* \"contracts/Hospital.sol\":9169:9183  _stakeholderId */\n      dup6\n        /* \"contracts/Hospital.sol\":9128:9184  registeredHospital[_hospitalId].requests[_stakeholderId] */\n      dup2\n      mstore\n      0x20\n      add\n      swap1\n      dup2\n      mstore\n      0x20\n      add\n      0x00\n      keccak256\n        /* \"contracts/Hospital.sol\":9104:9184  Request[] memory reqs = registeredHospital[_hospitalId].requests[_stakeholderId] */\n      dup1\n      sload\n      dup1\n      0x20\n      mul\n      0x20\n      add\n      mload(0x40)\n      swap1\n      dup2\n      add\n      0x40\n      mstore\n      dup1\n      swap3\n      swap2\n      swap1\n      dup2\n      dup2\n      mstore\n      0x20\n      add\n      0x00\n      swap1\n    tag_296:\n      dup3\n      dup3\n      lt\n      iszero\n      tag_297\n      jumpi\n      dup4\n      dup3\n      swap1\n      0x00\n      mstore\n      keccak256(0x00, 0x20)\n      swap1\n      0x05\n      mul\n      add\n      mload(0x40)\n      dup1\n      0xa0\n      add\n      0x40\n      mstore\n      swap1\n      dup2\n      0x00\n      dup3\n      add\n      sload\n      dup2\n      mstore\n      0x20\n      add\n      0x01\n      dup3\n      add\n      sload\n      dup2\n      mstore\n      0x20\n      add\n      0x02\n      dup3\n      add\n      dup1\n      sload\n      tag_299\n      swap1\n      tag_126\n      jump\t// in\n    tag_299:\n      dup1\n      0x1f\n      add\n      0x20\n      dup1\n      swap2\n      div\n      mul\n      0x20\n      add\n      mload(0x40)\n      swap1\n      dup2\n      add\n      0x40\n      mstore\n      dup1\n      swap3\n      swap2\n      swap1\n      dup2\n      dup2\n      mstore\n      0x20\n      add\n      dup3\n      dup1\n      sload\n      tag_300\n      swap1\n      tag_126\n      jump\t// in\n    tag_300:\n      dup1\n      iszero\n      tag_301\n      jumpi\n      dup1\n      0x1f\n      lt\n      tag_302\n      jumpi\n      0x0100\n      dup1\n      dup4\n      sload\n      div\n      mul\n      dup4\n      mstore\n      swap2\n      0x20\n      add\n      swap2\n      jump(tag_301)\n    tag_302:\n      dup3\n      add\n      swap2\n      swap1\n      0x00\n      mstore\n      keccak256(0x00, 0x20)\n      swap1\n    tag_303:\n      dup2\n      sload\n      dup2\n      mstore\n      swap1\n      0x01\n      add\n      swap1\n      0x20\n      add\n      dup1\n      dup4\n      gt\n      tag_303\n      jumpi\n      dup3\n      swap1\n      sub\n      0x1f\n      and\n      dup3\n      add\n      swap2\n    tag_301:\n      pop\n      pop\n      pop\n      pop\n      pop\n      dup2\n      mstore\n      0x20\n      add\n      0x03\n      dup3\n      add\n      dup1\n      sload\n      tag_304\n      swap1\n      tag_126\n      jump\t// in\n    tag_304:\n      dup1\n      0x1f\n      add\n      0x20\n      dup1\n      swap2\n      div\n      mul\n      0x20\n      add\n      mload(0x40)\n      swap1\n      dup2\n      add\n      0x40\n      mstore\n      dup1\n      swap3\n      swap2\n      swap1\n      dup2\n      dup2\n      mstore\n      0x20\n      add\n      dup3\n      dup1\n      sload\n      tag_305\n      swap1\n      tag_126\n      jump\t// in\n    tag_305:\n      dup1\n      iszero\n      tag_306\n      jumpi\n      dup1\n      0x1f\n      lt\n      tag_307\n      jumpi\n      0x0100\n      dup1\n      dup4\n      sload\n      div\n      mul\n      dup4\n      mstore\n      swap2\n      0x20\n      add\n      swap2\n      jump(tag_306)\n    tag_307:\n      dup3\n      add\n      swap2\n      swap1\n      0x00\n      mstore\n      keccak256(0x00, 0x20)\n      swap1\n    tag_308:\n      dup2\n      sload\n      dup2\n      mstore\n      swap1\n      0x01\n      add\n      swap1\n      0x20\n      add\n      dup1\n      dup4\n      gt\n      tag_308\n      jumpi\n      dup3\n      swap1\n      sub\n      0x1f\n      and\n      dup3\n      add\n      swap2\n    tag_306:\n      pop\n      pop\n      pop\n      pop\n      pop\n      dup2\n      mstore\n      0x20\n      add\n      0x04\n      dup3\n      add\n      sload\n      dup2\n      mstore\n      pop\n      pop\n      dup2\n      mstore\n      0x20\n      add\n      swap1\n      0x01\n      add\n      swap1\n      jump(tag_296)\n    tag_297:\n      pop\n      pop\n      pop\n      pop\n      swap1\n      pop\n        /* \"contracts/Hospital.sol\":9194:9208  uint256 length */\n      0x00\n        /* \"contracts/Hospital.sol\":9211:9215  reqs */\n      dup2\n        /* \"contracts/Hospital.sol\":9211:9222  reqs.length */\n      mload\n        /* \"contracts/Hospital.sol\":9194:9222  uint256 length = reqs.length */\n      swap1\n      pop\n        /* \"contracts/Hospital.sol\":9232:9241  bool find */\n      0x00\n        /* \"contracts/Hospital.sol\":9259:9272  uint256 index */\n      dup1\n        /* \"contracts/Hospital.sol\":9287:9296  uint256 i */\n      dup1\n        /* \"contracts/Hospital.sol\":9299:9300  0 */\n      0x00\n        /* \"contracts/Hospital.sol\":9287:9300  uint256 i = 0 */\n      swap1\n      pop\n        /* \"contracts/Hospital.sol\":9282:9447  for (uint256 i = 0; i < length; i++) {... */\n    tag_309:\n        /* \"contracts/Hospital.sol\":9306:9312  length */\n      dup4\n        /* \"contracts/Hospital.sol\":9302:9303  i */\n      dup2\n        /* \"contracts/Hospital.sol\":9302:9312  i < length */\n      lt\n        /* \"contracts/Hospital.sol\":9282:9447  for (uint256 i = 0; i < length; i++) {... */\n      iszero\n      tag_310\n      jumpi\n        /* \"contracts/Hospital.sol\":9354:9364  _requestId */\n      dup9\n        /* \"contracts/Hospital.sol\":9337:9341  reqs */\n      dup6\n        /* \"contracts/Hospital.sol\":9342:9343  i */\n      dup3\n        /* \"contracts/Hospital.sol\":9337:9344  reqs[i] */\n      dup2\n      mload\n      dup2\n      lt\n      tag_312\n      jumpi\n      tag_313\n      tag_141\n      jump\t// in\n    tag_313:\n    tag_312:\n      0x20\n      mul\n      0x20\n      add\n      add\n      mload\n        /* \"contracts/Hospital.sol\":9337:9350  reqs[i].reqId */\n      0x00\n      add\n      mload\n        /* \"contracts/Hospital.sol\":9337:9364  reqs[i].reqId == _requestId */\n      sub\n        /* \"contracts/Hospital.sol\":9333:9437  if (reqs[i].reqId == _requestId) {... */\n      tag_314\n      jumpi\n        /* \"contracts/Hospital.sol\":9392:9393  i */\n      dup1\n        /* \"contracts/Hospital.sol\":9384:9393  index = i */\n      swap2\n      pop\n        /* \"contracts/Hospital.sol\":9418:9422  true */\n      0x01\n        /* \"contracts/Hospital.sol\":9411:9422  find = true */\n      swap3\n      pop\n        /* \"contracts/Hospital.sol\":9333:9437  if (reqs[i].reqId == _requestId) {... */\n    tag_314:\n        /* \"contracts/Hospital.sol\":9314:9317  i++ */\n      dup1\n      dup1\n      tag_315\n      swap1\n      tag_144\n      jump\t// in\n    tag_315:\n      swap2\n      pop\n      pop\n        /* \"contracts/Hospital.sol\":9282:9447  for (uint256 i = 0; i < length; i++) {... */\n      jump(tag_309)\n    tag_310:\n      pop\n        /* \"contracts/Hospital.sol\":9481:9485  true */\n      0x01\n        /* \"contracts/Hospital.sol\":9473:9485  find == true */\n      iszero\n      iszero\n        /* \"contracts/Hospital.sol\":9473:9477  find */\n      dup3\n        /* \"contracts/Hospital.sol\":9473:9485  find == true */\n      iszero\n      iszero\n      eq\n        /* \"contracts/Hospital.sol\":9465:9509  require(find == true, \"Invalid request id!\") */\n      tag_316\n      jumpi\n      mload(0x40)\n      0x08c379a000000000000000000000000000000000000000000000000000000000\n      dup2\n      mstore\n      0x04\n      add\n      tag_317\n      swap1\n      tag_147\n      jump\t// in\n    tag_317:\n      mload(0x40)\n      dup1\n      swap2\n      sub\n      swap1\n      revert\n    tag_316:\n        /* \"contracts/Hospital.sol\":9523:9527  find */\n      dup2\n        /* \"contracts/Hospital.sol\":9519:9577  if (find) {... */\n      iszero\n      tag_318\n      jumpi\n        /* \"contracts/Hospital.sol\":9550:9554  reqs */\n      dup4\n        /* \"contracts/Hospital.sol\":9555:9560  index */\n      dup2\n        /* \"contracts/Hospital.sol\":9550:9561  reqs[index] */\n      dup2\n      mload\n      dup2\n      lt\n      tag_319\n      jumpi\n      tag_320\n      tag_141\n      jump\t// in\n    tag_320:\n    tag_319:\n      0x20\n      mul\n      0x20\n      add\n      add\n      mload\n        /* \"contracts/Hospital.sol\":9550:9566  reqs[index].mcid */\n      0x80\n      add\n      mload\n        /* \"contracts/Hospital.sol\":9543:9566  return reqs[index].mcid */\n      swap6\n      pop\n      pop\n      pop\n      pop\n      pop\n      jump(tag_295)\n        /* \"contracts/Hospital.sol\":9519:9577  if (find) {... */\n    tag_318:\n        /* \"contracts/Hospital.sol\":9094:9592  {... */\n      pop\n      pop\n      pop\n      pop\n        /* \"contracts/Hospital.sol\":1474:1475  _ */\n    tag_295:\n        /* \"contracts/Hospital.sol\":8865:9592  function checkMCIdFromStakeholder(uint256 _hospitalId, uint256 _requestId, uint256 _stakeholderId)... */\n      pop\n      swap4\n      swap3\n      pop\n      pop\n      pop\n      jump\t// out\n        /* \"contracts/MedicalCert.sol\":1527:1635  function getMCCategory(uint256 id) public view returns(certCategory) {... */\n    tag_81:\n        /* \"contracts/MedicalCert.sol\":1582:1594  certCategory */\n      0x00\n        /* \"contracts/MedicalCert.sol\":1613:1615  MC */\n      0x01\n        /* \"contracts/MedicalCert.sol\":1613:1619  MC[id] */\n      0x00\n        /* \"contracts/MedicalCert.sol\":1616:1618  id */\n      dup4\n        /* \"contracts/MedicalCert.sol\":1613:1619  MC[id] */\n      dup2\n      mstore\n      0x20\n      add\n      swap1\n      dup2\n      mstore\n      0x20\n      add\n      0x00\n      keccak256\n        /* \"contracts/MedicalCert.sol\":1613:1628  MC[id].incident */\n      0x03\n      add\n      0x00\n      swap1\n      sload\n      swap1\n      0x0100\n      exp\n      swap1\n      div\n      0xff\n      and\n        /* \"contracts/MedicalCert.sol\":1606:1628  return MC[id].incident */\n      swap1\n      pop\n        /* \"contracts/MedicalCert.sol\":1527:1635  function getMCCategory(uint256 id) public view returns(certCategory) {... */\n      swap2\n      swap1\n      pop\n      jump\t// out\n        /* \"contracts/Hospital.sol\":10259:10527  function changePassword(uint256 hospitalId, string memory oldpassword, string memory newpassword)... */\n    tag_87:\n        /* \"contracts/Hospital.sol\":10378:10388  hospitalId */\n      dup3\n        /* \"contracts/Hospital.sol\":1684:1702  registeredHospital */\n      0x03\n        /* \"contracts/Hospital.sol\":1684:1716  registeredHospital[ _hospitalId] */\n      0x00\n        /* \"contracts/Hospital.sol\":1704:1715  _hospitalId */\n      dup3\n        /* \"contracts/Hospital.sol\":1684:1716  registeredHospital[ _hospitalId] */\n      dup2\n      mstore\n      0x20\n      add\n      swap1\n      dup2\n      mstore\n      0x20\n      add\n      0x00\n      keccak256\n        /* \"contracts/Hospital.sol\":1684:1726  registeredHospital[ _hospitalId].president */\n      0x00\n      add\n      0x00\n      swap1\n      sload\n      swap1\n      0x0100\n      exp\n      swap1\n      div\n      0xffffffffffffffffffffffffffffffffffffffff\n      and\n        /* \"contracts/Hospital.sol\":1670:1726  msg.sender == registeredHospital[ _hospitalId].president */\n      0xffffffffffffffffffffffffffffffffffffffff\n      and\n        /* \"contracts/Hospital.sol\":1670:1680  msg.sender */\n      caller\n        /* \"contracts/Hospital.sol\":1670:1726  msg.sender == registeredHospital[ _hospitalId].president */\n      0xffffffffffffffffffffffffffffffffffffffff\n      and\n      eq\n        /* \"contracts/Hospital.sol\":1661:1744  require (msg.sender == registeredHospital[ _hospitalId].president, \"Unauthorized!\") */\n      tag_323\n      jumpi\n      mload(0x40)\n      0x08c379a000000000000000000000000000000000000000000000000000000000\n      dup2\n      mstore\n      0x04\n      add\n      tag_324\n      swap1\n      tag_325\n      jump\t// in\n    tag_324:\n      mload(0x40)\n      dup1\n      swap2\n      sub\n      swap1\n      revert\n    tag_323:\n        /* \"contracts/Hospital.sol\":10405:10415  hospitalId */\n      dup4\n        /* \"contracts/Hospital.sol\":10416:10427  oldpassword */\n      dup4\n        /* \"contracts/Hospital.sol\":1914:1932  registeredHospital */\n      0x03\n        /* \"contracts/Hospital.sol\":1914:1946  registeredHospital[ _hospitalId] */\n      0x00\n        /* \"contracts/Hospital.sol\":1934:1945  _hospitalId */\n      dup4\n        /* \"contracts/Hospital.sol\":1914:1946  registeredHospital[ _hospitalId] */\n      dup2\n      mstore\n      0x20\n      add\n      swap1\n      dup2\n      mstore\n      0x20\n      add\n      0x00\n      keccak256\n        /* \"contracts/Hospital.sol\":1914:1955  registeredHospital[ _hospitalId].password */\n      0x02\n      add\n        /* \"contracts/Hospital.sol\":1904:1956  keccak256(registeredHospital[ _hospitalId].password) */\n      mload(0x40)\n      tag_327\n      swap2\n      swap1\n      tag_111\n      jump\t// in\n    tag_327:\n      mload(0x40)\n      dup1\n      swap2\n      sub\n      swap1\n      keccak256\n        /* \"contracts/Hospital.sol\":1878:1887  _password */\n      dup2\n        /* \"contracts/Hospital.sol\":1867:1899  abi.encode(_password,\"password\") */\n      add(0x20, mload(0x40))\n      tag_328\n      swap2\n      swap1\n      tag_113\n      jump\t// in\n    tag_328:\n      mload(0x40)\n      0x20\n      dup2\n      dup4\n      sub\n      sub\n      dup2\n      mstore\n      swap1\n      0x40\n      mstore\n        /* \"contracts/Hospital.sol\":1857:1900  keccak256(abi.encode(_password,\"password\")) */\n      dup1\n      mload\n      swap1\n      0x20\n      add\n      keccak256\n        /* \"contracts/Hospital.sol\":1857:1956  keccak256(abi.encode(_password,\"password\")) == keccak256(registeredHospital[ _hospitalId].password) */\n      eq\n        /* \"contracts/Hospital.sol\":1848:1976  require (keccak256(abi.encode(_password,\"password\")) == keccak256(registeredHospital[ _hospitalId].password), \"Wrong password!\") */\n      tag_329\n      jumpi\n      mload(0x40)\n      0x08c379a000000000000000000000000000000000000000000000000000000000\n      dup2\n      mstore\n      0x04\n      add\n      tag_330\n      swap1\n      tag_116\n      jump\t// in\n    tag_330:\n      mload(0x40)\n      dup1\n      swap2\n      sub\n      swap1\n      revert\n    tag_329:\n        /* \"contracts/Hospital.sol\":10497:10508  newpassword */\n      dup4\n        /* \"contracts/Hospital.sol\":10486:10520  abi.encode(newpassword,\"password\") */\n      add(0x20, mload(0x40))\n      tag_332\n      swap2\n      swap1\n      tag_113\n      jump\t// in\n    tag_332:\n      mload(0x40)\n      0x20\n      dup2\n      dup4\n      sub\n      sub\n      dup2\n      mstore\n      swap1\n      0x40\n      mstore\n        /* \"contracts/Hospital.sol\":10443:10461  registeredHospital */\n      0x03\n        /* \"contracts/Hospital.sol\":10443:10474  registeredHospital[ hospitalId] */\n      0x00\n        /* \"contracts/Hospital.sol\":10463:10473  hospitalId */\n      dup9\n        /* \"contracts/Hospital.sol\":10443:10474  registeredHospital[ hospitalId] */\n      dup2\n      mstore\n      0x20\n      add\n      swap1\n      dup2\n      mstore\n      0x20\n      add\n      0x00\n      keccak256\n        /* \"contracts/Hospital.sol\":10443:10483  registeredHospital[ hospitalId].password */\n      0x02\n      add\n        /* \"contracts/Hospital.sol\":10443:10520  registeredHospital[ hospitalId].password = abi.encode(newpassword,\"password\") */\n      swap1\n      dup2\n      tag_333\n      swap2\n      swap1\n      tag_166\n      jump\t// in\n    tag_333:\n      pop\n        /* \"contracts/Hospital.sol\":1754:1755  _ */\n      pop\n      pop\n        /* \"contracts/Hospital.sol\":10259:10527  function changePassword(uint256 hospitalId, string memory oldpassword, string memory newpassword)... */\n      pop\n      pop\n      pop\n      pop\n      jump\t// out\n        /* \"contracts/MedicalCert.sol\":1399:1521  function getMCNRIC(uint256 id) public view returns(string memory) {... */\n    tag_91:\n        /* \"contracts/MedicalCert.sol\":1450:1463  string memory */\n      0x60\n        /* \"contracts/MedicalCert.sol\":1482:1487  infos */\n      0x02\n        /* \"contracts/MedicalCert.sol\":1482:1509  infos[MC[id].personal_info] */\n      0x00\n        /* \"contracts/MedicalCert.sol\":1488:1490  MC */\n      0x01\n        /* \"contracts/MedicalCert.sol\":1488:1494  MC[id] */\n      0x00\n        /* \"contracts/MedicalCert.sol\":1491:1493  id */\n      dup6\n        /* \"contracts/MedicalCert.sol\":1488:1494  MC[id] */\n      dup2\n      mstore\n      0x20\n      add\n      swap1\n      dup2\n      mstore\n      0x20\n      add\n      0x00\n      keccak256\n        /* \"contracts/MedicalCert.sol\":1488:1508  MC[id].personal_info */\n      0x02\n      add\n      sload\n        /* \"contracts/MedicalCert.sol\":1482:1509  infos[MC[id].personal_info] */\n      dup2\n      mstore\n      0x20\n      add\n      swap1\n      dup2\n      mstore\n      0x20\n      add\n      0x00\n      keccak256\n        /* \"contracts/MedicalCert.sol\":1482:1514  infos[MC[id].personal_info].NRIC */\n      0x02\n      add\n        /* \"contracts/MedicalCert.sol\":1475:1514  return infos[MC[id].personal_info].NRIC */\n      dup1\n      sload\n      tag_335\n      swap1\n      tag_126\n      jump\t// in\n    tag_335:\n      dup1\n      0x1f\n      add\n      0x20\n      dup1\n      swap2\n      div\n      mul\n      0x20\n      add\n      mload(0x40)\n      swap1\n      dup2\n      add\n      0x40\n      mstore\n      dup1\n      swap3\n      swap2\n      swap1\n      dup2\n      dup2\n      mstore\n      0x20\n      add\n      dup3\n      dup1\n      sload\n      tag_336\n      swap1\n      tag_126\n      jump\t// in\n    tag_336:\n      dup1\n      iszero\n      tag_337\n      jumpi\n      dup1\n      0x1f\n      lt\n      tag_338\n      jumpi\n      0x0100\n      dup1\n      dup4\n      sload\n      div\n      mul\n      dup4\n      mstore\n      swap2\n      0x20\n      add\n      swap2\n      jump(tag_337)\n    tag_338:\n      dup3\n      add\n      swap2\n      swap1\n      0x00\n      mstore\n      keccak256(0x00, 0x20)\n      swap1\n    tag_339:\n      dup2\n      sload\n      dup2\n      mstore\n      swap1\n      0x01\n      add\n      swap1\n      0x20\n      add\n      dup1\n      dup4\n      gt\n      tag_339\n      jumpi\n      dup3\n      swap1\n      sub\n      0x1f\n      and\n      dup3\n      add\n      swap2\n    tag_337:\n      pop\n      pop\n      pop\n      pop\n      pop\n      swap1\n      pop\n        /* \"contracts/MedicalCert.sol\":1399:1521  function getMCNRIC(uint256 id) public view returns(string memory) {... */\n      swap2\n      swap1\n      pop\n      jump\t// out\n        /* \"contracts/Hospital.sol\":6391:7071  function requestMC(uint256 hospitalId, uint256 stakeholderId, string memory nameAssured, string memory icAssured) ... */\n    tag_97:\n        /* \"contracts/Hospital.sol\":6553:6560  uint256 */\n      0x00\n        /* \"contracts/Hospital.sol\":6533:6543  hospitalId */\n      dup5\n        /* \"contracts/Hospital.sol\":1438:1439  0 */\n      0x00\n        /* \"contracts/Hospital.sol\":1393:1411  registeredHospital */\n      0x03\n        /* \"contracts/Hospital.sol\":1393:1424  registeredHospital[_hospitalId] */\n      0x00\n        /* \"contracts/Hospital.sol\":1412:1423  _hospitalId */\n      dup4\n        /* \"contracts/Hospital.sol\":1393:1424  registeredHospital[_hospitalId] */\n      dup2\n      mstore\n      0x20\n      add\n      swap1\n      dup2\n      mstore\n      0x20\n      add\n      0x00\n      keccak256\n        /* \"contracts/Hospital.sol\":1393:1435  registeredHospital[_hospitalId].hospitalId */\n      0x03\n      add\n      sload\n        /* \"contracts/Hospital.sol\":1393:1439  registeredHospital[_hospitalId].hospitalId > 0 */\n      gt\n        /* \"contracts/Hospital.sol\":1385:1464  require(registeredHospital[_hospitalId].hospitalId > 0, \"Invalid hospital id!\") */\n      tag_341\n      jumpi\n      mload(0x40)\n      0x08c379a000000000000000000000000000000000000000000000000000000000\n      dup2\n      mstore\n      0x04\n      add\n      tag_342\n      swap1\n      tag_108\n      jump\t// in\n    tag_342:\n      mload(0x40)\n      dup1\n      swap2\n      sub\n      swap1\n      revert\n    tag_341:\n        /* \"contracts/Hospital.sol\":6685:6694  numOfReqs */\n      0x07\n      0x00\n        /* \"contracts/Hospital.sol\":6685:6696  numOfReqs++ */\n      dup2\n      sload\n      dup1\n      swap3\n      swap2\n      swap1\n      tag_344\n      swap1\n      tag_144\n      jump\t// in\n    tag_344:\n      swap2\n      swap1\n      pop\n      sstore\n      pop\n        /* \"contracts/Hospital.sol\":6706:6725  Request storage req */\n      0x00\n        /* \"contracts/Hospital.sol\":6729:6747  registeredHospital */\n      0x03\n        /* \"contracts/Hospital.sol\":6729:6759  registeredHospital[hospitalId] */\n      0x00\n        /* \"contracts/Hospital.sol\":6748:6758  hospitalId */\n      dup9\n        /* \"contracts/Hospital.sol\":6729:6759  registeredHospital[hospitalId] */\n      dup2\n      mstore\n      0x20\n      add\n      swap1\n      dup2\n      mstore\n      0x20\n      add\n      0x00\n      keccak256\n        /* \"contracts/Hospital.sol\":6729:6768  registeredHospital[hospitalId].requests */\n      0x05\n      add\n        /* \"contracts/Hospital.sol\":6729:6783  registeredHospital[hospitalId].requests[stakeholderId] */\n      0x00\n        /* \"contracts/Hospital.sol\":6769:6782  stakeholderId */\n      dup8\n        /* \"contracts/Hospital.sol\":6729:6783  registeredHospital[hospitalId].requests[stakeholderId] */\n      dup2\n      mstore\n      0x20\n      add\n      swap1\n      dup2\n      mstore\n      0x20\n      add\n      0x00\n      keccak256\n        /* \"contracts/Hospital.sol\":6729:6790  registeredHospital[hospitalId].requests[stakeholderId].push() */\n      0x01\n      dup2\n      0x01\n      dup2\n      sload\n      add\n      dup1\n      dup3\n      sstore\n      dup1\n      swap2\n      pop\n      pop\n      sub\n      swap1\n      0x00\n      mstore\n      keccak256(0x00, 0x20)\n      swap1\n      0x05\n      mul\n      add\n        /* \"contracts/Hospital.sol\":6706:6790  Request storage req =  registeredHospital[hospitalId].requests[stakeholderId].push() */\n      swap1\n      pop\n        /* \"contracts/Hospital.sol\":6812:6821  numOfReqs */\n      sload(0x07)\n        /* \"contracts/Hospital.sol\":6800:6803  req */\n      dup2\n        /* \"contracts/Hospital.sol\":6800:6809  req.reqId */\n      0x00\n      add\n        /* \"contracts/Hospital.sol\":6800:6821  req.reqId = numOfReqs */\n      dup2\n      swap1\n      sstore\n      pop\n        /* \"contracts/Hospital.sol\":6851:6864  stakeholderId */\n      dup6\n        /* \"contracts/Hospital.sol\":6831:6834  req */\n      dup2\n        /* \"contracts/Hospital.sol\":6831:6848  req.stakeholderId */\n      0x01\n      add\n        /* \"contracts/Hospital.sol\":6831:6864  req.stakeholderId = stakeholderId */\n      dup2\n      swap1\n      sstore\n      pop\n        /* \"contracts/Hospital.sol\":6892:6903  nameAssured */\n      dup5\n        /* \"contracts/Hospital.sol\":6874:6877  req */\n      dup2\n        /* \"contracts/Hospital.sol\":6874:6889  req.nameAssured */\n      0x02\n      add\n        /* \"contracts/Hospital.sol\":6874:6903  req.nameAssured = nameAssured */\n      swap1\n      dup2\n      tag_346\n      swap2\n      swap1\n      tag_271\n      jump\t// in\n    tag_346:\n      pop\n        /* \"contracts/Hospital.sol\":6929:6938  icAssured */\n      dup4\n        /* \"contracts/Hospital.sol\":6913:6916  req */\n      dup2\n        /* \"contracts/Hospital.sol\":6913:6926  req.icAssured */\n      0x03\n      add\n        /* \"contracts/Hospital.sol\":6913:6938  req.icAssured = icAssured */\n      swap1\n      dup2\n      tag_347\n      swap2\n      swap1\n      tag_271\n      jump\t// in\n    tag_347:\n      pop\n        /* \"contracts/Hospital.sol\":6957:6969  stakeholders */\n      0x05\n        /* \"contracts/Hospital.sol\":6957:6981  stakeholders[hospitalId] */\n      0x00\n        /* \"contracts/Hospital.sol\":6970:6980  hospitalId */\n      dup9\n        /* \"contracts/Hospital.sol\":6957:6981  stakeholders[hospitalId] */\n      dup2\n      mstore\n      0x20\n      add\n      swap1\n      dup2\n      mstore\n      0x20\n      add\n      0x00\n      keccak256\n        /* \"contracts/Hospital.sol\":6987:7000  stakeholderId */\n      dup7\n        /* \"contracts/Hospital.sol\":6957:7001  stakeholders[hospitalId].push(stakeholderId) */\n      swap1\n      dup1\n      0x01\n      dup2\n      sload\n      add\n      dup1\n      dup3\n      sstore\n      dup1\n      swap2\n      pop\n      pop\n      0x01\n      swap1\n      sub\n      swap1\n      0x00\n      mstore\n      keccak256(0x00, 0x20)\n      add\n      0x00\n      swap1\n      swap2\n      swap1\n      swap2\n      swap1\n      swap2\n      pop\n      sstore\n        /* \"contracts/Hospital.sol\":7016:7038  requestMade(numOfReqs) */\n      0x7cd6f88cec54e07d7b5a709e82d19e951e8d3a8f8e64c3982e5c2305383034b1\n        /* \"contracts/Hospital.sol\":7028:7037  numOfReqs */\n      sload(0x07)\n        /* \"contracts/Hospital.sol\":7016:7038  requestMade(numOfReqs) */\n      mload(0x40)\n      tag_349\n      swap2\n      swap1\n      tag_43\n      jump\t// in\n    tag_349:\n      mload(0x40)\n      dup1\n      swap2\n      sub\n      swap1\n      log1\n        /* \"contracts/Hospital.sol\":7055:7064  numOfReqs */\n      sload(0x07)\n        /* \"contracts/Hospital.sol\":7048:7064  return numOfReqs */\n      swap3\n      pop\n      pop\n        /* \"contracts/Hospital.sol\":6391:7071  function requestMC(uint256 hospitalId, uint256 stakeholderId, string memory nameAssured, string memory icAssured) ... */\n      pop\n      swap5\n      swap4\n      pop\n      pop\n      pop\n      pop\n      jump\t// out\n        /* \"contracts/Hospital.sol\":10806:11090  function getPassword(uint256 hospitalId) ... */\n    tag_102:\n        /* \"contracts/Hospital.sol\":10916:10929  string memory */\n      0x60\n        /* \"contracts/Hospital.sol\":10887:10897  hospitalId */\n      dup2\n        /* \"contracts/Hospital.sol\":1684:1702  registeredHospital */\n      0x03\n        /* \"contracts/Hospital.sol\":1684:1716  registeredHospital[ _hospitalId] */\n      0x00\n        /* \"contracts/Hospital.sol\":1704:1715  _hospitalId */\n      dup3\n        /* \"contracts/Hospital.sol\":1684:1716  registeredHospital[ _hospitalId] */\n      dup2\n      mstore\n      0x20\n      add\n      swap1\n      dup2\n      mstore\n      0x20\n      add\n      0x00\n      keccak256\n        /* \"contracts/Hospital.sol\":1684:1726  registeredHospital[ _hospitalId].president */\n      0x00\n      add\n      0x00\n      swap1\n      sload\n      swap1\n      0x0100\n      exp\n      swap1\n      div\n      0xffffffffffffffffffffffffffffffffffffffff\n      and\n        /* \"contracts/Hospital.sol\":1670:1726  msg.sender == registeredHospital[ _hospitalId].president */\n      0xffffffffffffffffffffffffffffffffffffffff\n      and\n        /* \"contracts/Hospital.sol\":1670:1680  msg.sender */\n      caller\n        /* \"contracts/Hospital.sol\":1670:1726  msg.sender == registeredHospital[ _hospitalId].president */\n      0xffffffffffffffffffffffffffffffffffffffff\n      and\n      eq\n        /* \"contracts/Hospital.sol\":1661:1744  require (msg.sender == registeredHospital[ _hospitalId].president, \"Unauthorized!\") */\n      tag_351\n      jumpi\n      mload(0x40)\n      0x08c379a000000000000000000000000000000000000000000000000000000000\n      dup2\n      mstore\n      0x04\n      add\n      tag_352\n      swap1\n      tag_325\n      jump\t// in\n    tag_352:\n      mload(0x40)\n      dup1\n      swap2\n      sub\n      swap1\n      revert\n    tag_351:\n        /* \"contracts/Hospital.sol\":10947:10969  string memory password */\n      0x00\n        /* \"contracts/Hospital.sol\":10971:10986  string memory s */\n      dup1\n        /* \"contracts/Hospital.sol\":11001:11019  registeredHospital */\n      0x03\n        /* \"contracts/Hospital.sol\":11001:11031  registeredHospital[hospitalId] */\n      0x00\n        /* \"contracts/Hospital.sol\":11020:11030  hospitalId */\n      dup7\n        /* \"contracts/Hospital.sol\":11001:11031  registeredHospital[hospitalId] */\n      dup2\n      mstore\n      0x20\n      add\n      swap1\n      dup2\n      mstore\n      0x20\n      add\n      0x00\n      keccak256\n        /* \"contracts/Hospital.sol\":11001:11040  registeredHospital[hospitalId].password */\n      0x02\n      add\n        /* \"contracts/Hospital.sol\":10990:11058  abi.decode(registeredHospital[hospitalId].password, (string,string)) */\n      dup1\n      sload\n      tag_354\n      swap1\n      tag_126\n      jump\t// in\n    tag_354:\n      dup1\n      0x1f\n      add\n      0x20\n      dup1\n      swap2\n      div\n      mul\n      0x20\n      add\n      mload(0x40)\n      swap1\n      dup2\n      add\n      0x40\n      mstore\n      dup1\n      swap3\n      swap2\n      swap1\n      dup2\n      dup2\n      mstore\n      0x20\n      add\n      dup3\n      dup1\n      sload\n      tag_355\n      swap1\n      tag_126\n      jump\t// in\n    tag_355:\n      dup1\n      iszero\n      tag_356\n      jumpi\n      dup1\n      0x1f\n      lt\n      tag_357\n      jumpi\n      0x0100\n      dup1\n      dup4\n      sload\n      div\n      mul\n      dup4\n      mstore\n      swap2\n      0x20\n      add\n      swap2\n      jump(tag_356)\n    tag_357:\n      dup3\n      add\n      swap2\n      swap1\n      0x00\n      mstore\n      keccak256(0x00, 0x20)\n      swap1\n    tag_358:\n      dup2\n      sload\n      dup2\n      mstore\n      swap1\n      0x01\n      add\n      swap1\n      0x20\n      add\n      dup1\n      dup4\n      gt\n      tag_358\n      jumpi\n      dup3\n      swap1\n      sub\n      0x1f\n      and\n      dup3\n      add\n      swap2\n    tag_356:\n      pop\n      pop\n      pop\n      pop\n      pop\n      dup1\n      0x20\n      add\n      swap1\n      mload\n      dup2\n      add\n      swap1\n      tag_359\n      swap2\n      swap1\n      tag_360\n      jump\t// in\n    tag_359:\n        /* \"contracts/Hospital.sol\":10946:11058  (string memory password, string memory s) = abi.decode(registeredHospital[hospitalId].password, (string,string)) */\n      swap2\n      pop\n      swap2\n      pop\n        /* \"contracts/Hospital.sol\":11075:11083  password */\n      dup2\n        /* \"contracts/Hospital.sol\":11068:11083  return password */\n      swap4\n      pop\n      pop\n      pop\n        /* \"contracts/Hospital.sol\":10806:11090  function getPassword(uint256 hospitalId) ... */\n      pop\n      swap2\n      swap1\n      pop\n      jump\t// out\n        /* \"#utility.yul\":7:82   */\n    tag_361:\n        /* \"#utility.yul\":40:46   */\n      0x00\n        /* \"#utility.yul\":73:75   */\n      0x40\n        /* \"#utility.yul\":67:76   */\n      mload\n        /* \"#utility.yul\":57:76   */\n      swap1\n      pop\n        /* \"#utility.yul\":7:82   */\n      swap1\n      jump\t// out\n        /* \"#utility.yul\":88:205   */\n    tag_362:\n        /* \"#utility.yul\":197:198   */\n      0x00\n        /* \"#utility.yul\":194:195   */\n      dup1\n        /* \"#utility.yul\":187:199   */\n      revert\n        /* \"#utility.yul\":211:328   */\n    tag_363:\n        /* \"#utility.yul\":320:321   */\n      0x00\n        /* \"#utility.yul\":317:318   */\n      dup1\n        /* \"#utility.yul\":310:322   */\n      revert\n        /* \"#utility.yul\":334:411   */\n    tag_364:\n        /* \"#utility.yul\":371:378   */\n      0x00\n        /* \"#utility.yul\":400:405   */\n      dup2\n        /* \"#utility.yul\":389:405   */\n      swap1\n      pop\n        /* \"#utility.yul\":334:411   */\n      swap2\n      swap1\n      pop\n      jump\t// out\n        /* \"#utility.yul\":417:539   */\n    tag_365:\n        /* \"#utility.yul\":490:514   */\n      tag_460\n        /* \"#utility.yul\":508:513   */\n      dup2\n        /* \"#utility.yul\":490:514   */\n      tag_364\n      jump\t// in\n    tag_460:\n        /* \"#utility.yul\":483:488   */\n      dup2\n        /* \"#utility.yul\":480:515   */\n      eq\n        /* \"#utility.yul\":470:533   */\n      tag_461\n      jumpi\n        /* \"#utility.yul\":529:530   */\n      0x00\n        /* \"#utility.yul\":526:527   */\n      dup1\n        /* \"#utility.yul\":519:531   */\n      revert\n        /* \"#utility.yul\":470:533   */\n    tag_461:\n        /* \"#utility.yul\":417:539   */\n      pop\n      jump\t// out\n        /* \"#utility.yul\":545:684   */\n    tag_366:\n        /* \"#utility.yul\":591:596   */\n      0x00\n        /* \"#utility.yul\":629:635   */\n      dup2\n        /* \"#utility.yul\":616:636   */\n      calldataload\n        /* \"#utility.yul\":607:636   */\n      swap1\n      pop\n        /* \"#utility.yul\":645:678   */\n      tag_463\n        /* \"#utility.yul\":672:677   */\n      dup2\n        /* \"#utility.yul\":645:678   */\n      tag_365\n      jump\t// in\n    tag_463:\n        /* \"#utility.yul\":545:684   */\n      swap3\n      swap2\n      pop\n      pop\n      jump\t// out\n        /* \"#utility.yul\":690:1019   */\n    tag_23:\n        /* \"#utility.yul\":749:755   */\n      0x00\n        /* \"#utility.yul\":798:800   */\n      0x20\n        /* \"#utility.yul\":786:795   */\n      dup3\n        /* \"#utility.yul\":777:784   */\n      dup5\n        /* \"#utility.yul\":773:796   */\n      sub\n        /* \"#utility.yul\":769:801   */\n      slt\n        /* \"#utility.yul\":766:885   */\n      iszero\n      tag_465\n      jumpi\n        /* \"#utility.yul\":804:883   */\n      tag_466\n      tag_362\n      jump\t// in\n    tag_466:\n        /* \"#utility.yul\":766:885   */\n    tag_465:\n        /* \"#utility.yul\":924:925   */\n      0x00\n        /* \"#utility.yul\":949:1002   */\n      tag_467\n        /* \"#utility.yul\":994:1001   */\n      dup5\n        /* \"#utility.yul\":985:991   */\n      dup3\n        /* \"#utility.yul\":974:983   */\n      dup6\n        /* \"#utility.yul\":970:992   */\n      add\n        /* \"#utility.yul\":949:1002   */\n      tag_366\n      jump\t// in\n    tag_467:\n        /* \"#utility.yul\":939:1002   */\n      swap2\n      pop\n        /* \"#utility.yul\":895:1012   */\n      pop\n        /* \"#utility.yul\":690:1019   */\n      swap3\n      swap2\n      pop\n      pop\n      jump\t// out\n        /* \"#utility.yul\":1025:1151   */\n    tag_367:\n        /* \"#utility.yul\":1062:1069   */\n      0x00\n        /* \"#utility.yul\":1102:1144   */\n      0xffffffffffffffffffffffffffffffffffffffff\n        /* \"#utility.yul\":1095:1100   */\n      dup3\n        /* \"#utility.yul\":1091:1145   */\n      and\n        /* \"#utility.yul\":1080:1145   */\n      swap1\n      pop\n        /* \"#utility.yul\":1025:1151   */\n      swap2\n      swap1\n      pop\n      jump\t// out\n        /* \"#utility.yul\":1157:1253   */\n    tag_368:\n        /* \"#utility.yul\":1194:1201   */\n      0x00\n        /* \"#utility.yul\":1223:1247   */\n      tag_470\n        /* \"#utility.yul\":1241:1246   */\n      dup3\n        /* \"#utility.yul\":1223:1247   */\n      tag_367\n      jump\t// in\n    tag_470:\n        /* \"#utility.yul\":1212:1247   */\n      swap1\n      pop\n        /* \"#utility.yul\":1157:1253   */\n      swap2\n      swap1\n      pop\n      jump\t// out\n        /* \"#utility.yul\":1259:1377   */\n    tag_369:\n        /* \"#utility.yul\":1346:1370   */\n      tag_472\n        /* \"#utility.yul\":1364:1369   */\n      dup2\n        /* \"#utility.yul\":1346:1370   */\n      tag_368\n      jump\t// in\n    tag_472:\n        /* \"#utility.yul\":1341:1344   */\n      dup3\n        /* \"#utility.yul\":1334:1371   */\n      mstore\n        /* \"#utility.yul\":1259:1377   */\n      pop\n      pop\n      jump\t// out\n        /* \"#utility.yul\":1383:1605   */\n    tag_26:\n        /* \"#utility.yul\":1476:1480   */\n      0x00\n        /* \"#utility.yul\":1514:1516   */\n      0x20\n        /* \"#utility.yul\":1503:1512   */\n      dup3\n        /* \"#utility.yul\":1499:1517   */\n      add\n        /* \"#utility.yul\":1491:1517   */\n      swap1\n      pop\n        /* \"#utility.yul\":1527:1598   */\n      tag_474\n        /* \"#utility.yul\":1595:1596   */\n      0x00\n        /* \"#utility.yul\":1584:1593   */\n      dup4\n        /* \"#utility.yul\":1580:1597   */\n      add\n        /* \"#utility.yul\":1571:1577   */\n      dup5\n        /* \"#utility.yul\":1527:1598   */\n      tag_369\n      jump\t// in\n    tag_474:\n        /* \"#utility.yul\":1383:1605   */\n      swap3\n      swap2\n      pop\n      pop\n      jump\t// out\n        /* \"#utility.yul\":1611:1728   */\n    tag_370:\n        /* \"#utility.yul\":1720:1721   */\n      0x00\n        /* \"#utility.yul\":1717:1718   */\n      dup1\n        /* \"#utility.yul\":1710:1722   */\n      revert\n        /* \"#utility.yul\":1734:1851   */\n    tag_371:\n        /* \"#utility.yul\":1843:1844   */\n      0x00\n        /* \"#utility.yul\":1840:1841   */\n      dup1\n        /* \"#utility.yul\":1833:1845   */\n      revert\n        /* \"#utility.yul\":1857:1959   */\n    tag_372:\n        /* \"#utility.yul\":1898:1904   */\n      0x00\n        /* \"#utility.yul\":1949:1951   */\n      0x1f\n        /* \"#utility.yul\":1945:1952   */\n      not\n        /* \"#utility.yul\":1940:1942   */\n      0x1f\n        /* \"#utility.yul\":1933:1938   */\n      dup4\n        /* \"#utility.yul\":1929:1943   */\n      add\n        /* \"#utility.yul\":1925:1953   */\n      and\n        /* \"#utility.yul\":1915:1953   */\n      swap1\n      pop\n        /* \"#utility.yul\":1857:1959   */\n      swap2\n      swap1\n      pop\n      jump\t// out\n        /* \"#utility.yul\":1965:2145   */\n    tag_197:\n        /* \"#utility.yul\":2013:2090   */\n      0x4e487b7100000000000000000000000000000000000000000000000000000000\n        /* \"#utility.yul\":2010:2011   */\n      0x00\n        /* \"#utility.yul\":2003:2091   */\n      mstore\n        /* \"#utility.yul\":2110:2114   */\n      0x41\n        /* \"#utility.yul\":2107:2108   */\n      0x04\n        /* \"#utility.yul\":2100:2115   */\n      mstore\n        /* \"#utility.yul\":2134:2138   */\n      0x24\n        /* \"#utility.yul\":2131:2132   */\n      0x00\n        /* \"#utility.yul\":2124:2139   */\n      revert\n        /* \"#utility.yul\":2151:2432   */\n    tag_373:\n        /* \"#utility.yul\":2234:2261   */\n      tag_480\n        /* \"#utility.yul\":2256:2260   */\n      dup3\n        /* \"#utility.yul\":2234:2261   */\n      tag_372\n      jump\t// in\n    tag_480:\n        /* \"#utility.yul\":2226:2232   */\n      dup2\n        /* \"#utility.yul\":2222:2262   */\n      add\n        /* \"#utility.yul\":2364:2370   */\n      dup2\n        /* \"#utility.yul\":2352:2362   */\n      dup2\n        /* \"#utility.yul\":2349:2371   */\n      lt\n        /* \"#utility.yul\":2328:2346   */\n      0xffffffffffffffff\n        /* \"#utility.yul\":2316:2326   */\n      dup3\n        /* \"#utility.yul\":2313:2347   */\n      gt\n        /* \"#utility.yul\":2310:2372   */\n      or\n        /* \"#utility.yul\":2307:2395   */\n      iszero\n      tag_481\n      jumpi\n        /* \"#utility.yul\":2375:2393   */\n      tag_482\n      tag_197\n      jump\t// in\n    tag_482:\n        /* \"#utility.yul\":2307:2395   */\n    tag_481:\n        /* \"#utility.yul\":2415:2425   */\n      dup1\n        /* \"#utility.yul\":2411:2413   */\n      0x40\n        /* \"#utility.yul\":2404:2426   */\n      mstore\n        /* \"#utility.yul\":2194:2432   */\n      pop\n        /* \"#utility.yul\":2151:2432   */\n      pop\n      pop\n      jump\t// out\n        /* \"#utility.yul\":2438:2567   */\n    tag_374:\n        /* \"#utility.yul\":2472:2478   */\n      0x00\n        /* \"#utility.yul\":2499:2519   */\n      tag_484\n      tag_361\n      jump\t// in\n    tag_484:\n        /* \"#utility.yul\":2489:2519   */\n      swap1\n      pop\n        /* \"#utility.yul\":2528:2561   */\n      tag_485\n        /* \"#utility.yul\":2556:2560   */\n      dup3\n        /* \"#utility.yul\":2548:2554   */\n      dup3\n        /* \"#utility.yul\":2528:2561   */\n      tag_373\n      jump\t// in\n    tag_485:\n        /* \"#utility.yul\":2438:2567   */\n      swap2\n      swap1\n      pop\n      jump\t// out\n        /* \"#utility.yul\":2573:2881   */\n    tag_375:\n        /* \"#utility.yul\":2635:2639   */\n      0x00\n        /* \"#utility.yul\":2725:2743   */\n      0xffffffffffffffff\n        /* \"#utility.yul\":2717:2723   */\n      dup3\n        /* \"#utility.yul\":2714:2744   */\n      gt\n        /* \"#utility.yul\":2711:2767   */\n      iszero\n      tag_487\n      jumpi\n        /* \"#utility.yul\":2747:2765   */\n      tag_488\n      tag_197\n      jump\t// in\n    tag_488:\n        /* \"#utility.yul\":2711:2767   */\n    tag_487:\n        /* \"#utility.yul\":2785:2814   */\n      tag_489\n        /* \"#utility.yul\":2807:2813   */\n      dup3\n        /* \"#utility.yul\":2785:2814   */\n      tag_372\n      jump\t// in\n    tag_489:\n        /* \"#utility.yul\":2777:2814   */\n      swap1\n      pop\n        /* \"#utility.yul\":2869:2873   */\n      0x20\n        /* \"#utility.yul\":2863:2867   */\n      dup2\n        /* \"#utility.yul\":2859:2874   */\n      add\n        /* \"#utility.yul\":2851:2874   */\n      swap1\n      pop\n        /* \"#utility.yul\":2573:2881   */\n      swap2\n      swap1\n      pop\n      jump\t// out\n        /* \"#utility.yul\":2887:3033   */\n    tag_376:\n        /* \"#utility.yul\":2984:2990   */\n      dup3\n        /* \"#utility.yul\":2979:2982   */\n      dup2\n        /* \"#utility.yul\":2974:2977   */\n      dup4\n        /* \"#utility.yul\":2961:2991   */\n      calldatacopy\n        /* \"#utility.yul\":3025:3026   */\n      0x00\n        /* \"#utility.yul\":3016:3022   */\n      dup4\n        /* \"#utility.yul\":3011:3014   */\n      dup4\n        /* \"#utility.yul\":3007:3023   */\n      add\n        /* \"#utility.yul\":3000:3027   */\n      mstore\n        /* \"#utility.yul\":2887:3033   */\n      pop\n      pop\n      pop\n      jump\t// out\n        /* \"#utility.yul\":3039:3464   */\n    tag_377:\n        /* \"#utility.yul\":3117:3122   */\n      0x00\n        /* \"#utility.yul\":3142:3208   */\n      tag_492\n        /* \"#utility.yul\":3158:3207   */\n      tag_493\n        /* \"#utility.yul\":3200:3206   */\n      dup5\n        /* \"#utility.yul\":3158:3207   */\n      tag_375\n      jump\t// in\n    tag_493:\n        /* \"#utility.yul\":3142:3208   */\n      tag_374\n      jump\t// in\n    tag_492:\n        /* \"#utility.yul\":3133:3208   */\n      swap1\n      pop\n        /* \"#utility.yul\":3231:3237   */\n      dup3\n        /* \"#utility.yul\":3224:3229   */\n      dup2\n        /* \"#utility.yul\":3217:3238   */\n      mstore\n        /* \"#utility.yul\":3269:3273   */\n      0x20\n        /* \"#utility.yul\":3262:3267   */\n      dup2\n        /* \"#utility.yul\":3258:3274   */\n      add\n        /* \"#utility.yul\":3307:3310   */\n      dup5\n        /* \"#utility.yul\":3298:3304   */\n      dup5\n        /* \"#utility.yul\":3293:3296   */\n      dup5\n        /* \"#utility.yul\":3289:3305   */\n      add\n        /* \"#utility.yul\":3286:3311   */\n      gt\n        /* \"#utility.yul\":3283:3395   */\n      iszero\n      tag_494\n      jumpi\n        /* \"#utility.yul\":3314:3393   */\n      tag_495\n      tag_371\n      jump\t// in\n    tag_495:\n        /* \"#utility.yul\":3283:3395   */\n    tag_494:\n        /* \"#utility.yul\":3404:3458   */\n      tag_496\n        /* \"#utility.yul\":3451:3457   */\n      dup5\n        /* \"#utility.yul\":3446:3449   */\n      dup3\n        /* \"#utility.yul\":3441:3444   */\n      dup6\n        /* \"#utility.yul\":3404:3458   */\n      tag_376\n      jump\t// in\n    tag_496:\n        /* \"#utility.yul\":3123:3464   */\n      pop\n        /* \"#utility.yul\":3039:3464   */\n      swap4\n      swap3\n      pop\n      pop\n      pop\n      jump\t// out\n        /* \"#utility.yul\":3484:3824   */\n    tag_378:\n        /* \"#utility.yul\":3540:3545   */\n      0x00\n        /* \"#utility.yul\":3589:3592   */\n      dup3\n        /* \"#utility.yul\":3582:3586   */\n      0x1f\n        /* \"#utility.yul\":3574:3580   */\n      dup4\n        /* \"#utility.yul\":3570:3587   */\n      add\n        /* \"#utility.yul\":3566:3593   */\n      slt\n        /* \"#utility.yul\":3556:3678   */\n      tag_498\n      jumpi\n        /* \"#utility.yul\":3597:3676   */\n      tag_499\n      tag_370\n      jump\t// in\n    tag_499:\n        /* \"#utility.yul\":3556:3678   */\n    tag_498:\n        /* \"#utility.yul\":3714:3720   */\n      dup2\n        /* \"#utility.yul\":3701:3721   */\n      calldataload\n        /* \"#utility.yul\":3739:3818   */\n      tag_500\n        /* \"#utility.yul\":3814:3817   */\n      dup5\n        /* \"#utility.yul\":3806:3812   */\n      dup3\n        /* \"#utility.yul\":3799:3803   */\n      0x20\n        /* \"#utility.yul\":3791:3797   */\n      dup7\n        /* \"#utility.yul\":3787:3804   */\n      add\n        /* \"#utility.yul\":3739:3818   */\n      tag_377\n      jump\t// in\n    tag_500:\n        /* \"#utility.yul\":3730:3818   */\n      swap2\n      pop\n        /* \"#utility.yul\":3546:3824   */\n      pop\n        /* \"#utility.yul\":3484:3824   */\n      swap3\n      swap2\n      pop\n      pop\n      jump\t// out\n        /* \"#utility.yul\":3830:4921   */\n    tag_30:\n        /* \"#utility.yul\":3935:3941   */\n      0x00\n        /* \"#utility.yul\":3943:3949   */\n      dup1\n        /* \"#utility.yul\":3951:3957   */\n      0x00\n        /* \"#utility.yul\":3959:3965   */\n      dup1\n        /* \"#utility.yul\":3967:3973   */\n      0x00\n        /* \"#utility.yul\":4016:4019   */\n      0xa0\n        /* \"#utility.yul\":4004:4013   */\n      dup7\n        /* \"#utility.yul\":3995:4002   */\n      dup9\n        /* \"#utility.yul\":3991:4014   */\n      sub\n        /* \"#utility.yul\":3987:4020   */\n      slt\n        /* \"#utility.yul\":3984:4104   */\n      iszero\n      tag_502\n      jumpi\n        /* \"#utility.yul\":4023:4102   */\n      tag_503\n      tag_362\n      jump\t// in\n    tag_503:\n        /* \"#utility.yul\":3984:4104   */\n    tag_502:\n        /* \"#utility.yul\":4143:4144   */\n      0x00\n        /* \"#utility.yul\":4168:4221   */\n      tag_504\n        /* \"#utility.yul\":4213:4220   */\n      dup9\n        /* \"#utility.yul\":4204:4210   */\n      dup3\n        /* \"#utility.yul\":4193:4202   */\n      dup10\n        /* \"#utility.yul\":4189:4211   */\n      add\n        /* \"#utility.yul\":4168:4221   */\n      tag_366\n      jump\t// in\n    tag_504:\n        /* \"#utility.yul\":4158:4221   */\n      swap6\n      pop\n        /* \"#utility.yul\":4114:4231   */\n      pop\n        /* \"#utility.yul\":4298:4300   */\n      0x20\n        /* \"#utility.yul\":4287:4296   */\n      dup7\n        /* \"#utility.yul\":4283:4301   */\n      add\n        /* \"#utility.yul\":4270:4302   */\n      calldataload\n        /* \"#utility.yul\":4329:4347   */\n      0xffffffffffffffff\n        /* \"#utility.yul\":4321:4327   */\n      dup2\n        /* \"#utility.yul\":4318:4348   */\n      gt\n        /* \"#utility.yul\":4315:4432   */\n      iszero\n      tag_505\n      jumpi\n        /* \"#utility.yul\":4351:4430   */\n      tag_506\n      tag_363\n      jump\t// in\n    tag_506:\n        /* \"#utility.yul\":4315:4432   */\n    tag_505:\n        /* \"#utility.yul\":4456:4519   */\n      tag_507\n        /* \"#utility.yul\":4511:4518   */\n      dup9\n        /* \"#utility.yul\":4502:4508   */\n      dup3\n        /* \"#utility.yul\":4491:4500   */\n      dup10\n        /* \"#utility.yul\":4487:4509   */\n      add\n        /* \"#utility.yul\":4456:4519   */\n      tag_378\n      jump\t// in\n    tag_507:\n        /* \"#utility.yul\":4446:4519   */\n      swap5\n      pop\n        /* \"#utility.yul\":4241:4529   */\n      pop\n        /* \"#utility.yul\":4568:4570   */\n      0x40\n        /* \"#utility.yul\":4594:4647   */\n      tag_508\n        /* \"#utility.yul\":4639:4646   */\n      dup9\n        /* \"#utility.yul\":4630:4636   */\n      dup3\n        /* \"#utility.yul\":4619:4628   */\n      dup10\n        /* \"#utility.yul\":4615:4637   */\n      add\n        /* \"#utility.yul\":4594:4647   */\n      tag_366\n      jump\t// in\n    tag_508:\n        /* \"#utility.yul\":4584:4647   */\n      swap4\n      pop\n        /* \"#utility.yul\":4539:4657   */\n      pop\n        /* \"#utility.yul\":4696:4698   */\n      0x60\n        /* \"#utility.yul\":4722:4775   */\n      tag_509\n        /* \"#utility.yul\":4767:4774   */\n      dup9\n        /* \"#utility.yul\":4758:4764   */\n      dup3\n        /* \"#utility.yul\":4747:4756   */\n      dup10\n        /* \"#utility.yul\":4743:4765   */\n      add\n        /* \"#utility.yul\":4722:4775   */\n      tag_366\n      jump\t// in\n    tag_509:\n        /* \"#utility.yul\":4712:4775   */\n      swap3\n      pop\n        /* \"#utility.yul\":4667:4785   */\n      pop\n        /* \"#utility.yul\":4824:4827   */\n      0x80\n        /* \"#utility.yul\":4851:4904   */\n      tag_510\n        /* \"#utility.yul\":4896:4903   */\n      dup9\n        /* \"#utility.yul\":4887:4893   */\n      dup3\n        /* \"#utility.yul\":4876:4885   */\n      dup10\n        /* \"#utility.yul\":4872:4894   */\n      add\n        /* \"#utility.yul\":4851:4904   */\n      tag_366\n      jump\t// in\n    tag_510:\n        /* \"#utility.yul\":4841:4904   */\n      swap2\n      pop\n        /* \"#utility.yul\":4795:4914   */\n      pop\n        /* \"#utility.yul\":3830:4921   */\n      swap3\n      swap6\n      pop\n      swap3\n      swap6\n      swap1\n      swap4\n      pop\n      jump\t// out\n        /* \"#utility.yul\":4927:5906   */\n    tag_35:\n        /* \"#utility.yul\":5024:5030   */\n      0x00\n        /* \"#utility.yul\":5032:5038   */\n      dup1\n        /* \"#utility.yul\":5040:5046   */\n      0x00\n        /* \"#utility.yul\":5089:5091   */\n      0x60\n        /* \"#utility.yul\":5077:5086   */\n      dup5\n        /* \"#utility.yul\":5068:5075   */\n      dup7\n        /* \"#utility.yul\":5064:5087   */\n      sub\n        /* \"#utility.yul\":5060:5092   */\n      slt\n        /* \"#utility.yul\":5057:5176   */\n      iszero\n      tag_512\n      jumpi\n        /* \"#utility.yul\":5095:5174   */\n      tag_513\n      tag_362\n      jump\t// in\n    tag_513:\n        /* \"#utility.yul\":5057:5176   */\n    tag_512:\n        /* \"#utility.yul\":5215:5216   */\n      0x00\n        /* \"#utility.yul\":5240:5293   */\n      tag_514\n        /* \"#utility.yul\":5285:5292   */\n      dup7\n        /* \"#utility.yul\":5276:5282   */\n      dup3\n        /* \"#utility.yul\":5265:5274   */\n      dup8\n        /* \"#utility.yul\":5261:5283   */\n      add\n        /* \"#utility.yul\":5240:5293   */\n      tag_366\n      jump\t// in\n    tag_514:\n        /* \"#utility.yul\":5230:5293   */\n      swap4\n      pop\n        /* \"#utility.yul\":5186:5303   */\n      pop\n        /* \"#utility.yul\":5370:5372   */\n      0x20\n        /* \"#utility.yul\":5359:5368   */\n      dup5\n        /* \"#utility.yul\":5355:5373   */\n      add\n        /* \"#utility.yul\":5342:5374   */\n      calldataload\n        /* \"#utility.yul\":5401:5419   */\n      0xffffffffffffffff\n        /* \"#utility.yul\":5393:5399   */\n      dup2\n        /* \"#utility.yul\":5390:5420   */\n      gt\n        /* \"#utility.yul\":5387:5504   */\n      iszero\n      tag_515\n      jumpi\n        /* \"#utility.yul\":5423:5502   */\n      tag_516\n      tag_363\n      jump\t// in\n    tag_516:\n        /* \"#utility.yul\":5387:5504   */\n    tag_515:\n        /* \"#utility.yul\":5528:5591   */\n      tag_517\n        /* \"#utility.yul\":5583:5590   */\n      dup7\n        /* \"#utility.yul\":5574:5580   */\n      dup3\n        /* \"#utility.yul\":5563:5572   */\n      dup8\n        /* \"#utility.yul\":5559:5581   */\n      add\n        /* \"#utility.yul\":5528:5591   */\n      tag_378\n      jump\t// in\n    tag_517:\n        /* \"#utility.yul\":5518:5591   */\n      swap3\n      pop\n        /* \"#utility.yul\":5313:5601   */\n      pop\n        /* \"#utility.yul\":5668:5670   */\n      0x40\n        /* \"#utility.yul\":5657:5666   */\n      dup5\n        /* \"#utility.yul\":5653:5671   */\n      add\n        /* \"#utility.yul\":5640:5672   */\n      calldataload\n        /* \"#utility.yul\":5699:5717   */\n      0xffffffffffffffff\n        /* \"#utility.yul\":5691:5697   */\n      dup2\n        /* \"#utility.yul\":5688:5718   */\n      gt\n        /* \"#utility.yul\":5685:5802   */\n      iszero\n      tag_518\n      jumpi\n        /* \"#utility.yul\":5721:5800   */\n      tag_519\n      tag_363\n      jump\t// in\n    tag_519:\n        /* \"#utility.yul\":5685:5802   */\n    tag_518:\n        /* \"#utility.yul\":5826:5889   */\n      tag_520\n        /* \"#utility.yul\":5881:5888   */\n      dup7\n        /* \"#utility.yul\":5872:5878   */\n      dup3\n        /* \"#utility.yul\":5861:5870   */\n      dup8\n        /* \"#utility.yul\":5857:5879   */\n      add\n        /* \"#utility.yul\":5826:5889   */\n      tag_378\n      jump\t// in\n    tag_520:\n        /* \"#utility.yul\":5816:5889   */\n      swap2\n      pop\n        /* \"#utility.yul\":5611:5899   */\n      pop\n        /* \"#utility.yul\":4927:5906   */\n      swap3\n      pop\n      swap3\n      pop\n      swap3\n      jump\t// out\n        /* \"#utility.yul\":5912:6034   */\n    tag_379:\n        /* \"#utility.yul\":5985:6009   */\n      tag_522\n        /* \"#utility.yul\":6003:6008   */\n      dup2\n        /* \"#utility.yul\":5985:6009   */\n      tag_368\n      jump\t// in\n    tag_522:\n        /* \"#utility.yul\":5978:5983   */\n      dup2\n        /* \"#utility.yul\":5975:6010   */\n      eq\n        /* \"#utility.yul\":5965:6028   */\n      tag_523\n      jumpi\n        /* \"#utility.yul\":6024:6025   */\n      0x00\n        /* \"#utility.yul\":6021:6022   */\n      dup1\n        /* \"#utility.yul\":6014:6026   */\n      revert\n        /* \"#utility.yul\":5965:6028   */\n    tag_523:\n        /* \"#utility.yul\":5912:6034   */\n      pop\n      jump\t// out\n        /* \"#utility.yul\":6040:6179   */\n    tag_380:\n        /* \"#utility.yul\":6086:6091   */\n      0x00\n        /* \"#utility.yul\":6124:6130   */\n      dup2\n        /* \"#utility.yul\":6111:6131   */\n      calldataload\n        /* \"#utility.yul\":6102:6131   */\n      swap1\n      pop\n        /* \"#utility.yul\":6140:6173   */\n      tag_525\n        /* \"#utility.yul\":6167:6172   */\n      dup2\n        /* \"#utility.yul\":6140:6173   */\n      tag_379\n      jump\t// in\n    tag_525:\n        /* \"#utility.yul\":6040:6179   */\n      swap3\n      swap2\n      pop\n      pop\n      jump\t// out\n        /* \"#utility.yul\":6185:6514   */\n    tag_40:\n        /* \"#utility.yul\":6244:6250   */\n      0x00\n        /* \"#utility.yul\":6293:6295   */\n      0x20\n        /* \"#utility.yul\":6281:6290   */\n      dup3\n        /* \"#utility.yul\":6272:6279   */\n      dup5\n        /* \"#utility.yul\":6268:6291   */\n      sub\n        /* \"#utility.yul\":6264:6296   */\n      slt\n        /* \"#utility.yul\":6261:6380   */\n      iszero\n      tag_527\n      jumpi\n        /* \"#utility.yul\":6299:6378   */\n      tag_528\n      tag_362\n      jump\t// in\n    tag_528:\n        /* \"#utility.yul\":6261:6380   */\n    tag_527:\n        /* \"#utility.yul\":6419:6420   */\n      0x00\n        /* \"#utility.yul\":6444:6497   */\n      tag_529\n        /* \"#utility.yul\":6489:6496   */\n      dup5\n        /* \"#utility.yul\":6480:6486   */\n      dup3\n        /* \"#utility.yul\":6469:6478   */\n      dup6\n        /* \"#utility.yul\":6465:6487   */\n      add\n        /* \"#utility.yul\":6444:6497   */\n      tag_380\n      jump\t// in\n    tag_529:\n        /* \"#utility.yul\":6434:6497   */\n      swap2\n      pop\n        /* \"#utility.yul\":6390:6507   */\n      pop\n        /* \"#utility.yul\":6185:6514   */\n      swap3\n      swap2\n      pop\n      pop\n      jump\t// out\n        /* \"#utility.yul\":6520:6638   */\n    tag_381:\n        /* \"#utility.yul\":6607:6631   */\n      tag_531\n        /* \"#utility.yul\":6625:6630   */\n      dup2\n        /* \"#utility.yul\":6607:6631   */\n      tag_364\n      jump\t// in\n    tag_531:\n        /* \"#utility.yul\":6602:6605   */\n      dup3\n        /* \"#utility.yul\":6595:6632   */\n      mstore\n        /* \"#utility.yul\":6520:6638   */\n      pop\n      pop\n      jump\t// out\n        /* \"#utility.yul\":6644:6866   */\n    tag_43:\n        /* \"#utility.yul\":6737:6741   */\n      0x00\n        /* \"#utility.yul\":6775:6777   */\n      0x20\n        /* \"#utility.yul\":6764:6773   */\n      dup3\n        /* \"#utility.yul\":6760:6778   */\n      add\n        /* \"#utility.yul\":6752:6778   */\n      swap1\n      pop\n        /* \"#utility.yul\":6788:6859   */\n      tag_533\n        /* \"#utility.yul\":6856:6857   */\n      0x00\n        /* \"#utility.yul\":6845:6854   */\n      dup4\n        /* \"#utility.yul\":6841:6858   */\n      add\n        /* \"#utility.yul\":6832:6838   */\n      dup5\n        /* \"#utility.yul\":6788:6859   */\n      tag_381\n      jump\t// in\n    tag_533:\n        /* \"#utility.yul\":6644:6866   */\n      swap3\n      swap2\n      pop\n      pop\n      jump\t// out\n        /* \"#utility.yul\":6872:6971   */\n    tag_382:\n        /* \"#utility.yul\":6924:6930   */\n      0x00\n        /* \"#utility.yul\":6958:6963   */\n      dup2\n        /* \"#utility.yul\":6952:6964   */\n      mload\n        /* \"#utility.yul\":6942:6964   */\n      swap1\n      pop\n        /* \"#utility.yul\":6872:6971   */\n      swap2\n      swap1\n      pop\n      jump\t// out\n        /* \"#utility.yul\":6977:7146   */\n    tag_383:\n        /* \"#utility.yul\":7061:7072   */\n      0x00\n        /* \"#utility.yul\":7095:7101   */\n      dup3\n        /* \"#utility.yul\":7090:7093   */\n      dup3\n        /* \"#utility.yul\":7083:7102   */\n      mstore\n        /* \"#utility.yul\":7135:7139   */\n      0x20\n        /* \"#utility.yul\":7130:7133   */\n      dup3\n        /* \"#utility.yul\":7126:7140   */\n      add\n        /* \"#utility.yul\":7111:7140   */\n      swap1\n      pop\n        /* \"#utility.yul\":6977:7146   */\n      swap3\n      swap2\n      pop\n      pop\n      jump\t// out\n        /* \"#utility.yul\":7152:7398   */\n    tag_384:\n        /* \"#utility.yul\":7233:7234   */\n      0x00\n        /* \"#utility.yul\":7243:7356   */\n    tag_537:\n        /* \"#utility.yul\":7257:7263   */\n      dup4\n        /* \"#utility.yul\":7254:7255   */\n      dup2\n        /* \"#utility.yul\":7251:7264   */\n      lt\n        /* \"#utility.yul\":7243:7356   */\n      iszero\n      tag_539\n      jumpi\n        /* \"#utility.yul\":7342:7343   */\n      dup1\n        /* \"#utility.yul\":7337:7340   */\n      dup3\n        /* \"#utility.yul\":7333:7344   */\n      add\n        /* \"#utility.yul\":7327:7345   */\n      mload\n        /* \"#utility.yul\":7323:7324   */\n      dup2\n        /* \"#utility.yul\":7318:7321   */\n      dup5\n        /* \"#utility.yul\":7314:7325   */\n      add\n        /* \"#utility.yul\":7307:7346   */\n      mstore\n        /* \"#utility.yul\":7279:7281   */\n      0x20\n        /* \"#utility.yul\":7276:7277   */\n      dup2\n        /* \"#utility.yul\":7272:7282   */\n      add\n        /* \"#utility.yul\":7267:7282   */\n      swap1\n      pop\n        /* \"#utility.yul\":7243:7356   */\n      jump(tag_537)\n    tag_539:\n        /* \"#utility.yul\":7390:7391   */\n      0x00\n        /* \"#utility.yul\":7381:7387   */\n      dup5\n        /* \"#utility.yul\":7376:7379   */\n      dup5\n        /* \"#utility.yul\":7372:7388   */\n      add\n        /* \"#utility.yul\":7365:7392   */\n      mstore\n        /* \"#utility.yul\":7214:7398   */\n      pop\n        /* \"#utility.yul\":7152:7398   */\n      pop\n      pop\n      pop\n      jump\t// out\n        /* \"#utility.yul\":7404:7781   */\n    tag_385:\n        /* \"#utility.yul\":7492:7495   */\n      0x00\n        /* \"#utility.yul\":7520:7559   */\n      tag_541\n        /* \"#utility.yul\":7553:7558   */\n      dup3\n        /* \"#utility.yul\":7520:7559   */\n      tag_382\n      jump\t// in\n    tag_541:\n        /* \"#utility.yul\":7575:7646   */\n      tag_542\n        /* \"#utility.yul\":7639:7645   */\n      dup2\n        /* \"#utility.yul\":7634:7637   */\n      dup6\n        /* \"#utility.yul\":7575:7646   */\n      tag_383\n      jump\t// in\n    tag_542:\n        /* \"#utility.yul\":7568:7646   */\n      swap4\n      pop\n        /* \"#utility.yul\":7655:7720   */\n      tag_543\n        /* \"#utility.yul\":7713:7719   */\n      dup2\n        /* \"#utility.yul\":7708:7711   */\n      dup6\n        /* \"#utility.yul\":7701:7705   */\n      0x20\n        /* \"#utility.yul\":7694:7699   */\n      dup7\n        /* \"#utility.yul\":7690:7706   */\n      add\n        /* \"#utility.yul\":7655:7720   */\n      tag_384\n      jump\t// in\n    tag_543:\n        /* \"#utility.yul\":7745:7774   */\n      tag_544\n        /* \"#utility.yul\":7767:7773   */\n      dup2\n        /* \"#utility.yul\":7745:7774   */\n      tag_372\n      jump\t// in\n    tag_544:\n        /* \"#utility.yul\":7740:7743   */\n      dup5\n        /* \"#utility.yul\":7736:7775   */\n      add\n        /* \"#utility.yul\":7729:7775   */\n      swap2\n      pop\n        /* \"#utility.yul\":7496:7781   */\n      pop\n        /* \"#utility.yul\":7404:7781   */\n      swap3\n      swap2\n      pop\n      pop\n      jump\t// out\n        /* \"#utility.yul\":7787:8100   */\n    tag_49:\n        /* \"#utility.yul\":7900:7904   */\n      0x00\n        /* \"#utility.yul\":7938:7940   */\n      0x20\n        /* \"#utility.yul\":7927:7936   */\n      dup3\n        /* \"#utility.yul\":7923:7941   */\n      add\n        /* \"#utility.yul\":7915:7941   */\n      swap1\n      pop\n        /* \"#utility.yul\":7987:7996   */\n      dup2\n        /* \"#utility.yul\":7981:7985   */\n      dup2\n        /* \"#utility.yul\":7977:7997   */\n      sub\n        /* \"#utility.yul\":7973:7974   */\n      0x00\n        /* \"#utility.yul\":7962:7971   */\n      dup4\n        /* \"#utility.yul\":7958:7975   */\n      add\n        /* \"#utility.yul\":7951:7998   */\n      mstore\n        /* \"#utility.yul\":8015:8093   */\n      tag_546\n        /* \"#utility.yul\":8088:8092   */\n      dup2\n        /* \"#utility.yul\":8079:8085   */\n      dup5\n        /* \"#utility.yul\":8015:8093   */\n      tag_385\n      jump\t// in\n    tag_546:\n        /* \"#utility.yul\":8007:8093   */\n      swap1\n      pop\n        /* \"#utility.yul\":7787:8100   */\n      swap3\n      swap2\n      pop\n      pop\n      jump\t// out\n        /* \"#utility.yul\":8106:8940   */\n    tag_52:\n        /* \"#utility.yul\":8194:8200   */\n      0x00\n        /* \"#utility.yul\":8202:8208   */\n      dup1\n        /* \"#utility.yul\":8251:8253   */\n      0x40\n        /* \"#utility.yul\":8239:8248   */\n      dup4\n        /* \"#utility.yul\":8230:8237   */\n      dup6\n        /* \"#utility.yul\":8226:8249   */\n      sub\n        /* \"#utility.yul\":8222:8254   */\n      slt\n        /* \"#utility.yul\":8219:8338   */\n      iszero\n      tag_548\n      jumpi\n        /* \"#utility.yul\":8257:8336   */\n      tag_549\n      tag_362\n      jump\t// in\n    tag_549:\n        /* \"#utility.yul\":8219:8338   */\n    tag_548:\n        /* \"#utility.yul\":8405:8406   */\n      0x00\n        /* \"#utility.yul\":8394:8403   */\n      dup4\n        /* \"#utility.yul\":8390:8407   */\n      add\n        /* \"#utility.yul\":8377:8408   */\n      calldataload\n        /* \"#utility.yul\":8435:8453   */\n      0xffffffffffffffff\n        /* \"#utility.yul\":8427:8433   */\n      dup2\n        /* \"#utility.yul\":8424:8454   */\n      gt\n        /* \"#utility.yul\":8421:8538   */\n      iszero\n      tag_550\n      jumpi\n        /* \"#utility.yul\":8457:8536   */\n      tag_551\n      tag_363\n      jump\t// in\n    tag_551:\n        /* \"#utility.yul\":8421:8538   */\n    tag_550:\n        /* \"#utility.yul\":8562:8625   */\n      tag_552\n        /* \"#utility.yul\":8617:8624   */\n      dup6\n        /* \"#utility.yul\":8608:8614   */\n      dup3\n        /* \"#utility.yul\":8597:8606   */\n      dup7\n        /* \"#utility.yul\":8593:8615   */\n      add\n        /* \"#utility.yul\":8562:8625   */\n      tag_378\n      jump\t// in\n    tag_552:\n        /* \"#utility.yul\":8552:8625   */\n      swap3\n      pop\n        /* \"#utility.yul\":8348:8635   */\n      pop\n        /* \"#utility.yul\":8702:8704   */\n      0x20\n        /* \"#utility.yul\":8691:8700   */\n      dup4\n        /* \"#utility.yul\":8687:8705   */\n      add\n        /* \"#utility.yul\":8674:8706   */\n      calldataload\n        /* \"#utility.yul\":8733:8751   */\n      0xffffffffffffffff\n        /* \"#utility.yul\":8725:8731   */\n      dup2\n        /* \"#utility.yul\":8722:8752   */\n      gt\n        /* \"#utility.yul\":8719:8836   */\n      iszero\n      tag_553\n      jumpi\n        /* \"#utility.yul\":8755:8834   */\n      tag_554\n      tag_363\n      jump\t// in\n    tag_554:\n        /* \"#utility.yul\":8719:8836   */\n    tag_553:\n        /* \"#utility.yul\":8860:8923   */\n      tag_555\n        /* \"#utility.yul\":8915:8922   */\n      dup6\n        /* \"#utility.yul\":8906:8912   */\n      dup3\n        /* \"#utility.yul\":8895:8904   */\n      dup7\n        /* \"#utility.yul\":8891:8913   */\n      add\n        /* \"#utility.yul\":8860:8923   */\n      tag_378\n      jump\t// in\n    tag_555:\n        /* \"#utility.yul\":8850:8923   */\n      swap2\n      pop\n        /* \"#utility.yul\":8645:8933   */\n      pop\n        /* \"#utility.yul\":8106:8940   */\n      swap3\n      pop\n      swap3\n      swap1\n      pop\n      jump\t// out\n        /* \"#utility.yul\":8946:9600   */\n    tag_58:\n        /* \"#utility.yul\":9024:9030   */\n      0x00\n        /* \"#utility.yul\":9032:9038   */\n      dup1\n        /* \"#utility.yul\":9081:9083   */\n      0x40\n        /* \"#utility.yul\":9069:9078   */\n      dup4\n        /* \"#utility.yul\":9060:9067   */\n      dup6\n        /* \"#utility.yul\":9056:9079   */\n      sub\n        /* \"#utility.yul\":9052:9084   */\n      slt\n        /* \"#utility.yul\":9049:9168   */\n      iszero\n      tag_557\n      jumpi\n        /* \"#utility.yul\":9087:9166   */\n      tag_558\n      tag_362\n      jump\t// in\n    tag_558:\n        /* \"#utility.yul\":9049:9168   */\n    tag_557:\n        /* \"#utility.yul\":9207:9208   */\n      0x00\n        /* \"#utility.yul\":9232:9285   */\n      tag_559\n        /* \"#utility.yul\":9277:9284   */\n      dup6\n        /* \"#utility.yul\":9268:9274   */\n      dup3\n        /* \"#utility.yul\":9257:9266   */\n      dup7\n        /* \"#utility.yul\":9253:9275   */\n      add\n        /* \"#utility.yul\":9232:9285   */\n      tag_366\n      jump\t// in\n    tag_559:\n        /* \"#utility.yul\":9222:9285   */\n      swap3\n      pop\n        /* \"#utility.yul\":9178:9295   */\n      pop\n        /* \"#utility.yul\":9362:9364   */\n      0x20\n        /* \"#utility.yul\":9351:9360   */\n      dup4\n        /* \"#utility.yul\":9347:9365   */\n      add\n        /* \"#utility.yul\":9334:9366   */\n      calldataload\n        /* \"#utility.yul\":9393:9411   */\n      0xffffffffffffffff\n        /* \"#utility.yul\":9385:9391   */\n      dup2\n        /* \"#utility.yul\":9382:9412   */\n      gt\n        /* \"#utility.yul\":9379:9496   */\n      iszero\n      tag_560\n      jumpi\n        /* \"#utility.yul\":9415:9494   */\n      tag_561\n      tag_363\n      jump\t// in\n    tag_561:\n        /* \"#utility.yul\":9379:9496   */\n    tag_560:\n        /* \"#utility.yul\":9520:9583   */\n      tag_562\n        /* \"#utility.yul\":9575:9582   */\n      dup6\n        /* \"#utility.yul\":9566:9572   */\n      dup3\n        /* \"#utility.yul\":9555:9564   */\n      dup7\n        /* \"#utility.yul\":9551:9573   */\n      add\n        /* \"#utility.yul\":9520:9583   */\n      tag_378\n      jump\t// in\n    tag_562:\n        /* \"#utility.yul\":9510:9583   */\n      swap2\n      pop\n        /* \"#utility.yul\":9305:9593   */\n      pop\n        /* \"#utility.yul\":8946:9600   */\n      swap3\n      pop\n      swap3\n      swap1\n      pop\n      jump\t// out\n        /* \"#utility.yul\":9606:9722   */\n    tag_386:\n        /* \"#utility.yul\":9696:9697   */\n      0x03\n        /* \"#utility.yul\":9689:9694   */\n      dup2\n        /* \"#utility.yul\":9686:9698   */\n      lt\n        /* \"#utility.yul\":9676:9716   */\n      tag_564\n      jumpi\n        /* \"#utility.yul\":9712:9713   */\n      0x00\n        /* \"#utility.yul\":9709:9710   */\n      dup1\n        /* \"#utility.yul\":9702:9714   */\n      revert\n        /* \"#utility.yul\":9676:9716   */\n    tag_564:\n        /* \"#utility.yul\":9606:9722   */\n      pop\n      jump\t// out\n        /* \"#utility.yul\":9728:9901   */\n    tag_387:\n        /* \"#utility.yul\":9791:9796   */\n      0x00\n        /* \"#utility.yul\":9829:9835   */\n      dup2\n        /* \"#utility.yul\":9816:9836   */\n      calldataload\n        /* \"#utility.yul\":9807:9836   */\n      swap1\n      pop\n        /* \"#utility.yul\":9845:9895   */\n      tag_566\n        /* \"#utility.yul\":9889:9894   */\n      dup2\n        /* \"#utility.yul\":9845:9895   */\n      tag_386\n      jump\t// in\n    tag_566:\n        /* \"#utility.yul\":9728:9901   */\n      swap3\n      swap2\n      pop\n      pop\n      jump\t// out\n        /* \"#utility.yul\":9907:11538   */\n    tag_63:\n        /* \"#utility.yul\":10058:10064   */\n      0x00\n        /* \"#utility.yul\":10066:10072   */\n      dup1\n        /* \"#utility.yul\":10074:10080   */\n      0x00\n        /* \"#utility.yul\":10082:10088   */\n      dup1\n        /* \"#utility.yul\":10090:10096   */\n      0x00\n        /* \"#utility.yul\":10098:10104   */\n      dup1\n        /* \"#utility.yul\":10147:10150   */\n      0xc0\n        /* \"#utility.yul\":10135:10144   */\n      dup8\n        /* \"#utility.yul\":10126:10133   */\n      dup10\n        /* \"#utility.yul\":10122:10145   */\n      sub\n        /* \"#utility.yul\":10118:10151   */\n      slt\n        /* \"#utility.yul\":10115:10235   */\n      iszero\n      tag_568\n      jumpi\n        /* \"#utility.yul\":10154:10233   */\n      tag_569\n      tag_362\n      jump\t// in\n    tag_569:\n        /* \"#utility.yul\":10115:10235   */\n    tag_568:\n        /* \"#utility.yul\":10274:10275   */\n      0x00\n        /* \"#utility.yul\":10299:10352   */\n      tag_570\n        /* \"#utility.yul\":10344:10351   */\n      dup10\n        /* \"#utility.yul\":10335:10341   */\n      dup3\n        /* \"#utility.yul\":10324:10333   */\n      dup11\n        /* \"#utility.yul\":10320:10342   */\n      add\n        /* \"#utility.yul\":10299:10352   */\n      tag_366\n      jump\t// in\n    tag_570:\n        /* \"#utility.yul\":10289:10352   */\n      swap7\n      pop\n        /* \"#utility.yul\":10245:10362   */\n      pop\n        /* \"#utility.yul\":10429:10431   */\n      0x20\n        /* \"#utility.yul\":10418:10427   */\n      dup8\n        /* \"#utility.yul\":10414:10432   */\n      add\n        /* \"#utility.yul\":10401:10433   */\n      calldataload\n        /* \"#utility.yul\":10460:10478   */\n      0xffffffffffffffff\n        /* \"#utility.yul\":10452:10458   */\n      dup2\n        /* \"#utility.yul\":10449:10479   */\n      gt\n        /* \"#utility.yul\":10446:10563   */\n      iszero\n      tag_571\n      jumpi\n        /* \"#utility.yul\":10482:10561   */\n      tag_572\n      tag_363\n      jump\t// in\n    tag_572:\n        /* \"#utility.yul\":10446:10563   */\n    tag_571:\n        /* \"#utility.yul\":10587:10650   */\n      tag_573\n        /* \"#utility.yul\":10642:10649   */\n      dup10\n        /* \"#utility.yul\":10633:10639   */\n      dup3\n        /* \"#utility.yul\":10622:10631   */\n      dup11\n        /* \"#utility.yul\":10618:10640   */\n      add\n        /* \"#utility.yul\":10587:10650   */\n      tag_378\n      jump\t// in\n    tag_573:\n        /* \"#utility.yul\":10577:10650   */\n      swap6\n      pop\n        /* \"#utility.yul\":10372:10660   */\n      pop\n        /* \"#utility.yul\":10699:10701   */\n      0x40\n        /* \"#utility.yul\":10725:10778   */\n      tag_574\n        /* \"#utility.yul\":10770:10777   */\n      dup10\n        /* \"#utility.yul\":10761:10767   */\n      dup3\n        /* \"#utility.yul\":10750:10759   */\n      dup11\n        /* \"#utility.yul\":10746:10768   */\n      add\n        /* \"#utility.yul\":10725:10778   */\n      tag_366\n      jump\t// in\n    tag_574:\n        /* \"#utility.yul\":10715:10778   */\n      swap5\n      pop\n        /* \"#utility.yul\":10670:10788   */\n      pop\n        /* \"#utility.yul\":10827:10829   */\n      0x60\n        /* \"#utility.yul\":10853:10923   */\n      tag_575\n        /* \"#utility.yul\":10915:10922   */\n      dup10\n        /* \"#utility.yul\":10906:10912   */\n      dup3\n        /* \"#utility.yul\":10895:10904   */\n      dup11\n        /* \"#utility.yul\":10891:10913   */\n      add\n        /* \"#utility.yul\":10853:10923   */\n      tag_387\n      jump\t// in\n    tag_575:\n        /* \"#utility.yul\":10843:10923   */\n      swap4\n      pop\n        /* \"#utility.yul\":10798:10933   */\n      pop\n        /* \"#utility.yul\":11000:11003   */\n      0x80\n        /* \"#utility.yul\":10989:10998   */\n      dup8\n        /* \"#utility.yul\":10985:11004   */\n      add\n        /* \"#utility.yul\":10972:11005   */\n      calldataload\n        /* \"#utility.yul\":11032:11050   */\n      0xffffffffffffffff\n        /* \"#utility.yul\":11024:11030   */\n      dup2\n        /* \"#utility.yul\":11021:11051   */\n      gt\n        /* \"#utility.yul\":11018:11135   */\n      iszero\n      tag_576\n      jumpi\n        /* \"#utility.yul\":11054:11133   */\n      tag_577\n      tag_363\n      jump\t// in\n    tag_577:\n        /* \"#utility.yul\":11018:11135   */\n    tag_576:\n        /* \"#utility.yul\":11159:11222   */\n      tag_578\n        /* \"#utility.yul\":11214:11221   */\n      dup10\n        /* \"#utility.yul\":11205:11211   */\n      dup3\n        /* \"#utility.yul\":11194:11203   */\n      dup11\n        /* \"#utility.yul\":11190:11212   */\n      add\n        /* \"#utility.yul\":11159:11222   */\n      tag_378\n      jump\t// in\n    tag_578:\n        /* \"#utility.yul\":11149:11222   */\n      swap3\n      pop\n        /* \"#utility.yul\":10943:11232   */\n      pop\n        /* \"#utility.yul\":11299:11302   */\n      0xa0\n        /* \"#utility.yul\":11288:11297   */\n      dup8\n        /* \"#utility.yul\":11284:11303   */\n      add\n        /* \"#utility.yul\":11271:11304   */\n      calldataload\n        /* \"#utility.yul\":11331:11349   */\n      0xffffffffffffffff\n        /* \"#utility.yul\":11323:11329   */\n      dup2\n        /* \"#utility.yul\":11320:11350   */\n      gt\n        /* \"#utility.yul\":11317:11434   */\n      iszero\n      tag_579\n      jumpi\n        /* \"#utility.yul\":11353:11432   */\n      tag_580\n      tag_363\n      jump\t// in\n    tag_580:\n        /* \"#utility.yul\":11317:11434   */\n    tag_579:\n        /* \"#utility.yul\":11458:11521   */\n      tag_581\n        /* \"#utility.yul\":11513:11520   */\n      dup10\n        /* \"#utility.yul\":11504:11510   */\n      dup3\n        /* \"#utility.yul\":11493:11502   */\n      dup11\n        /* \"#utility.yul\":11489:11511   */\n      add\n        /* \"#utility.yul\":11458:11521   */\n      tag_378\n      jump\t// in\n    tag_581:\n        /* \"#utility.yul\":11448:11521   */\n      swap2\n      pop\n        /* \"#utility.yul\":11242:11531   */\n      pop\n        /* \"#utility.yul\":9907:11538   */\n      swap3\n      swap6\n      pop\n      swap3\n      swap6\n      pop\n      swap3\n      swap6\n      jump\t// out\n        /* \"#utility.yul\":11544:13827   */\n    tag_69:\n        /* \"#utility.yul\":11717:11723   */\n      0x00\n        /* \"#utility.yul\":11725:11731   */\n      dup1\n        /* \"#utility.yul\":11733:11739   */\n      0x00\n        /* \"#utility.yul\":11741:11747   */\n      dup1\n        /* \"#utility.yul\":11749:11755   */\n      0x00\n        /* \"#utility.yul\":11757:11763   */\n      dup1\n        /* \"#utility.yul\":11765:11771   */\n      0x00\n        /* \"#utility.yul\":11814:11817   */\n      0xe0\n        /* \"#utility.yul\":11802:11811   */\n      dup9\n        /* \"#utility.yul\":11793:11800   */\n      dup11\n        /* \"#utility.yul\":11789:11812   */\n      sub\n        /* \"#utility.yul\":11785:11818   */\n      slt\n        /* \"#utility.yul\":11782:11902   */\n      iszero\n      tag_583\n      jumpi\n        /* \"#utility.yul\":11821:11900   */\n      tag_584\n      tag_362\n      jump\t// in\n    tag_584:\n        /* \"#utility.yul\":11782:11902   */\n    tag_583:\n        /* \"#utility.yul\":11941:11942   */\n      0x00\n        /* \"#utility.yul\":11966:12019   */\n      tag_585\n        /* \"#utility.yul\":12011:12018   */\n      dup11\n        /* \"#utility.yul\":12002:12008   */\n      dup3\n        /* \"#utility.yul\":11991:12000   */\n      dup12\n        /* \"#utility.yul\":11987:12009   */\n      add\n        /* \"#utility.yul\":11966:12019   */\n      tag_366\n      jump\t// in\n    tag_585:\n        /* \"#utility.yul\":11956:12019   */\n      swap8\n      pop\n        /* \"#utility.yul\":11912:12029   */\n      pop\n        /* \"#utility.yul\":12096:12098   */\n      0x20\n        /* \"#utility.yul\":12085:12094   */\n      dup9\n        /* \"#utility.yul\":12081:12099   */\n      add\n        /* \"#utility.yul\":12068:12100   */\n      calldataload\n        /* \"#utility.yul\":12127:12145   */\n      0xffffffffffffffff\n        /* \"#utility.yul\":12119:12125   */\n      dup2\n        /* \"#utility.yul\":12116:12146   */\n      gt\n        /* \"#utility.yul\":12113:12230   */\n      iszero\n      tag_586\n      jumpi\n        /* \"#utility.yul\":12149:12228   */\n      tag_587\n      tag_363\n      jump\t// in\n    tag_587:\n        /* \"#utility.yul\":12113:12230   */\n    tag_586:\n        /* \"#utility.yul\":12254:12317   */\n      tag_588\n        /* \"#utility.yul\":12309:12316   */\n      dup11\n        /* \"#utility.yul\":12300:12306   */\n      dup3\n        /* \"#utility.yul\":12289:12298   */\n      dup12\n        /* \"#utility.yul\":12285:12307   */\n      add\n        /* \"#utility.yul\":12254:12317   */\n      tag_378\n      jump\t// in\n    tag_588:\n        /* \"#utility.yul\":12244:12317   */\n      swap7\n      pop\n        /* \"#utility.yul\":12039:12327   */\n      pop\n        /* \"#utility.yul\":12394:12396   */\n      0x40\n        /* \"#utility.yul\":12383:12392   */\n      dup9\n        /* \"#utility.yul\":12379:12397   */\n      add\n        /* \"#utility.yul\":12366:12398   */\n      calldataload\n        /* \"#utility.yul\":12425:12443   */\n      0xffffffffffffffff\n        /* \"#utility.yul\":12417:12423   */\n      dup2\n        /* \"#utility.yul\":12414:12444   */\n      gt\n        /* \"#utility.yul\":12411:12528   */\n      iszero\n      tag_589\n      jumpi\n        /* \"#utility.yul\":12447:12526   */\n      tag_590\n      tag_363\n      jump\t// in\n    tag_590:\n        /* \"#utility.yul\":12411:12528   */\n    tag_589:\n        /* \"#utility.yul\":12552:12615   */\n      tag_591\n        /* \"#utility.yul\":12607:12614   */\n      dup11\n        /* \"#utility.yul\":12598:12604   */\n      dup3\n        /* \"#utility.yul\":12587:12596   */\n      dup12\n        /* \"#utility.yul\":12583:12605   */\n      add\n        /* \"#utility.yul\":12552:12615   */\n      tag_378\n      jump\t// in\n    tag_591:\n        /* \"#utility.yul\":12542:12615   */\n      swap6\n      pop\n        /* \"#utility.yul\":12337:12625   */\n      pop\n        /* \"#utility.yul\":12692:12694   */\n      0x60\n        /* \"#utility.yul\":12681:12690   */\n      dup9\n        /* \"#utility.yul\":12677:12695   */\n      add\n        /* \"#utility.yul\":12664:12696   */\n      calldataload\n        /* \"#utility.yul\":12723:12741   */\n      0xffffffffffffffff\n        /* \"#utility.yul\":12715:12721   */\n      dup2\n        /* \"#utility.yul\":12712:12742   */\n      gt\n        /* \"#utility.yul\":12709:12826   */\n      iszero\n      tag_592\n      jumpi\n        /* \"#utility.yul\":12745:12824   */\n      tag_593\n      tag_363\n      jump\t// in\n    tag_593:\n        /* \"#utility.yul\":12709:12826   */\n    tag_592:\n        /* \"#utility.yul\":12850:12913   */\n      tag_594\n        /* \"#utility.yul\":12905:12912   */\n      dup11\n        /* \"#utility.yul\":12896:12902   */\n      dup3\n        /* \"#utility.yul\":12885:12894   */\n      dup12\n        /* \"#utility.yul\":12881:12903   */\n      add\n        /* \"#utility.yul\":12850:12913   */\n      tag_378\n      jump\t// in\n    tag_594:\n        /* \"#utility.yul\":12840:12913   */\n      swap5\n      pop\n        /* \"#utility.yul\":12635:12923   */\n      pop\n        /* \"#utility.yul\":12990:12993   */\n      0x80\n        /* \"#utility.yul\":12979:12988   */\n      dup9\n        /* \"#utility.yul\":12975:12994   */\n      add\n        /* \"#utility.yul\":12962:12995   */\n      calldataload\n        /* \"#utility.yul\":13022:13040   */\n      0xffffffffffffffff\n        /* \"#utility.yul\":13014:13020   */\n      dup2\n        /* \"#utility.yul\":13011:13041   */\n      gt\n        /* \"#utility.yul\":13008:13125   */\n      iszero\n      tag_595\n      jumpi\n        /* \"#utility.yul\":13044:13123   */\n      tag_596\n      tag_363\n      jump\t// in\n    tag_596:\n        /* \"#utility.yul\":13008:13125   */\n    tag_595:\n        /* \"#utility.yul\":13149:13212   */\n      tag_597\n        /* \"#utility.yul\":13204:13211   */\n      dup11\n        /* \"#utility.yul\":13195:13201   */\n      dup3\n        /* \"#utility.yul\":13184:13193   */\n      dup12\n        /* \"#utility.yul\":13180:13202   */\n      add\n        /* \"#utility.yul\":13149:13212   */\n      tag_378\n      jump\t// in\n    tag_597:\n        /* \"#utility.yul\":13139:13212   */\n      swap4\n      pop\n        /* \"#utility.yul\":12933:13222   */\n      pop\n        /* \"#utility.yul\":13289:13292   */\n      0xa0\n        /* \"#utility.yul\":13278:13287   */\n      dup9\n        /* \"#utility.yul\":13274:13293   */\n      add\n        /* \"#utility.yul\":13261:13294   */\n      calldataload\n        /* \"#utility.yul\":13321:13339   */\n      0xffffffffffffffff\n        /* \"#utility.yul\":13313:13319   */\n      dup2\n        /* \"#utility.yul\":13310:13340   */\n      gt\n        /* \"#utility.yul\":13307:13424   */\n      iszero\n      tag_598\n      jumpi\n        /* \"#utility.yul\":13343:13422   */\n      tag_599\n      tag_363\n      jump\t// in\n    tag_599:\n        /* \"#utility.yul\":13307:13424   */\n    tag_598:\n        /* \"#utility.yul\":13448:13511   */\n      tag_600\n        /* \"#utility.yul\":13503:13510   */\n      dup11\n        /* \"#utility.yul\":13494:13500   */\n      dup3\n        /* \"#utility.yul\":13483:13492   */\n      dup12\n        /* \"#utility.yul\":13479:13501   */\n      add\n        /* \"#utility.yul\":13448:13511   */\n      tag_378\n      jump\t// in\n    tag_600:\n        /* \"#utility.yul\":13438:13511   */\n      swap3\n      pop\n        /* \"#utility.yul\":13232:13521   */\n      pop\n        /* \"#utility.yul\":13588:13591   */\n      0xc0\n        /* \"#utility.yul\":13577:13586   */\n      dup9\n        /* \"#utility.yul\":13573:13592   */\n      add\n        /* \"#utility.yul\":13560:13593   */\n      calldataload\n        /* \"#utility.yul\":13620:13638   */\n      0xffffffffffffffff\n        /* \"#utility.yul\":13612:13618   */\n      dup2\n        /* \"#utility.yul\":13609:13639   */\n      gt\n        /* \"#utility.yul\":13606:13723   */\n      iszero\n      tag_601\n      jumpi\n        /* \"#utility.yul\":13642:13721   */\n      tag_602\n      tag_363\n      jump\t// in\n    tag_602:\n        /* \"#utility.yul\":13606:13723   */\n    tag_601:\n        /* \"#utility.yul\":13747:13810   */\n      tag_603\n        /* \"#utility.yul\":13802:13809   */\n      dup11\n        /* \"#utility.yul\":13793:13799   */\n      dup3\n        /* \"#utility.yul\":13782:13791   */\n      dup12\n        /* \"#utility.yul\":13778:13800   */\n      add\n        /* \"#utility.yul\":13747:13810   */\n      tag_378\n      jump\t// in\n    tag_603:\n        /* \"#utility.yul\":13737:13810   */\n      swap2\n      pop\n        /* \"#utility.yul\":13531:13820   */\n      pop\n        /* \"#utility.yul\":11544:13827   */\n      swap3\n      swap6\n      swap9\n      swap2\n      swap5\n      swap8\n      pop\n      swap3\n      swap6\n      pop\n      jump\t// out\n        /* \"#utility.yul\":13833:14452   */\n    tag_75:\n        /* \"#utility.yul\":13910:13916   */\n      0x00\n        /* \"#utility.yul\":13918:13924   */\n      dup1\n        /* \"#utility.yul\":13926:13932   */\n      0x00\n        /* \"#utility.yul\":13975:13977   */\n      0x60\n        /* \"#utility.yul\":13963:13972   */\n      dup5\n        /* \"#utility.yul\":13954:13961   */\n      dup7\n        /* \"#utility.yul\":13950:13973   */\n      sub\n        /* \"#utility.yul\":13946:13978   */\n      slt\n        /* \"#utility.yul\":13943:14062   */\n      iszero\n      tag_605\n      jumpi\n        /* \"#utility.yul\":13981:14060   */\n      tag_606\n      tag_362\n      jump\t// in\n    tag_606:\n        /* \"#utility.yul\":13943:14062   */\n    tag_605:\n        /* \"#utility.yul\":14101:14102   */\n      0x00\n        /* \"#utility.yul\":14126:14179   */\n      tag_607\n        /* \"#utility.yul\":14171:14178   */\n      dup7\n        /* \"#utility.yul\":14162:14168   */\n      dup3\n        /* \"#utility.yul\":14151:14160   */\n      dup8\n        /* \"#utility.yul\":14147:14169   */\n      add\n        /* \"#utility.yul\":14126:14179   */\n      tag_366\n      jump\t// in\n    tag_607:\n        /* \"#utility.yul\":14116:14179   */\n      swap4\n      pop\n        /* \"#utility.yul\":14072:14189   */\n      pop\n        /* \"#utility.yul\":14228:14230   */\n      0x20\n        /* \"#utility.yul\":14254:14307   */\n      tag_608\n        /* \"#utility.yul\":14299:14306   */\n      dup7\n        /* \"#utility.yul\":14290:14296   */\n      dup3\n        /* \"#utility.yul\":14279:14288   */\n      dup8\n        /* \"#utility.yul\":14275:14297   */\n      add\n        /* \"#utility.yul\":14254:14307   */\n      tag_366\n      jump\t// in\n    tag_608:\n        /* \"#utility.yul\":14244:14307   */\n      swap3\n      pop\n        /* \"#utility.yul\":14199:14317   */\n      pop\n        /* \"#utility.yul\":14356:14358   */\n      0x40\n        /* \"#utility.yul\":14382:14435   */\n      tag_609\n        /* \"#utility.yul\":14427:14434   */\n      dup7\n        /* \"#utility.yul\":14418:14424   */\n      dup3\n        /* \"#utility.yul\":14407:14416   */\n      dup8\n        /* \"#utility.yul\":14403:14425   */\n      add\n        /* \"#utility.yul\":14382:14435   */\n      tag_366\n      jump\t// in\n    tag_609:\n        /* \"#utility.yul\":14372:14435   */\n      swap2\n      pop\n        /* \"#utility.yul\":14327:14445   */\n      pop\n        /* \"#utility.yul\":13833:14452   */\n      swap3\n      pop\n      swap3\n      pop\n      swap3\n      jump\t// out\n        /* \"#utility.yul\":14458:14638   */\n    tag_269:\n        /* \"#utility.yul\":14506:14583   */\n      0x4e487b7100000000000000000000000000000000000000000000000000000000\n        /* \"#utility.yul\":14503:14504   */\n      0x00\n        /* \"#utility.yul\":14496:14584   */\n      mstore\n        /* \"#utility.yul\":14603:14607   */\n      0x21\n        /* \"#utility.yul\":14600:14601   */\n      0x04\n        /* \"#utility.yul\":14593:14608   */\n      mstore\n        /* \"#utility.yul\":14627:14631   */\n      0x24\n        /* \"#utility.yul\":14624:14625   */\n      0x00\n        /* \"#utility.yul\":14617:14632   */\n      revert\n        /* \"#utility.yul\":14644:14766   */\n    tag_388:\n        /* \"#utility.yul\":14734:14735   */\n      0x03\n        /* \"#utility.yul\":14727:14732   */\n      dup2\n        /* \"#utility.yul\":14724:14736   */\n      lt\n        /* \"#utility.yul\":14714:14760   */\n      tag_612\n      jumpi\n        /* \"#utility.yul\":14740:14758   */\n      tag_613\n      tag_269\n      jump\t// in\n    tag_613:\n        /* \"#utility.yul\":14714:14760   */\n    tag_612:\n        /* \"#utility.yul\":14644:14766   */\n      pop\n      jump\t// out\n        /* \"#utility.yul\":14772:14917   */\n    tag_389:\n        /* \"#utility.yul\":14826:14833   */\n      0x00\n        /* \"#utility.yul\":14855:14860   */\n      dup2\n        /* \"#utility.yul\":14844:14860   */\n      swap1\n      pop\n        /* \"#utility.yul\":14861:14911   */\n      tag_615\n        /* \"#utility.yul\":14905:14910   */\n      dup3\n        /* \"#utility.yul\":14861:14911   */\n      tag_388\n      jump\t// in\n    tag_615:\n        /* \"#utility.yul\":14772:14917   */\n      swap2\n      swap1\n      pop\n      jump\t// out\n        /* \"#utility.yul\":14923:15068   */\n    tag_390:\n        /* \"#utility.yul\":14988:14997   */\n      0x00\n        /* \"#utility.yul\":15021:15062   */\n      tag_617\n        /* \"#utility.yul\":15056:15061   */\n      dup3\n        /* \"#utility.yul\":15021:15062   */\n      tag_389\n      jump\t// in\n    tag_617:\n        /* \"#utility.yul\":15008:15062   */\n      swap1\n      pop\n        /* \"#utility.yul\":14923:15068   */\n      swap2\n      swap1\n      pop\n      jump\t// out\n        /* \"#utility.yul\":15074:15235   */\n    tag_391:\n        /* \"#utility.yul\":15176:15228   */\n      tag_619\n        /* \"#utility.yul\":15222:15227   */\n      dup2\n        /* \"#utility.yul\":15176:15228   */\n      tag_390\n      jump\t// in\n    tag_619:\n        /* \"#utility.yul\":15171:15174   */\n      dup3\n        /* \"#utility.yul\":15164:15229   */\n      mstore\n        /* \"#utility.yul\":15074:15235   */\n      pop\n      pop\n      jump\t// out\n        /* \"#utility.yul\":15241:15493   */\n    tag_83:\n        /* \"#utility.yul\":15349:15353   */\n      0x00\n        /* \"#utility.yul\":15387:15389   */\n      0x20\n        /* \"#utility.yul\":15376:15385   */\n      dup3\n        /* \"#utility.yul\":15372:15390   */\n      add\n        /* \"#utility.yul\":15364:15390   */\n      swap1\n      pop\n        /* \"#utility.yul\":15400:15486   */\n      tag_621\n        /* \"#utility.yul\":15483:15484   */\n      0x00\n        /* \"#utility.yul\":15472:15481   */\n      dup4\n        /* \"#utility.yul\":15468:15485   */\n      add\n        /* \"#utility.yul\":15459:15465   */\n      dup5\n        /* \"#utility.yul\":15400:15486   */\n      tag_391\n      jump\t// in\n    tag_621:\n        /* \"#utility.yul\":15241:15493   */\n      swap3\n      swap2\n      pop\n      pop\n      jump\t// out\n        /* \"#utility.yul\":15499:16624   */\n    tag_96:\n        /* \"#utility.yul\":15605:15611   */\n      0x00\n        /* \"#utility.yul\":15613:15619   */\n      dup1\n        /* \"#utility.yul\":15621:15627   */\n      0x00\n        /* \"#utility.yul\":15629:15635   */\n      dup1\n        /* \"#utility.yul\":15678:15681   */\n      0x80\n        /* \"#utility.yul\":15666:15675   */\n      dup6\n        /* \"#utility.yul\":15657:15664   */\n      dup8\n        /* \"#utility.yul\":15653:15676   */\n      sub\n        /* \"#utility.yul\":15649:15682   */\n      slt\n        /* \"#utility.yul\":15646:15766   */\n      iszero\n      tag_623\n      jumpi\n        /* \"#utility.yul\":15685:15764   */\n      tag_624\n      tag_362\n      jump\t// in\n    tag_624:\n        /* \"#utility.yul\":15646:15766   */\n    tag_623:\n        /* \"#utility.yul\":15805:15806   */\n      0x00\n        /* \"#utility.yul\":15830:15883   */\n      tag_625\n        /* \"#utility.yul\":15875:15882   */\n      dup8\n        /* \"#utility.yul\":15866:15872   */\n      dup3\n        /* \"#utility.yul\":15855:15864   */\n      dup9\n        /* \"#utility.yul\":15851:15873   */\n      add\n        /* \"#utility.yul\":15830:15883   */\n      tag_366\n      jump\t// in\n    tag_625:\n        /* \"#utility.yul\":15820:15883   */\n      swap5\n      pop\n        /* \"#utility.yul\":15776:15893   */\n      pop\n        /* \"#utility.yul\":15932:15934   */\n      0x20\n        /* \"#utility.yul\":15958:16011   */\n      tag_626\n        /* \"#utility.yul\":16003:16010   */\n      dup8\n        /* \"#utility.yul\":15994:16000   */\n      dup3\n        /* \"#utility.yul\":15983:15992   */\n      dup9\n        /* \"#utility.yul\":15979:16001   */\n      add\n        /* \"#utility.yul\":15958:16011   */\n      tag_366\n      jump\t// in\n    tag_626:\n        /* \"#utility.yul\":15948:16011   */\n      swap4\n      pop\n        /* \"#utility.yul\":15903:16021   */\n      pop\n        /* \"#utility.yul\":16088:16090   */\n      0x40\n        /* \"#utility.yul\":16077:16086   */\n      dup6\n        /* \"#utility.yul\":16073:16091   */\n      add\n        /* \"#utility.yul\":16060:16092   */\n      calldataload\n        /* \"#utility.yul\":16119:16137   */\n      0xffffffffffffffff\n        /* \"#utility.yul\":16111:16117   */\n      dup2\n        /* \"#utility.yul\":16108:16138   */\n      gt\n        /* \"#utility.yul\":16105:16222   */\n      iszero\n      tag_627\n      jumpi\n        /* \"#utility.yul\":16141:16220   */\n      tag_628\n      tag_363\n      jump\t// in\n    tag_628:\n        /* \"#utility.yul\":16105:16222   */\n    tag_627:\n        /* \"#utility.yul\":16246:16309   */\n      tag_629\n        /* \"#utility.yul\":16301:16308   */\n      dup8\n        /* \"#utility.yul\":16292:16298   */\n      dup3\n        /* \"#utility.yul\":16281:16290   */\n      dup9\n        /* \"#utility.yul\":16277:16299   */\n      add\n        /* \"#utility.yul\":16246:16309   */\n      tag_378\n      jump\t// in\n    tag_629:\n        /* \"#utility.yul\":16236:16309   */\n      swap3\n      pop\n        /* \"#utility.yul\":16031:16319   */\n      pop\n        /* \"#utility.yul\":16386:16388   */\n      0x60\n        /* \"#utility.yul\":16375:16384   */\n      dup6\n        /* \"#utility.yul\":16371:16389   */\n      add\n        /* \"#utility.yul\":16358:16390   */\n      calldataload\n        /* \"#utility.yul\":16417:16435   */\n      0xffffffffffffffff\n        /* \"#utility.yul\":16409:16415   */\n      dup2\n        /* \"#utility.yul\":16406:16436   */\n      gt\n        /* \"#utility.yul\":16403:16520   */\n      iszero\n      tag_630\n      jumpi\n        /* \"#utility.yul\":16439:16518   */\n      tag_631\n      tag_363\n      jump\t// in\n    tag_631:\n        /* \"#utility.yul\":16403:16520   */\n    tag_630:\n        /* \"#utility.yul\":16544:16607   */\n      tag_632\n        /* \"#utility.yul\":16599:16606   */\n      dup8\n        /* \"#utility.yul\":16590:16596   */\n      dup3\n        /* \"#utility.yul\":16579:16588   */\n      dup9\n        /* \"#utility.yul\":16575:16597   */\n      add\n        /* \"#utility.yul\":16544:16607   */\n      tag_378\n      jump\t// in\n    tag_632:\n        /* \"#utility.yul\":16534:16607   */\n      swap2\n      pop\n        /* \"#utility.yul\":16329:16617   */\n      pop\n        /* \"#utility.yul\":15499:16624   */\n      swap3\n      swap6\n      swap2\n      swap5\n      pop\n      swap3\n      pop\n      jump\t// out\n        /* \"#utility.yul\":16630:16800   */\n    tag_392:\n        /* \"#utility.yul\":16770:16792   */\n      0x496e76616c696420686f73706974616c20696421000000000000000000000000\n        /* \"#utility.yul\":16766:16767   */\n      0x00\n        /* \"#utility.yul\":16758:16764   */\n      dup3\n        /* \"#utility.yul\":16754:16768   */\n      add\n        /* \"#utility.yul\":16747:16793   */\n      mstore\n        /* \"#utility.yul\":16630:16800   */\n      pop\n      jump\t// out\n        /* \"#utility.yul\":16806:17172   */\n    tag_393:\n        /* \"#utility.yul\":16948:16951   */\n      0x00\n        /* \"#utility.yul\":16969:17036   */\n      tag_635\n        /* \"#utility.yul\":17033:17035   */\n      0x14\n        /* \"#utility.yul\":17028:17031   */\n      dup4\n        /* \"#utility.yul\":16969:17036   */\n      tag_383\n      jump\t// in\n    tag_635:\n        /* \"#utility.yul\":16962:17036   */\n      swap2\n      pop\n        /* \"#utility.yul\":17045:17138   */\n      tag_636\n        /* \"#utility.yul\":17134:17137   */\n      dup3\n        /* \"#utility.yul\":17045:17138   */\n      tag_392\n      jump\t// in\n    tag_636:\n        /* \"#utility.yul\":17163:17165   */\n      0x20\n        /* \"#utility.yul\":17158:17161   */\n      dup3\n        /* \"#utility.yul\":17154:17166   */\n      add\n        /* \"#utility.yul\":17147:17166   */\n      swap1\n      pop\n        /* \"#utility.yul\":16806:17172   */\n      swap2\n      swap1\n      pop\n      jump\t// out\n        /* \"#utility.yul\":17178:17597   */\n    tag_108:\n        /* \"#utility.yul\":17344:17348   */\n      0x00\n        /* \"#utility.yul\":17382:17384   */\n      0x20\n        /* \"#utility.yul\":17371:17380   */\n      dup3\n        /* \"#utility.yul\":17367:17385   */\n      add\n        /* \"#utility.yul\":17359:17385   */\n      swap1\n      pop\n        /* \"#utility.yul\":17431:17440   */\n      dup2\n        /* \"#utility.yul\":17425:17429   */\n      dup2\n        /* \"#utility.yul\":17421:17441   */\n      sub\n        /* \"#utility.yul\":17417:17418   */\n      0x00\n        /* \"#utility.yul\":17406:17415   */\n      dup4\n        /* \"#utility.yul\":17402:17419   */\n      add\n        /* \"#utility.yul\":17395:17442   */\n      mstore\n        /* \"#utility.yul\":17459:17590   */\n      tag_638\n        /* \"#utility.yul\":17585:17589   */\n      dup2\n        /* \"#utility.yul\":17459:17590   */\n      tag_393\n      jump\t// in\n    tag_638:\n        /* \"#utility.yul\":17451:17590   */\n      swap1\n      pop\n        /* \"#utility.yul\":17178:17597   */\n      swap2\n      swap1\n      pop\n      jump\t// out\n        /* \"#utility.yul\":17603:17783   */\n    tag_394:\n        /* \"#utility.yul\":17651:17728   */\n      0x4e487b7100000000000000000000000000000000000000000000000000000000\n        /* \"#utility.yul\":17648:17649   */\n      0x00\n        /* \"#utility.yul\":17641:17729   */\n      mstore\n        /* \"#utility.yul\":17748:17752   */\n      0x22\n        /* \"#utility.yul\":17745:17746   */\n      0x04\n        /* \"#utility.yul\":17738:17753   */\n      mstore\n        /* \"#utility.yul\":17772:17776   */\n      0x24\n        /* \"#utility.yul\":17769:17770   */\n      0x00\n        /* \"#utility.yul\":17762:17777   */\n      revert\n        /* \"#utility.yul\":17789:18109   */\n    tag_126:\n        /* \"#utility.yul\":17833:17839   */\n      0x00\n        /* \"#utility.yul\":17870:17871   */\n      0x02\n        /* \"#utility.yul\":17864:17868   */\n      dup3\n        /* \"#utility.yul\":17860:17872   */\n      div\n        /* \"#utility.yul\":17850:17872   */\n      swap1\n      pop\n        /* \"#utility.yul\":17917:17918   */\n      0x01\n        /* \"#utility.yul\":17911:17915   */\n      dup3\n        /* \"#utility.yul\":17907:17919   */\n      and\n        /* \"#utility.yul\":17938:17956   */\n      dup1\n        /* \"#utility.yul\":17928:18009   */\n      tag_641\n      jumpi\n        /* \"#utility.yul\":17994:17998   */\n      0x7f\n        /* \"#utility.yul\":17986:17992   */\n      dup3\n        /* \"#utility.yul\":17982:17999   */\n      and\n        /* \"#utility.yul\":17972:17999   */\n      swap2\n      pop\n        /* \"#utility.yul\":17928:18009   */\n    tag_641:\n        /* \"#utility.yul\":18056:18058   */\n      0x20\n        /* \"#utility.yul\":18048:18054   */\n      dup3\n        /* \"#utility.yul\":18045:18059   */\n      lt\n        /* \"#utility.yul\":18025:18043   */\n      dup2\n        /* \"#utility.yul\":18022:18060   */\n      sub\n        /* \"#utility.yul\":18019:18103   */\n      tag_642\n      jumpi\n        /* \"#utility.yul\":18075:18093   */\n      tag_643\n      tag_394\n      jump\t// in\n    tag_643:\n        /* \"#utility.yul\":18019:18103   */\n    tag_642:\n        /* \"#utility.yul\":17840:18109   */\n      pop\n        /* \"#utility.yul\":17789:18109   */\n      swap2\n      swap1\n      pop\n      jump\t// out\n        /* \"#utility.yul\":18115:18262   */\n    tag_395:\n        /* \"#utility.yul\":18216:18227   */\n      0x00\n        /* \"#utility.yul\":18253:18256   */\n      dup2\n        /* \"#utility.yul\":18238:18256   */\n      swap1\n      pop\n        /* \"#utility.yul\":18115:18262   */\n      swap3\n      swap2\n      pop\n      pop\n      jump\t// out\n        /* \"#utility.yul\":18268:18408   */\n    tag_396:\n        /* \"#utility.yul\":18316:18320   */\n      0x00\n        /* \"#utility.yul\":18339:18342   */\n      dup2\n        /* \"#utility.yul\":18331:18342   */\n      swap1\n      pop\n        /* \"#utility.yul\":18362:18365   */\n      dup2\n        /* \"#utility.yul\":18359:18360   */\n      0x00\n        /* \"#utility.yul\":18352:18366   */\n      mstore\n        /* \"#utility.yul\":18396:18400   */\n      0x20\n        /* \"#utility.yul\":18393:18394   */\n      0x00\n        /* \"#utility.yul\":18383:18401   */\n      keccak256\n        /* \"#utility.yul\":18375:18401   */\n      swap1\n      pop\n        /* \"#utility.yul\":18268:18408   */\n      swap2\n      swap1\n      pop\n      jump\t// out\n        /* \"#utility.yul\":18436:19306   */\n    tag_397:\n        /* \"#utility.yul\":18537:18540   */\n      0x00\n        /* \"#utility.yul\":18574:18579   */\n      dup2\n        /* \"#utility.yul\":18568:18580   */\n      sload\n        /* \"#utility.yul\":18603:18639   */\n      tag_647\n        /* \"#utility.yul\":18629:18638   */\n      dup2\n        /* \"#utility.yul\":18603:18639   */\n      tag_126\n      jump\t// in\n    tag_647:\n        /* \"#utility.yul\":18655:18743   */\n      tag_648\n        /* \"#utility.yul\":18736:18742   */\n      dup2\n        /* \"#utility.yul\":18731:18734   */\n      dup7\n        /* \"#utility.yul\":18655:18743   */\n      tag_395\n      jump\t// in\n    tag_648:\n        /* \"#utility.yul\":18648:18743   */\n      swap5\n      pop\n        /* \"#utility.yul\":18774:18775   */\n      0x01\n        /* \"#utility.yul\":18763:18772   */\n      dup3\n        /* \"#utility.yul\":18759:18776   */\n      and\n        /* \"#utility.yul\":18790:18791   */\n      0x00\n        /* \"#utility.yul\":18785:18951   */\n      dup2\n      eq\n      tag_650\n      jumpi\n        /* \"#utility.yul\":18965:18966   */\n      0x01\n        /* \"#utility.yul\":18960:19300   */\n      dup2\n      eq\n      tag_651\n      jumpi\n        /* \"#utility.yul\":18752:19300   */\n      jump(tag_649)\n        /* \"#utility.yul\":18785:18951   */\n    tag_650:\n        /* \"#utility.yul\":18869:18873   */\n      0xff\n        /* \"#utility.yul\":18865:18874   */\n      not\n        /* \"#utility.yul\":18854:18863   */\n      dup4\n        /* \"#utility.yul\":18850:18875   */\n      and\n        /* \"#utility.yul\":18845:18848   */\n      dup7\n        /* \"#utility.yul\":18838:18876   */\n      mstore\n        /* \"#utility.yul\":18931:18937   */\n      dup2\n        /* \"#utility.yul\":18924:18938   */\n      iszero\n        /* \"#utility.yul\":18917:18939   */\n      iszero\n        /* \"#utility.yul\":18909:18915   */\n      dup3\n        /* \"#utility.yul\":18905:18940   */\n      mul\n        /* \"#utility.yul\":18900:18903   */\n      dup7\n        /* \"#utility.yul\":18896:18941   */\n      add\n        /* \"#utility.yul\":18889:18941   */\n      swap4\n      pop\n        /* \"#utility.yul\":18785:18951   */\n      jump(tag_649)\n        /* \"#utility.yul\":18960:19300   */\n    tag_651:\n        /* \"#utility.yul\":19027:19064   */\n      tag_652\n        /* \"#utility.yul\":19058:19063   */\n      dup6\n        /* \"#utility.yul\":19027:19064   */\n      tag_396\n      jump\t// in\n    tag_652:\n        /* \"#utility.yul\":19086:19087   */\n      0x00\n        /* \"#utility.yul\":19100:19254   */\n    tag_653:\n        /* \"#utility.yul\":19114:19120   */\n      dup4\n        /* \"#utility.yul\":19111:19112   */\n      dup2\n        /* \"#utility.yul\":19108:19121   */\n      lt\n        /* \"#utility.yul\":19100:19254   */\n      iszero\n      tag_655\n      jumpi\n        /* \"#utility.yul\":19188:19195   */\n      dup2\n        /* \"#utility.yul\":19182:19196   */\n      sload\n        /* \"#utility.yul\":19178:19179   */\n      dup2\n        /* \"#utility.yul\":19173:19176   */\n      dup10\n        /* \"#utility.yul\":19169:19180   */\n      add\n        /* \"#utility.yul\":19162:19197   */\n      mstore\n        /* \"#utility.yul\":19238:19239   */\n      0x01\n        /* \"#utility.yul\":19229:19236   */\n      dup3\n        /* \"#utility.yul\":19225:19240   */\n      add\n        /* \"#utility.yul\":19214:19240   */\n      swap2\n      pop\n        /* \"#utility.yul\":19136:19140   */\n      0x20\n        /* \"#utility.yul\":19133:19134   */\n      dup2\n        /* \"#utility.yul\":19129:19141   */\n      add\n        /* \"#utility.yul\":19124:19141   */\n      swap1\n      pop\n        /* \"#utility.yul\":19100:19254   */\n      jump(tag_653)\n    tag_655:\n        /* \"#utility.yul\":19283:19289   */\n      dup4\n        /* \"#utility.yul\":19278:19281   */\n      dup9\n        /* \"#utility.yul\":19274:19290   */\n      add\n        /* \"#utility.yul\":19267:19290   */\n      swap6\n      pop\n        /* \"#utility.yul\":18967:19300   */\n      pop\n      pop\n        /* \"#utility.yul\":18752:19300   */\n    tag_649:\n      pop\n        /* \"#utility.yul\":18541:19306   */\n      pop\n      pop\n        /* \"#utility.yul\":18436:19306   */\n      swap3\n      swap2\n      pop\n      pop\n      jump\t// out\n        /* \"#utility.yul\":19312:19577   */\n    tag_111:\n        /* \"#utility.yul\":19439:19442   */\n      0x00\n        /* \"#utility.yul\":19461:19551   */\n      tag_657\n        /* \"#utility.yul\":19547:19550   */\n      dup3\n        /* \"#utility.yul\":19538:19544   */\n      dup5\n        /* \"#utility.yul\":19461:19551   */\n      tag_397\n      jump\t// in\n    tag_657:\n        /* \"#utility.yul\":19454:19551   */\n      swap2\n      pop\n        /* \"#utility.yul\":19568:19571   */\n      dup2\n        /* \"#utility.yul\":19561:19571   */\n      swap1\n      pop\n        /* \"#utility.yul\":19312:19577   */\n      swap3\n      swap2\n      pop\n      pop\n      jump\t// out\n        /* \"#utility.yul\":19583:19741   */\n    tag_398:\n        /* \"#utility.yul\":19723:19733   */\n      0x70617373776f7264000000000000000000000000000000000000000000000000\n        /* \"#utility.yul\":19719:19720   */\n      0x00\n        /* \"#utility.yul\":19711:19717   */\n      dup3\n        /* \"#utility.yul\":19707:19721   */\n      add\n        /* \"#utility.yul\":19700:19734   */\n      mstore\n        /* \"#utility.yul\":19583:19741   */\n      pop\n      jump\t// out\n        /* \"#utility.yul\":19747:20112   */\n    tag_399:\n        /* \"#utility.yul\":19889:19892   */\n      0x00\n        /* \"#utility.yul\":19910:19976   */\n      tag_660\n        /* \"#utility.yul\":19974:19975   */\n      0x08\n        /* \"#utility.yul\":19969:19972   */\n      dup4\n        /* \"#utility.yul\":19910:19976   */\n      tag_383\n      jump\t// in\n    tag_660:\n        /* \"#utility.yul\":19903:19976   */\n      swap2\n      pop\n        /* \"#utility.yul\":19985:20078   */\n      tag_661\n        /* \"#utility.yul\":20074:20077   */\n      dup3\n        /* \"#utility.yul\":19985:20078   */\n      tag_398\n      jump\t// in\n    tag_661:\n        /* \"#utility.yul\":20103:20105   */\n      0x20\n        /* \"#utility.yul\":20098:20101   */\n      dup3\n        /* \"#utility.yul\":20094:20106   */\n      add\n        /* \"#utility.yul\":20087:20106   */\n      swap1\n      pop\n        /* \"#utility.yul\":19747:20112   */\n      swap2\n      swap1\n      pop\n      jump\t// out\n        /* \"#utility.yul\":20118:20738   */\n    tag_113:\n        /* \"#utility.yul\":20332:20336   */\n      0x00\n        /* \"#utility.yul\":20370:20372   */\n      0x40\n        /* \"#utility.yul\":20359:20368   */\n      dup3\n        /* \"#utility.yul\":20355:20373   */\n      add\n        /* \"#utility.yul\":20347:20373   */\n      swap1\n      pop\n        /* \"#utility.yul\":20419:20428   */\n      dup2\n        /* \"#utility.yul\":20413:20417   */\n      dup2\n        /* \"#utility.yul\":20409:20429   */\n      sub\n        /* \"#utility.yul\":20405:20406   */\n      0x00\n        /* \"#utility.yul\":20394:20403   */\n      dup4\n        /* \"#utility.yul\":20390:20407   */\n      add\n        /* \"#utility.yul\":20383:20430   */\n      mstore\n        /* \"#utility.yul\":20447:20525   */\n      tag_663\n        /* \"#utility.yul\":20520:20524   */\n      dup2\n        /* \"#utility.yul\":20511:20517   */\n      dup5\n        /* \"#utility.yul\":20447:20525   */\n      tag_385\n      jump\t// in\n    tag_663:\n        /* \"#utility.yul\":20439:20525   */\n      swap1\n      pop\n        /* \"#utility.yul\":20572:20581   */\n      dup2\n        /* \"#utility.yul\":20566:20570   */\n      dup2\n        /* \"#utility.yul\":20562:20582   */\n      sub\n        /* \"#utility.yul\":20557:20559   */\n      0x20\n        /* \"#utility.yul\":20546:20555   */\n      dup4\n        /* \"#utility.yul\":20542:20560   */\n      add\n        /* \"#utility.yul\":20535:20583   */\n      mstore\n        /* \"#utility.yul\":20600:20731   */\n      tag_664\n        /* \"#utility.yul\":20726:20730   */\n      dup2\n        /* \"#utility.yul\":20600:20731   */\n      tag_399\n      jump\t// in\n    tag_664:\n        /* \"#utility.yul\":20592:20731   */\n      swap1\n      pop\n        /* \"#utility.yul\":20118:20738   */\n      swap3\n      swap2\n      pop\n      pop\n      jump\t// out\n        /* \"#utility.yul\":20744:20909   */\n    tag_400:\n        /* \"#utility.yul\":20884:20901   */\n      0x57726f6e672070617373776f7264210000000000000000000000000000000000\n        /* \"#utility.yul\":20880:20881   */\n      0x00\n        /* \"#utility.yul\":20872:20878   */\n      dup3\n        /* \"#utility.yul\":20868:20882   */\n      add\n        /* \"#utility.yul\":20861:20902   */\n      mstore\n        /* \"#utility.yul\":20744:20909   */\n      pop\n      jump\t// out\n        /* \"#utility.yul\":20915:21281   */\n    tag_401:\n        /* \"#utility.yul\":21057:21060   */\n      0x00\n        /* \"#utility.yul\":21078:21145   */\n      tag_667\n        /* \"#utility.yul\":21142:21144   */\n      0x0f\n        /* \"#utility.yul\":21137:21140   */\n      dup4\n        /* \"#utility.yul\":21078:21145   */\n      tag_383\n      jump\t// in\n    tag_667:\n        /* \"#utility.yul\":21071:21145   */\n      swap2\n      pop\n        /* \"#utility.yul\":21154:21247   */\n      tag_668\n        /* \"#utility.yul\":21243:21246   */\n      dup3\n        /* \"#utility.yul\":21154:21247   */\n      tag_400\n      jump\t// in\n    tag_668:\n        /* \"#utility.yul\":21272:21274   */\n      0x20\n        /* \"#utility.yul\":21267:21270   */\n      dup3\n        /* \"#utility.yul\":21263:21275   */\n      add\n        /* \"#utility.yul\":21256:21275   */\n      swap1\n      pop\n        /* \"#utility.yul\":20915:21281   */\n      swap2\n      swap1\n      pop\n      jump\t// out\n        /* \"#utility.yul\":21287:21706   */\n    tag_116:\n        /* \"#utility.yul\":21453:21457   */\n      0x00\n        /* \"#utility.yul\":21491:21493   */\n      0x20\n        /* \"#utility.yul\":21480:21489   */\n      dup3\n        /* \"#utility.yul\":21476:21494   */\n      add\n        /* \"#utility.yul\":21468:21494   */\n      swap1\n      pop\n        /* \"#utility.yul\":21540:21549   */\n      dup2\n        /* \"#utility.yul\":21534:21538   */\n      dup2\n        /* \"#utility.yul\":21530:21550   */\n      sub\n        /* \"#utility.yul\":21526:21527   */\n      0x00\n        /* \"#utility.yul\":21515:21524   */\n      dup4\n        /* \"#utility.yul\":21511:21528   */\n      add\n        /* \"#utility.yul\":21504:21551   */\n      mstore\n        /* \"#utility.yul\":21568:21699   */\n      tag_670\n        /* \"#utility.yul\":21694:21698   */\n      dup2\n        /* \"#utility.yul\":21568:21699   */\n      tag_401\n      jump\t// in\n    tag_670:\n        /* \"#utility.yul\":21560:21699   */\n      swap1\n      pop\n        /* \"#utility.yul\":21287:21706   */\n      swap2\n      swap1\n      pop\n      jump\t// out\n        /* \"#utility.yul\":21712:21878   */\n    tag_402:\n        /* \"#utility.yul\":21852:21870   */\n      0x4e6f742072657175657374207965742100000000000000000000000000000000\n        /* \"#utility.yul\":21848:21849   */\n      0x00\n        /* \"#utility.yul\":21840:21846   */\n      dup3\n        /* \"#utility.yul\":21836:21850   */\n      add\n        /* \"#utility.yul\":21829:21871   */\n      mstore\n        /* \"#utility.yul\":21712:21878   */\n      pop\n      jump\t// out\n        /* \"#utility.yul\":21884:22250   */\n    tag_403:\n        /* \"#utility.yul\":22026:22029   */\n      0x00\n        /* \"#utility.yul\":22047:22114   */\n      tag_673\n        /* \"#utility.yul\":22111:22113   */\n      0x10\n        /* \"#utility.yul\":22106:22109   */\n      dup4\n        /* \"#utility.yul\":22047:22114   */\n      tag_383\n      jump\t// in\n    tag_673:\n        /* \"#utility.yul\":22040:22114   */\n      swap2\n      pop\n        /* \"#utility.yul\":22123:22216   */\n      tag_674\n        /* \"#utility.yul\":22212:22215   */\n      dup3\n        /* \"#utility.yul\":22123:22216   */\n      tag_402\n      jump\t// in\n    tag_674:\n        /* \"#utility.yul\":22241:22243   */\n      0x20\n        /* \"#utility.yul\":22236:22239   */\n      dup3\n        /* \"#utility.yul\":22232:22244   */\n      add\n        /* \"#utility.yul\":22225:22244   */\n      swap1\n      pop\n        /* \"#utility.yul\":21884:22250   */\n      swap2\n      swap1\n      pop\n      jump\t// out\n        /* \"#utility.yul\":22256:22675   */\n    tag_121:\n        /* \"#utility.yul\":22422:22426   */\n      0x00\n        /* \"#utility.yul\":22460:22462   */\n      0x20\n        /* \"#utility.yul\":22449:22458   */\n      dup3\n        /* \"#utility.yul\":22445:22463   */\n      add\n        /* \"#utility.yul\":22437:22463   */\n      swap1\n      pop\n        /* \"#utility.yul\":22509:22518   */\n      dup2\n        /* \"#utility.yul\":22503:22507   */\n      dup2\n        /* \"#utility.yul\":22499:22519   */\n      sub\n        /* \"#utility.yul\":22495:22496   */\n      0x00\n        /* \"#utility.yul\":22484:22493   */\n      dup4\n        /* \"#utility.yul\":22480:22497   */\n      add\n        /* \"#utility.yul\":22473:22520   */\n      mstore\n        /* \"#utility.yul\":22537:22668   */\n      tag_676\n        /* \"#utility.yul\":22663:22667   */\n      dup2\n        /* \"#utility.yul\":22537:22668   */\n      tag_403\n      jump\t// in\n    tag_676:\n        /* \"#utility.yul\":22529:22668   */\n      swap1\n      pop\n        /* \"#utility.yul\":22256:22675   */\n      swap2\n      swap1\n      pop\n      jump\t// out\n        /* \"#utility.yul\":22681:22861   */\n    tag_141:\n        /* \"#utility.yul\":22729:22806   */\n      0x4e487b7100000000000000000000000000000000000000000000000000000000\n        /* \"#utility.yul\":22726:22727   */\n      0x00\n        /* \"#utility.yul\":22719:22807   */\n      mstore\n        /* \"#utility.yul\":22826:22830   */\n      0x32\n        /* \"#utility.yul\":22823:22824   */\n      0x04\n        /* \"#utility.yul\":22816:22831   */\n      mstore\n        /* \"#utility.yul\":22850:22854   */\n      0x24\n        /* \"#utility.yul\":22847:22848   */\n      0x00\n        /* \"#utility.yul\":22840:22855   */\n      revert\n        /* \"#utility.yul\":22867:23047   */\n    tag_404:\n        /* \"#utility.yul\":22915:22992   */\n      0x4e487b7100000000000000000000000000000000000000000000000000000000\n        /* \"#utility.yul\":22912:22913   */\n      0x00\n        /* \"#utility.yul\":22905:22993   */\n      mstore\n        /* \"#utility.yul\":23012:23016   */\n      0x11\n        /* \"#utility.yul\":23009:23010   */\n      0x04\n        /* \"#utility.yul\":23002:23017   */\n      mstore\n        /* \"#utility.yul\":23036:23040   */\n      0x24\n        /* \"#utility.yul\":23033:23034   */\n      0x00\n        /* \"#utility.yul\":23026:23041   */\n      revert\n        /* \"#utility.yul\":23053:23286   */\n    tag_144:\n        /* \"#utility.yul\":23092:23095   */\n      0x00\n        /* \"#utility.yul\":23115:23139   */\n      tag_680\n        /* \"#utility.yul\":23133:23138   */\n      dup3\n        /* \"#utility.yul\":23115:23139   */\n      tag_364\n      jump\t// in\n    tag_680:\n        /* \"#utility.yul\":23106:23139   */\n      swap2\n      pop\n        /* \"#utility.yul\":23161:23227   */\n      0xffffffffffffffffffffffffffffffffffffffffffffffffffffffffffffffff\n        /* \"#utility.yul\":23154:23159   */\n      dup3\n        /* \"#utility.yul\":23151:23228   */\n      sub\n        /* \"#utility.yul\":23148:23251   */\n      tag_681\n      jumpi\n        /* \"#utility.yul\":23231:23249   */\n      tag_682\n      tag_404\n      jump\t// in\n    tag_682:\n        /* \"#utility.yul\":23148:23251   */\n    tag_681:\n        /* \"#utility.yul\":23278:23279   */\n      0x01\n        /* \"#utility.yul\":23271:23276   */\n      dup3\n        /* \"#utility.yul\":23267:23280   */\n      add\n        /* \"#utility.yul\":23260:23280   */\n      swap1\n      pop\n        /* \"#utility.yul\":23053:23286   */\n      swap2\n      swap1\n      pop\n      jump\t// out\n        /* \"#utility.yul\":23292:23461   */\n    tag_405:\n        /* \"#utility.yul\":23432:23453   */\n      0x496e76616c696420726571756573742069642100000000000000000000000000\n        /* \"#utility.yul\":23428:23429   */\n      0x00\n        /* \"#utility.yul\":23420:23426   */\n      dup3\n        /* \"#utility.yul\":23416:23430   */\n      add\n        /* \"#utility.yul\":23409:23454   */\n      mstore\n        /* \"#utility.yul\":23292:23461   */\n      pop\n      jump\t// out\n        /* \"#utility.yul\":23467:23833   */\n    tag_406:\n        /* \"#utility.yul\":23609:23612   */\n      0x00\n        /* \"#utility.yul\":23630:23697   */\n      tag_685\n        /* \"#utility.yul\":23694:23696   */\n      0x13\n        /* \"#utility.yul\":23689:23692   */\n      dup4\n        /* \"#utility.yul\":23630:23697   */\n      tag_383\n      jump\t// in\n    tag_685:\n        /* \"#utility.yul\":23623:23697   */\n      swap2\n      pop\n        /* \"#utility.yul\":23706:23799   */\n      tag_686\n        /* \"#utility.yul\":23795:23798   */\n      dup3\n        /* \"#utility.yul\":23706:23799   */\n      tag_405\n      jump\t// in\n    tag_686:\n        /* \"#utility.yul\":23824:23826   */\n      0x20\n        /* \"#utility.yul\":23819:23822   */\n      dup3\n        /* \"#utility.yul\":23815:23827   */\n      add\n        /* \"#utility.yul\":23808:23827   */\n      swap1\n      pop\n        /* \"#utility.yul\":23467:23833   */\n      swap2\n      swap1\n      pop\n      jump\t// out\n        /* \"#utility.yul\":23839:24258   */\n    tag_147:\n        /* \"#utility.yul\":24005:24009   */\n      0x00\n        /* \"#utility.yul\":24043:24045   */\n      0x20\n        /* \"#utility.yul\":24032:24041   */\n      dup3\n        /* \"#utility.yul\":24028:24046   */\n      add\n        /* \"#utility.yul\":24020:24046   */\n      swap1\n      pop\n        /* \"#utility.yul\":24092:24101   */\n      dup2\n        /* \"#utility.yul\":24086:24090   */\n      dup2\n        /* \"#utility.yul\":24082:24102   */\n      sub\n        /* \"#utility.yul\":24078:24079   */\n      0x00\n        /* \"#utility.yul\":24067:24076   */\n      dup4\n        /* \"#utility.yul\":24063:24080   */\n      add\n        /* \"#utility.yul\":24056:24103   */\n      mstore\n        /* \"#utility.yul\":24120:24251   */\n      tag_688\n        /* \"#utility.yul\":24246:24250   */\n      dup2\n        /* \"#utility.yul\":24120:24251   */\n      tag_406\n      jump\t// in\n    tag_688:\n        /* \"#utility.yul\":24112:24251   */\n      swap1\n      pop\n        /* \"#utility.yul\":23839:24258   */\n      swap2\n      swap1\n      pop\n      jump\t// out\n        /* \"#utility.yul\":24264:24433   */\n    tag_407:\n        /* \"#utility.yul\":24404:24425   */\n      0x696e76616c6964204e524943206e756d62657200000000000000000000000000\n        /* \"#utility.yul\":24400:24401   */\n      0x00\n        /* \"#utility.yul\":24392:24398   */\n      dup3\n        /* \"#utility.yul\":24388:24402   */\n      add\n        /* \"#utility.yul\":24381:24426   */\n      mstore\n        /* \"#utility.yul\":24264:24433   */\n      pop\n      jump\t// out\n        /* \"#utility.yul\":24439:24805   */\n    tag_408:\n        /* \"#utility.yul\":24581:24584   */\n      0x00\n        /* \"#utility.yul\":24602:24669   */\n      tag_691\n        /* \"#utility.yul\":24666:24668   */\n      0x13\n        /* \"#utility.yul\":24661:24664   */\n      dup4\n        /* \"#utility.yul\":24602:24669   */\n      tag_383\n      jump\t// in\n    tag_691:\n        /* \"#utility.yul\":24595:24669   */\n      swap2\n      pop\n        /* \"#utility.yul\":24678:24771   */\n      tag_692\n        /* \"#utility.yul\":24767:24770   */\n      dup3\n        /* \"#utility.yul\":24678:24771   */\n      tag_407\n      jump\t// in\n    tag_692:\n        /* \"#utility.yul\":24796:24798   */\n      0x20\n        /* \"#utility.yul\":24791:24794   */\n      dup3\n        /* \"#utility.yul\":24787:24799   */\n      add\n        /* \"#utility.yul\":24780:24799   */\n      swap1\n      pop\n        /* \"#utility.yul\":24439:24805   */\n      swap2\n      swap1\n      pop\n      jump\t// out\n        /* \"#utility.yul\":24811:25230   */\n    tag_161:\n        /* \"#utility.yul\":24977:24981   */\n      0x00\n        /* \"#utility.yul\":25015:25017   */\n      0x20\n        /* \"#utility.yul\":25004:25013   */\n      dup3\n        /* \"#utility.yul\":25000:25018   */\n      add\n        /* \"#utility.yul\":24992:25018   */\n      swap1\n      pop\n        /* \"#utility.yul\":25064:25073   */\n      dup2\n        /* \"#utility.yul\":25058:25062   */\n      dup2\n        /* \"#utility.yul\":25054:25074   */\n      sub\n        /* \"#utility.yul\":25050:25051   */\n      0x00\n        /* \"#utility.yul\":25039:25048   */\n      dup4\n        /* \"#utility.yul\":25035:25052   */\n      add\n        /* \"#utility.yul\":25028:25075   */\n      mstore\n        /* \"#utility.yul\":25092:25223   */\n      tag_694\n        /* \"#utility.yul\":25218:25222   */\n      dup2\n        /* \"#utility.yul\":25092:25223   */\n      tag_408\n      jump\t// in\n    tag_694:\n        /* \"#utility.yul\":25084:25223   */\n      swap1\n      pop\n        /* \"#utility.yul\":24811:25230   */\n      swap2\n      swap1\n      pop\n      jump\t// out\n        /* \"#utility.yul\":25236:25388   */\n    tag_409:\n        /* \"#utility.yul\":25376:25380   */\n      0x6963000000000000000000000000000000000000000000000000000000000000\n        /* \"#utility.yul\":25372:25373   */\n      0x00\n        /* \"#utility.yul\":25364:25370   */\n      dup3\n        /* \"#utility.yul\":25360:25374   */\n      add\n        /* \"#utility.yul\":25353:25381   */\n      mstore\n        /* \"#utility.yul\":25236:25388   */\n      pop\n      jump\t// out\n        /* \"#utility.yul\":25394:25759   */\n    tag_410:\n        /* \"#utility.yul\":25536:25539   */\n      0x00\n        /* \"#utility.yul\":25557:25623   */\n      tag_697\n        /* \"#utility.yul\":25621:25622   */\n      0x02\n        /* \"#utility.yul\":25616:25619   */\n      dup4\n        /* \"#utility.yul\":25557:25623   */\n      tag_383\n      jump\t// in\n    tag_697:\n        /* \"#utility.yul\":25550:25623   */\n      swap2\n      pop\n        /* \"#utility.yul\":25632:25725   */\n      tag_698\n        /* \"#utility.yul\":25721:25724   */\n      dup3\n        /* \"#utility.yul\":25632:25725   */\n      tag_409\n      jump\t// in\n    tag_698:\n        /* \"#utility.yul\":25750:25752   */\n      0x20\n        /* \"#utility.yul\":25745:25748   */\n      dup3\n        /* \"#utility.yul\":25741:25753   */\n      add\n        /* \"#utility.yul\":25734:25753   */\n      swap1\n      pop\n        /* \"#utility.yul\":25394:25759   */\n      swap2\n      swap1\n      pop\n      jump\t// out\n        /* \"#utility.yul\":25765:26385   */\n    tag_164:\n        /* \"#utility.yul\":25979:25983   */\n      0x00\n        /* \"#utility.yul\":26017:26019   */\n      0x40\n        /* \"#utility.yul\":26006:26015   */\n      dup3\n        /* \"#utility.yul\":26002:26020   */\n      add\n        /* \"#utility.yul\":25994:26020   */\n      swap1\n      pop\n        /* \"#utility.yul\":26066:26075   */\n      dup2\n        /* \"#utility.yul\":26060:26064   */\n      dup2\n        /* \"#utility.yul\":26056:26076   */\n      sub\n        /* \"#utility.yul\":26052:26053   */\n      0x00\n        /* \"#utility.yul\":26041:26050   */\n      dup4\n        /* \"#utility.yul\":26037:26054   */\n      add\n        /* \"#utility.yul\":26030:26077   */\n      mstore\n        /* \"#utility.yul\":26094:26172   */\n      tag_700\n        /* \"#utility.yul\":26167:26171   */\n      dup2\n        /* \"#utility.yul\":26158:26164   */\n      dup5\n        /* \"#utility.yul\":26094:26172   */\n      tag_385\n      jump\t// in\n    tag_700:\n        /* \"#utility.yul\":26086:26172   */\n      swap1\n      pop\n        /* \"#utility.yul\":26219:26228   */\n      dup2\n        /* \"#utility.yul\":26213:26217   */\n      dup2\n        /* \"#utility.yul\":26209:26229   */\n      sub\n        /* \"#utility.yul\":26204:26206   */\n      0x20\n        /* \"#utility.yul\":26193:26202   */\n      dup4\n        /* \"#utility.yul\":26189:26207   */\n      add\n        /* \"#utility.yul\":26182:26230   */\n      mstore\n        /* \"#utility.yul\":26247:26378   */\n      tag_701\n        /* \"#utility.yul\":26373:26377   */\n      dup2\n        /* \"#utility.yul\":26247:26378   */\n      tag_410\n      jump\t// in\n    tag_701:\n        /* \"#utility.yul\":26239:26378   */\n      swap1\n      pop\n        /* \"#utility.yul\":25765:26385   */\n      swap3\n      swap2\n      pop\n      pop\n      jump\t// out\n        /* \"#utility.yul\":26391:26489   */\n    tag_411:\n        /* \"#utility.yul\":26442:26448   */\n      0x00\n        /* \"#utility.yul\":26476:26481   */\n      dup2\n        /* \"#utility.yul\":26470:26482   */\n      mload\n        /* \"#utility.yul\":26460:26482   */\n      swap1\n      pop\n        /* \"#utility.yul\":26391:26489   */\n      swap2\n      swap1\n      pop\n      jump\t// out\n        /* \"#utility.yul\":26495:26588   */\n    tag_412:\n        /* \"#utility.yul\":26532:26538   */\n      0x00\n        /* \"#utility.yul\":26579:26581   */\n      0x20\n        /* \"#utility.yul\":26574:26576   */\n      0x1f\n        /* \"#utility.yul\":26567:26572   */\n      dup4\n        /* \"#utility.yul\":26563:26577   */\n      add\n        /* \"#utility.yul\":26559:26582   */\n      div\n        /* \"#utility.yul\":26549:26582   */\n      swap1\n      pop\n        /* \"#utility.yul\":26495:26588   */\n      swap2\n      swap1\n      pop\n      jump\t// out\n        /* \"#utility.yul\":26594:26701   */\n    tag_413:\n        /* \"#utility.yul\":26638:26646   */\n      0x00\n        /* \"#utility.yul\":26688:26693   */\n      dup3\n        /* \"#utility.yul\":26682:26686   */\n      dup3\n        /* \"#utility.yul\":26678:26694   */\n      shl\n        /* \"#utility.yul\":26657:26694   */\n      swap1\n      pop\n        /* \"#utility.yul\":26594:26701   */\n      swap3\n      swap2\n      pop\n      pop\n      jump\t// out\n        /* \"#utility.yul\":26707:27100   */\n    tag_414:\n        /* \"#utility.yul\":26776:26782   */\n      0x00\n        /* \"#utility.yul\":26826:26827   */\n      0x08\n        /* \"#utility.yul\":26814:26824   */\n      dup4\n        /* \"#utility.yul\":26810:26828   */\n      mul\n        /* \"#utility.yul\":26849:26946   */\n      tag_706\n        /* \"#utility.yul\":26879:26945   */\n      0xffffffffffffffffffffffffffffffffffffffffffffffffffffffffffffffff\n        /* \"#utility.yul\":26868:26877   */\n      dup3\n        /* \"#utility.yul\":26849:26946   */\n      tag_413\n      jump\t// in\n    tag_706:\n        /* \"#utility.yul\":26967:27006   */\n      tag_707\n        /* \"#utility.yul\":26997:27005   */\n      dup7\n        /* \"#utility.yul\":26986:26995   */\n      dup4\n        /* \"#utility.yul\":26967:27006   */\n      tag_413\n      jump\t// in\n    tag_707:\n        /* \"#utility.yul\":26955:27006   */\n      swap6\n      pop\n        /* \"#utility.yul\":27039:27043   */\n      dup1\n        /* \"#utility.yul\":27035:27044   */\n      not\n        /* \"#utility.yul\":27028:27033   */\n      dup5\n        /* \"#utility.yul\":27024:27045   */\n      and\n        /* \"#utility.yul\":27015:27045   */\n      swap4\n      pop\n        /* \"#utility.yul\":27088:27092   */\n      dup1\n        /* \"#utility.yul\":27078:27086   */\n      dup7\n        /* \"#utility.yul\":27074:27093   */\n      and\n        /* \"#utility.yul\":27067:27072   */\n      dup5\n        /* \"#utility.yul\":27064:27094   */\n      or\n        /* \"#utility.yul\":27054:27094   */\n      swap3\n      pop\n        /* \"#utility.yul\":26783:27100   */\n      pop\n      pop\n        /* \"#utility.yul\":26707:27100   */\n      swap4\n      swap3\n      pop\n      pop\n      pop\n      jump\t// out\n        /* \"#utility.yul\":27106:27166   */\n    tag_415:\n        /* \"#utility.yul\":27134:27137   */\n      0x00\n        /* \"#utility.yul\":27155:27160   */\n      dup2\n        /* \"#utility.yul\":27148:27160   */\n      swap1\n      pop\n        /* \"#utility.yul\":27106:27166   */\n      swap2\n      swap1\n      pop\n      jump\t// out\n        /* \"#utility.yul\":27172:27314   */\n    tag_416:\n        /* \"#utility.yul\":27222:27231   */\n      0x00\n        /* \"#utility.yul\":27255:27308   */\n      tag_710\n        /* \"#utility.yul\":27273:27307   */\n      tag_711\n        /* \"#utility.yul\":27282:27306   */\n      tag_712\n        /* \"#utility.yul\":27300:27305   */\n      dup5\n        /* \"#utility.yul\":27282:27306   */\n      tag_364\n      jump\t// in\n    tag_712:\n        /* \"#utility.yul\":27273:27307   */\n      tag_415\n      jump\t// in\n    tag_711:\n        /* \"#utility.yul\":27255:27308   */\n      tag_364\n      jump\t// in\n    tag_710:\n        /* \"#utility.yul\":27242:27308   */\n      swap1\n      pop\n        /* \"#utility.yul\":27172:27314   */\n      swap2\n      swap1\n      pop\n      jump\t// out\n        /* \"#utility.yul\":27320:27395   */\n    tag_417:\n        /* \"#utility.yul\":27363:27366   */\n      0x00\n        /* \"#utility.yul\":27384:27389   */\n      dup2\n        /* \"#utility.yul\":27377:27389   */\n      swap1\n      pop\n        /* \"#utility.yul\":27320:27395   */\n      swap2\n      swap1\n      pop\n      jump\t// out\n        /* \"#utility.yul\":27401:27670   */\n    tag_418:\n        /* \"#utility.yul\":27511:27550   */\n      tag_715\n        /* \"#utility.yul\":27542:27549   */\n      dup4\n        /* \"#utility.yul\":27511:27550   */\n      tag_416\n      jump\t// in\n    tag_715:\n        /* \"#utility.yul\":27572:27663   */\n      tag_716\n        /* \"#utility.yul\":27621:27662   */\n      tag_717\n        /* \"#utility.yul\":27645:27661   */\n      dup3\n        /* \"#utility.yul\":27621:27662   */\n      tag_417\n      jump\t// in\n    tag_717:\n        /* \"#utility.yul\":27613:27619   */\n      dup5\n        /* \"#utility.yul\":27606:27610   */\n      dup5\n        /* \"#utility.yul\":27600:27611   */\n      sload\n        /* \"#utility.yul\":27572:27663   */\n      tag_414\n      jump\t// in\n    tag_716:\n        /* \"#utility.yul\":27566:27570   */\n      dup3\n        /* \"#utility.yul\":27559:27664   */\n      sstore\n        /* \"#utility.yul\":27477:27670   */\n      pop\n        /* \"#utility.yul\":27401:27670   */\n      pop\n      pop\n      pop\n      jump\t// out\n        /* \"#utility.yul\":27676:27749   */\n    tag_419:\n        /* \"#utility.yul\":27721:27724   */\n      0x00\n        /* \"#utility.yul\":27676:27749   */\n      swap1\n      jump\t// out\n        /* \"#utility.yul\":27755:27944   */\n    tag_420:\n        /* \"#utility.yul\":27832:27864   */\n      tag_720\n      tag_419\n      jump\t// in\n    tag_720:\n        /* \"#utility.yul\":27873:27938   */\n      tag_721\n        /* \"#utility.yul\":27931:27937   */\n      dup2\n        /* \"#utility.yul\":27923:27929   */\n      dup5\n        /* \"#utility.yul\":27917:27921   */\n      dup5\n        /* \"#utility.yul\":27873:27938   */\n      tag_418\n      jump\t// in\n    tag_721:\n        /* \"#utility.yul\":27808:27944   */\n      pop\n        /* \"#utility.yul\":27755:27944   */\n      pop\n      pop\n      jump\t// out\n        /* \"#utility.yul\":27950:28136   */\n    tag_421:\n        /* \"#utility.yul\":28010:28130   */\n    tag_723:\n        /* \"#utility.yul\":28027:28030   */\n      dup2\n        /* \"#utility.yul\":28020:28025   */\n      dup2\n        /* \"#utility.yul\":28017:28031   */\n      lt\n        /* \"#utility.yul\":28010:28130   */\n      iszero\n      tag_725\n      jumpi\n        /* \"#utility.yul\":28081:28120   */\n      tag_726\n        /* \"#utility.yul\":28118:28119   */\n      0x00\n        /* \"#utility.yul\":28111:28116   */\n      dup3\n        /* \"#utility.yul\":28081:28120   */\n      tag_420\n      jump\t// in\n    tag_726:\n        /* \"#utility.yul\":28054:28055   */\n      0x01\n        /* \"#utility.yul\":28047:28052   */\n      dup2\n        /* \"#utility.yul\":28043:28056   */\n      add\n        /* \"#utility.yul\":28034:28056   */\n      swap1\n      pop\n        /* \"#utility.yul\":28010:28130   */\n      jump(tag_723)\n    tag_725:\n        /* \"#utility.yul\":27950:28136   */\n      pop\n      pop\n      jump\t// out\n        /* \"#utility.yul\":28142:28683   */\n    tag_422:\n        /* \"#utility.yul\":28242:28244   */\n      0x1f\n        /* \"#utility.yul\":28237:28240   */\n      dup3\n        /* \"#utility.yul\":28234:28245   */\n      gt\n        /* \"#utility.yul\":28231:28676   */\n      iszero\n      tag_728\n      jumpi\n        /* \"#utility.yul\":28276:28313   */\n      tag_729\n        /* \"#utility.yul\":28307:28312   */\n      dup2\n        /* \"#utility.yul\":28276:28313   */\n      tag_396\n      jump\t// in\n    tag_729:\n        /* \"#utility.yul\":28359:28388   */\n      tag_730\n        /* \"#utility.yul\":28377:28387   */\n      dup5\n        /* \"#utility.yul\":28359:28388   */\n      tag_412\n      jump\t// in\n    tag_730:\n        /* \"#utility.yul\":28349:28357   */\n      dup2\n        /* \"#utility.yul\":28345:28389   */\n      add\n        /* \"#utility.yul\":28542:28544   */\n      0x20\n        /* \"#utility.yul\":28530:28540   */\n      dup6\n        /* \"#utility.yul\":28527:28545   */\n      lt\n        /* \"#utility.yul\":28524:28573   */\n      iszero\n      tag_731\n      jumpi\n        /* \"#utility.yul\":28563:28571   */\n      dup2\n        /* \"#utility.yul\":28548:28571   */\n      swap1\n      pop\n        /* \"#utility.yul\":28524:28573   */\n    tag_731:\n        /* \"#utility.yul\":28586:28666   */\n      tag_732\n        /* \"#utility.yul\":28642:28664   */\n      tag_733\n        /* \"#utility.yul\":28660:28663   */\n      dup6\n        /* \"#utility.yul\":28642:28664   */\n      tag_412\n      jump\t// in\n    tag_733:\n        /* \"#utility.yul\":28632:28640   */\n      dup4\n        /* \"#utility.yul\":28628:28665   */\n      add\n        /* \"#utility.yul\":28615:28626   */\n      dup3\n        /* \"#utility.yul\":28586:28666   */\n      tag_421\n      jump\t// in\n    tag_732:\n        /* \"#utility.yul\":28246:28676   */\n      pop\n      pop\n        /* \"#utility.yul\":28231:28676   */\n    tag_728:\n        /* \"#utility.yul\":28142:28683   */\n      pop\n      pop\n      pop\n      jump\t// out\n        /* \"#utility.yul\":28689:28806   */\n    tag_423:\n        /* \"#utility.yul\":28743:28751   */\n      0x00\n        /* \"#utility.yul\":28793:28798   */\n      dup3\n        /* \"#utility.yul\":28787:28791   */\n      dup3\n        /* \"#utility.yul\":28783:28799   */\n      shr\n        /* \"#utility.yul\":28762:28799   */\n      swap1\n      pop\n        /* \"#utility.yul\":28689:28806   */\n      swap3\n      swap2\n      pop\n      pop\n      jump\t// out\n        /* \"#utility.yul\":28812:28981   */\n    tag_424:\n        /* \"#utility.yul\":28856:28862   */\n      0x00\n        /* \"#utility.yul\":28889:28940   */\n      tag_736\n        /* \"#utility.yul\":28937:28938   */\n      0x00\n        /* \"#utility.yul\":28933:28939   */\n      not\n        /* \"#utility.yul\":28925:28930   */\n      dup5\n        /* \"#utility.yul\":28922:28923   */\n      0x08\n        /* \"#utility.yul\":28918:28931   */\n      mul\n        /* \"#utility.yul\":28889:28940   */\n      tag_423\n      jump\t// in\n    tag_736:\n        /* \"#utility.yul\":28885:28941   */\n      not\n        /* \"#utility.yul\":28970:28974   */\n      dup1\n        /* \"#utility.yul\":28964:28968   */\n      dup4\n        /* \"#utility.yul\":28960:28975   */\n      and\n        /* \"#utility.yul\":28950:28975   */\n      swap2\n      pop\n        /* \"#utility.yul\":28863:28981   */\n      pop\n        /* \"#utility.yul\":28812:28981   */\n      swap3\n      swap2\n      pop\n      pop\n      jump\t// out\n        /* \"#utility.yul\":28986:29281   */\n    tag_425:\n        /* \"#utility.yul\":29062:29066   */\n      0x00\n        /* \"#utility.yul\":29208:29237   */\n      tag_738\n        /* \"#utility.yul\":29233:29236   */\n      dup4\n        /* \"#utility.yul\":29227:29231   */\n      dup4\n        /* \"#utility.yul\":29208:29237   */\n      tag_424\n      jump\t// in\n    tag_738:\n        /* \"#utility.yul\":29200:29237   */\n      swap2\n      pop\n        /* \"#utility.yul\":29270:29273   */\n      dup3\n        /* \"#utility.yul\":29267:29268   */\n      0x02\n        /* \"#utility.yul\":29263:29274   */\n      mul\n        /* \"#utility.yul\":29257:29261   */\n      dup3\n        /* \"#utility.yul\":29254:29275   */\n      or\n        /* \"#utility.yul\":29246:29275   */\n      swap1\n      pop\n        /* \"#utility.yul\":28986:29281   */\n      swap3\n      swap2\n      pop\n      pop\n      jump\t// out\n        /* \"#utility.yul\":29286:30676   */\n    tag_166:\n        /* \"#utility.yul\":29401:29437   */\n      tag_740\n        /* \"#utility.yul\":29433:29436   */\n      dup3\n        /* \"#utility.yul\":29401:29437   */\n      tag_411\n      jump\t// in\n    tag_740:\n        /* \"#utility.yul\":29502:29520   */\n      0xffffffffffffffff\n        /* \"#utility.yul\":29494:29500   */\n      dup2\n        /* \"#utility.yul\":29491:29521   */\n      gt\n        /* \"#utility.yul\":29488:29544   */\n      iszero\n      tag_741\n      jumpi\n        /* \"#utility.yul\":29524:29542   */\n      tag_742\n      tag_197\n      jump\t// in\n    tag_742:\n        /* \"#utility.yul\":29488:29544   */\n    tag_741:\n        /* \"#utility.yul\":29568:29606   */\n      tag_743\n        /* \"#utility.yul\":29600:29604   */\n      dup3\n        /* \"#utility.yul\":29594:29605   */\n      sload\n        /* \"#utility.yul\":29568:29606   */\n      tag_126\n      jump\t// in\n    tag_743:\n        /* \"#utility.yul\":29653:29719   */\n      tag_744\n        /* \"#utility.yul\":29712:29718   */\n      dup3\n        /* \"#utility.yul\":29704:29710   */\n      dup3\n        /* \"#utility.yul\":29698:29702   */\n      dup6\n        /* \"#utility.yul\":29653:29719   */\n      tag_422\n      jump\t// in\n    tag_744:\n        /* \"#utility.yul\":29746:29747   */\n      0x00\n        /* \"#utility.yul\":29770:29774   */\n      0x20\n        /* \"#utility.yul\":29757:29774   */\n      swap1\n      pop\n        /* \"#utility.yul\":29802:29804   */\n      0x1f\n        /* \"#utility.yul\":29794:29800   */\n      dup4\n        /* \"#utility.yul\":29791:29805   */\n      gt\n        /* \"#utility.yul\":29819:29820   */\n      0x01\n        /* \"#utility.yul\":29814:30431   */\n      dup2\n      eq\n      tag_746\n      jumpi\n        /* \"#utility.yul\":30475:30476   */\n      0x00\n        /* \"#utility.yul\":30492:30498   */\n      dup5\n        /* \"#utility.yul\":30489:30566   */\n      iszero\n      tag_747\n      jumpi\n        /* \"#utility.yul\":30541:30550   */\n      dup3\n        /* \"#utility.yul\":30536:30539   */\n      dup8\n        /* \"#utility.yul\":30532:30551   */\n      add\n        /* \"#utility.yul\":30526:30552   */\n      mload\n        /* \"#utility.yul\":30517:30552   */\n      swap1\n      pop\n        /* \"#utility.yul\":30489:30566   */\n    tag_747:\n        /* \"#utility.yul\":30592:30659   */\n      tag_748\n        /* \"#utility.yul\":30652:30658   */\n      dup6\n        /* \"#utility.yul\":30645:30650   */\n      dup3\n        /* \"#utility.yul\":30592:30659   */\n      tag_425\n      jump\t// in\n    tag_748:\n        /* \"#utility.yul\":30586:30590   */\n      dup7\n        /* \"#utility.yul\":30579:30660   */\n      sstore\n        /* \"#utility.yul\":30448:30670   */\n      pop\n        /* \"#utility.yul\":29784:30670   */\n      jump(tag_745)\n        /* \"#utility.yul\":29814:30431   */\n    tag_746:\n        /* \"#utility.yul\":29866:29870   */\n      0x1f\n        /* \"#utility.yul\":29862:29871   */\n      not\n        /* \"#utility.yul\":29854:29860   */\n      dup5\n        /* \"#utility.yul\":29850:29872   */\n      and\n        /* \"#utility.yul\":29900:29936   */\n      tag_749\n        /* \"#utility.yul\":29931:29935   */\n      dup7\n        /* \"#utility.yul\":29900:29936   */\n      tag_396\n      jump\t// in\n    tag_749:\n        /* \"#utility.yul\":29958:29959   */\n      0x00\n        /* \"#utility.yul\":29972:30180   */\n    tag_750:\n        /* \"#utility.yul\":29986:29993   */\n      dup3\n        /* \"#utility.yul\":29983:29984   */\n      dup2\n        /* \"#utility.yul\":29980:29994   */\n      lt\n        /* \"#utility.yul\":29972:30180   */\n      iszero\n      tag_752\n      jumpi\n        /* \"#utility.yul\":30065:30074   */\n      dup5\n        /* \"#utility.yul\":30060:30063   */\n      dup10\n        /* \"#utility.yul\":30056:30075   */\n      add\n        /* \"#utility.yul\":30050:30076   */\n      mload\n        /* \"#utility.yul\":30042:30048   */\n      dup3\n        /* \"#utility.yul\":30035:30077   */\n      sstore\n        /* \"#utility.yul\":30116:30117   */\n      0x01\n        /* \"#utility.yul\":30108:30114   */\n      dup3\n        /* \"#utility.yul\":30104:30118   */\n      add\n        /* \"#utility.yul\":30094:30118   */\n      swap2\n      pop\n        /* \"#utility.yul\":30163:30165   */\n      0x20\n        /* \"#utility.yul\":30152:30161   */\n      dup6\n        /* \"#utility.yul\":30148:30166   */\n      add\n        /* \"#utility.yul\":30135:30166   */\n      swap5\n      pop\n        /* \"#utility.yul\":30009:30013   */\n      0x20\n        /* \"#utility.yul\":30006:30007   */\n      dup2\n        /* \"#utility.yul\":30002:30014   */\n      add\n        /* \"#utility.yul\":29997:30014   */\n      swap1\n      pop\n        /* \"#utility.yul\":29972:30180   */\n      jump(tag_750)\n    tag_752:\n        /* \"#utility.yul\":30208:30214   */\n      dup7\n        /* \"#utility.yul\":30199:30206   */\n      dup4\n        /* \"#utility.yul\":30196:30215   */\n      lt\n        /* \"#utility.yul\":30193:30372   */\n      iszero\n      tag_753\n      jumpi\n        /* \"#utility.yul\":30266:30275   */\n      dup5\n        /* \"#utility.yul\":30261:30264   */\n      dup10\n        /* \"#utility.yul\":30257:30276   */\n      add\n        /* \"#utility.yul\":30251:30277   */\n      mload\n        /* \"#utility.yul\":30309:30357   */\n      tag_754\n        /* \"#utility.yul\":30351:30355   */\n      0x1f\n        /* \"#utility.yul\":30343:30349   */\n      dup10\n        /* \"#utility.yul\":30339:30356   */\n      and\n        /* \"#utility.yul\":30328:30337   */\n      dup3\n        /* \"#utility.yul\":30309:30357   */\n      tag_424\n      jump\t// in\n    tag_754:\n        /* \"#utility.yul\":30301:30307   */\n      dup4\n        /* \"#utility.yul\":30294:30358   */\n      sstore\n        /* \"#utility.yul\":30216:30372   */\n      pop\n        /* \"#utility.yul\":30193:30372   */\n    tag_753:\n        /* \"#utility.yul\":30418:30419   */\n      0x01\n        /* \"#utility.yul\":30414:30415   */\n      0x02\n        /* \"#utility.yul\":30406:30412   */\n      dup9\n        /* \"#utility.yul\":30402:30416   */\n      mul\n        /* \"#utility.yul\":30398:30420   */\n      add\n        /* \"#utility.yul\":30392:30396   */\n      dup9\n        /* \"#utility.yul\":30385:30421   */\n      sstore\n        /* \"#utility.yul\":29821:30431   */\n      pop\n      pop\n      pop\n        /* \"#utility.yul\":29784:30670   */\n    tag_745:\n      pop\n        /* \"#utility.yul\":29376:30676   */\n      pop\n      pop\n      pop\n        /* \"#utility.yul\":29286:30676   */\n      pop\n      pop\n      jump\t// out\n        /* \"#utility.yul\":30682:30913   */\n    tag_426:\n        /* \"#utility.yul\":30822:30856   */\n      0x302e303120455448206973206e656564656420746f2072656769737465722079\n        /* \"#utility.yul\":30818:30819   */\n      0x00\n        /* \"#utility.yul\":30810:30816   */\n      dup3\n        /* \"#utility.yul\":30806:30820   */\n      add\n        /* \"#utility.yul\":30799:30857   */\n      mstore\n        /* \"#utility.yul\":30891:30905   */\n      0x6f757220686f73706974616c0000000000000000000000000000000000000000\n        /* \"#utility.yul\":30886:30888   */\n      0x20\n        /* \"#utility.yul\":30878:30884   */\n      dup3\n        /* \"#utility.yul\":30874:30889   */\n      add\n        /* \"#utility.yul\":30867:30906   */\n      mstore\n        /* \"#utility.yul\":30682:30913   */\n      pop\n      jump\t// out\n        /* \"#utility.yul\":30919:31285   */\n    tag_427:\n        /* \"#utility.yul\":31061:31064   */\n      0x00\n        /* \"#utility.yul\":31082:31149   */\n      tag_757\n        /* \"#utility.yul\":31146:31148   */\n      0x2c\n        /* \"#utility.yul\":31141:31144   */\n      dup4\n        /* \"#utility.yul\":31082:31149   */\n      tag_383\n      jump\t// in\n    tag_757:\n        /* \"#utility.yul\":31075:31149   */\n      swap2\n      pop\n        /* \"#utility.yul\":31158:31251   */\n      tag_758\n        /* \"#utility.yul\":31247:31250   */\n      dup3\n        /* \"#utility.yul\":31158:31251   */\n      tag_426\n      jump\t// in\n    tag_758:\n        /* \"#utility.yul\":31276:31278   */\n      0x40\n        /* \"#utility.yul\":31271:31274   */\n      dup3\n        /* \"#utility.yul\":31267:31279   */\n      add\n        /* \"#utility.yul\":31260:31279   */\n      swap1\n      pop\n        /* \"#utility.yul\":30919:31285   */\n      swap2\n      swap1\n      pop\n      jump\t// out\n        /* \"#utility.yul\":31291:31710   */\n    tag_180:\n        /* \"#utility.yul\":31457:31461   */\n      0x00\n        /* \"#utility.yul\":31495:31497   */\n      0x20\n        /* \"#utility.yul\":31484:31493   */\n      dup3\n        /* \"#utility.yul\":31480:31498   */\n      add\n        /* \"#utility.yul\":31472:31498   */\n      swap1\n      pop\n        /* \"#utility.yul\":31544:31553   */\n      dup2\n        /* \"#utility.yul\":31538:31542   */\n      dup2\n        /* \"#utility.yul\":31534:31554   */\n      sub\n        /* \"#utility.yul\":31530:31531   */\n      0x00\n        /* \"#utility.yul\":31519:31528   */\n      dup4\n        /* \"#utility.yul\":31515:31532   */\n      add\n        /* \"#utility.yul\":31508:31555   */\n      mstore\n        /* \"#utility.yul\":31572:31703   */\n      tag_760\n        /* \"#utility.yul\":31698:31702   */\n      dup2\n        /* \"#utility.yul\":31572:31703   */\n      tag_427\n      jump\t// in\n    tag_760:\n        /* \"#utility.yul\":31564:31703   */\n      swap1\n      pop\n        /* \"#utility.yul\":31291:31710   */\n      swap2\n      swap1\n      pop\n      jump\t// out\n        /* \"#utility.yul\":31716:32102   */\n    tag_428:\n        /* \"#utility.yul\":31820:31823   */\n      0x00\n        /* \"#utility.yul\":31848:31886   */\n      tag_762\n        /* \"#utility.yul\":31880:31885   */\n      dup3\n        /* \"#utility.yul\":31848:31886   */\n      tag_411\n      jump\t// in\n    tag_762:\n        /* \"#utility.yul\":31902:31990   */\n      tag_763\n        /* \"#utility.yul\":31983:31989   */\n      dup2\n        /* \"#utility.yul\":31978:31981   */\n      dup6\n        /* \"#utility.yul\":31902:31990   */\n      tag_395\n      jump\t// in\n    tag_763:\n        /* \"#utility.yul\":31895:31990   */\n      swap4\n      pop\n        /* \"#utility.yul\":31999:32064   */\n      tag_764\n        /* \"#utility.yul\":32057:32063   */\n      dup2\n        /* \"#utility.yul\":32052:32055   */\n      dup6\n        /* \"#utility.yul\":32045:32049   */\n      0x20\n        /* \"#utility.yul\":32038:32043   */\n      dup7\n        /* \"#utility.yul\":32034:32050   */\n      add\n        /* \"#utility.yul\":31999:32064   */\n      tag_384\n      jump\t// in\n    tag_764:\n        /* \"#utility.yul\":32089:32095   */\n      dup1\n        /* \"#utility.yul\":32084:32087   */\n      dup5\n        /* \"#utility.yul\":32080:32096   */\n      add\n        /* \"#utility.yul\":32073:32096   */\n      swap2\n      pop\n        /* \"#utility.yul\":31824:32102   */\n      pop\n        /* \"#utility.yul\":31716:32102   */\n      swap3\n      swap2\n      pop\n      pop\n      jump\t// out\n        /* \"#utility.yul\":32108:32379   */\n    tag_236:\n        /* \"#utility.yul\":32238:32241   */\n      0x00\n        /* \"#utility.yul\":32260:32353   */\n      tag_766\n        /* \"#utility.yul\":32349:32352   */\n      dup3\n        /* \"#utility.yul\":32340:32346   */\n      dup5\n        /* \"#utility.yul\":32260:32353   */\n      tag_428\n      jump\t// in\n    tag_766:\n        /* \"#utility.yul\":32253:32353   */\n      swap2\n      pop\n        /* \"#utility.yul\":32370:32373   */\n      dup2\n        /* \"#utility.yul\":32363:32373   */\n      swap1\n      pop\n        /* \"#utility.yul\":32108:32379   */\n      swap3\n      swap2\n      pop\n      pop\n      jump\t// out\n        /* \"#utility.yul\":32385:32464   */\n    tag_429:\n        /* \"#utility.yul\":32424:32431   */\n      0x00\n        /* \"#utility.yul\":32453:32458   */\n      dup2\n        /* \"#utility.yul\":32442:32458   */\n      swap1\n      pop\n        /* \"#utility.yul\":32385:32464   */\n      swap2\n      swap1\n      pop\n      jump\t// out\n        /* \"#utility.yul\":32470:32627   */\n    tag_430:\n        /* \"#utility.yul\":32575:32620   */\n      tag_769\n        /* \"#utility.yul\":32595:32619   */\n      tag_770\n        /* \"#utility.yul\":32613:32618   */\n      dup3\n        /* \"#utility.yul\":32595:32619   */\n      tag_364\n      jump\t// in\n    tag_770:\n        /* \"#utility.yul\":32575:32620   */\n      tag_429\n      jump\t// in\n    tag_769:\n        /* \"#utility.yul\":32570:32573   */\n      dup3\n        /* \"#utility.yul\":32563:32621   */\n      mstore\n        /* \"#utility.yul\":32470:32627   */\n      pop\n      pop\n      jump\t// out\n        /* \"#utility.yul\":32633:32889   */\n    tag_238:\n        /* \"#utility.yul\":32745:32748   */\n      0x00\n        /* \"#utility.yul\":32760:32835   */\n      tag_772\n        /* \"#utility.yul\":32831:32834   */\n      dup3\n        /* \"#utility.yul\":32822:32828   */\n      dup5\n        /* \"#utility.yul\":32760:32835   */\n      tag_430\n      jump\t// in\n    tag_772:\n        /* \"#utility.yul\":32860:32862   */\n      0x20\n        /* \"#utility.yul\":32855:32858   */\n      dup3\n        /* \"#utility.yul\":32851:32863   */\n      add\n        /* \"#utility.yul\":32844:32863   */\n      swap2\n      pop\n        /* \"#utility.yul\":32880:32883   */\n      dup2\n        /* \"#utility.yul\":32873:32883   */\n      swap1\n      pop\n        /* \"#utility.yul\":32633:32889   */\n      swap3\n      swap2\n      pop\n      pop\n      jump\t// out\n        /* \"#utility.yul\":32895:33009   */\n    tag_431:\n        /* \"#utility.yul\":32962:32968   */\n      0x00\n        /* \"#utility.yul\":32996:33001   */\n      dup2\n        /* \"#utility.yul\":32990:33002   */\n      mload\n        /* \"#utility.yul\":32980:33002   */\n      swap1\n      pop\n        /* \"#utility.yul\":32895:33009   */\n      swap2\n      swap1\n      pop\n      jump\t// out\n        /* \"#utility.yul\":33015:33199   */\n    tag_432:\n        /* \"#utility.yul\":33114:33125   */\n      0x00\n        /* \"#utility.yul\":33148:33154   */\n      dup3\n        /* \"#utility.yul\":33143:33146   */\n      dup3\n        /* \"#utility.yul\":33136:33155   */\n      mstore\n        /* \"#utility.yul\":33188:33192   */\n      0x20\n        /* \"#utility.yul\":33183:33186   */\n      dup3\n        /* \"#utility.yul\":33179:33193   */\n      add\n        /* \"#utility.yul\":33164:33193   */\n      swap1\n      pop\n        /* \"#utility.yul\":33015:33199   */\n      swap3\n      swap2\n      pop\n      pop\n      jump\t// out\n        /* \"#utility.yul\":33205:33337   */\n    tag_433:\n        /* \"#utility.yul\":33272:33276   */\n      0x00\n        /* \"#utility.yul\":33295:33298   */\n      dup2\n        /* \"#utility.yul\":33287:33298   */\n      swap1\n      pop\n        /* \"#utility.yul\":33325:33329   */\n      0x20\n        /* \"#utility.yul\":33320:33323   */\n      dup3\n        /* \"#utility.yul\":33316:33330   */\n      add\n        /* \"#utility.yul\":33308:33330   */\n      swap1\n      pop\n        /* \"#utility.yul\":33205:33337   */\n      swap2\n      swap1\n      pop\n      jump\t// out\n        /* \"#utility.yul\":33343:33451   */\n    tag_434:\n        /* \"#utility.yul\":33420:33444   */\n      tag_777\n        /* \"#utility.yul\":33438:33443   */\n      dup2\n        /* \"#utility.yul\":33420:33444   */\n      tag_364\n      jump\t// in\n    tag_777:\n        /* \"#utility.yul\":33415:33418   */\n      dup3\n        /* \"#utility.yul\":33408:33445   */\n      mstore\n        /* \"#utility.yul\":33343:33451   */\n      pop\n      pop\n      jump\t// out\n        /* \"#utility.yul\":33457:33636   */\n    tag_435:\n        /* \"#utility.yul\":33526:33536   */\n      0x00\n        /* \"#utility.yul\":33547:33593   */\n      tag_779\n        /* \"#utility.yul\":33589:33592   */\n      dup4\n        /* \"#utility.yul\":33581:33587   */\n      dup4\n        /* \"#utility.yul\":33547:33593   */\n      tag_434\n      jump\t// in\n    tag_779:\n        /* \"#utility.yul\":33625:33629   */\n      0x20\n        /* \"#utility.yul\":33620:33623   */\n      dup4\n        /* \"#utility.yul\":33616:33630   */\n      add\n        /* \"#utility.yul\":33602:33630   */\n      swap1\n      pop\n        /* \"#utility.yul\":33457:33636   */\n      swap3\n      swap2\n      pop\n      pop\n      jump\t// out\n        /* \"#utility.yul\":33642:33755   */\n    tag_436:\n        /* \"#utility.yul\":33712:33716   */\n      0x00\n        /* \"#utility.yul\":33744:33748   */\n      0x20\n        /* \"#utility.yul\":33739:33742   */\n      dup3\n        /* \"#utility.yul\":33735:33749   */\n      add\n        /* \"#utility.yul\":33727:33749   */\n      swap1\n      pop\n        /* \"#utility.yul\":33642:33755   */\n      swap2\n      swap1\n      pop\n      jump\t// out\n        /* \"#utility.yul\":33791:34523   */\n    tag_437:\n        /* \"#utility.yul\":33910:33913   */\n      0x00\n        /* \"#utility.yul\":33939:33993   */\n      tag_782\n        /* \"#utility.yul\":33987:33992   */\n      dup3\n        /* \"#utility.yul\":33939:33993   */\n      tag_431\n      jump\t// in\n    tag_782:\n        /* \"#utility.yul\":34009:34095   */\n      tag_783\n        /* \"#utility.yul\":34088:34094   */\n      dup2\n        /* \"#utility.yul\":34083:34086   */\n      dup6\n        /* \"#utility.yul\":34009:34095   */\n      tag_432\n      jump\t// in\n    tag_783:\n        /* \"#utility.yul\":34002:34095   */\n      swap4\n      pop\n        /* \"#utility.yul\":34119:34175   */\n      tag_784\n        /* \"#utility.yul\":34169:34174   */\n      dup4\n        /* \"#utility.yul\":34119:34175   */\n      tag_433\n      jump\t// in\n    tag_784:\n        /* \"#utility.yul\":34198:34205   */\n      dup1\n        /* \"#utility.yul\":34229:34230   */\n      0x00\n        /* \"#utility.yul\":34214:34498   */\n    tag_785:\n        /* \"#utility.yul\":34239:34245   */\n      dup4\n        /* \"#utility.yul\":34236:34237   */\n      dup2\n        /* \"#utility.yul\":34233:34246   */\n      lt\n        /* \"#utility.yul\":34214:34498   */\n      iszero\n      tag_787\n      jumpi\n        /* \"#utility.yul\":34315:34321   */\n      dup2\n        /* \"#utility.yul\":34309:34322   */\n      mload\n        /* \"#utility.yul\":34342:34405   */\n      tag_788\n        /* \"#utility.yul\":34401:34404   */\n      dup9\n        /* \"#utility.yul\":34386:34399   */\n      dup3\n        /* \"#utility.yul\":34342:34405   */\n      tag_435\n      jump\t// in\n    tag_788:\n        /* \"#utility.yul\":34335:34405   */\n      swap8\n      pop\n        /* \"#utility.yul\":34428:34488   */\n      tag_789\n        /* \"#utility.yul\":34481:34487   */\n      dup4\n        /* \"#utility.yul\":34428:34488   */\n      tag_436\n      jump\t// in\n    tag_789:\n        /* \"#utility.yul\":34418:34488   */\n      swap3\n      pop\n        /* \"#utility.yul\":34274:34498   */\n      pop\n        /* \"#utility.yul\":34261:34262   */\n      0x01\n        /* \"#utility.yul\":34258:34259   */\n      dup2\n        /* \"#utility.yul\":34254:34263   */\n      add\n        /* \"#utility.yul\":34249:34263   */\n      swap1\n      pop\n        /* \"#utility.yul\":34214:34498   */\n      jump(tag_785)\n    tag_787:\n        /* \"#utility.yul\":34218:34232   */\n      pop\n        /* \"#utility.yul\":34514:34517   */\n      dup6\n        /* \"#utility.yul\":34507:34517   */\n      swap4\n      pop\n        /* \"#utility.yul\":33915:34523   */\n      pop\n      pop\n      pop\n        /* \"#utility.yul\":33791:34523   */\n      swap3\n      swap2\n      pop\n      pop\n      jump\t// out\n        /* \"#utility.yul\":34529:34653   */\n    tag_438:\n        /* \"#utility.yul\":34606:34612   */\n      0x00\n        /* \"#utility.yul\":34640:34645   */\n      dup2\n        /* \"#utility.yul\":34634:34646   */\n      mload\n        /* \"#utility.yul\":34624:34646   */\n      swap1\n      pop\n        /* \"#utility.yul\":34529:34653   */\n      swap2\n      swap1\n      pop\n      jump\t// out\n        /* \"#utility.yul\":34659:34853   */\n    tag_439:\n        /* \"#utility.yul\":34768:34779   */\n      0x00\n        /* \"#utility.yul\":34802:34808   */\n      dup3\n        /* \"#utility.yul\":34797:34800   */\n      dup3\n        /* \"#utility.yul\":34790:34809   */\n      mstore\n        /* \"#utility.yul\":34842:34846   */\n      0x20\n        /* \"#utility.yul\":34837:34840   */\n      dup3\n        /* \"#utility.yul\":34833:34847   */\n      add\n        /* \"#utility.yul\":34818:34847   */\n      swap1\n      pop\n        /* \"#utility.yul\":34659:34853   */\n      swap3\n      swap2\n      pop\n      pop\n      jump\t// out\n        /* \"#utility.yul\":34859:35001   */\n    tag_440:\n        /* \"#utility.yul\":34936:34940   */\n      0x00\n        /* \"#utility.yul\":34959:34962   */\n      dup2\n        /* \"#utility.yul\":34951:34962   */\n      swap1\n      pop\n        /* \"#utility.yul\":34989:34993   */\n      0x20\n        /* \"#utility.yul\":34984:34987   */\n      dup3\n        /* \"#utility.yul\":34980:34994   */\n      add\n        /* \"#utility.yul\":34972:34994   */\n      swap1\n      pop\n        /* \"#utility.yul\":34859:35001   */\n      swap2\n      swap1\n      pop\n      jump\t// out\n        /* \"#utility.yul\":35007:35166   */\n    tag_441:\n        /* \"#utility.yul\":35081:35092   */\n      0x00\n        /* \"#utility.yul\":35115:35121   */\n      dup3\n        /* \"#utility.yul\":35110:35113   */\n      dup3\n        /* \"#utility.yul\":35103:35122   */\n      mstore\n        /* \"#utility.yul\":35155:35159   */\n      0x20\n        /* \"#utility.yul\":35150:35153   */\n      dup3\n        /* \"#utility.yul\":35146:35160   */\n      add\n        /* \"#utility.yul\":35131:35160   */\n      swap1\n      pop\n        /* \"#utility.yul\":35007:35166   */\n      swap3\n      swap2\n      pop\n      pop\n      jump\t// out\n        /* \"#utility.yul\":35172:35529   */\n    tag_442:\n        /* \"#utility.yul\":35250:35253   */\n      0x00\n        /* \"#utility.yul\":35278:35317   */\n      tag_795\n        /* \"#utility.yul\":35311:35316   */\n      dup3\n        /* \"#utility.yul\":35278:35317   */\n      tag_382\n      jump\t// in\n    tag_795:\n        /* \"#utility.yul\":35333:35394   */\n      tag_796\n        /* \"#utility.yul\":35387:35393   */\n      dup2\n        /* \"#utility.yul\":35382:35385   */\n      dup6\n        /* \"#utility.yul\":35333:35394   */\n      tag_441\n      jump\t// in\n    tag_796:\n        /* \"#utility.yul\":35326:35394   */\n      swap4\n      pop\n        /* \"#utility.yul\":35403:35468   */\n      tag_797\n        /* \"#utility.yul\":35461:35467   */\n      dup2\n        /* \"#utility.yul\":35456:35459   */\n      dup6\n        /* \"#utility.yul\":35449:35453   */\n      0x20\n        /* \"#utility.yul\":35442:35447   */\n      dup7\n        /* \"#utility.yul\":35438:35454   */\n      add\n        /* \"#utility.yul\":35403:35468   */\n      tag_384\n      jump\t// in\n    tag_797:\n        /* \"#utility.yul\":35493:35522   */\n      tag_798\n        /* \"#utility.yul\":35515:35521   */\n      dup2\n        /* \"#utility.yul\":35493:35522   */\n      tag_372\n      jump\t// in\n    tag_798:\n        /* \"#utility.yul\":35488:35491   */\n      dup5\n        /* \"#utility.yul\":35484:35523   */\n      add\n        /* \"#utility.yul\":35477:35523   */\n      swap2\n      pop\n        /* \"#utility.yul\":35254:35529   */\n      pop\n        /* \"#utility.yul\":35172:35529   */\n      swap3\n      swap2\n      pop\n      pop\n      jump\t// out\n        /* \"#utility.yul\":35535:35731   */\n    tag_443:\n        /* \"#utility.yul\":35624:35634   */\n      0x00\n        /* \"#utility.yul\":35659:35725   */\n      tag_800\n        /* \"#utility.yul\":35721:35724   */\n      dup4\n        /* \"#utility.yul\":35713:35719   */\n      dup4\n        /* \"#utility.yul\":35659:35725   */\n      tag_442\n      jump\t// in\n    tag_800:\n        /* \"#utility.yul\":35645:35725   */\n      swap1\n      pop\n        /* \"#utility.yul\":35535:35731   */\n      swap3\n      swap2\n      pop\n      pop\n      jump\t// out\n        /* \"#utility.yul\":35737:35860   */\n    tag_444:\n        /* \"#utility.yul\":35817:35821   */\n      0x00\n        /* \"#utility.yul\":35849:35853   */\n      0x20\n        /* \"#utility.yul\":35844:35847   */\n      dup3\n        /* \"#utility.yul\":35840:35854   */\n      add\n        /* \"#utility.yul\":35832:35854   */\n      swap1\n      pop\n        /* \"#utility.yul\":35737:35860   */\n      swap2\n      swap1\n      pop\n      jump\t// out\n        /* \"#utility.yul\":35894:36885   */\n    tag_445:\n        /* \"#utility.yul\":36033:36036   */\n      0x00\n        /* \"#utility.yul\":36062:36126   */\n      tag_803\n        /* \"#utility.yul\":36120:36125   */\n      dup3\n        /* \"#utility.yul\":36062:36126   */\n      tag_438\n      jump\t// in\n    tag_803:\n        /* \"#utility.yul\":36142:36238   */\n      tag_804\n        /* \"#utility.yul\":36231:36237   */\n      dup2\n        /* \"#utility.yul\":36226:36229   */\n      dup6\n        /* \"#utility.yul\":36142:36238   */\n      tag_439\n      jump\t// in\n    tag_804:\n        /* \"#utility.yul\":36135:36238   */\n      swap4\n      pop\n        /* \"#utility.yul\":36264:36267   */\n      dup4\n        /* \"#utility.yul\":36309:36313   */\n      0x20\n        /* \"#utility.yul\":36301:36307   */\n      dup3\n        /* \"#utility.yul\":36297:36314   */\n      mul\n        /* \"#utility.yul\":36292:36295   */\n      dup6\n        /* \"#utility.yul\":36288:36315   */\n      add\n        /* \"#utility.yul\":36339:36405   */\n      tag_805\n        /* \"#utility.yul\":36399:36404   */\n      dup6\n        /* \"#utility.yul\":36339:36405   */\n      tag_440\n      jump\t// in\n    tag_805:\n        /* \"#utility.yul\":36428:36435   */\n      dup1\n        /* \"#utility.yul\":36459:36460   */\n      0x00\n        /* \"#utility.yul\":36444:36840   */\n    tag_806:\n        /* \"#utility.yul\":36469:36475   */\n      dup6\n        /* \"#utility.yul\":36466:36467   */\n      dup2\n        /* \"#utility.yul\":36463:36476   */\n      lt\n        /* \"#utility.yul\":36444:36840   */\n      iszero\n      tag_808\n      jumpi\n        /* \"#utility.yul\":36540:36549   */\n      dup5\n        /* \"#utility.yul\":36534:36538   */\n      dup5\n        /* \"#utility.yul\":36530:36550   */\n      sub\n        /* \"#utility.yul\":36525:36528   */\n      dup10\n        /* \"#utility.yul\":36518:36551   */\n      mstore\n        /* \"#utility.yul\":36591:36597   */\n      dup2\n        /* \"#utility.yul\":36585:36598   */\n      mload\n        /* \"#utility.yul\":36619:36703   */\n      tag_809\n        /* \"#utility.yul\":36698:36702   */\n      dup6\n        /* \"#utility.yul\":36683:36696   */\n      dup3\n        /* \"#utility.yul\":36619:36703   */\n      tag_443\n      jump\t// in\n    tag_809:\n        /* \"#utility.yul\":36611:36703   */\n      swap5\n      pop\n        /* \"#utility.yul\":36726:36796   */\n      tag_810\n        /* \"#utility.yul\":36789:36795   */\n      dup4\n        /* \"#utility.yul\":36726:36796   */\n      tag_444\n      jump\t// in\n    tag_810:\n        /* \"#utility.yul\":36716:36796   */\n      swap3\n      pop\n        /* \"#utility.yul\":36825:36829   */\n      0x20\n        /* \"#utility.yul\":36820:36823   */\n      dup11\n        /* \"#utility.yul\":36816:36830   */\n      add\n        /* \"#utility.yul\":36809:36830   */\n      swap10\n      pop\n        /* \"#utility.yul\":36504:36840   */\n      pop\n        /* \"#utility.yul\":36491:36492   */\n      0x01\n        /* \"#utility.yul\":36488:36489   */\n      dup2\n        /* \"#utility.yul\":36484:36493   */\n      add\n        /* \"#utility.yul\":36479:36493   */\n      swap1\n      pop\n        /* \"#utility.yul\":36444:36840   */\n      jump(tag_806)\n    tag_808:\n        /* \"#utility.yul\":36448:36462   */\n      pop\n        /* \"#utility.yul\":36856:36860   */\n      dup3\n        /* \"#utility.yul\":36849:36860   */\n      swap8\n      pop\n        /* \"#utility.yul\":36876:36879   */\n      dup8\n        /* \"#utility.yul\":36869:36879   */\n      swap6\n      pop\n        /* \"#utility.yul\":36038:36885   */\n      pop\n      pop\n      pop\n      pop\n      pop\n        /* \"#utility.yul\":35894:36885   */\n      swap3\n      swap2\n      pop\n      pop\n      jump\t// out\n        /* \"#utility.yul\":36891:38128   */\n    tag_252:\n        /* \"#utility.yul\":37308:37312   */\n      0x00\n        /* \"#utility.yul\":37346:37349   */\n      0x80\n        /* \"#utility.yul\":37335:37344   */\n      dup3\n        /* \"#utility.yul\":37331:37350   */\n      add\n        /* \"#utility.yul\":37323:37350   */\n      swap1\n      pop\n        /* \"#utility.yul\":37396:37405   */\n      dup2\n        /* \"#utility.yul\":37390:37394   */\n      dup2\n        /* \"#utility.yul\":37386:37406   */\n      sub\n        /* \"#utility.yul\":37382:37383   */\n      0x00\n        /* \"#utility.yul\":37371:37380   */\n      dup4\n        /* \"#utility.yul\":37367:37384   */\n      add\n        /* \"#utility.yul\":37360:37407   */\n      mstore\n        /* \"#utility.yul\":37424:37532   */\n      tag_812\n        /* \"#utility.yul\":37527:37531   */\n      dup2\n        /* \"#utility.yul\":37518:37524   */\n      dup8\n        /* \"#utility.yul\":37424:37532   */\n      tag_437\n      jump\t// in\n    tag_812:\n        /* \"#utility.yul\":37416:37532   */\n      swap1\n      pop\n        /* \"#utility.yul\":37579:37588   */\n      dup2\n        /* \"#utility.yul\":37573:37577   */\n      dup2\n        /* \"#utility.yul\":37569:37589   */\n      sub\n        /* \"#utility.yul\":37564:37566   */\n      0x20\n        /* \"#utility.yul\":37553:37562   */\n      dup4\n        /* \"#utility.yul\":37549:37567   */\n      add\n        /* \"#utility.yul\":37542:37590   */\n      mstore\n        /* \"#utility.yul\":37607:37715   */\n      tag_813\n        /* \"#utility.yul\":37710:37714   */\n      dup2\n        /* \"#utility.yul\":37701:37707   */\n      dup7\n        /* \"#utility.yul\":37607:37715   */\n      tag_437\n      jump\t// in\n    tag_813:\n        /* \"#utility.yul\":37599:37715   */\n      swap1\n      pop\n        /* \"#utility.yul\":37762:37771   */\n      dup2\n        /* \"#utility.yul\":37756:37760   */\n      dup2\n        /* \"#utility.yul\":37752:37772   */\n      sub\n        /* \"#utility.yul\":37747:37749   */\n      0x40\n        /* \"#utility.yul\":37736:37745   */\n      dup4\n        /* \"#utility.yul\":37732:37750   */\n      add\n        /* \"#utility.yul\":37725:37773   */\n      mstore\n        /* \"#utility.yul\":37790:37918   */\n      tag_814\n        /* \"#utility.yul\":37913:37917   */\n      dup2\n        /* \"#utility.yul\":37904:37910   */\n      dup6\n        /* \"#utility.yul\":37790:37918   */\n      tag_445\n      jump\t// in\n    tag_814:\n        /* \"#utility.yul\":37782:37918   */\n      swap1\n      pop\n        /* \"#utility.yul\":37965:37974   */\n      dup2\n        /* \"#utility.yul\":37959:37963   */\n      dup2\n        /* \"#utility.yul\":37955:37975   */\n      sub\n        /* \"#utility.yul\":37950:37952   */\n      0x60\n        /* \"#utility.yul\":37939:37948   */\n      dup4\n        /* \"#utility.yul\":37935:37953   */\n      add\n        /* \"#utility.yul\":37928:37976   */\n      mstore\n        /* \"#utility.yul\":37993:38121   */\n      tag_815\n        /* \"#utility.yul\":38116:38120   */\n      dup2\n        /* \"#utility.yul\":38107:38113   */\n      dup5\n        /* \"#utility.yul\":37993:38121   */\n      tag_445\n      jump\t// in\n    tag_815:\n        /* \"#utility.yul\":37985:38121   */\n      swap1\n      pop\n        /* \"#utility.yul\":36891:38128   */\n      swap6\n      swap5\n      pop\n      pop\n      pop\n      pop\n      pop\n      jump\t// out\n        /* \"#utility.yul\":38134:38297   */\n    tag_446:\n        /* \"#utility.yul\":38274:38289   */\n      0x496e76616c696420646174652100000000000000000000000000000000000000\n        /* \"#utility.yul\":38270:38271   */\n      0x00\n        /* \"#utility.yul\":38262:38268   */\n      dup3\n        /* \"#utility.yul\":38258:38272   */\n      add\n        /* \"#utility.yul\":38251:38290   */\n      mstore\n        /* \"#utility.yul\":38134:38297   */\n      pop\n      jump\t// out\n        /* \"#utility.yul\":38303:38669   */\n    tag_447:\n        /* \"#utility.yul\":38445:38448   */\n      0x00\n        /* \"#utility.yul\":38466:38533   */\n      tag_818\n        /* \"#utility.yul\":38530:38532   */\n      0x0d\n        /* \"#utility.yul\":38525:38528   */\n      dup4\n        /* \"#utility.yul\":38466:38533   */\n      tag_383\n      jump\t// in\n    tag_818:\n        /* \"#utility.yul\":38459:38533   */\n      swap2\n      pop\n        /* \"#utility.yul\":38542:38635   */\n      tag_819\n        /* \"#utility.yul\":38631:38634   */\n      dup3\n        /* \"#utility.yul\":38542:38635   */\n      tag_446\n      jump\t// in\n    tag_819:\n        /* \"#utility.yul\":38660:38662   */\n      0x20\n        /* \"#utility.yul\":38655:38658   */\n      dup3\n        /* \"#utility.yul\":38651:38663   */\n      add\n        /* \"#utility.yul\":38644:38663   */\n      swap1\n      pop\n        /* \"#utility.yul\":38303:38669   */\n      swap2\n      swap1\n      pop\n      jump\t// out\n        /* \"#utility.yul\":38675:39094   */\n    tag_264:\n        /* \"#utility.yul\":38841:38845   */\n      0x00\n        /* \"#utility.yul\":38879:38881   */\n      0x20\n        /* \"#utility.yul\":38868:38877   */\n      dup3\n        /* \"#utility.yul\":38864:38882   */\n      add\n        /* \"#utility.yul\":38856:38882   */\n      swap1\n      pop\n        /* \"#utility.yul\":38928:38937   */\n      dup2\n        /* \"#utility.yul\":38922:38926   */\n      dup2\n        /* \"#utility.yul\":38918:38938   */\n      sub\n        /* \"#utility.yul\":38914:38915   */\n      0x00\n        /* \"#utility.yul\":38903:38912   */\n      dup4\n        /* \"#utility.yul\":38899:38916   */\n      add\n        /* \"#utility.yul\":38892:38939   */\n      mstore\n        /* \"#utility.yul\":38956:39087   */\n      tag_821\n        /* \"#utility.yul\":39082:39086   */\n      dup2\n        /* \"#utility.yul\":38956:39087   */\n      tag_447\n      jump\t// in\n    tag_821:\n        /* \"#utility.yul\":38948:39087   */\n      swap1\n      pop\n        /* \"#utility.yul\":38675:39094   */\n      swap2\n      swap1\n      pop\n      jump\t// out\n        /* \"#utility.yul\":39100:39241   */\n    tag_448:\n        /* \"#utility.yul\":39149:39153   */\n      0x00\n        /* \"#utility.yul\":39172:39175   */\n      dup2\n        /* \"#utility.yul\":39164:39175   */\n      swap1\n      pop\n        /* \"#utility.yul\":39195:39198   */\n      dup2\n        /* \"#utility.yul\":39192:39193   */\n      0x00\n        /* \"#utility.yul\":39185:39199   */\n      mstore\n        /* \"#utility.yul\":39229:39233   */\n      0x20\n        /* \"#utility.yul\":39226:39227   */\n      0x00\n        /* \"#utility.yul\":39216:39234   */\n      keccak256\n        /* \"#utility.yul\":39208:39234   */\n      swap1\n      pop\n        /* \"#utility.yul\":39100:39241   */\n      swap2\n      swap1\n      pop\n      jump\t// out\n        /* \"#utility.yul\":39247:39790   */\n    tag_449:\n        /* \"#utility.yul\":39348:39350   */\n      0x1f\n        /* \"#utility.yul\":39343:39346   */\n      dup3\n        /* \"#utility.yul\":39340:39351   */\n      gt\n        /* \"#utility.yul\":39337:39783   */\n      iszero\n      tag_824\n      jumpi\n        /* \"#utility.yul\":39382:39420   */\n      tag_825\n        /* \"#utility.yul\":39414:39419   */\n      dup2\n        /* \"#utility.yul\":39382:39420   */\n      tag_448\n      jump\t// in\n    tag_825:\n        /* \"#utility.yul\":39466:39495   */\n      tag_826\n        /* \"#utility.yul\":39484:39494   */\n      dup5\n        /* \"#utility.yul\":39466:39495   */\n      tag_412\n      jump\t// in\n    tag_826:\n        /* \"#utility.yul\":39456:39464   */\n      dup2\n        /* \"#utility.yul\":39452:39496   */\n      add\n        /* \"#utility.yul\":39649:39651   */\n      0x20\n        /* \"#utility.yul\":39637:39647   */\n      dup6\n        /* \"#utility.yul\":39634:39652   */\n      lt\n        /* \"#utility.yul\":39631:39680   */\n      iszero\n      tag_827\n      jumpi\n        /* \"#utility.yul\":39670:39678   */\n      dup2\n        /* \"#utility.yul\":39655:39678   */\n      swap1\n      pop\n        /* \"#utility.yul\":39631:39680   */\n    tag_827:\n        /* \"#utility.yul\":39693:39773   */\n      tag_828\n        /* \"#utility.yul\":39749:39771   */\n      tag_829\n        /* \"#utility.yul\":39767:39770   */\n      dup6\n        /* \"#utility.yul\":39749:39771   */\n      tag_412\n      jump\t// in\n    tag_829:\n        /* \"#utility.yul\":39739:39747   */\n      dup4\n        /* \"#utility.yul\":39735:39772   */\n      add\n        /* \"#utility.yul\":39722:39733   */\n      dup3\n        /* \"#utility.yul\":39693:39773   */\n      tag_421\n      jump\t// in\n    tag_828:\n        /* \"#utility.yul\":39352:39783   */\n      pop\n      pop\n        /* \"#utility.yul\":39337:39783   */\n    tag_824:\n        /* \"#utility.yul\":39247:39790   */\n      pop\n      pop\n      pop\n      jump\t// out\n        /* \"#utility.yul\":39796:41191   */\n    tag_271:\n        /* \"#utility.yul\":39913:39950   */\n      tag_831\n        /* \"#utility.yul\":39946:39949   */\n      dup3\n        /* \"#utility.yul\":39913:39950   */\n      tag_382\n      jump\t// in\n    tag_831:\n        /* \"#utility.yul\":40015:40033   */\n      0xffffffffffffffff\n        /* \"#utility.yul\":40007:40013   */\n      dup2\n        /* \"#utility.yul\":40004:40034   */\n      gt\n        /* \"#utility.yul\":40001:40057   */\n      iszero\n      tag_832\n      jumpi\n        /* \"#utility.yul\":40037:40055   */\n      tag_833\n      tag_197\n      jump\t// in\n    tag_833:\n        /* \"#utility.yul\":40001:40057   */\n    tag_832:\n        /* \"#utility.yul\":40081:40119   */\n      tag_834\n        /* \"#utility.yul\":40113:40117   */\n      dup3\n        /* \"#utility.yul\":40107:40118   */\n      sload\n        /* \"#utility.yul\":40081:40119   */\n      tag_126\n      jump\t// in\n    tag_834:\n        /* \"#utility.yul\":40166:40233   */\n      tag_835\n        /* \"#utility.yul\":40226:40232   */\n      dup3\n        /* \"#utility.yul\":40218:40224   */\n      dup3\n        /* \"#utility.yul\":40212:40216   */\n      dup6\n        /* \"#utility.yul\":40166:40233   */\n      tag_449\n      jump\t// in\n    tag_835:\n        /* \"#utility.yul\":40260:40261   */\n      0x00\n        /* \"#utility.yul\":40284:40288   */\n      0x20\n        /* \"#utility.yul\":40271:40288   */\n      swap1\n      pop\n        /* \"#utility.yul\":40316:40318   */\n      0x1f\n        /* \"#utility.yul\":40308:40314   */\n      dup4\n        /* \"#utility.yul\":40305:40319   */\n      gt\n        /* \"#utility.yul\":40333:40334   */\n      0x01\n        /* \"#utility.yul\":40328:40946   */\n      dup2\n      eq\n      tag_837\n      jumpi\n        /* \"#utility.yul\":40990:40991   */\n      0x00\n        /* \"#utility.yul\":41007:41013   */\n      dup5\n        /* \"#utility.yul\":41004:41081   */\n      iszero\n      tag_838\n      jumpi\n        /* \"#utility.yul\":41056:41065   */\n      dup3\n        /* \"#utility.yul\":41051:41054   */\n      dup8\n        /* \"#utility.yul\":41047:41066   */\n      add\n        /* \"#utility.yul\":41041:41067   */\n      mload\n        /* \"#utility.yul\":41032:41067   */\n      swap1\n      pop\n        /* \"#utility.yul\":41004:41081   */\n    tag_838:\n        /* \"#utility.yul\":41107:41174   */\n      tag_839\n        /* \"#utility.yul\":41167:41173   */\n      dup6\n        /* \"#utility.yul\":41160:41165   */\n      dup3\n        /* \"#utility.yul\":41107:41174   */\n      tag_425\n      jump\t// in\n    tag_839:\n        /* \"#utility.yul\":41101:41105   */\n      dup7\n        /* \"#utility.yul\":41094:41175   */\n      sstore\n        /* \"#utility.yul\":40963:41185   */\n      pop\n        /* \"#utility.yul\":40298:41185   */\n      jump(tag_836)\n        /* \"#utility.yul\":40328:40946   */\n    tag_837:\n        /* \"#utility.yul\":40380:40384   */\n      0x1f\n        /* \"#utility.yul\":40376:40385   */\n      not\n        /* \"#utility.yul\":40368:40374   */\n      dup5\n        /* \"#utility.yul\":40364:40386   */\n      and\n        /* \"#utility.yul\":40414:40451   */\n      tag_840\n        /* \"#utility.yul\":40446:40450   */\n      dup7\n        /* \"#utility.yul\":40414:40451   */\n      tag_448\n      jump\t// in\n    tag_840:\n        /* \"#utility.yul\":40473:40474   */\n      0x00\n        /* \"#utility.yul\":40487:40695   */\n    tag_841:\n        /* \"#utility.yul\":40501:40508   */\n      dup3\n        /* \"#utility.yul\":40498:40499   */\n      dup2\n        /* \"#utility.yul\":40495:40509   */\n      lt\n        /* \"#utility.yul\":40487:40695   */\n      iszero\n      tag_843\n      jumpi\n        /* \"#utility.yul\":40580:40589   */\n      dup5\n        /* \"#utility.yul\":40575:40578   */\n      dup10\n        /* \"#utility.yul\":40571:40590   */\n      add\n        /* \"#utility.yul\":40565:40591   */\n      mload\n        /* \"#utility.yul\":40557:40563   */\n      dup3\n        /* \"#utility.yul\":40550:40592   */\n      sstore\n        /* \"#utility.yul\":40631:40632   */\n      0x01\n        /* \"#utility.yul\":40623:40629   */\n      dup3\n        /* \"#utility.yul\":40619:40633   */\n      add\n        /* \"#utility.yul\":40609:40633   */\n      swap2\n      pop\n        /* \"#utility.yul\":40678:40680   */\n      0x20\n        /* \"#utility.yul\":40667:40676   */\n      dup6\n        /* \"#utility.yul\":40663:40681   */\n      add\n        /* \"#utility.yul\":40650:40681   */\n      swap5\n      pop\n        /* \"#utility.yul\":40524:40528   */\n      0x20\n        /* \"#utility.yul\":40521:40522   */\n      dup2\n        /* \"#utility.yul\":40517:40529   */\n      add\n        /* \"#utility.yul\":40512:40529   */\n      swap1\n      pop\n        /* \"#utility.yul\":40487:40695   */\n      jump(tag_841)\n    tag_843:\n        /* \"#utility.yul\":40723:40729   */\n      dup7\n        /* \"#utility.yul\":40714:40721   */\n      dup4\n        /* \"#utility.yul\":40711:40730   */\n      lt\n        /* \"#utility.yul\":40708:40887   */\n      iszero\n      tag_844\n      jumpi\n        /* \"#utility.yul\":40781:40790   */\n      dup5\n        /* \"#utility.yul\":40776:40779   */\n      dup10\n        /* \"#utility.yul\":40772:40791   */\n      add\n        /* \"#utility.yul\":40766:40792   */\n      mload\n        /* \"#utility.yul\":40824:40872   */\n      tag_845\n        /* \"#utility.yul\":40866:40870   */\n      0x1f\n        /* \"#utility.yul\":40858:40864   */\n      dup10\n        /* \"#utility.yul\":40854:40871   */\n      and\n        /* \"#utility.yul\":40843:40852   */\n      dup3\n        /* \"#utility.yul\":40824:40872   */\n      tag_424\n      jump\t// in\n    tag_845:\n        /* \"#utility.yul\":40816:40822   */\n      dup4\n        /* \"#utility.yul\":40809:40873   */\n      sstore\n        /* \"#utility.yul\":40731:40887   */\n      pop\n        /* \"#utility.yul\":40708:40887   */\n    tag_844:\n        /* \"#utility.yul\":40933:40934   */\n      0x01\n        /* \"#utility.yul\":40929:40930   */\n      0x02\n        /* \"#utility.yul\":40921:40927   */\n      dup9\n        /* \"#utility.yul\":40917:40931   */\n      mul\n        /* \"#utility.yul\":40913:40935   */\n      add\n        /* \"#utility.yul\":40907:40911   */\n      dup9\n        /* \"#utility.yul\":40900:40936   */\n      sstore\n        /* \"#utility.yul\":40335:40946   */\n      pop\n      pop\n      pop\n        /* \"#utility.yul\":40298:41185   */\n    tag_836:\n      pop\n        /* \"#utility.yul\":39888:41191   */\n      pop\n      pop\n      pop\n        /* \"#utility.yul\":39796:41191   */\n      pop\n      pop\n      jump\t// out\n        /* \"#utility.yul\":41197:41360   */\n    tag_450:\n        /* \"#utility.yul\":41337:41352   */\n      0x556e617574686f72697a65642100000000000000000000000000000000000000\n        /* \"#utility.yul\":41333:41334   */\n      0x00\n        /* \"#utility.yul\":41325:41331   */\n      dup3\n        /* \"#utility.yul\":41321:41335   */\n      add\n        /* \"#utility.yul\":41314:41353   */\n      mstore\n        /* \"#utility.yul\":41197:41360   */\n      pop\n      jump\t// out\n        /* \"#utility.yul\":41366:41732   */\n    tag_451:\n        /* \"#utility.yul\":41508:41511   */\n      0x00\n        /* \"#utility.yul\":41529:41596   */\n      tag_848\n        /* \"#utility.yul\":41593:41595   */\n      0x0d\n        /* \"#utility.yul\":41588:41591   */\n      dup4\n        /* \"#utility.yul\":41529:41596   */\n      tag_383\n      jump\t// in\n    tag_848:\n        /* \"#utility.yul\":41522:41596   */\n      swap2\n      pop\n        /* \"#utility.yul\":41605:41698   */\n      tag_849\n        /* \"#utility.yul\":41694:41697   */\n      dup3\n        /* \"#utility.yul\":41605:41698   */\n      tag_450\n      jump\t// in\n    tag_849:\n        /* \"#utility.yul\":41723:41725   */\n      0x20\n        /* \"#utility.yul\":41718:41721   */\n      dup3\n        /* \"#utility.yul\":41714:41726   */\n      add\n        /* \"#utility.yul\":41707:41726   */\n      swap1\n      pop\n        /* \"#utility.yul\":41366:41732   */\n      swap2\n      swap1\n      pop\n      jump\t// out\n        /* \"#utility.yul\":41738:42157   */\n    tag_325:\n        /* \"#utility.yul\":41904:41908   */\n      0x00\n        /* \"#utility.yul\":41942:41944   */\n      0x20\n        /* \"#utility.yul\":41931:41940   */\n      dup3\n        /* \"#utility.yul\":41927:41945   */\n      add\n        /* \"#utility.yul\":41919:41945   */\n      swap1\n      pop\n        /* \"#utility.yul\":41991:42000   */\n      dup2\n        /* \"#utility.yul\":41985:41989   */\n      dup2\n        /* \"#utility.yul\":41981:42001   */\n      sub\n        /* \"#utility.yul\":41977:41978   */\n      0x00\n        /* \"#utility.yul\":41966:41975   */\n      dup4\n        /* \"#utility.yul\":41962:41979   */\n      add\n        /* \"#utility.yul\":41955:42002   */\n      mstore\n        /* \"#utility.yul\":42019:42150   */\n      tag_851\n        /* \"#utility.yul\":42145:42149   */\n      dup2\n        /* \"#utility.yul\":42019:42150   */\n      tag_451\n      jump\t// in\n    tag_851:\n        /* \"#utility.yul\":42011:42150   */\n      swap1\n      pop\n        /* \"#utility.yul\":41738:42157   */\n      swap2\n      swap1\n      pop\n      jump\t// out\n        /* \"#utility.yul\":42163:42597   */\n    tag_452:\n        /* \"#utility.yul\":42252:42257   */\n      0x00\n        /* \"#utility.yul\":42277:42343   */\n      tag_853\n        /* \"#utility.yul\":42293:42342   */\n      tag_854\n        /* \"#utility.yul\":42335:42341   */\n      dup5\n        /* \"#utility.yul\":42293:42342   */\n      tag_375\n      jump\t// in\n    tag_854:\n        /* \"#utility.yul\":42277:42343   */\n      tag_374\n      jump\t// in\n    tag_853:\n        /* \"#utility.yul\":42268:42343   */\n      swap1\n      pop\n        /* \"#utility.yul\":42366:42372   */\n      dup3\n        /* \"#utility.yul\":42359:42364   */\n      dup2\n        /* \"#utility.yul\":42352:42373   */\n      mstore\n        /* \"#utility.yul\":42404:42408   */\n      0x20\n        /* \"#utility.yul\":42397:42402   */\n      dup2\n        /* \"#utility.yul\":42393:42409   */\n      add\n        /* \"#utility.yul\":42442:42445   */\n      dup5\n        /* \"#utility.yul\":42433:42439   */\n      dup5\n        /* \"#utility.yul\":42428:42431   */\n      dup5\n        /* \"#utility.yul\":42424:42440   */\n      add\n        /* \"#utility.yul\":42421:42446   */\n      gt\n        /* \"#utility.yul\":42418:42530   */\n      iszero\n      tag_855\n      jumpi\n        /* \"#utility.yul\":42449:42528   */\n      tag_856\n      tag_371\n      jump\t// in\n    tag_856:\n        /* \"#utility.yul\":42418:42530   */\n    tag_855:\n        /* \"#utility.yul\":42539:42591   */\n      tag_857\n        /* \"#utility.yul\":42584:42590   */\n      dup5\n        /* \"#utility.yul\":42579:42582   */\n      dup3\n        /* \"#utility.yul\":42574:42577   */\n      dup6\n        /* \"#utility.yul\":42539:42591   */\n      tag_384\n      jump\t// in\n    tag_857:\n        /* \"#utility.yul\":42258:42597   */\n      pop\n        /* \"#utility.yul\":42163:42597   */\n      swap4\n      swap3\n      pop\n      pop\n      pop\n      jump\t// out\n        /* \"#utility.yul\":42617:42972   */\n    tag_453:\n        /* \"#utility.yul\":42684:42689   */\n      0x00\n        /* \"#utility.yul\":42733:42736   */\n      dup3\n        /* \"#utility.yul\":42726:42730   */\n      0x1f\n        /* \"#utility.yul\":42718:42724   */\n      dup4\n        /* \"#utility.yul\":42714:42731   */\n      add\n        /* \"#utility.yul\":42710:42737   */\n      slt\n        /* \"#utility.yul\":42700:42822   */\n      tag_859\n      jumpi\n        /* \"#utility.yul\":42741:42820   */\n      tag_860\n      tag_370\n      jump\t// in\n    tag_860:\n        /* \"#utility.yul\":42700:42822   */\n    tag_859:\n        /* \"#utility.yul\":42851:42857   */\n      dup2\n        /* \"#utility.yul\":42845:42858   */\n      mload\n        /* \"#utility.yul\":42876:42966   */\n      tag_861\n        /* \"#utility.yul\":42962:42965   */\n      dup5\n        /* \"#utility.yul\":42954:42960   */\n      dup3\n        /* \"#utility.yul\":42947:42951   */\n      0x20\n        /* \"#utility.yul\":42939:42945   */\n      dup7\n        /* \"#utility.yul\":42935:42952   */\n      add\n        /* \"#utility.yul\":42876:42966   */\n      tag_452\n      jump\t// in\n    tag_861:\n        /* \"#utility.yul\":42867:42966   */\n      swap2\n      pop\n        /* \"#utility.yul\":42690:42972   */\n      pop\n        /* \"#utility.yul\":42617:42972   */\n      swap3\n      swap2\n      pop\n      pop\n      jump\t// out\n        /* \"#utility.yul\":42978:43831   */\n    tag_360:\n        /* \"#utility.yul\":43077:43083   */\n      0x00\n        /* \"#utility.yul\":43085:43091   */\n      dup1\n        /* \"#utility.yul\":43134:43136   */\n      0x40\n        /* \"#utility.yul\":43122:43131   */\n      dup4\n        /* \"#utility.yul\":43113:43120   */\n      dup6\n        /* \"#utility.yul\":43109:43132   */\n      sub\n        /* \"#utility.yul\":43105:43137   */\n      slt\n        /* \"#utility.yul\":43102:43221   */\n      iszero\n      tag_863\n      jumpi\n        /* \"#utility.yul\":43140:43219   */\n      tag_864\n      tag_362\n      jump\t// in\n    tag_864:\n        /* \"#utility.yul\":43102:43221   */\n    tag_863:\n        /* \"#utility.yul\":43281:43282   */\n      0x00\n        /* \"#utility.yul\":43270:43279   */\n      dup4\n        /* \"#utility.yul\":43266:43283   */\n      add\n        /* \"#utility.yul\":43260:43284   */\n      mload\n        /* \"#utility.yul\":43311:43329   */\n      0xffffffffffffffff\n        /* \"#utility.yul\":43303:43309   */\n      dup2\n        /* \"#utility.yul\":43300:43330   */\n      gt\n        /* \"#utility.yul\":43297:43414   */\n      iszero\n      tag_865\n      jumpi\n        /* \"#utility.yul\":43333:43412   */\n      tag_866\n      tag_363\n      jump\t// in\n    tag_866:\n        /* \"#utility.yul\":43297:43414   */\n    tag_865:\n        /* \"#utility.yul\":43438:43512   */\n      tag_867\n        /* \"#utility.yul\":43504:43511   */\n      dup6\n        /* \"#utility.yul\":43495:43501   */\n      dup3\n        /* \"#utility.yul\":43484:43493   */\n      dup7\n        /* \"#utility.yul\":43480:43502   */\n      add\n        /* \"#utility.yul\":43438:43512   */\n      tag_453\n      jump\t// in\n    tag_867:\n        /* \"#utility.yul\":43428:43512   */\n      swap3\n      pop\n        /* \"#utility.yul\":43231:43522   */\n      pop\n        /* \"#utility.yul\":43582:43584   */\n      0x20\n        /* \"#utility.yul\":43571:43580   */\n      dup4\n        /* \"#utility.yul\":43567:43585   */\n      add\n        /* \"#utility.yul\":43561:43586   */\n      mload\n        /* \"#utility.yul\":43613:43631   */\n      0xffffffffffffffff\n        /* \"#utility.yul\":43605:43611   */\n      dup2\n        /* \"#utility.yul\":43602:43632   */\n      gt\n        /* \"#utility.yul\":43599:43716   */\n      iszero\n      tag_868\n      jumpi\n        /* \"#utility.yul\":43635:43714   */\n      tag_869\n      tag_363\n      jump\t// in\n    tag_869:\n        /* \"#utility.yul\":43599:43716   */\n    tag_868:\n        /* \"#utility.yul\":43740:43814   */\n      tag_870\n        /* \"#utility.yul\":43806:43813   */\n      dup6\n        /* \"#utility.yul\":43797:43803   */\n      dup3\n        /* \"#utility.yul\":43786:43795   */\n      dup7\n        /* \"#utility.yul\":43782:43804   */\n      add\n        /* \"#utility.yul\":43740:43814   */\n      tag_453\n      jump\t// in\n    tag_870:\n        /* \"#utility.yul\":43730:43814   */\n      swap2\n      pop\n        /* \"#utility.yul\":43532:43824   */\n      pop\n        /* \"#utility.yul\":42978:43831   */\n      swap3\n      pop\n      swap3\n      swap1\n      pop\n      jump\t// out\n\n    auxdata: 0xa26469706673582212209e93011e8cb9e81db139f489132b11c0a999ad1215090351e47813b4cec8f53b64736f6c63430008120033\n}\n",
				"bytecode": {
					"linkReferences": {},
					"object": "608060405260008055600060065560006007556000600855600060095534801561002857600080fd5b506136bc806100386000396000f3fe6080604052600436106100e85760003560e01c806366e918b81161008a578063ca630e1f11610059578063ca630e1f14610343578063caafc4fb1461036c578063f043e745146103a9578063f38c6bb6146103e6576100e8565b806366e918b81461024f578063749464601461028c5780639cb3d01f146102c9578063baaab57a14610306576100e8565b80632a177158116100c65780632a1771581461017c578063302e1ab1146101b95780633ffbd47f146101f6578063452ba75414610226576100e8565b806310ab2570146100ed57806318c40f271461012a5780631e8993d914610153575b600080fd5b3480156100f957600080fd5b50610114600480360381019061010f9190612049565b610423565b60405161012191906120b7565b60405180910390f35b34801561013657600080fd5b50610151600480360381019061014c9190612218565b610463565b005b34801561015f57600080fd5b5061017a600480360381019061017591906122af565b6108c4565b005b34801561018857600080fd5b506101a3600480360381019061019e9190612366565b610a69565b6040516101b091906123a2565b60405180910390f35b3480156101c557600080fd5b506101e060048036038101906101db9190612049565b610ab2565b6040516101ed919061243c565b60405180910390f35b610210600480360381019061020b919061245e565b610b70565b60405161021d91906123a2565b60405180910390f35b34801561023257600080fd5b5061024d600480360381019061024891906124d6565b610d61565b005b34801561025b57600080fd5b5061027660048036038101906102719190612557565b6113b3565b60405161028391906123a2565b60405180910390f35b34801561029857600080fd5b506102b360048036038101906102ae9190612638565b6115d3565b6040516102c091906123a2565b60405180910390f35b3480156102d557600080fd5b506102f060048036038101906102eb9190612782565b6117b3565b6040516102fd91906123a2565b60405180910390f35b34801561031257600080fd5b5061032d60048036038101906103289190612049565b611aae565b60405161033a919061284c565b60405180910390f35b34801561034f57600080fd5b5061036a600480360381019061036591906122af565b611adb565b005b34801561037857600080fd5b50610393600480360381019061038e9190612049565b611c5f565b6040516103a0919061243c565b60405180910390f35b3480156103b557600080fd5b506103d060048036038101906103cb9190612867565b611d1d565b6040516103dd91906123a2565b60405180910390f35b3480156103f257600080fd5b5061040d60048036038101906104089190612049565b611e94565b60405161041a919061243c565b60405180910390f35b60006003600083815260200190815260200160002060000160009054906101000a900473ffffffffffffffffffffffffffffffffffffffff169050919050565b8460006003600083815260200190815260200160002060030154116104bd576040517f08c379a00000000000000000000000000000000000000000000000000000000081526004016104b490612952565b60405180910390fd5b8585600360008381526020019081526020016000206002016040516104e29190612a75565b6040518091039020816040516020016104fb9190612ad8565b6040516020818303038152906040528051906020012014610551576040517f08c379a000000000000000000000000000000000000000000000000000000000815260040161054890612b59565b60405180910390fd5b600085146108ba576000600360008a8152602001908152602001600020600501600086815260200190815260200160002080549050116105c6576040517f08c379a00000000000000000000000000000000000000000000000000000000081526004016105bd90612bc5565b60405180910390fd5b6000600360008a81526020019081526020016000206005016000868152602001908152602001600020805480602002602001604051908101604052809291908181526020016000905b8282101561078357838290600052602060002090600502016040518060a00160405290816000820154815260200160018201548152602001600282018054610656906129a1565b80601f0160208091040260200160405190810160405280929190818152602001828054610682906129a1565b80156106cf5780601f106106a4576101008083540402835291602001916106cf565b820191906000526020600020905b8154815290600101906020018083116106b257829003601f168201915b505050505081526020016003820180546106e8906129a1565b80601f0160208091040260200160405190810160405280929190818152602001828054610714906129a1565b80156107615780601f1061073657610100808354040283529160200191610761565b820191906000526020600020905b81548152906001019060200180831161074457829003601f168201915b505050505081526020016004820154815250508152602001906001019061060f565b50505050905060008151905060008080600090505b838110156107e057898582815181106107b4576107b3612be5565b5b602002602001015160000151036107cd57809150600192505b80806107d890612c43565b915050610798565b506001151582151514610828576040517f08c379a000000000000000000000000000000000000000000000000000000000815260040161081f90612cd7565b60405180910390fd5b81156108b55789600360008e815260200190815260200160002060050160008a8152602001908152602001600020828154811061086857610867612be5565b5b9060005260206000209060050201600401819055507fc01a711a994234663e49bcaf267235941ef164ac0dea30de367e8cdb0eeabd5a896040516108ac91906123a2565b60405180910390a15b505050505b5050505050505050565b8282600360008381526020019081526020016000206002016040516108e99190612a75565b6040518091039020816040516020016109029190612ad8565b6040516020818303038152906040528051906020012014610958576040517f08c379a000000000000000000000000000000000000000000000000000000000815260040161094f90612b59565b60405180910390fd5b82600981511461099d576040517f08c379a000000000000000000000000000000000000000000000000000000000815260040161099490612d43565b60405180910390fd5b336003600088815260200190815260200160002060000160006101000a81548173ffffffffffffffffffffffffffffffffffffffff021916908373ffffffffffffffffffffffffffffffffffffffff16021790555083604051602001610a039190612daf565b604051602081830303815290604052600360008881526020019081526020016000206001019081610a349190612f86565b507fdc5f6b9352635161a74876313a5729a4d33d34f1f65e69809e2e4275fb16be5560405160405180910390a1505050505050565b6000600460008373ffffffffffffffffffffffffffffffffffffffff1673ffffffffffffffffffffffffffffffffffffffff168152602001908152602001600020549050919050565b606060026000600160008581526020019081526020016000206002015481526020019081526020016000206001018054610aeb906129a1565b80601f0160208091040260200160405190810160405280929190818152602001828054610b17906129a1565b8015610b645780601f10610b3957610100808354040283529160200191610b64565b820191906000526020600020905b815481529060010190602001808311610b4757829003601f168201915b50505050509050919050565b6000826009815114610bb7576040517f08c379a0000000000000000000000000000000000000000000000000000000008152600401610bae90612d43565b60405180910390fd5b662386f26fc10000341015610c01576040517f08c379a0000000000000000000000000000000000000000000000000000000008152600401610bf8906130ca565b60405180910390fd5b60066000815480929190610c1490612c43565b919050555060006003600060065481526020019081526020016000209050338160000160006101000a81548173ffffffffffffffffffffffffffffffffffffffff021916908373ffffffffffffffffffffffffffffffffffffffff16021790555084604051602001610c869190612daf565b604051602081830303815290604052816001019081610ca59190612f86565b5083604051602001610cb79190612ad8565b604051602081830303815290604052816002019081610cd69190612f86565b506006548160030181905550600654600460003373ffffffffffffffffffffffffffffffffffffffff1673ffffffffffffffffffffffffffffffffffffffff168152602001908152602001600020819055507f2de40ce37397b7fb2d98ae62dc520d88b46e2c50beac9f696f11ccc6605ef3eb60405160405180910390a16006549250505092915050565b816000600360008381526020019081526020016000206003015411610dbb576040517f08c379a0000000000000000000000000000000000000000000000000000000008152600401610db290612952565b60405180910390fd5b828260036000838152602001908152602001600020600201604051610de09190612a75565b604051809103902081604051602001610df99190612ad8565b6040516020818303038152906040528051906020012014610e4f576040517f08c379a0000000000000000000000000000000000000000000000000000000008152600401610e4690612b59565b60405180910390fd5b600060075467ffffffffffffffff811115610e6d57610e6c6120ed565b5b604051908082528060200260200182016040528015610e9b5781602001602082028036833780820191505090505b509050600060075467ffffffffffffffff811115610ebc57610ebb6120ed565b5b604051908082528060200260200182016040528015610eea5781602001602082028036833780820191505090505b509050600060075467ffffffffffffffff811115610f0b57610f0a6120ed565b5b604051908082528060200260200182016040528015610f3e57816020015b6060815260200190600190039081610f295790505b509050600060075467ffffffffffffffff811115610f5f57610f5e6120ed565b5b604051908082528060200260200182016040528015610f9257816020015b6060815260200190600190039081610f7d5790505b5090506000600560008b8152602001908152602001600020805480602002602001604051908101604052809291908181526020018280548015610ff457602002820191906000526020600020905b815481526020019060010190808311610fe0575b505050505090506000805b825181101561136857600083828151811061101d5761101c612be5565b5b602002602001015190506000600360008f81526020019081526020016000206005016000838152602001908152602001600020805480602002602001604051908101604052809291908181526020016000905b828210156111e457838290600052602060002090600502016040518060a001604052908160008201548152602001600182015481526020016002820180546110b7906129a1565b80601f01602080910402602001604051908101604052809291908181526020018280546110e3906129a1565b80156111305780601f1061110557610100808354040283529160200191611130565b820191906000526020600020905b81548152906001019060200180831161111357829003601f168201915b50505050508152602001600382018054611149906129a1565b80601f0160208091040260200160405190810160405280929190818152602001828054611175906129a1565b80156111c25780601f10611197576101008083540402835291602001916111c2565b820191906000526020600020905b8154815290600101906020018083116111a557829003601f168201915b5050505050815260200160048201548152505081526020019060010190611070565b50505050905060005b815181101561135257600082828151811061120b5761120a612be5565b5b602002602001015190506040518060400160405280600281526020017f307800000000000000000000000000000000000000000000000000000000000081525060405160200161125b919061311b565b6040516020818303038152906040528051906020012081608001516040516020016112869190613153565b604051602081830303815290604052805190602001201461133e5780600001518b87815181106112b9576112b8612be5565b5b60200260200101818152505080602001518a87815181106112dd576112dc612be5565b5b602002602001018181525050806040015189878151811061130157611300612be5565b5b6020026020010181905250806060015188878151811061132457611323612be5565b5b6020026020010181905250858061133a90612c43565b9650505b50808061134a90612c43565b9150506111ed565b505050808061136090612c43565b915050610fff565b507ff27964db71fbfa9cae0795251acb513d2227e5f9a4e8c35b6b5572a7267c243a8686868660405161139e9493929190613338565b60405180910390a15050505050505050505050565b600086600060036000838152602001908152602001600020600301541161140f576040517f08c379a000000000000000000000000000000000000000000000000000000000815260040161140690612952565b60405180910390fd5b8787600360008381526020019081526020016000206002016040516114349190612a75565b60405180910390208160405160200161144d9190612ad8565b60405160208183030381529060405280519060200120146114a3576040517f08c379a000000000000000000000000000000000000000000000000000000000815260040161149a90612b59565b60405180910390fd5b85600c8151146114e8576040517f08c379a00000000000000000000000000000000000000000000000000000000081526004016114df906133e5565b60405180910390fd5b600960008154809291906114fb90612c43565b91905055506000600160006009548152602001908152602001600020905060095481600001819055508b8160010181905550898160020181905550888160030160006101000a81548160ff0219169083600281111561155d5761155c6127d5565b5b0217905550878160040190816115739190613460565b50868160050190816115859190613460565b507f08b2c200b5f16565b86d1596988527109771ff8ed118f330cca9ee70d6ba9a166009546040516115b791906123a2565b60405180910390a1600954955050505050509695505050505050565b600087600060036000838152602001908152602001600020600301541161162f576040517f08c379a000000000000000000000000000000000000000000000000000000000815260040161162690612952565b60405180910390fd5b8888600360008381526020019081526020016000206002016040516116549190612a75565b60405180910390208160405160200161166d9190612ad8565b60405160208183030381529060405280519060200120146116c3576040517f08c379a00000000000000000000000000000000000000000000000000000000081526004016116ba90612b59565b60405180910390fd5b856008815114611708576040517f08c379a00000000000000000000000000000000000000000000000000000000081526004016116ff906133e5565b60405180910390fd5b6008600081548092919061171b90612c43565b91905055506000600260006008548152602001908152602001600020905060085481600001819055508a8160010190816117559190613460565b50898160020190816117679190613460565b50888160030190816117799190613460565b508781600401908161178b9190613460565b508681600501908161179d9190613460565b5060085495505050505050979650505050505050565b600083600060036000838152602001908152602001600020600301541161180f576040517f08c379a000000000000000000000000000000000000000000000000000000000815260040161180690612952565b60405180910390fd5b6000600360008781526020019081526020016000206005016000858152602001908152602001600020805480602002602001604051908101604052809291908181526020016000905b828210156119cc57838290600052602060002090600502016040518060a0016040529081600082015481526020016001820154815260200160028201805461189f906129a1565b80601f01602080910402602001604051908101604052809291908181526020018280546118cb906129a1565b80156119185780601f106118ed57610100808354040283529160200191611918565b820191906000526020600020905b8154815290600101906020018083116118fb57829003601f168201915b50505050508152602001600382018054611931906129a1565b80601f016020809104026020016040519081016040528092919081815260200182805461195d906129a1565b80156119aa5780601f1061197f576101008083540402835291602001916119aa565b820191906000526020600020905b81548152906001019060200180831161198d57829003601f168201915b5050505050815260200160048201548152505081526020019060010190611858565b50505050905060008151905060008080600090505b83811015611a2957888582815181106119fd576119fc612be5565b5b60200260200101516000015103611a1657809150600192505b8080611a2190612c43565b9150506119e1565b506001151582151514611a71576040517f08c379a0000000000000000000000000000000000000000000000000000000008152600401611a6890612cd7565b60405180910390fd5b8115611aa157838181518110611a8a57611a89612be5565b5b602002602001015160800151955050505050611aa6565b505050505b509392505050565b60006001600083815260200190815260200160002060030160009054906101000a900460ff169050919050565b826003600082815260200190815260200160002060000160009054906101000a900473ffffffffffffffffffffffffffffffffffffffff1673ffffffffffffffffffffffffffffffffffffffff163373ffffffffffffffffffffffffffffffffffffffff1614611b80576040517f08c379a0000000000000000000000000000000000000000000000000000000008152600401611b779061357e565b60405180910390fd5b838360036000838152602001908152602001600020600201604051611ba59190612a75565b604051809103902081604051602001611bbe9190612ad8565b6040516020818303038152906040528051906020012014611c14576040517f08c379a0000000000000000000000000000000000000000000000000000000008152600401611c0b90612b59565b60405180910390fd5b83604051602001611c259190612ad8565b604051602081830303815290604052600360008881526020019081526020016000206002019081611c569190612f86565b50505050505050565b606060026000600160008581526020019081526020016000206002015481526020019081526020016000206002018054611c98906129a1565b80601f0160208091040260200160405190810160405280929190818152602001828054611cc4906129a1565b8015611d115780601f10611ce657610100808354040283529160200191611d11565b820191906000526020600020905b815481529060010190602001808311611cf457829003601f168201915b50505050509050919050565b6000846000600360008381526020019081526020016000206003015411611d79576040517f08c379a0000000000000000000000000000000000000000000000000000000008152600401611d7090612952565b60405180910390fd5b60076000815480929190611d8c90612c43565b919050555060006003600088815260200190815260200160002060050160008781526020019081526020016000206001816001815401808255809150500390600052602060002090600502019050600754816000018190555085816001018190555084816002019081611dff9190613460565b5083816003019081611e119190613460565b50600560008881526020019081526020016000208690806001815401808255809150506001900390600052602060002001600090919091909150557f7cd6f88cec54e07d7b5a709e82d19e951e8d3a8f8e64c3982e5c2305383034b1600754604051611e7d91906123a2565b60405180910390a160075492505050949350505050565b6060816003600082815260200190815260200160002060000160009054906101000a900473ffffffffffffffffffffffffffffffffffffffff1673ffffffffffffffffffffffffffffffffffffffff163373ffffffffffffffffffffffffffffffffffffffff1614611f3b576040517f08c379a0000000000000000000000000000000000000000000000000000000008152600401611f329061357e565b60405180910390fd5b600080600360008681526020019081526020016000206002018054611f5f906129a1565b80601f0160208091040260200160405190810160405280929190818152602001828054611f8b906129a1565b8015611fd85780601f10611fad57610100808354040283529160200191611fd8565b820191906000526020600020905b815481529060010190602001808311611fbb57829003601f168201915b5050505050806020019051810190611ff0919061360e565b91509150819350505050919050565b6000604051905090565b600080fd5b600080fd5b6000819050919050565b61202681612013565b811461203157600080fd5b50565b6000813590506120438161201d565b92915050565b60006020828403121561205f5761205e612009565b5b600061206d84828501612034565b91505092915050565b600073ffffffffffffffffffffffffffffffffffffffff82169050919050565b60006120a182612076565b9050919050565b6120b181612096565b82525050565b60006020820190506120cc60008301846120a8565b92915050565b600080fd5b600080fd5b6000601f19601f8301169050919050565b7f4e487b7100000000000000000000000000000000000000000000000000000000600052604160045260246000fd5b612125826120dc565b810181811067ffffffffffffffff82111715612144576121436120ed565b5b80604052505050565b6000612157611fff565b9050612163828261211c565b919050565b600067ffffffffffffffff821115612183576121826120ed565b5b61218c826120dc565b9050602081019050919050565b82818337600083830152505050565b60006121bb6121b684612168565b61214d565b9050828152602081018484840111156121d7576121d66120d7565b5b6121e2848285612199565b509392505050565b600082601f8301126121ff576121fe6120d2565b5b813561220f8482602086016121a8565b91505092915050565b600080600080600060a0868803121561223457612233612009565b5b600061224288828901612034565b955050602086013567ffffffffffffffff8111156122635761226261200e565b5b61226f888289016121ea565b945050604061228088828901612034565b935050606061229188828901612034565b92505060806122a288828901612034565b9150509295509295909350565b6000806000606084860312156122c8576122c7612009565b5b60006122d686828701612034565b935050602084013567ffffffffffffffff8111156122f7576122f661200e565b5b612303868287016121ea565b925050604084013567ffffffffffffffff8111156123245761232361200e565b5b612330868287016121ea565b9150509250925092565b61234381612096565b811461234e57600080fd5b50565b6000813590506123608161233a565b92915050565b60006020828403121561237c5761237b612009565b5b600061238a84828501612351565b91505092915050565b61239c81612013565b82525050565b60006020820190506123b76000830184612393565b92915050565b600081519050919050565b600082825260208201905092915050565b60005b838110156123f75780820151818401526020810190506123dc565b60008484015250505050565b600061240e826123bd565b61241881856123c8565b93506124288185602086016123d9565b612431816120dc565b840191505092915050565b600060208201905081810360008301526124568184612403565b905092915050565b6000806040838503121561247557612474612009565b5b600083013567ffffffffffffffff8111156124935761249261200e565b5b61249f858286016121ea565b925050602083013567ffffffffffffffff8111156124c0576124bf61200e565b5b6124cc858286016121ea565b9150509250929050565b600080604083850312156124ed576124ec612009565b5b60006124fb85828601612034565b925050602083013567ffffffffffffffff81111561251c5761251b61200e565b5b612528858286016121ea565b9150509250929050565b6003811061253f57600080fd5b50565b60008135905061255181612532565b92915050565b60008060008060008060c0878903121561257457612573612009565b5b600061258289828a01612034565b965050602087013567ffffffffffffffff8111156125a3576125a261200e565b5b6125af89828a016121ea565b95505060406125c089828a01612034565b94505060606125d189828a01612542565b935050608087013567ffffffffffffffff8111156125f2576125f161200e565b5b6125fe89828a016121ea565b92505060a087013567ffffffffffffffff81111561261f5761261e61200e565b5b61262b89828a016121ea565b9150509295509295509295565b600080600080600080600060e0888a03121561265757612656612009565b5b60006126658a828b01612034565b975050602088013567ffffffffffffffff8111156126865761268561200e565b5b6126928a828b016121ea565b965050604088013567ffffffffffffffff8111156126b3576126b261200e565b5b6126bf8a828b016121ea565b955050606088013567ffffffffffffffff8111156126e0576126df61200e565b5b6126ec8a828b016121ea565b945050608088013567ffffffffffffffff81111561270d5761270c61200e565b5b6127198a828b016121ea565b93505060a088013567ffffffffffffffff81111561273a5761273961200e565b5b6127468a828b016121ea565b92505060c088013567ffffffffffffffff8111156127675761276661200e565b5b6127738a828b016121ea565b91505092959891949750929550565b60008060006060848603121561279b5761279a612009565b5b60006127a986828701612034565b93505060206127ba86828701612034565b92505060406127cb86828701612034565b9150509250925092565b7f4e487b7100000000000000000000000000000000000000000000000000000000600052602160045260246000fd5b60038110612815576128146127d5565b5b50565b600081905061282682612804565b919050565b600061283682612818565b9050919050565b6128468161282b565b82525050565b6000602082019050612861600083018461283d565b92915050565b6000806000806080858703121561288157612880612009565b5b600061288f87828801612034565b94505060206128a087828801612034565b935050604085013567ffffffffffffffff8111156128c1576128c061200e565b5b6128cd878288016121ea565b925050606085013567ffffffffffffffff8111156128ee576128ed61200e565b5b6128fa878288016121ea565b91505092959194509250565b7f496e76616c696420686f73706974616c20696421000000000000000000000000600082015250565b600061293c6014836123c8565b915061294782612906565b602082019050919050565b6000602082019050818103600083015261296b8161292f565b9050919050565b7f4e487b7100000000000000000000000000000000000000000000000000000000600052602260045260246000fd5b600060028204905060018216806129b957607f821691505b6020821081036129cc576129cb612972565b5b50919050565b600081905092915050565b60008190508160005260206000209050919050565b600081546129ff816129a1565b612a0981866129d2565b94506001821660008114612a245760018114612a3957612a6c565b60ff1983168652811515820286019350612a6c565b612a42856129dd565b60005b83811015612a6457815481890152600182019150602081019050612a45565b838801955050505b50505092915050565b6000612a8182846129f2565b915081905092915050565b7f70617373776f7264000000000000000000000000000000000000000000000000600082015250565b6000612ac26008836123c8565b9150612acd82612a8c565b602082019050919050565b60006040820190508181036000830152612af28184612403565b90508181036020830152612b0581612ab5565b905092915050565b7f57726f6e672070617373776f7264210000000000000000000000000000000000600082015250565b6000612b43600f836123c8565b9150612b4e82612b0d565b602082019050919050565b60006020820190508181036000830152612b7281612b36565b9050919050565b7f4e6f742072657175657374207965742100000000000000000000000000000000600082015250565b6000612baf6010836123c8565b9150612bba82612b79565b602082019050919050565b60006020820190508181036000830152612bde81612ba2565b9050919050565b7f4e487b7100000000000000000000000000000000000000000000000000000000600052603260045260246000fd5b7f4e487b7100000000000000000000000000000000000000000000000000000000600052601160045260246000fd5b6000612c4e82612013565b91507fffffffffffffffffffffffffffffffffffffffffffffffffffffffffffffffff8203612c8057612c7f612c14565b5b600182019050919050565b7f496e76616c696420726571756573742069642100000000000000000000000000600082015250565b6000612cc16013836123c8565b9150612ccc82612c8b565b602082019050919050565b60006020820190508181036000830152612cf081612cb4565b9050919050565b7f696e76616c6964204e524943206e756d62657200000000000000000000000000600082015250565b6000612d2d6013836123c8565b9150612d3882612cf7565b602082019050919050565b60006020820190508181036000830152612d5c81612d20565b9050919050565b7f6963000000000000000000000000000000000000000000000000000000000000600082015250565b6000612d996002836123c8565b9150612da482612d63565b602082019050919050565b60006040820190508181036000830152612dc98184612403565b90508181036020830152612ddc81612d8c565b905092915050565b600081519050919050565b60006020601f8301049050919050565b600082821b905092915050565b600060088302612e3c7fffffffffffffffffffffffffffffffffffffffffffffffffffffffffffffffff82612dff565b612e468683612dff565b95508019841693508086168417925050509392505050565b6000819050919050565b6000612e83612e7e612e7984612013565b612e5e565b612013565b9050919050565b6000819050919050565b612e9d83612e68565b612eb1612ea982612e8a565b848454612e0c565b825550505050565b600090565b612ec6612eb9565b612ed1818484612e94565b505050565b5b81811015612ef557612eea600082612ebe565b600181019050612ed7565b5050565b601f821115612f3a57612f0b816129dd565b612f1484612def565b81016020851015612f23578190505b612f37612f2f85612def565b830182612ed6565b50505b505050565b600082821c905092915050565b6000612f5d60001984600802612f3f565b1980831691505092915050565b6000612f768383612f4c565b9150826002028217905092915050565b612f8f82612de4565b67ffffffffffffffff811115612fa857612fa76120ed565b5b612fb282546129a1565b612fbd828285612ef9565b600060209050601f831160018114612ff05760008415612fde578287015190505b612fe88582612f6a565b865550613050565b601f198416612ffe866129dd565b60005b8281101561302657848901518255600182019150602085019450602081019050613001565b86831015613043578489015161303f601f891682612f4c565b8355505b6001600288020188555050505b505050505050565b7f302e303120455448206973206e656564656420746f207265676973746572207960008201527f6f757220686f73706974616c0000000000000000000000000000000000000000602082015250565b60006130b4602c836123c8565b91506130bf82613058565b604082019050919050565b600060208201905081810360008301526130e3816130a7565b9050919050565b60006130f582612de4565b6130ff81856129d2565b935061310f8185602086016123d9565b80840191505092915050565b600061312782846130ea565b915081905092915050565b6000819050919050565b61314d61314882612013565b613132565b82525050565b600061315f828461313c565b60208201915081905092915050565b600081519050919050565b600082825260208201905092915050565b6000819050602082019050919050565b6131a381612013565b82525050565b60006131b5838361319a565b60208301905092915050565b6000602082019050919050565b60006131d98261316e565b6131e38185613179565b93506131ee8361318a565b8060005b8381101561321f57815161320688826131a9565b9750613211836131c1565b9250506001810190506131f2565b5085935050505092915050565b600081519050919050565b600082825260208201905092915050565b6000819050602082019050919050565b600082825260208201905092915050565b6000613274826123bd565b61327e8185613258565b935061328e8185602086016123d9565b613297816120dc565b840191505092915050565b60006132ae8383613269565b905092915050565b6000602082019050919050565b60006132ce8261322c565b6132d88185613237565b9350836020820285016132ea85613248565b8060005b85811015613326578484038952815161330785826132a2565b9450613312836132b6565b925060208a019950506001810190506132ee565b50829750879550505050505092915050565b6000608082019050818103600083015261335281876131ce565b9050818103602083015261336681866131ce565b9050818103604083015261337a81856132c3565b9050818103606083015261338e81846132c3565b905095945050505050565b7f496e76616c696420646174652100000000000000000000000000000000000000600082015250565b60006133cf600d836123c8565b91506133da82613399565b602082019050919050565b600060208201905081810360008301526133fe816133c2565b9050919050565b60008190508160005260206000209050919050565b601f82111561345b5761342c81613405565b61343584612def565b81016020851015613444578190505b61345861345085612def565b830182612ed6565b50505b505050565b613469826123bd565b67ffffffffffffffff811115613482576134816120ed565b5b61348c82546129a1565b61349782828561341a565b600060209050601f8311600181146134ca57600084156134b8578287015190505b6134c28582612f6a565b86555061352a565b601f1984166134d886613405565b60005b82811015613500578489015182556001820191506020850194506020810190506134db565b8683101561351d5784890151613519601f891682612f4c565b8355505b6001600288020188555050505b505050505050565b7f556e617574686f72697a65642100000000000000000000000000000000000000600082015250565b6000613568600d836123c8565b915061357382613532565b602082019050919050565b600060208201905081810360008301526135978161355b565b9050919050565b60006135b16135ac84612168565b61214d565b9050828152602081018484840111156135cd576135cc6120d7565b5b6135d88482856123d9565b509392505050565b600082601f8301126135f5576135f46120d2565b5b815161360584826020860161359e565b91505092915050565b6000806040838503121561362557613624612009565b5b600083015167ffffffffffffffff8111156136435761364261200e565b5b61364f858286016135e0565b925050602083015167ffffffffffffffff8111156136705761366f61200e565b5b61367c858286016135e0565b915050925092905056fea26469706673582212209e93011e8cb9e81db139f489132b11c0a999ad1215090351e47813b4cec8f53b64736f6c63430008120033",
					"opcodes": "PUSH1 0x80 PUSH1 0x40 MSTORE PUSH1 0x0 DUP1 SSTORE PUSH1 0x0 PUSH1 0x6 SSTORE PUSH1 0x0 PUSH1 0x7 SSTORE PUSH1 0x0 PUSH1 0x8 SSTORE PUSH1 0x0 PUSH1 0x9 SSTORE CALLVALUE DUP1 ISZERO PUSH2 0x28 JUMPI PUSH1 0x0 DUP1 REVERT JUMPDEST POP PUSH2 0x36BC DUP1 PUSH2 0x38 PUSH1 0x0 CODECOPY PUSH1 0x0 RETURN INVALID PUSH1 0x80 PUSH1 0x40 MSTORE PUSH1 0x4 CALLDATASIZE LT PUSH2 0xE8 JUMPI PUSH1 0x0 CALLDATALOAD PUSH1 0xE0 SHR DUP1 PUSH4 0x66E918B8 GT PUSH2 0x8A JUMPI DUP1 PUSH4 0xCA630E1F GT PUSH2 0x59 JUMPI DUP1 PUSH4 0xCA630E1F EQ PUSH2 0x343 JUMPI DUP1 PUSH4 0xCAAFC4FB EQ PUSH2 0x36C JUMPI DUP1 PUSH4 0xF043E745 EQ PUSH2 0x3A9 JUMPI DUP1 PUSH4 0xF38C6BB6 EQ PUSH2 0x3E6 JUMPI PUSH2 0xE8 JUMP JUMPDEST DUP1 PUSH4 0x66E918B8 EQ PUSH2 0x24F JUMPI DUP1 PUSH4 0x74946460 EQ PUSH2 0x28C JUMPI DUP1 PUSH4 0x9CB3D01F EQ PUSH2 0x2C9 JUMPI DUP1 PUSH4 0xBAAAB57A EQ PUSH2 0x306 JUMPI PUSH2 0xE8 JUMP JUMPDEST DUP1 PUSH4 0x2A177158 GT PUSH2 0xC6 JUMPI DUP1 PUSH4 0x2A177158 EQ PUSH2 0x17C JUMPI DUP1 PUSH4 0x302E1AB1 EQ PUSH2 0x1B9 JUMPI DUP1 PUSH4 0x3FFBD47F EQ PUSH2 0x1F6 JUMPI DUP1 PUSH4 0x452BA754 EQ PUSH2 0x226 JUMPI PUSH2 0xE8 JUMP JUMPDEST DUP1 PUSH4 0x10AB2570 EQ PUSH2 0xED JUMPI DUP1 PUSH4 0x18C40F27 EQ PUSH2 0x12A JUMPI DUP1 PUSH4 0x1E8993D9 EQ PUSH2 0x153 JUMPI JUMPDEST PUSH1 0x0 DUP1 REVERT JUMPDEST CALLVALUE DUP1 ISZERO PUSH2 0xF9 JUMPI PUSH1 0x0 DUP1 REVERT JUMPDEST POP PUSH2 0x114 PUSH1 0x4 DUP1 CALLDATASIZE SUB DUP2 ADD SWAP1 PUSH2 0x10F SWAP2 SWAP1 PUSH2 0x2049 JUMP JUMPDEST PUSH2 0x423 JUMP JUMPDEST PUSH1 0x40 MLOAD PUSH2 0x121 SWAP2 SWAP1 PUSH2 0x20B7 JUMP JUMPDEST PUSH1 0x40 MLOAD DUP1 SWAP2 SUB SWAP1 RETURN JUMPDEST CALLVALUE DUP1 ISZERO PUSH2 0x136 JUMPI PUSH1 0x0 DUP1 REVERT JUMPDEST POP PUSH2 0x151 PUSH1 0x4 DUP1 CALLDATASIZE SUB DUP2 ADD SWAP1 PUSH2 0x14C SWAP2 SWAP1 PUSH2 0x2218 JUMP JUMPDEST PUSH2 0x463 JUMP JUMPDEST STOP JUMPDEST CALLVALUE DUP1 ISZERO PUSH2 0x15F JUMPI PUSH1 0x0 DUP1 REVERT JUMPDEST POP PUSH2 0x17A PUSH1 0x4 DUP1 CALLDATASIZE SUB DUP2 ADD SWAP1 PUSH2 0x175 SWAP2 SWAP1 PUSH2 0x22AF JUMP JUMPDEST PUSH2 0x8C4 JUMP JUMPDEST STOP JUMPDEST CALLVALUE DUP1 ISZERO PUSH2 0x188 JUMPI PUSH1 0x0 DUP1 REVERT JUMPDEST POP PUSH2 0x1A3 PUSH1 0x4 DUP1 CALLDATASIZE SUB DUP2 ADD SWAP1 PUSH2 0x19E SWAP2 SWAP1 PUSH2 0x2366 JUMP JUMPDEST PUSH2 0xA69 JUMP JUMPDEST PUSH1 0x40 MLOAD PUSH2 0x1B0 SWAP2 SWAP1 PUSH2 0x23A2 JUMP JUMPDEST PUSH1 0x40 MLOAD DUP1 SWAP2 SUB SWAP1 RETURN JUMPDEST CALLVALUE DUP1 ISZERO PUSH2 0x1C5 JUMPI PUSH1 0x0 DUP1 REVERT JUMPDEST POP PUSH2 0x1E0 PUSH1 0x4 DUP1 CALLDATASIZE SUB DUP2 ADD SWAP1 PUSH2 0x1DB SWAP2 SWAP1 PUSH2 0x2049 JUMP JUMPDEST PUSH2 0xAB2 JUMP JUMPDEST PUSH1 0x40 MLOAD PUSH2 0x1ED SWAP2 SWAP1 PUSH2 0x243C JUMP JUMPDEST PUSH1 0x40 MLOAD DUP1 SWAP2 SUB SWAP1 RETURN JUMPDEST PUSH2 0x210 PUSH1 0x4 DUP1 CALLDATASIZE SUB DUP2 ADD SWAP1 PUSH2 0x20B SWAP2 SWAP1 PUSH2 0x245E JUMP JUMPDEST PUSH2 0xB70 JUMP JUMPDEST PUSH1 0x40 MLOAD PUSH2 0x21D SWAP2 SWAP1 PUSH2 0x23A2 JUMP JUMPDEST PUSH1 0x40 MLOAD DUP1 SWAP2 SUB SWAP1 RETURN JUMPDEST CALLVALUE DUP1 ISZERO PUSH2 0x232 JUMPI PUSH1 0x0 DUP1 REVERT JUMPDEST POP PUSH2 0x24D PUSH1 0x4 DUP1 CALLDATASIZE SUB DUP2 ADD SWAP1 PUSH2 0x248 SWAP2 SWAP1 PUSH2 0x24D6 JUMP JUMPDEST PUSH2 0xD61 JUMP JUMPDEST STOP JUMPDEST CALLVALUE DUP1 ISZERO PUSH2 0x25B JUMPI PUSH1 0x0 DUP1 REVERT JUMPDEST POP PUSH2 0x276 PUSH1 0x4 DUP1 CALLDATASIZE SUB DUP2 ADD SWAP1 PUSH2 0x271 SWAP2 SWAP1 PUSH2 0x2557 JUMP JUMPDEST PUSH2 0x13B3 JUMP JUMPDEST PUSH1 0x40 MLOAD PUSH2 0x283 SWAP2 SWAP1 PUSH2 0x23A2 JUMP JUMPDEST PUSH1 0x40 MLOAD DUP1 SWAP2 SUB SWAP1 RETURN JUMPDEST CALLVALUE DUP1 ISZERO PUSH2 0x298 JUMPI PUSH1 0x0 DUP1 REVERT JUMPDEST POP PUSH2 0x2B3 PUSH1 0x4 DUP1 CALLDATASIZE SUB DUP2 ADD SWAP1 PUSH2 0x2AE SWAP2 SWAP1 PUSH2 0x2638 JUMP JUMPDEST PUSH2 0x15D3 JUMP JUMPDEST PUSH1 0x40 MLOAD PUSH2 0x2C0 SWAP2 SWAP1 PUSH2 0x23A2 JUMP JUMPDEST PUSH1 0x40 MLOAD DUP1 SWAP2 SUB SWAP1 RETURN JUMPDEST CALLVALUE DUP1 ISZERO PUSH2 0x2D5 JUMPI PUSH1 0x0 DUP1 REVERT JUMPDEST POP PUSH2 0x2F0 PUSH1 0x4 DUP1 CALLDATASIZE SUB DUP2 ADD SWAP1 PUSH2 0x2EB SWAP2 SWAP1 PUSH2 0x2782 JUMP JUMPDEST PUSH2 0x17B3 JUMP JUMPDEST PUSH1 0x40 MLOAD PUSH2 0x2FD SWAP2 SWAP1 PUSH2 0x23A2 JUMP JUMPDEST PUSH1 0x40 MLOAD DUP1 SWAP2 SUB SWAP1 RETURN JUMPDEST CALLVALUE DUP1 ISZERO PUSH2 0x312 JUMPI PUSH1 0x0 DUP1 REVERT JUMPDEST POP PUSH2 0x32D PUSH1 0x4 DUP1 CALLDATASIZE SUB DUP2 ADD SWAP1 PUSH2 0x328 SWAP2 SWAP1 PUSH2 0x2049 JUMP JUMPDEST PUSH2 0x1AAE JUMP JUMPDEST PUSH1 0x40 MLOAD PUSH2 0x33A SWAP2 SWAP1 PUSH2 0x284C JUMP JUMPDEST PUSH1 0x40 MLOAD DUP1 SWAP2 SUB SWAP1 RETURN JUMPDEST CALLVALUE DUP1 ISZERO PUSH2 0x34F JUMPI PUSH1 0x0 DUP1 REVERT JUMPDEST POP PUSH2 0x36A PUSH1 0x4 DUP1 CALLDATASIZE SUB DUP2 ADD SWAP1 PUSH2 0x365 SWAP2 SWAP1 PUSH2 0x22AF JUMP JUMPDEST PUSH2 0x1ADB JUMP JUMPDEST STOP JUMPDEST CALLVALUE DUP1 ISZERO PUSH2 0x378 JUMPI PUSH1 0x0 DUP1 REVERT JUMPDEST POP PUSH2 0x393 PUSH1 0x4 DUP1 CALLDATASIZE SUB DUP2 ADD SWAP1 PUSH2 0x38E SWAP2 SWAP1 PUSH2 0x2049 JUMP JUMPDEST PUSH2 0x1C5F JUMP JUMPDEST PUSH1 0x40 MLOAD PUSH2 0x3A0 SWAP2 SWAP1 PUSH2 0x243C JUMP JUMPDEST PUSH1 0x40 MLOAD DUP1 SWAP2 SUB SWAP1 RETURN JUMPDEST CALLVALUE DUP1 ISZERO PUSH2 0x3B5 JUMPI PUSH1 0x0 DUP1 REVERT JUMPDEST POP PUSH2 0x3D0 PUSH1 0x4 DUP1 CALLDATASIZE SUB DUP2 ADD SWAP1 PUSH2 0x3CB SWAP2 SWAP1 PUSH2 0x2867 JUMP JUMPDEST PUSH2 0x1D1D JUMP JUMPDEST PUSH1 0x40 MLOAD PUSH2 0x3DD SWAP2 SWAP1 PUSH2 0x23A2 JUMP JUMPDEST PUSH1 0x40 MLOAD DUP1 SWAP2 SUB SWAP1 RETURN JUMPDEST CALLVALUE DUP1 ISZERO PUSH2 0x3F2 JUMPI PUSH1 0x0 DUP1 REVERT JUMPDEST POP PUSH2 0x40D PUSH1 0x4 DUP1 CALLDATASIZE SUB DUP2 ADD SWAP1 PUSH2 0x408 SWAP2 SWAP1 PUSH2 0x2049 JUMP JUMPDEST PUSH2 0x1E94 JUMP JUMPDEST PUSH1 0x40 MLOAD PUSH2 0x41A SWAP2 SWAP1 PUSH2 0x243C JUMP JUMPDEST PUSH1 0x40 MLOAD DUP1 SWAP2 SUB SWAP1 RETURN JUMPDEST PUSH1 0x0 PUSH1 0x3 PUSH1 0x0 DUP4 DUP2 MSTORE PUSH1 0x20 ADD SWAP1 DUP2 MSTORE PUSH1 0x20 ADD PUSH1 0x0 KECCAK256 PUSH1 0x0 ADD PUSH1 0x0 SWAP1 SLOAD SWAP1 PUSH2 0x100 EXP SWAP1 DIV PUSH20 0xFFFFFFFFFFFFFFFFFFFFFFFFFFFFFFFFFFFFFFFF AND SWAP1 POP SWAP2 SWAP1 POP JUMP JUMPDEST DUP5 PUSH1 0x0 PUSH1 0x3 PUSH1 0x0 DUP4 DUP2 MSTORE PUSH1 0x20 ADD SWAP1 DUP2 MSTORE PUSH1 0x20 ADD PUSH1 0x0 KECCAK256 PUSH1 0x3 ADD SLOAD GT PUSH2 0x4BD JUMPI PUSH1 0x40 MLOAD PUSH32 0x8C379A000000000000000000000000000000000000000000000000000000000 DUP2 MSTORE PUSH1 0x4 ADD PUSH2 0x4B4 SWAP1 PUSH2 0x2952 JUMP JUMPDEST PUSH1 0x40 MLOAD DUP1 SWAP2 SUB SWAP1 REVERT JUMPDEST DUP6 DUP6 PUSH1 0x3 PUSH1 0x0 DUP4 DUP2 MSTORE PUSH1 0x20 ADD SWAP1 DUP2 MSTORE PUSH1 0x20 ADD PUSH1 0x0 KECCAK256 PUSH1 0x2 ADD PUSH1 0x40 MLOAD PUSH2 0x4E2 SWAP2 SWAP1 PUSH2 0x2A75 JUMP JUMPDEST PUSH1 0x40 MLOAD DUP1 SWAP2 SUB SWAP1 KECCAK256 DUP2 PUSH1 0x40 MLOAD PUSH1 0x20 ADD PUSH2 0x4FB SWAP2 SWAP1 PUSH2 0x2AD8 JUMP JUMPDEST PUSH1 0x40 MLOAD PUSH1 0x20 DUP2 DUP4 SUB SUB DUP2 MSTORE SWAP1 PUSH1 0x40 MSTORE DUP1 MLOAD SWAP1 PUSH1 0x20 ADD KECCAK256 EQ PUSH2 0x551 JUMPI PUSH1 0x40 MLOAD PUSH32 0x8C379A000000000000000000000000000000000000000000000000000000000 DUP2 MSTORE PUSH1 0x4 ADD PUSH2 0x548 SWAP1 PUSH2 0x2B59 JUMP JUMPDEST PUSH1 0x40 MLOAD DUP1 SWAP2 SUB SWAP1 REVERT JUMPDEST PUSH1 0x0 DUP6 EQ PUSH2 0x8BA JUMPI PUSH1 0x0 PUSH1 0x3 PUSH1 0x0 DUP11 DUP2 MSTORE PUSH1 0x20 ADD SWAP1 DUP2 MSTORE PUSH1 0x20 ADD PUSH1 0x0 KECCAK256 PUSH1 0x5 ADD PUSH1 0x0 DUP7 DUP2 MSTORE PUSH1 0x20 ADD SWAP1 DUP2 MSTORE PUSH1 0x20 ADD PUSH1 0x0 KECCAK256 DUP1 SLOAD SWAP1 POP GT PUSH2 0x5C6 JUMPI PUSH1 0x40 MLOAD PUSH32 0x8C379A000000000000000000000000000000000000000000000000000000000 DUP2 MSTORE PUSH1 0x4 ADD PUSH2 0x5BD SWAP1 PUSH2 0x2BC5 JUMP JUMPDEST PUSH1 0x40 MLOAD DUP1 SWAP2 SUB SWAP1 REVERT JUMPDEST PUSH1 0x0 PUSH1 0x3 PUSH1 0x0 DUP11 DUP2 MSTORE PUSH1 0x20 ADD SWAP1 DUP2 MSTORE PUSH1 0x20 ADD PUSH1 0x0 KECCAK256 PUSH1 0x5 ADD PUSH1 0x0 DUP7 DUP2 MSTORE PUSH1 0x20 ADD SWAP1 DUP2 MSTORE PUSH1 0x20 ADD PUSH1 0x0 KECCAK256 DUP1 SLOAD DUP1 PUSH1 0x20 MUL PUSH1 0x20 ADD PUSH1 0x40 MLOAD SWAP1 DUP2 ADD PUSH1 0x40 MSTORE DUP1 SWAP3 SWAP2 SWAP1 DUP2 DUP2 MSTORE PUSH1 0x20 ADD PUSH1 0x0 SWAP1 JUMPDEST DUP3 DUP3 LT ISZERO PUSH2 0x783 JUMPI DUP4 DUP3 SWAP1 PUSH1 0x0 MSTORE PUSH1 0x20 PUSH1 0x0 KECCAK256 SWAP1 PUSH1 0x5 MUL ADD PUSH1 0x40 MLOAD DUP1 PUSH1 0xA0 ADD PUSH1 0x40 MSTORE SWAP1 DUP2 PUSH1 0x0 DUP3 ADD SLOAD DUP2 MSTORE PUSH1 0x20 ADD PUSH1 0x1 DUP3 ADD SLOAD DUP2 MSTORE PUSH1 0x20 ADD PUSH1 0x2 DUP3 ADD DUP1 SLOAD PUSH2 0x656 SWAP1 PUSH2 0x29A1 JUMP JUMPDEST DUP1 PUSH1 0x1F ADD PUSH1 0x20 DUP1 SWAP2 DIV MUL PUSH1 0x20 ADD PUSH1 0x40 MLOAD SWAP1 DUP2 ADD PUSH1 0x40 MSTORE DUP1 SWAP3 SWAP2 SWAP1 DUP2 DUP2 MSTORE PUSH1 0x20 ADD DUP3 DUP1 SLOAD PUSH2 0x682 SWAP1 PUSH2 0x29A1 JUMP JUMPDEST DUP1 ISZERO PUSH2 0x6CF JUMPI DUP1 PUSH1 0x1F LT PUSH2 0x6A4 JUMPI PUSH2 0x100 DUP1 DUP4 SLOAD DIV MUL DUP4 MSTORE SWAP2 PUSH1 0x20 ADD SWAP2 PUSH2 0x6CF JUMP JUMPDEST DUP3 ADD SWAP2 SWAP1 PUSH1 0x0 MSTORE PUSH1 0x20 PUSH1 0x0 KECCAK256 SWAP1 JUMPDEST DUP2 SLOAD DUP2 MSTORE SWAP1 PUSH1 0x1 ADD SWAP1 PUSH1 0x20 ADD DUP1 DUP4 GT PUSH2 0x6B2 JUMPI DUP3 SWAP1 SUB PUSH1 0x1F AND DUP3 ADD SWAP2 JUMPDEST POP POP POP POP POP DUP2 MSTORE PUSH1 0x20 ADD PUSH1 0x3 DUP3 ADD DUP1 SLOAD PUSH2 0x6E8 SWAP1 PUSH2 0x29A1 JUMP JUMPDEST DUP1 PUSH1 0x1F ADD PUSH1 0x20 DUP1 SWAP2 DIV MUL PUSH1 0x20 ADD PUSH1 0x40 MLOAD SWAP1 DUP2 ADD PUSH1 0x40 MSTORE DUP1 SWAP3 SWAP2 SWAP1 DUP2 DUP2 MSTORE PUSH1 0x20 ADD DUP3 DUP1 SLOAD PUSH2 0x714 SWAP1 PUSH2 0x29A1 JUMP JUMPDEST DUP1 ISZERO PUSH2 0x761 JUMPI DUP1 PUSH1 0x1F LT PUSH2 0x736 JUMPI PUSH2 0x100 DUP1 DUP4 SLOAD DIV MUL DUP4 MSTORE SWAP2 PUSH1 0x20 ADD SWAP2 PUSH2 0x761 JUMP JUMPDEST DUP3 ADD SWAP2 SWAP1 PUSH1 0x0 MSTORE PUSH1 0x20 PUSH1 0x0 KECCAK256 SWAP1 JUMPDEST DUP2 SLOAD DUP2 MSTORE SWAP1 PUSH1 0x1 ADD SWAP1 PUSH1 0x20 ADD DUP1 DUP4 GT PUSH2 0x744 JUMPI DUP3 SWAP1 SUB PUSH1 0x1F AND DUP3 ADD SWAP2 JUMPDEST POP POP POP POP POP DUP2 MSTORE PUSH1 0x20 ADD PUSH1 0x4 DUP3 ADD SLOAD DUP2 MSTORE POP POP DUP2 MSTORE PUSH1 0x20 ADD SWAP1 PUSH1 0x1 ADD SWAP1 PUSH2 0x60F JUMP JUMPDEST POP POP POP POP SWAP1 POP PUSH1 0x0 DUP2 MLOAD SWAP1 POP PUSH1 0x0 DUP1 DUP1 PUSH1 0x0 SWAP1 POP JUMPDEST DUP4 DUP2 LT ISZERO PUSH2 0x7E0 JUMPI DUP10 DUP6 DUP3 DUP2 MLOAD DUP2 LT PUSH2 0x7B4 JUMPI PUSH2 0x7B3 PUSH2 0x2BE5 JUMP JUMPDEST JUMPDEST PUSH1 0x20 MUL PUSH1 0x20 ADD ADD MLOAD PUSH1 0x0 ADD MLOAD SUB PUSH2 0x7CD JUMPI DUP1 SWAP2 POP PUSH1 0x1 SWAP3 POP JUMPDEST DUP1 DUP1 PUSH2 0x7D8 SWAP1 PUSH2 0x2C43 JUMP JUMPDEST SWAP2 POP POP PUSH2 0x798 JUMP JUMPDEST POP PUSH1 0x1 ISZERO ISZERO DUP3 ISZERO ISZERO EQ PUSH2 0x828 JUMPI PUSH1 0x40 MLOAD PUSH32 0x8C379A000000000000000000000000000000000000000000000000000000000 DUP2 MSTORE PUSH1 0x4 ADD PUSH2 0x81F SWAP1 PUSH2 0x2CD7 JUMP JUMPDEST PUSH1 0x40 MLOAD DUP1 SWAP2 SUB SWAP1 REVERT JUMPDEST DUP2 ISZERO PUSH2 0x8B5 JUMPI DUP10 PUSH1 0x3 PUSH1 0x0 DUP15 DUP2 MSTORE PUSH1 0x20 ADD SWAP1 DUP2 MSTORE PUSH1 0x20 ADD PUSH1 0x0 KECCAK256 PUSH1 0x5 ADD PUSH1 0x0 DUP11 DUP2 MSTORE PUSH1 0x20 ADD SWAP1 DUP2 MSTORE PUSH1 0x20 ADD PUSH1 0x0 KECCAK256 DUP3 DUP2 SLOAD DUP2 LT PUSH2 0x868 JUMPI PUSH2 0x867 PUSH2 0x2BE5 JUMP JUMPDEST JUMPDEST SWAP1 PUSH1 0x0 MSTORE PUSH1 0x20 PUSH1 0x0 KECCAK256 SWAP1 PUSH1 0x5 MUL ADD PUSH1 0x4 ADD DUP2 SWAP1 SSTORE POP PUSH32 0xC01A711A994234663E49BCAF267235941EF164AC0DEA30DE367E8CDB0EEABD5A DUP10 PUSH1 0x40 MLOAD PUSH2 0x8AC SWAP2 SWAP1 PUSH2 0x23A2 JUMP JUMPDEST PUSH1 0x40 MLOAD DUP1 SWAP2 SUB SWAP1 LOG1 JUMPDEST POP POP POP POP JUMPDEST POP POP POP POP POP POP POP POP JUMP JUMPDEST DUP3 DUP3 PUSH1 0x3 PUSH1 0x0 DUP4 DUP2 MSTORE PUSH1 0x20 ADD SWAP1 DUP2 MSTORE PUSH1 0x20 ADD PUSH1 0x0 KECCAK256 PUSH1 0x2 ADD PUSH1 0x40 MLOAD PUSH2 0x8E9 SWAP2 SWAP1 PUSH2 0x2A75 JUMP JUMPDEST PUSH1 0x40 MLOAD DUP1 SWAP2 SUB SWAP1 KECCAK256 DUP2 PUSH1 0x40 MLOAD PUSH1 0x20 ADD PUSH2 0x902 SWAP2 SWAP1 PUSH2 0x2AD8 JUMP JUMPDEST PUSH1 0x40 MLOAD PUSH1 0x20 DUP2 DUP4 SUB SUB DUP2 MSTORE SWAP1 PUSH1 0x40 MSTORE DUP1 MLOAD SWAP1 PUSH1 0x20 ADD KECCAK256 EQ PUSH2 0x958 JUMPI PUSH1 0x40 MLOAD PUSH32 0x8C379A000000000000000000000000000000000000000000000000000000000 DUP2 MSTORE PUSH1 0x4 ADD PUSH2 0x94F SWAP1 PUSH2 0x2B59 JUMP JUMPDEST PUSH1 0x40 MLOAD DUP1 SWAP2 SUB SWAP1 REVERT JUMPDEST DUP3 PUSH1 0x9 DUP2 MLOAD EQ PUSH2 0x99D JUMPI PUSH1 0x40 MLOAD PUSH32 0x8C379A000000000000000000000000000000000000000000000000000000000 DUP2 MSTORE PUSH1 0x4 ADD PUSH2 0x994 SWAP1 PUSH2 0x2D43 JUMP JUMPDEST PUSH1 0x40 MLOAD DUP1 SWAP2 SUB SWAP1 REVERT JUMPDEST CALLER PUSH1 0x3 PUSH1 0x0 DUP9 DUP2 MSTORE PUSH1 0x20 ADD SWAP1 DUP2 MSTORE PUSH1 0x20 ADD PUSH1 0x0 KECCAK256 PUSH1 0x0 ADD PUSH1 0x0 PUSH2 0x100 EXP DUP2 SLOAD DUP2 PUSH20 0xFFFFFFFFFFFFFFFFFFFFFFFFFFFFFFFFFFFFFFFF MUL NOT AND SWAP1 DUP4 PUSH20 0xFFFFFFFFFFFFFFFFFFFFFFFFFFFFFFFFFFFFFFFF AND MUL OR SWAP1 SSTORE POP DUP4 PUSH1 0x40 MLOAD PUSH1 0x20 ADD PUSH2 0xA03 SWAP2 SWAP1 PUSH2 0x2DAF JUMP JUMPDEST PUSH1 0x40 MLOAD PUSH1 0x20 DUP2 DUP4 SUB SUB DUP2 MSTORE SWAP1 PUSH1 0x40 MSTORE PUSH1 0x3 PUSH1 0x0 DUP9 DUP2 MSTORE PUSH1 0x20 ADD SWAP1 DUP2 MSTORE PUSH1 0x20 ADD PUSH1 0x0 KECCAK256 PUSH1 0x1 ADD SWAP1 DUP2 PUSH2 0xA34 SWAP2 SWAP1 PUSH2 0x2F86 JUMP JUMPDEST POP PUSH32 0xDC5F6B9352635161A74876313A5729A4D33D34F1F65E69809E2E4275FB16BE55 PUSH1 0x40 MLOAD PUSH1 0x40 MLOAD DUP1 SWAP2 SUB SWAP1 LOG1 POP POP POP POP POP POP JUMP JUMPDEST PUSH1 0x0 PUSH1 0x4 PUSH1 0x0 DUP4 PUSH20 0xFFFFFFFFFFFFFFFFFFFFFFFFFFFFFFFFFFFFFFFF AND PUSH20 0xFFFFFFFFFFFFFFFFFFFFFFFFFFFFFFFFFFFFFFFF AND DUP2 MSTORE PUSH1 0x20 ADD SWAP1 DUP2 MSTORE PUSH1 0x20 ADD PUSH1 0x0 KECCAK256 SLOAD SWAP1 POP SWAP2 SWAP1 POP JUMP JUMPDEST PUSH1 0x60 PUSH1 0x2 PUSH1 0x0 PUSH1 0x1 PUSH1 0x0 DUP6 DUP2 MSTORE PUSH1 0x20 ADD SWAP1 DUP2 MSTORE PUSH1 0x20 ADD PUSH1 0x0 KECCAK256 PUSH1 0x2 ADD SLOAD DUP2 MSTORE PUSH1 0x20 ADD SWAP1 DUP2 MSTORE PUSH1 0x20 ADD PUSH1 0x0 KECCAK256 PUSH1 0x1 ADD DUP1 SLOAD PUSH2 0xAEB SWAP1 PUSH2 0x29A1 JUMP JUMPDEST DUP1 PUSH1 0x1F ADD PUSH1 0x20 DUP1 SWAP2 DIV MUL PUSH1 0x20 ADD PUSH1 0x40 MLOAD SWAP1 DUP2 ADD PUSH1 0x40 MSTORE DUP1 SWAP3 SWAP2 SWAP1 DUP2 DUP2 MSTORE PUSH1 0x20 ADD DUP3 DUP1 SLOAD PUSH2 0xB17 SWAP1 PUSH2 0x29A1 JUMP JUMPDEST DUP1 ISZERO PUSH2 0xB64 JUMPI DUP1 PUSH1 0x1F LT PUSH2 0xB39 JUMPI PUSH2 0x100 DUP1 DUP4 SLOAD DIV MUL DUP4 MSTORE SWAP2 PUSH1 0x20 ADD SWAP2 PUSH2 0xB64 JUMP JUMPDEST DUP3 ADD SWAP2 SWAP1 PUSH1 0x0 MSTORE PUSH1 0x20 PUSH1 0x0 KECCAK256 SWAP1 JUMPDEST DUP2 SLOAD DUP2 MSTORE SWAP1 PUSH1 0x1 ADD SWAP1 PUSH1 0x20 ADD DUP1 DUP4 GT PUSH2 0xB47 JUMPI DUP3 SWAP1 SUB PUSH1 0x1F AND DUP3 ADD SWAP2 JUMPDEST POP POP POP POP POP SWAP1 POP SWAP2 SWAP1 POP JUMP JUMPDEST PUSH1 0x0 DUP3 PUSH1 0x9 DUP2 MLOAD EQ PUSH2 0xBB7 JUMPI PUSH1 0x40 MLOAD PUSH32 0x8C379A000000000000000000000000000000000000000000000000000000000 DUP2 MSTORE PUSH1 0x4 ADD PUSH2 0xBAE SWAP1 PUSH2 0x2D43 JUMP JUMPDEST PUSH1 0x40 MLOAD DUP1 SWAP2 SUB SWAP1 REVERT JUMPDEST PUSH7 0x2386F26FC10000 CALLVALUE LT ISZERO PUSH2 0xC01 JUMPI PUSH1 0x40 MLOAD PUSH32 0x8C379A000000000000000000000000000000000000000000000000000000000 DUP2 MSTORE PUSH1 0x4 ADD PUSH2 0xBF8 SWAP1 PUSH2 0x30CA JUMP JUMPDEST PUSH1 0x40 MLOAD DUP1 SWAP2 SUB SWAP1 REVERT JUMPDEST PUSH1 0x6 PUSH1 0x0 DUP2 SLOAD DUP1 SWAP3 SWAP2 SWAP1 PUSH2 0xC14 SWAP1 PUSH2 0x2C43 JUMP JUMPDEST SWAP2 SWAP1 POP SSTORE POP PUSH1 0x0 PUSH1 0x3 PUSH1 0x0 PUSH1 0x6 SLOAD DUP2 MSTORE PUSH1 0x20 ADD SWAP1 DUP2 MSTORE PUSH1 0x20 ADD PUSH1 0x0 KECCAK256 SWAP1 POP CALLER DUP2 PUSH1 0x0 ADD PUSH1 0x0 PUSH2 0x100 EXP DUP2 SLOAD DUP2 PUSH20 0xFFFFFFFFFFFFFFFFFFFFFFFFFFFFFFFFFFFFFFFF MUL NOT AND SWAP1 DUP4 PUSH20 0xFFFFFFFFFFFFFFFFFFFFFFFFFFFFFFFFFFFFFFFF AND MUL OR SWAP1 SSTORE POP DUP5 PUSH1 0x40 MLOAD PUSH1 0x20 ADD PUSH2 0xC86 SWAP2 SWAP1 PUSH2 0x2DAF JUMP JUMPDEST PUSH1 0x40 MLOAD PUSH1 0x20 DUP2 DUP4 SUB SUB DUP2 MSTORE SWAP1 PUSH1 0x40 MSTORE DUP2 PUSH1 0x1 ADD SWAP1 DUP2 PUSH2 0xCA5 SWAP2 SWAP1 PUSH2 0x2F86 JUMP JUMPDEST POP DUP4 PUSH1 0x40 MLOAD PUSH1 0x20 ADD PUSH2 0xCB7 SWAP2 SWAP1 PUSH2 0x2AD8 JUMP JUMPDEST PUSH1 0x40 MLOAD PUSH1 0x20 DUP2 DUP4 SUB SUB DUP2 MSTORE SWAP1 PUSH1 0x40 MSTORE DUP2 PUSH1 0x2 ADD SWAP1 DUP2 PUSH2 0xCD6 SWAP2 SWAP1 PUSH2 0x2F86 JUMP JUMPDEST POP PUSH1 0x6 SLOAD DUP2 PUSH1 0x3 ADD DUP2 SWAP1 SSTORE POP PUSH1 0x6 SLOAD PUSH1 0x4 PUSH1 0x0 CALLER PUSH20 0xFFFFFFFFFFFFFFFFFFFFFFFFFFFFFFFFFFFFFFFF AND PUSH20 0xFFFFFFFFFFFFFFFFFFFFFFFFFFFFFFFFFFFFFFFF AND DUP2 MSTORE PUSH1 0x20 ADD SWAP1 DUP2 MSTORE PUSH1 0x20 ADD PUSH1 0x0 KECCAK256 DUP2 SWAP1 SSTORE POP PUSH32 0x2DE40CE37397B7FB2D98AE62DC520D88B46E2C50BEAC9F696F11CCC6605EF3EB PUSH1 0x40 MLOAD PUSH1 0x40 MLOAD DUP1 SWAP2 SUB SWAP1 LOG1 PUSH1 0x6 SLOAD SWAP3 POP POP POP SWAP3 SWAP2 POP POP JUMP JUMPDEST DUP2 PUSH1 0x0 PUSH1 0x3 PUSH1 0x0 DUP4 DUP2 MSTORE PUSH1 0x20 ADD SWAP1 DUP2 MSTORE PUSH1 0x20 ADD PUSH1 0x0 KECCAK256 PUSH1 0x3 ADD SLOAD GT PUSH2 0xDBB JUMPI PUSH1 0x40 MLOAD PUSH32 0x8C379A000000000000000000000000000000000000000000000000000000000 DUP2 MSTORE PUSH1 0x4 ADD PUSH2 0xDB2 SWAP1 PUSH2 0x2952 JUMP JUMPDEST PUSH1 0x40 MLOAD DUP1 SWAP2 SUB SWAP1 REVERT JUMPDEST DUP3 DUP3 PUSH1 0x3 PUSH1 0x0 DUP4 DUP2 MSTORE PUSH1 0x20 ADD SWAP1 DUP2 MSTORE PUSH1 0x20 ADD PUSH1 0x0 KECCAK256 PUSH1 0x2 ADD PUSH1 0x40 MLOAD PUSH2 0xDE0 SWAP2 SWAP1 PUSH2 0x2A75 JUMP JUMPDEST PUSH1 0x40 MLOAD DUP1 SWAP2 SUB SWAP1 KECCAK256 DUP2 PUSH1 0x40 MLOAD PUSH1 0x20 ADD PUSH2 0xDF9 SWAP2 SWAP1 PUSH2 0x2AD8 JUMP JUMPDEST PUSH1 0x40 MLOAD PUSH1 0x20 DUP2 DUP4 SUB SUB DUP2 MSTORE SWAP1 PUSH1 0x40 MSTORE DUP1 MLOAD SWAP1 PUSH1 0x20 ADD KECCAK256 EQ PUSH2 0xE4F JUMPI PUSH1 0x40 MLOAD PUSH32 0x8C379A000000000000000000000000000000000000000000000000000000000 DUP2 MSTORE PUSH1 0x4 ADD PUSH2 0xE46 SWAP1 PUSH2 0x2B59 JUMP JUMPDEST PUSH1 0x40 MLOAD DUP1 SWAP2 SUB SWAP1 REVERT JUMPDEST PUSH1 0x0 PUSH1 0x7 SLOAD PUSH8 0xFFFFFFFFFFFFFFFF DUP2 GT ISZERO PUSH2 0xE6D JUMPI PUSH2 0xE6C PUSH2 0x20ED JUMP JUMPDEST JUMPDEST PUSH1 0x40 MLOAD SWAP1 DUP1 DUP3 MSTORE DUP1 PUSH1 0x20 MUL PUSH1 0x20 ADD DUP3 ADD PUSH1 0x40 MSTORE DUP1 ISZERO PUSH2 0xE9B JUMPI DUP2 PUSH1 0x20 ADD PUSH1 0x20 DUP3 MUL DUP1 CALLDATASIZE DUP4 CALLDATACOPY DUP1 DUP3 ADD SWAP2 POP POP SWAP1 POP JUMPDEST POP SWAP1 POP PUSH1 0x0 PUSH1 0x7 SLOAD PUSH8 0xFFFFFFFFFFFFFFFF DUP2 GT ISZERO PUSH2 0xEBC JUMPI PUSH2 0xEBB PUSH2 0x20ED JUMP JUMPDEST JUMPDEST PUSH1 0x40 MLOAD SWAP1 DUP1 DUP3 MSTORE DUP1 PUSH1 0x20 MUL PUSH1 0x20 ADD DUP3 ADD PUSH1 0x40 MSTORE DUP1 ISZERO PUSH2 0xEEA JUMPI DUP2 PUSH1 0x20 ADD PUSH1 0x20 DUP3 MUL DUP1 CALLDATASIZE DUP4 CALLDATACOPY DUP1 DUP3 ADD SWAP2 POP POP SWAP1 POP JUMPDEST POP SWAP1 POP PUSH1 0x0 PUSH1 0x7 SLOAD PUSH8 0xFFFFFFFFFFFFFFFF DUP2 GT ISZERO PUSH2 0xF0B JUMPI PUSH2 0xF0A PUSH2 0x20ED JUMP JUMPDEST JUMPDEST PUSH1 0x40 MLOAD SWAP1 DUP1 DUP3 MSTORE DUP1 PUSH1 0x20 MUL PUSH1 0x20 ADD DUP3 ADD PUSH1 0x40 MSTORE DUP1 ISZERO PUSH2 0xF3E JUMPI DUP2 PUSH1 0x20 ADD JUMPDEST PUSH1 0x60 DUP2 MSTORE PUSH1 0x20 ADD SWAP1 PUSH1 0x1 SWAP1 SUB SWAP1 DUP2 PUSH2 0xF29 JUMPI SWAP1 POP JUMPDEST POP SWAP1 POP PUSH1 0x0 PUSH1 0x7 SLOAD PUSH8 0xFFFFFFFFFFFFFFFF DUP2 GT ISZERO PUSH2 0xF5F JUMPI PUSH2 0xF5E PUSH2 0x20ED JUMP JUMPDEST JUMPDEST PUSH1 0x40 MLOAD SWAP1 DUP1 DUP3 MSTORE DUP1 PUSH1 0x20 MUL PUSH1 0x20 ADD DUP3 ADD PUSH1 0x40 MSTORE DUP1 ISZERO PUSH2 0xF92 JUMPI DUP2 PUSH1 0x20 ADD JUMPDEST PUSH1 0x60 DUP2 MSTORE PUSH1 0x20 ADD SWAP1 PUSH1 0x1 SWAP1 SUB SWAP1 DUP2 PUSH2 0xF7D JUMPI SWAP1 POP JUMPDEST POP SWAP1 POP PUSH1 0x0 PUSH1 0x5 PUSH1 0x0 DUP12 DUP2 MSTORE PUSH1 0x20 ADD SWAP1 DUP2 MSTORE PUSH1 0x20 ADD PUSH1 0x0 KECCAK256 DUP1 SLOAD DUP1 PUSH1 0x20 MUL PUSH1 0x20 ADD PUSH1 0x40 MLOAD SWAP1 DUP2 ADD PUSH1 0x40 MSTORE DUP1 SWAP3 SWAP2 SWAP1 DUP2 DUP2 MSTORE PUSH1 0x20 ADD DUP3 DUP1 SLOAD DUP1 ISZERO PUSH2 0xFF4 JUMPI PUSH1 0x20 MUL DUP3 ADD SWAP2 SWAP1 PUSH1 0x0 MSTORE PUSH1 0x20 PUSH1 0x0 KECCAK256 SWAP1 JUMPDEST DUP2 SLOAD DUP2 MSTORE PUSH1 0x20 ADD SWAP1 PUSH1 0x1 ADD SWAP1 DUP1 DUP4 GT PUSH2 0xFE0 JUMPI JUMPDEST POP POP POP POP POP SWAP1 POP PUSH1 0x0 DUP1 JUMPDEST DUP3 MLOAD DUP2 LT ISZERO PUSH2 0x1368 JUMPI PUSH1 0x0 DUP4 DUP3 DUP2 MLOAD DUP2 LT PUSH2 0x101D JUMPI PUSH2 0x101C PUSH2 0x2BE5 JUMP JUMPDEST JUMPDEST PUSH1 0x20 MUL PUSH1 0x20 ADD ADD MLOAD SWAP1 POP PUSH1 0x0 PUSH1 0x3 PUSH1 0x0 DUP16 DUP2 MSTORE PUSH1 0x20 ADD SWAP1 DUP2 MSTORE PUSH1 0x20 ADD PUSH1 0x0 KECCAK256 PUSH1 0x5 ADD PUSH1 0x0 DUP4 DUP2 MSTORE PUSH1 0x20 ADD SWAP1 DUP2 MSTORE PUSH1 0x20 ADD PUSH1 0x0 KECCAK256 DUP1 SLOAD DUP1 PUSH1 0x20 MUL PUSH1 0x20 ADD PUSH1 0x40 MLOAD SWAP1 DUP2 ADD PUSH1 0x40 MSTORE DUP1 SWAP3 SWAP2 SWAP1 DUP2 DUP2 MSTORE PUSH1 0x20 ADD PUSH1 0x0 SWAP1 JUMPDEST DUP3 DUP3 LT ISZERO PUSH2 0x11E4 JUMPI DUP4 DUP3 SWAP1 PUSH1 0x0 MSTORE PUSH1 0x20 PUSH1 0x0 KECCAK256 SWAP1 PUSH1 0x5 MUL ADD PUSH1 0x40 MLOAD DUP1 PUSH1 0xA0 ADD PUSH1 0x40 MSTORE SWAP1 DUP2 PUSH1 0x0 DUP3 ADD SLOAD DUP2 MSTORE PUSH1 0x20 ADD PUSH1 0x1 DUP3 ADD SLOAD DUP2 MSTORE PUSH1 0x20 ADD PUSH1 0x2 DUP3 ADD DUP1 SLOAD PUSH2 0x10B7 SWAP1 PUSH2 0x29A1 JUMP JUMPDEST DUP1 PUSH1 0x1F ADD PUSH1 0x20 DUP1 SWAP2 DIV MUL PUSH1 0x20 ADD PUSH1 0x40 MLOAD SWAP1 DUP2 ADD PUSH1 0x40 MSTORE DUP1 SWAP3 SWAP2 SWAP1 DUP2 DUP2 MSTORE PUSH1 0x20 ADD DUP3 DUP1 SLOAD PUSH2 0x10E3 SWAP1 PUSH2 0x29A1 JUMP JUMPDEST DUP1 ISZERO PUSH2 0x1130 JUMPI DUP1 PUSH1 0x1F LT PUSH2 0x1105 JUMPI PUSH2 0x100 DUP1 DUP4 SLOAD DIV MUL DUP4 MSTORE SWAP2 PUSH1 0x20 ADD SWAP2 PUSH2 0x1130 JUMP JUMPDEST DUP3 ADD SWAP2 SWAP1 PUSH1 0x0 MSTORE PUSH1 0x20 PUSH1 0x0 KECCAK256 SWAP1 JUMPDEST DUP2 SLOAD DUP2 MSTORE SWAP1 PUSH1 0x1 ADD SWAP1 PUSH1 0x20 ADD DUP1 DUP4 GT PUSH2 0x1113 JUMPI DUP3 SWAP1 SUB PUSH1 0x1F AND DUP3 ADD SWAP2 JUMPDEST POP POP POP POP POP DUP2 MSTORE PUSH1 0x20 ADD PUSH1 0x3 DUP3 ADD DUP1 SLOAD PUSH2 0x1149 SWAP1 PUSH2 0x29A1 JUMP JUMPDEST DUP1 PUSH1 0x1F ADD PUSH1 0x20 DUP1 SWAP2 DIV MUL PUSH1 0x20 ADD PUSH1 0x40 MLOAD SWAP1 DUP2 ADD PUSH1 0x40 MSTORE DUP1 SWAP3 SWAP2 SWAP1 DUP2 DUP2 MSTORE PUSH1 0x20 ADD DUP3 DUP1 SLOAD PUSH2 0x1175 SWAP1 PUSH2 0x29A1 JUMP JUMPDEST DUP1 ISZERO PUSH2 0x11C2 JUMPI DUP1 PUSH1 0x1F LT PUSH2 0x1197 JUMPI PUSH2 0x100 DUP1 DUP4 SLOAD DIV MUL DUP4 MSTORE SWAP2 PUSH1 0x20 ADD SWAP2 PUSH2 0x11C2 JUMP JUMPDEST DUP3 ADD SWAP2 SWAP1 PUSH1 0x0 MSTORE PUSH1 0x20 PUSH1 0x0 KECCAK256 SWAP1 JUMPDEST DUP2 SLOAD DUP2 MSTORE SWAP1 PUSH1 0x1 ADD SWAP1 PUSH1 0x20 ADD DUP1 DUP4 GT PUSH2 0x11A5 JUMPI DUP3 SWAP1 SUB PUSH1 0x1F AND DUP3 ADD SWAP2 JUMPDEST POP POP POP POP POP DUP2 MSTORE PUSH1 0x20 ADD PUSH1 0x4 DUP3 ADD SLOAD DUP2 MSTORE POP POP DUP2 MSTORE PUSH1 0x20 ADD SWAP1 PUSH1 0x1 ADD SWAP1 PUSH2 0x1070 JUMP JUMPDEST POP POP POP POP SWAP1 POP PUSH1 0x0 JUMPDEST DUP2 MLOAD DUP2 LT ISZERO PUSH2 0x1352 JUMPI PUSH1 0x0 DUP3 DUP3 DUP2 MLOAD DUP2 LT PUSH2 0x120B JUMPI PUSH2 0x120A PUSH2 0x2BE5 JUMP JUMPDEST JUMPDEST PUSH1 0x20 MUL PUSH1 0x20 ADD ADD MLOAD SWAP1 POP PUSH1 0x40 MLOAD DUP1 PUSH1 0x40 ADD PUSH1 0x40 MSTORE DUP1 PUSH1 0x2 DUP2 MSTORE PUSH1 0x20 ADD PUSH32 0x3078000000000000000000000000000000000000000000000000000000000000 DUP2 MSTORE POP PUSH1 0x40 MLOAD PUSH1 0x20 ADD PUSH2 0x125B SWAP2 SWAP1 PUSH2 0x311B JUMP JUMPDEST PUSH1 0x40 MLOAD PUSH1 0x20 DUP2 DUP4 SUB SUB DUP2 MSTORE SWAP1 PUSH1 0x40 MSTORE DUP1 MLOAD SWAP1 PUSH1 0x20 ADD KECCAK256 DUP2 PUSH1 0x80 ADD MLOAD PUSH1 0x40 MLOAD PUSH1 0x20 ADD PUSH2 0x1286 SWAP2 SWAP1 PUSH2 0x3153 JUMP JUMPDEST PUSH1 0x40 MLOAD PUSH1 0x20 DUP2 DUP4 SUB SUB DUP2 MSTORE SWAP1 PUSH1 0x40 MSTORE DUP1 MLOAD SWAP1 PUSH1 0x20 ADD KECCAK256 EQ PUSH2 0x133E JUMPI DUP1 PUSH1 0x0 ADD MLOAD DUP12 DUP8 DUP2 MLOAD DUP2 LT PUSH2 0x12B9 JUMPI PUSH2 0x12B8 PUSH2 0x2BE5 JUMP JUMPDEST JUMPDEST PUSH1 0x20 MUL PUSH1 0x20 ADD ADD DUP2 DUP2 MSTORE POP POP DUP1 PUSH1 0x20 ADD MLOAD DUP11 DUP8 DUP2 MLOAD DUP2 LT PUSH2 0x12DD JUMPI PUSH2 0x12DC PUSH2 0x2BE5 JUMP JUMPDEST JUMPDEST PUSH1 0x20 MUL PUSH1 0x20 ADD ADD DUP2 DUP2 MSTORE POP POP DUP1 PUSH1 0x40 ADD MLOAD DUP10 DUP8 DUP2 MLOAD DUP2 LT PUSH2 0x1301 JUMPI PUSH2 0x1300 PUSH2 0x2BE5 JUMP JUMPDEST JUMPDEST PUSH1 0x20 MUL PUSH1 0x20 ADD ADD DUP2 SWAP1 MSTORE POP DUP1 PUSH1 0x60 ADD MLOAD DUP9 DUP8 DUP2 MLOAD DUP2 LT PUSH2 0x1324 JUMPI PUSH2 0x1323 PUSH2 0x2BE5 JUMP JUMPDEST JUMPDEST PUSH1 0x20 MUL PUSH1 0x20 ADD ADD DUP2 SWAP1 MSTORE POP DUP6 DUP1 PUSH2 0x133A SWAP1 PUSH2 0x2C43 JUMP JUMPDEST SWAP7 POP POP JUMPDEST POP DUP1 DUP1 PUSH2 0x134A SWAP1 PUSH2 0x2C43 JUMP JUMPDEST SWAP2 POP POP PUSH2 0x11ED JUMP JUMPDEST POP POP POP DUP1 DUP1 PUSH2 0x1360 SWAP1 PUSH2 0x2C43 JUMP JUMPDEST SWAP2 POP POP PUSH2 0xFFF JUMP JUMPDEST POP PUSH32 0xF27964DB71FBFA9CAE0795251ACB513D2227E5F9A4E8C35B6B5572A7267C243A DUP7 DUP7 DUP7 DUP7 PUSH1 0x40 MLOAD PUSH2 0x139E SWAP5 SWAP4 SWAP3 SWAP2 SWAP1 PUSH2 0x3338 JUMP JUMPDEST PUSH1 0x40 MLOAD DUP1 SWAP2 SUB SWAP1 LOG1 POP POP POP POP POP POP POP POP POP POP POP JUMP JUMPDEST PUSH1 0x0 DUP7 PUSH1 0x0 PUSH1 0x3 PUSH1 0x0 DUP4 DUP2 MSTORE PUSH1 0x20 ADD SWAP1 DUP2 MSTORE PUSH1 0x20 ADD PUSH1 0x0 KECCAK256 PUSH1 0x3 ADD SLOAD GT PUSH2 0x140F JUMPI PUSH1 0x40 MLOAD PUSH32 0x8C379A000000000000000000000000000000000000000000000000000000000 DUP2 MSTORE PUSH1 0x4 ADD PUSH2 0x1406 SWAP1 PUSH2 0x2952 JUMP JUMPDEST PUSH1 0x40 MLOAD DUP1 SWAP2 SUB SWAP1 REVERT JUMPDEST DUP8 DUP8 PUSH1 0x3 PUSH1 0x0 DUP4 DUP2 MSTORE PUSH1 0x20 ADD SWAP1 DUP2 MSTORE PUSH1 0x20 ADD PUSH1 0x0 KECCAK256 PUSH1 0x2 ADD PUSH1 0x40 MLOAD PUSH2 0x1434 SWAP2 SWAP1 PUSH2 0x2A75 JUMP JUMPDEST PUSH1 0x40 MLOAD DUP1 SWAP2 SUB SWAP1 KECCAK256 DUP2 PUSH1 0x40 MLOAD PUSH1 0x20 ADD PUSH2 0x144D SWAP2 SWAP1 PUSH2 0x2AD8 JUMP JUMPDEST PUSH1 0x40 MLOAD PUSH1 0x20 DUP2 DUP4 SUB SUB DUP2 MSTORE SWAP1 PUSH1 0x40 MSTORE DUP1 MLOAD SWAP1 PUSH1 0x20 ADD KECCAK256 EQ PUSH2 0x14A3 JUMPI PUSH1 0x40 MLOAD PUSH32 0x8C379A000000000000000000000000000000000000000000000000000000000 DUP2 MSTORE PUSH1 0x4 ADD PUSH2 0x149A SWAP1 PUSH2 0x2B59 JUMP JUMPDEST PUSH1 0x40 MLOAD DUP1 SWAP2 SUB SWAP1 REVERT JUMPDEST DUP6 PUSH1 0xC DUP2 MLOAD EQ PUSH2 0x14E8 JUMPI PUSH1 0x40 MLOAD PUSH32 0x8C379A000000000000000000000000000000000000000000000000000000000 DUP2 MSTORE PUSH1 0x4 ADD PUSH2 0x14DF SWAP1 PUSH2 0x33E5 JUMP JUMPDEST PUSH1 0x40 MLOAD DUP1 SWAP2 SUB SWAP1 REVERT JUMPDEST PUSH1 0x9 PUSH1 0x0 DUP2 SLOAD DUP1 SWAP3 SWAP2 SWAP1 PUSH2 0x14FB SWAP1 PUSH2 0x2C43 JUMP JUMPDEST SWAP2 SWAP1 POP SSTORE POP PUSH1 0x0 PUSH1 0x1 PUSH1 0x0 PUSH1 0x9 SLOAD DUP2 MSTORE PUSH1 0x20 ADD SWAP1 DUP2 MSTORE PUSH1 0x20 ADD PUSH1 0x0 KECCAK256 SWAP1 POP PUSH1 0x9 SLOAD DUP2 PUSH1 0x0 ADD DUP2 SWAP1 SSTORE POP DUP12 DUP2 PUSH1 0x1 ADD DUP2 SWAP1 SSTORE POP DUP10 DUP2 PUSH1 0x2 ADD DUP2 SWAP1 SSTORE POP DUP9 DUP2 PUSH1 0x3 ADD PUSH1 0x0 PUSH2 0x100 EXP DUP2 SLOAD DUP2 PUSH1 0xFF MUL NOT AND SWAP1 DUP4 PUSH1 0x2 DUP2 GT ISZERO PUSH2 0x155D JUMPI PUSH2 0x155C PUSH2 0x27D5 JUMP JUMPDEST JUMPDEST MUL OR SWAP1 SSTORE POP DUP8 DUP2 PUSH1 0x4 ADD SWAP1 DUP2 PUSH2 0x1573 SWAP2 SWAP1 PUSH2 0x3460 JUMP JUMPDEST POP DUP7 DUP2 PUSH1 0x5 ADD SWAP1 DUP2 PUSH2 0x1585 SWAP2 SWAP1 PUSH2 0x3460 JUMP JUMPDEST POP PUSH32 0x8B2C200B5F16565B86D1596988527109771FF8ED118F330CCA9EE70D6BA9A16 PUSH1 0x9 SLOAD PUSH1 0x40 MLOAD PUSH2 0x15B7 SWAP2 SWAP1 PUSH2 0x23A2 JUMP JUMPDEST PUSH1 0x40 MLOAD DUP1 SWAP2 SUB SWAP1 LOG1 PUSH1 0x9 SLOAD SWAP6 POP POP POP POP POP POP SWAP7 SWAP6 POP POP POP POP POP POP JUMP JUMPDEST PUSH1 0x0 DUP8 PUSH1 0x0 PUSH1 0x3 PUSH1 0x0 DUP4 DUP2 MSTORE PUSH1 0x20 ADD SWAP1 DUP2 MSTORE PUSH1 0x20 ADD PUSH1 0x0 KECCAK256 PUSH1 0x3 ADD SLOAD GT PUSH2 0x162F JUMPI PUSH1 0x40 MLOAD PUSH32 0x8C379A000000000000000000000000000000000000000000000000000000000 DUP2 MSTORE PUSH1 0x4 ADD PUSH2 0x1626 SWAP1 PUSH2 0x2952 JUMP JUMPDEST PUSH1 0x40 MLOAD DUP1 SWAP2 SUB SWAP1 REVERT JUMPDEST DUP9 DUP9 PUSH1 0x3 PUSH1 0x0 DUP4 DUP2 MSTORE PUSH1 0x20 ADD SWAP1 DUP2 MSTORE PUSH1 0x20 ADD PUSH1 0x0 KECCAK256 PUSH1 0x2 ADD PUSH1 0x40 MLOAD PUSH2 0x1654 SWAP2 SWAP1 PUSH2 0x2A75 JUMP JUMPDEST PUSH1 0x40 MLOAD DUP1 SWAP2 SUB SWAP1 KECCAK256 DUP2 PUSH1 0x40 MLOAD PUSH1 0x20 ADD PUSH2 0x166D SWAP2 SWAP1 PUSH2 0x2AD8 JUMP JUMPDEST PUSH1 0x40 MLOAD PUSH1 0x20 DUP2 DUP4 SUB SUB DUP2 MSTORE SWAP1 PUSH1 0x40 MSTORE DUP1 MLOAD SWAP1 PUSH1 0x20 ADD KECCAK256 EQ PUSH2 0x16C3 JUMPI PUSH1 0x40 MLOAD PUSH32 0x8C379A000000000000000000000000000000000000000000000000000000000 DUP2 MSTORE PUSH1 0x4 ADD PUSH2 0x16BA SWAP1 PUSH2 0x2B59 JUMP JUMPDEST PUSH1 0x40 MLOAD DUP1 SWAP2 SUB SWAP1 REVERT JUMPDEST DUP6 PUSH1 0x8 DUP2 MLOAD EQ PUSH2 0x1708 JUMPI PUSH1 0x40 MLOAD PUSH32 0x8C379A000000000000000000000000000000000000000000000000000000000 DUP2 MSTORE PUSH1 0x4 ADD PUSH2 0x16FF SWAP1 PUSH2 0x33E5 JUMP JUMPDEST PUSH1 0x40 MLOAD DUP1 SWAP2 SUB SWAP1 REVERT JUMPDEST PUSH1 0x8 PUSH1 0x0 DUP2 SLOAD DUP1 SWAP3 SWAP2 SWAP1 PUSH2 0x171B SWAP1 PUSH2 0x2C43 JUMP JUMPDEST SWAP2 SWAP1 POP SSTORE POP PUSH1 0x0 PUSH1 0x2 PUSH1 0x0 PUSH1 0x8 SLOAD DUP2 MSTORE PUSH1 0x20 ADD SWAP1 DUP2 MSTORE PUSH1 0x20 ADD PUSH1 0x0 KECCAK256 SWAP1 POP PUSH1 0x8 SLOAD DUP2 PUSH1 0x0 ADD DUP2 SWAP1 SSTORE POP DUP11 DUP2 PUSH1 0x1 ADD SWAP1 DUP2 PUSH2 0x1755 SWAP2 SWAP1 PUSH2 0x3460 JUMP JUMPDEST POP DUP10 DUP2 PUSH1 0x2 ADD SWAP1 DUP2 PUSH2 0x1767 SWAP2 SWAP1 PUSH2 0x3460 JUMP JUMPDEST POP DUP9 DUP2 PUSH1 0x3 ADD SWAP1 DUP2 PUSH2 0x1779 SWAP2 SWAP1 PUSH2 0x3460 JUMP JUMPDEST POP DUP8 DUP2 PUSH1 0x4 ADD SWAP1 DUP2 PUSH2 0x178B SWAP2 SWAP1 PUSH2 0x3460 JUMP JUMPDEST POP DUP7 DUP2 PUSH1 0x5 ADD SWAP1 DUP2 PUSH2 0x179D SWAP2 SWAP1 PUSH2 0x3460 JUMP JUMPDEST POP PUSH1 0x8 SLOAD SWAP6 POP POP POP POP POP POP SWAP8 SWAP7 POP POP POP POP POP POP POP JUMP JUMPDEST PUSH1 0x0 DUP4 PUSH1 0x0 PUSH1 0x3 PUSH1 0x0 DUP4 DUP2 MSTORE PUSH1 0x20 ADD SWAP1 DUP2 MSTORE PUSH1 0x20 ADD PUSH1 0x0 KECCAK256 PUSH1 0x3 ADD SLOAD GT PUSH2 0x180F JUMPI PUSH1 0x40 MLOAD PUSH32 0x8C379A000000000000000000000000000000000000000000000000000000000 DUP2 MSTORE PUSH1 0x4 ADD PUSH2 0x1806 SWAP1 PUSH2 0x2952 JUMP JUMPDEST PUSH1 0x40 MLOAD DUP1 SWAP2 SUB SWAP1 REVERT JUMPDEST PUSH1 0x0 PUSH1 0x3 PUSH1 0x0 DUP8 DUP2 MSTORE PUSH1 0x20 ADD SWAP1 DUP2 MSTORE PUSH1 0x20 ADD PUSH1 0x0 KECCAK256 PUSH1 0x5 ADD PUSH1 0x0 DUP6 DUP2 MSTORE PUSH1 0x20 ADD SWAP1 DUP2 MSTORE PUSH1 0x20 ADD PUSH1 0x0 KECCAK256 DUP1 SLOAD DUP1 PUSH1 0x20 MUL PUSH1 0x20 ADD PUSH1 0x40 MLOAD SWAP1 DUP2 ADD PUSH1 0x40 MSTORE DUP1 SWAP3 SWAP2 SWAP1 DUP2 DUP2 MSTORE PUSH1 0x20 ADD PUSH1 0x0 SWAP1 JUMPDEST DUP3 DUP3 LT ISZERO PUSH2 0x19CC JUMPI DUP4 DUP3 SWAP1 PUSH1 0x0 MSTORE PUSH1 0x20 PUSH1 0x0 KECCAK256 SWAP1 PUSH1 0x5 MUL ADD PUSH1 0x40 MLOAD DUP1 PUSH1 0xA0 ADD PUSH1 0x40 MSTORE SWAP1 DUP2 PUSH1 0x0 DUP3 ADD SLOAD DUP2 MSTORE PUSH1 0x20 ADD PUSH1 0x1 DUP3 ADD SLOAD DUP2 MSTORE PUSH1 0x20 ADD PUSH1 0x2 DUP3 ADD DUP1 SLOAD PUSH2 0x189F SWAP1 PUSH2 0x29A1 JUMP JUMPDEST DUP1 PUSH1 0x1F ADD PUSH1 0x20 DUP1 SWAP2 DIV MUL PUSH1 0x20 ADD PUSH1 0x40 MLOAD SWAP1 DUP2 ADD PUSH1 0x40 MSTORE DUP1 SWAP3 SWAP2 SWAP1 DUP2 DUP2 MSTORE PUSH1 0x20 ADD DUP3 DUP1 SLOAD PUSH2 0x18CB SWAP1 PUSH2 0x29A1 JUMP JUMPDEST DUP1 ISZERO PUSH2 0x1918 JUMPI DUP1 PUSH1 0x1F LT PUSH2 0x18ED JUMPI PUSH2 0x100 DUP1 DUP4 SLOAD DIV MUL DUP4 MSTORE SWAP2 PUSH1 0x20 ADD SWAP2 PUSH2 0x1918 JUMP JUMPDEST DUP3 ADD SWAP2 SWAP1 PUSH1 0x0 MSTORE PUSH1 0x20 PUSH1 0x0 KECCAK256 SWAP1 JUMPDEST DUP2 SLOAD DUP2 MSTORE SWAP1 PUSH1 0x1 ADD SWAP1 PUSH1 0x20 ADD DUP1 DUP4 GT PUSH2 0x18FB JUMPI DUP3 SWAP1 SUB PUSH1 0x1F AND DUP3 ADD SWAP2 JUMPDEST POP POP POP POP POP DUP2 MSTORE PUSH1 0x20 ADD PUSH1 0x3 DUP3 ADD DUP1 SLOAD PUSH2 0x1931 SWAP1 PUSH2 0x29A1 JUMP JUMPDEST DUP1 PUSH1 0x1F ADD PUSH1 0x20 DUP1 SWAP2 DIV MUL PUSH1 0x20 ADD PUSH1 0x40 MLOAD SWAP1 DUP2 ADD PUSH1 0x40 MSTORE DUP1 SWAP3 SWAP2 SWAP1 DUP2 DUP2 MSTORE PUSH1 0x20 ADD DUP3 DUP1 SLOAD PUSH2 0x195D SWAP1 PUSH2 0x29A1 JUMP JUMPDEST DUP1 ISZERO PUSH2 0x19AA JUMPI DUP1 PUSH1 0x1F LT PUSH2 0x197F JUMPI PUSH2 0x100 DUP1 DUP4 SLOAD DIV MUL DUP4 MSTORE SWAP2 PUSH1 0x20 ADD SWAP2 PUSH2 0x19AA JUMP JUMPDEST DUP3 ADD SWAP2 SWAP1 PUSH1 0x0 MSTORE PUSH1 0x20 PUSH1 0x0 KECCAK256 SWAP1 JUMPDEST DUP2 SLOAD DUP2 MSTORE SWAP1 PUSH1 0x1 ADD SWAP1 PUSH1 0x20 ADD DUP1 DUP4 GT PUSH2 0x198D JUMPI DUP3 SWAP1 SUB PUSH1 0x1F AND DUP3 ADD SWAP2 JUMPDEST POP POP POP POP POP DUP2 MSTORE PUSH1 0x20 ADD PUSH1 0x4 DUP3 ADD SLOAD DUP2 MSTORE POP POP DUP2 MSTORE PUSH1 0x20 ADD SWAP1 PUSH1 0x1 ADD SWAP1 PUSH2 0x1858 JUMP JUMPDEST POP POP POP POP SWAP1 POP PUSH1 0x0 DUP2 MLOAD SWAP1 POP PUSH1 0x0 DUP1 DUP1 PUSH1 0x0 SWAP1 POP JUMPDEST DUP4 DUP2 LT ISZERO PUSH2 0x1A29 JUMPI DUP9 DUP6 DUP3 DUP2 MLOAD DUP2 LT PUSH2 0x19FD JUMPI PUSH2 0x19FC PUSH2 0x2BE5 JUMP JUMPDEST JUMPDEST PUSH1 0x20 MUL PUSH1 0x20 ADD ADD MLOAD PUSH1 0x0 ADD MLOAD SUB PUSH2 0x1A16 JUMPI DUP1 SWAP2 POP PUSH1 0x1 SWAP3 POP JUMPDEST DUP1 DUP1 PUSH2 0x1A21 SWAP1 PUSH2 0x2C43 JUMP JUMPDEST SWAP2 POP POP PUSH2 0x19E1 JUMP JUMPDEST POP PUSH1 0x1 ISZERO ISZERO DUP3 ISZERO ISZERO EQ PUSH2 0x1A71 JUMPI PUSH1 0x40 MLOAD PUSH32 0x8C379A000000000000000000000000000000000000000000000000000000000 DUP2 MSTORE PUSH1 0x4 ADD PUSH2 0x1A68 SWAP1 PUSH2 0x2CD7 JUMP JUMPDEST PUSH1 0x40 MLOAD DUP1 SWAP2 SUB SWAP1 REVERT JUMPDEST DUP2 ISZERO PUSH2 0x1AA1 JUMPI DUP4 DUP2 DUP2 MLOAD DUP2 LT PUSH2 0x1A8A JUMPI PUSH2 0x1A89 PUSH2 0x2BE5 JUMP JUMPDEST JUMPDEST PUSH1 0x20 MUL PUSH1 0x20 ADD ADD MLOAD PUSH1 0x80 ADD MLOAD SWAP6 POP POP POP POP POP PUSH2 0x1AA6 JUMP JUMPDEST POP POP POP POP JUMPDEST POP SWAP4 SWAP3 POP POP POP JUMP JUMPDEST PUSH1 0x0 PUSH1 0x1 PUSH1 0x0 DUP4 DUP2 MSTORE PUSH1 0x20 ADD SWAP1 DUP2 MSTORE PUSH1 0x20 ADD PUSH1 0x0 KECCAK256 PUSH1 0x3 ADD PUSH1 0x0 SWAP1 SLOAD SWAP1 PUSH2 0x100 EXP SWAP1 DIV PUSH1 0xFF AND SWAP1 POP SWAP2 SWAP1 POP JUMP JUMPDEST DUP3 PUSH1 0x3 PUSH1 0x0 DUP3 DUP2 MSTORE PUSH1 0x20 ADD SWAP1 DUP2 MSTORE PUSH1 0x20 ADD PUSH1 0x0 KECCAK256 PUSH1 0x0 ADD PUSH1 0x0 SWAP1 SLOAD SWAP1 PUSH2 0x100 EXP SWAP1 DIV PUSH20 0xFFFFFFFFFFFFFFFFFFFFFFFFFFFFFFFFFFFFFFFF AND PUSH20 0xFFFFFFFFFFFFFFFFFFFFFFFFFFFFFFFFFFFFFFFF AND CALLER PUSH20 0xFFFFFFFFFFFFFFFFFFFFFFFFFFFFFFFFFFFFFFFF AND EQ PUSH2 0x1B80 JUMPI PUSH1 0x40 MLOAD PUSH32 0x8C379A000000000000000000000000000000000000000000000000000000000 DUP2 MSTORE PUSH1 0x4 ADD PUSH2 0x1B77 SWAP1 PUSH2 0x357E JUMP JUMPDEST PUSH1 0x40 MLOAD DUP1 SWAP2 SUB SWAP1 REVERT JUMPDEST DUP4 DUP4 PUSH1 0x3 PUSH1 0x0 DUP4 DUP2 MSTORE PUSH1 0x20 ADD SWAP1 DUP2 MSTORE PUSH1 0x20 ADD PUSH1 0x0 KECCAK256 PUSH1 0x2 ADD PUSH1 0x40 MLOAD PUSH2 0x1BA5 SWAP2 SWAP1 PUSH2 0x2A75 JUMP JUMPDEST PUSH1 0x40 MLOAD DUP1 SWAP2 SUB SWAP1 KECCAK256 DUP2 PUSH1 0x40 MLOAD PUSH1 0x20 ADD PUSH2 0x1BBE SWAP2 SWAP1 PUSH2 0x2AD8 JUMP JUMPDEST PUSH1 0x40 MLOAD PUSH1 0x20 DUP2 DUP4 SUB SUB DUP2 MSTORE SWAP1 PUSH1 0x40 MSTORE DUP1 MLOAD SWAP1 PUSH1 0x20 ADD KECCAK256 EQ PUSH2 0x1C14 JUMPI PUSH1 0x40 MLOAD PUSH32 0x8C379A000000000000000000000000000000000000000000000000000000000 DUP2 MSTORE PUSH1 0x4 ADD PUSH2 0x1C0B SWAP1 PUSH2 0x2B59 JUMP JUMPDEST PUSH1 0x40 MLOAD DUP1 SWAP2 SUB SWAP1 REVERT JUMPDEST DUP4 PUSH1 0x40 MLOAD PUSH1 0x20 ADD PUSH2 0x1C25 SWAP2 SWAP1 PUSH2 0x2AD8 JUMP JUMPDEST PUSH1 0x40 MLOAD PUSH1 0x20 DUP2 DUP4 SUB SUB DUP2 MSTORE SWAP1 PUSH1 0x40 MSTORE PUSH1 0x3 PUSH1 0x0 DUP9 DUP2 MSTORE PUSH1 0x20 ADD SWAP1 DUP2 MSTORE PUSH1 0x20 ADD PUSH1 0x0 KECCAK256 PUSH1 0x2 ADD SWAP1 DUP2 PUSH2 0x1C56 SWAP2 SWAP1 PUSH2 0x2F86 JUMP JUMPDEST POP POP POP POP POP POP POP JUMP JUMPDEST PUSH1 0x60 PUSH1 0x2 PUSH1 0x0 PUSH1 0x1 PUSH1 0x0 DUP6 DUP2 MSTORE PUSH1 0x20 ADD SWAP1 DUP2 MSTORE PUSH1 0x20 ADD PUSH1 0x0 KECCAK256 PUSH1 0x2 ADD SLOAD DUP2 MSTORE PUSH1 0x20 ADD SWAP1 DUP2 MSTORE PUSH1 0x20 ADD PUSH1 0x0 KECCAK256 PUSH1 0x2 ADD DUP1 SLOAD PUSH2 0x1C98 SWAP1 PUSH2 0x29A1 JUMP JUMPDEST DUP1 PUSH1 0x1F ADD PUSH1 0x20 DUP1 SWAP2 DIV MUL PUSH1 0x20 ADD PUSH1 0x40 MLOAD SWAP1 DUP2 ADD PUSH1 0x40 MSTORE DUP1 SWAP3 SWAP2 SWAP1 DUP2 DUP2 MSTORE PUSH1 0x20 ADD DUP3 DUP1 SLOAD PUSH2 0x1CC4 SWAP1 PUSH2 0x29A1 JUMP JUMPDEST DUP1 ISZERO PUSH2 0x1D11 JUMPI DUP1 PUSH1 0x1F LT PUSH2 0x1CE6 JUMPI PUSH2 0x100 DUP1 DUP4 SLOAD DIV MUL DUP4 MSTORE SWAP2 PUSH1 0x20 ADD SWAP2 PUSH2 0x1D11 JUMP JUMPDEST DUP3 ADD SWAP2 SWAP1 PUSH1 0x0 MSTORE PUSH1 0x20 PUSH1 0x0 KECCAK256 SWAP1 JUMPDEST DUP2 SLOAD DUP2 MSTORE SWAP1 PUSH1 0x1 ADD SWAP1 PUSH1 0x20 ADD DUP1 DUP4 GT PUSH2 0x1CF4 JUMPI DUP3 SWAP1 SUB PUSH1 0x1F AND DUP3 ADD SWAP2 JUMPDEST POP POP POP POP POP SWAP1 POP SWAP2 SWAP1 POP JUMP JUMPDEST PUSH1 0x0 DUP5 PUSH1 0x0 PUSH1 0x3 PUSH1 0x0 DUP4 DUP2 MSTORE PUSH1 0x20 ADD SWAP1 DUP2 MSTORE PUSH1 0x20 ADD PUSH1 0x0 KECCAK256 PUSH1 0x3 ADD SLOAD GT PUSH2 0x1D79 JUMPI PUSH1 0x40 MLOAD PUSH32 0x8C379A000000000000000000000000000000000000000000000000000000000 DUP2 MSTORE PUSH1 0x4 ADD PUSH2 0x1D70 SWAP1 PUSH2 0x2952 JUMP JUMPDEST PUSH1 0x40 MLOAD DUP1 SWAP2 SUB SWAP1 REVERT JUMPDEST PUSH1 0x7 PUSH1 0x0 DUP2 SLOAD DUP1 SWAP3 SWAP2 SWAP1 PUSH2 0x1D8C SWAP1 PUSH2 0x2C43 JUMP JUMPDEST SWAP2 SWAP1 POP SSTORE POP PUSH1 0x0 PUSH1 0x3 PUSH1 0x0 DUP9 DUP2 MSTORE PUSH1 0x20 ADD SWAP1 DUP2 MSTORE PUSH1 0x20 ADD PUSH1 0x0 KECCAK256 PUSH1 0x5 ADD PUSH1 0x0 DUP8 DUP2 MSTORE PUSH1 0x20 ADD SWAP1 DUP2 MSTORE PUSH1 0x20 ADD PUSH1 0x0 KECCAK256 PUSH1 0x1 DUP2 PUSH1 0x1 DUP2 SLOAD ADD DUP1 DUP3 SSTORE DUP1 SWAP2 POP POP SUB SWAP1 PUSH1 0x0 MSTORE PUSH1 0x20 PUSH1 0x0 KECCAK256 SWAP1 PUSH1 0x5 MUL ADD SWAP1 POP PUSH1 0x7 SLOAD DUP2 PUSH1 0x0 ADD DUP2 SWAP1 SSTORE POP DUP6 DUP2 PUSH1 0x1 ADD DUP2 SWAP1 SSTORE POP DUP5 DUP2 PUSH1 0x2 ADD SWAP1 DUP2 PUSH2 0x1DFF SWAP2 SWAP1 PUSH2 0x3460 JUMP JUMPDEST POP DUP4 DUP2 PUSH1 0x3 ADD SWAP1 DUP2 PUSH2 0x1E11 SWAP2 SWAP1 PUSH2 0x3460 JUMP JUMPDEST POP PUSH1 0x5 PUSH1 0x0 DUP9 DUP2 MSTORE PUSH1 0x20 ADD SWAP1 DUP2 MSTORE PUSH1 0x20 ADD PUSH1 0x0 KECCAK256 DUP7 SWAP1 DUP1 PUSH1 0x1 DUP2 SLOAD ADD DUP1 DUP3 SSTORE DUP1 SWAP2 POP POP PUSH1 0x1 SWAP1 SUB SWAP1 PUSH1 0x0 MSTORE PUSH1 0x20 PUSH1 0x0 KECCAK256 ADD PUSH1 0x0 SWAP1 SWAP2 SWAP1 SWAP2 SWAP1 SWAP2 POP SSTORE PUSH32 0x7CD6F88CEC54E07D7B5A709E82D19E951E8D3A8F8E64C3982E5C2305383034B1 PUSH1 0x7 SLOAD PUSH1 0x40 MLOAD PUSH2 0x1E7D SWAP2 SWAP1 PUSH2 0x23A2 JUMP JUMPDEST PUSH1 0x40 MLOAD DUP1 SWAP2 SUB SWAP1 LOG1 PUSH1 0x7 SLOAD SWAP3 POP POP POP SWAP5 SWAP4 POP POP POP POP JUMP JUMPDEST PUSH1 0x60 DUP2 PUSH1 0x3 PUSH1 0x0 DUP3 DUP2 MSTORE PUSH1 0x20 ADD SWAP1 DUP2 MSTORE PUSH1 0x20 ADD PUSH1 0x0 KECCAK256 PUSH1 0x0 ADD PUSH1 0x0 SWAP1 SLOAD SWAP1 PUSH2 0x100 EXP SWAP1 DIV PUSH20 0xFFFFFFFFFFFFFFFFFFFFFFFFFFFFFFFFFFFFFFFF AND PUSH20 0xFFFFFFFFFFFFFFFFFFFFFFFFFFFFFFFFFFFFFFFF AND CALLER PUSH20 0xFFFFFFFFFFFFFFFFFFFFFFFFFFFFFFFFFFFFFFFF AND EQ PUSH2 0x1F3B JUMPI PUSH1 0x40 MLOAD PUSH32 0x8C379A000000000000000000000000000000000000000000000000000000000 DUP2 MSTORE PUSH1 0x4 ADD PUSH2 0x1F32 SWAP1 PUSH2 0x357E JUMP JUMPDEST PUSH1 0x40 MLOAD DUP1 SWAP2 SUB SWAP1 REVERT JUMPDEST PUSH1 0x0 DUP1 PUSH1 0x3 PUSH1 0x0 DUP7 DUP2 MSTORE PUSH1 0x20 ADD SWAP1 DUP2 MSTORE PUSH1 0x20 ADD PUSH1 0x0 KECCAK256 PUSH1 0x2 ADD DUP1 SLOAD PUSH2 0x1F5F SWAP1 PUSH2 0x29A1 JUMP JUMPDEST DUP1 PUSH1 0x1F ADD PUSH1 0x20 DUP1 SWAP2 DIV MUL PUSH1 0x20 ADD PUSH1 0x40 MLOAD SWAP1 DUP2 ADD PUSH1 0x40 MSTORE DUP1 SWAP3 SWAP2 SWAP1 DUP2 DUP2 MSTORE PUSH1 0x20 ADD DUP3 DUP1 SLOAD PUSH2 0x1F8B SWAP1 PUSH2 0x29A1 JUMP JUMPDEST DUP1 ISZERO PUSH2 0x1FD8 JUMPI DUP1 PUSH1 0x1F LT PUSH2 0x1FAD JUMPI PUSH2 0x100 DUP1 DUP4 SLOAD DIV MUL DUP4 MSTORE SWAP2 PUSH1 0x20 ADD SWAP2 PUSH2 0x1FD8 JUMP JUMPDEST DUP3 ADD SWAP2 SWAP1 PUSH1 0x0 MSTORE PUSH1 0x20 PUSH1 0x0 KECCAK256 SWAP1 JUMPDEST DUP2 SLOAD DUP2 MSTORE SWAP1 PUSH1 0x1 ADD SWAP1 PUSH1 0x20 ADD DUP1 DUP4 GT PUSH2 0x1FBB JUMPI DUP3 SWAP1 SUB PUSH1 0x1F AND DUP3 ADD SWAP2 JUMPDEST POP POP POP POP POP DUP1 PUSH1 0x20 ADD SWAP1 MLOAD DUP2 ADD SWAP1 PUSH2 0x1FF0 SWAP2 SWAP1 PUSH2 0x360E JUMP JUMPDEST SWAP2 POP SWAP2 POP DUP2 SWAP4 POP POP POP POP SWAP2 SWAP1 POP JUMP JUMPDEST PUSH1 0x0 PUSH1 0x40 MLOAD SWAP1 POP SWAP1 JUMP JUMPDEST PUSH1 0x0 DUP1 REVERT JUMPDEST PUSH1 0x0 DUP1 REVERT JUMPDEST PUSH1 0x0 DUP2 SWAP1 POP SWAP2 SWAP1 POP JUMP JUMPDEST PUSH2 0x2026 DUP2 PUSH2 0x2013 JUMP JUMPDEST DUP2 EQ PUSH2 0x2031 JUMPI PUSH1 0x0 DUP1 REVERT JUMPDEST POP JUMP JUMPDEST PUSH1 0x0 DUP2 CALLDATALOAD SWAP1 POP PUSH2 0x2043 DUP2 PUSH2 0x201D JUMP JUMPDEST SWAP3 SWAP2 POP POP JUMP JUMPDEST PUSH1 0x0 PUSH1 0x20 DUP3 DUP5 SUB SLT ISZERO PUSH2 0x205F JUMPI PUSH2 0x205E PUSH2 0x2009 JUMP JUMPDEST JUMPDEST PUSH1 0x0 PUSH2 0x206D DUP5 DUP3 DUP6 ADD PUSH2 0x2034 JUMP JUMPDEST SWAP2 POP POP SWAP3 SWAP2 POP POP JUMP JUMPDEST PUSH1 0x0 PUSH20 0xFFFFFFFFFFFFFFFFFFFFFFFFFFFFFFFFFFFFFFFF DUP3 AND SWAP1 POP SWAP2 SWAP1 POP JUMP JUMPDEST PUSH1 0x0 PUSH2 0x20A1 DUP3 PUSH2 0x2076 JUMP JUMPDEST SWAP1 POP SWAP2 SWAP1 POP JUMP JUMPDEST PUSH2 0x20B1 DUP2 PUSH2 0x2096 JUMP JUMPDEST DUP3 MSTORE POP POP JUMP JUMPDEST PUSH1 0x0 PUSH1 0x20 DUP3 ADD SWAP1 POP PUSH2 0x20CC PUSH1 0x0 DUP4 ADD DUP5 PUSH2 0x20A8 JUMP JUMPDEST SWAP3 SWAP2 POP POP JUMP JUMPDEST PUSH1 0x0 DUP1 REVERT JUMPDEST PUSH1 0x0 DUP1 REVERT JUMPDEST PUSH1 0x0 PUSH1 0x1F NOT PUSH1 0x1F DUP4 ADD AND SWAP1 POP SWAP2 SWAP1 POP JUMP JUMPDEST PUSH32 0x4E487B7100000000000000000000000000000000000000000000000000000000 PUSH1 0x0 MSTORE PUSH1 0x41 PUSH1 0x4 MSTORE PUSH1 0x24 PUSH1 0x0 REVERT JUMPDEST PUSH2 0x2125 DUP3 PUSH2 0x20DC JUMP JUMPDEST DUP2 ADD DUP2 DUP2 LT PUSH8 0xFFFFFFFFFFFFFFFF DUP3 GT OR ISZERO PUSH2 0x2144 JUMPI PUSH2 0x2143 PUSH2 0x20ED JUMP JUMPDEST JUMPDEST DUP1 PUSH1 0x40 MSTORE POP POP POP JUMP JUMPDEST PUSH1 0x0 PUSH2 0x2157 PUSH2 0x1FFF JUMP JUMPDEST SWAP1 POP PUSH2 0x2163 DUP3 DUP3 PUSH2 0x211C JUMP JUMPDEST SWAP2 SWAP1 POP JUMP JUMPDEST PUSH1 0x0 PUSH8 0xFFFFFFFFFFFFFFFF DUP3 GT ISZERO PUSH2 0x2183 JUMPI PUSH2 0x2182 PUSH2 0x20ED JUMP JUMPDEST JUMPDEST PUSH2 0x218C DUP3 PUSH2 0x20DC JUMP JUMPDEST SWAP1 POP PUSH1 0x20 DUP2 ADD SWAP1 POP SWAP2 SWAP1 POP JUMP JUMPDEST DUP3 DUP2 DUP4 CALLDATACOPY PUSH1 0x0 DUP4 DUP4 ADD MSTORE POP POP POP JUMP JUMPDEST PUSH1 0x0 PUSH2 0x21BB PUSH2 0x21B6 DUP5 PUSH2 0x2168 JUMP JUMPDEST PUSH2 0x214D JUMP JUMPDEST SWAP1 POP DUP3 DUP2 MSTORE PUSH1 0x20 DUP2 ADD DUP5 DUP5 DUP5 ADD GT ISZERO PUSH2 0x21D7 JUMPI PUSH2 0x21D6 PUSH2 0x20D7 JUMP JUMPDEST JUMPDEST PUSH2 0x21E2 DUP5 DUP3 DUP6 PUSH2 0x2199 JUMP JUMPDEST POP SWAP4 SWAP3 POP POP POP JUMP JUMPDEST PUSH1 0x0 DUP3 PUSH1 0x1F DUP4 ADD SLT PUSH2 0x21FF JUMPI PUSH2 0x21FE PUSH2 0x20D2 JUMP JUMPDEST JUMPDEST DUP2 CALLDATALOAD PUSH2 0x220F DUP5 DUP3 PUSH1 0x20 DUP7 ADD PUSH2 0x21A8 JUMP JUMPDEST SWAP2 POP POP SWAP3 SWAP2 POP POP JUMP JUMPDEST PUSH1 0x0 DUP1 PUSH1 0x0 DUP1 PUSH1 0x0 PUSH1 0xA0 DUP7 DUP9 SUB SLT ISZERO PUSH2 0x2234 JUMPI PUSH2 0x2233 PUSH2 0x2009 JUMP JUMPDEST JUMPDEST PUSH1 0x0 PUSH2 0x2242 DUP9 DUP3 DUP10 ADD PUSH2 0x2034 JUMP JUMPDEST SWAP6 POP POP PUSH1 0x20 DUP7 ADD CALLDATALOAD PUSH8 0xFFFFFFFFFFFFFFFF DUP2 GT ISZERO PUSH2 0x2263 JUMPI PUSH2 0x2262 PUSH2 0x200E JUMP JUMPDEST JUMPDEST PUSH2 0x226F DUP9 DUP3 DUP10 ADD PUSH2 0x21EA JUMP JUMPDEST SWAP5 POP POP PUSH1 0x40 PUSH2 0x2280 DUP9 DUP3 DUP10 ADD PUSH2 0x2034 JUMP JUMPDEST SWAP4 POP POP PUSH1 0x60 PUSH2 0x2291 DUP9 DUP3 DUP10 ADD PUSH2 0x2034 JUMP JUMPDEST SWAP3 POP POP PUSH1 0x80 PUSH2 0x22A2 DUP9 DUP3 DUP10 ADD PUSH2 0x2034 JUMP JUMPDEST SWAP2 POP POP SWAP3 SWAP6 POP SWAP3 SWAP6 SWAP1 SWAP4 POP JUMP JUMPDEST PUSH1 0x0 DUP1 PUSH1 0x0 PUSH1 0x60 DUP5 DUP7 SUB SLT ISZERO PUSH2 0x22C8 JUMPI PUSH2 0x22C7 PUSH2 0x2009 JUMP JUMPDEST JUMPDEST PUSH1 0x0 PUSH2 0x22D6 DUP7 DUP3 DUP8 ADD PUSH2 0x2034 JUMP JUMPDEST SWAP4 POP POP PUSH1 0x20 DUP5 ADD CALLDATALOAD PUSH8 0xFFFFFFFFFFFFFFFF DUP2 GT ISZERO PUSH2 0x22F7 JUMPI PUSH2 0x22F6 PUSH2 0x200E JUMP JUMPDEST JUMPDEST PUSH2 0x2303 DUP7 DUP3 DUP8 ADD PUSH2 0x21EA JUMP JUMPDEST SWAP3 POP POP PUSH1 0x40 DUP5 ADD CALLDATALOAD PUSH8 0xFFFFFFFFFFFFFFFF DUP2 GT ISZERO PUSH2 0x2324 JUMPI PUSH2 0x2323 PUSH2 0x200E JUMP JUMPDEST JUMPDEST PUSH2 0x2330 DUP7 DUP3 DUP8 ADD PUSH2 0x21EA JUMP JUMPDEST SWAP2 POP POP SWAP3 POP SWAP3 POP SWAP3 JUMP JUMPDEST PUSH2 0x2343 DUP2 PUSH2 0x2096 JUMP JUMPDEST DUP2 EQ PUSH2 0x234E JUMPI PUSH1 0x0 DUP1 REVERT JUMPDEST POP JUMP JUMPDEST PUSH1 0x0 DUP2 CALLDATALOAD SWAP1 POP PUSH2 0x2360 DUP2 PUSH2 0x233A JUMP JUMPDEST SWAP3 SWAP2 POP POP JUMP JUMPDEST PUSH1 0x0 PUSH1 0x20 DUP3 DUP5 SUB SLT ISZERO PUSH2 0x237C JUMPI PUSH2 0x237B PUSH2 0x2009 JUMP JUMPDEST JUMPDEST PUSH1 0x0 PUSH2 0x238A DUP5 DUP3 DUP6 ADD PUSH2 0x2351 JUMP JUMPDEST SWAP2 POP POP SWAP3 SWAP2 POP POP JUMP JUMPDEST PUSH2 0x239C DUP2 PUSH2 0x2013 JUMP JUMPDEST DUP3 MSTORE POP POP JUMP JUMPDEST PUSH1 0x0 PUSH1 0x20 DUP3 ADD SWAP1 POP PUSH2 0x23B7 PUSH1 0x0 DUP4 ADD DUP5 PUSH2 0x2393 JUMP JUMPDEST SWAP3 SWAP2 POP POP JUMP JUMPDEST PUSH1 0x0 DUP2 MLOAD SWAP1 POP SWAP2 SWAP1 POP JUMP JUMPDEST PUSH1 0x0 DUP3 DUP3 MSTORE PUSH1 0x20 DUP3 ADD SWAP1 POP SWAP3 SWAP2 POP POP JUMP JUMPDEST PUSH1 0x0 JUMPDEST DUP4 DUP2 LT ISZERO PUSH2 0x23F7 JUMPI DUP1 DUP3 ADD MLOAD DUP2 DUP5 ADD MSTORE PUSH1 0x20 DUP2 ADD SWAP1 POP PUSH2 0x23DC JUMP JUMPDEST PUSH1 0x0 DUP5 DUP5 ADD MSTORE POP POP POP POP JUMP JUMPDEST PUSH1 0x0 PUSH2 0x240E DUP3 PUSH2 0x23BD JUMP JUMPDEST PUSH2 0x2418 DUP2 DUP6 PUSH2 0x23C8 JUMP JUMPDEST SWAP4 POP PUSH2 0x2428 DUP2 DUP6 PUSH1 0x20 DUP7 ADD PUSH2 0x23D9 JUMP JUMPDEST PUSH2 0x2431 DUP2 PUSH2 0x20DC JUMP JUMPDEST DUP5 ADD SWAP2 POP POP SWAP3 SWAP2 POP POP JUMP JUMPDEST PUSH1 0x0 PUSH1 0x20 DUP3 ADD SWAP1 POP DUP2 DUP2 SUB PUSH1 0x0 DUP4 ADD MSTORE PUSH2 0x2456 DUP2 DUP5 PUSH2 0x2403 JUMP JUMPDEST SWAP1 POP SWAP3 SWAP2 POP POP JUMP JUMPDEST PUSH1 0x0 DUP1 PUSH1 0x40 DUP4 DUP6 SUB SLT ISZERO PUSH2 0x2475 JUMPI PUSH2 0x2474 PUSH2 0x2009 JUMP JUMPDEST JUMPDEST PUSH1 0x0 DUP4 ADD CALLDATALOAD PUSH8 0xFFFFFFFFFFFFFFFF DUP2 GT ISZERO PUSH2 0x2493 JUMPI PUSH2 0x2492 PUSH2 0x200E JUMP JUMPDEST JUMPDEST PUSH2 0x249F DUP6 DUP3 DUP7 ADD PUSH2 0x21EA JUMP JUMPDEST SWAP3 POP POP PUSH1 0x20 DUP4 ADD CALLDATALOAD PUSH8 0xFFFFFFFFFFFFFFFF DUP2 GT ISZERO PUSH2 0x24C0 JUMPI PUSH2 0x24BF PUSH2 0x200E JUMP JUMPDEST JUMPDEST PUSH2 0x24CC DUP6 DUP3 DUP7 ADD PUSH2 0x21EA JUMP JUMPDEST SWAP2 POP POP SWAP3 POP SWAP3 SWAP1 POP JUMP JUMPDEST PUSH1 0x0 DUP1 PUSH1 0x40 DUP4 DUP6 SUB SLT ISZERO PUSH2 0x24ED JUMPI PUSH2 0x24EC PUSH2 0x2009 JUMP JUMPDEST JUMPDEST PUSH1 0x0 PUSH2 0x24FB DUP6 DUP3 DUP7 ADD PUSH2 0x2034 JUMP JUMPDEST SWAP3 POP POP PUSH1 0x20 DUP4 ADD CALLDATALOAD PUSH8 0xFFFFFFFFFFFFFFFF DUP2 GT ISZERO PUSH2 0x251C JUMPI PUSH2 0x251B PUSH2 0x200E JUMP JUMPDEST JUMPDEST PUSH2 0x2528 DUP6 DUP3 DUP7 ADD PUSH2 0x21EA JUMP JUMPDEST SWAP2 POP POP SWAP3 POP SWAP3 SWAP1 POP JUMP JUMPDEST PUSH1 0x3 DUP2 LT PUSH2 0x253F JUMPI PUSH1 0x0 DUP1 REVERT JUMPDEST POP JUMP JUMPDEST PUSH1 0x0 DUP2 CALLDATALOAD SWAP1 POP PUSH2 0x2551 DUP2 PUSH2 0x2532 JUMP JUMPDEST SWAP3 SWAP2 POP POP JUMP JUMPDEST PUSH1 0x0 DUP1 PUSH1 0x0 DUP1 PUSH1 0x0 DUP1 PUSH1 0xC0 DUP8 DUP10 SUB SLT ISZERO PUSH2 0x2574 JUMPI PUSH2 0x2573 PUSH2 0x2009 JUMP JUMPDEST JUMPDEST PUSH1 0x0 PUSH2 0x2582 DUP10 DUP3 DUP11 ADD PUSH2 0x2034 JUMP JUMPDEST SWAP7 POP POP PUSH1 0x20 DUP8 ADD CALLDATALOAD PUSH8 0xFFFFFFFFFFFFFFFF DUP2 GT ISZERO PUSH2 0x25A3 JUMPI PUSH2 0x25A2 PUSH2 0x200E JUMP JUMPDEST JUMPDEST PUSH2 0x25AF DUP10 DUP3 DUP11 ADD PUSH2 0x21EA JUMP JUMPDEST SWAP6 POP POP PUSH1 0x40 PUSH2 0x25C0 DUP10 DUP3 DUP11 ADD PUSH2 0x2034 JUMP JUMPDEST SWAP5 POP POP PUSH1 0x60 PUSH2 0x25D1 DUP10 DUP3 DUP11 ADD PUSH2 0x2542 JUMP JUMPDEST SWAP4 POP POP PUSH1 0x80 DUP8 ADD CALLDATALOAD PUSH8 0xFFFFFFFFFFFFFFFF DUP2 GT ISZERO PUSH2 0x25F2 JUMPI PUSH2 0x25F1 PUSH2 0x200E JUMP JUMPDEST JUMPDEST PUSH2 0x25FE DUP10 DUP3 DUP11 ADD PUSH2 0x21EA JUMP JUMPDEST SWAP3 POP POP PUSH1 0xA0 DUP8 ADD CALLDATALOAD PUSH8 0xFFFFFFFFFFFFFFFF DUP2 GT ISZERO PUSH2 0x261F JUMPI PUSH2 0x261E PUSH2 0x200E JUMP JUMPDEST JUMPDEST PUSH2 0x262B DUP10 DUP3 DUP11 ADD PUSH2 0x21EA JUMP JUMPDEST SWAP2 POP POP SWAP3 SWAP6 POP SWAP3 SWAP6 POP SWAP3 SWAP6 JUMP JUMPDEST PUSH1 0x0 DUP1 PUSH1 0x0 DUP1 PUSH1 0x0 DUP1 PUSH1 0x0 PUSH1 0xE0 DUP9 DUP11 SUB SLT ISZERO PUSH2 0x2657 JUMPI PUSH2 0x2656 PUSH2 0x2009 JUMP JUMPDEST JUMPDEST PUSH1 0x0 PUSH2 0x2665 DUP11 DUP3 DUP12 ADD PUSH2 0x2034 JUMP JUMPDEST SWAP8 POP POP PUSH1 0x20 DUP9 ADD CALLDATALOAD PUSH8 0xFFFFFFFFFFFFFFFF DUP2 GT ISZERO PUSH2 0x2686 JUMPI PUSH2 0x2685 PUSH2 0x200E JUMP JUMPDEST JUMPDEST PUSH2 0x2692 DUP11 DUP3 DUP12 ADD PUSH2 0x21EA JUMP JUMPDEST SWAP7 POP POP PUSH1 0x40 DUP9 ADD CALLDATALOAD PUSH8 0xFFFFFFFFFFFFFFFF DUP2 GT ISZERO PUSH2 0x26B3 JUMPI PUSH2 0x26B2 PUSH2 0x200E JUMP JUMPDEST JUMPDEST PUSH2 0x26BF DUP11 DUP3 DUP12 ADD PUSH2 0x21EA JUMP JUMPDEST SWAP6 POP POP PUSH1 0x60 DUP9 ADD CALLDATALOAD PUSH8 0xFFFFFFFFFFFFFFFF DUP2 GT ISZERO PUSH2 0x26E0 JUMPI PUSH2 0x26DF PUSH2 0x200E JUMP JUMPDEST JUMPDEST PUSH2 0x26EC DUP11 DUP3 DUP12 ADD PUSH2 0x21EA JUMP JUMPDEST SWAP5 POP POP PUSH1 0x80 DUP9 ADD CALLDATALOAD PUSH8 0xFFFFFFFFFFFFFFFF DUP2 GT ISZERO PUSH2 0x270D JUMPI PUSH2 0x270C PUSH2 0x200E JUMP JUMPDEST JUMPDEST PUSH2 0x2719 DUP11 DUP3 DUP12 ADD PUSH2 0x21EA JUMP JUMPDEST SWAP4 POP POP PUSH1 0xA0 DUP9 ADD CALLDATALOAD PUSH8 0xFFFFFFFFFFFFFFFF DUP2 GT ISZERO PUSH2 0x273A JUMPI PUSH2 0x2739 PUSH2 0x200E JUMP JUMPDEST JUMPDEST PUSH2 0x2746 DUP11 DUP3 DUP12 ADD PUSH2 0x21EA JUMP JUMPDEST SWAP3 POP POP PUSH1 0xC0 DUP9 ADD CALLDATALOAD PUSH8 0xFFFFFFFFFFFFFFFF DUP2 GT ISZERO PUSH2 0x2767 JUMPI PUSH2 0x2766 PUSH2 0x200E JUMP JUMPDEST JUMPDEST PUSH2 0x2773 DUP11 DUP3 DUP12 ADD PUSH2 0x21EA JUMP JUMPDEST SWAP2 POP POP SWAP3 SWAP6 SWAP9 SWAP2 SWAP5 SWAP8 POP SWAP3 SWAP6 POP JUMP JUMPDEST PUSH1 0x0 DUP1 PUSH1 0x0 PUSH1 0x60 DUP5 DUP7 SUB SLT ISZERO PUSH2 0x279B JUMPI PUSH2 0x279A PUSH2 0x2009 JUMP JUMPDEST JUMPDEST PUSH1 0x0 PUSH2 0x27A9 DUP7 DUP3 DUP8 ADD PUSH2 0x2034 JUMP JUMPDEST SWAP4 POP POP PUSH1 0x20 PUSH2 0x27BA DUP7 DUP3 DUP8 ADD PUSH2 0x2034 JUMP JUMPDEST SWAP3 POP POP PUSH1 0x40 PUSH2 0x27CB DUP7 DUP3 DUP8 ADD PUSH2 0x2034 JUMP JUMPDEST SWAP2 POP POP SWAP3 POP SWAP3 POP SWAP3 JUMP JUMPDEST PUSH32 0x4E487B7100000000000000000000000000000000000000000000000000000000 PUSH1 0x0 MSTORE PUSH1 0x21 PUSH1 0x4 MSTORE PUSH1 0x24 PUSH1 0x0 REVERT JUMPDEST PUSH1 0x3 DUP2 LT PUSH2 0x2815 JUMPI PUSH2 0x2814 PUSH2 0x27D5 JUMP JUMPDEST JUMPDEST POP JUMP JUMPDEST PUSH1 0x0 DUP2 SWAP1 POP PUSH2 0x2826 DUP3 PUSH2 0x2804 JUMP JUMPDEST SWAP2 SWAP1 POP JUMP JUMPDEST PUSH1 0x0 PUSH2 0x2836 DUP3 PUSH2 0x2818 JUMP JUMPDEST SWAP1 POP SWAP2 SWAP1 POP JUMP JUMPDEST PUSH2 0x2846 DUP2 PUSH2 0x282B JUMP JUMPDEST DUP3 MSTORE POP POP JUMP JUMPDEST PUSH1 0x0 PUSH1 0x20 DUP3 ADD SWAP1 POP PUSH2 0x2861 PUSH1 0x0 DUP4 ADD DUP5 PUSH2 0x283D JUMP JUMPDEST SWAP3 SWAP2 POP POP JUMP JUMPDEST PUSH1 0x0 DUP1 PUSH1 0x0 DUP1 PUSH1 0x80 DUP6 DUP8 SUB SLT ISZERO PUSH2 0x2881 JUMPI PUSH2 0x2880 PUSH2 0x2009 JUMP JUMPDEST JUMPDEST PUSH1 0x0 PUSH2 0x288F DUP8 DUP3 DUP9 ADD PUSH2 0x2034 JUMP JUMPDEST SWAP5 POP POP PUSH1 0x20 PUSH2 0x28A0 DUP8 DUP3 DUP9 ADD PUSH2 0x2034 JUMP JUMPDEST SWAP4 POP POP PUSH1 0x40 DUP6 ADD CALLDATALOAD PUSH8 0xFFFFFFFFFFFFFFFF DUP2 GT ISZERO PUSH2 0x28C1 JUMPI PUSH2 0x28C0 PUSH2 0x200E JUMP JUMPDEST JUMPDEST PUSH2 0x28CD DUP8 DUP3 DUP9 ADD PUSH2 0x21EA JUMP JUMPDEST SWAP3 POP POP PUSH1 0x60 DUP6 ADD CALLDATALOAD PUSH8 0xFFFFFFFFFFFFFFFF DUP2 GT ISZERO PUSH2 0x28EE JUMPI PUSH2 0x28ED PUSH2 0x200E JUMP JUMPDEST JUMPDEST PUSH2 0x28FA DUP8 DUP3 DUP9 ADD PUSH2 0x21EA JUMP JUMPDEST SWAP2 POP POP SWAP3 SWAP6 SWAP2 SWAP5 POP SWAP3 POP JUMP JUMPDEST PUSH32 0x496E76616C696420686F73706974616C20696421000000000000000000000000 PUSH1 0x0 DUP3 ADD MSTORE POP JUMP JUMPDEST PUSH1 0x0 PUSH2 0x293C PUSH1 0x14 DUP4 PUSH2 0x23C8 JUMP JUMPDEST SWAP2 POP PUSH2 0x2947 DUP3 PUSH2 0x2906 JUMP JUMPDEST PUSH1 0x20 DUP3 ADD SWAP1 POP SWAP2 SWAP1 POP JUMP JUMPDEST PUSH1 0x0 PUSH1 0x20 DUP3 ADD SWAP1 POP DUP2 DUP2 SUB PUSH1 0x0 DUP4 ADD MSTORE PUSH2 0x296B DUP2 PUSH2 0x292F JUMP JUMPDEST SWAP1 POP SWAP2 SWAP1 POP JUMP JUMPDEST PUSH32 0x4E487B7100000000000000000000000000000000000000000000000000000000 PUSH1 0x0 MSTORE PUSH1 0x22 PUSH1 0x4 MSTORE PUSH1 0x24 PUSH1 0x0 REVERT JUMPDEST PUSH1 0x0 PUSH1 0x2 DUP3 DIV SWAP1 POP PUSH1 0x1 DUP3 AND DUP1 PUSH2 0x29B9 JUMPI PUSH1 0x7F DUP3 AND SWAP2 POP JUMPDEST PUSH1 0x20 DUP3 LT DUP2 SUB PUSH2 0x29CC JUMPI PUSH2 0x29CB PUSH2 0x2972 JUMP JUMPDEST JUMPDEST POP SWAP2 SWAP1 POP JUMP JUMPDEST PUSH1 0x0 DUP2 SWAP1 POP SWAP3 SWAP2 POP POP JUMP JUMPDEST PUSH1 0x0 DUP2 SWAP1 POP DUP2 PUSH1 0x0 MSTORE PUSH1 0x20 PUSH1 0x0 KECCAK256 SWAP1 POP SWAP2 SWAP1 POP JUMP JUMPDEST PUSH1 0x0 DUP2 SLOAD PUSH2 0x29FF DUP2 PUSH2 0x29A1 JUMP JUMPDEST PUSH2 0x2A09 DUP2 DUP7 PUSH2 0x29D2 JUMP JUMPDEST SWAP5 POP PUSH1 0x1 DUP3 AND PUSH1 0x0 DUP2 EQ PUSH2 0x2A24 JUMPI PUSH1 0x1 DUP2 EQ PUSH2 0x2A39 JUMPI PUSH2 0x2A6C JUMP JUMPDEST PUSH1 0xFF NOT DUP4 AND DUP7 MSTORE DUP2 ISZERO ISZERO DUP3 MUL DUP7 ADD SWAP4 POP PUSH2 0x2A6C JUMP JUMPDEST PUSH2 0x2A42 DUP6 PUSH2 0x29DD JUMP JUMPDEST PUSH1 0x0 JUMPDEST DUP4 DUP2 LT ISZERO PUSH2 0x2A64 JUMPI DUP2 SLOAD DUP2 DUP10 ADD MSTORE PUSH1 0x1 DUP3 ADD SWAP2 POP PUSH1 0x20 DUP2 ADD SWAP1 POP PUSH2 0x2A45 JUMP JUMPDEST DUP4 DUP9 ADD SWAP6 POP POP POP JUMPDEST POP POP POP SWAP3 SWAP2 POP POP JUMP JUMPDEST PUSH1 0x0 PUSH2 0x2A81 DUP3 DUP5 PUSH2 0x29F2 JUMP JUMPDEST SWAP2 POP DUP2 SWAP1 POP SWAP3 SWAP2 POP POP JUMP JUMPDEST PUSH32 0x70617373776F7264000000000000000000000000000000000000000000000000 PUSH1 0x0 DUP3 ADD MSTORE POP JUMP JUMPDEST PUSH1 0x0 PUSH2 0x2AC2 PUSH1 0x8 DUP4 PUSH2 0x23C8 JUMP JUMPDEST SWAP2 POP PUSH2 0x2ACD DUP3 PUSH2 0x2A8C JUMP JUMPDEST PUSH1 0x20 DUP3 ADD SWAP1 POP SWAP2 SWAP1 POP JUMP JUMPDEST PUSH1 0x0 PUSH1 0x40 DUP3 ADD SWAP1 POP DUP2 DUP2 SUB PUSH1 0x0 DUP4 ADD MSTORE PUSH2 0x2AF2 DUP2 DUP5 PUSH2 0x2403 JUMP JUMPDEST SWAP1 POP DUP2 DUP2 SUB PUSH1 0x20 DUP4 ADD MSTORE PUSH2 0x2B05 DUP2 PUSH2 0x2AB5 JUMP JUMPDEST SWAP1 POP SWAP3 SWAP2 POP POP JUMP JUMPDEST PUSH32 0x57726F6E672070617373776F7264210000000000000000000000000000000000 PUSH1 0x0 DUP3 ADD MSTORE POP JUMP JUMPDEST PUSH1 0x0 PUSH2 0x2B43 PUSH1 0xF DUP4 PUSH2 0x23C8 JUMP JUMPDEST SWAP2 POP PUSH2 0x2B4E DUP3 PUSH2 0x2B0D JUMP JUMPDEST PUSH1 0x20 DUP3 ADD SWAP1 POP SWAP2 SWAP1 POP JUMP JUMPDEST PUSH1 0x0 PUSH1 0x20 DUP3 ADD SWAP1 POP DUP2 DUP2 SUB PUSH1 0x0 DUP4 ADD MSTORE PUSH2 0x2B72 DUP2 PUSH2 0x2B36 JUMP JUMPDEST SWAP1 POP SWAP2 SWAP1 POP JUMP JUMPDEST PUSH32 0x4E6F742072657175657374207965742100000000000000000000000000000000 PUSH1 0x0 DUP3 ADD MSTORE POP JUMP JUMPDEST PUSH1 0x0 PUSH2 0x2BAF PUSH1 0x10 DUP4 PUSH2 0x23C8 JUMP JUMPDEST SWAP2 POP PUSH2 0x2BBA DUP3 PUSH2 0x2B79 JUMP JUMPDEST PUSH1 0x20 DUP3 ADD SWAP1 POP SWAP2 SWAP1 POP JUMP JUMPDEST PUSH1 0x0 PUSH1 0x20 DUP3 ADD SWAP1 POP DUP2 DUP2 SUB PUSH1 0x0 DUP4 ADD MSTORE PUSH2 0x2BDE DUP2 PUSH2 0x2BA2 JUMP JUMPDEST SWAP1 POP SWAP2 SWAP1 POP JUMP JUMPDEST PUSH32 0x4E487B7100000000000000000000000000000000000000000000000000000000 PUSH1 0x0 MSTORE PUSH1 0x32 PUSH1 0x4 MSTORE PUSH1 0x24 PUSH1 0x0 REVERT JUMPDEST PUSH32 0x4E487B7100000000000000000000000000000000000000000000000000000000 PUSH1 0x0 MSTORE PUSH1 0x11 PUSH1 0x4 MSTORE PUSH1 0x24 PUSH1 0x0 REVERT JUMPDEST PUSH1 0x0 PUSH2 0x2C4E DUP3 PUSH2 0x2013 JUMP JUMPDEST SWAP2 POP PUSH32 0xFFFFFFFFFFFFFFFFFFFFFFFFFFFFFFFFFFFFFFFFFFFFFFFFFFFFFFFFFFFFFFFF DUP3 SUB PUSH2 0x2C80 JUMPI PUSH2 0x2C7F PUSH2 0x2C14 JUMP JUMPDEST JUMPDEST PUSH1 0x1 DUP3 ADD SWAP1 POP SWAP2 SWAP1 POP JUMP JUMPDEST PUSH32 0x496E76616C696420726571756573742069642100000000000000000000000000 PUSH1 0x0 DUP3 ADD MSTORE POP JUMP JUMPDEST PUSH1 0x0 PUSH2 0x2CC1 PUSH1 0x13 DUP4 PUSH2 0x23C8 JUMP JUMPDEST SWAP2 POP PUSH2 0x2CCC DUP3 PUSH2 0x2C8B JUMP JUMPDEST PUSH1 0x20 DUP3 ADD SWAP1 POP SWAP2 SWAP1 POP JUMP JUMPDEST PUSH1 0x0 PUSH1 0x20 DUP3 ADD SWAP1 POP DUP2 DUP2 SUB PUSH1 0x0 DUP4 ADD MSTORE PUSH2 0x2CF0 DUP2 PUSH2 0x2CB4 JUMP JUMPDEST SWAP1 POP SWAP2 SWAP1 POP JUMP JUMPDEST PUSH32 0x696E76616C6964204E524943206E756D62657200000000000000000000000000 PUSH1 0x0 DUP3 ADD MSTORE POP JUMP JUMPDEST PUSH1 0x0 PUSH2 0x2D2D PUSH1 0x13 DUP4 PUSH2 0x23C8 JUMP JUMPDEST SWAP2 POP PUSH2 0x2D38 DUP3 PUSH2 0x2CF7 JUMP JUMPDEST PUSH1 0x20 DUP3 ADD SWAP1 POP SWAP2 SWAP1 POP JUMP JUMPDEST PUSH1 0x0 PUSH1 0x20 DUP3 ADD SWAP1 POP DUP2 DUP2 SUB PUSH1 0x0 DUP4 ADD MSTORE PUSH2 0x2D5C DUP2 PUSH2 0x2D20 JUMP JUMPDEST SWAP1 POP SWAP2 SWAP1 POP JUMP JUMPDEST PUSH32 0x6963000000000000000000000000000000000000000000000000000000000000 PUSH1 0x0 DUP3 ADD MSTORE POP JUMP JUMPDEST PUSH1 0x0 PUSH2 0x2D99 PUSH1 0x2 DUP4 PUSH2 0x23C8 JUMP JUMPDEST SWAP2 POP PUSH2 0x2DA4 DUP3 PUSH2 0x2D63 JUMP JUMPDEST PUSH1 0x20 DUP3 ADD SWAP1 POP SWAP2 SWAP1 POP JUMP JUMPDEST PUSH1 0x0 PUSH1 0x40 DUP3 ADD SWAP1 POP DUP2 DUP2 SUB PUSH1 0x0 DUP4 ADD MSTORE PUSH2 0x2DC9 DUP2 DUP5 PUSH2 0x2403 JUMP JUMPDEST SWAP1 POP DUP2 DUP2 SUB PUSH1 0x20 DUP4 ADD MSTORE PUSH2 0x2DDC DUP2 PUSH2 0x2D8C JUMP JUMPDEST SWAP1 POP SWAP3 SWAP2 POP POP JUMP JUMPDEST PUSH1 0x0 DUP2 MLOAD SWAP1 POP SWAP2 SWAP1 POP JUMP JUMPDEST PUSH1 0x0 PUSH1 0x20 PUSH1 0x1F DUP4 ADD DIV SWAP1 POP SWAP2 SWAP1 POP JUMP JUMPDEST PUSH1 0x0 DUP3 DUP3 SHL SWAP1 POP SWAP3 SWAP2 POP POP JUMP JUMPDEST PUSH1 0x0 PUSH1 0x8 DUP4 MUL PUSH2 0x2E3C PUSH32 0xFFFFFFFFFFFFFFFFFFFFFFFFFFFFFFFFFFFFFFFFFFFFFFFFFFFFFFFFFFFFFFFF DUP3 PUSH2 0x2DFF JUMP JUMPDEST PUSH2 0x2E46 DUP7 DUP4 PUSH2 0x2DFF JUMP JUMPDEST SWAP6 POP DUP1 NOT DUP5 AND SWAP4 POP DUP1 DUP7 AND DUP5 OR SWAP3 POP POP POP SWAP4 SWAP3 POP POP POP JUMP JUMPDEST PUSH1 0x0 DUP2 SWAP1 POP SWAP2 SWAP1 POP JUMP JUMPDEST PUSH1 0x0 PUSH2 0x2E83 PUSH2 0x2E7E PUSH2 0x2E79 DUP5 PUSH2 0x2013 JUMP JUMPDEST PUSH2 0x2E5E JUMP JUMPDEST PUSH2 0x2013 JUMP JUMPDEST SWAP1 POP SWAP2 SWAP1 POP JUMP JUMPDEST PUSH1 0x0 DUP2 SWAP1 POP SWAP2 SWAP1 POP JUMP JUMPDEST PUSH2 0x2E9D DUP4 PUSH2 0x2E68 JUMP JUMPDEST PUSH2 0x2EB1 PUSH2 0x2EA9 DUP3 PUSH2 0x2E8A JUMP JUMPDEST DUP5 DUP5 SLOAD PUSH2 0x2E0C JUMP JUMPDEST DUP3 SSTORE POP POP POP POP JUMP JUMPDEST PUSH1 0x0 SWAP1 JUMP JUMPDEST PUSH2 0x2EC6 PUSH2 0x2EB9 JUMP JUMPDEST PUSH2 0x2ED1 DUP2 DUP5 DUP5 PUSH2 0x2E94 JUMP JUMPDEST POP POP POP JUMP JUMPDEST JUMPDEST DUP2 DUP2 LT ISZERO PUSH2 0x2EF5 JUMPI PUSH2 0x2EEA PUSH1 0x0 DUP3 PUSH2 0x2EBE JUMP JUMPDEST PUSH1 0x1 DUP2 ADD SWAP1 POP PUSH2 0x2ED7 JUMP JUMPDEST POP POP JUMP JUMPDEST PUSH1 0x1F DUP3 GT ISZERO PUSH2 0x2F3A JUMPI PUSH2 0x2F0B DUP2 PUSH2 0x29DD JUMP JUMPDEST PUSH2 0x2F14 DUP5 PUSH2 0x2DEF JUMP JUMPDEST DUP2 ADD PUSH1 0x20 DUP6 LT ISZERO PUSH2 0x2F23 JUMPI DUP2 SWAP1 POP JUMPDEST PUSH2 0x2F37 PUSH2 0x2F2F DUP6 PUSH2 0x2DEF JUMP JUMPDEST DUP4 ADD DUP3 PUSH2 0x2ED6 JUMP JUMPDEST POP POP JUMPDEST POP POP POP JUMP JUMPDEST PUSH1 0x0 DUP3 DUP3 SHR SWAP1 POP SWAP3 SWAP2 POP POP JUMP JUMPDEST PUSH1 0x0 PUSH2 0x2F5D PUSH1 0x0 NOT DUP5 PUSH1 0x8 MUL PUSH2 0x2F3F JUMP JUMPDEST NOT DUP1 DUP4 AND SWAP2 POP POP SWAP3 SWAP2 POP POP JUMP JUMPDEST PUSH1 0x0 PUSH2 0x2F76 DUP4 DUP4 PUSH2 0x2F4C JUMP JUMPDEST SWAP2 POP DUP3 PUSH1 0x2 MUL DUP3 OR SWAP1 POP SWAP3 SWAP2 POP POP JUMP JUMPDEST PUSH2 0x2F8F DUP3 PUSH2 0x2DE4 JUMP JUMPDEST PUSH8 0xFFFFFFFFFFFFFFFF DUP2 GT ISZERO PUSH2 0x2FA8 JUMPI PUSH2 0x2FA7 PUSH2 0x20ED JUMP JUMPDEST JUMPDEST PUSH2 0x2FB2 DUP3 SLOAD PUSH2 0x29A1 JUMP JUMPDEST PUSH2 0x2FBD DUP3 DUP3 DUP6 PUSH2 0x2EF9 JUMP JUMPDEST PUSH1 0x0 PUSH1 0x20 SWAP1 POP PUSH1 0x1F DUP4 GT PUSH1 0x1 DUP2 EQ PUSH2 0x2FF0 JUMPI PUSH1 0x0 DUP5 ISZERO PUSH2 0x2FDE JUMPI DUP3 DUP8 ADD MLOAD SWAP1 POP JUMPDEST PUSH2 0x2FE8 DUP6 DUP3 PUSH2 0x2F6A JUMP JUMPDEST DUP7 SSTORE POP PUSH2 0x3050 JUMP JUMPDEST PUSH1 0x1F NOT DUP5 AND PUSH2 0x2FFE DUP7 PUSH2 0x29DD JUMP JUMPDEST PUSH1 0x0 JUMPDEST DUP3 DUP2 LT ISZERO PUSH2 0x3026 JUMPI DUP5 DUP10 ADD MLOAD DUP3 SSTORE PUSH1 0x1 DUP3 ADD SWAP2 POP PUSH1 0x20 DUP6 ADD SWAP5 POP PUSH1 0x20 DUP2 ADD SWAP1 POP PUSH2 0x3001 JUMP JUMPDEST DUP7 DUP4 LT ISZERO PUSH2 0x3043 JUMPI DUP5 DUP10 ADD MLOAD PUSH2 0x303F PUSH1 0x1F DUP10 AND DUP3 PUSH2 0x2F4C JUMP JUMPDEST DUP4 SSTORE POP JUMPDEST PUSH1 0x1 PUSH1 0x2 DUP9 MUL ADD DUP9 SSTORE POP POP POP JUMPDEST POP POP POP POP POP POP JUMP JUMPDEST PUSH32 0x302E303120455448206973206E656564656420746F2072656769737465722079 PUSH1 0x0 DUP3 ADD MSTORE PUSH32 0x6F757220686F73706974616C0000000000000000000000000000000000000000 PUSH1 0x20 DUP3 ADD MSTORE POP JUMP JUMPDEST PUSH1 0x0 PUSH2 0x30B4 PUSH1 0x2C DUP4 PUSH2 0x23C8 JUMP JUMPDEST SWAP2 POP PUSH2 0x30BF DUP3 PUSH2 0x3058 JUMP JUMPDEST PUSH1 0x40 DUP3 ADD SWAP1 POP SWAP2 SWAP1 POP JUMP JUMPDEST PUSH1 0x0 PUSH1 0x20 DUP3 ADD SWAP1 POP DUP2 DUP2 SUB PUSH1 0x0 DUP4 ADD MSTORE PUSH2 0x30E3 DUP2 PUSH2 0x30A7 JUMP JUMPDEST SWAP1 POP SWAP2 SWAP1 POP JUMP JUMPDEST PUSH1 0x0 PUSH2 0x30F5 DUP3 PUSH2 0x2DE4 JUMP JUMPDEST PUSH2 0x30FF DUP2 DUP6 PUSH2 0x29D2 JUMP JUMPDEST SWAP4 POP PUSH2 0x310F DUP2 DUP6 PUSH1 0x20 DUP7 ADD PUSH2 0x23D9 JUMP JUMPDEST DUP1 DUP5 ADD SWAP2 POP POP SWAP3 SWAP2 POP POP JUMP JUMPDEST PUSH1 0x0 PUSH2 0x3127 DUP3 DUP5 PUSH2 0x30EA JUMP JUMPDEST SWAP2 POP DUP2 SWAP1 POP SWAP3 SWAP2 POP POP JUMP JUMPDEST PUSH1 0x0 DUP2 SWAP1 POP SWAP2 SWAP1 POP JUMP JUMPDEST PUSH2 0x314D PUSH2 0x3148 DUP3 PUSH2 0x2013 JUMP JUMPDEST PUSH2 0x3132 JUMP JUMPDEST DUP3 MSTORE POP POP JUMP JUMPDEST PUSH1 0x0 PUSH2 0x315F DUP3 DUP5 PUSH2 0x313C JUMP JUMPDEST PUSH1 0x20 DUP3 ADD SWAP2 POP DUP2 SWAP1 POP SWAP3 SWAP2 POP POP JUMP JUMPDEST PUSH1 0x0 DUP2 MLOAD SWAP1 POP SWAP2 SWAP1 POP JUMP JUMPDEST PUSH1 0x0 DUP3 DUP3 MSTORE PUSH1 0x20 DUP3 ADD SWAP1 POP SWAP3 SWAP2 POP POP JUMP JUMPDEST PUSH1 0x0 DUP2 SWAP1 POP PUSH1 0x20 DUP3 ADD SWAP1 POP SWAP2 SWAP1 POP JUMP JUMPDEST PUSH2 0x31A3 DUP2 PUSH2 0x2013 JUMP JUMPDEST DUP3 MSTORE POP POP JUMP JUMPDEST PUSH1 0x0 PUSH2 0x31B5 DUP4 DUP4 PUSH2 0x319A JUMP JUMPDEST PUSH1 0x20 DUP4 ADD SWAP1 POP SWAP3 SWAP2 POP POP JUMP JUMPDEST PUSH1 0x0 PUSH1 0x20 DUP3 ADD SWAP1 POP SWAP2 SWAP1 POP JUMP JUMPDEST PUSH1 0x0 PUSH2 0x31D9 DUP3 PUSH2 0x316E JUMP JUMPDEST PUSH2 0x31E3 DUP2 DUP6 PUSH2 0x3179 JUMP JUMPDEST SWAP4 POP PUSH2 0x31EE DUP4 PUSH2 0x318A JUMP JUMPDEST DUP1 PUSH1 0x0 JUMPDEST DUP4 DUP2 LT ISZERO PUSH2 0x321F JUMPI DUP2 MLOAD PUSH2 0x3206 DUP9 DUP3 PUSH2 0x31A9 JUMP JUMPDEST SWAP8 POP PUSH2 0x3211 DUP4 PUSH2 0x31C1 JUMP JUMPDEST SWAP3 POP POP PUSH1 0x1 DUP2 ADD SWAP1 POP PUSH2 0x31F2 JUMP JUMPDEST POP DUP6 SWAP4 POP POP POP POP SWAP3 SWAP2 POP POP JUMP JUMPDEST PUSH1 0x0 DUP2 MLOAD SWAP1 POP SWAP2 SWAP1 POP JUMP JUMPDEST PUSH1 0x0 DUP3 DUP3 MSTORE PUSH1 0x20 DUP3 ADD SWAP1 POP SWAP3 SWAP2 POP POP JUMP JUMPDEST PUSH1 0x0 DUP2 SWAP1 POP PUSH1 0x20 DUP3 ADD SWAP1 POP SWAP2 SWAP1 POP JUMP JUMPDEST PUSH1 0x0 DUP3 DUP3 MSTORE PUSH1 0x20 DUP3 ADD SWAP1 POP SWAP3 SWAP2 POP POP JUMP JUMPDEST PUSH1 0x0 PUSH2 0x3274 DUP3 PUSH2 0x23BD JUMP JUMPDEST PUSH2 0x327E DUP2 DUP6 PUSH2 0x3258 JUMP JUMPDEST SWAP4 POP PUSH2 0x328E DUP2 DUP6 PUSH1 0x20 DUP7 ADD PUSH2 0x23D9 JUMP JUMPDEST PUSH2 0x3297 DUP2 PUSH2 0x20DC JUMP JUMPDEST DUP5 ADD SWAP2 POP POP SWAP3 SWAP2 POP POP JUMP JUMPDEST PUSH1 0x0 PUSH2 0x32AE DUP4 DUP4 PUSH2 0x3269 JUMP JUMPDEST SWAP1 POP SWAP3 SWAP2 POP POP JUMP JUMPDEST PUSH1 0x0 PUSH1 0x20 DUP3 ADD SWAP1 POP SWAP2 SWAP1 POP JUMP JUMPDEST PUSH1 0x0 PUSH2 0x32CE DUP3 PUSH2 0x322C JUMP JUMPDEST PUSH2 0x32D8 DUP2 DUP6 PUSH2 0x3237 JUMP JUMPDEST SWAP4 POP DUP4 PUSH1 0x20 DUP3 MUL DUP6 ADD PUSH2 0x32EA DUP6 PUSH2 0x3248 JUMP JUMPDEST DUP1 PUSH1 0x0 JUMPDEST DUP6 DUP2 LT ISZERO PUSH2 0x3326 JUMPI DUP5 DUP5 SUB DUP10 MSTORE DUP2 MLOAD PUSH2 0x3307 DUP6 DUP3 PUSH2 0x32A2 JUMP JUMPDEST SWAP5 POP PUSH2 0x3312 DUP4 PUSH2 0x32B6 JUMP JUMPDEST SWAP3 POP PUSH1 0x20 DUP11 ADD SWAP10 POP POP PUSH1 0x1 DUP2 ADD SWAP1 POP PUSH2 0x32EE JUMP JUMPDEST POP DUP3 SWAP8 POP DUP8 SWAP6 POP POP POP POP POP POP SWAP3 SWAP2 POP POP JUMP JUMPDEST PUSH1 0x0 PUSH1 0x80 DUP3 ADD SWAP1 POP DUP2 DUP2 SUB PUSH1 0x0 DUP4 ADD MSTORE PUSH2 0x3352 DUP2 DUP8 PUSH2 0x31CE JUMP JUMPDEST SWAP1 POP DUP2 DUP2 SUB PUSH1 0x20 DUP4 ADD MSTORE PUSH2 0x3366 DUP2 DUP7 PUSH2 0x31CE JUMP JUMPDEST SWAP1 POP DUP2 DUP2 SUB PUSH1 0x40 DUP4 ADD MSTORE PUSH2 0x337A DUP2 DUP6 PUSH2 0x32C3 JUMP JUMPDEST SWAP1 POP DUP2 DUP2 SUB PUSH1 0x60 DUP4 ADD MSTORE PUSH2 0x338E DUP2 DUP5 PUSH2 0x32C3 JUMP JUMPDEST SWAP1 POP SWAP6 SWAP5 POP POP POP POP POP JUMP JUMPDEST PUSH32 0x496E76616C696420646174652100000000000000000000000000000000000000 PUSH1 0x0 DUP3 ADD MSTORE POP JUMP JUMPDEST PUSH1 0x0 PUSH2 0x33CF PUSH1 0xD DUP4 PUSH2 0x23C8 JUMP JUMPDEST SWAP2 POP PUSH2 0x33DA DUP3 PUSH2 0x3399 JUMP JUMPDEST PUSH1 0x20 DUP3 ADD SWAP1 POP SWAP2 SWAP1 POP JUMP JUMPDEST PUSH1 0x0 PUSH1 0x20 DUP3 ADD SWAP1 POP DUP2 DUP2 SUB PUSH1 0x0 DUP4 ADD MSTORE PUSH2 0x33FE DUP2 PUSH2 0x33C2 JUMP JUMPDEST SWAP1 POP SWAP2 SWAP1 POP JUMP JUMPDEST PUSH1 0x0 DUP2 SWAP1 POP DUP2 PUSH1 0x0 MSTORE PUSH1 0x20 PUSH1 0x0 KECCAK256 SWAP1 POP SWAP2 SWAP1 POP JUMP JUMPDEST PUSH1 0x1F DUP3 GT ISZERO PUSH2 0x345B JUMPI PUSH2 0x342C DUP2 PUSH2 0x3405 JUMP JUMPDEST PUSH2 0x3435 DUP5 PUSH2 0x2DEF JUMP JUMPDEST DUP2 ADD PUSH1 0x20 DUP6 LT ISZERO PUSH2 0x3444 JUMPI DUP2 SWAP1 POP JUMPDEST PUSH2 0x3458 PUSH2 0x3450 DUP6 PUSH2 0x2DEF JUMP JUMPDEST DUP4 ADD DUP3 PUSH2 0x2ED6 JUMP JUMPDEST POP POP JUMPDEST POP POP POP JUMP JUMPDEST PUSH2 0x3469 DUP3 PUSH2 0x23BD JUMP JUMPDEST PUSH8 0xFFFFFFFFFFFFFFFF DUP2 GT ISZERO PUSH2 0x3482 JUMPI PUSH2 0x3481 PUSH2 0x20ED JUMP JUMPDEST JUMPDEST PUSH2 0x348C DUP3 SLOAD PUSH2 0x29A1 JUMP JUMPDEST PUSH2 0x3497 DUP3 DUP3 DUP6 PUSH2 0x341A JUMP JUMPDEST PUSH1 0x0 PUSH1 0x20 SWAP1 POP PUSH1 0x1F DUP4 GT PUSH1 0x1 DUP2 EQ PUSH2 0x34CA JUMPI PUSH1 0x0 DUP5 ISZERO PUSH2 0x34B8 JUMPI DUP3 DUP8 ADD MLOAD SWAP1 POP JUMPDEST PUSH2 0x34C2 DUP6 DUP3 PUSH2 0x2F6A JUMP JUMPDEST DUP7 SSTORE POP PUSH2 0x352A JUMP JUMPDEST PUSH1 0x1F NOT DUP5 AND PUSH2 0x34D8 DUP7 PUSH2 0x3405 JUMP JUMPDEST PUSH1 0x0 JUMPDEST DUP3 DUP2 LT ISZERO PUSH2 0x3500 JUMPI DUP5 DUP10 ADD MLOAD DUP3 SSTORE PUSH1 0x1 DUP3 ADD SWAP2 POP PUSH1 0x20 DUP6 ADD SWAP5 POP PUSH1 0x20 DUP2 ADD SWAP1 POP PUSH2 0x34DB JUMP JUMPDEST DUP7 DUP4 LT ISZERO PUSH2 0x351D JUMPI DUP5 DUP10 ADD MLOAD PUSH2 0x3519 PUSH1 0x1F DUP10 AND DUP3 PUSH2 0x2F4C JUMP JUMPDEST DUP4 SSTORE POP JUMPDEST PUSH1 0x1 PUSH1 0x2 DUP9 MUL ADD DUP9 SSTORE POP POP POP JUMPDEST POP POP POP POP POP POP JUMP JUMPDEST PUSH32 0x556E617574686F72697A65642100000000000000000000000000000000000000 PUSH1 0x0 DUP3 ADD MSTORE POP JUMP JUMPDEST PUSH1 0x0 PUSH2 0x3568 PUSH1 0xD DUP4 PUSH2 0x23C8 JUMP JUMPDEST SWAP2 POP PUSH2 0x3573 DUP3 PUSH2 0x3532 JUMP JUMPDEST PUSH1 0x20 DUP3 ADD SWAP1 POP SWAP2 SWAP1 POP JUMP JUMPDEST PUSH1 0x0 PUSH1 0x20 DUP3 ADD SWAP1 POP DUP2 DUP2 SUB PUSH1 0x0 DUP4 ADD MSTORE PUSH2 0x3597 DUP2 PUSH2 0x355B JUMP JUMPDEST SWAP1 POP SWAP2 SWAP1 POP JUMP JUMPDEST PUSH1 0x0 PUSH2 0x35B1 PUSH2 0x35AC DUP5 PUSH2 0x2168 JUMP JUMPDEST PUSH2 0x214D JUMP JUMPDEST SWAP1 POP DUP3 DUP2 MSTORE PUSH1 0x20 DUP2 ADD DUP5 DUP5 DUP5 ADD GT ISZERO PUSH2 0x35CD JUMPI PUSH2 0x35CC PUSH2 0x20D7 JUMP JUMPDEST JUMPDEST PUSH2 0x35D8 DUP5 DUP3 DUP6 PUSH2 0x23D9 JUMP JUMPDEST POP SWAP4 SWAP3 POP POP POP JUMP JUMPDEST PUSH1 0x0 DUP3 PUSH1 0x1F DUP4 ADD SLT PUSH2 0x35F5 JUMPI PUSH2 0x35F4 PUSH2 0x20D2 JUMP JUMPDEST JUMPDEST DUP2 MLOAD PUSH2 0x3605 DUP5 DUP3 PUSH1 0x20 DUP7 ADD PUSH2 0x359E JUMP JUMPDEST SWAP2 POP POP SWAP3 SWAP2 POP POP JUMP JUMPDEST PUSH1 0x0 DUP1 PUSH1 0x40 DUP4 DUP6 SUB SLT ISZERO PUSH2 0x3625 JUMPI PUSH2 0x3624 PUSH2 0x2009 JUMP JUMPDEST JUMPDEST PUSH1 0x0 DUP4 ADD MLOAD PUSH8 0xFFFFFFFFFFFFFFFF DUP2 GT ISZERO PUSH2 0x3643 JUMPI PUSH2 0x3642 PUSH2 0x200E JUMP JUMPDEST JUMPDEST PUSH2 0x364F DUP6 DUP3 DUP7 ADD PUSH2 0x35E0 JUMP JUMPDEST SWAP3 POP POP PUSH1 0x20 DUP4 ADD MLOAD PUSH8 0xFFFFFFFFFFFFFFFF DUP2 GT ISZERO PUSH2 0x3670 JUMPI PUSH2 0x366F PUSH2 0x200E JUMP JUMPDEST JUMPDEST PUSH2 0x367C DUP6 DUP3 DUP7 ADD PUSH2 0x35E0 JUMP JUMPDEST SWAP2 POP POP SWAP3 POP SWAP3 SWAP1 POP JUMP INVALID LOG2 PUSH5 0x6970667358 0x22 SLT KECCAK256 SWAP15 SWAP4 ADD 0x1E DUP13 0xB9 0xE8 SAR 0xB1 CODECOPY DELEGATECALL DUP10 SGT 0x2B GT 0xC0 0xA9 SWAP10 0xAD SLT ISZERO MULMOD SUB MLOAD 0xE4 PUSH25 0x13B4CEC8F53B64736F6C634300081200330000000000000000 "
				},
				"gasEstimates": {
					"creation": {
						"codeDepositCost": "2802400",
						"executionCost": "28083",
						"totalCost": "2830483"
					},
					"external": {
						"addMC(uint256,string,uint256,uint8,string,string)": "infinite",
						"changePassword(uint256,string,string)": "infinite",
						"changePresident(uint256,string,string)": "infinite",
						"checkMCIdFromStakeholder(uint256,uint256,uint256)": "infinite",
						"checkRequestFromHospital(uint256,string)": "infinite",
						"createPersonalInfo(uint256,string,string,string,string,string,string)": "infinite",
						"getHospitalId(address)": "2864",
						"getMCCategory(uint256)": "3006",
						"getMCNRIC(uint256)": "infinite",
						"getMCName(uint256)": "infinite",
						"getPassword(uint256)": "infinite",
						"getPresident(uint256)": "2895",
						"register(string,string)": "infinite",
						"requestMC(uint256,uint256,string,string)": "infinite",
						"solveRequest(uint256,string,uint256,uint256,uint256)": "infinite"
					}
				},
				"methodIdentifiers": {
					"addMC(uint256,string,uint256,uint8,string,string)": "66e918b8",
					"changePassword(uint256,string,string)": "ca630e1f",
					"changePresident(uint256,string,string)": "1e8993d9",
					"checkMCIdFromStakeholder(uint256,uint256,uint256)": "9cb3d01f",
					"checkRequestFromHospital(uint256,string)": "452ba754",
					"createPersonalInfo(uint256,string,string,string,string,string,string)": "74946460",
					"getHospitalId(address)": "2a177158",
					"getMCCategory(uint256)": "baaab57a",
					"getMCNRIC(uint256)": "caafc4fb",
					"getMCName(uint256)": "302e1ab1",
					"getPassword(uint256)": "f38c6bb6",
					"getPresident(uint256)": "10ab2570",
					"register(string,string)": "3ffbd47f",
					"requestMC(uint256,uint256,string,string)": "f043e745",
					"solveRequest(uint256,string,uint256,uint256,uint256)": "18c40f27"
				}
			},
			"storageLayout": {
				"storage": [
					{
						"astId": 1039,
						"contract": "contracts/Hospital.sol:Hospital",
						"label": "counter",
						"offset": 0,
						"slot": "0",
						"type": "t_uint256"
					},
					{
						"astId": 1075,
						"contract": "contracts/Hospital.sol:Hospital",
						"label": "MC",
						"offset": 0,
						"slot": "1",
						"type": "t_mapping(t_uint256,t_struct(medicalCert)1070_storage)"
					},
					{
						"astId": 1080,
						"contract": "contracts/Hospital.sol:Hospital",
						"label": "infos",
						"offset": 0,
						"slot": "2",
						"type": "t_mapping(t_uint256,t_struct(personalInfo)1056_storage)"
					},
					{
						"astId": 10,
						"contract": "contracts/Hospital.sol:Hospital",
						"label": "registeredHospital",
						"offset": 0,
						"slot": "3",
						"type": "t_mapping(t_uint256,t_struct(hospital)41_storage)"
					},
					{
						"astId": 14,
						"contract": "contracts/Hospital.sol:Hospital",
						"label": "ids",
						"offset": 0,
						"slot": "4",
						"type": "t_mapping(t_address,t_uint256)"
					},
					{
						"astId": 19,
						"contract": "contracts/Hospital.sol:Hospital",
						"label": "stakeholders",
						"offset": 0,
						"slot": "5",
						"type": "t_mapping(t_uint256,t_array(t_uint256)dyn_storage)"
					},
					{
						"astId": 22,
						"contract": "contracts/Hospital.sol:Hospital",
						"label": "totalHospital",
						"offset": 0,
						"slot": "6",
						"type": "t_uint256"
					},
					{
						"astId": 55,
						"contract": "contracts/Hospital.sol:Hospital",
						"label": "numOfReqs",
						"offset": 0,
						"slot": "7",
						"type": "t_uint256"
					},
					{
						"astId": 58,
						"contract": "contracts/Hospital.sol:Hospital",
						"label": "numOfPeople",
						"offset": 0,
						"slot": "8",
						"type": "t_uint256"
					},
					{
						"astId": 61,
						"contract": "contracts/Hospital.sol:Hospital",
						"label": "numOfMC",
						"offset": 0,
						"slot": "9",
						"type": "t_uint256"
					}
				],
				"types": {
					"t_address": {
						"encoding": "inplace",
						"label": "address",
						"numberOfBytes": "20"
					},
					"t_array(t_struct(Request)52_storage)dyn_storage": {
						"base": "t_struct(Request)52_storage",
						"encoding": "dynamic_array",
						"label": "struct Hospital.Request[]",
						"numberOfBytes": "32"
					},
					"t_array(t_uint256)dyn_storage": {
						"base": "t_uint256",
						"encoding": "dynamic_array",
						"label": "uint256[]",
						"numberOfBytes": "32"
					},
					"t_bytes_memory_ptr": {
						"encoding": "bytes",
						"label": "bytes",
						"numberOfBytes": "32"
					},
					"t_bytes_storage": {
						"encoding": "bytes",
						"label": "bytes",
						"numberOfBytes": "32"
					},
					"t_enum(certCategory)1043": {
						"encoding": "inplace",
						"label": "enum MedicalCertificate.certCategory",
						"numberOfBytes": "1"
					},
					"t_mapping(t_address,t_uint256)": {
						"encoding": "mapping",
						"key": "t_address",
						"label": "mapping(address => uint256)",
						"numberOfBytes": "32",
						"value": "t_uint256"
					},
					"t_mapping(t_bytes_memory_ptr,t_address)": {
						"encoding": "mapping",
						"key": "t_bytes_memory_ptr",
						"label": "mapping(bytes => address)",
						"numberOfBytes": "32",
						"value": "t_address"
					},
					"t_mapping(t_uint256,t_array(t_struct(Request)52_storage)dyn_storage)": {
						"encoding": "mapping",
						"key": "t_uint256",
						"label": "mapping(uint256 => struct Hospital.Request[])",
						"numberOfBytes": "32",
						"value": "t_array(t_struct(Request)52_storage)dyn_storage"
					},
					"t_mapping(t_uint256,t_array(t_uint256)dyn_storage)": {
						"encoding": "mapping",
						"key": "t_uint256",
						"label": "mapping(uint256 => uint256[])",
						"numberOfBytes": "32",
						"value": "t_array(t_uint256)dyn_storage"
					},
					"t_mapping(t_uint256,t_struct(hospital)41_storage)": {
						"encoding": "mapping",
						"key": "t_uint256",
						"label": "mapping(uint256 => struct Hospital.hospital)",
						"numberOfBytes": "32",
						"value": "t_struct(hospital)41_storage"
					},
					"t_mapping(t_uint256,t_struct(medicalCert)1070_storage)": {
						"encoding": "mapping",
						"key": "t_uint256",
						"label": "mapping(uint256 => struct MedicalCertificate.medicalCert)",
						"numberOfBytes": "32",
						"value": "t_struct(medicalCert)1070_storage"
					},
					"t_mapping(t_uint256,t_struct(personalInfo)1056_storage)": {
						"encoding": "mapping",
						"key": "t_uint256",
						"label": "mapping(uint256 => struct MedicalCertificate.personalInfo)",
						"numberOfBytes": "32",
						"value": "t_struct(personalInfo)1056_storage"
					},
					"t_string_storage": {
						"encoding": "bytes",
						"label": "string",
						"numberOfBytes": "32"
					},
					"t_struct(Request)52_storage": {
						"encoding": "inplace",
						"label": "struct Hospital.Request",
						"members": [
							{
								"astId": 43,
								"contract": "contracts/Hospital.sol:Hospital",
								"label": "reqId",
								"offset": 0,
								"slot": "0",
								"type": "t_uint256"
							},
							{
								"astId": 45,
								"contract": "contracts/Hospital.sol:Hospital",
								"label": "stakeholderId",
								"offset": 0,
								"slot": "1",
								"type": "t_uint256"
							},
							{
								"astId": 47,
								"contract": "contracts/Hospital.sol:Hospital",
								"label": "nameAssured",
								"offset": 0,
								"slot": "2",
								"type": "t_string_storage"
							},
							{
								"astId": 49,
								"contract": "contracts/Hospital.sol:Hospital",
								"label": "icAssured",
								"offset": 0,
								"slot": "3",
								"type": "t_string_storage"
							},
							{
								"astId": 51,
								"contract": "contracts/Hospital.sol:Hospital",
								"label": "mcid",
								"offset": 0,
								"slot": "4",
								"type": "t_uint256"
							}
						],
						"numberOfBytes": "160"
					},
					"t_struct(hospital)41_storage": {
						"encoding": "inplace",
						"label": "struct Hospital.hospital",
						"members": [
							{
								"astId": 24,
								"contract": "contracts/Hospital.sol:Hospital",
								"label": "president",
								"offset": 0,
								"slot": "0",
								"type": "t_address"
							},
							{
								"astId": 26,
								"contract": "contracts/Hospital.sol:Hospital",
								"label": "president_ic",
								"offset": 0,
								"slot": "1",
								"type": "t_bytes_storage"
							},
							{
								"astId": 28,
								"contract": "contracts/Hospital.sol:Hospital",
								"label": "password",
								"offset": 0,
								"slot": "2",
								"type": "t_bytes_storage"
							},
							{
								"astId": 30,
								"contract": "contracts/Hospital.sol:Hospital",
								"label": "hospitalId",
								"offset": 0,
								"slot": "3",
								"type": "t_uint256"
							},
							{
								"astId": 34,
								"contract": "contracts/Hospital.sol:Hospital",
								"label": "mcs",
								"offset": 0,
								"slot": "4",
								"type": "t_mapping(t_bytes_memory_ptr,t_address)"
							},
							{
								"astId": 40,
								"contract": "contracts/Hospital.sol:Hospital",
								"label": "requests",
								"offset": 0,
								"slot": "5",
								"type": "t_mapping(t_uint256,t_array(t_struct(Request)52_storage)dyn_storage)"
							}
						],
						"numberOfBytes": "192"
					},
					"t_struct(medicalCert)1070_storage": {
						"encoding": "inplace",
						"label": "struct MedicalCertificate.medicalCert",
						"members": [
							{
								"astId": 1058,
								"contract": "contracts/Hospital.sol:Hospital",
								"label": "ID",
								"offset": 0,
								"slot": "0",
								"type": "t_uint256"
							},
							{
								"astId": 1060,
								"contract": "contracts/Hospital.sol:Hospital",
								"label": "HospitalID",
								"offset": 0,
								"slot": "1",
								"type": "t_uint256"
							},
							{
								"astId": 1062,
								"contract": "contracts/Hospital.sol:Hospital",
								"label": "personal_info",
								"offset": 0,
								"slot": "2",
								"type": "t_uint256"
							},
							{
								"astId": 1065,
								"contract": "contracts/Hospital.sol:Hospital",
								"label": "incident",
								"offset": 0,
								"slot": "3",
								"type": "t_enum(certCategory)1043"
							},
							{
								"astId": 1067,
								"contract": "contracts/Hospital.sol:Hospital",
								"label": "dateTimeIncident",
								"offset": 0,
								"slot": "4",
								"type": "t_string_storage"
							},
							{
								"astId": 1069,
								"contract": "contracts/Hospital.sol:Hospital",
								"label": "titleOfCertifier",
								"offset": 0,
								"slot": "5",
								"type": "t_string_storage"
							}
						],
						"numberOfBytes": "192"
					},
					"t_struct(personalInfo)1056_storage": {
						"encoding": "inplace",
						"label": "struct MedicalCertificate.personalInfo",
						"members": [
							{
								"astId": 1045,
								"contract": "contracts/Hospital.sol:Hospital",
								"label": "personId",
								"offset": 0,
								"slot": "0",
								"type": "t_uint256"
							},
							{
								"astId": 1047,
								"contract": "contracts/Hospital.sol:Hospital",
								"label": "name",
								"offset": 0,
								"slot": "1",
								"type": "t_string_storage"
							},
							{
								"astId": 1049,
								"contract": "contracts/Hospital.sol:Hospital",
								"label": "NRIC",
								"offset": 0,
								"slot": "2",
								"type": "t_string_storage"
							},
							{
								"astId": 1051,
								"contract": "contracts/Hospital.sol:Hospital",
								"label": "sex",
								"offset": 0,
								"slot": "3",
								"type": "t_string_storage"
							},
							{
								"astId": 1053,
								"contract": "contracts/Hospital.sol:Hospital",
								"label": "birthdate",
								"offset": 0,
								"slot": "4",
								"type": "t_string_storage"
							},
							{
								"astId": 1055,
								"contract": "contracts/Hospital.sol:Hospital",
								"label": "race_nationality",
								"offset": 0,
								"slot": "5",
								"type": "t_string_storage"
							}
						],
						"numberOfBytes": "192"
					},
					"t_uint256": {
						"encoding": "inplace",
						"label": "uint256",
						"numberOfBytes": "32"
					}
				}
			},
			"userdoc": {
				"kind": "user",
				"methods": {},
				"version": 1
			}
		}
	}
}