{
	"contracts/TrustInsure.sol": {
		"TrustInsure": {
			"abi": [
				{
					"inputs": [],
					"stateMutability": "nonpayable",
					"type": "constructor"
				},
				{
					"inputs": [
						{
							"internalType": "address",
							"name": "ad",
							"type": "address"
						}
					],
					"name": "checkInsure",
					"outputs": [
						{
							"internalType": "uint256",
							"name": "",
							"type": "uint256"
						}
					],
					"stateMutability": "view",
					"type": "function"
				},
				{
					"inputs": [],
					"name": "getInsure",
					"outputs": [
						{
							"internalType": "uint256",
							"name": "",
							"type": "uint256"
						}
					],
					"stateMutability": "payable",
					"type": "function"
				},
				{
					"inputs": [
						{
							"internalType": "address",
							"name": "from",
							"type": "address"
						},
						{
							"internalType": "address",
							"name": "to",
							"type": "address"
						},
						{
							"internalType": "uint256",
							"name": "amt",
							"type": "uint256"
						}
					],
					"name": "transferFromInsure",
					"outputs": [],
					"stateMutability": "nonpayable",
					"type": "function"
				},
				{
					"inputs": [
						{
							"internalType": "address",
							"name": "to",
							"type": "address"
						},
						{
							"internalType": "uint256",
							"name": "amt",
							"type": "uint256"
						}
					],
					"name": "transferInsure",
					"outputs": [],
					"stateMutability": "nonpayable",
					"type": "function"
				}
			],
			"devdoc": {
				"kind": "dev",
				"methods": {},
				"version": 1
			},
			"evm": {
				"assembly": "    /* \"contracts/TrustInsure.sol\":49:1008  contract TrustInsure {... */\n  mstore(0x40, 0x80)\n    /* \"contracts/TrustInsure.sol\":121:235  constructor() public {... */\n  callvalue\n  dup1\n  iszero\n  tag_1\n  jumpi\n  0x00\n  dup1\n  revert\ntag_1:\n  pop\n    /* \"contracts/TrustInsure.sol\":152:159  ERC20 e */\n  0x00\n    /* \"contracts/TrustInsure.sol\":162:173  new ERC20() */\n  mload(0x40)\n  tag_4\n  swap1\n  tag_5\n  jump\t// in\ntag_4:\n  mload(0x40)\n  dup1\n  swap2\n  sub\n  swap1\n  0x00\n  create\n  dup1\n  iszero\n  dup1\n  iszero\n  tag_6\n  jumpi\n  returndatasize\n  0x00\n  dup1\n  returndatacopy\n  revert(0x00, returndatasize)\ntag_6:\n  pop\n    /* \"contracts/TrustInsure.sol\":152:173  ERC20 e = new ERC20() */\n  swap1\n  pop\n    /* \"contracts/TrustInsure.sol\":199:200  e */\n  dup1\n    /* \"contracts/TrustInsure.sol\":183:196  erc20Contract */\n  0x00\n  dup1\n    /* \"contracts/TrustInsure.sol\":183:200  erc20Contract = e */\n  0x0100\n  exp\n  dup2\n  sload\n  dup2\n  0xffffffffffffffffffffffffffffffffffffffff\n  mul\n  not\n  and\n  swap1\n  dup4\n  0xffffffffffffffffffffffffffffffffffffffff\n  and\n  mul\n  or\n  swap1\n  sstore\n  pop\n    /* \"contracts/TrustInsure.sol\":218:228  msg.sender */\n  caller\n    /* \"contracts/TrustInsure.sol\":210:215  owner */\n  0x01\n  0x00\n    /* \"contracts/TrustInsure.sol\":210:228  owner = msg.sender */\n  0x0100\n  exp\n  dup2\n  sload\n  dup2\n  0xffffffffffffffffffffffffffffffffffffffff\n  mul\n  not\n  and\n  swap1\n  dup4\n  0xffffffffffffffffffffffffffffffffffffffff\n  and\n  mul\n  or\n  swap1\n  sstore\n  pop\n    /* \"contracts/TrustInsure.sol\":142:235  {... */\n  pop\n    /* \"contracts/TrustInsure.sol\":49:1008  contract TrustInsure {... */\n  jump(tag_7)\ntag_5:\n  dataSize(sub_1)\n  dup1\n  dataOffset(sub_1)\n  dup4\n  codecopy\n  add\n  swap1\n  jump\t// out\ntag_7:\n  dataSize(sub_0)\n  dup1\n  dataOffset(sub_0)\n  0x00\n  codecopy\n  0x00\n  return\nstop\n\nsub_0: assembly {\n        /* \"contracts/TrustInsure.sol\":49:1008  contract TrustInsure {... */\n      mstore(0x40, 0x80)\n      jumpi(tag_1, lt(calldatasize, 0x04))\n      shr(0xe0, calldataload(0x00))\n      dup1\n      0x3456ea30\n      eq\n      tag_2\n      jumpi\n      dup1\n      0x371ad447\n      eq\n      tag_3\n      jumpi\n      dup1\n      0x682e09b8\n      eq\n      tag_4\n      jumpi\n      dup1\n      0xb9b7650a\n      eq\n      tag_5\n      jumpi\n    tag_1:\n      0x00\n      dup1\n      revert\n        /* \"contracts/TrustInsure.sol\":748:880  function transferFromInsure(address from, address to, uint256 amt) public {... */\n    tag_2:\n      callvalue\n      dup1\n      iszero\n      tag_6\n      jumpi\n      0x00\n      dup1\n      revert\n    tag_6:\n      pop\n      tag_7\n      0x04\n      dup1\n      calldatasize\n      sub\n      dup2\n      add\n      swap1\n      tag_8\n      swap2\n      swap1\n      tag_9\n      jump\t// in\n    tag_8:\n      tag_10\n      jump\t// in\n    tag_7:\n      stop\n        /* \"contracts/TrustInsure.sol\":886:1006  function transferInsure(address to, uint256 amt) public {... */\n    tag_3:\n      callvalue\n      dup1\n      iszero\n      tag_11\n      jumpi\n      0x00\n      dup1\n      revert\n    tag_11:\n      pop\n      tag_12\n      0x04\n      dup1\n      calldatasize\n      sub\n      dup2\n      add\n      swap1\n      tag_13\n      swap2\n      swap1\n      tag_14\n      jump\t// in\n    tag_13:\n      tag_15\n      jump\t// in\n    tag_12:\n      stop\n        /* \"contracts/TrustInsure.sol\":302:589  function getInsure()... */\n    tag_4:\n      tag_16\n      tag_17\n      jump\t// in\n    tag_16:\n      mload(0x40)\n      tag_18\n      swap2\n      swap1\n      tag_19\n      jump\t// in\n    tag_18:\n      mload(0x40)\n      dup1\n      swap2\n      sub\n      swap1\n      return\n        /* \"contracts/TrustInsure.sol\":595:742  function checkInsure(address ad) public view returns (uint256) {... */\n    tag_5:\n      callvalue\n      dup1\n      iszero\n      tag_20\n      jumpi\n      0x00\n      dup1\n      revert\n    tag_20:\n      pop\n      tag_21\n      0x04\n      dup1\n      calldatasize\n      sub\n      dup2\n      add\n      swap1\n      tag_22\n      swap2\n      swap1\n      tag_23\n      jump\t// in\n    tag_22:\n      tag_24\n      jump\t// in\n    tag_21:\n      mload(0x40)\n      tag_25\n      swap2\n      swap1\n      tag_19\n      jump\t// in\n    tag_25:\n      mload(0x40)\n      dup1\n      swap2\n      sub\n      swap1\n      return\n        /* \"contracts/TrustInsure.sol\":748:880  function transferFromInsure(address from, address to, uint256 amt) public {... */\n    tag_10:\n        /* \"contracts/TrustInsure.sol\":832:845  erc20Contract */\n      0x00\n      dup1\n      sload\n      swap1\n      0x0100\n      exp\n      swap1\n      div\n      0xffffffffffffffffffffffffffffffffffffffff\n      and\n        /* \"contracts/TrustInsure.sol\":832:858  erc20Contract.transferFrom */\n      0xffffffffffffffffffffffffffffffffffffffff\n      and\n      0x23b872dd\n        /* \"contracts/TrustInsure.sol\":859:863  from */\n      dup5\n        /* \"contracts/TrustInsure.sol\":865:867  to */\n      dup5\n        /* \"contracts/TrustInsure.sol\":869:872  amt */\n      dup5\n        /* \"contracts/TrustInsure.sol\":832:873  erc20Contract.transferFrom(from, to, amt) */\n      mload(0x40)\n      dup5\n      0xffffffff\n      and\n      0xe0\n      shl\n      dup2\n      mstore\n      0x04\n      add\n      tag_27\n      swap4\n      swap3\n      swap2\n      swap1\n      tag_28\n      jump\t// in\n    tag_27:\n      0x20\n      mload(0x40)\n      dup1\n      dup4\n      sub\n      dup2\n      0x00\n      dup8\n      gas\n      call\n      iszero\n      dup1\n      iszero\n      tag_30\n      jumpi\n      returndatasize\n      0x00\n      dup1\n      returndatacopy\n      revert(0x00, returndatasize)\n    tag_30:\n      pop\n      pop\n      pop\n      pop\n      mload(0x40)\n      returndatasize\n      not(0x1f)\n      0x1f\n      dup3\n      add\n      and\n      dup3\n      add\n      dup1\n      0x40\n      mstore\n      pop\n      dup2\n      add\n      swap1\n      tag_31\n      swap2\n      swap1\n      tag_32\n      jump\t// in\n    tag_31:\n      pop\n        /* \"contracts/TrustInsure.sol\":748:880  function transferFromInsure(address from, address to, uint256 amt) public {... */\n      pop\n      pop\n      pop\n      jump\t// out\n        /* \"contracts/TrustInsure.sol\":886:1006  function transferInsure(address to, uint256 amt) public {... */\n    tag_15:\n        /* \"contracts/TrustInsure.sol\":952:965  erc20Contract */\n      0x00\n      dup1\n      sload\n      swap1\n      0x0100\n      exp\n      swap1\n      div\n      0xffffffffffffffffffffffffffffffffffffffff\n      and\n        /* \"contracts/TrustInsure.sol\":952:978  erc20Contract.transferFrom */\n      0xffffffffffffffffffffffffffffffffffffffff\n      and\n      0x23b872dd\n        /* \"contracts/TrustInsure.sol\":979:989  msg.sender */\n      caller\n        /* \"contracts/TrustInsure.sol\":991:993  to */\n      dup5\n        /* \"contracts/TrustInsure.sol\":995:998  amt */\n      dup5\n        /* \"contracts/TrustInsure.sol\":952:999  erc20Contract.transferFrom(msg.sender, to, amt) */\n      mload(0x40)\n      dup5\n      0xffffffff\n      and\n      0xe0\n      shl\n      dup2\n      mstore\n      0x04\n      add\n      tag_34\n      swap4\n      swap3\n      swap2\n      swap1\n      tag_28\n      jump\t// in\n    tag_34:\n      0x20\n      mload(0x40)\n      dup1\n      dup4\n      sub\n      dup2\n      0x00\n      dup8\n      gas\n      call\n      iszero\n      dup1\n      iszero\n      tag_36\n      jumpi\n      returndatasize\n      0x00\n      dup1\n      returndatacopy\n      revert(0x00, returndatasize)\n    tag_36:\n      pop\n      pop\n      pop\n      pop\n      mload(0x40)\n      returndatasize\n      not(0x1f)\n      0x1f\n      dup3\n      add\n      and\n      dup3\n      add\n      dup1\n      0x40\n      mstore\n      pop\n      dup2\n      add\n      swap1\n      tag_37\n      swap2\n      swap1\n      tag_32\n      jump\t// in\n    tag_37:\n      pop\n        /* \"contracts/TrustInsure.sol\":886:1006  function transferInsure(address to, uint256 amt) public {... */\n      pop\n      pop\n      jump\t// out\n        /* \"contracts/TrustInsure.sol\":302:589  function getInsure()... */\n    tag_17:\n        /* \"contracts/TrustInsure.sol\":363:370  uint256 */\n      0x00\n        /* \"contracts/TrustInsure.sol\":446:458  uint256  amt */\n      dup1\n        /* \"contracts/TrustInsure.sol\":461:470  msg.value */\n      callvalue\n        /* \"contracts/TrustInsure.sol\":446:470  uint256  amt = msg.value */\n      swap1\n      pop\n        /* \"contracts/TrustInsure.sol\":491:494  200 */\n      0xc8\n        /* \"contracts/TrustInsure.sol\":484:487  amt */\n      dup2\n        /* \"contracts/TrustInsure.sol\":484:494  amt >= 200 */\n      lt\n        /* \"contracts/TrustInsure.sol\":480:516  if (amt >= 200) amt += (amt/200) * 5 */\n      tag_39\n      jumpi\n        /* \"contracts/TrustInsure.sol\":515:516  5 */\n      0x05\n        /* \"contracts/TrustInsure.sol\":508:511  200 */\n      0xc8\n        /* \"contracts/TrustInsure.sol\":504:507  amt */\n      dup3\n        /* \"contracts/TrustInsure.sol\":504:511  amt/200 */\n      tag_40\n      swap2\n      swap1\n      tag_41\n      jump\t// in\n    tag_40:\n        /* \"contracts/TrustInsure.sol\":503:516  (amt/200) * 5 */\n      tag_42\n      swap2\n      swap1\n      tag_43\n      jump\t// in\n    tag_42:\n        /* \"contracts/TrustInsure.sol\":496:516  amt += (amt/200) * 5 */\n      dup2\n      tag_44\n      swap2\n      swap1\n      tag_45\n      jump\t// in\n    tag_44:\n      swap1\n      pop\n        /* \"contracts/TrustInsure.sol\":480:516  if (amt >= 200) amt += (amt/200) * 5 */\n    tag_39:\n        /* \"contracts/TrustInsure.sol\":526:539  erc20Contract */\n      0x00\n      dup1\n      sload\n      swap1\n      0x0100\n      exp\n      swap1\n      div\n      0xffffffffffffffffffffffffffffffffffffffff\n      and\n        /* \"contracts/TrustInsure.sol\":526:544  erc20Contract.mint */\n      0xffffffffffffffffffffffffffffffffffffffff\n      and\n      0x40c10f19\n        /* \"contracts/TrustInsure.sol\":545:555  msg.sender */\n      caller\n        /* \"contracts/TrustInsure.sol\":557:560  amt */\n      dup4\n        /* \"contracts/TrustInsure.sol\":526:561  erc20Contract.mint(msg.sender, amt) */\n      mload(0x40)\n      dup4\n      0xffffffff\n      and\n      0xe0\n      shl\n      dup2\n      mstore\n      0x04\n      add\n      tag_46\n      swap3\n      swap2\n      swap1\n      tag_47\n      jump\t// in\n    tag_46:\n      0x20\n      mload(0x40)\n      dup1\n      dup4\n      sub\n      dup2\n      0x00\n      dup8\n      gas\n      call\n      iszero\n      dup1\n      iszero\n      tag_49\n      jumpi\n      returndatasize\n      0x00\n      dup1\n      returndatacopy\n      revert(0x00, returndatasize)\n    tag_49:\n      pop\n      pop\n      pop\n      pop\n      mload(0x40)\n      returndatasize\n      not(0x1f)\n      0x1f\n      dup3\n      add\n      and\n      dup3\n      add\n      dup1\n      0x40\n      mstore\n      pop\n      dup2\n      add\n      swap1\n      tag_50\n      swap2\n      swap1\n      tag_32\n      jump\t// in\n    tag_50:\n      pop\n        /* \"contracts/TrustInsure.sol\":578:581  amt */\n      dup1\n        /* \"contracts/TrustInsure.sol\":571:581  return amt */\n      swap2\n      pop\n      pop\n        /* \"contracts/TrustInsure.sol\":302:589  function getInsure()... */\n      swap1\n      jump\t// out\n        /* \"contracts/TrustInsure.sol\":595:742  function checkInsure(address ad) public view returns (uint256) {... */\n    tag_24:\n        /* \"contracts/TrustInsure.sol\":649:656  uint256 */\n      0x00\n        /* \"contracts/TrustInsure.sol\":668:682  uint256 credit */\n      dup1\n        /* \"contracts/TrustInsure.sol\":685:698  erc20Contract */\n      0x00\n      dup1\n      sload\n      swap1\n      0x0100\n      exp\n      swap1\n      div\n      0xffffffffffffffffffffffffffffffffffffffff\n      and\n        /* \"contracts/TrustInsure.sol\":685:708  erc20Contract.balanceOf */\n      0xffffffffffffffffffffffffffffffffffffffff\n      and\n      0x70a08231\n        /* \"contracts/TrustInsure.sol\":709:711  ad */\n      dup5\n        /* \"contracts/TrustInsure.sol\":685:712  erc20Contract.balanceOf(ad) */\n      mload(0x40)\n      dup3\n      0xffffffff\n      and\n      0xe0\n      shl\n      dup2\n      mstore\n      0x04\n      add\n      tag_52\n      swap2\n      swap1\n      tag_53\n      jump\t// in\n    tag_52:\n      0x20\n      mload(0x40)\n      dup1\n      dup4\n      sub\n      dup2\n      dup7\n      gas\n      staticcall\n      iszero\n      dup1\n      iszero\n      tag_55\n      jumpi\n      returndatasize\n      0x00\n      dup1\n      returndatacopy\n      revert(0x00, returndatasize)\n    tag_55:\n      pop\n      pop\n      pop\n      pop\n      mload(0x40)\n      returndatasize\n      not(0x1f)\n      0x1f\n      dup3\n      add\n      and\n      dup3\n      add\n      dup1\n      0x40\n      mstore\n      pop\n      dup2\n      add\n      swap1\n      tag_56\n      swap2\n      swap1\n      tag_57\n      jump\t// in\n    tag_56:\n        /* \"contracts/TrustInsure.sol\":668:712  uint256 credit = erc20Contract.balanceOf(ad) */\n      swap1\n      pop\n        /* \"contracts/TrustInsure.sol\":729:735  credit */\n      dup1\n        /* \"contracts/TrustInsure.sol\":722:735  return credit */\n      swap2\n      pop\n      pop\n        /* \"contracts/TrustInsure.sol\":595:742  function checkInsure(address ad) public view returns (uint256) {... */\n      swap2\n      swap1\n      pop\n      jump\t// out\n        /* \"#utility.yul\":88:205   */\n    tag_59:\n        /* \"#utility.yul\":197:198   */\n      0x00\n        /* \"#utility.yul\":194:195   */\n      dup1\n        /* \"#utility.yul\":187:199   */\n      revert\n        /* \"#utility.yul\":334:460   */\n    tag_61:\n        /* \"#utility.yul\":371:378   */\n      0x00\n        /* \"#utility.yul\":411:453   */\n      0xffffffffffffffffffffffffffffffffffffffff\n        /* \"#utility.yul\":404:409   */\n      dup3\n        /* \"#utility.yul\":400:454   */\n      and\n        /* \"#utility.yul\":389:454   */\n      swap1\n      pop\n        /* \"#utility.yul\":334:460   */\n      swap2\n      swap1\n      pop\n      jump\t// out\n        /* \"#utility.yul\":466:562   */\n    tag_62:\n        /* \"#utility.yul\":503:510   */\n      0x00\n        /* \"#utility.yul\":532:556   */\n      tag_82\n        /* \"#utility.yul\":550:555   */\n      dup3\n        /* \"#utility.yul\":532:556   */\n      tag_61\n      jump\t// in\n    tag_82:\n        /* \"#utility.yul\":521:556   */\n      swap1\n      pop\n        /* \"#utility.yul\":466:562   */\n      swap2\n      swap1\n      pop\n      jump\t// out\n        /* \"#utility.yul\":568:690   */\n    tag_63:\n        /* \"#utility.yul\":641:665   */\n      tag_84\n        /* \"#utility.yul\":659:664   */\n      dup2\n        /* \"#utility.yul\":641:665   */\n      tag_62\n      jump\t// in\n    tag_84:\n        /* \"#utility.yul\":634:639   */\n      dup2\n        /* \"#utility.yul\":631:666   */\n      eq\n        /* \"#utility.yul\":621:684   */\n      tag_85\n      jumpi\n        /* \"#utility.yul\":680:681   */\n      0x00\n        /* \"#utility.yul\":677:678   */\n      dup1\n        /* \"#utility.yul\":670:682   */\n      revert\n        /* \"#utility.yul\":621:684   */\n    tag_85:\n        /* \"#utility.yul\":568:690   */\n      pop\n      jump\t// out\n        /* \"#utility.yul\":696:835   */\n    tag_64:\n        /* \"#utility.yul\":742:747   */\n      0x00\n        /* \"#utility.yul\":780:786   */\n      dup2\n        /* \"#utility.yul\":767:787   */\n      calldataload\n        /* \"#utility.yul\":758:787   */\n      swap1\n      pop\n        /* \"#utility.yul\":796:829   */\n      tag_87\n        /* \"#utility.yul\":823:828   */\n      dup2\n        /* \"#utility.yul\":796:829   */\n      tag_63\n      jump\t// in\n    tag_87:\n        /* \"#utility.yul\":696:835   */\n      swap3\n      swap2\n      pop\n      pop\n      jump\t// out\n        /* \"#utility.yul\":841:918   */\n    tag_65:\n        /* \"#utility.yul\":878:885   */\n      0x00\n        /* \"#utility.yul\":907:912   */\n      dup2\n        /* \"#utility.yul\":896:912   */\n      swap1\n      pop\n        /* \"#utility.yul\":841:918   */\n      swap2\n      swap1\n      pop\n      jump\t// out\n        /* \"#utility.yul\":924:1046   */\n    tag_66:\n        /* \"#utility.yul\":997:1021   */\n      tag_90\n        /* \"#utility.yul\":1015:1020   */\n      dup2\n        /* \"#utility.yul\":997:1021   */\n      tag_65\n      jump\t// in\n    tag_90:\n        /* \"#utility.yul\":990:995   */\n      dup2\n        /* \"#utility.yul\":987:1022   */\n      eq\n        /* \"#utility.yul\":977:1040   */\n      tag_91\n      jumpi\n        /* \"#utility.yul\":1036:1037   */\n      0x00\n        /* \"#utility.yul\":1033:1034   */\n      dup1\n        /* \"#utility.yul\":1026:1038   */\n      revert\n        /* \"#utility.yul\":977:1040   */\n    tag_91:\n        /* \"#utility.yul\":924:1046   */\n      pop\n      jump\t// out\n        /* \"#utility.yul\":1052:1191   */\n    tag_67:\n        /* \"#utility.yul\":1098:1103   */\n      0x00\n        /* \"#utility.yul\":1136:1142   */\n      dup2\n        /* \"#utility.yul\":1123:1143   */\n      calldataload\n        /* \"#utility.yul\":1114:1143   */\n      swap1\n      pop\n        /* \"#utility.yul\":1152:1185   */\n      tag_93\n        /* \"#utility.yul\":1179:1184   */\n      dup2\n        /* \"#utility.yul\":1152:1185   */\n      tag_66\n      jump\t// in\n    tag_93:\n        /* \"#utility.yul\":1052:1191   */\n      swap3\n      swap2\n      pop\n      pop\n      jump\t// out\n        /* \"#utility.yul\":1197:1816   */\n    tag_9:\n        /* \"#utility.yul\":1274:1280   */\n      0x00\n        /* \"#utility.yul\":1282:1288   */\n      dup1\n        /* \"#utility.yul\":1290:1296   */\n      0x00\n        /* \"#utility.yul\":1339:1341   */\n      0x60\n        /* \"#utility.yul\":1327:1336   */\n      dup5\n        /* \"#utility.yul\":1318:1325   */\n      dup7\n        /* \"#utility.yul\":1314:1337   */\n      sub\n        /* \"#utility.yul\":1310:1342   */\n      slt\n        /* \"#utility.yul\":1307:1426   */\n      iszero\n      tag_95\n      jumpi\n        /* \"#utility.yul\":1345:1424   */\n      tag_96\n      tag_59\n      jump\t// in\n    tag_96:\n        /* \"#utility.yul\":1307:1426   */\n    tag_95:\n        /* \"#utility.yul\":1465:1466   */\n      0x00\n        /* \"#utility.yul\":1490:1543   */\n      tag_97\n        /* \"#utility.yul\":1535:1542   */\n      dup7\n        /* \"#utility.yul\":1526:1532   */\n      dup3\n        /* \"#utility.yul\":1515:1524   */\n      dup8\n        /* \"#utility.yul\":1511:1533   */\n      add\n        /* \"#utility.yul\":1490:1543   */\n      tag_64\n      jump\t// in\n    tag_97:\n        /* \"#utility.yul\":1480:1543   */\n      swap4\n      pop\n        /* \"#utility.yul\":1436:1553   */\n      pop\n        /* \"#utility.yul\":1592:1594   */\n      0x20\n        /* \"#utility.yul\":1618:1671   */\n      tag_98\n        /* \"#utility.yul\":1663:1670   */\n      dup7\n        /* \"#utility.yul\":1654:1660   */\n      dup3\n        /* \"#utility.yul\":1643:1652   */\n      dup8\n        /* \"#utility.yul\":1639:1661   */\n      add\n        /* \"#utility.yul\":1618:1671   */\n      tag_64\n      jump\t// in\n    tag_98:\n        /* \"#utility.yul\":1608:1671   */\n      swap3\n      pop\n        /* \"#utility.yul\":1563:1681   */\n      pop\n        /* \"#utility.yul\":1720:1722   */\n      0x40\n        /* \"#utility.yul\":1746:1799   */\n      tag_99\n        /* \"#utility.yul\":1791:1798   */\n      dup7\n        /* \"#utility.yul\":1782:1788   */\n      dup3\n        /* \"#utility.yul\":1771:1780   */\n      dup8\n        /* \"#utility.yul\":1767:1789   */\n      add\n        /* \"#utility.yul\":1746:1799   */\n      tag_67\n      jump\t// in\n    tag_99:\n        /* \"#utility.yul\":1736:1799   */\n      swap2\n      pop\n        /* \"#utility.yul\":1691:1809   */\n      pop\n        /* \"#utility.yul\":1197:1816   */\n      swap3\n      pop\n      swap3\n      pop\n      swap3\n      jump\t// out\n        /* \"#utility.yul\":1822:2296   */\n    tag_14:\n        /* \"#utility.yul\":1890:1896   */\n      0x00\n        /* \"#utility.yul\":1898:1904   */\n      dup1\n        /* \"#utility.yul\":1947:1949   */\n      0x40\n        /* \"#utility.yul\":1935:1944   */\n      dup4\n        /* \"#utility.yul\":1926:1933   */\n      dup6\n        /* \"#utility.yul\":1922:1945   */\n      sub\n        /* \"#utility.yul\":1918:1950   */\n      slt\n        /* \"#utility.yul\":1915:2034   */\n      iszero\n      tag_101\n      jumpi\n        /* \"#utility.yul\":1953:2032   */\n      tag_102\n      tag_59\n      jump\t// in\n    tag_102:\n        /* \"#utility.yul\":1915:2034   */\n    tag_101:\n        /* \"#utility.yul\":2073:2074   */\n      0x00\n        /* \"#utility.yul\":2098:2151   */\n      tag_103\n        /* \"#utility.yul\":2143:2150   */\n      dup6\n        /* \"#utility.yul\":2134:2140   */\n      dup3\n        /* \"#utility.yul\":2123:2132   */\n      dup7\n        /* \"#utility.yul\":2119:2141   */\n      add\n        /* \"#utility.yul\":2098:2151   */\n      tag_64\n      jump\t// in\n    tag_103:\n        /* \"#utility.yul\":2088:2151   */\n      swap3\n      pop\n        /* \"#utility.yul\":2044:2161   */\n      pop\n        /* \"#utility.yul\":2200:2202   */\n      0x20\n        /* \"#utility.yul\":2226:2279   */\n      tag_104\n        /* \"#utility.yul\":2271:2278   */\n      dup6\n        /* \"#utility.yul\":2262:2268   */\n      dup3\n        /* \"#utility.yul\":2251:2260   */\n      dup7\n        /* \"#utility.yul\":2247:2269   */\n      add\n        /* \"#utility.yul\":2226:2279   */\n      tag_67\n      jump\t// in\n    tag_104:\n        /* \"#utility.yul\":2216:2279   */\n      swap2\n      pop\n        /* \"#utility.yul\":2171:2289   */\n      pop\n        /* \"#utility.yul\":1822:2296   */\n      swap3\n      pop\n      swap3\n      swap1\n      pop\n      jump\t// out\n        /* \"#utility.yul\":2302:2420   */\n    tag_68:\n        /* \"#utility.yul\":2389:2413   */\n      tag_106\n        /* \"#utility.yul\":2407:2412   */\n      dup2\n        /* \"#utility.yul\":2389:2413   */\n      tag_65\n      jump\t// in\n    tag_106:\n        /* \"#utility.yul\":2384:2387   */\n      dup3\n        /* \"#utility.yul\":2377:2414   */\n      mstore\n        /* \"#utility.yul\":2302:2420   */\n      pop\n      pop\n      jump\t// out\n        /* \"#utility.yul\":2426:2648   */\n    tag_19:\n        /* \"#utility.yul\":2519:2523   */\n      0x00\n        /* \"#utility.yul\":2557:2559   */\n      0x20\n        /* \"#utility.yul\":2546:2555   */\n      dup3\n        /* \"#utility.yul\":2542:2560   */\n      add\n        /* \"#utility.yul\":2534:2560   */\n      swap1\n      pop\n        /* \"#utility.yul\":2570:2641   */\n      tag_108\n        /* \"#utility.yul\":2638:2639   */\n      0x00\n        /* \"#utility.yul\":2627:2636   */\n      dup4\n        /* \"#utility.yul\":2623:2640   */\n      add\n        /* \"#utility.yul\":2614:2620   */\n      dup5\n        /* \"#utility.yul\":2570:2641   */\n      tag_68\n      jump\t// in\n    tag_108:\n        /* \"#utility.yul\":2426:2648   */\n      swap3\n      swap2\n      pop\n      pop\n      jump\t// out\n        /* \"#utility.yul\":2654:2983   */\n    tag_23:\n        /* \"#utility.yul\":2713:2719   */\n      0x00\n        /* \"#utility.yul\":2762:2764   */\n      0x20\n        /* \"#utility.yul\":2750:2759   */\n      dup3\n        /* \"#utility.yul\":2741:2748   */\n      dup5\n        /* \"#utility.yul\":2737:2760   */\n      sub\n        /* \"#utility.yul\":2733:2765   */\n      slt\n        /* \"#utility.yul\":2730:2849   */\n      iszero\n      tag_110\n      jumpi\n        /* \"#utility.yul\":2768:2847   */\n      tag_111\n      tag_59\n      jump\t// in\n    tag_111:\n        /* \"#utility.yul\":2730:2849   */\n    tag_110:\n        /* \"#utility.yul\":2888:2889   */\n      0x00\n        /* \"#utility.yul\":2913:2966   */\n      tag_112\n        /* \"#utility.yul\":2958:2965   */\n      dup5\n        /* \"#utility.yul\":2949:2955   */\n      dup3\n        /* \"#utility.yul\":2938:2947   */\n      dup6\n        /* \"#utility.yul\":2934:2956   */\n      add\n        /* \"#utility.yul\":2913:2966   */\n      tag_64\n      jump\t// in\n    tag_112:\n        /* \"#utility.yul\":2903:2966   */\n      swap2\n      pop\n        /* \"#utility.yul\":2859:2976   */\n      pop\n        /* \"#utility.yul\":2654:2983   */\n      swap3\n      swap2\n      pop\n      pop\n      jump\t// out\n        /* \"#utility.yul\":2989:3107   */\n    tag_69:\n        /* \"#utility.yul\":3076:3100   */\n      tag_114\n        /* \"#utility.yul\":3094:3099   */\n      dup2\n        /* \"#utility.yul\":3076:3100   */\n      tag_62\n      jump\t// in\n    tag_114:\n        /* \"#utility.yul\":3071:3074   */\n      dup3\n        /* \"#utility.yul\":3064:3101   */\n      mstore\n        /* \"#utility.yul\":2989:3107   */\n      pop\n      pop\n      jump\t// out\n        /* \"#utility.yul\":3113:3555   */\n    tag_28:\n        /* \"#utility.yul\":3262:3266   */\n      0x00\n        /* \"#utility.yul\":3300:3302   */\n      0x60\n        /* \"#utility.yul\":3289:3298   */\n      dup3\n        /* \"#utility.yul\":3285:3303   */\n      add\n        /* \"#utility.yul\":3277:3303   */\n      swap1\n      pop\n        /* \"#utility.yul\":3313:3384   */\n      tag_116\n        /* \"#utility.yul\":3381:3382   */\n      0x00\n        /* \"#utility.yul\":3370:3379   */\n      dup4\n        /* \"#utility.yul\":3366:3383   */\n      add\n        /* \"#utility.yul\":3357:3363   */\n      dup7\n        /* \"#utility.yul\":3313:3384   */\n      tag_69\n      jump\t// in\n    tag_116:\n        /* \"#utility.yul\":3394:3466   */\n      tag_117\n        /* \"#utility.yul\":3462:3464   */\n      0x20\n        /* \"#utility.yul\":3451:3460   */\n      dup4\n        /* \"#utility.yul\":3447:3465   */\n      add\n        /* \"#utility.yul\":3438:3444   */\n      dup6\n        /* \"#utility.yul\":3394:3466   */\n      tag_69\n      jump\t// in\n    tag_117:\n        /* \"#utility.yul\":3476:3548   */\n      tag_118\n        /* \"#utility.yul\":3544:3546   */\n      0x40\n        /* \"#utility.yul\":3533:3542   */\n      dup4\n        /* \"#utility.yul\":3529:3547   */\n      add\n        /* \"#utility.yul\":3520:3526   */\n      dup5\n        /* \"#utility.yul\":3476:3548   */\n      tag_68\n      jump\t// in\n    tag_118:\n        /* \"#utility.yul\":3113:3555   */\n      swap5\n      swap4\n      pop\n      pop\n      pop\n      pop\n      jump\t// out\n        /* \"#utility.yul\":3561:3651   */\n    tag_70:\n        /* \"#utility.yul\":3595:3602   */\n      0x00\n        /* \"#utility.yul\":3638:3643   */\n      dup2\n        /* \"#utility.yul\":3631:3644   */\n      iszero\n        /* \"#utility.yul\":3624:3645   */\n      iszero\n        /* \"#utility.yul\":3613:3645   */\n      swap1\n      pop\n        /* \"#utility.yul\":3561:3651   */\n      swap2\n      swap1\n      pop\n      jump\t// out\n        /* \"#utility.yul\":3657:3773   */\n    tag_71:\n        /* \"#utility.yul\":3727:3748   */\n      tag_121\n        /* \"#utility.yul\":3742:3747   */\n      dup2\n        /* \"#utility.yul\":3727:3748   */\n      tag_70\n      jump\t// in\n    tag_121:\n        /* \"#utility.yul\":3720:3725   */\n      dup2\n        /* \"#utility.yul\":3717:3749   */\n      eq\n        /* \"#utility.yul\":3707:3767   */\n      tag_122\n      jumpi\n        /* \"#utility.yul\":3763:3764   */\n      0x00\n        /* \"#utility.yul\":3760:3761   */\n      dup1\n        /* \"#utility.yul\":3753:3765   */\n      revert\n        /* \"#utility.yul\":3707:3767   */\n    tag_122:\n        /* \"#utility.yul\":3657:3773   */\n      pop\n      jump\t// out\n        /* \"#utility.yul\":3779:3916   */\n    tag_72:\n        /* \"#utility.yul\":3833:3838   */\n      0x00\n        /* \"#utility.yul\":3864:3870   */\n      dup2\n        /* \"#utility.yul\":3858:3871   */\n      mload\n        /* \"#utility.yul\":3849:3871   */\n      swap1\n      pop\n        /* \"#utility.yul\":3880:3910   */\n      tag_124\n        /* \"#utility.yul\":3904:3909   */\n      dup2\n        /* \"#utility.yul\":3880:3910   */\n      tag_71\n      jump\t// in\n    tag_124:\n        /* \"#utility.yul\":3779:3916   */\n      swap3\n      swap2\n      pop\n      pop\n      jump\t// out\n        /* \"#utility.yul\":3922:4267   */\n    tag_32:\n        /* \"#utility.yul\":3989:3995   */\n      0x00\n        /* \"#utility.yul\":4038:4040   */\n      0x20\n        /* \"#utility.yul\":4026:4035   */\n      dup3\n        /* \"#utility.yul\":4017:4024   */\n      dup5\n        /* \"#utility.yul\":4013:4036   */\n      sub\n        /* \"#utility.yul\":4009:4041   */\n      slt\n        /* \"#utility.yul\":4006:4125   */\n      iszero\n      tag_126\n      jumpi\n        /* \"#utility.yul\":4044:4123   */\n      tag_127\n      tag_59\n      jump\t// in\n    tag_127:\n        /* \"#utility.yul\":4006:4125   */\n    tag_126:\n        /* \"#utility.yul\":4164:4165   */\n      0x00\n        /* \"#utility.yul\":4189:4250   */\n      tag_128\n        /* \"#utility.yul\":4242:4249   */\n      dup5\n        /* \"#utility.yul\":4233:4239   */\n      dup3\n        /* \"#utility.yul\":4222:4231   */\n      dup6\n        /* \"#utility.yul\":4218:4240   */\n      add\n        /* \"#utility.yul\":4189:4250   */\n      tag_72\n      jump\t// in\n    tag_128:\n        /* \"#utility.yul\":4179:4250   */\n      swap2\n      pop\n        /* \"#utility.yul\":4135:4260   */\n      pop\n        /* \"#utility.yul\":3922:4267   */\n      swap3\n      swap2\n      pop\n      pop\n      jump\t// out\n        /* \"#utility.yul\":4273:4453   */\n    tag_73:\n        /* \"#utility.yul\":4321:4398   */\n      0x4e487b7100000000000000000000000000000000000000000000000000000000\n        /* \"#utility.yul\":4318:4319   */\n      0x00\n        /* \"#utility.yul\":4311:4399   */\n      mstore\n        /* \"#utility.yul\":4418:4422   */\n      0x12\n        /* \"#utility.yul\":4415:4416   */\n      0x04\n        /* \"#utility.yul\":4408:4423   */\n      mstore\n        /* \"#utility.yul\":4442:4446   */\n      0x24\n        /* \"#utility.yul\":4439:4440   */\n      0x00\n        /* \"#utility.yul\":4432:4447   */\n      revert\n        /* \"#utility.yul\":4459:4639   */\n    tag_74:\n        /* \"#utility.yul\":4507:4584   */\n      0x4e487b7100000000000000000000000000000000000000000000000000000000\n        /* \"#utility.yul\":4504:4505   */\n      0x00\n        /* \"#utility.yul\":4497:4585   */\n      mstore\n        /* \"#utility.yul\":4604:4608   */\n      0x11\n        /* \"#utility.yul\":4601:4602   */\n      0x04\n        /* \"#utility.yul\":4594:4609   */\n      mstore\n        /* \"#utility.yul\":4628:4632   */\n      0x24\n        /* \"#utility.yul\":4625:4626   */\n      0x00\n        /* \"#utility.yul\":4618:4633   */\n      revert\n        /* \"#utility.yul\":4645:4830   */\n    tag_41:\n        /* \"#utility.yul\":4685:4686   */\n      0x00\n        /* \"#utility.yul\":4702:4722   */\n      tag_132\n        /* \"#utility.yul\":4720:4721   */\n      dup3\n        /* \"#utility.yul\":4702:4722   */\n      tag_65\n      jump\t// in\n    tag_132:\n        /* \"#utility.yul\":4697:4722   */\n      swap2\n      pop\n        /* \"#utility.yul\":4736:4756   */\n      tag_133\n        /* \"#utility.yul\":4754:4755   */\n      dup4\n        /* \"#utility.yul\":4736:4756   */\n      tag_65\n      jump\t// in\n    tag_133:\n        /* \"#utility.yul\":4731:4756   */\n      swap3\n      pop\n        /* \"#utility.yul\":4775:4776   */\n      dup3\n        /* \"#utility.yul\":4765:4800   */\n      tag_134\n      jumpi\n        /* \"#utility.yul\":4780:4798   */\n      tag_135\n      tag_73\n      jump\t// in\n    tag_135:\n        /* \"#utility.yul\":4765:4800   */\n    tag_134:\n        /* \"#utility.yul\":4822:4823   */\n      dup3\n        /* \"#utility.yul\":4819:4820   */\n      dup3\n        /* \"#utility.yul\":4815:4824   */\n      div\n        /* \"#utility.yul\":4810:4824   */\n      swap1\n      pop\n        /* \"#utility.yul\":4645:4830   */\n      swap3\n      swap2\n      pop\n      pop\n      jump\t// out\n        /* \"#utility.yul\":4836:5246   */\n    tag_43:\n        /* \"#utility.yul\":4876:4883   */\n      0x00\n        /* \"#utility.yul\":4899:4919   */\n      tag_137\n        /* \"#utility.yul\":4917:4918   */\n      dup3\n        /* \"#utility.yul\":4899:4919   */\n      tag_65\n      jump\t// in\n    tag_137:\n        /* \"#utility.yul\":4894:4919   */\n      swap2\n      pop\n        /* \"#utility.yul\":4933:4953   */\n      tag_138\n        /* \"#utility.yul\":4951:4952   */\n      dup4\n        /* \"#utility.yul\":4933:4953   */\n      tag_65\n      jump\t// in\n    tag_138:\n        /* \"#utility.yul\":4928:4953   */\n      swap3\n      pop\n        /* \"#utility.yul\":4988:4989   */\n      dup3\n        /* \"#utility.yul\":4985:4986   */\n      dup3\n        /* \"#utility.yul\":4981:4990   */\n      mul\n        /* \"#utility.yul\":5010:5040   */\n      tag_139\n        /* \"#utility.yul\":5028:5039   */\n      dup2\n        /* \"#utility.yul\":5010:5040   */\n      tag_65\n      jump\t// in\n    tag_139:\n        /* \"#utility.yul\":4999:5040   */\n      swap2\n      pop\n        /* \"#utility.yul\":5189:5190   */\n      dup3\n        /* \"#utility.yul\":5180:5187   */\n      dup3\n        /* \"#utility.yul\":5176:5191   */\n      div\n        /* \"#utility.yul\":5173:5174   */\n      dup5\n        /* \"#utility.yul\":5170:5192   */\n      eq\n        /* \"#utility.yul\":5150:5151   */\n      dup4\n        /* \"#utility.yul\":5143:5152   */\n      iszero\n        /* \"#utility.yul\":5123:5206   */\n      or\n        /* \"#utility.yul\":5100:5239   */\n      tag_140\n      jumpi\n        /* \"#utility.yul\":5219:5237   */\n      tag_141\n      tag_74\n      jump\t// in\n    tag_141:\n        /* \"#utility.yul\":5100:5239   */\n    tag_140:\n        /* \"#utility.yul\":4884:5246   */\n      pop\n        /* \"#utility.yul\":4836:5246   */\n      swap3\n      swap2\n      pop\n      pop\n      jump\t// out\n        /* \"#utility.yul\":5252:5443   */\n    tag_45:\n        /* \"#utility.yul\":5292:5295   */\n      0x00\n        /* \"#utility.yul\":5311:5331   */\n      tag_143\n        /* \"#utility.yul\":5329:5330   */\n      dup3\n        /* \"#utility.yul\":5311:5331   */\n      tag_65\n      jump\t// in\n    tag_143:\n        /* \"#utility.yul\":5306:5331   */\n      swap2\n      pop\n        /* \"#utility.yul\":5345:5365   */\n      tag_144\n        /* \"#utility.yul\":5363:5364   */\n      dup4\n        /* \"#utility.yul\":5345:5365   */\n      tag_65\n      jump\t// in\n    tag_144:\n        /* \"#utility.yul\":5340:5365   */\n      swap3\n      pop\n        /* \"#utility.yul\":5388:5389   */\n      dup3\n        /* \"#utility.yul\":5385:5386   */\n      dup3\n        /* \"#utility.yul\":5381:5390   */\n      add\n        /* \"#utility.yul\":5374:5390   */\n      swap1\n      pop\n        /* \"#utility.yul\":5409:5412   */\n      dup1\n        /* \"#utility.yul\":5406:5407   */\n      dup3\n        /* \"#utility.yul\":5403:5413   */\n      gt\n        /* \"#utility.yul\":5400:5436   */\n      iszero\n      tag_145\n      jumpi\n        /* \"#utility.yul\":5416:5434   */\n      tag_146\n      tag_74\n      jump\t// in\n    tag_146:\n        /* \"#utility.yul\":5400:5436   */\n    tag_145:\n        /* \"#utility.yul\":5252:5443   */\n      swap3\n      swap2\n      pop\n      pop\n      jump\t// out\n        /* \"#utility.yul\":5449:5781   */\n    tag_47:\n        /* \"#utility.yul\":5570:5574   */\n      0x00\n        /* \"#utility.yul\":5608:5610   */\n      0x40\n        /* \"#utility.yul\":5597:5606   */\n      dup3\n        /* \"#utility.yul\":5593:5611   */\n      add\n        /* \"#utility.yul\":5585:5611   */\n      swap1\n      pop\n        /* \"#utility.yul\":5621:5692   */\n      tag_148\n        /* \"#utility.yul\":5689:5690   */\n      0x00\n        /* \"#utility.yul\":5678:5687   */\n      dup4\n        /* \"#utility.yul\":5674:5691   */\n      add\n        /* \"#utility.yul\":5665:5671   */\n      dup6\n        /* \"#utility.yul\":5621:5692   */\n      tag_69\n      jump\t// in\n    tag_148:\n        /* \"#utility.yul\":5702:5774   */\n      tag_149\n        /* \"#utility.yul\":5770:5772   */\n      0x20\n        /* \"#utility.yul\":5759:5768   */\n      dup4\n        /* \"#utility.yul\":5755:5773   */\n      add\n        /* \"#utility.yul\":5746:5752   */\n      dup5\n        /* \"#utility.yul\":5702:5774   */\n      tag_68\n      jump\t// in\n    tag_149:\n        /* \"#utility.yul\":5449:5781   */\n      swap4\n      swap3\n      pop\n      pop\n      pop\n      jump\t// out\n        /* \"#utility.yul\":5787:6009   */\n    tag_53:\n        /* \"#utility.yul\":5880:5884   */\n      0x00\n        /* \"#utility.yul\":5918:5920   */\n      0x20\n        /* \"#utility.yul\":5907:5916   */\n      dup3\n        /* \"#utility.yul\":5903:5921   */\n      add\n        /* \"#utility.yul\":5895:5921   */\n      swap1\n      pop\n        /* \"#utility.yul\":5931:6002   */\n      tag_151\n        /* \"#utility.yul\":5999:6000   */\n      0x00\n        /* \"#utility.yul\":5988:5997   */\n      dup4\n        /* \"#utility.yul\":5984:6001   */\n      add\n        /* \"#utility.yul\":5975:5981   */\n      dup5\n        /* \"#utility.yul\":5931:6002   */\n      tag_69\n      jump\t// in\n    tag_151:\n        /* \"#utility.yul\":5787:6009   */\n      swap3\n      swap2\n      pop\n      pop\n      jump\t// out\n        /* \"#utility.yul\":6015:6158   */\n    tag_75:\n        /* \"#utility.yul\":6072:6077   */\n      0x00\n        /* \"#utility.yul\":6103:6109   */\n      dup2\n        /* \"#utility.yul\":6097:6110   */\n      mload\n        /* \"#utility.yul\":6088:6110   */\n      swap1\n      pop\n        /* \"#utility.yul\":6119:6152   */\n      tag_153\n        /* \"#utility.yul\":6146:6151   */\n      dup2\n        /* \"#utility.yul\":6119:6152   */\n      tag_66\n      jump\t// in\n    tag_153:\n        /* \"#utility.yul\":6015:6158   */\n      swap3\n      swap2\n      pop\n      pop\n      jump\t// out\n        /* \"#utility.yul\":6164:6515   */\n    tag_57:\n        /* \"#utility.yul\":6234:6240   */\n      0x00\n        /* \"#utility.yul\":6283:6285   */\n      0x20\n        /* \"#utility.yul\":6271:6280   */\n      dup3\n        /* \"#utility.yul\":6262:6269   */\n      dup5\n        /* \"#utility.yul\":6258:6281   */\n      sub\n        /* \"#utility.yul\":6254:6286   */\n      slt\n        /* \"#utility.yul\":6251:6370   */\n      iszero\n      tag_155\n      jumpi\n        /* \"#utility.yul\":6289:6368   */\n      tag_156\n      tag_59\n      jump\t// in\n    tag_156:\n        /* \"#utility.yul\":6251:6370   */\n    tag_155:\n        /* \"#utility.yul\":6409:6410   */\n      0x00\n        /* \"#utility.yul\":6434:6498   */\n      tag_157\n        /* \"#utility.yul\":6490:6497   */\n      dup5\n        /* \"#utility.yul\":6481:6487   */\n      dup3\n        /* \"#utility.yul\":6470:6479   */\n      dup6\n        /* \"#utility.yul\":6466:6488   */\n      add\n        /* \"#utility.yul\":6434:6498   */\n      tag_75\n      jump\t// in\n    tag_157:\n        /* \"#utility.yul\":6424:6498   */\n      swap2\n      pop\n        /* \"#utility.yul\":6380:6508   */\n      pop\n        /* \"#utility.yul\":6164:6515   */\n      swap3\n      swap2\n      pop\n      pop\n      jump\t// out\n\n    auxdata: 0xa26469706673582212207452c5b1dbacd19f0075d26f9b78490eb1f6e072684bc52171f5b0a8866fe50f64736f6c63430008130033\n}\n\nsub_1: assembly {\n        /* \"contracts/ERC20.sol\":1261:5943  contract ERC20 {... */\n      mstore(0x40, 0x80)\n        /* \"contracts/ERC20.sol\":1349:1354  false */\n      0x00\n        /* \"contracts/ERC20.sol\":1319:1354  bool public mintingFinished = false */\n      dup1\n      exp(0x0100, 0x00)\n      dup2\n      sload\n      dup2\n      0xff\n      mul\n      not\n      and\n      swap1\n      dup4\n      iszero\n      iszero\n      mul\n      or\n      swap1\n      sstore\n      pop\n        /* \"contracts/ERC20.sol\":1388:1398  msg.sender */\n      caller\n        /* \"contracts/ERC20.sol\":1365:1398  address public owner = msg.sender */\n      0x00\n      exp(0x0100, 0x01)\n      dup2\n      sload\n      dup2\n      0xffffffffffffffffffffffffffffffffffffffff\n      mul\n      not\n      and\n      swap1\n      dup4\n      0xffffffffffffffffffffffffffffffffffffffff\n      and\n      mul\n      or\n      swap1\n      sstore\n      pop\n        /* \"contracts/ERC20.sol\":1261:5943  contract ERC20 {... */\n      callvalue\n      dup1\n      iszero\n      tag_1\n      jumpi\n      0x00\n      dup1\n      revert\n    tag_1:\n      pop\n      dataSize(sub_0)\n      dup1\n      dataOffset(sub_0)\n      0x00\n      codecopy\n      0x00\n      return\n    stop\n\n    sub_0: assembly {\n            /* \"contracts/ERC20.sol\":1261:5943  contract ERC20 {... */\n          mstore(0x40, 0x80)\n          callvalue\n          dup1\n          iszero\n          tag_1\n          jumpi\n          0x00\n          dup1\n          revert\n        tag_1:\n          pop\n          jumpi(tag_2, lt(calldatasize, 0x04))\n          shr(0xe0, calldataload(0x00))\n          dup1\n          0x70a08231\n          gt\n          tag_17\n          jumpi\n          dup1\n          0x8da5cb5b\n          gt\n          tag_18\n          jumpi\n          dup1\n          0x8da5cb5b\n          eq\n          tag_13\n          jumpi\n          dup1\n          0x95d89b41\n          eq\n          tag_14\n          jumpi\n          dup1\n          0xa9059cbb\n          eq\n          tag_15\n          jumpi\n          dup1\n          0xdd62ed3e\n          eq\n          tag_16\n          jumpi\n          jump(tag_2)\n        tag_18:\n          dup1\n          0x70a08231\n          eq\n          tag_10\n          jumpi\n          dup1\n          0x7d64bcb4\n          eq\n          tag_11\n          jumpi\n          dup1\n          0x893d20e8\n          eq\n          tag_12\n          jumpi\n          jump(tag_2)\n        tag_17:\n          dup1\n          0x18160ddd\n          gt\n          tag_19\n          jumpi\n          dup1\n          0x18160ddd\n          eq\n          tag_6\n          jumpi\n          dup1\n          0x23b872dd\n          eq\n          tag_7\n          jumpi\n          dup1\n          0x313ce567\n          eq\n          tag_8\n          jumpi\n          dup1\n          0x40c10f19\n          eq\n          tag_9\n          jumpi\n          jump(tag_2)\n        tag_19:\n          dup1\n          0x05d2035b\n          eq\n          tag_3\n          jumpi\n          dup1\n          0x06fdde03\n          eq\n          tag_4\n          jumpi\n          dup1\n          0x095ea7b3\n          eq\n          tag_5\n          jumpi\n        tag_2:\n          0x00\n          dup1\n          revert\n            /* \"contracts/ERC20.sol\":1319:1354  bool public mintingFinished = false */\n        tag_3:\n          tag_20\n          tag_21\n          jump\t// in\n        tag_20:\n          mload(0x40)\n          tag_22\n          swap2\n          swap1\n          tag_23\n          jump\t// in\n        tag_22:\n          mload(0x40)\n          dup1\n          swap2\n          sub\n          swap1\n          return\n            /* \"contracts/ERC20.sol\":1533:1576  string public constant name = \"TrustInsure\" */\n        tag_4:\n          tag_24\n          tag_25\n          jump\t// in\n        tag_24:\n          mload(0x40)\n          tag_26\n          swap2\n          swap1\n          tag_27\n          jump\t// in\n        tag_26:\n          mload(0x40)\n          dup1\n          swap2\n          sub\n          swap1\n          return\n            /* \"contracts/ERC20.sol\":5164:5352  function approve(address _spender, uint256 _value) public returns (bool) {... */\n        tag_5:\n          tag_28\n          0x04\n          dup1\n          calldatasize\n          sub\n          dup2\n          add\n          swap1\n          tag_29\n          swap2\n          swap1\n          tag_30\n          jump\t// in\n        tag_29:\n          tag_31\n          jump\t// in\n        tag_28:\n          mload(0x40)\n          tag_32\n          swap2\n          swap1\n          tag_23\n          jump\t// in\n        tag_32:\n          mload(0x40)\n          dup1\n          swap2\n          sub\n          swap1\n          return\n            /* \"contracts/ERC20.sol\":5858:5941  function totalSupply() public view returns (uint256) {... */\n        tag_6:\n          tag_33\n          tag_34\n          jump\t// in\n        tag_33:\n          mload(0x40)\n          tag_35\n          swap2\n          swap1\n          tag_36\n          jump\t// in\n        tag_35:\n          mload(0x40)\n          dup1\n          swap2\n          sub\n          swap1\n          return\n            /* \"contracts/ERC20.sol\":4026:4541  function transferFrom(address _from, address _to, uint256 _value) public returns (bool) {... */\n        tag_7:\n          tag_37\n          0x04\n          dup1\n          calldatasize\n          sub\n          dup2\n          add\n          swap1\n          tag_38\n          swap2\n          swap1\n          tag_39\n          jump\t// in\n        tag_38:\n          tag_40\n          jump\t// in\n        tag_37:\n          mload(0x40)\n          tag_41\n          swap2\n          swap1\n          tag_23\n          jump\t// in\n        tag_41:\n          mload(0x40)\n          dup1\n          swap2\n          sub\n          swap1\n          return\n            /* \"contracts/ERC20.sol\":1624:1659  uint8 public constant decimals = 18 */\n        tag_8:\n          tag_42\n          tag_43\n          jump\t// in\n        tag_42:\n          mload(0x40)\n          tag_44\n          swap2\n          swap1\n          tag_45\n          jump\t// in\n        tag_44:\n          mload(0x40)\n          dup1\n          swap2\n          sub\n          swap1\n          return\n            /* \"contracts/ERC20.sol\":2991:3265  function mint(address _to, uint256 _amount) onlyOwner canMint public returns (bool) {... */\n        tag_9:\n          tag_46\n          0x04\n          dup1\n          calldatasize\n          sub\n          dup2\n          add\n          swap1\n          tag_47\n          swap2\n          swap1\n          tag_30\n          jump\t// in\n        tag_47:\n          tag_48\n          jump\t// in\n        tag_46:\n          mload(0x40)\n          tag_49\n          swap2\n          swap1\n          tag_23\n          jump\t// in\n        tag_49:\n          mload(0x40)\n          dup1\n          swap2\n          sub\n          swap1\n          return\n            /* \"contracts/ERC20.sol\":2134:2233  function balanceOf(address _owner) public view returns (uint256) {... */\n        tag_10:\n          tag_50\n          0x04\n          dup1\n          calldatasize\n          sub\n          dup2\n          add\n          swap1\n          tag_51\n          swap2\n          swap1\n          tag_52\n          jump\t// in\n        tag_51:\n          tag_53\n          jump\t// in\n        tag_50:\n          mload(0x40)\n          tag_54\n          swap2\n          swap1\n          tag_36\n          jump\t// in\n        tag_54:\n          mload(0x40)\n          dup1\n          swap2\n          sub\n          swap1\n          return\n            /* \"contracts/ERC20.sol\":3610:3750  function finishMinting() onlyOwner canMint public returns (bool) {... */\n        tag_11:\n          tag_55\n          tag_56\n          jump\t// in\n        tag_55:\n          mload(0x40)\n          tag_57\n          swap2\n          swap1\n          tag_23\n          jump\t// in\n        tag_57:\n          mload(0x40)\n          dup1\n          swap2\n          sub\n          swap1\n          return\n            /* \"contracts/ERC20.sol\":3272:3346  function getOwner() public view returns (address){... */\n        tag_12:\n          tag_58\n          tag_59\n          jump\t// in\n        tag_58:\n          mload(0x40)\n          tag_60\n          swap2\n          swap1\n          tag_61\n          jump\t// in\n        tag_60:\n          mload(0x40)\n          dup1\n          swap2\n          sub\n          swap1\n          return\n            /* \"contracts/ERC20.sol\":1365:1398  address public owner = msg.sender */\n        tag_13:\n          tag_62\n          tag_63\n          jump\t// in\n        tag_62:\n          mload(0x40)\n          tag_64\n          swap2\n          swap1\n          tag_61\n          jump\t// in\n        tag_64:\n          mload(0x40)\n          dup1\n          swap2\n          sub\n          swap1\n          return\n            /* \"contracts/ERC20.sol\":1582:1618  string public constant symbol = \"TI\" */\n        tag_14:\n          tag_65\n          tag_66\n          jump\t// in\n        tag_65:\n          mload(0x40)\n          tag_67\n          swap2\n          swap1\n          tag_27\n          jump\t// in\n        tag_67:\n          mload(0x40)\n          dup1\n          swap2\n          sub\n          swap1\n          return\n            /* \"contracts/ERC20.sol\":2388:2747  function transfer(address _to, uint256 _value) public returns (bool) {... */\n        tag_15:\n          tag_68\n          0x04\n          dup1\n          calldatasize\n          sub\n          dup2\n          add\n          swap1\n          tag_69\n          swap2\n          swap1\n          tag_30\n          jump\t// in\n        tag_69:\n          tag_70\n          jump\t// in\n        tag_68:\n          mload(0x40)\n          tag_71\n          swap2\n          swap1\n          tag_23\n          jump\t// in\n        tag_71:\n          mload(0x40)\n          dup1\n          swap2\n          sub\n          swap1\n          return\n            /* \"contracts/ERC20.sol\":5671:5797  function allowance(address _owner, address _spender) public view returns (uint256) {... */\n        tag_16:\n          tag_72\n          0x04\n          dup1\n          calldatasize\n          sub\n          dup2\n          add\n          swap1\n          tag_73\n          swap2\n          swap1\n          tag_74\n          jump\t// in\n        tag_73:\n          tag_75\n          jump\t// in\n        tag_72:\n          mload(0x40)\n          tag_76\n          swap2\n          swap1\n          tag_36\n          jump\t// in\n        tag_76:\n          mload(0x40)\n          dup1\n          swap2\n          sub\n          swap1\n          return\n            /* \"contracts/ERC20.sol\":1319:1354  bool public mintingFinished = false */\n        tag_21:\n          0x00\n          dup1\n          sload\n          swap1\n          0x0100\n          exp\n          swap1\n          div\n          0xff\n          and\n          dup2\n          jump\t// out\n            /* \"contracts/ERC20.sol\":1533:1576  string public constant name = \"TrustInsure\" */\n        tag_25:\n          mload(0x40)\n          dup1\n          0x40\n          add\n          0x40\n          mstore\n          dup1\n          0x0b\n          dup2\n          mstore\n          0x20\n          add\n          0x5472757374496e73757265000000000000000000000000000000000000000000\n          dup2\n          mstore\n          pop\n          dup2\n          jump\t// out\n            /* \"contracts/ERC20.sol\":5164:5352  function approve(address _spender, uint256 _value) public returns (bool) {... */\n        tag_31:\n            /* \"contracts/ERC20.sol\":5231:5235  bool */\n          0x00\n            /* \"contracts/ERC20.sol\":5275:5281  _value */\n          dup2\n            /* \"contracts/ERC20.sol\":5243:5250  allowed */\n          0x01\n            /* \"contracts/ERC20.sol\":5243:5262  allowed[msg.sender] */\n          0x00\n            /* \"contracts/ERC20.sol\":5251:5261  msg.sender */\n          caller\n            /* \"contracts/ERC20.sol\":5243:5262  allowed[msg.sender] */\n          0xffffffffffffffffffffffffffffffffffffffff\n          and\n          0xffffffffffffffffffffffffffffffffffffffff\n          and\n          dup2\n          mstore\n          0x20\n          add\n          swap1\n          dup2\n          mstore\n          0x20\n          add\n          0x00\n          keccak256\n            /* \"contracts/ERC20.sol\":5243:5272  allowed[msg.sender][_spender] */\n          0x00\n            /* \"contracts/ERC20.sol\":5263:5271  _spender */\n          dup6\n            /* \"contracts/ERC20.sol\":5243:5272  allowed[msg.sender][_spender] */\n          0xffffffffffffffffffffffffffffffffffffffff\n          and\n          0xffffffffffffffffffffffffffffffffffffffff\n          and\n          dup2\n          mstore\n          0x20\n          add\n          swap1\n          dup2\n          mstore\n          0x20\n          add\n          0x00\n          keccak256\n            /* \"contracts/ERC20.sol\":5243:5281  allowed[msg.sender][_spender] = _value */\n          dup2\n          swap1\n          sstore\n          pop\n            /* \"contracts/ERC20.sol\":5313:5321  _spender */\n          dup3\n            /* \"contracts/ERC20.sol\":5292:5330  Approval(msg.sender, _spender, _value) */\n          0xffffffffffffffffffffffffffffffffffffffff\n          and\n            /* \"contracts/ERC20.sol\":5301:5311  msg.sender */\n          caller\n            /* \"contracts/ERC20.sol\":5292:5330  Approval(msg.sender, _spender, _value) */\n          0xffffffffffffffffffffffffffffffffffffffff\n          and\n          0x8c5be1e5ebec7d5bd14f71427d1e84f3dd0314c0f7b2291e5b200ac8c7c3b925\n            /* \"contracts/ERC20.sol\":5323:5329  _value */\n          dup5\n            /* \"contracts/ERC20.sol\":5292:5330  Approval(msg.sender, _spender, _value) */\n          mload(0x40)\n          tag_78\n          swap2\n          swap1\n          tag_36\n          jump\t// in\n        tag_78:\n          mload(0x40)\n          dup1\n          swap2\n          sub\n          swap1\n          log3\n            /* \"contracts/ERC20.sol\":5343:5347  true */\n          0x01\n            /* \"contracts/ERC20.sol\":5336:5347  return true */\n          swap1\n          pop\n            /* \"contracts/ERC20.sol\":5164:5352  function approve(address _spender, uint256 _value) public returns (bool) {... */\n          swap3\n          swap2\n          pop\n          pop\n          jump\t// out\n            /* \"contracts/ERC20.sol\":5858:5941  function totalSupply() public view returns (uint256) {... */\n        tag_34:\n            /* \"contracts/ERC20.sol\":5902:5909  uint256 */\n          0x00\n            /* \"contracts/ERC20.sol\":5924:5936  totalSupply_ */\n          sload(0x03)\n            /* \"contracts/ERC20.sol\":5917:5936  return totalSupply_ */\n          swap1\n          pop\n            /* \"contracts/ERC20.sol\":5858:5941  function totalSupply() public view returns (uint256) {... */\n          swap1\n          jump\t// out\n            /* \"contracts/ERC20.sol\":4026:4541  function transferFrom(address _from, address _to, uint256 _value) public returns (bool) {... */\n        tag_40:\n            /* \"contracts/ERC20.sol\":4108:4112  bool */\n          0x00\n            /* \"contracts/ERC20.sol\":4143:4144  0 */\n          dup1\n            /* \"contracts/ERC20.sol\":4128:4145  _to != address(0) */\n          0xffffffffffffffffffffffffffffffffffffffff\n          and\n            /* \"contracts/ERC20.sol\":4128:4131  _to */\n          dup4\n            /* \"contracts/ERC20.sol\":4128:4145  _to != address(0) */\n          0xffffffffffffffffffffffffffffffffffffffff\n          and\n          sub\n            /* \"contracts/ERC20.sol\":4120:4146  require(_to != address(0)) */\n          tag_81\n          jumpi\n          0x00\n          dup1\n          revert\n        tag_81:\n            /* \"contracts/ERC20.sol\":4170:4178  balances */\n          0x02\n            /* \"contracts/ERC20.sol\":4170:4185  balances[_from] */\n          0x00\n            /* \"contracts/ERC20.sol\":4179:4184  _from */\n          dup6\n            /* \"contracts/ERC20.sol\":4170:4185  balances[_from] */\n          0xffffffffffffffffffffffffffffffffffffffff\n          and\n          0xffffffffffffffffffffffffffffffffffffffff\n          and\n          dup2\n          mstore\n          0x20\n          add\n          swap1\n          dup2\n          mstore\n          0x20\n          add\n          0x00\n          keccak256\n          sload\n            /* \"contracts/ERC20.sol\":4160:4166  _value */\n          dup3\n            /* \"contracts/ERC20.sol\":4160:4185  _value <= balances[_from] */\n          gt\n          iszero\n            /* \"contracts/ERC20.sol\":4152:4222  require(_value <= balances[_from], \"From doesn't have enough balance\") */\n          tag_82\n          jumpi\n          mload(0x40)\n          0x08c379a000000000000000000000000000000000000000000000000000000000\n          dup2\n          mstore\n          0x04\n          add\n          tag_83\n          swap1\n          tag_84\n          jump\t// in\n        tag_83:\n          mload(0x40)\n          dup1\n          swap2\n          sub\n          swap1\n          revert\n        tag_82:\n            /* \"contracts/ERC20.sol\":4333:4360  balances[_from].sub(_value) */\n          tag_85\n            /* \"contracts/ERC20.sol\":4353:4359  _value */\n          dup3\n            /* \"contracts/ERC20.sol\":4333:4341  balances */\n          0x02\n            /* \"contracts/ERC20.sol\":4333:4348  balances[_from] */\n          0x00\n            /* \"contracts/ERC20.sol\":4342:4347  _from */\n          dup8\n            /* \"contracts/ERC20.sol\":4333:4348  balances[_from] */\n          0xffffffffffffffffffffffffffffffffffffffff\n          and\n          0xffffffffffffffffffffffffffffffffffffffff\n          and\n          dup2\n          mstore\n          0x20\n          add\n          swap1\n          dup2\n          mstore\n          0x20\n          add\n          0x00\n          keccak256\n          sload\n            /* \"contracts/ERC20.sol\":4333:4352  balances[_from].sub */\n          tag_86\n          swap1\n            /* \"contracts/ERC20.sol\":4333:4360  balances[_from].sub(_value) */\n          swap2\n          swap1\n          0xffffffff\n          and\n          jump\t// in\n        tag_85:\n            /* \"contracts/ERC20.sol\":4315:4323  balances */\n          0x02\n            /* \"contracts/ERC20.sol\":4315:4330  balances[_from] */\n          0x00\n            /* \"contracts/ERC20.sol\":4324:4329  _from */\n          dup7\n            /* \"contracts/ERC20.sol\":4315:4330  balances[_from] */\n          0xffffffffffffffffffffffffffffffffffffffff\n          and\n          0xffffffffffffffffffffffffffffffffffffffff\n          and\n          dup2\n          mstore\n          0x20\n          add\n          swap1\n          dup2\n          mstore\n          0x20\n          add\n          0x00\n          keccak256\n            /* \"contracts/ERC20.sol\":4315:4360  balances[_from] = balances[_from].sub(_value) */\n          dup2\n          swap1\n          sstore\n          pop\n            /* \"contracts/ERC20.sol\":4382:4407  balances[_to].add(_value) */\n          tag_87\n            /* \"contracts/ERC20.sol\":4400:4406  _value */\n          dup3\n            /* \"contracts/ERC20.sol\":4382:4390  balances */\n          0x02\n            /* \"contracts/ERC20.sol\":4382:4395  balances[_to] */\n          0x00\n            /* \"contracts/ERC20.sol\":4391:4394  _to */\n          dup7\n            /* \"contracts/ERC20.sol\":4382:4395  balances[_to] */\n          0xffffffffffffffffffffffffffffffffffffffff\n          and\n          0xffffffffffffffffffffffffffffffffffffffff\n          and\n          dup2\n          mstore\n          0x20\n          add\n          swap1\n          dup2\n          mstore\n          0x20\n          add\n          0x00\n          keccak256\n          sload\n            /* \"contracts/ERC20.sol\":4382:4399  balances[_to].add */\n          tag_88\n          swap1\n            /* \"contracts/ERC20.sol\":4382:4407  balances[_to].add(_value) */\n          swap2\n          swap1\n          0xffffffff\n          and\n          jump\t// in\n        tag_87:\n            /* \"contracts/ERC20.sol\":4366:4374  balances */\n          0x02\n            /* \"contracts/ERC20.sol\":4366:4379  balances[_to] */\n          0x00\n            /* \"contracts/ERC20.sol\":4375:4378  _to */\n          dup6\n            /* \"contracts/ERC20.sol\":4366:4379  balances[_to] */\n          0xffffffffffffffffffffffffffffffffffffffff\n          and\n          0xffffffffffffffffffffffffffffffffffffffff\n          and\n          dup2\n          mstore\n          0x20\n          add\n          swap1\n          dup2\n          mstore\n          0x20\n          add\n          0x00\n          keccak256\n            /* \"contracts/ERC20.sol\":4366:4407  balances[_to] = balances[_to].add(_value) */\n          dup2\n          swap1\n          sstore\n          pop\n            /* \"contracts/ERC20.sol\":4507:4510  _to */\n          dup3\n            /* \"contracts/ERC20.sol\":4491:4519  Transfer(_from, _to, _value) */\n          0xffffffffffffffffffffffffffffffffffffffff\n          and\n            /* \"contracts/ERC20.sol\":4500:4505  _from */\n          dup5\n            /* \"contracts/ERC20.sol\":4491:4519  Transfer(_from, _to, _value) */\n          0xffffffffffffffffffffffffffffffffffffffff\n          and\n          0xddf252ad1be2c89b69c2b068fc378daa952ba7f163c4a11628f55a4df523b3ef\n            /* \"contracts/ERC20.sol\":4512:4518  _value */\n          dup5\n            /* \"contracts/ERC20.sol\":4491:4519  Transfer(_from, _to, _value) */\n          mload(0x40)\n          tag_89\n          swap2\n          swap1\n          tag_36\n          jump\t// in\n        tag_89:\n          mload(0x40)\n          dup1\n          swap2\n          sub\n          swap1\n          log3\n            /* \"contracts/ERC20.sol\":4532:4536  true */\n          0x01\n            /* \"contracts/ERC20.sol\":4525:4536  return true */\n          swap1\n          pop\n            /* \"contracts/ERC20.sol\":4026:4541  function transferFrom(address _from, address _to, uint256 _value) public returns (bool) {... */\n          swap4\n          swap3\n          pop\n          pop\n          pop\n          jump\t// out\n            /* \"contracts/ERC20.sol\":1624:1659  uint8 public constant decimals = 18 */\n        tag_43:\n            /* \"contracts/ERC20.sol\":1657:1659  18 */\n          0x12\n            /* \"contracts/ERC20.sol\":1624:1659  uint8 public constant decimals = 18 */\n          dup2\n          jump\t// out\n            /* \"contracts/ERC20.sol\":2991:3265  function mint(address _to, uint256 _amount) onlyOwner canMint public returns (bool) {... */\n        tag_48:\n            /* \"contracts/ERC20.sol\":3069:3073  bool */\n          0x00\n            /* \"contracts/ERC20.sol\":3405:3410  owner */\n          dup1\n          0x01\n          swap1\n          sload\n          swap1\n          0x0100\n          exp\n          swap1\n          div\n          0xffffffffffffffffffffffffffffffffffffffff\n          and\n            /* \"contracts/ERC20.sol\":3391:3410  msg.sender == owner */\n          0xffffffffffffffffffffffffffffffffffffffff\n          and\n            /* \"contracts/ERC20.sol\":3391:3401  msg.sender */\n          caller\n            /* \"contracts/ERC20.sol\":3391:3410  msg.sender == owner */\n          0xffffffffffffffffffffffffffffffffffffffff\n          and\n          eq\n            /* \"contracts/ERC20.sol\":3383:3411  require(msg.sender == owner) */\n          tag_91\n          jumpi\n          0x00\n          dup1\n          revert\n        tag_91:\n            /* \"contracts/ERC20.sol\":3466:3481  mintingFinished */\n          0x00\n          dup1\n          sload\n          swap1\n          0x0100\n          exp\n          swap1\n          div\n          0xff\n          and\n            /* \"contracts/ERC20.sol\":3465:3481  !mintingFinished */\n          iszero\n            /* \"contracts/ERC20.sol\":3457:3482  require(!mintingFinished) */\n          tag_93\n          jumpi\n          0x00\n          dup1\n          revert\n        tag_93:\n            /* \"contracts/ERC20.sol\":3096:3121  totalSupply_.add(_amount) */\n          tag_95\n            /* \"contracts/ERC20.sol\":3113:3120  _amount */\n          dup3\n            /* \"contracts/ERC20.sol\":3096:3108  totalSupply_ */\n          sload(0x03)\n            /* \"contracts/ERC20.sol\":3096:3112  totalSupply_.add */\n          tag_88\n          swap1\n            /* \"contracts/ERC20.sol\":3096:3121  totalSupply_.add(_amount) */\n          swap2\n          swap1\n          0xffffffff\n          and\n          jump\t// in\n        tag_95:\n            /* \"contracts/ERC20.sol\":3081:3093  totalSupply_ */\n          0x03\n            /* \"contracts/ERC20.sol\":3081:3121  totalSupply_ = totalSupply_.add(_amount) */\n          dup2\n          swap1\n          sstore\n          pop\n            /* \"contracts/ERC20.sol\":3143:3169  balances[_to].add(_amount) */\n          tag_96\n            /* \"contracts/ERC20.sol\":3161:3168  _amount */\n          dup3\n            /* \"contracts/ERC20.sol\":3143:3151  balances */\n          0x02\n            /* \"contracts/ERC20.sol\":3143:3156  balances[_to] */\n          0x00\n            /* \"contracts/ERC20.sol\":3152:3155  _to */\n          dup7\n            /* \"contracts/ERC20.sol\":3143:3156  balances[_to] */\n          0xffffffffffffffffffffffffffffffffffffffff\n          and\n          0xffffffffffffffffffffffffffffffffffffffff\n          and\n          dup2\n          mstore\n          0x20\n          add\n          swap1\n          dup2\n          mstore\n          0x20\n          add\n          0x00\n          keccak256\n          sload\n            /* \"contracts/ERC20.sol\":3143:3160  balances[_to].add */\n          tag_88\n          swap1\n            /* \"contracts/ERC20.sol\":3143:3169  balances[_to].add(_amount) */\n          swap2\n          swap1\n          0xffffffff\n          and\n          jump\t// in\n        tag_96:\n            /* \"contracts/ERC20.sol\":3127:3135  balances */\n          0x02\n            /* \"contracts/ERC20.sol\":3127:3140  balances[_to] */\n          0x00\n            /* \"contracts/ERC20.sol\":3136:3139  _to */\n          dup6\n            /* \"contracts/ERC20.sol\":3127:3140  balances[_to] */\n          0xffffffffffffffffffffffffffffffffffffffff\n          and\n          0xffffffffffffffffffffffffffffffffffffffff\n          and\n          dup2\n          mstore\n          0x20\n          add\n          swap1\n          dup2\n          mstore\n          0x20\n          add\n          0x00\n          keccak256\n            /* \"contracts/ERC20.sol\":3127:3169  balances[_to] = balances[_to].add(_amount) */\n          dup2\n          swap1\n          sstore\n          pop\n            /* \"contracts/ERC20.sol\":3185:3188  _to */\n          dup3\n            /* \"contracts/ERC20.sol\":3180:3198  Mint(_to, _amount) */\n          0xffffffffffffffffffffffffffffffffffffffff\n          and\n          0x0f6798a560793a54c3bcfe86a93cde1e73087d944c0ea20544137d4121396885\n            /* \"contracts/ERC20.sol\":3190:3197  _amount */\n          dup4\n            /* \"contracts/ERC20.sol\":3180:3198  Mint(_to, _amount) */\n          mload(0x40)\n          tag_97\n          swap2\n          swap1\n          tag_36\n          jump\t// in\n        tag_97:\n          mload(0x40)\n          dup1\n          swap2\n          sub\n          swap1\n          log2\n            /* \"contracts/ERC20.sol\":3230:3233  _to */\n          dup3\n            /* \"contracts/ERC20.sol\":3209:3243  Transfer(address(0), _to, _amount) */\n          0xffffffffffffffffffffffffffffffffffffffff\n          and\n            /* \"contracts/ERC20.sol\":3226:3227  0 */\n          0x00\n            /* \"contracts/ERC20.sol\":3209:3243  Transfer(address(0), _to, _amount) */\n          0xffffffffffffffffffffffffffffffffffffffff\n          and\n          0xddf252ad1be2c89b69c2b068fc378daa952ba7f163c4a11628f55a4df523b3ef\n            /* \"contracts/ERC20.sol\":3235:3242  _amount */\n          dup5\n            /* \"contracts/ERC20.sol\":3209:3243  Transfer(address(0), _to, _amount) */\n          mload(0x40)\n          tag_98\n          swap2\n          swap1\n          tag_36\n          jump\t// in\n        tag_98:\n          mload(0x40)\n          dup1\n          swap2\n          sub\n          swap1\n          log3\n            /* \"contracts/ERC20.sol\":3256:3260  true */\n          0x01\n            /* \"contracts/ERC20.sol\":3249:3260  return true */\n          swap1\n          pop\n            /* \"contracts/ERC20.sol\":2991:3265  function mint(address _to, uint256 _amount) onlyOwner canMint public returns (bool) {... */\n          swap3\n          swap2\n          pop\n          pop\n          jump\t// out\n            /* \"contracts/ERC20.sol\":2134:2233  function balanceOf(address _owner) public view returns (uint256) {... */\n        tag_53:\n            /* \"contracts/ERC20.sol\":2190:2197  uint256 */\n          0x00\n            /* \"contracts/ERC20.sol\":2212:2220  balances */\n          0x02\n            /* \"contracts/ERC20.sol\":2212:2228  balances[_owner] */\n          0x00\n            /* \"contracts/ERC20.sol\":2221:2227  _owner */\n          dup4\n            /* \"contracts/ERC20.sol\":2212:2228  balances[_owner] */\n          0xffffffffffffffffffffffffffffffffffffffff\n          and\n          0xffffffffffffffffffffffffffffffffffffffff\n          and\n          dup2\n          mstore\n          0x20\n          add\n          swap1\n          dup2\n          mstore\n          0x20\n          add\n          0x00\n          keccak256\n          sload\n            /* \"contracts/ERC20.sol\":2205:2228  return balances[_owner] */\n          swap1\n          pop\n            /* \"contracts/ERC20.sol\":2134:2233  function balanceOf(address _owner) public view returns (uint256) {... */\n          swap2\n          swap1\n          pop\n          jump\t// out\n            /* \"contracts/ERC20.sol\":3610:3750  function finishMinting() onlyOwner canMint public returns (bool) {... */\n        tag_56:\n            /* \"contracts/ERC20.sol\":3669:3673  bool */\n          0x00\n            /* \"contracts/ERC20.sol\":3405:3410  owner */\n          dup1\n          0x01\n          swap1\n          sload\n          swap1\n          0x0100\n          exp\n          swap1\n          div\n          0xffffffffffffffffffffffffffffffffffffffff\n          and\n            /* \"contracts/ERC20.sol\":3391:3410  msg.sender == owner */\n          0xffffffffffffffffffffffffffffffffffffffff\n          and\n            /* \"contracts/ERC20.sol\":3391:3401  msg.sender */\n          caller\n            /* \"contracts/ERC20.sol\":3391:3410  msg.sender == owner */\n          0xffffffffffffffffffffffffffffffffffffffff\n          and\n          eq\n            /* \"contracts/ERC20.sol\":3383:3411  require(msg.sender == owner) */\n          tag_101\n          jumpi\n          0x00\n          dup1\n          revert\n        tag_101:\n            /* \"contracts/ERC20.sol\":3466:3481  mintingFinished */\n          0x00\n          dup1\n          sload\n          swap1\n          0x0100\n          exp\n          swap1\n          div\n          0xff\n          and\n            /* \"contracts/ERC20.sol\":3465:3481  !mintingFinished */\n          iszero\n            /* \"contracts/ERC20.sol\":3457:3482  require(!mintingFinished) */\n          tag_103\n          jumpi\n          0x00\n          dup1\n          revert\n        tag_103:\n            /* \"contracts/ERC20.sol\":3699:3703  true */\n          0x01\n            /* \"contracts/ERC20.sol\":3681:3696  mintingFinished */\n          0x00\n          dup1\n            /* \"contracts/ERC20.sol\":3681:3703  mintingFinished = true */\n          0x0100\n          exp\n          dup2\n          sload\n          dup2\n          0xff\n          mul\n          not\n          and\n          swap1\n          dup4\n          iszero\n          iszero\n          mul\n          or\n          swap1\n          sstore\n          pop\n            /* \"contracts/ERC20.sol\":3714:3728  MintFinished() */\n          0xae5184fba832cb2b1f702aca6117b8d265eaf03ad33eb133f19dde0f5920fa08\n          mload(0x40)\n          mload(0x40)\n          dup1\n          swap2\n          sub\n          swap1\n          log1\n            /* \"contracts/ERC20.sol\":3741:3745  true */\n          0x01\n            /* \"contracts/ERC20.sol\":3734:3745  return true */\n          swap1\n          pop\n            /* \"contracts/ERC20.sol\":3610:3750  function finishMinting() onlyOwner canMint public returns (bool) {... */\n          swap1\n          jump\t// out\n            /* \"contracts/ERC20.sol\":3272:3346  function getOwner() public view returns (address){... */\n        tag_59:\n            /* \"contracts/ERC20.sol\":3313:3320  address */\n          0x00\n            /* \"contracts/ERC20.sol\":3336:3341  owner */\n          dup1\n          0x01\n          swap1\n          sload\n          swap1\n          0x0100\n          exp\n          swap1\n          div\n          0xffffffffffffffffffffffffffffffffffffffff\n          and\n            /* \"contracts/ERC20.sol\":3329:3341  return owner */\n          swap1\n          pop\n            /* \"contracts/ERC20.sol\":3272:3346  function getOwner() public view returns (address){... */\n          swap1\n          jump\t// out\n            /* \"contracts/ERC20.sol\":1365:1398  address public owner = msg.sender */\n        tag_63:\n          0x00\n          0x01\n          swap1\n          sload\n          swap1\n          0x0100\n          exp\n          swap1\n          div\n          0xffffffffffffffffffffffffffffffffffffffff\n          and\n          dup2\n          jump\t// out\n            /* \"contracts/ERC20.sol\":1582:1618  string public constant symbol = \"TI\" */\n        tag_66:\n          mload(0x40)\n          dup1\n          0x40\n          add\n          0x40\n          mstore\n          dup1\n          0x02\n          dup2\n          mstore\n          0x20\n          add\n          0x5449000000000000000000000000000000000000000000000000000000000000\n          dup2\n          mstore\n          pop\n          dup2\n          jump\t// out\n            /* \"contracts/ERC20.sol\":2388:2747  function transfer(address _to, uint256 _value) public returns (bool) {... */\n        tag_70:\n            /* \"contracts/ERC20.sol\":2451:2455  bool */\n          0x00\n            /* \"contracts/ERC20.sol\":2486:2487  0 */\n          dup1\n            /* \"contracts/ERC20.sol\":2471:2488  _to != address(0) */\n          0xffffffffffffffffffffffffffffffffffffffff\n          and\n            /* \"contracts/ERC20.sol\":2471:2474  _to */\n          dup4\n            /* \"contracts/ERC20.sol\":2471:2488  _to != address(0) */\n          0xffffffffffffffffffffffffffffffffffffffff\n          and\n          sub\n            /* \"contracts/ERC20.sol\":2463:2489  require(_to != address(0)) */\n          tag_107\n          jumpi\n          0x00\n          dup1\n          revert\n        tag_107:\n            /* \"contracts/ERC20.sol\":2513:2521  balances */\n          0x02\n            /* \"contracts/ERC20.sol\":2513:2532  balances[tx.origin] */\n          0x00\n            /* \"contracts/ERC20.sol\":2522:2531  tx.origin */\n          origin\n            /* \"contracts/ERC20.sol\":2513:2532  balances[tx.origin] */\n          0xffffffffffffffffffffffffffffffffffffffff\n          and\n          0xffffffffffffffffffffffffffffffffffffffff\n          and\n          dup2\n          mstore\n          0x20\n          add\n          swap1\n          dup2\n          mstore\n          0x20\n          add\n          0x00\n          keccak256\n          sload\n            /* \"contracts/ERC20.sol\":2503:2509  _value */\n          dup3\n            /* \"contracts/ERC20.sol\":2503:2532  _value <= balances[tx.origin] */\n          gt\n          iszero\n            /* \"contracts/ERC20.sol\":2495:2575  require(_value <= balances[tx.origin], \"msg.sender doesn't have enough balance\") */\n          tag_108\n          jumpi\n          mload(0x40)\n          0x08c379a000000000000000000000000000000000000000000000000000000000\n          dup2\n          mstore\n          0x04\n          add\n          tag_109\n          swap1\n          tag_110\n          jump\t// in\n        tag_109:\n          mload(0x40)\n          dup1\n          swap2\n          sub\n          swap1\n          revert\n        tag_108:\n            /* \"contracts/ERC20.sol\":2604:2635  balances[tx.origin].sub(_value) */\n          tag_111\n            /* \"contracts/ERC20.sol\":2628:2634  _value */\n          dup3\n            /* \"contracts/ERC20.sol\":2604:2612  balances */\n          0x02\n            /* \"contracts/ERC20.sol\":2604:2623  balances[tx.origin] */\n          0x00\n            /* \"contracts/ERC20.sol\":2613:2622  tx.origin */\n          origin\n            /* \"contracts/ERC20.sol\":2604:2623  balances[tx.origin] */\n          0xffffffffffffffffffffffffffffffffffffffff\n          and\n          0xffffffffffffffffffffffffffffffffffffffff\n          and\n          dup2\n          mstore\n          0x20\n          add\n          swap1\n          dup2\n          mstore\n          0x20\n          add\n          0x00\n          keccak256\n          sload\n            /* \"contracts/ERC20.sol\":2604:2627  balances[tx.origin].sub */\n          tag_86\n          swap1\n            /* \"contracts/ERC20.sol\":2604:2635  balances[tx.origin].sub(_value) */\n          swap2\n          swap1\n          0xffffffff\n          and\n          jump\t// in\n        tag_111:\n            /* \"contracts/ERC20.sol\":2582:2590  balances */\n          0x02\n            /* \"contracts/ERC20.sol\":2582:2601  balances[tx.origin] */\n          0x00\n            /* \"contracts/ERC20.sol\":2591:2600  tx.origin */\n          origin\n            /* \"contracts/ERC20.sol\":2582:2601  balances[tx.origin] */\n          0xffffffffffffffffffffffffffffffffffffffff\n          and\n          0xffffffffffffffffffffffffffffffffffffffff\n          and\n          dup2\n          mstore\n          0x20\n          add\n          swap1\n          dup2\n          mstore\n          0x20\n          add\n          0x00\n          keccak256\n            /* \"contracts/ERC20.sol\":2582:2635  balances[tx.origin] = balances[tx.origin].sub(_value) */\n          dup2\n          swap1\n          sstore\n          pop\n            /* \"contracts/ERC20.sol\":2657:2682  balances[_to].add(_value) */\n          tag_112\n            /* \"contracts/ERC20.sol\":2675:2681  _value */\n          dup3\n            /* \"contracts/ERC20.sol\":2657:2665  balances */\n          0x02\n            /* \"contracts/ERC20.sol\":2657:2670  balances[_to] */\n          0x00\n            /* \"contracts/ERC20.sol\":2666:2669  _to */\n          dup7\n            /* \"contracts/ERC20.sol\":2657:2670  balances[_to] */\n          0xffffffffffffffffffffffffffffffffffffffff\n          and\n          0xffffffffffffffffffffffffffffffffffffffff\n          and\n          dup2\n          mstore\n          0x20\n          add\n          swap1\n          dup2\n          mstore\n          0x20\n          add\n          0x00\n          keccak256\n          sload\n            /* \"contracts/ERC20.sol\":2657:2674  balances[_to].add */\n          tag_88\n          swap1\n            /* \"contracts/ERC20.sol\":2657:2682  balances[_to].add(_value) */\n          swap2\n          swap1\n          0xffffffff\n          and\n          jump\t// in\n        tag_112:\n            /* \"contracts/ERC20.sol\":2641:2649  balances */\n          0x02\n            /* \"contracts/ERC20.sol\":2641:2654  balances[_to] */\n          0x00\n            /* \"contracts/ERC20.sol\":2650:2653  _to */\n          dup6\n            /* \"contracts/ERC20.sol\":2641:2654  balances[_to] */\n          0xffffffffffffffffffffffffffffffffffffffff\n          and\n          0xffffffffffffffffffffffffffffffffffffffff\n          and\n          dup2\n          mstore\n          0x20\n          add\n          swap1\n          dup2\n          mstore\n          0x20\n          add\n          0x00\n          keccak256\n            /* \"contracts/ERC20.sol\":2641:2682  balances[_to] = balances[_to].add(_value) */\n          dup2\n          swap1\n          sstore\n          pop\n            /* \"contracts/ERC20.sol\":2713:2716  _to */\n          dup3\n            /* \"contracts/ERC20.sol\":2693:2725  Transfer(tx.origin, _to, _value) */\n          0xffffffffffffffffffffffffffffffffffffffff\n          and\n            /* \"contracts/ERC20.sol\":2702:2711  tx.origin */\n          origin\n            /* \"contracts/ERC20.sol\":2693:2725  Transfer(tx.origin, _to, _value) */\n          0xffffffffffffffffffffffffffffffffffffffff\n          and\n          0xddf252ad1be2c89b69c2b068fc378daa952ba7f163c4a11628f55a4df523b3ef\n            /* \"contracts/ERC20.sol\":2718:2724  _value */\n          dup5\n            /* \"contracts/ERC20.sol\":2693:2725  Transfer(tx.origin, _to, _value) */\n          mload(0x40)\n          tag_113\n          swap2\n          swap1\n          tag_36\n          jump\t// in\n        tag_113:\n          mload(0x40)\n          dup1\n          swap2\n          sub\n          swap1\n          log3\n            /* \"contracts/ERC20.sol\":2738:2742  true */\n          0x01\n            /* \"contracts/ERC20.sol\":2731:2742  return true */\n          swap1\n          pop\n            /* \"contracts/ERC20.sol\":2388:2747  function transfer(address _to, uint256 _value) public returns (bool) {... */\n          swap3\n          swap2\n          pop\n          pop\n          jump\t// out\n            /* \"contracts/ERC20.sol\":5671:5797  function allowance(address _owner, address _spender) public view returns (uint256) {... */\n        tag_75:\n            /* \"contracts/ERC20.sol\":5745:5752  uint256 */\n          0x00\n            /* \"contracts/ERC20.sol\":5767:5774  allowed */\n          0x01\n            /* \"contracts/ERC20.sol\":5767:5782  allowed[_owner] */\n          0x00\n            /* \"contracts/ERC20.sol\":5775:5781  _owner */\n          dup5\n            /* \"contracts/ERC20.sol\":5767:5782  allowed[_owner] */\n          0xffffffffffffffffffffffffffffffffffffffff\n          and\n          0xffffffffffffffffffffffffffffffffffffffff\n          and\n          dup2\n          mstore\n          0x20\n          add\n          swap1\n          dup2\n          mstore\n          0x20\n          add\n          0x00\n          keccak256\n            /* \"contracts/ERC20.sol\":5767:5792  allowed[_owner][_spender] */\n          0x00\n            /* \"contracts/ERC20.sol\":5783:5791  _spender */\n          dup4\n            /* \"contracts/ERC20.sol\":5767:5792  allowed[_owner][_spender] */\n          0xffffffffffffffffffffffffffffffffffffffff\n          and\n          0xffffffffffffffffffffffffffffffffffffffff\n          and\n          dup2\n          mstore\n          0x20\n          add\n          swap1\n          dup2\n          mstore\n          0x20\n          add\n          0x00\n          keccak256\n          sload\n            /* \"contracts/ERC20.sol\":5760:5792  return allowed[_owner][_spender] */\n          swap1\n          pop\n            /* \"contracts/ERC20.sol\":5671:5797  function allowance(address _owner, address _spender) public view returns (uint256) {... */\n          swap3\n          swap2\n          pop\n          pop\n          jump\t// out\n            /* \"contracts/ERC20.sol\":962:1072  function sub(uint256 a, uint256 b) internal pure returns (uint256) {... */\n        tag_86:\n            /* \"contracts/ERC20.sol\":1020:1027  uint256 */\n          0x00\n            /* \"contracts/ERC20.sol\":1047:1048  a */\n          dup3\n            /* \"contracts/ERC20.sol\":1042:1043  b */\n          dup3\n            /* \"contracts/ERC20.sol\":1042:1048  b <= a */\n          gt\n          iszero\n            /* \"contracts/ERC20.sol\":1035:1049  assert(b <= a) */\n          tag_116\n          jumpi\n          tag_117\n          tag_118\n          jump\t// in\n        tag_117:\n        tag_116:\n            /* \"contracts/ERC20.sol\":1066:1067  b */\n          dup2\n            /* \"contracts/ERC20.sol\":1062:1063  a */\n          dup4\n            /* \"contracts/ERC20.sol\":1062:1067  a - b */\n          tag_119\n          swap2\n          swap1\n          tag_120\n          jump\t// in\n        tag_119:\n            /* \"contracts/ERC20.sol\":1055:1067  return a - b */\n          swap1\n          pop\n            /* \"contracts/ERC20.sol\":962:1072  function sub(uint256 a, uint256 b) internal pure returns (uint256) {... */\n          swap3\n          swap2\n          pop\n          pop\n          jump\t// out\n            /* \"contracts/ERC20.sol\":1134:1257  function add(uint256 a, uint256 b) internal pure returns (uint256 c) {... */\n        tag_88:\n            /* \"contracts/ERC20.sol\":1192:1201  uint256 c */\n          0x00\n            /* \"contracts/ERC20.sol\":1217:1218  b */\n          dup2\n            /* \"contracts/ERC20.sol\":1213:1214  a */\n          dup4\n            /* \"contracts/ERC20.sol\":1213:1218  a + b */\n          tag_122\n          swap2\n          swap1\n          tag_123\n          jump\t// in\n        tag_122:\n            /* \"contracts/ERC20.sol\":1209:1218  c = a + b */\n          swap1\n          pop\n            /* \"contracts/ERC20.sol\":1236:1237  a */\n          dup3\n            /* \"contracts/ERC20.sol\":1231:1232  c */\n          dup2\n            /* \"contracts/ERC20.sol\":1231:1237  c >= a */\n          lt\n          iszero\n            /* \"contracts/ERC20.sol\":1224:1238  assert(c >= a) */\n          tag_124\n          jumpi\n          tag_125\n          tag_118\n          jump\t// in\n        tag_125:\n        tag_124:\n            /* \"contracts/ERC20.sol\":1134:1257  function add(uint256 a, uint256 b) internal pure returns (uint256 c) {... */\n          swap3\n          swap2\n          pop\n          pop\n          jump\t// out\n            /* \"#utility.yul\":7:97   */\n        tag_126:\n            /* \"#utility.yul\":41:48   */\n          0x00\n            /* \"#utility.yul\":84:89   */\n          dup2\n            /* \"#utility.yul\":77:90   */\n          iszero\n            /* \"#utility.yul\":70:91   */\n          iszero\n            /* \"#utility.yul\":59:91   */\n          swap1\n          pop\n            /* \"#utility.yul\":7:97   */\n          swap2\n          swap1\n          pop\n          jump\t// out\n            /* \"#utility.yul\":103:212   */\n        tag_127:\n            /* \"#utility.yul\":184:205   */\n          tag_155\n            /* \"#utility.yul\":199:204   */\n          dup2\n            /* \"#utility.yul\":184:205   */\n          tag_126\n          jump\t// in\n        tag_155:\n            /* \"#utility.yul\":179:182   */\n          dup3\n            /* \"#utility.yul\":172:206   */\n          mstore\n            /* \"#utility.yul\":103:212   */\n          pop\n          pop\n          jump\t// out\n            /* \"#utility.yul\":218:428   */\n        tag_23:\n            /* \"#utility.yul\":305:309   */\n          0x00\n            /* \"#utility.yul\":343:345   */\n          0x20\n            /* \"#utility.yul\":332:341   */\n          dup3\n            /* \"#utility.yul\":328:346   */\n          add\n            /* \"#utility.yul\":320:346   */\n          swap1\n          pop\n            /* \"#utility.yul\":356:421   */\n          tag_157\n            /* \"#utility.yul\":418:419   */\n          0x00\n            /* \"#utility.yul\":407:416   */\n          dup4\n            /* \"#utility.yul\":403:420   */\n          add\n            /* \"#utility.yul\":394:400   */\n          dup5\n            /* \"#utility.yul\":356:421   */\n          tag_127\n          jump\t// in\n        tag_157:\n            /* \"#utility.yul\":218:428   */\n          swap3\n          swap2\n          pop\n          pop\n          jump\t// out\n            /* \"#utility.yul\":434:533   */\n        tag_128:\n            /* \"#utility.yul\":486:492   */\n          0x00\n            /* \"#utility.yul\":520:525   */\n          dup2\n            /* \"#utility.yul\":514:526   */\n          mload\n            /* \"#utility.yul\":504:526   */\n          swap1\n          pop\n            /* \"#utility.yul\":434:533   */\n          swap2\n          swap1\n          pop\n          jump\t// out\n            /* \"#utility.yul\":539:708   */\n        tag_129:\n            /* \"#utility.yul\":623:634   */\n          0x00\n            /* \"#utility.yul\":657:663   */\n          dup3\n            /* \"#utility.yul\":652:655   */\n          dup3\n            /* \"#utility.yul\":645:664   */\n          mstore\n            /* \"#utility.yul\":697:701   */\n          0x20\n            /* \"#utility.yul\":692:695   */\n          dup3\n            /* \"#utility.yul\":688:702   */\n          add\n            /* \"#utility.yul\":673:702   */\n          swap1\n          pop\n            /* \"#utility.yul\":539:708   */\n          swap3\n          swap2\n          pop\n          pop\n          jump\t// out\n            /* \"#utility.yul\":714:960   */\n        tag_130:\n            /* \"#utility.yul\":795:796   */\n          0x00\n            /* \"#utility.yul\":805:918   */\n        tag_161:\n            /* \"#utility.yul\":819:825   */\n          dup4\n            /* \"#utility.yul\":816:817   */\n          dup2\n            /* \"#utility.yul\":813:826   */\n          lt\n            /* \"#utility.yul\":805:918   */\n          iszero\n          tag_163\n          jumpi\n            /* \"#utility.yul\":904:905   */\n          dup1\n            /* \"#utility.yul\":899:902   */\n          dup3\n            /* \"#utility.yul\":895:906   */\n          add\n            /* \"#utility.yul\":889:907   */\n          mload\n            /* \"#utility.yul\":885:886   */\n          dup2\n            /* \"#utility.yul\":880:883   */\n          dup5\n            /* \"#utility.yul\":876:887   */\n          add\n            /* \"#utility.yul\":869:908   */\n          mstore\n            /* \"#utility.yul\":841:843   */\n          0x20\n            /* \"#utility.yul\":838:839   */\n          dup2\n            /* \"#utility.yul\":834:844   */\n          add\n            /* \"#utility.yul\":829:844   */\n          swap1\n          pop\n            /* \"#utility.yul\":805:918   */\n          jump(tag_161)\n        tag_163:\n            /* \"#utility.yul\":952:953   */\n          0x00\n            /* \"#utility.yul\":943:949   */\n          dup5\n            /* \"#utility.yul\":938:941   */\n          dup5\n            /* \"#utility.yul\":934:950   */\n          add\n            /* \"#utility.yul\":927:954   */\n          mstore\n            /* \"#utility.yul\":776:960   */\n          pop\n            /* \"#utility.yul\":714:960   */\n          pop\n          pop\n          pop\n          jump\t// out\n            /* \"#utility.yul\":966:1068   */\n        tag_131:\n            /* \"#utility.yul\":1007:1013   */\n          0x00\n            /* \"#utility.yul\":1058:1060   */\n          0x1f\n            /* \"#utility.yul\":1054:1061   */\n          not\n            /* \"#utility.yul\":1049:1051   */\n          0x1f\n            /* \"#utility.yul\":1042:1047   */\n          dup4\n            /* \"#utility.yul\":1038:1052   */\n          add\n            /* \"#utility.yul\":1034:1062   */\n          and\n            /* \"#utility.yul\":1024:1062   */\n          swap1\n          pop\n            /* \"#utility.yul\":966:1068   */\n          swap2\n          swap1\n          pop\n          jump\t// out\n            /* \"#utility.yul\":1074:1451   */\n        tag_132:\n            /* \"#utility.yul\":1162:1165   */\n          0x00\n            /* \"#utility.yul\":1190:1229   */\n          tag_166\n            /* \"#utility.yul\":1223:1228   */\n          dup3\n            /* \"#utility.yul\":1190:1229   */\n          tag_128\n          jump\t// in\n        tag_166:\n            /* \"#utility.yul\":1245:1316   */\n          tag_167\n            /* \"#utility.yul\":1309:1315   */\n          dup2\n            /* \"#utility.yul\":1304:1307   */\n          dup6\n            /* \"#utility.yul\":1245:1316   */\n          tag_129\n          jump\t// in\n        tag_167:\n            /* \"#utility.yul\":1238:1316   */\n          swap4\n          pop\n            /* \"#utility.yul\":1325:1390   */\n          tag_168\n            /* \"#utility.yul\":1383:1389   */\n          dup2\n            /* \"#utility.yul\":1378:1381   */\n          dup6\n            /* \"#utility.yul\":1371:1375   */\n          0x20\n            /* \"#utility.yul\":1364:1369   */\n          dup7\n            /* \"#utility.yul\":1360:1376   */\n          add\n            /* \"#utility.yul\":1325:1390   */\n          tag_130\n          jump\t// in\n        tag_168:\n            /* \"#utility.yul\":1415:1444   */\n          tag_169\n            /* \"#utility.yul\":1437:1443   */\n          dup2\n            /* \"#utility.yul\":1415:1444   */\n          tag_131\n          jump\t// in\n        tag_169:\n            /* \"#utility.yul\":1410:1413   */\n          dup5\n            /* \"#utility.yul\":1406:1445   */\n          add\n            /* \"#utility.yul\":1399:1445   */\n          swap2\n          pop\n            /* \"#utility.yul\":1166:1451   */\n          pop\n            /* \"#utility.yul\":1074:1451   */\n          swap3\n          swap2\n          pop\n          pop\n          jump\t// out\n            /* \"#utility.yul\":1457:1770   */\n        tag_27:\n            /* \"#utility.yul\":1570:1574   */\n          0x00\n            /* \"#utility.yul\":1608:1610   */\n          0x20\n            /* \"#utility.yul\":1597:1606   */\n          dup3\n            /* \"#utility.yul\":1593:1611   */\n          add\n            /* \"#utility.yul\":1585:1611   */\n          swap1\n          pop\n            /* \"#utility.yul\":1657:1666   */\n          dup2\n            /* \"#utility.yul\":1651:1655   */\n          dup2\n            /* \"#utility.yul\":1647:1667   */\n          sub\n            /* \"#utility.yul\":1643:1644   */\n          0x00\n            /* \"#utility.yul\":1632:1641   */\n          dup4\n            /* \"#utility.yul\":1628:1645   */\n          add\n            /* \"#utility.yul\":1621:1668   */\n          mstore\n            /* \"#utility.yul\":1685:1763   */\n          tag_171\n            /* \"#utility.yul\":1758:1762   */\n          dup2\n            /* \"#utility.yul\":1749:1755   */\n          dup5\n            /* \"#utility.yul\":1685:1763   */\n          tag_132\n          jump\t// in\n        tag_171:\n            /* \"#utility.yul\":1677:1763   */\n          swap1\n          pop\n            /* \"#utility.yul\":1457:1770   */\n          swap3\n          swap2\n          pop\n          pop\n          jump\t// out\n            /* \"#utility.yul\":1857:1974   */\n        tag_134:\n            /* \"#utility.yul\":1966:1967   */\n          0x00\n            /* \"#utility.yul\":1963:1964   */\n          dup1\n            /* \"#utility.yul\":1956:1968   */\n          revert\n            /* \"#utility.yul\":2103:2229   */\n        tag_136:\n            /* \"#utility.yul\":2140:2147   */\n          0x00\n            /* \"#utility.yul\":2180:2222   */\n          0xffffffffffffffffffffffffffffffffffffffff\n            /* \"#utility.yul\":2173:2178   */\n          dup3\n            /* \"#utility.yul\":2169:2223   */\n          and\n            /* \"#utility.yul\":2158:2223   */\n          swap1\n          pop\n            /* \"#utility.yul\":2103:2229   */\n          swap2\n          swap1\n          pop\n          jump\t// out\n            /* \"#utility.yul\":2235:2331   */\n        tag_137:\n            /* \"#utility.yul\":2272:2279   */\n          0x00\n            /* \"#utility.yul\":2301:2325   */\n          tag_177\n            /* \"#utility.yul\":2319:2324   */\n          dup3\n            /* \"#utility.yul\":2301:2325   */\n          tag_136\n          jump\t// in\n        tag_177:\n            /* \"#utility.yul\":2290:2325   */\n          swap1\n          pop\n            /* \"#utility.yul\":2235:2331   */\n          swap2\n          swap1\n          pop\n          jump\t// out\n            /* \"#utility.yul\":2337:2459   */\n        tag_138:\n            /* \"#utility.yul\":2410:2434   */\n          tag_179\n            /* \"#utility.yul\":2428:2433   */\n          dup2\n            /* \"#utility.yul\":2410:2434   */\n          tag_137\n          jump\t// in\n        tag_179:\n            /* \"#utility.yul\":2403:2408   */\n          dup2\n            /* \"#utility.yul\":2400:2435   */\n          eq\n            /* \"#utility.yul\":2390:2453   */\n          tag_180\n          jumpi\n            /* \"#utility.yul\":2449:2450   */\n          0x00\n            /* \"#utility.yul\":2446:2447   */\n          dup1\n            /* \"#utility.yul\":2439:2451   */\n          revert\n            /* \"#utility.yul\":2390:2453   */\n        tag_180:\n            /* \"#utility.yul\":2337:2459   */\n          pop\n          jump\t// out\n            /* \"#utility.yul\":2465:2604   */\n        tag_139:\n            /* \"#utility.yul\":2511:2516   */\n          0x00\n            /* \"#utility.yul\":2549:2555   */\n          dup2\n            /* \"#utility.yul\":2536:2556   */\n          calldataload\n            /* \"#utility.yul\":2527:2556   */\n          swap1\n          pop\n            /* \"#utility.yul\":2565:2598   */\n          tag_182\n            /* \"#utility.yul\":2592:2597   */\n          dup2\n            /* \"#utility.yul\":2565:2598   */\n          tag_138\n          jump\t// in\n        tag_182:\n            /* \"#utility.yul\":2465:2604   */\n          swap3\n          swap2\n          pop\n          pop\n          jump\t// out\n            /* \"#utility.yul\":2610:2687   */\n        tag_140:\n            /* \"#utility.yul\":2647:2654   */\n          0x00\n            /* \"#utility.yul\":2676:2681   */\n          dup2\n            /* \"#utility.yul\":2665:2681   */\n          swap1\n          pop\n            /* \"#utility.yul\":2610:2687   */\n          swap2\n          swap1\n          pop\n          jump\t// out\n            /* \"#utility.yul\":2693:2815   */\n        tag_141:\n            /* \"#utility.yul\":2766:2790   */\n          tag_185\n            /* \"#utility.yul\":2784:2789   */\n          dup2\n            /* \"#utility.yul\":2766:2790   */\n          tag_140\n          jump\t// in\n        tag_185:\n            /* \"#utility.yul\":2759:2764   */\n          dup2\n            /* \"#utility.yul\":2756:2791   */\n          eq\n            /* \"#utility.yul\":2746:2809   */\n          tag_186\n          jumpi\n            /* \"#utility.yul\":2805:2806   */\n          0x00\n            /* \"#utility.yul\":2802:2803   */\n          dup1\n            /* \"#utility.yul\":2795:2807   */\n          revert\n            /* \"#utility.yul\":2746:2809   */\n        tag_186:\n            /* \"#utility.yul\":2693:2815   */\n          pop\n          jump\t// out\n            /* \"#utility.yul\":2821:2960   */\n        tag_142:\n            /* \"#utility.yul\":2867:2872   */\n          0x00\n            /* \"#utility.yul\":2905:2911   */\n          dup2\n            /* \"#utility.yul\":2892:2912   */\n          calldataload\n            /* \"#utility.yul\":2883:2912   */\n          swap1\n          pop\n            /* \"#utility.yul\":2921:2954   */\n          tag_188\n            /* \"#utility.yul\":2948:2953   */\n          dup2\n            /* \"#utility.yul\":2921:2954   */\n          tag_141\n          jump\t// in\n        tag_188:\n            /* \"#utility.yul\":2821:2960   */\n          swap3\n          swap2\n          pop\n          pop\n          jump\t// out\n            /* \"#utility.yul\":2966:3440   */\n        tag_30:\n            /* \"#utility.yul\":3034:3040   */\n          0x00\n            /* \"#utility.yul\":3042:3048   */\n          dup1\n            /* \"#utility.yul\":3091:3093   */\n          0x40\n            /* \"#utility.yul\":3079:3088   */\n          dup4\n            /* \"#utility.yul\":3070:3077   */\n          dup6\n            /* \"#utility.yul\":3066:3089   */\n          sub\n            /* \"#utility.yul\":3062:3094   */\n          slt\n            /* \"#utility.yul\":3059:3178   */\n          iszero\n          tag_190\n          jumpi\n            /* \"#utility.yul\":3097:3176   */\n          tag_191\n          tag_134\n          jump\t// in\n        tag_191:\n            /* \"#utility.yul\":3059:3178   */\n        tag_190:\n            /* \"#utility.yul\":3217:3218   */\n          0x00\n            /* \"#utility.yul\":3242:3295   */\n          tag_192\n            /* \"#utility.yul\":3287:3294   */\n          dup6\n            /* \"#utility.yul\":3278:3284   */\n          dup3\n            /* \"#utility.yul\":3267:3276   */\n          dup7\n            /* \"#utility.yul\":3263:3285   */\n          add\n            /* \"#utility.yul\":3242:3295   */\n          tag_139\n          jump\t// in\n        tag_192:\n            /* \"#utility.yul\":3232:3295   */\n          swap3\n          pop\n            /* \"#utility.yul\":3188:3305   */\n          pop\n            /* \"#utility.yul\":3344:3346   */\n          0x20\n            /* \"#utility.yul\":3370:3423   */\n          tag_193\n            /* \"#utility.yul\":3415:3422   */\n          dup6\n            /* \"#utility.yul\":3406:3412   */\n          dup3\n            /* \"#utility.yul\":3395:3404   */\n          dup7\n            /* \"#utility.yul\":3391:3413   */\n          add\n            /* \"#utility.yul\":3370:3423   */\n          tag_142\n          jump\t// in\n        tag_193:\n            /* \"#utility.yul\":3360:3423   */\n          swap2\n          pop\n            /* \"#utility.yul\":3315:3433   */\n          pop\n            /* \"#utility.yul\":2966:3440   */\n          swap3\n          pop\n          swap3\n          swap1\n          pop\n          jump\t// out\n            /* \"#utility.yul\":3446:3564   */\n        tag_143:\n            /* \"#utility.yul\":3533:3557   */\n          tag_195\n            /* \"#utility.yul\":3551:3556   */\n          dup2\n            /* \"#utility.yul\":3533:3557   */\n          tag_140\n          jump\t// in\n        tag_195:\n            /* \"#utility.yul\":3528:3531   */\n          dup3\n            /* \"#utility.yul\":3521:3558   */\n          mstore\n            /* \"#utility.yul\":3446:3564   */\n          pop\n          pop\n          jump\t// out\n            /* \"#utility.yul\":3570:3792   */\n        tag_36:\n            /* \"#utility.yul\":3663:3667   */\n          0x00\n            /* \"#utility.yul\":3701:3703   */\n          0x20\n            /* \"#utility.yul\":3690:3699   */\n          dup3\n            /* \"#utility.yul\":3686:3704   */\n          add\n            /* \"#utility.yul\":3678:3704   */\n          swap1\n          pop\n            /* \"#utility.yul\":3714:3785   */\n          tag_197\n            /* \"#utility.yul\":3782:3783   */\n          0x00\n            /* \"#utility.yul\":3771:3780   */\n          dup4\n            /* \"#utility.yul\":3767:3784   */\n          add\n            /* \"#utility.yul\":3758:3764   */\n          dup5\n            /* \"#utility.yul\":3714:3785   */\n          tag_143\n          jump\t// in\n        tag_197:\n            /* \"#utility.yul\":3570:3792   */\n          swap3\n          swap2\n          pop\n          pop\n          jump\t// out\n            /* \"#utility.yul\":3798:4417   */\n        tag_39:\n            /* \"#utility.yul\":3875:3881   */\n          0x00\n            /* \"#utility.yul\":3883:3889   */\n          dup1\n            /* \"#utility.yul\":3891:3897   */\n          0x00\n            /* \"#utility.yul\":3940:3942   */\n          0x60\n            /* \"#utility.yul\":3928:3937   */\n          dup5\n            /* \"#utility.yul\":3919:3926   */\n          dup7\n            /* \"#utility.yul\":3915:3938   */\n          sub\n            /* \"#utility.yul\":3911:3943   */\n          slt\n            /* \"#utility.yul\":3908:4027   */\n          iszero\n          tag_199\n          jumpi\n            /* \"#utility.yul\":3946:4025   */\n          tag_200\n          tag_134\n          jump\t// in\n        tag_200:\n            /* \"#utility.yul\":3908:4027   */\n        tag_199:\n            /* \"#utility.yul\":4066:4067   */\n          0x00\n            /* \"#utility.yul\":4091:4144   */\n          tag_201\n            /* \"#utility.yul\":4136:4143   */\n          dup7\n            /* \"#utility.yul\":4127:4133   */\n          dup3\n            /* \"#utility.yul\":4116:4125   */\n          dup8\n            /* \"#utility.yul\":4112:4134   */\n          add\n            /* \"#utility.yul\":4091:4144   */\n          tag_139\n          jump\t// in\n        tag_201:\n            /* \"#utility.yul\":4081:4144   */\n          swap4\n          pop\n            /* \"#utility.yul\":4037:4154   */\n          pop\n            /* \"#utility.yul\":4193:4195   */\n          0x20\n            /* \"#utility.yul\":4219:4272   */\n          tag_202\n            /* \"#utility.yul\":4264:4271   */\n          dup7\n            /* \"#utility.yul\":4255:4261   */\n          dup3\n            /* \"#utility.yul\":4244:4253   */\n          dup8\n            /* \"#utility.yul\":4240:4262   */\n          add\n            /* \"#utility.yul\":4219:4272   */\n          tag_139\n          jump\t// in\n        tag_202:\n            /* \"#utility.yul\":4209:4272   */\n          swap3\n          pop\n            /* \"#utility.yul\":4164:4282   */\n          pop\n            /* \"#utility.yul\":4321:4323   */\n          0x40\n            /* \"#utility.yul\":4347:4400   */\n          tag_203\n            /* \"#utility.yul\":4392:4399   */\n          dup7\n            /* \"#utility.yul\":4383:4389   */\n          dup3\n            /* \"#utility.yul\":4372:4381   */\n          dup8\n            /* \"#utility.yul\":4368:4390   */\n          add\n            /* \"#utility.yul\":4347:4400   */\n          tag_142\n          jump\t// in\n        tag_203:\n            /* \"#utility.yul\":4337:4400   */\n          swap2\n          pop\n            /* \"#utility.yul\":4292:4410   */\n          pop\n            /* \"#utility.yul\":3798:4417   */\n          swap3\n          pop\n          swap3\n          pop\n          swap3\n          jump\t// out\n            /* \"#utility.yul\":4423:4509   */\n        tag_144:\n            /* \"#utility.yul\":4458:4465   */\n          0x00\n            /* \"#utility.yul\":4498:4502   */\n          0xff\n            /* \"#utility.yul\":4491:4496   */\n          dup3\n            /* \"#utility.yul\":4487:4503   */\n          and\n            /* \"#utility.yul\":4476:4503   */\n          swap1\n          pop\n            /* \"#utility.yul\":4423:4509   */\n          swap2\n          swap1\n          pop\n          jump\t// out\n            /* \"#utility.yul\":4515:4627   */\n        tag_145:\n            /* \"#utility.yul\":4598:4620   */\n          tag_206\n            /* \"#utility.yul\":4614:4619   */\n          dup2\n            /* \"#utility.yul\":4598:4620   */\n          tag_144\n          jump\t// in\n        tag_206:\n            /* \"#utility.yul\":4593:4596   */\n          dup3\n            /* \"#utility.yul\":4586:4621   */\n          mstore\n            /* \"#utility.yul\":4515:4627   */\n          pop\n          pop\n          jump\t// out\n            /* \"#utility.yul\":4633:4847   */\n        tag_45:\n            /* \"#utility.yul\":4722:4726   */\n          0x00\n            /* \"#utility.yul\":4760:4762   */\n          0x20\n            /* \"#utility.yul\":4749:4758   */\n          dup3\n            /* \"#utility.yul\":4745:4763   */\n          add\n            /* \"#utility.yul\":4737:4763   */\n          swap1\n          pop\n            /* \"#utility.yul\":4773:4840   */\n          tag_208\n            /* \"#utility.yul\":4837:4838   */\n          0x00\n            /* \"#utility.yul\":4826:4835   */\n          dup4\n            /* \"#utility.yul\":4822:4839   */\n          add\n            /* \"#utility.yul\":4813:4819   */\n          dup5\n            /* \"#utility.yul\":4773:4840   */\n          tag_145\n          jump\t// in\n        tag_208:\n            /* \"#utility.yul\":4633:4847   */\n          swap3\n          swap2\n          pop\n          pop\n          jump\t// out\n            /* \"#utility.yul\":4853:5182   */\n        tag_52:\n            /* \"#utility.yul\":4912:4918   */\n          0x00\n            /* \"#utility.yul\":4961:4963   */\n          0x20\n            /* \"#utility.yul\":4949:4958   */\n          dup3\n            /* \"#utility.yul\":4940:4947   */\n          dup5\n            /* \"#utility.yul\":4936:4959   */\n          sub\n            /* \"#utility.yul\":4932:4964   */\n          slt\n            /* \"#utility.yul\":4929:5048   */\n          iszero\n          tag_210\n          jumpi\n            /* \"#utility.yul\":4967:5046   */\n          tag_211\n          tag_134\n          jump\t// in\n        tag_211:\n            /* \"#utility.yul\":4929:5048   */\n        tag_210:\n            /* \"#utility.yul\":5087:5088   */\n          0x00\n            /* \"#utility.yul\":5112:5165   */\n          tag_212\n            /* \"#utility.yul\":5157:5164   */\n          dup5\n            /* \"#utility.yul\":5148:5154   */\n          dup3\n            /* \"#utility.yul\":5137:5146   */\n          dup6\n            /* \"#utility.yul\":5133:5155   */\n          add\n            /* \"#utility.yul\":5112:5165   */\n          tag_139\n          jump\t// in\n        tag_212:\n            /* \"#utility.yul\":5102:5165   */\n          swap2\n          pop\n            /* \"#utility.yul\":5058:5175   */\n          pop\n            /* \"#utility.yul\":4853:5182   */\n          swap3\n          swap2\n          pop\n          pop\n          jump\t// out\n            /* \"#utility.yul\":5188:5306   */\n        tag_146:\n            /* \"#utility.yul\":5275:5299   */\n          tag_214\n            /* \"#utility.yul\":5293:5298   */\n          dup2\n            /* \"#utility.yul\":5275:5299   */\n          tag_137\n          jump\t// in\n        tag_214:\n            /* \"#utility.yul\":5270:5273   */\n          dup3\n            /* \"#utility.yul\":5263:5300   */\n          mstore\n            /* \"#utility.yul\":5188:5306   */\n          pop\n          pop\n          jump\t// out\n            /* \"#utility.yul\":5312:5534   */\n        tag_61:\n            /* \"#utility.yul\":5405:5409   */\n          0x00\n            /* \"#utility.yul\":5443:5445   */\n          0x20\n            /* \"#utility.yul\":5432:5441   */\n          dup3\n            /* \"#utility.yul\":5428:5446   */\n          add\n            /* \"#utility.yul\":5420:5446   */\n          swap1\n          pop\n            /* \"#utility.yul\":5456:5527   */\n          tag_216\n            /* \"#utility.yul\":5524:5525   */\n          0x00\n            /* \"#utility.yul\":5513:5522   */\n          dup4\n            /* \"#utility.yul\":5509:5526   */\n          add\n            /* \"#utility.yul\":5500:5506   */\n          dup5\n            /* \"#utility.yul\":5456:5527   */\n          tag_146\n          jump\t// in\n        tag_216:\n            /* \"#utility.yul\":5312:5534   */\n          swap3\n          swap2\n          pop\n          pop\n          jump\t// out\n            /* \"#utility.yul\":5540:6014   */\n        tag_74:\n            /* \"#utility.yul\":5608:5614   */\n          0x00\n            /* \"#utility.yul\":5616:5622   */\n          dup1\n            /* \"#utility.yul\":5665:5667   */\n          0x40\n            /* \"#utility.yul\":5653:5662   */\n          dup4\n            /* \"#utility.yul\":5644:5651   */\n          dup6\n            /* \"#utility.yul\":5640:5663   */\n          sub\n            /* \"#utility.yul\":5636:5668   */\n          slt\n            /* \"#utility.yul\":5633:5752   */\n          iszero\n          tag_218\n          jumpi\n            /* \"#utility.yul\":5671:5750   */\n          tag_219\n          tag_134\n          jump\t// in\n        tag_219:\n            /* \"#utility.yul\":5633:5752   */\n        tag_218:\n            /* \"#utility.yul\":5791:5792   */\n          0x00\n            /* \"#utility.yul\":5816:5869   */\n          tag_220\n            /* \"#utility.yul\":5861:5868   */\n          dup6\n            /* \"#utility.yul\":5852:5858   */\n          dup3\n            /* \"#utility.yul\":5841:5850   */\n          dup7\n            /* \"#utility.yul\":5837:5859   */\n          add\n            /* \"#utility.yul\":5816:5869   */\n          tag_139\n          jump\t// in\n        tag_220:\n            /* \"#utility.yul\":5806:5869   */\n          swap3\n          pop\n            /* \"#utility.yul\":5762:5879   */\n          pop\n            /* \"#utility.yul\":5918:5920   */\n          0x20\n            /* \"#utility.yul\":5944:5997   */\n          tag_221\n            /* \"#utility.yul\":5989:5996   */\n          dup6\n            /* \"#utility.yul\":5980:5986   */\n          dup3\n            /* \"#utility.yul\":5969:5978   */\n          dup7\n            /* \"#utility.yul\":5965:5987   */\n          add\n            /* \"#utility.yul\":5944:5997   */\n          tag_139\n          jump\t// in\n        tag_221:\n            /* \"#utility.yul\":5934:5997   */\n          swap2\n          pop\n            /* \"#utility.yul\":5889:6007   */\n          pop\n            /* \"#utility.yul\":5540:6014   */\n          swap3\n          pop\n          swap3\n          swap1\n          pop\n          jump\t// out\n            /* \"#utility.yul\":6020:6202   */\n        tag_147:\n            /* \"#utility.yul\":6160:6194   */\n          0x46726f6d20646f65736e2774206861766520656e6f7567682062616c616e6365\n            /* \"#utility.yul\":6156:6157   */\n          0x00\n            /* \"#utility.yul\":6148:6154   */\n          dup3\n            /* \"#utility.yul\":6144:6158   */\n          add\n            /* \"#utility.yul\":6137:6195   */\n          mstore\n            /* \"#utility.yul\":6020:6202   */\n          pop\n          jump\t// out\n            /* \"#utility.yul\":6208:6574   */\n        tag_148:\n            /* \"#utility.yul\":6350:6353   */\n          0x00\n            /* \"#utility.yul\":6371:6438   */\n          tag_224\n            /* \"#utility.yul\":6435:6437   */\n          0x20\n            /* \"#utility.yul\":6430:6433   */\n          dup4\n            /* \"#utility.yul\":6371:6438   */\n          tag_129\n          jump\t// in\n        tag_224:\n            /* \"#utility.yul\":6364:6438   */\n          swap2\n          pop\n            /* \"#utility.yul\":6447:6540   */\n          tag_225\n            /* \"#utility.yul\":6536:6539   */\n          dup3\n            /* \"#utility.yul\":6447:6540   */\n          tag_147\n          jump\t// in\n        tag_225:\n            /* \"#utility.yul\":6565:6567   */\n          0x20\n            /* \"#utility.yul\":6560:6563   */\n          dup3\n            /* \"#utility.yul\":6556:6568   */\n          add\n            /* \"#utility.yul\":6549:6568   */\n          swap1\n          pop\n            /* \"#utility.yul\":6208:6574   */\n          swap2\n          swap1\n          pop\n          jump\t// out\n            /* \"#utility.yul\":6580:6999   */\n        tag_84:\n            /* \"#utility.yul\":6746:6750   */\n          0x00\n            /* \"#utility.yul\":6784:6786   */\n          0x20\n            /* \"#utility.yul\":6773:6782   */\n          dup3\n            /* \"#utility.yul\":6769:6787   */\n          add\n            /* \"#utility.yul\":6761:6787   */\n          swap1\n          pop\n            /* \"#utility.yul\":6833:6842   */\n          dup2\n            /* \"#utility.yul\":6827:6831   */\n          dup2\n            /* \"#utility.yul\":6823:6843   */\n          sub\n            /* \"#utility.yul\":6819:6820   */\n          0x00\n            /* \"#utility.yul\":6808:6817   */\n          dup4\n            /* \"#utility.yul\":6804:6821   */\n          add\n            /* \"#utility.yul\":6797:6844   */\n          mstore\n            /* \"#utility.yul\":6861:6992   */\n          tag_227\n            /* \"#utility.yul\":6987:6991   */\n          dup2\n            /* \"#utility.yul\":6861:6992   */\n          tag_148\n          jump\t// in\n        tag_227:\n            /* \"#utility.yul\":6853:6992   */\n          swap1\n          pop\n            /* \"#utility.yul\":6580:6999   */\n          swap2\n          swap1\n          pop\n          jump\t// out\n            /* \"#utility.yul\":7005:7230   */\n        tag_149:\n            /* \"#utility.yul\":7145:7179   */\n          0x6d73672e73656e64657220646f65736e2774206861766520656e6f7567682062\n            /* \"#utility.yul\":7141:7142   */\n          0x00\n            /* \"#utility.yul\":7133:7139   */\n          dup3\n            /* \"#utility.yul\":7129:7143   */\n          add\n            /* \"#utility.yul\":7122:7180   */\n          mstore\n            /* \"#utility.yul\":7214:7222   */\n          0x616c616e63650000000000000000000000000000000000000000000000000000\n            /* \"#utility.yul\":7209:7211   */\n          0x20\n            /* \"#utility.yul\":7201:7207   */\n          dup3\n            /* \"#utility.yul\":7197:7212   */\n          add\n            /* \"#utility.yul\":7190:7223   */\n          mstore\n            /* \"#utility.yul\":7005:7230   */\n          pop\n          jump\t// out\n            /* \"#utility.yul\":7236:7602   */\n        tag_150:\n            /* \"#utility.yul\":7378:7381   */\n          0x00\n            /* \"#utility.yul\":7399:7466   */\n          tag_230\n            /* \"#utility.yul\":7463:7465   */\n          0x26\n            /* \"#utility.yul\":7458:7461   */\n          dup4\n            /* \"#utility.yul\":7399:7466   */\n          tag_129\n          jump\t// in\n        tag_230:\n            /* \"#utility.yul\":7392:7466   */\n          swap2\n          pop\n            /* \"#utility.yul\":7475:7568   */\n          tag_231\n            /* \"#utility.yul\":7564:7567   */\n          dup3\n            /* \"#utility.yul\":7475:7568   */\n          tag_149\n          jump\t// in\n        tag_231:\n            /* \"#utility.yul\":7593:7595   */\n          0x40\n            /* \"#utility.yul\":7588:7591   */\n          dup3\n            /* \"#utility.yul\":7584:7596   */\n          add\n            /* \"#utility.yul\":7577:7596   */\n          swap1\n          pop\n            /* \"#utility.yul\":7236:7602   */\n          swap2\n          swap1\n          pop\n          jump\t// out\n            /* \"#utility.yul\":7608:8027   */\n        tag_110:\n            /* \"#utility.yul\":7774:7778   */\n          0x00\n            /* \"#utility.yul\":7812:7814   */\n          0x20\n            /* \"#utility.yul\":7801:7810   */\n          dup3\n            /* \"#utility.yul\":7797:7815   */\n          add\n            /* \"#utility.yul\":7789:7815   */\n          swap1\n          pop\n            /* \"#utility.yul\":7861:7870   */\n          dup2\n            /* \"#utility.yul\":7855:7859   */\n          dup2\n            /* \"#utility.yul\":7851:7871   */\n          sub\n            /* \"#utility.yul\":7847:7848   */\n          0x00\n            /* \"#utility.yul\":7836:7845   */\n          dup4\n            /* \"#utility.yul\":7832:7849   */\n          add\n            /* \"#utility.yul\":7825:7872   */\n          mstore\n            /* \"#utility.yul\":7889:8020   */\n          tag_233\n            /* \"#utility.yul\":8015:8019   */\n          dup2\n            /* \"#utility.yul\":7889:8020   */\n          tag_150\n          jump\t// in\n        tag_233:\n            /* \"#utility.yul\":7881:8020   */\n          swap1\n          pop\n            /* \"#utility.yul\":7608:8027   */\n          swap2\n          swap1\n          pop\n          jump\t// out\n            /* \"#utility.yul\":8033:8213   */\n        tag_118:\n            /* \"#utility.yul\":8081:8158   */\n          0x4e487b7100000000000000000000000000000000000000000000000000000000\n            /* \"#utility.yul\":8078:8079   */\n          0x00\n            /* \"#utility.yul\":8071:8159   */\n          mstore\n            /* \"#utility.yul\":8178:8182   */\n          0x01\n            /* \"#utility.yul\":8175:8176   */\n          0x04\n            /* \"#utility.yul\":8168:8183   */\n          mstore\n            /* \"#utility.yul\":8202:8206   */\n          0x24\n            /* \"#utility.yul\":8199:8200   */\n          0x00\n            /* \"#utility.yul\":8192:8207   */\n          revert\n            /* \"#utility.yul\":8219:8399   */\n        tag_151:\n            /* \"#utility.yul\":8267:8344   */\n          0x4e487b7100000000000000000000000000000000000000000000000000000000\n            /* \"#utility.yul\":8264:8265   */\n          0x00\n            /* \"#utility.yul\":8257:8345   */\n          mstore\n            /* \"#utility.yul\":8364:8368   */\n          0x11\n            /* \"#utility.yul\":8361:8362   */\n          0x04\n            /* \"#utility.yul\":8354:8369   */\n          mstore\n            /* \"#utility.yul\":8388:8392   */\n          0x24\n            /* \"#utility.yul\":8385:8386   */\n          0x00\n            /* \"#utility.yul\":8378:8393   */\n          revert\n            /* \"#utility.yul\":8405:8599   */\n        tag_120:\n            /* \"#utility.yul\":8445:8449   */\n          0x00\n            /* \"#utility.yul\":8465:8485   */\n          tag_237\n            /* \"#utility.yul\":8483:8484   */\n          dup3\n            /* \"#utility.yul\":8465:8485   */\n          tag_140\n          jump\t// in\n        tag_237:\n            /* \"#utility.yul\":8460:8485   */\n          swap2\n          pop\n            /* \"#utility.yul\":8499:8519   */\n          tag_238\n            /* \"#utility.yul\":8517:8518   */\n          dup4\n            /* \"#utility.yul\":8499:8519   */\n          tag_140\n          jump\t// in\n        tag_238:\n            /* \"#utility.yul\":8494:8519   */\n          swap3\n          pop\n            /* \"#utility.yul\":8543:8544   */\n          dup3\n            /* \"#utility.yul\":8540:8541   */\n          dup3\n            /* \"#utility.yul\":8536:8545   */\n          sub\n            /* \"#utility.yul\":8528:8545   */\n          swap1\n          pop\n            /* \"#utility.yul\":8567:8568   */\n          dup2\n            /* \"#utility.yul\":8561:8565   */\n          dup2\n            /* \"#utility.yul\":8558:8569   */\n          gt\n            /* \"#utility.yul\":8555:8592   */\n          iszero\n          tag_239\n          jumpi\n            /* \"#utility.yul\":8572:8590   */\n          tag_240\n          tag_151\n          jump\t// in\n        tag_240:\n            /* \"#utility.yul\":8555:8592   */\n        tag_239:\n            /* \"#utility.yul\":8405:8599   */\n          swap3\n          swap2\n          pop\n          pop\n          jump\t// out\n            /* \"#utility.yul\":8605:8796   */\n        tag_123:\n            /* \"#utility.yul\":8645:8648   */\n          0x00\n            /* \"#utility.yul\":8664:8684   */\n          tag_242\n            /* \"#utility.yul\":8682:8683   */\n          dup3\n            /* \"#utility.yul\":8664:8684   */\n          tag_140\n          jump\t// in\n        tag_242:\n            /* \"#utility.yul\":8659:8684   */\n          swap2\n          pop\n            /* \"#utility.yul\":8698:8718   */\n          tag_243\n            /* \"#utility.yul\":8716:8717   */\n          dup4\n            /* \"#utility.yul\":8698:8718   */\n          tag_140\n          jump\t// in\n        tag_243:\n            /* \"#utility.yul\":8693:8718   */\n          swap3\n          pop\n            /* \"#utility.yul\":8741:8742   */\n          dup3\n            /* \"#utility.yul\":8738:8739   */\n          dup3\n            /* \"#utility.yul\":8734:8743   */\n          add\n            /* \"#utility.yul\":8727:8743   */\n          swap1\n          pop\n            /* \"#utility.yul\":8762:8765   */\n          dup1\n            /* \"#utility.yul\":8759:8760   */\n          dup3\n            /* \"#utility.yul\":8756:8766   */\n          gt\n            /* \"#utility.yul\":8753:8789   */\n          iszero\n          tag_244\n          jumpi\n            /* \"#utility.yul\":8769:8787   */\n          tag_245\n          tag_151\n          jump\t// in\n        tag_245:\n            /* \"#utility.yul\":8753:8789   */\n        tag_244:\n            /* \"#utility.yul\":8605:8796   */\n          swap3\n          swap2\n          pop\n          pop\n          jump\t// out\n\n        auxdata: 0xa2646970667358221220dbf720e14c9a6535ed145f53eb4f817d3802e228889b75211a3e43133c24054264736f6c63430008130033\n    }\n}\n",
				"bytecode": {
					"linkReferences": {},
					"object": "608060405234801561001057600080fd5b50600060405161001f906100c5565b604051809103906000f08015801561003b573d6000803e3d6000fd5b509050806000806101000a81548173ffffffffffffffffffffffffffffffffffffffff021916908373ffffffffffffffffffffffffffffffffffffffff16021790555033600160006101000a81548173ffffffffffffffffffffffffffffffffffffffff021916908373ffffffffffffffffffffffffffffffffffffffff160217905550506100d2565b6112bd8061088f83390190565b6107ae806100e16000396000f3fe60806040526004361061003f5760003560e01c80633456ea3014610044578063371ad4471461006d578063682e09b814610096578063b9b7650a146100b4575b600080fd5b34801561005057600080fd5b5061006b60048036038101906100669190610458565b6100f1565b005b34801561007957600080fd5b50610094600480360381019061008f91906104ab565b610197565b005b61009e61023c565b6040516100ab91906104fa565b60405180910390f35b3480156100c057600080fd5b506100db60048036038101906100d69190610515565b610317565b6040516100e891906104fa565b60405180910390f35b60008054906101000a900473ffffffffffffffffffffffffffffffffffffffff1673ffffffffffffffffffffffffffffffffffffffff166323b872dd8484846040518463ffffffff1660e01b815260040161014e93929190610551565b6020604051808303816000875af115801561016d573d6000803e3d6000fd5b505050506040513d601f19601f8201168201806040525081019061019191906105c0565b50505050565b60008054906101000a900473ffffffffffffffffffffffffffffffffffffffff1673ffffffffffffffffffffffffffffffffffffffff166323b872dd3384846040518463ffffffff1660e01b81526004016101f493929190610551565b6020604051808303816000875af1158015610213573d6000803e3d6000fd5b505050506040513d601f19601f8201168201806040525081019061023791906105c0565b505050565b60008034905060c8811061027157600560c882610259919061064b565b610263919061067c565b8161026e91906106be565b90505b60008054906101000a900473ffffffffffffffffffffffffffffffffffffffff1673ffffffffffffffffffffffffffffffffffffffff166340c10f1933836040518363ffffffff1660e01b81526004016102cc9291906106f2565b6020604051808303816000875af11580156102eb573d6000803e3d6000fd5b505050506040513d601f19601f8201168201806040525081019061030f91906105c0565b508091505090565b60008060008054906101000a900473ffffffffffffffffffffffffffffffffffffffff1673ffffffffffffffffffffffffffffffffffffffff166370a08231846040518263ffffffff1660e01b8152600401610373919061071b565b602060405180830381865afa158015610390573d6000803e3d6000fd5b505050506040513d601f19601f820116820180604052508101906103b4919061074b565b905080915050919050565b600080fd5b600073ffffffffffffffffffffffffffffffffffffffff82169050919050565b60006103ef826103c4565b9050919050565b6103ff816103e4565b811461040a57600080fd5b50565b60008135905061041c816103f6565b92915050565b6000819050919050565b61043581610422565b811461044057600080fd5b50565b6000813590506104528161042c565b92915050565b600080600060608486031215610471576104706103bf565b5b600061047f8682870161040d565b93505060206104908682870161040d565b92505060406104a186828701610443565b9150509250925092565b600080604083850312156104c2576104c16103bf565b5b60006104d08582860161040d565b92505060206104e185828601610443565b9150509250929050565b6104f481610422565b82525050565b600060208201905061050f60008301846104eb565b92915050565b60006020828403121561052b5761052a6103bf565b5b60006105398482850161040d565b91505092915050565b61054b816103e4565b82525050565b60006060820190506105666000830186610542565b6105736020830185610542565b61058060408301846104eb565b949350505050565b60008115159050919050565b61059d81610588565b81146105a857600080fd5b50565b6000815190506105ba81610594565b92915050565b6000602082840312156105d6576105d56103bf565b5b60006105e4848285016105ab565b91505092915050565b7f4e487b7100000000000000000000000000000000000000000000000000000000600052601260045260246000fd5b7f4e487b7100000000000000000000000000000000000000000000000000000000600052601160045260246000fd5b600061065682610422565b915061066183610422565b925082610671576106706105ed565b5b828204905092915050565b600061068782610422565b915061069283610422565b92508282026106a081610422565b915082820484148315176106b7576106b661061c565b5b5092915050565b60006106c982610422565b91506106d483610422565b92508282019050808211156106ec576106eb61061c565b5b92915050565b60006040820190506107076000830185610542565b61071460208301846104eb565b9392505050565b60006020820190506107306000830184610542565b92915050565b6000815190506107458161042c565b92915050565b600060208284031215610761576107606103bf565b5b600061076f84828501610736565b9150509291505056fea26469706673582212207452c5b1dbacd19f0075d26f9b78490eb1f6e072684bc52171f5b0a8866fe50f64736f6c63430008130033608060405260008060006101000a81548160ff02191690831515021790555033600060016101000a81548173ffffffffffffffffffffffffffffffffffffffff021916908373ffffffffffffffffffffffffffffffffffffffff16021790555034801561006b57600080fd5b506112428061007b6000396000f3fe608060405234801561001057600080fd5b50600436106100ea5760003560e01c806370a082311161008c5780638da5cb5b116100665780638da5cb5b1461026357806395d89b4114610281578063a9059cbb1461029f578063dd62ed3e146102cf576100ea565b806370a08231146101f75780637d64bcb414610227578063893d20e814610245576100ea565b806318160ddd116100c857806318160ddd1461015b57806323b872dd14610179578063313ce567146101a957806340c10f19146101c7576100ea565b806305d2035b146100ef57806306fdde031461010d578063095ea7b31461012b575b600080fd5b6100f76102ff565b6040516101049190610d57565b60405180910390f35b610115610310565b6040516101229190610e02565b60405180910390f35b61014560048036038101906101409190610ebd565b610349565b6040516101529190610d57565b60405180910390f35b61016361043b565b6040516101709190610f0c565b60405180910390f35b610193600480360381019061018e9190610f27565b610445565b6040516101a09190610d57565b60405180910390f35b6101b161069b565b6040516101be9190610f96565b60405180910390f35b6101e160048036038101906101dc9190610ebd565b6106a0565b6040516101ee9190610d57565b60405180910390f35b610211600480360381019061020c9190610fb1565b610881565b60405161021e9190610f0c565b60405180910390f35b61022f6108ca565b60405161023c9190610d57565b60405180910390f35b61024d61098a565b60405161025a9190610fed565b60405180910390f35b61026b6109b3565b6040516102789190610fed565b60405180910390f35b6102896109d9565b6040516102969190610e02565b60405180910390f35b6102b960048036038101906102b49190610ebd565b610a12565b6040516102c69190610d57565b60405180910390f35b6102e960048036038101906102e49190611008565b610c67565b6040516102f69190610f0c565b60405180910390f35b60008054906101000a900460ff1681565b6040518060400160405280600b81526020017f5472757374496e7375726500000000000000000000000000000000000000000081525081565b600081600160003373ffffffffffffffffffffffffffffffffffffffff1673ffffffffffffffffffffffffffffffffffffffff16815260200190815260200160002060008573ffffffffffffffffffffffffffffffffffffffff1673ffffffffffffffffffffffffffffffffffffffff168152602001908152602001600020819055508273ffffffffffffffffffffffffffffffffffffffff163373ffffffffffffffffffffffffffffffffffffffff167f8c5be1e5ebec7d5bd14f71427d1e84f3dd0314c0f7b2291e5b200ac8c7c3b925846040516104299190610f0c565b60405180910390a36001905092915050565b6000600354905090565b60008073ffffffffffffffffffffffffffffffffffffffff168373ffffffffffffffffffffffffffffffffffffffff160361047f57600080fd5b600260008573ffffffffffffffffffffffffffffffffffffffff1673ffffffffffffffffffffffffffffffffffffffff16815260200190815260200160002054821115610501576040517f08c379a00000000000000000000000000000000000000000000000000000000081526004016104f890611094565b60405180910390fd5b61055382600260008773ffffffffffffffffffffffffffffffffffffffff1673ffffffffffffffffffffffffffffffffffffffff16815260200190815260200160002054610cee90919063ffffffff16565b600260008673ffffffffffffffffffffffffffffffffffffffff1673ffffffffffffffffffffffffffffffffffffffff168152602001908152602001600020819055506105e882600260008673ffffffffffffffffffffffffffffffffffffffff1673ffffffffffffffffffffffffffffffffffffffff16815260200190815260200160002054610d1590919063ffffffff16565b600260008573ffffffffffffffffffffffffffffffffffffffff1673ffffffffffffffffffffffffffffffffffffffff168152602001908152602001600020819055508273ffffffffffffffffffffffffffffffffffffffff168473ffffffffffffffffffffffffffffffffffffffff167fddf252ad1be2c89b69c2b068fc378daa952ba7f163c4a11628f55a4df523b3ef846040516106889190610f0c565b60405180910390a3600190509392505050565b601281565b60008060019054906101000a900473ffffffffffffffffffffffffffffffffffffffff1673ffffffffffffffffffffffffffffffffffffffff163373ffffffffffffffffffffffffffffffffffffffff16146106fb57600080fd5b60008054906101000a900460ff161561071357600080fd5b61072882600354610d1590919063ffffffff16565b60038190555061078082600260008673ffffffffffffffffffffffffffffffffffffffff1673ffffffffffffffffffffffffffffffffffffffff16815260200190815260200160002054610d1590919063ffffffff16565b600260008573ffffffffffffffffffffffffffffffffffffffff1673ffffffffffffffffffffffffffffffffffffffff168152602001908152602001600020819055508273ffffffffffffffffffffffffffffffffffffffff167f0f6798a560793a54c3bcfe86a93cde1e73087d944c0ea20544137d4121396885836040516108099190610f0c565b60405180910390a28273ffffffffffffffffffffffffffffffffffffffff16600073ffffffffffffffffffffffffffffffffffffffff167fddf252ad1be2c89b69c2b068fc378daa952ba7f163c4a11628f55a4df523b3ef8460405161086f9190610f0c565b60405180910390a36001905092915050565b6000600260008373ffffffffffffffffffffffffffffffffffffffff1673ffffffffffffffffffffffffffffffffffffffff168152602001908152602001600020549050919050565b60008060019054906101000a900473ffffffffffffffffffffffffffffffffffffffff1673ffffffffffffffffffffffffffffffffffffffff163373ffffffffffffffffffffffffffffffffffffffff161461092557600080fd5b60008054906101000a900460ff161561093d57600080fd5b60016000806101000a81548160ff0219169083151502179055507fae5184fba832cb2b1f702aca6117b8d265eaf03ad33eb133f19dde0f5920fa0860405160405180910390a16001905090565b60008060019054906101000a900473ffffffffffffffffffffffffffffffffffffffff16905090565b600060019054906101000a900473ffffffffffffffffffffffffffffffffffffffff1681565b6040518060400160405280600281526020017f544900000000000000000000000000000000000000000000000000000000000081525081565b60008073ffffffffffffffffffffffffffffffffffffffff168373ffffffffffffffffffffffffffffffffffffffff1603610a4c57600080fd5b600260003273ffffffffffffffffffffffffffffffffffffffff1673ffffffffffffffffffffffffffffffffffffffff16815260200190815260200160002054821115610ace576040517f08c379a0000000000000000000000000000000000000000000000000000000008152600401610ac590611126565b60405180910390fd5b610b2082600260003273ffffffffffffffffffffffffffffffffffffffff1673ffffffffffffffffffffffffffffffffffffffff16815260200190815260200160002054610cee90919063ffffffff16565b600260003273ffffffffffffffffffffffffffffffffffffffff1673ffffffffffffffffffffffffffffffffffffffff16815260200190815260200160002081905550610bb582600260008673ffffffffffffffffffffffffffffffffffffffff1673ffffffffffffffffffffffffffffffffffffffff16815260200190815260200160002054610d1590919063ffffffff16565b600260008573ffffffffffffffffffffffffffffffffffffffff1673ffffffffffffffffffffffffffffffffffffffff168152602001908152602001600020819055508273ffffffffffffffffffffffffffffffffffffffff163273ffffffffffffffffffffffffffffffffffffffff167fddf252ad1be2c89b69c2b068fc378daa952ba7f163c4a11628f55a4df523b3ef84604051610c559190610f0c565b60405180910390a36001905092915050565b6000600160008473ffffffffffffffffffffffffffffffffffffffff1673ffffffffffffffffffffffffffffffffffffffff16815260200190815260200160002060008373ffffffffffffffffffffffffffffffffffffffff1673ffffffffffffffffffffffffffffffffffffffff16815260200190815260200160002054905092915050565b600082821115610d0157610d00611146565b5b8183610d0d91906111a4565b905092915050565b60008183610d2391906111d8565b905082811015610d3657610d35611146565b5b92915050565b60008115159050919050565b610d5181610d3c565b82525050565b6000602082019050610d6c6000830184610d48565b92915050565b600081519050919050565b600082825260208201905092915050565b60005b83811015610dac578082015181840152602081019050610d91565b60008484015250505050565b6000601f19601f8301169050919050565b6000610dd482610d72565b610dde8185610d7d565b9350610dee818560208601610d8e565b610df781610db8565b840191505092915050565b60006020820190508181036000830152610e1c8184610dc9565b905092915050565b600080fd5b600073ffffffffffffffffffffffffffffffffffffffff82169050919050565b6000610e5482610e29565b9050919050565b610e6481610e49565b8114610e6f57600080fd5b50565b600081359050610e8181610e5b565b92915050565b6000819050919050565b610e9a81610e87565b8114610ea557600080fd5b50565b600081359050610eb781610e91565b92915050565b60008060408385031215610ed457610ed3610e24565b5b6000610ee285828601610e72565b9250506020610ef385828601610ea8565b9150509250929050565b610f0681610e87565b82525050565b6000602082019050610f216000830184610efd565b92915050565b600080600060608486031215610f4057610f3f610e24565b5b6000610f4e86828701610e72565b9350506020610f5f86828701610e72565b9250506040610f7086828701610ea8565b9150509250925092565b600060ff82169050919050565b610f9081610f7a565b82525050565b6000602082019050610fab6000830184610f87565b92915050565b600060208284031215610fc757610fc6610e24565b5b6000610fd584828501610e72565b91505092915050565b610fe781610e49565b82525050565b60006020820190506110026000830184610fde565b92915050565b6000806040838503121561101f5761101e610e24565b5b600061102d85828601610e72565b925050602061103e85828601610e72565b9150509250929050565b7f46726f6d20646f65736e2774206861766520656e6f7567682062616c616e6365600082015250565b600061107e602083610d7d565b915061108982611048565b602082019050919050565b600060208201905081810360008301526110ad81611071565b9050919050565b7f6d73672e73656e64657220646f65736e2774206861766520656e6f756768206260008201527f616c616e63650000000000000000000000000000000000000000000000000000602082015250565b6000611110602683610d7d565b915061111b826110b4565b604082019050919050565b6000602082019050818103600083015261113f81611103565b9050919050565b7f4e487b7100000000000000000000000000000000000000000000000000000000600052600160045260246000fd5b7f4e487b7100000000000000000000000000000000000000000000000000000000600052601160045260246000fd5b60006111af82610e87565b91506111ba83610e87565b92508282039050818111156111d2576111d1611175565b5b92915050565b60006111e382610e87565b91506111ee83610e87565b925082820190508082111561120657611205611175565b5b9291505056fea2646970667358221220dbf720e14c9a6535ed145f53eb4f817d3802e228889b75211a3e43133c24054264736f6c63430008130033",
					"opcodes": "PUSH1 0x80 PUSH1 0x40 MSTORE CALLVALUE DUP1 ISZERO PUSH2 0x10 JUMPI PUSH1 0x0 DUP1 REVERT JUMPDEST POP PUSH1 0x0 PUSH1 0x40 MLOAD PUSH2 0x1F SWAP1 PUSH2 0xC5 JUMP JUMPDEST PUSH1 0x40 MLOAD DUP1 SWAP2 SUB SWAP1 PUSH1 0x0 CREATE DUP1 ISZERO DUP1 ISZERO PUSH2 0x3B JUMPI RETURNDATASIZE PUSH1 0x0 DUP1 RETURNDATACOPY RETURNDATASIZE PUSH1 0x0 REVERT JUMPDEST POP SWAP1 POP DUP1 PUSH1 0x0 DUP1 PUSH2 0x100 EXP DUP2 SLOAD DUP2 PUSH20 0xFFFFFFFFFFFFFFFFFFFFFFFFFFFFFFFFFFFFFFFF MUL NOT AND SWAP1 DUP4 PUSH20 0xFFFFFFFFFFFFFFFFFFFFFFFFFFFFFFFFFFFFFFFF AND MUL OR SWAP1 SSTORE POP CALLER PUSH1 0x1 PUSH1 0x0 PUSH2 0x100 EXP DUP2 SLOAD DUP2 PUSH20 0xFFFFFFFFFFFFFFFFFFFFFFFFFFFFFFFFFFFFFFFF MUL NOT AND SWAP1 DUP4 PUSH20 0xFFFFFFFFFFFFFFFFFFFFFFFFFFFFFFFFFFFFFFFF AND MUL OR SWAP1 SSTORE POP POP PUSH2 0xD2 JUMP JUMPDEST PUSH2 0x12BD DUP1 PUSH2 0x88F DUP4 CODECOPY ADD SWAP1 JUMP JUMPDEST PUSH2 0x7AE DUP1 PUSH2 0xE1 PUSH1 0x0 CODECOPY PUSH1 0x0 RETURN INVALID PUSH1 0x80 PUSH1 0x40 MSTORE PUSH1 0x4 CALLDATASIZE LT PUSH2 0x3F JUMPI PUSH1 0x0 CALLDATALOAD PUSH1 0xE0 SHR DUP1 PUSH4 0x3456EA30 EQ PUSH2 0x44 JUMPI DUP1 PUSH4 0x371AD447 EQ PUSH2 0x6D JUMPI DUP1 PUSH4 0x682E09B8 EQ PUSH2 0x96 JUMPI DUP1 PUSH4 0xB9B7650A EQ PUSH2 0xB4 JUMPI JUMPDEST PUSH1 0x0 DUP1 REVERT JUMPDEST CALLVALUE DUP1 ISZERO PUSH2 0x50 JUMPI PUSH1 0x0 DUP1 REVERT JUMPDEST POP PUSH2 0x6B PUSH1 0x4 DUP1 CALLDATASIZE SUB DUP2 ADD SWAP1 PUSH2 0x66 SWAP2 SWAP1 PUSH2 0x458 JUMP JUMPDEST PUSH2 0xF1 JUMP JUMPDEST STOP JUMPDEST CALLVALUE DUP1 ISZERO PUSH2 0x79 JUMPI PUSH1 0x0 DUP1 REVERT JUMPDEST POP PUSH2 0x94 PUSH1 0x4 DUP1 CALLDATASIZE SUB DUP2 ADD SWAP1 PUSH2 0x8F SWAP2 SWAP1 PUSH2 0x4AB JUMP JUMPDEST PUSH2 0x197 JUMP JUMPDEST STOP JUMPDEST PUSH2 0x9E PUSH2 0x23C JUMP JUMPDEST PUSH1 0x40 MLOAD PUSH2 0xAB SWAP2 SWAP1 PUSH2 0x4FA JUMP JUMPDEST PUSH1 0x40 MLOAD DUP1 SWAP2 SUB SWAP1 RETURN JUMPDEST CALLVALUE DUP1 ISZERO PUSH2 0xC0 JUMPI PUSH1 0x0 DUP1 REVERT JUMPDEST POP PUSH2 0xDB PUSH1 0x4 DUP1 CALLDATASIZE SUB DUP2 ADD SWAP1 PUSH2 0xD6 SWAP2 SWAP1 PUSH2 0x515 JUMP JUMPDEST PUSH2 0x317 JUMP JUMPDEST PUSH1 0x40 MLOAD PUSH2 0xE8 SWAP2 SWAP1 PUSH2 0x4FA JUMP JUMPDEST PUSH1 0x40 MLOAD DUP1 SWAP2 SUB SWAP1 RETURN JUMPDEST PUSH1 0x0 DUP1 SLOAD SWAP1 PUSH2 0x100 EXP SWAP1 DIV PUSH20 0xFFFFFFFFFFFFFFFFFFFFFFFFFFFFFFFFFFFFFFFF AND PUSH20 0xFFFFFFFFFFFFFFFFFFFFFFFFFFFFFFFFFFFFFFFF AND PUSH4 0x23B872DD DUP5 DUP5 DUP5 PUSH1 0x40 MLOAD DUP5 PUSH4 0xFFFFFFFF AND PUSH1 0xE0 SHL DUP2 MSTORE PUSH1 0x4 ADD PUSH2 0x14E SWAP4 SWAP3 SWAP2 SWAP1 PUSH2 0x551 JUMP JUMPDEST PUSH1 0x20 PUSH1 0x40 MLOAD DUP1 DUP4 SUB DUP2 PUSH1 0x0 DUP8 GAS CALL ISZERO DUP1 ISZERO PUSH2 0x16D JUMPI RETURNDATASIZE PUSH1 0x0 DUP1 RETURNDATACOPY RETURNDATASIZE PUSH1 0x0 REVERT JUMPDEST POP POP POP POP PUSH1 0x40 MLOAD RETURNDATASIZE PUSH1 0x1F NOT PUSH1 0x1F DUP3 ADD AND DUP3 ADD DUP1 PUSH1 0x40 MSTORE POP DUP2 ADD SWAP1 PUSH2 0x191 SWAP2 SWAP1 PUSH2 0x5C0 JUMP JUMPDEST POP POP POP POP JUMP JUMPDEST PUSH1 0x0 DUP1 SLOAD SWAP1 PUSH2 0x100 EXP SWAP1 DIV PUSH20 0xFFFFFFFFFFFFFFFFFFFFFFFFFFFFFFFFFFFFFFFF AND PUSH20 0xFFFFFFFFFFFFFFFFFFFFFFFFFFFFFFFFFFFFFFFF AND PUSH4 0x23B872DD CALLER DUP5 DUP5 PUSH1 0x40 MLOAD DUP5 PUSH4 0xFFFFFFFF AND PUSH1 0xE0 SHL DUP2 MSTORE PUSH1 0x4 ADD PUSH2 0x1F4 SWAP4 SWAP3 SWAP2 SWAP1 PUSH2 0x551 JUMP JUMPDEST PUSH1 0x20 PUSH1 0x40 MLOAD DUP1 DUP4 SUB DUP2 PUSH1 0x0 DUP8 GAS CALL ISZERO DUP1 ISZERO PUSH2 0x213 JUMPI RETURNDATASIZE PUSH1 0x0 DUP1 RETURNDATACOPY RETURNDATASIZE PUSH1 0x0 REVERT JUMPDEST POP POP POP POP PUSH1 0x40 MLOAD RETURNDATASIZE PUSH1 0x1F NOT PUSH1 0x1F DUP3 ADD AND DUP3 ADD DUP1 PUSH1 0x40 MSTORE POP DUP2 ADD SWAP1 PUSH2 0x237 SWAP2 SWAP1 PUSH2 0x5C0 JUMP JUMPDEST POP POP POP JUMP JUMPDEST PUSH1 0x0 DUP1 CALLVALUE SWAP1 POP PUSH1 0xC8 DUP2 LT PUSH2 0x271 JUMPI PUSH1 0x5 PUSH1 0xC8 DUP3 PUSH2 0x259 SWAP2 SWAP1 PUSH2 0x64B JUMP JUMPDEST PUSH2 0x263 SWAP2 SWAP1 PUSH2 0x67C JUMP JUMPDEST DUP2 PUSH2 0x26E SWAP2 SWAP1 PUSH2 0x6BE JUMP JUMPDEST SWAP1 POP JUMPDEST PUSH1 0x0 DUP1 SLOAD SWAP1 PUSH2 0x100 EXP SWAP1 DIV PUSH20 0xFFFFFFFFFFFFFFFFFFFFFFFFFFFFFFFFFFFFFFFF AND PUSH20 0xFFFFFFFFFFFFFFFFFFFFFFFFFFFFFFFFFFFFFFFF AND PUSH4 0x40C10F19 CALLER DUP4 PUSH1 0x40 MLOAD DUP4 PUSH4 0xFFFFFFFF AND PUSH1 0xE0 SHL DUP2 MSTORE PUSH1 0x4 ADD PUSH2 0x2CC SWAP3 SWAP2 SWAP1 PUSH2 0x6F2 JUMP JUMPDEST PUSH1 0x20 PUSH1 0x40 MLOAD DUP1 DUP4 SUB DUP2 PUSH1 0x0 DUP8 GAS CALL ISZERO DUP1 ISZERO PUSH2 0x2EB JUMPI RETURNDATASIZE PUSH1 0x0 DUP1 RETURNDATACOPY RETURNDATASIZE PUSH1 0x0 REVERT JUMPDEST POP POP POP POP PUSH1 0x40 MLOAD RETURNDATASIZE PUSH1 0x1F NOT PUSH1 0x1F DUP3 ADD AND DUP3 ADD DUP1 PUSH1 0x40 MSTORE POP DUP2 ADD SWAP1 PUSH2 0x30F SWAP2 SWAP1 PUSH2 0x5C0 JUMP JUMPDEST POP DUP1 SWAP2 POP POP SWAP1 JUMP JUMPDEST PUSH1 0x0 DUP1 PUSH1 0x0 DUP1 SLOAD SWAP1 PUSH2 0x100 EXP SWAP1 DIV PUSH20 0xFFFFFFFFFFFFFFFFFFFFFFFFFFFFFFFFFFFFFFFF AND PUSH20 0xFFFFFFFFFFFFFFFFFFFFFFFFFFFFFFFFFFFFFFFF AND PUSH4 0x70A08231 DUP5 PUSH1 0x40 MLOAD DUP3 PUSH4 0xFFFFFFFF AND PUSH1 0xE0 SHL DUP2 MSTORE PUSH1 0x4 ADD PUSH2 0x373 SWAP2 SWAP1 PUSH2 0x71B JUMP JUMPDEST PUSH1 0x20 PUSH1 0x40 MLOAD DUP1 DUP4 SUB DUP2 DUP7 GAS STATICCALL ISZERO DUP1 ISZERO PUSH2 0x390 JUMPI RETURNDATASIZE PUSH1 0x0 DUP1 RETURNDATACOPY RETURNDATASIZE PUSH1 0x0 REVERT JUMPDEST POP POP POP POP PUSH1 0x40 MLOAD RETURNDATASIZE PUSH1 0x1F NOT PUSH1 0x1F DUP3 ADD AND DUP3 ADD DUP1 PUSH1 0x40 MSTORE POP DUP2 ADD SWAP1 PUSH2 0x3B4 SWAP2 SWAP1 PUSH2 0x74B JUMP JUMPDEST SWAP1 POP DUP1 SWAP2 POP POP SWAP2 SWAP1 POP JUMP JUMPDEST PUSH1 0x0 DUP1 REVERT JUMPDEST PUSH1 0x0 PUSH20 0xFFFFFFFFFFFFFFFFFFFFFFFFFFFFFFFFFFFFFFFF DUP3 AND SWAP1 POP SWAP2 SWAP1 POP JUMP JUMPDEST PUSH1 0x0 PUSH2 0x3EF DUP3 PUSH2 0x3C4 JUMP JUMPDEST SWAP1 POP SWAP2 SWAP1 POP JUMP JUMPDEST PUSH2 0x3FF DUP2 PUSH2 0x3E4 JUMP JUMPDEST DUP2 EQ PUSH2 0x40A JUMPI PUSH1 0x0 DUP1 REVERT JUMPDEST POP JUMP JUMPDEST PUSH1 0x0 DUP2 CALLDATALOAD SWAP1 POP PUSH2 0x41C DUP2 PUSH2 0x3F6 JUMP JUMPDEST SWAP3 SWAP2 POP POP JUMP JUMPDEST PUSH1 0x0 DUP2 SWAP1 POP SWAP2 SWAP1 POP JUMP JUMPDEST PUSH2 0x435 DUP2 PUSH2 0x422 JUMP JUMPDEST DUP2 EQ PUSH2 0x440 JUMPI PUSH1 0x0 DUP1 REVERT JUMPDEST POP JUMP JUMPDEST PUSH1 0x0 DUP2 CALLDATALOAD SWAP1 POP PUSH2 0x452 DUP2 PUSH2 0x42C JUMP JUMPDEST SWAP3 SWAP2 POP POP JUMP JUMPDEST PUSH1 0x0 DUP1 PUSH1 0x0 PUSH1 0x60 DUP5 DUP7 SUB SLT ISZERO PUSH2 0x471 JUMPI PUSH2 0x470 PUSH2 0x3BF JUMP JUMPDEST JUMPDEST PUSH1 0x0 PUSH2 0x47F DUP7 DUP3 DUP8 ADD PUSH2 0x40D JUMP JUMPDEST SWAP4 POP POP PUSH1 0x20 PUSH2 0x490 DUP7 DUP3 DUP8 ADD PUSH2 0x40D JUMP JUMPDEST SWAP3 POP POP PUSH1 0x40 PUSH2 0x4A1 DUP7 DUP3 DUP8 ADD PUSH2 0x443 JUMP JUMPDEST SWAP2 POP POP SWAP3 POP SWAP3 POP SWAP3 JUMP JUMPDEST PUSH1 0x0 DUP1 PUSH1 0x40 DUP4 DUP6 SUB SLT ISZERO PUSH2 0x4C2 JUMPI PUSH2 0x4C1 PUSH2 0x3BF JUMP JUMPDEST JUMPDEST PUSH1 0x0 PUSH2 0x4D0 DUP6 DUP3 DUP7 ADD PUSH2 0x40D JUMP JUMPDEST SWAP3 POP POP PUSH1 0x20 PUSH2 0x4E1 DUP6 DUP3 DUP7 ADD PUSH2 0x443 JUMP JUMPDEST SWAP2 POP POP SWAP3 POP SWAP3 SWAP1 POP JUMP JUMPDEST PUSH2 0x4F4 DUP2 PUSH2 0x422 JUMP JUMPDEST DUP3 MSTORE POP POP JUMP JUMPDEST PUSH1 0x0 PUSH1 0x20 DUP3 ADD SWAP1 POP PUSH2 0x50F PUSH1 0x0 DUP4 ADD DUP5 PUSH2 0x4EB JUMP JUMPDEST SWAP3 SWAP2 POP POP JUMP JUMPDEST PUSH1 0x0 PUSH1 0x20 DUP3 DUP5 SUB SLT ISZERO PUSH2 0x52B JUMPI PUSH2 0x52A PUSH2 0x3BF JUMP JUMPDEST JUMPDEST PUSH1 0x0 PUSH2 0x539 DUP5 DUP3 DUP6 ADD PUSH2 0x40D JUMP JUMPDEST SWAP2 POP POP SWAP3 SWAP2 POP POP JUMP JUMPDEST PUSH2 0x54B DUP2 PUSH2 0x3E4 JUMP JUMPDEST DUP3 MSTORE POP POP JUMP JUMPDEST PUSH1 0x0 PUSH1 0x60 DUP3 ADD SWAP1 POP PUSH2 0x566 PUSH1 0x0 DUP4 ADD DUP7 PUSH2 0x542 JUMP JUMPDEST PUSH2 0x573 PUSH1 0x20 DUP4 ADD DUP6 PUSH2 0x542 JUMP JUMPDEST PUSH2 0x580 PUSH1 0x40 DUP4 ADD DUP5 PUSH2 0x4EB JUMP JUMPDEST SWAP5 SWAP4 POP POP POP POP JUMP JUMPDEST PUSH1 0x0 DUP2 ISZERO ISZERO SWAP1 POP SWAP2 SWAP1 POP JUMP JUMPDEST PUSH2 0x59D DUP2 PUSH2 0x588 JUMP JUMPDEST DUP2 EQ PUSH2 0x5A8 JUMPI PUSH1 0x0 DUP1 REVERT JUMPDEST POP JUMP JUMPDEST PUSH1 0x0 DUP2 MLOAD SWAP1 POP PUSH2 0x5BA DUP2 PUSH2 0x594 JUMP JUMPDEST SWAP3 SWAP2 POP POP JUMP JUMPDEST PUSH1 0x0 PUSH1 0x20 DUP3 DUP5 SUB SLT ISZERO PUSH2 0x5D6 JUMPI PUSH2 0x5D5 PUSH2 0x3BF JUMP JUMPDEST JUMPDEST PUSH1 0x0 PUSH2 0x5E4 DUP5 DUP3 DUP6 ADD PUSH2 0x5AB JUMP JUMPDEST SWAP2 POP POP SWAP3 SWAP2 POP POP JUMP JUMPDEST PUSH32 0x4E487B7100000000000000000000000000000000000000000000000000000000 PUSH1 0x0 MSTORE PUSH1 0x12 PUSH1 0x4 MSTORE PUSH1 0x24 PUSH1 0x0 REVERT JUMPDEST PUSH32 0x4E487B7100000000000000000000000000000000000000000000000000000000 PUSH1 0x0 MSTORE PUSH1 0x11 PUSH1 0x4 MSTORE PUSH1 0x24 PUSH1 0x0 REVERT JUMPDEST PUSH1 0x0 PUSH2 0x656 DUP3 PUSH2 0x422 JUMP JUMPDEST SWAP2 POP PUSH2 0x661 DUP4 PUSH2 0x422 JUMP JUMPDEST SWAP3 POP DUP3 PUSH2 0x671 JUMPI PUSH2 0x670 PUSH2 0x5ED JUMP JUMPDEST JUMPDEST DUP3 DUP3 DIV SWAP1 POP SWAP3 SWAP2 POP POP JUMP JUMPDEST PUSH1 0x0 PUSH2 0x687 DUP3 PUSH2 0x422 JUMP JUMPDEST SWAP2 POP PUSH2 0x692 DUP4 PUSH2 0x422 JUMP JUMPDEST SWAP3 POP DUP3 DUP3 MUL PUSH2 0x6A0 DUP2 PUSH2 0x422 JUMP JUMPDEST SWAP2 POP DUP3 DUP3 DIV DUP5 EQ DUP4 ISZERO OR PUSH2 0x6B7 JUMPI PUSH2 0x6B6 PUSH2 0x61C JUMP JUMPDEST JUMPDEST POP SWAP3 SWAP2 POP POP JUMP JUMPDEST PUSH1 0x0 PUSH2 0x6C9 DUP3 PUSH2 0x422 JUMP JUMPDEST SWAP2 POP PUSH2 0x6D4 DUP4 PUSH2 0x422 JUMP JUMPDEST SWAP3 POP DUP3 DUP3 ADD SWAP1 POP DUP1 DUP3 GT ISZERO PUSH2 0x6EC JUMPI PUSH2 0x6EB PUSH2 0x61C JUMP JUMPDEST JUMPDEST SWAP3 SWAP2 POP POP JUMP JUMPDEST PUSH1 0x0 PUSH1 0x40 DUP3 ADD SWAP1 POP PUSH2 0x707 PUSH1 0x0 DUP4 ADD DUP6 PUSH2 0x542 JUMP JUMPDEST PUSH2 0x714 PUSH1 0x20 DUP4 ADD DUP5 PUSH2 0x4EB JUMP JUMPDEST SWAP4 SWAP3 POP POP POP JUMP JUMPDEST PUSH1 0x0 PUSH1 0x20 DUP3 ADD SWAP1 POP PUSH2 0x730 PUSH1 0x0 DUP4 ADD DUP5 PUSH2 0x542 JUMP JUMPDEST SWAP3 SWAP2 POP POP JUMP JUMPDEST PUSH1 0x0 DUP2 MLOAD SWAP1 POP PUSH2 0x745 DUP2 PUSH2 0x42C JUMP JUMPDEST SWAP3 SWAP2 POP POP JUMP JUMPDEST PUSH1 0x0 PUSH1 0x20 DUP3 DUP5 SUB SLT ISZERO PUSH2 0x761 JUMPI PUSH2 0x760 PUSH2 0x3BF JUMP JUMPDEST JUMPDEST PUSH1 0x0 PUSH2 0x76F DUP5 DUP3 DUP6 ADD PUSH2 0x736 JUMP JUMPDEST SWAP2 POP POP SWAP3 SWAP2 POP POP JUMP INVALID LOG2 PUSH5 0x6970667358 0x22 SLT KECCAK256 PUSH21 0x52C5B1DBACD19F0075D26F9B78490EB1F6E072684B 0xC5 0x21 PUSH18 0xF5B0A8866FE50F64736F6C63430008130033 PUSH1 0x80 PUSH1 0x40 MSTORE PUSH1 0x0 DUP1 PUSH1 0x0 PUSH2 0x100 EXP DUP2 SLOAD DUP2 PUSH1 0xFF MUL NOT AND SWAP1 DUP4 ISZERO ISZERO MUL OR SWAP1 SSTORE POP CALLER PUSH1 0x0 PUSH1 0x1 PUSH2 0x100 EXP DUP2 SLOAD DUP2 PUSH20 0xFFFFFFFFFFFFFFFFFFFFFFFFFFFFFFFFFFFFFFFF MUL NOT AND SWAP1 DUP4 PUSH20 0xFFFFFFFFFFFFFFFFFFFFFFFFFFFFFFFFFFFFFFFF AND MUL OR SWAP1 SSTORE POP CALLVALUE DUP1 ISZERO PUSH2 0x6B JUMPI PUSH1 0x0 DUP1 REVERT JUMPDEST POP PUSH2 0x1242 DUP1 PUSH2 0x7B PUSH1 0x0 CODECOPY PUSH1 0x0 RETURN INVALID PUSH1 0x80 PUSH1 0x40 MSTORE CALLVALUE DUP1 ISZERO PUSH2 0x10 JUMPI PUSH1 0x0 DUP1 REVERT JUMPDEST POP PUSH1 0x4 CALLDATASIZE LT PUSH2 0xEA JUMPI PUSH1 0x0 CALLDATALOAD PUSH1 0xE0 SHR DUP1 PUSH4 0x70A08231 GT PUSH2 0x8C JUMPI DUP1 PUSH4 0x8DA5CB5B GT PUSH2 0x66 JUMPI DUP1 PUSH4 0x8DA5CB5B EQ PUSH2 0x263 JUMPI DUP1 PUSH4 0x95D89B41 EQ PUSH2 0x281 JUMPI DUP1 PUSH4 0xA9059CBB EQ PUSH2 0x29F JUMPI DUP1 PUSH4 0xDD62ED3E EQ PUSH2 0x2CF JUMPI PUSH2 0xEA JUMP JUMPDEST DUP1 PUSH4 0x70A08231 EQ PUSH2 0x1F7 JUMPI DUP1 PUSH4 0x7D64BCB4 EQ PUSH2 0x227 JUMPI DUP1 PUSH4 0x893D20E8 EQ PUSH2 0x245 JUMPI PUSH2 0xEA JUMP JUMPDEST DUP1 PUSH4 0x18160DDD GT PUSH2 0xC8 JUMPI DUP1 PUSH4 0x18160DDD EQ PUSH2 0x15B JUMPI DUP1 PUSH4 0x23B872DD EQ PUSH2 0x179 JUMPI DUP1 PUSH4 0x313CE567 EQ PUSH2 0x1A9 JUMPI DUP1 PUSH4 0x40C10F19 EQ PUSH2 0x1C7 JUMPI PUSH2 0xEA JUMP JUMPDEST DUP1 PUSH4 0x5D2035B EQ PUSH2 0xEF JUMPI DUP1 PUSH4 0x6FDDE03 EQ PUSH2 0x10D JUMPI DUP1 PUSH4 0x95EA7B3 EQ PUSH2 0x12B JUMPI JUMPDEST PUSH1 0x0 DUP1 REVERT JUMPDEST PUSH2 0xF7 PUSH2 0x2FF JUMP JUMPDEST PUSH1 0x40 MLOAD PUSH2 0x104 SWAP2 SWAP1 PUSH2 0xD57 JUMP JUMPDEST PUSH1 0x40 MLOAD DUP1 SWAP2 SUB SWAP1 RETURN JUMPDEST PUSH2 0x115 PUSH2 0x310 JUMP JUMPDEST PUSH1 0x40 MLOAD PUSH2 0x122 SWAP2 SWAP1 PUSH2 0xE02 JUMP JUMPDEST PUSH1 0x40 MLOAD DUP1 SWAP2 SUB SWAP1 RETURN JUMPDEST PUSH2 0x145 PUSH1 0x4 DUP1 CALLDATASIZE SUB DUP2 ADD SWAP1 PUSH2 0x140 SWAP2 SWAP1 PUSH2 0xEBD JUMP JUMPDEST PUSH2 0x349 JUMP JUMPDEST PUSH1 0x40 MLOAD PUSH2 0x152 SWAP2 SWAP1 PUSH2 0xD57 JUMP JUMPDEST PUSH1 0x40 MLOAD DUP1 SWAP2 SUB SWAP1 RETURN JUMPDEST PUSH2 0x163 PUSH2 0x43B JUMP JUMPDEST PUSH1 0x40 MLOAD PUSH2 0x170 SWAP2 SWAP1 PUSH2 0xF0C JUMP JUMPDEST PUSH1 0x40 MLOAD DUP1 SWAP2 SUB SWAP1 RETURN JUMPDEST PUSH2 0x193 PUSH1 0x4 DUP1 CALLDATASIZE SUB DUP2 ADD SWAP1 PUSH2 0x18E SWAP2 SWAP1 PUSH2 0xF27 JUMP JUMPDEST PUSH2 0x445 JUMP JUMPDEST PUSH1 0x40 MLOAD PUSH2 0x1A0 SWAP2 SWAP1 PUSH2 0xD57 JUMP JUMPDEST PUSH1 0x40 MLOAD DUP1 SWAP2 SUB SWAP1 RETURN JUMPDEST PUSH2 0x1B1 PUSH2 0x69B JUMP JUMPDEST PUSH1 0x40 MLOAD PUSH2 0x1BE SWAP2 SWAP1 PUSH2 0xF96 JUMP JUMPDEST PUSH1 0x40 MLOAD DUP1 SWAP2 SUB SWAP1 RETURN JUMPDEST PUSH2 0x1E1 PUSH1 0x4 DUP1 CALLDATASIZE SUB DUP2 ADD SWAP1 PUSH2 0x1DC SWAP2 SWAP1 PUSH2 0xEBD JUMP JUMPDEST PUSH2 0x6A0 JUMP JUMPDEST PUSH1 0x40 MLOAD PUSH2 0x1EE SWAP2 SWAP1 PUSH2 0xD57 JUMP JUMPDEST PUSH1 0x40 MLOAD DUP1 SWAP2 SUB SWAP1 RETURN JUMPDEST PUSH2 0x211 PUSH1 0x4 DUP1 CALLDATASIZE SUB DUP2 ADD SWAP1 PUSH2 0x20C SWAP2 SWAP1 PUSH2 0xFB1 JUMP JUMPDEST PUSH2 0x881 JUMP JUMPDEST PUSH1 0x40 MLOAD PUSH2 0x21E SWAP2 SWAP1 PUSH2 0xF0C JUMP JUMPDEST PUSH1 0x40 MLOAD DUP1 SWAP2 SUB SWAP1 RETURN JUMPDEST PUSH2 0x22F PUSH2 0x8CA JUMP JUMPDEST PUSH1 0x40 MLOAD PUSH2 0x23C SWAP2 SWAP1 PUSH2 0xD57 JUMP JUMPDEST PUSH1 0x40 MLOAD DUP1 SWAP2 SUB SWAP1 RETURN JUMPDEST PUSH2 0x24D PUSH2 0x98A JUMP JUMPDEST PUSH1 0x40 MLOAD PUSH2 0x25A SWAP2 SWAP1 PUSH2 0xFED JUMP JUMPDEST PUSH1 0x40 MLOAD DUP1 SWAP2 SUB SWAP1 RETURN JUMPDEST PUSH2 0x26B PUSH2 0x9B3 JUMP JUMPDEST PUSH1 0x40 MLOAD PUSH2 0x278 SWAP2 SWAP1 PUSH2 0xFED JUMP JUMPDEST PUSH1 0x40 MLOAD DUP1 SWAP2 SUB SWAP1 RETURN JUMPDEST PUSH2 0x289 PUSH2 0x9D9 JUMP JUMPDEST PUSH1 0x40 MLOAD PUSH2 0x296 SWAP2 SWAP1 PUSH2 0xE02 JUMP JUMPDEST PUSH1 0x40 MLOAD DUP1 SWAP2 SUB SWAP1 RETURN JUMPDEST PUSH2 0x2B9 PUSH1 0x4 DUP1 CALLDATASIZE SUB DUP2 ADD SWAP1 PUSH2 0x2B4 SWAP2 SWAP1 PUSH2 0xEBD JUMP JUMPDEST PUSH2 0xA12 JUMP JUMPDEST PUSH1 0x40 MLOAD PUSH2 0x2C6 SWAP2 SWAP1 PUSH2 0xD57 JUMP JUMPDEST PUSH1 0x40 MLOAD DUP1 SWAP2 SUB SWAP1 RETURN JUMPDEST PUSH2 0x2E9 PUSH1 0x4 DUP1 CALLDATASIZE SUB DUP2 ADD SWAP1 PUSH2 0x2E4 SWAP2 SWAP1 PUSH2 0x1008 JUMP JUMPDEST PUSH2 0xC67 JUMP JUMPDEST PUSH1 0x40 MLOAD PUSH2 0x2F6 SWAP2 SWAP1 PUSH2 0xF0C JUMP JUMPDEST PUSH1 0x40 MLOAD DUP1 SWAP2 SUB SWAP1 RETURN JUMPDEST PUSH1 0x0 DUP1 SLOAD SWAP1 PUSH2 0x100 EXP SWAP1 DIV PUSH1 0xFF AND DUP2 JUMP JUMPDEST PUSH1 0x40 MLOAD DUP1 PUSH1 0x40 ADD PUSH1 0x40 MSTORE DUP1 PUSH1 0xB DUP2 MSTORE PUSH1 0x20 ADD PUSH32 0x5472757374496E73757265000000000000000000000000000000000000000000 DUP2 MSTORE POP DUP2 JUMP JUMPDEST PUSH1 0x0 DUP2 PUSH1 0x1 PUSH1 0x0 CALLER PUSH20 0xFFFFFFFFFFFFFFFFFFFFFFFFFFFFFFFFFFFFFFFF AND PUSH20 0xFFFFFFFFFFFFFFFFFFFFFFFFFFFFFFFFFFFFFFFF AND DUP2 MSTORE PUSH1 0x20 ADD SWAP1 DUP2 MSTORE PUSH1 0x20 ADD PUSH1 0x0 KECCAK256 PUSH1 0x0 DUP6 PUSH20 0xFFFFFFFFFFFFFFFFFFFFFFFFFFFFFFFFFFFFFFFF AND PUSH20 0xFFFFFFFFFFFFFFFFFFFFFFFFFFFFFFFFFFFFFFFF AND DUP2 MSTORE PUSH1 0x20 ADD SWAP1 DUP2 MSTORE PUSH1 0x20 ADD PUSH1 0x0 KECCAK256 DUP2 SWAP1 SSTORE POP DUP3 PUSH20 0xFFFFFFFFFFFFFFFFFFFFFFFFFFFFFFFFFFFFFFFF AND CALLER PUSH20 0xFFFFFFFFFFFFFFFFFFFFFFFFFFFFFFFFFFFFFFFF AND PUSH32 0x8C5BE1E5EBEC7D5BD14F71427D1E84F3DD0314C0F7B2291E5B200AC8C7C3B925 DUP5 PUSH1 0x40 MLOAD PUSH2 0x429 SWAP2 SWAP1 PUSH2 0xF0C JUMP JUMPDEST PUSH1 0x40 MLOAD DUP1 SWAP2 SUB SWAP1 LOG3 PUSH1 0x1 SWAP1 POP SWAP3 SWAP2 POP POP JUMP JUMPDEST PUSH1 0x0 PUSH1 0x3 SLOAD SWAP1 POP SWAP1 JUMP JUMPDEST PUSH1 0x0 DUP1 PUSH20 0xFFFFFFFFFFFFFFFFFFFFFFFFFFFFFFFFFFFFFFFF AND DUP4 PUSH20 0xFFFFFFFFFFFFFFFFFFFFFFFFFFFFFFFFFFFFFFFF AND SUB PUSH2 0x47F JUMPI PUSH1 0x0 DUP1 REVERT JUMPDEST PUSH1 0x2 PUSH1 0x0 DUP6 PUSH20 0xFFFFFFFFFFFFFFFFFFFFFFFFFFFFFFFFFFFFFFFF AND PUSH20 0xFFFFFFFFFFFFFFFFFFFFFFFFFFFFFFFFFFFFFFFF AND DUP2 MSTORE PUSH1 0x20 ADD SWAP1 DUP2 MSTORE PUSH1 0x20 ADD PUSH1 0x0 KECCAK256 SLOAD DUP3 GT ISZERO PUSH2 0x501 JUMPI PUSH1 0x40 MLOAD PUSH32 0x8C379A000000000000000000000000000000000000000000000000000000000 DUP2 MSTORE PUSH1 0x4 ADD PUSH2 0x4F8 SWAP1 PUSH2 0x1094 JUMP JUMPDEST PUSH1 0x40 MLOAD DUP1 SWAP2 SUB SWAP1 REVERT JUMPDEST PUSH2 0x553 DUP3 PUSH1 0x2 PUSH1 0x0 DUP8 PUSH20 0xFFFFFFFFFFFFFFFFFFFFFFFFFFFFFFFFFFFFFFFF AND PUSH20 0xFFFFFFFFFFFFFFFFFFFFFFFFFFFFFFFFFFFFFFFF AND DUP2 MSTORE PUSH1 0x20 ADD SWAP1 DUP2 MSTORE PUSH1 0x20 ADD PUSH1 0x0 KECCAK256 SLOAD PUSH2 0xCEE SWAP1 SWAP2 SWAP1 PUSH4 0xFFFFFFFF AND JUMP JUMPDEST PUSH1 0x2 PUSH1 0x0 DUP7 PUSH20 0xFFFFFFFFFFFFFFFFFFFFFFFFFFFFFFFFFFFFFFFF AND PUSH20 0xFFFFFFFFFFFFFFFFFFFFFFFFFFFFFFFFFFFFFFFF AND DUP2 MSTORE PUSH1 0x20 ADD SWAP1 DUP2 MSTORE PUSH1 0x20 ADD PUSH1 0x0 KECCAK256 DUP2 SWAP1 SSTORE POP PUSH2 0x5E8 DUP3 PUSH1 0x2 PUSH1 0x0 DUP7 PUSH20 0xFFFFFFFFFFFFFFFFFFFFFFFFFFFFFFFFFFFFFFFF AND PUSH20 0xFFFFFFFFFFFFFFFFFFFFFFFFFFFFFFFFFFFFFFFF AND DUP2 MSTORE PUSH1 0x20 ADD SWAP1 DUP2 MSTORE PUSH1 0x20 ADD PUSH1 0x0 KECCAK256 SLOAD PUSH2 0xD15 SWAP1 SWAP2 SWAP1 PUSH4 0xFFFFFFFF AND JUMP JUMPDEST PUSH1 0x2 PUSH1 0x0 DUP6 PUSH20 0xFFFFFFFFFFFFFFFFFFFFFFFFFFFFFFFFFFFFFFFF AND PUSH20 0xFFFFFFFFFFFFFFFFFFFFFFFFFFFFFFFFFFFFFFFF AND DUP2 MSTORE PUSH1 0x20 ADD SWAP1 DUP2 MSTORE PUSH1 0x20 ADD PUSH1 0x0 KECCAK256 DUP2 SWAP1 SSTORE POP DUP3 PUSH20 0xFFFFFFFFFFFFFFFFFFFFFFFFFFFFFFFFFFFFFFFF AND DUP5 PUSH20 0xFFFFFFFFFFFFFFFFFFFFFFFFFFFFFFFFFFFFFFFF AND PUSH32 0xDDF252AD1BE2C89B69C2B068FC378DAA952BA7F163C4A11628F55A4DF523B3EF DUP5 PUSH1 0x40 MLOAD PUSH2 0x688 SWAP2 SWAP1 PUSH2 0xF0C JUMP JUMPDEST PUSH1 0x40 MLOAD DUP1 SWAP2 SUB SWAP1 LOG3 PUSH1 0x1 SWAP1 POP SWAP4 SWAP3 POP POP POP JUMP JUMPDEST PUSH1 0x12 DUP2 JUMP JUMPDEST PUSH1 0x0 DUP1 PUSH1 0x1 SWAP1 SLOAD SWAP1 PUSH2 0x100 EXP SWAP1 DIV PUSH20 0xFFFFFFFFFFFFFFFFFFFFFFFFFFFFFFFFFFFFFFFF AND PUSH20 0xFFFFFFFFFFFFFFFFFFFFFFFFFFFFFFFFFFFFFFFF AND CALLER PUSH20 0xFFFFFFFFFFFFFFFFFFFFFFFFFFFFFFFFFFFFFFFF AND EQ PUSH2 0x6FB JUMPI PUSH1 0x0 DUP1 REVERT JUMPDEST PUSH1 0x0 DUP1 SLOAD SWAP1 PUSH2 0x100 EXP SWAP1 DIV PUSH1 0xFF AND ISZERO PUSH2 0x713 JUMPI PUSH1 0x0 DUP1 REVERT JUMPDEST PUSH2 0x728 DUP3 PUSH1 0x3 SLOAD PUSH2 0xD15 SWAP1 SWAP2 SWAP1 PUSH4 0xFFFFFFFF AND JUMP JUMPDEST PUSH1 0x3 DUP2 SWAP1 SSTORE POP PUSH2 0x780 DUP3 PUSH1 0x2 PUSH1 0x0 DUP7 PUSH20 0xFFFFFFFFFFFFFFFFFFFFFFFFFFFFFFFFFFFFFFFF AND PUSH20 0xFFFFFFFFFFFFFFFFFFFFFFFFFFFFFFFFFFFFFFFF AND DUP2 MSTORE PUSH1 0x20 ADD SWAP1 DUP2 MSTORE PUSH1 0x20 ADD PUSH1 0x0 KECCAK256 SLOAD PUSH2 0xD15 SWAP1 SWAP2 SWAP1 PUSH4 0xFFFFFFFF AND JUMP JUMPDEST PUSH1 0x2 PUSH1 0x0 DUP6 PUSH20 0xFFFFFFFFFFFFFFFFFFFFFFFFFFFFFFFFFFFFFFFF AND PUSH20 0xFFFFFFFFFFFFFFFFFFFFFFFFFFFFFFFFFFFFFFFF AND DUP2 MSTORE PUSH1 0x20 ADD SWAP1 DUP2 MSTORE PUSH1 0x20 ADD PUSH1 0x0 KECCAK256 DUP2 SWAP1 SSTORE POP DUP3 PUSH20 0xFFFFFFFFFFFFFFFFFFFFFFFFFFFFFFFFFFFFFFFF AND PUSH32 0xF6798A560793A54C3BCFE86A93CDE1E73087D944C0EA20544137D4121396885 DUP4 PUSH1 0x40 MLOAD PUSH2 0x809 SWAP2 SWAP1 PUSH2 0xF0C JUMP JUMPDEST PUSH1 0x40 MLOAD DUP1 SWAP2 SUB SWAP1 LOG2 DUP3 PUSH20 0xFFFFFFFFFFFFFFFFFFFFFFFFFFFFFFFFFFFFFFFF AND PUSH1 0x0 PUSH20 0xFFFFFFFFFFFFFFFFFFFFFFFFFFFFFFFFFFFFFFFF AND PUSH32 0xDDF252AD1BE2C89B69C2B068FC378DAA952BA7F163C4A11628F55A4DF523B3EF DUP5 PUSH1 0x40 MLOAD PUSH2 0x86F SWAP2 SWAP1 PUSH2 0xF0C JUMP JUMPDEST PUSH1 0x40 MLOAD DUP1 SWAP2 SUB SWAP1 LOG3 PUSH1 0x1 SWAP1 POP SWAP3 SWAP2 POP POP JUMP JUMPDEST PUSH1 0x0 PUSH1 0x2 PUSH1 0x0 DUP4 PUSH20 0xFFFFFFFFFFFFFFFFFFFFFFFFFFFFFFFFFFFFFFFF AND PUSH20 0xFFFFFFFFFFFFFFFFFFFFFFFFFFFFFFFFFFFFFFFF AND DUP2 MSTORE PUSH1 0x20 ADD SWAP1 DUP2 MSTORE PUSH1 0x20 ADD PUSH1 0x0 KECCAK256 SLOAD SWAP1 POP SWAP2 SWAP1 POP JUMP JUMPDEST PUSH1 0x0 DUP1 PUSH1 0x1 SWAP1 SLOAD SWAP1 PUSH2 0x100 EXP SWAP1 DIV PUSH20 0xFFFFFFFFFFFFFFFFFFFFFFFFFFFFFFFFFFFFFFFF AND PUSH20 0xFFFFFFFFFFFFFFFFFFFFFFFFFFFFFFFFFFFFFFFF AND CALLER PUSH20 0xFFFFFFFFFFFFFFFFFFFFFFFFFFFFFFFFFFFFFFFF AND EQ PUSH2 0x925 JUMPI PUSH1 0x0 DUP1 REVERT JUMPDEST PUSH1 0x0 DUP1 SLOAD SWAP1 PUSH2 0x100 EXP SWAP1 DIV PUSH1 0xFF AND ISZERO PUSH2 0x93D JUMPI PUSH1 0x0 DUP1 REVERT JUMPDEST PUSH1 0x1 PUSH1 0x0 DUP1 PUSH2 0x100 EXP DUP2 SLOAD DUP2 PUSH1 0xFF MUL NOT AND SWAP1 DUP4 ISZERO ISZERO MUL OR SWAP1 SSTORE POP PUSH32 0xAE5184FBA832CB2B1F702ACA6117B8D265EAF03AD33EB133F19DDE0F5920FA08 PUSH1 0x40 MLOAD PUSH1 0x40 MLOAD DUP1 SWAP2 SUB SWAP1 LOG1 PUSH1 0x1 SWAP1 POP SWAP1 JUMP JUMPDEST PUSH1 0x0 DUP1 PUSH1 0x1 SWAP1 SLOAD SWAP1 PUSH2 0x100 EXP SWAP1 DIV PUSH20 0xFFFFFFFFFFFFFFFFFFFFFFFFFFFFFFFFFFFFFFFF AND SWAP1 POP SWAP1 JUMP JUMPDEST PUSH1 0x0 PUSH1 0x1 SWAP1 SLOAD SWAP1 PUSH2 0x100 EXP SWAP1 DIV PUSH20 0xFFFFFFFFFFFFFFFFFFFFFFFFFFFFFFFFFFFFFFFF AND DUP2 JUMP JUMPDEST PUSH1 0x40 MLOAD DUP1 PUSH1 0x40 ADD PUSH1 0x40 MSTORE DUP1 PUSH1 0x2 DUP2 MSTORE PUSH1 0x20 ADD PUSH32 0x5449000000000000000000000000000000000000000000000000000000000000 DUP2 MSTORE POP DUP2 JUMP JUMPDEST PUSH1 0x0 DUP1 PUSH20 0xFFFFFFFFFFFFFFFFFFFFFFFFFFFFFFFFFFFFFFFF AND DUP4 PUSH20 0xFFFFFFFFFFFFFFFFFFFFFFFFFFFFFFFFFFFFFFFF AND SUB PUSH2 0xA4C JUMPI PUSH1 0x0 DUP1 REVERT JUMPDEST PUSH1 0x2 PUSH1 0x0 ORIGIN PUSH20 0xFFFFFFFFFFFFFFFFFFFFFFFFFFFFFFFFFFFFFFFF AND PUSH20 0xFFFFFFFFFFFFFFFFFFFFFFFFFFFFFFFFFFFFFFFF AND DUP2 MSTORE PUSH1 0x20 ADD SWAP1 DUP2 MSTORE PUSH1 0x20 ADD PUSH1 0x0 KECCAK256 SLOAD DUP3 GT ISZERO PUSH2 0xACE JUMPI PUSH1 0x40 MLOAD PUSH32 0x8C379A000000000000000000000000000000000000000000000000000000000 DUP2 MSTORE PUSH1 0x4 ADD PUSH2 0xAC5 SWAP1 PUSH2 0x1126 JUMP JUMPDEST PUSH1 0x40 MLOAD DUP1 SWAP2 SUB SWAP1 REVERT JUMPDEST PUSH2 0xB20 DUP3 PUSH1 0x2 PUSH1 0x0 ORIGIN PUSH20 0xFFFFFFFFFFFFFFFFFFFFFFFFFFFFFFFFFFFFFFFF AND PUSH20 0xFFFFFFFFFFFFFFFFFFFFFFFFFFFFFFFFFFFFFFFF AND DUP2 MSTORE PUSH1 0x20 ADD SWAP1 DUP2 MSTORE PUSH1 0x20 ADD PUSH1 0x0 KECCAK256 SLOAD PUSH2 0xCEE SWAP1 SWAP2 SWAP1 PUSH4 0xFFFFFFFF AND JUMP JUMPDEST PUSH1 0x2 PUSH1 0x0 ORIGIN PUSH20 0xFFFFFFFFFFFFFFFFFFFFFFFFFFFFFFFFFFFFFFFF AND PUSH20 0xFFFFFFFFFFFFFFFFFFFFFFFFFFFFFFFFFFFFFFFF AND DUP2 MSTORE PUSH1 0x20 ADD SWAP1 DUP2 MSTORE PUSH1 0x20 ADD PUSH1 0x0 KECCAK256 DUP2 SWAP1 SSTORE POP PUSH2 0xBB5 DUP3 PUSH1 0x2 PUSH1 0x0 DUP7 PUSH20 0xFFFFFFFFFFFFFFFFFFFFFFFFFFFFFFFFFFFFFFFF AND PUSH20 0xFFFFFFFFFFFFFFFFFFFFFFFFFFFFFFFFFFFFFFFF AND DUP2 MSTORE PUSH1 0x20 ADD SWAP1 DUP2 MSTORE PUSH1 0x20 ADD PUSH1 0x0 KECCAK256 SLOAD PUSH2 0xD15 SWAP1 SWAP2 SWAP1 PUSH4 0xFFFFFFFF AND JUMP JUMPDEST PUSH1 0x2 PUSH1 0x0 DUP6 PUSH20 0xFFFFFFFFFFFFFFFFFFFFFFFFFFFFFFFFFFFFFFFF AND PUSH20 0xFFFFFFFFFFFFFFFFFFFFFFFFFFFFFFFFFFFFFFFF AND DUP2 MSTORE PUSH1 0x20 ADD SWAP1 DUP2 MSTORE PUSH1 0x20 ADD PUSH1 0x0 KECCAK256 DUP2 SWAP1 SSTORE POP DUP3 PUSH20 0xFFFFFFFFFFFFFFFFFFFFFFFFFFFFFFFFFFFFFFFF AND ORIGIN PUSH20 0xFFFFFFFFFFFFFFFFFFFFFFFFFFFFFFFFFFFFFFFF AND PUSH32 0xDDF252AD1BE2C89B69C2B068FC378DAA952BA7F163C4A11628F55A4DF523B3EF DUP5 PUSH1 0x40 MLOAD PUSH2 0xC55 SWAP2 SWAP1 PUSH2 0xF0C JUMP JUMPDEST PUSH1 0x40 MLOAD DUP1 SWAP2 SUB SWAP1 LOG3 PUSH1 0x1 SWAP1 POP SWAP3 SWAP2 POP POP JUMP JUMPDEST PUSH1 0x0 PUSH1 0x1 PUSH1 0x0 DUP5 PUSH20 0xFFFFFFFFFFFFFFFFFFFFFFFFFFFFFFFFFFFFFFFF AND PUSH20 0xFFFFFFFFFFFFFFFFFFFFFFFFFFFFFFFFFFFFFFFF AND DUP2 MSTORE PUSH1 0x20 ADD SWAP1 DUP2 MSTORE PUSH1 0x20 ADD PUSH1 0x0 KECCAK256 PUSH1 0x0 DUP4 PUSH20 0xFFFFFFFFFFFFFFFFFFFFFFFFFFFFFFFFFFFFFFFF AND PUSH20 0xFFFFFFFFFFFFFFFFFFFFFFFFFFFFFFFFFFFFFFFF AND DUP2 MSTORE PUSH1 0x20 ADD SWAP1 DUP2 MSTORE PUSH1 0x20 ADD PUSH1 0x0 KECCAK256 SLOAD SWAP1 POP SWAP3 SWAP2 POP POP JUMP JUMPDEST PUSH1 0x0 DUP3 DUP3 GT ISZERO PUSH2 0xD01 JUMPI PUSH2 0xD00 PUSH2 0x1146 JUMP JUMPDEST JUMPDEST DUP2 DUP4 PUSH2 0xD0D SWAP2 SWAP1 PUSH2 0x11A4 JUMP JUMPDEST SWAP1 POP SWAP3 SWAP2 POP POP JUMP JUMPDEST PUSH1 0x0 DUP2 DUP4 PUSH2 0xD23 SWAP2 SWAP1 PUSH2 0x11D8 JUMP JUMPDEST SWAP1 POP DUP3 DUP2 LT ISZERO PUSH2 0xD36 JUMPI PUSH2 0xD35 PUSH2 0x1146 JUMP JUMPDEST JUMPDEST SWAP3 SWAP2 POP POP JUMP JUMPDEST PUSH1 0x0 DUP2 ISZERO ISZERO SWAP1 POP SWAP2 SWAP1 POP JUMP JUMPDEST PUSH2 0xD51 DUP2 PUSH2 0xD3C JUMP JUMPDEST DUP3 MSTORE POP POP JUMP JUMPDEST PUSH1 0x0 PUSH1 0x20 DUP3 ADD SWAP1 POP PUSH2 0xD6C PUSH1 0x0 DUP4 ADD DUP5 PUSH2 0xD48 JUMP JUMPDEST SWAP3 SWAP2 POP POP JUMP JUMPDEST PUSH1 0x0 DUP2 MLOAD SWAP1 POP SWAP2 SWAP1 POP JUMP JUMPDEST PUSH1 0x0 DUP3 DUP3 MSTORE PUSH1 0x20 DUP3 ADD SWAP1 POP SWAP3 SWAP2 POP POP JUMP JUMPDEST PUSH1 0x0 JUMPDEST DUP4 DUP2 LT ISZERO PUSH2 0xDAC JUMPI DUP1 DUP3 ADD MLOAD DUP2 DUP5 ADD MSTORE PUSH1 0x20 DUP2 ADD SWAP1 POP PUSH2 0xD91 JUMP JUMPDEST PUSH1 0x0 DUP5 DUP5 ADD MSTORE POP POP POP POP JUMP JUMPDEST PUSH1 0x0 PUSH1 0x1F NOT PUSH1 0x1F DUP4 ADD AND SWAP1 POP SWAP2 SWAP1 POP JUMP JUMPDEST PUSH1 0x0 PUSH2 0xDD4 DUP3 PUSH2 0xD72 JUMP JUMPDEST PUSH2 0xDDE DUP2 DUP6 PUSH2 0xD7D JUMP JUMPDEST SWAP4 POP PUSH2 0xDEE DUP2 DUP6 PUSH1 0x20 DUP7 ADD PUSH2 0xD8E JUMP JUMPDEST PUSH2 0xDF7 DUP2 PUSH2 0xDB8 JUMP JUMPDEST DUP5 ADD SWAP2 POP POP SWAP3 SWAP2 POP POP JUMP JUMPDEST PUSH1 0x0 PUSH1 0x20 DUP3 ADD SWAP1 POP DUP2 DUP2 SUB PUSH1 0x0 DUP4 ADD MSTORE PUSH2 0xE1C DUP2 DUP5 PUSH2 0xDC9 JUMP JUMPDEST SWAP1 POP SWAP3 SWAP2 POP POP JUMP JUMPDEST PUSH1 0x0 DUP1 REVERT JUMPDEST PUSH1 0x0 PUSH20 0xFFFFFFFFFFFFFFFFFFFFFFFFFFFFFFFFFFFFFFFF DUP3 AND SWAP1 POP SWAP2 SWAP1 POP JUMP JUMPDEST PUSH1 0x0 PUSH2 0xE54 DUP3 PUSH2 0xE29 JUMP JUMPDEST SWAP1 POP SWAP2 SWAP1 POP JUMP JUMPDEST PUSH2 0xE64 DUP2 PUSH2 0xE49 JUMP JUMPDEST DUP2 EQ PUSH2 0xE6F JUMPI PUSH1 0x0 DUP1 REVERT JUMPDEST POP JUMP JUMPDEST PUSH1 0x0 DUP2 CALLDATALOAD SWAP1 POP PUSH2 0xE81 DUP2 PUSH2 0xE5B JUMP JUMPDEST SWAP3 SWAP2 POP POP JUMP JUMPDEST PUSH1 0x0 DUP2 SWAP1 POP SWAP2 SWAP1 POP JUMP JUMPDEST PUSH2 0xE9A DUP2 PUSH2 0xE87 JUMP JUMPDEST DUP2 EQ PUSH2 0xEA5 JUMPI PUSH1 0x0 DUP1 REVERT JUMPDEST POP JUMP JUMPDEST PUSH1 0x0 DUP2 CALLDATALOAD SWAP1 POP PUSH2 0xEB7 DUP2 PUSH2 0xE91 JUMP JUMPDEST SWAP3 SWAP2 POP POP JUMP JUMPDEST PUSH1 0x0 DUP1 PUSH1 0x40 DUP4 DUP6 SUB SLT ISZERO PUSH2 0xED4 JUMPI PUSH2 0xED3 PUSH2 0xE24 JUMP JUMPDEST JUMPDEST PUSH1 0x0 PUSH2 0xEE2 DUP6 DUP3 DUP7 ADD PUSH2 0xE72 JUMP JUMPDEST SWAP3 POP POP PUSH1 0x20 PUSH2 0xEF3 DUP6 DUP3 DUP7 ADD PUSH2 0xEA8 JUMP JUMPDEST SWAP2 POP POP SWAP3 POP SWAP3 SWAP1 POP JUMP JUMPDEST PUSH2 0xF06 DUP2 PUSH2 0xE87 JUMP JUMPDEST DUP3 MSTORE POP POP JUMP JUMPDEST PUSH1 0x0 PUSH1 0x20 DUP3 ADD SWAP1 POP PUSH2 0xF21 PUSH1 0x0 DUP4 ADD DUP5 PUSH2 0xEFD JUMP JUMPDEST SWAP3 SWAP2 POP POP JUMP JUMPDEST PUSH1 0x0 DUP1 PUSH1 0x0 PUSH1 0x60 DUP5 DUP7 SUB SLT ISZERO PUSH2 0xF40 JUMPI PUSH2 0xF3F PUSH2 0xE24 JUMP JUMPDEST JUMPDEST PUSH1 0x0 PUSH2 0xF4E DUP7 DUP3 DUP8 ADD PUSH2 0xE72 JUMP JUMPDEST SWAP4 POP POP PUSH1 0x20 PUSH2 0xF5F DUP7 DUP3 DUP8 ADD PUSH2 0xE72 JUMP JUMPDEST SWAP3 POP POP PUSH1 0x40 PUSH2 0xF70 DUP7 DUP3 DUP8 ADD PUSH2 0xEA8 JUMP JUMPDEST SWAP2 POP POP SWAP3 POP SWAP3 POP SWAP3 JUMP JUMPDEST PUSH1 0x0 PUSH1 0xFF DUP3 AND SWAP1 POP SWAP2 SWAP1 POP JUMP JUMPDEST PUSH2 0xF90 DUP2 PUSH2 0xF7A JUMP JUMPDEST DUP3 MSTORE POP POP JUMP JUMPDEST PUSH1 0x0 PUSH1 0x20 DUP3 ADD SWAP1 POP PUSH2 0xFAB PUSH1 0x0 DUP4 ADD DUP5 PUSH2 0xF87 JUMP JUMPDEST SWAP3 SWAP2 POP POP JUMP JUMPDEST PUSH1 0x0 PUSH1 0x20 DUP3 DUP5 SUB SLT ISZERO PUSH2 0xFC7 JUMPI PUSH2 0xFC6 PUSH2 0xE24 JUMP JUMPDEST JUMPDEST PUSH1 0x0 PUSH2 0xFD5 DUP5 DUP3 DUP6 ADD PUSH2 0xE72 JUMP JUMPDEST SWAP2 POP POP SWAP3 SWAP2 POP POP JUMP JUMPDEST PUSH2 0xFE7 DUP2 PUSH2 0xE49 JUMP JUMPDEST DUP3 MSTORE POP POP JUMP JUMPDEST PUSH1 0x0 PUSH1 0x20 DUP3 ADD SWAP1 POP PUSH2 0x1002 PUSH1 0x0 DUP4 ADD DUP5 PUSH2 0xFDE JUMP JUMPDEST SWAP3 SWAP2 POP POP JUMP JUMPDEST PUSH1 0x0 DUP1 PUSH1 0x40 DUP4 DUP6 SUB SLT ISZERO PUSH2 0x101F JUMPI PUSH2 0x101E PUSH2 0xE24 JUMP JUMPDEST JUMPDEST PUSH1 0x0 PUSH2 0x102D DUP6 DUP3 DUP7 ADD PUSH2 0xE72 JUMP JUMPDEST SWAP3 POP POP PUSH1 0x20 PUSH2 0x103E DUP6 DUP3 DUP7 ADD PUSH2 0xE72 JUMP JUMPDEST SWAP2 POP POP SWAP3 POP SWAP3 SWAP1 POP JUMP JUMPDEST PUSH32 0x46726F6D20646F65736E2774206861766520656E6F7567682062616C616E6365 PUSH1 0x0 DUP3 ADD MSTORE POP JUMP JUMPDEST PUSH1 0x0 PUSH2 0x107E PUSH1 0x20 DUP4 PUSH2 0xD7D JUMP JUMPDEST SWAP2 POP PUSH2 0x1089 DUP3 PUSH2 0x1048 JUMP JUMPDEST PUSH1 0x20 DUP3 ADD SWAP1 POP SWAP2 SWAP1 POP JUMP JUMPDEST PUSH1 0x0 PUSH1 0x20 DUP3 ADD SWAP1 POP DUP2 DUP2 SUB PUSH1 0x0 DUP4 ADD MSTORE PUSH2 0x10AD DUP2 PUSH2 0x1071 JUMP JUMPDEST SWAP1 POP SWAP2 SWAP1 POP JUMP JUMPDEST PUSH32 0x6D73672E73656E64657220646F65736E2774206861766520656E6F7567682062 PUSH1 0x0 DUP3 ADD MSTORE PUSH32 0x616C616E63650000000000000000000000000000000000000000000000000000 PUSH1 0x20 DUP3 ADD MSTORE POP JUMP JUMPDEST PUSH1 0x0 PUSH2 0x1110 PUSH1 0x26 DUP4 PUSH2 0xD7D JUMP JUMPDEST SWAP2 POP PUSH2 0x111B DUP3 PUSH2 0x10B4 JUMP JUMPDEST PUSH1 0x40 DUP3 ADD SWAP1 POP SWAP2 SWAP1 POP JUMP JUMPDEST PUSH1 0x0 PUSH1 0x20 DUP3 ADD SWAP1 POP DUP2 DUP2 SUB PUSH1 0x0 DUP4 ADD MSTORE PUSH2 0x113F DUP2 PUSH2 0x1103 JUMP JUMPDEST SWAP1 POP SWAP2 SWAP1 POP JUMP JUMPDEST PUSH32 0x4E487B7100000000000000000000000000000000000000000000000000000000 PUSH1 0x0 MSTORE PUSH1 0x1 PUSH1 0x4 MSTORE PUSH1 0x24 PUSH1 0x0 REVERT JUMPDEST PUSH32 0x4E487B7100000000000000000000000000000000000000000000000000000000 PUSH1 0x0 MSTORE PUSH1 0x11 PUSH1 0x4 MSTORE PUSH1 0x24 PUSH1 0x0 REVERT JUMPDEST PUSH1 0x0 PUSH2 0x11AF DUP3 PUSH2 0xE87 JUMP JUMPDEST SWAP2 POP PUSH2 0x11BA DUP4 PUSH2 0xE87 JUMP JUMPDEST SWAP3 POP DUP3 DUP3 SUB SWAP1 POP DUP2 DUP2 GT ISZERO PUSH2 0x11D2 JUMPI PUSH2 0x11D1 PUSH2 0x1175 JUMP JUMPDEST JUMPDEST SWAP3 SWAP2 POP POP JUMP JUMPDEST PUSH1 0x0 PUSH2 0x11E3 DUP3 PUSH2 0xE87 JUMP JUMPDEST SWAP2 POP PUSH2 0x11EE DUP4 PUSH2 0xE87 JUMP JUMPDEST SWAP3 POP DUP3 DUP3 ADD SWAP1 POP DUP1 DUP3 GT ISZERO PUSH2 0x1206 JUMPI PUSH2 0x1205 PUSH2 0x1175 JUMP JUMPDEST JUMPDEST SWAP3 SWAP2 POP POP JUMP INVALID LOG2 PUSH5 0x6970667358 0x22 SLT KECCAK256 0xDB 0xF7 KECCAK256 0xE1 0x4C SWAP11 PUSH6 0x35ED145F53EB 0x4F DUP2 PUSH30 0x3802E228889B75211A3E43133C24054264736F6C63430008130033000000 "
				},
				"gasEstimates": {
					"creation": {
						"codeDepositCost": "393200",
						"executionCost": "infinite",
						"totalCost": "infinite"
					},
					"external": {
						"checkInsure(address)": "infinite",
						"getInsure()": "infinite",
						"transferFromInsure(address,address,uint256)": "infinite",
						"transferInsure(address,uint256)": "infinite"
					}
				},
				"methodIdentifiers": {
					"checkInsure(address)": "b9b7650a",
					"getInsure()": "682e09b8",
					"transferFromInsure(address,address,uint256)": "3456ea30",
					"transferInsure(address,uint256)": "371ad447"
				}
			},
			"storageLayout": {
				"storage": [
					{
						"astId": 449,
						"contract": "contracts/TrustInsure.sol:TrustInsure",
						"label": "erc20Contract",
						"offset": 0,
						"slot": "0",
						"type": "t_contract(ERC20)443"
					},
					{
						"astId": 451,
						"contract": "contracts/TrustInsure.sol:TrustInsure",
						"label": "owner",
						"offset": 0,
						"slot": "1",
						"type": "t_address"
					}
				],
				"types": {
					"t_address": {
						"encoding": "inplace",
						"label": "address",
						"numberOfBytes": "20"
					},
					"t_contract(ERC20)443": {
						"encoding": "inplace",
						"label": "contract ERC20",
						"numberOfBytes": "20"
					}
				}
			},
			"userdoc": {
				"kind": "user",
				"methods": {},
				"version": 1
			}
		}
	}
}