{
	"contracts/Insurance.sol": {
		"Insurance": {
			"abi": [
				{
					"inputs": [],
					"name": "autoTrigger",
					"outputs": [],
					"stateMutability": "nonpayable",
					"type": "function"
				},
				{
					"inputs": [
						{
							"internalType": "uint256",
							"name": "stakeholderInfoId",
							"type": "uint256"
						},
						{
							"internalType": "uint256",
							"name": "companyId",
							"type": "uint256"
						},
						{
							"internalType": "uint256",
							"name": "premium",
							"type": "uint256"
						},
						{
							"internalType": "uint256",
							"name": "insuredAmount",
							"type": "uint256"
						},
						{
							"internalType": "enum Insurance.insuranceType",
							"name": "insType",
							"type": "uint8"
						},
						{
							"internalType": "uint256",
							"name": "issueDateYYYYMMDD",
							"type": "uint256"
						},
						{
							"internalType": "uint256",
							"name": "expiryDateYYYYMMDD",
							"type": "uint256"
						}
					],
					"name": "createInsurance",
					"outputs": [
						{
							"internalType": "uint256",
							"name": "",
							"type": "uint256"
						}
					],
					"stateMutability": "nonpayable",
					"type": "function"
				},
				{
					"inputs": [
						{
							"internalType": "uint256",
							"name": "policyOwner",
							"type": "uint256"
						},
						{
							"internalType": "uint256",
							"name": "beneficiary",
							"type": "uint256"
						},
						{
							"internalType": "uint256",
							"name": "lifeAssured",
							"type": "uint256"
						},
						{
							"internalType": "uint256",
							"name": "payingAccount",
							"type": "uint256"
						}
					],
					"name": "createStakeholderInfo",
					"outputs": [
						{
							"internalType": "uint256",
							"name": "",
							"type": "uint256"
						}
					],
					"stateMutability": "nonpayable",
					"type": "function"
				},
				{
					"inputs": [
						{
							"internalType": "uint256",
							"name": "insuranceId",
							"type": "uint256"
						}
					],
					"name": "getBeneficiary",
					"outputs": [
						{
							"internalType": "uint256",
							"name": "",
							"type": "uint256"
						}
					],
					"stateMutability": "view",
					"type": "function"
				},
				{
					"inputs": [
						{
							"internalType": "uint256",
							"name": "insuranceId",
							"type": "uint256"
						}
					],
					"name": "getExpiryDate",
					"outputs": [
						{
							"internalType": "uint256",
							"name": "",
							"type": "uint256"
						}
					],
					"stateMutability": "view",
					"type": "function"
				},
				{
					"inputs": [
						{
							"internalType": "uint256",
							"name": "insuranceId",
							"type": "uint256"
						}
					],
					"name": "getInsurance",
					"outputs": [
						{
							"components": [
								{
									"internalType": "uint256",
									"name": "ID",
									"type": "uint256"
								},
								{
									"internalType": "uint256",
									"name": "companyId",
									"type": "uint256"
								},
								{
									"components": [
										{
											"internalType": "uint256",
											"name": "policyOwner",
											"type": "uint256"
										},
										{
											"internalType": "uint256",
											"name": "beneficiary",
											"type": "uint256"
										},
										{
											"internalType": "uint256",
											"name": "lifeAssured",
											"type": "uint256"
										},
										{
											"internalType": "uint256",
											"name": "payingAccount",
											"type": "uint256"
										}
									],
									"internalType": "struct Insurance.stakeholderInfo",
									"name": "stakeholders",
									"type": "tuple"
								},
								{
									"internalType": "uint256",
									"name": "premium",
									"type": "uint256"
								},
								{
									"internalType": "uint256",
									"name": "insuredAmount",
									"type": "uint256"
								},
								{
									"internalType": "uint256",
									"name": "currentAmount",
									"type": "uint256"
								},
								{
									"internalType": "enum Insurance.insuranceType",
									"name": "insType",
									"type": "uint8"
								},
								{
									"internalType": "enum Insurance.status",
									"name": "status",
									"type": "uint8"
								},
								{
									"internalType": "uint256",
									"name": "issueDate",
									"type": "uint256"
								},
								{
									"internalType": "uint256",
									"name": "expiryDate",
									"type": "uint256"
								}
							],
							"internalType": "struct Insurance.insurance",
							"name": "",
							"type": "tuple"
						}
					],
					"stateMutability": "view",
					"type": "function"
				},
				{
					"inputs": [
						{
							"internalType": "uint256",
							"name": "insuranceId",
							"type": "uint256"
						}
					],
					"name": "getInsuranceCompany",
					"outputs": [
						{
							"internalType": "uint256",
							"name": "",
							"type": "uint256"
						}
					],
					"stateMutability": "view",
					"type": "function"
				},
				{
					"inputs": [
						{
							"internalType": "uint256",
							"name": "insuranceId",
							"type": "uint256"
						}
					],
					"name": "getInsuredAmount",
					"outputs": [
						{
							"internalType": "uint256",
							"name": "",
							"type": "uint256"
						}
					],
					"stateMutability": "view",
					"type": "function"
				},
				{
					"inputs": [
						{
							"internalType": "uint256",
							"name": "insuranceId",
							"type": "uint256"
						}
					],
					"name": "getIssueDate",
					"outputs": [
						{
							"internalType": "uint256",
							"name": "",
							"type": "uint256"
						}
					],
					"stateMutability": "view",
					"type": "function"
				},
				{
					"inputs": [
						{
							"internalType": "uint256",
							"name": "stakeholderinfoId",
							"type": "uint256"
						}
					],
					"name": "getPolicyOwner",
					"outputs": [
						{
							"internalType": "uint256",
							"name": "",
							"type": "uint256"
						}
					],
					"stateMutability": "view",
					"type": "function"
				},
				{
					"inputs": [
						{
							"internalType": "uint256",
							"name": "insuranceId",
							"type": "uint256"
						}
					],
					"name": "getRestAmount",
					"outputs": [
						{
							"internalType": "uint256",
							"name": "",
							"type": "uint256"
						}
					],
					"stateMutability": "view",
					"type": "function"
				},
				{
					"inputs": [
						{
							"internalType": "uint256",
							"name": "insuranceId",
							"type": "uint256"
						}
					],
					"name": "getStatus",
					"outputs": [
						{
							"internalType": "enum Insurance.status",
							"name": "",
							"type": "uint8"
						}
					],
					"stateMutability": "view",
					"type": "function"
				},
				{
					"inputs": [
						{
							"internalType": "uint256",
							"name": "",
							"type": "uint256"
						}
					],
					"name": "insurances",
					"outputs": [
						{
							"internalType": "uint256",
							"name": "ID",
							"type": "uint256"
						},
						{
							"internalType": "uint256",
							"name": "companyId",
							"type": "uint256"
						},
						{
							"components": [
								{
									"internalType": "uint256",
									"name": "policyOwner",
									"type": "uint256"
								},
								{
									"internalType": "uint256",
									"name": "beneficiary",
									"type": "uint256"
								},
								{
									"internalType": "uint256",
									"name": "lifeAssured",
									"type": "uint256"
								},
								{
									"internalType": "uint256",
									"name": "payingAccount",
									"type": "uint256"
								}
							],
							"internalType": "struct Insurance.stakeholderInfo",
							"name": "stakeholders",
							"type": "tuple"
						},
						{
							"internalType": "uint256",
							"name": "premium",
							"type": "uint256"
						},
						{
							"internalType": "uint256",
							"name": "insuredAmount",
							"type": "uint256"
						},
						{
							"internalType": "uint256",
							"name": "currentAmount",
							"type": "uint256"
						},
						{
							"internalType": "enum Insurance.insuranceType",
							"name": "insType",
							"type": "uint8"
						},
						{
							"internalType": "enum Insurance.status",
							"name": "status",
							"type": "uint8"
						},
						{
							"internalType": "uint256",
							"name": "issueDate",
							"type": "uint256"
						},
						{
							"internalType": "uint256",
							"name": "expiryDate",
							"type": "uint256"
						}
					],
					"stateMutability": "view",
					"type": "function"
				},
				{
					"inputs": [],
					"name": "numInsurance",
					"outputs": [
						{
							"internalType": "uint256",
							"name": "",
							"type": "uint256"
						}
					],
					"stateMutability": "view",
					"type": "function"
				},
				{
					"inputs": [],
					"name": "numStakeholder",
					"outputs": [
						{
							"internalType": "uint256",
							"name": "",
							"type": "uint256"
						}
					],
					"stateMutability": "view",
					"type": "function"
				},
				{
					"inputs": [
						{
							"internalType": "uint256",
							"name": "newBeneficiary",
							"type": "uint256"
						},
						{
							"internalType": "uint256",
							"name": "insuranceId",
							"type": "uint256"
						}
					],
					"name": "setBeneficiary",
					"outputs": [],
					"stateMutability": "nonpayable",
					"type": "function"
				},
				{
					"inputs": [
						{
							"internalType": "uint256",
							"name": "date",
							"type": "uint256"
						},
						{
							"internalType": "uint256",
							"name": "insuranceId",
							"type": "uint256"
						}
					],
					"name": "setExpiryDate",
					"outputs": [],
					"stateMutability": "nonpayable",
					"type": "function"
				},
				{
					"inputs": [
						{
							"internalType": "uint256",
							"name": "",
							"type": "uint256"
						}
					],
					"name": "stakeholderinfos",
					"outputs": [
						{
							"internalType": "uint256",
							"name": "policyOwner",
							"type": "uint256"
						},
						{
							"internalType": "uint256",
							"name": "beneficiary",
							"type": "uint256"
						},
						{
							"internalType": "uint256",
							"name": "lifeAssured",
							"type": "uint256"
						},
						{
							"internalType": "uint256",
							"name": "payingAccount",
							"type": "uint256"
						}
					],
					"stateMutability": "view",
					"type": "function"
				},
				{
					"inputs": [
						{
							"internalType": "enum Insurance.status",
							"name": "state",
							"type": "uint8"
						},
						{
							"internalType": "uint256",
							"name": "insuranceId",
							"type": "uint256"
						}
					],
					"name": "updateStatus",
					"outputs": [],
					"stateMutability": "nonpayable",
					"type": "function"
				}
			],
			"devdoc": {
				"kind": "dev",
				"methods": {},
				"version": 1
			},
			"evm": {
				"assembly": "    /* \"contracts/Insurance.sol\":60:4742  contract Insurance {... */\n  mstore(0x40, 0x80)\n    /* \"contracts/Insurance.sol\":756:757  0 */\n  0x00\n    /* \"contracts/Insurance.sol\":726:757  uint256 public numInsurance = 0 */\n  dup1\n  sstore\n    /* \"contracts/Insurance.sol\":849:850  0 */\n  0x00\n    /* \"contracts/Insurance.sol\":817:850  uint256 public numStakeholder = 0 */\n  0x02\n  sstore\n    /* \"contracts/Insurance.sol\":60:4742  contract Insurance {... */\n  callvalue\n  dup1\n  iszero\n  tag_1\n  jumpi\n  0x00\n  dup1\n  revert\ntag_1:\n  pop\n  dataSize(sub_0)\n  dup1\n  dataOffset(sub_0)\n  0x00\n  codecopy\n  0x00\n  return\nstop\n\nsub_0: assembly {\n        /* \"contracts/Insurance.sol\":60:4742  contract Insurance {... */\n      mstore(0x40, 0x80)\n      callvalue\n      dup1\n      iszero\n      tag_1\n      jumpi\n      0x00\n      dup1\n      revert\n    tag_1:\n      pop\n      jumpi(tag_2, lt(calldatasize, 0x04))\n      shr(0xe0, calldataload(0x00))\n      dup1\n      0x703849d9\n      gt\n      tag_22\n      jumpi\n      dup1\n      0xca009021\n      gt\n      tag_23\n      jumpi\n      dup1\n      0xca009021\n      eq\n      tag_17\n      jumpi\n      dup1\n      0xd91f2a0b\n      eq\n      tag_18\n      jumpi\n      dup1\n      0xe0e5c324\n      eq\n      tag_19\n      jumpi\n      dup1\n      0xe22900ff\n      eq\n      tag_20\n      jumpi\n      dup1\n      0xf558eb05\n      eq\n      tag_21\n      jumpi\n      jump(tag_2)\n    tag_23:\n      dup1\n      0x703849d9\n      eq\n      tag_12\n      jumpi\n      dup1\n      0x85fae602\n      eq\n      tag_13\n      jumpi\n      dup1\n      0x8edd5297\n      eq\n      tag_14\n      jumpi\n      dup1\n      0x93e949c3\n      eq\n      tag_15\n      jumpi\n      dup1\n      0xb7ff5dae\n      eq\n      tag_16\n      jumpi\n      jump(tag_2)\n    tag_22:\n      dup1\n      0x575c2887\n      gt\n      tag_24\n      jumpi\n      dup1\n      0x575c2887\n      eq\n      tag_7\n      jumpi\n      dup1\n      0x5998f775\n      eq\n      tag_8\n      jumpi\n      dup1\n      0x59fb49f9\n      eq\n      tag_9\n      jumpi\n      dup1\n      0x5c622a0e\n      eq\n      tag_10\n      jumpi\n      dup1\n      0x6833f200\n      eq\n      tag_11\n      jumpi\n      jump(tag_2)\n    tag_24:\n      dup1\n      0x0386660a\n      eq\n      tag_3\n      jumpi\n      dup1\n      0x1a1fc3a0\n      eq\n      tag_4\n      jumpi\n      dup1\n      0x302df083\n      eq\n      tag_5\n      jumpi\n      dup1\n      0x3fa3ab26\n      eq\n      tag_6\n      jumpi\n    tag_2:\n      0x00\n      dup1\n      revert\n        /* \"contracts/Insurance.sol\":3528:3659  function getIssueDate(uint256 insuranceId) public  view returns (uint256) {... */\n    tag_3:\n      tag_25\n      0x04\n      dup1\n      calldatasize\n      sub\n      dup2\n      add\n      swap1\n      tag_26\n      swap2\n      swap1\n      tag_27\n      jump\t// in\n    tag_26:\n      tag_28\n      jump\t// in\n    tag_25:\n      mload(0x40)\n      tag_29\n      swap2\n      swap1\n      tag_30\n      jump\t// in\n    tag_29:\n      mload(0x40)\n      dup1\n      swap2\n      sub\n      swap1\n      return\n        /* \"contracts/Insurance.sol\":2189:2379  function setBeneficiary(uint256 newBeneficiary, uint256 insuranceId) public {//policyOwnerOnly(insuranceId) {... */\n    tag_4:\n      tag_31\n      0x04\n      dup1\n      calldatasize\n      sub\n      dup2\n      add\n      swap1\n      tag_32\n      swap2\n      swap1\n      tag_33\n      jump\t// in\n    tag_32:\n      tag_34\n      jump\t// in\n    tag_31:\n      stop\n        /* \"contracts/Insurance.sol\":4076:4223  function getBeneficiary(uint256 insuranceId) public view returns (uint256) {... */\n    tag_5:\n      tag_35\n      0x04\n      dup1\n      calldatasize\n      sub\n      dup2\n      add\n      swap1\n      tag_36\n      swap2\n      swap1\n      tag_27\n      jump\t// in\n    tag_36:\n      tag_37\n      jump\t// in\n    tag_35:\n      mload(0x40)\n      tag_38\n      swap2\n      swap1\n      tag_30\n      jump\t// in\n    tag_38:\n      mload(0x40)\n      dup1\n      swap2\n      sub\n      swap1\n      return\n        /* \"contracts/Insurance.sol\":856:915  mapping(uint256 => stakeholderInfo) public stakeholderinfos */\n    tag_6:\n      tag_39\n      0x04\n      dup1\n      calldatasize\n      sub\n      dup2\n      add\n      swap1\n      tag_40\n      swap2\n      swap1\n      tag_27\n      jump\t// in\n    tag_40:\n      tag_41\n      jump\t// in\n    tag_39:\n      mload(0x40)\n      tag_42\n      swap5\n      swap4\n      swap3\n      swap2\n      swap1\n      tag_43\n      jump\t// in\n    tag_42:\n      mload(0x40)\n      dup1\n      swap2\n      sub\n      swap1\n      return\n        /* \"contracts/Insurance.sol\":4387:4561  function getRestAmount(uint256 insuranceId) public view returns(uint256) {... */\n    tag_7:\n      tag_44\n      0x04\n      dup1\n      calldatasize\n      sub\n      dup2\n      add\n      swap1\n      tag_45\n      swap2\n      swap1\n      tag_27\n      jump\t// in\n    tag_45:\n      tag_46\n      jump\t// in\n    tag_44:\n      mload(0x40)\n      tag_47\n      swap2\n      swap1\n      tag_30\n      jump\t// in\n    tag_47:\n      mload(0x40)\n      dup1\n      swap2\n      sub\n      swap1\n      return\n        /* \"contracts/Insurance.sol\":3383:3522  function getInsuredAmount(uint256 insuranceId) public view  returns (uint256) {... */\n    tag_8:\n      tag_48\n      0x04\n      dup1\n      calldatasize\n      sub\n      dup2\n      add\n      swap1\n      tag_49\n      swap2\n      swap1\n      tag_27\n      jump\t// in\n    tag_49:\n      tag_50\n      jump\t// in\n    tag_48:\n      mload(0x40)\n      tag_51\n      swap2\n      swap1\n      tag_30\n      jump\t// in\n    tag_51:\n      mload(0x40)\n      dup1\n      swap2\n      sub\n      swap1\n      return\n        /* \"contracts/Insurance.sol\":763:810  mapping(uint256 => insurance) public insurances */\n    tag_9:\n      tag_52\n      0x04\n      dup1\n      calldatasize\n      sub\n      dup2\n      add\n      swap1\n      tag_53\n      swap2\n      swap1\n      tag_27\n      jump\t// in\n    tag_53:\n      tag_54\n      jump\t// in\n    tag_52:\n      mload(0x40)\n      tag_55\n      swap11\n      swap10\n      swap9\n      swap8\n      swap7\n      swap6\n      swap5\n      swap4\n      swap3\n      swap2\n      swap1\n      tag_56\n      jump\t// in\n    tag_55:\n      mload(0x40)\n      dup1\n      swap2\n      sub\n      swap1\n      return\n        /* \"contracts/Insurance.sol\":3947:4070  function getStatus(uint256 insuranceId) public view returns (status) {... */\n    tag_10:\n      tag_57\n      0x04\n      dup1\n      calldatasize\n      sub\n      dup2\n      add\n      swap1\n      tag_58\n      swap2\n      swap1\n      tag_27\n      jump\t// in\n    tag_58:\n      tag_59\n      jump\t// in\n    tag_57:\n      mload(0x40)\n      tag_60\n      swap2\n      swap1\n      tag_61\n      jump\t// in\n    tag_60:\n      mload(0x40)\n      dup1\n      swap2\n      sub\n      swap1\n      return\n        /* \"contracts/Insurance.sol\":3665:3798  function getExpiryDate(uint256 insuranceId) public  view returns (uint256) {... */\n    tag_11:\n      tag_62\n      0x04\n      dup1\n      calldatasize\n      sub\n      dup2\n      add\n      swap1\n      tag_63\n      swap2\n      swap1\n      tag_27\n      jump\t// in\n    tag_63:\n      tag_64\n      jump\t// in\n    tag_62:\n      mload(0x40)\n      tag_65\n      swap2\n      swap1\n      tag_30\n      jump\t// in\n    tag_65:\n      mload(0x40)\n      dup1\n      swap2\n      sub\n      swap1\n      return\n        /* \"contracts/Insurance.sol\":726:757  uint256 public numInsurance = 0 */\n    tag_12:\n      tag_66\n      tag_67\n      jump\t// in\n    tag_66:\n      mload(0x40)\n      tag_68\n      swap2\n      swap1\n      tag_30\n      jump\t// in\n    tag_68:\n      mload(0x40)\n      dup1\n      swap2\n      sub\n      swap1\n      return\n        /* \"contracts/Insurance.sol\":3248:3377  function getInsurance(uint256 insuranceId) public view returns (insurance memory) {... */\n    tag_13:\n      tag_69\n      0x04\n      dup1\n      calldatasize\n      sub\n      dup2\n      add\n      swap1\n      tag_70\n      swap2\n      swap1\n      tag_27\n      jump\t// in\n    tag_70:\n      tag_71\n      jump\t// in\n    tag_69:\n      mload(0x40)\n      tag_72\n      swap2\n      swap1\n      tag_73\n      jump\t// in\n    tag_72:\n      mload(0x40)\n      dup1\n      swap2\n      sub\n      swap1\n      return\n        /* \"contracts/Insurance.sol\":817:850  uint256 public numStakeholder = 0 */\n    tag_14:\n      tag_74\n      tag_75\n      jump\t// in\n    tag_74:\n      mload(0x40)\n      tag_76\n      swap2\n      swap1\n      tag_30\n      jump\t// in\n    tag_76:\n      mload(0x40)\n      dup1\n      swap2\n      sub\n      swap1\n      return\n        /* \"contracts/Insurance.sol\":1291:1581  function createInsurance(... */\n    tag_15:\n      tag_77\n      0x04\n      dup1\n      calldatasize\n      sub\n      dup2\n      add\n      swap1\n      tag_78\n      swap2\n      swap1\n      tag_79\n      jump\t// in\n    tag_78:\n      tag_80\n      jump\t// in\n    tag_77:\n      mload(0x40)\n      tag_81\n      swap2\n      swap1\n      tag_30\n      jump\t// in\n    tag_81:\n      mload(0x40)\n      dup1\n      swap2\n      sub\n      swap1\n      return\n        /* \"contracts/Insurance.sol\":2385:2537  function updateStatus(status state, uint256 insuranceId) public { //policyOwnerOnly(insuranceId) {... */\n    tag_16:\n      tag_82\n      0x04\n      dup1\n      calldatasize\n      sub\n      dup2\n      add\n      swap1\n      tag_83\n      swap2\n      swap1\n      tag_84\n      jump\t// in\n    tag_83:\n      tag_85\n      jump\t// in\n    tag_82:\n      stop\n        /* \"contracts/Insurance.sol\":4229:4381  function getPolicyOwner(uint256 stakeholderinfoId) public view returns (uint256) {... */\n    tag_17:\n      tag_86\n      0x04\n      dup1\n      calldatasize\n      sub\n      dup2\n      add\n      swap1\n      tag_87\n      swap2\n      swap1\n      tag_27\n      jump\t// in\n    tag_87:\n      tag_88\n      jump\t// in\n    tag_86:\n      mload(0x40)\n      tag_89\n      swap2\n      swap1\n      tag_30\n      jump\t// in\n    tag_89:\n      mload(0x40)\n      dup1\n      swap2\n      sub\n      swap1\n      return\n        /* \"contracts/Insurance.sol\":2543:2794  function setExpiryDate(uint256 date, uint256 insuranceId) public {//companyOnly(insuranceId) {... */\n    tag_18:\n      tag_90\n      0x04\n      dup1\n      calldatasize\n      sub\n      dup2\n      add\n      swap1\n      tag_91\n      swap2\n      swap1\n      tag_33\n      jump\t// in\n    tag_91:\n      tag_92\n      jump\t// in\n    tag_90:\n      stop\n        /* \"contracts/Insurance.sol\":923:1105  function createStakeholderInfo (uint256 policyOwner,... */\n    tag_19:\n      tag_93\n      0x04\n      dup1\n      calldatasize\n      sub\n      dup2\n      add\n      swap1\n      tag_94\n      swap2\n      swap1\n      tag_95\n      jump\t// in\n    tag_94:\n      tag_96\n      jump\t// in\n    tag_93:\n      mload(0x40)\n      tag_97\n      swap2\n      swap1\n      tag_30\n      jump\t// in\n    tag_97:\n      mload(0x40)\n      dup1\n      swap2\n      sub\n      swap1\n      return\n        /* \"contracts/Insurance.sol\":3804:3941  function getInsuranceCompany(uint256 insuranceId) public view returns (uint256) {... */\n    tag_20:\n      tag_98\n      0x04\n      dup1\n      calldatasize\n      sub\n      dup2\n      add\n      swap1\n      tag_99\n      swap2\n      swap1\n      tag_27\n      jump\t// in\n    tag_99:\n      tag_100\n      jump\t// in\n    tag_98:\n      mload(0x40)\n      tag_101\n      swap2\n      swap1\n      tag_30\n      jump\t// in\n    tag_101:\n      mload(0x40)\n      dup1\n      swap2\n      sub\n      swap1\n      return\n        /* \"contracts/Insurance.sol\":4567:4734  function autoTrigger() public {... */\n    tag_21:\n      tag_102\n      tag_103\n      jump\t// in\n    tag_102:\n      stop\n        /* \"contracts/Insurance.sol\":3528:3659  function getIssueDate(uint256 insuranceId) public  view returns (uint256) {... */\n    tag_28:\n        /* \"contracts/Insurance.sol\":3593:3600  uint256 */\n      0x00\n        /* \"contracts/Insurance.sol\":3619:3629  insurances */\n      0x01\n        /* \"contracts/Insurance.sol\":3619:3642  insurances[insuranceId] */\n      0x00\n        /* \"contracts/Insurance.sol\":3630:3641  insuranceId */\n      dup4\n        /* \"contracts/Insurance.sol\":3619:3642  insurances[insuranceId] */\n      dup2\n      mstore\n      0x20\n      add\n      swap1\n      dup2\n      mstore\n      0x20\n      add\n      0x00\n      keccak256\n        /* \"contracts/Insurance.sol\":3619:3652  insurances[insuranceId].issueDate */\n      0x0a\n      add\n      sload\n        /* \"contracts/Insurance.sol\":3612:3652  return insurances[insuranceId].issueDate */\n      swap1\n      pop\n        /* \"contracts/Insurance.sol\":3528:3659  function getIssueDate(uint256 insuranceId) public  view returns (uint256) {... */\n      swap2\n      swap1\n      pop\n      jump\t// out\n        /* \"contracts/Insurance.sol\":2189:2379  function setBeneficiary(uint256 newBeneficiary, uint256 insuranceId) public {//policyOwnerOnly(insuranceId) {... */\n    tag_34:\n        /* \"contracts/Insurance.sol\":2358:2372  newBeneficiary */\n      dup2\n        /* \"contracts/Insurance.sol\":2307:2317  insurances */\n      0x01\n        /* \"contracts/Insurance.sol\":2307:2330  insurances[insuranceId] */\n      0x00\n        /* \"contracts/Insurance.sol\":2318:2329  insuranceId */\n      dup4\n        /* \"contracts/Insurance.sol\":2307:2330  insurances[insuranceId] */\n      dup2\n      mstore\n      0x20\n      add\n      swap1\n      dup2\n      mstore\n      0x20\n      add\n      0x00\n      keccak256\n        /* \"contracts/Insurance.sol\":2307:2343  insurances[insuranceId].stakeholders */\n      0x02\n      add\n        /* \"contracts/Insurance.sol\":2307:2355  insurances[insuranceId].stakeholders.beneficiary */\n      0x01\n      add\n        /* \"contracts/Insurance.sol\":2307:2372  insurances[insuranceId].stakeholders.beneficiary = newBeneficiary */\n      dup2\n      swap1\n      sstore\n      pop\n        /* \"contracts/Insurance.sol\":2189:2379  function setBeneficiary(uint256 newBeneficiary, uint256 insuranceId) public {//policyOwnerOnly(insuranceId) {... */\n      pop\n      pop\n      jump\t// out\n        /* \"contracts/Insurance.sol\":4076:4223  function getBeneficiary(uint256 insuranceId) public view returns (uint256) {... */\n    tag_37:\n        /* \"contracts/Insurance.sol\":4142:4149  uint256 */\n      0x00\n        /* \"contracts/Insurance.sol\":4168:4178  insurances */\n      0x01\n        /* \"contracts/Insurance.sol\":4168:4191  insurances[insuranceId] */\n      0x00\n        /* \"contracts/Insurance.sol\":4179:4190  insuranceId */\n      dup4\n        /* \"contracts/Insurance.sol\":4168:4191  insurances[insuranceId] */\n      dup2\n      mstore\n      0x20\n      add\n      swap1\n      dup2\n      mstore\n      0x20\n      add\n      0x00\n      keccak256\n        /* \"contracts/Insurance.sol\":4168:4204  insurances[insuranceId].stakeholders */\n      0x02\n      add\n        /* \"contracts/Insurance.sol\":4168:4216  insurances[insuranceId].stakeholders.beneficiary */\n      0x01\n      add\n      sload\n        /* \"contracts/Insurance.sol\":4161:4216  return insurances[insuranceId].stakeholders.beneficiary */\n      swap1\n      pop\n        /* \"contracts/Insurance.sol\":4076:4223  function getBeneficiary(uint256 insuranceId) public view returns (uint256) {... */\n      swap2\n      swap1\n      pop\n      jump\t// out\n        /* \"contracts/Insurance.sol\":856:915  mapping(uint256 => stakeholderInfo) public stakeholderinfos */\n    tag_41:\n      mstore(0x20, 0x03)\n      dup1\n      0x00\n      mstore\n      keccak256(0x00, 0x40)\n      0x00\n      swap2\n      pop\n      swap1\n      pop\n      dup1\n      0x00\n      add\n      sload\n      swap1\n      dup1\n      0x01\n      add\n      sload\n      swap1\n      dup1\n      0x02\n      add\n      sload\n      swap1\n      dup1\n      0x03\n      add\n      sload\n      swap1\n      pop\n      dup5\n      jump\t// out\n        /* \"contracts/Insurance.sol\":4387:4561  function getRestAmount(uint256 insuranceId) public view returns(uint256) {... */\n    tag_46:\n        /* \"contracts/Insurance.sol\":4451:4458  uint256 */\n      0x00\n        /* \"contracts/Insurance.sol\":4517:4527  insurances */\n      0x01\n        /* \"contracts/Insurance.sol\":4517:4540  insurances[insuranceId] */\n      0x00\n        /* \"contracts/Insurance.sol\":4528:4539  insuranceId */\n      dup4\n        /* \"contracts/Insurance.sol\":4517:4540  insurances[insuranceId] */\n      dup2\n      mstore\n      0x20\n      add\n      swap1\n      dup2\n      mstore\n      0x20\n      add\n      0x00\n      keccak256\n        /* \"contracts/Insurance.sol\":4517:4554  insurances[insuranceId].currentAmount */\n      0x08\n      add\n      sload\n        /* \"contracts/Insurance.sol\":4477:4487  insurances */\n      0x01\n        /* \"contracts/Insurance.sol\":4477:4500  insurances[insuranceId] */\n      0x00\n        /* \"contracts/Insurance.sol\":4488:4499  insuranceId */\n      dup5\n        /* \"contracts/Insurance.sol\":4477:4500  insurances[insuranceId] */\n      dup2\n      mstore\n      0x20\n      add\n      swap1\n      dup2\n      mstore\n      0x20\n      add\n      0x00\n      keccak256\n        /* \"contracts/Insurance.sol\":4477:4514  insurances[insuranceId].insuredAmount */\n      0x07\n      add\n      sload\n        /* \"contracts/Insurance.sol\":4477:4554  insurances[insuranceId].insuredAmount - insurances[insuranceId].currentAmount */\n      tag_108\n      swap2\n      swap1\n      tag_109\n      jump\t// in\n    tag_108:\n        /* \"contracts/Insurance.sol\":4470:4554  return insurances[insuranceId].insuredAmount - insurances[insuranceId].currentAmount */\n      swap1\n      pop\n        /* \"contracts/Insurance.sol\":4387:4561  function getRestAmount(uint256 insuranceId) public view returns(uint256) {... */\n      swap2\n      swap1\n      pop\n      jump\t// out\n        /* \"contracts/Insurance.sol\":3383:3522  function getInsuredAmount(uint256 insuranceId) public view  returns (uint256) {... */\n    tag_50:\n        /* \"contracts/Insurance.sol\":3452:3459  uint256 */\n      0x00\n        /* \"contracts/Insurance.sol\":3478:3488  insurances */\n      0x01\n        /* \"contracts/Insurance.sol\":3478:3501  insurances[insuranceId] */\n      0x00\n        /* \"contracts/Insurance.sol\":3489:3500  insuranceId */\n      dup4\n        /* \"contracts/Insurance.sol\":3478:3501  insurances[insuranceId] */\n      dup2\n      mstore\n      0x20\n      add\n      swap1\n      dup2\n      mstore\n      0x20\n      add\n      0x00\n      keccak256\n        /* \"contracts/Insurance.sol\":3478:3515  insurances[insuranceId].insuredAmount */\n      0x07\n      add\n      sload\n        /* \"contracts/Insurance.sol\":3471:3515  return insurances[insuranceId].insuredAmount */\n      swap1\n      pop\n        /* \"contracts/Insurance.sol\":3383:3522  function getInsuredAmount(uint256 insuranceId) public view  returns (uint256) {... */\n      swap2\n      swap1\n      pop\n      jump\t// out\n        /* \"contracts/Insurance.sol\":763:810  mapping(uint256 => insurance) public insurances */\n    tag_54:\n      mstore(0x20, 0x01)\n      dup1\n      0x00\n      mstore\n      keccak256(0x00, 0x40)\n      0x00\n      swap2\n      pop\n      swap1\n      pop\n      dup1\n      0x00\n      add\n      sload\n      swap1\n      dup1\n      0x01\n      add\n      sload\n      swap1\n      dup1\n      0x02\n      add\n      mload(0x40)\n      dup1\n      0x80\n      add\n      0x40\n      mstore\n      swap1\n      dup2\n      0x00\n      dup3\n      add\n      sload\n      dup2\n      mstore\n      0x20\n      add\n      0x01\n      dup3\n      add\n      sload\n      dup2\n      mstore\n      0x20\n      add\n      0x02\n      dup3\n      add\n      sload\n      dup2\n      mstore\n      0x20\n      add\n      0x03\n      dup3\n      add\n      sload\n      dup2\n      mstore\n      pop\n      pop\n      swap1\n      dup1\n      0x06\n      add\n      sload\n      swap1\n      dup1\n      0x07\n      add\n      sload\n      swap1\n      dup1\n      0x08\n      add\n      sload\n      swap1\n      dup1\n      0x09\n      add\n      0x00\n      swap1\n      sload\n      swap1\n      0x0100\n      exp\n      swap1\n      div\n      0xff\n      and\n      swap1\n      dup1\n      0x09\n      add\n      0x01\n      swap1\n      sload\n      swap1\n      0x0100\n      exp\n      swap1\n      div\n      0xff\n      and\n      swap1\n      dup1\n      0x0a\n      add\n      sload\n      swap1\n      dup1\n      0x0b\n      add\n      sload\n      swap1\n      pop\n      dup11\n      jump\t// out\n        /* \"contracts/Insurance.sol\":3947:4070  function getStatus(uint256 insuranceId) public view returns (status) {... */\n    tag_59:\n        /* \"contracts/Insurance.sol\":4008:4014  status */\n      0x00\n        /* \"contracts/Insurance.sol\":4033:4043  insurances */\n      0x01\n        /* \"contracts/Insurance.sol\":4033:4056  insurances[insuranceId] */\n      0x00\n        /* \"contracts/Insurance.sol\":4044:4055  insuranceId */\n      dup4\n        /* \"contracts/Insurance.sol\":4033:4056  insurances[insuranceId] */\n      dup2\n      mstore\n      0x20\n      add\n      swap1\n      dup2\n      mstore\n      0x20\n      add\n      0x00\n      keccak256\n        /* \"contracts/Insurance.sol\":4033:4063  insurances[insuranceId].status */\n      0x09\n      add\n      0x01\n      swap1\n      sload\n      swap1\n      0x0100\n      exp\n      swap1\n      div\n      0xff\n      and\n        /* \"contracts/Insurance.sol\":4026:4063  return insurances[insuranceId].status */\n      swap1\n      pop\n        /* \"contracts/Insurance.sol\":3947:4070  function getStatus(uint256 insuranceId) public view returns (status) {... */\n      swap2\n      swap1\n      pop\n      jump\t// out\n        /* \"contracts/Insurance.sol\":3665:3798  function getExpiryDate(uint256 insuranceId) public  view returns (uint256) {... */\n    tag_64:\n        /* \"contracts/Insurance.sol\":3731:3738  uint256 */\n      0x00\n        /* \"contracts/Insurance.sol\":3757:3767  insurances */\n      0x01\n        /* \"contracts/Insurance.sol\":3757:3780  insurances[insuranceId] */\n      0x00\n        /* \"contracts/Insurance.sol\":3768:3779  insuranceId */\n      dup4\n        /* \"contracts/Insurance.sol\":3757:3780  insurances[insuranceId] */\n      dup2\n      mstore\n      0x20\n      add\n      swap1\n      dup2\n      mstore\n      0x20\n      add\n      0x00\n      keccak256\n        /* \"contracts/Insurance.sol\":3757:3791  insurances[insuranceId].expiryDate */\n      0x0b\n      add\n      sload\n        /* \"contracts/Insurance.sol\":3750:3791  return insurances[insuranceId].expiryDate */\n      swap1\n      pop\n        /* \"contracts/Insurance.sol\":3665:3798  function getExpiryDate(uint256 insuranceId) public  view returns (uint256) {... */\n      swap2\n      swap1\n      pop\n      jump\t// out\n        /* \"contracts/Insurance.sol\":726:757  uint256 public numInsurance = 0 */\n    tag_67:\n      sload(0x00)\n      dup2\n      jump\t// out\n        /* \"contracts/Insurance.sol\":3248:3377  function getInsurance(uint256 insuranceId) public view returns (insurance memory) {... */\n    tag_71:\n        /* \"contracts/Insurance.sol\":3312:3328  insurance memory */\n      tag_113\n      tag_114\n      jump\t// in\n    tag_113:\n        /* \"contracts/Insurance.sol\":3347:3357  insurances */\n      0x01\n        /* \"contracts/Insurance.sol\":3347:3370  insurances[insuranceId] */\n      0x00\n        /* \"contracts/Insurance.sol\":3358:3369  insuranceId */\n      dup4\n        /* \"contracts/Insurance.sol\":3347:3370  insurances[insuranceId] */\n      dup2\n      mstore\n      0x20\n      add\n      swap1\n      dup2\n      mstore\n      0x20\n      add\n      0x00\n      keccak256\n        /* \"contracts/Insurance.sol\":3340:3370  return insurances[insuranceId] */\n      mload(0x40)\n      dup1\n      0x0140\n      add\n      0x40\n      mstore\n      swap1\n      dup2\n      0x00\n      dup3\n      add\n      sload\n      dup2\n      mstore\n      0x20\n      add\n      0x01\n      dup3\n      add\n      sload\n      dup2\n      mstore\n      0x20\n      add\n      0x02\n      dup3\n      add\n      mload(0x40)\n      dup1\n      0x80\n      add\n      0x40\n      mstore\n      swap1\n      dup2\n      0x00\n      dup3\n      add\n      sload\n      dup2\n      mstore\n      0x20\n      add\n      0x01\n      dup3\n      add\n      sload\n      dup2\n      mstore\n      0x20\n      add\n      0x02\n      dup3\n      add\n      sload\n      dup2\n      mstore\n      0x20\n      add\n      0x03\n      dup3\n      add\n      sload\n      dup2\n      mstore\n      pop\n      pop\n      dup2\n      mstore\n      0x20\n      add\n      0x06\n      dup3\n      add\n      sload\n      dup2\n      mstore\n      0x20\n      add\n      0x07\n      dup3\n      add\n      sload\n      dup2\n      mstore\n      0x20\n      add\n      0x08\n      dup3\n      add\n      sload\n      dup2\n      mstore\n      0x20\n      add\n      0x09\n      dup3\n      add\n      0x00\n      swap1\n      sload\n      swap1\n      0x0100\n      exp\n      swap1\n      div\n      0xff\n      and\n      0x01\n      dup2\n      gt\n      iszero\n      tag_116\n      jumpi\n      tag_117\n      tag_118\n      jump\t// in\n    tag_117:\n    tag_116:\n      0x01\n      dup2\n      gt\n      iszero\n      tag_119\n      jumpi\n      tag_120\n      tag_118\n      jump\t// in\n    tag_120:\n    tag_119:\n      dup2\n      mstore\n      0x20\n      add\n      0x09\n      dup3\n      add\n      0x01\n      swap1\n      sload\n      swap1\n      0x0100\n      exp\n      swap1\n      div\n      0xff\n      and\n      0x05\n      dup2\n      gt\n      iszero\n      tag_121\n      jumpi\n      tag_122\n      tag_118\n      jump\t// in\n    tag_122:\n    tag_121:\n      0x05\n      dup2\n      gt\n      iszero\n      tag_123\n      jumpi\n      tag_124\n      tag_118\n      jump\t// in\n    tag_124:\n    tag_123:\n      dup2\n      mstore\n      0x20\n      add\n      0x0a\n      dup3\n      add\n      sload\n      dup2\n      mstore\n      0x20\n      add\n      0x0b\n      dup3\n      add\n      sload\n      dup2\n      mstore\n      pop\n      pop\n      swap1\n      pop\n        /* \"contracts/Insurance.sol\":3248:3377  function getInsurance(uint256 insuranceId) public view returns (insurance memory) {... */\n      swap2\n      swap1\n      pop\n      jump\t// out\n        /* \"contracts/Insurance.sol\":817:850  uint256 public numStakeholder = 0 */\n    tag_75:\n      sload(0x02)\n      dup2\n      jump\t// out\n        /* \"contracts/Insurance.sol\":1291:1581  function createInsurance(... */\n    tag_80:\n        /* \"contracts/Insurance.sol\":1570:1577  uint256 */\n      0x00\n        /* \"contracts/Insurance.sol\":1291:1581  function createInsurance(... */\n      swap8\n      swap7\n      pop\n      pop\n      pop\n      pop\n      pop\n      pop\n      pop\n      jump\t// out\n        /* \"contracts/Insurance.sol\":2385:2537  function updateStatus(status state, uint256 insuranceId) public { //policyOwnerOnly(insuranceId) {... */\n    tag_85:\n        /* \"contracts/Insurance.sol\":2525:2530  state */\n      dup2\n        /* \"contracts/Insurance.sol\":2492:2502  insurances */\n      0x01\n        /* \"contracts/Insurance.sol\":2492:2515  insurances[insuranceId] */\n      0x00\n        /* \"contracts/Insurance.sol\":2503:2514  insuranceId */\n      dup4\n        /* \"contracts/Insurance.sol\":2492:2515  insurances[insuranceId] */\n      dup2\n      mstore\n      0x20\n      add\n      swap1\n      dup2\n      mstore\n      0x20\n      add\n      0x00\n      keccak256\n        /* \"contracts/Insurance.sol\":2492:2522  insurances[insuranceId].status */\n      0x09\n      add\n      0x01\n        /* \"contracts/Insurance.sol\":2492:2530  insurances[insuranceId].status = state */\n      0x0100\n      exp\n      dup2\n      sload\n      dup2\n      0xff\n      mul\n      not\n      and\n      swap1\n      dup4\n      0x05\n      dup2\n      gt\n      iszero\n      tag_127\n      jumpi\n      tag_128\n      tag_118\n      jump\t// in\n    tag_128:\n    tag_127:\n      mul\n      or\n      swap1\n      sstore\n      pop\n        /* \"contracts/Insurance.sol\":2385:2537  function updateStatus(status state, uint256 insuranceId) public { //policyOwnerOnly(insuranceId) {... */\n      pop\n      pop\n      jump\t// out\n        /* \"contracts/Insurance.sol\":4229:4381  function getPolicyOwner(uint256 stakeholderinfoId) public view returns (uint256) {... */\n    tag_88:\n        /* \"contracts/Insurance.sol\":4301:4308  uint256 */\n      0x00\n        /* \"contracts/Insurance.sol\":4327:4343  stakeholderinfos */\n      0x03\n        /* \"contracts/Insurance.sol\":4327:4362  stakeholderinfos[stakeholderinfoId] */\n      0x00\n        /* \"contracts/Insurance.sol\":4344:4361  stakeholderinfoId */\n      dup4\n        /* \"contracts/Insurance.sol\":4327:4362  stakeholderinfos[stakeholderinfoId] */\n      dup2\n      mstore\n      0x20\n      add\n      swap1\n      dup2\n      mstore\n      0x20\n      add\n      0x00\n      keccak256\n        /* \"contracts/Insurance.sol\":4327:4374  stakeholderinfos[stakeholderinfoId].policyOwner */\n      0x00\n      add\n      sload\n        /* \"contracts/Insurance.sol\":4320:4374  return stakeholderinfos[stakeholderinfoId].policyOwner */\n      swap1\n      pop\n        /* \"contracts/Insurance.sol\":4229:4381  function getPolicyOwner(uint256 stakeholderinfoId) public view returns (uint256) {... */\n      swap2\n      swap1\n      pop\n      jump\t// out\n        /* \"contracts/Insurance.sol\":2543:2794  function setExpiryDate(uint256 date, uint256 insuranceId) public {//companyOnly(insuranceId) {... */\n    tag_92:\n        /* \"contracts/Insurance.sol\":2689:2690  0 */\n      0x00\n        /* \"contracts/Insurance.sol\":2651:2661  insurances */\n      0x01\n        /* \"contracts/Insurance.sol\":2651:2674  insurances[insuranceId] */\n      0x00\n        /* \"contracts/Insurance.sol\":2662:2673  insuranceId */\n      dup4\n        /* \"contracts/Insurance.sol\":2651:2674  insurances[insuranceId] */\n      dup2\n      mstore\n      0x20\n      add\n      swap1\n      dup2\n      mstore\n      0x20\n      add\n      0x00\n      keccak256\n        /* \"contracts/Insurance.sol\":2651:2685  insurances[insuranceId].expiryDate */\n      0x0b\n      add\n      sload\n        /* \"contracts/Insurance.sol\":2651:2690  insurances[insuranceId].expiryDate != 0 */\n      sub\n        /* \"contracts/Insurance.sol\":2643:2735  require(insurances[insuranceId].expiryDate != 0, \"Expiry date has already been initialised\") */\n      tag_131\n      jumpi\n      mload(0x40)\n      0x08c379a000000000000000000000000000000000000000000000000000000000\n      dup2\n      mstore\n      0x04\n      add\n      tag_132\n      swap1\n      tag_133\n      jump\t// in\n    tag_132:\n      mload(0x40)\n      dup1\n      swap2\n      sub\n      swap1\n      revert\n    tag_131:\n        /* \"contracts/Insurance.sol\":2782:2786  date */\n      dup2\n        /* \"contracts/Insurance.sol\":2745:2755  insurances */\n      0x01\n        /* \"contracts/Insurance.sol\":2745:2768  insurances[insuranceId] */\n      0x00\n        /* \"contracts/Insurance.sol\":2756:2767  insuranceId */\n      dup4\n        /* \"contracts/Insurance.sol\":2745:2768  insurances[insuranceId] */\n      dup2\n      mstore\n      0x20\n      add\n      swap1\n      dup2\n      mstore\n      0x20\n      add\n      0x00\n      keccak256\n        /* \"contracts/Insurance.sol\":2745:2779  insurances[insuranceId].expiryDate */\n      0x0b\n      add\n        /* \"contracts/Insurance.sol\":2745:2786  insurances[insuranceId].expiryDate = date */\n      dup2\n      swap1\n      sstore\n      pop\n        /* \"contracts/Insurance.sol\":2543:2794  function setExpiryDate(uint256 date, uint256 insuranceId) public {//companyOnly(insuranceId) {... */\n      pop\n      pop\n      jump\t// out\n        /* \"contracts/Insurance.sol\":923:1105  function createStakeholderInfo (uint256 policyOwner,... */\n    tag_96:\n        /* \"contracts/Insurance.sol\":1094:1101  uint256 */\n      0x00\n        /* \"contracts/Insurance.sol\":923:1105  function createStakeholderInfo (uint256 policyOwner,... */\n      swap5\n      swap4\n      pop\n      pop\n      pop\n      pop\n      jump\t// out\n        /* \"contracts/Insurance.sol\":3804:3941  function getInsuranceCompany(uint256 insuranceId) public view returns (uint256) {... */\n    tag_100:\n        /* \"contracts/Insurance.sol\":3875:3882  uint256 */\n      0x00\n        /* \"contracts/Insurance.sol\":3901:3911  insurances */\n      0x01\n        /* \"contracts/Insurance.sol\":3901:3924  insurances[insuranceId] */\n      0x00\n        /* \"contracts/Insurance.sol\":3912:3923  insuranceId */\n      dup4\n        /* \"contracts/Insurance.sol\":3901:3924  insurances[insuranceId] */\n      dup2\n      mstore\n      0x20\n      add\n      swap1\n      dup2\n      mstore\n      0x20\n      add\n      0x00\n      keccak256\n        /* \"contracts/Insurance.sol\":3901:3934  insurances[insuranceId].companyId */\n      0x01\n      add\n      sload\n        /* \"contracts/Insurance.sol\":3894:3934  return insurances[insuranceId].companyId */\n      swap1\n      pop\n        /* \"contracts/Insurance.sol\":3804:3941  function getInsuranceCompany(uint256 insuranceId) public view returns (uint256) {... */\n      swap2\n      swap1\n      pop\n      jump\t// out\n        /* \"contracts/Insurance.sol\":4567:4734  function autoTrigger() public {... */\n    tag_103:\n      jump\t// out\n    tag_114:\n      mload(0x40)\n      dup1\n      0x0140\n      add\n      0x40\n      mstore\n      dup1\n      0x00\n      dup2\n      mstore\n      0x20\n      add\n      0x00\n      dup2\n      mstore\n      0x20\n      add\n      tag_137\n      tag_138\n      jump\t// in\n    tag_137:\n      dup2\n      mstore\n      0x20\n      add\n      0x00\n      dup2\n      mstore\n      0x20\n      add\n      0x00\n      dup2\n      mstore\n      0x20\n      add\n      0x00\n      dup2\n      mstore\n      0x20\n      add\n      0x00\n      0x01\n      dup2\n      gt\n      iszero\n      tag_139\n      jumpi\n      tag_140\n      tag_118\n      jump\t// in\n    tag_140:\n    tag_139:\n      dup2\n      mstore\n      0x20\n      add\n      0x00\n      0x05\n      dup2\n      gt\n      iszero\n      tag_141\n      jumpi\n      tag_142\n      tag_118\n      jump\t// in\n    tag_142:\n    tag_141:\n      dup2\n      mstore\n      0x20\n      add\n      0x00\n      dup2\n      mstore\n      0x20\n      add\n      0x00\n      dup2\n      mstore\n      pop\n      swap1\n      jump\t// out\n    tag_138:\n      mload(0x40)\n      dup1\n      0x80\n      add\n      0x40\n      mstore\n      dup1\n      0x00\n      dup2\n      mstore\n      0x20\n      add\n      0x00\n      dup2\n      mstore\n      0x20\n      add\n      0x00\n      dup2\n      mstore\n      0x20\n      add\n      0x00\n      dup2\n      mstore\n      pop\n      swap1\n      jump\t// out\n        /* \"#utility.yul\":88:205   */\n    tag_144:\n        /* \"#utility.yul\":197:198   */\n      0x00\n        /* \"#utility.yul\":194:195   */\n      dup1\n        /* \"#utility.yul\":187:199   */\n      revert\n        /* \"#utility.yul\":334:411   */\n    tag_146:\n        /* \"#utility.yul\":371:378   */\n      0x00\n        /* \"#utility.yul\":400:405   */\n      dup2\n        /* \"#utility.yul\":389:405   */\n      swap1\n      pop\n        /* \"#utility.yul\":334:411   */\n      swap2\n      swap1\n      pop\n      jump\t// out\n        /* \"#utility.yul\":417:539   */\n    tag_147:\n        /* \"#utility.yul\":490:514   */\n      tag_178\n        /* \"#utility.yul\":508:513   */\n      dup2\n        /* \"#utility.yul\":490:514   */\n      tag_146\n      jump\t// in\n    tag_178:\n        /* \"#utility.yul\":483:488   */\n      dup2\n        /* \"#utility.yul\":480:515   */\n      eq\n        /* \"#utility.yul\":470:533   */\n      tag_179\n      jumpi\n        /* \"#utility.yul\":529:530   */\n      0x00\n        /* \"#utility.yul\":526:527   */\n      dup1\n        /* \"#utility.yul\":519:531   */\n      revert\n        /* \"#utility.yul\":470:533   */\n    tag_179:\n        /* \"#utility.yul\":417:539   */\n      pop\n      jump\t// out\n        /* \"#utility.yul\":545:684   */\n    tag_148:\n        /* \"#utility.yul\":591:596   */\n      0x00\n        /* \"#utility.yul\":629:635   */\n      dup2\n        /* \"#utility.yul\":616:636   */\n      calldataload\n        /* \"#utility.yul\":607:636   */\n      swap1\n      pop\n        /* \"#utility.yul\":645:678   */\n      tag_181\n        /* \"#utility.yul\":672:677   */\n      dup2\n        /* \"#utility.yul\":645:678   */\n      tag_147\n      jump\t// in\n    tag_181:\n        /* \"#utility.yul\":545:684   */\n      swap3\n      swap2\n      pop\n      pop\n      jump\t// out\n        /* \"#utility.yul\":690:1019   */\n    tag_27:\n        /* \"#utility.yul\":749:755   */\n      0x00\n        /* \"#utility.yul\":798:800   */\n      0x20\n        /* \"#utility.yul\":786:795   */\n      dup3\n        /* \"#utility.yul\":777:784   */\n      dup5\n        /* \"#utility.yul\":773:796   */\n      sub\n        /* \"#utility.yul\":769:801   */\n      slt\n        /* \"#utility.yul\":766:885   */\n      iszero\n      tag_183\n      jumpi\n        /* \"#utility.yul\":804:883   */\n      tag_184\n      tag_144\n      jump\t// in\n    tag_184:\n        /* \"#utility.yul\":766:885   */\n    tag_183:\n        /* \"#utility.yul\":924:925   */\n      0x00\n        /* \"#utility.yul\":949:1002   */\n      tag_185\n        /* \"#utility.yul\":994:1001   */\n      dup5\n        /* \"#utility.yul\":985:991   */\n      dup3\n        /* \"#utility.yul\":974:983   */\n      dup6\n        /* \"#utility.yul\":970:992   */\n      add\n        /* \"#utility.yul\":949:1002   */\n      tag_148\n      jump\t// in\n    tag_185:\n        /* \"#utility.yul\":939:1002   */\n      swap2\n      pop\n        /* \"#utility.yul\":895:1012   */\n      pop\n        /* \"#utility.yul\":690:1019   */\n      swap3\n      swap2\n      pop\n      pop\n      jump\t// out\n        /* \"#utility.yul\":1025:1143   */\n    tag_149:\n        /* \"#utility.yul\":1112:1136   */\n      tag_187\n        /* \"#utility.yul\":1130:1135   */\n      dup2\n        /* \"#utility.yul\":1112:1136   */\n      tag_146\n      jump\t// in\n    tag_187:\n        /* \"#utility.yul\":1107:1110   */\n      dup3\n        /* \"#utility.yul\":1100:1137   */\n      mstore\n        /* \"#utility.yul\":1025:1143   */\n      pop\n      pop\n      jump\t// out\n        /* \"#utility.yul\":1149:1371   */\n    tag_30:\n        /* \"#utility.yul\":1242:1246   */\n      0x00\n        /* \"#utility.yul\":1280:1282   */\n      0x20\n        /* \"#utility.yul\":1269:1278   */\n      dup3\n        /* \"#utility.yul\":1265:1283   */\n      add\n        /* \"#utility.yul\":1257:1283   */\n      swap1\n      pop\n        /* \"#utility.yul\":1293:1364   */\n      tag_189\n        /* \"#utility.yul\":1361:1362   */\n      0x00\n        /* \"#utility.yul\":1350:1359   */\n      dup4\n        /* \"#utility.yul\":1346:1363   */\n      add\n        /* \"#utility.yul\":1337:1343   */\n      dup5\n        /* \"#utility.yul\":1293:1364   */\n      tag_149\n      jump\t// in\n    tag_189:\n        /* \"#utility.yul\":1149:1371   */\n      swap3\n      swap2\n      pop\n      pop\n      jump\t// out\n        /* \"#utility.yul\":1377:1851   */\n    tag_33:\n        /* \"#utility.yul\":1445:1451   */\n      0x00\n        /* \"#utility.yul\":1453:1459   */\n      dup1\n        /* \"#utility.yul\":1502:1504   */\n      0x40\n        /* \"#utility.yul\":1490:1499   */\n      dup4\n        /* \"#utility.yul\":1481:1488   */\n      dup6\n        /* \"#utility.yul\":1477:1500   */\n      sub\n        /* \"#utility.yul\":1473:1505   */\n      slt\n        /* \"#utility.yul\":1470:1589   */\n      iszero\n      tag_191\n      jumpi\n        /* \"#utility.yul\":1508:1587   */\n      tag_192\n      tag_144\n      jump\t// in\n    tag_192:\n        /* \"#utility.yul\":1470:1589   */\n    tag_191:\n        /* \"#utility.yul\":1628:1629   */\n      0x00\n        /* \"#utility.yul\":1653:1706   */\n      tag_193\n        /* \"#utility.yul\":1698:1705   */\n      dup6\n        /* \"#utility.yul\":1689:1695   */\n      dup3\n        /* \"#utility.yul\":1678:1687   */\n      dup7\n        /* \"#utility.yul\":1674:1696   */\n      add\n        /* \"#utility.yul\":1653:1706   */\n      tag_148\n      jump\t// in\n    tag_193:\n        /* \"#utility.yul\":1643:1706   */\n      swap3\n      pop\n        /* \"#utility.yul\":1599:1716   */\n      pop\n        /* \"#utility.yul\":1755:1757   */\n      0x20\n        /* \"#utility.yul\":1781:1834   */\n      tag_194\n        /* \"#utility.yul\":1826:1833   */\n      dup6\n        /* \"#utility.yul\":1817:1823   */\n      dup3\n        /* \"#utility.yul\":1806:1815   */\n      dup7\n        /* \"#utility.yul\":1802:1824   */\n      add\n        /* \"#utility.yul\":1781:1834   */\n      tag_148\n      jump\t// in\n    tag_194:\n        /* \"#utility.yul\":1771:1834   */\n      swap2\n      pop\n        /* \"#utility.yul\":1726:1844   */\n      pop\n        /* \"#utility.yul\":1377:1851   */\n      swap3\n      pop\n      swap3\n      swap1\n      pop\n      jump\t// out\n        /* \"#utility.yul\":1857:2410   */\n    tag_43:\n        /* \"#utility.yul\":2034:2038   */\n      0x00\n        /* \"#utility.yul\":2072:2075   */\n      0x80\n        /* \"#utility.yul\":2061:2070   */\n      dup3\n        /* \"#utility.yul\":2057:2076   */\n      add\n        /* \"#utility.yul\":2049:2076   */\n      swap1\n      pop\n        /* \"#utility.yul\":2086:2157   */\n      tag_196\n        /* \"#utility.yul\":2154:2155   */\n      0x00\n        /* \"#utility.yul\":2143:2152   */\n      dup4\n        /* \"#utility.yul\":2139:2156   */\n      add\n        /* \"#utility.yul\":2130:2136   */\n      dup8\n        /* \"#utility.yul\":2086:2157   */\n      tag_149\n      jump\t// in\n    tag_196:\n        /* \"#utility.yul\":2167:2239   */\n      tag_197\n        /* \"#utility.yul\":2235:2237   */\n      0x20\n        /* \"#utility.yul\":2224:2233   */\n      dup4\n        /* \"#utility.yul\":2220:2238   */\n      add\n        /* \"#utility.yul\":2211:2217   */\n      dup7\n        /* \"#utility.yul\":2167:2239   */\n      tag_149\n      jump\t// in\n    tag_197:\n        /* \"#utility.yul\":2249:2321   */\n      tag_198\n        /* \"#utility.yul\":2317:2319   */\n      0x40\n        /* \"#utility.yul\":2306:2315   */\n      dup4\n        /* \"#utility.yul\":2302:2320   */\n      add\n        /* \"#utility.yul\":2293:2299   */\n      dup6\n        /* \"#utility.yul\":2249:2321   */\n      tag_149\n      jump\t// in\n    tag_198:\n        /* \"#utility.yul\":2331:2403   */\n      tag_199\n        /* \"#utility.yul\":2399:2401   */\n      0x60\n        /* \"#utility.yul\":2388:2397   */\n      dup4\n        /* \"#utility.yul\":2384:2402   */\n      add\n        /* \"#utility.yul\":2375:2381   */\n      dup5\n        /* \"#utility.yul\":2331:2403   */\n      tag_149\n      jump\t// in\n    tag_199:\n        /* \"#utility.yul\":1857:2410   */\n      swap6\n      swap5\n      pop\n      pop\n      pop\n      pop\n      pop\n      jump\t// out\n        /* \"#utility.yul\":2416:2524   */\n    tag_150:\n        /* \"#utility.yul\":2493:2517   */\n      tag_201\n        /* \"#utility.yul\":2511:2516   */\n      dup2\n        /* \"#utility.yul\":2493:2517   */\n      tag_146\n      jump\t// in\n    tag_201:\n        /* \"#utility.yul\":2488:2491   */\n      dup3\n        /* \"#utility.yul\":2481:2518   */\n      mstore\n        /* \"#utility.yul\":2416:2524   */\n      pop\n      pop\n      jump\t// out\n        /* \"#utility.yul\":2606:3503   */\n    tag_151:\n        /* \"#utility.yul\":2765:2769   */\n      0x80\n        /* \"#utility.yul\":2760:2763   */\n      dup3\n        /* \"#utility.yul\":2756:2770   */\n      add\n        /* \"#utility.yul\":2859:2863   */\n      0x00\n        /* \"#utility.yul\":2852:2857   */\n      dup3\n        /* \"#utility.yul\":2848:2864   */\n      add\n        /* \"#utility.yul\":2842:2865   */\n      mload\n        /* \"#utility.yul\":2878:2941   */\n      tag_203\n        /* \"#utility.yul\":2935:2939   */\n      0x00\n        /* \"#utility.yul\":2930:2933   */\n      dup6\n        /* \"#utility.yul\":2926:2940   */\n      add\n        /* \"#utility.yul\":2912:2924   */\n      dup3\n        /* \"#utility.yul\":2878:2941   */\n      tag_150\n      jump\t// in\n    tag_203:\n        /* \"#utility.yul\":2780:2951   */\n      pop\n        /* \"#utility.yul\":3040:3044   */\n      0x20\n        /* \"#utility.yul\":3033:3038   */\n      dup3\n        /* \"#utility.yul\":3029:3045   */\n      add\n        /* \"#utility.yul\":3023:3046   */\n      mload\n        /* \"#utility.yul\":3059:3122   */\n      tag_204\n        /* \"#utility.yul\":3116:3120   */\n      0x20\n        /* \"#utility.yul\":3111:3114   */\n      dup6\n        /* \"#utility.yul\":3107:3121   */\n      add\n        /* \"#utility.yul\":3093:3105   */\n      dup3\n        /* \"#utility.yul\":3059:3122   */\n      tag_150\n      jump\t// in\n    tag_204:\n        /* \"#utility.yul\":2961:3132   */\n      pop\n        /* \"#utility.yul\":3221:3225   */\n      0x40\n        /* \"#utility.yul\":3214:3219   */\n      dup3\n        /* \"#utility.yul\":3210:3226   */\n      add\n        /* \"#utility.yul\":3204:3227   */\n      mload\n        /* \"#utility.yul\":3240:3303   */\n      tag_205\n        /* \"#utility.yul\":3297:3301   */\n      0x40\n        /* \"#utility.yul\":3292:3295   */\n      dup6\n        /* \"#utility.yul\":3288:3302   */\n      add\n        /* \"#utility.yul\":3274:3286   */\n      dup3\n        /* \"#utility.yul\":3240:3303   */\n      tag_150\n      jump\t// in\n    tag_205:\n        /* \"#utility.yul\":3142:3313   */\n      pop\n        /* \"#utility.yul\":3404:3408   */\n      0x60\n        /* \"#utility.yul\":3397:3402   */\n      dup3\n        /* \"#utility.yul\":3393:3409   */\n      add\n        /* \"#utility.yul\":3387:3410   */\n      mload\n        /* \"#utility.yul\":3423:3486   */\n      tag_206\n        /* \"#utility.yul\":3480:3484   */\n      0x60\n        /* \"#utility.yul\":3475:3478   */\n      dup6\n        /* \"#utility.yul\":3471:3485   */\n      add\n        /* \"#utility.yul\":3457:3469   */\n      dup3\n        /* \"#utility.yul\":3423:3486   */\n      tag_150\n      jump\t// in\n    tag_206:\n        /* \"#utility.yul\":3323:3496   */\n      pop\n        /* \"#utility.yul\":2734:3503   */\n      pop\n        /* \"#utility.yul\":2606:3503   */\n      pop\n      pop\n      jump\t// out\n        /* \"#utility.yul\":3509:3689   */\n    tag_118:\n        /* \"#utility.yul\":3557:3634   */\n      0x4e487b7100000000000000000000000000000000000000000000000000000000\n        /* \"#utility.yul\":3554:3555   */\n      0x00\n        /* \"#utility.yul\":3547:3635   */\n      mstore\n        /* \"#utility.yul\":3654:3658   */\n      0x21\n        /* \"#utility.yul\":3651:3652   */\n      0x04\n        /* \"#utility.yul\":3644:3659   */\n      mstore\n        /* \"#utility.yul\":3678:3682   */\n      0x24\n        /* \"#utility.yul\":3675:3676   */\n      0x00\n        /* \"#utility.yul\":3668:3683   */\n      revert\n        /* \"#utility.yul\":3695:3815   */\n    tag_152:\n        /* \"#utility.yul\":3783:3784   */\n      0x02\n        /* \"#utility.yul\":3776:3781   */\n      dup2\n        /* \"#utility.yul\":3773:3785   */\n      lt\n        /* \"#utility.yul\":3763:3809   */\n      tag_209\n      jumpi\n        /* \"#utility.yul\":3789:3807   */\n      tag_210\n      tag_118\n      jump\t// in\n    tag_210:\n        /* \"#utility.yul\":3763:3809   */\n    tag_209:\n        /* \"#utility.yul\":3695:3815   */\n      pop\n      jump\t// out\n        /* \"#utility.yul\":3821:3962   */\n    tag_153:\n        /* \"#utility.yul\":3873:3880   */\n      0x00\n        /* \"#utility.yul\":3902:3907   */\n      dup2\n        /* \"#utility.yul\":3891:3907   */\n      swap1\n      pop\n        /* \"#utility.yul\":3908:3956   */\n      tag_212\n        /* \"#utility.yul\":3950:3955   */\n      dup3\n        /* \"#utility.yul\":3908:3956   */\n      tag_152\n      jump\t// in\n    tag_212:\n        /* \"#utility.yul\":3821:3962   */\n      swap2\n      swap1\n      pop\n      jump\t// out\n        /* \"#utility.yul\":3968:4109   */\n    tag_154:\n        /* \"#utility.yul\":4031:4040   */\n      0x00\n        /* \"#utility.yul\":4064:4103   */\n      tag_214\n        /* \"#utility.yul\":4097:4102   */\n      dup3\n        /* \"#utility.yul\":4064:4103   */\n      tag_153\n      jump\t// in\n    tag_214:\n        /* \"#utility.yul\":4051:4103   */\n      swap1\n      pop\n        /* \"#utility.yul\":3968:4109   */\n      swap2\n      swap1\n      pop\n      jump\t// out\n        /* \"#utility.yul\":4115:4272   */\n    tag_155:\n        /* \"#utility.yul\":4215:4265   */\n      tag_216\n        /* \"#utility.yul\":4259:4264   */\n      dup2\n        /* \"#utility.yul\":4215:4265   */\n      tag_154\n      jump\t// in\n    tag_216:\n        /* \"#utility.yul\":4210:4213   */\n      dup3\n        /* \"#utility.yul\":4203:4266   */\n      mstore\n        /* \"#utility.yul\":4115:4272   */\n      pop\n      pop\n      jump\t// out\n        /* \"#utility.yul\":4278:4392   */\n    tag_156:\n        /* \"#utility.yul\":4360:4361   */\n      0x06\n        /* \"#utility.yul\":4353:4358   */\n      dup2\n        /* \"#utility.yul\":4350:4362   */\n      lt\n        /* \"#utility.yul\":4340:4386   */\n      tag_218\n      jumpi\n        /* \"#utility.yul\":4366:4384   */\n      tag_219\n      tag_118\n      jump\t// in\n    tag_219:\n        /* \"#utility.yul\":4340:4386   */\n    tag_218:\n        /* \"#utility.yul\":4278:4392   */\n      pop\n      jump\t// out\n        /* \"#utility.yul\":4398:4527   */\n    tag_157:\n        /* \"#utility.yul\":4444:4451   */\n      0x00\n        /* \"#utility.yul\":4473:4478   */\n      dup2\n        /* \"#utility.yul\":4462:4478   */\n      swap1\n      pop\n        /* \"#utility.yul\":4479:4521   */\n      tag_221\n        /* \"#utility.yul\":4515:4520   */\n      dup3\n        /* \"#utility.yul\":4479:4521   */\n      tag_156\n      jump\t// in\n    tag_221:\n        /* \"#utility.yul\":4398:4527   */\n      swap2\n      swap1\n      pop\n      jump\t// out\n        /* \"#utility.yul\":4533:4662   */\n    tag_158:\n        /* \"#utility.yul\":4590:4599   */\n      0x00\n        /* \"#utility.yul\":4623:4656   */\n      tag_223\n        /* \"#utility.yul\":4650:4655   */\n      dup3\n        /* \"#utility.yul\":4623:4656   */\n      tag_157\n      jump\t// in\n    tag_223:\n        /* \"#utility.yul\":4610:4656   */\n      swap1\n      pop\n        /* \"#utility.yul\":4533:4662   */\n      swap2\n      swap1\n      pop\n      jump\t// out\n        /* \"#utility.yul\":4668:4813   */\n    tag_159:\n        /* \"#utility.yul\":4762:4806   */\n      tag_225\n        /* \"#utility.yul\":4800:4805   */\n      dup2\n        /* \"#utility.yul\":4762:4806   */\n      tag_158\n      jump\t// in\n    tag_225:\n        /* \"#utility.yul\":4757:4760   */\n      dup3\n        /* \"#utility.yul\":4750:4807   */\n      mstore\n        /* \"#utility.yul\":4668:4813   */\n      pop\n      pop\n      jump\t// out\n        /* \"#utility.yul\":4819:6203   */\n    tag_56:\n        /* \"#utility.yul\":5246:5250   */\n      0x00\n        /* \"#utility.yul\":5284:5287   */\n      0x01a0\n        /* \"#utility.yul\":5273:5282   */\n      dup3\n        /* \"#utility.yul\":5269:5288   */\n      add\n        /* \"#utility.yul\":5261:5288   */\n      swap1\n      pop\n        /* \"#utility.yul\":5298:5369   */\n      tag_227\n        /* \"#utility.yul\":5366:5367   */\n      0x00\n        /* \"#utility.yul\":5355:5364   */\n      dup4\n        /* \"#utility.yul\":5351:5368   */\n      add\n        /* \"#utility.yul\":5342:5348   */\n      dup14\n        /* \"#utility.yul\":5298:5369   */\n      tag_149\n      jump\t// in\n    tag_227:\n        /* \"#utility.yul\":5379:5451   */\n      tag_228\n        /* \"#utility.yul\":5447:5449   */\n      0x20\n        /* \"#utility.yul\":5436:5445   */\n      dup4\n        /* \"#utility.yul\":5432:5450   */\n      add\n        /* \"#utility.yul\":5423:5429   */\n      dup13\n        /* \"#utility.yul\":5379:5451   */\n      tag_149\n      jump\t// in\n    tag_228:\n        /* \"#utility.yul\":5461:5595   */\n      tag_229\n        /* \"#utility.yul\":5591:5593   */\n      0x40\n        /* \"#utility.yul\":5580:5589   */\n      dup4\n        /* \"#utility.yul\":5576:5594   */\n      add\n        /* \"#utility.yul\":5567:5573   */\n      dup12\n        /* \"#utility.yul\":5461:5595   */\n      tag_151\n      jump\t// in\n    tag_229:\n        /* \"#utility.yul\":5605:5678   */\n      tag_230\n        /* \"#utility.yul\":5673:5676   */\n      0xc0\n        /* \"#utility.yul\":5662:5671   */\n      dup4\n        /* \"#utility.yul\":5658:5677   */\n      add\n        /* \"#utility.yul\":5649:5655   */\n      dup11\n        /* \"#utility.yul\":5605:5678   */\n      tag_149\n      jump\t// in\n    tag_230:\n        /* \"#utility.yul\":5688:5761   */\n      tag_231\n        /* \"#utility.yul\":5756:5759   */\n      0xe0\n        /* \"#utility.yul\":5745:5754   */\n      dup4\n        /* \"#utility.yul\":5741:5760   */\n      add\n        /* \"#utility.yul\":5732:5738   */\n      dup10\n        /* \"#utility.yul\":5688:5761   */\n      tag_149\n      jump\t// in\n    tag_231:\n        /* \"#utility.yul\":5771:5844   */\n      tag_232\n        /* \"#utility.yul\":5839:5842   */\n      0x0100\n        /* \"#utility.yul\":5828:5837   */\n      dup4\n        /* \"#utility.yul\":5824:5843   */\n      add\n        /* \"#utility.yul\":5815:5821   */\n      dup9\n        /* \"#utility.yul\":5771:5844   */\n      tag_149\n      jump\t// in\n    tag_232:\n        /* \"#utility.yul\":5854:5940   */\n      tag_233\n        /* \"#utility.yul\":5935:5938   */\n      0x0120\n        /* \"#utility.yul\":5924:5933   */\n      dup4\n        /* \"#utility.yul\":5920:5939   */\n      add\n        /* \"#utility.yul\":5911:5917   */\n      dup8\n        /* \"#utility.yul\":5854:5940   */\n      tag_155\n      jump\t// in\n    tag_233:\n        /* \"#utility.yul\":5950:6030   */\n      tag_234\n        /* \"#utility.yul\":6025:6028   */\n      0x0140\n        /* \"#utility.yul\":6014:6023   */\n      dup4\n        /* \"#utility.yul\":6010:6029   */\n      add\n        /* \"#utility.yul\":6001:6007   */\n      dup7\n        /* \"#utility.yul\":5950:6030   */\n      tag_159\n      jump\t// in\n    tag_234:\n        /* \"#utility.yul\":6040:6113   */\n      tag_235\n        /* \"#utility.yul\":6108:6111   */\n      0x0160\n        /* \"#utility.yul\":6097:6106   */\n      dup4\n        /* \"#utility.yul\":6093:6112   */\n      add\n        /* \"#utility.yul\":6084:6090   */\n      dup6\n        /* \"#utility.yul\":6040:6113   */\n      tag_149\n      jump\t// in\n    tag_235:\n        /* \"#utility.yul\":6123:6196   */\n      tag_236\n        /* \"#utility.yul\":6191:6194   */\n      0x0180\n        /* \"#utility.yul\":6180:6189   */\n      dup4\n        /* \"#utility.yul\":6176:6195   */\n      add\n        /* \"#utility.yul\":6167:6173   */\n      dup5\n        /* \"#utility.yul\":6123:6196   */\n      tag_149\n      jump\t// in\n    tag_236:\n        /* \"#utility.yul\":4819:6203   */\n      swap12\n      swap11\n      pop\n      pop\n      pop\n      pop\n      pop\n      pop\n      pop\n      pop\n      pop\n      pop\n      pop\n      jump\t// out\n        /* \"#utility.yul\":6209:6445   */\n    tag_61:\n        /* \"#utility.yul\":6309:6313   */\n      0x00\n        /* \"#utility.yul\":6347:6349   */\n      0x20\n        /* \"#utility.yul\":6336:6345   */\n      dup3\n        /* \"#utility.yul\":6332:6350   */\n      add\n        /* \"#utility.yul\":6324:6350   */\n      swap1\n      pop\n        /* \"#utility.yul\":6360:6438   */\n      tag_238\n        /* \"#utility.yul\":6435:6436   */\n      0x00\n        /* \"#utility.yul\":6424:6433   */\n      dup4\n        /* \"#utility.yul\":6420:6437   */\n      add\n        /* \"#utility.yul\":6411:6417   */\n      dup5\n        /* \"#utility.yul\":6360:6438   */\n      tag_159\n      jump\t// in\n    tag_238:\n        /* \"#utility.yul\":6209:6445   */\n      swap3\n      swap2\n      pop\n      pop\n      jump\t// out\n        /* \"#utility.yul\":6527:7414   */\n    tag_160:\n        /* \"#utility.yul\":6676:6680   */\n      0x80\n        /* \"#utility.yul\":6671:6674   */\n      dup3\n        /* \"#utility.yul\":6667:6681   */\n      add\n        /* \"#utility.yul\":6770:6774   */\n      0x00\n        /* \"#utility.yul\":6763:6768   */\n      dup3\n        /* \"#utility.yul\":6759:6775   */\n      add\n        /* \"#utility.yul\":6753:6776   */\n      mload\n        /* \"#utility.yul\":6789:6852   */\n      tag_240\n        /* \"#utility.yul\":6846:6850   */\n      0x00\n        /* \"#utility.yul\":6841:6844   */\n      dup6\n        /* \"#utility.yul\":6837:6851   */\n      add\n        /* \"#utility.yul\":6823:6835   */\n      dup3\n        /* \"#utility.yul\":6789:6852   */\n      tag_150\n      jump\t// in\n    tag_240:\n        /* \"#utility.yul\":6691:6862   */\n      pop\n        /* \"#utility.yul\":6951:6955   */\n      0x20\n        /* \"#utility.yul\":6944:6949   */\n      dup3\n        /* \"#utility.yul\":6940:6956   */\n      add\n        /* \"#utility.yul\":6934:6957   */\n      mload\n        /* \"#utility.yul\":6970:7033   */\n      tag_241\n        /* \"#utility.yul\":7027:7031   */\n      0x20\n        /* \"#utility.yul\":7022:7025   */\n      dup6\n        /* \"#utility.yul\":7018:7032   */\n      add\n        /* \"#utility.yul\":7004:7016   */\n      dup3\n        /* \"#utility.yul\":6970:7033   */\n      tag_150\n      jump\t// in\n    tag_241:\n        /* \"#utility.yul\":6872:7043   */\n      pop\n        /* \"#utility.yul\":7132:7136   */\n      0x40\n        /* \"#utility.yul\":7125:7130   */\n      dup3\n        /* \"#utility.yul\":7121:7137   */\n      add\n        /* \"#utility.yul\":7115:7138   */\n      mload\n        /* \"#utility.yul\":7151:7214   */\n      tag_242\n        /* \"#utility.yul\":7208:7212   */\n      0x40\n        /* \"#utility.yul\":7203:7206   */\n      dup6\n        /* \"#utility.yul\":7199:7213   */\n      add\n        /* \"#utility.yul\":7185:7197   */\n      dup3\n        /* \"#utility.yul\":7151:7214   */\n      tag_150\n      jump\t// in\n    tag_242:\n        /* \"#utility.yul\":7053:7224   */\n      pop\n        /* \"#utility.yul\":7315:7319   */\n      0x60\n        /* \"#utility.yul\":7308:7313   */\n      dup3\n        /* \"#utility.yul\":7304:7320   */\n      add\n        /* \"#utility.yul\":7298:7321   */\n      mload\n        /* \"#utility.yul\":7334:7397   */\n      tag_243\n        /* \"#utility.yul\":7391:7395   */\n      0x60\n        /* \"#utility.yul\":7386:7389   */\n      dup6\n        /* \"#utility.yul\":7382:7396   */\n      add\n        /* \"#utility.yul\":7368:7380   */\n      dup3\n        /* \"#utility.yul\":7334:7397   */\n      tag_150\n      jump\t// in\n    tag_243:\n        /* \"#utility.yul\":7234:7407   */\n      pop\n        /* \"#utility.yul\":6645:7414   */\n      pop\n        /* \"#utility.yul\":6527:7414   */\n      pop\n      pop\n      jump\t// out\n        /* \"#utility.yul\":7420:7567   */\n    tag_161:\n        /* \"#utility.yul\":7510:7560   */\n      tag_245\n        /* \"#utility.yul\":7554:7559   */\n      dup2\n        /* \"#utility.yul\":7510:7560   */\n      tag_154\n      jump\t// in\n    tag_245:\n        /* \"#utility.yul\":7505:7508   */\n      dup3\n        /* \"#utility.yul\":7498:7561   */\n      mstore\n        /* \"#utility.yul\":7420:7567   */\n      pop\n      pop\n      jump\t// out\n        /* \"#utility.yul\":7573:7708   */\n    tag_162:\n        /* \"#utility.yul\":7657:7701   */\n      tag_247\n        /* \"#utility.yul\":7695:7700   */\n      dup2\n        /* \"#utility.yul\":7657:7701   */\n      tag_158\n      jump\t// in\n    tag_247:\n        /* \"#utility.yul\":7652:7655   */\n      dup3\n        /* \"#utility.yul\":7645:7702   */\n      mstore\n        /* \"#utility.yul\":7573:7708   */\n      pop\n      pop\n      jump\t// out\n        /* \"#utility.yul\":7778:9823   */\n    tag_163:\n        /* \"#utility.yul\":7925:7931   */\n      0x01a0\n        /* \"#utility.yul\":7920:7923   */\n      dup3\n        /* \"#utility.yul\":7916:7932   */\n      add\n        /* \"#utility.yul\":8012:8016   */\n      0x00\n        /* \"#utility.yul\":8005:8010   */\n      dup3\n        /* \"#utility.yul\":8001:8017   */\n      add\n        /* \"#utility.yul\":7995:8018   */\n      mload\n        /* \"#utility.yul\":8031:8094   */\n      tag_249\n        /* \"#utility.yul\":8088:8092   */\n      0x00\n        /* \"#utility.yul\":8083:8086   */\n      dup6\n        /* \"#utility.yul\":8079:8093   */\n      add\n        /* \"#utility.yul\":8065:8077   */\n      dup3\n        /* \"#utility.yul\":8031:8094   */\n      tag_150\n      jump\t// in\n    tag_249:\n        /* \"#utility.yul\":7942:8104   */\n      pop\n        /* \"#utility.yul\":8191:8195   */\n      0x20\n        /* \"#utility.yul\":8184:8189   */\n      dup3\n        /* \"#utility.yul\":8180:8196   */\n      add\n        /* \"#utility.yul\":8174:8197   */\n      mload\n        /* \"#utility.yul\":8210:8273   */\n      tag_250\n        /* \"#utility.yul\":8267:8271   */\n      0x20\n        /* \"#utility.yul\":8262:8265   */\n      dup6\n        /* \"#utility.yul\":8258:8272   */\n      add\n        /* \"#utility.yul\":8244:8256   */\n      dup3\n        /* \"#utility.yul\":8210:8273   */\n      tag_150\n      jump\t// in\n    tag_250:\n        /* \"#utility.yul\":8114:8283   */\n      pop\n        /* \"#utility.yul\":8373:8377   */\n      0x40\n        /* \"#utility.yul\":8366:8371   */\n      dup3\n        /* \"#utility.yul\":8362:8378   */\n      add\n        /* \"#utility.yul\":8356:8379   */\n      mload\n        /* \"#utility.yul\":8392:8517   */\n      tag_251\n        /* \"#utility.yul\":8511:8515   */\n      0x40\n        /* \"#utility.yul\":8506:8509   */\n      dup6\n        /* \"#utility.yul\":8502:8516   */\n      add\n        /* \"#utility.yul\":8488:8500   */\n      dup3\n        /* \"#utility.yul\":8392:8517   */\n      tag_160\n      jump\t// in\n    tag_251:\n        /* \"#utility.yul\":8293:8527   */\n      pop\n        /* \"#utility.yul\":8612:8616   */\n      0x60\n        /* \"#utility.yul\":8605:8610   */\n      dup3\n        /* \"#utility.yul\":8601:8617   */\n      add\n        /* \"#utility.yul\":8595:8618   */\n      mload\n        /* \"#utility.yul\":8631:8694   */\n      tag_252\n        /* \"#utility.yul\":8688:8692   */\n      0xc0\n        /* \"#utility.yul\":8683:8686   */\n      dup6\n        /* \"#utility.yul\":8679:8693   */\n      add\n        /* \"#utility.yul\":8665:8677   */\n      dup3\n        /* \"#utility.yul\":8631:8694   */\n      tag_150\n      jump\t// in\n    tag_252:\n        /* \"#utility.yul\":8537:8704   */\n      pop\n        /* \"#utility.yul\":8795:8799   */\n      0x80\n        /* \"#utility.yul\":8788:8793   */\n      dup3\n        /* \"#utility.yul\":8784:8800   */\n      add\n        /* \"#utility.yul\":8778:8801   */\n      mload\n        /* \"#utility.yul\":8814:8877   */\n      tag_253\n        /* \"#utility.yul\":8871:8875   */\n      0xe0\n        /* \"#utility.yul\":8866:8869   */\n      dup6\n        /* \"#utility.yul\":8862:8876   */\n      add\n        /* \"#utility.yul\":8848:8860   */\n      dup3\n        /* \"#utility.yul\":8814:8877   */\n      tag_150\n      jump\t// in\n    tag_253:\n        /* \"#utility.yul\":8714:8887   */\n      pop\n        /* \"#utility.yul\":8978:8982   */\n      0xa0\n        /* \"#utility.yul\":8971:8976   */\n      dup3\n        /* \"#utility.yul\":8967:8983   */\n      add\n        /* \"#utility.yul\":8961:8984   */\n      mload\n        /* \"#utility.yul\":8997:9062   */\n      tag_254\n        /* \"#utility.yul\":9054:9060   */\n      0x0100\n        /* \"#utility.yul\":9049:9052   */\n      dup6\n        /* \"#utility.yul\":9045:9061   */\n      add\n        /* \"#utility.yul\":9031:9043   */\n      dup3\n        /* \"#utility.yul\":8997:9062   */\n      tag_150\n      jump\t// in\n    tag_254:\n        /* \"#utility.yul\":8897:9072   */\n      pop\n        /* \"#utility.yul\":9157:9161   */\n      0xc0\n        /* \"#utility.yul\":9150:9155   */\n      dup3\n        /* \"#utility.yul\":9146:9162   */\n      add\n        /* \"#utility.yul\":9140:9163   */\n      mload\n        /* \"#utility.yul\":9176:9254   */\n      tag_255\n        /* \"#utility.yul\":9246:9252   */\n      0x0120\n        /* \"#utility.yul\":9241:9244   */\n      dup6\n        /* \"#utility.yul\":9237:9253   */\n      add\n        /* \"#utility.yul\":9223:9235   */\n      dup3\n        /* \"#utility.yul\":9176:9254   */\n      tag_161\n      jump\t// in\n    tag_255:\n        /* \"#utility.yul\":9082:9264   */\n      pop\n        /* \"#utility.yul\":9348:9352   */\n      0xe0\n        /* \"#utility.yul\":9341:9346   */\n      dup3\n        /* \"#utility.yul\":9337:9353   */\n      add\n        /* \"#utility.yul\":9331:9354   */\n      mload\n        /* \"#utility.yul\":9367:9439   */\n      tag_256\n        /* \"#utility.yul\":9431:9437   */\n      0x0140\n        /* \"#utility.yul\":9426:9429   */\n      dup6\n        /* \"#utility.yul\":9422:9438   */\n      add\n        /* \"#utility.yul\":9408:9420   */\n      dup3\n        /* \"#utility.yul\":9367:9439   */\n      tag_162\n      jump\t// in\n    tag_256:\n        /* \"#utility.yul\":9274:9449   */\n      pop\n        /* \"#utility.yul\":9536:9542   */\n      0x0100\n        /* \"#utility.yul\":9529:9534   */\n      dup3\n        /* \"#utility.yul\":9525:9543   */\n      add\n        /* \"#utility.yul\":9519:9544   */\n      mload\n        /* \"#utility.yul\":9557:9622   */\n      tag_257\n        /* \"#utility.yul\":9614:9620   */\n      0x0160\n        /* \"#utility.yul\":9609:9612   */\n      dup6\n        /* \"#utility.yul\":9605:9621   */\n      add\n        /* \"#utility.yul\":9591:9603   */\n      dup3\n        /* \"#utility.yul\":9557:9622   */\n      tag_150\n      jump\t// in\n    tag_257:\n        /* \"#utility.yul\":9459:9632   */\n      pop\n        /* \"#utility.yul\":9720:9726   */\n      0x0120\n        /* \"#utility.yul\":9713:9718   */\n      dup3\n        /* \"#utility.yul\":9709:9727   */\n      add\n        /* \"#utility.yul\":9703:9728   */\n      mload\n        /* \"#utility.yul\":9741:9806   */\n      tag_258\n        /* \"#utility.yul\":9798:9804   */\n      0x0180\n        /* \"#utility.yul\":9793:9796   */\n      dup6\n        /* \"#utility.yul\":9789:9805   */\n      add\n        /* \"#utility.yul\":9775:9787   */\n      dup3\n        /* \"#utility.yul\":9741:9806   */\n      tag_150\n      jump\t// in\n    tag_258:\n        /* \"#utility.yul\":9642:9816   */\n      pop\n        /* \"#utility.yul\":7894:9823   */\n      pop\n        /* \"#utility.yul\":7778:9823   */\n      pop\n      pop\n      jump\t// out\n        /* \"#utility.yul\":9829:10152   */\n    tag_73:\n        /* \"#utility.yul\":9972:9976   */\n      0x00\n        /* \"#utility.yul\":10010:10013   */\n      0x01a0\n        /* \"#utility.yul\":9999:10008   */\n      dup3\n        /* \"#utility.yul\":9995:10014   */\n      add\n        /* \"#utility.yul\":9987:10014   */\n      swap1\n      pop\n        /* \"#utility.yul\":10024:10145   */\n      tag_260\n        /* \"#utility.yul\":10142:10143   */\n      0x00\n        /* \"#utility.yul\":10131:10140   */\n      dup4\n        /* \"#utility.yul\":10127:10144   */\n      add\n        /* \"#utility.yul\":10118:10124   */\n      dup5\n        /* \"#utility.yul\":10024:10145   */\n      tag_163\n      jump\t// in\n    tag_260:\n        /* \"#utility.yul\":9829:10152   */\n      swap3\n      swap2\n      pop\n      pop\n      jump\t// out\n        /* \"#utility.yul\":10158:10272   */\n    tag_164:\n        /* \"#utility.yul\":10246:10247   */\n      0x02\n        /* \"#utility.yul\":10239:10244   */\n      dup2\n        /* \"#utility.yul\":10236:10248   */\n      lt\n        /* \"#utility.yul\":10226:10266   */\n      tag_262\n      jumpi\n        /* \"#utility.yul\":10262:10263   */\n      0x00\n        /* \"#utility.yul\":10259:10260   */\n      dup1\n        /* \"#utility.yul\":10252:10264   */\n      revert\n        /* \"#utility.yul\":10226:10266   */\n    tag_262:\n        /* \"#utility.yul\":10158:10272   */\n      pop\n      jump\t// out\n        /* \"#utility.yul\":10278:10447   */\n    tag_165:\n        /* \"#utility.yul\":10339:10344   */\n      0x00\n        /* \"#utility.yul\":10377:10383   */\n      dup2\n        /* \"#utility.yul\":10364:10384   */\n      calldataload\n        /* \"#utility.yul\":10355:10384   */\n      swap1\n      pop\n        /* \"#utility.yul\":10393:10441   */\n      tag_264\n        /* \"#utility.yul\":10435:10440   */\n      dup2\n        /* \"#utility.yul\":10393:10441   */\n      tag_164\n      jump\t// in\n    tag_264:\n        /* \"#utility.yul\":10278:10447   */\n      swap3\n      swap2\n      pop\n      pop\n      jump\t// out\n        /* \"#utility.yul\":10453:11686   */\n    tag_79:\n        /* \"#utility.yul\":10581:10587   */\n      0x00\n        /* \"#utility.yul\":10589:10595   */\n      dup1\n        /* \"#utility.yul\":10597:10603   */\n      0x00\n        /* \"#utility.yul\":10605:10611   */\n      dup1\n        /* \"#utility.yul\":10613:10619   */\n      0x00\n        /* \"#utility.yul\":10621:10627   */\n      dup1\n        /* \"#utility.yul\":10629:10635   */\n      0x00\n        /* \"#utility.yul\":10678:10681   */\n      0xe0\n        /* \"#utility.yul\":10666:10675   */\n      dup9\n        /* \"#utility.yul\":10657:10664   */\n      dup11\n        /* \"#utility.yul\":10653:10676   */\n      sub\n        /* \"#utility.yul\":10649:10682   */\n      slt\n        /* \"#utility.yul\":10646:10766   */\n      iszero\n      tag_266\n      jumpi\n        /* \"#utility.yul\":10685:10764   */\n      tag_267\n      tag_144\n      jump\t// in\n    tag_267:\n        /* \"#utility.yul\":10646:10766   */\n    tag_266:\n        /* \"#utility.yul\":10805:10806   */\n      0x00\n        /* \"#utility.yul\":10830:10883   */\n      tag_268\n        /* \"#utility.yul\":10875:10882   */\n      dup11\n        /* \"#utility.yul\":10866:10872   */\n      dup3\n        /* \"#utility.yul\":10855:10864   */\n      dup12\n        /* \"#utility.yul\":10851:10873   */\n      add\n        /* \"#utility.yul\":10830:10883   */\n      tag_148\n      jump\t// in\n    tag_268:\n        /* \"#utility.yul\":10820:10883   */\n      swap8\n      pop\n        /* \"#utility.yul\":10776:10893   */\n      pop\n        /* \"#utility.yul\":10932:10934   */\n      0x20\n        /* \"#utility.yul\":10958:11011   */\n      tag_269\n        /* \"#utility.yul\":11003:11010   */\n      dup11\n        /* \"#utility.yul\":10994:11000   */\n      dup3\n        /* \"#utility.yul\":10983:10992   */\n      dup12\n        /* \"#utility.yul\":10979:11001   */\n      add\n        /* \"#utility.yul\":10958:11011   */\n      tag_148\n      jump\t// in\n    tag_269:\n        /* \"#utility.yul\":10948:11011   */\n      swap7\n      pop\n        /* \"#utility.yul\":10903:11021   */\n      pop\n        /* \"#utility.yul\":11060:11062   */\n      0x40\n        /* \"#utility.yul\":11086:11139   */\n      tag_270\n        /* \"#utility.yul\":11131:11138   */\n      dup11\n        /* \"#utility.yul\":11122:11128   */\n      dup3\n        /* \"#utility.yul\":11111:11120   */\n      dup12\n        /* \"#utility.yul\":11107:11129   */\n      add\n        /* \"#utility.yul\":11086:11139   */\n      tag_148\n      jump\t// in\n    tag_270:\n        /* \"#utility.yul\":11076:11139   */\n      swap6\n      pop\n        /* \"#utility.yul\":11031:11149   */\n      pop\n        /* \"#utility.yul\":11188:11190   */\n      0x60\n        /* \"#utility.yul\":11214:11267   */\n      tag_271\n        /* \"#utility.yul\":11259:11266   */\n      dup11\n        /* \"#utility.yul\":11250:11256   */\n      dup3\n        /* \"#utility.yul\":11239:11248   */\n      dup12\n        /* \"#utility.yul\":11235:11257   */\n      add\n        /* \"#utility.yul\":11214:11267   */\n      tag_148\n      jump\t// in\n    tag_271:\n        /* \"#utility.yul\":11204:11267   */\n      swap5\n      pop\n        /* \"#utility.yul\":11159:11277   */\n      pop\n        /* \"#utility.yul\":11316:11319   */\n      0x80\n        /* \"#utility.yul\":11343:11411   */\n      tag_272\n        /* \"#utility.yul\":11403:11410   */\n      dup11\n        /* \"#utility.yul\":11394:11400   */\n      dup3\n        /* \"#utility.yul\":11383:11392   */\n      dup12\n        /* \"#utility.yul\":11379:11401   */\n      add\n        /* \"#utility.yul\":11343:11411   */\n      tag_165\n      jump\t// in\n    tag_272:\n        /* \"#utility.yul\":11333:11411   */\n      swap4\n      pop\n        /* \"#utility.yul\":11287:11421   */\n      pop\n        /* \"#utility.yul\":11460:11463   */\n      0xa0\n        /* \"#utility.yul\":11487:11540   */\n      tag_273\n        /* \"#utility.yul\":11532:11539   */\n      dup11\n        /* \"#utility.yul\":11523:11529   */\n      dup3\n        /* \"#utility.yul\":11512:11521   */\n      dup12\n        /* \"#utility.yul\":11508:11530   */\n      add\n        /* \"#utility.yul\":11487:11540   */\n      tag_148\n      jump\t// in\n    tag_273:\n        /* \"#utility.yul\":11477:11540   */\n      swap3\n      pop\n        /* \"#utility.yul\":11431:11550   */\n      pop\n        /* \"#utility.yul\":11589:11592   */\n      0xc0\n        /* \"#utility.yul\":11616:11669   */\n      tag_274\n        /* \"#utility.yul\":11661:11668   */\n      dup11\n        /* \"#utility.yul\":11652:11658   */\n      dup3\n        /* \"#utility.yul\":11641:11650   */\n      dup12\n        /* \"#utility.yul\":11637:11659   */\n      add\n        /* \"#utility.yul\":11616:11669   */\n      tag_148\n      jump\t// in\n    tag_274:\n        /* \"#utility.yul\":11606:11669   */\n      swap2\n      pop\n        /* \"#utility.yul\":11560:11679   */\n      pop\n        /* \"#utility.yul\":10453:11686   */\n      swap3\n      swap6\n      swap9\n      swap2\n      swap5\n      swap8\n      pop\n      swap3\n      swap6\n      pop\n      jump\t// out\n        /* \"#utility.yul\":11692:11800   */\n    tag_166:\n        /* \"#utility.yul\":11774:11775   */\n      0x06\n        /* \"#utility.yul\":11767:11772   */\n      dup2\n        /* \"#utility.yul\":11764:11776   */\n      lt\n        /* \"#utility.yul\":11754:11794   */\n      tag_276\n      jumpi\n        /* \"#utility.yul\":11790:11791   */\n      0x00\n        /* \"#utility.yul\":11787:11788   */\n      dup1\n        /* \"#utility.yul\":11780:11792   */\n      revert\n        /* \"#utility.yul\":11754:11794   */\n    tag_276:\n        /* \"#utility.yul\":11692:11800   */\n      pop\n      jump\t// out\n        /* \"#utility.yul\":11806:11963   */\n    tag_167:\n        /* \"#utility.yul\":11861:11866   */\n      0x00\n        /* \"#utility.yul\":11899:11905   */\n      dup2\n        /* \"#utility.yul\":11886:11906   */\n      calldataload\n        /* \"#utility.yul\":11877:11906   */\n      swap1\n      pop\n        /* \"#utility.yul\":11915:11957   */\n      tag_278\n        /* \"#utility.yul\":11951:11956   */\n      dup2\n        /* \"#utility.yul\":11915:11957   */\n      tag_166\n      jump\t// in\n    tag_278:\n        /* \"#utility.yul\":11806:11963   */\n      swap3\n      swap2\n      pop\n      pop\n      jump\t// out\n        /* \"#utility.yul\":11969:12461   */\n    tag_84:\n        /* \"#utility.yul\":12046:12052   */\n      0x00\n        /* \"#utility.yul\":12054:12060   */\n      dup1\n        /* \"#utility.yul\":12103:12105   */\n      0x40\n        /* \"#utility.yul\":12091:12100   */\n      dup4\n        /* \"#utility.yul\":12082:12089   */\n      dup6\n        /* \"#utility.yul\":12078:12101   */\n      sub\n        /* \"#utility.yul\":12074:12106   */\n      slt\n        /* \"#utility.yul\":12071:12190   */\n      iszero\n      tag_280\n      jumpi\n        /* \"#utility.yul\":12109:12188   */\n      tag_281\n      tag_144\n      jump\t// in\n    tag_281:\n        /* \"#utility.yul\":12071:12190   */\n    tag_280:\n        /* \"#utility.yul\":12229:12230   */\n      0x00\n        /* \"#utility.yul\":12254:12316   */\n      tag_282\n        /* \"#utility.yul\":12308:12315   */\n      dup6\n        /* \"#utility.yul\":12299:12305   */\n      dup3\n        /* \"#utility.yul\":12288:12297   */\n      dup7\n        /* \"#utility.yul\":12284:12306   */\n      add\n        /* \"#utility.yul\":12254:12316   */\n      tag_167\n      jump\t// in\n    tag_282:\n        /* \"#utility.yul\":12244:12316   */\n      swap3\n      pop\n        /* \"#utility.yul\":12200:12326   */\n      pop\n        /* \"#utility.yul\":12365:12367   */\n      0x20\n        /* \"#utility.yul\":12391:12444   */\n      tag_283\n        /* \"#utility.yul\":12436:12443   */\n      dup6\n        /* \"#utility.yul\":12427:12433   */\n      dup3\n        /* \"#utility.yul\":12416:12425   */\n      dup7\n        /* \"#utility.yul\":12412:12434   */\n      add\n        /* \"#utility.yul\":12391:12444   */\n      tag_148\n      jump\t// in\n    tag_283:\n        /* \"#utility.yul\":12381:12444   */\n      swap2\n      pop\n        /* \"#utility.yul\":12336:12454   */\n      pop\n        /* \"#utility.yul\":11969:12461   */\n      swap3\n      pop\n      swap3\n      swap1\n      pop\n      jump\t// out\n        /* \"#utility.yul\":12467:13232   */\n    tag_95:\n        /* \"#utility.yul\":12553:12559   */\n      0x00\n        /* \"#utility.yul\":12561:12567   */\n      dup1\n        /* \"#utility.yul\":12569:12575   */\n      0x00\n        /* \"#utility.yul\":12577:12583   */\n      dup1\n        /* \"#utility.yul\":12626:12629   */\n      0x80\n        /* \"#utility.yul\":12614:12623   */\n      dup6\n        /* \"#utility.yul\":12605:12612   */\n      dup8\n        /* \"#utility.yul\":12601:12624   */\n      sub\n        /* \"#utility.yul\":12597:12630   */\n      slt\n        /* \"#utility.yul\":12594:12714   */\n      iszero\n      tag_285\n      jumpi\n        /* \"#utility.yul\":12633:12712   */\n      tag_286\n      tag_144\n      jump\t// in\n    tag_286:\n        /* \"#utility.yul\":12594:12714   */\n    tag_285:\n        /* \"#utility.yul\":12753:12754   */\n      0x00\n        /* \"#utility.yul\":12778:12831   */\n      tag_287\n        /* \"#utility.yul\":12823:12830   */\n      dup8\n        /* \"#utility.yul\":12814:12820   */\n      dup3\n        /* \"#utility.yul\":12803:12812   */\n      dup9\n        /* \"#utility.yul\":12799:12821   */\n      add\n        /* \"#utility.yul\":12778:12831   */\n      tag_148\n      jump\t// in\n    tag_287:\n        /* \"#utility.yul\":12768:12831   */\n      swap5\n      pop\n        /* \"#utility.yul\":12724:12841   */\n      pop\n        /* \"#utility.yul\":12880:12882   */\n      0x20\n        /* \"#utility.yul\":12906:12959   */\n      tag_288\n        /* \"#utility.yul\":12951:12958   */\n      dup8\n        /* \"#utility.yul\":12942:12948   */\n      dup3\n        /* \"#utility.yul\":12931:12940   */\n      dup9\n        /* \"#utility.yul\":12927:12949   */\n      add\n        /* \"#utility.yul\":12906:12959   */\n      tag_148\n      jump\t// in\n    tag_288:\n        /* \"#utility.yul\":12896:12959   */\n      swap4\n      pop\n        /* \"#utility.yul\":12851:12969   */\n      pop\n        /* \"#utility.yul\":13008:13010   */\n      0x40\n        /* \"#utility.yul\":13034:13087   */\n      tag_289\n        /* \"#utility.yul\":13079:13086   */\n      dup8\n        /* \"#utility.yul\":13070:13076   */\n      dup3\n        /* \"#utility.yul\":13059:13068   */\n      dup9\n        /* \"#utility.yul\":13055:13077   */\n      add\n        /* \"#utility.yul\":13034:13087   */\n      tag_148\n      jump\t// in\n    tag_289:\n        /* \"#utility.yul\":13024:13087   */\n      swap3\n      pop\n        /* \"#utility.yul\":12979:13097   */\n      pop\n        /* \"#utility.yul\":13136:13138   */\n      0x60\n        /* \"#utility.yul\":13162:13215   */\n      tag_290\n        /* \"#utility.yul\":13207:13214   */\n      dup8\n        /* \"#utility.yul\":13198:13204   */\n      dup3\n        /* \"#utility.yul\":13187:13196   */\n      dup9\n        /* \"#utility.yul\":13183:13205   */\n      add\n        /* \"#utility.yul\":13162:13215   */\n      tag_148\n      jump\t// in\n    tag_290:\n        /* \"#utility.yul\":13152:13215   */\n      swap2\n      pop\n        /* \"#utility.yul\":13107:13225   */\n      pop\n        /* \"#utility.yul\":12467:13232   */\n      swap3\n      swap6\n      swap2\n      swap5\n      pop\n      swap3\n      pop\n      jump\t// out\n        /* \"#utility.yul\":13238:13418   */\n    tag_168:\n        /* \"#utility.yul\":13286:13363   */\n      0x4e487b7100000000000000000000000000000000000000000000000000000000\n        /* \"#utility.yul\":13283:13284   */\n      0x00\n        /* \"#utility.yul\":13276:13364   */\n      mstore\n        /* \"#utility.yul\":13383:13387   */\n      0x11\n        /* \"#utility.yul\":13380:13381   */\n      0x04\n        /* \"#utility.yul\":13373:13388   */\n      mstore\n        /* \"#utility.yul\":13407:13411   */\n      0x24\n        /* \"#utility.yul\":13404:13405   */\n      0x00\n        /* \"#utility.yul\":13397:13412   */\n      revert\n        /* \"#utility.yul\":13424:13618   */\n    tag_109:\n        /* \"#utility.yul\":13464:13468   */\n      0x00\n        /* \"#utility.yul\":13484:13504   */\n      tag_293\n        /* \"#utility.yul\":13502:13503   */\n      dup3\n        /* \"#utility.yul\":13484:13504   */\n      tag_146\n      jump\t// in\n    tag_293:\n        /* \"#utility.yul\":13479:13504   */\n      swap2\n      pop\n        /* \"#utility.yul\":13518:13538   */\n      tag_294\n        /* \"#utility.yul\":13536:13537   */\n      dup4\n        /* \"#utility.yul\":13518:13538   */\n      tag_146\n      jump\t// in\n    tag_294:\n        /* \"#utility.yul\":13513:13538   */\n      swap3\n      pop\n        /* \"#utility.yul\":13562:13563   */\n      dup3\n        /* \"#utility.yul\":13559:13560   */\n      dup3\n        /* \"#utility.yul\":13555:13564   */\n      sub\n        /* \"#utility.yul\":13547:13564   */\n      swap1\n      pop\n        /* \"#utility.yul\":13586:13587   */\n      dup2\n        /* \"#utility.yul\":13580:13584   */\n      dup2\n        /* \"#utility.yul\":13577:13588   */\n      gt\n        /* \"#utility.yul\":13574:13611   */\n      iszero\n      tag_295\n      jumpi\n        /* \"#utility.yul\":13591:13609   */\n      tag_296\n      tag_168\n      jump\t// in\n    tag_296:\n        /* \"#utility.yul\":13574:13611   */\n    tag_295:\n        /* \"#utility.yul\":13424:13618   */\n      swap3\n      swap2\n      pop\n      pop\n      jump\t// out\n        /* \"#utility.yul\":13624:13793   */\n    tag_169:\n        /* \"#utility.yul\":13708:13719   */\n      0x00\n        /* \"#utility.yul\":13742:13748   */\n      dup3\n        /* \"#utility.yul\":13737:13740   */\n      dup3\n        /* \"#utility.yul\":13730:13749   */\n      mstore\n        /* \"#utility.yul\":13782:13786   */\n      0x20\n        /* \"#utility.yul\":13777:13780   */\n      dup3\n        /* \"#utility.yul\":13773:13787   */\n      add\n        /* \"#utility.yul\":13758:13787   */\n      swap1\n      pop\n        /* \"#utility.yul\":13624:13793   */\n      swap3\n      swap2\n      pop\n      pop\n      jump\t// out\n        /* \"#utility.yul\":13799:14026   */\n    tag_170:\n        /* \"#utility.yul\":13939:13973   */\n      0x45787069727920646174652068617320616c7265616479206265656e20696e69\n        /* \"#utility.yul\":13935:13936   */\n      0x00\n        /* \"#utility.yul\":13927:13933   */\n      dup3\n        /* \"#utility.yul\":13923:13937   */\n      add\n        /* \"#utility.yul\":13916:13974   */\n      mstore\n        /* \"#utility.yul\":14008:14018   */\n      0x7469616c69736564000000000000000000000000000000000000000000000000\n        /* \"#utility.yul\":14003:14005   */\n      0x20\n        /* \"#utility.yul\":13995:14001   */\n      dup3\n        /* \"#utility.yul\":13991:14006   */\n      add\n        /* \"#utility.yul\":13984:14019   */\n      mstore\n        /* \"#utility.yul\":13799:14026   */\n      pop\n      jump\t// out\n        /* \"#utility.yul\":14032:14398   */\n    tag_171:\n        /* \"#utility.yul\":14174:14177   */\n      0x00\n        /* \"#utility.yul\":14195:14262   */\n      tag_300\n        /* \"#utility.yul\":14259:14261   */\n      0x28\n        /* \"#utility.yul\":14254:14257   */\n      dup4\n        /* \"#utility.yul\":14195:14262   */\n      tag_169\n      jump\t// in\n    tag_300:\n        /* \"#utility.yul\":14188:14262   */\n      swap2\n      pop\n        /* \"#utility.yul\":14271:14364   */\n      tag_301\n        /* \"#utility.yul\":14360:14363   */\n      dup3\n        /* \"#utility.yul\":14271:14364   */\n      tag_170\n      jump\t// in\n    tag_301:\n        /* \"#utility.yul\":14389:14391   */\n      0x40\n        /* \"#utility.yul\":14384:14387   */\n      dup3\n        /* \"#utility.yul\":14380:14392   */\n      add\n        /* \"#utility.yul\":14373:14392   */\n      swap1\n      pop\n        /* \"#utility.yul\":14032:14398   */\n      swap2\n      swap1\n      pop\n      jump\t// out\n        /* \"#utility.yul\":14404:14823   */\n    tag_133:\n        /* \"#utility.yul\":14570:14574   */\n      0x00\n        /* \"#utility.yul\":14608:14610   */\n      0x20\n        /* \"#utility.yul\":14597:14606   */\n      dup3\n        /* \"#utility.yul\":14593:14611   */\n      add\n        /* \"#utility.yul\":14585:14611   */\n      swap1\n      pop\n        /* \"#utility.yul\":14657:14666   */\n      dup2\n        /* \"#utility.yul\":14651:14655   */\n      dup2\n        /* \"#utility.yul\":14647:14667   */\n      sub\n        /* \"#utility.yul\":14643:14644   */\n      0x00\n        /* \"#utility.yul\":14632:14641   */\n      dup4\n        /* \"#utility.yul\":14628:14645   */\n      add\n        /* \"#utility.yul\":14621:14668   */\n      mstore\n        /* \"#utility.yul\":14685:14816   */\n      tag_303\n        /* \"#utility.yul\":14811:14815   */\n      dup2\n        /* \"#utility.yul\":14685:14816   */\n      tag_171\n      jump\t// in\n    tag_303:\n        /* \"#utility.yul\":14677:14816   */\n      swap1\n      pop\n        /* \"#utility.yul\":14404:14823   */\n      swap2\n      swap1\n      pop\n      jump\t// out\n\n    auxdata: 0xa26469706673582212204f4aea1f3f71ddb771ea31fb2c4088ff9e8da2cb0a4e18e6dcb2a84e6386546164736f6c63430008130033\n}\n",
				"bytecode": {
					"linkReferences": {},
					"object": "608060405260008055600060025534801561001957600080fd5b5061102a806100296000396000f3fe608060405234801561001057600080fd5b50600436106101215760003560e01c8063703849d9116100ad578063ca00902111610071578063ca00902114610386578063d91f2a0b146103b6578063e0e5c324146103d2578063e22900ff14610402578063f558eb051461043257610121565b8063703849d9146102ce57806385fae602146102ec5780638edd52971461031c57806393e949c31461033a578063b7ff5dae1461036a57610121565b8063575c2887116100f4578063575c2887146101d55780635998f7751461020557806359fb49f9146102355780635c622a0e1461026e5780636833f2001461029e57610121565b80630386660a146101265780631a1fc3a014610156578063302df083146101725780633fa3ab26146101a2575b600080fd5b610140600480360381019061013b9190610944565b61043c565b60405161014d9190610980565b60405180910390f35b610170600480360381019061016b919061099b565b61045c565b005b61018c60048036038101906101879190610944565b61047e565b6040516101999190610980565b60405180910390f35b6101bc60048036038101906101b79190610944565b6104a1565b6040516101cc94939291906109db565b60405180910390f35b6101ef60048036038101906101ea9190610944565b6104d1565b6040516101fc9190610980565b60405180910390f35b61021f600480360381019061021a9190610944565b610512565b60405161022c9190610980565b60405180910390f35b61024f600480360381019061024a9190610944565b610532565b6040516102659a99989796959493929190610b43565b60405180910390f35b61028860048036038101906102839190610944565b6105d2565b6040516102959190610be2565b60405180910390f35b6102b860048036038101906102b39190610944565b6105ff565b6040516102c59190610980565b60405180910390f35b6102d661061f565b6040516102e39190610980565b60405180910390f35b61030660048036038101906103019190610944565b610625565b6040516103139190610d3f565b60405180910390f35b61032461074b565b6040516103319190610980565b60405180910390f35b610354600480360381019061034f9190610d80565b610751565b6040516103619190610980565b60405180910390f35b610384600480360381019061037f9190610e47565b61075e565b005b6103a0600480360381019061039b9190610944565b6107a0565b6040516103ad9190610980565b60405180910390f35b6103d060048036038101906103cb919061099b565b6107c0565b005b6103ec60048036038101906103e79190610e87565b610838565b6040516103f99190610980565b60405180910390f35b61041c60048036038101906104179190610944565b610842565b6040516104299190610980565b60405180910390f35b61043a610862565b005b600060016000838152602001908152602001600020600a01549050919050565b8160016000838152602001908152602001600020600201600101819055505050565b600060016000838152602001908152602001600020600201600101549050919050565b60036020528060005260406000206000915090508060000154908060010154908060020154908060030154905084565b60006001600083815260200190815260200160002060080154600160008481526020019081526020016000206007015461050b9190610f1d565b9050919050565b600060016000838152602001908152602001600020600701549050919050565b600160205280600052604060002060009150905080600001549080600101549080600201604051806080016040529081600082015481526020016001820154815260200160028201548152602001600382015481525050908060060154908060070154908060080154908060090160009054906101000a900460ff16908060090160019054906101000a900460ff169080600a01549080600b015490508a565b60006001600083815260200190815260200160002060090160019054906101000a900460ff169050919050565b600060016000838152602001908152602001600020600b01549050919050565b60005481565b61062d610864565b600160008381526020019081526020016000206040518061014001604052908160008201548152602001600182015481526020016002820160405180608001604052908160008201548152602001600182015481526020016002820154815260200160038201548152505081526020016006820154815260200160078201548152602001600882015481526020016009820160009054906101000a900460ff1660018111156106df576106de610a84565b5b60018111156106f1576106f0610a84565b5b81526020016009820160019054906101000a900460ff16600581111561071a57610719610a84565b5b600581111561072c5761072b610a84565b5b8152602001600a8201548152602001600b820154815250509050919050565b60025481565b6000979650505050505050565b816001600083815260200190815260200160002060090160016101000a81548160ff0219169083600581111561079757610796610a84565b5b02179055505050565b600060036000838152602001908152602001600020600001549050919050565b600060016000838152602001908152602001600020600b015403610819576040517f08c379a000000000000000000000000000000000000000000000000000000000815260040161081090610fd4565b60405180910390fd5b8160016000838152602001908152602001600020600b01819055505050565b6000949350505050565b600060016000838152602001908152602001600020600101549050919050565b565b60405180610140016040528060008152602001600081526020016108866108e1565b8152602001600081526020016000815260200160008152602001600060018111156108b4576108b3610a84565b5b8152602001600060058111156108cd576108cc610a84565b5b815260200160008152602001600081525090565b6040518060800160405280600081526020016000815260200160008152602001600081525090565b600080fd5b6000819050919050565b6109218161090e565b811461092c57600080fd5b50565b60008135905061093e81610918565b92915050565b60006020828403121561095a57610959610909565b5b60006109688482850161092f565b91505092915050565b61097a8161090e565b82525050565b60006020820190506109956000830184610971565b92915050565b600080604083850312156109b2576109b1610909565b5b60006109c08582860161092f565b92505060206109d18582860161092f565b9150509250929050565b60006080820190506109f06000830187610971565b6109fd6020830186610971565b610a0a6040830185610971565b610a176060830184610971565b95945050505050565b610a298161090e565b82525050565b608082016000820151610a456000850182610a20565b506020820151610a586020850182610a20565b506040820151610a6b6040850182610a20565b506060820151610a7e6060850182610a20565b50505050565b7f4e487b7100000000000000000000000000000000000000000000000000000000600052602160045260246000fd5b60028110610ac457610ac3610a84565b5b50565b6000819050610ad582610ab3565b919050565b6000610ae582610ac7565b9050919050565b610af581610ada565b82525050565b60068110610b0c57610b0b610a84565b5b50565b6000819050610b1d82610afb565b919050565b6000610b2d82610b0f565b9050919050565b610b3d81610b22565b82525050565b60006101a082019050610b59600083018d610971565b610b66602083018c610971565b610b73604083018b610a2f565b610b8060c083018a610971565b610b8d60e0830189610971565b610b9b610100830188610971565b610ba9610120830187610aec565b610bb7610140830186610b34565b610bc5610160830185610971565b610bd3610180830184610971565b9b9a5050505050505050505050565b6000602082019050610bf76000830184610b34565b92915050565b608082016000820151610c136000850182610a20565b506020820151610c266020850182610a20565b506040820151610c396040850182610a20565b506060820151610c4c6060850182610a20565b50505050565b610c5b81610ada565b82525050565b610c6a81610b22565b82525050565b6101a082016000820151610c876000850182610a20565b506020820151610c9a6020850182610a20565b506040820151610cad6040850182610bfd565b506060820151610cc060c0850182610a20565b506080820151610cd360e0850182610a20565b5060a0820151610ce7610100850182610a20565b5060c0820151610cfb610120850182610c52565b5060e0820151610d0f610140850182610c61565b50610100820151610d24610160850182610a20565b50610120820151610d39610180850182610a20565b50505050565b60006101a082019050610d556000830184610c70565b92915050565b60028110610d6857600080fd5b50565b600081359050610d7a81610d5b565b92915050565b600080600080600080600060e0888a031215610d9f57610d9e610909565b5b6000610dad8a828b0161092f565b9750506020610dbe8a828b0161092f565b9650506040610dcf8a828b0161092f565b9550506060610de08a828b0161092f565b9450506080610df18a828b01610d6b565b93505060a0610e028a828b0161092f565b92505060c0610e138a828b0161092f565b91505092959891949750929550565b60068110610e2f57600080fd5b50565b600081359050610e4181610e22565b92915050565b60008060408385031215610e5e57610e5d610909565b5b6000610e6c85828601610e32565b9250506020610e7d8582860161092f565b9150509250929050565b60008060008060808587031215610ea157610ea0610909565b5b6000610eaf8782880161092f565b9450506020610ec08782880161092f565b9350506040610ed18782880161092f565b9250506060610ee28782880161092f565b91505092959194509250565b7f4e487b7100000000000000000000000000000000000000000000000000000000600052601160045260246000fd5b6000610f288261090e565b9150610f338361090e565b9250828203905081811115610f4b57610f4a610eee565b5b92915050565b600082825260208201905092915050565b7f45787069727920646174652068617320616c7265616479206265656e20696e6960008201527f7469616c69736564000000000000000000000000000000000000000000000000602082015250565b6000610fbe602883610f51565b9150610fc982610f62565b604082019050919050565b60006020820190508181036000830152610fed81610fb1565b905091905056fea26469706673582212204f4aea1f3f71ddb771ea31fb2c4088ff9e8da2cb0a4e18e6dcb2a84e6386546164736f6c63430008130033",
					"opcodes": "PUSH1 0x80 PUSH1 0x40 MSTORE PUSH1 0x0 DUP1 SSTORE PUSH1 0x0 PUSH1 0x2 SSTORE CALLVALUE DUP1 ISZERO PUSH2 0x19 JUMPI PUSH1 0x0 DUP1 REVERT JUMPDEST POP PUSH2 0x102A DUP1 PUSH2 0x29 PUSH1 0x0 CODECOPY PUSH1 0x0 RETURN INVALID PUSH1 0x80 PUSH1 0x40 MSTORE CALLVALUE DUP1 ISZERO PUSH2 0x10 JUMPI PUSH1 0x0 DUP1 REVERT JUMPDEST POP PUSH1 0x4 CALLDATASIZE LT PUSH2 0x121 JUMPI PUSH1 0x0 CALLDATALOAD PUSH1 0xE0 SHR DUP1 PUSH4 0x703849D9 GT PUSH2 0xAD JUMPI DUP1 PUSH4 0xCA009021 GT PUSH2 0x71 JUMPI DUP1 PUSH4 0xCA009021 EQ PUSH2 0x386 JUMPI DUP1 PUSH4 0xD91F2A0B EQ PUSH2 0x3B6 JUMPI DUP1 PUSH4 0xE0E5C324 EQ PUSH2 0x3D2 JUMPI DUP1 PUSH4 0xE22900FF EQ PUSH2 0x402 JUMPI DUP1 PUSH4 0xF558EB05 EQ PUSH2 0x432 JUMPI PUSH2 0x121 JUMP JUMPDEST DUP1 PUSH4 0x703849D9 EQ PUSH2 0x2CE JUMPI DUP1 PUSH4 0x85FAE602 EQ PUSH2 0x2EC JUMPI DUP1 PUSH4 0x8EDD5297 EQ PUSH2 0x31C JUMPI DUP1 PUSH4 0x93E949C3 EQ PUSH2 0x33A JUMPI DUP1 PUSH4 0xB7FF5DAE EQ PUSH2 0x36A JUMPI PUSH2 0x121 JUMP JUMPDEST DUP1 PUSH4 0x575C2887 GT PUSH2 0xF4 JUMPI DUP1 PUSH4 0x575C2887 EQ PUSH2 0x1D5 JUMPI DUP1 PUSH4 0x5998F775 EQ PUSH2 0x205 JUMPI DUP1 PUSH4 0x59FB49F9 EQ PUSH2 0x235 JUMPI DUP1 PUSH4 0x5C622A0E EQ PUSH2 0x26E JUMPI DUP1 PUSH4 0x6833F200 EQ PUSH2 0x29E JUMPI PUSH2 0x121 JUMP JUMPDEST DUP1 PUSH4 0x386660A EQ PUSH2 0x126 JUMPI DUP1 PUSH4 0x1A1FC3A0 EQ PUSH2 0x156 JUMPI DUP1 PUSH4 0x302DF083 EQ PUSH2 0x172 JUMPI DUP1 PUSH4 0x3FA3AB26 EQ PUSH2 0x1A2 JUMPI JUMPDEST PUSH1 0x0 DUP1 REVERT JUMPDEST PUSH2 0x140 PUSH1 0x4 DUP1 CALLDATASIZE SUB DUP2 ADD SWAP1 PUSH2 0x13B SWAP2 SWAP1 PUSH2 0x944 JUMP JUMPDEST PUSH2 0x43C JUMP JUMPDEST PUSH1 0x40 MLOAD PUSH2 0x14D SWAP2 SWAP1 PUSH2 0x980 JUMP JUMPDEST PUSH1 0x40 MLOAD DUP1 SWAP2 SUB SWAP1 RETURN JUMPDEST PUSH2 0x170 PUSH1 0x4 DUP1 CALLDATASIZE SUB DUP2 ADD SWAP1 PUSH2 0x16B SWAP2 SWAP1 PUSH2 0x99B JUMP JUMPDEST PUSH2 0x45C JUMP JUMPDEST STOP JUMPDEST PUSH2 0x18C PUSH1 0x4 DUP1 CALLDATASIZE SUB DUP2 ADD SWAP1 PUSH2 0x187 SWAP2 SWAP1 PUSH2 0x944 JUMP JUMPDEST PUSH2 0x47E JUMP JUMPDEST PUSH1 0x40 MLOAD PUSH2 0x199 SWAP2 SWAP1 PUSH2 0x980 JUMP JUMPDEST PUSH1 0x40 MLOAD DUP1 SWAP2 SUB SWAP1 RETURN JUMPDEST PUSH2 0x1BC PUSH1 0x4 DUP1 CALLDATASIZE SUB DUP2 ADD SWAP1 PUSH2 0x1B7 SWAP2 SWAP1 PUSH2 0x944 JUMP JUMPDEST PUSH2 0x4A1 JUMP JUMPDEST PUSH1 0x40 MLOAD PUSH2 0x1CC SWAP5 SWAP4 SWAP3 SWAP2 SWAP1 PUSH2 0x9DB JUMP JUMPDEST PUSH1 0x40 MLOAD DUP1 SWAP2 SUB SWAP1 RETURN JUMPDEST PUSH2 0x1EF PUSH1 0x4 DUP1 CALLDATASIZE SUB DUP2 ADD SWAP1 PUSH2 0x1EA SWAP2 SWAP1 PUSH2 0x944 JUMP JUMPDEST PUSH2 0x4D1 JUMP JUMPDEST PUSH1 0x40 MLOAD PUSH2 0x1FC SWAP2 SWAP1 PUSH2 0x980 JUMP JUMPDEST PUSH1 0x40 MLOAD DUP1 SWAP2 SUB SWAP1 RETURN JUMPDEST PUSH2 0x21F PUSH1 0x4 DUP1 CALLDATASIZE SUB DUP2 ADD SWAP1 PUSH2 0x21A SWAP2 SWAP1 PUSH2 0x944 JUMP JUMPDEST PUSH2 0x512 JUMP JUMPDEST PUSH1 0x40 MLOAD PUSH2 0x22C SWAP2 SWAP1 PUSH2 0x980 JUMP JUMPDEST PUSH1 0x40 MLOAD DUP1 SWAP2 SUB SWAP1 RETURN JUMPDEST PUSH2 0x24F PUSH1 0x4 DUP1 CALLDATASIZE SUB DUP2 ADD SWAP1 PUSH2 0x24A SWAP2 SWAP1 PUSH2 0x944 JUMP JUMPDEST PUSH2 0x532 JUMP JUMPDEST PUSH1 0x40 MLOAD PUSH2 0x265 SWAP11 SWAP10 SWAP9 SWAP8 SWAP7 SWAP6 SWAP5 SWAP4 SWAP3 SWAP2 SWAP1 PUSH2 0xB43 JUMP JUMPDEST PUSH1 0x40 MLOAD DUP1 SWAP2 SUB SWAP1 RETURN JUMPDEST PUSH2 0x288 PUSH1 0x4 DUP1 CALLDATASIZE SUB DUP2 ADD SWAP1 PUSH2 0x283 SWAP2 SWAP1 PUSH2 0x944 JUMP JUMPDEST PUSH2 0x5D2 JUMP JUMPDEST PUSH1 0x40 MLOAD PUSH2 0x295 SWAP2 SWAP1 PUSH2 0xBE2 JUMP JUMPDEST PUSH1 0x40 MLOAD DUP1 SWAP2 SUB SWAP1 RETURN JUMPDEST PUSH2 0x2B8 PUSH1 0x4 DUP1 CALLDATASIZE SUB DUP2 ADD SWAP1 PUSH2 0x2B3 SWAP2 SWAP1 PUSH2 0x944 JUMP JUMPDEST PUSH2 0x5FF JUMP JUMPDEST PUSH1 0x40 MLOAD PUSH2 0x2C5 SWAP2 SWAP1 PUSH2 0x980 JUMP JUMPDEST PUSH1 0x40 MLOAD DUP1 SWAP2 SUB SWAP1 RETURN JUMPDEST PUSH2 0x2D6 PUSH2 0x61F JUMP JUMPDEST PUSH1 0x40 MLOAD PUSH2 0x2E3 SWAP2 SWAP1 PUSH2 0x980 JUMP JUMPDEST PUSH1 0x40 MLOAD DUP1 SWAP2 SUB SWAP1 RETURN JUMPDEST PUSH2 0x306 PUSH1 0x4 DUP1 CALLDATASIZE SUB DUP2 ADD SWAP1 PUSH2 0x301 SWAP2 SWAP1 PUSH2 0x944 JUMP JUMPDEST PUSH2 0x625 JUMP JUMPDEST PUSH1 0x40 MLOAD PUSH2 0x313 SWAP2 SWAP1 PUSH2 0xD3F JUMP JUMPDEST PUSH1 0x40 MLOAD DUP1 SWAP2 SUB SWAP1 RETURN JUMPDEST PUSH2 0x324 PUSH2 0x74B JUMP JUMPDEST PUSH1 0x40 MLOAD PUSH2 0x331 SWAP2 SWAP1 PUSH2 0x980 JUMP JUMPDEST PUSH1 0x40 MLOAD DUP1 SWAP2 SUB SWAP1 RETURN JUMPDEST PUSH2 0x354 PUSH1 0x4 DUP1 CALLDATASIZE SUB DUP2 ADD SWAP1 PUSH2 0x34F SWAP2 SWAP1 PUSH2 0xD80 JUMP JUMPDEST PUSH2 0x751 JUMP JUMPDEST PUSH1 0x40 MLOAD PUSH2 0x361 SWAP2 SWAP1 PUSH2 0x980 JUMP JUMPDEST PUSH1 0x40 MLOAD DUP1 SWAP2 SUB SWAP1 RETURN JUMPDEST PUSH2 0x384 PUSH1 0x4 DUP1 CALLDATASIZE SUB DUP2 ADD SWAP1 PUSH2 0x37F SWAP2 SWAP1 PUSH2 0xE47 JUMP JUMPDEST PUSH2 0x75E JUMP JUMPDEST STOP JUMPDEST PUSH2 0x3A0 PUSH1 0x4 DUP1 CALLDATASIZE SUB DUP2 ADD SWAP1 PUSH2 0x39B SWAP2 SWAP1 PUSH2 0x944 JUMP JUMPDEST PUSH2 0x7A0 JUMP JUMPDEST PUSH1 0x40 MLOAD PUSH2 0x3AD SWAP2 SWAP1 PUSH2 0x980 JUMP JUMPDEST PUSH1 0x40 MLOAD DUP1 SWAP2 SUB SWAP1 RETURN JUMPDEST PUSH2 0x3D0 PUSH1 0x4 DUP1 CALLDATASIZE SUB DUP2 ADD SWAP1 PUSH2 0x3CB SWAP2 SWAP1 PUSH2 0x99B JUMP JUMPDEST PUSH2 0x7C0 JUMP JUMPDEST STOP JUMPDEST PUSH2 0x3EC PUSH1 0x4 DUP1 CALLDATASIZE SUB DUP2 ADD SWAP1 PUSH2 0x3E7 SWAP2 SWAP1 PUSH2 0xE87 JUMP JUMPDEST PUSH2 0x838 JUMP JUMPDEST PUSH1 0x40 MLOAD PUSH2 0x3F9 SWAP2 SWAP1 PUSH2 0x980 JUMP JUMPDEST PUSH1 0x40 MLOAD DUP1 SWAP2 SUB SWAP1 RETURN JUMPDEST PUSH2 0x41C PUSH1 0x4 DUP1 CALLDATASIZE SUB DUP2 ADD SWAP1 PUSH2 0x417 SWAP2 SWAP1 PUSH2 0x944 JUMP JUMPDEST PUSH2 0x842 JUMP JUMPDEST PUSH1 0x40 MLOAD PUSH2 0x429 SWAP2 SWAP1 PUSH2 0x980 JUMP JUMPDEST PUSH1 0x40 MLOAD DUP1 SWAP2 SUB SWAP1 RETURN JUMPDEST PUSH2 0x43A PUSH2 0x862 JUMP JUMPDEST STOP JUMPDEST PUSH1 0x0 PUSH1 0x1 PUSH1 0x0 DUP4 DUP2 MSTORE PUSH1 0x20 ADD SWAP1 DUP2 MSTORE PUSH1 0x20 ADD PUSH1 0x0 KECCAK256 PUSH1 0xA ADD SLOAD SWAP1 POP SWAP2 SWAP1 POP JUMP JUMPDEST DUP2 PUSH1 0x1 PUSH1 0x0 DUP4 DUP2 MSTORE PUSH1 0x20 ADD SWAP1 DUP2 MSTORE PUSH1 0x20 ADD PUSH1 0x0 KECCAK256 PUSH1 0x2 ADD PUSH1 0x1 ADD DUP2 SWAP1 SSTORE POP POP POP JUMP JUMPDEST PUSH1 0x0 PUSH1 0x1 PUSH1 0x0 DUP4 DUP2 MSTORE PUSH1 0x20 ADD SWAP1 DUP2 MSTORE PUSH1 0x20 ADD PUSH1 0x0 KECCAK256 PUSH1 0x2 ADD PUSH1 0x1 ADD SLOAD SWAP1 POP SWAP2 SWAP1 POP JUMP JUMPDEST PUSH1 0x3 PUSH1 0x20 MSTORE DUP1 PUSH1 0x0 MSTORE PUSH1 0x40 PUSH1 0x0 KECCAK256 PUSH1 0x0 SWAP2 POP SWAP1 POP DUP1 PUSH1 0x0 ADD SLOAD SWAP1 DUP1 PUSH1 0x1 ADD SLOAD SWAP1 DUP1 PUSH1 0x2 ADD SLOAD SWAP1 DUP1 PUSH1 0x3 ADD SLOAD SWAP1 POP DUP5 JUMP JUMPDEST PUSH1 0x0 PUSH1 0x1 PUSH1 0x0 DUP4 DUP2 MSTORE PUSH1 0x20 ADD SWAP1 DUP2 MSTORE PUSH1 0x20 ADD PUSH1 0x0 KECCAK256 PUSH1 0x8 ADD SLOAD PUSH1 0x1 PUSH1 0x0 DUP5 DUP2 MSTORE PUSH1 0x20 ADD SWAP1 DUP2 MSTORE PUSH1 0x20 ADD PUSH1 0x0 KECCAK256 PUSH1 0x7 ADD SLOAD PUSH2 0x50B SWAP2 SWAP1 PUSH2 0xF1D JUMP JUMPDEST SWAP1 POP SWAP2 SWAP1 POP JUMP JUMPDEST PUSH1 0x0 PUSH1 0x1 PUSH1 0x0 DUP4 DUP2 MSTORE PUSH1 0x20 ADD SWAP1 DUP2 MSTORE PUSH1 0x20 ADD PUSH1 0x0 KECCAK256 PUSH1 0x7 ADD SLOAD SWAP1 POP SWAP2 SWAP1 POP JUMP JUMPDEST PUSH1 0x1 PUSH1 0x20 MSTORE DUP1 PUSH1 0x0 MSTORE PUSH1 0x40 PUSH1 0x0 KECCAK256 PUSH1 0x0 SWAP2 POP SWAP1 POP DUP1 PUSH1 0x0 ADD SLOAD SWAP1 DUP1 PUSH1 0x1 ADD SLOAD SWAP1 DUP1 PUSH1 0x2 ADD PUSH1 0x40 MLOAD DUP1 PUSH1 0x80 ADD PUSH1 0x40 MSTORE SWAP1 DUP2 PUSH1 0x0 DUP3 ADD SLOAD DUP2 MSTORE PUSH1 0x20 ADD PUSH1 0x1 DUP3 ADD SLOAD DUP2 MSTORE PUSH1 0x20 ADD PUSH1 0x2 DUP3 ADD SLOAD DUP2 MSTORE PUSH1 0x20 ADD PUSH1 0x3 DUP3 ADD SLOAD DUP2 MSTORE POP POP SWAP1 DUP1 PUSH1 0x6 ADD SLOAD SWAP1 DUP1 PUSH1 0x7 ADD SLOAD SWAP1 DUP1 PUSH1 0x8 ADD SLOAD SWAP1 DUP1 PUSH1 0x9 ADD PUSH1 0x0 SWAP1 SLOAD SWAP1 PUSH2 0x100 EXP SWAP1 DIV PUSH1 0xFF AND SWAP1 DUP1 PUSH1 0x9 ADD PUSH1 0x1 SWAP1 SLOAD SWAP1 PUSH2 0x100 EXP SWAP1 DIV PUSH1 0xFF AND SWAP1 DUP1 PUSH1 0xA ADD SLOAD SWAP1 DUP1 PUSH1 0xB ADD SLOAD SWAP1 POP DUP11 JUMP JUMPDEST PUSH1 0x0 PUSH1 0x1 PUSH1 0x0 DUP4 DUP2 MSTORE PUSH1 0x20 ADD SWAP1 DUP2 MSTORE PUSH1 0x20 ADD PUSH1 0x0 KECCAK256 PUSH1 0x9 ADD PUSH1 0x1 SWAP1 SLOAD SWAP1 PUSH2 0x100 EXP SWAP1 DIV PUSH1 0xFF AND SWAP1 POP SWAP2 SWAP1 POP JUMP JUMPDEST PUSH1 0x0 PUSH1 0x1 PUSH1 0x0 DUP4 DUP2 MSTORE PUSH1 0x20 ADD SWAP1 DUP2 MSTORE PUSH1 0x20 ADD PUSH1 0x0 KECCAK256 PUSH1 0xB ADD SLOAD SWAP1 POP SWAP2 SWAP1 POP JUMP JUMPDEST PUSH1 0x0 SLOAD DUP2 JUMP JUMPDEST PUSH2 0x62D PUSH2 0x864 JUMP JUMPDEST PUSH1 0x1 PUSH1 0x0 DUP4 DUP2 MSTORE PUSH1 0x20 ADD SWAP1 DUP2 MSTORE PUSH1 0x20 ADD PUSH1 0x0 KECCAK256 PUSH1 0x40 MLOAD DUP1 PUSH2 0x140 ADD PUSH1 0x40 MSTORE SWAP1 DUP2 PUSH1 0x0 DUP3 ADD SLOAD DUP2 MSTORE PUSH1 0x20 ADD PUSH1 0x1 DUP3 ADD SLOAD DUP2 MSTORE PUSH1 0x20 ADD PUSH1 0x2 DUP3 ADD PUSH1 0x40 MLOAD DUP1 PUSH1 0x80 ADD PUSH1 0x40 MSTORE SWAP1 DUP2 PUSH1 0x0 DUP3 ADD SLOAD DUP2 MSTORE PUSH1 0x20 ADD PUSH1 0x1 DUP3 ADD SLOAD DUP2 MSTORE PUSH1 0x20 ADD PUSH1 0x2 DUP3 ADD SLOAD DUP2 MSTORE PUSH1 0x20 ADD PUSH1 0x3 DUP3 ADD SLOAD DUP2 MSTORE POP POP DUP2 MSTORE PUSH1 0x20 ADD PUSH1 0x6 DUP3 ADD SLOAD DUP2 MSTORE PUSH1 0x20 ADD PUSH1 0x7 DUP3 ADD SLOAD DUP2 MSTORE PUSH1 0x20 ADD PUSH1 0x8 DUP3 ADD SLOAD DUP2 MSTORE PUSH1 0x20 ADD PUSH1 0x9 DUP3 ADD PUSH1 0x0 SWAP1 SLOAD SWAP1 PUSH2 0x100 EXP SWAP1 DIV PUSH1 0xFF AND PUSH1 0x1 DUP2 GT ISZERO PUSH2 0x6DF JUMPI PUSH2 0x6DE PUSH2 0xA84 JUMP JUMPDEST JUMPDEST PUSH1 0x1 DUP2 GT ISZERO PUSH2 0x6F1 JUMPI PUSH2 0x6F0 PUSH2 0xA84 JUMP JUMPDEST JUMPDEST DUP2 MSTORE PUSH1 0x20 ADD PUSH1 0x9 DUP3 ADD PUSH1 0x1 SWAP1 SLOAD SWAP1 PUSH2 0x100 EXP SWAP1 DIV PUSH1 0xFF AND PUSH1 0x5 DUP2 GT ISZERO PUSH2 0x71A JUMPI PUSH2 0x719 PUSH2 0xA84 JUMP JUMPDEST JUMPDEST PUSH1 0x5 DUP2 GT ISZERO PUSH2 0x72C JUMPI PUSH2 0x72B PUSH2 0xA84 JUMP JUMPDEST JUMPDEST DUP2 MSTORE PUSH1 0x20 ADD PUSH1 0xA DUP3 ADD SLOAD DUP2 MSTORE PUSH1 0x20 ADD PUSH1 0xB DUP3 ADD SLOAD DUP2 MSTORE POP POP SWAP1 POP SWAP2 SWAP1 POP JUMP JUMPDEST PUSH1 0x2 SLOAD DUP2 JUMP JUMPDEST PUSH1 0x0 SWAP8 SWAP7 POP POP POP POP POP POP POP JUMP JUMPDEST DUP2 PUSH1 0x1 PUSH1 0x0 DUP4 DUP2 MSTORE PUSH1 0x20 ADD SWAP1 DUP2 MSTORE PUSH1 0x20 ADD PUSH1 0x0 KECCAK256 PUSH1 0x9 ADD PUSH1 0x1 PUSH2 0x100 EXP DUP2 SLOAD DUP2 PUSH1 0xFF MUL NOT AND SWAP1 DUP4 PUSH1 0x5 DUP2 GT ISZERO PUSH2 0x797 JUMPI PUSH2 0x796 PUSH2 0xA84 JUMP JUMPDEST JUMPDEST MUL OR SWAP1 SSTORE POP POP POP JUMP JUMPDEST PUSH1 0x0 PUSH1 0x3 PUSH1 0x0 DUP4 DUP2 MSTORE PUSH1 0x20 ADD SWAP1 DUP2 MSTORE PUSH1 0x20 ADD PUSH1 0x0 KECCAK256 PUSH1 0x0 ADD SLOAD SWAP1 POP SWAP2 SWAP1 POP JUMP JUMPDEST PUSH1 0x0 PUSH1 0x1 PUSH1 0x0 DUP4 DUP2 MSTORE PUSH1 0x20 ADD SWAP1 DUP2 MSTORE PUSH1 0x20 ADD PUSH1 0x0 KECCAK256 PUSH1 0xB ADD SLOAD SUB PUSH2 0x819 JUMPI PUSH1 0x40 MLOAD PUSH32 0x8C379A000000000000000000000000000000000000000000000000000000000 DUP2 MSTORE PUSH1 0x4 ADD PUSH2 0x810 SWAP1 PUSH2 0xFD4 JUMP JUMPDEST PUSH1 0x40 MLOAD DUP1 SWAP2 SUB SWAP1 REVERT JUMPDEST DUP2 PUSH1 0x1 PUSH1 0x0 DUP4 DUP2 MSTORE PUSH1 0x20 ADD SWAP1 DUP2 MSTORE PUSH1 0x20 ADD PUSH1 0x0 KECCAK256 PUSH1 0xB ADD DUP2 SWAP1 SSTORE POP POP POP JUMP JUMPDEST PUSH1 0x0 SWAP5 SWAP4 POP POP POP POP JUMP JUMPDEST PUSH1 0x0 PUSH1 0x1 PUSH1 0x0 DUP4 DUP2 MSTORE PUSH1 0x20 ADD SWAP1 DUP2 MSTORE PUSH1 0x20 ADD PUSH1 0x0 KECCAK256 PUSH1 0x1 ADD SLOAD SWAP1 POP SWAP2 SWAP1 POP JUMP JUMPDEST JUMP JUMPDEST PUSH1 0x40 MLOAD DUP1 PUSH2 0x140 ADD PUSH1 0x40 MSTORE DUP1 PUSH1 0x0 DUP2 MSTORE PUSH1 0x20 ADD PUSH1 0x0 DUP2 MSTORE PUSH1 0x20 ADD PUSH2 0x886 PUSH2 0x8E1 JUMP JUMPDEST DUP2 MSTORE PUSH1 0x20 ADD PUSH1 0x0 DUP2 MSTORE PUSH1 0x20 ADD PUSH1 0x0 DUP2 MSTORE PUSH1 0x20 ADD PUSH1 0x0 DUP2 MSTORE PUSH1 0x20 ADD PUSH1 0x0 PUSH1 0x1 DUP2 GT ISZERO PUSH2 0x8B4 JUMPI PUSH2 0x8B3 PUSH2 0xA84 JUMP JUMPDEST JUMPDEST DUP2 MSTORE PUSH1 0x20 ADD PUSH1 0x0 PUSH1 0x5 DUP2 GT ISZERO PUSH2 0x8CD JUMPI PUSH2 0x8CC PUSH2 0xA84 JUMP JUMPDEST JUMPDEST DUP2 MSTORE PUSH1 0x20 ADD PUSH1 0x0 DUP2 MSTORE PUSH1 0x20 ADD PUSH1 0x0 DUP2 MSTORE POP SWAP1 JUMP JUMPDEST PUSH1 0x40 MLOAD DUP1 PUSH1 0x80 ADD PUSH1 0x40 MSTORE DUP1 PUSH1 0x0 DUP2 MSTORE PUSH1 0x20 ADD PUSH1 0x0 DUP2 MSTORE PUSH1 0x20 ADD PUSH1 0x0 DUP2 MSTORE PUSH1 0x20 ADD PUSH1 0x0 DUP2 MSTORE POP SWAP1 JUMP JUMPDEST PUSH1 0x0 DUP1 REVERT JUMPDEST PUSH1 0x0 DUP2 SWAP1 POP SWAP2 SWAP1 POP JUMP JUMPDEST PUSH2 0x921 DUP2 PUSH2 0x90E JUMP JUMPDEST DUP2 EQ PUSH2 0x92C JUMPI PUSH1 0x0 DUP1 REVERT JUMPDEST POP JUMP JUMPDEST PUSH1 0x0 DUP2 CALLDATALOAD SWAP1 POP PUSH2 0x93E DUP2 PUSH2 0x918 JUMP JUMPDEST SWAP3 SWAP2 POP POP JUMP JUMPDEST PUSH1 0x0 PUSH1 0x20 DUP3 DUP5 SUB SLT ISZERO PUSH2 0x95A JUMPI PUSH2 0x959 PUSH2 0x909 JUMP JUMPDEST JUMPDEST PUSH1 0x0 PUSH2 0x968 DUP5 DUP3 DUP6 ADD PUSH2 0x92F JUMP JUMPDEST SWAP2 POP POP SWAP3 SWAP2 POP POP JUMP JUMPDEST PUSH2 0x97A DUP2 PUSH2 0x90E JUMP JUMPDEST DUP3 MSTORE POP POP JUMP JUMPDEST PUSH1 0x0 PUSH1 0x20 DUP3 ADD SWAP1 POP PUSH2 0x995 PUSH1 0x0 DUP4 ADD DUP5 PUSH2 0x971 JUMP JUMPDEST SWAP3 SWAP2 POP POP JUMP JUMPDEST PUSH1 0x0 DUP1 PUSH1 0x40 DUP4 DUP6 SUB SLT ISZERO PUSH2 0x9B2 JUMPI PUSH2 0x9B1 PUSH2 0x909 JUMP JUMPDEST JUMPDEST PUSH1 0x0 PUSH2 0x9C0 DUP6 DUP3 DUP7 ADD PUSH2 0x92F JUMP JUMPDEST SWAP3 POP POP PUSH1 0x20 PUSH2 0x9D1 DUP6 DUP3 DUP7 ADD PUSH2 0x92F JUMP JUMPDEST SWAP2 POP POP SWAP3 POP SWAP3 SWAP1 POP JUMP JUMPDEST PUSH1 0x0 PUSH1 0x80 DUP3 ADD SWAP1 POP PUSH2 0x9F0 PUSH1 0x0 DUP4 ADD DUP8 PUSH2 0x971 JUMP JUMPDEST PUSH2 0x9FD PUSH1 0x20 DUP4 ADD DUP7 PUSH2 0x971 JUMP JUMPDEST PUSH2 0xA0A PUSH1 0x40 DUP4 ADD DUP6 PUSH2 0x971 JUMP JUMPDEST PUSH2 0xA17 PUSH1 0x60 DUP4 ADD DUP5 PUSH2 0x971 JUMP JUMPDEST SWAP6 SWAP5 POP POP POP POP POP JUMP JUMPDEST PUSH2 0xA29 DUP2 PUSH2 0x90E JUMP JUMPDEST DUP3 MSTORE POP POP JUMP JUMPDEST PUSH1 0x80 DUP3 ADD PUSH1 0x0 DUP3 ADD MLOAD PUSH2 0xA45 PUSH1 0x0 DUP6 ADD DUP3 PUSH2 0xA20 JUMP JUMPDEST POP PUSH1 0x20 DUP3 ADD MLOAD PUSH2 0xA58 PUSH1 0x20 DUP6 ADD DUP3 PUSH2 0xA20 JUMP JUMPDEST POP PUSH1 0x40 DUP3 ADD MLOAD PUSH2 0xA6B PUSH1 0x40 DUP6 ADD DUP3 PUSH2 0xA20 JUMP JUMPDEST POP PUSH1 0x60 DUP3 ADD MLOAD PUSH2 0xA7E PUSH1 0x60 DUP6 ADD DUP3 PUSH2 0xA20 JUMP JUMPDEST POP POP POP POP JUMP JUMPDEST PUSH32 0x4E487B7100000000000000000000000000000000000000000000000000000000 PUSH1 0x0 MSTORE PUSH1 0x21 PUSH1 0x4 MSTORE PUSH1 0x24 PUSH1 0x0 REVERT JUMPDEST PUSH1 0x2 DUP2 LT PUSH2 0xAC4 JUMPI PUSH2 0xAC3 PUSH2 0xA84 JUMP JUMPDEST JUMPDEST POP JUMP JUMPDEST PUSH1 0x0 DUP2 SWAP1 POP PUSH2 0xAD5 DUP3 PUSH2 0xAB3 JUMP JUMPDEST SWAP2 SWAP1 POP JUMP JUMPDEST PUSH1 0x0 PUSH2 0xAE5 DUP3 PUSH2 0xAC7 JUMP JUMPDEST SWAP1 POP SWAP2 SWAP1 POP JUMP JUMPDEST PUSH2 0xAF5 DUP2 PUSH2 0xADA JUMP JUMPDEST DUP3 MSTORE POP POP JUMP JUMPDEST PUSH1 0x6 DUP2 LT PUSH2 0xB0C JUMPI PUSH2 0xB0B PUSH2 0xA84 JUMP JUMPDEST JUMPDEST POP JUMP JUMPDEST PUSH1 0x0 DUP2 SWAP1 POP PUSH2 0xB1D DUP3 PUSH2 0xAFB JUMP JUMPDEST SWAP2 SWAP1 POP JUMP JUMPDEST PUSH1 0x0 PUSH2 0xB2D DUP3 PUSH2 0xB0F JUMP JUMPDEST SWAP1 POP SWAP2 SWAP1 POP JUMP JUMPDEST PUSH2 0xB3D DUP2 PUSH2 0xB22 JUMP JUMPDEST DUP3 MSTORE POP POP JUMP JUMPDEST PUSH1 0x0 PUSH2 0x1A0 DUP3 ADD SWAP1 POP PUSH2 0xB59 PUSH1 0x0 DUP4 ADD DUP14 PUSH2 0x971 JUMP JUMPDEST PUSH2 0xB66 PUSH1 0x20 DUP4 ADD DUP13 PUSH2 0x971 JUMP JUMPDEST PUSH2 0xB73 PUSH1 0x40 DUP4 ADD DUP12 PUSH2 0xA2F JUMP JUMPDEST PUSH2 0xB80 PUSH1 0xC0 DUP4 ADD DUP11 PUSH2 0x971 JUMP JUMPDEST PUSH2 0xB8D PUSH1 0xE0 DUP4 ADD DUP10 PUSH2 0x971 JUMP JUMPDEST PUSH2 0xB9B PUSH2 0x100 DUP4 ADD DUP9 PUSH2 0x971 JUMP JUMPDEST PUSH2 0xBA9 PUSH2 0x120 DUP4 ADD DUP8 PUSH2 0xAEC JUMP JUMPDEST PUSH2 0xBB7 PUSH2 0x140 DUP4 ADD DUP7 PUSH2 0xB34 JUMP JUMPDEST PUSH2 0xBC5 PUSH2 0x160 DUP4 ADD DUP6 PUSH2 0x971 JUMP JUMPDEST PUSH2 0xBD3 PUSH2 0x180 DUP4 ADD DUP5 PUSH2 0x971 JUMP JUMPDEST SWAP12 SWAP11 POP POP POP POP POP POP POP POP POP POP POP JUMP JUMPDEST PUSH1 0x0 PUSH1 0x20 DUP3 ADD SWAP1 POP PUSH2 0xBF7 PUSH1 0x0 DUP4 ADD DUP5 PUSH2 0xB34 JUMP JUMPDEST SWAP3 SWAP2 POP POP JUMP JUMPDEST PUSH1 0x80 DUP3 ADD PUSH1 0x0 DUP3 ADD MLOAD PUSH2 0xC13 PUSH1 0x0 DUP6 ADD DUP3 PUSH2 0xA20 JUMP JUMPDEST POP PUSH1 0x20 DUP3 ADD MLOAD PUSH2 0xC26 PUSH1 0x20 DUP6 ADD DUP3 PUSH2 0xA20 JUMP JUMPDEST POP PUSH1 0x40 DUP3 ADD MLOAD PUSH2 0xC39 PUSH1 0x40 DUP6 ADD DUP3 PUSH2 0xA20 JUMP JUMPDEST POP PUSH1 0x60 DUP3 ADD MLOAD PUSH2 0xC4C PUSH1 0x60 DUP6 ADD DUP3 PUSH2 0xA20 JUMP JUMPDEST POP POP POP POP JUMP JUMPDEST PUSH2 0xC5B DUP2 PUSH2 0xADA JUMP JUMPDEST DUP3 MSTORE POP POP JUMP JUMPDEST PUSH2 0xC6A DUP2 PUSH2 0xB22 JUMP JUMPDEST DUP3 MSTORE POP POP JUMP JUMPDEST PUSH2 0x1A0 DUP3 ADD PUSH1 0x0 DUP3 ADD MLOAD PUSH2 0xC87 PUSH1 0x0 DUP6 ADD DUP3 PUSH2 0xA20 JUMP JUMPDEST POP PUSH1 0x20 DUP3 ADD MLOAD PUSH2 0xC9A PUSH1 0x20 DUP6 ADD DUP3 PUSH2 0xA20 JUMP JUMPDEST POP PUSH1 0x40 DUP3 ADD MLOAD PUSH2 0xCAD PUSH1 0x40 DUP6 ADD DUP3 PUSH2 0xBFD JUMP JUMPDEST POP PUSH1 0x60 DUP3 ADD MLOAD PUSH2 0xCC0 PUSH1 0xC0 DUP6 ADD DUP3 PUSH2 0xA20 JUMP JUMPDEST POP PUSH1 0x80 DUP3 ADD MLOAD PUSH2 0xCD3 PUSH1 0xE0 DUP6 ADD DUP3 PUSH2 0xA20 JUMP JUMPDEST POP PUSH1 0xA0 DUP3 ADD MLOAD PUSH2 0xCE7 PUSH2 0x100 DUP6 ADD DUP3 PUSH2 0xA20 JUMP JUMPDEST POP PUSH1 0xC0 DUP3 ADD MLOAD PUSH2 0xCFB PUSH2 0x120 DUP6 ADD DUP3 PUSH2 0xC52 JUMP JUMPDEST POP PUSH1 0xE0 DUP3 ADD MLOAD PUSH2 0xD0F PUSH2 0x140 DUP6 ADD DUP3 PUSH2 0xC61 JUMP JUMPDEST POP PUSH2 0x100 DUP3 ADD MLOAD PUSH2 0xD24 PUSH2 0x160 DUP6 ADD DUP3 PUSH2 0xA20 JUMP JUMPDEST POP PUSH2 0x120 DUP3 ADD MLOAD PUSH2 0xD39 PUSH2 0x180 DUP6 ADD DUP3 PUSH2 0xA20 JUMP JUMPDEST POP POP POP POP JUMP JUMPDEST PUSH1 0x0 PUSH2 0x1A0 DUP3 ADD SWAP1 POP PUSH2 0xD55 PUSH1 0x0 DUP4 ADD DUP5 PUSH2 0xC70 JUMP JUMPDEST SWAP3 SWAP2 POP POP JUMP JUMPDEST PUSH1 0x2 DUP2 LT PUSH2 0xD68 JUMPI PUSH1 0x0 DUP1 REVERT JUMPDEST POP JUMP JUMPDEST PUSH1 0x0 DUP2 CALLDATALOAD SWAP1 POP PUSH2 0xD7A DUP2 PUSH2 0xD5B JUMP JUMPDEST SWAP3 SWAP2 POP POP JUMP JUMPDEST PUSH1 0x0 DUP1 PUSH1 0x0 DUP1 PUSH1 0x0 DUP1 PUSH1 0x0 PUSH1 0xE0 DUP9 DUP11 SUB SLT ISZERO PUSH2 0xD9F JUMPI PUSH2 0xD9E PUSH2 0x909 JUMP JUMPDEST JUMPDEST PUSH1 0x0 PUSH2 0xDAD DUP11 DUP3 DUP12 ADD PUSH2 0x92F JUMP JUMPDEST SWAP8 POP POP PUSH1 0x20 PUSH2 0xDBE DUP11 DUP3 DUP12 ADD PUSH2 0x92F JUMP JUMPDEST SWAP7 POP POP PUSH1 0x40 PUSH2 0xDCF DUP11 DUP3 DUP12 ADD PUSH2 0x92F JUMP JUMPDEST SWAP6 POP POP PUSH1 0x60 PUSH2 0xDE0 DUP11 DUP3 DUP12 ADD PUSH2 0x92F JUMP JUMPDEST SWAP5 POP POP PUSH1 0x80 PUSH2 0xDF1 DUP11 DUP3 DUP12 ADD PUSH2 0xD6B JUMP JUMPDEST SWAP4 POP POP PUSH1 0xA0 PUSH2 0xE02 DUP11 DUP3 DUP12 ADD PUSH2 0x92F JUMP JUMPDEST SWAP3 POP POP PUSH1 0xC0 PUSH2 0xE13 DUP11 DUP3 DUP12 ADD PUSH2 0x92F JUMP JUMPDEST SWAP2 POP POP SWAP3 SWAP6 SWAP9 SWAP2 SWAP5 SWAP8 POP SWAP3 SWAP6 POP JUMP JUMPDEST PUSH1 0x6 DUP2 LT PUSH2 0xE2F JUMPI PUSH1 0x0 DUP1 REVERT JUMPDEST POP JUMP JUMPDEST PUSH1 0x0 DUP2 CALLDATALOAD SWAP1 POP PUSH2 0xE41 DUP2 PUSH2 0xE22 JUMP JUMPDEST SWAP3 SWAP2 POP POP JUMP JUMPDEST PUSH1 0x0 DUP1 PUSH1 0x40 DUP4 DUP6 SUB SLT ISZERO PUSH2 0xE5E JUMPI PUSH2 0xE5D PUSH2 0x909 JUMP JUMPDEST JUMPDEST PUSH1 0x0 PUSH2 0xE6C DUP6 DUP3 DUP7 ADD PUSH2 0xE32 JUMP JUMPDEST SWAP3 POP POP PUSH1 0x20 PUSH2 0xE7D DUP6 DUP3 DUP7 ADD PUSH2 0x92F JUMP JUMPDEST SWAP2 POP POP SWAP3 POP SWAP3 SWAP1 POP JUMP JUMPDEST PUSH1 0x0 DUP1 PUSH1 0x0 DUP1 PUSH1 0x80 DUP6 DUP8 SUB SLT ISZERO PUSH2 0xEA1 JUMPI PUSH2 0xEA0 PUSH2 0x909 JUMP JUMPDEST JUMPDEST PUSH1 0x0 PUSH2 0xEAF DUP8 DUP3 DUP9 ADD PUSH2 0x92F JUMP JUMPDEST SWAP5 POP POP PUSH1 0x20 PUSH2 0xEC0 DUP8 DUP3 DUP9 ADD PUSH2 0x92F JUMP JUMPDEST SWAP4 POP POP PUSH1 0x40 PUSH2 0xED1 DUP8 DUP3 DUP9 ADD PUSH2 0x92F JUMP JUMPDEST SWAP3 POP POP PUSH1 0x60 PUSH2 0xEE2 DUP8 DUP3 DUP9 ADD PUSH2 0x92F JUMP JUMPDEST SWAP2 POP POP SWAP3 SWAP6 SWAP2 SWAP5 POP SWAP3 POP JUMP JUMPDEST PUSH32 0x4E487B7100000000000000000000000000000000000000000000000000000000 PUSH1 0x0 MSTORE PUSH1 0x11 PUSH1 0x4 MSTORE PUSH1 0x24 PUSH1 0x0 REVERT JUMPDEST PUSH1 0x0 PUSH2 0xF28 DUP3 PUSH2 0x90E JUMP JUMPDEST SWAP2 POP PUSH2 0xF33 DUP4 PUSH2 0x90E JUMP JUMPDEST SWAP3 POP DUP3 DUP3 SUB SWAP1 POP DUP2 DUP2 GT ISZERO PUSH2 0xF4B JUMPI PUSH2 0xF4A PUSH2 0xEEE JUMP JUMPDEST JUMPDEST SWAP3 SWAP2 POP POP JUMP JUMPDEST PUSH1 0x0 DUP3 DUP3 MSTORE PUSH1 0x20 DUP3 ADD SWAP1 POP SWAP3 SWAP2 POP POP JUMP JUMPDEST PUSH32 0x45787069727920646174652068617320616C7265616479206265656E20696E69 PUSH1 0x0 DUP3 ADD MSTORE PUSH32 0x7469616C69736564000000000000000000000000000000000000000000000000 PUSH1 0x20 DUP3 ADD MSTORE POP JUMP JUMPDEST PUSH1 0x0 PUSH2 0xFBE PUSH1 0x28 DUP4 PUSH2 0xF51 JUMP JUMPDEST SWAP2 POP PUSH2 0xFC9 DUP3 PUSH2 0xF62 JUMP JUMPDEST PUSH1 0x40 DUP3 ADD SWAP1 POP SWAP2 SWAP1 POP JUMP JUMPDEST PUSH1 0x0 PUSH1 0x20 DUP3 ADD SWAP1 POP DUP2 DUP2 SUB PUSH1 0x0 DUP4 ADD MSTORE PUSH2 0xFED DUP2 PUSH2 0xFB1 JUMP JUMPDEST SWAP1 POP SWAP2 SWAP1 POP JUMP INVALID LOG2 PUSH5 0x6970667358 0x22 SLT KECCAK256 0x4F 0x4A 0xEA 0x1F EXTCODEHASH PUSH18 0xDDB771EA31FB2C4088FF9E8DA2CB0A4E18E6 0xDC 0xB2 0xA8 0x4E PUSH4 0x86546164 PUSH20 0x6F6C634300081300330000000000000000000000 "
				},
				"gasEstimates": {
					"creation": {
						"codeDepositCost": "827600",
						"executionCost": "10876",
						"totalCost": "838476"
					},
					"external": {
						"autoTrigger()": "254",
						"createInsurance(uint256,uint256,uint256,uint256,uint8,uint256,uint256)": "infinite",
						"createStakeholderInfo(uint256,uint256,uint256,uint256)": "infinite",
						"getBeneficiary(uint256)": "infinite",
						"getExpiryDate(uint256)": "infinite",
						"getInsurance(uint256)": "infinite",
						"getInsuranceCompany(uint256)": "infinite",
						"getInsuredAmount(uint256)": "infinite",
						"getIssueDate(uint256)": "infinite",
						"getPolicyOwner(uint256)": "infinite",
						"getRestAmount(uint256)": "infinite",
						"getStatus(uint256)": "3056",
						"insurances(uint256)": "infinite",
						"numInsurance()": "2452",
						"numStakeholder()": "2496",
						"setBeneficiary(uint256,uint256)": "infinite",
						"setExpiryDate(uint256,uint256)": "infinite",
						"stakeholderinfos(uint256)": "infinite",
						"updateStatus(uint8,uint256)": "25068"
					}
				},
				"methodIdentifiers": {
					"autoTrigger()": "f558eb05",
					"createInsurance(uint256,uint256,uint256,uint256,uint8,uint256,uint256)": "93e949c3",
					"createStakeholderInfo(uint256,uint256,uint256,uint256)": "e0e5c324",
					"getBeneficiary(uint256)": "302df083",
					"getExpiryDate(uint256)": "6833f200",
					"getInsurance(uint256)": "85fae602",
					"getInsuranceCompany(uint256)": "e22900ff",
					"getInsuredAmount(uint256)": "5998f775",
					"getIssueDate(uint256)": "0386660a",
					"getPolicyOwner(uint256)": "ca009021",
					"getRestAmount(uint256)": "575c2887",
					"getStatus(uint256)": "5c622a0e",
					"insurances(uint256)": "59fb49f9",
					"numInsurance()": "703849d9",
					"numStakeholder()": "8edd5297",
					"setBeneficiary(uint256,uint256)": "1a1fc3a0",
					"setExpiryDate(uint256,uint256)": "d91f2a0b",
					"stakeholderinfos(uint256)": "3fa3ab26",
					"updateStatus(uint8,uint256)": "b7ff5dae"
				}
			},
			"storageLayout": {
				"storage": [
					{
						"astId": 51,
						"contract": "contracts/Insurance.sol:Insurance",
						"label": "numInsurance",
						"offset": 0,
						"slot": "0",
						"type": "t_uint256"
					},
					{
						"astId": 56,
						"contract": "contracts/Insurance.sol:Insurance",
						"label": "insurances",
						"offset": 0,
						"slot": "1",
						"type": "t_mapping(t_uint256,t_struct(insurance)48_storage)"
					},
					{
						"astId": 59,
						"contract": "contracts/Insurance.sol:Insurance",
						"label": "numStakeholder",
						"offset": 0,
						"slot": "2",
						"type": "t_uint256"
					},
					{
						"astId": 64,
						"contract": "contracts/Insurance.sol:Insurance",
						"label": "stakeholderinfos",
						"offset": 0,
						"slot": "3",
						"type": "t_mapping(t_uint256,t_struct(stakeholderInfo)24_storage)"
					}
				],
				"types": {
					"t_enum(insuranceType)5": {
						"encoding": "inplace",
						"label": "enum Insurance.insuranceType",
						"numberOfBytes": "1"
					},
					"t_enum(status)12": {
						"encoding": "inplace",
						"label": "enum Insurance.status",
						"numberOfBytes": "1"
					},
					"t_mapping(t_uint256,t_struct(insurance)48_storage)": {
						"encoding": "mapping",
						"key": "t_uint256",
						"label": "mapping(uint256 => struct Insurance.insurance)",
						"numberOfBytes": "32",
						"value": "t_struct(insurance)48_storage"
					},
					"t_mapping(t_uint256,t_struct(stakeholderInfo)24_storage)": {
						"encoding": "mapping",
						"key": "t_uint256",
						"label": "mapping(uint256 => struct Insurance.stakeholderInfo)",
						"numberOfBytes": "32",
						"value": "t_struct(stakeholderInfo)24_storage"
					},
					"t_struct(insurance)48_storage": {
						"encoding": "inplace",
						"label": "struct Insurance.insurance",
						"members": [
							{
								"astId": 26,
								"contract": "contracts/Insurance.sol:Insurance",
								"label": "ID",
								"offset": 0,
								"slot": "0",
								"type": "t_uint256"
							},
							{
								"astId": 28,
								"contract": "contracts/Insurance.sol:Insurance",
								"label": "companyId",
								"offset": 0,
								"slot": "1",
								"type": "t_uint256"
							},
							{
								"astId": 31,
								"contract": "contracts/Insurance.sol:Insurance",
								"label": "stakeholders",
								"offset": 0,
								"slot": "2",
								"type": "t_struct(stakeholderInfo)24_storage"
							},
							{
								"astId": 33,
								"contract": "contracts/Insurance.sol:Insurance",
								"label": "premium",
								"offset": 0,
								"slot": "6",
								"type": "t_uint256"
							},
							{
								"astId": 35,
								"contract": "contracts/Insurance.sol:Insurance",
								"label": "insuredAmount",
								"offset": 0,
								"slot": "7",
								"type": "t_uint256"
							},
							{
								"astId": 37,
								"contract": "contracts/Insurance.sol:Insurance",
								"label": "currentAmount",
								"offset": 0,
								"slot": "8",
								"type": "t_uint256"
							},
							{
								"astId": 40,
								"contract": "contracts/Insurance.sol:Insurance",
								"label": "insType",
								"offset": 0,
								"slot": "9",
								"type": "t_enum(insuranceType)5"
							},
							{
								"astId": 43,
								"contract": "contracts/Insurance.sol:Insurance",
								"label": "status",
								"offset": 1,
								"slot": "9",
								"type": "t_enum(status)12"
							},
							{
								"astId": 45,
								"contract": "contracts/Insurance.sol:Insurance",
								"label": "issueDate",
								"offset": 0,
								"slot": "10",
								"type": "t_uint256"
							},
							{
								"astId": 47,
								"contract": "contracts/Insurance.sol:Insurance",
								"label": "expiryDate",
								"offset": 0,
								"slot": "11",
								"type": "t_uint256"
							}
						],
						"numberOfBytes": "384"
					},
					"t_struct(stakeholderInfo)24_storage": {
						"encoding": "inplace",
						"label": "struct Insurance.stakeholderInfo",
						"members": [
							{
								"astId": 17,
								"contract": "contracts/Insurance.sol:Insurance",
								"label": "policyOwner",
								"offset": 0,
								"slot": "0",
								"type": "t_uint256"
							},
							{
								"astId": 19,
								"contract": "contracts/Insurance.sol:Insurance",
								"label": "beneficiary",
								"offset": 0,
								"slot": "1",
								"type": "t_uint256"
							},
							{
								"astId": 21,
								"contract": "contracts/Insurance.sol:Insurance",
								"label": "lifeAssured",
								"offset": 0,
								"slot": "2",
								"type": "t_uint256"
							},
							{
								"astId": 23,
								"contract": "contracts/Insurance.sol:Insurance",
								"label": "payingAccount",
								"offset": 0,
								"slot": "3",
								"type": "t_uint256"
							}
						],
						"numberOfBytes": "128"
					},
					"t_uint256": {
						"encoding": "inplace",
						"label": "uint256",
						"numberOfBytes": "32"
					}
				}
			},
			"userdoc": {
				"kind": "user",
				"methods": {},
				"version": 1
			}
		}
	}
}