{
	"contracts/StringLength.sol": {
		"StringLength": {
			"abi": [
				{
					"inputs": [
						{
							"internalType": "string",
							"name": "s",
							"type": "string"
						}
					],
					"name": "strlen",
					"outputs": [
						{
							"internalType": "uint256",
							"name": "",
							"type": "uint256"
						}
					],
					"stateMutability": "pure",
					"type": "function"
				}
			],
			"devdoc": {
				"kind": "dev",
				"methods": {
					"strlen(string)": {
						"details": "Returns the length of a given string",
						"params": {
							"s": "The string to measure the length of"
						},
						"returns": {
							"_0": "The length of the input string"
						}
					}
				},
				"version": 1
			},
			"evm": {
				"assembly": "    /* \"contracts/StringLength.sol\":166:1217  contract StringLength {... */\n  mstore(0x40, 0x80)\n  callvalue\n  dup1\n  iszero\n  tag_1\n  jumpi\n  0x00\n  dup1\n  revert\ntag_1:\n  pop\n  dataSize(sub_0)\n  dup1\n  dataOffset(sub_0)\n  0x00\n  codecopy\n  0x00\n  return\nstop\n\nsub_0: assembly {\n        /* \"contracts/StringLength.sol\":166:1217  contract StringLength {... */\n      mstore(0x40, 0x80)\n      callvalue\n      dup1\n      iszero\n      tag_1\n      jumpi\n      0x00\n      dup1\n      revert\n    tag_1:\n      pop\n      jumpi(tag_2, lt(calldatasize, 0x04))\n      shr(0xe0, calldataload(0x00))\n      dup1\n      0x367bbd78\n      eq\n      tag_3\n      jumpi\n    tag_2:\n      0x00\n      dup1\n      revert\n        /* \"contracts/StringLength.sol\":364:1215  function strlen(string calldata s) external pure returns (uint256) {... */\n    tag_3:\n      tag_4\n      0x04\n      dup1\n      calldatasize\n      sub\n      dup2\n      add\n      swap1\n      tag_5\n      swap2\n      swap1\n      tag_6\n      jump\t// in\n    tag_5:\n      tag_7\n      jump\t// in\n    tag_4:\n      mload(0x40)\n      tag_8\n      swap2\n      swap1\n      tag_9\n      jump\t// in\n    tag_8:\n      mload(0x40)\n      dup1\n      swap2\n      sub\n      swap1\n      return\n    tag_7:\n        /* \"contracts/StringLength.sol\":422:429  uint256 */\n      0x00\n        /* \"contracts/StringLength.sol\":441:452  uint256 len */\n      dup1\n        /* \"contracts/StringLength.sol\":462:473  bytes1 char */\n      0x00\n        /* \"contracts/StringLength.sol\":482:483  s */\n      dup5\n      dup5\n        /* \"contracts/StringLength.sol\":485:486  0 */\n      0x00\n        /* \"contracts/StringLength.sol\":476:487  bytes(s)[0] */\n      dup2\n      dup2\n      lt\n      tag_11\n      jumpi\n      tag_12\n      tag_13\n      jump\t// in\n    tag_12:\n    tag_11:\n      swap1\n      pop\n      add\n      calldataload\n      0xf8\n      shr\n      0xf8\n      shl\n        /* \"contracts/StringLength.sol\":462:487  bytes1 char = bytes(s)[0] */\n      swap1\n      pop\n        /* \"contracts/StringLength.sol\":523:527  0x41 */\n      0x41\n        /* \"contracts/StringLength.sol\":515:527  char >= 0x41 */\n      0xf8\n      shl\n        /* \"contracts/StringLength.sol\":515:519  char */\n      dup2\n        /* \"contracts/StringLength.sol\":515:527  char >= 0x41 */\n      not(0xffffffffffffffffffffffffffffffffffffffffffffffffffffffffffffff)\n      and\n      lt\n      iszero\n        /* \"contracts/StringLength.sol\":515:543  char >= 0x41 && char <= 0x5A */\n      dup1\n      iszero\n      tag_14\n      jumpi\n      pop\n        /* \"contracts/StringLength.sol\":539:543  0x5A */\n      0x5a\n        /* \"contracts/StringLength.sol\":531:543  char <= 0x5A */\n      0xf8\n      shl\n        /* \"contracts/StringLength.sol\":531:535  char */\n      dup2\n        /* \"contracts/StringLength.sol\":531:543  char <= 0x5A */\n      not(0xffffffffffffffffffffffffffffffffffffffffffffffffffffffffffffff)\n      and\n      gt\n      iszero\n        /* \"contracts/StringLength.sol\":515:543  char >= 0x41 && char <= 0x5A */\n    tag_14:\n        /* \"contracts/StringLength.sol\":513:544  !(char >= 0x41 && char <= 0x5A) */\n      iszero\n        /* \"contracts/StringLength.sol\":513:597  !(char >= 0x41 && char <= 0x5A) && //A-Z... */\n      dup1\n      iszero\n      tag_15\n      jumpi\n      pop\n        /* \"contracts/StringLength.sol\":576:580  0x61 */\n      0x61\n        /* \"contracts/StringLength.sol\":568:580  char >= 0x61 */\n      0xf8\n      shl\n        /* \"contracts/StringLength.sol\":568:572  char */\n      dup2\n        /* \"contracts/StringLength.sol\":568:580  char >= 0x61 */\n      not(0xffffffffffffffffffffffffffffffffffffffffffffffffffffffffffffff)\n      and\n      lt\n      iszero\n        /* \"contracts/StringLength.sol\":568:596  char >= 0x61 && char <= 0x7A */\n      dup1\n      iszero\n      tag_16\n      jumpi\n      pop\n        /* \"contracts/StringLength.sol\":592:596  0x7A */\n      0x7a\n        /* \"contracts/StringLength.sol\":584:596  char <= 0x7A */\n      0xf8\n      shl\n        /* \"contracts/StringLength.sol\":584:588  char */\n      dup2\n        /* \"contracts/StringLength.sol\":584:596  char <= 0x7A */\n      not(0xffffffffffffffffffffffffffffffffffffffffffffffffffffffffffffff)\n      and\n      gt\n      iszero\n        /* \"contracts/StringLength.sol\":568:596  char >= 0x61 && char <= 0x7A */\n    tag_16:\n        /* \"contracts/StringLength.sol\":566:597  !(char >= 0x61 && char <= 0x7A) */\n      iszero\n        /* \"contracts/StringLength.sol\":513:597  !(char >= 0x41 && char <= 0x5A) && //A-Z... */\n    tag_15:\n        /* \"contracts/StringLength.sol\":497:630  if(... */\n      iszero\n      tag_17\n      jumpi\n        /* \"contracts/StringLength.sol\":629:630  0 */\n      0x00\n        /* \"contracts/StringLength.sol\":622:630  return 0 */\n      swap3\n      pop\n      pop\n      pop\n      jump(tag_10)\n        /* \"contracts/StringLength.sol\":497:630  if(... */\n    tag_17:\n        /* \"contracts/StringLength.sol\":644:650  uint i */\n      0x00\n        /* \"contracts/StringLength.sol\":662:685  bytes memory string_rep */\n      dup1\n        /* \"contracts/StringLength.sol\":694:695  s */\n      dup7\n      dup7\n        /* \"contracts/StringLength.sol\":662:696  bytes memory string_rep = bytes(s) */\n      dup1\n      dup1\n      0x1f\n      add\n      0x20\n      dup1\n      swap2\n      div\n      mul\n      0x20\n      add\n      mload(0x40)\n      swap1\n      dup2\n      add\n      0x40\n      mstore\n      dup1\n      swap4\n      swap3\n      swap2\n      swap1\n      dup2\n      dup2\n      mstore\n      0x20\n      add\n      dup4\n      dup4\n      dup1\n      dup3\n      dup5\n      calldatacopy\n      0x00\n      dup2\n      dup5\n      add\n      mstore\n      not(0x1f)\n      0x1f\n      dup3\n      add\n      and\n      swap1\n      pop\n      dup1\n      dup4\n      add\n      swap3\n      pop\n      pop\n      pop\n      pop\n      pop\n      pop\n      pop\n      swap1\n      pop\n        /* \"contracts/StringLength.sol\":706:720  uint256 length */\n      0x00\n        /* \"contracts/StringLength.sol\":735:1176  while (i<string_rep.length)... */\n    tag_18:\n        /* \"contracts/StringLength.sol\":744:754  string_rep */\n      dup2\n        /* \"contracts/StringLength.sol\":744:761  string_rep.length */\n      mload\n        /* \"contracts/StringLength.sol\":742:743  i */\n      dup4\n        /* \"contracts/StringLength.sol\":742:761  i<string_rep.length */\n      lt\n        /* \"contracts/StringLength.sol\":735:1176  while (i<string_rep.length)... */\n      iszero\n      tag_19\n      jumpi\n        /* \"contracts/StringLength.sol\":807:808  0 */\n      0x00\n        /* \"contracts/StringLength.sol\":789:808  string_rep[i]>>7==0 */\n      0xf8\n      shl\n        /* \"contracts/StringLength.sol\":804:805  7 */\n      0x07\n        /* \"contracts/StringLength.sol\":789:799  string_rep */\n      dup4\n        /* \"contracts/StringLength.sol\":800:801  i */\n      dup6\n        /* \"contracts/StringLength.sol\":789:802  string_rep[i] */\n      dup2\n      mload\n      dup2\n      lt\n      tag_20\n      jumpi\n      tag_21\n      tag_13\n      jump\t// in\n    tag_21:\n    tag_20:\n      0x20\n      add\n      add\n      mload\n      0xf8\n      shr\n      0xf8\n      shl\n        /* \"contracts/StringLength.sol\":789:805  string_rep[i]>>7 */\n      not(0xffffffffffffffffffffffffffffffffffffffffffffffffffffffffffffff)\n      and\n      swap1\n      shr\n        /* \"contracts/StringLength.sol\":789:808  string_rep[i]>>7==0 */\n      not(0xffffffffffffffffffffffffffffffffffffffffffffffffffffffffffffff)\n      and\n      sub\n        /* \"contracts/StringLength.sol\":785:1142  if (string_rep[i]>>7==0)... */\n      tag_22\n      jumpi\n        /* \"contracts/StringLength.sol\":829:830  1 */\n      0x01\n        /* \"contracts/StringLength.sol\":826:830  i+=1 */\n      dup4\n      tag_23\n      swap2\n      swap1\n      tag_24\n      jump\t// in\n    tag_23:\n      swap3\n      pop\n        /* \"contracts/StringLength.sol\":785:1142  if (string_rep[i]>>7==0)... */\n      jump(tag_25)\n    tag_22:\n        /* \"contracts/StringLength.sol\":884:887  0x6 */\n      0x06\n        /* \"contracts/StringLength.sol\":871:889  bytes1(uint8(0x6)) */\n      0xf8\n      shl\n        /* \"contracts/StringLength.sol\":853:889  string_rep[i]>>5==bytes1(uint8(0x6)) */\n      not(0xffffffffffffffffffffffffffffffffffffffffffffffffffffffffffffff)\n      and\n        /* \"contracts/StringLength.sol\":868:869  5 */\n      0x05\n        /* \"contracts/StringLength.sol\":853:863  string_rep */\n      dup4\n        /* \"contracts/StringLength.sol\":864:865  i */\n      dup6\n        /* \"contracts/StringLength.sol\":853:866  string_rep[i] */\n      dup2\n      mload\n      dup2\n      lt\n      tag_26\n      jumpi\n      tag_27\n      tag_13\n      jump\t// in\n    tag_27:\n    tag_26:\n      0x20\n      add\n      add\n      mload\n      0xf8\n      shr\n      0xf8\n      shl\n        /* \"contracts/StringLength.sol\":853:869  string_rep[i]>>5 */\n      not(0xffffffffffffffffffffffffffffffffffffffffffffffffffffffffffffff)\n      and\n      swap1\n      shr\n        /* \"contracts/StringLength.sol\":853:889  string_rep[i]>>5==bytes1(uint8(0x6)) */\n      not(0xffffffffffffffffffffffffffffffffffffffffffffffffffffffffffffff)\n      and\n      sub\n        /* \"contracts/StringLength.sol\":849:1142  if (string_rep[i]>>5==bytes1(uint8(0x6)))... */\n      tag_28\n      jumpi\n        /* \"contracts/StringLength.sol\":910:911  2 */\n      0x02\n        /* \"contracts/StringLength.sol\":907:911  i+=2 */\n      dup4\n      tag_29\n      swap2\n      swap1\n      tag_24\n      jump\t// in\n    tag_29:\n      swap3\n      pop\n        /* \"contracts/StringLength.sol\":849:1142  if (string_rep[i]>>5==bytes1(uint8(0x6)))... */\n      jump(tag_30)\n    tag_28:\n        /* \"contracts/StringLength.sol\":965:968  0xE */\n      0x0e\n        /* \"contracts/StringLength.sol\":952:970  bytes1(uint8(0xE)) */\n      0xf8\n      shl\n        /* \"contracts/StringLength.sol\":934:970  string_rep[i]>>4==bytes1(uint8(0xE)) */\n      not(0xffffffffffffffffffffffffffffffffffffffffffffffffffffffffffffff)\n      and\n        /* \"contracts/StringLength.sol\":949:950  4 */\n      0x04\n        /* \"contracts/StringLength.sol\":934:944  string_rep */\n      dup4\n        /* \"contracts/StringLength.sol\":945:946  i */\n      dup6\n        /* \"contracts/StringLength.sol\":934:947  string_rep[i] */\n      dup2\n      mload\n      dup2\n      lt\n      tag_31\n      jumpi\n      tag_32\n      tag_13\n      jump\t// in\n    tag_32:\n    tag_31:\n      0x20\n      add\n      add\n      mload\n      0xf8\n      shr\n      0xf8\n      shl\n        /* \"contracts/StringLength.sol\":934:950  string_rep[i]>>4 */\n      not(0xffffffffffffffffffffffffffffffffffffffffffffffffffffffffffffff)\n      and\n      swap1\n      shr\n        /* \"contracts/StringLength.sol\":934:970  string_rep[i]>>4==bytes1(uint8(0xE)) */\n      not(0xffffffffffffffffffffffffffffffffffffffffffffffffffffffffffffff)\n      and\n      sub\n        /* \"contracts/StringLength.sol\":930:1142  if (string_rep[i]>>4==bytes1(uint8(0xE)))... */\n      tag_33\n      jumpi\n        /* \"contracts/StringLength.sol\":991:992  3 */\n      0x03\n        /* \"contracts/StringLength.sol\":988:992  i+=3 */\n      dup4\n      tag_34\n      swap2\n      swap1\n      tag_24\n      jump\t// in\n    tag_34:\n      swap3\n      pop\n        /* \"contracts/StringLength.sol\":930:1142  if (string_rep[i]>>4==bytes1(uint8(0xE)))... */\n      jump(tag_35)\n    tag_33:\n        /* \"contracts/StringLength.sol\":1046:1050  0x1E */\n      0x1e\n        /* \"contracts/StringLength.sol\":1033:1052  bytes1(uint8(0x1E)) */\n      0xf8\n      shl\n        /* \"contracts/StringLength.sol\":1015:1052  string_rep[i]>>3==bytes1(uint8(0x1E)) */\n      not(0xffffffffffffffffffffffffffffffffffffffffffffffffffffffffffffff)\n      and\n        /* \"contracts/StringLength.sol\":1030:1031  3 */\n      0x03\n        /* \"contracts/StringLength.sol\":1015:1025  string_rep */\n      dup4\n        /* \"contracts/StringLength.sol\":1026:1027  i */\n      dup6\n        /* \"contracts/StringLength.sol\":1015:1028  string_rep[i] */\n      dup2\n      mload\n      dup2\n      lt\n      tag_36\n      jumpi\n      tag_37\n      tag_13\n      jump\t// in\n    tag_37:\n    tag_36:\n      0x20\n      add\n      add\n      mload\n      0xf8\n      shr\n      0xf8\n      shl\n        /* \"contracts/StringLength.sol\":1015:1031  string_rep[i]>>3 */\n      not(0xffffffffffffffffffffffffffffffffffffffffffffffffffffffffffffff)\n      and\n      swap1\n      shr\n        /* \"contracts/StringLength.sol\":1015:1052  string_rep[i]>>3==bytes1(uint8(0x1E)) */\n      not(0xffffffffffffffffffffffffffffffffffffffffffffffffffffffffffffff)\n      and\n      sub\n        /* \"contracts/StringLength.sol\":1011:1142  if (string_rep[i]>>3==bytes1(uint8(0x1E)))... */\n      tag_38\n      jumpi\n        /* \"contracts/StringLength.sol\":1073:1074  4 */\n      0x04\n        /* \"contracts/StringLength.sol\":1070:1074  i+=4 */\n      dup4\n      tag_39\n      swap2\n      swap1\n      tag_24\n      jump\t// in\n    tag_39:\n      swap3\n      pop\n        /* \"contracts/StringLength.sol\":1011:1142  if (string_rep[i]>>3==bytes1(uint8(0x1E)))... */\n      jump(tag_40)\n    tag_38:\n        /* \"contracts/StringLength.sol\":1141:1142  1 */\n      0x01\n        /* \"contracts/StringLength.sol\":1138:1142  i+=1 */\n      dup4\n      tag_41\n      swap2\n      swap1\n      tag_24\n      jump\t// in\n    tag_41:\n      swap3\n      pop\n        /* \"contracts/StringLength.sol\":1011:1142  if (string_rep[i]>>3==bytes1(uint8(0x1E)))... */\n    tag_40:\n        /* \"contracts/StringLength.sol\":930:1142  if (string_rep[i]>>4==bytes1(uint8(0xE)))... */\n    tag_35:\n        /* \"contracts/StringLength.sol\":849:1142  if (string_rep[i]>>5==bytes1(uint8(0x6)))... */\n    tag_30:\n        /* \"contracts/StringLength.sol\":785:1142  if (string_rep[i]>>7==0)... */\n    tag_25:\n        /* \"contracts/StringLength.sol\":1157:1165  length++ */\n      dup1\n      dup1\n      tag_42\n      swap1\n      tag_43\n      jump\t// in\n    tag_42:\n      swap2\n      pop\n      pop\n        /* \"contracts/StringLength.sol\":735:1176  while (i<string_rep.length)... */\n      jump(tag_18)\n    tag_19:\n        /* \"contracts/StringLength.sol\":1202:1208  length */\n      dup1\n        /* \"contracts/StringLength.sol\":1195:1208  return length */\n      swap6\n      pop\n      pop\n      pop\n      pop\n      pop\n      pop\n        /* \"contracts/StringLength.sol\":364:1215  function strlen(string calldata s) external pure returns (uint256) {... */\n    tag_10:\n      swap3\n      swap2\n      pop\n      pop\n      jump\t// out\n        /* \"#utility.yul\":88:205   */\n    tag_45:\n        /* \"#utility.yul\":197:198   */\n      0x00\n        /* \"#utility.yul\":194:195   */\n      dup1\n        /* \"#utility.yul\":187:199   */\n      revert\n        /* \"#utility.yul\":211:328   */\n    tag_46:\n        /* \"#utility.yul\":320:321   */\n      0x00\n        /* \"#utility.yul\":317:318   */\n      dup1\n        /* \"#utility.yul\":310:322   */\n      revert\n        /* \"#utility.yul\":334:451   */\n    tag_47:\n        /* \"#utility.yul\":443:444   */\n      0x00\n        /* \"#utility.yul\":440:441   */\n      dup1\n        /* \"#utility.yul\":433:445   */\n      revert\n        /* \"#utility.yul\":457:574   */\n    tag_48:\n        /* \"#utility.yul\":566:567   */\n      0x00\n        /* \"#utility.yul\":563:564   */\n      dup1\n        /* \"#utility.yul\":556:568   */\n      revert\n        /* \"#utility.yul\":580:697   */\n    tag_49:\n        /* \"#utility.yul\":689:690   */\n      0x00\n        /* \"#utility.yul\":686:687   */\n      dup1\n        /* \"#utility.yul\":679:691   */\n      revert\n        /* \"#utility.yul\":717:1270   */\n    tag_50:\n        /* \"#utility.yul\":775:783   */\n      0x00\n        /* \"#utility.yul\":785:791   */\n      dup1\n        /* \"#utility.yul\":835:838   */\n      dup4\n        /* \"#utility.yul\":828:832   */\n      0x1f\n        /* \"#utility.yul\":820:826   */\n      dup5\n        /* \"#utility.yul\":816:833   */\n      add\n        /* \"#utility.yul\":812:839   */\n      slt\n        /* \"#utility.yul\":802:924   */\n      tag_62\n      jumpi\n        /* \"#utility.yul\":843:922   */\n      tag_63\n      tag_47\n      jump\t// in\n    tag_63:\n        /* \"#utility.yul\":802:924   */\n    tag_62:\n        /* \"#utility.yul\":956:962   */\n      dup3\n        /* \"#utility.yul\":943:963   */\n      calldataload\n        /* \"#utility.yul\":933:963   */\n      swap1\n      pop\n        /* \"#utility.yul\":986:1004   */\n      0xffffffffffffffff\n        /* \"#utility.yul\":978:984   */\n      dup2\n        /* \"#utility.yul\":975:1005   */\n      gt\n        /* \"#utility.yul\":972:1089   */\n      iszero\n      tag_64\n      jumpi\n        /* \"#utility.yul\":1008:1087   */\n      tag_65\n      tag_48\n      jump\t// in\n    tag_65:\n        /* \"#utility.yul\":972:1089   */\n    tag_64:\n        /* \"#utility.yul\":1122:1126   */\n      0x20\n        /* \"#utility.yul\":1114:1120   */\n      dup4\n        /* \"#utility.yul\":1110:1127   */\n      add\n        /* \"#utility.yul\":1098:1127   */\n      swap2\n      pop\n        /* \"#utility.yul\":1176:1179   */\n      dup4\n        /* \"#utility.yul\":1168:1172   */\n      0x01\n        /* \"#utility.yul\":1160:1166   */\n      dup3\n        /* \"#utility.yul\":1156:1173   */\n      mul\n        /* \"#utility.yul\":1146:1154   */\n      dup4\n        /* \"#utility.yul\":1142:1174   */\n      add\n        /* \"#utility.yul\":1139:1180   */\n      gt\n        /* \"#utility.yul\":1136:1264   */\n      iszero\n      tag_66\n      jumpi\n        /* \"#utility.yul\":1183:1262   */\n      tag_67\n      tag_49\n      jump\t// in\n    tag_67:\n        /* \"#utility.yul\":1136:1264   */\n    tag_66:\n        /* \"#utility.yul\":717:1270   */\n      swap3\n      pop\n      swap3\n      swap1\n      pop\n      jump\t// out\n        /* \"#utility.yul\":1276:1805   */\n    tag_6:\n        /* \"#utility.yul\":1347:1353   */\n      0x00\n        /* \"#utility.yul\":1355:1361   */\n      dup1\n        /* \"#utility.yul\":1404:1406   */\n      0x20\n        /* \"#utility.yul\":1392:1401   */\n      dup4\n        /* \"#utility.yul\":1383:1390   */\n      dup6\n        /* \"#utility.yul\":1379:1402   */\n      sub\n        /* \"#utility.yul\":1375:1407   */\n      slt\n        /* \"#utility.yul\":1372:1491   */\n      iszero\n      tag_69\n      jumpi\n        /* \"#utility.yul\":1410:1489   */\n      tag_70\n      tag_45\n      jump\t// in\n    tag_70:\n        /* \"#utility.yul\":1372:1491   */\n    tag_69:\n        /* \"#utility.yul\":1558:1559   */\n      0x00\n        /* \"#utility.yul\":1547:1556   */\n      dup4\n        /* \"#utility.yul\":1543:1560   */\n      add\n        /* \"#utility.yul\":1530:1561   */\n      calldataload\n        /* \"#utility.yul\":1588:1606   */\n      0xffffffffffffffff\n        /* \"#utility.yul\":1580:1586   */\n      dup2\n        /* \"#utility.yul\":1577:1607   */\n      gt\n        /* \"#utility.yul\":1574:1691   */\n      iszero\n      tag_71\n      jumpi\n        /* \"#utility.yul\":1610:1689   */\n      tag_72\n      tag_46\n      jump\t// in\n    tag_72:\n        /* \"#utility.yul\":1574:1691   */\n    tag_71:\n        /* \"#utility.yul\":1723:1788   */\n      tag_73\n        /* \"#utility.yul\":1780:1787   */\n      dup6\n        /* \"#utility.yul\":1771:1777   */\n      dup3\n        /* \"#utility.yul\":1760:1769   */\n      dup7\n        /* \"#utility.yul\":1756:1778   */\n      add\n        /* \"#utility.yul\":1723:1788   */\n      tag_50\n      jump\t// in\n    tag_73:\n        /* \"#utility.yul\":1705:1788   */\n      swap3\n      pop\n      swap3\n      pop\n        /* \"#utility.yul\":1501:1798   */\n      pop\n        /* \"#utility.yul\":1276:1805   */\n      swap3\n      pop\n      swap3\n      swap1\n      pop\n      jump\t// out\n        /* \"#utility.yul\":1811:1888   */\n    tag_51:\n        /* \"#utility.yul\":1848:1855   */\n      0x00\n        /* \"#utility.yul\":1877:1882   */\n      dup2\n        /* \"#utility.yul\":1866:1882   */\n      swap1\n      pop\n        /* \"#utility.yul\":1811:1888   */\n      swap2\n      swap1\n      pop\n      jump\t// out\n        /* \"#utility.yul\":1894:2012   */\n    tag_52:\n        /* \"#utility.yul\":1981:2005   */\n      tag_76\n        /* \"#utility.yul\":1999:2004   */\n      dup2\n        /* \"#utility.yul\":1981:2005   */\n      tag_51\n      jump\t// in\n    tag_76:\n        /* \"#utility.yul\":1976:1979   */\n      dup3\n        /* \"#utility.yul\":1969:2006   */\n      mstore\n        /* \"#utility.yul\":1894:2012   */\n      pop\n      pop\n      jump\t// out\n        /* \"#utility.yul\":2018:2240   */\n    tag_9:\n        /* \"#utility.yul\":2111:2115   */\n      0x00\n        /* \"#utility.yul\":2149:2151   */\n      0x20\n        /* \"#utility.yul\":2138:2147   */\n      dup3\n        /* \"#utility.yul\":2134:2152   */\n      add\n        /* \"#utility.yul\":2126:2152   */\n      swap1\n      pop\n        /* \"#utility.yul\":2162:2233   */\n      tag_78\n        /* \"#utility.yul\":2230:2231   */\n      0x00\n        /* \"#utility.yul\":2219:2228   */\n      dup4\n        /* \"#utility.yul\":2215:2232   */\n      add\n        /* \"#utility.yul\":2206:2212   */\n      dup5\n        /* \"#utility.yul\":2162:2233   */\n      tag_52\n      jump\t// in\n    tag_78:\n        /* \"#utility.yul\":2018:2240   */\n      swap3\n      swap2\n      pop\n      pop\n      jump\t// out\n        /* \"#utility.yul\":2246:2426   */\n    tag_13:\n        /* \"#utility.yul\":2294:2371   */\n      0x4e487b7100000000000000000000000000000000000000000000000000000000\n        /* \"#utility.yul\":2291:2292   */\n      0x00\n        /* \"#utility.yul\":2284:2372   */\n      mstore\n        /* \"#utility.yul\":2391:2395   */\n      0x32\n        /* \"#utility.yul\":2388:2389   */\n      0x04\n        /* \"#utility.yul\":2381:2396   */\n      mstore\n        /* \"#utility.yul\":2415:2419   */\n      0x24\n        /* \"#utility.yul\":2412:2413   */\n      0x00\n        /* \"#utility.yul\":2405:2420   */\n      revert\n        /* \"#utility.yul\":2432:2612   */\n    tag_53:\n        /* \"#utility.yul\":2480:2557   */\n      0x4e487b7100000000000000000000000000000000000000000000000000000000\n        /* \"#utility.yul\":2477:2478   */\n      0x00\n        /* \"#utility.yul\":2470:2558   */\n      mstore\n        /* \"#utility.yul\":2577:2581   */\n      0x11\n        /* \"#utility.yul\":2574:2575   */\n      0x04\n        /* \"#utility.yul\":2567:2582   */\n      mstore\n        /* \"#utility.yul\":2601:2605   */\n      0x24\n        /* \"#utility.yul\":2598:2599   */\n      0x00\n        /* \"#utility.yul\":2591:2606   */\n      revert\n        /* \"#utility.yul\":2618:2809   */\n    tag_24:\n        /* \"#utility.yul\":2658:2661   */\n      0x00\n        /* \"#utility.yul\":2677:2697   */\n      tag_82\n        /* \"#utility.yul\":2695:2696   */\n      dup3\n        /* \"#utility.yul\":2677:2697   */\n      tag_51\n      jump\t// in\n    tag_82:\n        /* \"#utility.yul\":2672:2697   */\n      swap2\n      pop\n        /* \"#utility.yul\":2711:2731   */\n      tag_83\n        /* \"#utility.yul\":2729:2730   */\n      dup4\n        /* \"#utility.yul\":2711:2731   */\n      tag_51\n      jump\t// in\n    tag_83:\n        /* \"#utility.yul\":2706:2731   */\n      swap3\n      pop\n        /* \"#utility.yul\":2754:2755   */\n      dup3\n        /* \"#utility.yul\":2751:2752   */\n      dup3\n        /* \"#utility.yul\":2747:2756   */\n      add\n        /* \"#utility.yul\":2740:2756   */\n      swap1\n      pop\n        /* \"#utility.yul\":2775:2778   */\n      dup1\n        /* \"#utility.yul\":2772:2773   */\n      dup3\n        /* \"#utility.yul\":2769:2779   */\n      gt\n        /* \"#utility.yul\":2766:2802   */\n      iszero\n      tag_84\n      jumpi\n        /* \"#utility.yul\":2782:2800   */\n      tag_85\n      tag_53\n      jump\t// in\n    tag_85:\n        /* \"#utility.yul\":2766:2802   */\n    tag_84:\n        /* \"#utility.yul\":2618:2809   */\n      swap3\n      swap2\n      pop\n      pop\n      jump\t// out\n        /* \"#utility.yul\":2815:3048   */\n    tag_43:\n        /* \"#utility.yul\":2854:2857   */\n      0x00\n        /* \"#utility.yul\":2877:2901   */\n      tag_87\n        /* \"#utility.yul\":2895:2900   */\n      dup3\n        /* \"#utility.yul\":2877:2901   */\n      tag_51\n      jump\t// in\n    tag_87:\n        /* \"#utility.yul\":2868:2901   */\n      swap2\n      pop\n        /* \"#utility.yul\":2923:2989   */\n      0xffffffffffffffffffffffffffffffffffffffffffffffffffffffffffffffff\n        /* \"#utility.yul\":2916:2921   */\n      dup3\n        /* \"#utility.yul\":2913:2990   */\n      sub\n        /* \"#utility.yul\":2910:3013   */\n      tag_88\n      jumpi\n        /* \"#utility.yul\":2993:3011   */\n      tag_89\n      tag_53\n      jump\t// in\n    tag_89:\n        /* \"#utility.yul\":2910:3013   */\n    tag_88:\n        /* \"#utility.yul\":3040:3041   */\n      0x01\n        /* \"#utility.yul\":3033:3038   */\n      dup3\n        /* \"#utility.yul\":3029:3042   */\n      add\n        /* \"#utility.yul\":3022:3042   */\n      swap1\n      pop\n        /* \"#utility.yul\":2815:3048   */\n      swap2\n      swap1\n      pop\n      jump\t// out\n\n    auxdata: 0xa2646970667358221220b131ae7ad21fb7d83b50071bd2b9ece46a8b9a8511f9fbb45cad079ead26a91464736f6c63430008130033\n}\n",
				"bytecode": {
					"linkReferences": {},
					"object": "608060405234801561001057600080fd5b50610658806100206000396000f3fe608060405234801561001057600080fd5b506004361061002b5760003560e01c8063367bbd7814610030575b600080fd5b61004a600480360381019061004591906104c7565b610060565b604051610057919061052d565b60405180910390f35b60008060008484600081811061007957610078610548565b5b9050013560f81c60f81b9050604160f81b817effffffffffffffffffffffffffffffffffffffffffffffffffffffffffffff1916101580156100e15750605a60f81b817effffffffffffffffffffffffffffffffffffffffffffffffffffffffffffff191611155b1580156101475750606160f81b817effffffffffffffffffffffffffffffffffffffffffffffffffffffffffffff1916101580156101455750607a60f81b817effffffffffffffffffffffffffffffffffffffffffffffffffffffffffffff191611155b155b1561015757600092505050610452565b60008086868080601f016020809104026020016040519081016040528093929190818152602001838380828437600081840152601f19601f82011690508083019250505050505050905060005b815183101561044957600060f81b60078385815181106101c7576101c6610548565b5b602001015160f81c60f81b7effffffffffffffffffffffffffffffffffffffffffffffffffffffffffffff1916901c7effffffffffffffffffffffffffffffffffffffffffffffffffffffffffffff1916036102315760018361022a91906105a6565b9250610436565b600660f81b7effffffffffffffffffffffffffffffffffffffffffffffffffffffffffffff1916600583858151811061026d5761026c610548565b5b602001015160f81c60f81b7effffffffffffffffffffffffffffffffffffffffffffffffffffffffffffff1916901c7effffffffffffffffffffffffffffffffffffffffffffffffffffffffffffff1916036102d7576002836102d091906105a6565b9250610435565b600e60f81b7effffffffffffffffffffffffffffffffffffffffffffffffffffffffffffff1916600483858151811061031357610312610548565b5b602001015160f81c60f81b7effffffffffffffffffffffffffffffffffffffffffffffffffffffffffffff1916901c7effffffffffffffffffffffffffffffffffffffffffffffffffffffffffffff19160361037d5760038361037691906105a6565b9250610434565b601e60f81b7effffffffffffffffffffffffffffffffffffffffffffffffffffffffffffff191660038385815181106103b9576103b8610548565b5b602001015160f81c60f81b7effffffffffffffffffffffffffffffffffffffffffffffffffffffffffffff1916901c7effffffffffffffffffffffffffffffffffffffffffffffffffffffffffffff1916036104235760048361041c91906105a6565b9250610433565b60018361043091906105a6565b92505b5b5b5b8080610441906105da565b9150506101a4565b80955050505050505b92915050565b600080fd5b600080fd5b600080fd5b600080fd5b600080fd5b60008083601f84011261048757610486610462565b5b8235905067ffffffffffffffff8111156104a4576104a3610467565b5b6020830191508360018202830111156104c0576104bf61046c565b5b9250929050565b600080602083850312156104de576104dd610458565b5b600083013567ffffffffffffffff8111156104fc576104fb61045d565b5b61050885828601610471565b92509250509250929050565b6000819050919050565b61052781610514565b82525050565b6000602082019050610542600083018461051e565b92915050565b7f4e487b7100000000000000000000000000000000000000000000000000000000600052603260045260246000fd5b7f4e487b7100000000000000000000000000000000000000000000000000000000600052601160045260246000fd5b60006105b182610514565b91506105bc83610514565b92508282019050808211156105d4576105d3610577565b5b92915050565b60006105e582610514565b91507fffffffffffffffffffffffffffffffffffffffffffffffffffffffffffffffff820361061757610616610577565b5b60018201905091905056fea2646970667358221220b131ae7ad21fb7d83b50071bd2b9ece46a8b9a8511f9fbb45cad079ead26a91464736f6c63430008130033",
					"opcodes": "PUSH1 0x80 PUSH1 0x40 MSTORE CALLVALUE DUP1 ISZERO PUSH2 0x10 JUMPI PUSH1 0x0 DUP1 REVERT JUMPDEST POP PUSH2 0x658 DUP1 PUSH2 0x20 PUSH1 0x0 CODECOPY PUSH1 0x0 RETURN INVALID PUSH1 0x80 PUSH1 0x40 MSTORE CALLVALUE DUP1 ISZERO PUSH2 0x10 JUMPI PUSH1 0x0 DUP1 REVERT JUMPDEST POP PUSH1 0x4 CALLDATASIZE LT PUSH2 0x2B JUMPI PUSH1 0x0 CALLDATALOAD PUSH1 0xE0 SHR DUP1 PUSH4 0x367BBD78 EQ PUSH2 0x30 JUMPI JUMPDEST PUSH1 0x0 DUP1 REVERT JUMPDEST PUSH2 0x4A PUSH1 0x4 DUP1 CALLDATASIZE SUB DUP2 ADD SWAP1 PUSH2 0x45 SWAP2 SWAP1 PUSH2 0x4C7 JUMP JUMPDEST PUSH2 0x60 JUMP JUMPDEST PUSH1 0x40 MLOAD PUSH2 0x57 SWAP2 SWAP1 PUSH2 0x52D JUMP JUMPDEST PUSH1 0x40 MLOAD DUP1 SWAP2 SUB SWAP1 RETURN JUMPDEST PUSH1 0x0 DUP1 PUSH1 0x0 DUP5 DUP5 PUSH1 0x0 DUP2 DUP2 LT PUSH2 0x79 JUMPI PUSH2 0x78 PUSH2 0x548 JUMP JUMPDEST JUMPDEST SWAP1 POP ADD CALLDATALOAD PUSH1 0xF8 SHR PUSH1 0xF8 SHL SWAP1 POP PUSH1 0x41 PUSH1 0xF8 SHL DUP2 PUSH31 0xFFFFFFFFFFFFFFFFFFFFFFFFFFFFFFFFFFFFFFFFFFFFFFFFFFFFFFFFFFFFFF NOT AND LT ISZERO DUP1 ISZERO PUSH2 0xE1 JUMPI POP PUSH1 0x5A PUSH1 0xF8 SHL DUP2 PUSH31 0xFFFFFFFFFFFFFFFFFFFFFFFFFFFFFFFFFFFFFFFFFFFFFFFFFFFFFFFFFFFFFF NOT AND GT ISZERO JUMPDEST ISZERO DUP1 ISZERO PUSH2 0x147 JUMPI POP PUSH1 0x61 PUSH1 0xF8 SHL DUP2 PUSH31 0xFFFFFFFFFFFFFFFFFFFFFFFFFFFFFFFFFFFFFFFFFFFFFFFFFFFFFFFFFFFFFF NOT AND LT ISZERO DUP1 ISZERO PUSH2 0x145 JUMPI POP PUSH1 0x7A PUSH1 0xF8 SHL DUP2 PUSH31 0xFFFFFFFFFFFFFFFFFFFFFFFFFFFFFFFFFFFFFFFFFFFFFFFFFFFFFFFFFFFFFF NOT AND GT ISZERO JUMPDEST ISZERO JUMPDEST ISZERO PUSH2 0x157 JUMPI PUSH1 0x0 SWAP3 POP POP POP PUSH2 0x452 JUMP JUMPDEST PUSH1 0x0 DUP1 DUP7 DUP7 DUP1 DUP1 PUSH1 0x1F ADD PUSH1 0x20 DUP1 SWAP2 DIV MUL PUSH1 0x20 ADD PUSH1 0x40 MLOAD SWAP1 DUP2 ADD PUSH1 0x40 MSTORE DUP1 SWAP4 SWAP3 SWAP2 SWAP1 DUP2 DUP2 MSTORE PUSH1 0x20 ADD DUP4 DUP4 DUP1 DUP3 DUP5 CALLDATACOPY PUSH1 0x0 DUP2 DUP5 ADD MSTORE PUSH1 0x1F NOT PUSH1 0x1F DUP3 ADD AND SWAP1 POP DUP1 DUP4 ADD SWAP3 POP POP POP POP POP POP POP SWAP1 POP PUSH1 0x0 JUMPDEST DUP2 MLOAD DUP4 LT ISZERO PUSH2 0x449 JUMPI PUSH1 0x0 PUSH1 0xF8 SHL PUSH1 0x7 DUP4 DUP6 DUP2 MLOAD DUP2 LT PUSH2 0x1C7 JUMPI PUSH2 0x1C6 PUSH2 0x548 JUMP JUMPDEST JUMPDEST PUSH1 0x20 ADD ADD MLOAD PUSH1 0xF8 SHR PUSH1 0xF8 SHL PUSH31 0xFFFFFFFFFFFFFFFFFFFFFFFFFFFFFFFFFFFFFFFFFFFFFFFFFFFFFFFFFFFFFF NOT AND SWAP1 SHR PUSH31 0xFFFFFFFFFFFFFFFFFFFFFFFFFFFFFFFFFFFFFFFFFFFFFFFFFFFFFFFFFFFFFF NOT AND SUB PUSH2 0x231 JUMPI PUSH1 0x1 DUP4 PUSH2 0x22A SWAP2 SWAP1 PUSH2 0x5A6 JUMP JUMPDEST SWAP3 POP PUSH2 0x436 JUMP JUMPDEST PUSH1 0x6 PUSH1 0xF8 SHL PUSH31 0xFFFFFFFFFFFFFFFFFFFFFFFFFFFFFFFFFFFFFFFFFFFFFFFFFFFFFFFFFFFFFF NOT AND PUSH1 0x5 DUP4 DUP6 DUP2 MLOAD DUP2 LT PUSH2 0x26D JUMPI PUSH2 0x26C PUSH2 0x548 JUMP JUMPDEST JUMPDEST PUSH1 0x20 ADD ADD MLOAD PUSH1 0xF8 SHR PUSH1 0xF8 SHL PUSH31 0xFFFFFFFFFFFFFFFFFFFFFFFFFFFFFFFFFFFFFFFFFFFFFFFFFFFFFFFFFFFFFF NOT AND SWAP1 SHR PUSH31 0xFFFFFFFFFFFFFFFFFFFFFFFFFFFFFFFFFFFFFFFFFFFFFFFFFFFFFFFFFFFFFF NOT AND SUB PUSH2 0x2D7 JUMPI PUSH1 0x2 DUP4 PUSH2 0x2D0 SWAP2 SWAP1 PUSH2 0x5A6 JUMP JUMPDEST SWAP3 POP PUSH2 0x435 JUMP JUMPDEST PUSH1 0xE PUSH1 0xF8 SHL PUSH31 0xFFFFFFFFFFFFFFFFFFFFFFFFFFFFFFFFFFFFFFFFFFFFFFFFFFFFFFFFFFFFFF NOT AND PUSH1 0x4 DUP4 DUP6 DUP2 MLOAD DUP2 LT PUSH2 0x313 JUMPI PUSH2 0x312 PUSH2 0x548 JUMP JUMPDEST JUMPDEST PUSH1 0x20 ADD ADD MLOAD PUSH1 0xF8 SHR PUSH1 0xF8 SHL PUSH31 0xFFFFFFFFFFFFFFFFFFFFFFFFFFFFFFFFFFFFFFFFFFFFFFFFFFFFFFFFFFFFFF NOT AND SWAP1 SHR PUSH31 0xFFFFFFFFFFFFFFFFFFFFFFFFFFFFFFFFFFFFFFFFFFFFFFFFFFFFFFFFFFFFFF NOT AND SUB PUSH2 0x37D JUMPI PUSH1 0x3 DUP4 PUSH2 0x376 SWAP2 SWAP1 PUSH2 0x5A6 JUMP JUMPDEST SWAP3 POP PUSH2 0x434 JUMP JUMPDEST PUSH1 0x1E PUSH1 0xF8 SHL PUSH31 0xFFFFFFFFFFFFFFFFFFFFFFFFFFFFFFFFFFFFFFFFFFFFFFFFFFFFFFFFFFFFFF NOT AND PUSH1 0x3 DUP4 DUP6 DUP2 MLOAD DUP2 LT PUSH2 0x3B9 JUMPI PUSH2 0x3B8 PUSH2 0x548 JUMP JUMPDEST JUMPDEST PUSH1 0x20 ADD ADD MLOAD PUSH1 0xF8 SHR PUSH1 0xF8 SHL PUSH31 0xFFFFFFFFFFFFFFFFFFFFFFFFFFFFFFFFFFFFFFFFFFFFFFFFFFFFFFFFFFFFFF NOT AND SWAP1 SHR PUSH31 0xFFFFFFFFFFFFFFFFFFFFFFFFFFFFFFFFFFFFFFFFFFFFFFFFFFFFFFFFFFFFFF NOT AND SUB PUSH2 0x423 JUMPI PUSH1 0x4 DUP4 PUSH2 0x41C SWAP2 SWAP1 PUSH2 0x5A6 JUMP JUMPDEST SWAP3 POP PUSH2 0x433 JUMP JUMPDEST PUSH1 0x1 DUP4 PUSH2 0x430 SWAP2 SWAP1 PUSH2 0x5A6 JUMP JUMPDEST SWAP3 POP JUMPDEST JUMPDEST JUMPDEST JUMPDEST DUP1 DUP1 PUSH2 0x441 SWAP1 PUSH2 0x5DA JUMP JUMPDEST SWAP2 POP POP PUSH2 0x1A4 JUMP JUMPDEST DUP1 SWAP6 POP POP POP POP POP POP JUMPDEST SWAP3 SWAP2 POP POP JUMP JUMPDEST PUSH1 0x0 DUP1 REVERT JUMPDEST PUSH1 0x0 DUP1 REVERT JUMPDEST PUSH1 0x0 DUP1 REVERT JUMPDEST PUSH1 0x0 DUP1 REVERT JUMPDEST PUSH1 0x0 DUP1 REVERT JUMPDEST PUSH1 0x0 DUP1 DUP4 PUSH1 0x1F DUP5 ADD SLT PUSH2 0x487 JUMPI PUSH2 0x486 PUSH2 0x462 JUMP JUMPDEST JUMPDEST DUP3 CALLDATALOAD SWAP1 POP PUSH8 0xFFFFFFFFFFFFFFFF DUP2 GT ISZERO PUSH2 0x4A4 JUMPI PUSH2 0x4A3 PUSH2 0x467 JUMP JUMPDEST JUMPDEST PUSH1 0x20 DUP4 ADD SWAP2 POP DUP4 PUSH1 0x1 DUP3 MUL DUP4 ADD GT ISZERO PUSH2 0x4C0 JUMPI PUSH2 0x4BF PUSH2 0x46C JUMP JUMPDEST JUMPDEST SWAP3 POP SWAP3 SWAP1 POP JUMP JUMPDEST PUSH1 0x0 DUP1 PUSH1 0x20 DUP4 DUP6 SUB SLT ISZERO PUSH2 0x4DE JUMPI PUSH2 0x4DD PUSH2 0x458 JUMP JUMPDEST JUMPDEST PUSH1 0x0 DUP4 ADD CALLDATALOAD PUSH8 0xFFFFFFFFFFFFFFFF DUP2 GT ISZERO PUSH2 0x4FC JUMPI PUSH2 0x4FB PUSH2 0x45D JUMP JUMPDEST JUMPDEST PUSH2 0x508 DUP6 DUP3 DUP7 ADD PUSH2 0x471 JUMP JUMPDEST SWAP3 POP SWAP3 POP POP SWAP3 POP SWAP3 SWAP1 POP JUMP JUMPDEST PUSH1 0x0 DUP2 SWAP1 POP SWAP2 SWAP1 POP JUMP JUMPDEST PUSH2 0x527 DUP2 PUSH2 0x514 JUMP JUMPDEST DUP3 MSTORE POP POP JUMP JUMPDEST PUSH1 0x0 PUSH1 0x20 DUP3 ADD SWAP1 POP PUSH2 0x542 PUSH1 0x0 DUP4 ADD DUP5 PUSH2 0x51E JUMP JUMPDEST SWAP3 SWAP2 POP POP JUMP JUMPDEST PUSH32 0x4E487B7100000000000000000000000000000000000000000000000000000000 PUSH1 0x0 MSTORE PUSH1 0x32 PUSH1 0x4 MSTORE PUSH1 0x24 PUSH1 0x0 REVERT JUMPDEST PUSH32 0x4E487B7100000000000000000000000000000000000000000000000000000000 PUSH1 0x0 MSTORE PUSH1 0x11 PUSH1 0x4 MSTORE PUSH1 0x24 PUSH1 0x0 REVERT JUMPDEST PUSH1 0x0 PUSH2 0x5B1 DUP3 PUSH2 0x514 JUMP JUMPDEST SWAP2 POP PUSH2 0x5BC DUP4 PUSH2 0x514 JUMP JUMPDEST SWAP3 POP DUP3 DUP3 ADD SWAP1 POP DUP1 DUP3 GT ISZERO PUSH2 0x5D4 JUMPI PUSH2 0x5D3 PUSH2 0x577 JUMP JUMPDEST JUMPDEST SWAP3 SWAP2 POP POP JUMP JUMPDEST PUSH1 0x0 PUSH2 0x5E5 DUP3 PUSH2 0x514 JUMP JUMPDEST SWAP2 POP PUSH32 0xFFFFFFFFFFFFFFFFFFFFFFFFFFFFFFFFFFFFFFFFFFFFFFFFFFFFFFFFFFFFFFFF DUP3 SUB PUSH2 0x617 JUMPI PUSH2 0x616 PUSH2 0x577 JUMP JUMPDEST JUMPDEST PUSH1 0x1 DUP3 ADD SWAP1 POP SWAP2 SWAP1 POP JUMP INVALID LOG2 PUSH5 0x6970667358 0x22 SLT KECCAK256 0xB1 BALANCE 0xAE PUSH27 0xD21FB7D83B50071BD2B9ECE46A8B9A8511F9FBB45CAD079EAD26A9 EQ PUSH5 0x736F6C6343 STOP ADDMOD SGT STOP CALLER "
				},
				"gasEstimates": {
					"creation": {
						"codeDepositCost": "324800",
						"executionCost": "362",
						"totalCost": "325162"
					},
					"external": {
						"strlen(string)": "infinite"
					}
				},
				"methodIdentifiers": {
					"strlen(string)": "367bbd78"
				}
			},
			"storageLayout": {
				"storage": [],
				"types": null
			},
			"userdoc": {
				"kind": "user",
				"methods": {},
				"version": 1
			}
		}
	}
}