{
	"contracts/ERC20.sol": {
		"ERC20": {
			"abi": [
				{
					"anonymous": false,
					"inputs": [
						{
							"indexed": true,
							"internalType": "address",
							"name": "owner",
							"type": "address"
						},
						{
							"indexed": true,
							"internalType": "address",
							"name": "spender",
							"type": "address"
						},
						{
							"indexed": false,
							"internalType": "uint256",
							"name": "value",
							"type": "uint256"
						}
					],
					"name": "Approval",
					"type": "event"
				},
				{
					"anonymous": false,
					"inputs": [
						{
							"indexed": true,
							"internalType": "address",
							"name": "to",
							"type": "address"
						},
						{
							"indexed": false,
							"internalType": "uint256",
							"name": "amount",
							"type": "uint256"
						}
					],
					"name": "Mint",
					"type": "event"
				},
				{
					"anonymous": false,
					"inputs": [],
					"name": "MintFinished",
					"type": "event"
				},
				{
					"anonymous": false,
					"inputs": [
						{
							"indexed": true,
							"internalType": "address",
							"name": "from",
							"type": "address"
						},
						{
							"indexed": true,
							"internalType": "address",
							"name": "to",
							"type": "address"
						},
						{
							"indexed": false,
							"internalType": "uint256",
							"name": "value",
							"type": "uint256"
						}
					],
					"name": "Transfer",
					"type": "event"
				},
				{
					"inputs": [
						{
							"internalType": "address",
							"name": "_owner",
							"type": "address"
						},
						{
							"internalType": "address",
							"name": "_spender",
							"type": "address"
						}
					],
					"name": "allowance",
					"outputs": [
						{
							"internalType": "uint256",
							"name": "",
							"type": "uint256"
						}
					],
					"stateMutability": "view",
					"type": "function"
				},
				{
					"inputs": [
						{
							"internalType": "address",
							"name": "_spender",
							"type": "address"
						},
						{
							"internalType": "uint256",
							"name": "_value",
							"type": "uint256"
						}
					],
					"name": "approve",
					"outputs": [
						{
							"internalType": "bool",
							"name": "",
							"type": "bool"
						}
					],
					"stateMutability": "nonpayable",
					"type": "function"
				},
				{
					"inputs": [
						{
							"internalType": "address",
							"name": "_owner",
							"type": "address"
						}
					],
					"name": "balanceOf",
					"outputs": [
						{
							"internalType": "uint256",
							"name": "",
							"type": "uint256"
						}
					],
					"stateMutability": "view",
					"type": "function"
				},
				{
					"inputs": [],
					"name": "decimals",
					"outputs": [
						{
							"internalType": "uint8",
							"name": "",
							"type": "uint8"
						}
					],
					"stateMutability": "view",
					"type": "function"
				},
				{
					"inputs": [],
					"name": "finishMinting",
					"outputs": [
						{
							"internalType": "bool",
							"name": "",
							"type": "bool"
						}
					],
					"stateMutability": "nonpayable",
					"type": "function"
				},
				{
					"inputs": [],
					"name": "getOwner",
					"outputs": [
						{
							"internalType": "address",
							"name": "",
							"type": "address"
						}
					],
					"stateMutability": "view",
					"type": "function"
				},
				{
					"inputs": [
						{
							"internalType": "address",
							"name": "_to",
							"type": "address"
						},
						{
							"internalType": "uint256",
							"name": "_amount",
							"type": "uint256"
						}
					],
					"name": "mint",
					"outputs": [
						{
							"internalType": "bool",
							"name": "",
							"type": "bool"
						}
					],
					"stateMutability": "nonpayable",
					"type": "function"
				},
				{
					"inputs": [],
					"name": "mintingFinished",
					"outputs": [
						{
							"internalType": "bool",
							"name": "",
							"type": "bool"
						}
					],
					"stateMutability": "view",
					"type": "function"
				},
				{
					"inputs": [],
					"name": "name",
					"outputs": [
						{
							"internalType": "string",
							"name": "",
							"type": "string"
						}
					],
					"stateMutability": "view",
					"type": "function"
				},
				{
					"inputs": [],
					"name": "owner",
					"outputs": [
						{
							"internalType": "address",
							"name": "",
							"type": "address"
						}
					],
					"stateMutability": "view",
					"type": "function"
				},
				{
					"inputs": [],
					"name": "symbol",
					"outputs": [
						{
							"internalType": "string",
							"name": "",
							"type": "string"
						}
					],
					"stateMutability": "view",
					"type": "function"
				},
				{
					"inputs": [],
					"name": "totalSupply",
					"outputs": [
						{
							"internalType": "uint256",
							"name": "",
							"type": "uint256"
						}
					],
					"stateMutability": "view",
					"type": "function"
				},
				{
					"inputs": [
						{
							"internalType": "address",
							"name": "_to",
							"type": "address"
						},
						{
							"internalType": "uint256",
							"name": "_value",
							"type": "uint256"
						}
					],
					"name": "transfer",
					"outputs": [
						{
							"internalType": "bool",
							"name": "",
							"type": "bool"
						}
					],
					"stateMutability": "nonpayable",
					"type": "function"
				},
				{
					"inputs": [
						{
							"internalType": "address",
							"name": "_from",
							"type": "address"
						},
						{
							"internalType": "address",
							"name": "_to",
							"type": "address"
						},
						{
							"internalType": "uint256",
							"name": "_value",
							"type": "uint256"
						}
					],
					"name": "transferFrom",
					"outputs": [
						{
							"internalType": "bool",
							"name": "",
							"type": "bool"
						}
					],
					"stateMutability": "nonpayable",
					"type": "function"
				}
			],
			"devdoc": {
				"kind": "dev",
				"methods": {
					"allowance(address,address)": {
						"details": "Function to check the amount of tokens that an owner allowed to a spender.",
						"params": {
							"_owner": "address The address which owns the funds.",
							"_spender": "address The address which will spend the funds."
						},
						"returns": {
							"_0": "A uint256 specifying the amount of tokens still available for the spender."
						}
					},
					"approve(address,uint256)": {
						"details": "Approve the passed address to spend the specified amount of tokens on behalf of msg.sender. Beware that changing an allowance with this method brings the risk that someone may use both the old and the new allowance by unfortunate transaction ordering. One possible solution to mitigate this race condition is to first reduce the spender's allowance to 0 and set the desired value afterwards: https://github.com/ethereum/EIPs/issues/20#issuecomment-263524729",
						"params": {
							"_spender": "The address which will spend the funds.",
							"_value": "The amount of tokens to be spent."
						}
					},
					"balanceOf(address)": {
						"details": "Gets the balance of the specified address.",
						"params": {
							"_owner": "The address to query the the balance of."
						},
						"returns": {
							"_0": "An uint256 representing the amount owned by the passed address."
						}
					},
					"finishMinting()": {
						"details": "Function to stop minting new tokens.",
						"returns": {
							"_0": "True if the operation was successful."
						}
					},
					"mint(address,uint256)": {
						"details": "Function to mint tokens",
						"params": {
							"_amount": "The amount of tokens to mint.",
							"_to": "The address that will receive the minted tokens."
						},
						"returns": {
							"_0": "A boolean that indicates if the operation was successful."
						}
					},
					"totalSupply()": {
						"details": "total number of tokens in existence"
					},
					"transfer(address,uint256)": {
						"details": "transfer token for a specified address",
						"params": {
							"_to": "The address to transfer to.",
							"_value": "The amount to be transferred."
						}
					},
					"transferFrom(address,address,uint256)": {
						"details": "Transfer tokens from one address to another",
						"params": {
							"_from": "address The address which you want to send tokens from",
							"_to": "address The address which you want to transfer to",
							"_value": "uint256 the amount of tokens to be transferred"
						}
					}
				},
				"version": 1
			},
			"evm": {
				"assembly": "    /* \"contracts/ERC20.sol\":1261:5937  contract ERC20 {... */\n  mstore(0x40, 0x80)\n    /* \"contracts/ERC20.sol\":1349:1354  false */\n  0x00\n    /* \"contracts/ERC20.sol\":1319:1354  bool public mintingFinished = false */\n  dup1\n  exp(0x0100, 0x00)\n  dup2\n  sload\n  dup2\n  0xff\n  mul\n  not\n  and\n  swap1\n  dup4\n  iszero\n  iszero\n  mul\n  or\n  swap1\n  sstore\n  pop\n    /* \"contracts/ERC20.sol\":1388:1398  msg.sender */\n  caller\n    /* \"contracts/ERC20.sol\":1365:1398  address public owner = msg.sender */\n  0x00\n  exp(0x0100, 0x01)\n  dup2\n  sload\n  dup2\n  0xffffffffffffffffffffffffffffffffffffffff\n  mul\n  not\n  and\n  swap1\n  dup4\n  0xffffffffffffffffffffffffffffffffffffffff\n  and\n  mul\n  or\n  swap1\n  sstore\n  pop\n    /* \"contracts/ERC20.sol\":1261:5937  contract ERC20 {... */\n  callvalue\n  dup1\n  iszero\n  tag_1\n  jumpi\n  0x00\n  dup1\n  revert\ntag_1:\n  pop\n  dataSize(sub_0)\n  dup1\n  dataOffset(sub_0)\n  0x00\n  codecopy\n  0x00\n  return\nstop\n\nsub_0: assembly {\n        /* \"contracts/ERC20.sol\":1261:5937  contract ERC20 {... */\n      mstore(0x40, 0x80)\n      callvalue\n      dup1\n      iszero\n      tag_1\n      jumpi\n      0x00\n      dup1\n      revert\n    tag_1:\n      pop\n      jumpi(tag_2, lt(calldatasize, 0x04))\n      shr(0xe0, calldataload(0x00))\n      dup1\n      0x70a08231\n      gt\n      tag_17\n      jumpi\n      dup1\n      0x8da5cb5b\n      gt\n      tag_18\n      jumpi\n      dup1\n      0x8da5cb5b\n      eq\n      tag_13\n      jumpi\n      dup1\n      0x95d89b41\n      eq\n      tag_14\n      jumpi\n      dup1\n      0xa9059cbb\n      eq\n      tag_15\n      jumpi\n      dup1\n      0xdd62ed3e\n      eq\n      tag_16\n      jumpi\n      jump(tag_2)\n    tag_18:\n      dup1\n      0x70a08231\n      eq\n      tag_10\n      jumpi\n      dup1\n      0x7d64bcb4\n      eq\n      tag_11\n      jumpi\n      dup1\n      0x893d20e8\n      eq\n      tag_12\n      jumpi\n      jump(tag_2)\n    tag_17:\n      dup1\n      0x18160ddd\n      gt\n      tag_19\n      jumpi\n      dup1\n      0x18160ddd\n      eq\n      tag_6\n      jumpi\n      dup1\n      0x23b872dd\n      eq\n      tag_7\n      jumpi\n      dup1\n      0x313ce567\n      eq\n      tag_8\n      jumpi\n      dup1\n      0x40c10f19\n      eq\n      tag_9\n      jumpi\n      jump(tag_2)\n    tag_19:\n      dup1\n      0x05d2035b\n      eq\n      tag_3\n      jumpi\n      dup1\n      0x06fdde03\n      eq\n      tag_4\n      jumpi\n      dup1\n      0x095ea7b3\n      eq\n      tag_5\n      jumpi\n    tag_2:\n      0x00\n      dup1\n      revert\n        /* \"contracts/ERC20.sol\":1319:1354  bool public mintingFinished = false */\n    tag_3:\n      tag_20\n      tag_21\n      jump\t// in\n    tag_20:\n      mload(0x40)\n      tag_22\n      swap2\n      swap1\n      tag_23\n      jump\t// in\n    tag_22:\n      mload(0x40)\n      dup1\n      swap2\n      sub\n      swap1\n      return\n        /* \"contracts/ERC20.sol\":1533:1574  string public constant name = \"DiceToken\" */\n    tag_4:\n      tag_24\n      tag_25\n      jump\t// in\n    tag_24:\n      mload(0x40)\n      tag_26\n      swap2\n      swap1\n      tag_27\n      jump\t// in\n    tag_26:\n      mload(0x40)\n      dup1\n      swap2\n      sub\n      swap1\n      return\n        /* \"contracts/ERC20.sol\":5158:5346  function approve(address _spender, uint256 _value) public returns (bool) {... */\n    tag_5:\n      tag_28\n      0x04\n      dup1\n      calldatasize\n      sub\n      dup2\n      add\n      swap1\n      tag_29\n      swap2\n      swap1\n      tag_30\n      jump\t// in\n    tag_29:\n      tag_31\n      jump\t// in\n    tag_28:\n      mload(0x40)\n      tag_32\n      swap2\n      swap1\n      tag_23\n      jump\t// in\n    tag_32:\n      mload(0x40)\n      dup1\n      swap2\n      sub\n      swap1\n      return\n        /* \"contracts/ERC20.sol\":5852:5935  function totalSupply() public view returns (uint256) {... */\n    tag_6:\n      tag_33\n      tag_34\n      jump\t// in\n    tag_33:\n      mload(0x40)\n      tag_35\n      swap2\n      swap1\n      tag_36\n      jump\t// in\n    tag_35:\n      mload(0x40)\n      dup1\n      swap2\n      sub\n      swap1\n      return\n        /* \"contracts/ERC20.sol\":4024:4535  function transferFrom(address _from, address _to, uint256 _value) public returns (bool) {... */\n    tag_7:\n      tag_37\n      0x04\n      dup1\n      calldatasize\n      sub\n      dup2\n      add\n      swap1\n      tag_38\n      swap2\n      swap1\n      tag_39\n      jump\t// in\n    tag_38:\n      tag_40\n      jump\t// in\n    tag_37:\n      mload(0x40)\n      tag_41\n      swap2\n      swap1\n      tag_23\n      jump\t// in\n    tag_41:\n      mload(0x40)\n      dup1\n      swap2\n      sub\n      swap1\n      return\n        /* \"contracts/ERC20.sol\":1622:1657  uint8 public constant decimals = 18 */\n    tag_8:\n      tag_42\n      tag_43\n      jump\t// in\n    tag_42:\n      mload(0x40)\n      tag_44\n      swap2\n      swap1\n      tag_45\n      jump\t// in\n    tag_44:\n      mload(0x40)\n      dup1\n      swap2\n      sub\n      swap1\n      return\n        /* \"contracts/ERC20.sol\":2989:3263  function mint(address _to, uint256 _amount) onlyOwner canMint public returns (bool) {... */\n    tag_9:\n      tag_46\n      0x04\n      dup1\n      calldatasize\n      sub\n      dup2\n      add\n      swap1\n      tag_47\n      swap2\n      swap1\n      tag_30\n      jump\t// in\n    tag_47:\n      tag_48\n      jump\t// in\n    tag_46:\n      mload(0x40)\n      tag_49\n      swap2\n      swap1\n      tag_23\n      jump\t// in\n    tag_49:\n      mload(0x40)\n      dup1\n      swap2\n      sub\n      swap1\n      return\n        /* \"contracts/ERC20.sol\":2132:2231  function balanceOf(address _owner) public view returns (uint256) {... */\n    tag_10:\n      tag_50\n      0x04\n      dup1\n      calldatasize\n      sub\n      dup2\n      add\n      swap1\n      tag_51\n      swap2\n      swap1\n      tag_52\n      jump\t// in\n    tag_51:\n      tag_53\n      jump\t// in\n    tag_50:\n      mload(0x40)\n      tag_54\n      swap2\n      swap1\n      tag_36\n      jump\t// in\n    tag_54:\n      mload(0x40)\n      dup1\n      swap2\n      sub\n      swap1\n      return\n        /* \"contracts/ERC20.sol\":3608:3748  function finishMinting() onlyOwner canMint public returns (bool) {... */\n    tag_11:\n      tag_55\n      tag_56\n      jump\t// in\n    tag_55:\n      mload(0x40)\n      tag_57\n      swap2\n      swap1\n      tag_23\n      jump\t// in\n    tag_57:\n      mload(0x40)\n      dup1\n      swap2\n      sub\n      swap1\n      return\n        /* \"contracts/ERC20.sol\":3270:3344  function getOwner() public view returns (address){... */\n    tag_12:\n      tag_58\n      tag_59\n      jump\t// in\n    tag_58:\n      mload(0x40)\n      tag_60\n      swap2\n      swap1\n      tag_61\n      jump\t// in\n    tag_60:\n      mload(0x40)\n      dup1\n      swap2\n      sub\n      swap1\n      return\n        /* \"contracts/ERC20.sol\":1365:1398  address public owner = msg.sender */\n    tag_13:\n      tag_62\n      tag_63\n      jump\t// in\n    tag_62:\n      mload(0x40)\n      tag_64\n      swap2\n      swap1\n      tag_61\n      jump\t// in\n    tag_64:\n      mload(0x40)\n      dup1\n      swap2\n      sub\n      swap1\n      return\n        /* \"contracts/ERC20.sol\":1580:1616  string public constant symbol = \"DT\" */\n    tag_14:\n      tag_65\n      tag_66\n      jump\t// in\n    tag_65:\n      mload(0x40)\n      tag_67\n      swap2\n      swap1\n      tag_27\n      jump\t// in\n    tag_67:\n      mload(0x40)\n      dup1\n      swap2\n      sub\n      swap1\n      return\n        /* \"contracts/ERC20.sol\":2386:2745  function transfer(address _to, uint256 _value) public returns (bool) {... */\n    tag_15:\n      tag_68\n      0x04\n      dup1\n      calldatasize\n      sub\n      dup2\n      add\n      swap1\n      tag_69\n      swap2\n      swap1\n      tag_30\n      jump\t// in\n    tag_69:\n      tag_70\n      jump\t// in\n    tag_68:\n      mload(0x40)\n      tag_71\n      swap2\n      swap1\n      tag_23\n      jump\t// in\n    tag_71:\n      mload(0x40)\n      dup1\n      swap2\n      sub\n      swap1\n      return\n        /* \"contracts/ERC20.sol\":5665:5791  function allowance(address _owner, address _spender) public view returns (uint256) {... */\n    tag_16:\n      tag_72\n      0x04\n      dup1\n      calldatasize\n      sub\n      dup2\n      add\n      swap1\n      tag_73\n      swap2\n      swap1\n      tag_74\n      jump\t// in\n    tag_73:\n      tag_75\n      jump\t// in\n    tag_72:\n      mload(0x40)\n      tag_76\n      swap2\n      swap1\n      tag_36\n      jump\t// in\n    tag_76:\n      mload(0x40)\n      dup1\n      swap2\n      sub\n      swap1\n      return\n        /* \"contracts/ERC20.sol\":1319:1354  bool public mintingFinished = false */\n    tag_21:\n      0x00\n      dup1\n      sload\n      swap1\n      0x0100\n      exp\n      swap1\n      div\n      0xff\n      and\n      dup2\n      jump\t// out\n        /* \"contracts/ERC20.sol\":1533:1574  string public constant name = \"DiceToken\" */\n    tag_25:\n      mload(0x40)\n      dup1\n      0x40\n      add\n      0x40\n      mstore\n      dup1\n      0x09\n      dup2\n      mstore\n      0x20\n      add\n      0x44696365546f6b656e0000000000000000000000000000000000000000000000\n      dup2\n      mstore\n      pop\n      dup2\n      jump\t// out\n        /* \"contracts/ERC20.sol\":5158:5346  function approve(address _spender, uint256 _value) public returns (bool) {... */\n    tag_31:\n        /* \"contracts/ERC20.sol\":5225:5229  bool */\n      0x00\n        /* \"contracts/ERC20.sol\":5269:5275  _value */\n      dup2\n        /* \"contracts/ERC20.sol\":5237:5244  allowed */\n      0x01\n        /* \"contracts/ERC20.sol\":5237:5256  allowed[msg.sender] */\n      0x00\n        /* \"contracts/ERC20.sol\":5245:5255  msg.sender */\n      caller\n        /* \"contracts/ERC20.sol\":5237:5256  allowed[msg.sender] */\n      0xffffffffffffffffffffffffffffffffffffffff\n      and\n      0xffffffffffffffffffffffffffffffffffffffff\n      and\n      dup2\n      mstore\n      0x20\n      add\n      swap1\n      dup2\n      mstore\n      0x20\n      add\n      0x00\n      keccak256\n        /* \"contracts/ERC20.sol\":5237:5266  allowed[msg.sender][_spender] */\n      0x00\n        /* \"contracts/ERC20.sol\":5257:5265  _spender */\n      dup6\n        /* \"contracts/ERC20.sol\":5237:5266  allowed[msg.sender][_spender] */\n      0xffffffffffffffffffffffffffffffffffffffff\n      and\n      0xffffffffffffffffffffffffffffffffffffffff\n      and\n      dup2\n      mstore\n      0x20\n      add\n      swap1\n      dup2\n      mstore\n      0x20\n      add\n      0x00\n      keccak256\n        /* \"contracts/ERC20.sol\":5237:5275  allowed[msg.sender][_spender] = _value */\n      dup2\n      swap1\n      sstore\n      pop\n        /* \"contracts/ERC20.sol\":5307:5315  _spender */\n      dup3\n        /* \"contracts/ERC20.sol\":5286:5324  Approval(msg.sender, _spender, _value) */\n      0xffffffffffffffffffffffffffffffffffffffff\n      and\n        /* \"contracts/ERC20.sol\":5295:5305  msg.sender */\n      caller\n        /* \"contracts/ERC20.sol\":5286:5324  Approval(msg.sender, _spender, _value) */\n      0xffffffffffffffffffffffffffffffffffffffff\n      and\n      0x8c5be1e5ebec7d5bd14f71427d1e84f3dd0314c0f7b2291e5b200ac8c7c3b925\n        /* \"contracts/ERC20.sol\":5317:5323  _value */\n      dup5\n        /* \"contracts/ERC20.sol\":5286:5324  Approval(msg.sender, _spender, _value) */\n      mload(0x40)\n      tag_78\n      swap2\n      swap1\n      tag_36\n      jump\t// in\n    tag_78:\n      mload(0x40)\n      dup1\n      swap2\n      sub\n      swap1\n      log3\n        /* \"contracts/ERC20.sol\":5337:5341  true */\n      0x01\n        /* \"contracts/ERC20.sol\":5330:5341  return true */\n      swap1\n      pop\n        /* \"contracts/ERC20.sol\":5158:5346  function approve(address _spender, uint256 _value) public returns (bool) {... */\n      swap3\n      swap2\n      pop\n      pop\n      jump\t// out\n        /* \"contracts/ERC20.sol\":5852:5935  function totalSupply() public view returns (uint256) {... */\n    tag_34:\n        /* \"contracts/ERC20.sol\":5896:5903  uint256 */\n      0x00\n        /* \"contracts/ERC20.sol\":5918:5930  totalSupply_ */\n      sload(0x03)\n        /* \"contracts/ERC20.sol\":5911:5930  return totalSupply_ */\n      swap1\n      pop\n        /* \"contracts/ERC20.sol\":5852:5935  function totalSupply() public view returns (uint256) {... */\n      swap1\n      jump\t// out\n        /* \"contracts/ERC20.sol\":4024:4535  function transferFrom(address _from, address _to, uint256 _value) public returns (bool) {... */\n    tag_40:\n        /* \"contracts/ERC20.sol\":4106:4110  bool */\n      0x00\n        /* \"contracts/ERC20.sol\":4141:4142  0 */\n      dup1\n        /* \"contracts/ERC20.sol\":4126:4143  _to != address(0) */\n      0xffffffffffffffffffffffffffffffffffffffff\n      and\n        /* \"contracts/ERC20.sol\":4126:4129  _to */\n      dup4\n        /* \"contracts/ERC20.sol\":4126:4143  _to != address(0) */\n      0xffffffffffffffffffffffffffffffffffffffff\n      and\n      sub\n        /* \"contracts/ERC20.sol\":4118:4144  require(_to != address(0)) */\n      tag_81\n      jumpi\n      0x00\n      dup1\n      revert\n    tag_81:\n        /* \"contracts/ERC20.sol\":4168:4176  balances */\n      0x02\n        /* \"contracts/ERC20.sol\":4168:4183  balances[_from] */\n      0x00\n        /* \"contracts/ERC20.sol\":4177:4182  _from */\n      dup6\n        /* \"contracts/ERC20.sol\":4168:4183  balances[_from] */\n      0xffffffffffffffffffffffffffffffffffffffff\n      and\n      0xffffffffffffffffffffffffffffffffffffffff\n      and\n      dup2\n      mstore\n      0x20\n      add\n      swap1\n      dup2\n      mstore\n      0x20\n      add\n      0x00\n      keccak256\n      sload\n        /* \"contracts/ERC20.sol\":4158:4164  _value */\n      dup3\n        /* \"contracts/ERC20.sol\":4158:4183  _value <= balances[_from] */\n      gt\n      iszero\n        /* \"contracts/ERC20.sol\":4150:4220  require(_value <= balances[_from], \"From doesn't have enough balance\") */\n      tag_82\n      jumpi\n      mload(0x40)\n      0x08c379a000000000000000000000000000000000000000000000000000000000\n      dup2\n      mstore\n      0x04\n      add\n      tag_83\n      swap1\n      tag_84\n      jump\t// in\n    tag_83:\n      mload(0x40)\n      dup1\n      swap2\n      sub\n      swap1\n      revert\n    tag_82:\n        /* \"contracts/ERC20.sol\":4244:4251  allowed */\n      0x01\n        /* \"contracts/ERC20.sol\":4244:4258  allowed[_from] */\n      0x00\n        /* \"contracts/ERC20.sol\":4252:4257  _from */\n      dup6\n        /* \"contracts/ERC20.sol\":4244:4258  allowed[_from] */\n      0xffffffffffffffffffffffffffffffffffffffff\n      and\n      0xffffffffffffffffffffffffffffffffffffffff\n      and\n      dup2\n      mstore\n      0x20\n      add\n      swap1\n      dup2\n      mstore\n      0x20\n      add\n      0x00\n      keccak256\n        /* \"contracts/ERC20.sol\":4244:4269  allowed[_from][tx.origin] */\n      0x00\n        /* \"contracts/ERC20.sol\":4259:4268  tx.origin */\n      origin\n        /* \"contracts/ERC20.sol\":4244:4269  allowed[_from][tx.origin] */\n      0xffffffffffffffffffffffffffffffffffffffff\n      and\n      0xffffffffffffffffffffffffffffffffffffffff\n      and\n      dup2\n      mstore\n      0x20\n      add\n      swap1\n      dup2\n      mstore\n      0x20\n      add\n      0x00\n      keccak256\n      sload\n        /* \"contracts/ERC20.sol\":4234:4240  _value */\n      dup3\n        /* \"contracts/ERC20.sol\":4234:4269  _value <= allowed[_from][tx.origin] */\n      gt\n      iszero\n        /* \"contracts/ERC20.sol\":4226:4304  require(_value <= allowed[_from][tx.origin], \"Not allowed to spend this much\") */\n      tag_85\n      jumpi\n      mload(0x40)\n      0x08c379a000000000000000000000000000000000000000000000000000000000\n      dup2\n      mstore\n      0x04\n      add\n      tag_86\n      swap1\n      tag_87\n      jump\t// in\n    tag_86:\n      mload(0x40)\n      dup1\n      swap2\n      sub\n      swap1\n      revert\n    tag_85:\n        /* \"contracts/ERC20.sol\":4329:4356  balances[_from].sub(_value) */\n      tag_88\n        /* \"contracts/ERC20.sol\":4349:4355  _value */\n      dup3\n        /* \"contracts/ERC20.sol\":4329:4337  balances */\n      0x02\n        /* \"contracts/ERC20.sol\":4329:4344  balances[_from] */\n      0x00\n        /* \"contracts/ERC20.sol\":4338:4343  _from */\n      dup8\n        /* \"contracts/ERC20.sol\":4329:4344  balances[_from] */\n      0xffffffffffffffffffffffffffffffffffffffff\n      and\n      0xffffffffffffffffffffffffffffffffffffffff\n      and\n      dup2\n      mstore\n      0x20\n      add\n      swap1\n      dup2\n      mstore\n      0x20\n      add\n      0x00\n      keccak256\n      sload\n        /* \"contracts/ERC20.sol\":4329:4348  balances[_from].sub */\n      tag_89\n      swap1\n        /* \"contracts/ERC20.sol\":4329:4356  balances[_from].sub(_value) */\n      swap2\n      swap1\n      0xffffffff\n      and\n      jump\t// in\n    tag_88:\n        /* \"contracts/ERC20.sol\":4311:4319  balances */\n      0x02\n        /* \"contracts/ERC20.sol\":4311:4326  balances[_from] */\n      0x00\n        /* \"contracts/ERC20.sol\":4320:4325  _from */\n      dup7\n        /* \"contracts/ERC20.sol\":4311:4326  balances[_from] */\n      0xffffffffffffffffffffffffffffffffffffffff\n      and\n      0xffffffffffffffffffffffffffffffffffffffff\n      and\n      dup2\n      mstore\n      0x20\n      add\n      swap1\n      dup2\n      mstore\n      0x20\n      add\n      0x00\n      keccak256\n        /* \"contracts/ERC20.sol\":4311:4356  balances[_from] = balances[_from].sub(_value) */\n      dup2\n      swap1\n      sstore\n      pop\n        /* \"contracts/ERC20.sol\":4378:4403  balances[_to].add(_value) */\n      tag_90\n        /* \"contracts/ERC20.sol\":4396:4402  _value */\n      dup3\n        /* \"contracts/ERC20.sol\":4378:4386  balances */\n      0x02\n        /* \"contracts/ERC20.sol\":4378:4391  balances[_to] */\n      0x00\n        /* \"contracts/ERC20.sol\":4387:4390  _to */\n      dup7\n        /* \"contracts/ERC20.sol\":4378:4391  balances[_to] */\n      0xffffffffffffffffffffffffffffffffffffffff\n      and\n      0xffffffffffffffffffffffffffffffffffffffff\n      and\n      dup2\n      mstore\n      0x20\n      add\n      swap1\n      dup2\n      mstore\n      0x20\n      add\n      0x00\n      keccak256\n      sload\n        /* \"contracts/ERC20.sol\":4378:4395  balances[_to].add */\n      tag_91\n      swap1\n        /* \"contracts/ERC20.sol\":4378:4403  balances[_to].add(_value) */\n      swap2\n      swap1\n      0xffffffff\n      and\n      jump\t// in\n    tag_90:\n        /* \"contracts/ERC20.sol\":4362:4370  balances */\n      0x02\n        /* \"contracts/ERC20.sol\":4362:4375  balances[_to] */\n      0x00\n        /* \"contracts/ERC20.sol\":4371:4374  _to */\n      dup6\n        /* \"contracts/ERC20.sol\":4362:4375  balances[_to] */\n      0xffffffffffffffffffffffffffffffffffffffff\n      and\n      0xffffffffffffffffffffffffffffffffffffffff\n      and\n      dup2\n      mstore\n      0x20\n      add\n      swap1\n      dup2\n      mstore\n      0x20\n      add\n      0x00\n      keccak256\n        /* \"contracts/ERC20.sol\":4362:4403  balances[_to] = balances[_to].add(_value) */\n      dup2\n      swap1\n      sstore\n      pop\n        /* \"contracts/ERC20.sol\":4437:4474  allowed[_from][tx.origin].sub(_value) */\n      tag_92\n        /* \"contracts/ERC20.sol\":4467:4473  _value */\n      dup3\n        /* \"contracts/ERC20.sol\":4437:4444  allowed */\n      0x01\n        /* \"contracts/ERC20.sol\":4437:4451  allowed[_from] */\n      0x00\n        /* \"contracts/ERC20.sol\":4445:4450  _from */\n      dup8\n        /* \"contracts/ERC20.sol\":4437:4451  allowed[_from] */\n      0xffffffffffffffffffffffffffffffffffffffff\n      and\n      0xffffffffffffffffffffffffffffffffffffffff\n      and\n      dup2\n      mstore\n      0x20\n      add\n      swap1\n      dup2\n      mstore\n      0x20\n      add\n      0x00\n      keccak256\n        /* \"contracts/ERC20.sol\":4437:4462  allowed[_from][tx.origin] */\n      0x00\n        /* \"contracts/ERC20.sol\":4452:4461  tx.origin */\n      origin\n        /* \"contracts/ERC20.sol\":4437:4462  allowed[_from][tx.origin] */\n      0xffffffffffffffffffffffffffffffffffffffff\n      and\n      0xffffffffffffffffffffffffffffffffffffffff\n      and\n      dup2\n      mstore\n      0x20\n      add\n      swap1\n      dup2\n      mstore\n      0x20\n      add\n      0x00\n      keccak256\n      sload\n        /* \"contracts/ERC20.sol\":4437:4466  allowed[_from][tx.origin].sub */\n      tag_89\n      swap1\n        /* \"contracts/ERC20.sol\":4437:4474  allowed[_from][tx.origin].sub(_value) */\n      swap2\n      swap1\n      0xffffffff\n      and\n      jump\t// in\n    tag_92:\n        /* \"contracts/ERC20.sol\":4409:4416  allowed */\n      0x01\n        /* \"contracts/ERC20.sol\":4409:4423  allowed[_from] */\n      0x00\n        /* \"contracts/ERC20.sol\":4417:4422  _from */\n      dup7\n        /* \"contracts/ERC20.sol\":4409:4423  allowed[_from] */\n      0xffffffffffffffffffffffffffffffffffffffff\n      and\n      0xffffffffffffffffffffffffffffffffffffffff\n      and\n      dup2\n      mstore\n      0x20\n      add\n      swap1\n      dup2\n      mstore\n      0x20\n      add\n      0x00\n      keccak256\n        /* \"contracts/ERC20.sol\":4409:4434  allowed[_from][tx.origin] */\n      0x00\n        /* \"contracts/ERC20.sol\":4424:4433  tx.origin */\n      origin\n        /* \"contracts/ERC20.sol\":4409:4434  allowed[_from][tx.origin] */\n      0xffffffffffffffffffffffffffffffffffffffff\n      and\n      0xffffffffffffffffffffffffffffffffffffffff\n      and\n      dup2\n      mstore\n      0x20\n      add\n      swap1\n      dup2\n      mstore\n      0x20\n      add\n      0x00\n      keccak256\n        /* \"contracts/ERC20.sol\":4409:4474  allowed[_from][tx.origin] = allowed[_from][tx.origin].sub(_value) */\n      dup2\n      swap1\n      sstore\n      pop\n        /* \"contracts/ERC20.sol\":4501:4504  _to */\n      dup3\n        /* \"contracts/ERC20.sol\":4485:4513  Transfer(_from, _to, _value) */\n      0xffffffffffffffffffffffffffffffffffffffff\n      and\n        /* \"contracts/ERC20.sol\":4494:4499  _from */\n      dup5\n        /* \"contracts/ERC20.sol\":4485:4513  Transfer(_from, _to, _value) */\n      0xffffffffffffffffffffffffffffffffffffffff\n      and\n      0xddf252ad1be2c89b69c2b068fc378daa952ba7f163c4a11628f55a4df523b3ef\n        /* \"contracts/ERC20.sol\":4506:4512  _value */\n      dup5\n        /* \"contracts/ERC20.sol\":4485:4513  Transfer(_from, _to, _value) */\n      mload(0x40)\n      tag_93\n      swap2\n      swap1\n      tag_36\n      jump\t// in\n    tag_93:\n      mload(0x40)\n      dup1\n      swap2\n      sub\n      swap1\n      log3\n        /* \"contracts/ERC20.sol\":4526:4530  true */\n      0x01\n        /* \"contracts/ERC20.sol\":4519:4530  return true */\n      swap1\n      pop\n        /* \"contracts/ERC20.sol\":4024:4535  function transferFrom(address _from, address _to, uint256 _value) public returns (bool) {... */\n      swap4\n      swap3\n      pop\n      pop\n      pop\n      jump\t// out\n        /* \"contracts/ERC20.sol\":1622:1657  uint8 public constant decimals = 18 */\n    tag_43:\n        /* \"contracts/ERC20.sol\":1655:1657  18 */\n      0x12\n        /* \"contracts/ERC20.sol\":1622:1657  uint8 public constant decimals = 18 */\n      dup2\n      jump\t// out\n        /* \"contracts/ERC20.sol\":2989:3263  function mint(address _to, uint256 _amount) onlyOwner canMint public returns (bool) {... */\n    tag_48:\n        /* \"contracts/ERC20.sol\":3067:3071  bool */\n      0x00\n        /* \"contracts/ERC20.sol\":3403:3408  owner */\n      dup1\n      0x01\n      swap1\n      sload\n      swap1\n      0x0100\n      exp\n      swap1\n      div\n      0xffffffffffffffffffffffffffffffffffffffff\n      and\n        /* \"contracts/ERC20.sol\":3389:3408  msg.sender == owner */\n      0xffffffffffffffffffffffffffffffffffffffff\n      and\n        /* \"contracts/ERC20.sol\":3389:3399  msg.sender */\n      caller\n        /* \"contracts/ERC20.sol\":3389:3408  msg.sender == owner */\n      0xffffffffffffffffffffffffffffffffffffffff\n      and\n      eq\n        /* \"contracts/ERC20.sol\":3381:3409  require(msg.sender == owner) */\n      tag_95\n      jumpi\n      0x00\n      dup1\n      revert\n    tag_95:\n        /* \"contracts/ERC20.sol\":3464:3479  mintingFinished */\n      0x00\n      dup1\n      sload\n      swap1\n      0x0100\n      exp\n      swap1\n      div\n      0xff\n      and\n        /* \"contracts/ERC20.sol\":3463:3479  !mintingFinished */\n      iszero\n        /* \"contracts/ERC20.sol\":3455:3480  require(!mintingFinished) */\n      tag_97\n      jumpi\n      0x00\n      dup1\n      revert\n    tag_97:\n        /* \"contracts/ERC20.sol\":3094:3119  totalSupply_.add(_amount) */\n      tag_99\n        /* \"contracts/ERC20.sol\":3111:3118  _amount */\n      dup3\n        /* \"contracts/ERC20.sol\":3094:3106  totalSupply_ */\n      sload(0x03)\n        /* \"contracts/ERC20.sol\":3094:3110  totalSupply_.add */\n      tag_91\n      swap1\n        /* \"contracts/ERC20.sol\":3094:3119  totalSupply_.add(_amount) */\n      swap2\n      swap1\n      0xffffffff\n      and\n      jump\t// in\n    tag_99:\n        /* \"contracts/ERC20.sol\":3079:3091  totalSupply_ */\n      0x03\n        /* \"contracts/ERC20.sol\":3079:3119  totalSupply_ = totalSupply_.add(_amount) */\n      dup2\n      swap1\n      sstore\n      pop\n        /* \"contracts/ERC20.sol\":3141:3167  balances[_to].add(_amount) */\n      tag_100\n        /* \"contracts/ERC20.sol\":3159:3166  _amount */\n      dup3\n        /* \"contracts/ERC20.sol\":3141:3149  balances */\n      0x02\n        /* \"contracts/ERC20.sol\":3141:3154  balances[_to] */\n      0x00\n        /* \"contracts/ERC20.sol\":3150:3153  _to */\n      dup7\n        /* \"contracts/ERC20.sol\":3141:3154  balances[_to] */\n      0xffffffffffffffffffffffffffffffffffffffff\n      and\n      0xffffffffffffffffffffffffffffffffffffffff\n      and\n      dup2\n      mstore\n      0x20\n      add\n      swap1\n      dup2\n      mstore\n      0x20\n      add\n      0x00\n      keccak256\n      sload\n        /* \"contracts/ERC20.sol\":3141:3158  balances[_to].add */\n      tag_91\n      swap1\n        /* \"contracts/ERC20.sol\":3141:3167  balances[_to].add(_amount) */\n      swap2\n      swap1\n      0xffffffff\n      and\n      jump\t// in\n    tag_100:\n        /* \"contracts/ERC20.sol\":3125:3133  balances */\n      0x02\n        /* \"contracts/ERC20.sol\":3125:3138  balances[_to] */\n      0x00\n        /* \"contracts/ERC20.sol\":3134:3137  _to */\n      dup6\n        /* \"contracts/ERC20.sol\":3125:3138  balances[_to] */\n      0xffffffffffffffffffffffffffffffffffffffff\n      and\n      0xffffffffffffffffffffffffffffffffffffffff\n      and\n      dup2\n      mstore\n      0x20\n      add\n      swap1\n      dup2\n      mstore\n      0x20\n      add\n      0x00\n      keccak256\n        /* \"contracts/ERC20.sol\":3125:3167  balances[_to] = balances[_to].add(_amount) */\n      dup2\n      swap1\n      sstore\n      pop\n        /* \"contracts/ERC20.sol\":3183:3186  _to */\n      dup3\n        /* \"contracts/ERC20.sol\":3178:3196  Mint(_to, _amount) */\n      0xffffffffffffffffffffffffffffffffffffffff\n      and\n      0x0f6798a560793a54c3bcfe86a93cde1e73087d944c0ea20544137d4121396885\n        /* \"contracts/ERC20.sol\":3188:3195  _amount */\n      dup4\n        /* \"contracts/ERC20.sol\":3178:3196  Mint(_to, _amount) */\n      mload(0x40)\n      tag_101\n      swap2\n      swap1\n      tag_36\n      jump\t// in\n    tag_101:\n      mload(0x40)\n      dup1\n      swap2\n      sub\n      swap1\n      log2\n        /* \"contracts/ERC20.sol\":3228:3231  _to */\n      dup3\n        /* \"contracts/ERC20.sol\":3207:3241  Transfer(address(0), _to, _amount) */\n      0xffffffffffffffffffffffffffffffffffffffff\n      and\n        /* \"contracts/ERC20.sol\":3224:3225  0 */\n      0x00\n        /* \"contracts/ERC20.sol\":3207:3241  Transfer(address(0), _to, _amount) */\n      0xffffffffffffffffffffffffffffffffffffffff\n      and\n      0xddf252ad1be2c89b69c2b068fc378daa952ba7f163c4a11628f55a4df523b3ef\n        /* \"contracts/ERC20.sol\":3233:3240  _amount */\n      dup5\n        /* \"contracts/ERC20.sol\":3207:3241  Transfer(address(0), _to, _amount) */\n      mload(0x40)\n      tag_102\n      swap2\n      swap1\n      tag_36\n      jump\t// in\n    tag_102:\n      mload(0x40)\n      dup1\n      swap2\n      sub\n      swap1\n      log3\n        /* \"contracts/ERC20.sol\":3254:3258  true */\n      0x01\n        /* \"contracts/ERC20.sol\":3247:3258  return true */\n      swap1\n      pop\n        /* \"contracts/ERC20.sol\":2989:3263  function mint(address _to, uint256 _amount) onlyOwner canMint public returns (bool) {... */\n      swap3\n      swap2\n      pop\n      pop\n      jump\t// out\n        /* \"contracts/ERC20.sol\":2132:2231  function balanceOf(address _owner) public view returns (uint256) {... */\n    tag_53:\n        /* \"contracts/ERC20.sol\":2188:2195  uint256 */\n      0x00\n        /* \"contracts/ERC20.sol\":2210:2218  balances */\n      0x02\n        /* \"contracts/ERC20.sol\":2210:2226  balances[_owner] */\n      0x00\n        /* \"contracts/ERC20.sol\":2219:2225  _owner */\n      dup4\n        /* \"contracts/ERC20.sol\":2210:2226  balances[_owner] */\n      0xffffffffffffffffffffffffffffffffffffffff\n      and\n      0xffffffffffffffffffffffffffffffffffffffff\n      and\n      dup2\n      mstore\n      0x20\n      add\n      swap1\n      dup2\n      mstore\n      0x20\n      add\n      0x00\n      keccak256\n      sload\n        /* \"contracts/ERC20.sol\":2203:2226  return balances[_owner] */\n      swap1\n      pop\n        /* \"contracts/ERC20.sol\":2132:2231  function balanceOf(address _owner) public view returns (uint256) {... */\n      swap2\n      swap1\n      pop\n      jump\t// out\n        /* \"contracts/ERC20.sol\":3608:3748  function finishMinting() onlyOwner canMint public returns (bool) {... */\n    tag_56:\n        /* \"contracts/ERC20.sol\":3667:3671  bool */\n      0x00\n        /* \"contracts/ERC20.sol\":3403:3408  owner */\n      dup1\n      0x01\n      swap1\n      sload\n      swap1\n      0x0100\n      exp\n      swap1\n      div\n      0xffffffffffffffffffffffffffffffffffffffff\n      and\n        /* \"contracts/ERC20.sol\":3389:3408  msg.sender == owner */\n      0xffffffffffffffffffffffffffffffffffffffff\n      and\n        /* \"contracts/ERC20.sol\":3389:3399  msg.sender */\n      caller\n        /* \"contracts/ERC20.sol\":3389:3408  msg.sender == owner */\n      0xffffffffffffffffffffffffffffffffffffffff\n      and\n      eq\n        /* \"contracts/ERC20.sol\":3381:3409  require(msg.sender == owner) */\n      tag_105\n      jumpi\n      0x00\n      dup1\n      revert\n    tag_105:\n        /* \"contracts/ERC20.sol\":3464:3479  mintingFinished */\n      0x00\n      dup1\n      sload\n      swap1\n      0x0100\n      exp\n      swap1\n      div\n      0xff\n      and\n        /* \"contracts/ERC20.sol\":3463:3479  !mintingFinished */\n      iszero\n        /* \"contracts/ERC20.sol\":3455:3480  require(!mintingFinished) */\n      tag_107\n      jumpi\n      0x00\n      dup1\n      revert\n    tag_107:\n        /* \"contracts/ERC20.sol\":3697:3701  true */\n      0x01\n        /* \"contracts/ERC20.sol\":3679:3694  mintingFinished */\n      0x00\n      dup1\n        /* \"contracts/ERC20.sol\":3679:3701  mintingFinished = true */\n      0x0100\n      exp\n      dup2\n      sload\n      dup2\n      0xff\n      mul\n      not\n      and\n      swap1\n      dup4\n      iszero\n      iszero\n      mul\n      or\n      swap1\n      sstore\n      pop\n        /* \"contracts/ERC20.sol\":3712:3726  MintFinished() */\n      0xae5184fba832cb2b1f702aca6117b8d265eaf03ad33eb133f19dde0f5920fa08\n      mload(0x40)\n      mload(0x40)\n      dup1\n      swap2\n      sub\n      swap1\n      log1\n        /* \"contracts/ERC20.sol\":3739:3743  true */\n      0x01\n        /* \"contracts/ERC20.sol\":3732:3743  return true */\n      swap1\n      pop\n        /* \"contracts/ERC20.sol\":3608:3748  function finishMinting() onlyOwner canMint public returns (bool) {... */\n      swap1\n      jump\t// out\n        /* \"contracts/ERC20.sol\":3270:3344  function getOwner() public view returns (address){... */\n    tag_59:\n        /* \"contracts/ERC20.sol\":3311:3318  address */\n      0x00\n        /* \"contracts/ERC20.sol\":3334:3339  owner */\n      dup1\n      0x01\n      swap1\n      sload\n      swap1\n      0x0100\n      exp\n      swap1\n      div\n      0xffffffffffffffffffffffffffffffffffffffff\n      and\n        /* \"contracts/ERC20.sol\":3327:3339  return owner */\n      swap1\n      pop\n        /* \"contracts/ERC20.sol\":3270:3344  function getOwner() public view returns (address){... */\n      swap1\n      jump\t// out\n        /* \"contracts/ERC20.sol\":1365:1398  address public owner = msg.sender */\n    tag_63:\n      0x00\n      0x01\n      swap1\n      sload\n      swap1\n      0x0100\n      exp\n      swap1\n      div\n      0xffffffffffffffffffffffffffffffffffffffff\n      and\n      dup2\n      jump\t// out\n        /* \"contracts/ERC20.sol\":1580:1616  string public constant symbol = \"DT\" */\n    tag_66:\n      mload(0x40)\n      dup1\n      0x40\n      add\n      0x40\n      mstore\n      dup1\n      0x02\n      dup2\n      mstore\n      0x20\n      add\n      0x4454000000000000000000000000000000000000000000000000000000000000\n      dup2\n      mstore\n      pop\n      dup2\n      jump\t// out\n        /* \"contracts/ERC20.sol\":2386:2745  function transfer(address _to, uint256 _value) public returns (bool) {... */\n    tag_70:\n        /* \"contracts/ERC20.sol\":2449:2453  bool */\n      0x00\n        /* \"contracts/ERC20.sol\":2484:2485  0 */\n      dup1\n        /* \"contracts/ERC20.sol\":2469:2486  _to != address(0) */\n      0xffffffffffffffffffffffffffffffffffffffff\n      and\n        /* \"contracts/ERC20.sol\":2469:2472  _to */\n      dup4\n        /* \"contracts/ERC20.sol\":2469:2486  _to != address(0) */\n      0xffffffffffffffffffffffffffffffffffffffff\n      and\n      sub\n        /* \"contracts/ERC20.sol\":2461:2487  require(_to != address(0)) */\n      tag_111\n      jumpi\n      0x00\n      dup1\n      revert\n    tag_111:\n        /* \"contracts/ERC20.sol\":2511:2519  balances */\n      0x02\n        /* \"contracts/ERC20.sol\":2511:2530  balances[tx.origin] */\n      0x00\n        /* \"contracts/ERC20.sol\":2520:2529  tx.origin */\n      origin\n        /* \"contracts/ERC20.sol\":2511:2530  balances[tx.origin] */\n      0xffffffffffffffffffffffffffffffffffffffff\n      and\n      0xffffffffffffffffffffffffffffffffffffffff\n      and\n      dup2\n      mstore\n      0x20\n      add\n      swap1\n      dup2\n      mstore\n      0x20\n      add\n      0x00\n      keccak256\n      sload\n        /* \"contracts/ERC20.sol\":2501:2507  _value */\n      dup3\n        /* \"contracts/ERC20.sol\":2501:2530  _value <= balances[tx.origin] */\n      gt\n      iszero\n        /* \"contracts/ERC20.sol\":2493:2573  require(_value <= balances[tx.origin], \"msg.sender doesn't have enough balance\") */\n      tag_112\n      jumpi\n      mload(0x40)\n      0x08c379a000000000000000000000000000000000000000000000000000000000\n      dup2\n      mstore\n      0x04\n      add\n      tag_113\n      swap1\n      tag_114\n      jump\t// in\n    tag_113:\n      mload(0x40)\n      dup1\n      swap2\n      sub\n      swap1\n      revert\n    tag_112:\n        /* \"contracts/ERC20.sol\":2602:2633  balances[tx.origin].sub(_value) */\n      tag_115\n        /* \"contracts/ERC20.sol\":2626:2632  _value */\n      dup3\n        /* \"contracts/ERC20.sol\":2602:2610  balances */\n      0x02\n        /* \"contracts/ERC20.sol\":2602:2621  balances[tx.origin] */\n      0x00\n        /* \"contracts/ERC20.sol\":2611:2620  tx.origin */\n      origin\n        /* \"contracts/ERC20.sol\":2602:2621  balances[tx.origin] */\n      0xffffffffffffffffffffffffffffffffffffffff\n      and\n      0xffffffffffffffffffffffffffffffffffffffff\n      and\n      dup2\n      mstore\n      0x20\n      add\n      swap1\n      dup2\n      mstore\n      0x20\n      add\n      0x00\n      keccak256\n      sload\n        /* \"contracts/ERC20.sol\":2602:2625  balances[tx.origin].sub */\n      tag_89\n      swap1\n        /* \"contracts/ERC20.sol\":2602:2633  balances[tx.origin].sub(_value) */\n      swap2\n      swap1\n      0xffffffff\n      and\n      jump\t// in\n    tag_115:\n        /* \"contracts/ERC20.sol\":2580:2588  balances */\n      0x02\n        /* \"contracts/ERC20.sol\":2580:2599  balances[tx.origin] */\n      0x00\n        /* \"contracts/ERC20.sol\":2589:2598  tx.origin */\n      origin\n        /* \"contracts/ERC20.sol\":2580:2599  balances[tx.origin] */\n      0xffffffffffffffffffffffffffffffffffffffff\n      and\n      0xffffffffffffffffffffffffffffffffffffffff\n      and\n      dup2\n      mstore\n      0x20\n      add\n      swap1\n      dup2\n      mstore\n      0x20\n      add\n      0x00\n      keccak256\n        /* \"contracts/ERC20.sol\":2580:2633  balances[tx.origin] = balances[tx.origin].sub(_value) */\n      dup2\n      swap1\n      sstore\n      pop\n        /* \"contracts/ERC20.sol\":2655:2680  balances[_to].add(_value) */\n      tag_116\n        /* \"contracts/ERC20.sol\":2673:2679  _value */\n      dup3\n        /* \"contracts/ERC20.sol\":2655:2663  balances */\n      0x02\n        /* \"contracts/ERC20.sol\":2655:2668  balances[_to] */\n      0x00\n        /* \"contracts/ERC20.sol\":2664:2667  _to */\n      dup7\n        /* \"contracts/ERC20.sol\":2655:2668  balances[_to] */\n      0xffffffffffffffffffffffffffffffffffffffff\n      and\n      0xffffffffffffffffffffffffffffffffffffffff\n      and\n      dup2\n      mstore\n      0x20\n      add\n      swap1\n      dup2\n      mstore\n      0x20\n      add\n      0x00\n      keccak256\n      sload\n        /* \"contracts/ERC20.sol\":2655:2672  balances[_to].add */\n      tag_91\n      swap1\n        /* \"contracts/ERC20.sol\":2655:2680  balances[_to].add(_value) */\n      swap2\n      swap1\n      0xffffffff\n      and\n      jump\t// in\n    tag_116:\n        /* \"contracts/ERC20.sol\":2639:2647  balances */\n      0x02\n        /* \"contracts/ERC20.sol\":2639:2652  balances[_to] */\n      0x00\n        /* \"contracts/ERC20.sol\":2648:2651  _to */\n      dup6\n        /* \"contracts/ERC20.sol\":2639:2652  balances[_to] */\n      0xffffffffffffffffffffffffffffffffffffffff\n      and\n      0xffffffffffffffffffffffffffffffffffffffff\n      and\n      dup2\n      mstore\n      0x20\n      add\n      swap1\n      dup2\n      mstore\n      0x20\n      add\n      0x00\n      keccak256\n        /* \"contracts/ERC20.sol\":2639:2680  balances[_to] = balances[_to].add(_value) */\n      dup2\n      swap1\n      sstore\n      pop\n        /* \"contracts/ERC20.sol\":2711:2714  _to */\n      dup3\n        /* \"contracts/ERC20.sol\":2691:2723  Transfer(tx.origin, _to, _value) */\n      0xffffffffffffffffffffffffffffffffffffffff\n      and\n        /* \"contracts/ERC20.sol\":2700:2709  tx.origin */\n      origin\n        /* \"contracts/ERC20.sol\":2691:2723  Transfer(tx.origin, _to, _value) */\n      0xffffffffffffffffffffffffffffffffffffffff\n      and\n      0xddf252ad1be2c89b69c2b068fc378daa952ba7f163c4a11628f55a4df523b3ef\n        /* \"contracts/ERC20.sol\":2716:2722  _value */\n      dup5\n        /* \"contracts/ERC20.sol\":2691:2723  Transfer(tx.origin, _to, _value) */\n      mload(0x40)\n      tag_117\n      swap2\n      swap1\n      tag_36\n      jump\t// in\n    tag_117:\n      mload(0x40)\n      dup1\n      swap2\n      sub\n      swap1\n      log3\n        /* \"contracts/ERC20.sol\":2736:2740  true */\n      0x01\n        /* \"contracts/ERC20.sol\":2729:2740  return true */\n      swap1\n      pop\n        /* \"contracts/ERC20.sol\":2386:2745  function transfer(address _to, uint256 _value) public returns (bool) {... */\n      swap3\n      swap2\n      pop\n      pop\n      jump\t// out\n        /* \"contracts/ERC20.sol\":5665:5791  function allowance(address _owner, address _spender) public view returns (uint256) {... */\n    tag_75:\n        /* \"contracts/ERC20.sol\":5739:5746  uint256 */\n      0x00\n        /* \"contracts/ERC20.sol\":5761:5768  allowed */\n      0x01\n        /* \"contracts/ERC20.sol\":5761:5776  allowed[_owner] */\n      0x00\n        /* \"contracts/ERC20.sol\":5769:5775  _owner */\n      dup5\n        /* \"contracts/ERC20.sol\":5761:5776  allowed[_owner] */\n      0xffffffffffffffffffffffffffffffffffffffff\n      and\n      0xffffffffffffffffffffffffffffffffffffffff\n      and\n      dup2\n      mstore\n      0x20\n      add\n      swap1\n      dup2\n      mstore\n      0x20\n      add\n      0x00\n      keccak256\n        /* \"contracts/ERC20.sol\":5761:5786  allowed[_owner][_spender] */\n      0x00\n        /* \"contracts/ERC20.sol\":5777:5785  _spender */\n      dup4\n        /* \"contracts/ERC20.sol\":5761:5786  allowed[_owner][_spender] */\n      0xffffffffffffffffffffffffffffffffffffffff\n      and\n      0xffffffffffffffffffffffffffffffffffffffff\n      and\n      dup2\n      mstore\n      0x20\n      add\n      swap1\n      dup2\n      mstore\n      0x20\n      add\n      0x00\n      keccak256\n      sload\n        /* \"contracts/ERC20.sol\":5754:5786  return allowed[_owner][_spender] */\n      swap1\n      pop\n        /* \"contracts/ERC20.sol\":5665:5791  function allowance(address _owner, address _spender) public view returns (uint256) {... */\n      swap3\n      swap2\n      pop\n      pop\n      jump\t// out\n        /* \"contracts/ERC20.sol\":962:1072  function sub(uint256 a, uint256 b) internal pure returns (uint256) {... */\n    tag_89:\n        /* \"contracts/ERC20.sol\":1020:1027  uint256 */\n      0x00\n        /* \"contracts/ERC20.sol\":1047:1048  a */\n      dup3\n        /* \"contracts/ERC20.sol\":1042:1043  b */\n      dup3\n        /* \"contracts/ERC20.sol\":1042:1048  b <= a */\n      gt\n      iszero\n        /* \"contracts/ERC20.sol\":1035:1049  assert(b <= a) */\n      tag_120\n      jumpi\n      tag_121\n      tag_122\n      jump\t// in\n    tag_121:\n    tag_120:\n        /* \"contracts/ERC20.sol\":1066:1067  b */\n      dup2\n        /* \"contracts/ERC20.sol\":1062:1063  a */\n      dup4\n        /* \"contracts/ERC20.sol\":1062:1067  a - b */\n      tag_123\n      swap2\n      swap1\n      tag_124\n      jump\t// in\n    tag_123:\n        /* \"contracts/ERC20.sol\":1055:1067  return a - b */\n      swap1\n      pop\n        /* \"contracts/ERC20.sol\":962:1072  function sub(uint256 a, uint256 b) internal pure returns (uint256) {... */\n      swap3\n      swap2\n      pop\n      pop\n      jump\t// out\n        /* \"contracts/ERC20.sol\":1134:1257  function add(uint256 a, uint256 b) internal pure returns (uint256 c) {... */\n    tag_91:\n        /* \"contracts/ERC20.sol\":1192:1201  uint256 c */\n      0x00\n        /* \"contracts/ERC20.sol\":1217:1218  b */\n      dup2\n        /* \"contracts/ERC20.sol\":1213:1214  a */\n      dup4\n        /* \"contracts/ERC20.sol\":1213:1218  a + b */\n      tag_126\n      swap2\n      swap1\n      tag_127\n      jump\t// in\n    tag_126:\n        /* \"contracts/ERC20.sol\":1209:1218  c = a + b */\n      swap1\n      pop\n        /* \"contracts/ERC20.sol\":1236:1237  a */\n      dup3\n        /* \"contracts/ERC20.sol\":1231:1232  c */\n      dup2\n        /* \"contracts/ERC20.sol\":1231:1237  c >= a */\n      lt\n      iszero\n        /* \"contracts/ERC20.sol\":1224:1238  assert(c >= a) */\n      tag_128\n      jumpi\n      tag_129\n      tag_122\n      jump\t// in\n    tag_129:\n    tag_128:\n        /* \"contracts/ERC20.sol\":1134:1257  function add(uint256 a, uint256 b) internal pure returns (uint256 c) {... */\n      swap3\n      swap2\n      pop\n      pop\n      jump\t// out\n        /* \"#utility.yul\":7:97   */\n    tag_130:\n        /* \"#utility.yul\":41:48   */\n      0x00\n        /* \"#utility.yul\":84:89   */\n      dup2\n        /* \"#utility.yul\":77:90   */\n      iszero\n        /* \"#utility.yul\":70:91   */\n      iszero\n        /* \"#utility.yul\":59:91   */\n      swap1\n      pop\n        /* \"#utility.yul\":7:97   */\n      swap2\n      swap1\n      pop\n      jump\t// out\n        /* \"#utility.yul\":103:212   */\n    tag_131:\n        /* \"#utility.yul\":184:205   */\n      tag_161\n        /* \"#utility.yul\":199:204   */\n      dup2\n        /* \"#utility.yul\":184:205   */\n      tag_130\n      jump\t// in\n    tag_161:\n        /* \"#utility.yul\":179:182   */\n      dup3\n        /* \"#utility.yul\":172:206   */\n      mstore\n        /* \"#utility.yul\":103:212   */\n      pop\n      pop\n      jump\t// out\n        /* \"#utility.yul\":218:428   */\n    tag_23:\n        /* \"#utility.yul\":305:309   */\n      0x00\n        /* \"#utility.yul\":343:345   */\n      0x20\n        /* \"#utility.yul\":332:341   */\n      dup3\n        /* \"#utility.yul\":328:346   */\n      add\n        /* \"#utility.yul\":320:346   */\n      swap1\n      pop\n        /* \"#utility.yul\":356:421   */\n      tag_163\n        /* \"#utility.yul\":418:419   */\n      0x00\n        /* \"#utility.yul\":407:416   */\n      dup4\n        /* \"#utility.yul\":403:420   */\n      add\n        /* \"#utility.yul\":394:400   */\n      dup5\n        /* \"#utility.yul\":356:421   */\n      tag_131\n      jump\t// in\n    tag_163:\n        /* \"#utility.yul\":218:428   */\n      swap3\n      swap2\n      pop\n      pop\n      jump\t// out\n        /* \"#utility.yul\":434:533   */\n    tag_132:\n        /* \"#utility.yul\":486:492   */\n      0x00\n        /* \"#utility.yul\":520:525   */\n      dup2\n        /* \"#utility.yul\":514:526   */\n      mload\n        /* \"#utility.yul\":504:526   */\n      swap1\n      pop\n        /* \"#utility.yul\":434:533   */\n      swap2\n      swap1\n      pop\n      jump\t// out\n        /* \"#utility.yul\":539:708   */\n    tag_133:\n        /* \"#utility.yul\":623:634   */\n      0x00\n        /* \"#utility.yul\":657:663   */\n      dup3\n        /* \"#utility.yul\":652:655   */\n      dup3\n        /* \"#utility.yul\":645:664   */\n      mstore\n        /* \"#utility.yul\":697:701   */\n      0x20\n        /* \"#utility.yul\":692:695   */\n      dup3\n        /* \"#utility.yul\":688:702   */\n      add\n        /* \"#utility.yul\":673:702   */\n      swap1\n      pop\n        /* \"#utility.yul\":539:708   */\n      swap3\n      swap2\n      pop\n      pop\n      jump\t// out\n        /* \"#utility.yul\":714:960   */\n    tag_134:\n        /* \"#utility.yul\":795:796   */\n      0x00\n        /* \"#utility.yul\":805:918   */\n    tag_167:\n        /* \"#utility.yul\":819:825   */\n      dup4\n        /* \"#utility.yul\":816:817   */\n      dup2\n        /* \"#utility.yul\":813:826   */\n      lt\n        /* \"#utility.yul\":805:918   */\n      iszero\n      tag_169\n      jumpi\n        /* \"#utility.yul\":904:905   */\n      dup1\n        /* \"#utility.yul\":899:902   */\n      dup3\n        /* \"#utility.yul\":895:906   */\n      add\n        /* \"#utility.yul\":889:907   */\n      mload\n        /* \"#utility.yul\":885:886   */\n      dup2\n        /* \"#utility.yul\":880:883   */\n      dup5\n        /* \"#utility.yul\":876:887   */\n      add\n        /* \"#utility.yul\":869:908   */\n      mstore\n        /* \"#utility.yul\":841:843   */\n      0x20\n        /* \"#utility.yul\":838:839   */\n      dup2\n        /* \"#utility.yul\":834:844   */\n      add\n        /* \"#utility.yul\":829:844   */\n      swap1\n      pop\n        /* \"#utility.yul\":805:918   */\n      jump(tag_167)\n    tag_169:\n        /* \"#utility.yul\":952:953   */\n      0x00\n        /* \"#utility.yul\":943:949   */\n      dup5\n        /* \"#utility.yul\":938:941   */\n      dup5\n        /* \"#utility.yul\":934:950   */\n      add\n        /* \"#utility.yul\":927:954   */\n      mstore\n        /* \"#utility.yul\":776:960   */\n      pop\n        /* \"#utility.yul\":714:960   */\n      pop\n      pop\n      pop\n      jump\t// out\n        /* \"#utility.yul\":966:1068   */\n    tag_135:\n        /* \"#utility.yul\":1007:1013   */\n      0x00\n        /* \"#utility.yul\":1058:1060   */\n      0x1f\n        /* \"#utility.yul\":1054:1061   */\n      not\n        /* \"#utility.yul\":1049:1051   */\n      0x1f\n        /* \"#utility.yul\":1042:1047   */\n      dup4\n        /* \"#utility.yul\":1038:1052   */\n      add\n        /* \"#utility.yul\":1034:1062   */\n      and\n        /* \"#utility.yul\":1024:1062   */\n      swap1\n      pop\n        /* \"#utility.yul\":966:1068   */\n      swap2\n      swap1\n      pop\n      jump\t// out\n        /* \"#utility.yul\":1074:1451   */\n    tag_136:\n        /* \"#utility.yul\":1162:1165   */\n      0x00\n        /* \"#utility.yul\":1190:1229   */\n      tag_172\n        /* \"#utility.yul\":1223:1228   */\n      dup3\n        /* \"#utility.yul\":1190:1229   */\n      tag_132\n      jump\t// in\n    tag_172:\n        /* \"#utility.yul\":1245:1316   */\n      tag_173\n        /* \"#utility.yul\":1309:1315   */\n      dup2\n        /* \"#utility.yul\":1304:1307   */\n      dup6\n        /* \"#utility.yul\":1245:1316   */\n      tag_133\n      jump\t// in\n    tag_173:\n        /* \"#utility.yul\":1238:1316   */\n      swap4\n      pop\n        /* \"#utility.yul\":1325:1390   */\n      tag_174\n        /* \"#utility.yul\":1383:1389   */\n      dup2\n        /* \"#utility.yul\":1378:1381   */\n      dup6\n        /* \"#utility.yul\":1371:1375   */\n      0x20\n        /* \"#utility.yul\":1364:1369   */\n      dup7\n        /* \"#utility.yul\":1360:1376   */\n      add\n        /* \"#utility.yul\":1325:1390   */\n      tag_134\n      jump\t// in\n    tag_174:\n        /* \"#utility.yul\":1415:1444   */\n      tag_175\n        /* \"#utility.yul\":1437:1443   */\n      dup2\n        /* \"#utility.yul\":1415:1444   */\n      tag_135\n      jump\t// in\n    tag_175:\n        /* \"#utility.yul\":1410:1413   */\n      dup5\n        /* \"#utility.yul\":1406:1445   */\n      add\n        /* \"#utility.yul\":1399:1445   */\n      swap2\n      pop\n        /* \"#utility.yul\":1166:1451   */\n      pop\n        /* \"#utility.yul\":1074:1451   */\n      swap3\n      swap2\n      pop\n      pop\n      jump\t// out\n        /* \"#utility.yul\":1457:1770   */\n    tag_27:\n        /* \"#utility.yul\":1570:1574   */\n      0x00\n        /* \"#utility.yul\":1608:1610   */\n      0x20\n        /* \"#utility.yul\":1597:1606   */\n      dup3\n        /* \"#utility.yul\":1593:1611   */\n      add\n        /* \"#utility.yul\":1585:1611   */\n      swap1\n      pop\n        /* \"#utility.yul\":1657:1666   */\n      dup2\n        /* \"#utility.yul\":1651:1655   */\n      dup2\n        /* \"#utility.yul\":1647:1667   */\n      sub\n        /* \"#utility.yul\":1643:1644   */\n      0x00\n        /* \"#utility.yul\":1632:1641   */\n      dup4\n        /* \"#utility.yul\":1628:1645   */\n      add\n        /* \"#utility.yul\":1621:1668   */\n      mstore\n        /* \"#utility.yul\":1685:1763   */\n      tag_177\n        /* \"#utility.yul\":1758:1762   */\n      dup2\n        /* \"#utility.yul\":1749:1755   */\n      dup5\n        /* \"#utility.yul\":1685:1763   */\n      tag_136\n      jump\t// in\n    tag_177:\n        /* \"#utility.yul\":1677:1763   */\n      swap1\n      pop\n        /* \"#utility.yul\":1457:1770   */\n      swap3\n      swap2\n      pop\n      pop\n      jump\t// out\n        /* \"#utility.yul\":1857:1974   */\n    tag_138:\n        /* \"#utility.yul\":1966:1967   */\n      0x00\n        /* \"#utility.yul\":1963:1964   */\n      dup1\n        /* \"#utility.yul\":1956:1968   */\n      revert\n        /* \"#utility.yul\":2103:2229   */\n    tag_140:\n        /* \"#utility.yul\":2140:2147   */\n      0x00\n        /* \"#utility.yul\":2180:2222   */\n      0xffffffffffffffffffffffffffffffffffffffff\n        /* \"#utility.yul\":2173:2178   */\n      dup3\n        /* \"#utility.yul\":2169:2223   */\n      and\n        /* \"#utility.yul\":2158:2223   */\n      swap1\n      pop\n        /* \"#utility.yul\":2103:2229   */\n      swap2\n      swap1\n      pop\n      jump\t// out\n        /* \"#utility.yul\":2235:2331   */\n    tag_141:\n        /* \"#utility.yul\":2272:2279   */\n      0x00\n        /* \"#utility.yul\":2301:2325   */\n      tag_183\n        /* \"#utility.yul\":2319:2324   */\n      dup3\n        /* \"#utility.yul\":2301:2325   */\n      tag_140\n      jump\t// in\n    tag_183:\n        /* \"#utility.yul\":2290:2325   */\n      swap1\n      pop\n        /* \"#utility.yul\":2235:2331   */\n      swap2\n      swap1\n      pop\n      jump\t// out\n        /* \"#utility.yul\":2337:2459   */\n    tag_142:\n        /* \"#utility.yul\":2410:2434   */\n      tag_185\n        /* \"#utility.yul\":2428:2433   */\n      dup2\n        /* \"#utility.yul\":2410:2434   */\n      tag_141\n      jump\t// in\n    tag_185:\n        /* \"#utility.yul\":2403:2408   */\n      dup2\n        /* \"#utility.yul\":2400:2435   */\n      eq\n        /* \"#utility.yul\":2390:2453   */\n      tag_186\n      jumpi\n        /* \"#utility.yul\":2449:2450   */\n      0x00\n        /* \"#utility.yul\":2446:2447   */\n      dup1\n        /* \"#utility.yul\":2439:2451   */\n      revert\n        /* \"#utility.yul\":2390:2453   */\n    tag_186:\n        /* \"#utility.yul\":2337:2459   */\n      pop\n      jump\t// out\n        /* \"#utility.yul\":2465:2604   */\n    tag_143:\n        /* \"#utility.yul\":2511:2516   */\n      0x00\n        /* \"#utility.yul\":2549:2555   */\n      dup2\n        /* \"#utility.yul\":2536:2556   */\n      calldataload\n        /* \"#utility.yul\":2527:2556   */\n      swap1\n      pop\n        /* \"#utility.yul\":2565:2598   */\n      tag_188\n        /* \"#utility.yul\":2592:2597   */\n      dup2\n        /* \"#utility.yul\":2565:2598   */\n      tag_142\n      jump\t// in\n    tag_188:\n        /* \"#utility.yul\":2465:2604   */\n      swap3\n      swap2\n      pop\n      pop\n      jump\t// out\n        /* \"#utility.yul\":2610:2687   */\n    tag_144:\n        /* \"#utility.yul\":2647:2654   */\n      0x00\n        /* \"#utility.yul\":2676:2681   */\n      dup2\n        /* \"#utility.yul\":2665:2681   */\n      swap1\n      pop\n        /* \"#utility.yul\":2610:2687   */\n      swap2\n      swap1\n      pop\n      jump\t// out\n        /* \"#utility.yul\":2693:2815   */\n    tag_145:\n        /* \"#utility.yul\":2766:2790   */\n      tag_191\n        /* \"#utility.yul\":2784:2789   */\n      dup2\n        /* \"#utility.yul\":2766:2790   */\n      tag_144\n      jump\t// in\n    tag_191:\n        /* \"#utility.yul\":2759:2764   */\n      dup2\n        /* \"#utility.yul\":2756:2791   */\n      eq\n        /* \"#utility.yul\":2746:2809   */\n      tag_192\n      jumpi\n        /* \"#utility.yul\":2805:2806   */\n      0x00\n        /* \"#utility.yul\":2802:2803   */\n      dup1\n        /* \"#utility.yul\":2795:2807   */\n      revert\n        /* \"#utility.yul\":2746:2809   */\n    tag_192:\n        /* \"#utility.yul\":2693:2815   */\n      pop\n      jump\t// out\n        /* \"#utility.yul\":2821:2960   */\n    tag_146:\n        /* \"#utility.yul\":2867:2872   */\n      0x00\n        /* \"#utility.yul\":2905:2911   */\n      dup2\n        /* \"#utility.yul\":2892:2912   */\n      calldataload\n        /* \"#utility.yul\":2883:2912   */\n      swap1\n      pop\n        /* \"#utility.yul\":2921:2954   */\n      tag_194\n        /* \"#utility.yul\":2948:2953   */\n      dup2\n        /* \"#utility.yul\":2921:2954   */\n      tag_145\n      jump\t// in\n    tag_194:\n        /* \"#utility.yul\":2821:2960   */\n      swap3\n      swap2\n      pop\n      pop\n      jump\t// out\n        /* \"#utility.yul\":2966:3440   */\n    tag_30:\n        /* \"#utility.yul\":3034:3040   */\n      0x00\n        /* \"#utility.yul\":3042:3048   */\n      dup1\n        /* \"#utility.yul\":3091:3093   */\n      0x40\n        /* \"#utility.yul\":3079:3088   */\n      dup4\n        /* \"#utility.yul\":3070:3077   */\n      dup6\n        /* \"#utility.yul\":3066:3089   */\n      sub\n        /* \"#utility.yul\":3062:3094   */\n      slt\n        /* \"#utility.yul\":3059:3178   */\n      iszero\n      tag_196\n      jumpi\n        /* \"#utility.yul\":3097:3176   */\n      tag_197\n      tag_138\n      jump\t// in\n    tag_197:\n        /* \"#utility.yul\":3059:3178   */\n    tag_196:\n        /* \"#utility.yul\":3217:3218   */\n      0x00\n        /* \"#utility.yul\":3242:3295   */\n      tag_198\n        /* \"#utility.yul\":3287:3294   */\n      dup6\n        /* \"#utility.yul\":3278:3284   */\n      dup3\n        /* \"#utility.yul\":3267:3276   */\n      dup7\n        /* \"#utility.yul\":3263:3285   */\n      add\n        /* \"#utility.yul\":3242:3295   */\n      tag_143\n      jump\t// in\n    tag_198:\n        /* \"#utility.yul\":3232:3295   */\n      swap3\n      pop\n        /* \"#utility.yul\":3188:3305   */\n      pop\n        /* \"#utility.yul\":3344:3346   */\n      0x20\n        /* \"#utility.yul\":3370:3423   */\n      tag_199\n        /* \"#utility.yul\":3415:3422   */\n      dup6\n        /* \"#utility.yul\":3406:3412   */\n      dup3\n        /* \"#utility.yul\":3395:3404   */\n      dup7\n        /* \"#utility.yul\":3391:3413   */\n      add\n        /* \"#utility.yul\":3370:3423   */\n      tag_146\n      jump\t// in\n    tag_199:\n        /* \"#utility.yul\":3360:3423   */\n      swap2\n      pop\n        /* \"#utility.yul\":3315:3433   */\n      pop\n        /* \"#utility.yul\":2966:3440   */\n      swap3\n      pop\n      swap3\n      swap1\n      pop\n      jump\t// out\n        /* \"#utility.yul\":3446:3564   */\n    tag_147:\n        /* \"#utility.yul\":3533:3557   */\n      tag_201\n        /* \"#utility.yul\":3551:3556   */\n      dup2\n        /* \"#utility.yul\":3533:3557   */\n      tag_144\n      jump\t// in\n    tag_201:\n        /* \"#utility.yul\":3528:3531   */\n      dup3\n        /* \"#utility.yul\":3521:3558   */\n      mstore\n        /* \"#utility.yul\":3446:3564   */\n      pop\n      pop\n      jump\t// out\n        /* \"#utility.yul\":3570:3792   */\n    tag_36:\n        /* \"#utility.yul\":3663:3667   */\n      0x00\n        /* \"#utility.yul\":3701:3703   */\n      0x20\n        /* \"#utility.yul\":3690:3699   */\n      dup3\n        /* \"#utility.yul\":3686:3704   */\n      add\n        /* \"#utility.yul\":3678:3704   */\n      swap1\n      pop\n        /* \"#utility.yul\":3714:3785   */\n      tag_203\n        /* \"#utility.yul\":3782:3783   */\n      0x00\n        /* \"#utility.yul\":3771:3780   */\n      dup4\n        /* \"#utility.yul\":3767:3784   */\n      add\n        /* \"#utility.yul\":3758:3764   */\n      dup5\n        /* \"#utility.yul\":3714:3785   */\n      tag_147\n      jump\t// in\n    tag_203:\n        /* \"#utility.yul\":3570:3792   */\n      swap3\n      swap2\n      pop\n      pop\n      jump\t// out\n        /* \"#utility.yul\":3798:4417   */\n    tag_39:\n        /* \"#utility.yul\":3875:3881   */\n      0x00\n        /* \"#utility.yul\":3883:3889   */\n      dup1\n        /* \"#utility.yul\":3891:3897   */\n      0x00\n        /* \"#utility.yul\":3940:3942   */\n      0x60\n        /* \"#utility.yul\":3928:3937   */\n      dup5\n        /* \"#utility.yul\":3919:3926   */\n      dup7\n        /* \"#utility.yul\":3915:3938   */\n      sub\n        /* \"#utility.yul\":3911:3943   */\n      slt\n        /* \"#utility.yul\":3908:4027   */\n      iszero\n      tag_205\n      jumpi\n        /* \"#utility.yul\":3946:4025   */\n      tag_206\n      tag_138\n      jump\t// in\n    tag_206:\n        /* \"#utility.yul\":3908:4027   */\n    tag_205:\n        /* \"#utility.yul\":4066:4067   */\n      0x00\n        /* \"#utility.yul\":4091:4144   */\n      tag_207\n        /* \"#utility.yul\":4136:4143   */\n      dup7\n        /* \"#utility.yul\":4127:4133   */\n      dup3\n        /* \"#utility.yul\":4116:4125   */\n      dup8\n        /* \"#utility.yul\":4112:4134   */\n      add\n        /* \"#utility.yul\":4091:4144   */\n      tag_143\n      jump\t// in\n    tag_207:\n        /* \"#utility.yul\":4081:4144   */\n      swap4\n      pop\n        /* \"#utility.yul\":4037:4154   */\n      pop\n        /* \"#utility.yul\":4193:4195   */\n      0x20\n        /* \"#utility.yul\":4219:4272   */\n      tag_208\n        /* \"#utility.yul\":4264:4271   */\n      dup7\n        /* \"#utility.yul\":4255:4261   */\n      dup3\n        /* \"#utility.yul\":4244:4253   */\n      dup8\n        /* \"#utility.yul\":4240:4262   */\n      add\n        /* \"#utility.yul\":4219:4272   */\n      tag_143\n      jump\t// in\n    tag_208:\n        /* \"#utility.yul\":4209:4272   */\n      swap3\n      pop\n        /* \"#utility.yul\":4164:4282   */\n      pop\n        /* \"#utility.yul\":4321:4323   */\n      0x40\n        /* \"#utility.yul\":4347:4400   */\n      tag_209\n        /* \"#utility.yul\":4392:4399   */\n      dup7\n        /* \"#utility.yul\":4383:4389   */\n      dup3\n        /* \"#utility.yul\":4372:4381   */\n      dup8\n        /* \"#utility.yul\":4368:4390   */\n      add\n        /* \"#utility.yul\":4347:4400   */\n      tag_146\n      jump\t// in\n    tag_209:\n        /* \"#utility.yul\":4337:4400   */\n      swap2\n      pop\n        /* \"#utility.yul\":4292:4410   */\n      pop\n        /* \"#utility.yul\":3798:4417   */\n      swap3\n      pop\n      swap3\n      pop\n      swap3\n      jump\t// out\n        /* \"#utility.yul\":4423:4509   */\n    tag_148:\n        /* \"#utility.yul\":4458:4465   */\n      0x00\n        /* \"#utility.yul\":4498:4502   */\n      0xff\n        /* \"#utility.yul\":4491:4496   */\n      dup3\n        /* \"#utility.yul\":4487:4503   */\n      and\n        /* \"#utility.yul\":4476:4503   */\n      swap1\n      pop\n        /* \"#utility.yul\":4423:4509   */\n      swap2\n      swap1\n      pop\n      jump\t// out\n        /* \"#utility.yul\":4515:4627   */\n    tag_149:\n        /* \"#utility.yul\":4598:4620   */\n      tag_212\n        /* \"#utility.yul\":4614:4619   */\n      dup2\n        /* \"#utility.yul\":4598:4620   */\n      tag_148\n      jump\t// in\n    tag_212:\n        /* \"#utility.yul\":4593:4596   */\n      dup3\n        /* \"#utility.yul\":4586:4621   */\n      mstore\n        /* \"#utility.yul\":4515:4627   */\n      pop\n      pop\n      jump\t// out\n        /* \"#utility.yul\":4633:4847   */\n    tag_45:\n        /* \"#utility.yul\":4722:4726   */\n      0x00\n        /* \"#utility.yul\":4760:4762   */\n      0x20\n        /* \"#utility.yul\":4749:4758   */\n      dup3\n        /* \"#utility.yul\":4745:4763   */\n      add\n        /* \"#utility.yul\":4737:4763   */\n      swap1\n      pop\n        /* \"#utility.yul\":4773:4840   */\n      tag_214\n        /* \"#utility.yul\":4837:4838   */\n      0x00\n        /* \"#utility.yul\":4826:4835   */\n      dup4\n        /* \"#utility.yul\":4822:4839   */\n      add\n        /* \"#utility.yul\":4813:4819   */\n      dup5\n        /* \"#utility.yul\":4773:4840   */\n      tag_149\n      jump\t// in\n    tag_214:\n        /* \"#utility.yul\":4633:4847   */\n      swap3\n      swap2\n      pop\n      pop\n      jump\t// out\n        /* \"#utility.yul\":4853:5182   */\n    tag_52:\n        /* \"#utility.yul\":4912:4918   */\n      0x00\n        /* \"#utility.yul\":4961:4963   */\n      0x20\n        /* \"#utility.yul\":4949:4958   */\n      dup3\n        /* \"#utility.yul\":4940:4947   */\n      dup5\n        /* \"#utility.yul\":4936:4959   */\n      sub\n        /* \"#utility.yul\":4932:4964   */\n      slt\n        /* \"#utility.yul\":4929:5048   */\n      iszero\n      tag_216\n      jumpi\n        /* \"#utility.yul\":4967:5046   */\n      tag_217\n      tag_138\n      jump\t// in\n    tag_217:\n        /* \"#utility.yul\":4929:5048   */\n    tag_216:\n        /* \"#utility.yul\":5087:5088   */\n      0x00\n        /* \"#utility.yul\":5112:5165   */\n      tag_218\n        /* \"#utility.yul\":5157:5164   */\n      dup5\n        /* \"#utility.yul\":5148:5154   */\n      dup3\n        /* \"#utility.yul\":5137:5146   */\n      dup6\n        /* \"#utility.yul\":5133:5155   */\n      add\n        /* \"#utility.yul\":5112:5165   */\n      tag_143\n      jump\t// in\n    tag_218:\n        /* \"#utility.yul\":5102:5165   */\n      swap2\n      pop\n        /* \"#utility.yul\":5058:5175   */\n      pop\n        /* \"#utility.yul\":4853:5182   */\n      swap3\n      swap2\n      pop\n      pop\n      jump\t// out\n        /* \"#utility.yul\":5188:5306   */\n    tag_150:\n        /* \"#utility.yul\":5275:5299   */\n      tag_220\n        /* \"#utility.yul\":5293:5298   */\n      dup2\n        /* \"#utility.yul\":5275:5299   */\n      tag_141\n      jump\t// in\n    tag_220:\n        /* \"#utility.yul\":5270:5273   */\n      dup3\n        /* \"#utility.yul\":5263:5300   */\n      mstore\n        /* \"#utility.yul\":5188:5306   */\n      pop\n      pop\n      jump\t// out\n        /* \"#utility.yul\":5312:5534   */\n    tag_61:\n        /* \"#utility.yul\":5405:5409   */\n      0x00\n        /* \"#utility.yul\":5443:5445   */\n      0x20\n        /* \"#utility.yul\":5432:5441   */\n      dup3\n        /* \"#utility.yul\":5428:5446   */\n      add\n        /* \"#utility.yul\":5420:5446   */\n      swap1\n      pop\n        /* \"#utility.yul\":5456:5527   */\n      tag_222\n        /* \"#utility.yul\":5524:5525   */\n      0x00\n        /* \"#utility.yul\":5513:5522   */\n      dup4\n        /* \"#utility.yul\":5509:5526   */\n      add\n        /* \"#utility.yul\":5500:5506   */\n      dup5\n        /* \"#utility.yul\":5456:5527   */\n      tag_150\n      jump\t// in\n    tag_222:\n        /* \"#utility.yul\":5312:5534   */\n      swap3\n      swap2\n      pop\n      pop\n      jump\t// out\n        /* \"#utility.yul\":5540:6014   */\n    tag_74:\n        /* \"#utility.yul\":5608:5614   */\n      0x00\n        /* \"#utility.yul\":5616:5622   */\n      dup1\n        /* \"#utility.yul\":5665:5667   */\n      0x40\n        /* \"#utility.yul\":5653:5662   */\n      dup4\n        /* \"#utility.yul\":5644:5651   */\n      dup6\n        /* \"#utility.yul\":5640:5663   */\n      sub\n        /* \"#utility.yul\":5636:5668   */\n      slt\n        /* \"#utility.yul\":5633:5752   */\n      iszero\n      tag_224\n      jumpi\n        /* \"#utility.yul\":5671:5750   */\n      tag_225\n      tag_138\n      jump\t// in\n    tag_225:\n        /* \"#utility.yul\":5633:5752   */\n    tag_224:\n        /* \"#utility.yul\":5791:5792   */\n      0x00\n        /* \"#utility.yul\":5816:5869   */\n      tag_226\n        /* \"#utility.yul\":5861:5868   */\n      dup6\n        /* \"#utility.yul\":5852:5858   */\n      dup3\n        /* \"#utility.yul\":5841:5850   */\n      dup7\n        /* \"#utility.yul\":5837:5859   */\n      add\n        /* \"#utility.yul\":5816:5869   */\n      tag_143\n      jump\t// in\n    tag_226:\n        /* \"#utility.yul\":5806:5869   */\n      swap3\n      pop\n        /* \"#utility.yul\":5762:5879   */\n      pop\n        /* \"#utility.yul\":5918:5920   */\n      0x20\n        /* \"#utility.yul\":5944:5997   */\n      tag_227\n        /* \"#utility.yul\":5989:5996   */\n      dup6\n        /* \"#utility.yul\":5980:5986   */\n      dup3\n        /* \"#utility.yul\":5969:5978   */\n      dup7\n        /* \"#utility.yul\":5965:5987   */\n      add\n        /* \"#utility.yul\":5944:5997   */\n      tag_143\n      jump\t// in\n    tag_227:\n        /* \"#utility.yul\":5934:5997   */\n      swap2\n      pop\n        /* \"#utility.yul\":5889:6007   */\n      pop\n        /* \"#utility.yul\":5540:6014   */\n      swap3\n      pop\n      swap3\n      swap1\n      pop\n      jump\t// out\n        /* \"#utility.yul\":6020:6202   */\n    tag_151:\n        /* \"#utility.yul\":6160:6194   */\n      0x46726f6d20646f65736e2774206861766520656e6f7567682062616c616e6365\n        /* \"#utility.yul\":6156:6157   */\n      0x00\n        /* \"#utility.yul\":6148:6154   */\n      dup3\n        /* \"#utility.yul\":6144:6158   */\n      add\n        /* \"#utility.yul\":6137:6195   */\n      mstore\n        /* \"#utility.yul\":6020:6202   */\n      pop\n      jump\t// out\n        /* \"#utility.yul\":6208:6574   */\n    tag_152:\n        /* \"#utility.yul\":6350:6353   */\n      0x00\n        /* \"#utility.yul\":6371:6438   */\n      tag_230\n        /* \"#utility.yul\":6435:6437   */\n      0x20\n        /* \"#utility.yul\":6430:6433   */\n      dup4\n        /* \"#utility.yul\":6371:6438   */\n      tag_133\n      jump\t// in\n    tag_230:\n        /* \"#utility.yul\":6364:6438   */\n      swap2\n      pop\n        /* \"#utility.yul\":6447:6540   */\n      tag_231\n        /* \"#utility.yul\":6536:6539   */\n      dup3\n        /* \"#utility.yul\":6447:6540   */\n      tag_151\n      jump\t// in\n    tag_231:\n        /* \"#utility.yul\":6565:6567   */\n      0x20\n        /* \"#utility.yul\":6560:6563   */\n      dup3\n        /* \"#utility.yul\":6556:6568   */\n      add\n        /* \"#utility.yul\":6549:6568   */\n      swap1\n      pop\n        /* \"#utility.yul\":6208:6574   */\n      swap2\n      swap1\n      pop\n      jump\t// out\n        /* \"#utility.yul\":6580:6999   */\n    tag_84:\n        /* \"#utility.yul\":6746:6750   */\n      0x00\n        /* \"#utility.yul\":6784:6786   */\n      0x20\n        /* \"#utility.yul\":6773:6782   */\n      dup3\n        /* \"#utility.yul\":6769:6787   */\n      add\n        /* \"#utility.yul\":6761:6787   */\n      swap1\n      pop\n        /* \"#utility.yul\":6833:6842   */\n      dup2\n        /* \"#utility.yul\":6827:6831   */\n      dup2\n        /* \"#utility.yul\":6823:6843   */\n      sub\n        /* \"#utility.yul\":6819:6820   */\n      0x00\n        /* \"#utility.yul\":6808:6817   */\n      dup4\n        /* \"#utility.yul\":6804:6821   */\n      add\n        /* \"#utility.yul\":6797:6844   */\n      mstore\n        /* \"#utility.yul\":6861:6992   */\n      tag_233\n        /* \"#utility.yul\":6987:6991   */\n      dup2\n        /* \"#utility.yul\":6861:6992   */\n      tag_152\n      jump\t// in\n    tag_233:\n        /* \"#utility.yul\":6853:6992   */\n      swap1\n      pop\n        /* \"#utility.yul\":6580:6999   */\n      swap2\n      swap1\n      pop\n      jump\t// out\n        /* \"#utility.yul\":7005:7185   */\n    tag_153:\n        /* \"#utility.yul\":7145:7177   */\n      0x4e6f7420616c6c6f77656420746f207370656e642074686973206d7563680000\n        /* \"#utility.yul\":7141:7142   */\n      0x00\n        /* \"#utility.yul\":7133:7139   */\n      dup3\n        /* \"#utility.yul\":7129:7143   */\n      add\n        /* \"#utility.yul\":7122:7178   */\n      mstore\n        /* \"#utility.yul\":7005:7185   */\n      pop\n      jump\t// out\n        /* \"#utility.yul\":7191:7557   */\n    tag_154:\n        /* \"#utility.yul\":7333:7336   */\n      0x00\n        /* \"#utility.yul\":7354:7421   */\n      tag_236\n        /* \"#utility.yul\":7418:7420   */\n      0x1e\n        /* \"#utility.yul\":7413:7416   */\n      dup4\n        /* \"#utility.yul\":7354:7421   */\n      tag_133\n      jump\t// in\n    tag_236:\n        /* \"#utility.yul\":7347:7421   */\n      swap2\n      pop\n        /* \"#utility.yul\":7430:7523   */\n      tag_237\n        /* \"#utility.yul\":7519:7522   */\n      dup3\n        /* \"#utility.yul\":7430:7523   */\n      tag_153\n      jump\t// in\n    tag_237:\n        /* \"#utility.yul\":7548:7550   */\n      0x20\n        /* \"#utility.yul\":7543:7546   */\n      dup3\n        /* \"#utility.yul\":7539:7551   */\n      add\n        /* \"#utility.yul\":7532:7551   */\n      swap1\n      pop\n        /* \"#utility.yul\":7191:7557   */\n      swap2\n      swap1\n      pop\n      jump\t// out\n        /* \"#utility.yul\":7563:7982   */\n    tag_87:\n        /* \"#utility.yul\":7729:7733   */\n      0x00\n        /* \"#utility.yul\":7767:7769   */\n      0x20\n        /* \"#utility.yul\":7756:7765   */\n      dup3\n        /* \"#utility.yul\":7752:7770   */\n      add\n        /* \"#utility.yul\":7744:7770   */\n      swap1\n      pop\n        /* \"#utility.yul\":7816:7825   */\n      dup2\n        /* \"#utility.yul\":7810:7814   */\n      dup2\n        /* \"#utility.yul\":7806:7826   */\n      sub\n        /* \"#utility.yul\":7802:7803   */\n      0x00\n        /* \"#utility.yul\":7791:7800   */\n      dup4\n        /* \"#utility.yul\":7787:7804   */\n      add\n        /* \"#utility.yul\":7780:7827   */\n      mstore\n        /* \"#utility.yul\":7844:7975   */\n      tag_239\n        /* \"#utility.yul\":7970:7974   */\n      dup2\n        /* \"#utility.yul\":7844:7975   */\n      tag_154\n      jump\t// in\n    tag_239:\n        /* \"#utility.yul\":7836:7975   */\n      swap1\n      pop\n        /* \"#utility.yul\":7563:7982   */\n      swap2\n      swap1\n      pop\n      jump\t// out\n        /* \"#utility.yul\":7988:8213   */\n    tag_155:\n        /* \"#utility.yul\":8128:8162   */\n      0x6d73672e73656e64657220646f65736e2774206861766520656e6f7567682062\n        /* \"#utility.yul\":8124:8125   */\n      0x00\n        /* \"#utility.yul\":8116:8122   */\n      dup3\n        /* \"#utility.yul\":8112:8126   */\n      add\n        /* \"#utility.yul\":8105:8163   */\n      mstore\n        /* \"#utility.yul\":8197:8205   */\n      0x616c616e63650000000000000000000000000000000000000000000000000000\n        /* \"#utility.yul\":8192:8194   */\n      0x20\n        /* \"#utility.yul\":8184:8190   */\n      dup3\n        /* \"#utility.yul\":8180:8195   */\n      add\n        /* \"#utility.yul\":8173:8206   */\n      mstore\n        /* \"#utility.yul\":7988:8213   */\n      pop\n      jump\t// out\n        /* \"#utility.yul\":8219:8585   */\n    tag_156:\n        /* \"#utility.yul\":8361:8364   */\n      0x00\n        /* \"#utility.yul\":8382:8449   */\n      tag_242\n        /* \"#utility.yul\":8446:8448   */\n      0x26\n        /* \"#utility.yul\":8441:8444   */\n      dup4\n        /* \"#utility.yul\":8382:8449   */\n      tag_133\n      jump\t// in\n    tag_242:\n        /* \"#utility.yul\":8375:8449   */\n      swap2\n      pop\n        /* \"#utility.yul\":8458:8551   */\n      tag_243\n        /* \"#utility.yul\":8547:8550   */\n      dup3\n        /* \"#utility.yul\":8458:8551   */\n      tag_155\n      jump\t// in\n    tag_243:\n        /* \"#utility.yul\":8576:8578   */\n      0x40\n        /* \"#utility.yul\":8571:8574   */\n      dup3\n        /* \"#utility.yul\":8567:8579   */\n      add\n        /* \"#utility.yul\":8560:8579   */\n      swap1\n      pop\n        /* \"#utility.yul\":8219:8585   */\n      swap2\n      swap1\n      pop\n      jump\t// out\n        /* \"#utility.yul\":8591:9010   */\n    tag_114:\n        /* \"#utility.yul\":8757:8761   */\n      0x00\n        /* \"#utility.yul\":8795:8797   */\n      0x20\n        /* \"#utility.yul\":8784:8793   */\n      dup3\n        /* \"#utility.yul\":8780:8798   */\n      add\n        /* \"#utility.yul\":8772:8798   */\n      swap1\n      pop\n        /* \"#utility.yul\":8844:8853   */\n      dup2\n        /* \"#utility.yul\":8838:8842   */\n      dup2\n        /* \"#utility.yul\":8834:8854   */\n      sub\n        /* \"#utility.yul\":8830:8831   */\n      0x00\n        /* \"#utility.yul\":8819:8828   */\n      dup4\n        /* \"#utility.yul\":8815:8832   */\n      add\n        /* \"#utility.yul\":8808:8855   */\n      mstore\n        /* \"#utility.yul\":8872:9003   */\n      tag_245\n        /* \"#utility.yul\":8998:9002   */\n      dup2\n        /* \"#utility.yul\":8872:9003   */\n      tag_156\n      jump\t// in\n    tag_245:\n        /* \"#utility.yul\":8864:9003   */\n      swap1\n      pop\n        /* \"#utility.yul\":8591:9010   */\n      swap2\n      swap1\n      pop\n      jump\t// out\n        /* \"#utility.yul\":9016:9196   */\n    tag_122:\n        /* \"#utility.yul\":9064:9141   */\n      0x4e487b7100000000000000000000000000000000000000000000000000000000\n        /* \"#utility.yul\":9061:9062   */\n      0x00\n        /* \"#utility.yul\":9054:9142   */\n      mstore\n        /* \"#utility.yul\":9161:9165   */\n      0x01\n        /* \"#utility.yul\":9158:9159   */\n      0x04\n        /* \"#utility.yul\":9151:9166   */\n      mstore\n        /* \"#utility.yul\":9185:9189   */\n      0x24\n        /* \"#utility.yul\":9182:9183   */\n      0x00\n        /* \"#utility.yul\":9175:9190   */\n      revert\n        /* \"#utility.yul\":9202:9382   */\n    tag_157:\n        /* \"#utility.yul\":9250:9327   */\n      0x4e487b7100000000000000000000000000000000000000000000000000000000\n        /* \"#utility.yul\":9247:9248   */\n      0x00\n        /* \"#utility.yul\":9240:9328   */\n      mstore\n        /* \"#utility.yul\":9347:9351   */\n      0x11\n        /* \"#utility.yul\":9344:9345   */\n      0x04\n        /* \"#utility.yul\":9337:9352   */\n      mstore\n        /* \"#utility.yul\":9371:9375   */\n      0x24\n        /* \"#utility.yul\":9368:9369   */\n      0x00\n        /* \"#utility.yul\":9361:9376   */\n      revert\n        /* \"#utility.yul\":9388:9582   */\n    tag_124:\n        /* \"#utility.yul\":9428:9432   */\n      0x00\n        /* \"#utility.yul\":9448:9468   */\n      tag_249\n        /* \"#utility.yul\":9466:9467   */\n      dup3\n        /* \"#utility.yul\":9448:9468   */\n      tag_144\n      jump\t// in\n    tag_249:\n        /* \"#utility.yul\":9443:9468   */\n      swap2\n      pop\n        /* \"#utility.yul\":9482:9502   */\n      tag_250\n        /* \"#utility.yul\":9500:9501   */\n      dup4\n        /* \"#utility.yul\":9482:9502   */\n      tag_144\n      jump\t// in\n    tag_250:\n        /* \"#utility.yul\":9477:9502   */\n      swap3\n      pop\n        /* \"#utility.yul\":9526:9527   */\n      dup3\n        /* \"#utility.yul\":9523:9524   */\n      dup3\n        /* \"#utility.yul\":9519:9528   */\n      sub\n        /* \"#utility.yul\":9511:9528   */\n      swap1\n      pop\n        /* \"#utility.yul\":9550:9551   */\n      dup2\n        /* \"#utility.yul\":9544:9548   */\n      dup2\n        /* \"#utility.yul\":9541:9552   */\n      gt\n        /* \"#utility.yul\":9538:9575   */\n      iszero\n      tag_251\n      jumpi\n        /* \"#utility.yul\":9555:9573   */\n      tag_252\n      tag_157\n      jump\t// in\n    tag_252:\n        /* \"#utility.yul\":9538:9575   */\n    tag_251:\n        /* \"#utility.yul\":9388:9582   */\n      swap3\n      swap2\n      pop\n      pop\n      jump\t// out\n        /* \"#utility.yul\":9588:9779   */\n    tag_127:\n        /* \"#utility.yul\":9628:9631   */\n      0x00\n        /* \"#utility.yul\":9647:9667   */\n      tag_254\n        /* \"#utility.yul\":9665:9666   */\n      dup3\n        /* \"#utility.yul\":9647:9667   */\n      tag_144\n      jump\t// in\n    tag_254:\n        /* \"#utility.yul\":9642:9667   */\n      swap2\n      pop\n        /* \"#utility.yul\":9681:9701   */\n      tag_255\n        /* \"#utility.yul\":9699:9700   */\n      dup4\n        /* \"#utility.yul\":9681:9701   */\n      tag_144\n      jump\t// in\n    tag_255:\n        /* \"#utility.yul\":9676:9701   */\n      swap3\n      pop\n        /* \"#utility.yul\":9724:9725   */\n      dup3\n        /* \"#utility.yul\":9721:9722   */\n      dup3\n        /* \"#utility.yul\":9717:9726   */\n      add\n        /* \"#utility.yul\":9710:9726   */\n      swap1\n      pop\n        /* \"#utility.yul\":9745:9748   */\n      dup1\n        /* \"#utility.yul\":9742:9743   */\n      dup3\n        /* \"#utility.yul\":9739:9749   */\n      gt\n        /* \"#utility.yul\":9736:9772   */\n      iszero\n      tag_256\n      jumpi\n        /* \"#utility.yul\":9752:9770   */\n      tag_257\n      tag_157\n      jump\t// in\n    tag_257:\n        /* \"#utility.yul\":9736:9772   */\n    tag_256:\n        /* \"#utility.yul\":9588:9779   */\n      swap3\n      swap2\n      pop\n      pop\n      jump\t// out\n\n    auxdata: 0xa2646970667358221220ac60f94d99e2158687dac696a2864172ee522eb6b26ed0acbba3e07b9144340564736f6c63430008130033\n}\n",
				"bytecode": {
					"linkReferences": {},
					"object": "608060405260008060006101000a81548160ff02191690831515021790555033600060016101000a81548173ffffffffffffffffffffffffffffffffffffffff021916908373ffffffffffffffffffffffffffffffffffffffff16021790555034801561006b57600080fd5b5061147c8061007b6000396000f3fe608060405234801561001057600080fd5b50600436106100ea5760003560e01c806370a082311161008c5780638da5cb5b116100665780638da5cb5b1461026357806395d89b4114610281578063a9059cbb1461029f578063dd62ed3e146102cf576100ea565b806370a08231146101f75780637d64bcb414610227578063893d20e814610245576100ea565b806318160ddd116100c857806318160ddd1461015b57806323b872dd14610179578063313ce567146101a957806340c10f19146101c7576100ea565b806305d2035b146100ef57806306fdde031461010d578063095ea7b31461012b575b600080fd5b6100f76102ff565b6040516101049190610f25565b60405180910390f35b610115610310565b6040516101229190610fd0565b60405180910390f35b6101456004803603810190610140919061108b565b610349565b6040516101529190610f25565b60405180910390f35b61016361043b565b60405161017091906110da565b60405180910390f35b610193600480360381019061018e91906110f5565b610445565b6040516101a09190610f25565b60405180910390f35b6101b1610869565b6040516101be9190611164565b60405180910390f35b6101e160048036038101906101dc919061108b565b61086e565b6040516101ee9190610f25565b60405180910390f35b610211600480360381019061020c919061117f565b610a4f565b60405161021e91906110da565b60405180910390f35b61022f610a98565b60405161023c9190610f25565b60405180910390f35b61024d610b58565b60405161025a91906111bb565b60405180910390f35b61026b610b81565b60405161027891906111bb565b60405180910390f35b610289610ba7565b6040516102969190610fd0565b60405180910390f35b6102b960048036038101906102b4919061108b565b610be0565b6040516102c69190610f25565b60405180910390f35b6102e960048036038101906102e491906111d6565b610e35565b6040516102f691906110da565b60405180910390f35b60008054906101000a900460ff1681565b6040518060400160405280600981526020017f44696365546f6b656e000000000000000000000000000000000000000000000081525081565b600081600160003373ffffffffffffffffffffffffffffffffffffffff1673ffffffffffffffffffffffffffffffffffffffff16815260200190815260200160002060008573ffffffffffffffffffffffffffffffffffffffff1673ffffffffffffffffffffffffffffffffffffffff168152602001908152602001600020819055508273ffffffffffffffffffffffffffffffffffffffff163373ffffffffffffffffffffffffffffffffffffffff167f8c5be1e5ebec7d5bd14f71427d1e84f3dd0314c0f7b2291e5b200ac8c7c3b9258460405161042991906110da565b60405180910390a36001905092915050565b6000600354905090565b60008073ffffffffffffffffffffffffffffffffffffffff168373ffffffffffffffffffffffffffffffffffffffff160361047f57600080fd5b600260008573ffffffffffffffffffffffffffffffffffffffff1673ffffffffffffffffffffffffffffffffffffffff16815260200190815260200160002054821115610501576040517f08c379a00000000000000000000000000000000000000000000000000000000081526004016104f890611262565b60405180910390fd5b600160008573ffffffffffffffffffffffffffffffffffffffff1673ffffffffffffffffffffffffffffffffffffffff16815260200190815260200160002060003273ffffffffffffffffffffffffffffffffffffffff1673ffffffffffffffffffffffffffffffffffffffff168152602001908152602001600020548211156105c0576040517f08c379a00000000000000000000000000000000000000000000000000000000081526004016105b7906112ce565b60405180910390fd5b61061282600260008773ffffffffffffffffffffffffffffffffffffffff1673ffffffffffffffffffffffffffffffffffffffff16815260200190815260200160002054610ebc90919063ffffffff16565b600260008673ffffffffffffffffffffffffffffffffffffffff1673ffffffffffffffffffffffffffffffffffffffff168152602001908152602001600020819055506106a782600260008673ffffffffffffffffffffffffffffffffffffffff1673ffffffffffffffffffffffffffffffffffffffff16815260200190815260200160002054610ee390919063ffffffff16565b600260008573ffffffffffffffffffffffffffffffffffffffff1673ffffffffffffffffffffffffffffffffffffffff1681526020019081526020016000208190555061077982600160008773ffffffffffffffffffffffffffffffffffffffff1673ffffffffffffffffffffffffffffffffffffffff16815260200190815260200160002060003273ffffffffffffffffffffffffffffffffffffffff1673ffffffffffffffffffffffffffffffffffffffff16815260200190815260200160002054610ebc90919063ffffffff16565b600160008673ffffffffffffffffffffffffffffffffffffffff1673ffffffffffffffffffffffffffffffffffffffff16815260200190815260200160002060003273ffffffffffffffffffffffffffffffffffffffff1673ffffffffffffffffffffffffffffffffffffffff168152602001908152602001600020819055508273ffffffffffffffffffffffffffffffffffffffff168473ffffffffffffffffffffffffffffffffffffffff167fddf252ad1be2c89b69c2b068fc378daa952ba7f163c4a11628f55a4df523b3ef8460405161085691906110da565b60405180910390a3600190509392505050565b601281565b60008060019054906101000a900473ffffffffffffffffffffffffffffffffffffffff1673ffffffffffffffffffffffffffffffffffffffff163373ffffffffffffffffffffffffffffffffffffffff16146108c957600080fd5b60008054906101000a900460ff16156108e157600080fd5b6108f682600354610ee390919063ffffffff16565b60038190555061094e82600260008673ffffffffffffffffffffffffffffffffffffffff1673ffffffffffffffffffffffffffffffffffffffff16815260200190815260200160002054610ee390919063ffffffff16565b600260008573ffffffffffffffffffffffffffffffffffffffff1673ffffffffffffffffffffffffffffffffffffffff168152602001908152602001600020819055508273ffffffffffffffffffffffffffffffffffffffff167f0f6798a560793a54c3bcfe86a93cde1e73087d944c0ea20544137d4121396885836040516109d791906110da565b60405180910390a28273ffffffffffffffffffffffffffffffffffffffff16600073ffffffffffffffffffffffffffffffffffffffff167fddf252ad1be2c89b69c2b068fc378daa952ba7f163c4a11628f55a4df523b3ef84604051610a3d91906110da565b60405180910390a36001905092915050565b6000600260008373ffffffffffffffffffffffffffffffffffffffff1673ffffffffffffffffffffffffffffffffffffffff168152602001908152602001600020549050919050565b60008060019054906101000a900473ffffffffffffffffffffffffffffffffffffffff1673ffffffffffffffffffffffffffffffffffffffff163373ffffffffffffffffffffffffffffffffffffffff1614610af357600080fd5b60008054906101000a900460ff1615610b0b57600080fd5b60016000806101000a81548160ff0219169083151502179055507fae5184fba832cb2b1f702aca6117b8d265eaf03ad33eb133f19dde0f5920fa0860405160405180910390a16001905090565b60008060019054906101000a900473ffffffffffffffffffffffffffffffffffffffff16905090565b600060019054906101000a900473ffffffffffffffffffffffffffffffffffffffff1681565b6040518060400160405280600281526020017f445400000000000000000000000000000000000000000000000000000000000081525081565b60008073ffffffffffffffffffffffffffffffffffffffff168373ffffffffffffffffffffffffffffffffffffffff1603610c1a57600080fd5b600260003273ffffffffffffffffffffffffffffffffffffffff1673ffffffffffffffffffffffffffffffffffffffff16815260200190815260200160002054821115610c9c576040517f08c379a0000000000000000000000000000000000000000000000000000000008152600401610c9390611360565b60405180910390fd5b610cee82600260003273ffffffffffffffffffffffffffffffffffffffff1673ffffffffffffffffffffffffffffffffffffffff16815260200190815260200160002054610ebc90919063ffffffff16565b600260003273ffffffffffffffffffffffffffffffffffffffff1673ffffffffffffffffffffffffffffffffffffffff16815260200190815260200160002081905550610d8382600260008673ffffffffffffffffffffffffffffffffffffffff1673ffffffffffffffffffffffffffffffffffffffff16815260200190815260200160002054610ee390919063ffffffff16565b600260008573ffffffffffffffffffffffffffffffffffffffff1673ffffffffffffffffffffffffffffffffffffffff168152602001908152602001600020819055508273ffffffffffffffffffffffffffffffffffffffff163273ffffffffffffffffffffffffffffffffffffffff167fddf252ad1be2c89b69c2b068fc378daa952ba7f163c4a11628f55a4df523b3ef84604051610e2391906110da565b60405180910390a36001905092915050565b6000600160008473ffffffffffffffffffffffffffffffffffffffff1673ffffffffffffffffffffffffffffffffffffffff16815260200190815260200160002060008373ffffffffffffffffffffffffffffffffffffffff1673ffffffffffffffffffffffffffffffffffffffff16815260200190815260200160002054905092915050565b600082821115610ecf57610ece611380565b5b8183610edb91906113de565b905092915050565b60008183610ef19190611412565b905082811015610f0457610f03611380565b5b92915050565b60008115159050919050565b610f1f81610f0a565b82525050565b6000602082019050610f3a6000830184610f16565b92915050565b600081519050919050565b600082825260208201905092915050565b60005b83811015610f7a578082015181840152602081019050610f5f565b60008484015250505050565b6000601f19601f8301169050919050565b6000610fa282610f40565b610fac8185610f4b565b9350610fbc818560208601610f5c565b610fc581610f86565b840191505092915050565b60006020820190508181036000830152610fea8184610f97565b905092915050565b600080fd5b600073ffffffffffffffffffffffffffffffffffffffff82169050919050565b600061102282610ff7565b9050919050565b61103281611017565b811461103d57600080fd5b50565b60008135905061104f81611029565b92915050565b6000819050919050565b61106881611055565b811461107357600080fd5b50565b6000813590506110858161105f565b92915050565b600080604083850312156110a2576110a1610ff2565b5b60006110b085828601611040565b92505060206110c185828601611076565b9150509250929050565b6110d481611055565b82525050565b60006020820190506110ef60008301846110cb565b92915050565b60008060006060848603121561110e5761110d610ff2565b5b600061111c86828701611040565b935050602061112d86828701611040565b925050604061113e86828701611076565b9150509250925092565b600060ff82169050919050565b61115e81611148565b82525050565b60006020820190506111796000830184611155565b92915050565b60006020828403121561119557611194610ff2565b5b60006111a384828501611040565b91505092915050565b6111b581611017565b82525050565b60006020820190506111d060008301846111ac565b92915050565b600080604083850312156111ed576111ec610ff2565b5b60006111fb85828601611040565b925050602061120c85828601611040565b9150509250929050565b7f46726f6d20646f65736e2774206861766520656e6f7567682062616c616e6365600082015250565b600061124c602083610f4b565b915061125782611216565b602082019050919050565b6000602082019050818103600083015261127b8161123f565b9050919050565b7f4e6f7420616c6c6f77656420746f207370656e642074686973206d7563680000600082015250565b60006112b8601e83610f4b565b91506112c382611282565b602082019050919050565b600060208201905081810360008301526112e7816112ab565b9050919050565b7f6d73672e73656e64657220646f65736e2774206861766520656e6f756768206260008201527f616c616e63650000000000000000000000000000000000000000000000000000602082015250565b600061134a602683610f4b565b9150611355826112ee565b604082019050919050565b600060208201905081810360008301526113798161133d565b9050919050565b7f4e487b7100000000000000000000000000000000000000000000000000000000600052600160045260246000fd5b7f4e487b7100000000000000000000000000000000000000000000000000000000600052601160045260246000fd5b60006113e982611055565b91506113f483611055565b925082820390508181111561140c5761140b6113af565b5b92915050565b600061141d82611055565b915061142883611055565b92508282019050808211156114405761143f6113af565b5b9291505056fea2646970667358221220ac60f94d99e2158687dac696a2864172ee522eb6b26ed0acbba3e07b9144340564736f6c63430008130033",
					"opcodes": "PUSH1 0x80 PUSH1 0x40 MSTORE PUSH1 0x0 DUP1 PUSH1 0x0 PUSH2 0x100 EXP DUP2 SLOAD DUP2 PUSH1 0xFF MUL NOT AND SWAP1 DUP4 ISZERO ISZERO MUL OR SWAP1 SSTORE POP CALLER PUSH1 0x0 PUSH1 0x1 PUSH2 0x100 EXP DUP2 SLOAD DUP2 PUSH20 0xFFFFFFFFFFFFFFFFFFFFFFFFFFFFFFFFFFFFFFFF MUL NOT AND SWAP1 DUP4 PUSH20 0xFFFFFFFFFFFFFFFFFFFFFFFFFFFFFFFFFFFFFFFF AND MUL OR SWAP1 SSTORE POP CALLVALUE DUP1 ISZERO PUSH2 0x6B JUMPI PUSH1 0x0 DUP1 REVERT JUMPDEST POP PUSH2 0x147C DUP1 PUSH2 0x7B PUSH1 0x0 CODECOPY PUSH1 0x0 RETURN INVALID PUSH1 0x80 PUSH1 0x40 MSTORE CALLVALUE DUP1 ISZERO PUSH2 0x10 JUMPI PUSH1 0x0 DUP1 REVERT JUMPDEST POP PUSH1 0x4 CALLDATASIZE LT PUSH2 0xEA JUMPI PUSH1 0x0 CALLDATALOAD PUSH1 0xE0 SHR DUP1 PUSH4 0x70A08231 GT PUSH2 0x8C JUMPI DUP1 PUSH4 0x8DA5CB5B GT PUSH2 0x66 JUMPI DUP1 PUSH4 0x8DA5CB5B EQ PUSH2 0x263 JUMPI DUP1 PUSH4 0x95D89B41 EQ PUSH2 0x281 JUMPI DUP1 PUSH4 0xA9059CBB EQ PUSH2 0x29F JUMPI DUP1 PUSH4 0xDD62ED3E EQ PUSH2 0x2CF JUMPI PUSH2 0xEA JUMP JUMPDEST DUP1 PUSH4 0x70A08231 EQ PUSH2 0x1F7 JUMPI DUP1 PUSH4 0x7D64BCB4 EQ PUSH2 0x227 JUMPI DUP1 PUSH4 0x893D20E8 EQ PUSH2 0x245 JUMPI PUSH2 0xEA JUMP JUMPDEST DUP1 PUSH4 0x18160DDD GT PUSH2 0xC8 JUMPI DUP1 PUSH4 0x18160DDD EQ PUSH2 0x15B JUMPI DUP1 PUSH4 0x23B872DD EQ PUSH2 0x179 JUMPI DUP1 PUSH4 0x313CE567 EQ PUSH2 0x1A9 JUMPI DUP1 PUSH4 0x40C10F19 EQ PUSH2 0x1C7 JUMPI PUSH2 0xEA JUMP JUMPDEST DUP1 PUSH4 0x5D2035B EQ PUSH2 0xEF JUMPI DUP1 PUSH4 0x6FDDE03 EQ PUSH2 0x10D JUMPI DUP1 PUSH4 0x95EA7B3 EQ PUSH2 0x12B JUMPI JUMPDEST PUSH1 0x0 DUP1 REVERT JUMPDEST PUSH2 0xF7 PUSH2 0x2FF JUMP JUMPDEST PUSH1 0x40 MLOAD PUSH2 0x104 SWAP2 SWAP1 PUSH2 0xF25 JUMP JUMPDEST PUSH1 0x40 MLOAD DUP1 SWAP2 SUB SWAP1 RETURN JUMPDEST PUSH2 0x115 PUSH2 0x310 JUMP JUMPDEST PUSH1 0x40 MLOAD PUSH2 0x122 SWAP2 SWAP1 PUSH2 0xFD0 JUMP JUMPDEST PUSH1 0x40 MLOAD DUP1 SWAP2 SUB SWAP1 RETURN JUMPDEST PUSH2 0x145 PUSH1 0x4 DUP1 CALLDATASIZE SUB DUP2 ADD SWAP1 PUSH2 0x140 SWAP2 SWAP1 PUSH2 0x108B JUMP JUMPDEST PUSH2 0x349 JUMP JUMPDEST PUSH1 0x40 MLOAD PUSH2 0x152 SWAP2 SWAP1 PUSH2 0xF25 JUMP JUMPDEST PUSH1 0x40 MLOAD DUP1 SWAP2 SUB SWAP1 RETURN JUMPDEST PUSH2 0x163 PUSH2 0x43B JUMP JUMPDEST PUSH1 0x40 MLOAD PUSH2 0x170 SWAP2 SWAP1 PUSH2 0x10DA JUMP JUMPDEST PUSH1 0x40 MLOAD DUP1 SWAP2 SUB SWAP1 RETURN JUMPDEST PUSH2 0x193 PUSH1 0x4 DUP1 CALLDATASIZE SUB DUP2 ADD SWAP1 PUSH2 0x18E SWAP2 SWAP1 PUSH2 0x10F5 JUMP JUMPDEST PUSH2 0x445 JUMP JUMPDEST PUSH1 0x40 MLOAD PUSH2 0x1A0 SWAP2 SWAP1 PUSH2 0xF25 JUMP JUMPDEST PUSH1 0x40 MLOAD DUP1 SWAP2 SUB SWAP1 RETURN JUMPDEST PUSH2 0x1B1 PUSH2 0x869 JUMP JUMPDEST PUSH1 0x40 MLOAD PUSH2 0x1BE SWAP2 SWAP1 PUSH2 0x1164 JUMP JUMPDEST PUSH1 0x40 MLOAD DUP1 SWAP2 SUB SWAP1 RETURN JUMPDEST PUSH2 0x1E1 PUSH1 0x4 DUP1 CALLDATASIZE SUB DUP2 ADD SWAP1 PUSH2 0x1DC SWAP2 SWAP1 PUSH2 0x108B JUMP JUMPDEST PUSH2 0x86E JUMP JUMPDEST PUSH1 0x40 MLOAD PUSH2 0x1EE SWAP2 SWAP1 PUSH2 0xF25 JUMP JUMPDEST PUSH1 0x40 MLOAD DUP1 SWAP2 SUB SWAP1 RETURN JUMPDEST PUSH2 0x211 PUSH1 0x4 DUP1 CALLDATASIZE SUB DUP2 ADD SWAP1 PUSH2 0x20C SWAP2 SWAP1 PUSH2 0x117F JUMP JUMPDEST PUSH2 0xA4F JUMP JUMPDEST PUSH1 0x40 MLOAD PUSH2 0x21E SWAP2 SWAP1 PUSH2 0x10DA JUMP JUMPDEST PUSH1 0x40 MLOAD DUP1 SWAP2 SUB SWAP1 RETURN JUMPDEST PUSH2 0x22F PUSH2 0xA98 JUMP JUMPDEST PUSH1 0x40 MLOAD PUSH2 0x23C SWAP2 SWAP1 PUSH2 0xF25 JUMP JUMPDEST PUSH1 0x40 MLOAD DUP1 SWAP2 SUB SWAP1 RETURN JUMPDEST PUSH2 0x24D PUSH2 0xB58 JUMP JUMPDEST PUSH1 0x40 MLOAD PUSH2 0x25A SWAP2 SWAP1 PUSH2 0x11BB JUMP JUMPDEST PUSH1 0x40 MLOAD DUP1 SWAP2 SUB SWAP1 RETURN JUMPDEST PUSH2 0x26B PUSH2 0xB81 JUMP JUMPDEST PUSH1 0x40 MLOAD PUSH2 0x278 SWAP2 SWAP1 PUSH2 0x11BB JUMP JUMPDEST PUSH1 0x40 MLOAD DUP1 SWAP2 SUB SWAP1 RETURN JUMPDEST PUSH2 0x289 PUSH2 0xBA7 JUMP JUMPDEST PUSH1 0x40 MLOAD PUSH2 0x296 SWAP2 SWAP1 PUSH2 0xFD0 JUMP JUMPDEST PUSH1 0x40 MLOAD DUP1 SWAP2 SUB SWAP1 RETURN JUMPDEST PUSH2 0x2B9 PUSH1 0x4 DUP1 CALLDATASIZE SUB DUP2 ADD SWAP1 PUSH2 0x2B4 SWAP2 SWAP1 PUSH2 0x108B JUMP JUMPDEST PUSH2 0xBE0 JUMP JUMPDEST PUSH1 0x40 MLOAD PUSH2 0x2C6 SWAP2 SWAP1 PUSH2 0xF25 JUMP JUMPDEST PUSH1 0x40 MLOAD DUP1 SWAP2 SUB SWAP1 RETURN JUMPDEST PUSH2 0x2E9 PUSH1 0x4 DUP1 CALLDATASIZE SUB DUP2 ADD SWAP1 PUSH2 0x2E4 SWAP2 SWAP1 PUSH2 0x11D6 JUMP JUMPDEST PUSH2 0xE35 JUMP JUMPDEST PUSH1 0x40 MLOAD PUSH2 0x2F6 SWAP2 SWAP1 PUSH2 0x10DA JUMP JUMPDEST PUSH1 0x40 MLOAD DUP1 SWAP2 SUB SWAP1 RETURN JUMPDEST PUSH1 0x0 DUP1 SLOAD SWAP1 PUSH2 0x100 EXP SWAP1 DIV PUSH1 0xFF AND DUP2 JUMP JUMPDEST PUSH1 0x40 MLOAD DUP1 PUSH1 0x40 ADD PUSH1 0x40 MSTORE DUP1 PUSH1 0x9 DUP2 MSTORE PUSH1 0x20 ADD PUSH32 0x44696365546F6B656E0000000000000000000000000000000000000000000000 DUP2 MSTORE POP DUP2 JUMP JUMPDEST PUSH1 0x0 DUP2 PUSH1 0x1 PUSH1 0x0 CALLER PUSH20 0xFFFFFFFFFFFFFFFFFFFFFFFFFFFFFFFFFFFFFFFF AND PUSH20 0xFFFFFFFFFFFFFFFFFFFFFFFFFFFFFFFFFFFFFFFF AND DUP2 MSTORE PUSH1 0x20 ADD SWAP1 DUP2 MSTORE PUSH1 0x20 ADD PUSH1 0x0 KECCAK256 PUSH1 0x0 DUP6 PUSH20 0xFFFFFFFFFFFFFFFFFFFFFFFFFFFFFFFFFFFFFFFF AND PUSH20 0xFFFFFFFFFFFFFFFFFFFFFFFFFFFFFFFFFFFFFFFF AND DUP2 MSTORE PUSH1 0x20 ADD SWAP1 DUP2 MSTORE PUSH1 0x20 ADD PUSH1 0x0 KECCAK256 DUP2 SWAP1 SSTORE POP DUP3 PUSH20 0xFFFFFFFFFFFFFFFFFFFFFFFFFFFFFFFFFFFFFFFF AND CALLER PUSH20 0xFFFFFFFFFFFFFFFFFFFFFFFFFFFFFFFFFFFFFFFF AND PUSH32 0x8C5BE1E5EBEC7D5BD14F71427D1E84F3DD0314C0F7B2291E5B200AC8C7C3B925 DUP5 PUSH1 0x40 MLOAD PUSH2 0x429 SWAP2 SWAP1 PUSH2 0x10DA JUMP JUMPDEST PUSH1 0x40 MLOAD DUP1 SWAP2 SUB SWAP1 LOG3 PUSH1 0x1 SWAP1 POP SWAP3 SWAP2 POP POP JUMP JUMPDEST PUSH1 0x0 PUSH1 0x3 SLOAD SWAP1 POP SWAP1 JUMP JUMPDEST PUSH1 0x0 DUP1 PUSH20 0xFFFFFFFFFFFFFFFFFFFFFFFFFFFFFFFFFFFFFFFF AND DUP4 PUSH20 0xFFFFFFFFFFFFFFFFFFFFFFFFFFFFFFFFFFFFFFFF AND SUB PUSH2 0x47F JUMPI PUSH1 0x0 DUP1 REVERT JUMPDEST PUSH1 0x2 PUSH1 0x0 DUP6 PUSH20 0xFFFFFFFFFFFFFFFFFFFFFFFFFFFFFFFFFFFFFFFF AND PUSH20 0xFFFFFFFFFFFFFFFFFFFFFFFFFFFFFFFFFFFFFFFF AND DUP2 MSTORE PUSH1 0x20 ADD SWAP1 DUP2 MSTORE PUSH1 0x20 ADD PUSH1 0x0 KECCAK256 SLOAD DUP3 GT ISZERO PUSH2 0x501 JUMPI PUSH1 0x40 MLOAD PUSH32 0x8C379A000000000000000000000000000000000000000000000000000000000 DUP2 MSTORE PUSH1 0x4 ADD PUSH2 0x4F8 SWAP1 PUSH2 0x1262 JUMP JUMPDEST PUSH1 0x40 MLOAD DUP1 SWAP2 SUB SWAP1 REVERT JUMPDEST PUSH1 0x1 PUSH1 0x0 DUP6 PUSH20 0xFFFFFFFFFFFFFFFFFFFFFFFFFFFFFFFFFFFFFFFF AND PUSH20 0xFFFFFFFFFFFFFFFFFFFFFFFFFFFFFFFFFFFFFFFF AND DUP2 MSTORE PUSH1 0x20 ADD SWAP1 DUP2 MSTORE PUSH1 0x20 ADD PUSH1 0x0 KECCAK256 PUSH1 0x0 ORIGIN PUSH20 0xFFFFFFFFFFFFFFFFFFFFFFFFFFFFFFFFFFFFFFFF AND PUSH20 0xFFFFFFFFFFFFFFFFFFFFFFFFFFFFFFFFFFFFFFFF AND DUP2 MSTORE PUSH1 0x20 ADD SWAP1 DUP2 MSTORE PUSH1 0x20 ADD PUSH1 0x0 KECCAK256 SLOAD DUP3 GT ISZERO PUSH2 0x5C0 JUMPI PUSH1 0x40 MLOAD PUSH32 0x8C379A000000000000000000000000000000000000000000000000000000000 DUP2 MSTORE PUSH1 0x4 ADD PUSH2 0x5B7 SWAP1 PUSH2 0x12CE JUMP JUMPDEST PUSH1 0x40 MLOAD DUP1 SWAP2 SUB SWAP1 REVERT JUMPDEST PUSH2 0x612 DUP3 PUSH1 0x2 PUSH1 0x0 DUP8 PUSH20 0xFFFFFFFFFFFFFFFFFFFFFFFFFFFFFFFFFFFFFFFF AND PUSH20 0xFFFFFFFFFFFFFFFFFFFFFFFFFFFFFFFFFFFFFFFF AND DUP2 MSTORE PUSH1 0x20 ADD SWAP1 DUP2 MSTORE PUSH1 0x20 ADD PUSH1 0x0 KECCAK256 SLOAD PUSH2 0xEBC SWAP1 SWAP2 SWAP1 PUSH4 0xFFFFFFFF AND JUMP JUMPDEST PUSH1 0x2 PUSH1 0x0 DUP7 PUSH20 0xFFFFFFFFFFFFFFFFFFFFFFFFFFFFFFFFFFFFFFFF AND PUSH20 0xFFFFFFFFFFFFFFFFFFFFFFFFFFFFFFFFFFFFFFFF AND DUP2 MSTORE PUSH1 0x20 ADD SWAP1 DUP2 MSTORE PUSH1 0x20 ADD PUSH1 0x0 KECCAK256 DUP2 SWAP1 SSTORE POP PUSH2 0x6A7 DUP3 PUSH1 0x2 PUSH1 0x0 DUP7 PUSH20 0xFFFFFFFFFFFFFFFFFFFFFFFFFFFFFFFFFFFFFFFF AND PUSH20 0xFFFFFFFFFFFFFFFFFFFFFFFFFFFFFFFFFFFFFFFF AND DUP2 MSTORE PUSH1 0x20 ADD SWAP1 DUP2 MSTORE PUSH1 0x20 ADD PUSH1 0x0 KECCAK256 SLOAD PUSH2 0xEE3 SWAP1 SWAP2 SWAP1 PUSH4 0xFFFFFFFF AND JUMP JUMPDEST PUSH1 0x2 PUSH1 0x0 DUP6 PUSH20 0xFFFFFFFFFFFFFFFFFFFFFFFFFFFFFFFFFFFFFFFF AND PUSH20 0xFFFFFFFFFFFFFFFFFFFFFFFFFFFFFFFFFFFFFFFF AND DUP2 MSTORE PUSH1 0x20 ADD SWAP1 DUP2 MSTORE PUSH1 0x20 ADD PUSH1 0x0 KECCAK256 DUP2 SWAP1 SSTORE POP PUSH2 0x779 DUP3 PUSH1 0x1 PUSH1 0x0 DUP8 PUSH20 0xFFFFFFFFFFFFFFFFFFFFFFFFFFFFFFFFFFFFFFFF AND PUSH20 0xFFFFFFFFFFFFFFFFFFFFFFFFFFFFFFFFFFFFFFFF AND DUP2 MSTORE PUSH1 0x20 ADD SWAP1 DUP2 MSTORE PUSH1 0x20 ADD PUSH1 0x0 KECCAK256 PUSH1 0x0 ORIGIN PUSH20 0xFFFFFFFFFFFFFFFFFFFFFFFFFFFFFFFFFFFFFFFF AND PUSH20 0xFFFFFFFFFFFFFFFFFFFFFFFFFFFFFFFFFFFFFFFF AND DUP2 MSTORE PUSH1 0x20 ADD SWAP1 DUP2 MSTORE PUSH1 0x20 ADD PUSH1 0x0 KECCAK256 SLOAD PUSH2 0xEBC SWAP1 SWAP2 SWAP1 PUSH4 0xFFFFFFFF AND JUMP JUMPDEST PUSH1 0x1 PUSH1 0x0 DUP7 PUSH20 0xFFFFFFFFFFFFFFFFFFFFFFFFFFFFFFFFFFFFFFFF AND PUSH20 0xFFFFFFFFFFFFFFFFFFFFFFFFFFFFFFFFFFFFFFFF AND DUP2 MSTORE PUSH1 0x20 ADD SWAP1 DUP2 MSTORE PUSH1 0x20 ADD PUSH1 0x0 KECCAK256 PUSH1 0x0 ORIGIN PUSH20 0xFFFFFFFFFFFFFFFFFFFFFFFFFFFFFFFFFFFFFFFF AND PUSH20 0xFFFFFFFFFFFFFFFFFFFFFFFFFFFFFFFFFFFFFFFF AND DUP2 MSTORE PUSH1 0x20 ADD SWAP1 DUP2 MSTORE PUSH1 0x20 ADD PUSH1 0x0 KECCAK256 DUP2 SWAP1 SSTORE POP DUP3 PUSH20 0xFFFFFFFFFFFFFFFFFFFFFFFFFFFFFFFFFFFFFFFF AND DUP5 PUSH20 0xFFFFFFFFFFFFFFFFFFFFFFFFFFFFFFFFFFFFFFFF AND PUSH32 0xDDF252AD1BE2C89B69C2B068FC378DAA952BA7F163C4A11628F55A4DF523B3EF DUP5 PUSH1 0x40 MLOAD PUSH2 0x856 SWAP2 SWAP1 PUSH2 0x10DA JUMP JUMPDEST PUSH1 0x40 MLOAD DUP1 SWAP2 SUB SWAP1 LOG3 PUSH1 0x1 SWAP1 POP SWAP4 SWAP3 POP POP POP JUMP JUMPDEST PUSH1 0x12 DUP2 JUMP JUMPDEST PUSH1 0x0 DUP1 PUSH1 0x1 SWAP1 SLOAD SWAP1 PUSH2 0x100 EXP SWAP1 DIV PUSH20 0xFFFFFFFFFFFFFFFFFFFFFFFFFFFFFFFFFFFFFFFF AND PUSH20 0xFFFFFFFFFFFFFFFFFFFFFFFFFFFFFFFFFFFFFFFF AND CALLER PUSH20 0xFFFFFFFFFFFFFFFFFFFFFFFFFFFFFFFFFFFFFFFF AND EQ PUSH2 0x8C9 JUMPI PUSH1 0x0 DUP1 REVERT JUMPDEST PUSH1 0x0 DUP1 SLOAD SWAP1 PUSH2 0x100 EXP SWAP1 DIV PUSH1 0xFF AND ISZERO PUSH2 0x8E1 JUMPI PUSH1 0x0 DUP1 REVERT JUMPDEST PUSH2 0x8F6 DUP3 PUSH1 0x3 SLOAD PUSH2 0xEE3 SWAP1 SWAP2 SWAP1 PUSH4 0xFFFFFFFF AND JUMP JUMPDEST PUSH1 0x3 DUP2 SWAP1 SSTORE POP PUSH2 0x94E DUP3 PUSH1 0x2 PUSH1 0x0 DUP7 PUSH20 0xFFFFFFFFFFFFFFFFFFFFFFFFFFFFFFFFFFFFFFFF AND PUSH20 0xFFFFFFFFFFFFFFFFFFFFFFFFFFFFFFFFFFFFFFFF AND DUP2 MSTORE PUSH1 0x20 ADD SWAP1 DUP2 MSTORE PUSH1 0x20 ADD PUSH1 0x0 KECCAK256 SLOAD PUSH2 0xEE3 SWAP1 SWAP2 SWAP1 PUSH4 0xFFFFFFFF AND JUMP JUMPDEST PUSH1 0x2 PUSH1 0x0 DUP6 PUSH20 0xFFFFFFFFFFFFFFFFFFFFFFFFFFFFFFFFFFFFFFFF AND PUSH20 0xFFFFFFFFFFFFFFFFFFFFFFFFFFFFFFFFFFFFFFFF AND DUP2 MSTORE PUSH1 0x20 ADD SWAP1 DUP2 MSTORE PUSH1 0x20 ADD PUSH1 0x0 KECCAK256 DUP2 SWAP1 SSTORE POP DUP3 PUSH20 0xFFFFFFFFFFFFFFFFFFFFFFFFFFFFFFFFFFFFFFFF AND PUSH32 0xF6798A560793A54C3BCFE86A93CDE1E73087D944C0EA20544137D4121396885 DUP4 PUSH1 0x40 MLOAD PUSH2 0x9D7 SWAP2 SWAP1 PUSH2 0x10DA JUMP JUMPDEST PUSH1 0x40 MLOAD DUP1 SWAP2 SUB SWAP1 LOG2 DUP3 PUSH20 0xFFFFFFFFFFFFFFFFFFFFFFFFFFFFFFFFFFFFFFFF AND PUSH1 0x0 PUSH20 0xFFFFFFFFFFFFFFFFFFFFFFFFFFFFFFFFFFFFFFFF AND PUSH32 0xDDF252AD1BE2C89B69C2B068FC378DAA952BA7F163C4A11628F55A4DF523B3EF DUP5 PUSH1 0x40 MLOAD PUSH2 0xA3D SWAP2 SWAP1 PUSH2 0x10DA JUMP JUMPDEST PUSH1 0x40 MLOAD DUP1 SWAP2 SUB SWAP1 LOG3 PUSH1 0x1 SWAP1 POP SWAP3 SWAP2 POP POP JUMP JUMPDEST PUSH1 0x0 PUSH1 0x2 PUSH1 0x0 DUP4 PUSH20 0xFFFFFFFFFFFFFFFFFFFFFFFFFFFFFFFFFFFFFFFF AND PUSH20 0xFFFFFFFFFFFFFFFFFFFFFFFFFFFFFFFFFFFFFFFF AND DUP2 MSTORE PUSH1 0x20 ADD SWAP1 DUP2 MSTORE PUSH1 0x20 ADD PUSH1 0x0 KECCAK256 SLOAD SWAP1 POP SWAP2 SWAP1 POP JUMP JUMPDEST PUSH1 0x0 DUP1 PUSH1 0x1 SWAP1 SLOAD SWAP1 PUSH2 0x100 EXP SWAP1 DIV PUSH20 0xFFFFFFFFFFFFFFFFFFFFFFFFFFFFFFFFFFFFFFFF AND PUSH20 0xFFFFFFFFFFFFFFFFFFFFFFFFFFFFFFFFFFFFFFFF AND CALLER PUSH20 0xFFFFFFFFFFFFFFFFFFFFFFFFFFFFFFFFFFFFFFFF AND EQ PUSH2 0xAF3 JUMPI PUSH1 0x0 DUP1 REVERT JUMPDEST PUSH1 0x0 DUP1 SLOAD SWAP1 PUSH2 0x100 EXP SWAP1 DIV PUSH1 0xFF AND ISZERO PUSH2 0xB0B JUMPI PUSH1 0x0 DUP1 REVERT JUMPDEST PUSH1 0x1 PUSH1 0x0 DUP1 PUSH2 0x100 EXP DUP2 SLOAD DUP2 PUSH1 0xFF MUL NOT AND SWAP1 DUP4 ISZERO ISZERO MUL OR SWAP1 SSTORE POP PUSH32 0xAE5184FBA832CB2B1F702ACA6117B8D265EAF03AD33EB133F19DDE0F5920FA08 PUSH1 0x40 MLOAD PUSH1 0x40 MLOAD DUP1 SWAP2 SUB SWAP1 LOG1 PUSH1 0x1 SWAP1 POP SWAP1 JUMP JUMPDEST PUSH1 0x0 DUP1 PUSH1 0x1 SWAP1 SLOAD SWAP1 PUSH2 0x100 EXP SWAP1 DIV PUSH20 0xFFFFFFFFFFFFFFFFFFFFFFFFFFFFFFFFFFFFFFFF AND SWAP1 POP SWAP1 JUMP JUMPDEST PUSH1 0x0 PUSH1 0x1 SWAP1 SLOAD SWAP1 PUSH2 0x100 EXP SWAP1 DIV PUSH20 0xFFFFFFFFFFFFFFFFFFFFFFFFFFFFFFFFFFFFFFFF AND DUP2 JUMP JUMPDEST PUSH1 0x40 MLOAD DUP1 PUSH1 0x40 ADD PUSH1 0x40 MSTORE DUP1 PUSH1 0x2 DUP2 MSTORE PUSH1 0x20 ADD PUSH32 0x4454000000000000000000000000000000000000000000000000000000000000 DUP2 MSTORE POP DUP2 JUMP JUMPDEST PUSH1 0x0 DUP1 PUSH20 0xFFFFFFFFFFFFFFFFFFFFFFFFFFFFFFFFFFFFFFFF AND DUP4 PUSH20 0xFFFFFFFFFFFFFFFFFFFFFFFFFFFFFFFFFFFFFFFF AND SUB PUSH2 0xC1A JUMPI PUSH1 0x0 DUP1 REVERT JUMPDEST PUSH1 0x2 PUSH1 0x0 ORIGIN PUSH20 0xFFFFFFFFFFFFFFFFFFFFFFFFFFFFFFFFFFFFFFFF AND PUSH20 0xFFFFFFFFFFFFFFFFFFFFFFFFFFFFFFFFFFFFFFFF AND DUP2 MSTORE PUSH1 0x20 ADD SWAP1 DUP2 MSTORE PUSH1 0x20 ADD PUSH1 0x0 KECCAK256 SLOAD DUP3 GT ISZERO PUSH2 0xC9C JUMPI PUSH1 0x40 MLOAD PUSH32 0x8C379A000000000000000000000000000000000000000000000000000000000 DUP2 MSTORE PUSH1 0x4 ADD PUSH2 0xC93 SWAP1 PUSH2 0x1360 JUMP JUMPDEST PUSH1 0x40 MLOAD DUP1 SWAP2 SUB SWAP1 REVERT JUMPDEST PUSH2 0xCEE DUP3 PUSH1 0x2 PUSH1 0x0 ORIGIN PUSH20 0xFFFFFFFFFFFFFFFFFFFFFFFFFFFFFFFFFFFFFFFF AND PUSH20 0xFFFFFFFFFFFFFFFFFFFFFFFFFFFFFFFFFFFFFFFF AND DUP2 MSTORE PUSH1 0x20 ADD SWAP1 DUP2 MSTORE PUSH1 0x20 ADD PUSH1 0x0 KECCAK256 SLOAD PUSH2 0xEBC SWAP1 SWAP2 SWAP1 PUSH4 0xFFFFFFFF AND JUMP JUMPDEST PUSH1 0x2 PUSH1 0x0 ORIGIN PUSH20 0xFFFFFFFFFFFFFFFFFFFFFFFFFFFFFFFFFFFFFFFF AND PUSH20 0xFFFFFFFFFFFFFFFFFFFFFFFFFFFFFFFFFFFFFFFF AND DUP2 MSTORE PUSH1 0x20 ADD SWAP1 DUP2 MSTORE PUSH1 0x20 ADD PUSH1 0x0 KECCAK256 DUP2 SWAP1 SSTORE POP PUSH2 0xD83 DUP3 PUSH1 0x2 PUSH1 0x0 DUP7 PUSH20 0xFFFFFFFFFFFFFFFFFFFFFFFFFFFFFFFFFFFFFFFF AND PUSH20 0xFFFFFFFFFFFFFFFFFFFFFFFFFFFFFFFFFFFFFFFF AND DUP2 MSTORE PUSH1 0x20 ADD SWAP1 DUP2 MSTORE PUSH1 0x20 ADD PUSH1 0x0 KECCAK256 SLOAD PUSH2 0xEE3 SWAP1 SWAP2 SWAP1 PUSH4 0xFFFFFFFF AND JUMP JUMPDEST PUSH1 0x2 PUSH1 0x0 DUP6 PUSH20 0xFFFFFFFFFFFFFFFFFFFFFFFFFFFFFFFFFFFFFFFF AND PUSH20 0xFFFFFFFFFFFFFFFFFFFFFFFFFFFFFFFFFFFFFFFF AND DUP2 MSTORE PUSH1 0x20 ADD SWAP1 DUP2 MSTORE PUSH1 0x20 ADD PUSH1 0x0 KECCAK256 DUP2 SWAP1 SSTORE POP DUP3 PUSH20 0xFFFFFFFFFFFFFFFFFFFFFFFFFFFFFFFFFFFFFFFF AND ORIGIN PUSH20 0xFFFFFFFFFFFFFFFFFFFFFFFFFFFFFFFFFFFFFFFF AND PUSH32 0xDDF252AD1BE2C89B69C2B068FC378DAA952BA7F163C4A11628F55A4DF523B3EF DUP5 PUSH1 0x40 MLOAD PUSH2 0xE23 SWAP2 SWAP1 PUSH2 0x10DA JUMP JUMPDEST PUSH1 0x40 MLOAD DUP1 SWAP2 SUB SWAP1 LOG3 PUSH1 0x1 SWAP1 POP SWAP3 SWAP2 POP POP JUMP JUMPDEST PUSH1 0x0 PUSH1 0x1 PUSH1 0x0 DUP5 PUSH20 0xFFFFFFFFFFFFFFFFFFFFFFFFFFFFFFFFFFFFFFFF AND PUSH20 0xFFFFFFFFFFFFFFFFFFFFFFFFFFFFFFFFFFFFFFFF AND DUP2 MSTORE PUSH1 0x20 ADD SWAP1 DUP2 MSTORE PUSH1 0x20 ADD PUSH1 0x0 KECCAK256 PUSH1 0x0 DUP4 PUSH20 0xFFFFFFFFFFFFFFFFFFFFFFFFFFFFFFFFFFFFFFFF AND PUSH20 0xFFFFFFFFFFFFFFFFFFFFFFFFFFFFFFFFFFFFFFFF AND DUP2 MSTORE PUSH1 0x20 ADD SWAP1 DUP2 MSTORE PUSH1 0x20 ADD PUSH1 0x0 KECCAK256 SLOAD SWAP1 POP SWAP3 SWAP2 POP POP JUMP JUMPDEST PUSH1 0x0 DUP3 DUP3 GT ISZERO PUSH2 0xECF JUMPI PUSH2 0xECE PUSH2 0x1380 JUMP JUMPDEST JUMPDEST DUP2 DUP4 PUSH2 0xEDB SWAP2 SWAP1 PUSH2 0x13DE JUMP JUMPDEST SWAP1 POP SWAP3 SWAP2 POP POP JUMP JUMPDEST PUSH1 0x0 DUP2 DUP4 PUSH2 0xEF1 SWAP2 SWAP1 PUSH2 0x1412 JUMP JUMPDEST SWAP1 POP DUP3 DUP2 LT ISZERO PUSH2 0xF04 JUMPI PUSH2 0xF03 PUSH2 0x1380 JUMP JUMPDEST JUMPDEST SWAP3 SWAP2 POP POP JUMP JUMPDEST PUSH1 0x0 DUP2 ISZERO ISZERO SWAP1 POP SWAP2 SWAP1 POP JUMP JUMPDEST PUSH2 0xF1F DUP2 PUSH2 0xF0A JUMP JUMPDEST DUP3 MSTORE POP POP JUMP JUMPDEST PUSH1 0x0 PUSH1 0x20 DUP3 ADD SWAP1 POP PUSH2 0xF3A PUSH1 0x0 DUP4 ADD DUP5 PUSH2 0xF16 JUMP JUMPDEST SWAP3 SWAP2 POP POP JUMP JUMPDEST PUSH1 0x0 DUP2 MLOAD SWAP1 POP SWAP2 SWAP1 POP JUMP JUMPDEST PUSH1 0x0 DUP3 DUP3 MSTORE PUSH1 0x20 DUP3 ADD SWAP1 POP SWAP3 SWAP2 POP POP JUMP JUMPDEST PUSH1 0x0 JUMPDEST DUP4 DUP2 LT ISZERO PUSH2 0xF7A JUMPI DUP1 DUP3 ADD MLOAD DUP2 DUP5 ADD MSTORE PUSH1 0x20 DUP2 ADD SWAP1 POP PUSH2 0xF5F JUMP JUMPDEST PUSH1 0x0 DUP5 DUP5 ADD MSTORE POP POP POP POP JUMP JUMPDEST PUSH1 0x0 PUSH1 0x1F NOT PUSH1 0x1F DUP4 ADD AND SWAP1 POP SWAP2 SWAP1 POP JUMP JUMPDEST PUSH1 0x0 PUSH2 0xFA2 DUP3 PUSH2 0xF40 JUMP JUMPDEST PUSH2 0xFAC DUP2 DUP6 PUSH2 0xF4B JUMP JUMPDEST SWAP4 POP PUSH2 0xFBC DUP2 DUP6 PUSH1 0x20 DUP7 ADD PUSH2 0xF5C JUMP JUMPDEST PUSH2 0xFC5 DUP2 PUSH2 0xF86 JUMP JUMPDEST DUP5 ADD SWAP2 POP POP SWAP3 SWAP2 POP POP JUMP JUMPDEST PUSH1 0x0 PUSH1 0x20 DUP3 ADD SWAP1 POP DUP2 DUP2 SUB PUSH1 0x0 DUP4 ADD MSTORE PUSH2 0xFEA DUP2 DUP5 PUSH2 0xF97 JUMP JUMPDEST SWAP1 POP SWAP3 SWAP2 POP POP JUMP JUMPDEST PUSH1 0x0 DUP1 REVERT JUMPDEST PUSH1 0x0 PUSH20 0xFFFFFFFFFFFFFFFFFFFFFFFFFFFFFFFFFFFFFFFF DUP3 AND SWAP1 POP SWAP2 SWAP1 POP JUMP JUMPDEST PUSH1 0x0 PUSH2 0x1022 DUP3 PUSH2 0xFF7 JUMP JUMPDEST SWAP1 POP SWAP2 SWAP1 POP JUMP JUMPDEST PUSH2 0x1032 DUP2 PUSH2 0x1017 JUMP JUMPDEST DUP2 EQ PUSH2 0x103D JUMPI PUSH1 0x0 DUP1 REVERT JUMPDEST POP JUMP JUMPDEST PUSH1 0x0 DUP2 CALLDATALOAD SWAP1 POP PUSH2 0x104F DUP2 PUSH2 0x1029 JUMP JUMPDEST SWAP3 SWAP2 POP POP JUMP JUMPDEST PUSH1 0x0 DUP2 SWAP1 POP SWAP2 SWAP1 POP JUMP JUMPDEST PUSH2 0x1068 DUP2 PUSH2 0x1055 JUMP JUMPDEST DUP2 EQ PUSH2 0x1073 JUMPI PUSH1 0x0 DUP1 REVERT JUMPDEST POP JUMP JUMPDEST PUSH1 0x0 DUP2 CALLDATALOAD SWAP1 POP PUSH2 0x1085 DUP2 PUSH2 0x105F JUMP JUMPDEST SWAP3 SWAP2 POP POP JUMP JUMPDEST PUSH1 0x0 DUP1 PUSH1 0x40 DUP4 DUP6 SUB SLT ISZERO PUSH2 0x10A2 JUMPI PUSH2 0x10A1 PUSH2 0xFF2 JUMP JUMPDEST JUMPDEST PUSH1 0x0 PUSH2 0x10B0 DUP6 DUP3 DUP7 ADD PUSH2 0x1040 JUMP JUMPDEST SWAP3 POP POP PUSH1 0x20 PUSH2 0x10C1 DUP6 DUP3 DUP7 ADD PUSH2 0x1076 JUMP JUMPDEST SWAP2 POP POP SWAP3 POP SWAP3 SWAP1 POP JUMP JUMPDEST PUSH2 0x10D4 DUP2 PUSH2 0x1055 JUMP JUMPDEST DUP3 MSTORE POP POP JUMP JUMPDEST PUSH1 0x0 PUSH1 0x20 DUP3 ADD SWAP1 POP PUSH2 0x10EF PUSH1 0x0 DUP4 ADD DUP5 PUSH2 0x10CB JUMP JUMPDEST SWAP3 SWAP2 POP POP JUMP JUMPDEST PUSH1 0x0 DUP1 PUSH1 0x0 PUSH1 0x60 DUP5 DUP7 SUB SLT ISZERO PUSH2 0x110E JUMPI PUSH2 0x110D PUSH2 0xFF2 JUMP JUMPDEST JUMPDEST PUSH1 0x0 PUSH2 0x111C DUP7 DUP3 DUP8 ADD PUSH2 0x1040 JUMP JUMPDEST SWAP4 POP POP PUSH1 0x20 PUSH2 0x112D DUP7 DUP3 DUP8 ADD PUSH2 0x1040 JUMP JUMPDEST SWAP3 POP POP PUSH1 0x40 PUSH2 0x113E DUP7 DUP3 DUP8 ADD PUSH2 0x1076 JUMP JUMPDEST SWAP2 POP POP SWAP3 POP SWAP3 POP SWAP3 JUMP JUMPDEST PUSH1 0x0 PUSH1 0xFF DUP3 AND SWAP1 POP SWAP2 SWAP1 POP JUMP JUMPDEST PUSH2 0x115E DUP2 PUSH2 0x1148 JUMP JUMPDEST DUP3 MSTORE POP POP JUMP JUMPDEST PUSH1 0x0 PUSH1 0x20 DUP3 ADD SWAP1 POP PUSH2 0x1179 PUSH1 0x0 DUP4 ADD DUP5 PUSH2 0x1155 JUMP JUMPDEST SWAP3 SWAP2 POP POP JUMP JUMPDEST PUSH1 0x0 PUSH1 0x20 DUP3 DUP5 SUB SLT ISZERO PUSH2 0x1195 JUMPI PUSH2 0x1194 PUSH2 0xFF2 JUMP JUMPDEST JUMPDEST PUSH1 0x0 PUSH2 0x11A3 DUP5 DUP3 DUP6 ADD PUSH2 0x1040 JUMP JUMPDEST SWAP2 POP POP SWAP3 SWAP2 POP POP JUMP JUMPDEST PUSH2 0x11B5 DUP2 PUSH2 0x1017 JUMP JUMPDEST DUP3 MSTORE POP POP JUMP JUMPDEST PUSH1 0x0 PUSH1 0x20 DUP3 ADD SWAP1 POP PUSH2 0x11D0 PUSH1 0x0 DUP4 ADD DUP5 PUSH2 0x11AC JUMP JUMPDEST SWAP3 SWAP2 POP POP JUMP JUMPDEST PUSH1 0x0 DUP1 PUSH1 0x40 DUP4 DUP6 SUB SLT ISZERO PUSH2 0x11ED JUMPI PUSH2 0x11EC PUSH2 0xFF2 JUMP JUMPDEST JUMPDEST PUSH1 0x0 PUSH2 0x11FB DUP6 DUP3 DUP7 ADD PUSH2 0x1040 JUMP JUMPDEST SWAP3 POP POP PUSH1 0x20 PUSH2 0x120C DUP6 DUP3 DUP7 ADD PUSH2 0x1040 JUMP JUMPDEST SWAP2 POP POP SWAP3 POP SWAP3 SWAP1 POP JUMP JUMPDEST PUSH32 0x46726F6D20646F65736E2774206861766520656E6F7567682062616C616E6365 PUSH1 0x0 DUP3 ADD MSTORE POP JUMP JUMPDEST PUSH1 0x0 PUSH2 0x124C PUSH1 0x20 DUP4 PUSH2 0xF4B JUMP JUMPDEST SWAP2 POP PUSH2 0x1257 DUP3 PUSH2 0x1216 JUMP JUMPDEST PUSH1 0x20 DUP3 ADD SWAP1 POP SWAP2 SWAP1 POP JUMP JUMPDEST PUSH1 0x0 PUSH1 0x20 DUP3 ADD SWAP1 POP DUP2 DUP2 SUB PUSH1 0x0 DUP4 ADD MSTORE PUSH2 0x127B DUP2 PUSH2 0x123F JUMP JUMPDEST SWAP1 POP SWAP2 SWAP1 POP JUMP JUMPDEST PUSH32 0x4E6F7420616C6C6F77656420746F207370656E642074686973206D7563680000 PUSH1 0x0 DUP3 ADD MSTORE POP JUMP JUMPDEST PUSH1 0x0 PUSH2 0x12B8 PUSH1 0x1E DUP4 PUSH2 0xF4B JUMP JUMPDEST SWAP2 POP PUSH2 0x12C3 DUP3 PUSH2 0x1282 JUMP JUMPDEST PUSH1 0x20 DUP3 ADD SWAP1 POP SWAP2 SWAP1 POP JUMP JUMPDEST PUSH1 0x0 PUSH1 0x20 DUP3 ADD SWAP1 POP DUP2 DUP2 SUB PUSH1 0x0 DUP4 ADD MSTORE PUSH2 0x12E7 DUP2 PUSH2 0x12AB JUMP JUMPDEST SWAP1 POP SWAP2 SWAP1 POP JUMP JUMPDEST PUSH32 0x6D73672E73656E64657220646F65736E2774206861766520656E6F7567682062 PUSH1 0x0 DUP3 ADD MSTORE PUSH32 0x616C616E63650000000000000000000000000000000000000000000000000000 PUSH1 0x20 DUP3 ADD MSTORE POP JUMP JUMPDEST PUSH1 0x0 PUSH2 0x134A PUSH1 0x26 DUP4 PUSH2 0xF4B JUMP JUMPDEST SWAP2 POP PUSH2 0x1355 DUP3 PUSH2 0x12EE JUMP JUMPDEST PUSH1 0x40 DUP3 ADD SWAP1 POP SWAP2 SWAP1 POP JUMP JUMPDEST PUSH1 0x0 PUSH1 0x20 DUP3 ADD SWAP1 POP DUP2 DUP2 SUB PUSH1 0x0 DUP4 ADD MSTORE PUSH2 0x1379 DUP2 PUSH2 0x133D JUMP JUMPDEST SWAP1 POP SWAP2 SWAP1 POP JUMP JUMPDEST PUSH32 0x4E487B7100000000000000000000000000000000000000000000000000000000 PUSH1 0x0 MSTORE PUSH1 0x1 PUSH1 0x4 MSTORE PUSH1 0x24 PUSH1 0x0 REVERT JUMPDEST PUSH32 0x4E487B7100000000000000000000000000000000000000000000000000000000 PUSH1 0x0 MSTORE PUSH1 0x11 PUSH1 0x4 MSTORE PUSH1 0x24 PUSH1 0x0 REVERT JUMPDEST PUSH1 0x0 PUSH2 0x13E9 DUP3 PUSH2 0x1055 JUMP JUMPDEST SWAP2 POP PUSH2 0x13F4 DUP4 PUSH2 0x1055 JUMP JUMPDEST SWAP3 POP DUP3 DUP3 SUB SWAP1 POP DUP2 DUP2 GT ISZERO PUSH2 0x140C JUMPI PUSH2 0x140B PUSH2 0x13AF JUMP JUMPDEST JUMPDEST SWAP3 SWAP2 POP POP JUMP JUMPDEST PUSH1 0x0 PUSH2 0x141D DUP3 PUSH2 0x1055 JUMP JUMPDEST SWAP2 POP PUSH2 0x1428 DUP4 PUSH2 0x1055 JUMP JUMPDEST SWAP3 POP DUP3 DUP3 ADD SWAP1 POP DUP1 DUP3 GT ISZERO PUSH2 0x1440 JUMPI PUSH2 0x143F PUSH2 0x13AF JUMP JUMPDEST JUMPDEST SWAP3 SWAP2 POP POP JUMP INVALID LOG2 PUSH5 0x6970667358 0x22 SLT KECCAK256 0xAC PUSH1 0xF9 0x4D SWAP10 0xE2 ISZERO DUP7 DUP8 0xDA 0xC6 SWAP7 LOG2 DUP7 COINBASE PUSH19 0xEE522EB6B26ED0ACBBA3E07B9144340564736F PUSH13 0x63430008130033000000000000 "
				},
				"gasEstimates": {
					"creation": {
						"codeDepositCost": "1048800",
						"executionCost": "49670",
						"totalCost": "1098470"
					},
					"external": {
						"allowance(address,address)": "infinite",
						"approve(address,uint256)": "infinite",
						"balanceOf(address)": "2864",
						"decimals()": "402",
						"finishMinting()": "29805",
						"getOwner()": "2639",
						"mint(address,uint256)": "infinite",
						"mintingFinished()": "2492",
						"name()": "infinite",
						"owner()": "2586",
						"symbol()": "infinite",
						"totalSupply()": "2460",
						"transfer(address,uint256)": "infinite",
						"transferFrom(address,address,uint256)": "infinite"
					}
				},
				"methodIdentifiers": {
					"allowance(address,address)": "dd62ed3e",
					"approve(address,uint256)": "095ea7b3",
					"balanceOf(address)": "70a08231",
					"decimals()": "313ce567",
					"finishMinting()": "7d64bcb4",
					"getOwner()": "893d20e8",
					"mint(address,uint256)": "40c10f19",
					"mintingFinished()": "05d2035b",
					"name()": "06fdde03",
					"owner()": "8da5cb5b",
					"symbol()": "95d89b41",
					"totalSupply()": "18160ddd",
					"transfer(address,uint256)": "a9059cbb",
					"transferFrom(address,address,uint256)": "23b872dd"
				}
			},
			"storageLayout": {
				"storage": [
					{
						"astId": 104,
						"contract": "contracts/ERC20.sol:ERC20",
						"label": "mintingFinished",
						"offset": 0,
						"slot": "0",
						"type": "t_bool"
					},
					{
						"astId": 108,
						"contract": "contracts/ERC20.sol:ERC20",
						"label": "owner",
						"offset": 1,
						"slot": "0",
						"type": "t_address"
					},
					{
						"astId": 114,
						"contract": "contracts/ERC20.sol:ERC20",
						"label": "allowed",
						"offset": 0,
						"slot": "1",
						"type": "t_mapping(t_address,t_mapping(t_address,t_uint256))"
					},
					{
						"astId": 118,
						"contract": "contracts/ERC20.sol:ERC20",
						"label": "balances",
						"offset": 0,
						"slot": "2",
						"type": "t_mapping(t_address,t_uint256)"
					},
					{
						"astId": 129,
						"contract": "contracts/ERC20.sol:ERC20",
						"label": "totalSupply_",
						"offset": 0,
						"slot": "3",
						"type": "t_uint256"
					}
				],
				"types": {
					"t_address": {
						"encoding": "inplace",
						"label": "address",
						"numberOfBytes": "20"
					},
					"t_bool": {
						"encoding": "inplace",
						"label": "bool",
						"numberOfBytes": "1"
					},
					"t_mapping(t_address,t_mapping(t_address,t_uint256))": {
						"encoding": "mapping",
						"key": "t_address",
						"label": "mapping(address => mapping(address => uint256))",
						"numberOfBytes": "32",
						"value": "t_mapping(t_address,t_uint256)"
					},
					"t_mapping(t_address,t_uint256)": {
						"encoding": "mapping",
						"key": "t_address",
						"label": "mapping(address => uint256)",
						"numberOfBytes": "32",
						"value": "t_uint256"
					},
					"t_uint256": {
						"encoding": "inplace",
						"label": "uint256",
						"numberOfBytes": "32"
					}
				}
			},
			"userdoc": {
				"kind": "user",
				"methods": {},
				"version": 1
			}
		}
	}
}