{
	"contracts/MedicalCert.sol": {
		"MedicalCertificate": {
			"abi": [
				{
					"anonymous": false,
					"inputs": [
						{
							"indexed": false,
							"internalType": "uint256",
							"name": "numMC",
							"type": "uint256"
						}
					],
					"name": "mcCreated",
					"type": "event"
				},
				{
					"inputs": [
						{
							"internalType": "bytes32",
							"name": "",
							"type": "bytes32"
						}
					],
					"name": "MC",
					"outputs": [
						{
							"internalType": "bytes",
							"name": "ID",
							"type": "bytes"
						},
						{
							"internalType": "uint256",
							"name": "HospitalID",
							"type": "uint256"
						},
						{
							"components": [
								{
									"internalType": "uint256",
									"name": "personId",
									"type": "uint256"
								},
								{
									"internalType": "string",
									"name": "name",
									"type": "string"
								},
								{
									"internalType": "string",
									"name": "NRIC",
									"type": "string"
								},
								{
									"internalType": "string",
									"name": "sex",
									"type": "string"
								},
								{
									"internalType": "uint256",
									"name": "birthdate",
									"type": "uint256"
								},
								{
									"internalType": "string",
									"name": "race_nationality",
									"type": "string"
								}
							],
							"internalType": "struct MedicalCertificate.personalInfo",
							"name": "personal_info",
							"type": "tuple"
						},
						{
							"internalType": "enum MedicalCertificate.certCategory",
							"name": "incident",
							"type": "uint8"
						},
						{
							"internalType": "string",
							"name": "dateTimeIncident",
							"type": "string"
						},
						{
							"internalType": "string",
							"name": "titleOfCertifier",
							"type": "string"
						}
					],
					"stateMutability": "view",
					"type": "function"
				},
				{
					"inputs": [
						{
							"internalType": "uint256",
							"name": "hospital",
							"type": "uint256"
						},
						{
							"internalType": "uint256",
							"name": "personId",
							"type": "uint256"
						},
						{
							"internalType": "enum MedicalCertificate.certCategory",
							"name": "incidentType",
							"type": "uint8"
						},
						{
							"internalType": "string",
							"name": "incidentYYYYMMDDHHMM",
							"type": "string"
						},
						{
							"internalType": "string",
							"name": "titleNname",
							"type": "string"
						}
					],
					"name": "add",
					"outputs": [
						{
							"internalType": "bytes",
							"name": "",
							"type": "bytes"
						}
					],
					"stateMutability": "nonpayable",
					"type": "function"
				},
				{
					"inputs": [
						{
							"internalType": "string",
							"name": "name",
							"type": "string"
						},
						{
							"internalType": "string",
							"name": "NRIC",
							"type": "string"
						},
						{
							"internalType": "string",
							"name": "sex",
							"type": "string"
						},
						{
							"internalType": "uint256",
							"name": "birthdate",
							"type": "uint256"
						},
						{
							"internalType": "string",
							"name": "race_nationality",
							"type": "string"
						}
					],
					"name": "createPersonalInfo",
					"outputs": [
						{
							"internalType": "uint256",
							"name": "",
							"type": "uint256"
						}
					],
					"stateMutability": "nonpayable",
					"type": "function"
				},
				{
					"inputs": [
						{
							"internalType": "bytes",
							"name": "id",
							"type": "bytes"
						}
					],
					"name": "getMCCategory",
					"outputs": [
						{
							"internalType": "enum MedicalCertificate.certCategory",
							"name": "",
							"type": "uint8"
						}
					],
					"stateMutability": "view",
					"type": "function"
				},
				{
					"inputs": [
						{
							"internalType": "bytes",
							"name": "id",
							"type": "bytes"
						}
					],
					"name": "getMCNRIC",
					"outputs": [
						{
							"internalType": "string",
							"name": "",
							"type": "string"
						}
					],
					"stateMutability": "view",
					"type": "function"
				},
				{
					"inputs": [
						{
							"internalType": "bytes",
							"name": "id",
							"type": "bytes"
						}
					],
					"name": "getMCName",
					"outputs": [
						{
							"internalType": "string",
							"name": "",
							"type": "string"
						}
					],
					"stateMutability": "view",
					"type": "function"
				},
				{
					"inputs": [
						{
							"internalType": "uint256",
							"name": "",
							"type": "uint256"
						}
					],
					"name": "infos",
					"outputs": [
						{
							"internalType": "uint256",
							"name": "personId",
							"type": "uint256"
						},
						{
							"internalType": "string",
							"name": "name",
							"type": "string"
						},
						{
							"internalType": "string",
							"name": "NRIC",
							"type": "string"
						},
						{
							"internalType": "string",
							"name": "sex",
							"type": "string"
						},
						{
							"internalType": "uint256",
							"name": "birthdate",
							"type": "uint256"
						},
						{
							"internalType": "string",
							"name": "race_nationality",
							"type": "string"
						}
					],
					"stateMutability": "view",
					"type": "function"
				}
			],
			"devdoc": {
				"kind": "dev",
				"methods": {},
				"version": 1
			},
			"evm": {
				"assembly": "    /* \"contracts/MedicalCert.sol\":60:6122  contract MedicalCertificate {... */\n  mstore(0x40, 0x80)\n    /* \"contracts/MedicalCert.sol\":112:113  0 */\n  0x00\n    /* \"contracts/MedicalCert.sol\":94:113  uint256 counter = 0 */\n  dup1\n  sstore\n    /* \"contracts/MedicalCert.sol\":1310:1311  0 */\n  0x00\n    /* \"contracts/MedicalCert.sol\":1288:1311  uint256 numOfPeople = 0 */\n  0x03\n  sstore\n    /* \"contracts/MedicalCert.sol\":60:6122  contract MedicalCertificate {... */\n  callvalue\n  dup1\n  iszero\n  tag_1\n  jumpi\n  0x00\n  dup1\n  revert\ntag_1:\n  pop\n  dataSize(sub_0)\n  dup1\n  dataOffset(sub_0)\n  0x00\n  codecopy\n  0x00\n  return\nstop\n\nsub_0: assembly {\n        /* \"contracts/MedicalCert.sol\":60:6122  contract MedicalCertificate {... */\n      mstore(0x40, 0x80)\n      callvalue\n      dup1\n      iszero\n      tag_1\n      jumpi\n      0x00\n      dup1\n      revert\n    tag_1:\n      pop\n      jumpi(tag_2, lt(calldatasize, 0x04))\n      shr(0xe0, calldataload(0x00))\n      dup1\n      0x2b41cdb9\n      gt\n      tag_10\n      jumpi\n      dup1\n      0x2b41cdb9\n      eq\n      tag_6\n      jumpi\n      dup1\n      0xd353b2b1\n      eq\n      tag_7\n      jumpi\n      dup1\n      0xd4c85366\n      eq\n      tag_8\n      jumpi\n      dup1\n      0xf29a6f44\n      eq\n      tag_9\n      jumpi\n      jump(tag_2)\n    tag_10:\n      dup1\n      0x109075f1\n      eq\n      tag_3\n      jumpi\n      dup1\n      0x28de3c9b\n      eq\n      tag_4\n      jumpi\n      dup1\n      0x29efb4a9\n      eq\n      tag_5\n      jumpi\n    tag_2:\n      0x00\n      dup1\n      revert\n        /* \"contracts/MedicalCert.sol\":1189:1230  mapping(bytes32 => medicalCert) public MC */\n    tag_3:\n      tag_11\n      0x04\n      dup1\n      calldatasize\n      sub\n      dup2\n      add\n      swap1\n      tag_12\n      swap2\n      swap1\n      tag_13\n      jump\t// in\n    tag_12:\n      tag_14\n      jump\t// in\n    tag_11:\n      mload(0x40)\n      tag_15\n      swap7\n      swap6\n      swap5\n      swap4\n      swap3\n      swap2\n      swap1\n      tag_16\n      jump\t// in\n    tag_15:\n      mload(0x40)\n      dup1\n      swap2\n      sub\n      swap1\n      return\n        /* \"contracts/MedicalCert.sol\":1236:1281  mapping(uint256 => personalInfo) public infos */\n    tag_4:\n      tag_17\n      0x04\n      dup1\n      calldatasize\n      sub\n      dup2\n      add\n      swap1\n      tag_18\n      swap2\n      swap1\n      tag_19\n      jump\t// in\n    tag_18:\n      tag_20\n      jump\t// in\n    tag_17:\n      mload(0x40)\n      tag_21\n      swap7\n      swap6\n      swap5\n      swap4\n      swap3\n      swap2\n      swap1\n      tag_22\n      jump\t// in\n    tag_21:\n      mload(0x40)\n      dup1\n      swap2\n      sub\n      swap1\n      return\n        /* \"contracts/MedicalCert.sol\":5491:5615  function getMCCategory(bytes memory id) public view returns(certCategory) {... */\n    tag_5:\n      tag_23\n      0x04\n      dup1\n      calldatasize\n      sub\n      dup2\n      add\n      swap1\n      tag_24\n      swap2\n      swap1\n      tag_25\n      jump\t// in\n    tag_24:\n      tag_26\n      jump\t// in\n    tag_23:\n      mload(0x40)\n      tag_27\n      swap2\n      swap1\n      tag_28\n      jump\t// in\n    tag_27:\n      mload(0x40)\n      dup1\n      swap2\n      sub\n      swap1\n      return\n        /* \"contracts/MedicalCert.sol\":3735:4185  function createPersonalInfo (string memory name, string memory NRIC, string memory sex, ... */\n    tag_6:\n      tag_29\n      0x04\n      dup1\n      calldatasize\n      sub\n      dup2\n      add\n      swap1\n      tag_30\n      swap2\n      swap1\n      tag_31\n      jump\t// in\n    tag_30:\n      tag_32\n      jump\t// in\n    tag_29:\n      mload(0x40)\n      tag_33\n      swap2\n      swap1\n      tag_34\n      jump\t// in\n    tag_33:\n      mload(0x40)\n      dup1\n      swap2\n      sub\n      swap1\n      return\n        /* \"contracts/MedicalCert.sol\":4238:4925  function add(uint256 hospital, uint256 personId,... */\n    tag_7:\n      tag_35\n      0x04\n      dup1\n      calldatasize\n      sub\n      dup2\n      add\n      swap1\n      tag_36\n      swap2\n      swap1\n      tag_37\n      jump\t// in\n    tag_36:\n      tag_38\n      jump\t// in\n    tag_35:\n      mload(0x40)\n      tag_39\n      swap2\n      swap1\n      tag_40\n      jump\t// in\n    tag_39:\n      mload(0x40)\n      dup1\n      swap2\n      sub\n      swap1\n      return\n        /* \"contracts/MedicalCert.sol\":5354:5485  function getMCNRIC(bytes memory id) public view returns(string memory) {... */\n    tag_8:\n      tag_41\n      0x04\n      dup1\n      calldatasize\n      sub\n      dup2\n      add\n      swap1\n      tag_42\n      swap2\n      swap1\n      tag_25\n      jump\t// in\n    tag_42:\n      tag_43\n      jump\t// in\n    tag_41:\n      mload(0x40)\n      tag_44\n      swap2\n      swap1\n      tag_45\n      jump\t// in\n    tag_44:\n      mload(0x40)\n      dup1\n      swap2\n      sub\n      swap1\n      return\n        /* \"contracts/MedicalCert.sol\":5217:5348  function getMCName(bytes memory id) public view returns(string memory) {... */\n    tag_9:\n      tag_46\n      0x04\n      dup1\n      calldatasize\n      sub\n      dup2\n      add\n      swap1\n      tag_47\n      swap2\n      swap1\n      tag_25\n      jump\t// in\n    tag_47:\n      tag_48\n      jump\t// in\n    tag_46:\n      mload(0x40)\n      tag_49\n      swap2\n      swap1\n      tag_45\n      jump\t// in\n    tag_49:\n      mload(0x40)\n      dup1\n      swap2\n      sub\n      swap1\n      return\n        /* \"contracts/MedicalCert.sol\":1189:1230  mapping(bytes32 => medicalCert) public MC */\n    tag_14:\n      mstore(0x20, 0x01)\n      dup1\n      0x00\n      mstore\n      keccak256(0x00, 0x40)\n      0x00\n      swap2\n      pop\n      swap1\n      pop\n      dup1\n      0x00\n      add\n      dup1\n      sload\n      tag_50\n      swap1\n      tag_51\n      jump\t// in\n    tag_50:\n      dup1\n      0x1f\n      add\n      0x20\n      dup1\n      swap2\n      div\n      mul\n      0x20\n      add\n      mload(0x40)\n      swap1\n      dup2\n      add\n      0x40\n      mstore\n      dup1\n      swap3\n      swap2\n      swap1\n      dup2\n      dup2\n      mstore\n      0x20\n      add\n      dup3\n      dup1\n      sload\n      tag_52\n      swap1\n      tag_51\n      jump\t// in\n    tag_52:\n      dup1\n      iszero\n      tag_53\n      jumpi\n      dup1\n      0x1f\n      lt\n      tag_54\n      jumpi\n      0x0100\n      dup1\n      dup4\n      sload\n      div\n      mul\n      dup4\n      mstore\n      swap2\n      0x20\n      add\n      swap2\n      jump(tag_53)\n    tag_54:\n      dup3\n      add\n      swap2\n      swap1\n      0x00\n      mstore\n      keccak256(0x00, 0x20)\n      swap1\n    tag_55:\n      dup2\n      sload\n      dup2\n      mstore\n      swap1\n      0x01\n      add\n      swap1\n      0x20\n      add\n      dup1\n      dup4\n      gt\n      tag_55\n      jumpi\n      dup3\n      swap1\n      sub\n      0x1f\n      and\n      dup3\n      add\n      swap2\n    tag_53:\n      pop\n      pop\n      pop\n      pop\n      pop\n      swap1\n      dup1\n      0x01\n      add\n      sload\n      swap1\n      dup1\n      0x02\n      add\n      mload(0x40)\n      dup1\n      0xc0\n      add\n      0x40\n      mstore\n      swap1\n      dup2\n      0x00\n      dup3\n      add\n      sload\n      dup2\n      mstore\n      0x20\n      add\n      0x01\n      dup3\n      add\n      dup1\n      sload\n      tag_56\n      swap1\n      tag_51\n      jump\t// in\n    tag_56:\n      dup1\n      0x1f\n      add\n      0x20\n      dup1\n      swap2\n      div\n      mul\n      0x20\n      add\n      mload(0x40)\n      swap1\n      dup2\n      add\n      0x40\n      mstore\n      dup1\n      swap3\n      swap2\n      swap1\n      dup2\n      dup2\n      mstore\n      0x20\n      add\n      dup3\n      dup1\n      sload\n      tag_57\n      swap1\n      tag_51\n      jump\t// in\n    tag_57:\n      dup1\n      iszero\n      tag_58\n      jumpi\n      dup1\n      0x1f\n      lt\n      tag_59\n      jumpi\n      0x0100\n      dup1\n      dup4\n      sload\n      div\n      mul\n      dup4\n      mstore\n      swap2\n      0x20\n      add\n      swap2\n      jump(tag_58)\n    tag_59:\n      dup3\n      add\n      swap2\n      swap1\n      0x00\n      mstore\n      keccak256(0x00, 0x20)\n      swap1\n    tag_60:\n      dup2\n      sload\n      dup2\n      mstore\n      swap1\n      0x01\n      add\n      swap1\n      0x20\n      add\n      dup1\n      dup4\n      gt\n      tag_60\n      jumpi\n      dup3\n      swap1\n      sub\n      0x1f\n      and\n      dup3\n      add\n      swap2\n    tag_58:\n      pop\n      pop\n      pop\n      pop\n      pop\n      dup2\n      mstore\n      0x20\n      add\n      0x02\n      dup3\n      add\n      dup1\n      sload\n      tag_61\n      swap1\n      tag_51\n      jump\t// in\n    tag_61:\n      dup1\n      0x1f\n      add\n      0x20\n      dup1\n      swap2\n      div\n      mul\n      0x20\n      add\n      mload(0x40)\n      swap1\n      dup2\n      add\n      0x40\n      mstore\n      dup1\n      swap3\n      swap2\n      swap1\n      dup2\n      dup2\n      mstore\n      0x20\n      add\n      dup3\n      dup1\n      sload\n      tag_62\n      swap1\n      tag_51\n      jump\t// in\n    tag_62:\n      dup1\n      iszero\n      tag_63\n      jumpi\n      dup1\n      0x1f\n      lt\n      tag_64\n      jumpi\n      0x0100\n      dup1\n      dup4\n      sload\n      div\n      mul\n      dup4\n      mstore\n      swap2\n      0x20\n      add\n      swap2\n      jump(tag_63)\n    tag_64:\n      dup3\n      add\n      swap2\n      swap1\n      0x00\n      mstore\n      keccak256(0x00, 0x20)\n      swap1\n    tag_65:\n      dup2\n      sload\n      dup2\n      mstore\n      swap1\n      0x01\n      add\n      swap1\n      0x20\n      add\n      dup1\n      dup4\n      gt\n      tag_65\n      jumpi\n      dup3\n      swap1\n      sub\n      0x1f\n      and\n      dup3\n      add\n      swap2\n    tag_63:\n      pop\n      pop\n      pop\n      pop\n      pop\n      dup2\n      mstore\n      0x20\n      add\n      0x03\n      dup3\n      add\n      dup1\n      sload\n      tag_66\n      swap1\n      tag_51\n      jump\t// in\n    tag_66:\n      dup1\n      0x1f\n      add\n      0x20\n      dup1\n      swap2\n      div\n      mul\n      0x20\n      add\n      mload(0x40)\n      swap1\n      dup2\n      add\n      0x40\n      mstore\n      dup1\n      swap3\n      swap2\n      swap1\n      dup2\n      dup2\n      mstore\n      0x20\n      add\n      dup3\n      dup1\n      sload\n      tag_67\n      swap1\n      tag_51\n      jump\t// in\n    tag_67:\n      dup1\n      iszero\n      tag_68\n      jumpi\n      dup1\n      0x1f\n      lt\n      tag_69\n      jumpi\n      0x0100\n      dup1\n      dup4\n      sload\n      div\n      mul\n      dup4\n      mstore\n      swap2\n      0x20\n      add\n      swap2\n      jump(tag_68)\n    tag_69:\n      dup3\n      add\n      swap2\n      swap1\n      0x00\n      mstore\n      keccak256(0x00, 0x20)\n      swap1\n    tag_70:\n      dup2\n      sload\n      dup2\n      mstore\n      swap1\n      0x01\n      add\n      swap1\n      0x20\n      add\n      dup1\n      dup4\n      gt\n      tag_70\n      jumpi\n      dup3\n      swap1\n      sub\n      0x1f\n      and\n      dup3\n      add\n      swap2\n    tag_68:\n      pop\n      pop\n      pop\n      pop\n      pop\n      dup2\n      mstore\n      0x20\n      add\n      0x04\n      dup3\n      add\n      sload\n      dup2\n      mstore\n      0x20\n      add\n      0x05\n      dup3\n      add\n      dup1\n      sload\n      tag_71\n      swap1\n      tag_51\n      jump\t// in\n    tag_71:\n      dup1\n      0x1f\n      add\n      0x20\n      dup1\n      swap2\n      div\n      mul\n      0x20\n      add\n      mload(0x40)\n      swap1\n      dup2\n      add\n      0x40\n      mstore\n      dup1\n      swap3\n      swap2\n      swap1\n      dup2\n      dup2\n      mstore\n      0x20\n      add\n      dup3\n      dup1\n      sload\n      tag_72\n      swap1\n      tag_51\n      jump\t// in\n    tag_72:\n      dup1\n      iszero\n      tag_73\n      jumpi\n      dup1\n      0x1f\n      lt\n      tag_74\n      jumpi\n      0x0100\n      dup1\n      dup4\n      sload\n      div\n      mul\n      dup4\n      mstore\n      swap2\n      0x20\n      add\n      swap2\n      jump(tag_73)\n    tag_74:\n      dup3\n      add\n      swap2\n      swap1\n      0x00\n      mstore\n      keccak256(0x00, 0x20)\n      swap1\n    tag_75:\n      dup2\n      sload\n      dup2\n      mstore\n      swap1\n      0x01\n      add\n      swap1\n      0x20\n      add\n      dup1\n      dup4\n      gt\n      tag_75\n      jumpi\n      dup3\n      swap1\n      sub\n      0x1f\n      and\n      dup3\n      add\n      swap2\n    tag_73:\n      pop\n      pop\n      pop\n      pop\n      pop\n      dup2\n      mstore\n      pop\n      pop\n      swap1\n      dup1\n      0x08\n      add\n      0x00\n      swap1\n      sload\n      swap1\n      0x0100\n      exp\n      swap1\n      div\n      0xff\n      and\n      swap1\n      dup1\n      0x09\n      add\n      dup1\n      sload\n      tag_76\n      swap1\n      tag_51\n      jump\t// in\n    tag_76:\n      dup1\n      0x1f\n      add\n      0x20\n      dup1\n      swap2\n      div\n      mul\n      0x20\n      add\n      mload(0x40)\n      swap1\n      dup2\n      add\n      0x40\n      mstore\n      dup1\n      swap3\n      swap2\n      swap1\n      dup2\n      dup2\n      mstore\n      0x20\n      add\n      dup3\n      dup1\n      sload\n      tag_77\n      swap1\n      tag_51\n      jump\t// in\n    tag_77:\n      dup1\n      iszero\n      tag_78\n      jumpi\n      dup1\n      0x1f\n      lt\n      tag_79\n      jumpi\n      0x0100\n      dup1\n      dup4\n      sload\n      div\n      mul\n      dup4\n      mstore\n      swap2\n      0x20\n      add\n      swap2\n      jump(tag_78)\n    tag_79:\n      dup3\n      add\n      swap2\n      swap1\n      0x00\n      mstore\n      keccak256(0x00, 0x20)\n      swap1\n    tag_80:\n      dup2\n      sload\n      dup2\n      mstore\n      swap1\n      0x01\n      add\n      swap1\n      0x20\n      add\n      dup1\n      dup4\n      gt\n      tag_80\n      jumpi\n      dup3\n      swap1\n      sub\n      0x1f\n      and\n      dup3\n      add\n      swap2\n    tag_78:\n      pop\n      pop\n      pop\n      pop\n      pop\n      swap1\n      dup1\n      0x0a\n      add\n      dup1\n      sload\n      tag_81\n      swap1\n      tag_51\n      jump\t// in\n    tag_81:\n      dup1\n      0x1f\n      add\n      0x20\n      dup1\n      swap2\n      div\n      mul\n      0x20\n      add\n      mload(0x40)\n      swap1\n      dup2\n      add\n      0x40\n      mstore\n      dup1\n      swap3\n      swap2\n      swap1\n      dup2\n      dup2\n      mstore\n      0x20\n      add\n      dup3\n      dup1\n      sload\n      tag_82\n      swap1\n      tag_51\n      jump\t// in\n    tag_82:\n      dup1\n      iszero\n      tag_83\n      jumpi\n      dup1\n      0x1f\n      lt\n      tag_84\n      jumpi\n      0x0100\n      dup1\n      dup4\n      sload\n      div\n      mul\n      dup4\n      mstore\n      swap2\n      0x20\n      add\n      swap2\n      jump(tag_83)\n    tag_84:\n      dup3\n      add\n      swap2\n      swap1\n      0x00\n      mstore\n      keccak256(0x00, 0x20)\n      swap1\n    tag_85:\n      dup2\n      sload\n      dup2\n      mstore\n      swap1\n      0x01\n      add\n      swap1\n      0x20\n      add\n      dup1\n      dup4\n      gt\n      tag_85\n      jumpi\n      dup3\n      swap1\n      sub\n      0x1f\n      and\n      dup3\n      add\n      swap2\n    tag_83:\n      pop\n      pop\n      pop\n      pop\n      pop\n      swap1\n      pop\n      dup7\n      jump\t// out\n        /* \"contracts/MedicalCert.sol\":1236:1281  mapping(uint256 => personalInfo) public infos */\n    tag_20:\n      mstore(0x20, 0x02)\n      dup1\n      0x00\n      mstore\n      keccak256(0x00, 0x40)\n      0x00\n      swap2\n      pop\n      swap1\n      pop\n      dup1\n      0x00\n      add\n      sload\n      swap1\n      dup1\n      0x01\n      add\n      dup1\n      sload\n      tag_86\n      swap1\n      tag_51\n      jump\t// in\n    tag_86:\n      dup1\n      0x1f\n      add\n      0x20\n      dup1\n      swap2\n      div\n      mul\n      0x20\n      add\n      mload(0x40)\n      swap1\n      dup2\n      add\n      0x40\n      mstore\n      dup1\n      swap3\n      swap2\n      swap1\n      dup2\n      dup2\n      mstore\n      0x20\n      add\n      dup3\n      dup1\n      sload\n      tag_87\n      swap1\n      tag_51\n      jump\t// in\n    tag_87:\n      dup1\n      iszero\n      tag_88\n      jumpi\n      dup1\n      0x1f\n      lt\n      tag_89\n      jumpi\n      0x0100\n      dup1\n      dup4\n      sload\n      div\n      mul\n      dup4\n      mstore\n      swap2\n      0x20\n      add\n      swap2\n      jump(tag_88)\n    tag_89:\n      dup3\n      add\n      swap2\n      swap1\n      0x00\n      mstore\n      keccak256(0x00, 0x20)\n      swap1\n    tag_90:\n      dup2\n      sload\n      dup2\n      mstore\n      swap1\n      0x01\n      add\n      swap1\n      0x20\n      add\n      dup1\n      dup4\n      gt\n      tag_90\n      jumpi\n      dup3\n      swap1\n      sub\n      0x1f\n      and\n      dup3\n      add\n      swap2\n    tag_88:\n      pop\n      pop\n      pop\n      pop\n      pop\n      swap1\n      dup1\n      0x02\n      add\n      dup1\n      sload\n      tag_91\n      swap1\n      tag_51\n      jump\t// in\n    tag_91:\n      dup1\n      0x1f\n      add\n      0x20\n      dup1\n      swap2\n      div\n      mul\n      0x20\n      add\n      mload(0x40)\n      swap1\n      dup2\n      add\n      0x40\n      mstore\n      dup1\n      swap3\n      swap2\n      swap1\n      dup2\n      dup2\n      mstore\n      0x20\n      add\n      dup3\n      dup1\n      sload\n      tag_92\n      swap1\n      tag_51\n      jump\t// in\n    tag_92:\n      dup1\n      iszero\n      tag_93\n      jumpi\n      dup1\n      0x1f\n      lt\n      tag_94\n      jumpi\n      0x0100\n      dup1\n      dup4\n      sload\n      div\n      mul\n      dup4\n      mstore\n      swap2\n      0x20\n      add\n      swap2\n      jump(tag_93)\n    tag_94:\n      dup3\n      add\n      swap2\n      swap1\n      0x00\n      mstore\n      keccak256(0x00, 0x20)\n      swap1\n    tag_95:\n      dup2\n      sload\n      dup2\n      mstore\n      swap1\n      0x01\n      add\n      swap1\n      0x20\n      add\n      dup1\n      dup4\n      gt\n      tag_95\n      jumpi\n      dup3\n      swap1\n      sub\n      0x1f\n      and\n      dup3\n      add\n      swap2\n    tag_93:\n      pop\n      pop\n      pop\n      pop\n      pop\n      swap1\n      dup1\n      0x03\n      add\n      dup1\n      sload\n      tag_96\n      swap1\n      tag_51\n      jump\t// in\n    tag_96:\n      dup1\n      0x1f\n      add\n      0x20\n      dup1\n      swap2\n      div\n      mul\n      0x20\n      add\n      mload(0x40)\n      swap1\n      dup2\n      add\n      0x40\n      mstore\n      dup1\n      swap3\n      swap2\n      swap1\n      dup2\n      dup2\n      mstore\n      0x20\n      add\n      dup3\n      dup1\n      sload\n      tag_97\n      swap1\n      tag_51\n      jump\t// in\n    tag_97:\n      dup1\n      iszero\n      tag_98\n      jumpi\n      dup1\n      0x1f\n      lt\n      tag_99\n      jumpi\n      0x0100\n      dup1\n      dup4\n      sload\n      div\n      mul\n      dup4\n      mstore\n      swap2\n      0x20\n      add\n      swap2\n      jump(tag_98)\n    tag_99:\n      dup3\n      add\n      swap2\n      swap1\n      0x00\n      mstore\n      keccak256(0x00, 0x20)\n      swap1\n    tag_100:\n      dup2\n      sload\n      dup2\n      mstore\n      swap1\n      0x01\n      add\n      swap1\n      0x20\n      add\n      dup1\n      dup4\n      gt\n      tag_100\n      jumpi\n      dup3\n      swap1\n      sub\n      0x1f\n      and\n      dup3\n      add\n      swap2\n    tag_98:\n      pop\n      pop\n      pop\n      pop\n      pop\n      swap1\n      dup1\n      0x04\n      add\n      sload\n      swap1\n      dup1\n      0x05\n      add\n      dup1\n      sload\n      tag_101\n      swap1\n      tag_51\n      jump\t// in\n    tag_101:\n      dup1\n      0x1f\n      add\n      0x20\n      dup1\n      swap2\n      div\n      mul\n      0x20\n      add\n      mload(0x40)\n      swap1\n      dup2\n      add\n      0x40\n      mstore\n      dup1\n      swap3\n      swap2\n      swap1\n      dup2\n      dup2\n      mstore\n      0x20\n      add\n      dup3\n      dup1\n      sload\n      tag_102\n      swap1\n      tag_51\n      jump\t// in\n    tag_102:\n      dup1\n      iszero\n      tag_103\n      jumpi\n      dup1\n      0x1f\n      lt\n      tag_104\n      jumpi\n      0x0100\n      dup1\n      dup4\n      sload\n      div\n      mul\n      dup4\n      mstore\n      swap2\n      0x20\n      add\n      swap2\n      jump(tag_103)\n    tag_104:\n      dup3\n      add\n      swap2\n      swap1\n      0x00\n      mstore\n      keccak256(0x00, 0x20)\n      swap1\n    tag_105:\n      dup2\n      sload\n      dup2\n      mstore\n      swap1\n      0x01\n      add\n      swap1\n      0x20\n      add\n      dup1\n      dup4\n      gt\n      tag_105\n      jumpi\n      dup3\n      swap1\n      sub\n      0x1f\n      and\n      dup3\n      add\n      swap2\n    tag_103:\n      pop\n      pop\n      pop\n      pop\n      pop\n      swap1\n      pop\n      dup7\n      jump\t// out\n        /* \"contracts/MedicalCert.sol\":5491:5615  function getMCCategory(bytes memory id) public view returns(certCategory) {... */\n    tag_26:\n        /* \"contracts/MedicalCert.sol\":5551:5563  certCategory */\n      0x00\n        /* \"contracts/MedicalCert.sol\":5582:5584  MC */\n      0x01\n        /* \"contracts/MedicalCert.sol\":5582:5599  MC[keccak256(id)] */\n      0x00\n        /* \"contracts/MedicalCert.sol\":5595:5597  id */\n      dup4\n        /* \"contracts/MedicalCert.sol\":5585:5598  keccak256(id) */\n      dup1\n      mload\n      swap1\n      0x20\n      add\n      keccak256\n        /* \"contracts/MedicalCert.sol\":5582:5599  MC[keccak256(id)] */\n      dup2\n      mstore\n      0x20\n      add\n      swap1\n      dup2\n      mstore\n      0x20\n      add\n      0x00\n      keccak256\n        /* \"contracts/MedicalCert.sol\":5582:5608  MC[keccak256(id)].incident */\n      0x08\n      add\n      0x00\n      swap1\n      sload\n      swap1\n      0x0100\n      exp\n      swap1\n      div\n      0xff\n      and\n        /* \"contracts/MedicalCert.sol\":5575:5608  return MC[keccak256(id)].incident */\n      swap1\n      pop\n        /* \"contracts/MedicalCert.sol\":5491:5615  function getMCCategory(bytes memory id) public view returns(certCategory) {... */\n      swap2\n      swap1\n      pop\n      jump\t// out\n        /* \"contracts/MedicalCert.sol\":3735:4185  function createPersonalInfo (string memory name, string memory NRIC, string memory sex, ... */\n    tag_32:\n        /* \"contracts/MedicalCert.sol\":3908:3915  uint256 */\n      0x00\n        /* \"contracts/MedicalCert.sol\":3927:3954  personalInfo storage person */\n      dup1\n        /* \"contracts/MedicalCert.sol\":3957:3962  infos */\n      0x02\n        /* \"contracts/MedicalCert.sol\":3957:3977  infos[numOfPeople++] */\n      0x00\n        /* \"contracts/MedicalCert.sol\":3963:3974  numOfPeople */\n      0x03\n      0x00\n        /* \"contracts/MedicalCert.sol\":3963:3976  numOfPeople++ */\n      dup2\n      sload\n      dup1\n      swap3\n      swap2\n      swap1\n      tag_108\n      swap1\n      tag_109\n      jump\t// in\n    tag_108:\n      swap2\n      swap1\n      pop\n      sstore\n        /* \"contracts/MedicalCert.sol\":3957:3977  infos[numOfPeople++] */\n      dup2\n      mstore\n      0x20\n      add\n      swap1\n      dup2\n      mstore\n      0x20\n      add\n      0x00\n      keccak256\n        /* \"contracts/MedicalCert.sol\":3927:3977  personalInfo storage person = infos[numOfPeople++] */\n      swap1\n      pop\n        /* \"contracts/MedicalCert.sol\":4001:4005  name */\n      dup7\n        /* \"contracts/MedicalCert.sol\":3987:3993  person */\n      dup2\n        /* \"contracts/MedicalCert.sol\":3987:3998  person.name */\n      0x01\n      add\n        /* \"contracts/MedicalCert.sol\":3987:4005  person.name = name */\n      swap1\n      dup1\n      mload\n      swap1\n      0x20\n      add\n      swap1\n      tag_110\n      swap3\n      swap2\n      swap1\n      tag_111\n      jump\t// in\n    tag_110:\n      pop\n        /* \"contracts/MedicalCert.sol\":4029:4033  NRIC */\n      dup6\n        /* \"contracts/MedicalCert.sol\":4015:4021  person */\n      dup2\n        /* \"contracts/MedicalCert.sol\":4015:4026  person.NRIC */\n      0x02\n      add\n        /* \"contracts/MedicalCert.sol\":4015:4033  person.NRIC = NRIC */\n      swap1\n      dup1\n      mload\n      swap1\n      0x20\n      add\n      swap1\n      tag_112\n      swap3\n      swap2\n      swap1\n      tag_111\n      jump\t// in\n    tag_112:\n      pop\n        /* \"contracts/MedicalCert.sol\":4056:4059  sex */\n      dup5\n        /* \"contracts/MedicalCert.sol\":4043:4049  person */\n      dup2\n        /* \"contracts/MedicalCert.sol\":4043:4053  person.sex */\n      0x03\n      add\n        /* \"contracts/MedicalCert.sol\":4043:4059  person.sex = sex */\n      swap1\n      dup1\n      mload\n      swap1\n      0x20\n      add\n      swap1\n      tag_113\n      swap3\n      swap2\n      swap1\n      tag_111\n      jump\t// in\n    tag_113:\n      pop\n        /* \"contracts/MedicalCert.sol\":4088:4097  birthdate */\n      dup4\n        /* \"contracts/MedicalCert.sol\":4069:4075  person */\n      dup2\n        /* \"contracts/MedicalCert.sol\":4069:4085  person.birthdate */\n      0x04\n      add\n        /* \"contracts/MedicalCert.sol\":4069:4097  person.birthdate = birthdate */\n      dup2\n      swap1\n      sstore\n      pop\n        /* \"contracts/MedicalCert.sol\":4133:4149  race_nationality */\n      dup3\n        /* \"contracts/MedicalCert.sol\":4107:4113  person */\n      dup2\n        /* \"contracts/MedicalCert.sol\":4107:4130  person.race_nationality */\n      0x05\n      add\n        /* \"contracts/MedicalCert.sol\":4107:4149  person.race_nationality = race_nationality */\n      swap1\n      dup1\n      mload\n      swap1\n      0x20\n      add\n      swap1\n      tag_114\n      swap3\n      swap2\n      swap1\n      tag_111\n      jump\t// in\n    tag_114:\n      pop\n        /* \"contracts/MedicalCert.sol\":4167:4178  numOfPeople */\n      sload(0x03)\n        /* \"contracts/MedicalCert.sol\":4160:4178  return numOfPeople */\n      swap2\n      pop\n      pop\n        /* \"contracts/MedicalCert.sol\":3735:4185  function createPersonalInfo (string memory name, string memory NRIC, string memory sex, ... */\n      swap6\n      swap5\n      pop\n      pop\n      pop\n      pop\n      pop\n      jump\t// out\n        /* \"contracts/MedicalCert.sol\":4238:4925  function add(uint256 hospital, uint256 personId,... */\n    tag_38:\n        /* \"contracts/MedicalCert.sol\":4424:4436  bytes memory */\n      0x60\n        /* \"contracts/MedicalCert.sol\":4448:4463  bytes memory id */\n      0x00\n        /* \"contracts/MedicalCert.sol\":4483:4490  counter */\n      dup1\n      sload\n        /* \"contracts/MedicalCert.sol\":4492:4500  personId */\n      dup7\n        /* \"contracts/MedicalCert.sol\":4466:4501  abi.encodePacked(counter, personId) */\n      add(0x20, mload(0x40))\n      tag_116\n      swap3\n      swap2\n      swap1\n      tag_117\n      jump\t// in\n    tag_116:\n      mload(0x40)\n      0x20\n      dup2\n      dup4\n      sub\n      sub\n      dup2\n      mstore\n      swap1\n      0x40\n      mstore\n        /* \"contracts/MedicalCert.sol\":4448:4501  bytes memory id = abi.encodePacked(counter, personId) */\n      swap1\n      pop\n        /* \"contracts/MedicalCert.sol\":4511:4532  medicalCert memory mc */\n      0x00\n        /* \"contracts/MedicalCert.sol\":4535:4773  medicalCert(... */\n      mload(0x40)\n      dup1\n      0xc0\n      add\n      0x40\n      mstore\n      dup1\n        /* \"contracts/MedicalCert.sol\":4560:4562  id */\n      dup4\n        /* \"contracts/MedicalCert.sol\":4535:4773  medicalCert(... */\n      dup2\n      mstore\n      0x20\n      add\n        /* \"contracts/MedicalCert.sol\":4577:4585  hospital */\n      dup10\n        /* \"contracts/MedicalCert.sol\":4535:4773  medicalCert(... */\n      dup2\n      mstore\n      0x20\n      add\n        /* \"contracts/MedicalCert.sol\":4599:4604  infos */\n      0x02\n        /* \"contracts/MedicalCert.sol\":4599:4614  infos[personId] */\n      0x00\n        /* \"contracts/MedicalCert.sol\":4605:4613  personId */\n      dup11\n        /* \"contracts/MedicalCert.sol\":4599:4614  infos[personId] */\n      dup2\n      mstore\n      0x20\n      add\n      swap1\n      dup2\n      mstore\n      0x20\n      add\n      0x00\n      keccak256\n        /* \"contracts/MedicalCert.sol\":4535:4773  medicalCert(... */\n      mload(0x40)\n      dup1\n      0xc0\n      add\n      0x40\n      mstore\n      swap1\n      dup2\n      0x00\n      dup3\n      add\n      sload\n      dup2\n      mstore\n      0x20\n      add\n      0x01\n      dup3\n      add\n      dup1\n      sload\n      tag_118\n      swap1\n      tag_51\n      jump\t// in\n    tag_118:\n      dup1\n      0x1f\n      add\n      0x20\n      dup1\n      swap2\n      div\n      mul\n      0x20\n      add\n      mload(0x40)\n      swap1\n      dup2\n      add\n      0x40\n      mstore\n      dup1\n      swap3\n      swap2\n      swap1\n      dup2\n      dup2\n      mstore\n      0x20\n      add\n      dup3\n      dup1\n      sload\n      tag_119\n      swap1\n      tag_51\n      jump\t// in\n    tag_119:\n      dup1\n      iszero\n      tag_120\n      jumpi\n      dup1\n      0x1f\n      lt\n      tag_121\n      jumpi\n      0x0100\n      dup1\n      dup4\n      sload\n      div\n      mul\n      dup4\n      mstore\n      swap2\n      0x20\n      add\n      swap2\n      jump(tag_120)\n    tag_121:\n      dup3\n      add\n      swap2\n      swap1\n      0x00\n      mstore\n      keccak256(0x00, 0x20)\n      swap1\n    tag_122:\n      dup2\n      sload\n      dup2\n      mstore\n      swap1\n      0x01\n      add\n      swap1\n      0x20\n      add\n      dup1\n      dup4\n      gt\n      tag_122\n      jumpi\n      dup3\n      swap1\n      sub\n      0x1f\n      and\n      dup3\n      add\n      swap2\n    tag_120:\n      pop\n      pop\n      pop\n      pop\n      pop\n      dup2\n      mstore\n      0x20\n      add\n      0x02\n      dup3\n      add\n      dup1\n      sload\n      tag_123\n      swap1\n      tag_51\n      jump\t// in\n    tag_123:\n      dup1\n      0x1f\n      add\n      0x20\n      dup1\n      swap2\n      div\n      mul\n      0x20\n      add\n      mload(0x40)\n      swap1\n      dup2\n      add\n      0x40\n      mstore\n      dup1\n      swap3\n      swap2\n      swap1\n      dup2\n      dup2\n      mstore\n      0x20\n      add\n      dup3\n      dup1\n      sload\n      tag_124\n      swap1\n      tag_51\n      jump\t// in\n    tag_124:\n      dup1\n      iszero\n      tag_125\n      jumpi\n      dup1\n      0x1f\n      lt\n      tag_126\n      jumpi\n      0x0100\n      dup1\n      dup4\n      sload\n      div\n      mul\n      dup4\n      mstore\n      swap2\n      0x20\n      add\n      swap2\n      jump(tag_125)\n    tag_126:\n      dup3\n      add\n      swap2\n      swap1\n      0x00\n      mstore\n      keccak256(0x00, 0x20)\n      swap1\n    tag_127:\n      dup2\n      sload\n      dup2\n      mstore\n      swap1\n      0x01\n      add\n      swap1\n      0x20\n      add\n      dup1\n      dup4\n      gt\n      tag_127\n      jumpi\n      dup3\n      swap1\n      sub\n      0x1f\n      and\n      dup3\n      add\n      swap2\n    tag_125:\n      pop\n      pop\n      pop\n      pop\n      pop\n      dup2\n      mstore\n      0x20\n      add\n      0x03\n      dup3\n      add\n      dup1\n      sload\n      tag_128\n      swap1\n      tag_51\n      jump\t// in\n    tag_128:\n      dup1\n      0x1f\n      add\n      0x20\n      dup1\n      swap2\n      div\n      mul\n      0x20\n      add\n      mload(0x40)\n      swap1\n      dup2\n      add\n      0x40\n      mstore\n      dup1\n      swap3\n      swap2\n      swap1\n      dup2\n      dup2\n      mstore\n      0x20\n      add\n      dup3\n      dup1\n      sload\n      tag_129\n      swap1\n      tag_51\n      jump\t// in\n    tag_129:\n      dup1\n      iszero\n      tag_130\n      jumpi\n      dup1\n      0x1f\n      lt\n      tag_131\n      jumpi\n      0x0100\n      dup1\n      dup4\n      sload\n      div\n      mul\n      dup4\n      mstore\n      swap2\n      0x20\n      add\n      swap2\n      jump(tag_130)\n    tag_131:\n      dup3\n      add\n      swap2\n      swap1\n      0x00\n      mstore\n      keccak256(0x00, 0x20)\n      swap1\n    tag_132:\n      dup2\n      sload\n      dup2\n      mstore\n      swap1\n      0x01\n      add\n      swap1\n      0x20\n      add\n      dup1\n      dup4\n      gt\n      tag_132\n      jumpi\n      dup3\n      swap1\n      sub\n      0x1f\n      and\n      dup3\n      add\n      swap2\n    tag_130:\n      pop\n      pop\n      pop\n      pop\n      pop\n      dup2\n      mstore\n      0x20\n      add\n      0x04\n      dup3\n      add\n      sload\n      dup2\n      mstore\n      0x20\n      add\n      0x05\n      dup3\n      add\n      dup1\n      sload\n      tag_133\n      swap1\n      tag_51\n      jump\t// in\n    tag_133:\n      dup1\n      0x1f\n      add\n      0x20\n      dup1\n      swap2\n      div\n      mul\n      0x20\n      add\n      mload(0x40)\n      swap1\n      dup2\n      add\n      0x40\n      mstore\n      dup1\n      swap3\n      swap2\n      swap1\n      dup2\n      dup2\n      mstore\n      0x20\n      add\n      dup3\n      dup1\n      sload\n      tag_134\n      swap1\n      tag_51\n      jump\t// in\n    tag_134:\n      dup1\n      iszero\n      tag_135\n      jumpi\n      dup1\n      0x1f\n      lt\n      tag_136\n      jumpi\n      0x0100\n      dup1\n      dup4\n      sload\n      div\n      mul\n      dup4\n      mstore\n      swap2\n      0x20\n      add\n      swap2\n      jump(tag_135)\n    tag_136:\n      dup3\n      add\n      swap2\n      swap1\n      0x00\n      mstore\n      keccak256(0x00, 0x20)\n      swap1\n    tag_137:\n      dup2\n      sload\n      dup2\n      mstore\n      swap1\n      0x01\n      add\n      swap1\n      0x20\n      add\n      dup1\n      dup4\n      gt\n      tag_137\n      jumpi\n      dup3\n      swap1\n      sub\n      0x1f\n      and\n      dup3\n      add\n      swap2\n    tag_135:\n      pop\n      pop\n      pop\n      pop\n      pop\n      dup2\n      mstore\n      pop\n      pop\n      dup2\n      mstore\n      0x20\n      add\n        /* \"contracts/MedicalCert.sol\":4628:4640  incidentType */\n      dup8\n        /* \"contracts/MedicalCert.sol\":4535:4773  medicalCert(... */\n      0x02\n      dup2\n      gt\n      iszero\n      tag_138\n      jumpi\n      tag_139\n      tag_140\n      jump\t// in\n    tag_139:\n    tag_138:\n      dup2\n      mstore\n      0x20\n      add\n        /* \"contracts/MedicalCert.sol\":4654:4674  incidentYYYYMMDDHHMM */\n      dup7\n        /* \"contracts/MedicalCert.sol\":4535:4773  medicalCert(... */\n      dup2\n      mstore\n      0x20\n      add\n        /* \"contracts/MedicalCert.sol\":4688:4698  titleNname */\n      dup6\n        /* \"contracts/MedicalCert.sol\":4535:4773  medicalCert(... */\n      dup2\n      mstore\n      pop\n        /* \"contracts/MedicalCert.sol\":4511:4773  medicalCert memory mc = medicalCert(... */\n      swap1\n      pop\n        /* \"contracts/MedicalCert.sol\":4821:4823  mc */\n      dup1\n        /* \"contracts/MedicalCert.sol\":4801:4803  MC */\n      0x01\n        /* \"contracts/MedicalCert.sol\":4801:4818  MC[keccak256(id)] */\n      0x00\n        /* \"contracts/MedicalCert.sol\":4814:4816  id */\n      dup5\n        /* \"contracts/MedicalCert.sol\":4804:4817  keccak256(id) */\n      dup1\n      mload\n      swap1\n      0x20\n      add\n      keccak256\n        /* \"contracts/MedicalCert.sol\":4801:4818  MC[keccak256(id)] */\n      dup2\n      mstore\n      0x20\n      add\n      swap1\n      dup2\n      mstore\n      0x20\n      add\n      0x00\n      keccak256\n        /* \"contracts/MedicalCert.sol\":4801:4823  MC[keccak256(id)] = mc */\n      0x00\n      dup3\n      add\n      mload\n      dup2\n      0x00\n      add\n      swap1\n      dup1\n      mload\n      swap1\n      0x20\n      add\n      swap1\n      tag_141\n      swap3\n      swap2\n      swap1\n      tag_142\n      jump\t// in\n    tag_141:\n      pop\n      0x20\n      dup3\n      add\n      mload\n      dup2\n      0x01\n      add\n      sstore\n      0x40\n      dup3\n      add\n      mload\n      dup2\n      0x02\n      add\n      0x00\n      dup3\n      add\n      mload\n      dup2\n      0x00\n      add\n      sstore\n      0x20\n      dup3\n      add\n      mload\n      dup2\n      0x01\n      add\n      swap1\n      dup1\n      mload\n      swap1\n      0x20\n      add\n      swap1\n      tag_143\n      swap3\n      swap2\n      swap1\n      tag_111\n      jump\t// in\n    tag_143:\n      pop\n      0x40\n      dup3\n      add\n      mload\n      dup2\n      0x02\n      add\n      swap1\n      dup1\n      mload\n      swap1\n      0x20\n      add\n      swap1\n      tag_144\n      swap3\n      swap2\n      swap1\n      tag_111\n      jump\t// in\n    tag_144:\n      pop\n      0x60\n      dup3\n      add\n      mload\n      dup2\n      0x03\n      add\n      swap1\n      dup1\n      mload\n      swap1\n      0x20\n      add\n      swap1\n      tag_145\n      swap3\n      swap2\n      swap1\n      tag_111\n      jump\t// in\n    tag_145:\n      pop\n      0x80\n      dup3\n      add\n      mload\n      dup2\n      0x04\n      add\n      sstore\n      0xa0\n      dup3\n      add\n      mload\n      dup2\n      0x05\n      add\n      swap1\n      dup1\n      mload\n      swap1\n      0x20\n      add\n      swap1\n      tag_146\n      swap3\n      swap2\n      swap1\n      tag_111\n      jump\t// in\n    tag_146:\n      pop\n      pop\n      pop\n      0x60\n      dup3\n      add\n      mload\n      dup2\n      0x08\n      add\n      exp(0x0100, 0x00)\n      dup2\n      sload\n      dup2\n      0xff\n      mul\n      not\n      and\n      swap1\n      dup4\n      0x02\n      dup2\n      gt\n      iszero\n      tag_147\n      jumpi\n      tag_148\n      tag_140\n      jump\t// in\n    tag_148:\n    tag_147:\n      mul\n      or\n      swap1\n      sstore\n      pop\n      0x80\n      dup3\n      add\n      mload\n      dup2\n      0x09\n      add\n      swap1\n      dup1\n      mload\n      swap1\n      0x20\n      add\n      swap1\n      tag_149\n      swap3\n      swap2\n      swap1\n      tag_111\n      jump\t// in\n    tag_149:\n      pop\n      0xa0\n      dup3\n      add\n      mload\n      dup2\n      0x0a\n      add\n      swap1\n      dup1\n      mload\n      swap1\n      0x20\n      add\n      swap1\n      tag_150\n      swap3\n      swap2\n      swap1\n      tag_111\n      jump\t// in\n    tag_150:\n      pop\n      swap1\n      pop\n      pop\n        /* \"contracts/MedicalCert.sol\":4839:4857  mcCreated(counter) */\n      0x08b2c200b5f16565b86d1596988527109771ff8ed118f330cca9ee70d6ba9a16\n        /* \"contracts/MedicalCert.sol\":4849:4856  counter */\n      sload(0x00)\n        /* \"contracts/MedicalCert.sol\":4839:4857  mcCreated(counter) */\n      mload(0x40)\n      tag_151\n      swap2\n      swap1\n      tag_34\n      jump\t// in\n    tag_151:\n      mload(0x40)\n      dup1\n      swap2\n      sub\n      swap1\n      log1\n        /* \"contracts/MedicalCert.sol\":4888:4889  1 */\n      0x01\n        /* \"contracts/MedicalCert.sol\":4878:4885  counter */\n      sload(0x00)\n        /* \"contracts/MedicalCert.sol\":4878:4889  counter + 1 */\n      tag_152\n      swap2\n      swap1\n      tag_153\n      jump\t// in\n    tag_152:\n        /* \"contracts/MedicalCert.sol\":4868:4875  counter */\n      0x00\n        /* \"contracts/MedicalCert.sol\":4868:4889  counter = counter + 1 */\n      dup2\n      swap1\n      sstore\n      pop\n        /* \"contracts/MedicalCert.sol\":4907:4909  id */\n      dup2\n        /* \"contracts/MedicalCert.sol\":4900:4909  return id */\n      swap3\n      pop\n      pop\n      pop\n        /* \"contracts/MedicalCert.sol\":4238:4925  function add(uint256 hospital, uint256 personId,... */\n      swap6\n      swap5\n      pop\n      pop\n      pop\n      pop\n      pop\n      jump\t// out\n        /* \"contracts/MedicalCert.sol\":5354:5485  function getMCNRIC(bytes memory id) public view returns(string memory) {... */\n    tag_43:\n        /* \"contracts/MedicalCert.sol\":5410:5423  string memory */\n      0x60\n        /* \"contracts/MedicalCert.sol\":5442:5444  MC */\n      0x01\n        /* \"contracts/MedicalCert.sol\":5442:5459  MC[keccak256(id)] */\n      0x00\n        /* \"contracts/MedicalCert.sol\":5455:5457  id */\n      dup4\n        /* \"contracts/MedicalCert.sol\":5445:5458  keccak256(id) */\n      dup1\n      mload\n      swap1\n      0x20\n      add\n      keccak256\n        /* \"contracts/MedicalCert.sol\":5442:5459  MC[keccak256(id)] */\n      dup2\n      mstore\n      0x20\n      add\n      swap1\n      dup2\n      mstore\n      0x20\n      add\n      0x00\n      keccak256\n        /* \"contracts/MedicalCert.sol\":5442:5473  MC[keccak256(id)].personal_info */\n      0x02\n      add\n        /* \"contracts/MedicalCert.sol\":5442:5478  MC[keccak256(id)].personal_info.NRIC */\n      0x02\n      add\n        /* \"contracts/MedicalCert.sol\":5435:5478  return MC[keccak256(id)].personal_info.NRIC */\n      dup1\n      sload\n      tag_155\n      swap1\n      tag_51\n      jump\t// in\n    tag_155:\n      dup1\n      0x1f\n      add\n      0x20\n      dup1\n      swap2\n      div\n      mul\n      0x20\n      add\n      mload(0x40)\n      swap1\n      dup2\n      add\n      0x40\n      mstore\n      dup1\n      swap3\n      swap2\n      swap1\n      dup2\n      dup2\n      mstore\n      0x20\n      add\n      dup3\n      dup1\n      sload\n      tag_156\n      swap1\n      tag_51\n      jump\t// in\n    tag_156:\n      dup1\n      iszero\n      tag_157\n      jumpi\n      dup1\n      0x1f\n      lt\n      tag_158\n      jumpi\n      0x0100\n      dup1\n      dup4\n      sload\n      div\n      mul\n      dup4\n      mstore\n      swap2\n      0x20\n      add\n      swap2\n      jump(tag_157)\n    tag_158:\n      dup3\n      add\n      swap2\n      swap1\n      0x00\n      mstore\n      keccak256(0x00, 0x20)\n      swap1\n    tag_159:\n      dup2\n      sload\n      dup2\n      mstore\n      swap1\n      0x01\n      add\n      swap1\n      0x20\n      add\n      dup1\n      dup4\n      gt\n      tag_159\n      jumpi\n      dup3\n      swap1\n      sub\n      0x1f\n      and\n      dup3\n      add\n      swap2\n    tag_157:\n      pop\n      pop\n      pop\n      pop\n      pop\n      swap1\n      pop\n        /* \"contracts/MedicalCert.sol\":5354:5485  function getMCNRIC(bytes memory id) public view returns(string memory) {... */\n      swap2\n      swap1\n      pop\n      jump\t// out\n        /* \"contracts/MedicalCert.sol\":5217:5348  function getMCName(bytes memory id) public view returns(string memory) {... */\n    tag_48:\n        /* \"contracts/MedicalCert.sol\":5273:5286  string memory */\n      0x60\n        /* \"contracts/MedicalCert.sol\":5305:5307  MC */\n      0x01\n        /* \"contracts/MedicalCert.sol\":5305:5322  MC[keccak256(id)] */\n      0x00\n        /* \"contracts/MedicalCert.sol\":5318:5320  id */\n      dup4\n        /* \"contracts/MedicalCert.sol\":5308:5321  keccak256(id) */\n      dup1\n      mload\n      swap1\n      0x20\n      add\n      keccak256\n        /* \"contracts/MedicalCert.sol\":5305:5322  MC[keccak256(id)] */\n      dup2\n      mstore\n      0x20\n      add\n      swap1\n      dup2\n      mstore\n      0x20\n      add\n      0x00\n      keccak256\n        /* \"contracts/MedicalCert.sol\":5305:5336  MC[keccak256(id)].personal_info */\n      0x02\n      add\n        /* \"contracts/MedicalCert.sol\":5305:5341  MC[keccak256(id)].personal_info.name */\n      0x01\n      add\n        /* \"contracts/MedicalCert.sol\":5298:5341  return MC[keccak256(id)].personal_info.name */\n      dup1\n      sload\n      tag_161\n      swap1\n      tag_51\n      jump\t// in\n    tag_161:\n      dup1\n      0x1f\n      add\n      0x20\n      dup1\n      swap2\n      div\n      mul\n      0x20\n      add\n      mload(0x40)\n      swap1\n      dup2\n      add\n      0x40\n      mstore\n      dup1\n      swap3\n      swap2\n      swap1\n      dup2\n      dup2\n      mstore\n      0x20\n      add\n      dup3\n      dup1\n      sload\n      tag_162\n      swap1\n      tag_51\n      jump\t// in\n    tag_162:\n      dup1\n      iszero\n      tag_163\n      jumpi\n      dup1\n      0x1f\n      lt\n      tag_164\n      jumpi\n      0x0100\n      dup1\n      dup4\n      sload\n      div\n      mul\n      dup4\n      mstore\n      swap2\n      0x20\n      add\n      swap2\n      jump(tag_163)\n    tag_164:\n      dup3\n      add\n      swap2\n      swap1\n      0x00\n      mstore\n      keccak256(0x00, 0x20)\n      swap1\n    tag_165:\n      dup2\n      sload\n      dup2\n      mstore\n      swap1\n      0x01\n      add\n      swap1\n      0x20\n      add\n      dup1\n      dup4\n      gt\n      tag_165\n      jumpi\n      dup3\n      swap1\n      sub\n      0x1f\n      and\n      dup3\n      add\n      swap2\n    tag_163:\n      pop\n      pop\n      pop\n      pop\n      pop\n      swap1\n      pop\n        /* \"contracts/MedicalCert.sol\":5217:5348  function getMCName(bytes memory id) public view returns(string memory) {... */\n      swap2\n      swap1\n      pop\n      jump\t// out\n    tag_111:\n      dup3\n      dup1\n      sload\n      tag_166\n      swap1\n      tag_51\n      jump\t// in\n    tag_166:\n      swap1\n      0x00\n      mstore\n      keccak256(0x00, 0x20)\n      swap1\n      0x1f\n      add\n      0x20\n      swap1\n      div\n      dup2\n      add\n      swap3\n      dup3\n      tag_168\n      jumpi\n      0x00\n      dup6\n      sstore\n      jump(tag_167)\n    tag_168:\n      dup3\n      0x1f\n      lt\n      tag_169\n      jumpi\n      dup1\n      mload\n      not(0xff)\n      and\n      dup4\n      dup1\n      add\n      or\n      dup6\n      sstore\n      jump(tag_167)\n    tag_169:\n      dup3\n      dup1\n      add\n      0x01\n      add\n      dup6\n      sstore\n      dup3\n      iszero\n      tag_167\n      jumpi\n      swap2\n      dup3\n      add\n    tag_170:\n      dup3\n      dup2\n      gt\n      iszero\n      tag_171\n      jumpi\n      dup3\n      mload\n      dup3\n      sstore\n      swap2\n      0x20\n      add\n      swap2\n      swap1\n      0x01\n      add\n      swap1\n      jump(tag_170)\n    tag_171:\n    tag_167:\n      pop\n      swap1\n      pop\n      tag_172\n      swap2\n      swap1\n      tag_173\n      jump\t// in\n    tag_172:\n      pop\n      swap1\n      jump\t// out\n    tag_142:\n      dup3\n      dup1\n      sload\n      tag_174\n      swap1\n      tag_51\n      jump\t// in\n    tag_174:\n      swap1\n      0x00\n      mstore\n      keccak256(0x00, 0x20)\n      swap1\n      0x1f\n      add\n      0x20\n      swap1\n      div\n      dup2\n      add\n      swap3\n      dup3\n      tag_176\n      jumpi\n      0x00\n      dup6\n      sstore\n      jump(tag_175)\n    tag_176:\n      dup3\n      0x1f\n      lt\n      tag_177\n      jumpi\n      dup1\n      mload\n      not(0xff)\n      and\n      dup4\n      dup1\n      add\n      or\n      dup6\n      sstore\n      jump(tag_175)\n    tag_177:\n      dup3\n      dup1\n      add\n      0x01\n      add\n      dup6\n      sstore\n      dup3\n      iszero\n      tag_175\n      jumpi\n      swap2\n      dup3\n      add\n    tag_178:\n      dup3\n      dup2\n      gt\n      iszero\n      tag_179\n      jumpi\n      dup3\n      mload\n      dup3\n      sstore\n      swap2\n      0x20\n      add\n      swap2\n      swap1\n      0x01\n      add\n      swap1\n      jump(tag_178)\n    tag_179:\n    tag_175:\n      pop\n      swap1\n      pop\n      tag_180\n      swap2\n      swap1\n      tag_173\n      jump\t// in\n    tag_180:\n      pop\n      swap1\n      jump\t// out\n    tag_173:\n    tag_181:\n      dup1\n      dup3\n      gt\n      iszero\n      tag_182\n      jumpi\n      0x00\n      dup2\n      0x00\n      swap1\n      sstore\n      pop\n      0x01\n      add\n      jump(tag_181)\n    tag_182:\n      pop\n      swap1\n      jump\t// out\n        /* \"#utility.yul\":7:82   */\n    tag_183:\n        /* \"#utility.yul\":40:46   */\n      0x00\n        /* \"#utility.yul\":73:75   */\n      0x40\n        /* \"#utility.yul\":67:76   */\n      mload\n        /* \"#utility.yul\":57:76   */\n      swap1\n      pop\n        /* \"#utility.yul\":7:82   */\n      swap1\n      jump\t// out\n        /* \"#utility.yul\":88:205   */\n    tag_184:\n        /* \"#utility.yul\":197:198   */\n      0x00\n        /* \"#utility.yul\":194:195   */\n      dup1\n        /* \"#utility.yul\":187:199   */\n      revert\n        /* \"#utility.yul\":211:328   */\n    tag_185:\n        /* \"#utility.yul\":320:321   */\n      0x00\n        /* \"#utility.yul\":317:318   */\n      dup1\n        /* \"#utility.yul\":310:322   */\n      revert\n        /* \"#utility.yul\":334:411   */\n    tag_186:\n        /* \"#utility.yul\":371:378   */\n      0x00\n        /* \"#utility.yul\":400:405   */\n      dup2\n        /* \"#utility.yul\":389:405   */\n      swap1\n      pop\n        /* \"#utility.yul\":334:411   */\n      swap2\n      swap1\n      pop\n      jump\t// out\n        /* \"#utility.yul\":417:539   */\n    tag_187:\n        /* \"#utility.yul\":490:514   */\n      tag_233\n        /* \"#utility.yul\":508:513   */\n      dup2\n        /* \"#utility.yul\":490:514   */\n      tag_186\n      jump\t// in\n    tag_233:\n        /* \"#utility.yul\":483:488   */\n      dup2\n        /* \"#utility.yul\":480:515   */\n      eq\n        /* \"#utility.yul\":470:533   */\n      tag_234\n      jumpi\n        /* \"#utility.yul\":529:530   */\n      0x00\n        /* \"#utility.yul\":526:527   */\n      dup1\n        /* \"#utility.yul\":519:531   */\n      revert\n        /* \"#utility.yul\":470:533   */\n    tag_234:\n        /* \"#utility.yul\":417:539   */\n      pop\n      jump\t// out\n        /* \"#utility.yul\":545:684   */\n    tag_188:\n        /* \"#utility.yul\":591:596   */\n      0x00\n        /* \"#utility.yul\":629:635   */\n      dup2\n        /* \"#utility.yul\":616:636   */\n      calldataload\n        /* \"#utility.yul\":607:636   */\n      swap1\n      pop\n        /* \"#utility.yul\":645:678   */\n      tag_236\n        /* \"#utility.yul\":672:677   */\n      dup2\n        /* \"#utility.yul\":645:678   */\n      tag_187\n      jump\t// in\n    tag_236:\n        /* \"#utility.yul\":545:684   */\n      swap3\n      swap2\n      pop\n      pop\n      jump\t// out\n        /* \"#utility.yul\":690:1019   */\n    tag_13:\n        /* \"#utility.yul\":749:755   */\n      0x00\n        /* \"#utility.yul\":798:800   */\n      0x20\n        /* \"#utility.yul\":786:795   */\n      dup3\n        /* \"#utility.yul\":777:784   */\n      dup5\n        /* \"#utility.yul\":773:796   */\n      sub\n        /* \"#utility.yul\":769:801   */\n      slt\n        /* \"#utility.yul\":766:885   */\n      iszero\n      tag_238\n      jumpi\n        /* \"#utility.yul\":804:883   */\n      tag_239\n      tag_184\n      jump\t// in\n    tag_239:\n        /* \"#utility.yul\":766:885   */\n    tag_238:\n        /* \"#utility.yul\":924:925   */\n      0x00\n        /* \"#utility.yul\":949:1002   */\n      tag_240\n        /* \"#utility.yul\":994:1001   */\n      dup5\n        /* \"#utility.yul\":985:991   */\n      dup3\n        /* \"#utility.yul\":974:983   */\n      dup6\n        /* \"#utility.yul\":970:992   */\n      add\n        /* \"#utility.yul\":949:1002   */\n      tag_188\n      jump\t// in\n    tag_240:\n        /* \"#utility.yul\":939:1002   */\n      swap2\n      pop\n        /* \"#utility.yul\":895:1012   */\n      pop\n        /* \"#utility.yul\":690:1019   */\n      swap3\n      swap2\n      pop\n      pop\n      jump\t// out\n        /* \"#utility.yul\":1025:1123   */\n    tag_189:\n        /* \"#utility.yul\":1076:1082   */\n      0x00\n        /* \"#utility.yul\":1110:1115   */\n      dup2\n        /* \"#utility.yul\":1104:1116   */\n      mload\n        /* \"#utility.yul\":1094:1116   */\n      swap1\n      pop\n        /* \"#utility.yul\":1025:1123   */\n      swap2\n      swap1\n      pop\n      jump\t// out\n        /* \"#utility.yul\":1129:1297   */\n    tag_190:\n        /* \"#utility.yul\":1212:1223   */\n      0x00\n        /* \"#utility.yul\":1246:1252   */\n      dup3\n        /* \"#utility.yul\":1241:1244   */\n      dup3\n        /* \"#utility.yul\":1234:1253   */\n      mstore\n        /* \"#utility.yul\":1286:1290   */\n      0x20\n        /* \"#utility.yul\":1281:1284   */\n      dup3\n        /* \"#utility.yul\":1277:1291   */\n      add\n        /* \"#utility.yul\":1262:1291   */\n      swap1\n      pop\n        /* \"#utility.yul\":1129:1297   */\n      swap3\n      swap2\n      pop\n      pop\n      jump\t// out\n        /* \"#utility.yul\":1303:1610   */\n    tag_191:\n        /* \"#utility.yul\":1371:1372   */\n      0x00\n        /* \"#utility.yul\":1381:1494   */\n    tag_244:\n        /* \"#utility.yul\":1395:1401   */\n      dup4\n        /* \"#utility.yul\":1392:1393   */\n      dup2\n        /* \"#utility.yul\":1389:1402   */\n      lt\n        /* \"#utility.yul\":1381:1494   */\n      iszero\n      tag_246\n      jumpi\n        /* \"#utility.yul\":1480:1481   */\n      dup1\n        /* \"#utility.yul\":1475:1478   */\n      dup3\n        /* \"#utility.yul\":1471:1482   */\n      add\n        /* \"#utility.yul\":1465:1483   */\n      mload\n        /* \"#utility.yul\":1461:1462   */\n      dup2\n        /* \"#utility.yul\":1456:1459   */\n      dup5\n        /* \"#utility.yul\":1452:1463   */\n      add\n        /* \"#utility.yul\":1445:1484   */\n      mstore\n        /* \"#utility.yul\":1417:1419   */\n      0x20\n        /* \"#utility.yul\":1414:1415   */\n      dup2\n        /* \"#utility.yul\":1410:1420   */\n      add\n        /* \"#utility.yul\":1405:1420   */\n      swap1\n      pop\n        /* \"#utility.yul\":1381:1494   */\n      jump(tag_244)\n    tag_246:\n        /* \"#utility.yul\":1512:1518   */\n      dup4\n        /* \"#utility.yul\":1509:1510   */\n      dup2\n        /* \"#utility.yul\":1506:1519   */\n      gt\n        /* \"#utility.yul\":1503:1604   */\n      iszero\n      tag_247\n      jumpi\n        /* \"#utility.yul\":1592:1593   */\n      0x00\n        /* \"#utility.yul\":1583:1589   */\n      dup5\n        /* \"#utility.yul\":1578:1581   */\n      dup5\n        /* \"#utility.yul\":1574:1590   */\n      add\n        /* \"#utility.yul\":1567:1594   */\n      mstore\n        /* \"#utility.yul\":1503:1604   */\n    tag_247:\n        /* \"#utility.yul\":1352:1610   */\n      pop\n        /* \"#utility.yul\":1303:1610   */\n      pop\n      pop\n      pop\n      jump\t// out\n        /* \"#utility.yul\":1616:1718   */\n    tag_192:\n        /* \"#utility.yul\":1657:1663   */\n      0x00\n        /* \"#utility.yul\":1708:1710   */\n      0x1f\n        /* \"#utility.yul\":1704:1711   */\n      not\n        /* \"#utility.yul\":1699:1701   */\n      0x1f\n        /* \"#utility.yul\":1692:1697   */\n      dup4\n        /* \"#utility.yul\":1688:1702   */\n      add\n        /* \"#utility.yul\":1684:1712   */\n      and\n        /* \"#utility.yul\":1674:1712   */\n      swap1\n      pop\n        /* \"#utility.yul\":1616:1718   */\n      swap2\n      swap1\n      pop\n      jump\t// out\n        /* \"#utility.yul\":1724:2084   */\n    tag_193:\n        /* \"#utility.yul\":1810:1813   */\n      0x00\n        /* \"#utility.yul\":1838:1876   */\n      tag_250\n        /* \"#utility.yul\":1870:1875   */\n      dup3\n        /* \"#utility.yul\":1838:1876   */\n      tag_189\n      jump\t// in\n    tag_250:\n        /* \"#utility.yul\":1892:1962   */\n      tag_251\n        /* \"#utility.yul\":1955:1961   */\n      dup2\n        /* \"#utility.yul\":1950:1953   */\n      dup6\n        /* \"#utility.yul\":1892:1962   */\n      tag_190\n      jump\t// in\n    tag_251:\n        /* \"#utility.yul\":1885:1962   */\n      swap4\n      pop\n        /* \"#utility.yul\":1971:2023   */\n      tag_252\n        /* \"#utility.yul\":2016:2022   */\n      dup2\n        /* \"#utility.yul\":2011:2014   */\n      dup6\n        /* \"#utility.yul\":2004:2008   */\n      0x20\n        /* \"#utility.yul\":1997:2002   */\n      dup7\n        /* \"#utility.yul\":1993:2009   */\n      add\n        /* \"#utility.yul\":1971:2023   */\n      tag_191\n      jump\t// in\n    tag_252:\n        /* \"#utility.yul\":2048:2077   */\n      tag_253\n        /* \"#utility.yul\":2070:2076   */\n      dup2\n        /* \"#utility.yul\":2048:2077   */\n      tag_192\n      jump\t// in\n    tag_253:\n        /* \"#utility.yul\":2043:2046   */\n      dup5\n        /* \"#utility.yul\":2039:2078   */\n      add\n        /* \"#utility.yul\":2032:2078   */\n      swap2\n      pop\n        /* \"#utility.yul\":1814:2084   */\n      pop\n        /* \"#utility.yul\":1724:2084   */\n      swap3\n      swap2\n      pop\n      pop\n      jump\t// out\n        /* \"#utility.yul\":2090:2167   */\n    tag_194:\n        /* \"#utility.yul\":2127:2134   */\n      0x00\n        /* \"#utility.yul\":2156:2161   */\n      dup2\n        /* \"#utility.yul\":2145:2161   */\n      swap1\n      pop\n        /* \"#utility.yul\":2090:2167   */\n      swap2\n      swap1\n      pop\n      jump\t// out\n        /* \"#utility.yul\":2173:2291   */\n    tag_195:\n        /* \"#utility.yul\":2260:2284   */\n      tag_256\n        /* \"#utility.yul\":2278:2283   */\n      dup2\n        /* \"#utility.yul\":2260:2284   */\n      tag_194\n      jump\t// in\n    tag_256:\n        /* \"#utility.yul\":2255:2258   */\n      dup3\n        /* \"#utility.yul\":2248:2285   */\n      mstore\n        /* \"#utility.yul\":2173:2291   */\n      pop\n      pop\n      jump\t// out\n        /* \"#utility.yul\":2297:2405   */\n    tag_196:\n        /* \"#utility.yul\":2374:2398   */\n      tag_258\n        /* \"#utility.yul\":2392:2397   */\n      dup2\n        /* \"#utility.yul\":2374:2398   */\n      tag_194\n      jump\t// in\n    tag_258:\n        /* \"#utility.yul\":2369:2372   */\n      dup3\n        /* \"#utility.yul\":2362:2399   */\n      mstore\n        /* \"#utility.yul\":2297:2405   */\n      pop\n      pop\n      jump\t// out\n        /* \"#utility.yul\":2411:2510   */\n    tag_197:\n        /* \"#utility.yul\":2463:2469   */\n      0x00\n        /* \"#utility.yul\":2497:2502   */\n      dup2\n        /* \"#utility.yul\":2491:2503   */\n      mload\n        /* \"#utility.yul\":2481:2503   */\n      swap1\n      pop\n        /* \"#utility.yul\":2411:2510   */\n      swap2\n      swap1\n      pop\n      jump\t// out\n        /* \"#utility.yul\":2516:2675   */\n    tag_198:\n        /* \"#utility.yul\":2590:2601   */\n      0x00\n        /* \"#utility.yul\":2624:2630   */\n      dup3\n        /* \"#utility.yul\":2619:2622   */\n      dup3\n        /* \"#utility.yul\":2612:2631   */\n      mstore\n        /* \"#utility.yul\":2664:2668   */\n      0x20\n        /* \"#utility.yul\":2659:2662   */\n      dup3\n        /* \"#utility.yul\":2655:2669   */\n      add\n        /* \"#utility.yul\":2640:2669   */\n      swap1\n      pop\n        /* \"#utility.yul\":2516:2675   */\n      swap3\n      swap2\n      pop\n      pop\n      jump\t// out\n        /* \"#utility.yul\":2681:3025   */\n    tag_199:\n        /* \"#utility.yul\":2759:2762   */\n      0x00\n        /* \"#utility.yul\":2787:2826   */\n      tag_262\n        /* \"#utility.yul\":2820:2825   */\n      dup3\n        /* \"#utility.yul\":2787:2826   */\n      tag_197\n      jump\t// in\n    tag_262:\n        /* \"#utility.yul\":2842:2903   */\n      tag_263\n        /* \"#utility.yul\":2896:2902   */\n      dup2\n        /* \"#utility.yul\":2891:2894   */\n      dup6\n        /* \"#utility.yul\":2842:2903   */\n      tag_198\n      jump\t// in\n    tag_263:\n        /* \"#utility.yul\":2835:2903   */\n      swap4\n      pop\n        /* \"#utility.yul\":2912:2964   */\n      tag_264\n        /* \"#utility.yul\":2957:2963   */\n      dup2\n        /* \"#utility.yul\":2952:2955   */\n      dup6\n        /* \"#utility.yul\":2945:2949   */\n      0x20\n        /* \"#utility.yul\":2938:2943   */\n      dup7\n        /* \"#utility.yul\":2934:2950   */\n      add\n        /* \"#utility.yul\":2912:2964   */\n      tag_191\n      jump\t// in\n    tag_264:\n        /* \"#utility.yul\":2989:3018   */\n      tag_265\n        /* \"#utility.yul\":3011:3017   */\n      dup2\n        /* \"#utility.yul\":2989:3018   */\n      tag_192\n      jump\t// in\n    tag_265:\n        /* \"#utility.yul\":2984:2987   */\n      dup5\n        /* \"#utility.yul\":2980:3019   */\n      add\n        /* \"#utility.yul\":2973:3019   */\n      swap2\n      pop\n        /* \"#utility.yul\":2763:3025   */\n      pop\n        /* \"#utility.yul\":2681:3025   */\n      swap3\n      swap2\n      pop\n      pop\n      jump\t// out\n        /* \"#utility.yul\":3119:4660   */\n    tag_200:\n        /* \"#utility.yul\":3244:3247   */\n      0x00\n        /* \"#utility.yul\":3280:3284   */\n      0xc0\n        /* \"#utility.yul\":3275:3278   */\n      dup4\n        /* \"#utility.yul\":3271:3285   */\n      add\n        /* \"#utility.yul\":3371:3375   */\n      0x00\n        /* \"#utility.yul\":3364:3369   */\n      dup4\n        /* \"#utility.yul\":3360:3376   */\n      add\n        /* \"#utility.yul\":3354:3377   */\n      mload\n        /* \"#utility.yul\":3390:3453   */\n      tag_267\n        /* \"#utility.yul\":3447:3451   */\n      0x00\n        /* \"#utility.yul\":3442:3445   */\n      dup7\n        /* \"#utility.yul\":3438:3452   */\n      add\n        /* \"#utility.yul\":3424:3436   */\n      dup3\n        /* \"#utility.yul\":3390:3453   */\n      tag_196\n      jump\t// in\n    tag_267:\n        /* \"#utility.yul\":3295:3463   */\n      pop\n        /* \"#utility.yul\":3545:3549   */\n      0x20\n        /* \"#utility.yul\":3538:3543   */\n      dup4\n        /* \"#utility.yul\":3534:3550   */\n      add\n        /* \"#utility.yul\":3528:3551   */\n      mload\n        /* \"#utility.yul\":3598:3601   */\n      dup5\n        /* \"#utility.yul\":3592:3596   */\n      dup3\n        /* \"#utility.yul\":3588:3602   */\n      sub\n        /* \"#utility.yul\":3581:3585   */\n      0x20\n        /* \"#utility.yul\":3576:3579   */\n      dup7\n        /* \"#utility.yul\":3572:3586   */\n      add\n        /* \"#utility.yul\":3565:3603   */\n      mstore\n        /* \"#utility.yul\":3624:3697   */\n      tag_268\n        /* \"#utility.yul\":3692:3696   */\n      dup3\n        /* \"#utility.yul\":3678:3690   */\n      dup3\n        /* \"#utility.yul\":3624:3697   */\n      tag_199\n      jump\t// in\n    tag_268:\n        /* \"#utility.yul\":3616:3697   */\n      swap2\n      pop\n        /* \"#utility.yul\":3473:3708   */\n      pop\n        /* \"#utility.yul\":3790:3794   */\n      0x40\n        /* \"#utility.yul\":3783:3788   */\n      dup4\n        /* \"#utility.yul\":3779:3795   */\n      add\n        /* \"#utility.yul\":3773:3796   */\n      mload\n        /* \"#utility.yul\":3843:3846   */\n      dup5\n        /* \"#utility.yul\":3837:3841   */\n      dup3\n        /* \"#utility.yul\":3833:3847   */\n      sub\n        /* \"#utility.yul\":3826:3830   */\n      0x40\n        /* \"#utility.yul\":3821:3824   */\n      dup7\n        /* \"#utility.yul\":3817:3831   */\n      add\n        /* \"#utility.yul\":3810:3848   */\n      mstore\n        /* \"#utility.yul\":3869:3942   */\n      tag_269\n        /* \"#utility.yul\":3937:3941   */\n      dup3\n        /* \"#utility.yul\":3923:3935   */\n      dup3\n        /* \"#utility.yul\":3869:3942   */\n      tag_199\n      jump\t// in\n    tag_269:\n        /* \"#utility.yul\":3861:3942   */\n      swap2\n      pop\n        /* \"#utility.yul\":3718:3953   */\n      pop\n        /* \"#utility.yul\":4034:4038   */\n      0x60\n        /* \"#utility.yul\":4027:4032   */\n      dup4\n        /* \"#utility.yul\":4023:4039   */\n      add\n        /* \"#utility.yul\":4017:4040   */\n      mload\n        /* \"#utility.yul\":4087:4090   */\n      dup5\n        /* \"#utility.yul\":4081:4085   */\n      dup3\n        /* \"#utility.yul\":4077:4091   */\n      sub\n        /* \"#utility.yul\":4070:4074   */\n      0x60\n        /* \"#utility.yul\":4065:4068   */\n      dup7\n        /* \"#utility.yul\":4061:4075   */\n      add\n        /* \"#utility.yul\":4054:4092   */\n      mstore\n        /* \"#utility.yul\":4113:4186   */\n      tag_270\n        /* \"#utility.yul\":4181:4185   */\n      dup3\n        /* \"#utility.yul\":4167:4179   */\n      dup3\n        /* \"#utility.yul\":4113:4186   */\n      tag_199\n      jump\t// in\n    tag_270:\n        /* \"#utility.yul\":4105:4186   */\n      swap2\n      pop\n        /* \"#utility.yul\":3963:4197   */\n      pop\n        /* \"#utility.yul\":4284:4288   */\n      0x80\n        /* \"#utility.yul\":4277:4282   */\n      dup4\n        /* \"#utility.yul\":4273:4289   */\n      add\n        /* \"#utility.yul\":4267:4290   */\n      mload\n        /* \"#utility.yul\":4303:4366   */\n      tag_271\n        /* \"#utility.yul\":4360:4364   */\n      0x80\n        /* \"#utility.yul\":4355:4358   */\n      dup7\n        /* \"#utility.yul\":4351:4365   */\n      add\n        /* \"#utility.yul\":4337:4349   */\n      dup3\n        /* \"#utility.yul\":4303:4366   */\n      tag_196\n      jump\t// in\n    tag_271:\n        /* \"#utility.yul\":4207:4376   */\n      pop\n        /* \"#utility.yul\":4470:4474   */\n      0xa0\n        /* \"#utility.yul\":4463:4468   */\n      dup4\n        /* \"#utility.yul\":4459:4475   */\n      add\n        /* \"#utility.yul\":4453:4476   */\n      mload\n        /* \"#utility.yul\":4523:4526   */\n      dup5\n        /* \"#utility.yul\":4517:4521   */\n      dup3\n        /* \"#utility.yul\":4513:4527   */\n      sub\n        /* \"#utility.yul\":4506:4510   */\n      0xa0\n        /* \"#utility.yul\":4501:4504   */\n      dup7\n        /* \"#utility.yul\":4497:4511   */\n      add\n        /* \"#utility.yul\":4490:4528   */\n      mstore\n        /* \"#utility.yul\":4549:4622   */\n      tag_272\n        /* \"#utility.yul\":4617:4621   */\n      dup3\n        /* \"#utility.yul\":4603:4615   */\n      dup3\n        /* \"#utility.yul\":4549:4622   */\n      tag_199\n      jump\t// in\n    tag_272:\n        /* \"#utility.yul\":4541:4622   */\n      swap2\n      pop\n        /* \"#utility.yul\":4386:4633   */\n      pop\n        /* \"#utility.yul\":4650:4654   */\n      dup1\n        /* \"#utility.yul\":4643:4654   */\n      swap2\n      pop\n        /* \"#utility.yul\":3249:4660   */\n      pop\n        /* \"#utility.yul\":3119:4660   */\n      swap3\n      swap2\n      pop\n      pop\n      jump\t// out\n        /* \"#utility.yul\":4666:4846   */\n    tag_140:\n        /* \"#utility.yul\":4714:4791   */\n      0x4e487b7100000000000000000000000000000000000000000000000000000000\n        /* \"#utility.yul\":4711:4712   */\n      0x00\n        /* \"#utility.yul\":4704:4792   */\n      mstore\n        /* \"#utility.yul\":4811:4815   */\n      0x21\n        /* \"#utility.yul\":4808:4809   */\n      0x04\n        /* \"#utility.yul\":4801:4816   */\n      mstore\n        /* \"#utility.yul\":4835:4839   */\n      0x24\n        /* \"#utility.yul\":4832:4833   */\n      0x00\n        /* \"#utility.yul\":4825:4840   */\n      revert\n        /* \"#utility.yul\":4852:4971   */\n    tag_201:\n        /* \"#utility.yul\":4939:4940   */\n      0x03\n        /* \"#utility.yul\":4932:4937   */\n      dup2\n        /* \"#utility.yul\":4929:4941   */\n      lt\n        /* \"#utility.yul\":4919:4965   */\n      tag_275\n      jumpi\n        /* \"#utility.yul\":4945:4963   */\n      tag_276\n      tag_140\n      jump\t// in\n    tag_276:\n        /* \"#utility.yul\":4919:4965   */\n    tag_275:\n        /* \"#utility.yul\":4852:4971   */\n      pop\n      jump\t// out\n        /* \"#utility.yul\":4977:5116   */\n    tag_202:\n        /* \"#utility.yul\":5028:5035   */\n      0x00\n        /* \"#utility.yul\":5057:5062   */\n      dup2\n        /* \"#utility.yul\":5046:5062   */\n      swap1\n      pop\n        /* \"#utility.yul\":5063:5110   */\n      tag_278\n        /* \"#utility.yul\":5104:5109   */\n      dup3\n        /* \"#utility.yul\":5063:5110   */\n      tag_201\n      jump\t// in\n    tag_278:\n        /* \"#utility.yul\":4977:5116   */\n      swap2\n      swap1\n      pop\n      jump\t// out\n        /* \"#utility.yul\":5122:5261   */\n    tag_203:\n        /* \"#utility.yul\":5184:5193   */\n      0x00\n        /* \"#utility.yul\":5217:5255   */\n      tag_280\n        /* \"#utility.yul\":5249:5254   */\n      dup3\n        /* \"#utility.yul\":5217:5255   */\n      tag_202\n      jump\t// in\n    tag_280:\n        /* \"#utility.yul\":5204:5255   */\n      swap1\n      pop\n        /* \"#utility.yul\":5122:5261   */\n      swap2\n      swap1\n      pop\n      jump\t// out\n        /* \"#utility.yul\":5267:5422   */\n    tag_204:\n        /* \"#utility.yul\":5366:5415   */\n      tag_282\n        /* \"#utility.yul\":5409:5414   */\n      dup2\n        /* \"#utility.yul\":5366:5415   */\n      tag_203\n      jump\t// in\n    tag_282:\n        /* \"#utility.yul\":5361:5364   */\n      dup3\n        /* \"#utility.yul\":5354:5416   */\n      mstore\n        /* \"#utility.yul\":5267:5422   */\n      pop\n      pop\n      jump\t// out\n        /* \"#utility.yul\":5428:5597   */\n    tag_205:\n        /* \"#utility.yul\":5512:5523   */\n      0x00\n        /* \"#utility.yul\":5546:5552   */\n      dup3\n        /* \"#utility.yul\":5541:5544   */\n      dup3\n        /* \"#utility.yul\":5534:5553   */\n      mstore\n        /* \"#utility.yul\":5586:5590   */\n      0x20\n        /* \"#utility.yul\":5581:5584   */\n      dup3\n        /* \"#utility.yul\":5577:5591   */\n      add\n        /* \"#utility.yul\":5562:5591   */\n      swap1\n      pop\n        /* \"#utility.yul\":5428:5597   */\n      swap3\n      swap2\n      pop\n      pop\n      jump\t// out\n        /* \"#utility.yul\":5603:5967   */\n    tag_206:\n        /* \"#utility.yul\":5691:5694   */\n      0x00\n        /* \"#utility.yul\":5719:5758   */\n      tag_285\n        /* \"#utility.yul\":5752:5757   */\n      dup3\n        /* \"#utility.yul\":5719:5758   */\n      tag_197\n      jump\t// in\n    tag_285:\n        /* \"#utility.yul\":5774:5845   */\n      tag_286\n        /* \"#utility.yul\":5838:5844   */\n      dup2\n        /* \"#utility.yul\":5833:5836   */\n      dup6\n        /* \"#utility.yul\":5774:5845   */\n      tag_205\n      jump\t// in\n    tag_286:\n        /* \"#utility.yul\":5767:5845   */\n      swap4\n      pop\n        /* \"#utility.yul\":5854:5906   */\n      tag_287\n        /* \"#utility.yul\":5899:5905   */\n      dup2\n        /* \"#utility.yul\":5894:5897   */\n      dup6\n        /* \"#utility.yul\":5887:5891   */\n      0x20\n        /* \"#utility.yul\":5880:5885   */\n      dup7\n        /* \"#utility.yul\":5876:5892   */\n      add\n        /* \"#utility.yul\":5854:5906   */\n      tag_191\n      jump\t// in\n    tag_287:\n        /* \"#utility.yul\":5931:5960   */\n      tag_288\n        /* \"#utility.yul\":5953:5959   */\n      dup2\n        /* \"#utility.yul\":5931:5960   */\n      tag_192\n      jump\t// in\n    tag_288:\n        /* \"#utility.yul\":5926:5929   */\n      dup5\n        /* \"#utility.yul\":5922:5961   */\n      add\n        /* \"#utility.yul\":5915:5961   */\n      swap2\n      pop\n        /* \"#utility.yul\":5695:5967   */\n      pop\n        /* \"#utility.yul\":5603:5967   */\n      swap3\n      swap2\n      pop\n      pop\n      jump\t// out\n        /* \"#utility.yul\":5973:7204   */\n    tag_16:\n        /* \"#utility.yul\":6332:6336   */\n      0x00\n        /* \"#utility.yul\":6370:6373   */\n      0xc0\n        /* \"#utility.yul\":6359:6368   */\n      dup3\n        /* \"#utility.yul\":6355:6374   */\n      add\n        /* \"#utility.yul\":6347:6374   */\n      swap1\n      pop\n        /* \"#utility.yul\":6420:6429   */\n      dup2\n        /* \"#utility.yul\":6414:6418   */\n      dup2\n        /* \"#utility.yul\":6410:6430   */\n      sub\n        /* \"#utility.yul\":6406:6407   */\n      0x00\n        /* \"#utility.yul\":6395:6404   */\n      dup4\n        /* \"#utility.yul\":6391:6408   */\n      add\n        /* \"#utility.yul\":6384:6431   */\n      mstore\n        /* \"#utility.yul\":6448:6524   */\n      tag_290\n        /* \"#utility.yul\":6519:6523   */\n      dup2\n        /* \"#utility.yul\":6510:6516   */\n      dup10\n        /* \"#utility.yul\":6448:6524   */\n      tag_193\n      jump\t// in\n    tag_290:\n        /* \"#utility.yul\":6440:6524   */\n      swap1\n      pop\n        /* \"#utility.yul\":6534:6606   */\n      tag_291\n        /* \"#utility.yul\":6602:6604   */\n      0x20\n        /* \"#utility.yul\":6591:6600   */\n      dup4\n        /* \"#utility.yul\":6587:6605   */\n      add\n        /* \"#utility.yul\":6578:6584   */\n      dup9\n        /* \"#utility.yul\":6534:6606   */\n      tag_195\n      jump\t// in\n    tag_291:\n        /* \"#utility.yul\":6653:6662   */\n      dup2\n        /* \"#utility.yul\":6647:6651   */\n      dup2\n        /* \"#utility.yul\":6643:6663   */\n      sub\n        /* \"#utility.yul\":6638:6640   */\n      0x40\n        /* \"#utility.yul\":6627:6636   */\n      dup4\n        /* \"#utility.yul\":6623:6641   */\n      add\n        /* \"#utility.yul\":6616:6664   */\n      mstore\n        /* \"#utility.yul\":6681:6795   */\n      tag_292\n        /* \"#utility.yul\":6790:6794   */\n      dup2\n        /* \"#utility.yul\":6781:6787   */\n      dup8\n        /* \"#utility.yul\":6681:6795   */\n      tag_200\n      jump\t// in\n    tag_292:\n        /* \"#utility.yul\":6673:6795   */\n      swap1\n      pop\n        /* \"#utility.yul\":6805:6889   */\n      tag_293\n        /* \"#utility.yul\":6885:6887   */\n      0x60\n        /* \"#utility.yul\":6874:6883   */\n      dup4\n        /* \"#utility.yul\":6870:6888   */\n      add\n        /* \"#utility.yul\":6861:6867   */\n      dup7\n        /* \"#utility.yul\":6805:6889   */\n      tag_204\n      jump\t// in\n    tag_293:\n        /* \"#utility.yul\":6937:6946   */\n      dup2\n        /* \"#utility.yul\":6931:6935   */\n      dup2\n        /* \"#utility.yul\":6927:6947   */\n      sub\n        /* \"#utility.yul\":6921:6924   */\n      0x80\n        /* \"#utility.yul\":6910:6919   */\n      dup4\n        /* \"#utility.yul\":6906:6925   */\n      add\n        /* \"#utility.yul\":6899:6948   */\n      mstore\n        /* \"#utility.yul\":6965:7043   */\n      tag_294\n        /* \"#utility.yul\":7038:7042   */\n      dup2\n        /* \"#utility.yul\":7029:7035   */\n      dup6\n        /* \"#utility.yul\":6965:7043   */\n      tag_206\n      jump\t// in\n    tag_294:\n        /* \"#utility.yul\":6957:7043   */\n      swap1\n      pop\n        /* \"#utility.yul\":7091:7100   */\n      dup2\n        /* \"#utility.yul\":7085:7089   */\n      dup2\n        /* \"#utility.yul\":7081:7101   */\n      sub\n        /* \"#utility.yul\":7075:7078   */\n      0xa0\n        /* \"#utility.yul\":7064:7073   */\n      dup4\n        /* \"#utility.yul\":7060:7079   */\n      add\n        /* \"#utility.yul\":7053:7102   */\n      mstore\n        /* \"#utility.yul\":7119:7197   */\n      tag_295\n        /* \"#utility.yul\":7192:7196   */\n      dup2\n        /* \"#utility.yul\":7183:7189   */\n      dup5\n        /* \"#utility.yul\":7119:7197   */\n      tag_206\n      jump\t// in\n    tag_295:\n        /* \"#utility.yul\":7111:7197   */\n      swap1\n      pop\n        /* \"#utility.yul\":5973:7204   */\n      swap8\n      swap7\n      pop\n      pop\n      pop\n      pop\n      pop\n      pop\n      pop\n      jump\t// out\n        /* \"#utility.yul\":7210:7332   */\n    tag_207:\n        /* \"#utility.yul\":7283:7307   */\n      tag_297\n        /* \"#utility.yul\":7301:7306   */\n      dup2\n        /* \"#utility.yul\":7283:7307   */\n      tag_194\n      jump\t// in\n    tag_297:\n        /* \"#utility.yul\":7276:7281   */\n      dup2\n        /* \"#utility.yul\":7273:7308   */\n      eq\n        /* \"#utility.yul\":7263:7326   */\n      tag_298\n      jumpi\n        /* \"#utility.yul\":7322:7323   */\n      0x00\n        /* \"#utility.yul\":7319:7320   */\n      dup1\n        /* \"#utility.yul\":7312:7324   */\n      revert\n        /* \"#utility.yul\":7263:7326   */\n    tag_298:\n        /* \"#utility.yul\":7210:7332   */\n      pop\n      jump\t// out\n        /* \"#utility.yul\":7338:7477   */\n    tag_208:\n        /* \"#utility.yul\":7384:7389   */\n      0x00\n        /* \"#utility.yul\":7422:7428   */\n      dup2\n        /* \"#utility.yul\":7409:7429   */\n      calldataload\n        /* \"#utility.yul\":7400:7429   */\n      swap1\n      pop\n        /* \"#utility.yul\":7438:7471   */\n      tag_300\n        /* \"#utility.yul\":7465:7470   */\n      dup2\n        /* \"#utility.yul\":7438:7471   */\n      tag_207\n      jump\t// in\n    tag_300:\n        /* \"#utility.yul\":7338:7477   */\n      swap3\n      swap2\n      pop\n      pop\n      jump\t// out\n        /* \"#utility.yul\":7483:7812   */\n    tag_19:\n        /* \"#utility.yul\":7542:7548   */\n      0x00\n        /* \"#utility.yul\":7591:7593   */\n      0x20\n        /* \"#utility.yul\":7579:7588   */\n      dup3\n        /* \"#utility.yul\":7570:7577   */\n      dup5\n        /* \"#utility.yul\":7566:7589   */\n      sub\n        /* \"#utility.yul\":7562:7594   */\n      slt\n        /* \"#utility.yul\":7559:7678   */\n      iszero\n      tag_302\n      jumpi\n        /* \"#utility.yul\":7597:7676   */\n      tag_303\n      tag_184\n      jump\t// in\n    tag_303:\n        /* \"#utility.yul\":7559:7678   */\n    tag_302:\n        /* \"#utility.yul\":7717:7718   */\n      0x00\n        /* \"#utility.yul\":7742:7795   */\n      tag_304\n        /* \"#utility.yul\":7787:7794   */\n      dup5\n        /* \"#utility.yul\":7778:7784   */\n      dup3\n        /* \"#utility.yul\":7767:7776   */\n      dup6\n        /* \"#utility.yul\":7763:7785   */\n      add\n        /* \"#utility.yul\":7742:7795   */\n      tag_208\n      jump\t// in\n    tag_304:\n        /* \"#utility.yul\":7732:7795   */\n      swap2\n      pop\n        /* \"#utility.yul\":7688:7805   */\n      pop\n        /* \"#utility.yul\":7483:7812   */\n      swap3\n      swap2\n      pop\n      pop\n      jump\t// out\n        /* \"#utility.yul\":7818:8957   */\n    tag_22:\n        /* \"#utility.yul\":8131:8135   */\n      0x00\n        /* \"#utility.yul\":8169:8172   */\n      0xc0\n        /* \"#utility.yul\":8158:8167   */\n      dup3\n        /* \"#utility.yul\":8154:8173   */\n      add\n        /* \"#utility.yul\":8146:8173   */\n      swap1\n      pop\n        /* \"#utility.yul\":8183:8254   */\n      tag_306\n        /* \"#utility.yul\":8251:8252   */\n      0x00\n        /* \"#utility.yul\":8240:8249   */\n      dup4\n        /* \"#utility.yul\":8236:8253   */\n      add\n        /* \"#utility.yul\":8227:8233   */\n      dup10\n        /* \"#utility.yul\":8183:8254   */\n      tag_195\n      jump\t// in\n    tag_306:\n        /* \"#utility.yul\":8301:8310   */\n      dup2\n        /* \"#utility.yul\":8295:8299   */\n      dup2\n        /* \"#utility.yul\":8291:8311   */\n      sub\n        /* \"#utility.yul\":8286:8288   */\n      0x20\n        /* \"#utility.yul\":8275:8284   */\n      dup4\n        /* \"#utility.yul\":8271:8289   */\n      add\n        /* \"#utility.yul\":8264:8312   */\n      mstore\n        /* \"#utility.yul\":8329:8407   */\n      tag_307\n        /* \"#utility.yul\":8402:8406   */\n      dup2\n        /* \"#utility.yul\":8393:8399   */\n      dup9\n        /* \"#utility.yul\":8329:8407   */\n      tag_206\n      jump\t// in\n    tag_307:\n        /* \"#utility.yul\":8321:8407   */\n      swap1\n      pop\n        /* \"#utility.yul\":8454:8463   */\n      dup2\n        /* \"#utility.yul\":8448:8452   */\n      dup2\n        /* \"#utility.yul\":8444:8464   */\n      sub\n        /* \"#utility.yul\":8439:8441   */\n      0x40\n        /* \"#utility.yul\":8428:8437   */\n      dup4\n        /* \"#utility.yul\":8424:8442   */\n      add\n        /* \"#utility.yul\":8417:8465   */\n      mstore\n        /* \"#utility.yul\":8482:8560   */\n      tag_308\n        /* \"#utility.yul\":8555:8559   */\n      dup2\n        /* \"#utility.yul\":8546:8552   */\n      dup8\n        /* \"#utility.yul\":8482:8560   */\n      tag_206\n      jump\t// in\n    tag_308:\n        /* \"#utility.yul\":8474:8560   */\n      swap1\n      pop\n        /* \"#utility.yul\":8607:8616   */\n      dup2\n        /* \"#utility.yul\":8601:8605   */\n      dup2\n        /* \"#utility.yul\":8597:8617   */\n      sub\n        /* \"#utility.yul\":8592:8594   */\n      0x60\n        /* \"#utility.yul\":8581:8590   */\n      dup4\n        /* \"#utility.yul\":8577:8595   */\n      add\n        /* \"#utility.yul\":8570:8618   */\n      mstore\n        /* \"#utility.yul\":8635:8713   */\n      tag_309\n        /* \"#utility.yul\":8708:8712   */\n      dup2\n        /* \"#utility.yul\":8699:8705   */\n      dup7\n        /* \"#utility.yul\":8635:8713   */\n      tag_206\n      jump\t// in\n    tag_309:\n        /* \"#utility.yul\":8627:8713   */\n      swap1\n      pop\n        /* \"#utility.yul\":8723:8796   */\n      tag_310\n        /* \"#utility.yul\":8791:8794   */\n      0x80\n        /* \"#utility.yul\":8780:8789   */\n      dup4\n        /* \"#utility.yul\":8776:8795   */\n      add\n        /* \"#utility.yul\":8767:8773   */\n      dup6\n        /* \"#utility.yul\":8723:8796   */\n      tag_195\n      jump\t// in\n    tag_310:\n        /* \"#utility.yul\":8844:8853   */\n      dup2\n        /* \"#utility.yul\":8838:8842   */\n      dup2\n        /* \"#utility.yul\":8834:8854   */\n      sub\n        /* \"#utility.yul\":8828:8831   */\n      0xa0\n        /* \"#utility.yul\":8817:8826   */\n      dup4\n        /* \"#utility.yul\":8813:8832   */\n      add\n        /* \"#utility.yul\":8806:8855   */\n      mstore\n        /* \"#utility.yul\":8872:8950   */\n      tag_311\n        /* \"#utility.yul\":8945:8949   */\n      dup2\n        /* \"#utility.yul\":8936:8942   */\n      dup5\n        /* \"#utility.yul\":8872:8950   */\n      tag_206\n      jump\t// in\n    tag_311:\n        /* \"#utility.yul\":8864:8950   */\n      swap1\n      pop\n        /* \"#utility.yul\":7818:8957   */\n      swap8\n      swap7\n      pop\n      pop\n      pop\n      pop\n      pop\n      pop\n      pop\n      jump\t// out\n        /* \"#utility.yul\":8963:9080   */\n    tag_209:\n        /* \"#utility.yul\":9072:9073   */\n      0x00\n        /* \"#utility.yul\":9069:9070   */\n      dup1\n        /* \"#utility.yul\":9062:9074   */\n      revert\n        /* \"#utility.yul\":9086:9203   */\n    tag_210:\n        /* \"#utility.yul\":9195:9196   */\n      0x00\n        /* \"#utility.yul\":9192:9193   */\n      dup1\n        /* \"#utility.yul\":9185:9197   */\n      revert\n        /* \"#utility.yul\":9209:9389   */\n    tag_211:\n        /* \"#utility.yul\":9257:9334   */\n      0x4e487b7100000000000000000000000000000000000000000000000000000000\n        /* \"#utility.yul\":9254:9255   */\n      0x00\n        /* \"#utility.yul\":9247:9335   */\n      mstore\n        /* \"#utility.yul\":9354:9358   */\n      0x41\n        /* \"#utility.yul\":9351:9352   */\n      0x04\n        /* \"#utility.yul\":9344:9359   */\n      mstore\n        /* \"#utility.yul\":9378:9382   */\n      0x24\n        /* \"#utility.yul\":9375:9376   */\n      0x00\n        /* \"#utility.yul\":9368:9383   */\n      revert\n        /* \"#utility.yul\":9395:9676   */\n    tag_212:\n        /* \"#utility.yul\":9478:9505   */\n      tag_316\n        /* \"#utility.yul\":9500:9504   */\n      dup3\n        /* \"#utility.yul\":9478:9505   */\n      tag_192\n      jump\t// in\n    tag_316:\n        /* \"#utility.yul\":9470:9476   */\n      dup2\n        /* \"#utility.yul\":9466:9506   */\n      add\n        /* \"#utility.yul\":9608:9614   */\n      dup2\n        /* \"#utility.yul\":9596:9606   */\n      dup2\n        /* \"#utility.yul\":9593:9615   */\n      lt\n        /* \"#utility.yul\":9572:9590   */\n      0xffffffffffffffff\n        /* \"#utility.yul\":9560:9570   */\n      dup3\n        /* \"#utility.yul\":9557:9591   */\n      gt\n        /* \"#utility.yul\":9554:9616   */\n      or\n        /* \"#utility.yul\":9551:9639   */\n      iszero\n      tag_317\n      jumpi\n        /* \"#utility.yul\":9619:9637   */\n      tag_318\n      tag_211\n      jump\t// in\n    tag_318:\n        /* \"#utility.yul\":9551:9639   */\n    tag_317:\n        /* \"#utility.yul\":9659:9669   */\n      dup1\n        /* \"#utility.yul\":9655:9657   */\n      0x40\n        /* \"#utility.yul\":9648:9670   */\n      mstore\n        /* \"#utility.yul\":9438:9676   */\n      pop\n        /* \"#utility.yul\":9395:9676   */\n      pop\n      pop\n      jump\t// out\n        /* \"#utility.yul\":9682:9811   */\n    tag_213:\n        /* \"#utility.yul\":9716:9722   */\n      0x00\n        /* \"#utility.yul\":9743:9763   */\n      tag_320\n      tag_183\n      jump\t// in\n    tag_320:\n        /* \"#utility.yul\":9733:9763   */\n      swap1\n      pop\n        /* \"#utility.yul\":9772:9805   */\n      tag_321\n        /* \"#utility.yul\":9800:9804   */\n      dup3\n        /* \"#utility.yul\":9792:9798   */\n      dup3\n        /* \"#utility.yul\":9772:9805   */\n      tag_212\n      jump\t// in\n    tag_321:\n        /* \"#utility.yul\":9682:9811   */\n      swap2\n      swap1\n      pop\n      jump\t// out\n        /* \"#utility.yul\":9817:10124   */\n    tag_214:\n        /* \"#utility.yul\":9878:9882   */\n      0x00\n        /* \"#utility.yul\":9968:9986   */\n      0xffffffffffffffff\n        /* \"#utility.yul\":9960:9966   */\n      dup3\n        /* \"#utility.yul\":9957:9987   */\n      gt\n        /* \"#utility.yul\":9954:10010   */\n      iszero\n      tag_323\n      jumpi\n        /* \"#utility.yul\":9990:10008   */\n      tag_324\n      tag_211\n      jump\t// in\n    tag_324:\n        /* \"#utility.yul\":9954:10010   */\n    tag_323:\n        /* \"#utility.yul\":10028:10057   */\n      tag_325\n        /* \"#utility.yul\":10050:10056   */\n      dup3\n        /* \"#utility.yul\":10028:10057   */\n      tag_192\n      jump\t// in\n    tag_325:\n        /* \"#utility.yul\":10020:10057   */\n      swap1\n      pop\n        /* \"#utility.yul\":10112:10116   */\n      0x20\n        /* \"#utility.yul\":10106:10110   */\n      dup2\n        /* \"#utility.yul\":10102:10117   */\n      add\n        /* \"#utility.yul\":10094:10117   */\n      swap1\n      pop\n        /* \"#utility.yul\":9817:10124   */\n      swap2\n      swap1\n      pop\n      jump\t// out\n        /* \"#utility.yul\":10130:10284   */\n    tag_215:\n        /* \"#utility.yul\":10214:10220   */\n      dup3\n        /* \"#utility.yul\":10209:10212   */\n      dup2\n        /* \"#utility.yul\":10204:10207   */\n      dup4\n        /* \"#utility.yul\":10191:10221   */\n      calldatacopy\n        /* \"#utility.yul\":10276:10277   */\n      0x00\n        /* \"#utility.yul\":10267:10273   */\n      dup4\n        /* \"#utility.yul\":10262:10265   */\n      dup4\n        /* \"#utility.yul\":10258:10274   */\n      add\n        /* \"#utility.yul\":10251:10278   */\n      mstore\n        /* \"#utility.yul\":10130:10284   */\n      pop\n      pop\n      pop\n      jump\t// out\n        /* \"#utility.yul\":10290:10700   */\n    tag_216:\n        /* \"#utility.yul\":10367:10372   */\n      0x00\n        /* \"#utility.yul\":10392:10457   */\n      tag_328\n        /* \"#utility.yul\":10408:10456   */\n      tag_329\n        /* \"#utility.yul\":10449:10455   */\n      dup5\n        /* \"#utility.yul\":10408:10456   */\n      tag_214\n      jump\t// in\n    tag_329:\n        /* \"#utility.yul\":10392:10457   */\n      tag_213\n      jump\t// in\n    tag_328:\n        /* \"#utility.yul\":10383:10457   */\n      swap1\n      pop\n        /* \"#utility.yul\":10480:10486   */\n      dup3\n        /* \"#utility.yul\":10473:10478   */\n      dup2\n        /* \"#utility.yul\":10466:10487   */\n      mstore\n        /* \"#utility.yul\":10518:10522   */\n      0x20\n        /* \"#utility.yul\":10511:10516   */\n      dup2\n        /* \"#utility.yul\":10507:10523   */\n      add\n        /* \"#utility.yul\":10556:10559   */\n      dup5\n        /* \"#utility.yul\":10547:10553   */\n      dup5\n        /* \"#utility.yul\":10542:10545   */\n      dup5\n        /* \"#utility.yul\":10538:10554   */\n      add\n        /* \"#utility.yul\":10535:10560   */\n      gt\n        /* \"#utility.yul\":10532:10644   */\n      iszero\n      tag_330\n      jumpi\n        /* \"#utility.yul\":10563:10642   */\n      tag_331\n      tag_210\n      jump\t// in\n    tag_331:\n        /* \"#utility.yul\":10532:10644   */\n    tag_330:\n        /* \"#utility.yul\":10653:10694   */\n      tag_332\n        /* \"#utility.yul\":10687:10693   */\n      dup5\n        /* \"#utility.yul\":10682:10685   */\n      dup3\n        /* \"#utility.yul\":10677:10680   */\n      dup6\n        /* \"#utility.yul\":10653:10694   */\n      tag_215\n      jump\t// in\n    tag_332:\n        /* \"#utility.yul\":10373:10700   */\n      pop\n        /* \"#utility.yul\":10290:10700   */\n      swap4\n      swap3\n      pop\n      pop\n      pop\n      jump\t// out\n        /* \"#utility.yul\":10719:11057   */\n    tag_217:\n        /* \"#utility.yul\":10774:10779   */\n      0x00\n        /* \"#utility.yul\":10823:10826   */\n      dup3\n        /* \"#utility.yul\":10816:10820   */\n      0x1f\n        /* \"#utility.yul\":10808:10814   */\n      dup4\n        /* \"#utility.yul\":10804:10821   */\n      add\n        /* \"#utility.yul\":10800:10827   */\n      slt\n        /* \"#utility.yul\":10790:10912   */\n      tag_334\n      jumpi\n        /* \"#utility.yul\":10831:10910   */\n      tag_335\n      tag_209\n      jump\t// in\n    tag_335:\n        /* \"#utility.yul\":10790:10912   */\n    tag_334:\n        /* \"#utility.yul\":10948:10954   */\n      dup2\n        /* \"#utility.yul\":10935:10955   */\n      calldataload\n        /* \"#utility.yul\":10973:11051   */\n      tag_336\n        /* \"#utility.yul\":11047:11050   */\n      dup5\n        /* \"#utility.yul\":11039:11045   */\n      dup3\n        /* \"#utility.yul\":11032:11036   */\n      0x20\n        /* \"#utility.yul\":11024:11030   */\n      dup7\n        /* \"#utility.yul\":11020:11037   */\n      add\n        /* \"#utility.yul\":10973:11051   */\n      tag_216\n      jump\t// in\n    tag_336:\n        /* \"#utility.yul\":10964:11051   */\n      swap2\n      pop\n        /* \"#utility.yul\":10780:11057   */\n      pop\n        /* \"#utility.yul\":10719:11057   */\n      swap3\n      swap2\n      pop\n      pop\n      jump\t// out\n        /* \"#utility.yul\":11063:11570   */\n    tag_25:\n        /* \"#utility.yul\":11131:11137   */\n      0x00\n        /* \"#utility.yul\":11180:11182   */\n      0x20\n        /* \"#utility.yul\":11168:11177   */\n      dup3\n        /* \"#utility.yul\":11159:11166   */\n      dup5\n        /* \"#utility.yul\":11155:11178   */\n      sub\n        /* \"#utility.yul\":11151:11183   */\n      slt\n        /* \"#utility.yul\":11148:11267   */\n      iszero\n      tag_338\n      jumpi\n        /* \"#utility.yul\":11186:11265   */\n      tag_339\n      tag_184\n      jump\t// in\n    tag_339:\n        /* \"#utility.yul\":11148:11267   */\n    tag_338:\n        /* \"#utility.yul\":11334:11335   */\n      0x00\n        /* \"#utility.yul\":11323:11332   */\n      dup3\n        /* \"#utility.yul\":11319:11336   */\n      add\n        /* \"#utility.yul\":11306:11337   */\n      calldataload\n        /* \"#utility.yul\":11364:11382   */\n      0xffffffffffffffff\n        /* \"#utility.yul\":11356:11362   */\n      dup2\n        /* \"#utility.yul\":11353:11383   */\n      gt\n        /* \"#utility.yul\":11350:11467   */\n      iszero\n      tag_340\n      jumpi\n        /* \"#utility.yul\":11386:11465   */\n      tag_341\n      tag_185\n      jump\t// in\n    tag_341:\n        /* \"#utility.yul\":11350:11467   */\n    tag_340:\n        /* \"#utility.yul\":11491:11553   */\n      tag_342\n        /* \"#utility.yul\":11545:11552   */\n      dup5\n        /* \"#utility.yul\":11536:11542   */\n      dup3\n        /* \"#utility.yul\":11525:11534   */\n      dup6\n        /* \"#utility.yul\":11521:11543   */\n      add\n        /* \"#utility.yul\":11491:11553   */\n      tag_217\n      jump\t// in\n    tag_342:\n        /* \"#utility.yul\":11481:11553   */\n      swap2\n      pop\n        /* \"#utility.yul\":11277:11563   */\n      pop\n        /* \"#utility.yul\":11063:11570   */\n      swap3\n      swap2\n      pop\n      pop\n      jump\t// out\n        /* \"#utility.yul\":11576:11822   */\n    tag_28:\n        /* \"#utility.yul\":11681:11685   */\n      0x00\n        /* \"#utility.yul\":11719:11721   */\n      0x20\n        /* \"#utility.yul\":11708:11717   */\n      dup3\n        /* \"#utility.yul\":11704:11722   */\n      add\n        /* \"#utility.yul\":11696:11722   */\n      swap1\n      pop\n        /* \"#utility.yul\":11732:11815   */\n      tag_344\n        /* \"#utility.yul\":11812:11813   */\n      0x00\n        /* \"#utility.yul\":11801:11810   */\n      dup4\n        /* \"#utility.yul\":11797:11814   */\n      add\n        /* \"#utility.yul\":11788:11794   */\n      dup5\n        /* \"#utility.yul\":11732:11815   */\n      tag_204\n      jump\t// in\n    tag_344:\n        /* \"#utility.yul\":11576:11822   */\n      swap3\n      swap2\n      pop\n      pop\n      jump\t// out\n        /* \"#utility.yul\":11828:12136   */\n    tag_218:\n        /* \"#utility.yul\":11890:11894   */\n      0x00\n        /* \"#utility.yul\":11980:11998   */\n      0xffffffffffffffff\n        /* \"#utility.yul\":11972:11978   */\n      dup3\n        /* \"#utility.yul\":11969:11999   */\n      gt\n        /* \"#utility.yul\":11966:12022   */\n      iszero\n      tag_346\n      jumpi\n        /* \"#utility.yul\":12002:12020   */\n      tag_347\n      tag_211\n      jump\t// in\n    tag_347:\n        /* \"#utility.yul\":11966:12022   */\n    tag_346:\n        /* \"#utility.yul\":12040:12069   */\n      tag_348\n        /* \"#utility.yul\":12062:12068   */\n      dup3\n        /* \"#utility.yul\":12040:12069   */\n      tag_192\n      jump\t// in\n    tag_348:\n        /* \"#utility.yul\":12032:12069   */\n      swap1\n      pop\n        /* \"#utility.yul\":12124:12128   */\n      0x20\n        /* \"#utility.yul\":12118:12122   */\n      dup2\n        /* \"#utility.yul\":12114:12129   */\n      add\n        /* \"#utility.yul\":12106:12129   */\n      swap1\n      pop\n        /* \"#utility.yul\":11828:12136   */\n      swap2\n      swap1\n      pop\n      jump\t// out\n        /* \"#utility.yul\":12142:12554   */\n    tag_219:\n        /* \"#utility.yul\":12220:12225   */\n      0x00\n        /* \"#utility.yul\":12245:12311   */\n      tag_350\n        /* \"#utility.yul\":12261:12310   */\n      tag_351\n        /* \"#utility.yul\":12303:12309   */\n      dup5\n        /* \"#utility.yul\":12261:12310   */\n      tag_218\n      jump\t// in\n    tag_351:\n        /* \"#utility.yul\":12245:12311   */\n      tag_213\n      jump\t// in\n    tag_350:\n        /* \"#utility.yul\":12236:12311   */\n      swap1\n      pop\n        /* \"#utility.yul\":12334:12340   */\n      dup3\n        /* \"#utility.yul\":12327:12332   */\n      dup2\n        /* \"#utility.yul\":12320:12341   */\n      mstore\n        /* \"#utility.yul\":12372:12376   */\n      0x20\n        /* \"#utility.yul\":12365:12370   */\n      dup2\n        /* \"#utility.yul\":12361:12377   */\n      add\n        /* \"#utility.yul\":12410:12413   */\n      dup5\n        /* \"#utility.yul\":12401:12407   */\n      dup5\n        /* \"#utility.yul\":12396:12399   */\n      dup5\n        /* \"#utility.yul\":12392:12408   */\n      add\n        /* \"#utility.yul\":12389:12414   */\n      gt\n        /* \"#utility.yul\":12386:12498   */\n      iszero\n      tag_352\n      jumpi\n        /* \"#utility.yul\":12417:12496   */\n      tag_353\n      tag_210\n      jump\t// in\n    tag_353:\n        /* \"#utility.yul\":12386:12498   */\n    tag_352:\n        /* \"#utility.yul\":12507:12548   */\n      tag_354\n        /* \"#utility.yul\":12541:12547   */\n      dup5\n        /* \"#utility.yul\":12536:12539   */\n      dup3\n        /* \"#utility.yul\":12531:12534   */\n      dup6\n        /* \"#utility.yul\":12507:12548   */\n      tag_215\n      jump\t// in\n    tag_354:\n        /* \"#utility.yul\":12226:12554   */\n      pop\n        /* \"#utility.yul\":12142:12554   */\n      swap4\n      swap3\n      pop\n      pop\n      pop\n      jump\t// out\n        /* \"#utility.yul\":12574:12914   */\n    tag_220:\n        /* \"#utility.yul\":12630:12635   */\n      0x00\n        /* \"#utility.yul\":12679:12682   */\n      dup3\n        /* \"#utility.yul\":12672:12676   */\n      0x1f\n        /* \"#utility.yul\":12664:12670   */\n      dup4\n        /* \"#utility.yul\":12660:12677   */\n      add\n        /* \"#utility.yul\":12656:12683   */\n      slt\n        /* \"#utility.yul\":12646:12768   */\n      tag_356\n      jumpi\n        /* \"#utility.yul\":12687:12766   */\n      tag_357\n      tag_209\n      jump\t// in\n    tag_357:\n        /* \"#utility.yul\":12646:12768   */\n    tag_356:\n        /* \"#utility.yul\":12804:12810   */\n      dup2\n        /* \"#utility.yul\":12791:12811   */\n      calldataload\n        /* \"#utility.yul\":12829:12908   */\n      tag_358\n        /* \"#utility.yul\":12904:12907   */\n      dup5\n        /* \"#utility.yul\":12896:12902   */\n      dup3\n        /* \"#utility.yul\":12889:12893   */\n      0x20\n        /* \"#utility.yul\":12881:12887   */\n      dup7\n        /* \"#utility.yul\":12877:12894   */\n      add\n        /* \"#utility.yul\":12829:12908   */\n      tag_219\n      jump\t// in\n    tag_358:\n        /* \"#utility.yul\":12820:12908   */\n      swap2\n      pop\n        /* \"#utility.yul\":12636:12914   */\n      pop\n        /* \"#utility.yul\":12574:12914   */\n      swap3\n      swap2\n      pop\n      pop\n      jump\t// out\n        /* \"#utility.yul\":12920:14551   */\n    tag_31:\n        /* \"#utility.yul\":13055:13061   */\n      0x00\n        /* \"#utility.yul\":13063:13069   */\n      dup1\n        /* \"#utility.yul\":13071:13077   */\n      0x00\n        /* \"#utility.yul\":13079:13085   */\n      dup1\n        /* \"#utility.yul\":13087:13093   */\n      0x00\n        /* \"#utility.yul\":13136:13139   */\n      0xa0\n        /* \"#utility.yul\":13124:13133   */\n      dup7\n        /* \"#utility.yul\":13115:13122   */\n      dup9\n        /* \"#utility.yul\":13111:13134   */\n      sub\n        /* \"#utility.yul\":13107:13140   */\n      slt\n        /* \"#utility.yul\":13104:13224   */\n      iszero\n      tag_360\n      jumpi\n        /* \"#utility.yul\":13143:13222   */\n      tag_361\n      tag_184\n      jump\t// in\n    tag_361:\n        /* \"#utility.yul\":13104:13224   */\n    tag_360:\n        /* \"#utility.yul\":13291:13292   */\n      0x00\n        /* \"#utility.yul\":13280:13289   */\n      dup7\n        /* \"#utility.yul\":13276:13293   */\n      add\n        /* \"#utility.yul\":13263:13294   */\n      calldataload\n        /* \"#utility.yul\":13321:13339   */\n      0xffffffffffffffff\n        /* \"#utility.yul\":13313:13319   */\n      dup2\n        /* \"#utility.yul\":13310:13340   */\n      gt\n        /* \"#utility.yul\":13307:13424   */\n      iszero\n      tag_362\n      jumpi\n        /* \"#utility.yul\":13343:13422   */\n      tag_363\n      tag_185\n      jump\t// in\n    tag_363:\n        /* \"#utility.yul\":13307:13424   */\n    tag_362:\n        /* \"#utility.yul\":13448:13511   */\n      tag_364\n        /* \"#utility.yul\":13503:13510   */\n      dup9\n        /* \"#utility.yul\":13494:13500   */\n      dup3\n        /* \"#utility.yul\":13483:13492   */\n      dup10\n        /* \"#utility.yul\":13479:13501   */\n      add\n        /* \"#utility.yul\":13448:13511   */\n      tag_220\n      jump\t// in\n    tag_364:\n        /* \"#utility.yul\":13438:13511   */\n      swap6\n      pop\n        /* \"#utility.yul\":13234:13521   */\n      pop\n        /* \"#utility.yul\":13588:13590   */\n      0x20\n        /* \"#utility.yul\":13577:13586   */\n      dup7\n        /* \"#utility.yul\":13573:13591   */\n      add\n        /* \"#utility.yul\":13560:13592   */\n      calldataload\n        /* \"#utility.yul\":13619:13637   */\n      0xffffffffffffffff\n        /* \"#utility.yul\":13611:13617   */\n      dup2\n        /* \"#utility.yul\":13608:13638   */\n      gt\n        /* \"#utility.yul\":13605:13722   */\n      iszero\n      tag_365\n      jumpi\n        /* \"#utility.yul\":13641:13720   */\n      tag_366\n      tag_185\n      jump\t// in\n    tag_366:\n        /* \"#utility.yul\":13605:13722   */\n    tag_365:\n        /* \"#utility.yul\":13746:13809   */\n      tag_367\n        /* \"#utility.yul\":13801:13808   */\n      dup9\n        /* \"#utility.yul\":13792:13798   */\n      dup3\n        /* \"#utility.yul\":13781:13790   */\n      dup10\n        /* \"#utility.yul\":13777:13799   */\n      add\n        /* \"#utility.yul\":13746:13809   */\n      tag_220\n      jump\t// in\n    tag_367:\n        /* \"#utility.yul\":13736:13809   */\n      swap5\n      pop\n        /* \"#utility.yul\":13531:13819   */\n      pop\n        /* \"#utility.yul\":13886:13888   */\n      0x40\n        /* \"#utility.yul\":13875:13884   */\n      dup7\n        /* \"#utility.yul\":13871:13889   */\n      add\n        /* \"#utility.yul\":13858:13890   */\n      calldataload\n        /* \"#utility.yul\":13917:13935   */\n      0xffffffffffffffff\n        /* \"#utility.yul\":13909:13915   */\n      dup2\n        /* \"#utility.yul\":13906:13936   */\n      gt\n        /* \"#utility.yul\":13903:14020   */\n      iszero\n      tag_368\n      jumpi\n        /* \"#utility.yul\":13939:14018   */\n      tag_369\n      tag_185\n      jump\t// in\n    tag_369:\n        /* \"#utility.yul\":13903:14020   */\n    tag_368:\n        /* \"#utility.yul\":14044:14107   */\n      tag_370\n        /* \"#utility.yul\":14099:14106   */\n      dup9\n        /* \"#utility.yul\":14090:14096   */\n      dup3\n        /* \"#utility.yul\":14079:14088   */\n      dup10\n        /* \"#utility.yul\":14075:14097   */\n      add\n        /* \"#utility.yul\":14044:14107   */\n      tag_220\n      jump\t// in\n    tag_370:\n        /* \"#utility.yul\":14034:14107   */\n      swap4\n      pop\n        /* \"#utility.yul\":13829:14117   */\n      pop\n        /* \"#utility.yul\":14156:14158   */\n      0x60\n        /* \"#utility.yul\":14182:14235   */\n      tag_371\n        /* \"#utility.yul\":14227:14234   */\n      dup9\n        /* \"#utility.yul\":14218:14224   */\n      dup3\n        /* \"#utility.yul\":14207:14216   */\n      dup10\n        /* \"#utility.yul\":14203:14225   */\n      add\n        /* \"#utility.yul\":14182:14235   */\n      tag_208\n      jump\t// in\n    tag_371:\n        /* \"#utility.yul\":14172:14235   */\n      swap3\n      pop\n        /* \"#utility.yul\":14127:14245   */\n      pop\n        /* \"#utility.yul\":14312:14315   */\n      0x80\n        /* \"#utility.yul\":14301:14310   */\n      dup7\n        /* \"#utility.yul\":14297:14316   */\n      add\n        /* \"#utility.yul\":14284:14317   */\n      calldataload\n        /* \"#utility.yul\":14344:14362   */\n      0xffffffffffffffff\n        /* \"#utility.yul\":14336:14342   */\n      dup2\n        /* \"#utility.yul\":14333:14363   */\n      gt\n        /* \"#utility.yul\":14330:14447   */\n      iszero\n      tag_372\n      jumpi\n        /* \"#utility.yul\":14366:14445   */\n      tag_373\n      tag_185\n      jump\t// in\n    tag_373:\n        /* \"#utility.yul\":14330:14447   */\n    tag_372:\n        /* \"#utility.yul\":14471:14534   */\n      tag_374\n        /* \"#utility.yul\":14526:14533   */\n      dup9\n        /* \"#utility.yul\":14517:14523   */\n      dup3\n        /* \"#utility.yul\":14506:14515   */\n      dup10\n        /* \"#utility.yul\":14502:14524   */\n      add\n        /* \"#utility.yul\":14471:14534   */\n      tag_220\n      jump\t// in\n    tag_374:\n        /* \"#utility.yul\":14461:14534   */\n      swap2\n      pop\n        /* \"#utility.yul\":14255:14544   */\n      pop\n        /* \"#utility.yul\":12920:14551   */\n      swap3\n      swap6\n      pop\n      swap3\n      swap6\n      swap1\n      swap4\n      pop\n      jump\t// out\n        /* \"#utility.yul\":14557:14779   */\n    tag_34:\n        /* \"#utility.yul\":14650:14654   */\n      0x00\n        /* \"#utility.yul\":14688:14690   */\n      0x20\n        /* \"#utility.yul\":14677:14686   */\n      dup3\n        /* \"#utility.yul\":14673:14691   */\n      add\n        /* \"#utility.yul\":14665:14691   */\n      swap1\n      pop\n        /* \"#utility.yul\":14701:14772   */\n      tag_376\n        /* \"#utility.yul\":14769:14770   */\n      0x00\n        /* \"#utility.yul\":14758:14767   */\n      dup4\n        /* \"#utility.yul\":14754:14771   */\n      add\n        /* \"#utility.yul\":14745:14751   */\n      dup5\n        /* \"#utility.yul\":14701:14772   */\n      tag_195\n      jump\t// in\n    tag_376:\n        /* \"#utility.yul\":14557:14779   */\n      swap3\n      swap2\n      pop\n      pop\n      jump\t// out\n        /* \"#utility.yul\":14785:14898   */\n    tag_221:\n        /* \"#utility.yul\":14872:14873   */\n      0x03\n        /* \"#utility.yul\":14865:14870   */\n      dup2\n        /* \"#utility.yul\":14862:14874   */\n      lt\n        /* \"#utility.yul\":14852:14892   */\n      tag_378\n      jumpi\n        /* \"#utility.yul\":14888:14889   */\n      0x00\n        /* \"#utility.yul\":14885:14886   */\n      dup1\n        /* \"#utility.yul\":14878:14890   */\n      revert\n        /* \"#utility.yul\":14852:14892   */\n    tag_378:\n        /* \"#utility.yul\":14785:14898   */\n      pop\n      jump\t// out\n        /* \"#utility.yul\":14904:15071   */\n    tag_222:\n        /* \"#utility.yul\":14964:14969   */\n      0x00\n        /* \"#utility.yul\":15002:15008   */\n      dup2\n        /* \"#utility.yul\":14989:15009   */\n      calldataload\n        /* \"#utility.yul\":14980:15009   */\n      swap1\n      pop\n        /* \"#utility.yul\":15018:15065   */\n      tag_380\n        /* \"#utility.yul\":15059:15064   */\n      dup2\n        /* \"#utility.yul\":15018:15065   */\n      tag_221\n      jump\t// in\n    tag_380:\n        /* \"#utility.yul\":14904:15071   */\n      swap3\n      swap2\n      pop\n      pop\n      jump\t// out\n        /* \"#utility.yul\":15077:16376   */\n    tag_37:\n        /* \"#utility.yul\":15206:15212   */\n      0x00\n        /* \"#utility.yul\":15214:15220   */\n      dup1\n        /* \"#utility.yul\":15222:15228   */\n      0x00\n        /* \"#utility.yul\":15230:15236   */\n      dup1\n        /* \"#utility.yul\":15238:15244   */\n      0x00\n        /* \"#utility.yul\":15287:15290   */\n      0xa0\n        /* \"#utility.yul\":15275:15284   */\n      dup7\n        /* \"#utility.yul\":15266:15273   */\n      dup9\n        /* \"#utility.yul\":15262:15285   */\n      sub\n        /* \"#utility.yul\":15258:15291   */\n      slt\n        /* \"#utility.yul\":15255:15375   */\n      iszero\n      tag_382\n      jumpi\n        /* \"#utility.yul\":15294:15373   */\n      tag_383\n      tag_184\n      jump\t// in\n    tag_383:\n        /* \"#utility.yul\":15255:15375   */\n    tag_382:\n        /* \"#utility.yul\":15414:15415   */\n      0x00\n        /* \"#utility.yul\":15439:15492   */\n      tag_384\n        /* \"#utility.yul\":15484:15491   */\n      dup9\n        /* \"#utility.yul\":15475:15481   */\n      dup3\n        /* \"#utility.yul\":15464:15473   */\n      dup10\n        /* \"#utility.yul\":15460:15482   */\n      add\n        /* \"#utility.yul\":15439:15492   */\n      tag_208\n      jump\t// in\n    tag_384:\n        /* \"#utility.yul\":15429:15492   */\n      swap6\n      pop\n        /* \"#utility.yul\":15385:15502   */\n      pop\n        /* \"#utility.yul\":15541:15543   */\n      0x20\n        /* \"#utility.yul\":15567:15620   */\n      tag_385\n        /* \"#utility.yul\":15612:15619   */\n      dup9\n        /* \"#utility.yul\":15603:15609   */\n      dup3\n        /* \"#utility.yul\":15592:15601   */\n      dup10\n        /* \"#utility.yul\":15588:15610   */\n      add\n        /* \"#utility.yul\":15567:15620   */\n      tag_208\n      jump\t// in\n    tag_385:\n        /* \"#utility.yul\":15557:15620   */\n      swap5\n      pop\n        /* \"#utility.yul\":15512:15630   */\n      pop\n        /* \"#utility.yul\":15669:15671   */\n      0x40\n        /* \"#utility.yul\":15695:15762   */\n      tag_386\n        /* \"#utility.yul\":15754:15761   */\n      dup9\n        /* \"#utility.yul\":15745:15751   */\n      dup3\n        /* \"#utility.yul\":15734:15743   */\n      dup10\n        /* \"#utility.yul\":15730:15752   */\n      add\n        /* \"#utility.yul\":15695:15762   */\n      tag_222\n      jump\t// in\n    tag_386:\n        /* \"#utility.yul\":15685:15762   */\n      swap4\n      pop\n        /* \"#utility.yul\":15640:15772   */\n      pop\n        /* \"#utility.yul\":15839:15841   */\n      0x60\n        /* \"#utility.yul\":15828:15837   */\n      dup7\n        /* \"#utility.yul\":15824:15842   */\n      add\n        /* \"#utility.yul\":15811:15843   */\n      calldataload\n        /* \"#utility.yul\":15870:15888   */\n      0xffffffffffffffff\n        /* \"#utility.yul\":15862:15868   */\n      dup2\n        /* \"#utility.yul\":15859:15889   */\n      gt\n        /* \"#utility.yul\":15856:15973   */\n      iszero\n      tag_387\n      jumpi\n        /* \"#utility.yul\":15892:15971   */\n      tag_388\n      tag_185\n      jump\t// in\n    tag_388:\n        /* \"#utility.yul\":15856:15973   */\n    tag_387:\n        /* \"#utility.yul\":15997:16060   */\n      tag_389\n        /* \"#utility.yul\":16052:16059   */\n      dup9\n        /* \"#utility.yul\":16043:16049   */\n      dup3\n        /* \"#utility.yul\":16032:16041   */\n      dup10\n        /* \"#utility.yul\":16028:16050   */\n      add\n        /* \"#utility.yul\":15997:16060   */\n      tag_220\n      jump\t// in\n    tag_389:\n        /* \"#utility.yul\":15987:16060   */\n      swap3\n      pop\n        /* \"#utility.yul\":15782:16070   */\n      pop\n        /* \"#utility.yul\":16137:16140   */\n      0x80\n        /* \"#utility.yul\":16126:16135   */\n      dup7\n        /* \"#utility.yul\":16122:16141   */\n      add\n        /* \"#utility.yul\":16109:16142   */\n      calldataload\n        /* \"#utility.yul\":16169:16187   */\n      0xffffffffffffffff\n        /* \"#utility.yul\":16161:16167   */\n      dup2\n        /* \"#utility.yul\":16158:16188   */\n      gt\n        /* \"#utility.yul\":16155:16272   */\n      iszero\n      tag_390\n      jumpi\n        /* \"#utility.yul\":16191:16270   */\n      tag_391\n      tag_185\n      jump\t// in\n    tag_391:\n        /* \"#utility.yul\":16155:16272   */\n    tag_390:\n        /* \"#utility.yul\":16296:16359   */\n      tag_392\n        /* \"#utility.yul\":16351:16358   */\n      dup9\n        /* \"#utility.yul\":16342:16348   */\n      dup3\n        /* \"#utility.yul\":16331:16340   */\n      dup10\n        /* \"#utility.yul\":16327:16349   */\n      add\n        /* \"#utility.yul\":16296:16359   */\n      tag_220\n      jump\t// in\n    tag_392:\n        /* \"#utility.yul\":16286:16359   */\n      swap2\n      pop\n        /* \"#utility.yul\":16080:16369   */\n      pop\n        /* \"#utility.yul\":15077:16376   */\n      swap3\n      swap6\n      pop\n      swap3\n      swap6\n      swap1\n      swap4\n      pop\n      jump\t// out\n        /* \"#utility.yul\":16382:16691   */\n    tag_40:\n        /* \"#utility.yul\":16493:16497   */\n      0x00\n        /* \"#utility.yul\":16531:16533   */\n      0x20\n        /* \"#utility.yul\":16520:16529   */\n      dup3\n        /* \"#utility.yul\":16516:16534   */\n      add\n        /* \"#utility.yul\":16508:16534   */\n      swap1\n      pop\n        /* \"#utility.yul\":16580:16589   */\n      dup2\n        /* \"#utility.yul\":16574:16578   */\n      dup2\n        /* \"#utility.yul\":16570:16590   */\n      sub\n        /* \"#utility.yul\":16566:16567   */\n      0x00\n        /* \"#utility.yul\":16555:16564   */\n      dup4\n        /* \"#utility.yul\":16551:16568   */\n      add\n        /* \"#utility.yul\":16544:16591   */\n      mstore\n        /* \"#utility.yul\":16608:16684   */\n      tag_394\n        /* \"#utility.yul\":16679:16683   */\n      dup2\n        /* \"#utility.yul\":16670:16676   */\n      dup5\n        /* \"#utility.yul\":16608:16684   */\n      tag_193\n      jump\t// in\n    tag_394:\n        /* \"#utility.yul\":16600:16684   */\n      swap1\n      pop\n        /* \"#utility.yul\":16382:16691   */\n      swap3\n      swap2\n      pop\n      pop\n      jump\t// out\n        /* \"#utility.yul\":16697:17010   */\n    tag_45:\n        /* \"#utility.yul\":16810:16814   */\n      0x00\n        /* \"#utility.yul\":16848:16850   */\n      0x20\n        /* \"#utility.yul\":16837:16846   */\n      dup3\n        /* \"#utility.yul\":16833:16851   */\n      add\n        /* \"#utility.yul\":16825:16851   */\n      swap1\n      pop\n        /* \"#utility.yul\":16897:16906   */\n      dup2\n        /* \"#utility.yul\":16891:16895   */\n      dup2\n        /* \"#utility.yul\":16887:16907   */\n      sub\n        /* \"#utility.yul\":16883:16884   */\n      0x00\n        /* \"#utility.yul\":16872:16881   */\n      dup4\n        /* \"#utility.yul\":16868:16885   */\n      add\n        /* \"#utility.yul\":16861:16908   */\n      mstore\n        /* \"#utility.yul\":16925:17003   */\n      tag_396\n        /* \"#utility.yul\":16998:17002   */\n      dup2\n        /* \"#utility.yul\":16989:16995   */\n      dup5\n        /* \"#utility.yul\":16925:17003   */\n      tag_206\n      jump\t// in\n    tag_396:\n        /* \"#utility.yul\":16917:17003   */\n      swap1\n      pop\n        /* \"#utility.yul\":16697:17010   */\n      swap3\n      swap2\n      pop\n      pop\n      jump\t// out\n        /* \"#utility.yul\":17016:17196   */\n    tag_223:\n        /* \"#utility.yul\":17064:17141   */\n      0x4e487b7100000000000000000000000000000000000000000000000000000000\n        /* \"#utility.yul\":17061:17062   */\n      0x00\n        /* \"#utility.yul\":17054:17142   */\n      mstore\n        /* \"#utility.yul\":17161:17165   */\n      0x22\n        /* \"#utility.yul\":17158:17159   */\n      0x04\n        /* \"#utility.yul\":17151:17166   */\n      mstore\n        /* \"#utility.yul\":17185:17189   */\n      0x24\n        /* \"#utility.yul\":17182:17183   */\n      0x00\n        /* \"#utility.yul\":17175:17190   */\n      revert\n        /* \"#utility.yul\":17202:17522   */\n    tag_51:\n        /* \"#utility.yul\":17246:17252   */\n      0x00\n        /* \"#utility.yul\":17283:17284   */\n      0x02\n        /* \"#utility.yul\":17277:17281   */\n      dup3\n        /* \"#utility.yul\":17273:17285   */\n      div\n        /* \"#utility.yul\":17263:17285   */\n      swap1\n      pop\n        /* \"#utility.yul\":17330:17331   */\n      0x01\n        /* \"#utility.yul\":17324:17328   */\n      dup3\n        /* \"#utility.yul\":17320:17332   */\n      and\n        /* \"#utility.yul\":17351:17369   */\n      dup1\n        /* \"#utility.yul\":17341:17422   */\n      tag_399\n      jumpi\n        /* \"#utility.yul\":17407:17411   */\n      0x7f\n        /* \"#utility.yul\":17399:17405   */\n      dup3\n        /* \"#utility.yul\":17395:17412   */\n      and\n        /* \"#utility.yul\":17385:17412   */\n      swap2\n      pop\n        /* \"#utility.yul\":17341:17422   */\n    tag_399:\n        /* \"#utility.yul\":17469:17471   */\n      0x20\n        /* \"#utility.yul\":17461:17467   */\n      dup3\n        /* \"#utility.yul\":17458:17472   */\n      lt\n        /* \"#utility.yul\":17438:17456   */\n      dup2\n        /* \"#utility.yul\":17435:17473   */\n      eq\n        /* \"#utility.yul\":17432:17516   */\n      iszero\n      tag_400\n      jumpi\n        /* \"#utility.yul\":17488:17506   */\n      tag_401\n      tag_223\n      jump\t// in\n    tag_401:\n        /* \"#utility.yul\":17432:17516   */\n    tag_400:\n        /* \"#utility.yul\":17253:17522   */\n      pop\n        /* \"#utility.yul\":17202:17522   */\n      swap2\n      swap1\n      pop\n      jump\t// out\n        /* \"#utility.yul\":17528:17708   */\n    tag_224:\n        /* \"#utility.yul\":17576:17653   */\n      0x4e487b7100000000000000000000000000000000000000000000000000000000\n        /* \"#utility.yul\":17573:17574   */\n      0x00\n        /* \"#utility.yul\":17566:17654   */\n      mstore\n        /* \"#utility.yul\":17673:17677   */\n      0x11\n        /* \"#utility.yul\":17670:17671   */\n      0x04\n        /* \"#utility.yul\":17663:17678   */\n      mstore\n        /* \"#utility.yul\":17697:17701   */\n      0x24\n        /* \"#utility.yul\":17694:17695   */\n      0x00\n        /* \"#utility.yul\":17687:17702   */\n      revert\n        /* \"#utility.yul\":17714:17947   */\n    tag_109:\n        /* \"#utility.yul\":17753:17756   */\n      0x00\n        /* \"#utility.yul\":17776:17800   */\n      tag_404\n        /* \"#utility.yul\":17794:17799   */\n      dup3\n        /* \"#utility.yul\":17776:17800   */\n      tag_194\n      jump\t// in\n    tag_404:\n        /* \"#utility.yul\":17767:17800   */\n      swap2\n      pop\n        /* \"#utility.yul\":17822:17888   */\n      0xffffffffffffffffffffffffffffffffffffffffffffffffffffffffffffffff\n        /* \"#utility.yul\":17815:17820   */\n      dup3\n        /* \"#utility.yul\":17812:17889   */\n      eq\n        /* \"#utility.yul\":17809:17912   */\n      iszero\n      tag_405\n      jumpi\n        /* \"#utility.yul\":17892:17910   */\n      tag_406\n      tag_224\n      jump\t// in\n    tag_406:\n        /* \"#utility.yul\":17809:17912   */\n    tag_405:\n        /* \"#utility.yul\":17939:17940   */\n      0x01\n        /* \"#utility.yul\":17932:17937   */\n      dup3\n        /* \"#utility.yul\":17928:17941   */\n      add\n        /* \"#utility.yul\":17921:17941   */\n      swap1\n      pop\n        /* \"#utility.yul\":17714:17947   */\n      swap2\n      swap1\n      pop\n      jump\t// out\n        /* \"#utility.yul\":17953:18032   */\n    tag_225:\n        /* \"#utility.yul\":17992:17999   */\n      0x00\n        /* \"#utility.yul\":18021:18026   */\n      dup2\n        /* \"#utility.yul\":18010:18026   */\n      swap1\n      pop\n        /* \"#utility.yul\":17953:18032   */\n      swap2\n      swap1\n      pop\n      jump\t// out\n        /* \"#utility.yul\":18038:18195   */\n    tag_226:\n        /* \"#utility.yul\":18143:18188   */\n      tag_409\n        /* \"#utility.yul\":18163:18187   */\n      tag_410\n        /* \"#utility.yul\":18181:18186   */\n      dup3\n        /* \"#utility.yul\":18163:18187   */\n      tag_194\n      jump\t// in\n    tag_410:\n        /* \"#utility.yul\":18143:18188   */\n      tag_225\n      jump\t// in\n    tag_409:\n        /* \"#utility.yul\":18138:18141   */\n      dup3\n        /* \"#utility.yul\":18131:18189   */\n      mstore\n        /* \"#utility.yul\":18038:18195   */\n      pop\n      pop\n      jump\t// out\n        /* \"#utility.yul\":18201:18598   */\n    tag_117:\n        /* \"#utility.yul\":18341:18344   */\n      0x00\n        /* \"#utility.yul\":18356:18431   */\n      tag_412\n        /* \"#utility.yul\":18427:18430   */\n      dup3\n        /* \"#utility.yul\":18418:18424   */\n      dup6\n        /* \"#utility.yul\":18356:18431   */\n      tag_226\n      jump\t// in\n    tag_412:\n        /* \"#utility.yul\":18456:18458   */\n      0x20\n        /* \"#utility.yul\":18451:18454   */\n      dup3\n        /* \"#utility.yul\":18447:18459   */\n      add\n        /* \"#utility.yul\":18440:18459   */\n      swap2\n      pop\n        /* \"#utility.yul\":18469:18544   */\n      tag_413\n        /* \"#utility.yul\":18540:18543   */\n      dup3\n        /* \"#utility.yul\":18531:18537   */\n      dup5\n        /* \"#utility.yul\":18469:18544   */\n      tag_226\n      jump\t// in\n    tag_413:\n        /* \"#utility.yul\":18569:18571   */\n      0x20\n        /* \"#utility.yul\":18564:18567   */\n      dup3\n        /* \"#utility.yul\":18560:18572   */\n      add\n        /* \"#utility.yul\":18553:18572   */\n      swap2\n      pop\n        /* \"#utility.yul\":18589:18592   */\n      dup2\n        /* \"#utility.yul\":18582:18592   */\n      swap1\n      pop\n        /* \"#utility.yul\":18201:18598   */\n      swap4\n      swap3\n      pop\n      pop\n      pop\n      jump\t// out\n        /* \"#utility.yul\":18604:18909   */\n    tag_153:\n        /* \"#utility.yul\":18644:18647   */\n      0x00\n        /* \"#utility.yul\":18663:18683   */\n      tag_415\n        /* \"#utility.yul\":18681:18682   */\n      dup3\n        /* \"#utility.yul\":18663:18683   */\n      tag_194\n      jump\t// in\n    tag_415:\n        /* \"#utility.yul\":18658:18683   */\n      swap2\n      pop\n        /* \"#utility.yul\":18697:18717   */\n      tag_416\n        /* \"#utility.yul\":18715:18716   */\n      dup4\n        /* \"#utility.yul\":18697:18717   */\n      tag_194\n      jump\t// in\n    tag_416:\n        /* \"#utility.yul\":18692:18717   */\n      swap3\n      pop\n        /* \"#utility.yul\":18851:18852   */\n      dup3\n        /* \"#utility.yul\":18783:18849   */\n      0xffffffffffffffffffffffffffffffffffffffffffffffffffffffffffffffff\n        /* \"#utility.yul\":18779:18853   */\n      sub\n        /* \"#utility.yul\":18776:18777   */\n      dup3\n        /* \"#utility.yul\":18773:18854   */\n      gt\n        /* \"#utility.yul\":18770:18877   */\n      iszero\n      tag_417\n      jumpi\n        /* \"#utility.yul\":18857:18875   */\n      tag_418\n      tag_224\n      jump\t// in\n    tag_418:\n        /* \"#utility.yul\":18770:18877   */\n    tag_417:\n        /* \"#utility.yul\":18901:18902   */\n      dup3\n        /* \"#utility.yul\":18898:18899   */\n      dup3\n        /* \"#utility.yul\":18894:18903   */\n      add\n        /* \"#utility.yul\":18887:18903   */\n      swap1\n      pop\n        /* \"#utility.yul\":18604:18909   */\n      swap3\n      swap2\n      pop\n      pop\n      jump\t// out\n\n    auxdata: 0xa26469706673582212205890ecc9b13b980d327d1fcecc22f767f9464f77731d7760d82758993e03c98764736f6c634300080c0033\n}\n",
				"bytecode": {
					"linkReferences": {},
					"object": "608060405260008055600060035534801561001957600080fd5b50611aba806100296000396000f3fe608060405234801561001057600080fd5b506004361061007d5760003560e01c80632b41cdb91161005b5780632b41cdb91461011c578063d353b2b11461014c578063d4c853661461017c578063f29a6f44146101ac5761007d565b8063109075f11461008257806328de3c9b146100b757806329efb4a9146100ec575b600080fd5b61009c600480360381019061009791906110b7565b6101dc565b6040516100ae96959493929190611359565b60405180910390f35b6100d160048036038101906100cc9190611402565b610623565b6040516100e39695949392919061142f565b60405180910390f35b610106600480360381019061010191906115e1565b61087f565b604051610113919061162a565b60405180910390f35b610136600480360381019061013191906116e6565b6108b3565b60405161014391906117d1565b60405180910390f35b61016660048036038101906101619190611811565b61095d565b60405161017391906118c4565b60405180910390f35b610196600480360381019061019191906115e1565b610de0565b6040516101a391906118e6565b60405180910390f35b6101c660048036038101906101c191906115e1565b610e92565b6040516101d391906118e6565b60405180910390f35b60016020528060005260406000206000915090508060000180546101ff90611937565b80601f016020809104026020016040519081016040528092919081815260200182805461022b90611937565b80156102785780601f1061024d57610100808354040283529160200191610278565b820191906000526020600020905b81548152906001019060200180831161025b57829003601f168201915b505050505090806001015490806002016040518060c0016040529081600082015481526020016001820180546102ad90611937565b80601f01602080910402602001604051908101604052809291908181526020018280546102d990611937565b80156103265780601f106102fb57610100808354040283529160200191610326565b820191906000526020600020905b81548152906001019060200180831161030957829003601f168201915b5050505050815260200160028201805461033f90611937565b80601f016020809104026020016040519081016040528092919081815260200182805461036b90611937565b80156103b85780601f1061038d576101008083540402835291602001916103b8565b820191906000526020600020905b81548152906001019060200180831161039b57829003601f168201915b505050505081526020016003820180546103d190611937565b80601f01602080910402602001604051908101604052809291908181526020018280546103fd90611937565b801561044a5780601f1061041f5761010080835404028352916020019161044a565b820191906000526020600020905b81548152906001019060200180831161042d57829003601f168201915b505050505081526020016004820154815260200160058201805461046d90611937565b80601f016020809104026020016040519081016040528092919081815260200182805461049990611937565b80156104e65780601f106104bb576101008083540402835291602001916104e6565b820191906000526020600020905b8154815290600101906020018083116104c957829003601f168201915b505050505081525050908060080160009054906101000a900460ff169080600901805461051290611937565b80601f016020809104026020016040519081016040528092919081815260200182805461053e90611937565b801561058b5780601f106105605761010080835404028352916020019161058b565b820191906000526020600020905b81548152906001019060200180831161056e57829003601f168201915b50505050509080600a0180546105a090611937565b80601f01602080910402602001604051908101604052809291908181526020018280546105cc90611937565b80156106195780601f106105ee57610100808354040283529160200191610619565b820191906000526020600020905b8154815290600101906020018083116105fc57829003601f168201915b5050505050905086565b600260205280600052604060002060009150905080600001549080600101805461064c90611937565b80601f016020809104026020016040519081016040528092919081815260200182805461067890611937565b80156106c55780601f1061069a576101008083540402835291602001916106c5565b820191906000526020600020905b8154815290600101906020018083116106a857829003601f168201915b5050505050908060020180546106da90611937565b80601f016020809104026020016040519081016040528092919081815260200182805461070690611937565b80156107535780601f1061072857610100808354040283529160200191610753565b820191906000526020600020905b81548152906001019060200180831161073657829003601f168201915b50505050509080600301805461076890611937565b80601f016020809104026020016040519081016040528092919081815260200182805461079490611937565b80156107e15780601f106107b6576101008083540402835291602001916107e1565b820191906000526020600020905b8154815290600101906020018083116107c457829003601f168201915b5050505050908060040154908060050180546107fc90611937565b80601f016020809104026020016040519081016040528092919081815260200182805461082890611937565b80156108755780601f1061084a57610100808354040283529160200191610875565b820191906000526020600020905b81548152906001019060200180831161085857829003601f168201915b5050505050905086565b6000600160008380519060200120815260200190815260200160002060080160009054906101000a900460ff169050919050565b60008060026000600360008154809291906108cd90611998565b9190505581526020019081526020016000209050868160010190805190602001906108f9929190610f44565b5085816002019080519060200190610912929190610f44565b508481600301908051906020019061092b929190610f44565b508381600401819055508281600501908051906020019061094d929190610f44565b5060035491505095945050505050565b60606000805486604051602001610975929190611a02565b604051602081830303815290604052905060006040518060c00160405280838152602001898152602001600260008a81526020019081526020016000206040518060c0016040529081600082015481526020016001820180546109d790611937565b80601f0160208091040260200160405190810160405280929190818152602001828054610a0390611937565b8015610a505780601f10610a2557610100808354040283529160200191610a50565b820191906000526020600020905b815481529060010190602001808311610a3357829003601f168201915b50505050508152602001600282018054610a6990611937565b80601f0160208091040260200160405190810160405280929190818152602001828054610a9590611937565b8015610ae25780601f10610ab757610100808354040283529160200191610ae2565b820191906000526020600020905b815481529060010190602001808311610ac557829003601f168201915b50505050508152602001600382018054610afb90611937565b80601f0160208091040260200160405190810160405280929190818152602001828054610b2790611937565b8015610b745780601f10610b4957610100808354040283529160200191610b74565b820191906000526020600020905b815481529060010190602001808311610b5757829003601f168201915b5050505050815260200160048201548152602001600582018054610b9790611937565b80601f0160208091040260200160405190810160405280929190818152602001828054610bc390611937565b8015610c105780601f10610be557610100808354040283529160200191610c10565b820191906000526020600020905b815481529060010190602001808311610bf357829003601f168201915b5050505050815250508152602001876002811115610c3157610c30611298565b5b81526020018681526020018581525090508060016000848051906020012081526020019081526020016000206000820151816000019080519060200190610c79929190610fca565b5060208201518160010155604082015181600201600082015181600001556020820151816001019080519060200190610cb3929190610f44565b506040820151816002019080519060200190610cd0929190610f44565b506060820151816003019080519060200190610ced929190610f44565b506080820151816004015560a0820151816005019080519060200190610d14929190610f44565b50505060608201518160080160006101000a81548160ff02191690836002811115610d4257610d41611298565b5b02179055506080820151816009019080519060200190610d63929190610f44565b5060a082015181600a019080519060200190610d80929190610f44565b509050507f08b2c200b5f16565b86d1596988527109771ff8ed118f330cca9ee70d6ba9a16600054604051610db591906117d1565b60405180910390a16001600054610dcc9190611a2e565b600081905550819250505095945050505050565b606060016000838051906020012081526020019081526020016000206002016002018054610e0d90611937565b80601f0160208091040260200160405190810160405280929190818152602001828054610e3990611937565b8015610e865780601f10610e5b57610100808354040283529160200191610e86565b820191906000526020600020905b815481529060010190602001808311610e6957829003601f168201915b50505050509050919050565b606060016000838051906020012081526020019081526020016000206002016001018054610ebf90611937565b80601f0160208091040260200160405190810160405280929190818152602001828054610eeb90611937565b8015610f385780601f10610f0d57610100808354040283529160200191610f38565b820191906000526020600020905b815481529060010190602001808311610f1b57829003601f168201915b50505050509050919050565b828054610f5090611937565b90600052602060002090601f016020900481019282610f725760008555610fb9565b82601f10610f8b57805160ff1916838001178555610fb9565b82800160010185558215610fb9579182015b82811115610fb8578251825591602001919060010190610f9d565b5b509050610fc69190611050565b5090565b828054610fd690611937565b90600052602060002090601f016020900481019282610ff8576000855561103f565b82601f1061101157805160ff191683800117855561103f565b8280016001018555821561103f579182015b8281111561103e578251825591602001919060010190611023565b5b50905061104c9190611050565b5090565b5b80821115611069576000816000905550600101611051565b5090565b6000604051905090565b600080fd5b600080fd5b6000819050919050565b61109481611081565b811461109f57600080fd5b50565b6000813590506110b18161108b565b92915050565b6000602082840312156110cd576110cc611077565b5b60006110db848285016110a2565b91505092915050565b600081519050919050565b600082825260208201905092915050565b60005b8381101561111e578082015181840152602081019050611103565b8381111561112d576000848401525b50505050565b6000601f19601f8301169050919050565b600061114f826110e4565b61115981856110ef565b9350611169818560208601611100565b61117281611133565b840191505092915050565b6000819050919050565b6111908161117d565b82525050565b61119f8161117d565b82525050565b600081519050919050565b600082825260208201905092915050565b60006111cc826111a5565b6111d681856111b0565b93506111e6818560208601611100565b6111ef81611133565b840191505092915050565b600060c0830160008301516112126000860182611196565b506020830151848203602086015261122a82826111c1565b9150506040830151848203604086015261124482826111c1565b9150506060830151848203606086015261125e82826111c1565b91505060808301516112736080860182611196565b5060a083015184820360a086015261128b82826111c1565b9150508091505092915050565b7f4e487b7100000000000000000000000000000000000000000000000000000000600052602160045260246000fd5b600381106112d8576112d7611298565b5b50565b60008190506112e9826112c7565b919050565b60006112f9826112db565b9050919050565b611309816112ee565b82525050565b600082825260208201905092915050565b600061132b826111a5565b611335818561130f565b9350611345818560208601611100565b61134e81611133565b840191505092915050565b600060c08201905081810360008301526113738189611144565b90506113826020830188611187565b818103604083015261139481876111fa565b90506113a36060830186611300565b81810360808301526113b58185611320565b905081810360a08301526113c98184611320565b9050979650505050505050565b6113df8161117d565b81146113ea57600080fd5b50565b6000813590506113fc816113d6565b92915050565b60006020828403121561141857611417611077565b5b6000611426848285016113ed565b91505092915050565b600060c0820190506114446000830189611187565b81810360208301526114568188611320565b9050818103604083015261146a8187611320565b9050818103606083015261147e8186611320565b905061148d6080830185611187565b81810360a083015261149f8184611320565b9050979650505050505050565b600080fd5b600080fd5b7f4e487b7100000000000000000000000000000000000000000000000000000000600052604160045260246000fd5b6114ee82611133565b810181811067ffffffffffffffff8211171561150d5761150c6114b6565b5b80604052505050565b600061152061106d565b905061152c82826114e5565b919050565b600067ffffffffffffffff82111561154c5761154b6114b6565b5b61155582611133565b9050602081019050919050565b82818337600083830152505050565b600061158461157f84611531565b611516565b9050828152602081018484840111156115a05761159f6114b1565b5b6115ab848285611562565b509392505050565b600082601f8301126115c8576115c76114ac565b5b81356115d8848260208601611571565b91505092915050565b6000602082840312156115f7576115f6611077565b5b600082013567ffffffffffffffff8111156116155761161461107c565b5b611621848285016115b3565b91505092915050565b600060208201905061163f6000830184611300565b92915050565b600067ffffffffffffffff8211156116605761165f6114b6565b5b61166982611133565b9050602081019050919050565b600061168961168484611645565b611516565b9050828152602081018484840111156116a5576116a46114b1565b5b6116b0848285611562565b509392505050565b600082601f8301126116cd576116cc6114ac565b5b81356116dd848260208601611676565b91505092915050565b600080600080600060a0868803121561170257611701611077565b5b600086013567ffffffffffffffff8111156117205761171f61107c565b5b61172c888289016116b8565b955050602086013567ffffffffffffffff81111561174d5761174c61107c565b5b611759888289016116b8565b945050604086013567ffffffffffffffff81111561177a5761177961107c565b5b611786888289016116b8565b9350506060611797888289016113ed565b925050608086013567ffffffffffffffff8111156117b8576117b761107c565b5b6117c4888289016116b8565b9150509295509295909350565b60006020820190506117e66000830184611187565b92915050565b600381106117f957600080fd5b50565b60008135905061180b816117ec565b92915050565b600080600080600060a0868803121561182d5761182c611077565b5b600061183b888289016113ed565b955050602061184c888289016113ed565b945050604061185d888289016117fc565b935050606086013567ffffffffffffffff81111561187e5761187d61107c565b5b61188a888289016116b8565b925050608086013567ffffffffffffffff8111156118ab576118aa61107c565b5b6118b7888289016116b8565b9150509295509295909350565b600060208201905081810360008301526118de8184611144565b905092915050565b600060208201905081810360008301526119008184611320565b905092915050565b7f4e487b7100000000000000000000000000000000000000000000000000000000600052602260045260246000fd5b6000600282049050600182168061194f57607f821691505b6020821081141561196357611962611908565b5b50919050565b7f4e487b7100000000000000000000000000000000000000000000000000000000600052601160045260246000fd5b60006119a38261117d565b91507fffffffffffffffffffffffffffffffffffffffffffffffffffffffffffffffff8214156119d6576119d5611969565b5b600182019050919050565b6000819050919050565b6119fc6119f78261117d565b6119e1565b82525050565b6000611a0e82856119eb565b602082019150611a1e82846119eb565b6020820191508190509392505050565b6000611a398261117d565b9150611a448361117d565b9250827fffffffffffffffffffffffffffffffffffffffffffffffffffffffffffffffff03821115611a7957611a78611969565b5b82820190509291505056fea26469706673582212205890ecc9b13b980d327d1fcecc22f767f9464f77731d7760d82758993e03c98764736f6c634300080c0033",
					"opcodes": "PUSH1 0x80 PUSH1 0x40 MSTORE PUSH1 0x0 DUP1 SSTORE PUSH1 0x0 PUSH1 0x3 SSTORE CALLVALUE DUP1 ISZERO PUSH2 0x19 JUMPI PUSH1 0x0 DUP1 REVERT JUMPDEST POP PUSH2 0x1ABA DUP1 PUSH2 0x29 PUSH1 0x0 CODECOPY PUSH1 0x0 RETURN INVALID PUSH1 0x80 PUSH1 0x40 MSTORE CALLVALUE DUP1 ISZERO PUSH2 0x10 JUMPI PUSH1 0x0 DUP1 REVERT JUMPDEST POP PUSH1 0x4 CALLDATASIZE LT PUSH2 0x7D JUMPI PUSH1 0x0 CALLDATALOAD PUSH1 0xE0 SHR DUP1 PUSH4 0x2B41CDB9 GT PUSH2 0x5B JUMPI DUP1 PUSH4 0x2B41CDB9 EQ PUSH2 0x11C JUMPI DUP1 PUSH4 0xD353B2B1 EQ PUSH2 0x14C JUMPI DUP1 PUSH4 0xD4C85366 EQ PUSH2 0x17C JUMPI DUP1 PUSH4 0xF29A6F44 EQ PUSH2 0x1AC JUMPI PUSH2 0x7D JUMP JUMPDEST DUP1 PUSH4 0x109075F1 EQ PUSH2 0x82 JUMPI DUP1 PUSH4 0x28DE3C9B EQ PUSH2 0xB7 JUMPI DUP1 PUSH4 0x29EFB4A9 EQ PUSH2 0xEC JUMPI JUMPDEST PUSH1 0x0 DUP1 REVERT JUMPDEST PUSH2 0x9C PUSH1 0x4 DUP1 CALLDATASIZE SUB DUP2 ADD SWAP1 PUSH2 0x97 SWAP2 SWAP1 PUSH2 0x10B7 JUMP JUMPDEST PUSH2 0x1DC JUMP JUMPDEST PUSH1 0x40 MLOAD PUSH2 0xAE SWAP7 SWAP6 SWAP5 SWAP4 SWAP3 SWAP2 SWAP1 PUSH2 0x1359 JUMP JUMPDEST PUSH1 0x40 MLOAD DUP1 SWAP2 SUB SWAP1 RETURN JUMPDEST PUSH2 0xD1 PUSH1 0x4 DUP1 CALLDATASIZE SUB DUP2 ADD SWAP1 PUSH2 0xCC SWAP2 SWAP1 PUSH2 0x1402 JUMP JUMPDEST PUSH2 0x623 JUMP JUMPDEST PUSH1 0x40 MLOAD PUSH2 0xE3 SWAP7 SWAP6 SWAP5 SWAP4 SWAP3 SWAP2 SWAP1 PUSH2 0x142F JUMP JUMPDEST PUSH1 0x40 MLOAD DUP1 SWAP2 SUB SWAP1 RETURN JUMPDEST PUSH2 0x106 PUSH1 0x4 DUP1 CALLDATASIZE SUB DUP2 ADD SWAP1 PUSH2 0x101 SWAP2 SWAP1 PUSH2 0x15E1 JUMP JUMPDEST PUSH2 0x87F JUMP JUMPDEST PUSH1 0x40 MLOAD PUSH2 0x113 SWAP2 SWAP1 PUSH2 0x162A JUMP JUMPDEST PUSH1 0x40 MLOAD DUP1 SWAP2 SUB SWAP1 RETURN JUMPDEST PUSH2 0x136 PUSH1 0x4 DUP1 CALLDATASIZE SUB DUP2 ADD SWAP1 PUSH2 0x131 SWAP2 SWAP1 PUSH2 0x16E6 JUMP JUMPDEST PUSH2 0x8B3 JUMP JUMPDEST PUSH1 0x40 MLOAD PUSH2 0x143 SWAP2 SWAP1 PUSH2 0x17D1 JUMP JUMPDEST PUSH1 0x40 MLOAD DUP1 SWAP2 SUB SWAP1 RETURN JUMPDEST PUSH2 0x166 PUSH1 0x4 DUP1 CALLDATASIZE SUB DUP2 ADD SWAP1 PUSH2 0x161 SWAP2 SWAP1 PUSH2 0x1811 JUMP JUMPDEST PUSH2 0x95D JUMP JUMPDEST PUSH1 0x40 MLOAD PUSH2 0x173 SWAP2 SWAP1 PUSH2 0x18C4 JUMP JUMPDEST PUSH1 0x40 MLOAD DUP1 SWAP2 SUB SWAP1 RETURN JUMPDEST PUSH2 0x196 PUSH1 0x4 DUP1 CALLDATASIZE SUB DUP2 ADD SWAP1 PUSH2 0x191 SWAP2 SWAP1 PUSH2 0x15E1 JUMP JUMPDEST PUSH2 0xDE0 JUMP JUMPDEST PUSH1 0x40 MLOAD PUSH2 0x1A3 SWAP2 SWAP1 PUSH2 0x18E6 JUMP JUMPDEST PUSH1 0x40 MLOAD DUP1 SWAP2 SUB SWAP1 RETURN JUMPDEST PUSH2 0x1C6 PUSH1 0x4 DUP1 CALLDATASIZE SUB DUP2 ADD SWAP1 PUSH2 0x1C1 SWAP2 SWAP1 PUSH2 0x15E1 JUMP JUMPDEST PUSH2 0xE92 JUMP JUMPDEST PUSH1 0x40 MLOAD PUSH2 0x1D3 SWAP2 SWAP1 PUSH2 0x18E6 JUMP JUMPDEST PUSH1 0x40 MLOAD DUP1 SWAP2 SUB SWAP1 RETURN JUMPDEST PUSH1 0x1 PUSH1 0x20 MSTORE DUP1 PUSH1 0x0 MSTORE PUSH1 0x40 PUSH1 0x0 KECCAK256 PUSH1 0x0 SWAP2 POP SWAP1 POP DUP1 PUSH1 0x0 ADD DUP1 SLOAD PUSH2 0x1FF SWAP1 PUSH2 0x1937 JUMP JUMPDEST DUP1 PUSH1 0x1F ADD PUSH1 0x20 DUP1 SWAP2 DIV MUL PUSH1 0x20 ADD PUSH1 0x40 MLOAD SWAP1 DUP2 ADD PUSH1 0x40 MSTORE DUP1 SWAP3 SWAP2 SWAP1 DUP2 DUP2 MSTORE PUSH1 0x20 ADD DUP3 DUP1 SLOAD PUSH2 0x22B SWAP1 PUSH2 0x1937 JUMP JUMPDEST DUP1 ISZERO PUSH2 0x278 JUMPI DUP1 PUSH1 0x1F LT PUSH2 0x24D JUMPI PUSH2 0x100 DUP1 DUP4 SLOAD DIV MUL DUP4 MSTORE SWAP2 PUSH1 0x20 ADD SWAP2 PUSH2 0x278 JUMP JUMPDEST DUP3 ADD SWAP2 SWAP1 PUSH1 0x0 MSTORE PUSH1 0x20 PUSH1 0x0 KECCAK256 SWAP1 JUMPDEST DUP2 SLOAD DUP2 MSTORE SWAP1 PUSH1 0x1 ADD SWAP1 PUSH1 0x20 ADD DUP1 DUP4 GT PUSH2 0x25B JUMPI DUP3 SWAP1 SUB PUSH1 0x1F AND DUP3 ADD SWAP2 JUMPDEST POP POP POP POP POP SWAP1 DUP1 PUSH1 0x1 ADD SLOAD SWAP1 DUP1 PUSH1 0x2 ADD PUSH1 0x40 MLOAD DUP1 PUSH1 0xC0 ADD PUSH1 0x40 MSTORE SWAP1 DUP2 PUSH1 0x0 DUP3 ADD SLOAD DUP2 MSTORE PUSH1 0x20 ADD PUSH1 0x1 DUP3 ADD DUP1 SLOAD PUSH2 0x2AD SWAP1 PUSH2 0x1937 JUMP JUMPDEST DUP1 PUSH1 0x1F ADD PUSH1 0x20 DUP1 SWAP2 DIV MUL PUSH1 0x20 ADD PUSH1 0x40 MLOAD SWAP1 DUP2 ADD PUSH1 0x40 MSTORE DUP1 SWAP3 SWAP2 SWAP1 DUP2 DUP2 MSTORE PUSH1 0x20 ADD DUP3 DUP1 SLOAD PUSH2 0x2D9 SWAP1 PUSH2 0x1937 JUMP JUMPDEST DUP1 ISZERO PUSH2 0x326 JUMPI DUP1 PUSH1 0x1F LT PUSH2 0x2FB JUMPI PUSH2 0x100 DUP1 DUP4 SLOAD DIV MUL DUP4 MSTORE SWAP2 PUSH1 0x20 ADD SWAP2 PUSH2 0x326 JUMP JUMPDEST DUP3 ADD SWAP2 SWAP1 PUSH1 0x0 MSTORE PUSH1 0x20 PUSH1 0x0 KECCAK256 SWAP1 JUMPDEST DUP2 SLOAD DUP2 MSTORE SWAP1 PUSH1 0x1 ADD SWAP1 PUSH1 0x20 ADD DUP1 DUP4 GT PUSH2 0x309 JUMPI DUP3 SWAP1 SUB PUSH1 0x1F AND DUP3 ADD SWAP2 JUMPDEST POP POP POP POP POP DUP2 MSTORE PUSH1 0x20 ADD PUSH1 0x2 DUP3 ADD DUP1 SLOAD PUSH2 0x33F SWAP1 PUSH2 0x1937 JUMP JUMPDEST DUP1 PUSH1 0x1F ADD PUSH1 0x20 DUP1 SWAP2 DIV MUL PUSH1 0x20 ADD PUSH1 0x40 MLOAD SWAP1 DUP2 ADD PUSH1 0x40 MSTORE DUP1 SWAP3 SWAP2 SWAP1 DUP2 DUP2 MSTORE PUSH1 0x20 ADD DUP3 DUP1 SLOAD PUSH2 0x36B SWAP1 PUSH2 0x1937 JUMP JUMPDEST DUP1 ISZERO PUSH2 0x3B8 JUMPI DUP1 PUSH1 0x1F LT PUSH2 0x38D JUMPI PUSH2 0x100 DUP1 DUP4 SLOAD DIV MUL DUP4 MSTORE SWAP2 PUSH1 0x20 ADD SWAP2 PUSH2 0x3B8 JUMP JUMPDEST DUP3 ADD SWAP2 SWAP1 PUSH1 0x0 MSTORE PUSH1 0x20 PUSH1 0x0 KECCAK256 SWAP1 JUMPDEST DUP2 SLOAD DUP2 MSTORE SWAP1 PUSH1 0x1 ADD SWAP1 PUSH1 0x20 ADD DUP1 DUP4 GT PUSH2 0x39B JUMPI DUP3 SWAP1 SUB PUSH1 0x1F AND DUP3 ADD SWAP2 JUMPDEST POP POP POP POP POP DUP2 MSTORE PUSH1 0x20 ADD PUSH1 0x3 DUP3 ADD DUP1 SLOAD PUSH2 0x3D1 SWAP1 PUSH2 0x1937 JUMP JUMPDEST DUP1 PUSH1 0x1F ADD PUSH1 0x20 DUP1 SWAP2 DIV MUL PUSH1 0x20 ADD PUSH1 0x40 MLOAD SWAP1 DUP2 ADD PUSH1 0x40 MSTORE DUP1 SWAP3 SWAP2 SWAP1 DUP2 DUP2 MSTORE PUSH1 0x20 ADD DUP3 DUP1 SLOAD PUSH2 0x3FD SWAP1 PUSH2 0x1937 JUMP JUMPDEST DUP1 ISZERO PUSH2 0x44A JUMPI DUP1 PUSH1 0x1F LT PUSH2 0x41F JUMPI PUSH2 0x100 DUP1 DUP4 SLOAD DIV MUL DUP4 MSTORE SWAP2 PUSH1 0x20 ADD SWAP2 PUSH2 0x44A JUMP JUMPDEST DUP3 ADD SWAP2 SWAP1 PUSH1 0x0 MSTORE PUSH1 0x20 PUSH1 0x0 KECCAK256 SWAP1 JUMPDEST DUP2 SLOAD DUP2 MSTORE SWAP1 PUSH1 0x1 ADD SWAP1 PUSH1 0x20 ADD DUP1 DUP4 GT PUSH2 0x42D JUMPI DUP3 SWAP1 SUB PUSH1 0x1F AND DUP3 ADD SWAP2 JUMPDEST POP POP POP POP POP DUP2 MSTORE PUSH1 0x20 ADD PUSH1 0x4 DUP3 ADD SLOAD DUP2 MSTORE PUSH1 0x20 ADD PUSH1 0x5 DUP3 ADD DUP1 SLOAD PUSH2 0x46D SWAP1 PUSH2 0x1937 JUMP JUMPDEST DUP1 PUSH1 0x1F ADD PUSH1 0x20 DUP1 SWAP2 DIV MUL PUSH1 0x20 ADD PUSH1 0x40 MLOAD SWAP1 DUP2 ADD PUSH1 0x40 MSTORE DUP1 SWAP3 SWAP2 SWAP1 DUP2 DUP2 MSTORE PUSH1 0x20 ADD DUP3 DUP1 SLOAD PUSH2 0x499 SWAP1 PUSH2 0x1937 JUMP JUMPDEST DUP1 ISZERO PUSH2 0x4E6 JUMPI DUP1 PUSH1 0x1F LT PUSH2 0x4BB JUMPI PUSH2 0x100 DUP1 DUP4 SLOAD DIV MUL DUP4 MSTORE SWAP2 PUSH1 0x20 ADD SWAP2 PUSH2 0x4E6 JUMP JUMPDEST DUP3 ADD SWAP2 SWAP1 PUSH1 0x0 MSTORE PUSH1 0x20 PUSH1 0x0 KECCAK256 SWAP1 JUMPDEST DUP2 SLOAD DUP2 MSTORE SWAP1 PUSH1 0x1 ADD SWAP1 PUSH1 0x20 ADD DUP1 DUP4 GT PUSH2 0x4C9 JUMPI DUP3 SWAP1 SUB PUSH1 0x1F AND DUP3 ADD SWAP2 JUMPDEST POP POP POP POP POP DUP2 MSTORE POP POP SWAP1 DUP1 PUSH1 0x8 ADD PUSH1 0x0 SWAP1 SLOAD SWAP1 PUSH2 0x100 EXP SWAP1 DIV PUSH1 0xFF AND SWAP1 DUP1 PUSH1 0x9 ADD DUP1 SLOAD PUSH2 0x512 SWAP1 PUSH2 0x1937 JUMP JUMPDEST DUP1 PUSH1 0x1F ADD PUSH1 0x20 DUP1 SWAP2 DIV MUL PUSH1 0x20 ADD PUSH1 0x40 MLOAD SWAP1 DUP2 ADD PUSH1 0x40 MSTORE DUP1 SWAP3 SWAP2 SWAP1 DUP2 DUP2 MSTORE PUSH1 0x20 ADD DUP3 DUP1 SLOAD PUSH2 0x53E SWAP1 PUSH2 0x1937 JUMP JUMPDEST DUP1 ISZERO PUSH2 0x58B JUMPI DUP1 PUSH1 0x1F LT PUSH2 0x560 JUMPI PUSH2 0x100 DUP1 DUP4 SLOAD DIV MUL DUP4 MSTORE SWAP2 PUSH1 0x20 ADD SWAP2 PUSH2 0x58B JUMP JUMPDEST DUP3 ADD SWAP2 SWAP1 PUSH1 0x0 MSTORE PUSH1 0x20 PUSH1 0x0 KECCAK256 SWAP1 JUMPDEST DUP2 SLOAD DUP2 MSTORE SWAP1 PUSH1 0x1 ADD SWAP1 PUSH1 0x20 ADD DUP1 DUP4 GT PUSH2 0x56E JUMPI DUP3 SWAP1 SUB PUSH1 0x1F AND DUP3 ADD SWAP2 JUMPDEST POP POP POP POP POP SWAP1 DUP1 PUSH1 0xA ADD DUP1 SLOAD PUSH2 0x5A0 SWAP1 PUSH2 0x1937 JUMP JUMPDEST DUP1 PUSH1 0x1F ADD PUSH1 0x20 DUP1 SWAP2 DIV MUL PUSH1 0x20 ADD PUSH1 0x40 MLOAD SWAP1 DUP2 ADD PUSH1 0x40 MSTORE DUP1 SWAP3 SWAP2 SWAP1 DUP2 DUP2 MSTORE PUSH1 0x20 ADD DUP3 DUP1 SLOAD PUSH2 0x5CC SWAP1 PUSH2 0x1937 JUMP JUMPDEST DUP1 ISZERO PUSH2 0x619 JUMPI DUP1 PUSH1 0x1F LT PUSH2 0x5EE JUMPI PUSH2 0x100 DUP1 DUP4 SLOAD DIV MUL DUP4 MSTORE SWAP2 PUSH1 0x20 ADD SWAP2 PUSH2 0x619 JUMP JUMPDEST DUP3 ADD SWAP2 SWAP1 PUSH1 0x0 MSTORE PUSH1 0x20 PUSH1 0x0 KECCAK256 SWAP1 JUMPDEST DUP2 SLOAD DUP2 MSTORE SWAP1 PUSH1 0x1 ADD SWAP1 PUSH1 0x20 ADD DUP1 DUP4 GT PUSH2 0x5FC JUMPI DUP3 SWAP1 SUB PUSH1 0x1F AND DUP3 ADD SWAP2 JUMPDEST POP POP POP POP POP SWAP1 POP DUP7 JUMP JUMPDEST PUSH1 0x2 PUSH1 0x20 MSTORE DUP1 PUSH1 0x0 MSTORE PUSH1 0x40 PUSH1 0x0 KECCAK256 PUSH1 0x0 SWAP2 POP SWAP1 POP DUP1 PUSH1 0x0 ADD SLOAD SWAP1 DUP1 PUSH1 0x1 ADD DUP1 SLOAD PUSH2 0x64C SWAP1 PUSH2 0x1937 JUMP JUMPDEST DUP1 PUSH1 0x1F ADD PUSH1 0x20 DUP1 SWAP2 DIV MUL PUSH1 0x20 ADD PUSH1 0x40 MLOAD SWAP1 DUP2 ADD PUSH1 0x40 MSTORE DUP1 SWAP3 SWAP2 SWAP1 DUP2 DUP2 MSTORE PUSH1 0x20 ADD DUP3 DUP1 SLOAD PUSH2 0x678 SWAP1 PUSH2 0x1937 JUMP JUMPDEST DUP1 ISZERO PUSH2 0x6C5 JUMPI DUP1 PUSH1 0x1F LT PUSH2 0x69A JUMPI PUSH2 0x100 DUP1 DUP4 SLOAD DIV MUL DUP4 MSTORE SWAP2 PUSH1 0x20 ADD SWAP2 PUSH2 0x6C5 JUMP JUMPDEST DUP3 ADD SWAP2 SWAP1 PUSH1 0x0 MSTORE PUSH1 0x20 PUSH1 0x0 KECCAK256 SWAP1 JUMPDEST DUP2 SLOAD DUP2 MSTORE SWAP1 PUSH1 0x1 ADD SWAP1 PUSH1 0x20 ADD DUP1 DUP4 GT PUSH2 0x6A8 JUMPI DUP3 SWAP1 SUB PUSH1 0x1F AND DUP3 ADD SWAP2 JUMPDEST POP POP POP POP POP SWAP1 DUP1 PUSH1 0x2 ADD DUP1 SLOAD PUSH2 0x6DA SWAP1 PUSH2 0x1937 JUMP JUMPDEST DUP1 PUSH1 0x1F ADD PUSH1 0x20 DUP1 SWAP2 DIV MUL PUSH1 0x20 ADD PUSH1 0x40 MLOAD SWAP1 DUP2 ADD PUSH1 0x40 MSTORE DUP1 SWAP3 SWAP2 SWAP1 DUP2 DUP2 MSTORE PUSH1 0x20 ADD DUP3 DUP1 SLOAD PUSH2 0x706 SWAP1 PUSH2 0x1937 JUMP JUMPDEST DUP1 ISZERO PUSH2 0x753 JUMPI DUP1 PUSH1 0x1F LT PUSH2 0x728 JUMPI PUSH2 0x100 DUP1 DUP4 SLOAD DIV MUL DUP4 MSTORE SWAP2 PUSH1 0x20 ADD SWAP2 PUSH2 0x753 JUMP JUMPDEST DUP3 ADD SWAP2 SWAP1 PUSH1 0x0 MSTORE PUSH1 0x20 PUSH1 0x0 KECCAK256 SWAP1 JUMPDEST DUP2 SLOAD DUP2 MSTORE SWAP1 PUSH1 0x1 ADD SWAP1 PUSH1 0x20 ADD DUP1 DUP4 GT PUSH2 0x736 JUMPI DUP3 SWAP1 SUB PUSH1 0x1F AND DUP3 ADD SWAP2 JUMPDEST POP POP POP POP POP SWAP1 DUP1 PUSH1 0x3 ADD DUP1 SLOAD PUSH2 0x768 SWAP1 PUSH2 0x1937 JUMP JUMPDEST DUP1 PUSH1 0x1F ADD PUSH1 0x20 DUP1 SWAP2 DIV MUL PUSH1 0x20 ADD PUSH1 0x40 MLOAD SWAP1 DUP2 ADD PUSH1 0x40 MSTORE DUP1 SWAP3 SWAP2 SWAP1 DUP2 DUP2 MSTORE PUSH1 0x20 ADD DUP3 DUP1 SLOAD PUSH2 0x794 SWAP1 PUSH2 0x1937 JUMP JUMPDEST DUP1 ISZERO PUSH2 0x7E1 JUMPI DUP1 PUSH1 0x1F LT PUSH2 0x7B6 JUMPI PUSH2 0x100 DUP1 DUP4 SLOAD DIV MUL DUP4 MSTORE SWAP2 PUSH1 0x20 ADD SWAP2 PUSH2 0x7E1 JUMP JUMPDEST DUP3 ADD SWAP2 SWAP1 PUSH1 0x0 MSTORE PUSH1 0x20 PUSH1 0x0 KECCAK256 SWAP1 JUMPDEST DUP2 SLOAD DUP2 MSTORE SWAP1 PUSH1 0x1 ADD SWAP1 PUSH1 0x20 ADD DUP1 DUP4 GT PUSH2 0x7C4 JUMPI DUP3 SWAP1 SUB PUSH1 0x1F AND DUP3 ADD SWAP2 JUMPDEST POP POP POP POP POP SWAP1 DUP1 PUSH1 0x4 ADD SLOAD SWAP1 DUP1 PUSH1 0x5 ADD DUP1 SLOAD PUSH2 0x7FC SWAP1 PUSH2 0x1937 JUMP JUMPDEST DUP1 PUSH1 0x1F ADD PUSH1 0x20 DUP1 SWAP2 DIV MUL PUSH1 0x20 ADD PUSH1 0x40 MLOAD SWAP1 DUP2 ADD PUSH1 0x40 MSTORE DUP1 SWAP3 SWAP2 SWAP1 DUP2 DUP2 MSTORE PUSH1 0x20 ADD DUP3 DUP1 SLOAD PUSH2 0x828 SWAP1 PUSH2 0x1937 JUMP JUMPDEST DUP1 ISZERO PUSH2 0x875 JUMPI DUP1 PUSH1 0x1F LT PUSH2 0x84A JUMPI PUSH2 0x100 DUP1 DUP4 SLOAD DIV MUL DUP4 MSTORE SWAP2 PUSH1 0x20 ADD SWAP2 PUSH2 0x875 JUMP JUMPDEST DUP3 ADD SWAP2 SWAP1 PUSH1 0x0 MSTORE PUSH1 0x20 PUSH1 0x0 KECCAK256 SWAP1 JUMPDEST DUP2 SLOAD DUP2 MSTORE SWAP1 PUSH1 0x1 ADD SWAP1 PUSH1 0x20 ADD DUP1 DUP4 GT PUSH2 0x858 JUMPI DUP3 SWAP1 SUB PUSH1 0x1F AND DUP3 ADD SWAP2 JUMPDEST POP POP POP POP POP SWAP1 POP DUP7 JUMP JUMPDEST PUSH1 0x0 PUSH1 0x1 PUSH1 0x0 DUP4 DUP1 MLOAD SWAP1 PUSH1 0x20 ADD KECCAK256 DUP2 MSTORE PUSH1 0x20 ADD SWAP1 DUP2 MSTORE PUSH1 0x20 ADD PUSH1 0x0 KECCAK256 PUSH1 0x8 ADD PUSH1 0x0 SWAP1 SLOAD SWAP1 PUSH2 0x100 EXP SWAP1 DIV PUSH1 0xFF AND SWAP1 POP SWAP2 SWAP1 POP JUMP JUMPDEST PUSH1 0x0 DUP1 PUSH1 0x2 PUSH1 0x0 PUSH1 0x3 PUSH1 0x0 DUP2 SLOAD DUP1 SWAP3 SWAP2 SWAP1 PUSH2 0x8CD SWAP1 PUSH2 0x1998 JUMP JUMPDEST SWAP2 SWAP1 POP SSTORE DUP2 MSTORE PUSH1 0x20 ADD SWAP1 DUP2 MSTORE PUSH1 0x20 ADD PUSH1 0x0 KECCAK256 SWAP1 POP DUP7 DUP2 PUSH1 0x1 ADD SWAP1 DUP1 MLOAD SWAP1 PUSH1 0x20 ADD SWAP1 PUSH2 0x8F9 SWAP3 SWAP2 SWAP1 PUSH2 0xF44 JUMP JUMPDEST POP DUP6 DUP2 PUSH1 0x2 ADD SWAP1 DUP1 MLOAD SWAP1 PUSH1 0x20 ADD SWAP1 PUSH2 0x912 SWAP3 SWAP2 SWAP1 PUSH2 0xF44 JUMP JUMPDEST POP DUP5 DUP2 PUSH1 0x3 ADD SWAP1 DUP1 MLOAD SWAP1 PUSH1 0x20 ADD SWAP1 PUSH2 0x92B SWAP3 SWAP2 SWAP1 PUSH2 0xF44 JUMP JUMPDEST POP DUP4 DUP2 PUSH1 0x4 ADD DUP2 SWAP1 SSTORE POP DUP3 DUP2 PUSH1 0x5 ADD SWAP1 DUP1 MLOAD SWAP1 PUSH1 0x20 ADD SWAP1 PUSH2 0x94D SWAP3 SWAP2 SWAP1 PUSH2 0xF44 JUMP JUMPDEST POP PUSH1 0x3 SLOAD SWAP2 POP POP SWAP6 SWAP5 POP POP POP POP POP JUMP JUMPDEST PUSH1 0x60 PUSH1 0x0 DUP1 SLOAD DUP7 PUSH1 0x40 MLOAD PUSH1 0x20 ADD PUSH2 0x975 SWAP3 SWAP2 SWAP1 PUSH2 0x1A02 JUMP JUMPDEST PUSH1 0x40 MLOAD PUSH1 0x20 DUP2 DUP4 SUB SUB DUP2 MSTORE SWAP1 PUSH1 0x40 MSTORE SWAP1 POP PUSH1 0x0 PUSH1 0x40 MLOAD DUP1 PUSH1 0xC0 ADD PUSH1 0x40 MSTORE DUP1 DUP4 DUP2 MSTORE PUSH1 0x20 ADD DUP10 DUP2 MSTORE PUSH1 0x20 ADD PUSH1 0x2 PUSH1 0x0 DUP11 DUP2 MSTORE PUSH1 0x20 ADD SWAP1 DUP2 MSTORE PUSH1 0x20 ADD PUSH1 0x0 KECCAK256 PUSH1 0x40 MLOAD DUP1 PUSH1 0xC0 ADD PUSH1 0x40 MSTORE SWAP1 DUP2 PUSH1 0x0 DUP3 ADD SLOAD DUP2 MSTORE PUSH1 0x20 ADD PUSH1 0x1 DUP3 ADD DUP1 SLOAD PUSH2 0x9D7 SWAP1 PUSH2 0x1937 JUMP JUMPDEST DUP1 PUSH1 0x1F ADD PUSH1 0x20 DUP1 SWAP2 DIV MUL PUSH1 0x20 ADD PUSH1 0x40 MLOAD SWAP1 DUP2 ADD PUSH1 0x40 MSTORE DUP1 SWAP3 SWAP2 SWAP1 DUP2 DUP2 MSTORE PUSH1 0x20 ADD DUP3 DUP1 SLOAD PUSH2 0xA03 SWAP1 PUSH2 0x1937 JUMP JUMPDEST DUP1 ISZERO PUSH2 0xA50 JUMPI DUP1 PUSH1 0x1F LT PUSH2 0xA25 JUMPI PUSH2 0x100 DUP1 DUP4 SLOAD DIV MUL DUP4 MSTORE SWAP2 PUSH1 0x20 ADD SWAP2 PUSH2 0xA50 JUMP JUMPDEST DUP3 ADD SWAP2 SWAP1 PUSH1 0x0 MSTORE PUSH1 0x20 PUSH1 0x0 KECCAK256 SWAP1 JUMPDEST DUP2 SLOAD DUP2 MSTORE SWAP1 PUSH1 0x1 ADD SWAP1 PUSH1 0x20 ADD DUP1 DUP4 GT PUSH2 0xA33 JUMPI DUP3 SWAP1 SUB PUSH1 0x1F AND DUP3 ADD SWAP2 JUMPDEST POP POP POP POP POP DUP2 MSTORE PUSH1 0x20 ADD PUSH1 0x2 DUP3 ADD DUP1 SLOAD PUSH2 0xA69 SWAP1 PUSH2 0x1937 JUMP JUMPDEST DUP1 PUSH1 0x1F ADD PUSH1 0x20 DUP1 SWAP2 DIV MUL PUSH1 0x20 ADD PUSH1 0x40 MLOAD SWAP1 DUP2 ADD PUSH1 0x40 MSTORE DUP1 SWAP3 SWAP2 SWAP1 DUP2 DUP2 MSTORE PUSH1 0x20 ADD DUP3 DUP1 SLOAD PUSH2 0xA95 SWAP1 PUSH2 0x1937 JUMP JUMPDEST DUP1 ISZERO PUSH2 0xAE2 JUMPI DUP1 PUSH1 0x1F LT PUSH2 0xAB7 JUMPI PUSH2 0x100 DUP1 DUP4 SLOAD DIV MUL DUP4 MSTORE SWAP2 PUSH1 0x20 ADD SWAP2 PUSH2 0xAE2 JUMP JUMPDEST DUP3 ADD SWAP2 SWAP1 PUSH1 0x0 MSTORE PUSH1 0x20 PUSH1 0x0 KECCAK256 SWAP1 JUMPDEST DUP2 SLOAD DUP2 MSTORE SWAP1 PUSH1 0x1 ADD SWAP1 PUSH1 0x20 ADD DUP1 DUP4 GT PUSH2 0xAC5 JUMPI DUP3 SWAP1 SUB PUSH1 0x1F AND DUP3 ADD SWAP2 JUMPDEST POP POP POP POP POP DUP2 MSTORE PUSH1 0x20 ADD PUSH1 0x3 DUP3 ADD DUP1 SLOAD PUSH2 0xAFB SWAP1 PUSH2 0x1937 JUMP JUMPDEST DUP1 PUSH1 0x1F ADD PUSH1 0x20 DUP1 SWAP2 DIV MUL PUSH1 0x20 ADD PUSH1 0x40 MLOAD SWAP1 DUP2 ADD PUSH1 0x40 MSTORE DUP1 SWAP3 SWAP2 SWAP1 DUP2 DUP2 MSTORE PUSH1 0x20 ADD DUP3 DUP1 SLOAD PUSH2 0xB27 SWAP1 PUSH2 0x1937 JUMP JUMPDEST DUP1 ISZERO PUSH2 0xB74 JUMPI DUP1 PUSH1 0x1F LT PUSH2 0xB49 JUMPI PUSH2 0x100 DUP1 DUP4 SLOAD DIV MUL DUP4 MSTORE SWAP2 PUSH1 0x20 ADD SWAP2 PUSH2 0xB74 JUMP JUMPDEST DUP3 ADD SWAP2 SWAP1 PUSH1 0x0 MSTORE PUSH1 0x20 PUSH1 0x0 KECCAK256 SWAP1 JUMPDEST DUP2 SLOAD DUP2 MSTORE SWAP1 PUSH1 0x1 ADD SWAP1 PUSH1 0x20 ADD DUP1 DUP4 GT PUSH2 0xB57 JUMPI DUP3 SWAP1 SUB PUSH1 0x1F AND DUP3 ADD SWAP2 JUMPDEST POP POP POP POP POP DUP2 MSTORE PUSH1 0x20 ADD PUSH1 0x4 DUP3 ADD SLOAD DUP2 MSTORE PUSH1 0x20 ADD PUSH1 0x5 DUP3 ADD DUP1 SLOAD PUSH2 0xB97 SWAP1 PUSH2 0x1937 JUMP JUMPDEST DUP1 PUSH1 0x1F ADD PUSH1 0x20 DUP1 SWAP2 DIV MUL PUSH1 0x20 ADD PUSH1 0x40 MLOAD SWAP1 DUP2 ADD PUSH1 0x40 MSTORE DUP1 SWAP3 SWAP2 SWAP1 DUP2 DUP2 MSTORE PUSH1 0x20 ADD DUP3 DUP1 SLOAD PUSH2 0xBC3 SWAP1 PUSH2 0x1937 JUMP JUMPDEST DUP1 ISZERO PUSH2 0xC10 JUMPI DUP1 PUSH1 0x1F LT PUSH2 0xBE5 JUMPI PUSH2 0x100 DUP1 DUP4 SLOAD DIV MUL DUP4 MSTORE SWAP2 PUSH1 0x20 ADD SWAP2 PUSH2 0xC10 JUMP JUMPDEST DUP3 ADD SWAP2 SWAP1 PUSH1 0x0 MSTORE PUSH1 0x20 PUSH1 0x0 KECCAK256 SWAP1 JUMPDEST DUP2 SLOAD DUP2 MSTORE SWAP1 PUSH1 0x1 ADD SWAP1 PUSH1 0x20 ADD DUP1 DUP4 GT PUSH2 0xBF3 JUMPI DUP3 SWAP1 SUB PUSH1 0x1F AND DUP3 ADD SWAP2 JUMPDEST POP POP POP POP POP DUP2 MSTORE POP POP DUP2 MSTORE PUSH1 0x20 ADD DUP8 PUSH1 0x2 DUP2 GT ISZERO PUSH2 0xC31 JUMPI PUSH2 0xC30 PUSH2 0x1298 JUMP JUMPDEST JUMPDEST DUP2 MSTORE PUSH1 0x20 ADD DUP7 DUP2 MSTORE PUSH1 0x20 ADD DUP6 DUP2 MSTORE POP SWAP1 POP DUP1 PUSH1 0x1 PUSH1 0x0 DUP5 DUP1 MLOAD SWAP1 PUSH1 0x20 ADD KECCAK256 DUP2 MSTORE PUSH1 0x20 ADD SWAP1 DUP2 MSTORE PUSH1 0x20 ADD PUSH1 0x0 KECCAK256 PUSH1 0x0 DUP3 ADD MLOAD DUP2 PUSH1 0x0 ADD SWAP1 DUP1 MLOAD SWAP1 PUSH1 0x20 ADD SWAP1 PUSH2 0xC79 SWAP3 SWAP2 SWAP1 PUSH2 0xFCA JUMP JUMPDEST POP PUSH1 0x20 DUP3 ADD MLOAD DUP2 PUSH1 0x1 ADD SSTORE PUSH1 0x40 DUP3 ADD MLOAD DUP2 PUSH1 0x2 ADD PUSH1 0x0 DUP3 ADD MLOAD DUP2 PUSH1 0x0 ADD SSTORE PUSH1 0x20 DUP3 ADD MLOAD DUP2 PUSH1 0x1 ADD SWAP1 DUP1 MLOAD SWAP1 PUSH1 0x20 ADD SWAP1 PUSH2 0xCB3 SWAP3 SWAP2 SWAP1 PUSH2 0xF44 JUMP JUMPDEST POP PUSH1 0x40 DUP3 ADD MLOAD DUP2 PUSH1 0x2 ADD SWAP1 DUP1 MLOAD SWAP1 PUSH1 0x20 ADD SWAP1 PUSH2 0xCD0 SWAP3 SWAP2 SWAP1 PUSH2 0xF44 JUMP JUMPDEST POP PUSH1 0x60 DUP3 ADD MLOAD DUP2 PUSH1 0x3 ADD SWAP1 DUP1 MLOAD SWAP1 PUSH1 0x20 ADD SWAP1 PUSH2 0xCED SWAP3 SWAP2 SWAP1 PUSH2 0xF44 JUMP JUMPDEST POP PUSH1 0x80 DUP3 ADD MLOAD DUP2 PUSH1 0x4 ADD SSTORE PUSH1 0xA0 DUP3 ADD MLOAD DUP2 PUSH1 0x5 ADD SWAP1 DUP1 MLOAD SWAP1 PUSH1 0x20 ADD SWAP1 PUSH2 0xD14 SWAP3 SWAP2 SWAP1 PUSH2 0xF44 JUMP JUMPDEST POP POP POP PUSH1 0x60 DUP3 ADD MLOAD DUP2 PUSH1 0x8 ADD PUSH1 0x0 PUSH2 0x100 EXP DUP2 SLOAD DUP2 PUSH1 0xFF MUL NOT AND SWAP1 DUP4 PUSH1 0x2 DUP2 GT ISZERO PUSH2 0xD42 JUMPI PUSH2 0xD41 PUSH2 0x1298 JUMP JUMPDEST JUMPDEST MUL OR SWAP1 SSTORE POP PUSH1 0x80 DUP3 ADD MLOAD DUP2 PUSH1 0x9 ADD SWAP1 DUP1 MLOAD SWAP1 PUSH1 0x20 ADD SWAP1 PUSH2 0xD63 SWAP3 SWAP2 SWAP1 PUSH2 0xF44 JUMP JUMPDEST POP PUSH1 0xA0 DUP3 ADD MLOAD DUP2 PUSH1 0xA ADD SWAP1 DUP1 MLOAD SWAP1 PUSH1 0x20 ADD SWAP1 PUSH2 0xD80 SWAP3 SWAP2 SWAP1 PUSH2 0xF44 JUMP JUMPDEST POP SWAP1 POP POP PUSH32 0x8B2C200B5F16565B86D1596988527109771FF8ED118F330CCA9EE70D6BA9A16 PUSH1 0x0 SLOAD PUSH1 0x40 MLOAD PUSH2 0xDB5 SWAP2 SWAP1 PUSH2 0x17D1 JUMP JUMPDEST PUSH1 0x40 MLOAD DUP1 SWAP2 SUB SWAP1 LOG1 PUSH1 0x1 PUSH1 0x0 SLOAD PUSH2 0xDCC SWAP2 SWAP1 PUSH2 0x1A2E JUMP JUMPDEST PUSH1 0x0 DUP2 SWAP1 SSTORE POP DUP2 SWAP3 POP POP POP SWAP6 SWAP5 POP POP POP POP POP JUMP JUMPDEST PUSH1 0x60 PUSH1 0x1 PUSH1 0x0 DUP4 DUP1 MLOAD SWAP1 PUSH1 0x20 ADD KECCAK256 DUP2 MSTORE PUSH1 0x20 ADD SWAP1 DUP2 MSTORE PUSH1 0x20 ADD PUSH1 0x0 KECCAK256 PUSH1 0x2 ADD PUSH1 0x2 ADD DUP1 SLOAD PUSH2 0xE0D SWAP1 PUSH2 0x1937 JUMP JUMPDEST DUP1 PUSH1 0x1F ADD PUSH1 0x20 DUP1 SWAP2 DIV MUL PUSH1 0x20 ADD PUSH1 0x40 MLOAD SWAP1 DUP2 ADD PUSH1 0x40 MSTORE DUP1 SWAP3 SWAP2 SWAP1 DUP2 DUP2 MSTORE PUSH1 0x20 ADD DUP3 DUP1 SLOAD PUSH2 0xE39 SWAP1 PUSH2 0x1937 JUMP JUMPDEST DUP1 ISZERO PUSH2 0xE86 JUMPI DUP1 PUSH1 0x1F LT PUSH2 0xE5B JUMPI PUSH2 0x100 DUP1 DUP4 SLOAD DIV MUL DUP4 MSTORE SWAP2 PUSH1 0x20 ADD SWAP2 PUSH2 0xE86 JUMP JUMPDEST DUP3 ADD SWAP2 SWAP1 PUSH1 0x0 MSTORE PUSH1 0x20 PUSH1 0x0 KECCAK256 SWAP1 JUMPDEST DUP2 SLOAD DUP2 MSTORE SWAP1 PUSH1 0x1 ADD SWAP1 PUSH1 0x20 ADD DUP1 DUP4 GT PUSH2 0xE69 JUMPI DUP3 SWAP1 SUB PUSH1 0x1F AND DUP3 ADD SWAP2 JUMPDEST POP POP POP POP POP SWAP1 POP SWAP2 SWAP1 POP JUMP JUMPDEST PUSH1 0x60 PUSH1 0x1 PUSH1 0x0 DUP4 DUP1 MLOAD SWAP1 PUSH1 0x20 ADD KECCAK256 DUP2 MSTORE PUSH1 0x20 ADD SWAP1 DUP2 MSTORE PUSH1 0x20 ADD PUSH1 0x0 KECCAK256 PUSH1 0x2 ADD PUSH1 0x1 ADD DUP1 SLOAD PUSH2 0xEBF SWAP1 PUSH2 0x1937 JUMP JUMPDEST DUP1 PUSH1 0x1F ADD PUSH1 0x20 DUP1 SWAP2 DIV MUL PUSH1 0x20 ADD PUSH1 0x40 MLOAD SWAP1 DUP2 ADD PUSH1 0x40 MSTORE DUP1 SWAP3 SWAP2 SWAP1 DUP2 DUP2 MSTORE PUSH1 0x20 ADD DUP3 DUP1 SLOAD PUSH2 0xEEB SWAP1 PUSH2 0x1937 JUMP JUMPDEST DUP1 ISZERO PUSH2 0xF38 JUMPI DUP1 PUSH1 0x1F LT PUSH2 0xF0D JUMPI PUSH2 0x100 DUP1 DUP4 SLOAD DIV MUL DUP4 MSTORE SWAP2 PUSH1 0x20 ADD SWAP2 PUSH2 0xF38 JUMP JUMPDEST DUP3 ADD SWAP2 SWAP1 PUSH1 0x0 MSTORE PUSH1 0x20 PUSH1 0x0 KECCAK256 SWAP1 JUMPDEST DUP2 SLOAD DUP2 MSTORE SWAP1 PUSH1 0x1 ADD SWAP1 PUSH1 0x20 ADD DUP1 DUP4 GT PUSH2 0xF1B JUMPI DUP3 SWAP1 SUB PUSH1 0x1F AND DUP3 ADD SWAP2 JUMPDEST POP POP POP POP POP SWAP1 POP SWAP2 SWAP1 POP JUMP JUMPDEST DUP3 DUP1 SLOAD PUSH2 0xF50 SWAP1 PUSH2 0x1937 JUMP JUMPDEST SWAP1 PUSH1 0x0 MSTORE PUSH1 0x20 PUSH1 0x0 KECCAK256 SWAP1 PUSH1 0x1F ADD PUSH1 0x20 SWAP1 DIV DUP2 ADD SWAP3 DUP3 PUSH2 0xF72 JUMPI PUSH1 0x0 DUP6 SSTORE PUSH2 0xFB9 JUMP JUMPDEST DUP3 PUSH1 0x1F LT PUSH2 0xF8B JUMPI DUP1 MLOAD PUSH1 0xFF NOT AND DUP4 DUP1 ADD OR DUP6 SSTORE PUSH2 0xFB9 JUMP JUMPDEST DUP3 DUP1 ADD PUSH1 0x1 ADD DUP6 SSTORE DUP3 ISZERO PUSH2 0xFB9 JUMPI SWAP2 DUP3 ADD JUMPDEST DUP3 DUP2 GT ISZERO PUSH2 0xFB8 JUMPI DUP3 MLOAD DUP3 SSTORE SWAP2 PUSH1 0x20 ADD SWAP2 SWAP1 PUSH1 0x1 ADD SWAP1 PUSH2 0xF9D JUMP JUMPDEST JUMPDEST POP SWAP1 POP PUSH2 0xFC6 SWAP2 SWAP1 PUSH2 0x1050 JUMP JUMPDEST POP SWAP1 JUMP JUMPDEST DUP3 DUP1 SLOAD PUSH2 0xFD6 SWAP1 PUSH2 0x1937 JUMP JUMPDEST SWAP1 PUSH1 0x0 MSTORE PUSH1 0x20 PUSH1 0x0 KECCAK256 SWAP1 PUSH1 0x1F ADD PUSH1 0x20 SWAP1 DIV DUP2 ADD SWAP3 DUP3 PUSH2 0xFF8 JUMPI PUSH1 0x0 DUP6 SSTORE PUSH2 0x103F JUMP JUMPDEST DUP3 PUSH1 0x1F LT PUSH2 0x1011 JUMPI DUP1 MLOAD PUSH1 0xFF NOT AND DUP4 DUP1 ADD OR DUP6 SSTORE PUSH2 0x103F JUMP JUMPDEST DUP3 DUP1 ADD PUSH1 0x1 ADD DUP6 SSTORE DUP3 ISZERO PUSH2 0x103F JUMPI SWAP2 DUP3 ADD JUMPDEST DUP3 DUP2 GT ISZERO PUSH2 0x103E JUMPI DUP3 MLOAD DUP3 SSTORE SWAP2 PUSH1 0x20 ADD SWAP2 SWAP1 PUSH1 0x1 ADD SWAP1 PUSH2 0x1023 JUMP JUMPDEST JUMPDEST POP SWAP1 POP PUSH2 0x104C SWAP2 SWAP1 PUSH2 0x1050 JUMP JUMPDEST POP SWAP1 JUMP JUMPDEST JUMPDEST DUP1 DUP3 GT ISZERO PUSH2 0x1069 JUMPI PUSH1 0x0 DUP2 PUSH1 0x0 SWAP1 SSTORE POP PUSH1 0x1 ADD PUSH2 0x1051 JUMP JUMPDEST POP SWAP1 JUMP JUMPDEST PUSH1 0x0 PUSH1 0x40 MLOAD SWAP1 POP SWAP1 JUMP JUMPDEST PUSH1 0x0 DUP1 REVERT JUMPDEST PUSH1 0x0 DUP1 REVERT JUMPDEST PUSH1 0x0 DUP2 SWAP1 POP SWAP2 SWAP1 POP JUMP JUMPDEST PUSH2 0x1094 DUP2 PUSH2 0x1081 JUMP JUMPDEST DUP2 EQ PUSH2 0x109F JUMPI PUSH1 0x0 DUP1 REVERT JUMPDEST POP JUMP JUMPDEST PUSH1 0x0 DUP2 CALLDATALOAD SWAP1 POP PUSH2 0x10B1 DUP2 PUSH2 0x108B JUMP JUMPDEST SWAP3 SWAP2 POP POP JUMP JUMPDEST PUSH1 0x0 PUSH1 0x20 DUP3 DUP5 SUB SLT ISZERO PUSH2 0x10CD JUMPI PUSH2 0x10CC PUSH2 0x1077 JUMP JUMPDEST JUMPDEST PUSH1 0x0 PUSH2 0x10DB DUP5 DUP3 DUP6 ADD PUSH2 0x10A2 JUMP JUMPDEST SWAP2 POP POP SWAP3 SWAP2 POP POP JUMP JUMPDEST PUSH1 0x0 DUP2 MLOAD SWAP1 POP SWAP2 SWAP1 POP JUMP JUMPDEST PUSH1 0x0 DUP3 DUP3 MSTORE PUSH1 0x20 DUP3 ADD SWAP1 POP SWAP3 SWAP2 POP POP JUMP JUMPDEST PUSH1 0x0 JUMPDEST DUP4 DUP2 LT ISZERO PUSH2 0x111E JUMPI DUP1 DUP3 ADD MLOAD DUP2 DUP5 ADD MSTORE PUSH1 0x20 DUP2 ADD SWAP1 POP PUSH2 0x1103 JUMP JUMPDEST DUP4 DUP2 GT ISZERO PUSH2 0x112D JUMPI PUSH1 0x0 DUP5 DUP5 ADD MSTORE JUMPDEST POP POP POP POP JUMP JUMPDEST PUSH1 0x0 PUSH1 0x1F NOT PUSH1 0x1F DUP4 ADD AND SWAP1 POP SWAP2 SWAP1 POP JUMP JUMPDEST PUSH1 0x0 PUSH2 0x114F DUP3 PUSH2 0x10E4 JUMP JUMPDEST PUSH2 0x1159 DUP2 DUP6 PUSH2 0x10EF JUMP JUMPDEST SWAP4 POP PUSH2 0x1169 DUP2 DUP6 PUSH1 0x20 DUP7 ADD PUSH2 0x1100 JUMP JUMPDEST PUSH2 0x1172 DUP2 PUSH2 0x1133 JUMP JUMPDEST DUP5 ADD SWAP2 POP POP SWAP3 SWAP2 POP POP JUMP JUMPDEST PUSH1 0x0 DUP2 SWAP1 POP SWAP2 SWAP1 POP JUMP JUMPDEST PUSH2 0x1190 DUP2 PUSH2 0x117D JUMP JUMPDEST DUP3 MSTORE POP POP JUMP JUMPDEST PUSH2 0x119F DUP2 PUSH2 0x117D JUMP JUMPDEST DUP3 MSTORE POP POP JUMP JUMPDEST PUSH1 0x0 DUP2 MLOAD SWAP1 POP SWAP2 SWAP1 POP JUMP JUMPDEST PUSH1 0x0 DUP3 DUP3 MSTORE PUSH1 0x20 DUP3 ADD SWAP1 POP SWAP3 SWAP2 POP POP JUMP JUMPDEST PUSH1 0x0 PUSH2 0x11CC DUP3 PUSH2 0x11A5 JUMP JUMPDEST PUSH2 0x11D6 DUP2 DUP6 PUSH2 0x11B0 JUMP JUMPDEST SWAP4 POP PUSH2 0x11E6 DUP2 DUP6 PUSH1 0x20 DUP7 ADD PUSH2 0x1100 JUMP JUMPDEST PUSH2 0x11EF DUP2 PUSH2 0x1133 JUMP JUMPDEST DUP5 ADD SWAP2 POP POP SWAP3 SWAP2 POP POP JUMP JUMPDEST PUSH1 0x0 PUSH1 0xC0 DUP4 ADD PUSH1 0x0 DUP4 ADD MLOAD PUSH2 0x1212 PUSH1 0x0 DUP7 ADD DUP3 PUSH2 0x1196 JUMP JUMPDEST POP PUSH1 0x20 DUP4 ADD MLOAD DUP5 DUP3 SUB PUSH1 0x20 DUP7 ADD MSTORE PUSH2 0x122A DUP3 DUP3 PUSH2 0x11C1 JUMP JUMPDEST SWAP2 POP POP PUSH1 0x40 DUP4 ADD MLOAD DUP5 DUP3 SUB PUSH1 0x40 DUP7 ADD MSTORE PUSH2 0x1244 DUP3 DUP3 PUSH2 0x11C1 JUMP JUMPDEST SWAP2 POP POP PUSH1 0x60 DUP4 ADD MLOAD DUP5 DUP3 SUB PUSH1 0x60 DUP7 ADD MSTORE PUSH2 0x125E DUP3 DUP3 PUSH2 0x11C1 JUMP JUMPDEST SWAP2 POP POP PUSH1 0x80 DUP4 ADD MLOAD PUSH2 0x1273 PUSH1 0x80 DUP7 ADD DUP3 PUSH2 0x1196 JUMP JUMPDEST POP PUSH1 0xA0 DUP4 ADD MLOAD DUP5 DUP3 SUB PUSH1 0xA0 DUP7 ADD MSTORE PUSH2 0x128B DUP3 DUP3 PUSH2 0x11C1 JUMP JUMPDEST SWAP2 POP POP DUP1 SWAP2 POP POP SWAP3 SWAP2 POP POP JUMP JUMPDEST PUSH32 0x4E487B7100000000000000000000000000000000000000000000000000000000 PUSH1 0x0 MSTORE PUSH1 0x21 PUSH1 0x4 MSTORE PUSH1 0x24 PUSH1 0x0 REVERT JUMPDEST PUSH1 0x3 DUP2 LT PUSH2 0x12D8 JUMPI PUSH2 0x12D7 PUSH2 0x1298 JUMP JUMPDEST JUMPDEST POP JUMP JUMPDEST PUSH1 0x0 DUP2 SWAP1 POP PUSH2 0x12E9 DUP3 PUSH2 0x12C7 JUMP JUMPDEST SWAP2 SWAP1 POP JUMP JUMPDEST PUSH1 0x0 PUSH2 0x12F9 DUP3 PUSH2 0x12DB JUMP JUMPDEST SWAP1 POP SWAP2 SWAP1 POP JUMP JUMPDEST PUSH2 0x1309 DUP2 PUSH2 0x12EE JUMP JUMPDEST DUP3 MSTORE POP POP JUMP JUMPDEST PUSH1 0x0 DUP3 DUP3 MSTORE PUSH1 0x20 DUP3 ADD SWAP1 POP SWAP3 SWAP2 POP POP JUMP JUMPDEST PUSH1 0x0 PUSH2 0x132B DUP3 PUSH2 0x11A5 JUMP JUMPDEST PUSH2 0x1335 DUP2 DUP6 PUSH2 0x130F JUMP JUMPDEST SWAP4 POP PUSH2 0x1345 DUP2 DUP6 PUSH1 0x20 DUP7 ADD PUSH2 0x1100 JUMP JUMPDEST PUSH2 0x134E DUP2 PUSH2 0x1133 JUMP JUMPDEST DUP5 ADD SWAP2 POP POP SWAP3 SWAP2 POP POP JUMP JUMPDEST PUSH1 0x0 PUSH1 0xC0 DUP3 ADD SWAP1 POP DUP2 DUP2 SUB PUSH1 0x0 DUP4 ADD MSTORE PUSH2 0x1373 DUP2 DUP10 PUSH2 0x1144 JUMP JUMPDEST SWAP1 POP PUSH2 0x1382 PUSH1 0x20 DUP4 ADD DUP9 PUSH2 0x1187 JUMP JUMPDEST DUP2 DUP2 SUB PUSH1 0x40 DUP4 ADD MSTORE PUSH2 0x1394 DUP2 DUP8 PUSH2 0x11FA JUMP JUMPDEST SWAP1 POP PUSH2 0x13A3 PUSH1 0x60 DUP4 ADD DUP7 PUSH2 0x1300 JUMP JUMPDEST DUP2 DUP2 SUB PUSH1 0x80 DUP4 ADD MSTORE PUSH2 0x13B5 DUP2 DUP6 PUSH2 0x1320 JUMP JUMPDEST SWAP1 POP DUP2 DUP2 SUB PUSH1 0xA0 DUP4 ADD MSTORE PUSH2 0x13C9 DUP2 DUP5 PUSH2 0x1320 JUMP JUMPDEST SWAP1 POP SWAP8 SWAP7 POP POP POP POP POP POP POP JUMP JUMPDEST PUSH2 0x13DF DUP2 PUSH2 0x117D JUMP JUMPDEST DUP2 EQ PUSH2 0x13EA JUMPI PUSH1 0x0 DUP1 REVERT JUMPDEST POP JUMP JUMPDEST PUSH1 0x0 DUP2 CALLDATALOAD SWAP1 POP PUSH2 0x13FC DUP2 PUSH2 0x13D6 JUMP JUMPDEST SWAP3 SWAP2 POP POP JUMP JUMPDEST PUSH1 0x0 PUSH1 0x20 DUP3 DUP5 SUB SLT ISZERO PUSH2 0x1418 JUMPI PUSH2 0x1417 PUSH2 0x1077 JUMP JUMPDEST JUMPDEST PUSH1 0x0 PUSH2 0x1426 DUP5 DUP3 DUP6 ADD PUSH2 0x13ED JUMP JUMPDEST SWAP2 POP POP SWAP3 SWAP2 POP POP JUMP JUMPDEST PUSH1 0x0 PUSH1 0xC0 DUP3 ADD SWAP1 POP PUSH2 0x1444 PUSH1 0x0 DUP4 ADD DUP10 PUSH2 0x1187 JUMP JUMPDEST DUP2 DUP2 SUB PUSH1 0x20 DUP4 ADD MSTORE PUSH2 0x1456 DUP2 DUP9 PUSH2 0x1320 JUMP JUMPDEST SWAP1 POP DUP2 DUP2 SUB PUSH1 0x40 DUP4 ADD MSTORE PUSH2 0x146A DUP2 DUP8 PUSH2 0x1320 JUMP JUMPDEST SWAP1 POP DUP2 DUP2 SUB PUSH1 0x60 DUP4 ADD MSTORE PUSH2 0x147E DUP2 DUP7 PUSH2 0x1320 JUMP JUMPDEST SWAP1 POP PUSH2 0x148D PUSH1 0x80 DUP4 ADD DUP6 PUSH2 0x1187 JUMP JUMPDEST DUP2 DUP2 SUB PUSH1 0xA0 DUP4 ADD MSTORE PUSH2 0x149F DUP2 DUP5 PUSH2 0x1320 JUMP JUMPDEST SWAP1 POP SWAP8 SWAP7 POP POP POP POP POP POP POP JUMP JUMPDEST PUSH1 0x0 DUP1 REVERT JUMPDEST PUSH1 0x0 DUP1 REVERT JUMPDEST PUSH32 0x4E487B7100000000000000000000000000000000000000000000000000000000 PUSH1 0x0 MSTORE PUSH1 0x41 PUSH1 0x4 MSTORE PUSH1 0x24 PUSH1 0x0 REVERT JUMPDEST PUSH2 0x14EE DUP3 PUSH2 0x1133 JUMP JUMPDEST DUP2 ADD DUP2 DUP2 LT PUSH8 0xFFFFFFFFFFFFFFFF DUP3 GT OR ISZERO PUSH2 0x150D JUMPI PUSH2 0x150C PUSH2 0x14B6 JUMP JUMPDEST JUMPDEST DUP1 PUSH1 0x40 MSTORE POP POP POP JUMP JUMPDEST PUSH1 0x0 PUSH2 0x1520 PUSH2 0x106D JUMP JUMPDEST SWAP1 POP PUSH2 0x152C DUP3 DUP3 PUSH2 0x14E5 JUMP JUMPDEST SWAP2 SWAP1 POP JUMP JUMPDEST PUSH1 0x0 PUSH8 0xFFFFFFFFFFFFFFFF DUP3 GT ISZERO PUSH2 0x154C JUMPI PUSH2 0x154B PUSH2 0x14B6 JUMP JUMPDEST JUMPDEST PUSH2 0x1555 DUP3 PUSH2 0x1133 JUMP JUMPDEST SWAP1 POP PUSH1 0x20 DUP2 ADD SWAP1 POP SWAP2 SWAP1 POP JUMP JUMPDEST DUP3 DUP2 DUP4 CALLDATACOPY PUSH1 0x0 DUP4 DUP4 ADD MSTORE POP POP POP JUMP JUMPDEST PUSH1 0x0 PUSH2 0x1584 PUSH2 0x157F DUP5 PUSH2 0x1531 JUMP JUMPDEST PUSH2 0x1516 JUMP JUMPDEST SWAP1 POP DUP3 DUP2 MSTORE PUSH1 0x20 DUP2 ADD DUP5 DUP5 DUP5 ADD GT ISZERO PUSH2 0x15A0 JUMPI PUSH2 0x159F PUSH2 0x14B1 JUMP JUMPDEST JUMPDEST PUSH2 0x15AB DUP5 DUP3 DUP6 PUSH2 0x1562 JUMP JUMPDEST POP SWAP4 SWAP3 POP POP POP JUMP JUMPDEST PUSH1 0x0 DUP3 PUSH1 0x1F DUP4 ADD SLT PUSH2 0x15C8 JUMPI PUSH2 0x15C7 PUSH2 0x14AC JUMP JUMPDEST JUMPDEST DUP2 CALLDATALOAD PUSH2 0x15D8 DUP5 DUP3 PUSH1 0x20 DUP7 ADD PUSH2 0x1571 JUMP JUMPDEST SWAP2 POP POP SWAP3 SWAP2 POP POP JUMP JUMPDEST PUSH1 0x0 PUSH1 0x20 DUP3 DUP5 SUB SLT ISZERO PUSH2 0x15F7 JUMPI PUSH2 0x15F6 PUSH2 0x1077 JUMP JUMPDEST JUMPDEST PUSH1 0x0 DUP3 ADD CALLDATALOAD PUSH8 0xFFFFFFFFFFFFFFFF DUP2 GT ISZERO PUSH2 0x1615 JUMPI PUSH2 0x1614 PUSH2 0x107C JUMP JUMPDEST JUMPDEST PUSH2 0x1621 DUP5 DUP3 DUP6 ADD PUSH2 0x15B3 JUMP JUMPDEST SWAP2 POP POP SWAP3 SWAP2 POP POP JUMP JUMPDEST PUSH1 0x0 PUSH1 0x20 DUP3 ADD SWAP1 POP PUSH2 0x163F PUSH1 0x0 DUP4 ADD DUP5 PUSH2 0x1300 JUMP JUMPDEST SWAP3 SWAP2 POP POP JUMP JUMPDEST PUSH1 0x0 PUSH8 0xFFFFFFFFFFFFFFFF DUP3 GT ISZERO PUSH2 0x1660 JUMPI PUSH2 0x165F PUSH2 0x14B6 JUMP JUMPDEST JUMPDEST PUSH2 0x1669 DUP3 PUSH2 0x1133 JUMP JUMPDEST SWAP1 POP PUSH1 0x20 DUP2 ADD SWAP1 POP SWAP2 SWAP1 POP JUMP JUMPDEST PUSH1 0x0 PUSH2 0x1689 PUSH2 0x1684 DUP5 PUSH2 0x1645 JUMP JUMPDEST PUSH2 0x1516 JUMP JUMPDEST SWAP1 POP DUP3 DUP2 MSTORE PUSH1 0x20 DUP2 ADD DUP5 DUP5 DUP5 ADD GT ISZERO PUSH2 0x16A5 JUMPI PUSH2 0x16A4 PUSH2 0x14B1 JUMP JUMPDEST JUMPDEST PUSH2 0x16B0 DUP5 DUP3 DUP6 PUSH2 0x1562 JUMP JUMPDEST POP SWAP4 SWAP3 POP POP POP JUMP JUMPDEST PUSH1 0x0 DUP3 PUSH1 0x1F DUP4 ADD SLT PUSH2 0x16CD JUMPI PUSH2 0x16CC PUSH2 0x14AC JUMP JUMPDEST JUMPDEST DUP2 CALLDATALOAD PUSH2 0x16DD DUP5 DUP3 PUSH1 0x20 DUP7 ADD PUSH2 0x1676 JUMP JUMPDEST SWAP2 POP POP SWAP3 SWAP2 POP POP JUMP JUMPDEST PUSH1 0x0 DUP1 PUSH1 0x0 DUP1 PUSH1 0x0 PUSH1 0xA0 DUP7 DUP9 SUB SLT ISZERO PUSH2 0x1702 JUMPI PUSH2 0x1701 PUSH2 0x1077 JUMP JUMPDEST JUMPDEST PUSH1 0x0 DUP7 ADD CALLDATALOAD PUSH8 0xFFFFFFFFFFFFFFFF DUP2 GT ISZERO PUSH2 0x1720 JUMPI PUSH2 0x171F PUSH2 0x107C JUMP JUMPDEST JUMPDEST PUSH2 0x172C DUP9 DUP3 DUP10 ADD PUSH2 0x16B8 JUMP JUMPDEST SWAP6 POP POP PUSH1 0x20 DUP7 ADD CALLDATALOAD PUSH8 0xFFFFFFFFFFFFFFFF DUP2 GT ISZERO PUSH2 0x174D JUMPI PUSH2 0x174C PUSH2 0x107C JUMP JUMPDEST JUMPDEST PUSH2 0x1759 DUP9 DUP3 DUP10 ADD PUSH2 0x16B8 JUMP JUMPDEST SWAP5 POP POP PUSH1 0x40 DUP7 ADD CALLDATALOAD PUSH8 0xFFFFFFFFFFFFFFFF DUP2 GT ISZERO PUSH2 0x177A JUMPI PUSH2 0x1779 PUSH2 0x107C JUMP JUMPDEST JUMPDEST PUSH2 0x1786 DUP9 DUP3 DUP10 ADD PUSH2 0x16B8 JUMP JUMPDEST SWAP4 POP POP PUSH1 0x60 PUSH2 0x1797 DUP9 DUP3 DUP10 ADD PUSH2 0x13ED JUMP JUMPDEST SWAP3 POP POP PUSH1 0x80 DUP7 ADD CALLDATALOAD PUSH8 0xFFFFFFFFFFFFFFFF DUP2 GT ISZERO PUSH2 0x17B8 JUMPI PUSH2 0x17B7 PUSH2 0x107C JUMP JUMPDEST JUMPDEST PUSH2 0x17C4 DUP9 DUP3 DUP10 ADD PUSH2 0x16B8 JUMP JUMPDEST SWAP2 POP POP SWAP3 SWAP6 POP SWAP3 SWAP6 SWAP1 SWAP4 POP JUMP JUMPDEST PUSH1 0x0 PUSH1 0x20 DUP3 ADD SWAP1 POP PUSH2 0x17E6 PUSH1 0x0 DUP4 ADD DUP5 PUSH2 0x1187 JUMP JUMPDEST SWAP3 SWAP2 POP POP JUMP JUMPDEST PUSH1 0x3 DUP2 LT PUSH2 0x17F9 JUMPI PUSH1 0x0 DUP1 REVERT JUMPDEST POP JUMP JUMPDEST PUSH1 0x0 DUP2 CALLDATALOAD SWAP1 POP PUSH2 0x180B DUP2 PUSH2 0x17EC JUMP JUMPDEST SWAP3 SWAP2 POP POP JUMP JUMPDEST PUSH1 0x0 DUP1 PUSH1 0x0 DUP1 PUSH1 0x0 PUSH1 0xA0 DUP7 DUP9 SUB SLT ISZERO PUSH2 0x182D JUMPI PUSH2 0x182C PUSH2 0x1077 JUMP JUMPDEST JUMPDEST PUSH1 0x0 PUSH2 0x183B DUP9 DUP3 DUP10 ADD PUSH2 0x13ED JUMP JUMPDEST SWAP6 POP POP PUSH1 0x20 PUSH2 0x184C DUP9 DUP3 DUP10 ADD PUSH2 0x13ED JUMP JUMPDEST SWAP5 POP POP PUSH1 0x40 PUSH2 0x185D DUP9 DUP3 DUP10 ADD PUSH2 0x17FC JUMP JUMPDEST SWAP4 POP POP PUSH1 0x60 DUP7 ADD CALLDATALOAD PUSH8 0xFFFFFFFFFFFFFFFF DUP2 GT ISZERO PUSH2 0x187E JUMPI PUSH2 0x187D PUSH2 0x107C JUMP JUMPDEST JUMPDEST PUSH2 0x188A DUP9 DUP3 DUP10 ADD PUSH2 0x16B8 JUMP JUMPDEST SWAP3 POP POP PUSH1 0x80 DUP7 ADD CALLDATALOAD PUSH8 0xFFFFFFFFFFFFFFFF DUP2 GT ISZERO PUSH2 0x18AB JUMPI PUSH2 0x18AA PUSH2 0x107C JUMP JUMPDEST JUMPDEST PUSH2 0x18B7 DUP9 DUP3 DUP10 ADD PUSH2 0x16B8 JUMP JUMPDEST SWAP2 POP POP SWAP3 SWAP6 POP SWAP3 SWAP6 SWAP1 SWAP4 POP JUMP JUMPDEST PUSH1 0x0 PUSH1 0x20 DUP3 ADD SWAP1 POP DUP2 DUP2 SUB PUSH1 0x0 DUP4 ADD MSTORE PUSH2 0x18DE DUP2 DUP5 PUSH2 0x1144 JUMP JUMPDEST SWAP1 POP SWAP3 SWAP2 POP POP JUMP JUMPDEST PUSH1 0x0 PUSH1 0x20 DUP3 ADD SWAP1 POP DUP2 DUP2 SUB PUSH1 0x0 DUP4 ADD MSTORE PUSH2 0x1900 DUP2 DUP5 PUSH2 0x1320 JUMP JUMPDEST SWAP1 POP SWAP3 SWAP2 POP POP JUMP JUMPDEST PUSH32 0x4E487B7100000000000000000000000000000000000000000000000000000000 PUSH1 0x0 MSTORE PUSH1 0x22 PUSH1 0x4 MSTORE PUSH1 0x24 PUSH1 0x0 REVERT JUMPDEST PUSH1 0x0 PUSH1 0x2 DUP3 DIV SWAP1 POP PUSH1 0x1 DUP3 AND DUP1 PUSH2 0x194F JUMPI PUSH1 0x7F DUP3 AND SWAP2 POP JUMPDEST PUSH1 0x20 DUP3 LT DUP2 EQ ISZERO PUSH2 0x1963 JUMPI PUSH2 0x1962 PUSH2 0x1908 JUMP JUMPDEST JUMPDEST POP SWAP2 SWAP1 POP JUMP JUMPDEST PUSH32 0x4E487B7100000000000000000000000000000000000000000000000000000000 PUSH1 0x0 MSTORE PUSH1 0x11 PUSH1 0x4 MSTORE PUSH1 0x24 PUSH1 0x0 REVERT JUMPDEST PUSH1 0x0 PUSH2 0x19A3 DUP3 PUSH2 0x117D JUMP JUMPDEST SWAP2 POP PUSH32 0xFFFFFFFFFFFFFFFFFFFFFFFFFFFFFFFFFFFFFFFFFFFFFFFFFFFFFFFFFFFFFFFF DUP3 EQ ISZERO PUSH2 0x19D6 JUMPI PUSH2 0x19D5 PUSH2 0x1969 JUMP JUMPDEST JUMPDEST PUSH1 0x1 DUP3 ADD SWAP1 POP SWAP2 SWAP1 POP JUMP JUMPDEST PUSH1 0x0 DUP2 SWAP1 POP SWAP2 SWAP1 POP JUMP JUMPDEST PUSH2 0x19FC PUSH2 0x19F7 DUP3 PUSH2 0x117D JUMP JUMPDEST PUSH2 0x19E1 JUMP JUMPDEST DUP3 MSTORE POP POP JUMP JUMPDEST PUSH1 0x0 PUSH2 0x1A0E DUP3 DUP6 PUSH2 0x19EB JUMP JUMPDEST PUSH1 0x20 DUP3 ADD SWAP2 POP PUSH2 0x1A1E DUP3 DUP5 PUSH2 0x19EB JUMP JUMPDEST PUSH1 0x20 DUP3 ADD SWAP2 POP DUP2 SWAP1 POP SWAP4 SWAP3 POP POP POP JUMP JUMPDEST PUSH1 0x0 PUSH2 0x1A39 DUP3 PUSH2 0x117D JUMP JUMPDEST SWAP2 POP PUSH2 0x1A44 DUP4 PUSH2 0x117D JUMP JUMPDEST SWAP3 POP DUP3 PUSH32 0xFFFFFFFFFFFFFFFFFFFFFFFFFFFFFFFFFFFFFFFFFFFFFFFFFFFFFFFFFFFFFFFF SUB DUP3 GT ISZERO PUSH2 0x1A79 JUMPI PUSH2 0x1A78 PUSH2 0x1969 JUMP JUMPDEST JUMPDEST DUP3 DUP3 ADD SWAP1 POP SWAP3 SWAP2 POP POP JUMP INVALID LOG2 PUSH5 0x6970667358 0x22 SLT KECCAK256 PC SWAP1 0xEC 0xC9 0xB1 EXTCODESIZE SWAP9 0xD ORIGIN PUSH30 0x1FCECC22F767F9464F77731D7760D82758993E03C98764736F6C63430008 0xC STOP CALLER "
				},
				"gasEstimates": {
					"creation": {
						"codeDepositCost": "1368400",
						"executionCost": "11436",
						"totalCost": "1379836"
					},
					"external": {
						"MC(bytes32)": "infinite",
						"add(uint256,uint256,uint8,string,string)": "infinite",
						"createPersonalInfo(string,string,string,uint256,string)": "infinite",
						"getMCCategory(bytes)": "infinite",
						"getMCNRIC(bytes)": "infinite",
						"getMCName(bytes)": "infinite",
						"infos(uint256)": "infinite"
					}
				},
				"methodIdentifiers": {
					"MC(bytes32)": "109075f1",
					"add(uint256,uint256,uint8,string,string)": "d353b2b1",
					"createPersonalInfo(string,string,string,uint256,string)": "2b41cdb9",
					"getMCCategory(bytes)": "29efb4a9",
					"getMCNRIC(bytes)": "d4c85366",
					"getMCName(bytes)": "f29a6f44",
					"infos(uint256)": "28de3c9b"
				}
			},
			"storageLayout": {
				"storage": [
					{
						"astId": 5,
						"contract": "contracts/MedicalCert.sol:MedicalCertificate",
						"label": "counter",
						"offset": 0,
						"slot": "0",
						"type": "t_uint256"
					},
					{
						"astId": 42,
						"contract": "contracts/MedicalCert.sol:MedicalCertificate",
						"label": "MC",
						"offset": 0,
						"slot": "1",
						"type": "t_mapping(t_bytes32,t_struct(medicalCert)37_storage)"
					},
					{
						"astId": 47,
						"contract": "contracts/MedicalCert.sol:MedicalCertificate",
						"label": "infos",
						"offset": 0,
						"slot": "2",
						"type": "t_mapping(t_uint256,t_struct(personalInfo)22_storage)"
					},
					{
						"astId": 50,
						"contract": "contracts/MedicalCert.sol:MedicalCertificate",
						"label": "numOfPeople",
						"offset": 0,
						"slot": "3",
						"type": "t_uint256"
					}
				],
				"types": {
					"t_bytes32": {
						"encoding": "inplace",
						"label": "bytes32",
						"numberOfBytes": "32"
					},
					"t_bytes_storage": {
						"encoding": "bytes",
						"label": "bytes",
						"numberOfBytes": "32"
					},
					"t_enum(certCategory)9": {
						"encoding": "inplace",
						"label": "enum MedicalCertificate.certCategory",
						"numberOfBytes": "1"
					},
					"t_mapping(t_bytes32,t_struct(medicalCert)37_storage)": {
						"encoding": "mapping",
						"key": "t_bytes32",
						"label": "mapping(bytes32 => struct MedicalCertificate.medicalCert)",
						"numberOfBytes": "32",
						"value": "t_struct(medicalCert)37_storage"
					},
					"t_mapping(t_uint256,t_struct(personalInfo)22_storage)": {
						"encoding": "mapping",
						"key": "t_uint256",
						"label": "mapping(uint256 => struct MedicalCertificate.personalInfo)",
						"numberOfBytes": "32",
						"value": "t_struct(personalInfo)22_storage"
					},
					"t_string_storage": {
						"encoding": "bytes",
						"label": "string",
						"numberOfBytes": "32"
					},
					"t_struct(medicalCert)37_storage": {
						"encoding": "inplace",
						"label": "struct MedicalCertificate.medicalCert",
						"members": [
							{
								"astId": 24,
								"contract": "contracts/MedicalCert.sol:MedicalCertificate",
								"label": "ID",
								"offset": 0,
								"slot": "0",
								"type": "t_bytes_storage"
							},
							{
								"astId": 26,
								"contract": "contracts/MedicalCert.sol:MedicalCertificate",
								"label": "HospitalID",
								"offset": 0,
								"slot": "1",
								"type": "t_uint256"
							},
							{
								"astId": 29,
								"contract": "contracts/MedicalCert.sol:MedicalCertificate",
								"label": "personal_info",
								"offset": 0,
								"slot": "2",
								"type": "t_struct(personalInfo)22_storage"
							},
							{
								"astId": 32,
								"contract": "contracts/MedicalCert.sol:MedicalCertificate",
								"label": "incident",
								"offset": 0,
								"slot": "8",
								"type": "t_enum(certCategory)9"
							},
							{
								"astId": 34,
								"contract": "contracts/MedicalCert.sol:MedicalCertificate",
								"label": "dateTimeIncident",
								"offset": 0,
								"slot": "9",
								"type": "t_string_storage"
							},
							{
								"astId": 36,
								"contract": "contracts/MedicalCert.sol:MedicalCertificate",
								"label": "titleOfCertifier",
								"offset": 0,
								"slot": "10",
								"type": "t_string_storage"
							}
						],
						"numberOfBytes": "352"
					},
					"t_struct(personalInfo)22_storage": {
						"encoding": "inplace",
						"label": "struct MedicalCertificate.personalInfo",
						"members": [
							{
								"astId": 11,
								"contract": "contracts/MedicalCert.sol:MedicalCertificate",
								"label": "personId",
								"offset": 0,
								"slot": "0",
								"type": "t_uint256"
							},
							{
								"astId": 13,
								"contract": "contracts/MedicalCert.sol:MedicalCertificate",
								"label": "name",
								"offset": 0,
								"slot": "1",
								"type": "t_string_storage"
							},
							{
								"astId": 15,
								"contract": "contracts/MedicalCert.sol:MedicalCertificate",
								"label": "NRIC",
								"offset": 0,
								"slot": "2",
								"type": "t_string_storage"
							},
							{
								"astId": 17,
								"contract": "contracts/MedicalCert.sol:MedicalCertificate",
								"label": "sex",
								"offset": 0,
								"slot": "3",
								"type": "t_string_storage"
							},
							{
								"astId": 19,
								"contract": "contracts/MedicalCert.sol:MedicalCertificate",
								"label": "birthdate",
								"offset": 0,
								"slot": "4",
								"type": "t_uint256"
							},
							{
								"astId": 21,
								"contract": "contracts/MedicalCert.sol:MedicalCertificate",
								"label": "race_nationality",
								"offset": 0,
								"slot": "5",
								"type": "t_string_storage"
							}
						],
						"numberOfBytes": "192"
					},
					"t_uint256": {
						"encoding": "inplace",
						"label": "uint256",
						"numberOfBytes": "32"
					}
				}
			},
			"userdoc": {
				"kind": "user",
				"methods": {},
				"version": 1
			}
		}
	}
}