{
	"data": {
		"bytecode": {
			"linkReferences": {},
			"object": "6080604052600060035560006004553480156200001b57600080fd5b50604051620024da380380620024da833981810160405281019062000041919062000106565b806000806101000a81548173ffffffffffffffffffffffffffffffffffffffff021916908373ffffffffffffffffffffffffffffffffffffffff1602179055505062000138565b600080fd5b600073ffffffffffffffffffffffffffffffffffffffff82169050919050565b6000620000ba826200008d565b9050919050565b6000620000ce82620000ad565b9050919050565b620000e081620000c1565b8114620000ec57600080fd5b50565b6000815190506200010081620000d5565b92915050565b6000602082840312156200011f576200011e62000088565b5b60006200012f84828501620000ef565b91505092915050565b61239280620001486000396000f3fe608060405234801561001057600080fd5b50600436106100935760003560e01c80633ffbd47f116100665780633ffbd47f146101445780639fd95ce714610174578063ca630e1f146101a4578063d48794af146101c0578063efb70f08146101f057610093565b806310ab2570146100985780631e8993d9146100c85780632a177158146100e45780632b41cdb914610114575b600080fd5b6100b260048036038101906100ad9190611057565b610220565b6040516100bf91906110c5565b60405180910390f35b6100e260048036038101906100dd9190611226565b610260565b005b6100fe60048036038101906100f991906112dd565b610405565b60405161010b9190611319565b60405180910390f35b61012e60048036038101906101299190611334565b61044e565b60405161013b9190611319565b60405180910390f35b61015e6004803603810190610159919061141f565b610500565b60405161016b9190611319565b60405180910390f35b61018e600480360381019061018991906114bc565b6106a7565b60405161019b91906115ee565b60405180910390f35b6101be60048036038101906101b99190611226565b61085c565b005b6101da60048036038101906101d591906116b1565b6109e0565b6040516101e791906115ee565b60405180910390f35b61020a60048036038101906102059190611764565b610ea1565b6040516102179190611815565b60405180910390f35b60006001600083815260200190815260200160002060000160009054906101000a900473ffffffffffffffffffffffffffffffffffffffff169050919050565b828260016000838152602001908152602001600020600201604051610285919061193a565b60405180910390208160405160200161029e919061199d565b60405160208183030381529060405280519060200120146102f4576040517f08c379a00000000000000000000000000000000000000000000000000000000081526004016102eb90611a1e565b60405180910390fd5b826009815114610339576040517f08c379a000000000000000000000000000000000000000000000000000000000815260040161033090611a8a565b60405180910390fd5b336001600088815260200190815260200160002060000160006101000a81548173ffffffffffffffffffffffffffffffffffffffff021916908373ffffffffffffffffffffffffffffffffffffffff1602179055508360405160200161039f9190611af6565b6040516020818303038152906040526001600088815260200190815260200160002060010190816103d09190611cc2565b507fdc5f6b9352635161a74876313a5729a4d33d34f1f65e69809e2e4275fb16be5560405160405180910390a1505050505050565b6000600260008373ffffffffffffffffffffffffffffffffffffffff1673ffffffffffffffffffffffffffffffffffffffff168152602001908152602001600020549050919050565b60008060009054906101000a900473ffffffffffffffffffffffffffffffffffffffff1673ffffffffffffffffffffffffffffffffffffffff16632b41cdb987878787876040518663ffffffff1660e01b81526004016104b2959493929190611d94565b6020604051808303816000875af11580156104d1573d6000803e3d6000fd5b505050506040513d601f19601f820116820180604052508101906104f59190611e18565b905095945050505050565b6000826009815114610547576040517f08c379a000000000000000000000000000000000000000000000000000000000815260040161053e90611a8a565b60405180910390fd5b6003600081548092919061055a90611e74565b919050555060006001600060035481526020019081526020016000209050338160000160006101000a81548173ffffffffffffffffffffffffffffffffffffffff021916908373ffffffffffffffffffffffffffffffffffffffff160217905550846040516020016105cc9190611af6565b6040516020818303038152906040528160010190816105eb9190611cc2565b50836040516020016105fd919061199d565b60405160208183030381529060405281600201908161061c9190611cc2565b506003548160030181905550600354600260003373ffffffffffffffffffffffffffffffffffffffff1673ffffffffffffffffffffffffffffffffffffffff168152602001908152602001600020819055507f2de40ce37397b7fb2d98ae62dc520d88b46e2c50beac9f696f11ccc6605ef3eb60405160405180910390a16003549250505092915050565b6060856000600160008381526020019081526020016000206003015411610703576040517f08c379a00000000000000000000000000000000000000000000000000000000081526004016106fa90611f08565b60405180910390fd5b60008060009054906101000a900473ffffffffffffffffffffffffffffffffffffffff1673ffffffffffffffffffffffffffffffffffffffff1663d353b2b189898989896040518663ffffffff1660e01b8152600401610767959493929190611f9f565b6000604051808303816000875af1158015610786573d6000803e3d6000fd5b505050506040513d6000823e3d601f19601f820116820180604052508101906107af9190612070565b905033600160008a8152602001908152602001600020600401826040516107d691906120ea565b908152602001604051809103902060006101000a81548173ffffffffffffffffffffffffffffffffffffffff021916908373ffffffffffffffffffffffffffffffffffffffff1602179055507f278d2dbf6177cb0a7393b373d86b3114ec53cde7b0b841ed12144e6b057eb0f360405160405180910390a1809250505095945050505050565b826001600082815260200190815260200160002060000160009054906101000a900473ffffffffffffffffffffffffffffffffffffffff1673ffffffffffffffffffffffffffffffffffffffff163373ffffffffffffffffffffffffffffffffffffffff1614610901576040517f08c379a00000000000000000000000000000000000000000000000000000000081526004016108f89061214d565b60405180910390fd5b838360016000838152602001908152602001600020600201604051610926919061193a565b60405180910390208160405160200161093f919061199d565b6040516020818303038152906040528051906020012014610995576040517f08c379a000000000000000000000000000000000000000000000000000000000815260040161098c90611a1e565b60405180910390fd5b836040516020016109a6919061199d565b6040516020818303038152906040526001600088815260200190815260200160002060020190816109d79190611cc2565b50505050505050565b6060856000600160008381526020019081526020016000206003015411610a3c576040517f08c379a0000000000000000000000000000000000000000000000000000000008152600401610a3390611f08565b60405180910390fd5b868660016000838152602001908152602001600020600201604051610a61919061193a565b604051809103902081604051602001610a7a919061199d565b6040516020818303038152906040528051906020012014610ad0576040517f08c379a0000000000000000000000000000000000000000000000000000000008152600401610ac790611a1e565b60405180910390fd5b60008614610e95576000600160008b815260200190815260200160002060050160008781526020019081526020016000208054905011610b45576040517f08c379a0000000000000000000000000000000000000000000000000000000008152600401610b3c906121b9565b60405180910390fd5b6000600160008b81526020019081526020016000206005016000878152602001908152602001600020805480602002602001604051908101604052809291908181526020016000905b82821015610d8a57838290600052602060002090600502016040518060a00160405290816000820154815260200160018201548152602001600282018054610bd590611866565b80601f0160208091040260200160405190810160405280929190818152602001828054610c0190611866565b8015610c4e5780601f10610c2357610100808354040283529160200191610c4e565b820191906000526020600020905b815481529060010190602001808311610c3157829003601f168201915b50505050508152602001600382018054610c6790611866565b80601f0160208091040260200160405190810160405280929190818152602001828054610c9390611866565b8015610ce05780601f10610cb557610100808354040283529160200191610ce0565b820191906000526020600020905b815481529060010190602001808311610cc357829003601f168201915b50505050508152602001600482018054610cf990611866565b80601f0160208091040260200160405190810160405280929190818152602001828054610d2590611866565b8015610d725780601f10610d4757610100808354040283529160200191610d72565b820191906000526020600020905b815481529060010190602001808311610d5557829003601f168201915b50505050508152505081526020019060010190610b8e565b50505050905060008151905060008080600090505b83811015610de7578a858281518110610dbb57610dba6121d9565b5b60200260200101516000015103610dd457809150600192505b8080610ddf90611e74565b915050610d9f565b506001151582151514610e2f576040517f08c379a0000000000000000000000000000000000000000000000000000000008152600401610e2690612254565b60405180910390fd5b8115610e90578a848281518110610e4957610e486121d9565b5b6020026020010151608001819052507fc01a711a994234663e49bcaf267235941ef164ac0dea30de367e8cdb0eeabd5a8a604051610e879190611319565b60405180910390a15b505050505b50505095945050505050565b6060826001600082815260200190815260200160002060000160009054906101000a900473ffffffffffffffffffffffffffffffffffffffff1673ffffffffffffffffffffffffffffffffffffffff163373ffffffffffffffffffffffffffffffffffffffff1614610f48576040517f08c379a0000000000000000000000000000000000000000000000000000000008152600401610f3f9061214d565b60405180910390fd5b600080600160008781526020019081526020016000206002018054610f6c90611866565b80601f0160208091040260200160405190810160405280929190818152602001828054610f9890611866565b8015610fe55780601f10610fba57610100808354040283529160200191610fe5565b820191906000526020600020905b815481529060010190602001808311610fc857829003601f168201915b5050505050806020019051810190610ffd91906122e4565b9150915081935050505092915050565b6000604051905090565b600080fd5b600080fd5b6000819050919050565b61103481611021565b811461103f57600080fd5b50565b6000813590506110518161102b565b92915050565b60006020828403121561106d5761106c611017565b5b600061107b84828501611042565b91505092915050565b600073ffffffffffffffffffffffffffffffffffffffff82169050919050565b60006110af82611084565b9050919050565b6110bf816110a4565b82525050565b60006020820190506110da60008301846110b6565b92915050565b600080fd5b600080fd5b6000601f19601f8301169050919050565b7f4e487b7100000000000000000000000000000000000000000000000000000000600052604160045260246000fd5b611133826110ea565b810181811067ffffffffffffffff82111715611152576111516110fb565b5b80604052505050565b600061116561100d565b9050611171828261112a565b919050565b600067ffffffffffffffff821115611191576111906110fb565b5b61119a826110ea565b9050602081019050919050565b82818337600083830152505050565b60006111c96111c484611176565b61115b565b9050828152602081018484840111156111e5576111e46110e5565b5b6111f08482856111a7565b509392505050565b600082601f83011261120d5761120c6110e0565b5b813561121d8482602086016111b6565b91505092915050565b60008060006060848603121561123f5761123e611017565b5b600061124d86828701611042565b935050602084013567ffffffffffffffff81111561126e5761126d61101c565b5b61127a868287016111f8565b925050604084013567ffffffffffffffff81111561129b5761129a61101c565b5b6112a7868287016111f8565b9150509250925092565b6112ba816110a4565b81146112c557600080fd5b50565b6000813590506112d7816112b1565b92915050565b6000602082840312156112f3576112f2611017565b5b6000611301848285016112c8565b91505092915050565b61131381611021565b82525050565b600060208201905061132e600083018461130a565b92915050565b600080600080600060a086880312156113505761134f611017565b5b600086013567ffffffffffffffff81111561136e5761136d61101c565b5b61137a888289016111f8565b955050602086013567ffffffffffffffff81111561139b5761139a61101c565b5b6113a7888289016111f8565b945050604086013567ffffffffffffffff8111156113c8576113c761101c565b5b6113d4888289016111f8565b93505060606113e588828901611042565b925050608086013567ffffffffffffffff8111156114065761140561101c565b5b611412888289016111f8565b9150509295509295909350565b6000806040838503121561143657611435611017565b5b600083013567ffffffffffffffff8111156114545761145361101c565b5b611460858286016111f8565b925050602083013567ffffffffffffffff8111156114815761148061101c565b5b61148d858286016111f8565b9150509250929050565b600381106114a457600080fd5b50565b6000813590506114b681611497565b92915050565b600080600080600060a086880312156114d8576114d7611017565b5b60006114e688828901611042565b95505060206114f788828901611042565b9450506040611508888289016114a7565b935050606086013567ffffffffffffffff8111156115295761152861101c565b5b611535888289016111f8565b925050608086013567ffffffffffffffff8111156115565761155561101c565b5b611562888289016111f8565b9150509295509295909350565b600081519050919050565b600082825260208201905092915050565b60005b838110156115a957808201518184015260208101905061158e565b60008484015250505050565b60006115c08261156f565b6115ca818561157a565b93506115da81856020860161158b565b6115e3816110ea565b840191505092915050565b6000602082019050818103600083015261160881846115b5565b905092915050565b600067ffffffffffffffff82111561162b5761162a6110fb565b5b611634826110ea565b9050602081019050919050565b600061165461164f84611610565b61115b565b9050828152602081018484840111156116705761166f6110e5565b5b61167b8482856111a7565b509392505050565b600082601f830112611698576116976110e0565b5b81356116a8848260208601611641565b91505092915050565b600080600080600060a086880312156116cd576116cc611017565b5b60006116db88828901611042565b955050602086013567ffffffffffffffff8111156116fc576116fb61101c565b5b611708888289016111f8565b945050604086013567ffffffffffffffff8111156117295761172861101c565b5b61173588828901611683565b935050606061174688828901611042565b925050608061175788828901611042565b9150509295509295909350565b6000806040838503121561177b5761177a611017565b5b600061178985828601611042565b925050602083013567ffffffffffffffff8111156117aa576117a961101c565b5b6117b6858286016111f8565b9150509250929050565b600081519050919050565b600082825260208201905092915050565b60006117e7826117c0565b6117f181856117cb565b935061180181856020860161158b565b61180a816110ea565b840191505092915050565b6000602082019050818103600083015261182f81846117dc565b905092915050565b7f4e487b7100000000000000000000000000000000000000000000000000000000600052602260045260246000fd5b6000600282049050600182168061187e57607f821691505b60208210810361189157611890611837565b5b50919050565b600081905092915050565b60008190508160005260206000209050919050565b600081546118c481611866565b6118ce8186611897565b945060018216600081146118e957600181146118fe57611931565b60ff1983168652811515820286019350611931565b611907856118a2565b60005b838110156119295781548189015260018201915060208101905061190a565b838801955050505b50505092915050565b600061194682846118b7565b915081905092915050565b7f70617373776f7264000000000000000000000000000000000000000000000000600082015250565b60006119876008836117cb565b915061199282611951565b602082019050919050565b600060408201905081810360008301526119b781846117dc565b905081810360208301526119ca8161197a565b905092915050565b7f57726f6e672070617373776f7264210000000000000000000000000000000000600082015250565b6000611a08600f836117cb565b9150611a13826119d2565b602082019050919050565b60006020820190508181036000830152611a37816119fb565b9050919050565b7f696e76616c6964204e524943206e756d62657200000000000000000000000000600082015250565b6000611a746013836117cb565b9150611a7f82611a3e565b602082019050919050565b60006020820190508181036000830152611aa381611a67565b9050919050565b7f6963000000000000000000000000000000000000000000000000000000000000600082015250565b6000611ae06002836117cb565b9150611aeb82611aaa565b602082019050919050565b60006040820190508181036000830152611b1081846117dc565b90508181036020830152611b2381611ad3565b905092915050565b60006020601f8301049050919050565b600082821b905092915050565b600060088302611b787fffffffffffffffffffffffffffffffffffffffffffffffffffffffffffffffff82611b3b565b611b828683611b3b565b95508019841693508086168417925050509392505050565b6000819050919050565b6000611bbf611bba611bb584611021565b611b9a565b611021565b9050919050565b6000819050919050565b611bd983611ba4565b611bed611be582611bc6565b848454611b48565b825550505050565b600090565b611c02611bf5565b611c0d818484611bd0565b505050565b5b81811015611c3157611c26600082611bfa565b600181019050611c13565b5050565b601f821115611c7657611c47816118a2565b611c5084611b2b565b81016020851015611c5f578190505b611c73611c6b85611b2b565b830182611c12565b50505b505050565b600082821c905092915050565b6000611c9960001984600802611c7b565b1980831691505092915050565b6000611cb28383611c88565b9150826002028217905092915050565b611ccb8261156f565b67ffffffffffffffff811115611ce457611ce36110fb565b5b611cee8254611866565b611cf9828285611c35565b600060209050601f831160018114611d2c5760008415611d1a578287015190505b611d248582611ca6565b865550611d8c565b601f198416611d3a866118a2565b60005b82811015611d6257848901518255600182019150602085019450602081019050611d3d565b86831015611d7f5784890151611d7b601f891682611c88565b8355505b6001600288020188555050505b505050505050565b600060a0820190508181036000830152611dae81886117dc565b90508181036020830152611dc281876117dc565b90508181036040830152611dd681866117dc565b9050611de5606083018561130a565b8181036080830152611df781846117dc565b90509695505050505050565b600081519050611e128161102b565b92915050565b600060208284031215611e2e57611e2d611017565b5b6000611e3c84828501611e03565b91505092915050565b7f4e487b7100000000000000000000000000000000000000000000000000000000600052601160045260246000fd5b6000611e7f82611021565b91507fffffffffffffffffffffffffffffffffffffffffffffffffffffffffffffffff8203611eb157611eb0611e45565b5b600182019050919050565b7f496e76616c696420686f73706974616c20696421000000000000000000000000600082015250565b6000611ef26014836117cb565b9150611efd82611ebc565b602082019050919050565b60006020820190508181036000830152611f2181611ee5565b9050919050565b7f4e487b7100000000000000000000000000000000000000000000000000000000600052602160045260246000fd5b60038110611f6857611f67611f28565b5b50565b6000819050611f7982611f57565b919050565b6000611f8982611f6b565b9050919050565b611f9981611f7e565b82525050565b600060a082019050611fb4600083018861130a565b611fc1602083018761130a565b611fce6040830186611f90565b8181036060830152611fe081856117dc565b90508181036080830152611ff481846117dc565b90509695505050505050565b600061201361200e84611610565b61115b565b90508281526020810184848401111561202f5761202e6110e5565b5b61203a84828561158b565b509392505050565b600082601f830112612057576120566110e0565b5b8151612067848260208601612000565b91505092915050565b60006020828403121561208657612085611017565b5b600082015167ffffffffffffffff8111156120a4576120a361101c565b5b6120b084828501612042565b91505092915050565b60006120c48261156f565b6120ce8185611897565b93506120de81856020860161158b565b80840191505092915050565b60006120f682846120b9565b915081905092915050565b7f556e617574686f72697a65642100000000000000000000000000000000000000600082015250565b6000612137600d836117cb565b915061214282612101565b602082019050919050565b600060208201905081810360008301526121668161212a565b9050919050565b7f4e6f742072657175657374207965742100000000000000000000000000000000600082015250565b60006121a36010836117cb565b91506121ae8261216d565b602082019050919050565b600060208201905081810360008301526121d281612196565b9050919050565b7f4e487b7100000000000000000000000000000000000000000000000000000000600052603260045260246000fd5b7f496e76616c696420726571756573742069642100000000000000000000000000600082015250565b600061223e6013836117cb565b915061224982612208565b602082019050919050565b6000602082019050818103600083015261226d81612231565b9050919050565b600061228761228284611176565b61115b565b9050828152602081018484840111156122a3576122a26110e5565b5b6122ae84828561158b565b509392505050565b600082601f8301126122cb576122ca6110e0565b5b81516122db848260208601612274565b91505092915050565b600080604083850312156122fb576122fa611017565b5b600083015167ffffffffffffffff8111156123195761231861101c565b5b612325858286016122b6565b925050602083015167ffffffffffffffff8111156123465761234561101c565b5b612352858286016122b6565b915050925092905056fea264697066735822122088ab86e8099cd6f4fcd59f78134ba64367b0f8cd0ebf06edc2726a5f2545d84764736f6c63430008130033",
			"opcodes": "PUSH1 0x80 PUSH1 0x40 MSTORE PUSH1 0x0 PUSH1 0x3 SSTORE PUSH1 0x0 PUSH1 0x4 SSTORE CALLVALUE DUP1 ISZERO PUSH3 0x1B JUMPI PUSH1 0x0 DUP1 REVERT JUMPDEST POP PUSH1 0x40 MLOAD PUSH3 0x24DA CODESIZE SUB DUP1 PUSH3 0x24DA DUP4 CODECOPY DUP2 DUP2 ADD PUSH1 0x40 MSTORE DUP2 ADD SWAP1 PUSH3 0x41 SWAP2 SWAP1 PUSH3 0x106 JUMP JUMPDEST DUP1 PUSH1 0x0 DUP1 PUSH2 0x100 EXP DUP2 SLOAD DUP2 PUSH20 0xFFFFFFFFFFFFFFFFFFFFFFFFFFFFFFFFFFFFFFFF MUL NOT AND SWAP1 DUP4 PUSH20 0xFFFFFFFFFFFFFFFFFFFFFFFFFFFFFFFFFFFFFFFF AND MUL OR SWAP1 SSTORE POP POP PUSH3 0x138 JUMP JUMPDEST PUSH1 0x0 DUP1 REVERT JUMPDEST PUSH1 0x0 PUSH20 0xFFFFFFFFFFFFFFFFFFFFFFFFFFFFFFFFFFFFFFFF DUP3 AND SWAP1 POP SWAP2 SWAP1 POP JUMP JUMPDEST PUSH1 0x0 PUSH3 0xBA DUP3 PUSH3 0x8D JUMP JUMPDEST SWAP1 POP SWAP2 SWAP1 POP JUMP JUMPDEST PUSH1 0x0 PUSH3 0xCE DUP3 PUSH3 0xAD JUMP JUMPDEST SWAP1 POP SWAP2 SWAP1 POP JUMP JUMPDEST PUSH3 0xE0 DUP2 PUSH3 0xC1 JUMP JUMPDEST DUP2 EQ PUSH3 0xEC JUMPI PUSH1 0x0 DUP1 REVERT JUMPDEST POP JUMP JUMPDEST PUSH1 0x0 DUP2 MLOAD SWAP1 POP PUSH3 0x100 DUP2 PUSH3 0xD5 JUMP JUMPDEST SWAP3 SWAP2 POP POP JUMP JUMPDEST PUSH1 0x0 PUSH1 0x20 DUP3 DUP5 SUB SLT ISZERO PUSH3 0x11F JUMPI PUSH3 0x11E PUSH3 0x88 JUMP JUMPDEST JUMPDEST PUSH1 0x0 PUSH3 0x12F DUP5 DUP3 DUP6 ADD PUSH3 0xEF JUMP JUMPDEST SWAP2 POP POP SWAP3 SWAP2 POP POP JUMP JUMPDEST PUSH2 0x2392 DUP1 PUSH3 0x148 PUSH1 0x0 CODECOPY PUSH1 0x0 RETURN INVALID PUSH1 0x80 PUSH1 0x40 MSTORE CALLVALUE DUP1 ISZERO PUSH2 0x10 JUMPI PUSH1 0x0 DUP1 REVERT JUMPDEST POP PUSH1 0x4 CALLDATASIZE LT PUSH2 0x93 JUMPI PUSH1 0x0 CALLDATALOAD PUSH1 0xE0 SHR DUP1 PUSH4 0x3FFBD47F GT PUSH2 0x66 JUMPI DUP1 PUSH4 0x3FFBD47F EQ PUSH2 0x144 JUMPI DUP1 PUSH4 0x9FD95CE7 EQ PUSH2 0x174 JUMPI DUP1 PUSH4 0xCA630E1F EQ PUSH2 0x1A4 JUMPI DUP1 PUSH4 0xD48794AF EQ PUSH2 0x1C0 JUMPI DUP1 PUSH4 0xEFB70F08 EQ PUSH2 0x1F0 JUMPI PUSH2 0x93 JUMP JUMPDEST DUP1 PUSH4 0x10AB2570 EQ PUSH2 0x98 JUMPI DUP1 PUSH4 0x1E8993D9 EQ PUSH2 0xC8 JUMPI DUP1 PUSH4 0x2A177158 EQ PUSH2 0xE4 JUMPI DUP1 PUSH4 0x2B41CDB9 EQ PUSH2 0x114 JUMPI JUMPDEST PUSH1 0x0 DUP1 REVERT JUMPDEST PUSH2 0xB2 PUSH1 0x4 DUP1 CALLDATASIZE SUB DUP2 ADD SWAP1 PUSH2 0xAD SWAP2 SWAP1 PUSH2 0x1057 JUMP JUMPDEST PUSH2 0x220 JUMP JUMPDEST PUSH1 0x40 MLOAD PUSH2 0xBF SWAP2 SWAP1 PUSH2 0x10C5 JUMP JUMPDEST PUSH1 0x40 MLOAD DUP1 SWAP2 SUB SWAP1 RETURN JUMPDEST PUSH2 0xE2 PUSH1 0x4 DUP1 CALLDATASIZE SUB DUP2 ADD SWAP1 PUSH2 0xDD SWAP2 SWAP1 PUSH2 0x1226 JUMP JUMPDEST PUSH2 0x260 JUMP JUMPDEST STOP JUMPDEST PUSH2 0xFE PUSH1 0x4 DUP1 CALLDATASIZE SUB DUP2 ADD SWAP1 PUSH2 0xF9 SWAP2 SWAP1 PUSH2 0x12DD JUMP JUMPDEST PUSH2 0x405 JUMP JUMPDEST PUSH1 0x40 MLOAD PUSH2 0x10B SWAP2 SWAP1 PUSH2 0x1319 JUMP JUMPDEST PUSH1 0x40 MLOAD DUP1 SWAP2 SUB SWAP1 RETURN JUMPDEST PUSH2 0x12E PUSH1 0x4 DUP1 CALLDATASIZE SUB DUP2 ADD SWAP1 PUSH2 0x129 SWAP2 SWAP1 PUSH2 0x1334 JUMP JUMPDEST PUSH2 0x44E JUMP JUMPDEST PUSH1 0x40 MLOAD PUSH2 0x13B SWAP2 SWAP1 PUSH2 0x1319 JUMP JUMPDEST PUSH1 0x40 MLOAD DUP1 SWAP2 SUB SWAP1 RETURN JUMPDEST PUSH2 0x15E PUSH1 0x4 DUP1 CALLDATASIZE SUB DUP2 ADD SWAP1 PUSH2 0x159 SWAP2 SWAP1 PUSH2 0x141F JUMP JUMPDEST PUSH2 0x500 JUMP JUMPDEST PUSH1 0x40 MLOAD PUSH2 0x16B SWAP2 SWAP1 PUSH2 0x1319 JUMP JUMPDEST PUSH1 0x40 MLOAD DUP1 SWAP2 SUB SWAP1 RETURN JUMPDEST PUSH2 0x18E PUSH1 0x4 DUP1 CALLDATASIZE SUB DUP2 ADD SWAP1 PUSH2 0x189 SWAP2 SWAP1 PUSH2 0x14BC JUMP JUMPDEST PUSH2 0x6A7 JUMP JUMPDEST PUSH1 0x40 MLOAD PUSH2 0x19B SWAP2 SWAP1 PUSH2 0x15EE JUMP JUMPDEST PUSH1 0x40 MLOAD DUP1 SWAP2 SUB SWAP1 RETURN JUMPDEST PUSH2 0x1BE PUSH1 0x4 DUP1 CALLDATASIZE SUB DUP2 ADD SWAP1 PUSH2 0x1B9 SWAP2 SWAP1 PUSH2 0x1226 JUMP JUMPDEST PUSH2 0x85C JUMP JUMPDEST STOP JUMPDEST PUSH2 0x1DA PUSH1 0x4 DUP1 CALLDATASIZE SUB DUP2 ADD SWAP1 PUSH2 0x1D5 SWAP2 SWAP1 PUSH2 0x16B1 JUMP JUMPDEST PUSH2 0x9E0 JUMP JUMPDEST PUSH1 0x40 MLOAD PUSH2 0x1E7 SWAP2 SWAP1 PUSH2 0x15EE JUMP JUMPDEST PUSH1 0x40 MLOAD DUP1 SWAP2 SUB SWAP1 RETURN JUMPDEST PUSH2 0x20A PUSH1 0x4 DUP1 CALLDATASIZE SUB DUP2 ADD SWAP1 PUSH2 0x205 SWAP2 SWAP1 PUSH2 0x1764 JUMP JUMPDEST PUSH2 0xEA1 JUMP JUMPDEST PUSH1 0x40 MLOAD PUSH2 0x217 SWAP2 SWAP1 PUSH2 0x1815 JUMP JUMPDEST PUSH1 0x40 MLOAD DUP1 SWAP2 SUB SWAP1 RETURN JUMPDEST PUSH1 0x0 PUSH1 0x1 PUSH1 0x0 DUP4 DUP2 MSTORE PUSH1 0x20 ADD SWAP1 DUP2 MSTORE PUSH1 0x20 ADD PUSH1 0x0 KECCAK256 PUSH1 0x0 ADD PUSH1 0x0 SWAP1 SLOAD SWAP1 PUSH2 0x100 EXP SWAP1 DIV PUSH20 0xFFFFFFFFFFFFFFFFFFFFFFFFFFFFFFFFFFFFFFFF AND SWAP1 POP SWAP2 SWAP1 POP JUMP JUMPDEST DUP3 DUP3 PUSH1 0x1 PUSH1 0x0 DUP4 DUP2 MSTORE PUSH1 0x20 ADD SWAP1 DUP2 MSTORE PUSH1 0x20 ADD PUSH1 0x0 KECCAK256 PUSH1 0x2 ADD PUSH1 0x40 MLOAD PUSH2 0x285 SWAP2 SWAP1 PUSH2 0x193A JUMP JUMPDEST PUSH1 0x40 MLOAD DUP1 SWAP2 SUB SWAP1 KECCAK256 DUP2 PUSH1 0x40 MLOAD PUSH1 0x20 ADD PUSH2 0x29E SWAP2 SWAP1 PUSH2 0x199D JUMP JUMPDEST PUSH1 0x40 MLOAD PUSH1 0x20 DUP2 DUP4 SUB SUB DUP2 MSTORE SWAP1 PUSH1 0x40 MSTORE DUP1 MLOAD SWAP1 PUSH1 0x20 ADD KECCAK256 EQ PUSH2 0x2F4 JUMPI PUSH1 0x40 MLOAD PUSH32 0x8C379A000000000000000000000000000000000000000000000000000000000 DUP2 MSTORE PUSH1 0x4 ADD PUSH2 0x2EB SWAP1 PUSH2 0x1A1E JUMP JUMPDEST PUSH1 0x40 MLOAD DUP1 SWAP2 SUB SWAP1 REVERT JUMPDEST DUP3 PUSH1 0x9 DUP2 MLOAD EQ PUSH2 0x339 JUMPI PUSH1 0x40 MLOAD PUSH32 0x8C379A000000000000000000000000000000000000000000000000000000000 DUP2 MSTORE PUSH1 0x4 ADD PUSH2 0x330 SWAP1 PUSH2 0x1A8A JUMP JUMPDEST PUSH1 0x40 MLOAD DUP1 SWAP2 SUB SWAP1 REVERT JUMPDEST CALLER PUSH1 0x1 PUSH1 0x0 DUP9 DUP2 MSTORE PUSH1 0x20 ADD SWAP1 DUP2 MSTORE PUSH1 0x20 ADD PUSH1 0x0 KECCAK256 PUSH1 0x0 ADD PUSH1 0x0 PUSH2 0x100 EXP DUP2 SLOAD DUP2 PUSH20 0xFFFFFFFFFFFFFFFFFFFFFFFFFFFFFFFFFFFFFFFF MUL NOT AND SWAP1 DUP4 PUSH20 0xFFFFFFFFFFFFFFFFFFFFFFFFFFFFFFFFFFFFFFFF AND MUL OR SWAP1 SSTORE POP DUP4 PUSH1 0x40 MLOAD PUSH1 0x20 ADD PUSH2 0x39F SWAP2 SWAP1 PUSH2 0x1AF6 JUMP JUMPDEST PUSH1 0x40 MLOAD PUSH1 0x20 DUP2 DUP4 SUB SUB DUP2 MSTORE SWAP1 PUSH1 0x40 MSTORE PUSH1 0x1 PUSH1 0x0 DUP9 DUP2 MSTORE PUSH1 0x20 ADD SWAP1 DUP2 MSTORE PUSH1 0x20 ADD PUSH1 0x0 KECCAK256 PUSH1 0x1 ADD SWAP1 DUP2 PUSH2 0x3D0 SWAP2 SWAP1 PUSH2 0x1CC2 JUMP JUMPDEST POP PUSH32 0xDC5F6B9352635161A74876313A5729A4D33D34F1F65E69809E2E4275FB16BE55 PUSH1 0x40 MLOAD PUSH1 0x40 MLOAD DUP1 SWAP2 SUB SWAP1 LOG1 POP POP POP POP POP POP JUMP JUMPDEST PUSH1 0x0 PUSH1 0x2 PUSH1 0x0 DUP4 PUSH20 0xFFFFFFFFFFFFFFFFFFFFFFFFFFFFFFFFFFFFFFFF AND PUSH20 0xFFFFFFFFFFFFFFFFFFFFFFFFFFFFFFFFFFFFFFFF AND DUP2 MSTORE PUSH1 0x20 ADD SWAP1 DUP2 MSTORE PUSH1 0x20 ADD PUSH1 0x0 KECCAK256 SLOAD SWAP1 POP SWAP2 SWAP1 POP JUMP JUMPDEST PUSH1 0x0 DUP1 PUSH1 0x0 SWAP1 SLOAD SWAP1 PUSH2 0x100 EXP SWAP1 DIV PUSH20 0xFFFFFFFFFFFFFFFFFFFFFFFFFFFFFFFFFFFFFFFF AND PUSH20 0xFFFFFFFFFFFFFFFFFFFFFFFFFFFFFFFFFFFFFFFF AND PUSH4 0x2B41CDB9 DUP8 DUP8 DUP8 DUP8 DUP8 PUSH1 0x40 MLOAD DUP7 PUSH4 0xFFFFFFFF AND PUSH1 0xE0 SHL DUP2 MSTORE PUSH1 0x4 ADD PUSH2 0x4B2 SWAP6 SWAP5 SWAP4 SWAP3 SWAP2 SWAP1 PUSH2 0x1D94 JUMP JUMPDEST PUSH1 0x20 PUSH1 0x40 MLOAD DUP1 DUP4 SUB DUP2 PUSH1 0x0 DUP8 GAS CALL ISZERO DUP1 ISZERO PUSH2 0x4D1 JUMPI RETURNDATASIZE PUSH1 0x0 DUP1 RETURNDATACOPY RETURNDATASIZE PUSH1 0x0 REVERT JUMPDEST POP POP POP POP PUSH1 0x40 MLOAD RETURNDATASIZE PUSH1 0x1F NOT PUSH1 0x1F DUP3 ADD AND DUP3 ADD DUP1 PUSH1 0x40 MSTORE POP DUP2 ADD SWAP1 PUSH2 0x4F5 SWAP2 SWAP1 PUSH2 0x1E18 JUMP JUMPDEST SWAP1 POP SWAP6 SWAP5 POP POP POP POP POP JUMP JUMPDEST PUSH1 0x0 DUP3 PUSH1 0x9 DUP2 MLOAD EQ PUSH2 0x547 JUMPI PUSH1 0x40 MLOAD PUSH32 0x8C379A000000000000000000000000000000000000000000000000000000000 DUP2 MSTORE PUSH1 0x4 ADD PUSH2 0x53E SWAP1 PUSH2 0x1A8A JUMP JUMPDEST PUSH1 0x40 MLOAD DUP1 SWAP2 SUB SWAP1 REVERT JUMPDEST PUSH1 0x3 PUSH1 0x0 DUP2 SLOAD DUP1 SWAP3 SWAP2 SWAP1 PUSH2 0x55A SWAP1 PUSH2 0x1E74 JUMP JUMPDEST SWAP2 SWAP1 POP SSTORE POP PUSH1 0x0 PUSH1 0x1 PUSH1 0x0 PUSH1 0x3 SLOAD DUP2 MSTORE PUSH1 0x20 ADD SWAP1 DUP2 MSTORE PUSH1 0x20 ADD PUSH1 0x0 KECCAK256 SWAP1 POP CALLER DUP2 PUSH1 0x0 ADD PUSH1 0x0 PUSH2 0x100 EXP DUP2 SLOAD DUP2 PUSH20 0xFFFFFFFFFFFFFFFFFFFFFFFFFFFFFFFFFFFFFFFF MUL NOT AND SWAP1 DUP4 PUSH20 0xFFFFFFFFFFFFFFFFFFFFFFFFFFFFFFFFFFFFFFFF AND MUL OR SWAP1 SSTORE POP DUP5 PUSH1 0x40 MLOAD PUSH1 0x20 ADD PUSH2 0x5CC SWAP2 SWAP1 PUSH2 0x1AF6 JUMP JUMPDEST PUSH1 0x40 MLOAD PUSH1 0x20 DUP2 DUP4 SUB SUB DUP2 MSTORE SWAP1 PUSH1 0x40 MSTORE DUP2 PUSH1 0x1 ADD SWAP1 DUP2 PUSH2 0x5EB SWAP2 SWAP1 PUSH2 0x1CC2 JUMP JUMPDEST POP DUP4 PUSH1 0x40 MLOAD PUSH1 0x20 ADD PUSH2 0x5FD SWAP2 SWAP1 PUSH2 0x199D JUMP JUMPDEST PUSH1 0x40 MLOAD PUSH1 0x20 DUP2 DUP4 SUB SUB DUP2 MSTORE SWAP1 PUSH1 0x40 MSTORE DUP2 PUSH1 0x2 ADD SWAP1 DUP2 PUSH2 0x61C SWAP2 SWAP1 PUSH2 0x1CC2 JUMP JUMPDEST POP PUSH1 0x3 SLOAD DUP2 PUSH1 0x3 ADD DUP2 SWAP1 SSTORE POP PUSH1 0x3 SLOAD PUSH1 0x2 PUSH1 0x0 CALLER PUSH20 0xFFFFFFFFFFFFFFFFFFFFFFFFFFFFFFFFFFFFFFFF AND PUSH20 0xFFFFFFFFFFFFFFFFFFFFFFFFFFFFFFFFFFFFFFFF AND DUP2 MSTORE PUSH1 0x20 ADD SWAP1 DUP2 MSTORE PUSH1 0x20 ADD PUSH1 0x0 KECCAK256 DUP2 SWAP1 SSTORE POP PUSH32 0x2DE40CE37397B7FB2D98AE62DC520D88B46E2C50BEAC9F696F11CCC6605EF3EB PUSH1 0x40 MLOAD PUSH1 0x40 MLOAD DUP1 SWAP2 SUB SWAP1 LOG1 PUSH1 0x3 SLOAD SWAP3 POP POP POP SWAP3 SWAP2 POP POP JUMP JUMPDEST PUSH1 0x60 DUP6 PUSH1 0x0 PUSH1 0x1 PUSH1 0x0 DUP4 DUP2 MSTORE PUSH1 0x20 ADD SWAP1 DUP2 MSTORE PUSH1 0x20 ADD PUSH1 0x0 KECCAK256 PUSH1 0x3 ADD SLOAD GT PUSH2 0x703 JUMPI PUSH1 0x40 MLOAD PUSH32 0x8C379A000000000000000000000000000000000000000000000000000000000 DUP2 MSTORE PUSH1 0x4 ADD PUSH2 0x6FA SWAP1 PUSH2 0x1F08 JUMP JUMPDEST PUSH1 0x40 MLOAD DUP1 SWAP2 SUB SWAP1 REVERT JUMPDEST PUSH1 0x0 DUP1 PUSH1 0x0 SWAP1 SLOAD SWAP1 PUSH2 0x100 EXP SWAP1 DIV PUSH20 0xFFFFFFFFFFFFFFFFFFFFFFFFFFFFFFFFFFFFFFFF AND PUSH20 0xFFFFFFFFFFFFFFFFFFFFFFFFFFFFFFFFFFFFFFFF AND PUSH4 0xD353B2B1 DUP10 DUP10 DUP10 DUP10 DUP10 PUSH1 0x40 MLOAD DUP7 PUSH4 0xFFFFFFFF AND PUSH1 0xE0 SHL DUP2 MSTORE PUSH1 0x4 ADD PUSH2 0x767 SWAP6 SWAP5 SWAP4 SWAP3 SWAP2 SWAP1 PUSH2 0x1F9F JUMP JUMPDEST PUSH1 0x0 PUSH1 0x40 MLOAD DUP1 DUP4 SUB DUP2 PUSH1 0x0 DUP8 GAS CALL ISZERO DUP1 ISZERO PUSH2 0x786 JUMPI RETURNDATASIZE PUSH1 0x0 DUP1 RETURNDATACOPY RETURNDATASIZE PUSH1 0x0 REVERT JUMPDEST POP POP POP POP PUSH1 0x40 MLOAD RETURNDATASIZE PUSH1 0x0 DUP3 RETURNDATACOPY RETURNDATASIZE PUSH1 0x1F NOT PUSH1 0x1F DUP3 ADD AND DUP3 ADD DUP1 PUSH1 0x40 MSTORE POP DUP2 ADD SWAP1 PUSH2 0x7AF SWAP2 SWAP1 PUSH2 0x2070 JUMP JUMPDEST SWAP1 POP CALLER PUSH1 0x1 PUSH1 0x0 DUP11 DUP2 MSTORE PUSH1 0x20 ADD SWAP1 DUP2 MSTORE PUSH1 0x20 ADD PUSH1 0x0 KECCAK256 PUSH1 0x4 ADD DUP3 PUSH1 0x40 MLOAD PUSH2 0x7D6 SWAP2 SWAP1 PUSH2 0x20EA JUMP JUMPDEST SWAP1 DUP2 MSTORE PUSH1 0x20 ADD PUSH1 0x40 MLOAD DUP1 SWAP2 SUB SWAP1 KECCAK256 PUSH1 0x0 PUSH2 0x100 EXP DUP2 SLOAD DUP2 PUSH20 0xFFFFFFFFFFFFFFFFFFFFFFFFFFFFFFFFFFFFFFFF MUL NOT AND SWAP1 DUP4 PUSH20 0xFFFFFFFFFFFFFFFFFFFFFFFFFFFFFFFFFFFFFFFF AND MUL OR SWAP1 SSTORE POP PUSH32 0x278D2DBF6177CB0A7393B373D86B3114EC53CDE7B0B841ED12144E6B057EB0F3 PUSH1 0x40 MLOAD PUSH1 0x40 MLOAD DUP1 SWAP2 SUB SWAP1 LOG1 DUP1 SWAP3 POP POP POP SWAP6 SWAP5 POP POP POP POP POP JUMP JUMPDEST DUP3 PUSH1 0x1 PUSH1 0x0 DUP3 DUP2 MSTORE PUSH1 0x20 ADD SWAP1 DUP2 MSTORE PUSH1 0x20 ADD PUSH1 0x0 KECCAK256 PUSH1 0x0 ADD PUSH1 0x0 SWAP1 SLOAD SWAP1 PUSH2 0x100 EXP SWAP1 DIV PUSH20 0xFFFFFFFFFFFFFFFFFFFFFFFFFFFFFFFFFFFFFFFF AND PUSH20 0xFFFFFFFFFFFFFFFFFFFFFFFFFFFFFFFFFFFFFFFF AND CALLER PUSH20 0xFFFFFFFFFFFFFFFFFFFFFFFFFFFFFFFFFFFFFFFF AND EQ PUSH2 0x901 JUMPI PUSH1 0x40 MLOAD PUSH32 0x8C379A000000000000000000000000000000000000000000000000000000000 DUP2 MSTORE PUSH1 0x4 ADD PUSH2 0x8F8 SWAP1 PUSH2 0x214D JUMP JUMPDEST PUSH1 0x40 MLOAD DUP1 SWAP2 SUB SWAP1 REVERT JUMPDEST DUP4 DUP4 PUSH1 0x1 PUSH1 0x0 DUP4 DUP2 MSTORE PUSH1 0x20 ADD SWAP1 DUP2 MSTORE PUSH1 0x20 ADD PUSH1 0x0 KECCAK256 PUSH1 0x2 ADD PUSH1 0x40 MLOAD PUSH2 0x926 SWAP2 SWAP1 PUSH2 0x193A JUMP JUMPDEST PUSH1 0x40 MLOAD DUP1 SWAP2 SUB SWAP1 KECCAK256 DUP2 PUSH1 0x40 MLOAD PUSH1 0x20 ADD PUSH2 0x93F SWAP2 SWAP1 PUSH2 0x199D JUMP JUMPDEST PUSH1 0x40 MLOAD PUSH1 0x20 DUP2 DUP4 SUB SUB DUP2 MSTORE SWAP1 PUSH1 0x40 MSTORE DUP1 MLOAD SWAP1 PUSH1 0x20 ADD KECCAK256 EQ PUSH2 0x995 JUMPI PUSH1 0x40 MLOAD PUSH32 0x8C379A000000000000000000000000000000000000000000000000000000000 DUP2 MSTORE PUSH1 0x4 ADD PUSH2 0x98C SWAP1 PUSH2 0x1A1E JUMP JUMPDEST PUSH1 0x40 MLOAD DUP1 SWAP2 SUB SWAP1 REVERT JUMPDEST DUP4 PUSH1 0x40 MLOAD PUSH1 0x20 ADD PUSH2 0x9A6 SWAP2 SWAP1 PUSH2 0x199D JUMP JUMPDEST PUSH1 0x40 MLOAD PUSH1 0x20 DUP2 DUP4 SUB SUB DUP2 MSTORE SWAP1 PUSH1 0x40 MSTORE PUSH1 0x1 PUSH1 0x0 DUP9 DUP2 MSTORE PUSH1 0x20 ADD SWAP1 DUP2 MSTORE PUSH1 0x20 ADD PUSH1 0x0 KECCAK256 PUSH1 0x2 ADD SWAP1 DUP2 PUSH2 0x9D7 SWAP2 SWAP1 PUSH2 0x1CC2 JUMP JUMPDEST POP POP POP POP POP POP POP JUMP JUMPDEST PUSH1 0x60 DUP6 PUSH1 0x0 PUSH1 0x1 PUSH1 0x0 DUP4 DUP2 MSTORE PUSH1 0x20 ADD SWAP1 DUP2 MSTORE PUSH1 0x20 ADD PUSH1 0x0 KECCAK256 PUSH1 0x3 ADD SLOAD GT PUSH2 0xA3C JUMPI PUSH1 0x40 MLOAD PUSH32 0x8C379A000000000000000000000000000000000000000000000000000000000 DUP2 MSTORE PUSH1 0x4 ADD PUSH2 0xA33 SWAP1 PUSH2 0x1F08 JUMP JUMPDEST PUSH1 0x40 MLOAD DUP1 SWAP2 SUB SWAP1 REVERT JUMPDEST DUP7 DUP7 PUSH1 0x1 PUSH1 0x0 DUP4 DUP2 MSTORE PUSH1 0x20 ADD SWAP1 DUP2 MSTORE PUSH1 0x20 ADD PUSH1 0x0 KECCAK256 PUSH1 0x2 ADD PUSH1 0x40 MLOAD PUSH2 0xA61 SWAP2 SWAP1 PUSH2 0x193A JUMP JUMPDEST PUSH1 0x40 MLOAD DUP1 SWAP2 SUB SWAP1 KECCAK256 DUP2 PUSH1 0x40 MLOAD PUSH1 0x20 ADD PUSH2 0xA7A SWAP2 SWAP1 PUSH2 0x199D JUMP JUMPDEST PUSH1 0x40 MLOAD PUSH1 0x20 DUP2 DUP4 SUB SUB DUP2 MSTORE SWAP1 PUSH1 0x40 MSTORE DUP1 MLOAD SWAP1 PUSH1 0x20 ADD KECCAK256 EQ PUSH2 0xAD0 JUMPI PUSH1 0x40 MLOAD PUSH32 0x8C379A000000000000000000000000000000000000000000000000000000000 DUP2 MSTORE PUSH1 0x4 ADD PUSH2 0xAC7 SWAP1 PUSH2 0x1A1E JUMP JUMPDEST PUSH1 0x40 MLOAD DUP1 SWAP2 SUB SWAP1 REVERT JUMPDEST PUSH1 0x0 DUP7 EQ PUSH2 0xE95 JUMPI PUSH1 0x0 PUSH1 0x1 PUSH1 0x0 DUP12 DUP2 MSTORE PUSH1 0x20 ADD SWAP1 DUP2 MSTORE PUSH1 0x20 ADD PUSH1 0x0 KECCAK256 PUSH1 0x5 ADD PUSH1 0x0 DUP8 DUP2 MSTORE PUSH1 0x20 ADD SWAP1 DUP2 MSTORE PUSH1 0x20 ADD PUSH1 0x0 KECCAK256 DUP1 SLOAD SWAP1 POP GT PUSH2 0xB45 JUMPI PUSH1 0x40 MLOAD PUSH32 0x8C379A000000000000000000000000000000000000000000000000000000000 DUP2 MSTORE PUSH1 0x4 ADD PUSH2 0xB3C SWAP1 PUSH2 0x21B9 JUMP JUMPDEST PUSH1 0x40 MLOAD DUP1 SWAP2 SUB SWAP1 REVERT JUMPDEST PUSH1 0x0 PUSH1 0x1 PUSH1 0x0 DUP12 DUP2 MSTORE PUSH1 0x20 ADD SWAP1 DUP2 MSTORE PUSH1 0x20 ADD PUSH1 0x0 KECCAK256 PUSH1 0x5 ADD PUSH1 0x0 DUP8 DUP2 MSTORE PUSH1 0x20 ADD SWAP1 DUP2 MSTORE PUSH1 0x20 ADD PUSH1 0x0 KECCAK256 DUP1 SLOAD DUP1 PUSH1 0x20 MUL PUSH1 0x20 ADD PUSH1 0x40 MLOAD SWAP1 DUP2 ADD PUSH1 0x40 MSTORE DUP1 SWAP3 SWAP2 SWAP1 DUP2 DUP2 MSTORE PUSH1 0x20 ADD PUSH1 0x0 SWAP1 JUMPDEST DUP3 DUP3 LT ISZERO PUSH2 0xD8A JUMPI DUP4 DUP3 SWAP1 PUSH1 0x0 MSTORE PUSH1 0x20 PUSH1 0x0 KECCAK256 SWAP1 PUSH1 0x5 MUL ADD PUSH1 0x40 MLOAD DUP1 PUSH1 0xA0 ADD PUSH1 0x40 MSTORE SWAP1 DUP2 PUSH1 0x0 DUP3 ADD SLOAD DUP2 MSTORE PUSH1 0x20 ADD PUSH1 0x1 DUP3 ADD SLOAD DUP2 MSTORE PUSH1 0x20 ADD PUSH1 0x2 DUP3 ADD DUP1 SLOAD PUSH2 0xBD5 SWAP1 PUSH2 0x1866 JUMP JUMPDEST DUP1 PUSH1 0x1F ADD PUSH1 0x20 DUP1 SWAP2 DIV MUL PUSH1 0x20 ADD PUSH1 0x40 MLOAD SWAP1 DUP2 ADD PUSH1 0x40 MSTORE DUP1 SWAP3 SWAP2 SWAP1 DUP2 DUP2 MSTORE PUSH1 0x20 ADD DUP3 DUP1 SLOAD PUSH2 0xC01 SWAP1 PUSH2 0x1866 JUMP JUMPDEST DUP1 ISZERO PUSH2 0xC4E JUMPI DUP1 PUSH1 0x1F LT PUSH2 0xC23 JUMPI PUSH2 0x100 DUP1 DUP4 SLOAD DIV MUL DUP4 MSTORE SWAP2 PUSH1 0x20 ADD SWAP2 PUSH2 0xC4E JUMP JUMPDEST DUP3 ADD SWAP2 SWAP1 PUSH1 0x0 MSTORE PUSH1 0x20 PUSH1 0x0 KECCAK256 SWAP1 JUMPDEST DUP2 SLOAD DUP2 MSTORE SWAP1 PUSH1 0x1 ADD SWAP1 PUSH1 0x20 ADD DUP1 DUP4 GT PUSH2 0xC31 JUMPI DUP3 SWAP1 SUB PUSH1 0x1F AND DUP3 ADD SWAP2 JUMPDEST POP POP POP POP POP DUP2 MSTORE PUSH1 0x20 ADD PUSH1 0x3 DUP3 ADD DUP1 SLOAD PUSH2 0xC67 SWAP1 PUSH2 0x1866 JUMP JUMPDEST DUP1 PUSH1 0x1F ADD PUSH1 0x20 DUP1 SWAP2 DIV MUL PUSH1 0x20 ADD PUSH1 0x40 MLOAD SWAP1 DUP2 ADD PUSH1 0x40 MSTORE DUP1 SWAP3 SWAP2 SWAP1 DUP2 DUP2 MSTORE PUSH1 0x20 ADD DUP3 DUP1 SLOAD PUSH2 0xC93 SWAP1 PUSH2 0x1866 JUMP JUMPDEST DUP1 ISZERO PUSH2 0xCE0 JUMPI DUP1 PUSH1 0x1F LT PUSH2 0xCB5 JUMPI PUSH2 0x100 DUP1 DUP4 SLOAD DIV MUL DUP4 MSTORE SWAP2 PUSH1 0x20 ADD SWAP2 PUSH2 0xCE0 JUMP JUMPDEST DUP3 ADD SWAP2 SWAP1 PUSH1 0x0 MSTORE PUSH1 0x20 PUSH1 0x0 KECCAK256 SWAP1 JUMPDEST DUP2 SLOAD DUP2 MSTORE SWAP1 PUSH1 0x1 ADD SWAP1 PUSH1 0x20 ADD DUP1 DUP4 GT PUSH2 0xCC3 JUMPI DUP3 SWAP1 SUB PUSH1 0x1F AND DUP3 ADD SWAP2 JUMPDEST POP POP POP POP POP DUP2 MSTORE PUSH1 0x20 ADD PUSH1 0x4 DUP3 ADD DUP1 SLOAD PUSH2 0xCF9 SWAP1 PUSH2 0x1866 JUMP JUMPDEST DUP1 PUSH1 0x1F ADD PUSH1 0x20 DUP1 SWAP2 DIV MUL PUSH1 0x20 ADD PUSH1 0x40 MLOAD SWAP1 DUP2 ADD PUSH1 0x40 MSTORE DUP1 SWAP3 SWAP2 SWAP1 DUP2 DUP2 MSTORE PUSH1 0x20 ADD DUP3 DUP1 SLOAD PUSH2 0xD25 SWAP1 PUSH2 0x1866 JUMP JUMPDEST DUP1 ISZERO PUSH2 0xD72 JUMPI DUP1 PUSH1 0x1F LT PUSH2 0xD47 JUMPI PUSH2 0x100 DUP1 DUP4 SLOAD DIV MUL DUP4 MSTORE SWAP2 PUSH1 0x20 ADD SWAP2 PUSH2 0xD72 JUMP JUMPDEST DUP3 ADD SWAP2 SWAP1 PUSH1 0x0 MSTORE PUSH1 0x20 PUSH1 0x0 KECCAK256 SWAP1 JUMPDEST DUP2 SLOAD DUP2 MSTORE SWAP1 PUSH1 0x1 ADD SWAP1 PUSH1 0x20 ADD DUP1 DUP4 GT PUSH2 0xD55 JUMPI DUP3 SWAP1 SUB PUSH1 0x1F AND DUP3 ADD SWAP2 JUMPDEST POP POP POP POP POP DUP2 MSTORE POP POP DUP2 MSTORE PUSH1 0x20 ADD SWAP1 PUSH1 0x1 ADD SWAP1 PUSH2 0xB8E JUMP JUMPDEST POP POP POP POP SWAP1 POP PUSH1 0x0 DUP2 MLOAD SWAP1 POP PUSH1 0x0 DUP1 DUP1 PUSH1 0x0 SWAP1 POP JUMPDEST DUP4 DUP2 LT ISZERO PUSH2 0xDE7 JUMPI DUP11 DUP6 DUP3 DUP2 MLOAD DUP2 LT PUSH2 0xDBB JUMPI PUSH2 0xDBA PUSH2 0x21D9 JUMP JUMPDEST JUMPDEST PUSH1 0x20 MUL PUSH1 0x20 ADD ADD MLOAD PUSH1 0x0 ADD MLOAD SUB PUSH2 0xDD4 JUMPI DUP1 SWAP2 POP PUSH1 0x1 SWAP3 POP JUMPDEST DUP1 DUP1 PUSH2 0xDDF SWAP1 PUSH2 0x1E74 JUMP JUMPDEST SWAP2 POP POP PUSH2 0xD9F JUMP JUMPDEST POP PUSH1 0x1 ISZERO ISZERO DUP3 ISZERO ISZERO EQ PUSH2 0xE2F JUMPI PUSH1 0x40 MLOAD PUSH32 0x8C379A000000000000000000000000000000000000000000000000000000000 DUP2 MSTORE PUSH1 0x4 ADD PUSH2 0xE26 SWAP1 PUSH2 0x2254 JUMP JUMPDEST PUSH1 0x40 MLOAD DUP1 SWAP2 SUB SWAP1 REVERT JUMPDEST DUP2 ISZERO PUSH2 0xE90 JUMPI DUP11 DUP5 DUP3 DUP2 MLOAD DUP2 LT PUSH2 0xE49 JUMPI PUSH2 0xE48 PUSH2 0x21D9 JUMP JUMPDEST JUMPDEST PUSH1 0x20 MUL PUSH1 0x20 ADD ADD MLOAD PUSH1 0x80 ADD DUP2 SWAP1 MSTORE POP PUSH32 0xC01A711A994234663E49BCAF267235941EF164AC0DEA30DE367E8CDB0EEABD5A DUP11 PUSH1 0x40 MLOAD PUSH2 0xE87 SWAP2 SWAP1 PUSH2 0x1319 JUMP JUMPDEST PUSH1 0x40 MLOAD DUP1 SWAP2 SUB SWAP1 LOG1 JUMPDEST POP POP POP POP JUMPDEST POP POP POP SWAP6 SWAP5 POP POP POP POP POP JUMP JUMPDEST PUSH1 0x60 DUP3 PUSH1 0x1 PUSH1 0x0 DUP3 DUP2 MSTORE PUSH1 0x20 ADD SWAP1 DUP2 MSTORE PUSH1 0x20 ADD PUSH1 0x0 KECCAK256 PUSH1 0x0 ADD PUSH1 0x0 SWAP1 SLOAD SWAP1 PUSH2 0x100 EXP SWAP1 DIV PUSH20 0xFFFFFFFFFFFFFFFFFFFFFFFFFFFFFFFFFFFFFFFF AND PUSH20 0xFFFFFFFFFFFFFFFFFFFFFFFFFFFFFFFFFFFFFFFF AND CALLER PUSH20 0xFFFFFFFFFFFFFFFFFFFFFFFFFFFFFFFFFFFFFFFF AND EQ PUSH2 0xF48 JUMPI PUSH1 0x40 MLOAD PUSH32 0x8C379A000000000000000000000000000000000000000000000000000000000 DUP2 MSTORE PUSH1 0x4 ADD PUSH2 0xF3F SWAP1 PUSH2 0x214D JUMP JUMPDEST PUSH1 0x40 MLOAD DUP1 SWAP2 SUB SWAP1 REVERT JUMPDEST PUSH1 0x0 DUP1 PUSH1 0x1 PUSH1 0x0 DUP8 DUP2 MSTORE PUSH1 0x20 ADD SWAP1 DUP2 MSTORE PUSH1 0x20 ADD PUSH1 0x0 KECCAK256 PUSH1 0x2 ADD DUP1 SLOAD PUSH2 0xF6C SWAP1 PUSH2 0x1866 JUMP JUMPDEST DUP1 PUSH1 0x1F ADD PUSH1 0x20 DUP1 SWAP2 DIV MUL PUSH1 0x20 ADD PUSH1 0x40 MLOAD SWAP1 DUP2 ADD PUSH1 0x40 MSTORE DUP1 SWAP3 SWAP2 SWAP1 DUP2 DUP2 MSTORE PUSH1 0x20 ADD DUP3 DUP1 SLOAD PUSH2 0xF98 SWAP1 PUSH2 0x1866 JUMP JUMPDEST DUP1 ISZERO PUSH2 0xFE5 JUMPI DUP1 PUSH1 0x1F LT PUSH2 0xFBA JUMPI PUSH2 0x100 DUP1 DUP4 SLOAD DIV MUL DUP4 MSTORE SWAP2 PUSH1 0x20 ADD SWAP2 PUSH2 0xFE5 JUMP JUMPDEST DUP3 ADD SWAP2 SWAP1 PUSH1 0x0 MSTORE PUSH1 0x20 PUSH1 0x0 KECCAK256 SWAP1 JUMPDEST DUP2 SLOAD DUP2 MSTORE SWAP1 PUSH1 0x1 ADD SWAP1 PUSH1 0x20 ADD DUP1 DUP4 GT PUSH2 0xFC8 JUMPI DUP3 SWAP1 SUB PUSH1 0x1F AND DUP3 ADD SWAP2 JUMPDEST POP POP POP POP POP DUP1 PUSH1 0x20 ADD SWAP1 MLOAD DUP2 ADD SWAP1 PUSH2 0xFFD SWAP2 SWAP1 PUSH2 0x22E4 JUMP JUMPDEST SWAP2 POP SWAP2 POP DUP2 SWAP4 POP POP POP POP SWAP3 SWAP2 POP POP JUMP JUMPDEST PUSH1 0x0 PUSH1 0x40 MLOAD SWAP1 POP SWAP1 JUMP JUMPDEST PUSH1 0x0 DUP1 REVERT JUMPDEST PUSH1 0x0 DUP1 REVERT JUMPDEST PUSH1 0x0 DUP2 SWAP1 POP SWAP2 SWAP1 POP JUMP JUMPDEST PUSH2 0x1034 DUP2 PUSH2 0x1021 JUMP JUMPDEST DUP2 EQ PUSH2 0x103F JUMPI PUSH1 0x0 DUP1 REVERT JUMPDEST POP JUMP JUMPDEST PUSH1 0x0 DUP2 CALLDATALOAD SWAP1 POP PUSH2 0x1051 DUP2 PUSH2 0x102B JUMP JUMPDEST SWAP3 SWAP2 POP POP JUMP JUMPDEST PUSH1 0x0 PUSH1 0x20 DUP3 DUP5 SUB SLT ISZERO PUSH2 0x106D JUMPI PUSH2 0x106C PUSH2 0x1017 JUMP JUMPDEST JUMPDEST PUSH1 0x0 PUSH2 0x107B DUP5 DUP3 DUP6 ADD PUSH2 0x1042 JUMP JUMPDEST SWAP2 POP POP SWAP3 SWAP2 POP POP JUMP JUMPDEST PUSH1 0x0 PUSH20 0xFFFFFFFFFFFFFFFFFFFFFFFFFFFFFFFFFFFFFFFF DUP3 AND SWAP1 POP SWAP2 SWAP1 POP JUMP JUMPDEST PUSH1 0x0 PUSH2 0x10AF DUP3 PUSH2 0x1084 JUMP JUMPDEST SWAP1 POP SWAP2 SWAP1 POP JUMP JUMPDEST PUSH2 0x10BF DUP2 PUSH2 0x10A4 JUMP JUMPDEST DUP3 MSTORE POP POP JUMP JUMPDEST PUSH1 0x0 PUSH1 0x20 DUP3 ADD SWAP1 POP PUSH2 0x10DA PUSH1 0x0 DUP4 ADD DUP5 PUSH2 0x10B6 JUMP JUMPDEST SWAP3 SWAP2 POP POP JUMP JUMPDEST PUSH1 0x0 DUP1 REVERT JUMPDEST PUSH1 0x0 DUP1 REVERT JUMPDEST PUSH1 0x0 PUSH1 0x1F NOT PUSH1 0x1F DUP4 ADD AND SWAP1 POP SWAP2 SWAP1 POP JUMP JUMPDEST PUSH32 0x4E487B7100000000000000000000000000000000000000000000000000000000 PUSH1 0x0 MSTORE PUSH1 0x41 PUSH1 0x4 MSTORE PUSH1 0x24 PUSH1 0x0 REVERT JUMPDEST PUSH2 0x1133 DUP3 PUSH2 0x10EA JUMP JUMPDEST DUP2 ADD DUP2 DUP2 LT PUSH8 0xFFFFFFFFFFFFFFFF DUP3 GT OR ISZERO PUSH2 0x1152 JUMPI PUSH2 0x1151 PUSH2 0x10FB JUMP JUMPDEST JUMPDEST DUP1 PUSH1 0x40 MSTORE POP POP POP JUMP JUMPDEST PUSH1 0x0 PUSH2 0x1165 PUSH2 0x100D JUMP JUMPDEST SWAP1 POP PUSH2 0x1171 DUP3 DUP3 PUSH2 0x112A JUMP JUMPDEST SWAP2 SWAP1 POP JUMP JUMPDEST PUSH1 0x0 PUSH8 0xFFFFFFFFFFFFFFFF DUP3 GT ISZERO PUSH2 0x1191 JUMPI PUSH2 0x1190 PUSH2 0x10FB JUMP JUMPDEST JUMPDEST PUSH2 0x119A DUP3 PUSH2 0x10EA JUMP JUMPDEST SWAP1 POP PUSH1 0x20 DUP2 ADD SWAP1 POP SWAP2 SWAP1 POP JUMP JUMPDEST DUP3 DUP2 DUP4 CALLDATACOPY PUSH1 0x0 DUP4 DUP4 ADD MSTORE POP POP POP JUMP JUMPDEST PUSH1 0x0 PUSH2 0x11C9 PUSH2 0x11C4 DUP5 PUSH2 0x1176 JUMP JUMPDEST PUSH2 0x115B JUMP JUMPDEST SWAP1 POP DUP3 DUP2 MSTORE PUSH1 0x20 DUP2 ADD DUP5 DUP5 DUP5 ADD GT ISZERO PUSH2 0x11E5 JUMPI PUSH2 0x11E4 PUSH2 0x10E5 JUMP JUMPDEST JUMPDEST PUSH2 0x11F0 DUP5 DUP3 DUP6 PUSH2 0x11A7 JUMP JUMPDEST POP SWAP4 SWAP3 POP POP POP JUMP JUMPDEST PUSH1 0x0 DUP3 PUSH1 0x1F DUP4 ADD SLT PUSH2 0x120D JUMPI PUSH2 0x120C PUSH2 0x10E0 JUMP JUMPDEST JUMPDEST DUP2 CALLDATALOAD PUSH2 0x121D DUP5 DUP3 PUSH1 0x20 DUP7 ADD PUSH2 0x11B6 JUMP JUMPDEST SWAP2 POP POP SWAP3 SWAP2 POP POP JUMP JUMPDEST PUSH1 0x0 DUP1 PUSH1 0x0 PUSH1 0x60 DUP5 DUP7 SUB SLT ISZERO PUSH2 0x123F JUMPI PUSH2 0x123E PUSH2 0x1017 JUMP JUMPDEST JUMPDEST PUSH1 0x0 PUSH2 0x124D DUP7 DUP3 DUP8 ADD PUSH2 0x1042 JUMP JUMPDEST SWAP4 POP POP PUSH1 0x20 DUP5 ADD CALLDATALOAD PUSH8 0xFFFFFFFFFFFFFFFF DUP2 GT ISZERO PUSH2 0x126E JUMPI PUSH2 0x126D PUSH2 0x101C JUMP JUMPDEST JUMPDEST PUSH2 0x127A DUP7 DUP3 DUP8 ADD PUSH2 0x11F8 JUMP JUMPDEST SWAP3 POP POP PUSH1 0x40 DUP5 ADD CALLDATALOAD PUSH8 0xFFFFFFFFFFFFFFFF DUP2 GT ISZERO PUSH2 0x129B JUMPI PUSH2 0x129A PUSH2 0x101C JUMP JUMPDEST JUMPDEST PUSH2 0x12A7 DUP7 DUP3 DUP8 ADD PUSH2 0x11F8 JUMP JUMPDEST SWAP2 POP POP SWAP3 POP SWAP3 POP SWAP3 JUMP JUMPDEST PUSH2 0x12BA DUP2 PUSH2 0x10A4 JUMP JUMPDEST DUP2 EQ PUSH2 0x12C5 JUMPI PUSH1 0x0 DUP1 REVERT JUMPDEST POP JUMP JUMPDEST PUSH1 0x0 DUP2 CALLDATALOAD SWAP1 POP PUSH2 0x12D7 DUP2 PUSH2 0x12B1 JUMP JUMPDEST SWAP3 SWAP2 POP POP JUMP JUMPDEST PUSH1 0x0 PUSH1 0x20 DUP3 DUP5 SUB SLT ISZERO PUSH2 0x12F3 JUMPI PUSH2 0x12F2 PUSH2 0x1017 JUMP JUMPDEST JUMPDEST PUSH1 0x0 PUSH2 0x1301 DUP5 DUP3 DUP6 ADD PUSH2 0x12C8 JUMP JUMPDEST SWAP2 POP POP SWAP3 SWAP2 POP POP JUMP JUMPDEST PUSH2 0x1313 DUP2 PUSH2 0x1021 JUMP JUMPDEST DUP3 MSTORE POP POP JUMP JUMPDEST PUSH1 0x0 PUSH1 0x20 DUP3 ADD SWAP1 POP PUSH2 0x132E PUSH1 0x0 DUP4 ADD DUP5 PUSH2 0x130A JUMP JUMPDEST SWAP3 SWAP2 POP POP JUMP JUMPDEST PUSH1 0x0 DUP1 PUSH1 0x0 DUP1 PUSH1 0x0 PUSH1 0xA0 DUP7 DUP9 SUB SLT ISZERO PUSH2 0x1350 JUMPI PUSH2 0x134F PUSH2 0x1017 JUMP JUMPDEST JUMPDEST PUSH1 0x0 DUP7 ADD CALLDATALOAD PUSH8 0xFFFFFFFFFFFFFFFF DUP2 GT ISZERO PUSH2 0x136E JUMPI PUSH2 0x136D PUSH2 0x101C JUMP JUMPDEST JUMPDEST PUSH2 0x137A DUP9 DUP3 DUP10 ADD PUSH2 0x11F8 JUMP JUMPDEST SWAP6 POP POP PUSH1 0x20 DUP7 ADD CALLDATALOAD PUSH8 0xFFFFFFFFFFFFFFFF DUP2 GT ISZERO PUSH2 0x139B JUMPI PUSH2 0x139A PUSH2 0x101C JUMP JUMPDEST JUMPDEST PUSH2 0x13A7 DUP9 DUP3 DUP10 ADD PUSH2 0x11F8 JUMP JUMPDEST SWAP5 POP POP PUSH1 0x40 DUP7 ADD CALLDATALOAD PUSH8 0xFFFFFFFFFFFFFFFF DUP2 GT ISZERO PUSH2 0x13C8 JUMPI PUSH2 0x13C7 PUSH2 0x101C JUMP JUMPDEST JUMPDEST PUSH2 0x13D4 DUP9 DUP3 DUP10 ADD PUSH2 0x11F8 JUMP JUMPDEST SWAP4 POP POP PUSH1 0x60 PUSH2 0x13E5 DUP9 DUP3 DUP10 ADD PUSH2 0x1042 JUMP JUMPDEST SWAP3 POP POP PUSH1 0x80 DUP7 ADD CALLDATALOAD PUSH8 0xFFFFFFFFFFFFFFFF DUP2 GT ISZERO PUSH2 0x1406 JUMPI PUSH2 0x1405 PUSH2 0x101C JUMP JUMPDEST JUMPDEST PUSH2 0x1412 DUP9 DUP3 DUP10 ADD PUSH2 0x11F8 JUMP JUMPDEST SWAP2 POP POP SWAP3 SWAP6 POP SWAP3 SWAP6 SWAP1 SWAP4 POP JUMP JUMPDEST PUSH1 0x0 DUP1 PUSH1 0x40 DUP4 DUP6 SUB SLT ISZERO PUSH2 0x1436 JUMPI PUSH2 0x1435 PUSH2 0x1017 JUMP JUMPDEST JUMPDEST PUSH1 0x0 DUP4 ADD CALLDATALOAD PUSH8 0xFFFFFFFFFFFFFFFF DUP2 GT ISZERO PUSH2 0x1454 JUMPI PUSH2 0x1453 PUSH2 0x101C JUMP JUMPDEST JUMPDEST PUSH2 0x1460 DUP6 DUP3 DUP7 ADD PUSH2 0x11F8 JUMP JUMPDEST SWAP3 POP POP PUSH1 0x20 DUP4 ADD CALLDATALOAD PUSH8 0xFFFFFFFFFFFFFFFF DUP2 GT ISZERO PUSH2 0x1481 JUMPI PUSH2 0x1480 PUSH2 0x101C JUMP JUMPDEST JUMPDEST PUSH2 0x148D DUP6 DUP3 DUP7 ADD PUSH2 0x11F8 JUMP JUMPDEST SWAP2 POP POP SWAP3 POP SWAP3 SWAP1 POP JUMP JUMPDEST PUSH1 0x3 DUP2 LT PUSH2 0x14A4 JUMPI PUSH1 0x0 DUP1 REVERT JUMPDEST POP JUMP JUMPDEST PUSH1 0x0 DUP2 CALLDATALOAD SWAP1 POP PUSH2 0x14B6 DUP2 PUSH2 0x1497 JUMP JUMPDEST SWAP3 SWAP2 POP POP JUMP JUMPDEST PUSH1 0x0 DUP1 PUSH1 0x0 DUP1 PUSH1 0x0 PUSH1 0xA0 DUP7 DUP9 SUB SLT ISZERO PUSH2 0x14D8 JUMPI PUSH2 0x14D7 PUSH2 0x1017 JUMP JUMPDEST JUMPDEST PUSH1 0x0 PUSH2 0x14E6 DUP9 DUP3 DUP10 ADD PUSH2 0x1042 JUMP JUMPDEST SWAP6 POP POP PUSH1 0x20 PUSH2 0x14F7 DUP9 DUP3 DUP10 ADD PUSH2 0x1042 JUMP JUMPDEST SWAP5 POP POP PUSH1 0x40 PUSH2 0x1508 DUP9 DUP3 DUP10 ADD PUSH2 0x14A7 JUMP JUMPDEST SWAP4 POP POP PUSH1 0x60 DUP7 ADD CALLDATALOAD PUSH8 0xFFFFFFFFFFFFFFFF DUP2 GT ISZERO PUSH2 0x1529 JUMPI PUSH2 0x1528 PUSH2 0x101C JUMP JUMPDEST JUMPDEST PUSH2 0x1535 DUP9 DUP3 DUP10 ADD PUSH2 0x11F8 JUMP JUMPDEST SWAP3 POP POP PUSH1 0x80 DUP7 ADD CALLDATALOAD PUSH8 0xFFFFFFFFFFFFFFFF DUP2 GT ISZERO PUSH2 0x1556 JUMPI PUSH2 0x1555 PUSH2 0x101C JUMP JUMPDEST JUMPDEST PUSH2 0x1562 DUP9 DUP3 DUP10 ADD PUSH2 0x11F8 JUMP JUMPDEST SWAP2 POP POP SWAP3 SWAP6 POP SWAP3 SWAP6 SWAP1 SWAP4 POP JUMP JUMPDEST PUSH1 0x0 DUP2 MLOAD SWAP1 POP SWAP2 SWAP1 POP JUMP JUMPDEST PUSH1 0x0 DUP3 DUP3 MSTORE PUSH1 0x20 DUP3 ADD SWAP1 POP SWAP3 SWAP2 POP POP JUMP JUMPDEST PUSH1 0x0 JUMPDEST DUP4 DUP2 LT ISZERO PUSH2 0x15A9 JUMPI DUP1 DUP3 ADD MLOAD DUP2 DUP5 ADD MSTORE PUSH1 0x20 DUP2 ADD SWAP1 POP PUSH2 0x158E JUMP JUMPDEST PUSH1 0x0 DUP5 DUP5 ADD MSTORE POP POP POP POP JUMP JUMPDEST PUSH1 0x0 PUSH2 0x15C0 DUP3 PUSH2 0x156F JUMP JUMPDEST PUSH2 0x15CA DUP2 DUP6 PUSH2 0x157A JUMP JUMPDEST SWAP4 POP PUSH2 0x15DA DUP2 DUP6 PUSH1 0x20 DUP7 ADD PUSH2 0x158B JUMP JUMPDEST PUSH2 0x15E3 DUP2 PUSH2 0x10EA JUMP JUMPDEST DUP5 ADD SWAP2 POP POP SWAP3 SWAP2 POP POP JUMP JUMPDEST PUSH1 0x0 PUSH1 0x20 DUP3 ADD SWAP1 POP DUP2 DUP2 SUB PUSH1 0x0 DUP4 ADD MSTORE PUSH2 0x1608 DUP2 DUP5 PUSH2 0x15B5 JUMP JUMPDEST SWAP1 POP SWAP3 SWAP2 POP POP JUMP JUMPDEST PUSH1 0x0 PUSH8 0xFFFFFFFFFFFFFFFF DUP3 GT ISZERO PUSH2 0x162B JUMPI PUSH2 0x162A PUSH2 0x10FB JUMP JUMPDEST JUMPDEST PUSH2 0x1634 DUP3 PUSH2 0x10EA JUMP JUMPDEST SWAP1 POP PUSH1 0x20 DUP2 ADD SWAP1 POP SWAP2 SWAP1 POP JUMP JUMPDEST PUSH1 0x0 PUSH2 0x1654 PUSH2 0x164F DUP5 PUSH2 0x1610 JUMP JUMPDEST PUSH2 0x115B JUMP JUMPDEST SWAP1 POP DUP3 DUP2 MSTORE PUSH1 0x20 DUP2 ADD DUP5 DUP5 DUP5 ADD GT ISZERO PUSH2 0x1670 JUMPI PUSH2 0x166F PUSH2 0x10E5 JUMP JUMPDEST JUMPDEST PUSH2 0x167B DUP5 DUP3 DUP6 PUSH2 0x11A7 JUMP JUMPDEST POP SWAP4 SWAP3 POP POP POP JUMP JUMPDEST PUSH1 0x0 DUP3 PUSH1 0x1F DUP4 ADD SLT PUSH2 0x1698 JUMPI PUSH2 0x1697 PUSH2 0x10E0 JUMP JUMPDEST JUMPDEST DUP2 CALLDATALOAD PUSH2 0x16A8 DUP5 DUP3 PUSH1 0x20 DUP7 ADD PUSH2 0x1641 JUMP JUMPDEST SWAP2 POP POP SWAP3 SWAP2 POP POP JUMP JUMPDEST PUSH1 0x0 DUP1 PUSH1 0x0 DUP1 PUSH1 0x0 PUSH1 0xA0 DUP7 DUP9 SUB SLT ISZERO PUSH2 0x16CD JUMPI PUSH2 0x16CC PUSH2 0x1017 JUMP JUMPDEST JUMPDEST PUSH1 0x0 PUSH2 0x16DB DUP9 DUP3 DUP10 ADD PUSH2 0x1042 JUMP JUMPDEST SWAP6 POP POP PUSH1 0x20 DUP7 ADD CALLDATALOAD PUSH8 0xFFFFFFFFFFFFFFFF DUP2 GT ISZERO PUSH2 0x16FC JUMPI PUSH2 0x16FB PUSH2 0x101C JUMP JUMPDEST JUMPDEST PUSH2 0x1708 DUP9 DUP3 DUP10 ADD PUSH2 0x11F8 JUMP JUMPDEST SWAP5 POP POP PUSH1 0x40 DUP7 ADD CALLDATALOAD PUSH8 0xFFFFFFFFFFFFFFFF DUP2 GT ISZERO PUSH2 0x1729 JUMPI PUSH2 0x1728 PUSH2 0x101C JUMP JUMPDEST JUMPDEST PUSH2 0x1735 DUP9 DUP3 DUP10 ADD PUSH2 0x1683 JUMP JUMPDEST SWAP4 POP POP PUSH1 0x60 PUSH2 0x1746 DUP9 DUP3 DUP10 ADD PUSH2 0x1042 JUMP JUMPDEST SWAP3 POP POP PUSH1 0x80 PUSH2 0x1757 DUP9 DUP3 DUP10 ADD PUSH2 0x1042 JUMP JUMPDEST SWAP2 POP POP SWAP3 SWAP6 POP SWAP3 SWAP6 SWAP1 SWAP4 POP JUMP JUMPDEST PUSH1 0x0 DUP1 PUSH1 0x40 DUP4 DUP6 SUB SLT ISZERO PUSH2 0x177B JUMPI PUSH2 0x177A PUSH2 0x1017 JUMP JUMPDEST JUMPDEST PUSH1 0x0 PUSH2 0x1789 DUP6 DUP3 DUP7 ADD PUSH2 0x1042 JUMP JUMPDEST SWAP3 POP POP PUSH1 0x20 DUP4 ADD CALLDATALOAD PUSH8 0xFFFFFFFFFFFFFFFF DUP2 GT ISZERO PUSH2 0x17AA JUMPI PUSH2 0x17A9 PUSH2 0x101C JUMP JUMPDEST JUMPDEST PUSH2 0x17B6 DUP6 DUP3 DUP7 ADD PUSH2 0x11F8 JUMP JUMPDEST SWAP2 POP POP SWAP3 POP SWAP3 SWAP1 POP JUMP JUMPDEST PUSH1 0x0 DUP2 MLOAD SWAP1 POP SWAP2 SWAP1 POP JUMP JUMPDEST PUSH1 0x0 DUP3 DUP3 MSTORE PUSH1 0x20 DUP3 ADD SWAP1 POP SWAP3 SWAP2 POP POP JUMP JUMPDEST PUSH1 0x0 PUSH2 0x17E7 DUP3 PUSH2 0x17C0 JUMP JUMPDEST PUSH2 0x17F1 DUP2 DUP6 PUSH2 0x17CB JUMP JUMPDEST SWAP4 POP PUSH2 0x1801 DUP2 DUP6 PUSH1 0x20 DUP7 ADD PUSH2 0x158B JUMP JUMPDEST PUSH2 0x180A DUP2 PUSH2 0x10EA JUMP JUMPDEST DUP5 ADD SWAP2 POP POP SWAP3 SWAP2 POP POP JUMP JUMPDEST PUSH1 0x0 PUSH1 0x20 DUP3 ADD SWAP1 POP DUP2 DUP2 SUB PUSH1 0x0 DUP4 ADD MSTORE PUSH2 0x182F DUP2 DUP5 PUSH2 0x17DC JUMP JUMPDEST SWAP1 POP SWAP3 SWAP2 POP POP JUMP JUMPDEST PUSH32 0x4E487B7100000000000000000000000000000000000000000000000000000000 PUSH1 0x0 MSTORE PUSH1 0x22 PUSH1 0x4 MSTORE PUSH1 0x24 PUSH1 0x0 REVERT JUMPDEST PUSH1 0x0 PUSH1 0x2 DUP3 DIV SWAP1 POP PUSH1 0x1 DUP3 AND DUP1 PUSH2 0x187E JUMPI PUSH1 0x7F DUP3 AND SWAP2 POP JUMPDEST PUSH1 0x20 DUP3 LT DUP2 SUB PUSH2 0x1891 JUMPI PUSH2 0x1890 PUSH2 0x1837 JUMP JUMPDEST JUMPDEST POP SWAP2 SWAP1 POP JUMP JUMPDEST PUSH1 0x0 DUP2 SWAP1 POP SWAP3 SWAP2 POP POP JUMP JUMPDEST PUSH1 0x0 DUP2 SWAP1 POP DUP2 PUSH1 0x0 MSTORE PUSH1 0x20 PUSH1 0x0 KECCAK256 SWAP1 POP SWAP2 SWAP1 POP JUMP JUMPDEST PUSH1 0x0 DUP2 SLOAD PUSH2 0x18C4 DUP2 PUSH2 0x1866 JUMP JUMPDEST PUSH2 0x18CE DUP2 DUP7 PUSH2 0x1897 JUMP JUMPDEST SWAP5 POP PUSH1 0x1 DUP3 AND PUSH1 0x0 DUP2 EQ PUSH2 0x18E9 JUMPI PUSH1 0x1 DUP2 EQ PUSH2 0x18FE JUMPI PUSH2 0x1931 JUMP JUMPDEST PUSH1 0xFF NOT DUP4 AND DUP7 MSTORE DUP2 ISZERO ISZERO DUP3 MUL DUP7 ADD SWAP4 POP PUSH2 0x1931 JUMP JUMPDEST PUSH2 0x1907 DUP6 PUSH2 0x18A2 JUMP JUMPDEST PUSH1 0x0 JUMPDEST DUP4 DUP2 LT ISZERO PUSH2 0x1929 JUMPI DUP2 SLOAD DUP2 DUP10 ADD MSTORE PUSH1 0x1 DUP3 ADD SWAP2 POP PUSH1 0x20 DUP2 ADD SWAP1 POP PUSH2 0x190A JUMP JUMPDEST DUP4 DUP9 ADD SWAP6 POP POP POP JUMPDEST POP POP POP SWAP3 SWAP2 POP POP JUMP JUMPDEST PUSH1 0x0 PUSH2 0x1946 DUP3 DUP5 PUSH2 0x18B7 JUMP JUMPDEST SWAP2 POP DUP2 SWAP1 POP SWAP3 SWAP2 POP POP JUMP JUMPDEST PUSH32 0x70617373776F7264000000000000000000000000000000000000000000000000 PUSH1 0x0 DUP3 ADD MSTORE POP JUMP JUMPDEST PUSH1 0x0 PUSH2 0x1987 PUSH1 0x8 DUP4 PUSH2 0x17CB JUMP JUMPDEST SWAP2 POP PUSH2 0x1992 DUP3 PUSH2 0x1951 JUMP JUMPDEST PUSH1 0x20 DUP3 ADD SWAP1 POP SWAP2 SWAP1 POP JUMP JUMPDEST PUSH1 0x0 PUSH1 0x40 DUP3 ADD SWAP1 POP DUP2 DUP2 SUB PUSH1 0x0 DUP4 ADD MSTORE PUSH2 0x19B7 DUP2 DUP5 PUSH2 0x17DC JUMP JUMPDEST SWAP1 POP DUP2 DUP2 SUB PUSH1 0x20 DUP4 ADD MSTORE PUSH2 0x19CA DUP2 PUSH2 0x197A JUMP JUMPDEST SWAP1 POP SWAP3 SWAP2 POP POP JUMP JUMPDEST PUSH32 0x57726F6E672070617373776F7264210000000000000000000000000000000000 PUSH1 0x0 DUP3 ADD MSTORE POP JUMP JUMPDEST PUSH1 0x0 PUSH2 0x1A08 PUSH1 0xF DUP4 PUSH2 0x17CB JUMP JUMPDEST SWAP2 POP PUSH2 0x1A13 DUP3 PUSH2 0x19D2 JUMP JUMPDEST PUSH1 0x20 DUP3 ADD SWAP1 POP SWAP2 SWAP1 POP JUMP JUMPDEST PUSH1 0x0 PUSH1 0x20 DUP3 ADD SWAP1 POP DUP2 DUP2 SUB PUSH1 0x0 DUP4 ADD MSTORE PUSH2 0x1A37 DUP2 PUSH2 0x19FB JUMP JUMPDEST SWAP1 POP SWAP2 SWAP1 POP JUMP JUMPDEST PUSH32 0x696E76616C6964204E524943206E756D62657200000000000000000000000000 PUSH1 0x0 DUP3 ADD MSTORE POP JUMP JUMPDEST PUSH1 0x0 PUSH2 0x1A74 PUSH1 0x13 DUP4 PUSH2 0x17CB JUMP JUMPDEST SWAP2 POP PUSH2 0x1A7F DUP3 PUSH2 0x1A3E JUMP JUMPDEST PUSH1 0x20 DUP3 ADD SWAP1 POP SWAP2 SWAP1 POP JUMP JUMPDEST PUSH1 0x0 PUSH1 0x20 DUP3 ADD SWAP1 POP DUP2 DUP2 SUB PUSH1 0x0 DUP4 ADD MSTORE PUSH2 0x1AA3 DUP2 PUSH2 0x1A67 JUMP JUMPDEST SWAP1 POP SWAP2 SWAP1 POP JUMP JUMPDEST PUSH32 0x6963000000000000000000000000000000000000000000000000000000000000 PUSH1 0x0 DUP3 ADD MSTORE POP JUMP JUMPDEST PUSH1 0x0 PUSH2 0x1AE0 PUSH1 0x2 DUP4 PUSH2 0x17CB JUMP JUMPDEST SWAP2 POP PUSH2 0x1AEB DUP3 PUSH2 0x1AAA JUMP JUMPDEST PUSH1 0x20 DUP3 ADD SWAP1 POP SWAP2 SWAP1 POP JUMP JUMPDEST PUSH1 0x0 PUSH1 0x40 DUP3 ADD SWAP1 POP DUP2 DUP2 SUB PUSH1 0x0 DUP4 ADD MSTORE PUSH2 0x1B10 DUP2 DUP5 PUSH2 0x17DC JUMP JUMPDEST SWAP1 POP DUP2 DUP2 SUB PUSH1 0x20 DUP4 ADD MSTORE PUSH2 0x1B23 DUP2 PUSH2 0x1AD3 JUMP JUMPDEST SWAP1 POP SWAP3 SWAP2 POP POP JUMP JUMPDEST PUSH1 0x0 PUSH1 0x20 PUSH1 0x1F DUP4 ADD DIV SWAP1 POP SWAP2 SWAP1 POP JUMP JUMPDEST PUSH1 0x0 DUP3 DUP3 SHL SWAP1 POP SWAP3 SWAP2 POP POP JUMP JUMPDEST PUSH1 0x0 PUSH1 0x8 DUP4 MUL PUSH2 0x1B78 PUSH32 0xFFFFFFFFFFFFFFFFFFFFFFFFFFFFFFFFFFFFFFFFFFFFFFFFFFFFFFFFFFFFFFFF DUP3 PUSH2 0x1B3B JUMP JUMPDEST PUSH2 0x1B82 DUP7 DUP4 PUSH2 0x1B3B JUMP JUMPDEST SWAP6 POP DUP1 NOT DUP5 AND SWAP4 POP DUP1 DUP7 AND DUP5 OR SWAP3 POP POP POP SWAP4 SWAP3 POP POP POP JUMP JUMPDEST PUSH1 0x0 DUP2 SWAP1 POP SWAP2 SWAP1 POP JUMP JUMPDEST PUSH1 0x0 PUSH2 0x1BBF PUSH2 0x1BBA PUSH2 0x1BB5 DUP5 PUSH2 0x1021 JUMP JUMPDEST PUSH2 0x1B9A JUMP JUMPDEST PUSH2 0x1021 JUMP JUMPDEST SWAP1 POP SWAP2 SWAP1 POP JUMP JUMPDEST PUSH1 0x0 DUP2 SWAP1 POP SWAP2 SWAP1 POP JUMP JUMPDEST PUSH2 0x1BD9 DUP4 PUSH2 0x1BA4 JUMP JUMPDEST PUSH2 0x1BED PUSH2 0x1BE5 DUP3 PUSH2 0x1BC6 JUMP JUMPDEST DUP5 DUP5 SLOAD PUSH2 0x1B48 JUMP JUMPDEST DUP3 SSTORE POP POP POP POP JUMP JUMPDEST PUSH1 0x0 SWAP1 JUMP JUMPDEST PUSH2 0x1C02 PUSH2 0x1BF5 JUMP JUMPDEST PUSH2 0x1C0D DUP2 DUP5 DUP5 PUSH2 0x1BD0 JUMP JUMPDEST POP POP POP JUMP JUMPDEST JUMPDEST DUP2 DUP2 LT ISZERO PUSH2 0x1C31 JUMPI PUSH2 0x1C26 PUSH1 0x0 DUP3 PUSH2 0x1BFA JUMP JUMPDEST PUSH1 0x1 DUP2 ADD SWAP1 POP PUSH2 0x1C13 JUMP JUMPDEST POP POP JUMP JUMPDEST PUSH1 0x1F DUP3 GT ISZERO PUSH2 0x1C76 JUMPI PUSH2 0x1C47 DUP2 PUSH2 0x18A2 JUMP JUMPDEST PUSH2 0x1C50 DUP5 PUSH2 0x1B2B JUMP JUMPDEST DUP2 ADD PUSH1 0x20 DUP6 LT ISZERO PUSH2 0x1C5F JUMPI DUP2 SWAP1 POP JUMPDEST PUSH2 0x1C73 PUSH2 0x1C6B DUP6 PUSH2 0x1B2B JUMP JUMPDEST DUP4 ADD DUP3 PUSH2 0x1C12 JUMP JUMPDEST POP POP JUMPDEST POP POP POP JUMP JUMPDEST PUSH1 0x0 DUP3 DUP3 SHR SWAP1 POP SWAP3 SWAP2 POP POP JUMP JUMPDEST PUSH1 0x0 PUSH2 0x1C99 PUSH1 0x0 NOT DUP5 PUSH1 0x8 MUL PUSH2 0x1C7B JUMP JUMPDEST NOT DUP1 DUP4 AND SWAP2 POP POP SWAP3 SWAP2 POP POP JUMP JUMPDEST PUSH1 0x0 PUSH2 0x1CB2 DUP4 DUP4 PUSH2 0x1C88 JUMP JUMPDEST SWAP2 POP DUP3 PUSH1 0x2 MUL DUP3 OR SWAP1 POP SWAP3 SWAP2 POP POP JUMP JUMPDEST PUSH2 0x1CCB DUP3 PUSH2 0x156F JUMP JUMPDEST PUSH8 0xFFFFFFFFFFFFFFFF DUP2 GT ISZERO PUSH2 0x1CE4 JUMPI PUSH2 0x1CE3 PUSH2 0x10FB JUMP JUMPDEST JUMPDEST PUSH2 0x1CEE DUP3 SLOAD PUSH2 0x1866 JUMP JUMPDEST PUSH2 0x1CF9 DUP3 DUP3 DUP6 PUSH2 0x1C35 JUMP JUMPDEST PUSH1 0x0 PUSH1 0x20 SWAP1 POP PUSH1 0x1F DUP4 GT PUSH1 0x1 DUP2 EQ PUSH2 0x1D2C JUMPI PUSH1 0x0 DUP5 ISZERO PUSH2 0x1D1A JUMPI DUP3 DUP8 ADD MLOAD SWAP1 POP JUMPDEST PUSH2 0x1D24 DUP6 DUP3 PUSH2 0x1CA6 JUMP JUMPDEST DUP7 SSTORE POP PUSH2 0x1D8C JUMP JUMPDEST PUSH1 0x1F NOT DUP5 AND PUSH2 0x1D3A DUP7 PUSH2 0x18A2 JUMP JUMPDEST PUSH1 0x0 JUMPDEST DUP3 DUP2 LT ISZERO PUSH2 0x1D62 JUMPI DUP5 DUP10 ADD MLOAD DUP3 SSTORE PUSH1 0x1 DUP3 ADD SWAP2 POP PUSH1 0x20 DUP6 ADD SWAP5 POP PUSH1 0x20 DUP2 ADD SWAP1 POP PUSH2 0x1D3D JUMP JUMPDEST DUP7 DUP4 LT ISZERO PUSH2 0x1D7F JUMPI DUP5 DUP10 ADD MLOAD PUSH2 0x1D7B PUSH1 0x1F DUP10 AND DUP3 PUSH2 0x1C88 JUMP JUMPDEST DUP4 SSTORE POP JUMPDEST PUSH1 0x1 PUSH1 0x2 DUP9 MUL ADD DUP9 SSTORE POP POP POP JUMPDEST POP POP POP POP POP POP JUMP JUMPDEST PUSH1 0x0 PUSH1 0xA0 DUP3 ADD SWAP1 POP DUP2 DUP2 SUB PUSH1 0x0 DUP4 ADD MSTORE PUSH2 0x1DAE DUP2 DUP9 PUSH2 0x17DC JUMP JUMPDEST SWAP1 POP DUP2 DUP2 SUB PUSH1 0x20 DUP4 ADD MSTORE PUSH2 0x1DC2 DUP2 DUP8 PUSH2 0x17DC JUMP JUMPDEST SWAP1 POP DUP2 DUP2 SUB PUSH1 0x40 DUP4 ADD MSTORE PUSH2 0x1DD6 DUP2 DUP7 PUSH2 0x17DC JUMP JUMPDEST SWAP1 POP PUSH2 0x1DE5 PUSH1 0x60 DUP4 ADD DUP6 PUSH2 0x130A JUMP JUMPDEST DUP2 DUP2 SUB PUSH1 0x80 DUP4 ADD MSTORE PUSH2 0x1DF7 DUP2 DUP5 PUSH2 0x17DC JUMP JUMPDEST SWAP1 POP SWAP7 SWAP6 POP POP POP POP POP POP JUMP JUMPDEST PUSH1 0x0 DUP2 MLOAD SWAP1 POP PUSH2 0x1E12 DUP2 PUSH2 0x102B JUMP JUMPDEST SWAP3 SWAP2 POP POP JUMP JUMPDEST PUSH1 0x0 PUSH1 0x20 DUP3 DUP5 SUB SLT ISZERO PUSH2 0x1E2E JUMPI PUSH2 0x1E2D PUSH2 0x1017 JUMP JUMPDEST JUMPDEST PUSH1 0x0 PUSH2 0x1E3C DUP5 DUP3 DUP6 ADD PUSH2 0x1E03 JUMP JUMPDEST SWAP2 POP POP SWAP3 SWAP2 POP POP JUMP JUMPDEST PUSH32 0x4E487B7100000000000000000000000000000000000000000000000000000000 PUSH1 0x0 MSTORE PUSH1 0x11 PUSH1 0x4 MSTORE PUSH1 0x24 PUSH1 0x0 REVERT JUMPDEST PUSH1 0x0 PUSH2 0x1E7F DUP3 PUSH2 0x1021 JUMP JUMPDEST SWAP2 POP PUSH32 0xFFFFFFFFFFFFFFFFFFFFFFFFFFFFFFFFFFFFFFFFFFFFFFFFFFFFFFFFFFFFFFFF DUP3 SUB PUSH2 0x1EB1 JUMPI PUSH2 0x1EB0 PUSH2 0x1E45 JUMP JUMPDEST JUMPDEST PUSH1 0x1 DUP3 ADD SWAP1 POP SWAP2 SWAP1 POP JUMP JUMPDEST PUSH32 0x496E76616C696420686F73706974616C20696421000000000000000000000000 PUSH1 0x0 DUP3 ADD MSTORE POP JUMP JUMPDEST PUSH1 0x0 PUSH2 0x1EF2 PUSH1 0x14 DUP4 PUSH2 0x17CB JUMP JUMPDEST SWAP2 POP PUSH2 0x1EFD DUP3 PUSH2 0x1EBC JUMP JUMPDEST PUSH1 0x20 DUP3 ADD SWAP1 POP SWAP2 SWAP1 POP JUMP JUMPDEST PUSH1 0x0 PUSH1 0x20 DUP3 ADD SWAP1 POP DUP2 DUP2 SUB PUSH1 0x0 DUP4 ADD MSTORE PUSH2 0x1F21 DUP2 PUSH2 0x1EE5 JUMP JUMPDEST SWAP1 POP SWAP2 SWAP1 POP JUMP JUMPDEST PUSH32 0x4E487B7100000000000000000000000000000000000000000000000000000000 PUSH1 0x0 MSTORE PUSH1 0x21 PUSH1 0x4 MSTORE PUSH1 0x24 PUSH1 0x0 REVERT JUMPDEST PUSH1 0x3 DUP2 LT PUSH2 0x1F68 JUMPI PUSH2 0x1F67 PUSH2 0x1F28 JUMP JUMPDEST JUMPDEST POP JUMP JUMPDEST PUSH1 0x0 DUP2 SWAP1 POP PUSH2 0x1F79 DUP3 PUSH2 0x1F57 JUMP JUMPDEST SWAP2 SWAP1 POP JUMP JUMPDEST PUSH1 0x0 PUSH2 0x1F89 DUP3 PUSH2 0x1F6B JUMP JUMPDEST SWAP1 POP SWAP2 SWAP1 POP JUMP JUMPDEST PUSH2 0x1F99 DUP2 PUSH2 0x1F7E JUMP JUMPDEST DUP3 MSTORE POP POP JUMP JUMPDEST PUSH1 0x0 PUSH1 0xA0 DUP3 ADD SWAP1 POP PUSH2 0x1FB4 PUSH1 0x0 DUP4 ADD DUP9 PUSH2 0x130A JUMP JUMPDEST PUSH2 0x1FC1 PUSH1 0x20 DUP4 ADD DUP8 PUSH2 0x130A JUMP JUMPDEST PUSH2 0x1FCE PUSH1 0x40 DUP4 ADD DUP7 PUSH2 0x1F90 JUMP JUMPDEST DUP2 DUP2 SUB PUSH1 0x60 DUP4 ADD MSTORE PUSH2 0x1FE0 DUP2 DUP6 PUSH2 0x17DC JUMP JUMPDEST SWAP1 POP DUP2 DUP2 SUB PUSH1 0x80 DUP4 ADD MSTORE PUSH2 0x1FF4 DUP2 DUP5 PUSH2 0x17DC JUMP JUMPDEST SWAP1 POP SWAP7 SWAP6 POP POP POP POP POP POP JUMP JUMPDEST PUSH1 0x0 PUSH2 0x2013 PUSH2 0x200E DUP5 PUSH2 0x1610 JUMP JUMPDEST PUSH2 0x115B JUMP JUMPDEST SWAP1 POP DUP3 DUP2 MSTORE PUSH1 0x20 DUP2 ADD DUP5 DUP5 DUP5 ADD GT ISZERO PUSH2 0x202F JUMPI PUSH2 0x202E PUSH2 0x10E5 JUMP JUMPDEST JUMPDEST PUSH2 0x203A DUP5 DUP3 DUP6 PUSH2 0x158B JUMP JUMPDEST POP SWAP4 SWAP3 POP POP POP JUMP JUMPDEST PUSH1 0x0 DUP3 PUSH1 0x1F DUP4 ADD SLT PUSH2 0x2057 JUMPI PUSH2 0x2056 PUSH2 0x10E0 JUMP JUMPDEST JUMPDEST DUP2 MLOAD PUSH2 0x2067 DUP5 DUP3 PUSH1 0x20 DUP7 ADD PUSH2 0x2000 JUMP JUMPDEST SWAP2 POP POP SWAP3 SWAP2 POP POP JUMP JUMPDEST PUSH1 0x0 PUSH1 0x20 DUP3 DUP5 SUB SLT ISZERO PUSH2 0x2086 JUMPI PUSH2 0x2085 PUSH2 0x1017 JUMP JUMPDEST JUMPDEST PUSH1 0x0 DUP3 ADD MLOAD PUSH8 0xFFFFFFFFFFFFFFFF DUP2 GT ISZERO PUSH2 0x20A4 JUMPI PUSH2 0x20A3 PUSH2 0x101C JUMP JUMPDEST JUMPDEST PUSH2 0x20B0 DUP5 DUP3 DUP6 ADD PUSH2 0x2042 JUMP JUMPDEST SWAP2 POP POP SWAP3 SWAP2 POP POP JUMP JUMPDEST PUSH1 0x0 PUSH2 0x20C4 DUP3 PUSH2 0x156F JUMP JUMPDEST PUSH2 0x20CE DUP2 DUP6 PUSH2 0x1897 JUMP JUMPDEST SWAP4 POP PUSH2 0x20DE DUP2 DUP6 PUSH1 0x20 DUP7 ADD PUSH2 0x158B JUMP JUMPDEST DUP1 DUP5 ADD SWAP2 POP POP SWAP3 SWAP2 POP POP JUMP JUMPDEST PUSH1 0x0 PUSH2 0x20F6 DUP3 DUP5 PUSH2 0x20B9 JUMP JUMPDEST SWAP2 POP DUP2 SWAP1 POP SWAP3 SWAP2 POP POP JUMP JUMPDEST PUSH32 0x556E617574686F72697A65642100000000000000000000000000000000000000 PUSH1 0x0 DUP3 ADD MSTORE POP JUMP JUMPDEST PUSH1 0x0 PUSH2 0x2137 PUSH1 0xD DUP4 PUSH2 0x17CB JUMP JUMPDEST SWAP2 POP PUSH2 0x2142 DUP3 PUSH2 0x2101 JUMP JUMPDEST PUSH1 0x20 DUP3 ADD SWAP1 POP SWAP2 SWAP1 POP JUMP JUMPDEST PUSH1 0x0 PUSH1 0x20 DUP3 ADD SWAP1 POP DUP2 DUP2 SUB PUSH1 0x0 DUP4 ADD MSTORE PUSH2 0x2166 DUP2 PUSH2 0x212A JUMP JUMPDEST SWAP1 POP SWAP2 SWAP1 POP JUMP JUMPDEST PUSH32 0x4E6F742072657175657374207965742100000000000000000000000000000000 PUSH1 0x0 DUP3 ADD MSTORE POP JUMP JUMPDEST PUSH1 0x0 PUSH2 0x21A3 PUSH1 0x10 DUP4 PUSH2 0x17CB JUMP JUMPDEST SWAP2 POP PUSH2 0x21AE DUP3 PUSH2 0x216D JUMP JUMPDEST PUSH1 0x20 DUP3 ADD SWAP1 POP SWAP2 SWAP1 POP JUMP JUMPDEST PUSH1 0x0 PUSH1 0x20 DUP3 ADD SWAP1 POP DUP2 DUP2 SUB PUSH1 0x0 DUP4 ADD MSTORE PUSH2 0x21D2 DUP2 PUSH2 0x2196 JUMP JUMPDEST SWAP1 POP SWAP2 SWAP1 POP JUMP JUMPDEST PUSH32 0x4E487B7100000000000000000000000000000000000000000000000000000000 PUSH1 0x0 MSTORE PUSH1 0x32 PUSH1 0x4 MSTORE PUSH1 0x24 PUSH1 0x0 REVERT JUMPDEST PUSH32 0x496E76616C696420726571756573742069642100000000000000000000000000 PUSH1 0x0 DUP3 ADD MSTORE POP JUMP JUMPDEST PUSH1 0x0 PUSH2 0x223E PUSH1 0x13 DUP4 PUSH2 0x17CB JUMP JUMPDEST SWAP2 POP PUSH2 0x2249 DUP3 PUSH2 0x2208 JUMP JUMPDEST PUSH1 0x20 DUP3 ADD SWAP1 POP SWAP2 SWAP1 POP JUMP JUMPDEST PUSH1 0x0 PUSH1 0x20 DUP3 ADD SWAP1 POP DUP2 DUP2 SUB PUSH1 0x0 DUP4 ADD MSTORE PUSH2 0x226D DUP2 PUSH2 0x2231 JUMP JUMPDEST SWAP1 POP SWAP2 SWAP1 POP JUMP JUMPDEST PUSH1 0x0 PUSH2 0x2287 PUSH2 0x2282 DUP5 PUSH2 0x1176 JUMP JUMPDEST PUSH2 0x115B JUMP JUMPDEST SWAP1 POP DUP3 DUP2 MSTORE PUSH1 0x20 DUP2 ADD DUP5 DUP5 DUP5 ADD GT ISZERO PUSH2 0x22A3 JUMPI PUSH2 0x22A2 PUSH2 0x10E5 JUMP JUMPDEST JUMPDEST PUSH2 0x22AE DUP5 DUP3 DUP6 PUSH2 0x158B JUMP JUMPDEST POP SWAP4 SWAP3 POP POP POP JUMP JUMPDEST PUSH1 0x0 DUP3 PUSH1 0x1F DUP4 ADD SLT PUSH2 0x22CB JUMPI PUSH2 0x22CA PUSH2 0x10E0 JUMP JUMPDEST JUMPDEST DUP2 MLOAD PUSH2 0x22DB DUP5 DUP3 PUSH1 0x20 DUP7 ADD PUSH2 0x2274 JUMP JUMPDEST SWAP2 POP POP SWAP3 SWAP2 POP POP JUMP JUMPDEST PUSH1 0x0 DUP1 PUSH1 0x40 DUP4 DUP6 SUB SLT ISZERO PUSH2 0x22FB JUMPI PUSH2 0x22FA PUSH2 0x1017 JUMP JUMPDEST JUMPDEST PUSH1 0x0 DUP4 ADD MLOAD PUSH8 0xFFFFFFFFFFFFFFFF DUP2 GT ISZERO PUSH2 0x2319 JUMPI PUSH2 0x2318 PUSH2 0x101C JUMP JUMPDEST JUMPDEST PUSH2 0x2325 DUP6 DUP3 DUP7 ADD PUSH2 0x22B6 JUMP JUMPDEST SWAP3 POP POP PUSH1 0x20 DUP4 ADD MLOAD PUSH8 0xFFFFFFFFFFFFFFFF DUP2 GT ISZERO PUSH2 0x2346 JUMPI PUSH2 0x2345 PUSH2 0x101C JUMP JUMPDEST JUMPDEST PUSH2 0x2352 DUP6 DUP3 DUP7 ADD PUSH2 0x22B6 JUMP JUMPDEST SWAP2 POP POP SWAP3 POP SWAP3 SWAP1 POP JUMP INVALID LOG2 PUSH5 0x6970667358 0x22 SLT KECCAK256 DUP9 0xAB DUP7 0xE8 MULMOD SWAP13 0xD6 DELEGATECALL 0xFC 0xD5 SWAP16 PUSH25 0x134BA64367B0F8CD0EBF06EDC2726A5F2545D84764736F6C63 NUMBER STOP ADDMOD SGT STOP CALLER "
		},
		"gasEstimates": {
			"creation": {
				"codeDepositCost": "1821200",
				"executionCost": "infinite",
				"totalCost": "infinite"
			},
			"external": {
				"changePassword(uint256,string,string)": "infinite",
				"changePresident(uint256,string,string)": "infinite",
				"createMC(uint256,uint256,uint8,string,string)": "infinite",
				"createPersonalInfo(string,string,string,uint256,string)": "infinite",
				"getHospitalId(address)": "2886",
				"getPassword(uint256,string)": "infinite",
				"getPresident(uint256)": "2872",
				"register(string,string)": "infinite",
				"solveRequest(uint256,string,bytes,uint256,uint256)": "infinite"
			}
		},
		"methodIdentifiers": {
			"changePassword(uint256,string,string)": "ca630e1f",
			"changePresident(uint256,string,string)": "1e8993d9",
			"createMC(uint256,uint256,uint8,string,string)": "9fd95ce7",
			"createPersonalInfo(string,string,string,uint256,string)": "2b41cdb9",
			"getHospitalId(address)": "2a177158",
			"getPassword(uint256,string)": "efb70f08",
			"getPresident(uint256)": "10ab2570",
			"register(string,string)": "3ffbd47f",
			"solveRequest(uint256,string,bytes,uint256,uint256)": "d48794af"
		}
	},
	"abi": [
		{
			"inputs": [
				{
					"internalType": "contract MedicalCertificate",
					"name": "mcAddress",
					"type": "address"
				}
			],
			"stateMutability": "nonpayable",
			"type": "constructor"
		},
		{
			"anonymous": false,
			"inputs": [],
			"name": "createOneMC",
			"type": "event"
		},
		{
			"anonymous": false,
			"inputs": [],
			"name": "presidentChanged",
			"type": "event"
		},
		{
			"anonymous": false,
			"inputs": [],
			"name": "registered",
			"type": "event"
		},
		{
			"anonymous": false,
			"inputs": [
				{
					"indexed": false,
					"internalType": "uint256",
					"name": "reqeustId",
					"type": "uint256"
				}
			],
			"name": "requestMade",
			"type": "event"
		},
		{
			"anonymous": false,
			"inputs": [
				{
					"indexed": false,
					"internalType": "uint256",
					"name": "requestId",
					"type": "uint256"
				}
			],
			"name": "requestSolve",
			"type": "event"
		},
		{
			"inputs": [
				{
					"internalType": "uint256",
					"name": "_hospitalId",
					"type": "uint256"
				},
				{
					"internalType": "string",
					"name": "oldpassword",
					"type": "string"
				},
				{
					"internalType": "string",
					"name": "newpassword",
					"type": "string"
				}
			],
			"name": "changePassword",
			"outputs": [],
			"stateMutability": "nonpayable",
			"type": "function"
		},
		{
			"inputs": [
				{
					"internalType": "uint256",
					"name": "_hospitalId",
					"type": "uint256"
				},
				{
					"internalType": "string",
					"name": "_password",
					"type": "string"
				},
				{
					"internalType": "string",
					"name": "_ic",
					"type": "string"
				}
			],
			"name": "changePresident",
			"outputs": [],
			"stateMutability": "nonpayable",
			"type": "function"
		},
		{
			"inputs": [
				{
					"internalType": "uint256",
					"name": "_hospitalId",
					"type": "uint256"
				},
				{
					"internalType": "uint256",
					"name": "lifeAssuredInfoId",
					"type": "uint256"
				},
				{
					"internalType": "enum MedicalCertificate.certCategory",
					"name": "incidentType",
					"type": "uint8"
				},
				{
					"internalType": "string",
					"name": "incidentYYYYMMDDHHMM",
					"type": "string"
				},
				{
					"internalType": "string",
					"name": "titleName",
					"type": "string"
				}
			],
			"name": "createMC",
			"outputs": [
				{
					"internalType": "bytes",
					"name": "",
					"type": "bytes"
				}
			],
			"stateMutability": "nonpayable",
			"type": "function"
		},
		{
			"inputs": [
				{
					"internalType": "string",
					"name": "name",
					"type": "string"
				},
				{
					"internalType": "string",
					"name": "NRIC",
					"type": "string"
				},
				{
					"internalType": "string",
					"name": "sex",
					"type": "string"
				},
				{
					"internalType": "uint256",
					"name": "birthdate",
					"type": "uint256"
				},
				{
					"internalType": "string",
					"name": "race_nationality",
					"type": "string"
				}
			],
			"name": "createPersonalInfo",
			"outputs": [
				{
					"internalType": "uint256",
					"name": "",
					"type": "uint256"
				}
			],
			"stateMutability": "nonpayable",
			"type": "function"
		},
		{
			"inputs": [
				{
					"internalType": "address",
					"name": "_president",
					"type": "address"
				}
			],
			"name": "getHospitalId",
			"outputs": [
				{
					"internalType": "uint256",
					"name": "",
					"type": "uint256"
				}
			],
			"stateMutability": "view",
			"type": "function"
		},
		{
			"inputs": [
				{
					"internalType": "uint256",
					"name": "_hospitalId",
					"type": "uint256"
				},
				{
					"internalType": "string",
					"name": "_password",
					"type": "string"
				}
			],
			"name": "getPassword",
			"outputs": [
				{
					"internalType": "string",
					"name": "",
					"type": "string"
				}
			],
			"stateMutability": "view",
			"type": "function"
		},
		{
			"inputs": [
				{
					"internalType": "uint256",
					"name": "_hospitalId",
					"type": "uint256"
				}
			],
			"name": "getPresident",
			"outputs": [
				{
					"internalType": "address",
					"name": "",
					"type": "address"
				}
			],
			"stateMutability": "view",
			"type": "function"
		},
		{
			"inputs": [
				{
					"internalType": "string",
					"name": "_ic",
					"type": "string"
				},
				{
					"internalType": "string",
					"name": "_password",
					"type": "string"
				}
			],
			"name": "register",
			"outputs": [
				{
					"internalType": "uint256",
					"name": "",
					"type": "uint256"
				}
			],
			"stateMutability": "nonpayable",
			"type": "function"
		},
		{
			"inputs": [
				{
					"internalType": "uint256",
					"name": "_hospitalId",
					"type": "uint256"
				},
				{
					"internalType": "string",
					"name": "_password",
					"type": "string"
				},
				{
					"internalType": "bytes",
					"name": "mcId",
					"type": "bytes"
				},
				{
					"internalType": "uint256",
					"name": "_requestId",
					"type": "uint256"
				},
				{
					"internalType": "uint256",
					"name": "_stakeholderId",
					"type": "uint256"
				}
			],
			"name": "solveRequest",
			"outputs": [
				{
					"internalType": "bytes",
					"name": "",
					"type": "bytes"
				}
			],
			"stateMutability": "nonpayable",
			"type": "function"
		}
	]
}