{
	"data": {
		"bytecode": {
			"linkReferences": {},
			"object": "60806040526000805560006003556000600755600060085534801561002357600080fd5b506142e7806100336000396000f3fe6080604052600436106100fe5760003560e01c806366e918b811610095578063d48794af11610064578063d48794af146103a0578063d4c85366146103dd578063f043e7451461041a578063f29a6f4414610457578063f38c6bb614610494576100fe565b806366e918b8146102c057806374946460146102fd5780639cb3d01f1461033a578063ca630e1f14610377576100fe565b806329efb4a9116100d157806329efb4a9146101ed5780632a1771581461022a5780633ffbd47f14610267578063452ba75414610297576100fe565b8063109075f11461010357806310ab2570146101455780631e8993d91461018257806328de3c9b146101ab575b600080fd5b34801561010f57600080fd5b5061012a60048036038101906101259190612960565b6104d1565b60405161013c96959493929190612b02565b60405180910390f35b34801561015157600080fd5b5061016c60048036038101906101679190612ba4565b6106b2565b6040516101799190612c12565b60405180910390f35b34801561018e57600080fd5b506101a960048036038101906101a49190612d62565b6106f2565b005b3480156101b757600080fd5b506101d260048036038101906101cd9190612ba4565b610897565b6040516101e496959493929190612ded565b60405180910390f35b3480156101f957600080fd5b50610214600480360381019061020f9190612f12565b610b7b565b6040516102219190612f5b565b60405180910390f35b34801561023657600080fd5b50610251600480360381019061024c9190612fa2565b610baf565b60405161025e9190612fcf565b60405180910390f35b610281600480360381019061027c9190612fea565b610bf8565b60405161028e9190612fcf565b60405180910390f35b3480156102a357600080fd5b506102be60048036038101906102b99190613062565b610de9565b005b3480156102cc57600080fd5b506102e760048036038101906102e291906130e3565b6114c3565b6040516102f491906131c4565b60405180910390f35b34801561030957600080fd5b50610324600480360381019061031f91906131e6565b61190d565b6040516103319190612fcf565b60405180910390f35b34801561034657600080fd5b50610361600480360381019061035c9190613330565b611ae2565b60405161036e91906131c4565b60405180910390f35b34801561038357600080fd5b5061039e60048036038101906103999190612d62565b611e65565b005b3480156103ac57600080fd5b506103c760048036038101906103c29190613383565b611fe9565b6040516103d491906131c4565b60405180910390f35b3480156103e957600080fd5b5061040460048036038101906103ff9190612f12565b6124aa565b6040516104119190613436565b60405180910390f35b34801561042657600080fd5b50610441600480360381019061043c9190613458565b61256f565b60405161044e9190612fcf565b60405180910390f35b34801561046357600080fd5b5061047e60048036038101906104799190612f12565b6126e6565b60405161048b9190613436565b60405180910390f35b3480156104a057600080fd5b506104bb60048036038101906104b69190612ba4565b6127ab565b6040516104c89190613436565b60405180910390f35b60016020528060005260406000206000915090508060000180546104f490613526565b80601f016020809104026020016040519081016040528092919081815260200182805461052090613526565b801561056d5780601f106105425761010080835404028352916020019161056d565b820191906000526020600020905b81548152906001019060200180831161055057829003601f168201915b5050505050908060010154908060020154908060030160009054906101000a900460ff16908060040180546105a190613526565b80601f01602080910402602001604051908101604052809291908181526020018280546105cd90613526565b801561061a5780601f106105ef5761010080835404028352916020019161061a565b820191906000526020600020905b8154815290600101906020018083116105fd57829003601f168201915b50505050509080600501805461062f90613526565b80601f016020809104026020016040519081016040528092919081815260200182805461065b90613526565b80156106a85780601f1061067d576101008083540402835291602001916106a8565b820191906000526020600020905b81548152906001019060200180831161068b57829003601f168201915b5050505050905086565b60006004600083815260200190815260200160002060000160009054906101000a900473ffffffffffffffffffffffffffffffffffffffff169050919050565b82826004600083815260200190815260200160002060020160405161071791906135fa565b604051809103902081604051602001610730919061365d565b6040516020818303038152906040528051906020012014610786576040517f08c379a000000000000000000000000000000000000000000000000000000000815260040161077d906136de565b60405180910390fd5b8260098151146107cb576040517f08c379a00000000000000000000000000000000000000000000000000000000081526004016107c29061374a565b60405180910390fd5b336004600088815260200190815260200160002060000160006101000a81548173ffffffffffffffffffffffffffffffffffffffff021916908373ffffffffffffffffffffffffffffffffffffffff1602179055508360405160200161083191906137b6565b6040516020818303038152906040526004600088815260200190815260200160002060010190816108629190613982565b507fdc5f6b9352635161a74876313a5729a4d33d34f1f65e69809e2e4275fb16be5560405160405180910390a1505050505050565b60026020528060005260406000206000915090508060000154908060010180546108c090613526565b80601f01602080910402602001604051908101604052809291908181526020018280546108ec90613526565b80156109395780601f1061090e57610100808354040283529160200191610939565b820191906000526020600020905b81548152906001019060200180831161091c57829003601f168201915b50505050509080600201805461094e90613526565b80601f016020809104026020016040519081016040528092919081815260200182805461097a90613526565b80156109c75780601f1061099c576101008083540402835291602001916109c7565b820191906000526020600020905b8154815290600101906020018083116109aa57829003601f168201915b5050505050908060030180546109dc90613526565b80601f0160208091040260200160405190810160405280929190818152602001828054610a0890613526565b8015610a555780601f10610a2a57610100808354040283529160200191610a55565b820191906000526020600020905b815481529060010190602001808311610a3857829003601f168201915b505050505090806004018054610a6a90613526565b80601f0160208091040260200160405190810160405280929190818152602001828054610a9690613526565b8015610ae35780601f10610ab857610100808354040283529160200191610ae3565b820191906000526020600020905b815481529060010190602001808311610ac657829003601f168201915b505050505090806005018054610af890613526565b80601f0160208091040260200160405190810160405280929190818152602001828054610b2490613526565b8015610b715780601f10610b4657610100808354040283529160200191610b71565b820191906000526020600020905b815481529060010190602001808311610b5457829003601f168201915b5050505050905086565b6000600160008380519060200120815260200190815260200160002060030160009054906101000a900460ff169050919050565b6000600560008373ffffffffffffffffffffffffffffffffffffffff1673ffffffffffffffffffffffffffffffffffffffff168152602001908152602001600020549050919050565b6000826009815114610c3f576040517f08c379a0000000000000000000000000000000000000000000000000000000008152600401610c369061374a565b60405180910390fd5b662386f26fc10000341015610c89576040517f08c379a0000000000000000000000000000000000000000000000000000000008152600401610c8090613ac6565b60405180910390fd5b60076000815480929190610c9c90613b15565b919050555060006004600060075481526020019081526020016000209050338160000160006101000a81548173ffffffffffffffffffffffffffffffffffffffff021916908373ffffffffffffffffffffffffffffffffffffffff16021790555084604051602001610d0e91906137b6565b604051602081830303815290604052816001019081610d2d9190613982565b5083604051602001610d3f919061365d565b604051602081830303815290604052816002019081610d5e9190613982565b506007548160030181905550600754600560003373ffffffffffffffffffffffffffffffffffffffff1673ffffffffffffffffffffffffffffffffffffffff168152602001908152602001600020819055507f2de40ce37397b7fb2d98ae62dc520d88b46e2c50beac9f696f11ccc6605ef3eb60405160405180910390a16007549250505092915050565b816000600460008381526020019081526020016000206003015411610e43576040517f08c379a0000000000000000000000000000000000000000000000000000000008152600401610e3a90613ba9565b60405180910390fd5b828260046000838152602001908152602001600020600201604051610e6891906135fa565b604051809103902081604051602001610e81919061365d565b6040516020818303038152906040528051906020012014610ed7576040517f08c379a0000000000000000000000000000000000000000000000000000000008152600401610ece906136de565b60405180910390fd5b600060085467ffffffffffffffff811115610ef557610ef4612c37565b5b604051908082528060200260200182016040528015610f235781602001602082028036833780820191505090505b509050600060085467ffffffffffffffff811115610f4457610f43612c37565b5b604051908082528060200260200182016040528015610f725781602001602082028036833780820191505090505b509050600060085467ffffffffffffffff811115610f9357610f92612c37565b5b604051908082528060200260200182016040528015610fc657816020015b6060815260200190600190039081610fb15790505b509050600060085467ffffffffffffffff811115610fe757610fe6612c37565b5b60405190808252806020026020018201604052801561101a57816020015b60608152602001906001900390816110055790505b5090506000600660008b815260200190815260200160002080548060200260200160405190810160405280929190818152602001828054801561107c57602002820191906000526020600020905b815481526020019060010190808311611068575b505050505090506000805b82518110156114785760008382815181106110a5576110a4613bc9565b5b602002602001015190506000600460008f81526020019081526020016000206005016000838152602001908152602001600020805480602002602001604051908101604052809291908181526020016000905b828210156112f457838290600052602060002090600502016040518060a0016040529081600082015481526020016001820154815260200160028201805461113f90613526565b80601f016020809104026020016040519081016040528092919081815260200182805461116b90613526565b80156111b85780601f1061118d576101008083540402835291602001916111b8565b820191906000526020600020905b81548152906001019060200180831161119b57829003601f168201915b505050505081526020016003820180546111d190613526565b80601f01602080910402602001604051908101604052809291908181526020018280546111fd90613526565b801561124a5780601f1061121f5761010080835404028352916020019161124a565b820191906000526020600020905b81548152906001019060200180831161122d57829003601f168201915b5050505050815260200160048201805461126390613526565b80601f016020809104026020016040519081016040528092919081815260200182805461128f90613526565b80156112dc5780601f106112b1576101008083540402835291602001916112dc565b820191906000526020600020905b8154815290600101906020018083116112bf57829003601f168201915b505050505081525050815260200190600101906110f8565b50505050905060005b815181101561146257600082828151811061131b5761131a613bc9565b5b602002602001015190506040518060400160405280600281526020017f307800000000000000000000000000000000000000000000000000000000000081525060405160200161136b9190613c29565b6040516020818303038152906040528051906020012081608001516040516020016113969190613c29565b604051602081830303815290604052805190602001201461144e5780600001518b87815181106113c9576113c8613bc9565b5b60200260200101818152505080602001518a87815181106113ed576113ec613bc9565b5b602002602001018181525050806040015189878151811061141157611410613bc9565b5b6020026020010181905250806060015188878151811061143457611433613bc9565b5b6020026020010181905250858061144a90613b15565b9650505b50808061145a90613b15565b9150506112fd565b505050808061147090613b15565b915050611087565b507ff27964db71fbfa9cae0795251acb513d2227e5f9a4e8c35b6b5572a7267c243a868686866040516114ae9493929190613e0a565b60405180910390a15050505050505050505050565b606086600060046000838152602001908152602001600020600301541161151f576040517f08c379a000000000000000000000000000000000000000000000000000000000815260040161151690613ba9565b60405180910390fd5b87876004600083815260200190815260200160002060020160405161154491906135fa565b60405180910390208160405160200161155d919061365d565b60405160208183030381529060405280519060200120146115b3576040517f08c379a00000000000000000000000000000000000000000000000000000000081526004016115aa906136de565b60405180910390fd5b85600c8151146115f8576040517f08c379a00000000000000000000000000000000000000000000000000000000081526004016115ef90613eb7565b60405180910390fd5b60016000546116079190613ed7565b600081905550600080548a604051602001611623929190613f2c565b6040516020818303038152906040529050600060016000838051906020012081526020019081526020016000206040518060c001604052908160008201805461166b90613526565b80601f016020809104026020016040519081016040528092919081815260200182805461169790613526565b80156116e45780601f106116b9576101008083540402835291602001916116e4565b820191906000526020600020905b8154815290600101906020018083116116c757829003601f168201915b5050505050815260200160018201548152602001600282015481526020016003820160009054906101000a900460ff16600281111561172657611725612a36565b5b600281111561173857611737612a36565b5b815260200160048201805461174c90613526565b80601f016020809104026020016040519081016040528092919081815260200182805461177890613526565b80156117c55780601f1061179a576101008083540402835291602001916117c5565b820191906000526020600020905b8154815290600101906020018083116117a857829003601f168201915b505050505081526020016005820180546117de90613526565b80601f016020809104026020016040519081016040528092919081815260200182805461180a90613526565b80156118575780601f1061182c57610100808354040283529160200191611857565b820191906000526020600020905b81548152906001019060200180831161183a57829003601f168201915b50505050508152505090508181600001819052508c8160200181815250508a816040018181525050898160600190600281111561189757611896612a36565b5b908160028111156118ab576118aa612a36565b5b81525050888160800181905250878160a001819052507f08b2c200b5f16565b86d1596988527109771ff8ed118f330cca9ee70d6ba9a166000546040516118f29190612fcf565b60405180910390a18196505050505050509695505050505050565b6000876000600460008381526020019081526020016000206003015411611969576040517f08c379a000000000000000000000000000000000000000000000000000000000815260040161196090613ba9565b60405180910390fd5b88886004600083815260200190815260200160002060020160405161198e91906135fa565b6040518091039020816040516020016119a7919061365d565b60405160208183030381529060405280519060200120146119fd576040517f08c379a00000000000000000000000000000000000000000000000000000000081526004016119f4906136de565b60405180910390fd5b856008815114611a42576040517f08c379a0000000000000000000000000000000000000000000000000000000008152600401611a3990613eb7565b60405180910390fd5b60036000815480929190611a5590613b15565b9190505550600060026000600354815260200190815260200160002090508a816001019081611a849190613fb3565b5089816002019081611a969190613fb3565b5088816003019081611aa89190613fb3565b5087816004019081611aba9190613fb3565b5086816005019081611acc9190613fb3565b5060035495505050505050979650505050505050565b6060836000600460008381526020019081526020016000206003015411611b3e576040517f08c379a0000000000000000000000000000000000000000000000000000000008152600401611b3590613ba9565b60405180910390fd5b6000600460008781526020019081526020016000206005016000858152602001908152602001600020805480602002602001604051908101604052809291908181526020016000905b82821015611d8357838290600052602060002090600502016040518060a00160405290816000820154815260200160018201548152602001600282018054611bce90613526565b80601f0160208091040260200160405190810160405280929190818152602001828054611bfa90613526565b8015611c475780601f10611c1c57610100808354040283529160200191611c47565b820191906000526020600020905b815481529060010190602001808311611c2a57829003601f168201915b50505050508152602001600382018054611c6090613526565b80601f0160208091040260200160405190810160405280929190818152602001828054611c8c90613526565b8015611cd95780601f10611cae57610100808354040283529160200191611cd9565b820191906000526020600020905b815481529060010190602001808311611cbc57829003601f168201915b50505050508152602001600482018054611cf290613526565b80601f0160208091040260200160405190810160405280929190818152602001828054611d1e90613526565b8015611d6b5780601f10611d4057610100808354040283529160200191611d6b565b820191906000526020600020905b815481529060010190602001808311611d4e57829003601f168201915b50505050508152505081526020019060010190611b87565b50505050905060008151905060008080600090505b83811015611de05788858281518110611db457611db3613bc9565b5b60200260200101516000015103611dcd57809150600192505b8080611dd890613b15565b915050611d98565b506001151582151514611e28576040517f08c379a0000000000000000000000000000000000000000000000000000000008152600401611e1f906140d1565b60405180910390fd5b8115611e5857838181518110611e4157611e40613bc9565b5b602002602001015160800151955050505050611e5d565b505050505b509392505050565b826004600082815260200190815260200160002060000160009054906101000a900473ffffffffffffffffffffffffffffffffffffffff1673ffffffffffffffffffffffffffffffffffffffff163373ffffffffffffffffffffffffffffffffffffffff1614611f0a576040517f08c379a0000000000000000000000000000000000000000000000000000000008152600401611f019061413d565b60405180910390fd5b838360046000838152602001908152602001600020600201604051611f2f91906135fa565b604051809103902081604051602001611f48919061365d565b6040516020818303038152906040528051906020012014611f9e576040517f08c379a0000000000000000000000000000000000000000000000000000000008152600401611f95906136de565b60405180910390fd5b83604051602001611faf919061365d565b604051602081830303815290604052600460008881526020019081526020016000206002019081611fe09190613982565b50505050505050565b6060856000600460008381526020019081526020016000206003015411612045576040517f08c379a000000000000000000000000000000000000000000000000000000000815260040161203c90613ba9565b60405180910390fd5b86866004600083815260200190815260200160002060020160405161206a91906135fa565b604051809103902081604051602001612083919061365d565b60405160208183030381529060405280519060200120146120d9576040517f08c379a00000000000000000000000000000000000000000000000000000000081526004016120d0906136de565b60405180910390fd5b6000861461249e576000600460008b81526020019081526020016000206005016000878152602001908152602001600020805490501161214e576040517f08c379a0000000000000000000000000000000000000000000000000000000008152600401612145906141a9565b60405180910390fd5b6000600460008b81526020019081526020016000206005016000878152602001908152602001600020805480602002602001604051908101604052809291908181526020016000905b8282101561239357838290600052602060002090600502016040518060a001604052908160008201548152602001600182015481526020016002820180546121de90613526565b80601f016020809104026020016040519081016040528092919081815260200182805461220a90613526565b80156122575780601f1061222c57610100808354040283529160200191612257565b820191906000526020600020905b81548152906001019060200180831161223a57829003601f168201915b5050505050815260200160038201805461227090613526565b80601f016020809104026020016040519081016040528092919081815260200182805461229c90613526565b80156122e95780601f106122be576101008083540402835291602001916122e9565b820191906000526020600020905b8154815290600101906020018083116122cc57829003601f168201915b5050505050815260200160048201805461230290613526565b80601f016020809104026020016040519081016040528092919081815260200182805461232e90613526565b801561237b5780601f106123505761010080835404028352916020019161237b565b820191906000526020600020905b81548152906001019060200180831161235e57829003601f168201915b50505050508152505081526020019060010190612197565b50505050905060008151905060008080600090505b838110156123f0578a8582815181106123c4576123c3613bc9565b5b602002602001015160000151036123dd57809150600192505b80806123e890613b15565b9150506123a8565b506001151582151514612438576040517f08c379a000000000000000000000000000000000000000000000000000000000815260040161242f906140d1565b60405180910390fd5b8115612499578a84828151811061245257612451613bc9565b5b6020026020010151608001819052507fc01a711a994234663e49bcaf267235941ef164ac0dea30de367e8cdb0eeabd5a8a6040516124909190612fcf565b60405180910390a15b505050505b50505095945050505050565b606060026000600160008580519060200120815260200190815260200160002060020154815260200190815260200160002060020180546124ea90613526565b80601f016020809104026020016040519081016040528092919081815260200182805461251690613526565b80156125635780601f1061253857610100808354040283529160200191612563565b820191906000526020600020905b81548152906001019060200180831161254657829003601f168201915b50505050509050919050565b60008460006004600083815260200190815260200160002060030154116125cb576040517f08c379a00000000000000000000000000000000000000000000000000000000081526004016125c290613ba9565b60405180910390fd5b600860008154809291906125de90613b15565b9190505550600060046000888152602001908152602001600020600501600087815260200190815260200160002060018160018154018082558091505003906000526020600020906005020190506008548160000181905550858160010181905550848160020190816126519190613fb3565b50838160030190816126639190613fb3565b50600660008881526020019081526020016000208690806001815401808255809150506001900390600052602060002001600090919091909150557f7cd6f88cec54e07d7b5a709e82d19e951e8d3a8f8e64c3982e5c2305383034b16008546040516126cf9190612fcf565b60405180910390a160085492505050949350505050565b6060600260006001600085805190602001208152602001908152602001600020600201548152602001908152602001600020600101805461272690613526565b80601f016020809104026020016040519081016040528092919081815260200182805461275290613526565b801561279f5780601f106127745761010080835404028352916020019161279f565b820191906000526020600020905b81548152906001019060200180831161278257829003601f168201915b50505050509050919050565b6060816004600082815260200190815260200160002060000160009054906101000a900473ffffffffffffffffffffffffffffffffffffffff1673ffffffffffffffffffffffffffffffffffffffff163373ffffffffffffffffffffffffffffffffffffffff1614612852576040517f08c379a00000000000000000000000000000000000000000000000000000000081526004016128499061413d565b60405180910390fd5b60008060046000868152602001908152602001600020600201805461287690613526565b80601f01602080910402602001604051908101604052809291908181526020018280546128a290613526565b80156128ef5780601f106128c4576101008083540402835291602001916128ef565b820191906000526020600020905b8154815290600101906020018083116128d257829003601f168201915b50505050508060200190518101906129079190614239565b91509150819350505050919050565b6000604051905090565b600080fd5b600080fd5b6000819050919050565b61293d8161292a565b811461294857600080fd5b50565b60008135905061295a81612934565b92915050565b60006020828403121561297657612975612920565b5b60006129848482850161294b565b91505092915050565b600081519050919050565b600082825260208201905092915050565b60005b838110156129c75780820151818401526020810190506129ac565b60008484015250505050565b6000601f19601f8301169050919050565b60006129ef8261298d565b6129f98185612998565b9350612a098185602086016129a9565b612a12816129d3565b840191505092915050565b6000819050919050565b612a3081612a1d565b82525050565b7f4e487b7100000000000000000000000000000000000000000000000000000000600052602160045260246000fd5b60038110612a7657612a75612a36565b5b50565b6000819050612a8782612a65565b919050565b6000612a9782612a79565b9050919050565b612aa781612a8c565b82525050565b600081519050919050565b600082825260208201905092915050565b6000612ad482612aad565b612ade8185612ab8565b9350612aee8185602086016129a9565b612af7816129d3565b840191505092915050565b600060c0820190508181036000830152612b1c81896129e4565b9050612b2b6020830188612a27565b612b386040830187612a27565b612b456060830186612a9e565b8181036080830152612b578185612ac9565b905081810360a0830152612b6b8184612ac9565b9050979650505050505050565b612b8181612a1d565b8114612b8c57600080fd5b50565b600081359050612b9e81612b78565b92915050565b600060208284031215612bba57612bb9612920565b5b6000612bc884828501612b8f565b91505092915050565b600073ffffffffffffffffffffffffffffffffffffffff82169050919050565b6000612bfc82612bd1565b9050919050565b612c0c81612bf1565b82525050565b6000602082019050612c276000830184612c03565b92915050565b600080fd5b600080fd5b7f4e487b7100000000000000000000000000000000000000000000000000000000600052604160045260246000fd5b612c6f826129d3565b810181811067ffffffffffffffff82111715612c8e57612c8d612c37565b5b80604052505050565b6000612ca1612916565b9050612cad8282612c66565b919050565b600067ffffffffffffffff821115612ccd57612ccc612c37565b5b612cd6826129d3565b9050602081019050919050565b82818337600083830152505050565b6000612d05612d0084612cb2565b612c97565b905082815260208101848484011115612d2157612d20612c32565b5b612d2c848285612ce3565b509392505050565b600082601f830112612d4957612d48612c2d565b5b8135612d59848260208601612cf2565b91505092915050565b600080600060608486031215612d7b57612d7a612920565b5b6000612d8986828701612b8f565b935050602084013567ffffffffffffffff811115612daa57612da9612925565b5b612db686828701612d34565b925050604084013567ffffffffffffffff811115612dd757612dd6612925565b5b612de386828701612d34565b9150509250925092565b600060c082019050612e026000830189612a27565b8181036020830152612e148188612ac9565b90508181036040830152612e288187612ac9565b90508181036060830152612e3c8186612ac9565b90508181036080830152612e508185612ac9565b905081810360a0830152612e648184612ac9565b9050979650505050505050565b600067ffffffffffffffff821115612e8c57612e8b612c37565b5b612e95826129d3565b9050602081019050919050565b6000612eb5612eb084612e71565b612c97565b905082815260208101848484011115612ed157612ed0612c32565b5b612edc848285612ce3565b509392505050565b600082601f830112612ef957612ef8612c2d565b5b8135612f09848260208601612ea2565b91505092915050565b600060208284031215612f2857612f27612920565b5b600082013567ffffffffffffffff811115612f4657612f45612925565b5b612f5284828501612ee4565b91505092915050565b6000602082019050612f706000830184612a9e565b92915050565b612f7f81612bf1565b8114612f8a57600080fd5b50565b600081359050612f9c81612f76565b92915050565b600060208284031215612fb857612fb7612920565b5b6000612fc684828501612f8d565b91505092915050565b6000602082019050612fe46000830184612a27565b92915050565b6000806040838503121561300157613000612920565b5b600083013567ffffffffffffffff81111561301f5761301e612925565b5b61302b85828601612d34565b925050602083013567ffffffffffffffff81111561304c5761304b612925565b5b61305885828601612d34565b9150509250929050565b6000806040838503121561307957613078612920565b5b600061308785828601612b8f565b925050602083013567ffffffffffffffff8111156130a8576130a7612925565b5b6130b485828601612d34565b9150509250929050565b600381106130cb57600080fd5b50565b6000813590506130dd816130be565b92915050565b60008060008060008060c08789031215613100576130ff612920565b5b600061310e89828a01612b8f565b965050602087013567ffffffffffffffff81111561312f5761312e612925565b5b61313b89828a01612d34565b955050604061314c89828a01612b8f565b945050606061315d89828a016130ce565b935050608087013567ffffffffffffffff81111561317e5761317d612925565b5b61318a89828a01612d34565b92505060a087013567ffffffffffffffff8111156131ab576131aa612925565b5b6131b789828a01612d34565b9150509295509295509295565b600060208201905081810360008301526131de81846129e4565b905092915050565b600080600080600080600060e0888a03121561320557613204612920565b5b60006132138a828b01612b8f565b975050602088013567ffffffffffffffff81111561323457613233612925565b5b6132408a828b01612d34565b965050604088013567ffffffffffffffff81111561326157613260612925565b5b61326d8a828b01612d34565b955050606088013567ffffffffffffffff81111561328e5761328d612925565b5b61329a8a828b01612d34565b945050608088013567ffffffffffffffff8111156132bb576132ba612925565b5b6132c78a828b01612d34565b93505060a088013567ffffffffffffffff8111156132e8576132e7612925565b5b6132f48a828b01612d34565b92505060c088013567ffffffffffffffff81111561331557613314612925565b5b6133218a828b01612d34565b91505092959891949750929550565b60008060006060848603121561334957613348612920565b5b600061335786828701612b8f565b935050602061336886828701612b8f565b925050604061337986828701612b8f565b9150509250925092565b600080600080600060a0868803121561339f5761339e612920565b5b60006133ad88828901612b8f565b955050602086013567ffffffffffffffff8111156133ce576133cd612925565b5b6133da88828901612d34565b945050604086013567ffffffffffffffff8111156133fb576133fa612925565b5b61340788828901612ee4565b935050606061341888828901612b8f565b925050608061342988828901612b8f565b9150509295509295909350565b600060208201905081810360008301526134508184612ac9565b905092915050565b6000806000806080858703121561347257613471612920565b5b600061348087828801612b8f565b945050602061349187828801612b8f565b935050604085013567ffffffffffffffff8111156134b2576134b1612925565b5b6134be87828801612d34565b925050606085013567ffffffffffffffff8111156134df576134de612925565b5b6134eb87828801612d34565b91505092959194509250565b7f4e487b7100000000000000000000000000000000000000000000000000000000600052602260045260246000fd5b6000600282049050600182168061353e57607f821691505b602082108103613551576135506134f7565b5b50919050565b600081905092915050565b60008190508160005260206000209050919050565b6000815461358481613526565b61358e8186613557565b945060018216600081146135a957600181146135be576135f1565b60ff19831686528115158202860193506135f1565b6135c785613562565b60005b838110156135e9578154818901526001820191506020810190506135ca565b838801955050505b50505092915050565b60006136068284613577565b915081905092915050565b7f70617373776f7264000000000000000000000000000000000000000000000000600082015250565b6000613647600883612ab8565b915061365282613611565b602082019050919050565b600060408201905081810360008301526136778184612ac9565b9050818103602083015261368a8161363a565b905092915050565b7f57726f6e672070617373776f7264210000000000000000000000000000000000600082015250565b60006136c8600f83612ab8565b91506136d382613692565b602082019050919050565b600060208201905081810360008301526136f7816136bb565b9050919050565b7f696e76616c6964204e524943206e756d62657200000000000000000000000000600082015250565b6000613734601383612ab8565b915061373f826136fe565b602082019050919050565b6000602082019050818103600083015261376381613727565b9050919050565b7f6963000000000000000000000000000000000000000000000000000000000000600082015250565b60006137a0600283612ab8565b91506137ab8261376a565b602082019050919050565b600060408201905081810360008301526137d08184612ac9565b905081810360208301526137e381613793565b905092915050565b60006020601f8301049050919050565b600082821b905092915050565b6000600883026138387fffffffffffffffffffffffffffffffffffffffffffffffffffffffffffffffff826137fb565b61384286836137fb565b95508019841693508086168417925050509392505050565b6000819050919050565b600061387f61387a61387584612a1d565b61385a565b612a1d565b9050919050565b6000819050919050565b61389983613864565b6138ad6138a582613886565b848454613808565b825550505050565b600090565b6138c26138b5565b6138cd818484613890565b505050565b5b818110156138f1576138e66000826138ba565b6001810190506138d3565b5050565b601f8211156139365761390781613562565b613910846137eb565b8101602085101561391f578190505b61393361392b856137eb565b8301826138d2565b50505b505050565b600082821c905092915050565b60006139596000198460080261393b565b1980831691505092915050565b60006139728383613948565b9150826002028217905092915050565b61398b8261298d565b67ffffffffffffffff8111156139a4576139a3612c37565b5b6139ae8254613526565b6139b98282856138f5565b600060209050601f8311600181146139ec57600084156139da578287015190505b6139e48582613966565b865550613a4c565b601f1984166139fa86613562565b60005b82811015613a22578489015182556001820191506020850194506020810190506139fd565b86831015613a3f5784890151613a3b601f891682613948565b8355505b6001600288020188555050505b505050505050565b7f302e303120455448206973206e656564656420746f207265676973746572207960008201527f6f757220686f73706974616c0000000000000000000000000000000000000000602082015250565b6000613ab0602c83612ab8565b9150613abb82613a54565b604082019050919050565b60006020820190508181036000830152613adf81613aa3565b9050919050565b7f4e487b7100000000000000000000000000000000000000000000000000000000600052601160045260246000fd5b6000613b2082612a1d565b91507fffffffffffffffffffffffffffffffffffffffffffffffffffffffffffffffff8203613b5257613b51613ae6565b5b600182019050919050565b7f496e76616c696420686f73706974616c20696421000000000000000000000000600082015250565b6000613b93601483612ab8565b9150613b9e82613b5d565b602082019050919050565b60006020820190508181036000830152613bc281613b86565b9050919050565b7f4e487b7100000000000000000000000000000000000000000000000000000000600052603260045260246000fd5b6000613c038261298d565b613c0d8185613557565b9350613c1d8185602086016129a9565b80840191505092915050565b6000613c358284613bf8565b915081905092915050565b600081519050919050565b600082825260208201905092915050565b6000819050602082019050919050565b613c7581612a1d565b82525050565b6000613c878383613c6c565b60208301905092915050565b6000602082019050919050565b6000613cab82613c40565b613cb58185613c4b565b9350613cc083613c5c565b8060005b83811015613cf1578151613cd88882613c7b565b9750613ce383613c93565b925050600181019050613cc4565b5085935050505092915050565b600081519050919050565b600082825260208201905092915050565b6000819050602082019050919050565b600082825260208201905092915050565b6000613d4682612aad565b613d508185613d2a565b9350613d608185602086016129a9565b613d69816129d3565b840191505092915050565b6000613d808383613d3b565b905092915050565b6000602082019050919050565b6000613da082613cfe565b613daa8185613d09565b935083602082028501613dbc85613d1a565b8060005b85811015613df85784840389528151613dd98582613d74565b9450613de483613d88565b925060208a01995050600181019050613dc0565b50829750879550505050505092915050565b60006080820190508181036000830152613e248187613ca0565b90508181036020830152613e388186613ca0565b90508181036040830152613e4c8185613d95565b90508181036060830152613e608184613d95565b905095945050505050565b7f496e76616c696420646174652100000000000000000000000000000000000000600082015250565b6000613ea1600d83612ab8565b9150613eac82613e6b565b602082019050919050565b60006020820190508181036000830152613ed081613e94565b9050919050565b6000613ee282612a1d565b9150613eed83612a1d565b9250828201905080821115613f0557613f04613ae6565b5b92915050565b6000819050919050565b613f26613f2182612a1d565b613f0b565b82525050565b6000613f388285613f15565b602082019150613f488284613f15565b6020820191508190509392505050565b60008190508160005260206000209050919050565b601f821115613fae57613f7f81613f58565b613f88846137eb565b81016020851015613f97578190505b613fab613fa3856137eb565b8301826138d2565b50505b505050565b613fbc82612aad565b67ffffffffffffffff811115613fd557613fd4612c37565b5b613fdf8254613526565b613fea828285613f6d565b600060209050601f83116001811461401d576000841561400b578287015190505b6140158582613966565b86555061407d565b601f19841661402b86613f58565b60005b828110156140535784890151825560018201915060208501945060208101905061402e565b86831015614070578489015161406c601f891682613948565b8355505b6001600288020188555050505b505050505050565b7f496e76616c696420726571756573742069642100000000000000000000000000600082015250565b60006140bb601383612ab8565b91506140c682614085565b602082019050919050565b600060208201905081810360008301526140ea816140ae565b9050919050565b7f556e617574686f72697a65642100000000000000000000000000000000000000600082015250565b6000614127600d83612ab8565b9150614132826140f1565b602082019050919050565b600060208201905081810360008301526141568161411a565b9050919050565b7f4e6f742072657175657374207965742100000000000000000000000000000000600082015250565b6000614193601083612ab8565b915061419e8261415d565b602082019050919050565b600060208201905081810360008301526141c281614186565b9050919050565b60006141dc6141d784612cb2565b612c97565b9050828152602081018484840111156141f8576141f7612c32565b5b6142038482856129a9565b509392505050565b600082601f8301126142205761421f612c2d565b5b81516142308482602086016141c9565b91505092915050565b600080604083850312156142505761424f612920565b5b600083015167ffffffffffffffff81111561426e5761426d612925565b5b61427a8582860161420b565b925050602083015167ffffffffffffffff81111561429b5761429a612925565b5b6142a78582860161420b565b915050925092905056fea2646970667358221220e5c5076a8dccb7f1d5a7347b2181eeea237ca526cbad1f6e32693ca80f2524c664736f6c63430008120033",
			"opcodes": "PUSH1 0x80 PUSH1 0x40 MSTORE PUSH1 0x0 DUP1 SSTORE PUSH1 0x0 PUSH1 0x3 SSTORE PUSH1 0x0 PUSH1 0x7 SSTORE PUSH1 0x0 PUSH1 0x8 SSTORE CALLVALUE DUP1 ISZERO PUSH2 0x23 JUMPI PUSH1 0x0 DUP1 REVERT JUMPDEST POP PUSH2 0x42E7 DUP1 PUSH2 0x33 PUSH1 0x0 CODECOPY PUSH1 0x0 RETURN INVALID PUSH1 0x80 PUSH1 0x40 MSTORE PUSH1 0x4 CALLDATASIZE LT PUSH2 0xFE JUMPI PUSH1 0x0 CALLDATALOAD PUSH1 0xE0 SHR DUP1 PUSH4 0x66E918B8 GT PUSH2 0x95 JUMPI DUP1 PUSH4 0xD48794AF GT PUSH2 0x64 JUMPI DUP1 PUSH4 0xD48794AF EQ PUSH2 0x3A0 JUMPI DUP1 PUSH4 0xD4C85366 EQ PUSH2 0x3DD JUMPI DUP1 PUSH4 0xF043E745 EQ PUSH2 0x41A JUMPI DUP1 PUSH4 0xF29A6F44 EQ PUSH2 0x457 JUMPI DUP1 PUSH4 0xF38C6BB6 EQ PUSH2 0x494 JUMPI PUSH2 0xFE JUMP JUMPDEST DUP1 PUSH4 0x66E918B8 EQ PUSH2 0x2C0 JUMPI DUP1 PUSH4 0x74946460 EQ PUSH2 0x2FD JUMPI DUP1 PUSH4 0x9CB3D01F EQ PUSH2 0x33A JUMPI DUP1 PUSH4 0xCA630E1F EQ PUSH2 0x377 JUMPI PUSH2 0xFE JUMP JUMPDEST DUP1 PUSH4 0x29EFB4A9 GT PUSH2 0xD1 JUMPI DUP1 PUSH4 0x29EFB4A9 EQ PUSH2 0x1ED JUMPI DUP1 PUSH4 0x2A177158 EQ PUSH2 0x22A JUMPI DUP1 PUSH4 0x3FFBD47F EQ PUSH2 0x267 JUMPI DUP1 PUSH4 0x452BA754 EQ PUSH2 0x297 JUMPI PUSH2 0xFE JUMP JUMPDEST DUP1 PUSH4 0x109075F1 EQ PUSH2 0x103 JUMPI DUP1 PUSH4 0x10AB2570 EQ PUSH2 0x145 JUMPI DUP1 PUSH4 0x1E8993D9 EQ PUSH2 0x182 JUMPI DUP1 PUSH4 0x28DE3C9B EQ PUSH2 0x1AB JUMPI JUMPDEST PUSH1 0x0 DUP1 REVERT JUMPDEST CALLVALUE DUP1 ISZERO PUSH2 0x10F JUMPI PUSH1 0x0 DUP1 REVERT JUMPDEST POP PUSH2 0x12A PUSH1 0x4 DUP1 CALLDATASIZE SUB DUP2 ADD SWAP1 PUSH2 0x125 SWAP2 SWAP1 PUSH2 0x2960 JUMP JUMPDEST PUSH2 0x4D1 JUMP JUMPDEST PUSH1 0x40 MLOAD PUSH2 0x13C SWAP7 SWAP6 SWAP5 SWAP4 SWAP3 SWAP2 SWAP1 PUSH2 0x2B02 JUMP JUMPDEST PUSH1 0x40 MLOAD DUP1 SWAP2 SUB SWAP1 RETURN JUMPDEST CALLVALUE DUP1 ISZERO PUSH2 0x151 JUMPI PUSH1 0x0 DUP1 REVERT JUMPDEST POP PUSH2 0x16C PUSH1 0x4 DUP1 CALLDATASIZE SUB DUP2 ADD SWAP1 PUSH2 0x167 SWAP2 SWAP1 PUSH2 0x2BA4 JUMP JUMPDEST PUSH2 0x6B2 JUMP JUMPDEST PUSH1 0x40 MLOAD PUSH2 0x179 SWAP2 SWAP1 PUSH2 0x2C12 JUMP JUMPDEST PUSH1 0x40 MLOAD DUP1 SWAP2 SUB SWAP1 RETURN JUMPDEST CALLVALUE DUP1 ISZERO PUSH2 0x18E JUMPI PUSH1 0x0 DUP1 REVERT JUMPDEST POP PUSH2 0x1A9 PUSH1 0x4 DUP1 CALLDATASIZE SUB DUP2 ADD SWAP1 PUSH2 0x1A4 SWAP2 SWAP1 PUSH2 0x2D62 JUMP JUMPDEST PUSH2 0x6F2 JUMP JUMPDEST STOP JUMPDEST CALLVALUE DUP1 ISZERO PUSH2 0x1B7 JUMPI PUSH1 0x0 DUP1 REVERT JUMPDEST POP PUSH2 0x1D2 PUSH1 0x4 DUP1 CALLDATASIZE SUB DUP2 ADD SWAP1 PUSH2 0x1CD SWAP2 SWAP1 PUSH2 0x2BA4 JUMP JUMPDEST PUSH2 0x897 JUMP JUMPDEST PUSH1 0x40 MLOAD PUSH2 0x1E4 SWAP7 SWAP6 SWAP5 SWAP4 SWAP3 SWAP2 SWAP1 PUSH2 0x2DED JUMP JUMPDEST PUSH1 0x40 MLOAD DUP1 SWAP2 SUB SWAP1 RETURN JUMPDEST CALLVALUE DUP1 ISZERO PUSH2 0x1F9 JUMPI PUSH1 0x0 DUP1 REVERT JUMPDEST POP PUSH2 0x214 PUSH1 0x4 DUP1 CALLDATASIZE SUB DUP2 ADD SWAP1 PUSH2 0x20F SWAP2 SWAP1 PUSH2 0x2F12 JUMP JUMPDEST PUSH2 0xB7B JUMP JUMPDEST PUSH1 0x40 MLOAD PUSH2 0x221 SWAP2 SWAP1 PUSH2 0x2F5B JUMP JUMPDEST PUSH1 0x40 MLOAD DUP1 SWAP2 SUB SWAP1 RETURN JUMPDEST CALLVALUE DUP1 ISZERO PUSH2 0x236 JUMPI PUSH1 0x0 DUP1 REVERT JUMPDEST POP PUSH2 0x251 PUSH1 0x4 DUP1 CALLDATASIZE SUB DUP2 ADD SWAP1 PUSH2 0x24C SWAP2 SWAP1 PUSH2 0x2FA2 JUMP JUMPDEST PUSH2 0xBAF JUMP JUMPDEST PUSH1 0x40 MLOAD PUSH2 0x25E SWAP2 SWAP1 PUSH2 0x2FCF JUMP JUMPDEST PUSH1 0x40 MLOAD DUP1 SWAP2 SUB SWAP1 RETURN JUMPDEST PUSH2 0x281 PUSH1 0x4 DUP1 CALLDATASIZE SUB DUP2 ADD SWAP1 PUSH2 0x27C SWAP2 SWAP1 PUSH2 0x2FEA JUMP JUMPDEST PUSH2 0xBF8 JUMP JUMPDEST PUSH1 0x40 MLOAD PUSH2 0x28E SWAP2 SWAP1 PUSH2 0x2FCF JUMP JUMPDEST PUSH1 0x40 MLOAD DUP1 SWAP2 SUB SWAP1 RETURN JUMPDEST CALLVALUE DUP1 ISZERO PUSH2 0x2A3 JUMPI PUSH1 0x0 DUP1 REVERT JUMPDEST POP PUSH2 0x2BE PUSH1 0x4 DUP1 CALLDATASIZE SUB DUP2 ADD SWAP1 PUSH2 0x2B9 SWAP2 SWAP1 PUSH2 0x3062 JUMP JUMPDEST PUSH2 0xDE9 JUMP JUMPDEST STOP JUMPDEST CALLVALUE DUP1 ISZERO PUSH2 0x2CC JUMPI PUSH1 0x0 DUP1 REVERT JUMPDEST POP PUSH2 0x2E7 PUSH1 0x4 DUP1 CALLDATASIZE SUB DUP2 ADD SWAP1 PUSH2 0x2E2 SWAP2 SWAP1 PUSH2 0x30E3 JUMP JUMPDEST PUSH2 0x14C3 JUMP JUMPDEST PUSH1 0x40 MLOAD PUSH2 0x2F4 SWAP2 SWAP1 PUSH2 0x31C4 JUMP JUMPDEST PUSH1 0x40 MLOAD DUP1 SWAP2 SUB SWAP1 RETURN JUMPDEST CALLVALUE DUP1 ISZERO PUSH2 0x309 JUMPI PUSH1 0x0 DUP1 REVERT JUMPDEST POP PUSH2 0x324 PUSH1 0x4 DUP1 CALLDATASIZE SUB DUP2 ADD SWAP1 PUSH2 0x31F SWAP2 SWAP1 PUSH2 0x31E6 JUMP JUMPDEST PUSH2 0x190D JUMP JUMPDEST PUSH1 0x40 MLOAD PUSH2 0x331 SWAP2 SWAP1 PUSH2 0x2FCF JUMP JUMPDEST PUSH1 0x40 MLOAD DUP1 SWAP2 SUB SWAP1 RETURN JUMPDEST CALLVALUE DUP1 ISZERO PUSH2 0x346 JUMPI PUSH1 0x0 DUP1 REVERT JUMPDEST POP PUSH2 0x361 PUSH1 0x4 DUP1 CALLDATASIZE SUB DUP2 ADD SWAP1 PUSH2 0x35C SWAP2 SWAP1 PUSH2 0x3330 JUMP JUMPDEST PUSH2 0x1AE2 JUMP JUMPDEST PUSH1 0x40 MLOAD PUSH2 0x36E SWAP2 SWAP1 PUSH2 0x31C4 JUMP JUMPDEST PUSH1 0x40 MLOAD DUP1 SWAP2 SUB SWAP1 RETURN JUMPDEST CALLVALUE DUP1 ISZERO PUSH2 0x383 JUMPI PUSH1 0x0 DUP1 REVERT JUMPDEST POP PUSH2 0x39E PUSH1 0x4 DUP1 CALLDATASIZE SUB DUP2 ADD SWAP1 PUSH2 0x399 SWAP2 SWAP1 PUSH2 0x2D62 JUMP JUMPDEST PUSH2 0x1E65 JUMP JUMPDEST STOP JUMPDEST CALLVALUE DUP1 ISZERO PUSH2 0x3AC JUMPI PUSH1 0x0 DUP1 REVERT JUMPDEST POP PUSH2 0x3C7 PUSH1 0x4 DUP1 CALLDATASIZE SUB DUP2 ADD SWAP1 PUSH2 0x3C2 SWAP2 SWAP1 PUSH2 0x3383 JUMP JUMPDEST PUSH2 0x1FE9 JUMP JUMPDEST PUSH1 0x40 MLOAD PUSH2 0x3D4 SWAP2 SWAP1 PUSH2 0x31C4 JUMP JUMPDEST PUSH1 0x40 MLOAD DUP1 SWAP2 SUB SWAP1 RETURN JUMPDEST CALLVALUE DUP1 ISZERO PUSH2 0x3E9 JUMPI PUSH1 0x0 DUP1 REVERT JUMPDEST POP PUSH2 0x404 PUSH1 0x4 DUP1 CALLDATASIZE SUB DUP2 ADD SWAP1 PUSH2 0x3FF SWAP2 SWAP1 PUSH2 0x2F12 JUMP JUMPDEST PUSH2 0x24AA JUMP JUMPDEST PUSH1 0x40 MLOAD PUSH2 0x411 SWAP2 SWAP1 PUSH2 0x3436 JUMP JUMPDEST PUSH1 0x40 MLOAD DUP1 SWAP2 SUB SWAP1 RETURN JUMPDEST CALLVALUE DUP1 ISZERO PUSH2 0x426 JUMPI PUSH1 0x0 DUP1 REVERT JUMPDEST POP PUSH2 0x441 PUSH1 0x4 DUP1 CALLDATASIZE SUB DUP2 ADD SWAP1 PUSH2 0x43C SWAP2 SWAP1 PUSH2 0x3458 JUMP JUMPDEST PUSH2 0x256F JUMP JUMPDEST PUSH1 0x40 MLOAD PUSH2 0x44E SWAP2 SWAP1 PUSH2 0x2FCF JUMP JUMPDEST PUSH1 0x40 MLOAD DUP1 SWAP2 SUB SWAP1 RETURN JUMPDEST CALLVALUE DUP1 ISZERO PUSH2 0x463 JUMPI PUSH1 0x0 DUP1 REVERT JUMPDEST POP PUSH2 0x47E PUSH1 0x4 DUP1 CALLDATASIZE SUB DUP2 ADD SWAP1 PUSH2 0x479 SWAP2 SWAP1 PUSH2 0x2F12 JUMP JUMPDEST PUSH2 0x26E6 JUMP JUMPDEST PUSH1 0x40 MLOAD PUSH2 0x48B SWAP2 SWAP1 PUSH2 0x3436 JUMP JUMPDEST PUSH1 0x40 MLOAD DUP1 SWAP2 SUB SWAP1 RETURN JUMPDEST CALLVALUE DUP1 ISZERO PUSH2 0x4A0 JUMPI PUSH1 0x0 DUP1 REVERT JUMPDEST POP PUSH2 0x4BB PUSH1 0x4 DUP1 CALLDATASIZE SUB DUP2 ADD SWAP1 PUSH2 0x4B6 SWAP2 SWAP1 PUSH2 0x2BA4 JUMP JUMPDEST PUSH2 0x27AB JUMP JUMPDEST PUSH1 0x40 MLOAD PUSH2 0x4C8 SWAP2 SWAP1 PUSH2 0x3436 JUMP JUMPDEST PUSH1 0x40 MLOAD DUP1 SWAP2 SUB SWAP1 RETURN JUMPDEST PUSH1 0x1 PUSH1 0x20 MSTORE DUP1 PUSH1 0x0 MSTORE PUSH1 0x40 PUSH1 0x0 KECCAK256 PUSH1 0x0 SWAP2 POP SWAP1 POP DUP1 PUSH1 0x0 ADD DUP1 SLOAD PUSH2 0x4F4 SWAP1 PUSH2 0x3526 JUMP JUMPDEST DUP1 PUSH1 0x1F ADD PUSH1 0x20 DUP1 SWAP2 DIV MUL PUSH1 0x20 ADD PUSH1 0x40 MLOAD SWAP1 DUP2 ADD PUSH1 0x40 MSTORE DUP1 SWAP3 SWAP2 SWAP1 DUP2 DUP2 MSTORE PUSH1 0x20 ADD DUP3 DUP1 SLOAD PUSH2 0x520 SWAP1 PUSH2 0x3526 JUMP JUMPDEST DUP1 ISZERO PUSH2 0x56D JUMPI DUP1 PUSH1 0x1F LT PUSH2 0x542 JUMPI PUSH2 0x100 DUP1 DUP4 SLOAD DIV MUL DUP4 MSTORE SWAP2 PUSH1 0x20 ADD SWAP2 PUSH2 0x56D JUMP JUMPDEST DUP3 ADD SWAP2 SWAP1 PUSH1 0x0 MSTORE PUSH1 0x20 PUSH1 0x0 KECCAK256 SWAP1 JUMPDEST DUP2 SLOAD DUP2 MSTORE SWAP1 PUSH1 0x1 ADD SWAP1 PUSH1 0x20 ADD DUP1 DUP4 GT PUSH2 0x550 JUMPI DUP3 SWAP1 SUB PUSH1 0x1F AND DUP3 ADD SWAP2 JUMPDEST POP POP POP POP POP SWAP1 DUP1 PUSH1 0x1 ADD SLOAD SWAP1 DUP1 PUSH1 0x2 ADD SLOAD SWAP1 DUP1 PUSH1 0x3 ADD PUSH1 0x0 SWAP1 SLOAD SWAP1 PUSH2 0x100 EXP SWAP1 DIV PUSH1 0xFF AND SWAP1 DUP1 PUSH1 0x4 ADD DUP1 SLOAD PUSH2 0x5A1 SWAP1 PUSH2 0x3526 JUMP JUMPDEST DUP1 PUSH1 0x1F ADD PUSH1 0x20 DUP1 SWAP2 DIV MUL PUSH1 0x20 ADD PUSH1 0x40 MLOAD SWAP1 DUP2 ADD PUSH1 0x40 MSTORE DUP1 SWAP3 SWAP2 SWAP1 DUP2 DUP2 MSTORE PUSH1 0x20 ADD DUP3 DUP1 SLOAD PUSH2 0x5CD SWAP1 PUSH2 0x3526 JUMP JUMPDEST DUP1 ISZERO PUSH2 0x61A JUMPI DUP1 PUSH1 0x1F LT PUSH2 0x5EF JUMPI PUSH2 0x100 DUP1 DUP4 SLOAD DIV MUL DUP4 MSTORE SWAP2 PUSH1 0x20 ADD SWAP2 PUSH2 0x61A JUMP JUMPDEST DUP3 ADD SWAP2 SWAP1 PUSH1 0x0 MSTORE PUSH1 0x20 PUSH1 0x0 KECCAK256 SWAP1 JUMPDEST DUP2 SLOAD DUP2 MSTORE SWAP1 PUSH1 0x1 ADD SWAP1 PUSH1 0x20 ADD DUP1 DUP4 GT PUSH2 0x5FD JUMPI DUP3 SWAP1 SUB PUSH1 0x1F AND DUP3 ADD SWAP2 JUMPDEST POP POP POP POP POP SWAP1 DUP1 PUSH1 0x5 ADD DUP1 SLOAD PUSH2 0x62F SWAP1 PUSH2 0x3526 JUMP JUMPDEST DUP1 PUSH1 0x1F ADD PUSH1 0x20 DUP1 SWAP2 DIV MUL PUSH1 0x20 ADD PUSH1 0x40 MLOAD SWAP1 DUP2 ADD PUSH1 0x40 MSTORE DUP1 SWAP3 SWAP2 SWAP1 DUP2 DUP2 MSTORE PUSH1 0x20 ADD DUP3 DUP1 SLOAD PUSH2 0x65B SWAP1 PUSH2 0x3526 JUMP JUMPDEST DUP1 ISZERO PUSH2 0x6A8 JUMPI DUP1 PUSH1 0x1F LT PUSH2 0x67D JUMPI PUSH2 0x100 DUP1 DUP4 SLOAD DIV MUL DUP4 MSTORE SWAP2 PUSH1 0x20 ADD SWAP2 PUSH2 0x6A8 JUMP JUMPDEST DUP3 ADD SWAP2 SWAP1 PUSH1 0x0 MSTORE PUSH1 0x20 PUSH1 0x0 KECCAK256 SWAP1 JUMPDEST DUP2 SLOAD DUP2 MSTORE SWAP1 PUSH1 0x1 ADD SWAP1 PUSH1 0x20 ADD DUP1 DUP4 GT PUSH2 0x68B JUMPI DUP3 SWAP1 SUB PUSH1 0x1F AND DUP3 ADD SWAP2 JUMPDEST POP POP POP POP POP SWAP1 POP DUP7 JUMP JUMPDEST PUSH1 0x0 PUSH1 0x4 PUSH1 0x0 DUP4 DUP2 MSTORE PUSH1 0x20 ADD SWAP1 DUP2 MSTORE PUSH1 0x20 ADD PUSH1 0x0 KECCAK256 PUSH1 0x0 ADD PUSH1 0x0 SWAP1 SLOAD SWAP1 PUSH2 0x100 EXP SWAP1 DIV PUSH20 0xFFFFFFFFFFFFFFFFFFFFFFFFFFFFFFFFFFFFFFFF AND SWAP1 POP SWAP2 SWAP1 POP JUMP JUMPDEST DUP3 DUP3 PUSH1 0x4 PUSH1 0x0 DUP4 DUP2 MSTORE PUSH1 0x20 ADD SWAP1 DUP2 MSTORE PUSH1 0x20 ADD PUSH1 0x0 KECCAK256 PUSH1 0x2 ADD PUSH1 0x40 MLOAD PUSH2 0x717 SWAP2 SWAP1 PUSH2 0x35FA JUMP JUMPDEST PUSH1 0x40 MLOAD DUP1 SWAP2 SUB SWAP1 KECCAK256 DUP2 PUSH1 0x40 MLOAD PUSH1 0x20 ADD PUSH2 0x730 SWAP2 SWAP1 PUSH2 0x365D JUMP JUMPDEST PUSH1 0x40 MLOAD PUSH1 0x20 DUP2 DUP4 SUB SUB DUP2 MSTORE SWAP1 PUSH1 0x40 MSTORE DUP1 MLOAD SWAP1 PUSH1 0x20 ADD KECCAK256 EQ PUSH2 0x786 JUMPI PUSH1 0x40 MLOAD PUSH32 0x8C379A000000000000000000000000000000000000000000000000000000000 DUP2 MSTORE PUSH1 0x4 ADD PUSH2 0x77D SWAP1 PUSH2 0x36DE JUMP JUMPDEST PUSH1 0x40 MLOAD DUP1 SWAP2 SUB SWAP1 REVERT JUMPDEST DUP3 PUSH1 0x9 DUP2 MLOAD EQ PUSH2 0x7CB JUMPI PUSH1 0x40 MLOAD PUSH32 0x8C379A000000000000000000000000000000000000000000000000000000000 DUP2 MSTORE PUSH1 0x4 ADD PUSH2 0x7C2 SWAP1 PUSH2 0x374A JUMP JUMPDEST PUSH1 0x40 MLOAD DUP1 SWAP2 SUB SWAP1 REVERT JUMPDEST CALLER PUSH1 0x4 PUSH1 0x0 DUP9 DUP2 MSTORE PUSH1 0x20 ADD SWAP1 DUP2 MSTORE PUSH1 0x20 ADD PUSH1 0x0 KECCAK256 PUSH1 0x0 ADD PUSH1 0x0 PUSH2 0x100 EXP DUP2 SLOAD DUP2 PUSH20 0xFFFFFFFFFFFFFFFFFFFFFFFFFFFFFFFFFFFFFFFF MUL NOT AND SWAP1 DUP4 PUSH20 0xFFFFFFFFFFFFFFFFFFFFFFFFFFFFFFFFFFFFFFFF AND MUL OR SWAP1 SSTORE POP DUP4 PUSH1 0x40 MLOAD PUSH1 0x20 ADD PUSH2 0x831 SWAP2 SWAP1 PUSH2 0x37B6 JUMP JUMPDEST PUSH1 0x40 MLOAD PUSH1 0x20 DUP2 DUP4 SUB SUB DUP2 MSTORE SWAP1 PUSH1 0x40 MSTORE PUSH1 0x4 PUSH1 0x0 DUP9 DUP2 MSTORE PUSH1 0x20 ADD SWAP1 DUP2 MSTORE PUSH1 0x20 ADD PUSH1 0x0 KECCAK256 PUSH1 0x1 ADD SWAP1 DUP2 PUSH2 0x862 SWAP2 SWAP1 PUSH2 0x3982 JUMP JUMPDEST POP PUSH32 0xDC5F6B9352635161A74876313A5729A4D33D34F1F65E69809E2E4275FB16BE55 PUSH1 0x40 MLOAD PUSH1 0x40 MLOAD DUP1 SWAP2 SUB SWAP1 LOG1 POP POP POP POP POP POP JUMP JUMPDEST PUSH1 0x2 PUSH1 0x20 MSTORE DUP1 PUSH1 0x0 MSTORE PUSH1 0x40 PUSH1 0x0 KECCAK256 PUSH1 0x0 SWAP2 POP SWAP1 POP DUP1 PUSH1 0x0 ADD SLOAD SWAP1 DUP1 PUSH1 0x1 ADD DUP1 SLOAD PUSH2 0x8C0 SWAP1 PUSH2 0x3526 JUMP JUMPDEST DUP1 PUSH1 0x1F ADD PUSH1 0x20 DUP1 SWAP2 DIV MUL PUSH1 0x20 ADD PUSH1 0x40 MLOAD SWAP1 DUP2 ADD PUSH1 0x40 MSTORE DUP1 SWAP3 SWAP2 SWAP1 DUP2 DUP2 MSTORE PUSH1 0x20 ADD DUP3 DUP1 SLOAD PUSH2 0x8EC SWAP1 PUSH2 0x3526 JUMP JUMPDEST DUP1 ISZERO PUSH2 0x939 JUMPI DUP1 PUSH1 0x1F LT PUSH2 0x90E JUMPI PUSH2 0x100 DUP1 DUP4 SLOAD DIV MUL DUP4 MSTORE SWAP2 PUSH1 0x20 ADD SWAP2 PUSH2 0x939 JUMP JUMPDEST DUP3 ADD SWAP2 SWAP1 PUSH1 0x0 MSTORE PUSH1 0x20 PUSH1 0x0 KECCAK256 SWAP1 JUMPDEST DUP2 SLOAD DUP2 MSTORE SWAP1 PUSH1 0x1 ADD SWAP1 PUSH1 0x20 ADD DUP1 DUP4 GT PUSH2 0x91C JUMPI DUP3 SWAP1 SUB PUSH1 0x1F AND DUP3 ADD SWAP2 JUMPDEST POP POP POP POP POP SWAP1 DUP1 PUSH1 0x2 ADD DUP1 SLOAD PUSH2 0x94E SWAP1 PUSH2 0x3526 JUMP JUMPDEST DUP1 PUSH1 0x1F ADD PUSH1 0x20 DUP1 SWAP2 DIV MUL PUSH1 0x20 ADD PUSH1 0x40 MLOAD SWAP1 DUP2 ADD PUSH1 0x40 MSTORE DUP1 SWAP3 SWAP2 SWAP1 DUP2 DUP2 MSTORE PUSH1 0x20 ADD DUP3 DUP1 SLOAD PUSH2 0x97A SWAP1 PUSH2 0x3526 JUMP JUMPDEST DUP1 ISZERO PUSH2 0x9C7 JUMPI DUP1 PUSH1 0x1F LT PUSH2 0x99C JUMPI PUSH2 0x100 DUP1 DUP4 SLOAD DIV MUL DUP4 MSTORE SWAP2 PUSH1 0x20 ADD SWAP2 PUSH2 0x9C7 JUMP JUMPDEST DUP3 ADD SWAP2 SWAP1 PUSH1 0x0 MSTORE PUSH1 0x20 PUSH1 0x0 KECCAK256 SWAP1 JUMPDEST DUP2 SLOAD DUP2 MSTORE SWAP1 PUSH1 0x1 ADD SWAP1 PUSH1 0x20 ADD DUP1 DUP4 GT PUSH2 0x9AA JUMPI DUP3 SWAP1 SUB PUSH1 0x1F AND DUP3 ADD SWAP2 JUMPDEST POP POP POP POP POP SWAP1 DUP1 PUSH1 0x3 ADD DUP1 SLOAD PUSH2 0x9DC SWAP1 PUSH2 0x3526 JUMP JUMPDEST DUP1 PUSH1 0x1F ADD PUSH1 0x20 DUP1 SWAP2 DIV MUL PUSH1 0x20 ADD PUSH1 0x40 MLOAD SWAP1 DUP2 ADD PUSH1 0x40 MSTORE DUP1 SWAP3 SWAP2 SWAP1 DUP2 DUP2 MSTORE PUSH1 0x20 ADD DUP3 DUP1 SLOAD PUSH2 0xA08 SWAP1 PUSH2 0x3526 JUMP JUMPDEST DUP1 ISZERO PUSH2 0xA55 JUMPI DUP1 PUSH1 0x1F LT PUSH2 0xA2A JUMPI PUSH2 0x100 DUP1 DUP4 SLOAD DIV MUL DUP4 MSTORE SWAP2 PUSH1 0x20 ADD SWAP2 PUSH2 0xA55 JUMP JUMPDEST DUP3 ADD SWAP2 SWAP1 PUSH1 0x0 MSTORE PUSH1 0x20 PUSH1 0x0 KECCAK256 SWAP1 JUMPDEST DUP2 SLOAD DUP2 MSTORE SWAP1 PUSH1 0x1 ADD SWAP1 PUSH1 0x20 ADD DUP1 DUP4 GT PUSH2 0xA38 JUMPI DUP3 SWAP1 SUB PUSH1 0x1F AND DUP3 ADD SWAP2 JUMPDEST POP POP POP POP POP SWAP1 DUP1 PUSH1 0x4 ADD DUP1 SLOAD PUSH2 0xA6A SWAP1 PUSH2 0x3526 JUMP JUMPDEST DUP1 PUSH1 0x1F ADD PUSH1 0x20 DUP1 SWAP2 DIV MUL PUSH1 0x20 ADD PUSH1 0x40 MLOAD SWAP1 DUP2 ADD PUSH1 0x40 MSTORE DUP1 SWAP3 SWAP2 SWAP1 DUP2 DUP2 MSTORE PUSH1 0x20 ADD DUP3 DUP1 SLOAD PUSH2 0xA96 SWAP1 PUSH2 0x3526 JUMP JUMPDEST DUP1 ISZERO PUSH2 0xAE3 JUMPI DUP1 PUSH1 0x1F LT PUSH2 0xAB8 JUMPI PUSH2 0x100 DUP1 DUP4 SLOAD DIV MUL DUP4 MSTORE SWAP2 PUSH1 0x20 ADD SWAP2 PUSH2 0xAE3 JUMP JUMPDEST DUP3 ADD SWAP2 SWAP1 PUSH1 0x0 MSTORE PUSH1 0x20 PUSH1 0x0 KECCAK256 SWAP1 JUMPDEST DUP2 SLOAD DUP2 MSTORE SWAP1 PUSH1 0x1 ADD SWAP1 PUSH1 0x20 ADD DUP1 DUP4 GT PUSH2 0xAC6 JUMPI DUP3 SWAP1 SUB PUSH1 0x1F AND DUP3 ADD SWAP2 JUMPDEST POP POP POP POP POP SWAP1 DUP1 PUSH1 0x5 ADD DUP1 SLOAD PUSH2 0xAF8 SWAP1 PUSH2 0x3526 JUMP JUMPDEST DUP1 PUSH1 0x1F ADD PUSH1 0x20 DUP1 SWAP2 DIV MUL PUSH1 0x20 ADD PUSH1 0x40 MLOAD SWAP1 DUP2 ADD PUSH1 0x40 MSTORE DUP1 SWAP3 SWAP2 SWAP1 DUP2 DUP2 MSTORE PUSH1 0x20 ADD DUP3 DUP1 SLOAD PUSH2 0xB24 SWAP1 PUSH2 0x3526 JUMP JUMPDEST DUP1 ISZERO PUSH2 0xB71 JUMPI DUP1 PUSH1 0x1F LT PUSH2 0xB46 JUMPI PUSH2 0x100 DUP1 DUP4 SLOAD DIV MUL DUP4 MSTORE SWAP2 PUSH1 0x20 ADD SWAP2 PUSH2 0xB71 JUMP JUMPDEST DUP3 ADD SWAP2 SWAP1 PUSH1 0x0 MSTORE PUSH1 0x20 PUSH1 0x0 KECCAK256 SWAP1 JUMPDEST DUP2 SLOAD DUP2 MSTORE SWAP1 PUSH1 0x1 ADD SWAP1 PUSH1 0x20 ADD DUP1 DUP4 GT PUSH2 0xB54 JUMPI DUP3 SWAP1 SUB PUSH1 0x1F AND DUP3 ADD SWAP2 JUMPDEST POP POP POP POP POP SWAP1 POP DUP7 JUMP JUMPDEST PUSH1 0x0 PUSH1 0x1 PUSH1 0x0 DUP4 DUP1 MLOAD SWAP1 PUSH1 0x20 ADD KECCAK256 DUP2 MSTORE PUSH1 0x20 ADD SWAP1 DUP2 MSTORE PUSH1 0x20 ADD PUSH1 0x0 KECCAK256 PUSH1 0x3 ADD PUSH1 0x0 SWAP1 SLOAD SWAP1 PUSH2 0x100 EXP SWAP1 DIV PUSH1 0xFF AND SWAP1 POP SWAP2 SWAP1 POP JUMP JUMPDEST PUSH1 0x0 PUSH1 0x5 PUSH1 0x0 DUP4 PUSH20 0xFFFFFFFFFFFFFFFFFFFFFFFFFFFFFFFFFFFFFFFF AND PUSH20 0xFFFFFFFFFFFFFFFFFFFFFFFFFFFFFFFFFFFFFFFF AND DUP2 MSTORE PUSH1 0x20 ADD SWAP1 DUP2 MSTORE PUSH1 0x20 ADD PUSH1 0x0 KECCAK256 SLOAD SWAP1 POP SWAP2 SWAP1 POP JUMP JUMPDEST PUSH1 0x0 DUP3 PUSH1 0x9 DUP2 MLOAD EQ PUSH2 0xC3F JUMPI PUSH1 0x40 MLOAD PUSH32 0x8C379A000000000000000000000000000000000000000000000000000000000 DUP2 MSTORE PUSH1 0x4 ADD PUSH2 0xC36 SWAP1 PUSH2 0x374A JUMP JUMPDEST PUSH1 0x40 MLOAD DUP1 SWAP2 SUB SWAP1 REVERT JUMPDEST PUSH7 0x2386F26FC10000 CALLVALUE LT ISZERO PUSH2 0xC89 JUMPI PUSH1 0x40 MLOAD PUSH32 0x8C379A000000000000000000000000000000000000000000000000000000000 DUP2 MSTORE PUSH1 0x4 ADD PUSH2 0xC80 SWAP1 PUSH2 0x3AC6 JUMP JUMPDEST PUSH1 0x40 MLOAD DUP1 SWAP2 SUB SWAP1 REVERT JUMPDEST PUSH1 0x7 PUSH1 0x0 DUP2 SLOAD DUP1 SWAP3 SWAP2 SWAP1 PUSH2 0xC9C SWAP1 PUSH2 0x3B15 JUMP JUMPDEST SWAP2 SWAP1 POP SSTORE POP PUSH1 0x0 PUSH1 0x4 PUSH1 0x0 PUSH1 0x7 SLOAD DUP2 MSTORE PUSH1 0x20 ADD SWAP1 DUP2 MSTORE PUSH1 0x20 ADD PUSH1 0x0 KECCAK256 SWAP1 POP CALLER DUP2 PUSH1 0x0 ADD PUSH1 0x0 PUSH2 0x100 EXP DUP2 SLOAD DUP2 PUSH20 0xFFFFFFFFFFFFFFFFFFFFFFFFFFFFFFFFFFFFFFFF MUL NOT AND SWAP1 DUP4 PUSH20 0xFFFFFFFFFFFFFFFFFFFFFFFFFFFFFFFFFFFFFFFF AND MUL OR SWAP1 SSTORE POP DUP5 PUSH1 0x40 MLOAD PUSH1 0x20 ADD PUSH2 0xD0E SWAP2 SWAP1 PUSH2 0x37B6 JUMP JUMPDEST PUSH1 0x40 MLOAD PUSH1 0x20 DUP2 DUP4 SUB SUB DUP2 MSTORE SWAP1 PUSH1 0x40 MSTORE DUP2 PUSH1 0x1 ADD SWAP1 DUP2 PUSH2 0xD2D SWAP2 SWAP1 PUSH2 0x3982 JUMP JUMPDEST POP DUP4 PUSH1 0x40 MLOAD PUSH1 0x20 ADD PUSH2 0xD3F SWAP2 SWAP1 PUSH2 0x365D JUMP JUMPDEST PUSH1 0x40 MLOAD PUSH1 0x20 DUP2 DUP4 SUB SUB DUP2 MSTORE SWAP1 PUSH1 0x40 MSTORE DUP2 PUSH1 0x2 ADD SWAP1 DUP2 PUSH2 0xD5E SWAP2 SWAP1 PUSH2 0x3982 JUMP JUMPDEST POP PUSH1 0x7 SLOAD DUP2 PUSH1 0x3 ADD DUP2 SWAP1 SSTORE POP PUSH1 0x7 SLOAD PUSH1 0x5 PUSH1 0x0 CALLER PUSH20 0xFFFFFFFFFFFFFFFFFFFFFFFFFFFFFFFFFFFFFFFF AND PUSH20 0xFFFFFFFFFFFFFFFFFFFFFFFFFFFFFFFFFFFFFFFF AND DUP2 MSTORE PUSH1 0x20 ADD SWAP1 DUP2 MSTORE PUSH1 0x20 ADD PUSH1 0x0 KECCAK256 DUP2 SWAP1 SSTORE POP PUSH32 0x2DE40CE37397B7FB2D98AE62DC520D88B46E2C50BEAC9F696F11CCC6605EF3EB PUSH1 0x40 MLOAD PUSH1 0x40 MLOAD DUP1 SWAP2 SUB SWAP1 LOG1 PUSH1 0x7 SLOAD SWAP3 POP POP POP SWAP3 SWAP2 POP POP JUMP JUMPDEST DUP2 PUSH1 0x0 PUSH1 0x4 PUSH1 0x0 DUP4 DUP2 MSTORE PUSH1 0x20 ADD SWAP1 DUP2 MSTORE PUSH1 0x20 ADD PUSH1 0x0 KECCAK256 PUSH1 0x3 ADD SLOAD GT PUSH2 0xE43 JUMPI PUSH1 0x40 MLOAD PUSH32 0x8C379A000000000000000000000000000000000000000000000000000000000 DUP2 MSTORE PUSH1 0x4 ADD PUSH2 0xE3A SWAP1 PUSH2 0x3BA9 JUMP JUMPDEST PUSH1 0x40 MLOAD DUP1 SWAP2 SUB SWAP1 REVERT JUMPDEST DUP3 DUP3 PUSH1 0x4 PUSH1 0x0 DUP4 DUP2 MSTORE PUSH1 0x20 ADD SWAP1 DUP2 MSTORE PUSH1 0x20 ADD PUSH1 0x0 KECCAK256 PUSH1 0x2 ADD PUSH1 0x40 MLOAD PUSH2 0xE68 SWAP2 SWAP1 PUSH2 0x35FA JUMP JUMPDEST PUSH1 0x40 MLOAD DUP1 SWAP2 SUB SWAP1 KECCAK256 DUP2 PUSH1 0x40 MLOAD PUSH1 0x20 ADD PUSH2 0xE81 SWAP2 SWAP1 PUSH2 0x365D JUMP JUMPDEST PUSH1 0x40 MLOAD PUSH1 0x20 DUP2 DUP4 SUB SUB DUP2 MSTORE SWAP1 PUSH1 0x40 MSTORE DUP1 MLOAD SWAP1 PUSH1 0x20 ADD KECCAK256 EQ PUSH2 0xED7 JUMPI PUSH1 0x40 MLOAD PUSH32 0x8C379A000000000000000000000000000000000000000000000000000000000 DUP2 MSTORE PUSH1 0x4 ADD PUSH2 0xECE SWAP1 PUSH2 0x36DE JUMP JUMPDEST PUSH1 0x40 MLOAD DUP1 SWAP2 SUB SWAP1 REVERT JUMPDEST PUSH1 0x0 PUSH1 0x8 SLOAD PUSH8 0xFFFFFFFFFFFFFFFF DUP2 GT ISZERO PUSH2 0xEF5 JUMPI PUSH2 0xEF4 PUSH2 0x2C37 JUMP JUMPDEST JUMPDEST PUSH1 0x40 MLOAD SWAP1 DUP1 DUP3 MSTORE DUP1 PUSH1 0x20 MUL PUSH1 0x20 ADD DUP3 ADD PUSH1 0x40 MSTORE DUP1 ISZERO PUSH2 0xF23 JUMPI DUP2 PUSH1 0x20 ADD PUSH1 0x20 DUP3 MUL DUP1 CALLDATASIZE DUP4 CALLDATACOPY DUP1 DUP3 ADD SWAP2 POP POP SWAP1 POP JUMPDEST POP SWAP1 POP PUSH1 0x0 PUSH1 0x8 SLOAD PUSH8 0xFFFFFFFFFFFFFFFF DUP2 GT ISZERO PUSH2 0xF44 JUMPI PUSH2 0xF43 PUSH2 0x2C37 JUMP JUMPDEST JUMPDEST PUSH1 0x40 MLOAD SWAP1 DUP1 DUP3 MSTORE DUP1 PUSH1 0x20 MUL PUSH1 0x20 ADD DUP3 ADD PUSH1 0x40 MSTORE DUP1 ISZERO PUSH2 0xF72 JUMPI DUP2 PUSH1 0x20 ADD PUSH1 0x20 DUP3 MUL DUP1 CALLDATASIZE DUP4 CALLDATACOPY DUP1 DUP3 ADD SWAP2 POP POP SWAP1 POP JUMPDEST POP SWAP1 POP PUSH1 0x0 PUSH1 0x8 SLOAD PUSH8 0xFFFFFFFFFFFFFFFF DUP2 GT ISZERO PUSH2 0xF93 JUMPI PUSH2 0xF92 PUSH2 0x2C37 JUMP JUMPDEST JUMPDEST PUSH1 0x40 MLOAD SWAP1 DUP1 DUP3 MSTORE DUP1 PUSH1 0x20 MUL PUSH1 0x20 ADD DUP3 ADD PUSH1 0x40 MSTORE DUP1 ISZERO PUSH2 0xFC6 JUMPI DUP2 PUSH1 0x20 ADD JUMPDEST PUSH1 0x60 DUP2 MSTORE PUSH1 0x20 ADD SWAP1 PUSH1 0x1 SWAP1 SUB SWAP1 DUP2 PUSH2 0xFB1 JUMPI SWAP1 POP JUMPDEST POP SWAP1 POP PUSH1 0x0 PUSH1 0x8 SLOAD PUSH8 0xFFFFFFFFFFFFFFFF DUP2 GT ISZERO PUSH2 0xFE7 JUMPI PUSH2 0xFE6 PUSH2 0x2C37 JUMP JUMPDEST JUMPDEST PUSH1 0x40 MLOAD SWAP1 DUP1 DUP3 MSTORE DUP1 PUSH1 0x20 MUL PUSH1 0x20 ADD DUP3 ADD PUSH1 0x40 MSTORE DUP1 ISZERO PUSH2 0x101A JUMPI DUP2 PUSH1 0x20 ADD JUMPDEST PUSH1 0x60 DUP2 MSTORE PUSH1 0x20 ADD SWAP1 PUSH1 0x1 SWAP1 SUB SWAP1 DUP2 PUSH2 0x1005 JUMPI SWAP1 POP JUMPDEST POP SWAP1 POP PUSH1 0x0 PUSH1 0x6 PUSH1 0x0 DUP12 DUP2 MSTORE PUSH1 0x20 ADD SWAP1 DUP2 MSTORE PUSH1 0x20 ADD PUSH1 0x0 KECCAK256 DUP1 SLOAD DUP1 PUSH1 0x20 MUL PUSH1 0x20 ADD PUSH1 0x40 MLOAD SWAP1 DUP2 ADD PUSH1 0x40 MSTORE DUP1 SWAP3 SWAP2 SWAP1 DUP2 DUP2 MSTORE PUSH1 0x20 ADD DUP3 DUP1 SLOAD DUP1 ISZERO PUSH2 0x107C JUMPI PUSH1 0x20 MUL DUP3 ADD SWAP2 SWAP1 PUSH1 0x0 MSTORE PUSH1 0x20 PUSH1 0x0 KECCAK256 SWAP1 JUMPDEST DUP2 SLOAD DUP2 MSTORE PUSH1 0x20 ADD SWAP1 PUSH1 0x1 ADD SWAP1 DUP1 DUP4 GT PUSH2 0x1068 JUMPI JUMPDEST POP POP POP POP POP SWAP1 POP PUSH1 0x0 DUP1 JUMPDEST DUP3 MLOAD DUP2 LT ISZERO PUSH2 0x1478 JUMPI PUSH1 0x0 DUP4 DUP3 DUP2 MLOAD DUP2 LT PUSH2 0x10A5 JUMPI PUSH2 0x10A4 PUSH2 0x3BC9 JUMP JUMPDEST JUMPDEST PUSH1 0x20 MUL PUSH1 0x20 ADD ADD MLOAD SWAP1 POP PUSH1 0x0 PUSH1 0x4 PUSH1 0x0 DUP16 DUP2 MSTORE PUSH1 0x20 ADD SWAP1 DUP2 MSTORE PUSH1 0x20 ADD PUSH1 0x0 KECCAK256 PUSH1 0x5 ADD PUSH1 0x0 DUP4 DUP2 MSTORE PUSH1 0x20 ADD SWAP1 DUP2 MSTORE PUSH1 0x20 ADD PUSH1 0x0 KECCAK256 DUP1 SLOAD DUP1 PUSH1 0x20 MUL PUSH1 0x20 ADD PUSH1 0x40 MLOAD SWAP1 DUP2 ADD PUSH1 0x40 MSTORE DUP1 SWAP3 SWAP2 SWAP1 DUP2 DUP2 MSTORE PUSH1 0x20 ADD PUSH1 0x0 SWAP1 JUMPDEST DUP3 DUP3 LT ISZERO PUSH2 0x12F4 JUMPI DUP4 DUP3 SWAP1 PUSH1 0x0 MSTORE PUSH1 0x20 PUSH1 0x0 KECCAK256 SWAP1 PUSH1 0x5 MUL ADD PUSH1 0x40 MLOAD DUP1 PUSH1 0xA0 ADD PUSH1 0x40 MSTORE SWAP1 DUP2 PUSH1 0x0 DUP3 ADD SLOAD DUP2 MSTORE PUSH1 0x20 ADD PUSH1 0x1 DUP3 ADD SLOAD DUP2 MSTORE PUSH1 0x20 ADD PUSH1 0x2 DUP3 ADD DUP1 SLOAD PUSH2 0x113F SWAP1 PUSH2 0x3526 JUMP JUMPDEST DUP1 PUSH1 0x1F ADD PUSH1 0x20 DUP1 SWAP2 DIV MUL PUSH1 0x20 ADD PUSH1 0x40 MLOAD SWAP1 DUP2 ADD PUSH1 0x40 MSTORE DUP1 SWAP3 SWAP2 SWAP1 DUP2 DUP2 MSTORE PUSH1 0x20 ADD DUP3 DUP1 SLOAD PUSH2 0x116B SWAP1 PUSH2 0x3526 JUMP JUMPDEST DUP1 ISZERO PUSH2 0x11B8 JUMPI DUP1 PUSH1 0x1F LT PUSH2 0x118D JUMPI PUSH2 0x100 DUP1 DUP4 SLOAD DIV MUL DUP4 MSTORE SWAP2 PUSH1 0x20 ADD SWAP2 PUSH2 0x11B8 JUMP JUMPDEST DUP3 ADD SWAP2 SWAP1 PUSH1 0x0 MSTORE PUSH1 0x20 PUSH1 0x0 KECCAK256 SWAP1 JUMPDEST DUP2 SLOAD DUP2 MSTORE SWAP1 PUSH1 0x1 ADD SWAP1 PUSH1 0x20 ADD DUP1 DUP4 GT PUSH2 0x119B JUMPI DUP3 SWAP1 SUB PUSH1 0x1F AND DUP3 ADD SWAP2 JUMPDEST POP POP POP POP POP DUP2 MSTORE PUSH1 0x20 ADD PUSH1 0x3 DUP3 ADD DUP1 SLOAD PUSH2 0x11D1 SWAP1 PUSH2 0x3526 JUMP JUMPDEST DUP1 PUSH1 0x1F ADD PUSH1 0x20 DUP1 SWAP2 DIV MUL PUSH1 0x20 ADD PUSH1 0x40 MLOAD SWAP1 DUP2 ADD PUSH1 0x40 MSTORE DUP1 SWAP3 SWAP2 SWAP1 DUP2 DUP2 MSTORE PUSH1 0x20 ADD DUP3 DUP1 SLOAD PUSH2 0x11FD SWAP1 PUSH2 0x3526 JUMP JUMPDEST DUP1 ISZERO PUSH2 0x124A JUMPI DUP1 PUSH1 0x1F LT PUSH2 0x121F JUMPI PUSH2 0x100 DUP1 DUP4 SLOAD DIV MUL DUP4 MSTORE SWAP2 PUSH1 0x20 ADD SWAP2 PUSH2 0x124A JUMP JUMPDEST DUP3 ADD SWAP2 SWAP1 PUSH1 0x0 MSTORE PUSH1 0x20 PUSH1 0x0 KECCAK256 SWAP1 JUMPDEST DUP2 SLOAD DUP2 MSTORE SWAP1 PUSH1 0x1 ADD SWAP1 PUSH1 0x20 ADD DUP1 DUP4 GT PUSH2 0x122D JUMPI DUP3 SWAP1 SUB PUSH1 0x1F AND DUP3 ADD SWAP2 JUMPDEST POP POP POP POP POP DUP2 MSTORE PUSH1 0x20 ADD PUSH1 0x4 DUP3 ADD DUP1 SLOAD PUSH2 0x1263 SWAP1 PUSH2 0x3526 JUMP JUMPDEST DUP1 PUSH1 0x1F ADD PUSH1 0x20 DUP1 SWAP2 DIV MUL PUSH1 0x20 ADD PUSH1 0x40 MLOAD SWAP1 DUP2 ADD PUSH1 0x40 MSTORE DUP1 SWAP3 SWAP2 SWAP1 DUP2 DUP2 MSTORE PUSH1 0x20 ADD DUP3 DUP1 SLOAD PUSH2 0x128F SWAP1 PUSH2 0x3526 JUMP JUMPDEST DUP1 ISZERO PUSH2 0x12DC JUMPI DUP1 PUSH1 0x1F LT PUSH2 0x12B1 JUMPI PUSH2 0x100 DUP1 DUP4 SLOAD DIV MUL DUP4 MSTORE SWAP2 PUSH1 0x20 ADD SWAP2 PUSH2 0x12DC JUMP JUMPDEST DUP3 ADD SWAP2 SWAP1 PUSH1 0x0 MSTORE PUSH1 0x20 PUSH1 0x0 KECCAK256 SWAP1 JUMPDEST DUP2 SLOAD DUP2 MSTORE SWAP1 PUSH1 0x1 ADD SWAP1 PUSH1 0x20 ADD DUP1 DUP4 GT PUSH2 0x12BF JUMPI DUP3 SWAP1 SUB PUSH1 0x1F AND DUP3 ADD SWAP2 JUMPDEST POP POP POP POP POP DUP2 MSTORE POP POP DUP2 MSTORE PUSH1 0x20 ADD SWAP1 PUSH1 0x1 ADD SWAP1 PUSH2 0x10F8 JUMP JUMPDEST POP POP POP POP SWAP1 POP PUSH1 0x0 JUMPDEST DUP2 MLOAD DUP2 LT ISZERO PUSH2 0x1462 JUMPI PUSH1 0x0 DUP3 DUP3 DUP2 MLOAD DUP2 LT PUSH2 0x131B JUMPI PUSH2 0x131A PUSH2 0x3BC9 JUMP JUMPDEST JUMPDEST PUSH1 0x20 MUL PUSH1 0x20 ADD ADD MLOAD SWAP1 POP PUSH1 0x40 MLOAD DUP1 PUSH1 0x40 ADD PUSH1 0x40 MSTORE DUP1 PUSH1 0x2 DUP2 MSTORE PUSH1 0x20 ADD PUSH32 0x3078000000000000000000000000000000000000000000000000000000000000 DUP2 MSTORE POP PUSH1 0x40 MLOAD PUSH1 0x20 ADD PUSH2 0x136B SWAP2 SWAP1 PUSH2 0x3C29 JUMP JUMPDEST PUSH1 0x40 MLOAD PUSH1 0x20 DUP2 DUP4 SUB SUB DUP2 MSTORE SWAP1 PUSH1 0x40 MSTORE DUP1 MLOAD SWAP1 PUSH1 0x20 ADD KECCAK256 DUP2 PUSH1 0x80 ADD MLOAD PUSH1 0x40 MLOAD PUSH1 0x20 ADD PUSH2 0x1396 SWAP2 SWAP1 PUSH2 0x3C29 JUMP JUMPDEST PUSH1 0x40 MLOAD PUSH1 0x20 DUP2 DUP4 SUB SUB DUP2 MSTORE SWAP1 PUSH1 0x40 MSTORE DUP1 MLOAD SWAP1 PUSH1 0x20 ADD KECCAK256 EQ PUSH2 0x144E JUMPI DUP1 PUSH1 0x0 ADD MLOAD DUP12 DUP8 DUP2 MLOAD DUP2 LT PUSH2 0x13C9 JUMPI PUSH2 0x13C8 PUSH2 0x3BC9 JUMP JUMPDEST JUMPDEST PUSH1 0x20 MUL PUSH1 0x20 ADD ADD DUP2 DUP2 MSTORE POP POP DUP1 PUSH1 0x20 ADD MLOAD DUP11 DUP8 DUP2 MLOAD DUP2 LT PUSH2 0x13ED JUMPI PUSH2 0x13EC PUSH2 0x3BC9 JUMP JUMPDEST JUMPDEST PUSH1 0x20 MUL PUSH1 0x20 ADD ADD DUP2 DUP2 MSTORE POP POP DUP1 PUSH1 0x40 ADD MLOAD DUP10 DUP8 DUP2 MLOAD DUP2 LT PUSH2 0x1411 JUMPI PUSH2 0x1410 PUSH2 0x3BC9 JUMP JUMPDEST JUMPDEST PUSH1 0x20 MUL PUSH1 0x20 ADD ADD DUP2 SWAP1 MSTORE POP DUP1 PUSH1 0x60 ADD MLOAD DUP9 DUP8 DUP2 MLOAD DUP2 LT PUSH2 0x1434 JUMPI PUSH2 0x1433 PUSH2 0x3BC9 JUMP JUMPDEST JUMPDEST PUSH1 0x20 MUL PUSH1 0x20 ADD ADD DUP2 SWAP1 MSTORE POP DUP6 DUP1 PUSH2 0x144A SWAP1 PUSH2 0x3B15 JUMP JUMPDEST SWAP7 POP POP JUMPDEST POP DUP1 DUP1 PUSH2 0x145A SWAP1 PUSH2 0x3B15 JUMP JUMPDEST SWAP2 POP POP PUSH2 0x12FD JUMP JUMPDEST POP POP POP DUP1 DUP1 PUSH2 0x1470 SWAP1 PUSH2 0x3B15 JUMP JUMPDEST SWAP2 POP POP PUSH2 0x1087 JUMP JUMPDEST POP PUSH32 0xF27964DB71FBFA9CAE0795251ACB513D2227E5F9A4E8C35B6B5572A7267C243A DUP7 DUP7 DUP7 DUP7 PUSH1 0x40 MLOAD PUSH2 0x14AE SWAP5 SWAP4 SWAP3 SWAP2 SWAP1 PUSH2 0x3E0A JUMP JUMPDEST PUSH1 0x40 MLOAD DUP1 SWAP2 SUB SWAP1 LOG1 POP POP POP POP POP POP POP POP POP POP POP JUMP JUMPDEST PUSH1 0x60 DUP7 PUSH1 0x0 PUSH1 0x4 PUSH1 0x0 DUP4 DUP2 MSTORE PUSH1 0x20 ADD SWAP1 DUP2 MSTORE PUSH1 0x20 ADD PUSH1 0x0 KECCAK256 PUSH1 0x3 ADD SLOAD GT PUSH2 0x151F JUMPI PUSH1 0x40 MLOAD PUSH32 0x8C379A000000000000000000000000000000000000000000000000000000000 DUP2 MSTORE PUSH1 0x4 ADD PUSH2 0x1516 SWAP1 PUSH2 0x3BA9 JUMP JUMPDEST PUSH1 0x40 MLOAD DUP1 SWAP2 SUB SWAP1 REVERT JUMPDEST DUP8 DUP8 PUSH1 0x4 PUSH1 0x0 DUP4 DUP2 MSTORE PUSH1 0x20 ADD SWAP1 DUP2 MSTORE PUSH1 0x20 ADD PUSH1 0x0 KECCAK256 PUSH1 0x2 ADD PUSH1 0x40 MLOAD PUSH2 0x1544 SWAP2 SWAP1 PUSH2 0x35FA JUMP JUMPDEST PUSH1 0x40 MLOAD DUP1 SWAP2 SUB SWAP1 KECCAK256 DUP2 PUSH1 0x40 MLOAD PUSH1 0x20 ADD PUSH2 0x155D SWAP2 SWAP1 PUSH2 0x365D JUMP JUMPDEST PUSH1 0x40 MLOAD PUSH1 0x20 DUP2 DUP4 SUB SUB DUP2 MSTORE SWAP1 PUSH1 0x40 MSTORE DUP1 MLOAD SWAP1 PUSH1 0x20 ADD KECCAK256 EQ PUSH2 0x15B3 JUMPI PUSH1 0x40 MLOAD PUSH32 0x8C379A000000000000000000000000000000000000000000000000000000000 DUP2 MSTORE PUSH1 0x4 ADD PUSH2 0x15AA SWAP1 PUSH2 0x36DE JUMP JUMPDEST PUSH1 0x40 MLOAD DUP1 SWAP2 SUB SWAP1 REVERT JUMPDEST DUP6 PUSH1 0xC DUP2 MLOAD EQ PUSH2 0x15F8 JUMPI PUSH1 0x40 MLOAD PUSH32 0x8C379A000000000000000000000000000000000000000000000000000000000 DUP2 MSTORE PUSH1 0x4 ADD PUSH2 0x15EF SWAP1 PUSH2 0x3EB7 JUMP JUMPDEST PUSH1 0x40 MLOAD DUP1 SWAP2 SUB SWAP1 REVERT JUMPDEST PUSH1 0x1 PUSH1 0x0 SLOAD PUSH2 0x1607 SWAP2 SWAP1 PUSH2 0x3ED7 JUMP JUMPDEST PUSH1 0x0 DUP2 SWAP1 SSTORE POP PUSH1 0x0 DUP1 SLOAD DUP11 PUSH1 0x40 MLOAD PUSH1 0x20 ADD PUSH2 0x1623 SWAP3 SWAP2 SWAP1 PUSH2 0x3F2C JUMP JUMPDEST PUSH1 0x40 MLOAD PUSH1 0x20 DUP2 DUP4 SUB SUB DUP2 MSTORE SWAP1 PUSH1 0x40 MSTORE SWAP1 POP PUSH1 0x0 PUSH1 0x1 PUSH1 0x0 DUP4 DUP1 MLOAD SWAP1 PUSH1 0x20 ADD KECCAK256 DUP2 MSTORE PUSH1 0x20 ADD SWAP1 DUP2 MSTORE PUSH1 0x20 ADD PUSH1 0x0 KECCAK256 PUSH1 0x40 MLOAD DUP1 PUSH1 0xC0 ADD PUSH1 0x40 MSTORE SWAP1 DUP2 PUSH1 0x0 DUP3 ADD DUP1 SLOAD PUSH2 0x166B SWAP1 PUSH2 0x3526 JUMP JUMPDEST DUP1 PUSH1 0x1F ADD PUSH1 0x20 DUP1 SWAP2 DIV MUL PUSH1 0x20 ADD PUSH1 0x40 MLOAD SWAP1 DUP2 ADD PUSH1 0x40 MSTORE DUP1 SWAP3 SWAP2 SWAP1 DUP2 DUP2 MSTORE PUSH1 0x20 ADD DUP3 DUP1 SLOAD PUSH2 0x1697 SWAP1 PUSH2 0x3526 JUMP JUMPDEST DUP1 ISZERO PUSH2 0x16E4 JUMPI DUP1 PUSH1 0x1F LT PUSH2 0x16B9 JUMPI PUSH2 0x100 DUP1 DUP4 SLOAD DIV MUL DUP4 MSTORE SWAP2 PUSH1 0x20 ADD SWAP2 PUSH2 0x16E4 JUMP JUMPDEST DUP3 ADD SWAP2 SWAP1 PUSH1 0x0 MSTORE PUSH1 0x20 PUSH1 0x0 KECCAK256 SWAP1 JUMPDEST DUP2 SLOAD DUP2 MSTORE SWAP1 PUSH1 0x1 ADD SWAP1 PUSH1 0x20 ADD DUP1 DUP4 GT PUSH2 0x16C7 JUMPI DUP3 SWAP1 SUB PUSH1 0x1F AND DUP3 ADD SWAP2 JUMPDEST POP POP POP POP POP DUP2 MSTORE PUSH1 0x20 ADD PUSH1 0x1 DUP3 ADD SLOAD DUP2 MSTORE PUSH1 0x20 ADD PUSH1 0x2 DUP3 ADD SLOAD DUP2 MSTORE PUSH1 0x20 ADD PUSH1 0x3 DUP3 ADD PUSH1 0x0 SWAP1 SLOAD SWAP1 PUSH2 0x100 EXP SWAP1 DIV PUSH1 0xFF AND PUSH1 0x2 DUP2 GT ISZERO PUSH2 0x1726 JUMPI PUSH2 0x1725 PUSH2 0x2A36 JUMP JUMPDEST JUMPDEST PUSH1 0x2 DUP2 GT ISZERO PUSH2 0x1738 JUMPI PUSH2 0x1737 PUSH2 0x2A36 JUMP JUMPDEST JUMPDEST DUP2 MSTORE PUSH1 0x20 ADD PUSH1 0x4 DUP3 ADD DUP1 SLOAD PUSH2 0x174C SWAP1 PUSH2 0x3526 JUMP JUMPDEST DUP1 PUSH1 0x1F ADD PUSH1 0x20 DUP1 SWAP2 DIV MUL PUSH1 0x20 ADD PUSH1 0x40 MLOAD SWAP1 DUP2 ADD PUSH1 0x40 MSTORE DUP1 SWAP3 SWAP2 SWAP1 DUP2 DUP2 MSTORE PUSH1 0x20 ADD DUP3 DUP1 SLOAD PUSH2 0x1778 SWAP1 PUSH2 0x3526 JUMP JUMPDEST DUP1 ISZERO PUSH2 0x17C5 JUMPI DUP1 PUSH1 0x1F LT PUSH2 0x179A JUMPI PUSH2 0x100 DUP1 DUP4 SLOAD DIV MUL DUP4 MSTORE SWAP2 PUSH1 0x20 ADD SWAP2 PUSH2 0x17C5 JUMP JUMPDEST DUP3 ADD SWAP2 SWAP1 PUSH1 0x0 MSTORE PUSH1 0x20 PUSH1 0x0 KECCAK256 SWAP1 JUMPDEST DUP2 SLOAD DUP2 MSTORE SWAP1 PUSH1 0x1 ADD SWAP1 PUSH1 0x20 ADD DUP1 DUP4 GT PUSH2 0x17A8 JUMPI DUP3 SWAP1 SUB PUSH1 0x1F AND DUP3 ADD SWAP2 JUMPDEST POP POP POP POP POP DUP2 MSTORE PUSH1 0x20 ADD PUSH1 0x5 DUP3 ADD DUP1 SLOAD PUSH2 0x17DE SWAP1 PUSH2 0x3526 JUMP JUMPDEST DUP1 PUSH1 0x1F ADD PUSH1 0x20 DUP1 SWAP2 DIV MUL PUSH1 0x20 ADD PUSH1 0x40 MLOAD SWAP1 DUP2 ADD PUSH1 0x40 MSTORE DUP1 SWAP3 SWAP2 SWAP1 DUP2 DUP2 MSTORE PUSH1 0x20 ADD DUP3 DUP1 SLOAD PUSH2 0x180A SWAP1 PUSH2 0x3526 JUMP JUMPDEST DUP1 ISZERO PUSH2 0x1857 JUMPI DUP1 PUSH1 0x1F LT PUSH2 0x182C JUMPI PUSH2 0x100 DUP1 DUP4 SLOAD DIV MUL DUP4 MSTORE SWAP2 PUSH1 0x20 ADD SWAP2 PUSH2 0x1857 JUMP JUMPDEST DUP3 ADD SWAP2 SWAP1 PUSH1 0x0 MSTORE PUSH1 0x20 PUSH1 0x0 KECCAK256 SWAP1 JUMPDEST DUP2 SLOAD DUP2 MSTORE SWAP1 PUSH1 0x1 ADD SWAP1 PUSH1 0x20 ADD DUP1 DUP4 GT PUSH2 0x183A JUMPI DUP3 SWAP1 SUB PUSH1 0x1F AND DUP3 ADD SWAP2 JUMPDEST POP POP POP POP POP DUP2 MSTORE POP POP SWAP1 POP DUP2 DUP2 PUSH1 0x0 ADD DUP2 SWAP1 MSTORE POP DUP13 DUP2 PUSH1 0x20 ADD DUP2 DUP2 MSTORE POP POP DUP11 DUP2 PUSH1 0x40 ADD DUP2 DUP2 MSTORE POP POP DUP10 DUP2 PUSH1 0x60 ADD SWAP1 PUSH1 0x2 DUP2 GT ISZERO PUSH2 0x1897 JUMPI PUSH2 0x1896 PUSH2 0x2A36 JUMP JUMPDEST JUMPDEST SWAP1 DUP2 PUSH1 0x2 DUP2 GT ISZERO PUSH2 0x18AB JUMPI PUSH2 0x18AA PUSH2 0x2A36 JUMP JUMPDEST JUMPDEST DUP2 MSTORE POP POP DUP9 DUP2 PUSH1 0x80 ADD DUP2 SWAP1 MSTORE POP DUP8 DUP2 PUSH1 0xA0 ADD DUP2 SWAP1 MSTORE POP PUSH32 0x8B2C200B5F16565B86D1596988527109771FF8ED118F330CCA9EE70D6BA9A16 PUSH1 0x0 SLOAD PUSH1 0x40 MLOAD PUSH2 0x18F2 SWAP2 SWAP1 PUSH2 0x2FCF JUMP JUMPDEST PUSH1 0x40 MLOAD DUP1 SWAP2 SUB SWAP1 LOG1 DUP2 SWAP7 POP POP POP POP POP POP POP SWAP7 SWAP6 POP POP POP POP POP POP JUMP JUMPDEST PUSH1 0x0 DUP8 PUSH1 0x0 PUSH1 0x4 PUSH1 0x0 DUP4 DUP2 MSTORE PUSH1 0x20 ADD SWAP1 DUP2 MSTORE PUSH1 0x20 ADD PUSH1 0x0 KECCAK256 PUSH1 0x3 ADD SLOAD GT PUSH2 0x1969 JUMPI PUSH1 0x40 MLOAD PUSH32 0x8C379A000000000000000000000000000000000000000000000000000000000 DUP2 MSTORE PUSH1 0x4 ADD PUSH2 0x1960 SWAP1 PUSH2 0x3BA9 JUMP JUMPDEST PUSH1 0x40 MLOAD DUP1 SWAP2 SUB SWAP1 REVERT JUMPDEST DUP9 DUP9 PUSH1 0x4 PUSH1 0x0 DUP4 DUP2 MSTORE PUSH1 0x20 ADD SWAP1 DUP2 MSTORE PUSH1 0x20 ADD PUSH1 0x0 KECCAK256 PUSH1 0x2 ADD PUSH1 0x40 MLOAD PUSH2 0x198E SWAP2 SWAP1 PUSH2 0x35FA JUMP JUMPDEST PUSH1 0x40 MLOAD DUP1 SWAP2 SUB SWAP1 KECCAK256 DUP2 PUSH1 0x40 MLOAD PUSH1 0x20 ADD PUSH2 0x19A7 SWAP2 SWAP1 PUSH2 0x365D JUMP JUMPDEST PUSH1 0x40 MLOAD PUSH1 0x20 DUP2 DUP4 SUB SUB DUP2 MSTORE SWAP1 PUSH1 0x40 MSTORE DUP1 MLOAD SWAP1 PUSH1 0x20 ADD KECCAK256 EQ PUSH2 0x19FD JUMPI PUSH1 0x40 MLOAD PUSH32 0x8C379A000000000000000000000000000000000000000000000000000000000 DUP2 MSTORE PUSH1 0x4 ADD PUSH2 0x19F4 SWAP1 PUSH2 0x36DE JUMP JUMPDEST PUSH1 0x40 MLOAD DUP1 SWAP2 SUB SWAP1 REVERT JUMPDEST DUP6 PUSH1 0x8 DUP2 MLOAD EQ PUSH2 0x1A42 JUMPI PUSH1 0x40 MLOAD PUSH32 0x8C379A000000000000000000000000000000000000000000000000000000000 DUP2 MSTORE PUSH1 0x4 ADD PUSH2 0x1A39 SWAP1 PUSH2 0x3EB7 JUMP JUMPDEST PUSH1 0x40 MLOAD DUP1 SWAP2 SUB SWAP1 REVERT JUMPDEST PUSH1 0x3 PUSH1 0x0 DUP2 SLOAD DUP1 SWAP3 SWAP2 SWAP1 PUSH2 0x1A55 SWAP1 PUSH2 0x3B15 JUMP JUMPDEST SWAP2 SWAP1 POP SSTORE POP PUSH1 0x0 PUSH1 0x2 PUSH1 0x0 PUSH1 0x3 SLOAD DUP2 MSTORE PUSH1 0x20 ADD SWAP1 DUP2 MSTORE PUSH1 0x20 ADD PUSH1 0x0 KECCAK256 SWAP1 POP DUP11 DUP2 PUSH1 0x1 ADD SWAP1 DUP2 PUSH2 0x1A84 SWAP2 SWAP1 PUSH2 0x3FB3 JUMP JUMPDEST POP DUP10 DUP2 PUSH1 0x2 ADD SWAP1 DUP2 PUSH2 0x1A96 SWAP2 SWAP1 PUSH2 0x3FB3 JUMP JUMPDEST POP DUP9 DUP2 PUSH1 0x3 ADD SWAP1 DUP2 PUSH2 0x1AA8 SWAP2 SWAP1 PUSH2 0x3FB3 JUMP JUMPDEST POP DUP8 DUP2 PUSH1 0x4 ADD SWAP1 DUP2 PUSH2 0x1ABA SWAP2 SWAP1 PUSH2 0x3FB3 JUMP JUMPDEST POP DUP7 DUP2 PUSH1 0x5 ADD SWAP1 DUP2 PUSH2 0x1ACC SWAP2 SWAP1 PUSH2 0x3FB3 JUMP JUMPDEST POP PUSH1 0x3 SLOAD SWAP6 POP POP POP POP POP POP SWAP8 SWAP7 POP POP POP POP POP POP POP JUMP JUMPDEST PUSH1 0x60 DUP4 PUSH1 0x0 PUSH1 0x4 PUSH1 0x0 DUP4 DUP2 MSTORE PUSH1 0x20 ADD SWAP1 DUP2 MSTORE PUSH1 0x20 ADD PUSH1 0x0 KECCAK256 PUSH1 0x3 ADD SLOAD GT PUSH2 0x1B3E JUMPI PUSH1 0x40 MLOAD PUSH32 0x8C379A000000000000000000000000000000000000000000000000000000000 DUP2 MSTORE PUSH1 0x4 ADD PUSH2 0x1B35 SWAP1 PUSH2 0x3BA9 JUMP JUMPDEST PUSH1 0x40 MLOAD DUP1 SWAP2 SUB SWAP1 REVERT JUMPDEST PUSH1 0x0 PUSH1 0x4 PUSH1 0x0 DUP8 DUP2 MSTORE PUSH1 0x20 ADD SWAP1 DUP2 MSTORE PUSH1 0x20 ADD PUSH1 0x0 KECCAK256 PUSH1 0x5 ADD PUSH1 0x0 DUP6 DUP2 MSTORE PUSH1 0x20 ADD SWAP1 DUP2 MSTORE PUSH1 0x20 ADD PUSH1 0x0 KECCAK256 DUP1 SLOAD DUP1 PUSH1 0x20 MUL PUSH1 0x20 ADD PUSH1 0x40 MLOAD SWAP1 DUP2 ADD PUSH1 0x40 MSTORE DUP1 SWAP3 SWAP2 SWAP1 DUP2 DUP2 MSTORE PUSH1 0x20 ADD PUSH1 0x0 SWAP1 JUMPDEST DUP3 DUP3 LT ISZERO PUSH2 0x1D83 JUMPI DUP4 DUP3 SWAP1 PUSH1 0x0 MSTORE PUSH1 0x20 PUSH1 0x0 KECCAK256 SWAP1 PUSH1 0x5 MUL ADD PUSH1 0x40 MLOAD DUP1 PUSH1 0xA0 ADD PUSH1 0x40 MSTORE SWAP1 DUP2 PUSH1 0x0 DUP3 ADD SLOAD DUP2 MSTORE PUSH1 0x20 ADD PUSH1 0x1 DUP3 ADD SLOAD DUP2 MSTORE PUSH1 0x20 ADD PUSH1 0x2 DUP3 ADD DUP1 SLOAD PUSH2 0x1BCE SWAP1 PUSH2 0x3526 JUMP JUMPDEST DUP1 PUSH1 0x1F ADD PUSH1 0x20 DUP1 SWAP2 DIV MUL PUSH1 0x20 ADD PUSH1 0x40 MLOAD SWAP1 DUP2 ADD PUSH1 0x40 MSTORE DUP1 SWAP3 SWAP2 SWAP1 DUP2 DUP2 MSTORE PUSH1 0x20 ADD DUP3 DUP1 SLOAD PUSH2 0x1BFA SWAP1 PUSH2 0x3526 JUMP JUMPDEST DUP1 ISZERO PUSH2 0x1C47 JUMPI DUP1 PUSH1 0x1F LT PUSH2 0x1C1C JUMPI PUSH2 0x100 DUP1 DUP4 SLOAD DIV MUL DUP4 MSTORE SWAP2 PUSH1 0x20 ADD SWAP2 PUSH2 0x1C47 JUMP JUMPDEST DUP3 ADD SWAP2 SWAP1 PUSH1 0x0 MSTORE PUSH1 0x20 PUSH1 0x0 KECCAK256 SWAP1 JUMPDEST DUP2 SLOAD DUP2 MSTORE SWAP1 PUSH1 0x1 ADD SWAP1 PUSH1 0x20 ADD DUP1 DUP4 GT PUSH2 0x1C2A JUMPI DUP3 SWAP1 SUB PUSH1 0x1F AND DUP3 ADD SWAP2 JUMPDEST POP POP POP POP POP DUP2 MSTORE PUSH1 0x20 ADD PUSH1 0x3 DUP3 ADD DUP1 SLOAD PUSH2 0x1C60 SWAP1 PUSH2 0x3526 JUMP JUMPDEST DUP1 PUSH1 0x1F ADD PUSH1 0x20 DUP1 SWAP2 DIV MUL PUSH1 0x20 ADD PUSH1 0x40 MLOAD SWAP1 DUP2 ADD PUSH1 0x40 MSTORE DUP1 SWAP3 SWAP2 SWAP1 DUP2 DUP2 MSTORE PUSH1 0x20 ADD DUP3 DUP1 SLOAD PUSH2 0x1C8C SWAP1 PUSH2 0x3526 JUMP JUMPDEST DUP1 ISZERO PUSH2 0x1CD9 JUMPI DUP1 PUSH1 0x1F LT PUSH2 0x1CAE JUMPI PUSH2 0x100 DUP1 DUP4 SLOAD DIV MUL DUP4 MSTORE SWAP2 PUSH1 0x20 ADD SWAP2 PUSH2 0x1CD9 JUMP JUMPDEST DUP3 ADD SWAP2 SWAP1 PUSH1 0x0 MSTORE PUSH1 0x20 PUSH1 0x0 KECCAK256 SWAP1 JUMPDEST DUP2 SLOAD DUP2 MSTORE SWAP1 PUSH1 0x1 ADD SWAP1 PUSH1 0x20 ADD DUP1 DUP4 GT PUSH2 0x1CBC JUMPI DUP3 SWAP1 SUB PUSH1 0x1F AND DUP3 ADD SWAP2 JUMPDEST POP POP POP POP POP DUP2 MSTORE PUSH1 0x20 ADD PUSH1 0x4 DUP3 ADD DUP1 SLOAD PUSH2 0x1CF2 SWAP1 PUSH2 0x3526 JUMP JUMPDEST DUP1 PUSH1 0x1F ADD PUSH1 0x20 DUP1 SWAP2 DIV MUL PUSH1 0x20 ADD PUSH1 0x40 MLOAD SWAP1 DUP2 ADD PUSH1 0x40 MSTORE DUP1 SWAP3 SWAP2 SWAP1 DUP2 DUP2 MSTORE PUSH1 0x20 ADD DUP3 DUP1 SLOAD PUSH2 0x1D1E SWAP1 PUSH2 0x3526 JUMP JUMPDEST DUP1 ISZERO PUSH2 0x1D6B JUMPI DUP1 PUSH1 0x1F LT PUSH2 0x1D40 JUMPI PUSH2 0x100 DUP1 DUP4 SLOAD DIV MUL DUP4 MSTORE SWAP2 PUSH1 0x20 ADD SWAP2 PUSH2 0x1D6B JUMP JUMPDEST DUP3 ADD SWAP2 SWAP1 PUSH1 0x0 MSTORE PUSH1 0x20 PUSH1 0x0 KECCAK256 SWAP1 JUMPDEST DUP2 SLOAD DUP2 MSTORE SWAP1 PUSH1 0x1 ADD SWAP1 PUSH1 0x20 ADD DUP1 DUP4 GT PUSH2 0x1D4E JUMPI DUP3 SWAP1 SUB PUSH1 0x1F AND DUP3 ADD SWAP2 JUMPDEST POP POP POP POP POP DUP2 MSTORE POP POP DUP2 MSTORE PUSH1 0x20 ADD SWAP1 PUSH1 0x1 ADD SWAP1 PUSH2 0x1B87 JUMP JUMPDEST POP POP POP POP SWAP1 POP PUSH1 0x0 DUP2 MLOAD SWAP1 POP PUSH1 0x0 DUP1 DUP1 PUSH1 0x0 SWAP1 POP JUMPDEST DUP4 DUP2 LT ISZERO PUSH2 0x1DE0 JUMPI DUP9 DUP6 DUP3 DUP2 MLOAD DUP2 LT PUSH2 0x1DB4 JUMPI PUSH2 0x1DB3 PUSH2 0x3BC9 JUMP JUMPDEST JUMPDEST PUSH1 0x20 MUL PUSH1 0x20 ADD ADD MLOAD PUSH1 0x0 ADD MLOAD SUB PUSH2 0x1DCD JUMPI DUP1 SWAP2 POP PUSH1 0x1 SWAP3 POP JUMPDEST DUP1 DUP1 PUSH2 0x1DD8 SWAP1 PUSH2 0x3B15 JUMP JUMPDEST SWAP2 POP POP PUSH2 0x1D98 JUMP JUMPDEST POP PUSH1 0x1 ISZERO ISZERO DUP3 ISZERO ISZERO EQ PUSH2 0x1E28 JUMPI PUSH1 0x40 MLOAD PUSH32 0x8C379A000000000000000000000000000000000000000000000000000000000 DUP2 MSTORE PUSH1 0x4 ADD PUSH2 0x1E1F SWAP1 PUSH2 0x40D1 JUMP JUMPDEST PUSH1 0x40 MLOAD DUP1 SWAP2 SUB SWAP1 REVERT JUMPDEST DUP2 ISZERO PUSH2 0x1E58 JUMPI DUP4 DUP2 DUP2 MLOAD DUP2 LT PUSH2 0x1E41 JUMPI PUSH2 0x1E40 PUSH2 0x3BC9 JUMP JUMPDEST JUMPDEST PUSH1 0x20 MUL PUSH1 0x20 ADD ADD MLOAD PUSH1 0x80 ADD MLOAD SWAP6 POP POP POP POP POP PUSH2 0x1E5D JUMP JUMPDEST POP POP POP POP JUMPDEST POP SWAP4 SWAP3 POP POP POP JUMP JUMPDEST DUP3 PUSH1 0x4 PUSH1 0x0 DUP3 DUP2 MSTORE PUSH1 0x20 ADD SWAP1 DUP2 MSTORE PUSH1 0x20 ADD PUSH1 0x0 KECCAK256 PUSH1 0x0 ADD PUSH1 0x0 SWAP1 SLOAD SWAP1 PUSH2 0x100 EXP SWAP1 DIV PUSH20 0xFFFFFFFFFFFFFFFFFFFFFFFFFFFFFFFFFFFFFFFF AND PUSH20 0xFFFFFFFFFFFFFFFFFFFFFFFFFFFFFFFFFFFFFFFF AND CALLER PUSH20 0xFFFFFFFFFFFFFFFFFFFFFFFFFFFFFFFFFFFFFFFF AND EQ PUSH2 0x1F0A JUMPI PUSH1 0x40 MLOAD PUSH32 0x8C379A000000000000000000000000000000000000000000000000000000000 DUP2 MSTORE PUSH1 0x4 ADD PUSH2 0x1F01 SWAP1 PUSH2 0x413D JUMP JUMPDEST PUSH1 0x40 MLOAD DUP1 SWAP2 SUB SWAP1 REVERT JUMPDEST DUP4 DUP4 PUSH1 0x4 PUSH1 0x0 DUP4 DUP2 MSTORE PUSH1 0x20 ADD SWAP1 DUP2 MSTORE PUSH1 0x20 ADD PUSH1 0x0 KECCAK256 PUSH1 0x2 ADD PUSH1 0x40 MLOAD PUSH2 0x1F2F SWAP2 SWAP1 PUSH2 0x35FA JUMP JUMPDEST PUSH1 0x40 MLOAD DUP1 SWAP2 SUB SWAP1 KECCAK256 DUP2 PUSH1 0x40 MLOAD PUSH1 0x20 ADD PUSH2 0x1F48 SWAP2 SWAP1 PUSH2 0x365D JUMP JUMPDEST PUSH1 0x40 MLOAD PUSH1 0x20 DUP2 DUP4 SUB SUB DUP2 MSTORE SWAP1 PUSH1 0x40 MSTORE DUP1 MLOAD SWAP1 PUSH1 0x20 ADD KECCAK256 EQ PUSH2 0x1F9E JUMPI PUSH1 0x40 MLOAD PUSH32 0x8C379A000000000000000000000000000000000000000000000000000000000 DUP2 MSTORE PUSH1 0x4 ADD PUSH2 0x1F95 SWAP1 PUSH2 0x36DE JUMP JUMPDEST PUSH1 0x40 MLOAD DUP1 SWAP2 SUB SWAP1 REVERT JUMPDEST DUP4 PUSH1 0x40 MLOAD PUSH1 0x20 ADD PUSH2 0x1FAF SWAP2 SWAP1 PUSH2 0x365D JUMP JUMPDEST PUSH1 0x40 MLOAD PUSH1 0x20 DUP2 DUP4 SUB SUB DUP2 MSTORE SWAP1 PUSH1 0x40 MSTORE PUSH1 0x4 PUSH1 0x0 DUP9 DUP2 MSTORE PUSH1 0x20 ADD SWAP1 DUP2 MSTORE PUSH1 0x20 ADD PUSH1 0x0 KECCAK256 PUSH1 0x2 ADD SWAP1 DUP2 PUSH2 0x1FE0 SWAP2 SWAP1 PUSH2 0x3982 JUMP JUMPDEST POP POP POP POP POP POP POP JUMP JUMPDEST PUSH1 0x60 DUP6 PUSH1 0x0 PUSH1 0x4 PUSH1 0x0 DUP4 DUP2 MSTORE PUSH1 0x20 ADD SWAP1 DUP2 MSTORE PUSH1 0x20 ADD PUSH1 0x0 KECCAK256 PUSH1 0x3 ADD SLOAD GT PUSH2 0x2045 JUMPI PUSH1 0x40 MLOAD PUSH32 0x8C379A000000000000000000000000000000000000000000000000000000000 DUP2 MSTORE PUSH1 0x4 ADD PUSH2 0x203C SWAP1 PUSH2 0x3BA9 JUMP JUMPDEST PUSH1 0x40 MLOAD DUP1 SWAP2 SUB SWAP1 REVERT JUMPDEST DUP7 DUP7 PUSH1 0x4 PUSH1 0x0 DUP4 DUP2 MSTORE PUSH1 0x20 ADD SWAP1 DUP2 MSTORE PUSH1 0x20 ADD PUSH1 0x0 KECCAK256 PUSH1 0x2 ADD PUSH1 0x40 MLOAD PUSH2 0x206A SWAP2 SWAP1 PUSH2 0x35FA JUMP JUMPDEST PUSH1 0x40 MLOAD DUP1 SWAP2 SUB SWAP1 KECCAK256 DUP2 PUSH1 0x40 MLOAD PUSH1 0x20 ADD PUSH2 0x2083 SWAP2 SWAP1 PUSH2 0x365D JUMP JUMPDEST PUSH1 0x40 MLOAD PUSH1 0x20 DUP2 DUP4 SUB SUB DUP2 MSTORE SWAP1 PUSH1 0x40 MSTORE DUP1 MLOAD SWAP1 PUSH1 0x20 ADD KECCAK256 EQ PUSH2 0x20D9 JUMPI PUSH1 0x40 MLOAD PUSH32 0x8C379A000000000000000000000000000000000000000000000000000000000 DUP2 MSTORE PUSH1 0x4 ADD PUSH2 0x20D0 SWAP1 PUSH2 0x36DE JUMP JUMPDEST PUSH1 0x40 MLOAD DUP1 SWAP2 SUB SWAP1 REVERT JUMPDEST PUSH1 0x0 DUP7 EQ PUSH2 0x249E JUMPI PUSH1 0x0 PUSH1 0x4 PUSH1 0x0 DUP12 DUP2 MSTORE PUSH1 0x20 ADD SWAP1 DUP2 MSTORE PUSH1 0x20 ADD PUSH1 0x0 KECCAK256 PUSH1 0x5 ADD PUSH1 0x0 DUP8 DUP2 MSTORE PUSH1 0x20 ADD SWAP1 DUP2 MSTORE PUSH1 0x20 ADD PUSH1 0x0 KECCAK256 DUP1 SLOAD SWAP1 POP GT PUSH2 0x214E JUMPI PUSH1 0x40 MLOAD PUSH32 0x8C379A000000000000000000000000000000000000000000000000000000000 DUP2 MSTORE PUSH1 0x4 ADD PUSH2 0x2145 SWAP1 PUSH2 0x41A9 JUMP JUMPDEST PUSH1 0x40 MLOAD DUP1 SWAP2 SUB SWAP1 REVERT JUMPDEST PUSH1 0x0 PUSH1 0x4 PUSH1 0x0 DUP12 DUP2 MSTORE PUSH1 0x20 ADD SWAP1 DUP2 MSTORE PUSH1 0x20 ADD PUSH1 0x0 KECCAK256 PUSH1 0x5 ADD PUSH1 0x0 DUP8 DUP2 MSTORE PUSH1 0x20 ADD SWAP1 DUP2 MSTORE PUSH1 0x20 ADD PUSH1 0x0 KECCAK256 DUP1 SLOAD DUP1 PUSH1 0x20 MUL PUSH1 0x20 ADD PUSH1 0x40 MLOAD SWAP1 DUP2 ADD PUSH1 0x40 MSTORE DUP1 SWAP3 SWAP2 SWAP1 DUP2 DUP2 MSTORE PUSH1 0x20 ADD PUSH1 0x0 SWAP1 JUMPDEST DUP3 DUP3 LT ISZERO PUSH2 0x2393 JUMPI DUP4 DUP3 SWAP1 PUSH1 0x0 MSTORE PUSH1 0x20 PUSH1 0x0 KECCAK256 SWAP1 PUSH1 0x5 MUL ADD PUSH1 0x40 MLOAD DUP1 PUSH1 0xA0 ADD PUSH1 0x40 MSTORE SWAP1 DUP2 PUSH1 0x0 DUP3 ADD SLOAD DUP2 MSTORE PUSH1 0x20 ADD PUSH1 0x1 DUP3 ADD SLOAD DUP2 MSTORE PUSH1 0x20 ADD PUSH1 0x2 DUP3 ADD DUP1 SLOAD PUSH2 0x21DE SWAP1 PUSH2 0x3526 JUMP JUMPDEST DUP1 PUSH1 0x1F ADD PUSH1 0x20 DUP1 SWAP2 DIV MUL PUSH1 0x20 ADD PUSH1 0x40 MLOAD SWAP1 DUP2 ADD PUSH1 0x40 MSTORE DUP1 SWAP3 SWAP2 SWAP1 DUP2 DUP2 MSTORE PUSH1 0x20 ADD DUP3 DUP1 SLOAD PUSH2 0x220A SWAP1 PUSH2 0x3526 JUMP JUMPDEST DUP1 ISZERO PUSH2 0x2257 JUMPI DUP1 PUSH1 0x1F LT PUSH2 0x222C JUMPI PUSH2 0x100 DUP1 DUP4 SLOAD DIV MUL DUP4 MSTORE SWAP2 PUSH1 0x20 ADD SWAP2 PUSH2 0x2257 JUMP JUMPDEST DUP3 ADD SWAP2 SWAP1 PUSH1 0x0 MSTORE PUSH1 0x20 PUSH1 0x0 KECCAK256 SWAP1 JUMPDEST DUP2 SLOAD DUP2 MSTORE SWAP1 PUSH1 0x1 ADD SWAP1 PUSH1 0x20 ADD DUP1 DUP4 GT PUSH2 0x223A JUMPI DUP3 SWAP1 SUB PUSH1 0x1F AND DUP3 ADD SWAP2 JUMPDEST POP POP POP POP POP DUP2 MSTORE PUSH1 0x20 ADD PUSH1 0x3 DUP3 ADD DUP1 SLOAD PUSH2 0x2270 SWAP1 PUSH2 0x3526 JUMP JUMPDEST DUP1 PUSH1 0x1F ADD PUSH1 0x20 DUP1 SWAP2 DIV MUL PUSH1 0x20 ADD PUSH1 0x40 MLOAD SWAP1 DUP2 ADD PUSH1 0x40 MSTORE DUP1 SWAP3 SWAP2 SWAP1 DUP2 DUP2 MSTORE PUSH1 0x20 ADD DUP3 DUP1 SLOAD PUSH2 0x229C SWAP1 PUSH2 0x3526 JUMP JUMPDEST DUP1 ISZERO PUSH2 0x22E9 JUMPI DUP1 PUSH1 0x1F LT PUSH2 0x22BE JUMPI PUSH2 0x100 DUP1 DUP4 SLOAD DIV MUL DUP4 MSTORE SWAP2 PUSH1 0x20 ADD SWAP2 PUSH2 0x22E9 JUMP JUMPDEST DUP3 ADD SWAP2 SWAP1 PUSH1 0x0 MSTORE PUSH1 0x20 PUSH1 0x0 KECCAK256 SWAP1 JUMPDEST DUP2 SLOAD DUP2 MSTORE SWAP1 PUSH1 0x1 ADD SWAP1 PUSH1 0x20 ADD DUP1 DUP4 GT PUSH2 0x22CC JUMPI DUP3 SWAP1 SUB PUSH1 0x1F AND DUP3 ADD SWAP2 JUMPDEST POP POP POP POP POP DUP2 MSTORE PUSH1 0x20 ADD PUSH1 0x4 DUP3 ADD DUP1 SLOAD PUSH2 0x2302 SWAP1 PUSH2 0x3526 JUMP JUMPDEST DUP1 PUSH1 0x1F ADD PUSH1 0x20 DUP1 SWAP2 DIV MUL PUSH1 0x20 ADD PUSH1 0x40 MLOAD SWAP1 DUP2 ADD PUSH1 0x40 MSTORE DUP1 SWAP3 SWAP2 SWAP1 DUP2 DUP2 MSTORE PUSH1 0x20 ADD DUP3 DUP1 SLOAD PUSH2 0x232E SWAP1 PUSH2 0x3526 JUMP JUMPDEST DUP1 ISZERO PUSH2 0x237B JUMPI DUP1 PUSH1 0x1F LT PUSH2 0x2350 JUMPI PUSH2 0x100 DUP1 DUP4 SLOAD DIV MUL DUP4 MSTORE SWAP2 PUSH1 0x20 ADD SWAP2 PUSH2 0x237B JUMP JUMPDEST DUP3 ADD SWAP2 SWAP1 PUSH1 0x0 MSTORE PUSH1 0x20 PUSH1 0x0 KECCAK256 SWAP1 JUMPDEST DUP2 SLOAD DUP2 MSTORE SWAP1 PUSH1 0x1 ADD SWAP1 PUSH1 0x20 ADD DUP1 DUP4 GT PUSH2 0x235E JUMPI DUP3 SWAP1 SUB PUSH1 0x1F AND DUP3 ADD SWAP2 JUMPDEST POP POP POP POP POP DUP2 MSTORE POP POP DUP2 MSTORE PUSH1 0x20 ADD SWAP1 PUSH1 0x1 ADD SWAP1 PUSH2 0x2197 JUMP JUMPDEST POP POP POP POP SWAP1 POP PUSH1 0x0 DUP2 MLOAD SWAP1 POP PUSH1 0x0 DUP1 DUP1 PUSH1 0x0 SWAP1 POP JUMPDEST DUP4 DUP2 LT ISZERO PUSH2 0x23F0 JUMPI DUP11 DUP6 DUP3 DUP2 MLOAD DUP2 LT PUSH2 0x23C4 JUMPI PUSH2 0x23C3 PUSH2 0x3BC9 JUMP JUMPDEST JUMPDEST PUSH1 0x20 MUL PUSH1 0x20 ADD ADD MLOAD PUSH1 0x0 ADD MLOAD SUB PUSH2 0x23DD JUMPI DUP1 SWAP2 POP PUSH1 0x1 SWAP3 POP JUMPDEST DUP1 DUP1 PUSH2 0x23E8 SWAP1 PUSH2 0x3B15 JUMP JUMPDEST SWAP2 POP POP PUSH2 0x23A8 JUMP JUMPDEST POP PUSH1 0x1 ISZERO ISZERO DUP3 ISZERO ISZERO EQ PUSH2 0x2438 JUMPI PUSH1 0x40 MLOAD PUSH32 0x8C379A000000000000000000000000000000000000000000000000000000000 DUP2 MSTORE PUSH1 0x4 ADD PUSH2 0x242F SWAP1 PUSH2 0x40D1 JUMP JUMPDEST PUSH1 0x40 MLOAD DUP1 SWAP2 SUB SWAP1 REVERT JUMPDEST DUP2 ISZERO PUSH2 0x2499 JUMPI DUP11 DUP5 DUP3 DUP2 MLOAD DUP2 LT PUSH2 0x2452 JUMPI PUSH2 0x2451 PUSH2 0x3BC9 JUMP JUMPDEST JUMPDEST PUSH1 0x20 MUL PUSH1 0x20 ADD ADD MLOAD PUSH1 0x80 ADD DUP2 SWAP1 MSTORE POP PUSH32 0xC01A711A994234663E49BCAF267235941EF164AC0DEA30DE367E8CDB0EEABD5A DUP11 PUSH1 0x40 MLOAD PUSH2 0x2490 SWAP2 SWAP1 PUSH2 0x2FCF JUMP JUMPDEST PUSH1 0x40 MLOAD DUP1 SWAP2 SUB SWAP1 LOG1 JUMPDEST POP POP POP POP JUMPDEST POP POP POP SWAP6 SWAP5 POP POP POP POP POP JUMP JUMPDEST PUSH1 0x60 PUSH1 0x2 PUSH1 0x0 PUSH1 0x1 PUSH1 0x0 DUP6 DUP1 MLOAD SWAP1 PUSH1 0x20 ADD KECCAK256 DUP2 MSTORE PUSH1 0x20 ADD SWAP1 DUP2 MSTORE PUSH1 0x20 ADD PUSH1 0x0 KECCAK256 PUSH1 0x2 ADD SLOAD DUP2 MSTORE PUSH1 0x20 ADD SWAP1 DUP2 MSTORE PUSH1 0x20 ADD PUSH1 0x0 KECCAK256 PUSH1 0x2 ADD DUP1 SLOAD PUSH2 0x24EA SWAP1 PUSH2 0x3526 JUMP JUMPDEST DUP1 PUSH1 0x1F ADD PUSH1 0x20 DUP1 SWAP2 DIV MUL PUSH1 0x20 ADD PUSH1 0x40 MLOAD SWAP1 DUP2 ADD PUSH1 0x40 MSTORE DUP1 SWAP3 SWAP2 SWAP1 DUP2 DUP2 MSTORE PUSH1 0x20 ADD DUP3 DUP1 SLOAD PUSH2 0x2516 SWAP1 PUSH2 0x3526 JUMP JUMPDEST DUP1 ISZERO PUSH2 0x2563 JUMPI DUP1 PUSH1 0x1F LT PUSH2 0x2538 JUMPI PUSH2 0x100 DUP1 DUP4 SLOAD DIV MUL DUP4 MSTORE SWAP2 PUSH1 0x20 ADD SWAP2 PUSH2 0x2563 JUMP JUMPDEST DUP3 ADD SWAP2 SWAP1 PUSH1 0x0 MSTORE PUSH1 0x20 PUSH1 0x0 KECCAK256 SWAP1 JUMPDEST DUP2 SLOAD DUP2 MSTORE SWAP1 PUSH1 0x1 ADD SWAP1 PUSH1 0x20 ADD DUP1 DUP4 GT PUSH2 0x2546 JUMPI DUP3 SWAP1 SUB PUSH1 0x1F AND DUP3 ADD SWAP2 JUMPDEST POP POP POP POP POP SWAP1 POP SWAP2 SWAP1 POP JUMP JUMPDEST PUSH1 0x0 DUP5 PUSH1 0x0 PUSH1 0x4 PUSH1 0x0 DUP4 DUP2 MSTORE PUSH1 0x20 ADD SWAP1 DUP2 MSTORE PUSH1 0x20 ADD PUSH1 0x0 KECCAK256 PUSH1 0x3 ADD SLOAD GT PUSH2 0x25CB JUMPI PUSH1 0x40 MLOAD PUSH32 0x8C379A000000000000000000000000000000000000000000000000000000000 DUP2 MSTORE PUSH1 0x4 ADD PUSH2 0x25C2 SWAP1 PUSH2 0x3BA9 JUMP JUMPDEST PUSH1 0x40 MLOAD DUP1 SWAP2 SUB SWAP1 REVERT JUMPDEST PUSH1 0x8 PUSH1 0x0 DUP2 SLOAD DUP1 SWAP3 SWAP2 SWAP1 PUSH2 0x25DE SWAP1 PUSH2 0x3B15 JUMP JUMPDEST SWAP2 SWAP1 POP SSTORE POP PUSH1 0x0 PUSH1 0x4 PUSH1 0x0 DUP9 DUP2 MSTORE PUSH1 0x20 ADD SWAP1 DUP2 MSTORE PUSH1 0x20 ADD PUSH1 0x0 KECCAK256 PUSH1 0x5 ADD PUSH1 0x0 DUP8 DUP2 MSTORE PUSH1 0x20 ADD SWAP1 DUP2 MSTORE PUSH1 0x20 ADD PUSH1 0x0 KECCAK256 PUSH1 0x1 DUP2 PUSH1 0x1 DUP2 SLOAD ADD DUP1 DUP3 SSTORE DUP1 SWAP2 POP POP SUB SWAP1 PUSH1 0x0 MSTORE PUSH1 0x20 PUSH1 0x0 KECCAK256 SWAP1 PUSH1 0x5 MUL ADD SWAP1 POP PUSH1 0x8 SLOAD DUP2 PUSH1 0x0 ADD DUP2 SWAP1 SSTORE POP DUP6 DUP2 PUSH1 0x1 ADD DUP2 SWAP1 SSTORE POP DUP5 DUP2 PUSH1 0x2 ADD SWAP1 DUP2 PUSH2 0x2651 SWAP2 SWAP1 PUSH2 0x3FB3 JUMP JUMPDEST POP DUP4 DUP2 PUSH1 0x3 ADD SWAP1 DUP2 PUSH2 0x2663 SWAP2 SWAP1 PUSH2 0x3FB3 JUMP JUMPDEST POP PUSH1 0x6 PUSH1 0x0 DUP9 DUP2 MSTORE PUSH1 0x20 ADD SWAP1 DUP2 MSTORE PUSH1 0x20 ADD PUSH1 0x0 KECCAK256 DUP7 SWAP1 DUP1 PUSH1 0x1 DUP2 SLOAD ADD DUP1 DUP3 SSTORE DUP1 SWAP2 POP POP PUSH1 0x1 SWAP1 SUB SWAP1 PUSH1 0x0 MSTORE PUSH1 0x20 PUSH1 0x0 KECCAK256 ADD PUSH1 0x0 SWAP1 SWAP2 SWAP1 SWAP2 SWAP1 SWAP2 POP SSTORE PUSH32 0x7CD6F88CEC54E07D7B5A709E82D19E951E8D3A8F8E64C3982E5C2305383034B1 PUSH1 0x8 SLOAD PUSH1 0x40 MLOAD PUSH2 0x26CF SWAP2 SWAP1 PUSH2 0x2FCF JUMP JUMPDEST PUSH1 0x40 MLOAD DUP1 SWAP2 SUB SWAP1 LOG1 PUSH1 0x8 SLOAD SWAP3 POP POP POP SWAP5 SWAP4 POP POP POP POP JUMP JUMPDEST PUSH1 0x60 PUSH1 0x2 PUSH1 0x0 PUSH1 0x1 PUSH1 0x0 DUP6 DUP1 MLOAD SWAP1 PUSH1 0x20 ADD KECCAK256 DUP2 MSTORE PUSH1 0x20 ADD SWAP1 DUP2 MSTORE PUSH1 0x20 ADD PUSH1 0x0 KECCAK256 PUSH1 0x2 ADD SLOAD DUP2 MSTORE PUSH1 0x20 ADD SWAP1 DUP2 MSTORE PUSH1 0x20 ADD PUSH1 0x0 KECCAK256 PUSH1 0x1 ADD DUP1 SLOAD PUSH2 0x2726 SWAP1 PUSH2 0x3526 JUMP JUMPDEST DUP1 PUSH1 0x1F ADD PUSH1 0x20 DUP1 SWAP2 DIV MUL PUSH1 0x20 ADD PUSH1 0x40 MLOAD SWAP1 DUP2 ADD PUSH1 0x40 MSTORE DUP1 SWAP3 SWAP2 SWAP1 DUP2 DUP2 MSTORE PUSH1 0x20 ADD DUP3 DUP1 SLOAD PUSH2 0x2752 SWAP1 PUSH2 0x3526 JUMP JUMPDEST DUP1 ISZERO PUSH2 0x279F JUMPI DUP1 PUSH1 0x1F LT PUSH2 0x2774 JUMPI PUSH2 0x100 DUP1 DUP4 SLOAD DIV MUL DUP4 MSTORE SWAP2 PUSH1 0x20 ADD SWAP2 PUSH2 0x279F JUMP JUMPDEST DUP3 ADD SWAP2 SWAP1 PUSH1 0x0 MSTORE PUSH1 0x20 PUSH1 0x0 KECCAK256 SWAP1 JUMPDEST DUP2 SLOAD DUP2 MSTORE SWAP1 PUSH1 0x1 ADD SWAP1 PUSH1 0x20 ADD DUP1 DUP4 GT PUSH2 0x2782 JUMPI DUP3 SWAP1 SUB PUSH1 0x1F AND DUP3 ADD SWAP2 JUMPDEST POP POP POP POP POP SWAP1 POP SWAP2 SWAP1 POP JUMP JUMPDEST PUSH1 0x60 DUP2 PUSH1 0x4 PUSH1 0x0 DUP3 DUP2 MSTORE PUSH1 0x20 ADD SWAP1 DUP2 MSTORE PUSH1 0x20 ADD PUSH1 0x0 KECCAK256 PUSH1 0x0 ADD PUSH1 0x0 SWAP1 SLOAD SWAP1 PUSH2 0x100 EXP SWAP1 DIV PUSH20 0xFFFFFFFFFFFFFFFFFFFFFFFFFFFFFFFFFFFFFFFF AND PUSH20 0xFFFFFFFFFFFFFFFFFFFFFFFFFFFFFFFFFFFFFFFF AND CALLER PUSH20 0xFFFFFFFFFFFFFFFFFFFFFFFFFFFFFFFFFFFFFFFF AND EQ PUSH2 0x2852 JUMPI PUSH1 0x40 MLOAD PUSH32 0x8C379A000000000000000000000000000000000000000000000000000000000 DUP2 MSTORE PUSH1 0x4 ADD PUSH2 0x2849 SWAP1 PUSH2 0x413D JUMP JUMPDEST PUSH1 0x40 MLOAD DUP1 SWAP2 SUB SWAP1 REVERT JUMPDEST PUSH1 0x0 DUP1 PUSH1 0x4 PUSH1 0x0 DUP7 DUP2 MSTORE PUSH1 0x20 ADD SWAP1 DUP2 MSTORE PUSH1 0x20 ADD PUSH1 0x0 KECCAK256 PUSH1 0x2 ADD DUP1 SLOAD PUSH2 0x2876 SWAP1 PUSH2 0x3526 JUMP JUMPDEST DUP1 PUSH1 0x1F ADD PUSH1 0x20 DUP1 SWAP2 DIV MUL PUSH1 0x20 ADD PUSH1 0x40 MLOAD SWAP1 DUP2 ADD PUSH1 0x40 MSTORE DUP1 SWAP3 SWAP2 SWAP1 DUP2 DUP2 MSTORE PUSH1 0x20 ADD DUP3 DUP1 SLOAD PUSH2 0x28A2 SWAP1 PUSH2 0x3526 JUMP JUMPDEST DUP1 ISZERO PUSH2 0x28EF JUMPI DUP1 PUSH1 0x1F LT PUSH2 0x28C4 JUMPI PUSH2 0x100 DUP1 DUP4 SLOAD DIV MUL DUP4 MSTORE SWAP2 PUSH1 0x20 ADD SWAP2 PUSH2 0x28EF JUMP JUMPDEST DUP3 ADD SWAP2 SWAP1 PUSH1 0x0 MSTORE PUSH1 0x20 PUSH1 0x0 KECCAK256 SWAP1 JUMPDEST DUP2 SLOAD DUP2 MSTORE SWAP1 PUSH1 0x1 ADD SWAP1 PUSH1 0x20 ADD DUP1 DUP4 GT PUSH2 0x28D2 JUMPI DUP3 SWAP1 SUB PUSH1 0x1F AND DUP3 ADD SWAP2 JUMPDEST POP POP POP POP POP DUP1 PUSH1 0x20 ADD SWAP1 MLOAD DUP2 ADD SWAP1 PUSH2 0x2907 SWAP2 SWAP1 PUSH2 0x4239 JUMP JUMPDEST SWAP2 POP SWAP2 POP DUP2 SWAP4 POP POP POP POP SWAP2 SWAP1 POP JUMP JUMPDEST PUSH1 0x0 PUSH1 0x40 MLOAD SWAP1 POP SWAP1 JUMP JUMPDEST PUSH1 0x0 DUP1 REVERT JUMPDEST PUSH1 0x0 DUP1 REVERT JUMPDEST PUSH1 0x0 DUP2 SWAP1 POP SWAP2 SWAP1 POP JUMP JUMPDEST PUSH2 0x293D DUP2 PUSH2 0x292A JUMP JUMPDEST DUP2 EQ PUSH2 0x2948 JUMPI PUSH1 0x0 DUP1 REVERT JUMPDEST POP JUMP JUMPDEST PUSH1 0x0 DUP2 CALLDATALOAD SWAP1 POP PUSH2 0x295A DUP2 PUSH2 0x2934 JUMP JUMPDEST SWAP3 SWAP2 POP POP JUMP JUMPDEST PUSH1 0x0 PUSH1 0x20 DUP3 DUP5 SUB SLT ISZERO PUSH2 0x2976 JUMPI PUSH2 0x2975 PUSH2 0x2920 JUMP JUMPDEST JUMPDEST PUSH1 0x0 PUSH2 0x2984 DUP5 DUP3 DUP6 ADD PUSH2 0x294B JUMP JUMPDEST SWAP2 POP POP SWAP3 SWAP2 POP POP JUMP JUMPDEST PUSH1 0x0 DUP2 MLOAD SWAP1 POP SWAP2 SWAP1 POP JUMP JUMPDEST PUSH1 0x0 DUP3 DUP3 MSTORE PUSH1 0x20 DUP3 ADD SWAP1 POP SWAP3 SWAP2 POP POP JUMP JUMPDEST PUSH1 0x0 JUMPDEST DUP4 DUP2 LT ISZERO PUSH2 0x29C7 JUMPI DUP1 DUP3 ADD MLOAD DUP2 DUP5 ADD MSTORE PUSH1 0x20 DUP2 ADD SWAP1 POP PUSH2 0x29AC JUMP JUMPDEST PUSH1 0x0 DUP5 DUP5 ADD MSTORE POP POP POP POP JUMP JUMPDEST PUSH1 0x0 PUSH1 0x1F NOT PUSH1 0x1F DUP4 ADD AND SWAP1 POP SWAP2 SWAP1 POP JUMP JUMPDEST PUSH1 0x0 PUSH2 0x29EF DUP3 PUSH2 0x298D JUMP JUMPDEST PUSH2 0x29F9 DUP2 DUP6 PUSH2 0x2998 JUMP JUMPDEST SWAP4 POP PUSH2 0x2A09 DUP2 DUP6 PUSH1 0x20 DUP7 ADD PUSH2 0x29A9 JUMP JUMPDEST PUSH2 0x2A12 DUP2 PUSH2 0x29D3 JUMP JUMPDEST DUP5 ADD SWAP2 POP POP SWAP3 SWAP2 POP POP JUMP JUMPDEST PUSH1 0x0 DUP2 SWAP1 POP SWAP2 SWAP1 POP JUMP JUMPDEST PUSH2 0x2A30 DUP2 PUSH2 0x2A1D JUMP JUMPDEST DUP3 MSTORE POP POP JUMP JUMPDEST PUSH32 0x4E487B7100000000000000000000000000000000000000000000000000000000 PUSH1 0x0 MSTORE PUSH1 0x21 PUSH1 0x4 MSTORE PUSH1 0x24 PUSH1 0x0 REVERT JUMPDEST PUSH1 0x3 DUP2 LT PUSH2 0x2A76 JUMPI PUSH2 0x2A75 PUSH2 0x2A36 JUMP JUMPDEST JUMPDEST POP JUMP JUMPDEST PUSH1 0x0 DUP2 SWAP1 POP PUSH2 0x2A87 DUP3 PUSH2 0x2A65 JUMP JUMPDEST SWAP2 SWAP1 POP JUMP JUMPDEST PUSH1 0x0 PUSH2 0x2A97 DUP3 PUSH2 0x2A79 JUMP JUMPDEST SWAP1 POP SWAP2 SWAP1 POP JUMP JUMPDEST PUSH2 0x2AA7 DUP2 PUSH2 0x2A8C JUMP JUMPDEST DUP3 MSTORE POP POP JUMP JUMPDEST PUSH1 0x0 DUP2 MLOAD SWAP1 POP SWAP2 SWAP1 POP JUMP JUMPDEST PUSH1 0x0 DUP3 DUP3 MSTORE PUSH1 0x20 DUP3 ADD SWAP1 POP SWAP3 SWAP2 POP POP JUMP JUMPDEST PUSH1 0x0 PUSH2 0x2AD4 DUP3 PUSH2 0x2AAD JUMP JUMPDEST PUSH2 0x2ADE DUP2 DUP6 PUSH2 0x2AB8 JUMP JUMPDEST SWAP4 POP PUSH2 0x2AEE DUP2 DUP6 PUSH1 0x20 DUP7 ADD PUSH2 0x29A9 JUMP JUMPDEST PUSH2 0x2AF7 DUP2 PUSH2 0x29D3 JUMP JUMPDEST DUP5 ADD SWAP2 POP POP SWAP3 SWAP2 POP POP JUMP JUMPDEST PUSH1 0x0 PUSH1 0xC0 DUP3 ADD SWAP1 POP DUP2 DUP2 SUB PUSH1 0x0 DUP4 ADD MSTORE PUSH2 0x2B1C DUP2 DUP10 PUSH2 0x29E4 JUMP JUMPDEST SWAP1 POP PUSH2 0x2B2B PUSH1 0x20 DUP4 ADD DUP9 PUSH2 0x2A27 JUMP JUMPDEST PUSH2 0x2B38 PUSH1 0x40 DUP4 ADD DUP8 PUSH2 0x2A27 JUMP JUMPDEST PUSH2 0x2B45 PUSH1 0x60 DUP4 ADD DUP7 PUSH2 0x2A9E JUMP JUMPDEST DUP2 DUP2 SUB PUSH1 0x80 DUP4 ADD MSTORE PUSH2 0x2B57 DUP2 DUP6 PUSH2 0x2AC9 JUMP JUMPDEST SWAP1 POP DUP2 DUP2 SUB PUSH1 0xA0 DUP4 ADD MSTORE PUSH2 0x2B6B DUP2 DUP5 PUSH2 0x2AC9 JUMP JUMPDEST SWAP1 POP SWAP8 SWAP7 POP POP POP POP POP POP POP JUMP JUMPDEST PUSH2 0x2B81 DUP2 PUSH2 0x2A1D JUMP JUMPDEST DUP2 EQ PUSH2 0x2B8C JUMPI PUSH1 0x0 DUP1 REVERT JUMPDEST POP JUMP JUMPDEST PUSH1 0x0 DUP2 CALLDATALOAD SWAP1 POP PUSH2 0x2B9E DUP2 PUSH2 0x2B78 JUMP JUMPDEST SWAP3 SWAP2 POP POP JUMP JUMPDEST PUSH1 0x0 PUSH1 0x20 DUP3 DUP5 SUB SLT ISZERO PUSH2 0x2BBA JUMPI PUSH2 0x2BB9 PUSH2 0x2920 JUMP JUMPDEST JUMPDEST PUSH1 0x0 PUSH2 0x2BC8 DUP5 DUP3 DUP6 ADD PUSH2 0x2B8F JUMP JUMPDEST SWAP2 POP POP SWAP3 SWAP2 POP POP JUMP JUMPDEST PUSH1 0x0 PUSH20 0xFFFFFFFFFFFFFFFFFFFFFFFFFFFFFFFFFFFFFFFF DUP3 AND SWAP1 POP SWAP2 SWAP1 POP JUMP JUMPDEST PUSH1 0x0 PUSH2 0x2BFC DUP3 PUSH2 0x2BD1 JUMP JUMPDEST SWAP1 POP SWAP2 SWAP1 POP JUMP JUMPDEST PUSH2 0x2C0C DUP2 PUSH2 0x2BF1 JUMP JUMPDEST DUP3 MSTORE POP POP JUMP JUMPDEST PUSH1 0x0 PUSH1 0x20 DUP3 ADD SWAP1 POP PUSH2 0x2C27 PUSH1 0x0 DUP4 ADD DUP5 PUSH2 0x2C03 JUMP JUMPDEST SWAP3 SWAP2 POP POP JUMP JUMPDEST PUSH1 0x0 DUP1 REVERT JUMPDEST PUSH1 0x0 DUP1 REVERT JUMPDEST PUSH32 0x4E487B7100000000000000000000000000000000000000000000000000000000 PUSH1 0x0 MSTORE PUSH1 0x41 PUSH1 0x4 MSTORE PUSH1 0x24 PUSH1 0x0 REVERT JUMPDEST PUSH2 0x2C6F DUP3 PUSH2 0x29D3 JUMP JUMPDEST DUP2 ADD DUP2 DUP2 LT PUSH8 0xFFFFFFFFFFFFFFFF DUP3 GT OR ISZERO PUSH2 0x2C8E JUMPI PUSH2 0x2C8D PUSH2 0x2C37 JUMP JUMPDEST JUMPDEST DUP1 PUSH1 0x40 MSTORE POP POP POP JUMP JUMPDEST PUSH1 0x0 PUSH2 0x2CA1 PUSH2 0x2916 JUMP JUMPDEST SWAP1 POP PUSH2 0x2CAD DUP3 DUP3 PUSH2 0x2C66 JUMP JUMPDEST SWAP2 SWAP1 POP JUMP JUMPDEST PUSH1 0x0 PUSH8 0xFFFFFFFFFFFFFFFF DUP3 GT ISZERO PUSH2 0x2CCD JUMPI PUSH2 0x2CCC PUSH2 0x2C37 JUMP JUMPDEST JUMPDEST PUSH2 0x2CD6 DUP3 PUSH2 0x29D3 JUMP JUMPDEST SWAP1 POP PUSH1 0x20 DUP2 ADD SWAP1 POP SWAP2 SWAP1 POP JUMP JUMPDEST DUP3 DUP2 DUP4 CALLDATACOPY PUSH1 0x0 DUP4 DUP4 ADD MSTORE POP POP POP JUMP JUMPDEST PUSH1 0x0 PUSH2 0x2D05 PUSH2 0x2D00 DUP5 PUSH2 0x2CB2 JUMP JUMPDEST PUSH2 0x2C97 JUMP JUMPDEST SWAP1 POP DUP3 DUP2 MSTORE PUSH1 0x20 DUP2 ADD DUP5 DUP5 DUP5 ADD GT ISZERO PUSH2 0x2D21 JUMPI PUSH2 0x2D20 PUSH2 0x2C32 JUMP JUMPDEST JUMPDEST PUSH2 0x2D2C DUP5 DUP3 DUP6 PUSH2 0x2CE3 JUMP JUMPDEST POP SWAP4 SWAP3 POP POP POP JUMP JUMPDEST PUSH1 0x0 DUP3 PUSH1 0x1F DUP4 ADD SLT PUSH2 0x2D49 JUMPI PUSH2 0x2D48 PUSH2 0x2C2D JUMP JUMPDEST JUMPDEST DUP2 CALLDATALOAD PUSH2 0x2D59 DUP5 DUP3 PUSH1 0x20 DUP7 ADD PUSH2 0x2CF2 JUMP JUMPDEST SWAP2 POP POP SWAP3 SWAP2 POP POP JUMP JUMPDEST PUSH1 0x0 DUP1 PUSH1 0x0 PUSH1 0x60 DUP5 DUP7 SUB SLT ISZERO PUSH2 0x2D7B JUMPI PUSH2 0x2D7A PUSH2 0x2920 JUMP JUMPDEST JUMPDEST PUSH1 0x0 PUSH2 0x2D89 DUP7 DUP3 DUP8 ADD PUSH2 0x2B8F JUMP JUMPDEST SWAP4 POP POP PUSH1 0x20 DUP5 ADD CALLDATALOAD PUSH8 0xFFFFFFFFFFFFFFFF DUP2 GT ISZERO PUSH2 0x2DAA JUMPI PUSH2 0x2DA9 PUSH2 0x2925 JUMP JUMPDEST JUMPDEST PUSH2 0x2DB6 DUP7 DUP3 DUP8 ADD PUSH2 0x2D34 JUMP JUMPDEST SWAP3 POP POP PUSH1 0x40 DUP5 ADD CALLDATALOAD PUSH8 0xFFFFFFFFFFFFFFFF DUP2 GT ISZERO PUSH2 0x2DD7 JUMPI PUSH2 0x2DD6 PUSH2 0x2925 JUMP JUMPDEST JUMPDEST PUSH2 0x2DE3 DUP7 DUP3 DUP8 ADD PUSH2 0x2D34 JUMP JUMPDEST SWAP2 POP POP SWAP3 POP SWAP3 POP SWAP3 JUMP JUMPDEST PUSH1 0x0 PUSH1 0xC0 DUP3 ADD SWAP1 POP PUSH2 0x2E02 PUSH1 0x0 DUP4 ADD DUP10 PUSH2 0x2A27 JUMP JUMPDEST DUP2 DUP2 SUB PUSH1 0x20 DUP4 ADD MSTORE PUSH2 0x2E14 DUP2 DUP9 PUSH2 0x2AC9 JUMP JUMPDEST SWAP1 POP DUP2 DUP2 SUB PUSH1 0x40 DUP4 ADD MSTORE PUSH2 0x2E28 DUP2 DUP8 PUSH2 0x2AC9 JUMP JUMPDEST SWAP1 POP DUP2 DUP2 SUB PUSH1 0x60 DUP4 ADD MSTORE PUSH2 0x2E3C DUP2 DUP7 PUSH2 0x2AC9 JUMP JUMPDEST SWAP1 POP DUP2 DUP2 SUB PUSH1 0x80 DUP4 ADD MSTORE PUSH2 0x2E50 DUP2 DUP6 PUSH2 0x2AC9 JUMP JUMPDEST SWAP1 POP DUP2 DUP2 SUB PUSH1 0xA0 DUP4 ADD MSTORE PUSH2 0x2E64 DUP2 DUP5 PUSH2 0x2AC9 JUMP JUMPDEST SWAP1 POP SWAP8 SWAP7 POP POP POP POP POP POP POP JUMP JUMPDEST PUSH1 0x0 PUSH8 0xFFFFFFFFFFFFFFFF DUP3 GT ISZERO PUSH2 0x2E8C JUMPI PUSH2 0x2E8B PUSH2 0x2C37 JUMP JUMPDEST JUMPDEST PUSH2 0x2E95 DUP3 PUSH2 0x29D3 JUMP JUMPDEST SWAP1 POP PUSH1 0x20 DUP2 ADD SWAP1 POP SWAP2 SWAP1 POP JUMP JUMPDEST PUSH1 0x0 PUSH2 0x2EB5 PUSH2 0x2EB0 DUP5 PUSH2 0x2E71 JUMP JUMPDEST PUSH2 0x2C97 JUMP JUMPDEST SWAP1 POP DUP3 DUP2 MSTORE PUSH1 0x20 DUP2 ADD DUP5 DUP5 DUP5 ADD GT ISZERO PUSH2 0x2ED1 JUMPI PUSH2 0x2ED0 PUSH2 0x2C32 JUMP JUMPDEST JUMPDEST PUSH2 0x2EDC DUP5 DUP3 DUP6 PUSH2 0x2CE3 JUMP JUMPDEST POP SWAP4 SWAP3 POP POP POP JUMP JUMPDEST PUSH1 0x0 DUP3 PUSH1 0x1F DUP4 ADD SLT PUSH2 0x2EF9 JUMPI PUSH2 0x2EF8 PUSH2 0x2C2D JUMP JUMPDEST JUMPDEST DUP2 CALLDATALOAD PUSH2 0x2F09 DUP5 DUP3 PUSH1 0x20 DUP7 ADD PUSH2 0x2EA2 JUMP JUMPDEST SWAP2 POP POP SWAP3 SWAP2 POP POP JUMP JUMPDEST PUSH1 0x0 PUSH1 0x20 DUP3 DUP5 SUB SLT ISZERO PUSH2 0x2F28 JUMPI PUSH2 0x2F27 PUSH2 0x2920 JUMP JUMPDEST JUMPDEST PUSH1 0x0 DUP3 ADD CALLDATALOAD PUSH8 0xFFFFFFFFFFFFFFFF DUP2 GT ISZERO PUSH2 0x2F46 JUMPI PUSH2 0x2F45 PUSH2 0x2925 JUMP JUMPDEST JUMPDEST PUSH2 0x2F52 DUP5 DUP3 DUP6 ADD PUSH2 0x2EE4 JUMP JUMPDEST SWAP2 POP POP SWAP3 SWAP2 POP POP JUMP JUMPDEST PUSH1 0x0 PUSH1 0x20 DUP3 ADD SWAP1 POP PUSH2 0x2F70 PUSH1 0x0 DUP4 ADD DUP5 PUSH2 0x2A9E JUMP JUMPDEST SWAP3 SWAP2 POP POP JUMP JUMPDEST PUSH2 0x2F7F DUP2 PUSH2 0x2BF1 JUMP JUMPDEST DUP2 EQ PUSH2 0x2F8A JUMPI PUSH1 0x0 DUP1 REVERT JUMPDEST POP JUMP JUMPDEST PUSH1 0x0 DUP2 CALLDATALOAD SWAP1 POP PUSH2 0x2F9C DUP2 PUSH2 0x2F76 JUMP JUMPDEST SWAP3 SWAP2 POP POP JUMP JUMPDEST PUSH1 0x0 PUSH1 0x20 DUP3 DUP5 SUB SLT ISZERO PUSH2 0x2FB8 JUMPI PUSH2 0x2FB7 PUSH2 0x2920 JUMP JUMPDEST JUMPDEST PUSH1 0x0 PUSH2 0x2FC6 DUP5 DUP3 DUP6 ADD PUSH2 0x2F8D JUMP JUMPDEST SWAP2 POP POP SWAP3 SWAP2 POP POP JUMP JUMPDEST PUSH1 0x0 PUSH1 0x20 DUP3 ADD SWAP1 POP PUSH2 0x2FE4 PUSH1 0x0 DUP4 ADD DUP5 PUSH2 0x2A27 JUMP JUMPDEST SWAP3 SWAP2 POP POP JUMP JUMPDEST PUSH1 0x0 DUP1 PUSH1 0x40 DUP4 DUP6 SUB SLT ISZERO PUSH2 0x3001 JUMPI PUSH2 0x3000 PUSH2 0x2920 JUMP JUMPDEST JUMPDEST PUSH1 0x0 DUP4 ADD CALLDATALOAD PUSH8 0xFFFFFFFFFFFFFFFF DUP2 GT ISZERO PUSH2 0x301F JUMPI PUSH2 0x301E PUSH2 0x2925 JUMP JUMPDEST JUMPDEST PUSH2 0x302B DUP6 DUP3 DUP7 ADD PUSH2 0x2D34 JUMP JUMPDEST SWAP3 POP POP PUSH1 0x20 DUP4 ADD CALLDATALOAD PUSH8 0xFFFFFFFFFFFFFFFF DUP2 GT ISZERO PUSH2 0x304C JUMPI PUSH2 0x304B PUSH2 0x2925 JUMP JUMPDEST JUMPDEST PUSH2 0x3058 DUP6 DUP3 DUP7 ADD PUSH2 0x2D34 JUMP JUMPDEST SWAP2 POP POP SWAP3 POP SWAP3 SWAP1 POP JUMP JUMPDEST PUSH1 0x0 DUP1 PUSH1 0x40 DUP4 DUP6 SUB SLT ISZERO PUSH2 0x3079 JUMPI PUSH2 0x3078 PUSH2 0x2920 JUMP JUMPDEST JUMPDEST PUSH1 0x0 PUSH2 0x3087 DUP6 DUP3 DUP7 ADD PUSH2 0x2B8F JUMP JUMPDEST SWAP3 POP POP PUSH1 0x20 DUP4 ADD CALLDATALOAD PUSH8 0xFFFFFFFFFFFFFFFF DUP2 GT ISZERO PUSH2 0x30A8 JUMPI PUSH2 0x30A7 PUSH2 0x2925 JUMP JUMPDEST JUMPDEST PUSH2 0x30B4 DUP6 DUP3 DUP7 ADD PUSH2 0x2D34 JUMP JUMPDEST SWAP2 POP POP SWAP3 POP SWAP3 SWAP1 POP JUMP JUMPDEST PUSH1 0x3 DUP2 LT PUSH2 0x30CB JUMPI PUSH1 0x0 DUP1 REVERT JUMPDEST POP JUMP JUMPDEST PUSH1 0x0 DUP2 CALLDATALOAD SWAP1 POP PUSH2 0x30DD DUP2 PUSH2 0x30BE JUMP JUMPDEST SWAP3 SWAP2 POP POP JUMP JUMPDEST PUSH1 0x0 DUP1 PUSH1 0x0 DUP1 PUSH1 0x0 DUP1 PUSH1 0xC0 DUP8 DUP10 SUB SLT ISZERO PUSH2 0x3100 JUMPI PUSH2 0x30FF PUSH2 0x2920 JUMP JUMPDEST JUMPDEST PUSH1 0x0 PUSH2 0x310E DUP10 DUP3 DUP11 ADD PUSH2 0x2B8F JUMP JUMPDEST SWAP7 POP POP PUSH1 0x20 DUP8 ADD CALLDATALOAD PUSH8 0xFFFFFFFFFFFFFFFF DUP2 GT ISZERO PUSH2 0x312F JUMPI PUSH2 0x312E PUSH2 0x2925 JUMP JUMPDEST JUMPDEST PUSH2 0x313B DUP10 DUP3 DUP11 ADD PUSH2 0x2D34 JUMP JUMPDEST SWAP6 POP POP PUSH1 0x40 PUSH2 0x314C DUP10 DUP3 DUP11 ADD PUSH2 0x2B8F JUMP JUMPDEST SWAP5 POP POP PUSH1 0x60 PUSH2 0x315D DUP10 DUP3 DUP11 ADD PUSH2 0x30CE JUMP JUMPDEST SWAP4 POP POP PUSH1 0x80 DUP8 ADD CALLDATALOAD PUSH8 0xFFFFFFFFFFFFFFFF DUP2 GT ISZERO PUSH2 0x317E JUMPI PUSH2 0x317D PUSH2 0x2925 JUMP JUMPDEST JUMPDEST PUSH2 0x318A DUP10 DUP3 DUP11 ADD PUSH2 0x2D34 JUMP JUMPDEST SWAP3 POP POP PUSH1 0xA0 DUP8 ADD CALLDATALOAD PUSH8 0xFFFFFFFFFFFFFFFF DUP2 GT ISZERO PUSH2 0x31AB JUMPI PUSH2 0x31AA PUSH2 0x2925 JUMP JUMPDEST JUMPDEST PUSH2 0x31B7 DUP10 DUP3 DUP11 ADD PUSH2 0x2D34 JUMP JUMPDEST SWAP2 POP POP SWAP3 SWAP6 POP SWAP3 SWAP6 POP SWAP3 SWAP6 JUMP JUMPDEST PUSH1 0x0 PUSH1 0x20 DUP3 ADD SWAP1 POP DUP2 DUP2 SUB PUSH1 0x0 DUP4 ADD MSTORE PUSH2 0x31DE DUP2 DUP5 PUSH2 0x29E4 JUMP JUMPDEST SWAP1 POP SWAP3 SWAP2 POP POP JUMP JUMPDEST PUSH1 0x0 DUP1 PUSH1 0x0 DUP1 PUSH1 0x0 DUP1 PUSH1 0x0 PUSH1 0xE0 DUP9 DUP11 SUB SLT ISZERO PUSH2 0x3205 JUMPI PUSH2 0x3204 PUSH2 0x2920 JUMP JUMPDEST JUMPDEST PUSH1 0x0 PUSH2 0x3213 DUP11 DUP3 DUP12 ADD PUSH2 0x2B8F JUMP JUMPDEST SWAP8 POP POP PUSH1 0x20 DUP9 ADD CALLDATALOAD PUSH8 0xFFFFFFFFFFFFFFFF DUP2 GT ISZERO PUSH2 0x3234 JUMPI PUSH2 0x3233 PUSH2 0x2925 JUMP JUMPDEST JUMPDEST PUSH2 0x3240 DUP11 DUP3 DUP12 ADD PUSH2 0x2D34 JUMP JUMPDEST SWAP7 POP POP PUSH1 0x40 DUP9 ADD CALLDATALOAD PUSH8 0xFFFFFFFFFFFFFFFF DUP2 GT ISZERO PUSH2 0x3261 JUMPI PUSH2 0x3260 PUSH2 0x2925 JUMP JUMPDEST JUMPDEST PUSH2 0x326D DUP11 DUP3 DUP12 ADD PUSH2 0x2D34 JUMP JUMPDEST SWAP6 POP POP PUSH1 0x60 DUP9 ADD CALLDATALOAD PUSH8 0xFFFFFFFFFFFFFFFF DUP2 GT ISZERO PUSH2 0x328E JUMPI PUSH2 0x328D PUSH2 0x2925 JUMP JUMPDEST JUMPDEST PUSH2 0x329A DUP11 DUP3 DUP12 ADD PUSH2 0x2D34 JUMP JUMPDEST SWAP5 POP POP PUSH1 0x80 DUP9 ADD CALLDATALOAD PUSH8 0xFFFFFFFFFFFFFFFF DUP2 GT ISZERO PUSH2 0x32BB JUMPI PUSH2 0x32BA PUSH2 0x2925 JUMP JUMPDEST JUMPDEST PUSH2 0x32C7 DUP11 DUP3 DUP12 ADD PUSH2 0x2D34 JUMP JUMPDEST SWAP4 POP POP PUSH1 0xA0 DUP9 ADD CALLDATALOAD PUSH8 0xFFFFFFFFFFFFFFFF DUP2 GT ISZERO PUSH2 0x32E8 JUMPI PUSH2 0x32E7 PUSH2 0x2925 JUMP JUMPDEST JUMPDEST PUSH2 0x32F4 DUP11 DUP3 DUP12 ADD PUSH2 0x2D34 JUMP JUMPDEST SWAP3 POP POP PUSH1 0xC0 DUP9 ADD CALLDATALOAD PUSH8 0xFFFFFFFFFFFFFFFF DUP2 GT ISZERO PUSH2 0x3315 JUMPI PUSH2 0x3314 PUSH2 0x2925 JUMP JUMPDEST JUMPDEST PUSH2 0x3321 DUP11 DUP3 DUP12 ADD PUSH2 0x2D34 JUMP JUMPDEST SWAP2 POP POP SWAP3 SWAP6 SWAP9 SWAP2 SWAP5 SWAP8 POP SWAP3 SWAP6 POP JUMP JUMPDEST PUSH1 0x0 DUP1 PUSH1 0x0 PUSH1 0x60 DUP5 DUP7 SUB SLT ISZERO PUSH2 0x3349 JUMPI PUSH2 0x3348 PUSH2 0x2920 JUMP JUMPDEST JUMPDEST PUSH1 0x0 PUSH2 0x3357 DUP7 DUP3 DUP8 ADD PUSH2 0x2B8F JUMP JUMPDEST SWAP4 POP POP PUSH1 0x20 PUSH2 0x3368 DUP7 DUP3 DUP8 ADD PUSH2 0x2B8F JUMP JUMPDEST SWAP3 POP POP PUSH1 0x40 PUSH2 0x3379 DUP7 DUP3 DUP8 ADD PUSH2 0x2B8F JUMP JUMPDEST SWAP2 POP POP SWAP3 POP SWAP3 POP SWAP3 JUMP JUMPDEST PUSH1 0x0 DUP1 PUSH1 0x0 DUP1 PUSH1 0x0 PUSH1 0xA0 DUP7 DUP9 SUB SLT ISZERO PUSH2 0x339F JUMPI PUSH2 0x339E PUSH2 0x2920 JUMP JUMPDEST JUMPDEST PUSH1 0x0 PUSH2 0x33AD DUP9 DUP3 DUP10 ADD PUSH2 0x2B8F JUMP JUMPDEST SWAP6 POP POP PUSH1 0x20 DUP7 ADD CALLDATALOAD PUSH8 0xFFFFFFFFFFFFFFFF DUP2 GT ISZERO PUSH2 0x33CE JUMPI PUSH2 0x33CD PUSH2 0x2925 JUMP JUMPDEST JUMPDEST PUSH2 0x33DA DUP9 DUP3 DUP10 ADD PUSH2 0x2D34 JUMP JUMPDEST SWAP5 POP POP PUSH1 0x40 DUP7 ADD CALLDATALOAD PUSH8 0xFFFFFFFFFFFFFFFF DUP2 GT ISZERO PUSH2 0x33FB JUMPI PUSH2 0x33FA PUSH2 0x2925 JUMP JUMPDEST JUMPDEST PUSH2 0x3407 DUP9 DUP3 DUP10 ADD PUSH2 0x2EE4 JUMP JUMPDEST SWAP4 POP POP PUSH1 0x60 PUSH2 0x3418 DUP9 DUP3 DUP10 ADD PUSH2 0x2B8F JUMP JUMPDEST SWAP3 POP POP PUSH1 0x80 PUSH2 0x3429 DUP9 DUP3 DUP10 ADD PUSH2 0x2B8F JUMP JUMPDEST SWAP2 POP POP SWAP3 SWAP6 POP SWAP3 SWAP6 SWAP1 SWAP4 POP JUMP JUMPDEST PUSH1 0x0 PUSH1 0x20 DUP3 ADD SWAP1 POP DUP2 DUP2 SUB PUSH1 0x0 DUP4 ADD MSTORE PUSH2 0x3450 DUP2 DUP5 PUSH2 0x2AC9 JUMP JUMPDEST SWAP1 POP SWAP3 SWAP2 POP POP JUMP JUMPDEST PUSH1 0x0 DUP1 PUSH1 0x0 DUP1 PUSH1 0x80 DUP6 DUP8 SUB SLT ISZERO PUSH2 0x3472 JUMPI PUSH2 0x3471 PUSH2 0x2920 JUMP JUMPDEST JUMPDEST PUSH1 0x0 PUSH2 0x3480 DUP8 DUP3 DUP9 ADD PUSH2 0x2B8F JUMP JUMPDEST SWAP5 POP POP PUSH1 0x20 PUSH2 0x3491 DUP8 DUP3 DUP9 ADD PUSH2 0x2B8F JUMP JUMPDEST SWAP4 POP POP PUSH1 0x40 DUP6 ADD CALLDATALOAD PUSH8 0xFFFFFFFFFFFFFFFF DUP2 GT ISZERO PUSH2 0x34B2 JUMPI PUSH2 0x34B1 PUSH2 0x2925 JUMP JUMPDEST JUMPDEST PUSH2 0x34BE DUP8 DUP3 DUP9 ADD PUSH2 0x2D34 JUMP JUMPDEST SWAP3 POP POP PUSH1 0x60 DUP6 ADD CALLDATALOAD PUSH8 0xFFFFFFFFFFFFFFFF DUP2 GT ISZERO PUSH2 0x34DF JUMPI PUSH2 0x34DE PUSH2 0x2925 JUMP JUMPDEST JUMPDEST PUSH2 0x34EB DUP8 DUP3 DUP9 ADD PUSH2 0x2D34 JUMP JUMPDEST SWAP2 POP POP SWAP3 SWAP6 SWAP2 SWAP5 POP SWAP3 POP JUMP JUMPDEST PUSH32 0x4E487B7100000000000000000000000000000000000000000000000000000000 PUSH1 0x0 MSTORE PUSH1 0x22 PUSH1 0x4 MSTORE PUSH1 0x24 PUSH1 0x0 REVERT JUMPDEST PUSH1 0x0 PUSH1 0x2 DUP3 DIV SWAP1 POP PUSH1 0x1 DUP3 AND DUP1 PUSH2 0x353E JUMPI PUSH1 0x7F DUP3 AND SWAP2 POP JUMPDEST PUSH1 0x20 DUP3 LT DUP2 SUB PUSH2 0x3551 JUMPI PUSH2 0x3550 PUSH2 0x34F7 JUMP JUMPDEST JUMPDEST POP SWAP2 SWAP1 POP JUMP JUMPDEST PUSH1 0x0 DUP2 SWAP1 POP SWAP3 SWAP2 POP POP JUMP JUMPDEST PUSH1 0x0 DUP2 SWAP1 POP DUP2 PUSH1 0x0 MSTORE PUSH1 0x20 PUSH1 0x0 KECCAK256 SWAP1 POP SWAP2 SWAP1 POP JUMP JUMPDEST PUSH1 0x0 DUP2 SLOAD PUSH2 0x3584 DUP2 PUSH2 0x3526 JUMP JUMPDEST PUSH2 0x358E DUP2 DUP7 PUSH2 0x3557 JUMP JUMPDEST SWAP5 POP PUSH1 0x1 DUP3 AND PUSH1 0x0 DUP2 EQ PUSH2 0x35A9 JUMPI PUSH1 0x1 DUP2 EQ PUSH2 0x35BE JUMPI PUSH2 0x35F1 JUMP JUMPDEST PUSH1 0xFF NOT DUP4 AND DUP7 MSTORE DUP2 ISZERO ISZERO DUP3 MUL DUP7 ADD SWAP4 POP PUSH2 0x35F1 JUMP JUMPDEST PUSH2 0x35C7 DUP6 PUSH2 0x3562 JUMP JUMPDEST PUSH1 0x0 JUMPDEST DUP4 DUP2 LT ISZERO PUSH2 0x35E9 JUMPI DUP2 SLOAD DUP2 DUP10 ADD MSTORE PUSH1 0x1 DUP3 ADD SWAP2 POP PUSH1 0x20 DUP2 ADD SWAP1 POP PUSH2 0x35CA JUMP JUMPDEST DUP4 DUP9 ADD SWAP6 POP POP POP JUMPDEST POP POP POP SWAP3 SWAP2 POP POP JUMP JUMPDEST PUSH1 0x0 PUSH2 0x3606 DUP3 DUP5 PUSH2 0x3577 JUMP JUMPDEST SWAP2 POP DUP2 SWAP1 POP SWAP3 SWAP2 POP POP JUMP JUMPDEST PUSH32 0x70617373776F7264000000000000000000000000000000000000000000000000 PUSH1 0x0 DUP3 ADD MSTORE POP JUMP JUMPDEST PUSH1 0x0 PUSH2 0x3647 PUSH1 0x8 DUP4 PUSH2 0x2AB8 JUMP JUMPDEST SWAP2 POP PUSH2 0x3652 DUP3 PUSH2 0x3611 JUMP JUMPDEST PUSH1 0x20 DUP3 ADD SWAP1 POP SWAP2 SWAP1 POP JUMP JUMPDEST PUSH1 0x0 PUSH1 0x40 DUP3 ADD SWAP1 POP DUP2 DUP2 SUB PUSH1 0x0 DUP4 ADD MSTORE PUSH2 0x3677 DUP2 DUP5 PUSH2 0x2AC9 JUMP JUMPDEST SWAP1 POP DUP2 DUP2 SUB PUSH1 0x20 DUP4 ADD MSTORE PUSH2 0x368A DUP2 PUSH2 0x363A JUMP JUMPDEST SWAP1 POP SWAP3 SWAP2 POP POP JUMP JUMPDEST PUSH32 0x57726F6E672070617373776F7264210000000000000000000000000000000000 PUSH1 0x0 DUP3 ADD MSTORE POP JUMP JUMPDEST PUSH1 0x0 PUSH2 0x36C8 PUSH1 0xF DUP4 PUSH2 0x2AB8 JUMP JUMPDEST SWAP2 POP PUSH2 0x36D3 DUP3 PUSH2 0x3692 JUMP JUMPDEST PUSH1 0x20 DUP3 ADD SWAP1 POP SWAP2 SWAP1 POP JUMP JUMPDEST PUSH1 0x0 PUSH1 0x20 DUP3 ADD SWAP1 POP DUP2 DUP2 SUB PUSH1 0x0 DUP4 ADD MSTORE PUSH2 0x36F7 DUP2 PUSH2 0x36BB JUMP JUMPDEST SWAP1 POP SWAP2 SWAP1 POP JUMP JUMPDEST PUSH32 0x696E76616C6964204E524943206E756D62657200000000000000000000000000 PUSH1 0x0 DUP3 ADD MSTORE POP JUMP JUMPDEST PUSH1 0x0 PUSH2 0x3734 PUSH1 0x13 DUP4 PUSH2 0x2AB8 JUMP JUMPDEST SWAP2 POP PUSH2 0x373F DUP3 PUSH2 0x36FE JUMP JUMPDEST PUSH1 0x20 DUP3 ADD SWAP1 POP SWAP2 SWAP1 POP JUMP JUMPDEST PUSH1 0x0 PUSH1 0x20 DUP3 ADD SWAP1 POP DUP2 DUP2 SUB PUSH1 0x0 DUP4 ADD MSTORE PUSH2 0x3763 DUP2 PUSH2 0x3727 JUMP JUMPDEST SWAP1 POP SWAP2 SWAP1 POP JUMP JUMPDEST PUSH32 0x6963000000000000000000000000000000000000000000000000000000000000 PUSH1 0x0 DUP3 ADD MSTORE POP JUMP JUMPDEST PUSH1 0x0 PUSH2 0x37A0 PUSH1 0x2 DUP4 PUSH2 0x2AB8 JUMP JUMPDEST SWAP2 POP PUSH2 0x37AB DUP3 PUSH2 0x376A JUMP JUMPDEST PUSH1 0x20 DUP3 ADD SWAP1 POP SWAP2 SWAP1 POP JUMP JUMPDEST PUSH1 0x0 PUSH1 0x40 DUP3 ADD SWAP1 POP DUP2 DUP2 SUB PUSH1 0x0 DUP4 ADD MSTORE PUSH2 0x37D0 DUP2 DUP5 PUSH2 0x2AC9 JUMP JUMPDEST SWAP1 POP DUP2 DUP2 SUB PUSH1 0x20 DUP4 ADD MSTORE PUSH2 0x37E3 DUP2 PUSH2 0x3793 JUMP JUMPDEST SWAP1 POP SWAP3 SWAP2 POP POP JUMP JUMPDEST PUSH1 0x0 PUSH1 0x20 PUSH1 0x1F DUP4 ADD DIV SWAP1 POP SWAP2 SWAP1 POP JUMP JUMPDEST PUSH1 0x0 DUP3 DUP3 SHL SWAP1 POP SWAP3 SWAP2 POP POP JUMP JUMPDEST PUSH1 0x0 PUSH1 0x8 DUP4 MUL PUSH2 0x3838 PUSH32 0xFFFFFFFFFFFFFFFFFFFFFFFFFFFFFFFFFFFFFFFFFFFFFFFFFFFFFFFFFFFFFFFF DUP3 PUSH2 0x37FB JUMP JUMPDEST PUSH2 0x3842 DUP7 DUP4 PUSH2 0x37FB JUMP JUMPDEST SWAP6 POP DUP1 NOT DUP5 AND SWAP4 POP DUP1 DUP7 AND DUP5 OR SWAP3 POP POP POP SWAP4 SWAP3 POP POP POP JUMP JUMPDEST PUSH1 0x0 DUP2 SWAP1 POP SWAP2 SWAP1 POP JUMP JUMPDEST PUSH1 0x0 PUSH2 0x387F PUSH2 0x387A PUSH2 0x3875 DUP5 PUSH2 0x2A1D JUMP JUMPDEST PUSH2 0x385A JUMP JUMPDEST PUSH2 0x2A1D JUMP JUMPDEST SWAP1 POP SWAP2 SWAP1 POP JUMP JUMPDEST PUSH1 0x0 DUP2 SWAP1 POP SWAP2 SWAP1 POP JUMP JUMPDEST PUSH2 0x3899 DUP4 PUSH2 0x3864 JUMP JUMPDEST PUSH2 0x38AD PUSH2 0x38A5 DUP3 PUSH2 0x3886 JUMP JUMPDEST DUP5 DUP5 SLOAD PUSH2 0x3808 JUMP JUMPDEST DUP3 SSTORE POP POP POP POP JUMP JUMPDEST PUSH1 0x0 SWAP1 JUMP JUMPDEST PUSH2 0x38C2 PUSH2 0x38B5 JUMP JUMPDEST PUSH2 0x38CD DUP2 DUP5 DUP5 PUSH2 0x3890 JUMP JUMPDEST POP POP POP JUMP JUMPDEST JUMPDEST DUP2 DUP2 LT ISZERO PUSH2 0x38F1 JUMPI PUSH2 0x38E6 PUSH1 0x0 DUP3 PUSH2 0x38BA JUMP JUMPDEST PUSH1 0x1 DUP2 ADD SWAP1 POP PUSH2 0x38D3 JUMP JUMPDEST POP POP JUMP JUMPDEST PUSH1 0x1F DUP3 GT ISZERO PUSH2 0x3936 JUMPI PUSH2 0x3907 DUP2 PUSH2 0x3562 JUMP JUMPDEST PUSH2 0x3910 DUP5 PUSH2 0x37EB JUMP JUMPDEST DUP2 ADD PUSH1 0x20 DUP6 LT ISZERO PUSH2 0x391F JUMPI DUP2 SWAP1 POP JUMPDEST PUSH2 0x3933 PUSH2 0x392B DUP6 PUSH2 0x37EB JUMP JUMPDEST DUP4 ADD DUP3 PUSH2 0x38D2 JUMP JUMPDEST POP POP JUMPDEST POP POP POP JUMP JUMPDEST PUSH1 0x0 DUP3 DUP3 SHR SWAP1 POP SWAP3 SWAP2 POP POP JUMP JUMPDEST PUSH1 0x0 PUSH2 0x3959 PUSH1 0x0 NOT DUP5 PUSH1 0x8 MUL PUSH2 0x393B JUMP JUMPDEST NOT DUP1 DUP4 AND SWAP2 POP POP SWAP3 SWAP2 POP POP JUMP JUMPDEST PUSH1 0x0 PUSH2 0x3972 DUP4 DUP4 PUSH2 0x3948 JUMP JUMPDEST SWAP2 POP DUP3 PUSH1 0x2 MUL DUP3 OR SWAP1 POP SWAP3 SWAP2 POP POP JUMP JUMPDEST PUSH2 0x398B DUP3 PUSH2 0x298D JUMP JUMPDEST PUSH8 0xFFFFFFFFFFFFFFFF DUP2 GT ISZERO PUSH2 0x39A4 JUMPI PUSH2 0x39A3 PUSH2 0x2C37 JUMP JUMPDEST JUMPDEST PUSH2 0x39AE DUP3 SLOAD PUSH2 0x3526 JUMP JUMPDEST PUSH2 0x39B9 DUP3 DUP3 DUP6 PUSH2 0x38F5 JUMP JUMPDEST PUSH1 0x0 PUSH1 0x20 SWAP1 POP PUSH1 0x1F DUP4 GT PUSH1 0x1 DUP2 EQ PUSH2 0x39EC JUMPI PUSH1 0x0 DUP5 ISZERO PUSH2 0x39DA JUMPI DUP3 DUP8 ADD MLOAD SWAP1 POP JUMPDEST PUSH2 0x39E4 DUP6 DUP3 PUSH2 0x3966 JUMP JUMPDEST DUP7 SSTORE POP PUSH2 0x3A4C JUMP JUMPDEST PUSH1 0x1F NOT DUP5 AND PUSH2 0x39FA DUP7 PUSH2 0x3562 JUMP JUMPDEST PUSH1 0x0 JUMPDEST DUP3 DUP2 LT ISZERO PUSH2 0x3A22 JUMPI DUP5 DUP10 ADD MLOAD DUP3 SSTORE PUSH1 0x1 DUP3 ADD SWAP2 POP PUSH1 0x20 DUP6 ADD SWAP5 POP PUSH1 0x20 DUP2 ADD SWAP1 POP PUSH2 0x39FD JUMP JUMPDEST DUP7 DUP4 LT ISZERO PUSH2 0x3A3F JUMPI DUP5 DUP10 ADD MLOAD PUSH2 0x3A3B PUSH1 0x1F DUP10 AND DUP3 PUSH2 0x3948 JUMP JUMPDEST DUP4 SSTORE POP JUMPDEST PUSH1 0x1 PUSH1 0x2 DUP9 MUL ADD DUP9 SSTORE POP POP POP JUMPDEST POP POP POP POP POP POP JUMP JUMPDEST PUSH32 0x302E303120455448206973206E656564656420746F2072656769737465722079 PUSH1 0x0 DUP3 ADD MSTORE PUSH32 0x6F757220686F73706974616C0000000000000000000000000000000000000000 PUSH1 0x20 DUP3 ADD MSTORE POP JUMP JUMPDEST PUSH1 0x0 PUSH2 0x3AB0 PUSH1 0x2C DUP4 PUSH2 0x2AB8 JUMP JUMPDEST SWAP2 POP PUSH2 0x3ABB DUP3 PUSH2 0x3A54 JUMP JUMPDEST PUSH1 0x40 DUP3 ADD SWAP1 POP SWAP2 SWAP1 POP JUMP JUMPDEST PUSH1 0x0 PUSH1 0x20 DUP3 ADD SWAP1 POP DUP2 DUP2 SUB PUSH1 0x0 DUP4 ADD MSTORE PUSH2 0x3ADF DUP2 PUSH2 0x3AA3 JUMP JUMPDEST SWAP1 POP SWAP2 SWAP1 POP JUMP JUMPDEST PUSH32 0x4E487B7100000000000000000000000000000000000000000000000000000000 PUSH1 0x0 MSTORE PUSH1 0x11 PUSH1 0x4 MSTORE PUSH1 0x24 PUSH1 0x0 REVERT JUMPDEST PUSH1 0x0 PUSH2 0x3B20 DUP3 PUSH2 0x2A1D JUMP JUMPDEST SWAP2 POP PUSH32 0xFFFFFFFFFFFFFFFFFFFFFFFFFFFFFFFFFFFFFFFFFFFFFFFFFFFFFFFFFFFFFFFF DUP3 SUB PUSH2 0x3B52 JUMPI PUSH2 0x3B51 PUSH2 0x3AE6 JUMP JUMPDEST JUMPDEST PUSH1 0x1 DUP3 ADD SWAP1 POP SWAP2 SWAP1 POP JUMP JUMPDEST PUSH32 0x496E76616C696420686F73706974616C20696421000000000000000000000000 PUSH1 0x0 DUP3 ADD MSTORE POP JUMP JUMPDEST PUSH1 0x0 PUSH2 0x3B93 PUSH1 0x14 DUP4 PUSH2 0x2AB8 JUMP JUMPDEST SWAP2 POP PUSH2 0x3B9E DUP3 PUSH2 0x3B5D JUMP JUMPDEST PUSH1 0x20 DUP3 ADD SWAP1 POP SWAP2 SWAP1 POP JUMP JUMPDEST PUSH1 0x0 PUSH1 0x20 DUP3 ADD SWAP1 POP DUP2 DUP2 SUB PUSH1 0x0 DUP4 ADD MSTORE PUSH2 0x3BC2 DUP2 PUSH2 0x3B86 JUMP JUMPDEST SWAP1 POP SWAP2 SWAP1 POP JUMP JUMPDEST PUSH32 0x4E487B7100000000000000000000000000000000000000000000000000000000 PUSH1 0x0 MSTORE PUSH1 0x32 PUSH1 0x4 MSTORE PUSH1 0x24 PUSH1 0x0 REVERT JUMPDEST PUSH1 0x0 PUSH2 0x3C03 DUP3 PUSH2 0x298D JUMP JUMPDEST PUSH2 0x3C0D DUP2 DUP6 PUSH2 0x3557 JUMP JUMPDEST SWAP4 POP PUSH2 0x3C1D DUP2 DUP6 PUSH1 0x20 DUP7 ADD PUSH2 0x29A9 JUMP JUMPDEST DUP1 DUP5 ADD SWAP2 POP POP SWAP3 SWAP2 POP POP JUMP JUMPDEST PUSH1 0x0 PUSH2 0x3C35 DUP3 DUP5 PUSH2 0x3BF8 JUMP JUMPDEST SWAP2 POP DUP2 SWAP1 POP SWAP3 SWAP2 POP POP JUMP JUMPDEST PUSH1 0x0 DUP2 MLOAD SWAP1 POP SWAP2 SWAP1 POP JUMP JUMPDEST PUSH1 0x0 DUP3 DUP3 MSTORE PUSH1 0x20 DUP3 ADD SWAP1 POP SWAP3 SWAP2 POP POP JUMP JUMPDEST PUSH1 0x0 DUP2 SWAP1 POP PUSH1 0x20 DUP3 ADD SWAP1 POP SWAP2 SWAP1 POP JUMP JUMPDEST PUSH2 0x3C75 DUP2 PUSH2 0x2A1D JUMP JUMPDEST DUP3 MSTORE POP POP JUMP JUMPDEST PUSH1 0x0 PUSH2 0x3C87 DUP4 DUP4 PUSH2 0x3C6C JUMP JUMPDEST PUSH1 0x20 DUP4 ADD SWAP1 POP SWAP3 SWAP2 POP POP JUMP JUMPDEST PUSH1 0x0 PUSH1 0x20 DUP3 ADD SWAP1 POP SWAP2 SWAP1 POP JUMP JUMPDEST PUSH1 0x0 PUSH2 0x3CAB DUP3 PUSH2 0x3C40 JUMP JUMPDEST PUSH2 0x3CB5 DUP2 DUP6 PUSH2 0x3C4B JUMP JUMPDEST SWAP4 POP PUSH2 0x3CC0 DUP4 PUSH2 0x3C5C JUMP JUMPDEST DUP1 PUSH1 0x0 JUMPDEST DUP4 DUP2 LT ISZERO PUSH2 0x3CF1 JUMPI DUP2 MLOAD PUSH2 0x3CD8 DUP9 DUP3 PUSH2 0x3C7B JUMP JUMPDEST SWAP8 POP PUSH2 0x3CE3 DUP4 PUSH2 0x3C93 JUMP JUMPDEST SWAP3 POP POP PUSH1 0x1 DUP2 ADD SWAP1 POP PUSH2 0x3CC4 JUMP JUMPDEST POP DUP6 SWAP4 POP POP POP POP SWAP3 SWAP2 POP POP JUMP JUMPDEST PUSH1 0x0 DUP2 MLOAD SWAP1 POP SWAP2 SWAP1 POP JUMP JUMPDEST PUSH1 0x0 DUP3 DUP3 MSTORE PUSH1 0x20 DUP3 ADD SWAP1 POP SWAP3 SWAP2 POP POP JUMP JUMPDEST PUSH1 0x0 DUP2 SWAP1 POP PUSH1 0x20 DUP3 ADD SWAP1 POP SWAP2 SWAP1 POP JUMP JUMPDEST PUSH1 0x0 DUP3 DUP3 MSTORE PUSH1 0x20 DUP3 ADD SWAP1 POP SWAP3 SWAP2 POP POP JUMP JUMPDEST PUSH1 0x0 PUSH2 0x3D46 DUP3 PUSH2 0x2AAD JUMP JUMPDEST PUSH2 0x3D50 DUP2 DUP6 PUSH2 0x3D2A JUMP JUMPDEST SWAP4 POP PUSH2 0x3D60 DUP2 DUP6 PUSH1 0x20 DUP7 ADD PUSH2 0x29A9 JUMP JUMPDEST PUSH2 0x3D69 DUP2 PUSH2 0x29D3 JUMP JUMPDEST DUP5 ADD SWAP2 POP POP SWAP3 SWAP2 POP POP JUMP JUMPDEST PUSH1 0x0 PUSH2 0x3D80 DUP4 DUP4 PUSH2 0x3D3B JUMP JUMPDEST SWAP1 POP SWAP3 SWAP2 POP POP JUMP JUMPDEST PUSH1 0x0 PUSH1 0x20 DUP3 ADD SWAP1 POP SWAP2 SWAP1 POP JUMP JUMPDEST PUSH1 0x0 PUSH2 0x3DA0 DUP3 PUSH2 0x3CFE JUMP JUMPDEST PUSH2 0x3DAA DUP2 DUP6 PUSH2 0x3D09 JUMP JUMPDEST SWAP4 POP DUP4 PUSH1 0x20 DUP3 MUL DUP6 ADD PUSH2 0x3DBC DUP6 PUSH2 0x3D1A JUMP JUMPDEST DUP1 PUSH1 0x0 JUMPDEST DUP6 DUP2 LT ISZERO PUSH2 0x3DF8 JUMPI DUP5 DUP5 SUB DUP10 MSTORE DUP2 MLOAD PUSH2 0x3DD9 DUP6 DUP3 PUSH2 0x3D74 JUMP JUMPDEST SWAP5 POP PUSH2 0x3DE4 DUP4 PUSH2 0x3D88 JUMP JUMPDEST SWAP3 POP PUSH1 0x20 DUP11 ADD SWAP10 POP POP PUSH1 0x1 DUP2 ADD SWAP1 POP PUSH2 0x3DC0 JUMP JUMPDEST POP DUP3 SWAP8 POP DUP8 SWAP6 POP POP POP POP POP POP SWAP3 SWAP2 POP POP JUMP JUMPDEST PUSH1 0x0 PUSH1 0x80 DUP3 ADD SWAP1 POP DUP2 DUP2 SUB PUSH1 0x0 DUP4 ADD MSTORE PUSH2 0x3E24 DUP2 DUP8 PUSH2 0x3CA0 JUMP JUMPDEST SWAP1 POP DUP2 DUP2 SUB PUSH1 0x20 DUP4 ADD MSTORE PUSH2 0x3E38 DUP2 DUP7 PUSH2 0x3CA0 JUMP JUMPDEST SWAP1 POP DUP2 DUP2 SUB PUSH1 0x40 DUP4 ADD MSTORE PUSH2 0x3E4C DUP2 DUP6 PUSH2 0x3D95 JUMP JUMPDEST SWAP1 POP DUP2 DUP2 SUB PUSH1 0x60 DUP4 ADD MSTORE PUSH2 0x3E60 DUP2 DUP5 PUSH2 0x3D95 JUMP JUMPDEST SWAP1 POP SWAP6 SWAP5 POP POP POP POP POP JUMP JUMPDEST PUSH32 0x496E76616C696420646174652100000000000000000000000000000000000000 PUSH1 0x0 DUP3 ADD MSTORE POP JUMP JUMPDEST PUSH1 0x0 PUSH2 0x3EA1 PUSH1 0xD DUP4 PUSH2 0x2AB8 JUMP JUMPDEST SWAP2 POP PUSH2 0x3EAC DUP3 PUSH2 0x3E6B JUMP JUMPDEST PUSH1 0x20 DUP3 ADD SWAP1 POP SWAP2 SWAP1 POP JUMP JUMPDEST PUSH1 0x0 PUSH1 0x20 DUP3 ADD SWAP1 POP DUP2 DUP2 SUB PUSH1 0x0 DUP4 ADD MSTORE PUSH2 0x3ED0 DUP2 PUSH2 0x3E94 JUMP JUMPDEST SWAP1 POP SWAP2 SWAP1 POP JUMP JUMPDEST PUSH1 0x0 PUSH2 0x3EE2 DUP3 PUSH2 0x2A1D JUMP JUMPDEST SWAP2 POP PUSH2 0x3EED DUP4 PUSH2 0x2A1D JUMP JUMPDEST SWAP3 POP DUP3 DUP3 ADD SWAP1 POP DUP1 DUP3 GT ISZERO PUSH2 0x3F05 JUMPI PUSH2 0x3F04 PUSH2 0x3AE6 JUMP JUMPDEST JUMPDEST SWAP3 SWAP2 POP POP JUMP JUMPDEST PUSH1 0x0 DUP2 SWAP1 POP SWAP2 SWAP1 POP JUMP JUMPDEST PUSH2 0x3F26 PUSH2 0x3F21 DUP3 PUSH2 0x2A1D JUMP JUMPDEST PUSH2 0x3F0B JUMP JUMPDEST DUP3 MSTORE POP POP JUMP JUMPDEST PUSH1 0x0 PUSH2 0x3F38 DUP3 DUP6 PUSH2 0x3F15 JUMP JUMPDEST PUSH1 0x20 DUP3 ADD SWAP2 POP PUSH2 0x3F48 DUP3 DUP5 PUSH2 0x3F15 JUMP JUMPDEST PUSH1 0x20 DUP3 ADD SWAP2 POP DUP2 SWAP1 POP SWAP4 SWAP3 POP POP POP JUMP JUMPDEST PUSH1 0x0 DUP2 SWAP1 POP DUP2 PUSH1 0x0 MSTORE PUSH1 0x20 PUSH1 0x0 KECCAK256 SWAP1 POP SWAP2 SWAP1 POP JUMP JUMPDEST PUSH1 0x1F DUP3 GT ISZERO PUSH2 0x3FAE JUMPI PUSH2 0x3F7F DUP2 PUSH2 0x3F58 JUMP JUMPDEST PUSH2 0x3F88 DUP5 PUSH2 0x37EB JUMP JUMPDEST DUP2 ADD PUSH1 0x20 DUP6 LT ISZERO PUSH2 0x3F97 JUMPI DUP2 SWAP1 POP JUMPDEST PUSH2 0x3FAB PUSH2 0x3FA3 DUP6 PUSH2 0x37EB JUMP JUMPDEST DUP4 ADD DUP3 PUSH2 0x38D2 JUMP JUMPDEST POP POP JUMPDEST POP POP POP JUMP JUMPDEST PUSH2 0x3FBC DUP3 PUSH2 0x2AAD JUMP JUMPDEST PUSH8 0xFFFFFFFFFFFFFFFF DUP2 GT ISZERO PUSH2 0x3FD5 JUMPI PUSH2 0x3FD4 PUSH2 0x2C37 JUMP JUMPDEST JUMPDEST PUSH2 0x3FDF DUP3 SLOAD PUSH2 0x3526 JUMP JUMPDEST PUSH2 0x3FEA DUP3 DUP3 DUP6 PUSH2 0x3F6D JUMP JUMPDEST PUSH1 0x0 PUSH1 0x20 SWAP1 POP PUSH1 0x1F DUP4 GT PUSH1 0x1 DUP2 EQ PUSH2 0x401D JUMPI PUSH1 0x0 DUP5 ISZERO PUSH2 0x400B JUMPI DUP3 DUP8 ADD MLOAD SWAP1 POP JUMPDEST PUSH2 0x4015 DUP6 DUP3 PUSH2 0x3966 JUMP JUMPDEST DUP7 SSTORE POP PUSH2 0x407D JUMP JUMPDEST PUSH1 0x1F NOT DUP5 AND PUSH2 0x402B DUP7 PUSH2 0x3F58 JUMP JUMPDEST PUSH1 0x0 JUMPDEST DUP3 DUP2 LT ISZERO PUSH2 0x4053 JUMPI DUP5 DUP10 ADD MLOAD DUP3 SSTORE PUSH1 0x1 DUP3 ADD SWAP2 POP PUSH1 0x20 DUP6 ADD SWAP5 POP PUSH1 0x20 DUP2 ADD SWAP1 POP PUSH2 0x402E JUMP JUMPDEST DUP7 DUP4 LT ISZERO PUSH2 0x4070 JUMPI DUP5 DUP10 ADD MLOAD PUSH2 0x406C PUSH1 0x1F DUP10 AND DUP3 PUSH2 0x3948 JUMP JUMPDEST DUP4 SSTORE POP JUMPDEST PUSH1 0x1 PUSH1 0x2 DUP9 MUL ADD DUP9 SSTORE POP POP POP JUMPDEST POP POP POP POP POP POP JUMP JUMPDEST PUSH32 0x496E76616C696420726571756573742069642100000000000000000000000000 PUSH1 0x0 DUP3 ADD MSTORE POP JUMP JUMPDEST PUSH1 0x0 PUSH2 0x40BB PUSH1 0x13 DUP4 PUSH2 0x2AB8 JUMP JUMPDEST SWAP2 POP PUSH2 0x40C6 DUP3 PUSH2 0x4085 JUMP JUMPDEST PUSH1 0x20 DUP3 ADD SWAP1 POP SWAP2 SWAP1 POP JUMP JUMPDEST PUSH1 0x0 PUSH1 0x20 DUP3 ADD SWAP1 POP DUP2 DUP2 SUB PUSH1 0x0 DUP4 ADD MSTORE PUSH2 0x40EA DUP2 PUSH2 0x40AE JUMP JUMPDEST SWAP1 POP SWAP2 SWAP1 POP JUMP JUMPDEST PUSH32 0x556E617574686F72697A65642100000000000000000000000000000000000000 PUSH1 0x0 DUP3 ADD MSTORE POP JUMP JUMPDEST PUSH1 0x0 PUSH2 0x4127 PUSH1 0xD DUP4 PUSH2 0x2AB8 JUMP JUMPDEST SWAP2 POP PUSH2 0x4132 DUP3 PUSH2 0x40F1 JUMP JUMPDEST PUSH1 0x20 DUP3 ADD SWAP1 POP SWAP2 SWAP1 POP JUMP JUMPDEST PUSH1 0x0 PUSH1 0x20 DUP3 ADD SWAP1 POP DUP2 DUP2 SUB PUSH1 0x0 DUP4 ADD MSTORE PUSH2 0x4156 DUP2 PUSH2 0x411A JUMP JUMPDEST SWAP1 POP SWAP2 SWAP1 POP JUMP JUMPDEST PUSH32 0x4E6F742072657175657374207965742100000000000000000000000000000000 PUSH1 0x0 DUP3 ADD MSTORE POP JUMP JUMPDEST PUSH1 0x0 PUSH2 0x4193 PUSH1 0x10 DUP4 PUSH2 0x2AB8 JUMP JUMPDEST SWAP2 POP PUSH2 0x419E DUP3 PUSH2 0x415D JUMP JUMPDEST PUSH1 0x20 DUP3 ADD SWAP1 POP SWAP2 SWAP1 POP JUMP JUMPDEST PUSH1 0x0 PUSH1 0x20 DUP3 ADD SWAP1 POP DUP2 DUP2 SUB PUSH1 0x0 DUP4 ADD MSTORE PUSH2 0x41C2 DUP2 PUSH2 0x4186 JUMP JUMPDEST SWAP1 POP SWAP2 SWAP1 POP JUMP JUMPDEST PUSH1 0x0 PUSH2 0x41DC PUSH2 0x41D7 DUP5 PUSH2 0x2CB2 JUMP JUMPDEST PUSH2 0x2C97 JUMP JUMPDEST SWAP1 POP DUP3 DUP2 MSTORE PUSH1 0x20 DUP2 ADD DUP5 DUP5 DUP5 ADD GT ISZERO PUSH2 0x41F8 JUMPI PUSH2 0x41F7 PUSH2 0x2C32 JUMP JUMPDEST JUMPDEST PUSH2 0x4203 DUP5 DUP3 DUP6 PUSH2 0x29A9 JUMP JUMPDEST POP SWAP4 SWAP3 POP POP POP JUMP JUMPDEST PUSH1 0x0 DUP3 PUSH1 0x1F DUP4 ADD SLT PUSH2 0x4220 JUMPI PUSH2 0x421F PUSH2 0x2C2D JUMP JUMPDEST JUMPDEST DUP2 MLOAD PUSH2 0x4230 DUP5 DUP3 PUSH1 0x20 DUP7 ADD PUSH2 0x41C9 JUMP JUMPDEST SWAP2 POP POP SWAP3 SWAP2 POP POP JUMP JUMPDEST PUSH1 0x0 DUP1 PUSH1 0x40 DUP4 DUP6 SUB SLT ISZERO PUSH2 0x4250 JUMPI PUSH2 0x424F PUSH2 0x2920 JUMP JUMPDEST JUMPDEST PUSH1 0x0 DUP4 ADD MLOAD PUSH8 0xFFFFFFFFFFFFFFFF DUP2 GT ISZERO PUSH2 0x426E JUMPI PUSH2 0x426D PUSH2 0x2925 JUMP JUMPDEST JUMPDEST PUSH2 0x427A DUP6 DUP3 DUP7 ADD PUSH2 0x420B JUMP JUMPDEST SWAP3 POP POP PUSH1 0x20 DUP4 ADD MLOAD PUSH8 0xFFFFFFFFFFFFFFFF DUP2 GT ISZERO PUSH2 0x429B JUMPI PUSH2 0x429A PUSH2 0x2925 JUMP JUMPDEST JUMPDEST PUSH2 0x42A7 DUP6 DUP3 DUP7 ADD PUSH2 0x420B JUMP JUMPDEST SWAP2 POP POP SWAP3 POP SWAP3 SWAP1 POP JUMP INVALID LOG2 PUSH5 0x6970667358 0x22 SLT KECCAK256 0xE5 0xC5 SMOD PUSH11 0x8DCCB7F1D5A7347B2181EE 0xEA 0x23 PUSH29 0xA526CBAD1F6E32693CA80F2524C664736F6C6343000812003300000000 "
		},
		"gasEstimates": {
			"creation": {
				"codeDepositCost": "3425400",
				"executionCost": "23852",
				"totalCost": "3449252"
			},
			"external": {
				"MC(bytes32)": "infinite",
				"addMC(uint256,string,uint256,uint8,string,string)": "infinite",
				"changePassword(uint256,string,string)": "infinite",
				"changePresident(uint256,string,string)": "infinite",
				"checkMCIdFromStakeholder(uint256,uint256,uint256)": "infinite",
				"checkRequestFromHospital(uint256,string)": "infinite",
				"createPersonalInfo(uint256,string,string,string,string,string,string)": "infinite",
				"getHospitalId(address)": "2886",
				"getMCCategory(bytes)": "infinite",
				"getMCNRIC(bytes)": "infinite",
				"getMCName(bytes)": "infinite",
				"getPassword(uint256)": "infinite",
				"getPresident(uint256)": "2917",
				"infos(uint256)": "infinite",
				"register(string,string)": "infinite",
				"requestMC(uint256,uint256,string,string)": "infinite",
				"solveRequest(uint256,string,bytes,uint256,uint256)": "infinite"
			}
		},
		"methodIdentifiers": {
			"MC(bytes32)": "109075f1",
			"addMC(uint256,string,uint256,uint8,string,string)": "66e918b8",
			"changePassword(uint256,string,string)": "ca630e1f",
			"changePresident(uint256,string,string)": "1e8993d9",
			"checkMCIdFromStakeholder(uint256,uint256,uint256)": "9cb3d01f",
			"checkRequestFromHospital(uint256,string)": "452ba754",
			"createPersonalInfo(uint256,string,string,string,string,string,string)": "74946460",
			"getHospitalId(address)": "2a177158",
			"getMCCategory(bytes)": "29efb4a9",
			"getMCNRIC(bytes)": "d4c85366",
			"getMCName(bytes)": "f29a6f44",
			"getPassword(uint256)": "f38c6bb6",
			"getPresident(uint256)": "10ab2570",
			"infos(uint256)": "28de3c9b",
			"register(string,string)": "3ffbd47f",
			"requestMC(uint256,uint256,string,string)": "f043e745",
			"solveRequest(uint256,string,bytes,uint256,uint256)": "d48794af"
		}
	},
	"abi": [
		{
			"anonymous": false,
			"inputs": [],
			"name": "createOneMC",
			"type": "event"
		},
		{
			"anonymous": false,
			"inputs": [
				{
					"indexed": false,
					"internalType": "uint256[]",
					"name": "requestids",
					"type": "uint256[]"
				},
				{
					"indexed": false,
					"internalType": "uint256[]",
					"name": "stakeholderids",
					"type": "uint256[]"
				},
				{
					"indexed": false,
					"internalType": "string[]",
					"name": "names",
					"type": "string[]"
				},
				{
					"indexed": false,
					"internalType": "string[]",
					"name": "ics",
					"type": "string[]"
				}
			],
			"name": "liveRequest",
			"type": "event"
		},
		{
			"anonymous": false,
			"inputs": [
				{
					"indexed": false,
					"internalType": "uint256",
					"name": "numMC",
					"type": "uint256"
				}
			],
			"name": "mcCreated",
			"type": "event"
		},
		{
			"anonymous": false,
			"inputs": [],
			"name": "presidentChanged",
			"type": "event"
		},
		{
			"anonymous": false,
			"inputs": [],
			"name": "registered",
			"type": "event"
		},
		{
			"anonymous": false,
			"inputs": [
				{
					"indexed": false,
					"internalType": "uint256",
					"name": "reqeustId",
					"type": "uint256"
				}
			],
			"name": "requestMade",
			"type": "event"
		},
		{
			"anonymous": false,
			"inputs": [
				{
					"indexed": false,
					"internalType": "uint256",
					"name": "requestId",
					"type": "uint256"
				}
			],
			"name": "requestSolve",
			"type": "event"
		},
		{
			"inputs": [
				{
					"internalType": "bytes32",
					"name": "",
					"type": "bytes32"
				}
			],
			"name": "MC",
			"outputs": [
				{
					"internalType": "bytes",
					"name": "ID",
					"type": "bytes"
				},
				{
					"internalType": "uint256",
					"name": "HospitalID",
					"type": "uint256"
				},
				{
					"internalType": "uint256",
					"name": "personal_info",
					"type": "uint256"
				},
				{
					"internalType": "enum MedicalCertificate.certCategory",
					"name": "incident",
					"type": "uint8"
				},
				{
					"internalType": "string",
					"name": "dateTimeIncident",
					"type": "string"
				},
				{
					"internalType": "string",
					"name": "titleOfCertifier",
					"type": "string"
				}
			],
			"stateMutability": "view",
			"type": "function"
		},
		{
			"inputs": [
				{
					"internalType": "uint256",
					"name": "hospital",
					"type": "uint256"
				},
				{
					"internalType": "string",
					"name": "password",
					"type": "string"
				},
				{
					"internalType": "uint256",
					"name": "personId",
					"type": "uint256"
				},
				{
					"internalType": "enum MedicalCertificate.certCategory",
					"name": "incidentType0incident1death2suicide",
					"type": "uint8"
				},
				{
					"internalType": "string",
					"name": "incidentYYYYMMDDHHMM",
					"type": "string"
				},
				{
					"internalType": "string",
					"name": "certifierName",
					"type": "string"
				}
			],
			"name": "addMC",
			"outputs": [
				{
					"internalType": "bytes",
					"name": "",
					"type": "bytes"
				}
			],
			"stateMutability": "nonpayable",
			"type": "function"
		},
		{
			"inputs": [
				{
					"internalType": "uint256",
					"name": "hospitalId",
					"type": "uint256"
				},
				{
					"internalType": "string",
					"name": "oldpassword",
					"type": "string"
				},
				{
					"internalType": "string",
					"name": "newpassword",
					"type": "string"
				}
			],
			"name": "changePassword",
			"outputs": [],
			"stateMutability": "nonpayable",
			"type": "function"
		},
		{
			"inputs": [
				{
					"internalType": "uint256",
					"name": "hospitalId",
					"type": "uint256"
				},
				{
					"internalType": "string",
					"name": "password",
					"type": "string"
				},
				{
					"internalType": "string",
					"name": "NRIC",
					"type": "string"
				}
			],
			"name": "changePresident",
			"outputs": [],
			"stateMutability": "nonpayable",
			"type": "function"
		},
		{
			"inputs": [
				{
					"internalType": "uint256",
					"name": "_hospitalId",
					"type": "uint256"
				},
				{
					"internalType": "uint256",
					"name": "_requestId",
					"type": "uint256"
				},
				{
					"internalType": "uint256",
					"name": "_stakeholderId",
					"type": "uint256"
				}
			],
			"name": "checkMCIdFromStakeholder",
			"outputs": [
				{
					"internalType": "bytes",
					"name": "",
					"type": "bytes"
				}
			],
			"stateMutability": "view",
			"type": "function"
		},
		{
			"inputs": [
				{
					"internalType": "uint256",
					"name": "hospitalId",
					"type": "uint256"
				},
				{
					"internalType": "string",
					"name": "password",
					"type": "string"
				}
			],
			"name": "checkRequestFromHospital",
			"outputs": [],
			"stateMutability": "nonpayable",
			"type": "function"
		},
		{
			"inputs": [
				{
					"internalType": "uint256",
					"name": "hospitalId",
					"type": "uint256"
				},
				{
					"internalType": "string",
					"name": "password",
					"type": "string"
				},
				{
					"internalType": "string",
					"name": "name",
					"type": "string"
				},
				{
					"internalType": "string",
					"name": "NRIC",
					"type": "string"
				},
				{
					"internalType": "string",
					"name": "sex",
					"type": "string"
				},
				{
					"internalType": "string",
					"name": "birthdateYYYYMMDD",
					"type": "string"
				},
				{
					"internalType": "string",
					"name": "race_nationality",
					"type": "string"
				}
			],
			"name": "createPersonalInfo",
			"outputs": [
				{
					"internalType": "uint256",
					"name": "",
					"type": "uint256"
				}
			],
			"stateMutability": "nonpayable",
			"type": "function"
		},
		{
			"inputs": [
				{
					"internalType": "address",
					"name": "president",
					"type": "address"
				}
			],
			"name": "getHospitalId",
			"outputs": [
				{
					"internalType": "uint256",
					"name": "",
					"type": "uint256"
				}
			],
			"stateMutability": "view",
			"type": "function"
		},
		{
			"inputs": [
				{
					"internalType": "bytes",
					"name": "id",
					"type": "bytes"
				}
			],
			"name": "getMCCategory",
			"outputs": [
				{
					"internalType": "enum MedicalCertificate.certCategory",
					"name": "",
					"type": "uint8"
				}
			],
			"stateMutability": "view",
			"type": "function"
		},
		{
			"inputs": [
				{
					"internalType": "bytes",
					"name": "id",
					"type": "bytes"
				}
			],
			"name": "getMCNRIC",
			"outputs": [
				{
					"internalType": "string",
					"name": "",
					"type": "string"
				}
			],
			"stateMutability": "view",
			"type": "function"
		},
		{
			"inputs": [
				{
					"internalType": "bytes",
					"name": "id",
					"type": "bytes"
				}
			],
			"name": "getMCName",
			"outputs": [
				{
					"internalType": "string",
					"name": "",
					"type": "string"
				}
			],
			"stateMutability": "view",
			"type": "function"
		},
		{
			"inputs": [
				{
					"internalType": "uint256",
					"name": "hospitalId",
					"type": "uint256"
				}
			],
			"name": "getPassword",
			"outputs": [
				{
					"internalType": "string",
					"name": "",
					"type": "string"
				}
			],
			"stateMutability": "view",
			"type": "function"
		},
		{
			"inputs": [
				{
					"internalType": "uint256",
					"name": "hospitalId",
					"type": "uint256"
				}
			],
			"name": "getPresident",
			"outputs": [
				{
					"internalType": "address",
					"name": "",
					"type": "address"
				}
			],
			"stateMutability": "view",
			"type": "function"
		},
		{
			"inputs": [
				{
					"internalType": "uint256",
					"name": "",
					"type": "uint256"
				}
			],
			"name": "infos",
			"outputs": [
				{
					"internalType": "uint256",
					"name": "personId",
					"type": "uint256"
				},
				{
					"internalType": "string",
					"name": "name",
					"type": "string"
				},
				{
					"internalType": "string",
					"name": "NRIC",
					"type": "string"
				},
				{
					"internalType": "string",
					"name": "sex",
					"type": "string"
				},
				{
					"internalType": "string",
					"name": "birthdate",
					"type": "string"
				},
				{
					"internalType": "string",
					"name": "race_nationality",
					"type": "string"
				}
			],
			"stateMutability": "view",
			"type": "function"
		},
		{
			"inputs": [
				{
					"internalType": "string",
					"name": "NRIC",
					"type": "string"
				},
				{
					"internalType": "string",
					"name": "password",
					"type": "string"
				}
			],
			"name": "register",
			"outputs": [
				{
					"internalType": "uint256",
					"name": "",
					"type": "uint256"
				}
			],
			"stateMutability": "payable",
			"type": "function"
		},
		{
			"inputs": [
				{
					"internalType": "uint256",
					"name": "hospitalId",
					"type": "uint256"
				},
				{
					"internalType": "uint256",
					"name": "stakeholderId",
					"type": "uint256"
				},
				{
					"internalType": "string",
					"name": "nameAssured",
					"type": "string"
				},
				{
					"internalType": "string",
					"name": "icAssured",
					"type": "string"
				}
			],
			"name": "requestMC",
			"outputs": [
				{
					"internalType": "uint256",
					"name": "",
					"type": "uint256"
				}
			],
			"stateMutability": "nonpayable",
			"type": "function"
		},
		{
			"inputs": [
				{
					"internalType": "uint256",
					"name": "hospitalId",
					"type": "uint256"
				},
				{
					"internalType": "string",
					"name": "password",
					"type": "string"
				},
				{
					"internalType": "bytes",
					"name": "mcId",
					"type": "bytes"
				},
				{
					"internalType": "uint256",
					"name": "requestId",
					"type": "uint256"
				},
				{
					"internalType": "uint256",
					"name": "stakeholderId",
					"type": "uint256"
				}
			],
			"name": "solveRequest",
			"outputs": [
				{
					"internalType": "bytes",
					"name": "",
					"type": "bytes"
				}
			],
			"stateMutability": "nonpayable",
			"type": "function"
		}
	]
}