{
	"data": {
		"bytecode": {
			"linkReferences": {},
			"object": "6080604052600060045560006005553480156200001b57600080fd5b50604051620043863803806200438683398181016040528101906200004191906200029b565b836000806101000a81548173ffffffffffffffffffffffffffffffffffffffff021916908373ffffffffffffffffffffffffffffffffffffffff16021790555082600160006101000a81548173ffffffffffffffffffffffffffffffffffffffff021916908373ffffffffffffffffffffffffffffffffffffffff16021790555081600260006101000a81548173ffffffffffffffffffffffffffffffffffffffff021916908373ffffffffffffffffffffffffffffffffffffffff16021790555080600360006101000a81548173ffffffffffffffffffffffffffffffffffffffff021916908373ffffffffffffffffffffffffffffffffffffffff160217905550505050506200030d565b600080fd5b600073ffffffffffffffffffffffffffffffffffffffff82169050919050565b6000620001808262000153565b9050919050565b6000620001948262000173565b9050919050565b620001a68162000187565b8114620001b257600080fd5b50565b600081519050620001c6816200019b565b92915050565b6000620001d98262000173565b9050919050565b620001eb81620001cc565b8114620001f757600080fd5b50565b6000815190506200020b81620001e0565b92915050565b60006200021e8262000173565b9050919050565b620002308162000211565b81146200023c57600080fd5b50565b600081519050620002508162000225565b92915050565b6000620002638262000173565b9050919050565b620002758162000256565b81146200028157600080fd5b50565b60008151905062000295816200026a565b92915050565b60008060008060808587031215620002b857620002b76200014e565b5b6000620002c887828801620001b5565b9450506020620002db87828801620001fa565b9350506040620002ee878288016200023f565b9250506060620003018782880162000284565b91505092959194509250565b614069806200031d6000396000f3fe6080604052600436106100e85760003560e01c8063b0c8f9dc1161008a578063e057980711610059578063e05798071461031a578063e0e5c32414610343578063e5c86f5814610380578063f96b5080146103be576100e8565b8063b0c8f9dc14610247578063c41a360a14610277578063da304e4d146102b4578063dd9937f7146102f1576100e8565b80635d996701116100c65780635d9967011461017957806362584ffe146101b657806367ade5f5146101e15780636b8ff5741461020a576100e8565b80632813d19d146100ed5780632dd0b6401461012d578063452c47561461015d575b600080fd5b3480156100f957600080fd5b50610114600480360381019061010f9190612702565b6103da565b604051610124949392919061280f565b60405180910390f35b61014760048036038101906101429190612880565b6104b2565b604051610154919061290d565b60405180910390f35b61017760048036038101906101729190612a5d565b610657565b005b34801561018557600080fd5b506101a0600480360381019061019b9190612ae0565b61110d565b6040516101ad9190612b97565b60405180910390f35b3480156101c257600080fd5b506101cb6113c4565b6040516101d8919061290d565b60405180910390f35b3480156101ed57600080fd5b5061020860048036038101906102039190612ae0565b6113ce565b005b34801561021657600080fd5b50610231600480360381019061022c9190612702565b61175d565b60405161023e9190612bb2565b60405180910390f35b610261600480360381019061025c9190612c75565b611815565b60405161026e919061290d565b60405180910390f35b34801561028357600080fd5b5061029e60048036038101906102999190612702565b611901565b6040516102ab9190612cbe565b60405180910390f35b3480156102c057600080fd5b506102db60048036038101906102d69190612702565b611951565b6040516102e8919061290d565b60405180910390f35b3480156102fd57600080fd5b5061031860048036038101906103139190612702565b611981565b005b34801561032657600080fd5b50610341600480360381019061033c9190612702565b611f44565b005b34801561034f57600080fd5b5061036a60048036038101906103659190612cd9565b612055565b604051610377919061290d565b60405180910390f35b34801561038c57600080fd5b506103a760048036038101906103a29190612da0565b612104565b6040516103b5929190612e2f565b60405180910390f35b6103d860048036038101906103d39190612ae0565b612247565b005b600660205280600052604060002060009150905080600001549080600101805461040390612e87565b80601f016020809104026020016040519081016040528092919081815260200182805461042f90612e87565b801561047c5780601f106104515761010080835404028352916020019161047c565b820191906000526020600020905b81548152906001019060200180831161045f57829003601f168201915b5050505050908060020160009054906101000a900473ffffffffffffffffffffffffffffffffffffffff16908060030154905084565b60008560055481106104c357600080fd5b60008060009054906101000a900473ffffffffffffffffffffffffffffffffffffffff1673ffffffffffffffffffffffffffffffffffffffff16632dd0b6408a8a8a8a8a8a6040518763ffffffff1660e01b815260040161052996959493929190612f00565b6020604051808303816000875af1158015610548573d6000803e3d6000fd5b505050506040513d601f19601f8201168201806040525081019061056c9190612f76565b90507f780900dcfb922770b66b73546245c9d725e14dd206326f4f8f5a706976c2b61d8160405161059d919061290d565b60405180910390a161064860008054906101000a900473ffffffffffffffffffffffffffffffffffffffff1673ffffffffffffffffffffffffffffffffffffffff1663ca0090218b6040518263ffffffff1660e01b8152600401610601919061290d565b602060405180830381865afa15801561061e573d6000803e3d6000fd5b505050506040513d601f19601f820116820180604052508101906106429190612f76565b82612585565b80925050509695505050505050565b6003600581111561066b5761066a612b20565b5b60008054906101000a900473ffffffffffffffffffffffffffffffffffffffff1673ffffffffffffffffffffffffffffffffffffffff16635c622a0e866040518263ffffffff1660e01b81526004016106c4919061290d565b602060405180830381865afa1580156106e1573d6000803e3d6000fd5b505050506040513d601f19601f820116820180604052508101906107059190612fc8565b600581111561071757610716612b20565b5b1461072157600080fd5b426276a70060008054906101000a900473ffffffffffffffffffffffffffffffffffffffff1673ffffffffffffffffffffffffffffffffffffffff16630386660a876040518263ffffffff1660e01b815260040161077f919061290d565b602060405180830381865afa15801561079c573d6000803e3d6000fd5b505050506040513d601f19601f820116820180604052508101906107c09190612f76565b6107ca9190613024565b10156107d557600080fd5b60008060009054906101000a900473ffffffffffffffffffffffffffffffffffffffff1673ffffffffffffffffffffffffffffffffffffffff1663302df083866040518263ffffffff1660e01b8152600401610831919061290d565b602060405180830381865afa15801561084e573d6000803e3d6000fd5b505050506040513d601f19601f820116820180604052508101906108729190612f76565b90506000600260009054906101000a900473ffffffffffffffffffffffffffffffffffffffff1673ffffffffffffffffffffffffffffffffffffffff1663f29a6f44846040518263ffffffff1660e01b81526004016108d191906130ad565b600060405180830381865afa1580156108ee573d6000803e3d6000fd5b505050506040513d6000823e3d601f19601f82011682018060405250810190610917919061313f565b60405160200161092791906131c4565b6040516020818303038152906040528051906020012090506000600160009054906101000a900473ffffffffffffffffffffffffffffffffffffffff1673ffffffffffffffffffffffffffffffffffffffff16635a0b84f8846040518263ffffffff1660e01b815260040161099c919061290d565b600060405180830381865afa1580156109b9573d6000803e3d6000fd5b505050506040513d6000823e3d601f19601f820116820180604052508101906109e2919061313f565b6040516020016109f29190612bb2565b6040516020818303038152906040528051906020012090506000600260009054906101000a900473ffffffffffffffffffffffffffffffffffffffff1673ffffffffffffffffffffffffffffffffffffffff1663d4c85366866040518263ffffffff1660e01b8152600401610a6791906130ad565b600060405180830381865afa158015610a84573d6000803e3d6000fd5b505050506040513d6000823e3d601f19601f82011682018060405250810190610aad919061313f565b604051602001610abd9190612bb2565b6040516020818303038152906040528051906020012090506000600160009054906101000a900473ffffffffffffffffffffffffffffffffffffffff1673ffffffffffffffffffffffffffffffffffffffff166388c2c519866040518263ffffffff1660e01b8152600401610b32919061290d565b600060405180830381865afa158015610b4f573d6000803e3d6000fd5b505050506040513d6000823e3d601f19601f82011682018060405250810190610b78919061324b565b8051906020012090508284148015610b8f57508082145b610bce576040517f08c379a0000000000000000000000000000000000000000000000000000000008152600401610bc5906132e0565b60405180910390fd5b600280811115610be157610be0612b20565b5b600260009054906101000a900473ffffffffffffffffffffffffffffffffffffffff1673ffffffffffffffffffffffffffffffffffffffff166329efb4a9886040518263ffffffff1660e01b8152600401610c3c91906130ad565b602060405180830381865afa158015610c59573d6000803e3d6000fd5b505050506040513d601f19601f82011682018060405250810190610c7d9190613325565b6002811115610c8f57610c8e612b20565b5b03610d4a57426303c2670060008054906101000a900473ffffffffffffffffffffffffffffffffffffffff1673ffffffffffffffffffffffffffffffffffffffff16630386660a8c6040518263ffffffff1660e01b8152600401610cf3919061290d565b602060405180830381865afa158015610d10573d6000803e3d6000fd5b505050506040513d601f19601f82011682018060405250810190610d349190612f76565b610d3e9190613024565b1015610d4957600080fd5b5b60008060009054906101000a900473ffffffffffffffffffffffffffffffffffffffff1673ffffffffffffffffffffffffffffffffffffffff16635998f7758b6040518263ffffffff1660e01b8152600401610da6919061290d565b602060405180830381865afa158015610dc3573d6000803e3d6000fd5b505050506040513d601f19601f82011682018060405250810190610de79190612f76565b90506000600660008b8152602001908152602001600020905060008160020160009054906101000a900473ffffffffffffffffffffffffffffffffffffffff16905082600360009054906101000a900473ffffffffffffffffffffffffffffffffffffffff1673ffffffffffffffffffffffffffffffffffffffff1663b9b7650a836040518263ffffffff1660e01b8152600401610e859190612cbe565b602060405180830381865afa158015610ea2573d6000803e3d6000fd5b505050506040513d601f19601f82011682018060405250810190610ec69190612f76565b1015610f07576040517f08c379a0000000000000000000000000000000000000000000000000000000008152600401610efe9061339e565b60405180910390fd5b60008060009054906101000a900473ffffffffffffffffffffffffffffffffffffffff1673ffffffffffffffffffffffffffffffffffffffff1663302df0838e6040518263ffffffff1660e01b8152600401610f63919061290d565b602060405180830381865afa158015610f80573d6000803e3d6000fd5b505050506040513d601f19601f82011682018060405250810190610fa49190612f76565b9050600360009054906101000a900473ffffffffffffffffffffffffffffffffffffffff1673ffffffffffffffffffffffffffffffffffffffff16633456ea308383876040518463ffffffff1660e01b8152600401611005939291906133be565b600060405180830381600087803b15801561101f57600080fd5b505af1158015611033573d6000803e3d6000fd5b5050505060008054906101000a900473ffffffffffffffffffffffffffffffffffffffff1673ffffffffffffffffffffffffffffffffffffffff1663b7ff5dae60048f6040518363ffffffff1660e01b815260040161109392919061343d565b600060405180830381600087803b1580156110ad57600080fd5b505af11580156110c1573d6000803e3d6000fd5b505050507fa9059cbb2ab09eb219583f4a59a5d0623ade346d962bcd4e46b11da047c9049b81856040516110f6929190613466565b60405180910390a150505050505050505050505050565b6000808203611151576040517f08c379a0000000000000000000000000000000000000000000000000000000008152600401611148906134db565b60405180910390fd5b60008060066000868152602001908152602001600020600501805480602002602001604051908101604052809291908181526020016000905b8282101561129d578382906000526020600020906004020160405180608001604052908160008201548152602001600182015481526020016002820180546111d190612e87565b80601f01602080910402602001604051908101604052809291908181526020018280546111fd90612e87565b801561124a5780601f1061121f5761010080835404028352916020019161124a565b820191906000526020600020905b81548152906001019060200180831161122d57829003601f168201915b505050505081526020016003820160009054906101000a900460ff16600281111561127857611277612b20565b5b600281111561128a57611289612b20565b5b815250508152602001906001019061118a565b5050505090506000815190506000805b828110156112f557868482815181106112c9576112c86134fb565b5b602002602001015160000151036112e257809450600191505b80806112ed9061352a565b9150506112ad565b50600115158115151461133d576040517f08c379a0000000000000000000000000000000000000000000000000000000008152600401611334906135e4565b60405180910390fd5b8015611399577f2341ebb88dfa6ce59e54bdde82e9746e5a27fcd12a0d5d5ca812f1d01f4102e2838581518110611377576113766134fb565b5b6020026020010151606001516040516113909190612b97565b60405180910390a15b8284815181106113ac576113ab6134fb565b5b60200260200101516060015194505050505092915050565b6000600554905090565b600081146117595760008060066000858152602001908152602001600020600501805480602002602001604051908101604052809291908181526020016000905b828210156115225783829060005260206000209060040201604051806080016040529081600082015481526020016001820154815260200160028201805461145690612e87565b80601f016020809104026020016040519081016040528092919081815260200182805461148290612e87565b80156114cf5780601f106114a4576101008083540402835291602001916114cf565b820191906000526020600020905b8154815290600101906020018083116114b257829003601f168201915b505050505081526020016003820160009054906101000a900460ff1660028111156114fd576114fc612b20565b5b600281111561150f5761150e612b20565b5b815250508152602001906001019061140f565b5050505090506000815190506000805b8281101561157a578584828151811061154e5761154d6134fb565b5b6020026020010151600001510361156757809450600191505b80806115729061352a565b915050611532565b5060011515811515146115c2576040517f08c379a00000000000000000000000000000000000000000000000000000000081526004016115b9906134db565b60405180910390fd5b801561175457600660008781526020019081526020016000206005016001836115eb9190613604565b815481106115fc576115fb6134fb565b5b9060005260206000209060040201600660008881526020019081526020016000206005018581548110611632576116316134fb565b5b906000526020600020906004020160008201548160000155600182015481600101556002820181600201908161166891906137fa565b506003820160009054906101000a900460ff168160030160006101000a81548160ff021916908360028111156116a1576116a0612b20565b5b0217905550905050600660008781526020019081526020016000206005018054806116cf576116ce6138e2565b5b60019003818190600052602060002090600402016000808201600090556001820160009055600282016000611704919061265b565b6003820160006101000a81549060ff0219169055505090557fc01a711a994234663e49bcaf267235941ef164ac0dea30de367e8cdb0eeabd5a8560405161174b919061290d565b60405180910390a15b505050505b5050565b606081600554811061176e57600080fd5b60066000848152602001908152602001600020600101805461178f90612e87565b80601f01602080910402602001604051908101604052809291908181526020018280546117bb90612e87565b80156118085780601f106117dd57610100808354040283529160200191611808565b820191906000526020600020905b8154815290600101906020018083116117eb57829003601f168201915b5050505050915050919050565b6000662386f26fc100003411611860576040517f08c379a000000000000000000000000000000000000000000000000000000000815260040161185790613983565b60405180910390fd5b600060066000600560008154809291906118799061352a565b919050558152602001908152602001600020905060008160000181905550828160010190816118a891906139a3565b50338160020160006101000a81548173ffffffffffffffffffffffffffffffffffffffff021916908373ffffffffffffffffffffffffffffffffffffffff16021790555060008160030181905550600554915050919050565b600081600554811061191257600080fd5b6006600084815260200190815260200160002060020160009054906101000a900473ffffffffffffffffffffffffffffffffffffffff16915050919050565b600081600554811061196257600080fd5b6006600084815260200190815260200160002060000154915050919050565b80600554811061199057600080fd5b813373ffffffffffffffffffffffffffffffffffffffff166006600083815260200190815260200160002060020160009054906101000a900473ffffffffffffffffffffffffffffffffffffffff1673ffffffffffffffffffffffffffffffffffffffff16146119ff57600080fd5b600060066000858152602001908152602001600020600501805480602002602001604051908101604052809291908181526020016000905b82821015611b4a57838290600052602060002090600402016040518060800160405290816000820154815260200160018201548152602001600282018054611a7e90612e87565b80601f0160208091040260200160405190810160405280929190818152602001828054611aaa90612e87565b8015611af75780601f10611acc57610100808354040283529160200191611af7565b820191906000526020600020905b815481529060010190602001808311611ada57829003601f168201915b505050505081526020016003820160009054906101000a900460ff166002811115611b2557611b24612b20565b5b6002811115611b3757611b36612b20565b5b8152505081526020019060010190611a37565b5050505090506000815167ffffffffffffffff811115611b6d57611b6c612932565b5b604051908082528060200260200182016040528015611b9b5781602001602082028036833780820191505090505b5090506000825167ffffffffffffffff811115611bbb57611bba612932565b5b604051908082528060200260200182016040528015611be95781602001602082028036833780820191505090505b5090506000835167ffffffffffffffff811115611c0957611c08612932565b5b604051908082528060200260200182016040528015611c3c57816020015b6060815260200190600190039081611c275790505b5090506000845167ffffffffffffffff811115611c5c57611c5b612932565b5b604051908082528060200260200182016040528015611c8f57816020015b6060815260200190600190039081611c7a5790505b5090506000855167ffffffffffffffff811115611caf57611cae612932565b5b604051908082528060200260200182016040528015611cdd5781602001602082028036833780820191505090505b50905060005b8651811015611ef957868181518110611cff57611cfe6134fb565b5b602002602001015160000151868281518110611d1e57611d1d6134fb565b5b602002602001018181525050868181518110611d3d57611d3c6134fb565b5b602002602001015160200151858281518110611d5c57611d5b6134fb565b5b602002602001018181525050600160009054906101000a900473ffffffffffffffffffffffffffffffffffffffff1673ffffffffffffffffffffffffffffffffffffffff16635481e699888381518110611db957611db86134fb565b5b6020026020010151602001516040518263ffffffff1660e01b8152600401611de1919061290d565b600060405180830381865afa158015611dfe573d6000803e3d6000fd5b505050506040513d6000823e3d601f19601f82011682018060405250810190611e27919061313f565b848281518110611e3a57611e396134fb565b5b6020026020010181905250868181518110611e5857611e576134fb565b5b602002602001015160400151838281518110611e7757611e766134fb565b5b6020026020010181905250868181518110611e9557611e946134fb565b5b602002602001015160600151828281518110611eb457611eb36134fb565b5b60200260200101906002811115611ece57611ecd612b20565b5b90816002811115611ee257611ee1612b20565b5b815250508080611ef19061352a565b915050611ce3565b507fe6c75ee9cdd3e628203f6e03ddbecea0e9472f78039061cde763650d2880f7b78585858585604051611f31959493929190613cfd565b60405180910390a1505050505050505050565b806005548110611f5357600080fd5b600060066000848152602001908152602001600020905060008160030154905060328110158015611f85575060c88111155b15611f99576001826000018190555061204f565b60c881118015611fab575061015e8111155b15611fbf576002826000018190555061204e565b61015e81118015611fd257506101c28111155b15611fe6576003826000018190555061204d565b6101c281118015611ff957506103208111155b1561200d576004826000018190555061204c565b6103208111801561202057506107d08111155b15612034576005826000018190555061204b565b6107d081111561204a576103e782600001819055505b5b5b5b5b5b50505050565b60008060009054906101000a900473ffffffffffffffffffffffffffffffffffffffff1673ffffffffffffffffffffffffffffffffffffffff1663e0e5c324868686866040518563ffffffff1660e01b81526004016120b79493929190613d73565b6020604051808303816000875af11580156120d6573d6000803e3d6000fd5b505050506040513d601f19601f820116820180604052508101906120fa9190612f76565b9050949350505050565b60008060006040518060800160405280600460008154809291906121279061352a565b91905055815260200188815260200186868080601f016020809104026020016040519081016040528093929190818152602001838380828437600081840152601f19601f82011690508083019250505050505050815260200160028081111561219357612192612b20565b5b8152509050600660008781526020019081526020016000206005018190806001815401808255809150506001900390600052602060002090600402016000909190919091506000820151816000015560208201518160010155604082015181600201908161220191906139a3565b5060608201518160030160006101000a81548160ff0219169083600281111561222d5761222c612b20565b5b021790555050506001600454925092505094509492505050565b803373ffffffffffffffffffffffffffffffffffffffff166006600083815260200190815260200160002060020160009054906101000a900473ffffffffffffffffffffffffffffffffffffffff1673ffffffffffffffffffffffffffffffffffffffff16146122b657600080fd5b8160055481106122c557600080fd5b600060066000858152602001908152602001600020905060008060009054906101000a900473ffffffffffffffffffffffffffffffffffffffff1673ffffffffffffffffffffffffffffffffffffffff166385fae602876040518263ffffffff1660e01b8152600401612338919061290d565b61016060405180830381865afa158015612356573d6000803e3d6000fd5b505050506040513d601f19601f8201168201806040525081019061237a9190613f17565b9050600060058111156123905761238f612b20565b5b60008054906101000a900473ffffffffffffffffffffffffffffffffffffffff1673ffffffffffffffffffffffffffffffffffffffff16635c622a0e886040518263ffffffff1660e01b81526004016123e9919061290d565b602060405180830381865afa158015612406573d6000803e3d6000fd5b505050506040513d601f19601f8201168201806040525081019061242a9190612fc8565b600581111561243c5761243b612b20565b5b0361247c576040517f08c379a000000000000000000000000000000000000000000000000000000000815260040161247390613f91565b60405180910390fd5b8082600401600088815260200190815260200160002060008201518160000155602082015181600101556040820151816002016000820151816000015560208201518160010155604082015181600201556060820151816003015550506060820151816006015560808201518160070160006101000a81548160ff0219169083600181111561250e5761250d612b20565b5b021790555060a08201518160070160016101000a81548160ff0219169083600581111561253e5761253d612b20565b5b021790555060c0820151816008015560e0820151816009015590505081600301600081548092919061256f9061352a565b919050555061257d85611f44565b505050505050565b600160009054906101000a900473ffffffffffffffffffffffffffffffffffffffff1673ffffffffffffffffffffffffffffffffffffffff16635bc0350b82846040518363ffffffff1660e01b81526004016125e2929190613fb1565b6020604051808303816000875af1158015612601573d6000803e3d6000fd5b505050506040513d601f19601f820116820180604052508101906126259190614006565b15612657577ffd265f281a37bbbf104e4de1008abc2b56ec226bc100c48a5124c5ae01e4225d60405160405180910390a15b5050565b50805461266790612e87565b6000825580601f106126795750612698565b601f016020900490600052602060002090810190612697919061269b565b5b50565b5b808211156126b457600081600090555060010161269c565b5090565b6000604051905090565b600080fd5b600080fd5b6000819050919050565b6126df816126cc565b81146126ea57600080fd5b50565b6000813590506126fc816126d6565b92915050565b600060208284031215612718576127176126c2565b5b6000612726848285016126ed565b91505092915050565b612738816126cc565b82525050565b600081519050919050565b600082825260208201905092915050565b60005b8381101561277857808201518184015260208101905061275d565b60008484015250505050565b6000601f19601f8301169050919050565b60006127a08261273e565b6127aa8185612749565b93506127ba81856020860161275a565b6127c381612784565b840191505092915050565b600073ffffffffffffffffffffffffffffffffffffffff82169050919050565b60006127f9826127ce565b9050919050565b612809816127ee565b82525050565b6000608082019050612824600083018761272f565b81810360208301526128368186612795565b90506128456040830185612800565b612852606083018461272f565b95945050505050565b6002811061286857600080fd5b50565b60008135905061287a8161285b565b92915050565b60008060008060008060c0878903121561289d5761289c6126c2565b5b60006128ab89828a016126ed565b96505060206128bc89828a016126ed565b95505060406128cd89828a016126ed565b94505060606128de89828a0161286b565b93505060806128ef89828a016126ed565b92505060a061290089828a016126ed565b9150509295509295509295565b6000602082019050612922600083018461272f565b92915050565b600080fd5b600080fd5b7f4e487b7100000000000000000000000000000000000000000000000000000000600052604160045260246000fd5b61296a82612784565b810181811067ffffffffffffffff8211171561298957612988612932565b5b80604052505050565b600061299c6126b8565b90506129a88282612961565b919050565b600067ffffffffffffffff8211156129c8576129c7612932565b5b6129d182612784565b9050602081019050919050565b82818337600083830152505050565b6000612a006129fb846129ad565b612992565b905082815260208101848484011115612a1c57612a1b61292d565b5b612a278482856129de565b509392505050565b600082601f830112612a4457612a43612928565b5b8135612a548482602086016129ed565b91505092915050565b60008060008060808587031215612a7757612a766126c2565b5b6000612a85878288016126ed565b9450506020612a96878288016126ed565b9350506040612aa7878288016126ed565b925050606085013567ffffffffffffffff811115612ac857612ac76126c7565b5b612ad487828801612a2f565b91505092959194509250565b60008060408385031215612af757612af66126c2565b5b6000612b05858286016126ed565b9250506020612b16858286016126ed565b9150509250929050565b7f4e487b7100000000000000000000000000000000000000000000000000000000600052602160045260246000fd5b60038110612b6057612b5f612b20565b5b50565b6000819050612b7182612b4f565b919050565b6000612b8182612b63565b9050919050565b612b9181612b76565b82525050565b6000602082019050612bac6000830184612b88565b92915050565b60006020820190508181036000830152612bcc8184612795565b905092915050565b600067ffffffffffffffff821115612bef57612bee612932565b5b612bf882612784565b9050602081019050919050565b6000612c18612c1384612bd4565b612992565b905082815260208101848484011115612c3457612c3361292d565b5b612c3f8482856129de565b509392505050565b600082601f830112612c5c57612c5b612928565b5b8135612c6c848260208601612c05565b91505092915050565b600060208284031215612c8b57612c8a6126c2565b5b600082013567ffffffffffffffff811115612ca957612ca86126c7565b5b612cb584828501612c47565b91505092915050565b6000602082019050612cd36000830184612800565b92915050565b60008060008060808587031215612cf357612cf26126c2565b5b6000612d01878288016126ed565b9450506020612d12878288016126ed565b9350506040612d23878288016126ed565b9250506060612d34878288016126ed565b91505092959194509250565b600080fd5b600080fd5b60008083601f840112612d6057612d5f612928565b5b8235905067ffffffffffffffff811115612d7d57612d7c612d40565b5b602083019150836001820283011115612d9957612d98612d45565b5b9250929050565b60008060008060608587031215612dba57612db96126c2565b5b6000612dc8878288016126ed565b9450506020612dd9878288016126ed565b935050604085013567ffffffffffffffff811115612dfa57612df96126c7565b5b612e0687828801612d4a565b925092505092959194509250565b60008115159050919050565b612e2981612e14565b82525050565b6000604082019050612e446000830185612e20565b612e51602083018461272f565b9392505050565b7f4e487b7100000000000000000000000000000000000000000000000000000000600052602260045260246000fd5b60006002820490506001821680612e9f57607f821691505b602082108103612eb257612eb1612e58565b5b50919050565b60028110612ec957612ec8612b20565b5b50565b6000819050612eda82612eb8565b919050565b6000612eea82612ecc565b9050919050565b612efa81612edf565b82525050565b600060c082019050612f15600083018961272f565b612f22602083018861272f565b612f2f604083018761272f565b612f3c6060830186612ef1565b612f49608083018561272f565b612f5660a083018461272f565b979650505050505050565b600081519050612f70816126d6565b92915050565b600060208284031215612f8c57612f8b6126c2565b5b6000612f9a84828501612f61565b91505092915050565b60068110612fb057600080fd5b50565b600081519050612fc281612fa3565b92915050565b600060208284031215612fde57612fdd6126c2565b5b6000612fec84828501612fb3565b91505092915050565b7f4e487b7100000000000000000000000000000000000000000000000000000000600052601160045260246000fd5b600061302f826126cc565b915061303a836126cc565b925082820190508082111561305257613051612ff5565b5b92915050565b600081519050919050565b600082825260208201905092915050565b600061307f82613058565b6130898185613063565b935061309981856020860161275a565b6130a281612784565b840191505092915050565b600060208201905081810360008301526130c78184613074565b905092915050565b60006130e26130dd84612bd4565b612992565b9050828152602081018484840111156130fe576130fd61292d565b5b61310984828561275a565b509392505050565b600082601f83011261312657613125612928565b5b81516131368482602086016130cf565b91505092915050565b600060208284031215613155576131546126c2565b5b600082015167ffffffffffffffff811115613173576131726126c7565b5b61317f84828501613111565b91505092915050565b600081905092915050565b600061319e8261273e565b6131a88185613188565b93506131b881856020860161275a565b80840191505092915050565b60006131d08284613193565b915081905092915050565b60006131ee6131e9846129ad565b612992565b90508281526020810184848401111561320a5761320961292d565b5b61321584828561275a565b509392505050565b600082601f83011261323257613231612928565b5b81516132428482602086016131db565b91505092915050565b600060208284031215613261576132606126c2565b5b600082015167ffffffffffffffff81111561327f5761327e6126c7565b5b61328b8482850161321d565b91505092915050565b7f4e6f74207468652073616d65207374616b65686f6c6465722100000000000000600082015250565b60006132ca601983612749565b91506132d582613294565b602082019050919050565b600060208201905081810360008301526132f9816132bd565b9050919050565b6003811061330d57600080fd5b50565b60008151905061331f81613300565b92915050565b60006020828403121561333b5761333a6126c2565b5b600061334984828501613310565b91505092915050565b7f6e6f7420656e6f75676820746f6b656e20746f20706179000000000000000000600082015250565b6000613388601783612749565b915061339382613352565b602082019050919050565b600060208201905081810360008301526133b78161337b565b9050919050565b60006060820190506133d36000830186612800565b6133e06020830185612800565b6133ed604083018461272f565b949350505050565b6006811061340657613405612b20565b5b50565b6000819050613417826133f5565b919050565b600061342782613409565b9050919050565b6134378161341c565b82525050565b6000604082019050613452600083018561342e565b61345f602083018461272f565b9392505050565b600060408201905061347b6000830185612800565b613488602083018461272f565b9392505050565b7f496e76616c696420726571756573742069642100000000000000000000000000600082015250565b60006134c5601383612749565b91506134d08261348f565b602082019050919050565b600060208201905081810360008301526134f4816134b8565b9050919050565b7f4e487b7100000000000000000000000000000000000000000000000000000000600052603260045260246000fd5b6000613535826126cc565b91507fffffffffffffffffffffffffffffffffffffffffffffffffffffffffffffffff820361356757613566612ff5565b5b600182019050919050565b7f596f7520686176656e277420726571756573746564206f72207468652072657160008201527f756573742068617320616c7265616479206265656e20617070726f7665642100602082015250565b60006135ce603f83612749565b91506135d982613572565b604082019050919050565b600060208201905081810360008301526135fd816135c1565b9050919050565b600061360f826126cc565b915061361a836126cc565b925082820390508181111561363257613631612ff5565b5b92915050565b60008154905061364781612e87565b9050919050565b60008190508160005260206000209050919050565b60006020601f8301049050919050565b600082821b905092915050565b6000600883026136b07fffffffffffffffffffffffffffffffffffffffffffffffffffffffffffffffff82613673565b6136ba8683613673565b95508019841693508086168417925050509392505050565b6000819050919050565b60006136f76136f26136ed846126cc565b6136d2565b6126cc565b9050919050565b6000819050919050565b613711836136dc565b61372561371d826136fe565b848454613680565b825550505050565b600090565b61373a61372d565b613745818484613708565b505050565b5b818110156137695761375e600082613732565b60018101905061374b565b5050565b601f8211156137ae5761377f8161364e565b61378884613663565b81016020851015613797578190505b6137ab6137a385613663565b83018261374a565b50505b505050565b600082821c905092915050565b60006137d1600019846008026137b3565b1980831691505092915050565b60006137ea83836137c0565b9150826002028217905092915050565b8181036138085750506138e0565b61381182613638565b67ffffffffffffffff81111561382a57613829612932565b5b6138348254612e87565b61383f82828561376d565b6000601f83116001811461386e576000841561385c578287015490505b61386685826137de565b8655506138d9565b601f19841661387c8761364e565b96506138878661364e565b60005b828110156138af5784890154825560018201915060018501945060208101905061388a565b868310156138cc57848901546138c8601f8916826137c0565b8355505b6001600288020188555050505b5050505050505b565b7f4e487b7100000000000000000000000000000000000000000000000000000000600052603160045260246000fd5b7f6174206c6561737420302e303120455448206973206e656564656420746f206360008201527f7265617465206120636f6d70616e790000000000000000000000000000000000602082015250565b600061396d602f83612749565b915061397882613911565b604082019050919050565b6000602082019050818103600083015261399c81613960565b9050919050565b6139ac8261273e565b67ffffffffffffffff8111156139c5576139c4612932565b5b6139cf8254612e87565b6139da82828561376d565b600060209050601f831160018114613a0d57600084156139fb578287015190505b613a0585826137de565b865550613a6d565b601f198416613a1b8661364e565b60005b82811015613a4357848901518255600182019150602085019450602081019050613a1e565b86831015613a605784890151613a5c601f8916826137c0565b8355505b6001600288020188555050505b505050505050565b600081519050919050565b600082825260208201905092915050565b6000819050602082019050919050565b613aaa816126cc565b82525050565b6000613abc8383613aa1565b60208301905092915050565b6000602082019050919050565b6000613ae082613a75565b613aea8185613a80565b9350613af583613a91565b8060005b83811015613b26578151613b0d8882613ab0565b9750613b1883613ac8565b925050600181019050613af9565b5085935050505092915050565b600081519050919050565b600082825260208201905092915050565b6000819050602082019050919050565b600082825260208201905092915050565b6000613b7b8261273e565b613b858185613b5f565b9350613b9581856020860161275a565b613b9e81612784565b840191505092915050565b6000613bb58383613b70565b905092915050565b6000602082019050919050565b6000613bd582613b33565b613bdf8185613b3e565b935083602082028501613bf185613b4f565b8060005b85811015613c2d5784840389528151613c0e8582613ba9565b9450613c1983613bbd565b925060208a01995050600181019050613bf5565b50829750879550505050505092915050565b600081519050919050565b600082825260208201905092915050565b6000819050602082019050919050565b613c7481612b76565b82525050565b6000613c868383613c6b565b60208301905092915050565b6000602082019050919050565b6000613caa82613c3f565b613cb48185613c4a565b9350613cbf83613c5b565b8060005b83811015613cf0578151613cd78882613c7a565b9750613ce283613c92565b925050600181019050613cc3565b5085935050505092915050565b600060a0820190508181036000830152613d178188613ad5565b90508181036020830152613d2b8187613ad5565b90508181036040830152613d3f8186613bca565b90508181036060830152613d538185613bca565b90508181036080830152613d678184613c9f565b90509695505050505050565b6000608082019050613d88600083018761272f565b613d95602083018661272f565b613da2604083018561272f565b613daf606083018461272f565b95945050505050565b600080fd5b600060808284031215613dd357613dd2613db8565b5b613ddd6080612992565b90506000613ded84828501612f61565b6000830152506020613e0184828501612f61565b6020830152506040613e1584828501612f61565b6040830152506060613e2984828501612f61565b60608301525092915050565b600081519050613e448161285b565b92915050565b60006101608284031215613e6157613e60613db8565b5b613e6c610100612992565b90506000613e7c84828501612f61565b6000830152506020613e9084828501612f61565b6020830152506040613ea484828501613dbd565b60408301525060c0613eb884828501612f61565b60608301525060e0613ecc84828501613e35565b608083015250610100613ee184828501612fb3565b60a083015250610120613ef684828501612f61565b60c083015250610140613f0b84828501612f61565b60e08301525092915050565b60006101608284031215613f2e57613f2d6126c2565b5b6000613f3c84828501613e4a565b91505092915050565b7f6e6f7420617070726f7665642062792062656e65666963696172792100000000600082015250565b6000613f7b601c83612749565b9150613f8682613f45565b602082019050919050565b60006020820190508181036000830152613faa81613f6e565b9050919050565b6000604082019050613fc6600083018561272f565b613fd3602083018461272f565b9392505050565b613fe381612e14565b8114613fee57600080fd5b50565b60008151905061400081613fda565b92915050565b60006020828403121561401c5761401b6126c2565b5b600061402a84828501613ff1565b9150509291505056fea2646970667358221220b04155d5d700c4672b6e6a970cade49afc065da9cd2f34a5d9b4f91bb4c0ef8864736f6c63430008130033",
			"opcodes": "PUSH1 0x80 PUSH1 0x40 MSTORE PUSH1 0x0 PUSH1 0x4 SSTORE PUSH1 0x0 PUSH1 0x5 SSTORE CALLVALUE DUP1 ISZERO PUSH3 0x1B JUMPI PUSH1 0x0 DUP1 REVERT JUMPDEST POP PUSH1 0x40 MLOAD PUSH3 0x4386 CODESIZE SUB DUP1 PUSH3 0x4386 DUP4 CODECOPY DUP2 DUP2 ADD PUSH1 0x40 MSTORE DUP2 ADD SWAP1 PUSH3 0x41 SWAP2 SWAP1 PUSH3 0x29B JUMP JUMPDEST DUP4 PUSH1 0x0 DUP1 PUSH2 0x100 EXP DUP2 SLOAD DUP2 PUSH20 0xFFFFFFFFFFFFFFFFFFFFFFFFFFFFFFFFFFFFFFFF MUL NOT AND SWAP1 DUP4 PUSH20 0xFFFFFFFFFFFFFFFFFFFFFFFFFFFFFFFFFFFFFFFF AND MUL OR SWAP1 SSTORE POP DUP3 PUSH1 0x1 PUSH1 0x0 PUSH2 0x100 EXP DUP2 SLOAD DUP2 PUSH20 0xFFFFFFFFFFFFFFFFFFFFFFFFFFFFFFFFFFFFFFFF MUL NOT AND SWAP1 DUP4 PUSH20 0xFFFFFFFFFFFFFFFFFFFFFFFFFFFFFFFFFFFFFFFF AND MUL OR SWAP1 SSTORE POP DUP2 PUSH1 0x2 PUSH1 0x0 PUSH2 0x100 EXP DUP2 SLOAD DUP2 PUSH20 0xFFFFFFFFFFFFFFFFFFFFFFFFFFFFFFFFFFFFFFFF MUL NOT AND SWAP1 DUP4 PUSH20 0xFFFFFFFFFFFFFFFFFFFFFFFFFFFFFFFFFFFFFFFF AND MUL OR SWAP1 SSTORE POP DUP1 PUSH1 0x3 PUSH1 0x0 PUSH2 0x100 EXP DUP2 SLOAD DUP2 PUSH20 0xFFFFFFFFFFFFFFFFFFFFFFFFFFFFFFFFFFFFFFFF MUL NOT AND SWAP1 DUP4 PUSH20 0xFFFFFFFFFFFFFFFFFFFFFFFFFFFFFFFFFFFFFFFF AND MUL OR SWAP1 SSTORE POP POP POP POP POP PUSH3 0x30D JUMP JUMPDEST PUSH1 0x0 DUP1 REVERT JUMPDEST PUSH1 0x0 PUSH20 0xFFFFFFFFFFFFFFFFFFFFFFFFFFFFFFFFFFFFFFFF DUP3 AND SWAP1 POP SWAP2 SWAP1 POP JUMP JUMPDEST PUSH1 0x0 PUSH3 0x180 DUP3 PUSH3 0x153 JUMP JUMPDEST SWAP1 POP SWAP2 SWAP1 POP JUMP JUMPDEST PUSH1 0x0 PUSH3 0x194 DUP3 PUSH3 0x173 JUMP JUMPDEST SWAP1 POP SWAP2 SWAP1 POP JUMP JUMPDEST PUSH3 0x1A6 DUP2 PUSH3 0x187 JUMP JUMPDEST DUP2 EQ PUSH3 0x1B2 JUMPI PUSH1 0x0 DUP1 REVERT JUMPDEST POP JUMP JUMPDEST PUSH1 0x0 DUP2 MLOAD SWAP1 POP PUSH3 0x1C6 DUP2 PUSH3 0x19B JUMP JUMPDEST SWAP3 SWAP2 POP POP JUMP JUMPDEST PUSH1 0x0 PUSH3 0x1D9 DUP3 PUSH3 0x173 JUMP JUMPDEST SWAP1 POP SWAP2 SWAP1 POP JUMP JUMPDEST PUSH3 0x1EB DUP2 PUSH3 0x1CC JUMP JUMPDEST DUP2 EQ PUSH3 0x1F7 JUMPI PUSH1 0x0 DUP1 REVERT JUMPDEST POP JUMP JUMPDEST PUSH1 0x0 DUP2 MLOAD SWAP1 POP PUSH3 0x20B DUP2 PUSH3 0x1E0 JUMP JUMPDEST SWAP3 SWAP2 POP POP JUMP JUMPDEST PUSH1 0x0 PUSH3 0x21E DUP3 PUSH3 0x173 JUMP JUMPDEST SWAP1 POP SWAP2 SWAP1 POP JUMP JUMPDEST PUSH3 0x230 DUP2 PUSH3 0x211 JUMP JUMPDEST DUP2 EQ PUSH3 0x23C JUMPI PUSH1 0x0 DUP1 REVERT JUMPDEST POP JUMP JUMPDEST PUSH1 0x0 DUP2 MLOAD SWAP1 POP PUSH3 0x250 DUP2 PUSH3 0x225 JUMP JUMPDEST SWAP3 SWAP2 POP POP JUMP JUMPDEST PUSH1 0x0 PUSH3 0x263 DUP3 PUSH3 0x173 JUMP JUMPDEST SWAP1 POP SWAP2 SWAP1 POP JUMP JUMPDEST PUSH3 0x275 DUP2 PUSH3 0x256 JUMP JUMPDEST DUP2 EQ PUSH3 0x281 JUMPI PUSH1 0x0 DUP1 REVERT JUMPDEST POP JUMP JUMPDEST PUSH1 0x0 DUP2 MLOAD SWAP1 POP PUSH3 0x295 DUP2 PUSH3 0x26A JUMP JUMPDEST SWAP3 SWAP2 POP POP JUMP JUMPDEST PUSH1 0x0 DUP1 PUSH1 0x0 DUP1 PUSH1 0x80 DUP6 DUP8 SUB SLT ISZERO PUSH3 0x2B8 JUMPI PUSH3 0x2B7 PUSH3 0x14E JUMP JUMPDEST JUMPDEST PUSH1 0x0 PUSH3 0x2C8 DUP8 DUP3 DUP9 ADD PUSH3 0x1B5 JUMP JUMPDEST SWAP5 POP POP PUSH1 0x20 PUSH3 0x2DB DUP8 DUP3 DUP9 ADD PUSH3 0x1FA JUMP JUMPDEST SWAP4 POP POP PUSH1 0x40 PUSH3 0x2EE DUP8 DUP3 DUP9 ADD PUSH3 0x23F JUMP JUMPDEST SWAP3 POP POP PUSH1 0x60 PUSH3 0x301 DUP8 DUP3 DUP9 ADD PUSH3 0x284 JUMP JUMPDEST SWAP2 POP POP SWAP3 SWAP6 SWAP2 SWAP5 POP SWAP3 POP JUMP JUMPDEST PUSH2 0x4069 DUP1 PUSH3 0x31D PUSH1 0x0 CODECOPY PUSH1 0x0 RETURN INVALID PUSH1 0x80 PUSH1 0x40 MSTORE PUSH1 0x4 CALLDATASIZE LT PUSH2 0xE8 JUMPI PUSH1 0x0 CALLDATALOAD PUSH1 0xE0 SHR DUP1 PUSH4 0xB0C8F9DC GT PUSH2 0x8A JUMPI DUP1 PUSH4 0xE0579807 GT PUSH2 0x59 JUMPI DUP1 PUSH4 0xE0579807 EQ PUSH2 0x31A JUMPI DUP1 PUSH4 0xE0E5C324 EQ PUSH2 0x343 JUMPI DUP1 PUSH4 0xE5C86F58 EQ PUSH2 0x380 JUMPI DUP1 PUSH4 0xF96B5080 EQ PUSH2 0x3BE JUMPI PUSH2 0xE8 JUMP JUMPDEST DUP1 PUSH4 0xB0C8F9DC EQ PUSH2 0x247 JUMPI DUP1 PUSH4 0xC41A360A EQ PUSH2 0x277 JUMPI DUP1 PUSH4 0xDA304E4D EQ PUSH2 0x2B4 JUMPI DUP1 PUSH4 0xDD9937F7 EQ PUSH2 0x2F1 JUMPI PUSH2 0xE8 JUMP JUMPDEST DUP1 PUSH4 0x5D996701 GT PUSH2 0xC6 JUMPI DUP1 PUSH4 0x5D996701 EQ PUSH2 0x179 JUMPI DUP1 PUSH4 0x62584FFE EQ PUSH2 0x1B6 JUMPI DUP1 PUSH4 0x67ADE5F5 EQ PUSH2 0x1E1 JUMPI DUP1 PUSH4 0x6B8FF574 EQ PUSH2 0x20A JUMPI PUSH2 0xE8 JUMP JUMPDEST DUP1 PUSH4 0x2813D19D EQ PUSH2 0xED JUMPI DUP1 PUSH4 0x2DD0B640 EQ PUSH2 0x12D JUMPI DUP1 PUSH4 0x452C4756 EQ PUSH2 0x15D JUMPI JUMPDEST PUSH1 0x0 DUP1 REVERT JUMPDEST CALLVALUE DUP1 ISZERO PUSH2 0xF9 JUMPI PUSH1 0x0 DUP1 REVERT JUMPDEST POP PUSH2 0x114 PUSH1 0x4 DUP1 CALLDATASIZE SUB DUP2 ADD SWAP1 PUSH2 0x10F SWAP2 SWAP1 PUSH2 0x2702 JUMP JUMPDEST PUSH2 0x3DA JUMP JUMPDEST PUSH1 0x40 MLOAD PUSH2 0x124 SWAP5 SWAP4 SWAP3 SWAP2 SWAP1 PUSH2 0x280F JUMP JUMPDEST PUSH1 0x40 MLOAD DUP1 SWAP2 SUB SWAP1 RETURN JUMPDEST PUSH2 0x147 PUSH1 0x4 DUP1 CALLDATASIZE SUB DUP2 ADD SWAP1 PUSH2 0x142 SWAP2 SWAP1 PUSH2 0x2880 JUMP JUMPDEST PUSH2 0x4B2 JUMP JUMPDEST PUSH1 0x40 MLOAD PUSH2 0x154 SWAP2 SWAP1 PUSH2 0x290D JUMP JUMPDEST PUSH1 0x40 MLOAD DUP1 SWAP2 SUB SWAP1 RETURN JUMPDEST PUSH2 0x177 PUSH1 0x4 DUP1 CALLDATASIZE SUB DUP2 ADD SWAP1 PUSH2 0x172 SWAP2 SWAP1 PUSH2 0x2A5D JUMP JUMPDEST PUSH2 0x657 JUMP JUMPDEST STOP JUMPDEST CALLVALUE DUP1 ISZERO PUSH2 0x185 JUMPI PUSH1 0x0 DUP1 REVERT JUMPDEST POP PUSH2 0x1A0 PUSH1 0x4 DUP1 CALLDATASIZE SUB DUP2 ADD SWAP1 PUSH2 0x19B SWAP2 SWAP1 PUSH2 0x2AE0 JUMP JUMPDEST PUSH2 0x110D JUMP JUMPDEST PUSH1 0x40 MLOAD PUSH2 0x1AD SWAP2 SWAP1 PUSH2 0x2B97 JUMP JUMPDEST PUSH1 0x40 MLOAD DUP1 SWAP2 SUB SWAP1 RETURN JUMPDEST CALLVALUE DUP1 ISZERO PUSH2 0x1C2 JUMPI PUSH1 0x0 DUP1 REVERT JUMPDEST POP PUSH2 0x1CB PUSH2 0x13C4 JUMP JUMPDEST PUSH1 0x40 MLOAD PUSH2 0x1D8 SWAP2 SWAP1 PUSH2 0x290D JUMP JUMPDEST PUSH1 0x40 MLOAD DUP1 SWAP2 SUB SWAP1 RETURN JUMPDEST CALLVALUE DUP1 ISZERO PUSH2 0x1ED JUMPI PUSH1 0x0 DUP1 REVERT JUMPDEST POP PUSH2 0x208 PUSH1 0x4 DUP1 CALLDATASIZE SUB DUP2 ADD SWAP1 PUSH2 0x203 SWAP2 SWAP1 PUSH2 0x2AE0 JUMP JUMPDEST PUSH2 0x13CE JUMP JUMPDEST STOP JUMPDEST CALLVALUE DUP1 ISZERO PUSH2 0x216 JUMPI PUSH1 0x0 DUP1 REVERT JUMPDEST POP PUSH2 0x231 PUSH1 0x4 DUP1 CALLDATASIZE SUB DUP2 ADD SWAP1 PUSH2 0x22C SWAP2 SWAP1 PUSH2 0x2702 JUMP JUMPDEST PUSH2 0x175D JUMP JUMPDEST PUSH1 0x40 MLOAD PUSH2 0x23E SWAP2 SWAP1 PUSH2 0x2BB2 JUMP JUMPDEST PUSH1 0x40 MLOAD DUP1 SWAP2 SUB SWAP1 RETURN JUMPDEST PUSH2 0x261 PUSH1 0x4 DUP1 CALLDATASIZE SUB DUP2 ADD SWAP1 PUSH2 0x25C SWAP2 SWAP1 PUSH2 0x2C75 JUMP JUMPDEST PUSH2 0x1815 JUMP JUMPDEST PUSH1 0x40 MLOAD PUSH2 0x26E SWAP2 SWAP1 PUSH2 0x290D JUMP JUMPDEST PUSH1 0x40 MLOAD DUP1 SWAP2 SUB SWAP1 RETURN JUMPDEST CALLVALUE DUP1 ISZERO PUSH2 0x283 JUMPI PUSH1 0x0 DUP1 REVERT JUMPDEST POP PUSH2 0x29E PUSH1 0x4 DUP1 CALLDATASIZE SUB DUP2 ADD SWAP1 PUSH2 0x299 SWAP2 SWAP1 PUSH2 0x2702 JUMP JUMPDEST PUSH2 0x1901 JUMP JUMPDEST PUSH1 0x40 MLOAD PUSH2 0x2AB SWAP2 SWAP1 PUSH2 0x2CBE JUMP JUMPDEST PUSH1 0x40 MLOAD DUP1 SWAP2 SUB SWAP1 RETURN JUMPDEST CALLVALUE DUP1 ISZERO PUSH2 0x2C0 JUMPI PUSH1 0x0 DUP1 REVERT JUMPDEST POP PUSH2 0x2DB PUSH1 0x4 DUP1 CALLDATASIZE SUB DUP2 ADD SWAP1 PUSH2 0x2D6 SWAP2 SWAP1 PUSH2 0x2702 JUMP JUMPDEST PUSH2 0x1951 JUMP JUMPDEST PUSH1 0x40 MLOAD PUSH2 0x2E8 SWAP2 SWAP1 PUSH2 0x290D JUMP JUMPDEST PUSH1 0x40 MLOAD DUP1 SWAP2 SUB SWAP1 RETURN JUMPDEST CALLVALUE DUP1 ISZERO PUSH2 0x2FD JUMPI PUSH1 0x0 DUP1 REVERT JUMPDEST POP PUSH2 0x318 PUSH1 0x4 DUP1 CALLDATASIZE SUB DUP2 ADD SWAP1 PUSH2 0x313 SWAP2 SWAP1 PUSH2 0x2702 JUMP JUMPDEST PUSH2 0x1981 JUMP JUMPDEST STOP JUMPDEST CALLVALUE DUP1 ISZERO PUSH2 0x326 JUMPI PUSH1 0x0 DUP1 REVERT JUMPDEST POP PUSH2 0x341 PUSH1 0x4 DUP1 CALLDATASIZE SUB DUP2 ADD SWAP1 PUSH2 0x33C SWAP2 SWAP1 PUSH2 0x2702 JUMP JUMPDEST PUSH2 0x1F44 JUMP JUMPDEST STOP JUMPDEST CALLVALUE DUP1 ISZERO PUSH2 0x34F JUMPI PUSH1 0x0 DUP1 REVERT JUMPDEST POP PUSH2 0x36A PUSH1 0x4 DUP1 CALLDATASIZE SUB DUP2 ADD SWAP1 PUSH2 0x365 SWAP2 SWAP1 PUSH2 0x2CD9 JUMP JUMPDEST PUSH2 0x2055 JUMP JUMPDEST PUSH1 0x40 MLOAD PUSH2 0x377 SWAP2 SWAP1 PUSH2 0x290D JUMP JUMPDEST PUSH1 0x40 MLOAD DUP1 SWAP2 SUB SWAP1 RETURN JUMPDEST CALLVALUE DUP1 ISZERO PUSH2 0x38C JUMPI PUSH1 0x0 DUP1 REVERT JUMPDEST POP PUSH2 0x3A7 PUSH1 0x4 DUP1 CALLDATASIZE SUB DUP2 ADD SWAP1 PUSH2 0x3A2 SWAP2 SWAP1 PUSH2 0x2DA0 JUMP JUMPDEST PUSH2 0x2104 JUMP JUMPDEST PUSH1 0x40 MLOAD PUSH2 0x3B5 SWAP3 SWAP2 SWAP1 PUSH2 0x2E2F JUMP JUMPDEST PUSH1 0x40 MLOAD DUP1 SWAP2 SUB SWAP1 RETURN JUMPDEST PUSH2 0x3D8 PUSH1 0x4 DUP1 CALLDATASIZE SUB DUP2 ADD SWAP1 PUSH2 0x3D3 SWAP2 SWAP1 PUSH2 0x2AE0 JUMP JUMPDEST PUSH2 0x2247 JUMP JUMPDEST STOP JUMPDEST PUSH1 0x6 PUSH1 0x20 MSTORE DUP1 PUSH1 0x0 MSTORE PUSH1 0x40 PUSH1 0x0 KECCAK256 PUSH1 0x0 SWAP2 POP SWAP1 POP DUP1 PUSH1 0x0 ADD SLOAD SWAP1 DUP1 PUSH1 0x1 ADD DUP1 SLOAD PUSH2 0x403 SWAP1 PUSH2 0x2E87 JUMP JUMPDEST DUP1 PUSH1 0x1F ADD PUSH1 0x20 DUP1 SWAP2 DIV MUL PUSH1 0x20 ADD PUSH1 0x40 MLOAD SWAP1 DUP2 ADD PUSH1 0x40 MSTORE DUP1 SWAP3 SWAP2 SWAP1 DUP2 DUP2 MSTORE PUSH1 0x20 ADD DUP3 DUP1 SLOAD PUSH2 0x42F SWAP1 PUSH2 0x2E87 JUMP JUMPDEST DUP1 ISZERO PUSH2 0x47C JUMPI DUP1 PUSH1 0x1F LT PUSH2 0x451 JUMPI PUSH2 0x100 DUP1 DUP4 SLOAD DIV MUL DUP4 MSTORE SWAP2 PUSH1 0x20 ADD SWAP2 PUSH2 0x47C JUMP JUMPDEST DUP3 ADD SWAP2 SWAP1 PUSH1 0x0 MSTORE PUSH1 0x20 PUSH1 0x0 KECCAK256 SWAP1 JUMPDEST DUP2 SLOAD DUP2 MSTORE SWAP1 PUSH1 0x1 ADD SWAP1 PUSH1 0x20 ADD DUP1 DUP4 GT PUSH2 0x45F JUMPI DUP3 SWAP1 SUB PUSH1 0x1F AND DUP3 ADD SWAP2 JUMPDEST POP POP POP POP POP SWAP1 DUP1 PUSH1 0x2 ADD PUSH1 0x0 SWAP1 SLOAD SWAP1 PUSH2 0x100 EXP SWAP1 DIV PUSH20 0xFFFFFFFFFFFFFFFFFFFFFFFFFFFFFFFFFFFFFFFF AND SWAP1 DUP1 PUSH1 0x3 ADD SLOAD SWAP1 POP DUP5 JUMP JUMPDEST PUSH1 0x0 DUP6 PUSH1 0x5 SLOAD DUP2 LT PUSH2 0x4C3 JUMPI PUSH1 0x0 DUP1 REVERT JUMPDEST PUSH1 0x0 DUP1 PUSH1 0x0 SWAP1 SLOAD SWAP1 PUSH2 0x100 EXP SWAP1 DIV PUSH20 0xFFFFFFFFFFFFFFFFFFFFFFFFFFFFFFFFFFFFFFFF AND PUSH20 0xFFFFFFFFFFFFFFFFFFFFFFFFFFFFFFFFFFFFFFFF AND PUSH4 0x2DD0B640 DUP11 DUP11 DUP11 DUP11 DUP11 DUP11 PUSH1 0x40 MLOAD DUP8 PUSH4 0xFFFFFFFF AND PUSH1 0xE0 SHL DUP2 MSTORE PUSH1 0x4 ADD PUSH2 0x529 SWAP7 SWAP6 SWAP5 SWAP4 SWAP3 SWAP2 SWAP1 PUSH2 0x2F00 JUMP JUMPDEST PUSH1 0x20 PUSH1 0x40 MLOAD DUP1 DUP4 SUB DUP2 PUSH1 0x0 DUP8 GAS CALL ISZERO DUP1 ISZERO PUSH2 0x548 JUMPI RETURNDATASIZE PUSH1 0x0 DUP1 RETURNDATACOPY RETURNDATASIZE PUSH1 0x0 REVERT JUMPDEST POP POP POP POP PUSH1 0x40 MLOAD RETURNDATASIZE PUSH1 0x1F NOT PUSH1 0x1F DUP3 ADD AND DUP3 ADD DUP1 PUSH1 0x40 MSTORE POP DUP2 ADD SWAP1 PUSH2 0x56C SWAP2 SWAP1 PUSH2 0x2F76 JUMP JUMPDEST SWAP1 POP PUSH32 0x780900DCFB922770B66B73546245C9D725E14DD206326F4F8F5A706976C2B61D DUP2 PUSH1 0x40 MLOAD PUSH2 0x59D SWAP2 SWAP1 PUSH2 0x290D JUMP JUMPDEST PUSH1 0x40 MLOAD DUP1 SWAP2 SUB SWAP1 LOG1 PUSH2 0x648 PUSH1 0x0 DUP1 SLOAD SWAP1 PUSH2 0x100 EXP SWAP1 DIV PUSH20 0xFFFFFFFFFFFFFFFFFFFFFFFFFFFFFFFFFFFFFFFF AND PUSH20 0xFFFFFFFFFFFFFFFFFFFFFFFFFFFFFFFFFFFFFFFF AND PUSH4 0xCA009021 DUP12 PUSH1 0x40 MLOAD DUP3 PUSH4 0xFFFFFFFF AND PUSH1 0xE0 SHL DUP2 MSTORE PUSH1 0x4 ADD PUSH2 0x601 SWAP2 SWAP1 PUSH2 0x290D JUMP JUMPDEST PUSH1 0x20 PUSH1 0x40 MLOAD DUP1 DUP4 SUB DUP2 DUP7 GAS STATICCALL ISZERO DUP1 ISZERO PUSH2 0x61E JUMPI RETURNDATASIZE PUSH1 0x0 DUP1 RETURNDATACOPY RETURNDATASIZE PUSH1 0x0 REVERT JUMPDEST POP POP POP POP PUSH1 0x40 MLOAD RETURNDATASIZE PUSH1 0x1F NOT PUSH1 0x1F DUP3 ADD AND DUP3 ADD DUP1 PUSH1 0x40 MSTORE POP DUP2 ADD SWAP1 PUSH2 0x642 SWAP2 SWAP1 PUSH2 0x2F76 JUMP JUMPDEST DUP3 PUSH2 0x2585 JUMP JUMPDEST DUP1 SWAP3 POP POP POP SWAP7 SWAP6 POP POP POP POP POP POP JUMP JUMPDEST PUSH1 0x3 PUSH1 0x5 DUP2 GT ISZERO PUSH2 0x66B JUMPI PUSH2 0x66A PUSH2 0x2B20 JUMP JUMPDEST JUMPDEST PUSH1 0x0 DUP1 SLOAD SWAP1 PUSH2 0x100 EXP SWAP1 DIV PUSH20 0xFFFFFFFFFFFFFFFFFFFFFFFFFFFFFFFFFFFFFFFF AND PUSH20 0xFFFFFFFFFFFFFFFFFFFFFFFFFFFFFFFFFFFFFFFF AND PUSH4 0x5C622A0E DUP7 PUSH1 0x40 MLOAD DUP3 PUSH4 0xFFFFFFFF AND PUSH1 0xE0 SHL DUP2 MSTORE PUSH1 0x4 ADD PUSH2 0x6C4 SWAP2 SWAP1 PUSH2 0x290D JUMP JUMPDEST PUSH1 0x20 PUSH1 0x40 MLOAD DUP1 DUP4 SUB DUP2 DUP7 GAS STATICCALL ISZERO DUP1 ISZERO PUSH2 0x6E1 JUMPI RETURNDATASIZE PUSH1 0x0 DUP1 RETURNDATACOPY RETURNDATASIZE PUSH1 0x0 REVERT JUMPDEST POP POP POP POP PUSH1 0x40 MLOAD RETURNDATASIZE PUSH1 0x1F NOT PUSH1 0x1F DUP3 ADD AND DUP3 ADD DUP1 PUSH1 0x40 MSTORE POP DUP2 ADD SWAP1 PUSH2 0x705 SWAP2 SWAP1 PUSH2 0x2FC8 JUMP JUMPDEST PUSH1 0x5 DUP2 GT ISZERO PUSH2 0x717 JUMPI PUSH2 0x716 PUSH2 0x2B20 JUMP JUMPDEST JUMPDEST EQ PUSH2 0x721 JUMPI PUSH1 0x0 DUP1 REVERT JUMPDEST TIMESTAMP PUSH3 0x76A700 PUSH1 0x0 DUP1 SLOAD SWAP1 PUSH2 0x100 EXP SWAP1 DIV PUSH20 0xFFFFFFFFFFFFFFFFFFFFFFFFFFFFFFFFFFFFFFFF AND PUSH20 0xFFFFFFFFFFFFFFFFFFFFFFFFFFFFFFFFFFFFFFFF AND PUSH4 0x386660A DUP8 PUSH1 0x40 MLOAD DUP3 PUSH4 0xFFFFFFFF AND PUSH1 0xE0 SHL DUP2 MSTORE PUSH1 0x4 ADD PUSH2 0x77F SWAP2 SWAP1 PUSH2 0x290D JUMP JUMPDEST PUSH1 0x20 PUSH1 0x40 MLOAD DUP1 DUP4 SUB DUP2 DUP7 GAS STATICCALL ISZERO DUP1 ISZERO PUSH2 0x79C JUMPI RETURNDATASIZE PUSH1 0x0 DUP1 RETURNDATACOPY RETURNDATASIZE PUSH1 0x0 REVERT JUMPDEST POP POP POP POP PUSH1 0x40 MLOAD RETURNDATASIZE PUSH1 0x1F NOT PUSH1 0x1F DUP3 ADD AND DUP3 ADD DUP1 PUSH1 0x40 MSTORE POP DUP2 ADD SWAP1 PUSH2 0x7C0 SWAP2 SWAP1 PUSH2 0x2F76 JUMP JUMPDEST PUSH2 0x7CA SWAP2 SWAP1 PUSH2 0x3024 JUMP JUMPDEST LT ISZERO PUSH2 0x7D5 JUMPI PUSH1 0x0 DUP1 REVERT JUMPDEST PUSH1 0x0 DUP1 PUSH1 0x0 SWAP1 SLOAD SWAP1 PUSH2 0x100 EXP SWAP1 DIV PUSH20 0xFFFFFFFFFFFFFFFFFFFFFFFFFFFFFFFFFFFFFFFF AND PUSH20 0xFFFFFFFFFFFFFFFFFFFFFFFFFFFFFFFFFFFFFFFF AND PUSH4 0x302DF083 DUP7 PUSH1 0x40 MLOAD DUP3 PUSH4 0xFFFFFFFF AND PUSH1 0xE0 SHL DUP2 MSTORE PUSH1 0x4 ADD PUSH2 0x831 SWAP2 SWAP1 PUSH2 0x290D JUMP JUMPDEST PUSH1 0x20 PUSH1 0x40 MLOAD DUP1 DUP4 SUB DUP2 DUP7 GAS STATICCALL ISZERO DUP1 ISZERO PUSH2 0x84E JUMPI RETURNDATASIZE PUSH1 0x0 DUP1 RETURNDATACOPY RETURNDATASIZE PUSH1 0x0 REVERT JUMPDEST POP POP POP POP PUSH1 0x40 MLOAD RETURNDATASIZE PUSH1 0x1F NOT PUSH1 0x1F DUP3 ADD AND DUP3 ADD DUP1 PUSH1 0x40 MSTORE POP DUP2 ADD SWAP1 PUSH2 0x872 SWAP2 SWAP1 PUSH2 0x2F76 JUMP JUMPDEST SWAP1 POP PUSH1 0x0 PUSH1 0x2 PUSH1 0x0 SWAP1 SLOAD SWAP1 PUSH2 0x100 EXP SWAP1 DIV PUSH20 0xFFFFFFFFFFFFFFFFFFFFFFFFFFFFFFFFFFFFFFFF AND PUSH20 0xFFFFFFFFFFFFFFFFFFFFFFFFFFFFFFFFFFFFFFFF AND PUSH4 0xF29A6F44 DUP5 PUSH1 0x40 MLOAD DUP3 PUSH4 0xFFFFFFFF AND PUSH1 0xE0 SHL DUP2 MSTORE PUSH1 0x4 ADD PUSH2 0x8D1 SWAP2 SWAP1 PUSH2 0x30AD JUMP JUMPDEST PUSH1 0x0 PUSH1 0x40 MLOAD DUP1 DUP4 SUB DUP2 DUP7 GAS STATICCALL ISZERO DUP1 ISZERO PUSH2 0x8EE JUMPI RETURNDATASIZE PUSH1 0x0 DUP1 RETURNDATACOPY RETURNDATASIZE PUSH1 0x0 REVERT JUMPDEST POP POP POP POP PUSH1 0x40 MLOAD RETURNDATASIZE PUSH1 0x0 DUP3 RETURNDATACOPY RETURNDATASIZE PUSH1 0x1F NOT PUSH1 0x1F DUP3 ADD AND DUP3 ADD DUP1 PUSH1 0x40 MSTORE POP DUP2 ADD SWAP1 PUSH2 0x917 SWAP2 SWAP1 PUSH2 0x313F JUMP JUMPDEST PUSH1 0x40 MLOAD PUSH1 0x20 ADD PUSH2 0x927 SWAP2 SWAP1 PUSH2 0x31C4 JUMP JUMPDEST PUSH1 0x40 MLOAD PUSH1 0x20 DUP2 DUP4 SUB SUB DUP2 MSTORE SWAP1 PUSH1 0x40 MSTORE DUP1 MLOAD SWAP1 PUSH1 0x20 ADD KECCAK256 SWAP1 POP PUSH1 0x0 PUSH1 0x1 PUSH1 0x0 SWAP1 SLOAD SWAP1 PUSH2 0x100 EXP SWAP1 DIV PUSH20 0xFFFFFFFFFFFFFFFFFFFFFFFFFFFFFFFFFFFFFFFF AND PUSH20 0xFFFFFFFFFFFFFFFFFFFFFFFFFFFFFFFFFFFFFFFF AND PUSH4 0x5A0B84F8 DUP5 PUSH1 0x40 MLOAD DUP3 PUSH4 0xFFFFFFFF AND PUSH1 0xE0 SHL DUP2 MSTORE PUSH1 0x4 ADD PUSH2 0x99C SWAP2 SWAP1 PUSH2 0x290D JUMP JUMPDEST PUSH1 0x0 PUSH1 0x40 MLOAD DUP1 DUP4 SUB DUP2 DUP7 GAS STATICCALL ISZERO DUP1 ISZERO PUSH2 0x9B9 JUMPI RETURNDATASIZE PUSH1 0x0 DUP1 RETURNDATACOPY RETURNDATASIZE PUSH1 0x0 REVERT JUMPDEST POP POP POP POP PUSH1 0x40 MLOAD RETURNDATASIZE PUSH1 0x0 DUP3 RETURNDATACOPY RETURNDATASIZE PUSH1 0x1F NOT PUSH1 0x1F DUP3 ADD AND DUP3 ADD DUP1 PUSH1 0x40 MSTORE POP DUP2 ADD SWAP1 PUSH2 0x9E2 SWAP2 SWAP1 PUSH2 0x313F JUMP JUMPDEST PUSH1 0x40 MLOAD PUSH1 0x20 ADD PUSH2 0x9F2 SWAP2 SWAP1 PUSH2 0x2BB2 JUMP JUMPDEST PUSH1 0x40 MLOAD PUSH1 0x20 DUP2 DUP4 SUB SUB DUP2 MSTORE SWAP1 PUSH1 0x40 MSTORE DUP1 MLOAD SWAP1 PUSH1 0x20 ADD KECCAK256 SWAP1 POP PUSH1 0x0 PUSH1 0x2 PUSH1 0x0 SWAP1 SLOAD SWAP1 PUSH2 0x100 EXP SWAP1 DIV PUSH20 0xFFFFFFFFFFFFFFFFFFFFFFFFFFFFFFFFFFFFFFFF AND PUSH20 0xFFFFFFFFFFFFFFFFFFFFFFFFFFFFFFFFFFFFFFFF AND PUSH4 0xD4C85366 DUP7 PUSH1 0x40 MLOAD DUP3 PUSH4 0xFFFFFFFF AND PUSH1 0xE0 SHL DUP2 MSTORE PUSH1 0x4 ADD PUSH2 0xA67 SWAP2 SWAP1 PUSH2 0x30AD JUMP JUMPDEST PUSH1 0x0 PUSH1 0x40 MLOAD DUP1 DUP4 SUB DUP2 DUP7 GAS STATICCALL ISZERO DUP1 ISZERO PUSH2 0xA84 JUMPI RETURNDATASIZE PUSH1 0x0 DUP1 RETURNDATACOPY RETURNDATASIZE PUSH1 0x0 REVERT JUMPDEST POP POP POP POP PUSH1 0x40 MLOAD RETURNDATASIZE PUSH1 0x0 DUP3 RETURNDATACOPY RETURNDATASIZE PUSH1 0x1F NOT PUSH1 0x1F DUP3 ADD AND DUP3 ADD DUP1 PUSH1 0x40 MSTORE POP DUP2 ADD SWAP1 PUSH2 0xAAD SWAP2 SWAP1 PUSH2 0x313F JUMP JUMPDEST PUSH1 0x40 MLOAD PUSH1 0x20 ADD PUSH2 0xABD SWAP2 SWAP1 PUSH2 0x2BB2 JUMP JUMPDEST PUSH1 0x40 MLOAD PUSH1 0x20 DUP2 DUP4 SUB SUB DUP2 MSTORE SWAP1 PUSH1 0x40 MSTORE DUP1 MLOAD SWAP1 PUSH1 0x20 ADD KECCAK256 SWAP1 POP PUSH1 0x0 PUSH1 0x1 PUSH1 0x0 SWAP1 SLOAD SWAP1 PUSH2 0x100 EXP SWAP1 DIV PUSH20 0xFFFFFFFFFFFFFFFFFFFFFFFFFFFFFFFFFFFFFFFF AND PUSH20 0xFFFFFFFFFFFFFFFFFFFFFFFFFFFFFFFFFFFFFFFF AND PUSH4 0x88C2C519 DUP7 PUSH1 0x40 MLOAD DUP3 PUSH4 0xFFFFFFFF AND PUSH1 0xE0 SHL DUP2 MSTORE PUSH1 0x4 ADD PUSH2 0xB32 SWAP2 SWAP1 PUSH2 0x290D JUMP JUMPDEST PUSH1 0x0 PUSH1 0x40 MLOAD DUP1 DUP4 SUB DUP2 DUP7 GAS STATICCALL ISZERO DUP1 ISZERO PUSH2 0xB4F JUMPI RETURNDATASIZE PUSH1 0x0 DUP1 RETURNDATACOPY RETURNDATASIZE PUSH1 0x0 REVERT JUMPDEST POP POP POP POP PUSH1 0x40 MLOAD RETURNDATASIZE PUSH1 0x0 DUP3 RETURNDATACOPY RETURNDATASIZE PUSH1 0x1F NOT PUSH1 0x1F DUP3 ADD AND DUP3 ADD DUP1 PUSH1 0x40 MSTORE POP DUP2 ADD SWAP1 PUSH2 0xB78 SWAP2 SWAP1 PUSH2 0x324B JUMP JUMPDEST DUP1 MLOAD SWAP1 PUSH1 0x20 ADD KECCAK256 SWAP1 POP DUP3 DUP5 EQ DUP1 ISZERO PUSH2 0xB8F JUMPI POP DUP1 DUP3 EQ JUMPDEST PUSH2 0xBCE JUMPI PUSH1 0x40 MLOAD PUSH32 0x8C379A000000000000000000000000000000000000000000000000000000000 DUP2 MSTORE PUSH1 0x4 ADD PUSH2 0xBC5 SWAP1 PUSH2 0x32E0 JUMP JUMPDEST PUSH1 0x40 MLOAD DUP1 SWAP2 SUB SWAP1 REVERT JUMPDEST PUSH1 0x2 DUP1 DUP2 GT ISZERO PUSH2 0xBE1 JUMPI PUSH2 0xBE0 PUSH2 0x2B20 JUMP JUMPDEST JUMPDEST PUSH1 0x2 PUSH1 0x0 SWAP1 SLOAD SWAP1 PUSH2 0x100 EXP SWAP1 DIV PUSH20 0xFFFFFFFFFFFFFFFFFFFFFFFFFFFFFFFFFFFFFFFF AND PUSH20 0xFFFFFFFFFFFFFFFFFFFFFFFFFFFFFFFFFFFFFFFF AND PUSH4 0x29EFB4A9 DUP9 PUSH1 0x40 MLOAD DUP3 PUSH4 0xFFFFFFFF AND PUSH1 0xE0 SHL DUP2 MSTORE PUSH1 0x4 ADD PUSH2 0xC3C SWAP2 SWAP1 PUSH2 0x30AD JUMP JUMPDEST PUSH1 0x20 PUSH1 0x40 MLOAD DUP1 DUP4 SUB DUP2 DUP7 GAS STATICCALL ISZERO DUP1 ISZERO PUSH2 0xC59 JUMPI RETURNDATASIZE PUSH1 0x0 DUP1 RETURNDATACOPY RETURNDATASIZE PUSH1 0x0 REVERT JUMPDEST POP POP POP POP PUSH1 0x40 MLOAD RETURNDATASIZE PUSH1 0x1F NOT PUSH1 0x1F DUP3 ADD AND DUP3 ADD DUP1 PUSH1 0x40 MSTORE POP DUP2 ADD SWAP1 PUSH2 0xC7D SWAP2 SWAP1 PUSH2 0x3325 JUMP JUMPDEST PUSH1 0x2 DUP2 GT ISZERO PUSH2 0xC8F JUMPI PUSH2 0xC8E PUSH2 0x2B20 JUMP JUMPDEST JUMPDEST SUB PUSH2 0xD4A JUMPI TIMESTAMP PUSH4 0x3C26700 PUSH1 0x0 DUP1 SLOAD SWAP1 PUSH2 0x100 EXP SWAP1 DIV PUSH20 0xFFFFFFFFFFFFFFFFFFFFFFFFFFFFFFFFFFFFFFFF AND PUSH20 0xFFFFFFFFFFFFFFFFFFFFFFFFFFFFFFFFFFFFFFFF AND PUSH4 0x386660A DUP13 PUSH1 0x40 MLOAD DUP3 PUSH4 0xFFFFFFFF AND PUSH1 0xE0 SHL DUP2 MSTORE PUSH1 0x4 ADD PUSH2 0xCF3 SWAP2 SWAP1 PUSH2 0x290D JUMP JUMPDEST PUSH1 0x20 PUSH1 0x40 MLOAD DUP1 DUP4 SUB DUP2 DUP7 GAS STATICCALL ISZERO DUP1 ISZERO PUSH2 0xD10 JUMPI RETURNDATASIZE PUSH1 0x0 DUP1 RETURNDATACOPY RETURNDATASIZE PUSH1 0x0 REVERT JUMPDEST POP POP POP POP PUSH1 0x40 MLOAD RETURNDATASIZE PUSH1 0x1F NOT PUSH1 0x1F DUP3 ADD AND DUP3 ADD DUP1 PUSH1 0x40 MSTORE POP DUP2 ADD SWAP1 PUSH2 0xD34 SWAP2 SWAP1 PUSH2 0x2F76 JUMP JUMPDEST PUSH2 0xD3E SWAP2 SWAP1 PUSH2 0x3024 JUMP JUMPDEST LT ISZERO PUSH2 0xD49 JUMPI PUSH1 0x0 DUP1 REVERT JUMPDEST JUMPDEST PUSH1 0x0 DUP1 PUSH1 0x0 SWAP1 SLOAD SWAP1 PUSH2 0x100 EXP SWAP1 DIV PUSH20 0xFFFFFFFFFFFFFFFFFFFFFFFFFFFFFFFFFFFFFFFF AND PUSH20 0xFFFFFFFFFFFFFFFFFFFFFFFFFFFFFFFFFFFFFFFF AND PUSH4 0x5998F775 DUP12 PUSH1 0x40 MLOAD DUP3 PUSH4 0xFFFFFFFF AND PUSH1 0xE0 SHL DUP2 MSTORE PUSH1 0x4 ADD PUSH2 0xDA6 SWAP2 SWAP1 PUSH2 0x290D JUMP JUMPDEST PUSH1 0x20 PUSH1 0x40 MLOAD DUP1 DUP4 SUB DUP2 DUP7 GAS STATICCALL ISZERO DUP1 ISZERO PUSH2 0xDC3 JUMPI RETURNDATASIZE PUSH1 0x0 DUP1 RETURNDATACOPY RETURNDATASIZE PUSH1 0x0 REVERT JUMPDEST POP POP POP POP PUSH1 0x40 MLOAD RETURNDATASIZE PUSH1 0x1F NOT PUSH1 0x1F DUP3 ADD AND DUP3 ADD DUP1 PUSH1 0x40 MSTORE POP DUP2 ADD SWAP1 PUSH2 0xDE7 SWAP2 SWAP1 PUSH2 0x2F76 JUMP JUMPDEST SWAP1 POP PUSH1 0x0 PUSH1 0x6 PUSH1 0x0 DUP12 DUP2 MSTORE PUSH1 0x20 ADD SWAP1 DUP2 MSTORE PUSH1 0x20 ADD PUSH1 0x0 KECCAK256 SWAP1 POP PUSH1 0x0 DUP2 PUSH1 0x2 ADD PUSH1 0x0 SWAP1 SLOAD SWAP1 PUSH2 0x100 EXP SWAP1 DIV PUSH20 0xFFFFFFFFFFFFFFFFFFFFFFFFFFFFFFFFFFFFFFFF AND SWAP1 POP DUP3 PUSH1 0x3 PUSH1 0x0 SWAP1 SLOAD SWAP1 PUSH2 0x100 EXP SWAP1 DIV PUSH20 0xFFFFFFFFFFFFFFFFFFFFFFFFFFFFFFFFFFFFFFFF AND PUSH20 0xFFFFFFFFFFFFFFFFFFFFFFFFFFFFFFFFFFFFFFFF AND PUSH4 0xB9B7650A DUP4 PUSH1 0x40 MLOAD DUP3 PUSH4 0xFFFFFFFF AND PUSH1 0xE0 SHL DUP2 MSTORE PUSH1 0x4 ADD PUSH2 0xE85 SWAP2 SWAP1 PUSH2 0x2CBE JUMP JUMPDEST PUSH1 0x20 PUSH1 0x40 MLOAD DUP1 DUP4 SUB DUP2 DUP7 GAS STATICCALL ISZERO DUP1 ISZERO PUSH2 0xEA2 JUMPI RETURNDATASIZE PUSH1 0x0 DUP1 RETURNDATACOPY RETURNDATASIZE PUSH1 0x0 REVERT JUMPDEST POP POP POP POP PUSH1 0x40 MLOAD RETURNDATASIZE PUSH1 0x1F NOT PUSH1 0x1F DUP3 ADD AND DUP3 ADD DUP1 PUSH1 0x40 MSTORE POP DUP2 ADD SWAP1 PUSH2 0xEC6 SWAP2 SWAP1 PUSH2 0x2F76 JUMP JUMPDEST LT ISZERO PUSH2 0xF07 JUMPI PUSH1 0x40 MLOAD PUSH32 0x8C379A000000000000000000000000000000000000000000000000000000000 DUP2 MSTORE PUSH1 0x4 ADD PUSH2 0xEFE SWAP1 PUSH2 0x339E JUMP JUMPDEST PUSH1 0x40 MLOAD DUP1 SWAP2 SUB SWAP1 REVERT JUMPDEST PUSH1 0x0 DUP1 PUSH1 0x0 SWAP1 SLOAD SWAP1 PUSH2 0x100 EXP SWAP1 DIV PUSH20 0xFFFFFFFFFFFFFFFFFFFFFFFFFFFFFFFFFFFFFFFF AND PUSH20 0xFFFFFFFFFFFFFFFFFFFFFFFFFFFFFFFFFFFFFFFF AND PUSH4 0x302DF083 DUP15 PUSH1 0x40 MLOAD DUP3 PUSH4 0xFFFFFFFF AND PUSH1 0xE0 SHL DUP2 MSTORE PUSH1 0x4 ADD PUSH2 0xF63 SWAP2 SWAP1 PUSH2 0x290D JUMP JUMPDEST PUSH1 0x20 PUSH1 0x40 MLOAD DUP1 DUP4 SUB DUP2 DUP7 GAS STATICCALL ISZERO DUP1 ISZERO PUSH2 0xF80 JUMPI RETURNDATASIZE PUSH1 0x0 DUP1 RETURNDATACOPY RETURNDATASIZE PUSH1 0x0 REVERT JUMPDEST POP POP POP POP PUSH1 0x40 MLOAD RETURNDATASIZE PUSH1 0x1F NOT PUSH1 0x1F DUP3 ADD AND DUP3 ADD DUP1 PUSH1 0x40 MSTORE POP DUP2 ADD SWAP1 PUSH2 0xFA4 SWAP2 SWAP1 PUSH2 0x2F76 JUMP JUMPDEST SWAP1 POP PUSH1 0x3 PUSH1 0x0 SWAP1 SLOAD SWAP1 PUSH2 0x100 EXP SWAP1 DIV PUSH20 0xFFFFFFFFFFFFFFFFFFFFFFFFFFFFFFFFFFFFFFFF AND PUSH20 0xFFFFFFFFFFFFFFFFFFFFFFFFFFFFFFFFFFFFFFFF AND PUSH4 0x3456EA30 DUP4 DUP4 DUP8 PUSH1 0x40 MLOAD DUP5 PUSH4 0xFFFFFFFF AND PUSH1 0xE0 SHL DUP2 MSTORE PUSH1 0x4 ADD PUSH2 0x1005 SWAP4 SWAP3 SWAP2 SWAP1 PUSH2 0x33BE JUMP JUMPDEST PUSH1 0x0 PUSH1 0x40 MLOAD DUP1 DUP4 SUB DUP2 PUSH1 0x0 DUP8 DUP1 EXTCODESIZE ISZERO DUP1 ISZERO PUSH2 0x101F JUMPI PUSH1 0x0 DUP1 REVERT JUMPDEST POP GAS CALL ISZERO DUP1 ISZERO PUSH2 0x1033 JUMPI RETURNDATASIZE PUSH1 0x0 DUP1 RETURNDATACOPY RETURNDATASIZE PUSH1 0x0 REVERT JUMPDEST POP POP POP POP PUSH1 0x0 DUP1 SLOAD SWAP1 PUSH2 0x100 EXP SWAP1 DIV PUSH20 0xFFFFFFFFFFFFFFFFFFFFFFFFFFFFFFFFFFFFFFFF AND PUSH20 0xFFFFFFFFFFFFFFFFFFFFFFFFFFFFFFFFFFFFFFFF AND PUSH4 0xB7FF5DAE PUSH1 0x4 DUP16 PUSH1 0x40 MLOAD DUP4 PUSH4 0xFFFFFFFF AND PUSH1 0xE0 SHL DUP2 MSTORE PUSH1 0x4 ADD PUSH2 0x1093 SWAP3 SWAP2 SWAP1 PUSH2 0x343D JUMP JUMPDEST PUSH1 0x0 PUSH1 0x40 MLOAD DUP1 DUP4 SUB DUP2 PUSH1 0x0 DUP8 DUP1 EXTCODESIZE ISZERO DUP1 ISZERO PUSH2 0x10AD JUMPI PUSH1 0x0 DUP1 REVERT JUMPDEST POP GAS CALL ISZERO DUP1 ISZERO PUSH2 0x10C1 JUMPI RETURNDATASIZE PUSH1 0x0 DUP1 RETURNDATACOPY RETURNDATASIZE PUSH1 0x0 REVERT JUMPDEST POP POP POP POP PUSH32 0xA9059CBB2AB09EB219583F4A59A5D0623ADE346D962BCD4E46B11DA047C9049B DUP2 DUP6 PUSH1 0x40 MLOAD PUSH2 0x10F6 SWAP3 SWAP2 SWAP1 PUSH2 0x3466 JUMP JUMPDEST PUSH1 0x40 MLOAD DUP1 SWAP2 SUB SWAP1 LOG1 POP POP POP POP POP POP POP POP POP POP POP POP POP JUMP JUMPDEST PUSH1 0x0 DUP1 DUP3 SUB PUSH2 0x1151 JUMPI PUSH1 0x40 MLOAD PUSH32 0x8C379A000000000000000000000000000000000000000000000000000000000 DUP2 MSTORE PUSH1 0x4 ADD PUSH2 0x1148 SWAP1 PUSH2 0x34DB JUMP JUMPDEST PUSH1 0x40 MLOAD DUP1 SWAP2 SUB SWAP1 REVERT JUMPDEST PUSH1 0x0 DUP1 PUSH1 0x6 PUSH1 0x0 DUP7 DUP2 MSTORE PUSH1 0x20 ADD SWAP1 DUP2 MSTORE PUSH1 0x20 ADD PUSH1 0x0 KECCAK256 PUSH1 0x5 ADD DUP1 SLOAD DUP1 PUSH1 0x20 MUL PUSH1 0x20 ADD PUSH1 0x40 MLOAD SWAP1 DUP2 ADD PUSH1 0x40 MSTORE DUP1 SWAP3 SWAP2 SWAP1 DUP2 DUP2 MSTORE PUSH1 0x20 ADD PUSH1 0x0 SWAP1 JUMPDEST DUP3 DUP3 LT ISZERO PUSH2 0x129D JUMPI DUP4 DUP3 SWAP1 PUSH1 0x0 MSTORE PUSH1 0x20 PUSH1 0x0 KECCAK256 SWAP1 PUSH1 0x4 MUL ADD PUSH1 0x40 MLOAD DUP1 PUSH1 0x80 ADD PUSH1 0x40 MSTORE SWAP1 DUP2 PUSH1 0x0 DUP3 ADD SLOAD DUP2 MSTORE PUSH1 0x20 ADD PUSH1 0x1 DUP3 ADD SLOAD DUP2 MSTORE PUSH1 0x20 ADD PUSH1 0x2 DUP3 ADD DUP1 SLOAD PUSH2 0x11D1 SWAP1 PUSH2 0x2E87 JUMP JUMPDEST DUP1 PUSH1 0x1F ADD PUSH1 0x20 DUP1 SWAP2 DIV MUL PUSH1 0x20 ADD PUSH1 0x40 MLOAD SWAP1 DUP2 ADD PUSH1 0x40 MSTORE DUP1 SWAP3 SWAP2 SWAP1 DUP2 DUP2 MSTORE PUSH1 0x20 ADD DUP3 DUP1 SLOAD PUSH2 0x11FD SWAP1 PUSH2 0x2E87 JUMP JUMPDEST DUP1 ISZERO PUSH2 0x124A JUMPI DUP1 PUSH1 0x1F LT PUSH2 0x121F JUMPI PUSH2 0x100 DUP1 DUP4 SLOAD DIV MUL DUP4 MSTORE SWAP2 PUSH1 0x20 ADD SWAP2 PUSH2 0x124A JUMP JUMPDEST DUP3 ADD SWAP2 SWAP1 PUSH1 0x0 MSTORE PUSH1 0x20 PUSH1 0x0 KECCAK256 SWAP1 JUMPDEST DUP2 SLOAD DUP2 MSTORE SWAP1 PUSH1 0x1 ADD SWAP1 PUSH1 0x20 ADD DUP1 DUP4 GT PUSH2 0x122D JUMPI DUP3 SWAP1 SUB PUSH1 0x1F AND DUP3 ADD SWAP2 JUMPDEST POP POP POP POP POP DUP2 MSTORE PUSH1 0x20 ADD PUSH1 0x3 DUP3 ADD PUSH1 0x0 SWAP1 SLOAD SWAP1 PUSH2 0x100 EXP SWAP1 DIV PUSH1 0xFF AND PUSH1 0x2 DUP2 GT ISZERO PUSH2 0x1278 JUMPI PUSH2 0x1277 PUSH2 0x2B20 JUMP JUMPDEST JUMPDEST PUSH1 0x2 DUP2 GT ISZERO PUSH2 0x128A JUMPI PUSH2 0x1289 PUSH2 0x2B20 JUMP JUMPDEST JUMPDEST DUP2 MSTORE POP POP DUP2 MSTORE PUSH1 0x20 ADD SWAP1 PUSH1 0x1 ADD SWAP1 PUSH2 0x118A JUMP JUMPDEST POP POP POP POP SWAP1 POP PUSH1 0x0 DUP2 MLOAD SWAP1 POP PUSH1 0x0 DUP1 JUMPDEST DUP3 DUP2 LT ISZERO PUSH2 0x12F5 JUMPI DUP7 DUP5 DUP3 DUP2 MLOAD DUP2 LT PUSH2 0x12C9 JUMPI PUSH2 0x12C8 PUSH2 0x34FB JUMP JUMPDEST JUMPDEST PUSH1 0x20 MUL PUSH1 0x20 ADD ADD MLOAD PUSH1 0x0 ADD MLOAD SUB PUSH2 0x12E2 JUMPI DUP1 SWAP5 POP PUSH1 0x1 SWAP2 POP JUMPDEST DUP1 DUP1 PUSH2 0x12ED SWAP1 PUSH2 0x352A JUMP JUMPDEST SWAP2 POP POP PUSH2 0x12AD JUMP JUMPDEST POP PUSH1 0x1 ISZERO ISZERO DUP2 ISZERO ISZERO EQ PUSH2 0x133D JUMPI PUSH1 0x40 MLOAD PUSH32 0x8C379A000000000000000000000000000000000000000000000000000000000 DUP2 MSTORE PUSH1 0x4 ADD PUSH2 0x1334 SWAP1 PUSH2 0x35E4 JUMP JUMPDEST PUSH1 0x40 MLOAD DUP1 SWAP2 SUB SWAP1 REVERT JUMPDEST DUP1 ISZERO PUSH2 0x1399 JUMPI PUSH32 0x2341EBB88DFA6CE59E54BDDE82E9746E5A27FCD12A0D5D5CA812F1D01F4102E2 DUP4 DUP6 DUP2 MLOAD DUP2 LT PUSH2 0x1377 JUMPI PUSH2 0x1376 PUSH2 0x34FB JUMP JUMPDEST JUMPDEST PUSH1 0x20 MUL PUSH1 0x20 ADD ADD MLOAD PUSH1 0x60 ADD MLOAD PUSH1 0x40 MLOAD PUSH2 0x1390 SWAP2 SWAP1 PUSH2 0x2B97 JUMP JUMPDEST PUSH1 0x40 MLOAD DUP1 SWAP2 SUB SWAP1 LOG1 JUMPDEST DUP3 DUP5 DUP2 MLOAD DUP2 LT PUSH2 0x13AC JUMPI PUSH2 0x13AB PUSH2 0x34FB JUMP JUMPDEST JUMPDEST PUSH1 0x20 MUL PUSH1 0x20 ADD ADD MLOAD PUSH1 0x60 ADD MLOAD SWAP5 POP POP POP POP POP SWAP3 SWAP2 POP POP JUMP JUMPDEST PUSH1 0x0 PUSH1 0x5 SLOAD SWAP1 POP SWAP1 JUMP JUMPDEST PUSH1 0x0 DUP2 EQ PUSH2 0x1759 JUMPI PUSH1 0x0 DUP1 PUSH1 0x6 PUSH1 0x0 DUP6 DUP2 MSTORE PUSH1 0x20 ADD SWAP1 DUP2 MSTORE PUSH1 0x20 ADD PUSH1 0x0 KECCAK256 PUSH1 0x5 ADD DUP1 SLOAD DUP1 PUSH1 0x20 MUL PUSH1 0x20 ADD PUSH1 0x40 MLOAD SWAP1 DUP2 ADD PUSH1 0x40 MSTORE DUP1 SWAP3 SWAP2 SWAP1 DUP2 DUP2 MSTORE PUSH1 0x20 ADD PUSH1 0x0 SWAP1 JUMPDEST DUP3 DUP3 LT ISZERO PUSH2 0x1522 JUMPI DUP4 DUP3 SWAP1 PUSH1 0x0 MSTORE PUSH1 0x20 PUSH1 0x0 KECCAK256 SWAP1 PUSH1 0x4 MUL ADD PUSH1 0x40 MLOAD DUP1 PUSH1 0x80 ADD PUSH1 0x40 MSTORE SWAP1 DUP2 PUSH1 0x0 DUP3 ADD SLOAD DUP2 MSTORE PUSH1 0x20 ADD PUSH1 0x1 DUP3 ADD SLOAD DUP2 MSTORE PUSH1 0x20 ADD PUSH1 0x2 DUP3 ADD DUP1 SLOAD PUSH2 0x1456 SWAP1 PUSH2 0x2E87 JUMP JUMPDEST DUP1 PUSH1 0x1F ADD PUSH1 0x20 DUP1 SWAP2 DIV MUL PUSH1 0x20 ADD PUSH1 0x40 MLOAD SWAP1 DUP2 ADD PUSH1 0x40 MSTORE DUP1 SWAP3 SWAP2 SWAP1 DUP2 DUP2 MSTORE PUSH1 0x20 ADD DUP3 DUP1 SLOAD PUSH2 0x1482 SWAP1 PUSH2 0x2E87 JUMP JUMPDEST DUP1 ISZERO PUSH2 0x14CF JUMPI DUP1 PUSH1 0x1F LT PUSH2 0x14A4 JUMPI PUSH2 0x100 DUP1 DUP4 SLOAD DIV MUL DUP4 MSTORE SWAP2 PUSH1 0x20 ADD SWAP2 PUSH2 0x14CF JUMP JUMPDEST DUP3 ADD SWAP2 SWAP1 PUSH1 0x0 MSTORE PUSH1 0x20 PUSH1 0x0 KECCAK256 SWAP1 JUMPDEST DUP2 SLOAD DUP2 MSTORE SWAP1 PUSH1 0x1 ADD SWAP1 PUSH1 0x20 ADD DUP1 DUP4 GT PUSH2 0x14B2 JUMPI DUP3 SWAP1 SUB PUSH1 0x1F AND DUP3 ADD SWAP2 JUMPDEST POP POP POP POP POP DUP2 MSTORE PUSH1 0x20 ADD PUSH1 0x3 DUP3 ADD PUSH1 0x0 SWAP1 SLOAD SWAP1 PUSH2 0x100 EXP SWAP1 DIV PUSH1 0xFF AND PUSH1 0x2 DUP2 GT ISZERO PUSH2 0x14FD JUMPI PUSH2 0x14FC PUSH2 0x2B20 JUMP JUMPDEST JUMPDEST PUSH1 0x2 DUP2 GT ISZERO PUSH2 0x150F JUMPI PUSH2 0x150E PUSH2 0x2B20 JUMP JUMPDEST JUMPDEST DUP2 MSTORE POP POP DUP2 MSTORE PUSH1 0x20 ADD SWAP1 PUSH1 0x1 ADD SWAP1 PUSH2 0x140F JUMP JUMPDEST POP POP POP POP SWAP1 POP PUSH1 0x0 DUP2 MLOAD SWAP1 POP PUSH1 0x0 DUP1 JUMPDEST DUP3 DUP2 LT ISZERO PUSH2 0x157A JUMPI DUP6 DUP5 DUP3 DUP2 MLOAD DUP2 LT PUSH2 0x154E JUMPI PUSH2 0x154D PUSH2 0x34FB JUMP JUMPDEST JUMPDEST PUSH1 0x20 MUL PUSH1 0x20 ADD ADD MLOAD PUSH1 0x0 ADD MLOAD SUB PUSH2 0x1567 JUMPI DUP1 SWAP5 POP PUSH1 0x1 SWAP2 POP JUMPDEST DUP1 DUP1 PUSH2 0x1572 SWAP1 PUSH2 0x352A JUMP JUMPDEST SWAP2 POP POP PUSH2 0x1532 JUMP JUMPDEST POP PUSH1 0x1 ISZERO ISZERO DUP2 ISZERO ISZERO EQ PUSH2 0x15C2 JUMPI PUSH1 0x40 MLOAD PUSH32 0x8C379A000000000000000000000000000000000000000000000000000000000 DUP2 MSTORE PUSH1 0x4 ADD PUSH2 0x15B9 SWAP1 PUSH2 0x34DB JUMP JUMPDEST PUSH1 0x40 MLOAD DUP1 SWAP2 SUB SWAP1 REVERT JUMPDEST DUP1 ISZERO PUSH2 0x1754 JUMPI PUSH1 0x6 PUSH1 0x0 DUP8 DUP2 MSTORE PUSH1 0x20 ADD SWAP1 DUP2 MSTORE PUSH1 0x20 ADD PUSH1 0x0 KECCAK256 PUSH1 0x5 ADD PUSH1 0x1 DUP4 PUSH2 0x15EB SWAP2 SWAP1 PUSH2 0x3604 JUMP JUMPDEST DUP2 SLOAD DUP2 LT PUSH2 0x15FC JUMPI PUSH2 0x15FB PUSH2 0x34FB JUMP JUMPDEST JUMPDEST SWAP1 PUSH1 0x0 MSTORE PUSH1 0x20 PUSH1 0x0 KECCAK256 SWAP1 PUSH1 0x4 MUL ADD PUSH1 0x6 PUSH1 0x0 DUP9 DUP2 MSTORE PUSH1 0x20 ADD SWAP1 DUP2 MSTORE PUSH1 0x20 ADD PUSH1 0x0 KECCAK256 PUSH1 0x5 ADD DUP6 DUP2 SLOAD DUP2 LT PUSH2 0x1632 JUMPI PUSH2 0x1631 PUSH2 0x34FB JUMP JUMPDEST JUMPDEST SWAP1 PUSH1 0x0 MSTORE PUSH1 0x20 PUSH1 0x0 KECCAK256 SWAP1 PUSH1 0x4 MUL ADD PUSH1 0x0 DUP3 ADD SLOAD DUP2 PUSH1 0x0 ADD SSTORE PUSH1 0x1 DUP3 ADD SLOAD DUP2 PUSH1 0x1 ADD SSTORE PUSH1 0x2 DUP3 ADD DUP2 PUSH1 0x2 ADD SWAP1 DUP2 PUSH2 0x1668 SWAP2 SWAP1 PUSH2 0x37FA JUMP JUMPDEST POP PUSH1 0x3 DUP3 ADD PUSH1 0x0 SWAP1 SLOAD SWAP1 PUSH2 0x100 EXP SWAP1 DIV PUSH1 0xFF AND DUP2 PUSH1 0x3 ADD PUSH1 0x0 PUSH2 0x100 EXP DUP2 SLOAD DUP2 PUSH1 0xFF MUL NOT AND SWAP1 DUP4 PUSH1 0x2 DUP2 GT ISZERO PUSH2 0x16A1 JUMPI PUSH2 0x16A0 PUSH2 0x2B20 JUMP JUMPDEST JUMPDEST MUL OR SWAP1 SSTORE POP SWAP1 POP POP PUSH1 0x6 PUSH1 0x0 DUP8 DUP2 MSTORE PUSH1 0x20 ADD SWAP1 DUP2 MSTORE PUSH1 0x20 ADD PUSH1 0x0 KECCAK256 PUSH1 0x5 ADD DUP1 SLOAD DUP1 PUSH2 0x16CF JUMPI PUSH2 0x16CE PUSH2 0x38E2 JUMP JUMPDEST JUMPDEST PUSH1 0x1 SWAP1 SUB DUP2 DUP2 SWAP1 PUSH1 0x0 MSTORE PUSH1 0x20 PUSH1 0x0 KECCAK256 SWAP1 PUSH1 0x4 MUL ADD PUSH1 0x0 DUP1 DUP3 ADD PUSH1 0x0 SWAP1 SSTORE PUSH1 0x1 DUP3 ADD PUSH1 0x0 SWAP1 SSTORE PUSH1 0x2 DUP3 ADD PUSH1 0x0 PUSH2 0x1704 SWAP2 SWAP1 PUSH2 0x265B JUMP JUMPDEST PUSH1 0x3 DUP3 ADD PUSH1 0x0 PUSH2 0x100 EXP DUP2 SLOAD SWAP1 PUSH1 0xFF MUL NOT AND SWAP1 SSTORE POP POP SWAP1 SSTORE PUSH32 0xC01A711A994234663E49BCAF267235941EF164AC0DEA30DE367E8CDB0EEABD5A DUP6 PUSH1 0x40 MLOAD PUSH2 0x174B SWAP2 SWAP1 PUSH2 0x290D JUMP JUMPDEST PUSH1 0x40 MLOAD DUP1 SWAP2 SUB SWAP1 LOG1 JUMPDEST POP POP POP POP JUMPDEST POP POP JUMP JUMPDEST PUSH1 0x60 DUP2 PUSH1 0x5 SLOAD DUP2 LT PUSH2 0x176E JUMPI PUSH1 0x0 DUP1 REVERT JUMPDEST PUSH1 0x6 PUSH1 0x0 DUP5 DUP2 MSTORE PUSH1 0x20 ADD SWAP1 DUP2 MSTORE PUSH1 0x20 ADD PUSH1 0x0 KECCAK256 PUSH1 0x1 ADD DUP1 SLOAD PUSH2 0x178F SWAP1 PUSH2 0x2E87 JUMP JUMPDEST DUP1 PUSH1 0x1F ADD PUSH1 0x20 DUP1 SWAP2 DIV MUL PUSH1 0x20 ADD PUSH1 0x40 MLOAD SWAP1 DUP2 ADD PUSH1 0x40 MSTORE DUP1 SWAP3 SWAP2 SWAP1 DUP2 DUP2 MSTORE PUSH1 0x20 ADD DUP3 DUP1 SLOAD PUSH2 0x17BB SWAP1 PUSH2 0x2E87 JUMP JUMPDEST DUP1 ISZERO PUSH2 0x1808 JUMPI DUP1 PUSH1 0x1F LT PUSH2 0x17DD JUMPI PUSH2 0x100 DUP1 DUP4 SLOAD DIV MUL DUP4 MSTORE SWAP2 PUSH1 0x20 ADD SWAP2 PUSH2 0x1808 JUMP JUMPDEST DUP3 ADD SWAP2 SWAP1 PUSH1 0x0 MSTORE PUSH1 0x20 PUSH1 0x0 KECCAK256 SWAP1 JUMPDEST DUP2 SLOAD DUP2 MSTORE SWAP1 PUSH1 0x1 ADD SWAP1 PUSH1 0x20 ADD DUP1 DUP4 GT PUSH2 0x17EB JUMPI DUP3 SWAP1 SUB PUSH1 0x1F AND DUP3 ADD SWAP2 JUMPDEST POP POP POP POP POP SWAP2 POP POP SWAP2 SWAP1 POP JUMP JUMPDEST PUSH1 0x0 PUSH7 0x2386F26FC10000 CALLVALUE GT PUSH2 0x1860 JUMPI PUSH1 0x40 MLOAD PUSH32 0x8C379A000000000000000000000000000000000000000000000000000000000 DUP2 MSTORE PUSH1 0x4 ADD PUSH2 0x1857 SWAP1 PUSH2 0x3983 JUMP JUMPDEST PUSH1 0x40 MLOAD DUP1 SWAP2 SUB SWAP1 REVERT JUMPDEST PUSH1 0x0 PUSH1 0x6 PUSH1 0x0 PUSH1 0x5 PUSH1 0x0 DUP2 SLOAD DUP1 SWAP3 SWAP2 SWAP1 PUSH2 0x1879 SWAP1 PUSH2 0x352A JUMP JUMPDEST SWAP2 SWAP1 POP SSTORE DUP2 MSTORE PUSH1 0x20 ADD SWAP1 DUP2 MSTORE PUSH1 0x20 ADD PUSH1 0x0 KECCAK256 SWAP1 POP PUSH1 0x0 DUP2 PUSH1 0x0 ADD DUP2 SWAP1 SSTORE POP DUP3 DUP2 PUSH1 0x1 ADD SWAP1 DUP2 PUSH2 0x18A8 SWAP2 SWAP1 PUSH2 0x39A3 JUMP JUMPDEST POP CALLER DUP2 PUSH1 0x2 ADD PUSH1 0x0 PUSH2 0x100 EXP DUP2 SLOAD DUP2 PUSH20 0xFFFFFFFFFFFFFFFFFFFFFFFFFFFFFFFFFFFFFFFF MUL NOT AND SWAP1 DUP4 PUSH20 0xFFFFFFFFFFFFFFFFFFFFFFFFFFFFFFFFFFFFFFFF AND MUL OR SWAP1 SSTORE POP PUSH1 0x0 DUP2 PUSH1 0x3 ADD DUP2 SWAP1 SSTORE POP PUSH1 0x5 SLOAD SWAP2 POP POP SWAP2 SWAP1 POP JUMP JUMPDEST PUSH1 0x0 DUP2 PUSH1 0x5 SLOAD DUP2 LT PUSH2 0x1912 JUMPI PUSH1 0x0 DUP1 REVERT JUMPDEST PUSH1 0x6 PUSH1 0x0 DUP5 DUP2 MSTORE PUSH1 0x20 ADD SWAP1 DUP2 MSTORE PUSH1 0x20 ADD PUSH1 0x0 KECCAK256 PUSH1 0x2 ADD PUSH1 0x0 SWAP1 SLOAD SWAP1 PUSH2 0x100 EXP SWAP1 DIV PUSH20 0xFFFFFFFFFFFFFFFFFFFFFFFFFFFFFFFFFFFFFFFF AND SWAP2 POP POP SWAP2 SWAP1 POP JUMP JUMPDEST PUSH1 0x0 DUP2 PUSH1 0x5 SLOAD DUP2 LT PUSH2 0x1962 JUMPI PUSH1 0x0 DUP1 REVERT JUMPDEST PUSH1 0x6 PUSH1 0x0 DUP5 DUP2 MSTORE PUSH1 0x20 ADD SWAP1 DUP2 MSTORE PUSH1 0x20 ADD PUSH1 0x0 KECCAK256 PUSH1 0x0 ADD SLOAD SWAP2 POP POP SWAP2 SWAP1 POP JUMP JUMPDEST DUP1 PUSH1 0x5 SLOAD DUP2 LT PUSH2 0x1990 JUMPI PUSH1 0x0 DUP1 REVERT JUMPDEST DUP2 CALLER PUSH20 0xFFFFFFFFFFFFFFFFFFFFFFFFFFFFFFFFFFFFFFFF AND PUSH1 0x6 PUSH1 0x0 DUP4 DUP2 MSTORE PUSH1 0x20 ADD SWAP1 DUP2 MSTORE PUSH1 0x20 ADD PUSH1 0x0 KECCAK256 PUSH1 0x2 ADD PUSH1 0x0 SWAP1 SLOAD SWAP1 PUSH2 0x100 EXP SWAP1 DIV PUSH20 0xFFFFFFFFFFFFFFFFFFFFFFFFFFFFFFFFFFFFFFFF AND PUSH20 0xFFFFFFFFFFFFFFFFFFFFFFFFFFFFFFFFFFFFFFFF AND EQ PUSH2 0x19FF JUMPI PUSH1 0x0 DUP1 REVERT JUMPDEST PUSH1 0x0 PUSH1 0x6 PUSH1 0x0 DUP6 DUP2 MSTORE PUSH1 0x20 ADD SWAP1 DUP2 MSTORE PUSH1 0x20 ADD PUSH1 0x0 KECCAK256 PUSH1 0x5 ADD DUP1 SLOAD DUP1 PUSH1 0x20 MUL PUSH1 0x20 ADD PUSH1 0x40 MLOAD SWAP1 DUP2 ADD PUSH1 0x40 MSTORE DUP1 SWAP3 SWAP2 SWAP1 DUP2 DUP2 MSTORE PUSH1 0x20 ADD PUSH1 0x0 SWAP1 JUMPDEST DUP3 DUP3 LT ISZERO PUSH2 0x1B4A JUMPI DUP4 DUP3 SWAP1 PUSH1 0x0 MSTORE PUSH1 0x20 PUSH1 0x0 KECCAK256 SWAP1 PUSH1 0x4 MUL ADD PUSH1 0x40 MLOAD DUP1 PUSH1 0x80 ADD PUSH1 0x40 MSTORE SWAP1 DUP2 PUSH1 0x0 DUP3 ADD SLOAD DUP2 MSTORE PUSH1 0x20 ADD PUSH1 0x1 DUP3 ADD SLOAD DUP2 MSTORE PUSH1 0x20 ADD PUSH1 0x2 DUP3 ADD DUP1 SLOAD PUSH2 0x1A7E SWAP1 PUSH2 0x2E87 JUMP JUMPDEST DUP1 PUSH1 0x1F ADD PUSH1 0x20 DUP1 SWAP2 DIV MUL PUSH1 0x20 ADD PUSH1 0x40 MLOAD SWAP1 DUP2 ADD PUSH1 0x40 MSTORE DUP1 SWAP3 SWAP2 SWAP1 DUP2 DUP2 MSTORE PUSH1 0x20 ADD DUP3 DUP1 SLOAD PUSH2 0x1AAA SWAP1 PUSH2 0x2E87 JUMP JUMPDEST DUP1 ISZERO PUSH2 0x1AF7 JUMPI DUP1 PUSH1 0x1F LT PUSH2 0x1ACC JUMPI PUSH2 0x100 DUP1 DUP4 SLOAD DIV MUL DUP4 MSTORE SWAP2 PUSH1 0x20 ADD SWAP2 PUSH2 0x1AF7 JUMP JUMPDEST DUP3 ADD SWAP2 SWAP1 PUSH1 0x0 MSTORE PUSH1 0x20 PUSH1 0x0 KECCAK256 SWAP1 JUMPDEST DUP2 SLOAD DUP2 MSTORE SWAP1 PUSH1 0x1 ADD SWAP1 PUSH1 0x20 ADD DUP1 DUP4 GT PUSH2 0x1ADA JUMPI DUP3 SWAP1 SUB PUSH1 0x1F AND DUP3 ADD SWAP2 JUMPDEST POP POP POP POP POP DUP2 MSTORE PUSH1 0x20 ADD PUSH1 0x3 DUP3 ADD PUSH1 0x0 SWAP1 SLOAD SWAP1 PUSH2 0x100 EXP SWAP1 DIV PUSH1 0xFF AND PUSH1 0x2 DUP2 GT ISZERO PUSH2 0x1B25 JUMPI PUSH2 0x1B24 PUSH2 0x2B20 JUMP JUMPDEST JUMPDEST PUSH1 0x2 DUP2 GT ISZERO PUSH2 0x1B37 JUMPI PUSH2 0x1B36 PUSH2 0x2B20 JUMP JUMPDEST JUMPDEST DUP2 MSTORE POP POP DUP2 MSTORE PUSH1 0x20 ADD SWAP1 PUSH1 0x1 ADD SWAP1 PUSH2 0x1A37 JUMP JUMPDEST POP POP POP POP SWAP1 POP PUSH1 0x0 DUP2 MLOAD PUSH8 0xFFFFFFFFFFFFFFFF DUP2 GT ISZERO PUSH2 0x1B6D JUMPI PUSH2 0x1B6C PUSH2 0x2932 JUMP JUMPDEST JUMPDEST PUSH1 0x40 MLOAD SWAP1 DUP1 DUP3 MSTORE DUP1 PUSH1 0x20 MUL PUSH1 0x20 ADD DUP3 ADD PUSH1 0x40 MSTORE DUP1 ISZERO PUSH2 0x1B9B JUMPI DUP2 PUSH1 0x20 ADD PUSH1 0x20 DUP3 MUL DUP1 CALLDATASIZE DUP4 CALLDATACOPY DUP1 DUP3 ADD SWAP2 POP POP SWAP1 POP JUMPDEST POP SWAP1 POP PUSH1 0x0 DUP3 MLOAD PUSH8 0xFFFFFFFFFFFFFFFF DUP2 GT ISZERO PUSH2 0x1BBB JUMPI PUSH2 0x1BBA PUSH2 0x2932 JUMP JUMPDEST JUMPDEST PUSH1 0x40 MLOAD SWAP1 DUP1 DUP3 MSTORE DUP1 PUSH1 0x20 MUL PUSH1 0x20 ADD DUP3 ADD PUSH1 0x40 MSTORE DUP1 ISZERO PUSH2 0x1BE9 JUMPI DUP2 PUSH1 0x20 ADD PUSH1 0x20 DUP3 MUL DUP1 CALLDATASIZE DUP4 CALLDATACOPY DUP1 DUP3 ADD SWAP2 POP POP SWAP1 POP JUMPDEST POP SWAP1 POP PUSH1 0x0 DUP4 MLOAD PUSH8 0xFFFFFFFFFFFFFFFF DUP2 GT ISZERO PUSH2 0x1C09 JUMPI PUSH2 0x1C08 PUSH2 0x2932 JUMP JUMPDEST JUMPDEST PUSH1 0x40 MLOAD SWAP1 DUP1 DUP3 MSTORE DUP1 PUSH1 0x20 MUL PUSH1 0x20 ADD DUP3 ADD PUSH1 0x40 MSTORE DUP1 ISZERO PUSH2 0x1C3C JUMPI DUP2 PUSH1 0x20 ADD JUMPDEST PUSH1 0x60 DUP2 MSTORE PUSH1 0x20 ADD SWAP1 PUSH1 0x1 SWAP1 SUB SWAP1 DUP2 PUSH2 0x1C27 JUMPI SWAP1 POP JUMPDEST POP SWAP1 POP PUSH1 0x0 DUP5 MLOAD PUSH8 0xFFFFFFFFFFFFFFFF DUP2 GT ISZERO PUSH2 0x1C5C JUMPI PUSH2 0x1C5B PUSH2 0x2932 JUMP JUMPDEST JUMPDEST PUSH1 0x40 MLOAD SWAP1 DUP1 DUP3 MSTORE DUP1 PUSH1 0x20 MUL PUSH1 0x20 ADD DUP3 ADD PUSH1 0x40 MSTORE DUP1 ISZERO PUSH2 0x1C8F JUMPI DUP2 PUSH1 0x20 ADD JUMPDEST PUSH1 0x60 DUP2 MSTORE PUSH1 0x20 ADD SWAP1 PUSH1 0x1 SWAP1 SUB SWAP1 DUP2 PUSH2 0x1C7A JUMPI SWAP1 POP JUMPDEST POP SWAP1 POP PUSH1 0x0 DUP6 MLOAD PUSH8 0xFFFFFFFFFFFFFFFF DUP2 GT ISZERO PUSH2 0x1CAF JUMPI PUSH2 0x1CAE PUSH2 0x2932 JUMP JUMPDEST JUMPDEST PUSH1 0x40 MLOAD SWAP1 DUP1 DUP3 MSTORE DUP1 PUSH1 0x20 MUL PUSH1 0x20 ADD DUP3 ADD PUSH1 0x40 MSTORE DUP1 ISZERO PUSH2 0x1CDD JUMPI DUP2 PUSH1 0x20 ADD PUSH1 0x20 DUP3 MUL DUP1 CALLDATASIZE DUP4 CALLDATACOPY DUP1 DUP3 ADD SWAP2 POP POP SWAP1 POP JUMPDEST POP SWAP1 POP PUSH1 0x0 JUMPDEST DUP7 MLOAD DUP2 LT ISZERO PUSH2 0x1EF9 JUMPI DUP7 DUP2 DUP2 MLOAD DUP2 LT PUSH2 0x1CFF JUMPI PUSH2 0x1CFE PUSH2 0x34FB JUMP JUMPDEST JUMPDEST PUSH1 0x20 MUL PUSH1 0x20 ADD ADD MLOAD PUSH1 0x0 ADD MLOAD DUP7 DUP3 DUP2 MLOAD DUP2 LT PUSH2 0x1D1E JUMPI PUSH2 0x1D1D PUSH2 0x34FB JUMP JUMPDEST JUMPDEST PUSH1 0x20 MUL PUSH1 0x20 ADD ADD DUP2 DUP2 MSTORE POP POP DUP7 DUP2 DUP2 MLOAD DUP2 LT PUSH2 0x1D3D JUMPI PUSH2 0x1D3C PUSH2 0x34FB JUMP JUMPDEST JUMPDEST PUSH1 0x20 MUL PUSH1 0x20 ADD ADD MLOAD PUSH1 0x20 ADD MLOAD DUP6 DUP3 DUP2 MLOAD DUP2 LT PUSH2 0x1D5C JUMPI PUSH2 0x1D5B PUSH2 0x34FB JUMP JUMPDEST JUMPDEST PUSH1 0x20 MUL PUSH1 0x20 ADD ADD DUP2 DUP2 MSTORE POP POP PUSH1 0x1 PUSH1 0x0 SWAP1 SLOAD SWAP1 PUSH2 0x100 EXP SWAP1 DIV PUSH20 0xFFFFFFFFFFFFFFFFFFFFFFFFFFFFFFFFFFFFFFFF AND PUSH20 0xFFFFFFFFFFFFFFFFFFFFFFFFFFFFFFFFFFFFFFFF AND PUSH4 0x5481E699 DUP9 DUP4 DUP2 MLOAD DUP2 LT PUSH2 0x1DB9 JUMPI PUSH2 0x1DB8 PUSH2 0x34FB JUMP JUMPDEST JUMPDEST PUSH1 0x20 MUL PUSH1 0x20 ADD ADD MLOAD PUSH1 0x20 ADD MLOAD PUSH1 0x40 MLOAD DUP3 PUSH4 0xFFFFFFFF AND PUSH1 0xE0 SHL DUP2 MSTORE PUSH1 0x4 ADD PUSH2 0x1DE1 SWAP2 SWAP1 PUSH2 0x290D JUMP JUMPDEST PUSH1 0x0 PUSH1 0x40 MLOAD DUP1 DUP4 SUB DUP2 DUP7 GAS STATICCALL ISZERO DUP1 ISZERO PUSH2 0x1DFE JUMPI RETURNDATASIZE PUSH1 0x0 DUP1 RETURNDATACOPY RETURNDATASIZE PUSH1 0x0 REVERT JUMPDEST POP POP POP POP PUSH1 0x40 MLOAD RETURNDATASIZE PUSH1 0x0 DUP3 RETURNDATACOPY RETURNDATASIZE PUSH1 0x1F NOT PUSH1 0x1F DUP3 ADD AND DUP3 ADD DUP1 PUSH1 0x40 MSTORE POP DUP2 ADD SWAP1 PUSH2 0x1E27 SWAP2 SWAP1 PUSH2 0x313F JUMP JUMPDEST DUP5 DUP3 DUP2 MLOAD DUP2 LT PUSH2 0x1E3A JUMPI PUSH2 0x1E39 PUSH2 0x34FB JUMP JUMPDEST JUMPDEST PUSH1 0x20 MUL PUSH1 0x20 ADD ADD DUP2 SWAP1 MSTORE POP DUP7 DUP2 DUP2 MLOAD DUP2 LT PUSH2 0x1E58 JUMPI PUSH2 0x1E57 PUSH2 0x34FB JUMP JUMPDEST JUMPDEST PUSH1 0x20 MUL PUSH1 0x20 ADD ADD MLOAD PUSH1 0x40 ADD MLOAD DUP4 DUP3 DUP2 MLOAD DUP2 LT PUSH2 0x1E77 JUMPI PUSH2 0x1E76 PUSH2 0x34FB JUMP JUMPDEST JUMPDEST PUSH1 0x20 MUL PUSH1 0x20 ADD ADD DUP2 SWAP1 MSTORE POP DUP7 DUP2 DUP2 MLOAD DUP2 LT PUSH2 0x1E95 JUMPI PUSH2 0x1E94 PUSH2 0x34FB JUMP JUMPDEST JUMPDEST PUSH1 0x20 MUL PUSH1 0x20 ADD ADD MLOAD PUSH1 0x60 ADD MLOAD DUP3 DUP3 DUP2 MLOAD DUP2 LT PUSH2 0x1EB4 JUMPI PUSH2 0x1EB3 PUSH2 0x34FB JUMP JUMPDEST JUMPDEST PUSH1 0x20 MUL PUSH1 0x20 ADD ADD SWAP1 PUSH1 0x2 DUP2 GT ISZERO PUSH2 0x1ECE JUMPI PUSH2 0x1ECD PUSH2 0x2B20 JUMP JUMPDEST JUMPDEST SWAP1 DUP2 PUSH1 0x2 DUP2 GT ISZERO PUSH2 0x1EE2 JUMPI PUSH2 0x1EE1 PUSH2 0x2B20 JUMP JUMPDEST JUMPDEST DUP2 MSTORE POP POP DUP1 DUP1 PUSH2 0x1EF1 SWAP1 PUSH2 0x352A JUMP JUMPDEST SWAP2 POP POP PUSH2 0x1CE3 JUMP JUMPDEST POP PUSH32 0xE6C75EE9CDD3E628203F6E03DDBECEA0E9472F78039061CDE763650D2880F7B7 DUP6 DUP6 DUP6 DUP6 DUP6 PUSH1 0x40 MLOAD PUSH2 0x1F31 SWAP6 SWAP5 SWAP4 SWAP3 SWAP2 SWAP1 PUSH2 0x3CFD JUMP JUMPDEST PUSH1 0x40 MLOAD DUP1 SWAP2 SUB SWAP1 LOG1 POP POP POP POP POP POP POP POP POP JUMP JUMPDEST DUP1 PUSH1 0x5 SLOAD DUP2 LT PUSH2 0x1F53 JUMPI PUSH1 0x0 DUP1 REVERT JUMPDEST PUSH1 0x0 PUSH1 0x6 PUSH1 0x0 DUP5 DUP2 MSTORE PUSH1 0x20 ADD SWAP1 DUP2 MSTORE PUSH1 0x20 ADD PUSH1 0x0 KECCAK256 SWAP1 POP PUSH1 0x0 DUP2 PUSH1 0x3 ADD SLOAD SWAP1 POP PUSH1 0x32 DUP2 LT ISZERO DUP1 ISZERO PUSH2 0x1F85 JUMPI POP PUSH1 0xC8 DUP2 GT ISZERO JUMPDEST ISZERO PUSH2 0x1F99 JUMPI PUSH1 0x1 DUP3 PUSH1 0x0 ADD DUP2 SWAP1 SSTORE POP PUSH2 0x204F JUMP JUMPDEST PUSH1 0xC8 DUP2 GT DUP1 ISZERO PUSH2 0x1FAB JUMPI POP PUSH2 0x15E DUP2 GT ISZERO JUMPDEST ISZERO PUSH2 0x1FBF JUMPI PUSH1 0x2 DUP3 PUSH1 0x0 ADD DUP2 SWAP1 SSTORE POP PUSH2 0x204E JUMP JUMPDEST PUSH2 0x15E DUP2 GT DUP1 ISZERO PUSH2 0x1FD2 JUMPI POP PUSH2 0x1C2 DUP2 GT ISZERO JUMPDEST ISZERO PUSH2 0x1FE6 JUMPI PUSH1 0x3 DUP3 PUSH1 0x0 ADD DUP2 SWAP1 SSTORE POP PUSH2 0x204D JUMP JUMPDEST PUSH2 0x1C2 DUP2 GT DUP1 ISZERO PUSH2 0x1FF9 JUMPI POP PUSH2 0x320 DUP2 GT ISZERO JUMPDEST ISZERO PUSH2 0x200D JUMPI PUSH1 0x4 DUP3 PUSH1 0x0 ADD DUP2 SWAP1 SSTORE POP PUSH2 0x204C JUMP JUMPDEST PUSH2 0x320 DUP2 GT DUP1 ISZERO PUSH2 0x2020 JUMPI POP PUSH2 0x7D0 DUP2 GT ISZERO JUMPDEST ISZERO PUSH2 0x2034 JUMPI PUSH1 0x5 DUP3 PUSH1 0x0 ADD DUP2 SWAP1 SSTORE POP PUSH2 0x204B JUMP JUMPDEST PUSH2 0x7D0 DUP2 GT ISZERO PUSH2 0x204A JUMPI PUSH2 0x3E7 DUP3 PUSH1 0x0 ADD DUP2 SWAP1 SSTORE POP JUMPDEST JUMPDEST JUMPDEST JUMPDEST JUMPDEST JUMPDEST POP POP POP POP JUMP JUMPDEST PUSH1 0x0 DUP1 PUSH1 0x0 SWAP1 SLOAD SWAP1 PUSH2 0x100 EXP SWAP1 DIV PUSH20 0xFFFFFFFFFFFFFFFFFFFFFFFFFFFFFFFFFFFFFFFF AND PUSH20 0xFFFFFFFFFFFFFFFFFFFFFFFFFFFFFFFFFFFFFFFF AND PUSH4 0xE0E5C324 DUP7 DUP7 DUP7 DUP7 PUSH1 0x40 MLOAD DUP6 PUSH4 0xFFFFFFFF AND PUSH1 0xE0 SHL DUP2 MSTORE PUSH1 0x4 ADD PUSH2 0x20B7 SWAP5 SWAP4 SWAP3 SWAP2 SWAP1 PUSH2 0x3D73 JUMP JUMPDEST PUSH1 0x20 PUSH1 0x40 MLOAD DUP1 DUP4 SUB DUP2 PUSH1 0x0 DUP8 GAS CALL ISZERO DUP1 ISZERO PUSH2 0x20D6 JUMPI RETURNDATASIZE PUSH1 0x0 DUP1 RETURNDATACOPY RETURNDATASIZE PUSH1 0x0 REVERT JUMPDEST POP POP POP POP PUSH1 0x40 MLOAD RETURNDATASIZE PUSH1 0x1F NOT PUSH1 0x1F DUP3 ADD AND DUP3 ADD DUP1 PUSH1 0x40 MSTORE POP DUP2 ADD SWAP1 PUSH2 0x20FA SWAP2 SWAP1 PUSH2 0x2F76 JUMP JUMPDEST SWAP1 POP SWAP5 SWAP4 POP POP POP POP JUMP JUMPDEST PUSH1 0x0 DUP1 PUSH1 0x0 PUSH1 0x40 MLOAD DUP1 PUSH1 0x80 ADD PUSH1 0x40 MSTORE DUP1 PUSH1 0x4 PUSH1 0x0 DUP2 SLOAD DUP1 SWAP3 SWAP2 SWAP1 PUSH2 0x2127 SWAP1 PUSH2 0x352A JUMP JUMPDEST SWAP2 SWAP1 POP SSTORE DUP2 MSTORE PUSH1 0x20 ADD DUP9 DUP2 MSTORE PUSH1 0x20 ADD DUP7 DUP7 DUP1 DUP1 PUSH1 0x1F ADD PUSH1 0x20 DUP1 SWAP2 DIV MUL PUSH1 0x20 ADD PUSH1 0x40 MLOAD SWAP1 DUP2 ADD PUSH1 0x40 MSTORE DUP1 SWAP4 SWAP3 SWAP2 SWAP1 DUP2 DUP2 MSTORE PUSH1 0x20 ADD DUP4 DUP4 DUP1 DUP3 DUP5 CALLDATACOPY PUSH1 0x0 DUP2 DUP5 ADD MSTORE PUSH1 0x1F NOT PUSH1 0x1F DUP3 ADD AND SWAP1 POP DUP1 DUP4 ADD SWAP3 POP POP POP POP POP POP POP DUP2 MSTORE PUSH1 0x20 ADD PUSH1 0x2 DUP1 DUP2 GT ISZERO PUSH2 0x2193 JUMPI PUSH2 0x2192 PUSH2 0x2B20 JUMP JUMPDEST JUMPDEST DUP2 MSTORE POP SWAP1 POP PUSH1 0x6 PUSH1 0x0 DUP8 DUP2 MSTORE PUSH1 0x20 ADD SWAP1 DUP2 MSTORE PUSH1 0x20 ADD PUSH1 0x0 KECCAK256 PUSH1 0x5 ADD DUP2 SWAP1 DUP1 PUSH1 0x1 DUP2 SLOAD ADD DUP1 DUP3 SSTORE DUP1 SWAP2 POP POP PUSH1 0x1 SWAP1 SUB SWAP1 PUSH1 0x0 MSTORE PUSH1 0x20 PUSH1 0x0 KECCAK256 SWAP1 PUSH1 0x4 MUL ADD PUSH1 0x0 SWAP1 SWAP2 SWAP1 SWAP2 SWAP1 SWAP2 POP PUSH1 0x0 DUP3 ADD MLOAD DUP2 PUSH1 0x0 ADD SSTORE PUSH1 0x20 DUP3 ADD MLOAD DUP2 PUSH1 0x1 ADD SSTORE PUSH1 0x40 DUP3 ADD MLOAD DUP2 PUSH1 0x2 ADD SWAP1 DUP2 PUSH2 0x2201 SWAP2 SWAP1 PUSH2 0x39A3 JUMP JUMPDEST POP PUSH1 0x60 DUP3 ADD MLOAD DUP2 PUSH1 0x3 ADD PUSH1 0x0 PUSH2 0x100 EXP DUP2 SLOAD DUP2 PUSH1 0xFF MUL NOT AND SWAP1 DUP4 PUSH1 0x2 DUP2 GT ISZERO PUSH2 0x222D JUMPI PUSH2 0x222C PUSH2 0x2B20 JUMP JUMPDEST JUMPDEST MUL OR SWAP1 SSTORE POP POP POP PUSH1 0x1 PUSH1 0x4 SLOAD SWAP3 POP SWAP3 POP POP SWAP5 POP SWAP5 SWAP3 POP POP POP JUMP JUMPDEST DUP1 CALLER PUSH20 0xFFFFFFFFFFFFFFFFFFFFFFFFFFFFFFFFFFFFFFFF AND PUSH1 0x6 PUSH1 0x0 DUP4 DUP2 MSTORE PUSH1 0x20 ADD SWAP1 DUP2 MSTORE PUSH1 0x20 ADD PUSH1 0x0 KECCAK256 PUSH1 0x2 ADD PUSH1 0x0 SWAP1 SLOAD SWAP1 PUSH2 0x100 EXP SWAP1 DIV PUSH20 0xFFFFFFFFFFFFFFFFFFFFFFFFFFFFFFFFFFFFFFFF AND PUSH20 0xFFFFFFFFFFFFFFFFFFFFFFFFFFFFFFFFFFFFFFFF AND EQ PUSH2 0x22B6 JUMPI PUSH1 0x0 DUP1 REVERT JUMPDEST DUP2 PUSH1 0x5 SLOAD DUP2 LT PUSH2 0x22C5 JUMPI PUSH1 0x0 DUP1 REVERT JUMPDEST PUSH1 0x0 PUSH1 0x6 PUSH1 0x0 DUP6 DUP2 MSTORE PUSH1 0x20 ADD SWAP1 DUP2 MSTORE PUSH1 0x20 ADD PUSH1 0x0 KECCAK256 SWAP1 POP PUSH1 0x0 DUP1 PUSH1 0x0 SWAP1 SLOAD SWAP1 PUSH2 0x100 EXP SWAP1 DIV PUSH20 0xFFFFFFFFFFFFFFFFFFFFFFFFFFFFFFFFFFFFFFFF AND PUSH20 0xFFFFFFFFFFFFFFFFFFFFFFFFFFFFFFFFFFFFFFFF AND PUSH4 0x85FAE602 DUP8 PUSH1 0x40 MLOAD DUP3 PUSH4 0xFFFFFFFF AND PUSH1 0xE0 SHL DUP2 MSTORE PUSH1 0x4 ADD PUSH2 0x2338 SWAP2 SWAP1 PUSH2 0x290D JUMP JUMPDEST PUSH2 0x160 PUSH1 0x40 MLOAD DUP1 DUP4 SUB DUP2 DUP7 GAS STATICCALL ISZERO DUP1 ISZERO PUSH2 0x2356 JUMPI RETURNDATASIZE PUSH1 0x0 DUP1 RETURNDATACOPY RETURNDATASIZE PUSH1 0x0 REVERT JUMPDEST POP POP POP POP PUSH1 0x40 MLOAD RETURNDATASIZE PUSH1 0x1F NOT PUSH1 0x1F DUP3 ADD AND DUP3 ADD DUP1 PUSH1 0x40 MSTORE POP DUP2 ADD SWAP1 PUSH2 0x237A SWAP2 SWAP1 PUSH2 0x3F17 JUMP JUMPDEST SWAP1 POP PUSH1 0x0 PUSH1 0x5 DUP2 GT ISZERO PUSH2 0x2390 JUMPI PUSH2 0x238F PUSH2 0x2B20 JUMP JUMPDEST JUMPDEST PUSH1 0x0 DUP1 SLOAD SWAP1 PUSH2 0x100 EXP SWAP1 DIV PUSH20 0xFFFFFFFFFFFFFFFFFFFFFFFFFFFFFFFFFFFFFFFF AND PUSH20 0xFFFFFFFFFFFFFFFFFFFFFFFFFFFFFFFFFFFFFFFF AND PUSH4 0x5C622A0E DUP9 PUSH1 0x40 MLOAD DUP3 PUSH4 0xFFFFFFFF AND PUSH1 0xE0 SHL DUP2 MSTORE PUSH1 0x4 ADD PUSH2 0x23E9 SWAP2 SWAP1 PUSH2 0x290D JUMP JUMPDEST PUSH1 0x20 PUSH1 0x40 MLOAD DUP1 DUP4 SUB DUP2 DUP7 GAS STATICCALL ISZERO DUP1 ISZERO PUSH2 0x2406 JUMPI RETURNDATASIZE PUSH1 0x0 DUP1 RETURNDATACOPY RETURNDATASIZE PUSH1 0x0 REVERT JUMPDEST POP POP POP POP PUSH1 0x40 MLOAD RETURNDATASIZE PUSH1 0x1F NOT PUSH1 0x1F DUP3 ADD AND DUP3 ADD DUP1 PUSH1 0x40 MSTORE POP DUP2 ADD SWAP1 PUSH2 0x242A SWAP2 SWAP1 PUSH2 0x2FC8 JUMP JUMPDEST PUSH1 0x5 DUP2 GT ISZERO PUSH2 0x243C JUMPI PUSH2 0x243B PUSH2 0x2B20 JUMP JUMPDEST JUMPDEST SUB PUSH2 0x247C JUMPI PUSH1 0x40 MLOAD PUSH32 0x8C379A000000000000000000000000000000000000000000000000000000000 DUP2 MSTORE PUSH1 0x4 ADD PUSH2 0x2473 SWAP1 PUSH2 0x3F91 JUMP JUMPDEST PUSH1 0x40 MLOAD DUP1 SWAP2 SUB SWAP1 REVERT JUMPDEST DUP1 DUP3 PUSH1 0x4 ADD PUSH1 0x0 DUP9 DUP2 MSTORE PUSH1 0x20 ADD SWAP1 DUP2 MSTORE PUSH1 0x20 ADD PUSH1 0x0 KECCAK256 PUSH1 0x0 DUP3 ADD MLOAD DUP2 PUSH1 0x0 ADD SSTORE PUSH1 0x20 DUP3 ADD MLOAD DUP2 PUSH1 0x1 ADD SSTORE PUSH1 0x40 DUP3 ADD MLOAD DUP2 PUSH1 0x2 ADD PUSH1 0x0 DUP3 ADD MLOAD DUP2 PUSH1 0x0 ADD SSTORE PUSH1 0x20 DUP3 ADD MLOAD DUP2 PUSH1 0x1 ADD SSTORE PUSH1 0x40 DUP3 ADD MLOAD DUP2 PUSH1 0x2 ADD SSTORE PUSH1 0x60 DUP3 ADD MLOAD DUP2 PUSH1 0x3 ADD SSTORE POP POP PUSH1 0x60 DUP3 ADD MLOAD DUP2 PUSH1 0x6 ADD SSTORE PUSH1 0x80 DUP3 ADD MLOAD DUP2 PUSH1 0x7 ADD PUSH1 0x0 PUSH2 0x100 EXP DUP2 SLOAD DUP2 PUSH1 0xFF MUL NOT AND SWAP1 DUP4 PUSH1 0x1 DUP2 GT ISZERO PUSH2 0x250E JUMPI PUSH2 0x250D PUSH2 0x2B20 JUMP JUMPDEST JUMPDEST MUL OR SWAP1 SSTORE POP PUSH1 0xA0 DUP3 ADD MLOAD DUP2 PUSH1 0x7 ADD PUSH1 0x1 PUSH2 0x100 EXP DUP2 SLOAD DUP2 PUSH1 0xFF MUL NOT AND SWAP1 DUP4 PUSH1 0x5 DUP2 GT ISZERO PUSH2 0x253E JUMPI PUSH2 0x253D PUSH2 0x2B20 JUMP JUMPDEST JUMPDEST MUL OR SWAP1 SSTORE POP PUSH1 0xC0 DUP3 ADD MLOAD DUP2 PUSH1 0x8 ADD SSTORE PUSH1 0xE0 DUP3 ADD MLOAD DUP2 PUSH1 0x9 ADD SSTORE SWAP1 POP POP DUP2 PUSH1 0x3 ADD PUSH1 0x0 DUP2 SLOAD DUP1 SWAP3 SWAP2 SWAP1 PUSH2 0x256F SWAP1 PUSH2 0x352A JUMP JUMPDEST SWAP2 SWAP1 POP SSTORE POP PUSH2 0x257D DUP6 PUSH2 0x1F44 JUMP JUMPDEST POP POP POP POP POP POP JUMP JUMPDEST PUSH1 0x1 PUSH1 0x0 SWAP1 SLOAD SWAP1 PUSH2 0x100 EXP SWAP1 DIV PUSH20 0xFFFFFFFFFFFFFFFFFFFFFFFFFFFFFFFFFFFFFFFF AND PUSH20 0xFFFFFFFFFFFFFFFFFFFFFFFFFFFFFFFFFFFFFFFF AND PUSH4 0x5BC0350B DUP3 DUP5 PUSH1 0x40 MLOAD DUP4 PUSH4 0xFFFFFFFF AND PUSH1 0xE0 SHL DUP2 MSTORE PUSH1 0x4 ADD PUSH2 0x25E2 SWAP3 SWAP2 SWAP1 PUSH2 0x3FB1 JUMP JUMPDEST PUSH1 0x20 PUSH1 0x40 MLOAD DUP1 DUP4 SUB DUP2 PUSH1 0x0 DUP8 GAS CALL ISZERO DUP1 ISZERO PUSH2 0x2601 JUMPI RETURNDATASIZE PUSH1 0x0 DUP1 RETURNDATACOPY RETURNDATASIZE PUSH1 0x0 REVERT JUMPDEST POP POP POP POP PUSH1 0x40 MLOAD RETURNDATASIZE PUSH1 0x1F NOT PUSH1 0x1F DUP3 ADD AND DUP3 ADD DUP1 PUSH1 0x40 MSTORE POP DUP2 ADD SWAP1 PUSH2 0x2625 SWAP2 SWAP1 PUSH2 0x4006 JUMP JUMPDEST ISZERO PUSH2 0x2657 JUMPI PUSH32 0xFD265F281A37BBBF104E4DE1008ABC2B56EC226BC100C48A5124C5AE01E4225D PUSH1 0x40 MLOAD PUSH1 0x40 MLOAD DUP1 SWAP2 SUB SWAP1 LOG1 JUMPDEST POP POP JUMP JUMPDEST POP DUP1 SLOAD PUSH2 0x2667 SWAP1 PUSH2 0x2E87 JUMP JUMPDEST PUSH1 0x0 DUP3 SSTORE DUP1 PUSH1 0x1F LT PUSH2 0x2679 JUMPI POP PUSH2 0x2698 JUMP JUMPDEST PUSH1 0x1F ADD PUSH1 0x20 SWAP1 DIV SWAP1 PUSH1 0x0 MSTORE PUSH1 0x20 PUSH1 0x0 KECCAK256 SWAP1 DUP2 ADD SWAP1 PUSH2 0x2697 SWAP2 SWAP1 PUSH2 0x269B JUMP JUMPDEST JUMPDEST POP JUMP JUMPDEST JUMPDEST DUP1 DUP3 GT ISZERO PUSH2 0x26B4 JUMPI PUSH1 0x0 DUP2 PUSH1 0x0 SWAP1 SSTORE POP PUSH1 0x1 ADD PUSH2 0x269C JUMP JUMPDEST POP SWAP1 JUMP JUMPDEST PUSH1 0x0 PUSH1 0x40 MLOAD SWAP1 POP SWAP1 JUMP JUMPDEST PUSH1 0x0 DUP1 REVERT JUMPDEST PUSH1 0x0 DUP1 REVERT JUMPDEST PUSH1 0x0 DUP2 SWAP1 POP SWAP2 SWAP1 POP JUMP JUMPDEST PUSH2 0x26DF DUP2 PUSH2 0x26CC JUMP JUMPDEST DUP2 EQ PUSH2 0x26EA JUMPI PUSH1 0x0 DUP1 REVERT JUMPDEST POP JUMP JUMPDEST PUSH1 0x0 DUP2 CALLDATALOAD SWAP1 POP PUSH2 0x26FC DUP2 PUSH2 0x26D6 JUMP JUMPDEST SWAP3 SWAP2 POP POP JUMP JUMPDEST PUSH1 0x0 PUSH1 0x20 DUP3 DUP5 SUB SLT ISZERO PUSH2 0x2718 JUMPI PUSH2 0x2717 PUSH2 0x26C2 JUMP JUMPDEST JUMPDEST PUSH1 0x0 PUSH2 0x2726 DUP5 DUP3 DUP6 ADD PUSH2 0x26ED JUMP JUMPDEST SWAP2 POP POP SWAP3 SWAP2 POP POP JUMP JUMPDEST PUSH2 0x2738 DUP2 PUSH2 0x26CC JUMP JUMPDEST DUP3 MSTORE POP POP JUMP JUMPDEST PUSH1 0x0 DUP2 MLOAD SWAP1 POP SWAP2 SWAP1 POP JUMP JUMPDEST PUSH1 0x0 DUP3 DUP3 MSTORE PUSH1 0x20 DUP3 ADD SWAP1 POP SWAP3 SWAP2 POP POP JUMP JUMPDEST PUSH1 0x0 JUMPDEST DUP4 DUP2 LT ISZERO PUSH2 0x2778 JUMPI DUP1 DUP3 ADD MLOAD DUP2 DUP5 ADD MSTORE PUSH1 0x20 DUP2 ADD SWAP1 POP PUSH2 0x275D JUMP JUMPDEST PUSH1 0x0 DUP5 DUP5 ADD MSTORE POP POP POP POP JUMP JUMPDEST PUSH1 0x0 PUSH1 0x1F NOT PUSH1 0x1F DUP4 ADD AND SWAP1 POP SWAP2 SWAP1 POP JUMP JUMPDEST PUSH1 0x0 PUSH2 0x27A0 DUP3 PUSH2 0x273E JUMP JUMPDEST PUSH2 0x27AA DUP2 DUP6 PUSH2 0x2749 JUMP JUMPDEST SWAP4 POP PUSH2 0x27BA DUP2 DUP6 PUSH1 0x20 DUP7 ADD PUSH2 0x275A JUMP JUMPDEST PUSH2 0x27C3 DUP2 PUSH2 0x2784 JUMP JUMPDEST DUP5 ADD SWAP2 POP POP SWAP3 SWAP2 POP POP JUMP JUMPDEST PUSH1 0x0 PUSH20 0xFFFFFFFFFFFFFFFFFFFFFFFFFFFFFFFFFFFFFFFF DUP3 AND SWAP1 POP SWAP2 SWAP1 POP JUMP JUMPDEST PUSH1 0x0 PUSH2 0x27F9 DUP3 PUSH2 0x27CE JUMP JUMPDEST SWAP1 POP SWAP2 SWAP1 POP JUMP JUMPDEST PUSH2 0x2809 DUP2 PUSH2 0x27EE JUMP JUMPDEST DUP3 MSTORE POP POP JUMP JUMPDEST PUSH1 0x0 PUSH1 0x80 DUP3 ADD SWAP1 POP PUSH2 0x2824 PUSH1 0x0 DUP4 ADD DUP8 PUSH2 0x272F JUMP JUMPDEST DUP2 DUP2 SUB PUSH1 0x20 DUP4 ADD MSTORE PUSH2 0x2836 DUP2 DUP7 PUSH2 0x2795 JUMP JUMPDEST SWAP1 POP PUSH2 0x2845 PUSH1 0x40 DUP4 ADD DUP6 PUSH2 0x2800 JUMP JUMPDEST PUSH2 0x2852 PUSH1 0x60 DUP4 ADD DUP5 PUSH2 0x272F JUMP JUMPDEST SWAP6 SWAP5 POP POP POP POP POP JUMP JUMPDEST PUSH1 0x2 DUP2 LT PUSH2 0x2868 JUMPI PUSH1 0x0 DUP1 REVERT JUMPDEST POP JUMP JUMPDEST PUSH1 0x0 DUP2 CALLDATALOAD SWAP1 POP PUSH2 0x287A DUP2 PUSH2 0x285B JUMP JUMPDEST SWAP3 SWAP2 POP POP JUMP JUMPDEST PUSH1 0x0 DUP1 PUSH1 0x0 DUP1 PUSH1 0x0 DUP1 PUSH1 0xC0 DUP8 DUP10 SUB SLT ISZERO PUSH2 0x289D JUMPI PUSH2 0x289C PUSH2 0x26C2 JUMP JUMPDEST JUMPDEST PUSH1 0x0 PUSH2 0x28AB DUP10 DUP3 DUP11 ADD PUSH2 0x26ED JUMP JUMPDEST SWAP7 POP POP PUSH1 0x20 PUSH2 0x28BC DUP10 DUP3 DUP11 ADD PUSH2 0x26ED JUMP JUMPDEST SWAP6 POP POP PUSH1 0x40 PUSH2 0x28CD DUP10 DUP3 DUP11 ADD PUSH2 0x26ED JUMP JUMPDEST SWAP5 POP POP PUSH1 0x60 PUSH2 0x28DE DUP10 DUP3 DUP11 ADD PUSH2 0x286B JUMP JUMPDEST SWAP4 POP POP PUSH1 0x80 PUSH2 0x28EF DUP10 DUP3 DUP11 ADD PUSH2 0x26ED JUMP JUMPDEST SWAP3 POP POP PUSH1 0xA0 PUSH2 0x2900 DUP10 DUP3 DUP11 ADD PUSH2 0x26ED JUMP JUMPDEST SWAP2 POP POP SWAP3 SWAP6 POP SWAP3 SWAP6 POP SWAP3 SWAP6 JUMP JUMPDEST PUSH1 0x0 PUSH1 0x20 DUP3 ADD SWAP1 POP PUSH2 0x2922 PUSH1 0x0 DUP4 ADD DUP5 PUSH2 0x272F JUMP JUMPDEST SWAP3 SWAP2 POP POP JUMP JUMPDEST PUSH1 0x0 DUP1 REVERT JUMPDEST PUSH1 0x0 DUP1 REVERT JUMPDEST PUSH32 0x4E487B7100000000000000000000000000000000000000000000000000000000 PUSH1 0x0 MSTORE PUSH1 0x41 PUSH1 0x4 MSTORE PUSH1 0x24 PUSH1 0x0 REVERT JUMPDEST PUSH2 0x296A DUP3 PUSH2 0x2784 JUMP JUMPDEST DUP2 ADD DUP2 DUP2 LT PUSH8 0xFFFFFFFFFFFFFFFF DUP3 GT OR ISZERO PUSH2 0x2989 JUMPI PUSH2 0x2988 PUSH2 0x2932 JUMP JUMPDEST JUMPDEST DUP1 PUSH1 0x40 MSTORE POP POP POP JUMP JUMPDEST PUSH1 0x0 PUSH2 0x299C PUSH2 0x26B8 JUMP JUMPDEST SWAP1 POP PUSH2 0x29A8 DUP3 DUP3 PUSH2 0x2961 JUMP JUMPDEST SWAP2 SWAP1 POP JUMP JUMPDEST PUSH1 0x0 PUSH8 0xFFFFFFFFFFFFFFFF DUP3 GT ISZERO PUSH2 0x29C8 JUMPI PUSH2 0x29C7 PUSH2 0x2932 JUMP JUMPDEST JUMPDEST PUSH2 0x29D1 DUP3 PUSH2 0x2784 JUMP JUMPDEST SWAP1 POP PUSH1 0x20 DUP2 ADD SWAP1 POP SWAP2 SWAP1 POP JUMP JUMPDEST DUP3 DUP2 DUP4 CALLDATACOPY PUSH1 0x0 DUP4 DUP4 ADD MSTORE POP POP POP JUMP JUMPDEST PUSH1 0x0 PUSH2 0x2A00 PUSH2 0x29FB DUP5 PUSH2 0x29AD JUMP JUMPDEST PUSH2 0x2992 JUMP JUMPDEST SWAP1 POP DUP3 DUP2 MSTORE PUSH1 0x20 DUP2 ADD DUP5 DUP5 DUP5 ADD GT ISZERO PUSH2 0x2A1C JUMPI PUSH2 0x2A1B PUSH2 0x292D JUMP JUMPDEST JUMPDEST PUSH2 0x2A27 DUP5 DUP3 DUP6 PUSH2 0x29DE JUMP JUMPDEST POP SWAP4 SWAP3 POP POP POP JUMP JUMPDEST PUSH1 0x0 DUP3 PUSH1 0x1F DUP4 ADD SLT PUSH2 0x2A44 JUMPI PUSH2 0x2A43 PUSH2 0x2928 JUMP JUMPDEST JUMPDEST DUP2 CALLDATALOAD PUSH2 0x2A54 DUP5 DUP3 PUSH1 0x20 DUP7 ADD PUSH2 0x29ED JUMP JUMPDEST SWAP2 POP POP SWAP3 SWAP2 POP POP JUMP JUMPDEST PUSH1 0x0 DUP1 PUSH1 0x0 DUP1 PUSH1 0x80 DUP6 DUP8 SUB SLT ISZERO PUSH2 0x2A77 JUMPI PUSH2 0x2A76 PUSH2 0x26C2 JUMP JUMPDEST JUMPDEST PUSH1 0x0 PUSH2 0x2A85 DUP8 DUP3 DUP9 ADD PUSH2 0x26ED JUMP JUMPDEST SWAP5 POP POP PUSH1 0x20 PUSH2 0x2A96 DUP8 DUP3 DUP9 ADD PUSH2 0x26ED JUMP JUMPDEST SWAP4 POP POP PUSH1 0x40 PUSH2 0x2AA7 DUP8 DUP3 DUP9 ADD PUSH2 0x26ED JUMP JUMPDEST SWAP3 POP POP PUSH1 0x60 DUP6 ADD CALLDATALOAD PUSH8 0xFFFFFFFFFFFFFFFF DUP2 GT ISZERO PUSH2 0x2AC8 JUMPI PUSH2 0x2AC7 PUSH2 0x26C7 JUMP JUMPDEST JUMPDEST PUSH2 0x2AD4 DUP8 DUP3 DUP9 ADD PUSH2 0x2A2F JUMP JUMPDEST SWAP2 POP POP SWAP3 SWAP6 SWAP2 SWAP5 POP SWAP3 POP JUMP JUMPDEST PUSH1 0x0 DUP1 PUSH1 0x40 DUP4 DUP6 SUB SLT ISZERO PUSH2 0x2AF7 JUMPI PUSH2 0x2AF6 PUSH2 0x26C2 JUMP JUMPDEST JUMPDEST PUSH1 0x0 PUSH2 0x2B05 DUP6 DUP3 DUP7 ADD PUSH2 0x26ED JUMP JUMPDEST SWAP3 POP POP PUSH1 0x20 PUSH2 0x2B16 DUP6 DUP3 DUP7 ADD PUSH2 0x26ED JUMP JUMPDEST SWAP2 POP POP SWAP3 POP SWAP3 SWAP1 POP JUMP JUMPDEST PUSH32 0x4E487B7100000000000000000000000000000000000000000000000000000000 PUSH1 0x0 MSTORE PUSH1 0x21 PUSH1 0x4 MSTORE PUSH1 0x24 PUSH1 0x0 REVERT JUMPDEST PUSH1 0x3 DUP2 LT PUSH2 0x2B60 JUMPI PUSH2 0x2B5F PUSH2 0x2B20 JUMP JUMPDEST JUMPDEST POP JUMP JUMPDEST PUSH1 0x0 DUP2 SWAP1 POP PUSH2 0x2B71 DUP3 PUSH2 0x2B4F JUMP JUMPDEST SWAP2 SWAP1 POP JUMP JUMPDEST PUSH1 0x0 PUSH2 0x2B81 DUP3 PUSH2 0x2B63 JUMP JUMPDEST SWAP1 POP SWAP2 SWAP1 POP JUMP JUMPDEST PUSH2 0x2B91 DUP2 PUSH2 0x2B76 JUMP JUMPDEST DUP3 MSTORE POP POP JUMP JUMPDEST PUSH1 0x0 PUSH1 0x20 DUP3 ADD SWAP1 POP PUSH2 0x2BAC PUSH1 0x0 DUP4 ADD DUP5 PUSH2 0x2B88 JUMP JUMPDEST SWAP3 SWAP2 POP POP JUMP JUMPDEST PUSH1 0x0 PUSH1 0x20 DUP3 ADD SWAP1 POP DUP2 DUP2 SUB PUSH1 0x0 DUP4 ADD MSTORE PUSH2 0x2BCC DUP2 DUP5 PUSH2 0x2795 JUMP JUMPDEST SWAP1 POP SWAP3 SWAP2 POP POP JUMP JUMPDEST PUSH1 0x0 PUSH8 0xFFFFFFFFFFFFFFFF DUP3 GT ISZERO PUSH2 0x2BEF JUMPI PUSH2 0x2BEE PUSH2 0x2932 JUMP JUMPDEST JUMPDEST PUSH2 0x2BF8 DUP3 PUSH2 0x2784 JUMP JUMPDEST SWAP1 POP PUSH1 0x20 DUP2 ADD SWAP1 POP SWAP2 SWAP1 POP JUMP JUMPDEST PUSH1 0x0 PUSH2 0x2C18 PUSH2 0x2C13 DUP5 PUSH2 0x2BD4 JUMP JUMPDEST PUSH2 0x2992 JUMP JUMPDEST SWAP1 POP DUP3 DUP2 MSTORE PUSH1 0x20 DUP2 ADD DUP5 DUP5 DUP5 ADD GT ISZERO PUSH2 0x2C34 JUMPI PUSH2 0x2C33 PUSH2 0x292D JUMP JUMPDEST JUMPDEST PUSH2 0x2C3F DUP5 DUP3 DUP6 PUSH2 0x29DE JUMP JUMPDEST POP SWAP4 SWAP3 POP POP POP JUMP JUMPDEST PUSH1 0x0 DUP3 PUSH1 0x1F DUP4 ADD SLT PUSH2 0x2C5C JUMPI PUSH2 0x2C5B PUSH2 0x2928 JUMP JUMPDEST JUMPDEST DUP2 CALLDATALOAD PUSH2 0x2C6C DUP5 DUP3 PUSH1 0x20 DUP7 ADD PUSH2 0x2C05 JUMP JUMPDEST SWAP2 POP POP SWAP3 SWAP2 POP POP JUMP JUMPDEST PUSH1 0x0 PUSH1 0x20 DUP3 DUP5 SUB SLT ISZERO PUSH2 0x2C8B JUMPI PUSH2 0x2C8A PUSH2 0x26C2 JUMP JUMPDEST JUMPDEST PUSH1 0x0 DUP3 ADD CALLDATALOAD PUSH8 0xFFFFFFFFFFFFFFFF DUP2 GT ISZERO PUSH2 0x2CA9 JUMPI PUSH2 0x2CA8 PUSH2 0x26C7 JUMP JUMPDEST JUMPDEST PUSH2 0x2CB5 DUP5 DUP3 DUP6 ADD PUSH2 0x2C47 JUMP JUMPDEST SWAP2 POP POP SWAP3 SWAP2 POP POP JUMP JUMPDEST PUSH1 0x0 PUSH1 0x20 DUP3 ADD SWAP1 POP PUSH2 0x2CD3 PUSH1 0x0 DUP4 ADD DUP5 PUSH2 0x2800 JUMP JUMPDEST SWAP3 SWAP2 POP POP JUMP JUMPDEST PUSH1 0x0 DUP1 PUSH1 0x0 DUP1 PUSH1 0x80 DUP6 DUP8 SUB SLT ISZERO PUSH2 0x2CF3 JUMPI PUSH2 0x2CF2 PUSH2 0x26C2 JUMP JUMPDEST JUMPDEST PUSH1 0x0 PUSH2 0x2D01 DUP8 DUP3 DUP9 ADD PUSH2 0x26ED JUMP JUMPDEST SWAP5 POP POP PUSH1 0x20 PUSH2 0x2D12 DUP8 DUP3 DUP9 ADD PUSH2 0x26ED JUMP JUMPDEST SWAP4 POP POP PUSH1 0x40 PUSH2 0x2D23 DUP8 DUP3 DUP9 ADD PUSH2 0x26ED JUMP JUMPDEST SWAP3 POP POP PUSH1 0x60 PUSH2 0x2D34 DUP8 DUP3 DUP9 ADD PUSH2 0x26ED JUMP JUMPDEST SWAP2 POP POP SWAP3 SWAP6 SWAP2 SWAP5 POP SWAP3 POP JUMP JUMPDEST PUSH1 0x0 DUP1 REVERT JUMPDEST PUSH1 0x0 DUP1 REVERT JUMPDEST PUSH1 0x0 DUP1 DUP4 PUSH1 0x1F DUP5 ADD SLT PUSH2 0x2D60 JUMPI PUSH2 0x2D5F PUSH2 0x2928 JUMP JUMPDEST JUMPDEST DUP3 CALLDATALOAD SWAP1 POP PUSH8 0xFFFFFFFFFFFFFFFF DUP2 GT ISZERO PUSH2 0x2D7D JUMPI PUSH2 0x2D7C PUSH2 0x2D40 JUMP JUMPDEST JUMPDEST PUSH1 0x20 DUP4 ADD SWAP2 POP DUP4 PUSH1 0x1 DUP3 MUL DUP4 ADD GT ISZERO PUSH2 0x2D99 JUMPI PUSH2 0x2D98 PUSH2 0x2D45 JUMP JUMPDEST JUMPDEST SWAP3 POP SWAP3 SWAP1 POP JUMP JUMPDEST PUSH1 0x0 DUP1 PUSH1 0x0 DUP1 PUSH1 0x60 DUP6 DUP8 SUB SLT ISZERO PUSH2 0x2DBA JUMPI PUSH2 0x2DB9 PUSH2 0x26C2 JUMP JUMPDEST JUMPDEST PUSH1 0x0 PUSH2 0x2DC8 DUP8 DUP3 DUP9 ADD PUSH2 0x26ED JUMP JUMPDEST SWAP5 POP POP PUSH1 0x20 PUSH2 0x2DD9 DUP8 DUP3 DUP9 ADD PUSH2 0x26ED JUMP JUMPDEST SWAP4 POP POP PUSH1 0x40 DUP6 ADD CALLDATALOAD PUSH8 0xFFFFFFFFFFFFFFFF DUP2 GT ISZERO PUSH2 0x2DFA JUMPI PUSH2 0x2DF9 PUSH2 0x26C7 JUMP JUMPDEST JUMPDEST PUSH2 0x2E06 DUP8 DUP3 DUP9 ADD PUSH2 0x2D4A JUMP JUMPDEST SWAP3 POP SWAP3 POP POP SWAP3 SWAP6 SWAP2 SWAP5 POP SWAP3 POP JUMP JUMPDEST PUSH1 0x0 DUP2 ISZERO ISZERO SWAP1 POP SWAP2 SWAP1 POP JUMP JUMPDEST PUSH2 0x2E29 DUP2 PUSH2 0x2E14 JUMP JUMPDEST DUP3 MSTORE POP POP JUMP JUMPDEST PUSH1 0x0 PUSH1 0x40 DUP3 ADD SWAP1 POP PUSH2 0x2E44 PUSH1 0x0 DUP4 ADD DUP6 PUSH2 0x2E20 JUMP JUMPDEST PUSH2 0x2E51 PUSH1 0x20 DUP4 ADD DUP5 PUSH2 0x272F JUMP JUMPDEST SWAP4 SWAP3 POP POP POP JUMP JUMPDEST PUSH32 0x4E487B7100000000000000000000000000000000000000000000000000000000 PUSH1 0x0 MSTORE PUSH1 0x22 PUSH1 0x4 MSTORE PUSH1 0x24 PUSH1 0x0 REVERT JUMPDEST PUSH1 0x0 PUSH1 0x2 DUP3 DIV SWAP1 POP PUSH1 0x1 DUP3 AND DUP1 PUSH2 0x2E9F JUMPI PUSH1 0x7F DUP3 AND SWAP2 POP JUMPDEST PUSH1 0x20 DUP3 LT DUP2 SUB PUSH2 0x2EB2 JUMPI PUSH2 0x2EB1 PUSH2 0x2E58 JUMP JUMPDEST JUMPDEST POP SWAP2 SWAP1 POP JUMP JUMPDEST PUSH1 0x2 DUP2 LT PUSH2 0x2EC9 JUMPI PUSH2 0x2EC8 PUSH2 0x2B20 JUMP JUMPDEST JUMPDEST POP JUMP JUMPDEST PUSH1 0x0 DUP2 SWAP1 POP PUSH2 0x2EDA DUP3 PUSH2 0x2EB8 JUMP JUMPDEST SWAP2 SWAP1 POP JUMP JUMPDEST PUSH1 0x0 PUSH2 0x2EEA DUP3 PUSH2 0x2ECC JUMP JUMPDEST SWAP1 POP SWAP2 SWAP1 POP JUMP JUMPDEST PUSH2 0x2EFA DUP2 PUSH2 0x2EDF JUMP JUMPDEST DUP3 MSTORE POP POP JUMP JUMPDEST PUSH1 0x0 PUSH1 0xC0 DUP3 ADD SWAP1 POP PUSH2 0x2F15 PUSH1 0x0 DUP4 ADD DUP10 PUSH2 0x272F JUMP JUMPDEST PUSH2 0x2F22 PUSH1 0x20 DUP4 ADD DUP9 PUSH2 0x272F JUMP JUMPDEST PUSH2 0x2F2F PUSH1 0x40 DUP4 ADD DUP8 PUSH2 0x272F JUMP JUMPDEST PUSH2 0x2F3C PUSH1 0x60 DUP4 ADD DUP7 PUSH2 0x2EF1 JUMP JUMPDEST PUSH2 0x2F49 PUSH1 0x80 DUP4 ADD DUP6 PUSH2 0x272F JUMP JUMPDEST PUSH2 0x2F56 PUSH1 0xA0 DUP4 ADD DUP5 PUSH2 0x272F JUMP JUMPDEST SWAP8 SWAP7 POP POP POP POP POP POP POP JUMP JUMPDEST PUSH1 0x0 DUP2 MLOAD SWAP1 POP PUSH2 0x2F70 DUP2 PUSH2 0x26D6 JUMP JUMPDEST SWAP3 SWAP2 POP POP JUMP JUMPDEST PUSH1 0x0 PUSH1 0x20 DUP3 DUP5 SUB SLT ISZERO PUSH2 0x2F8C JUMPI PUSH2 0x2F8B PUSH2 0x26C2 JUMP JUMPDEST JUMPDEST PUSH1 0x0 PUSH2 0x2F9A DUP5 DUP3 DUP6 ADD PUSH2 0x2F61 JUMP JUMPDEST SWAP2 POP POP SWAP3 SWAP2 POP POP JUMP JUMPDEST PUSH1 0x6 DUP2 LT PUSH2 0x2FB0 JUMPI PUSH1 0x0 DUP1 REVERT JUMPDEST POP JUMP JUMPDEST PUSH1 0x0 DUP2 MLOAD SWAP1 POP PUSH2 0x2FC2 DUP2 PUSH2 0x2FA3 JUMP JUMPDEST SWAP3 SWAP2 POP POP JUMP JUMPDEST PUSH1 0x0 PUSH1 0x20 DUP3 DUP5 SUB SLT ISZERO PUSH2 0x2FDE JUMPI PUSH2 0x2FDD PUSH2 0x26C2 JUMP JUMPDEST JUMPDEST PUSH1 0x0 PUSH2 0x2FEC DUP5 DUP3 DUP6 ADD PUSH2 0x2FB3 JUMP JUMPDEST SWAP2 POP POP SWAP3 SWAP2 POP POP JUMP JUMPDEST PUSH32 0x4E487B7100000000000000000000000000000000000000000000000000000000 PUSH1 0x0 MSTORE PUSH1 0x11 PUSH1 0x4 MSTORE PUSH1 0x24 PUSH1 0x0 REVERT JUMPDEST PUSH1 0x0 PUSH2 0x302F DUP3 PUSH2 0x26CC JUMP JUMPDEST SWAP2 POP PUSH2 0x303A DUP4 PUSH2 0x26CC JUMP JUMPDEST SWAP3 POP DUP3 DUP3 ADD SWAP1 POP DUP1 DUP3 GT ISZERO PUSH2 0x3052 JUMPI PUSH2 0x3051 PUSH2 0x2FF5 JUMP JUMPDEST JUMPDEST SWAP3 SWAP2 POP POP JUMP JUMPDEST PUSH1 0x0 DUP2 MLOAD SWAP1 POP SWAP2 SWAP1 POP JUMP JUMPDEST PUSH1 0x0 DUP3 DUP3 MSTORE PUSH1 0x20 DUP3 ADD SWAP1 POP SWAP3 SWAP2 POP POP JUMP JUMPDEST PUSH1 0x0 PUSH2 0x307F DUP3 PUSH2 0x3058 JUMP JUMPDEST PUSH2 0x3089 DUP2 DUP6 PUSH2 0x3063 JUMP JUMPDEST SWAP4 POP PUSH2 0x3099 DUP2 DUP6 PUSH1 0x20 DUP7 ADD PUSH2 0x275A JUMP JUMPDEST PUSH2 0x30A2 DUP2 PUSH2 0x2784 JUMP JUMPDEST DUP5 ADD SWAP2 POP POP SWAP3 SWAP2 POP POP JUMP JUMPDEST PUSH1 0x0 PUSH1 0x20 DUP3 ADD SWAP1 POP DUP2 DUP2 SUB PUSH1 0x0 DUP4 ADD MSTORE PUSH2 0x30C7 DUP2 DUP5 PUSH2 0x3074 JUMP JUMPDEST SWAP1 POP SWAP3 SWAP2 POP POP JUMP JUMPDEST PUSH1 0x0 PUSH2 0x30E2 PUSH2 0x30DD DUP5 PUSH2 0x2BD4 JUMP JUMPDEST PUSH2 0x2992 JUMP JUMPDEST SWAP1 POP DUP3 DUP2 MSTORE PUSH1 0x20 DUP2 ADD DUP5 DUP5 DUP5 ADD GT ISZERO PUSH2 0x30FE JUMPI PUSH2 0x30FD PUSH2 0x292D JUMP JUMPDEST JUMPDEST PUSH2 0x3109 DUP5 DUP3 DUP6 PUSH2 0x275A JUMP JUMPDEST POP SWAP4 SWAP3 POP POP POP JUMP JUMPDEST PUSH1 0x0 DUP3 PUSH1 0x1F DUP4 ADD SLT PUSH2 0x3126 JUMPI PUSH2 0x3125 PUSH2 0x2928 JUMP JUMPDEST JUMPDEST DUP2 MLOAD PUSH2 0x3136 DUP5 DUP3 PUSH1 0x20 DUP7 ADD PUSH2 0x30CF JUMP JUMPDEST SWAP2 POP POP SWAP3 SWAP2 POP POP JUMP JUMPDEST PUSH1 0x0 PUSH1 0x20 DUP3 DUP5 SUB SLT ISZERO PUSH2 0x3155 JUMPI PUSH2 0x3154 PUSH2 0x26C2 JUMP JUMPDEST JUMPDEST PUSH1 0x0 DUP3 ADD MLOAD PUSH8 0xFFFFFFFFFFFFFFFF DUP2 GT ISZERO PUSH2 0x3173 JUMPI PUSH2 0x3172 PUSH2 0x26C7 JUMP JUMPDEST JUMPDEST PUSH2 0x317F DUP5 DUP3 DUP6 ADD PUSH2 0x3111 JUMP JUMPDEST SWAP2 POP POP SWAP3 SWAP2 POP POP JUMP JUMPDEST PUSH1 0x0 DUP2 SWAP1 POP SWAP3 SWAP2 POP POP JUMP JUMPDEST PUSH1 0x0 PUSH2 0x319E DUP3 PUSH2 0x273E JUMP JUMPDEST PUSH2 0x31A8 DUP2 DUP6 PUSH2 0x3188 JUMP JUMPDEST SWAP4 POP PUSH2 0x31B8 DUP2 DUP6 PUSH1 0x20 DUP7 ADD PUSH2 0x275A JUMP JUMPDEST DUP1 DUP5 ADD SWAP2 POP POP SWAP3 SWAP2 POP POP JUMP JUMPDEST PUSH1 0x0 PUSH2 0x31D0 DUP3 DUP5 PUSH2 0x3193 JUMP JUMPDEST SWAP2 POP DUP2 SWAP1 POP SWAP3 SWAP2 POP POP JUMP JUMPDEST PUSH1 0x0 PUSH2 0x31EE PUSH2 0x31E9 DUP5 PUSH2 0x29AD JUMP JUMPDEST PUSH2 0x2992 JUMP JUMPDEST SWAP1 POP DUP3 DUP2 MSTORE PUSH1 0x20 DUP2 ADD DUP5 DUP5 DUP5 ADD GT ISZERO PUSH2 0x320A JUMPI PUSH2 0x3209 PUSH2 0x292D JUMP JUMPDEST JUMPDEST PUSH2 0x3215 DUP5 DUP3 DUP6 PUSH2 0x275A JUMP JUMPDEST POP SWAP4 SWAP3 POP POP POP JUMP JUMPDEST PUSH1 0x0 DUP3 PUSH1 0x1F DUP4 ADD SLT PUSH2 0x3232 JUMPI PUSH2 0x3231 PUSH2 0x2928 JUMP JUMPDEST JUMPDEST DUP2 MLOAD PUSH2 0x3242 DUP5 DUP3 PUSH1 0x20 DUP7 ADD PUSH2 0x31DB JUMP JUMPDEST SWAP2 POP POP SWAP3 SWAP2 POP POP JUMP JUMPDEST PUSH1 0x0 PUSH1 0x20 DUP3 DUP5 SUB SLT ISZERO PUSH2 0x3261 JUMPI PUSH2 0x3260 PUSH2 0x26C2 JUMP JUMPDEST JUMPDEST PUSH1 0x0 DUP3 ADD MLOAD PUSH8 0xFFFFFFFFFFFFFFFF DUP2 GT ISZERO PUSH2 0x327F JUMPI PUSH2 0x327E PUSH2 0x26C7 JUMP JUMPDEST JUMPDEST PUSH2 0x328B DUP5 DUP3 DUP6 ADD PUSH2 0x321D JUMP JUMPDEST SWAP2 POP POP SWAP3 SWAP2 POP POP JUMP JUMPDEST PUSH32 0x4E6F74207468652073616D65207374616B65686F6C6465722100000000000000 PUSH1 0x0 DUP3 ADD MSTORE POP JUMP JUMPDEST PUSH1 0x0 PUSH2 0x32CA PUSH1 0x19 DUP4 PUSH2 0x2749 JUMP JUMPDEST SWAP2 POP PUSH2 0x32D5 DUP3 PUSH2 0x3294 JUMP JUMPDEST PUSH1 0x20 DUP3 ADD SWAP1 POP SWAP2 SWAP1 POP JUMP JUMPDEST PUSH1 0x0 PUSH1 0x20 DUP3 ADD SWAP1 POP DUP2 DUP2 SUB PUSH1 0x0 DUP4 ADD MSTORE PUSH2 0x32F9 DUP2 PUSH2 0x32BD JUMP JUMPDEST SWAP1 POP SWAP2 SWAP1 POP JUMP JUMPDEST PUSH1 0x3 DUP2 LT PUSH2 0x330D JUMPI PUSH1 0x0 DUP1 REVERT JUMPDEST POP JUMP JUMPDEST PUSH1 0x0 DUP2 MLOAD SWAP1 POP PUSH2 0x331F DUP2 PUSH2 0x3300 JUMP JUMPDEST SWAP3 SWAP2 POP POP JUMP JUMPDEST PUSH1 0x0 PUSH1 0x20 DUP3 DUP5 SUB SLT ISZERO PUSH2 0x333B JUMPI PUSH2 0x333A PUSH2 0x26C2 JUMP JUMPDEST JUMPDEST PUSH1 0x0 PUSH2 0x3349 DUP5 DUP3 DUP6 ADD PUSH2 0x3310 JUMP JUMPDEST SWAP2 POP POP SWAP3 SWAP2 POP POP JUMP JUMPDEST PUSH32 0x6E6F7420656E6F75676820746F6B656E20746F20706179000000000000000000 PUSH1 0x0 DUP3 ADD MSTORE POP JUMP JUMPDEST PUSH1 0x0 PUSH2 0x3388 PUSH1 0x17 DUP4 PUSH2 0x2749 JUMP JUMPDEST SWAP2 POP PUSH2 0x3393 DUP3 PUSH2 0x3352 JUMP JUMPDEST PUSH1 0x20 DUP3 ADD SWAP1 POP SWAP2 SWAP1 POP JUMP JUMPDEST PUSH1 0x0 PUSH1 0x20 DUP3 ADD SWAP1 POP DUP2 DUP2 SUB PUSH1 0x0 DUP4 ADD MSTORE PUSH2 0x33B7 DUP2 PUSH2 0x337B JUMP JUMPDEST SWAP1 POP SWAP2 SWAP1 POP JUMP JUMPDEST PUSH1 0x0 PUSH1 0x60 DUP3 ADD SWAP1 POP PUSH2 0x33D3 PUSH1 0x0 DUP4 ADD DUP7 PUSH2 0x2800 JUMP JUMPDEST PUSH2 0x33E0 PUSH1 0x20 DUP4 ADD DUP6 PUSH2 0x2800 JUMP JUMPDEST PUSH2 0x33ED PUSH1 0x40 DUP4 ADD DUP5 PUSH2 0x272F JUMP JUMPDEST SWAP5 SWAP4 POP POP POP POP JUMP JUMPDEST PUSH1 0x6 DUP2 LT PUSH2 0x3406 JUMPI PUSH2 0x3405 PUSH2 0x2B20 JUMP JUMPDEST JUMPDEST POP JUMP JUMPDEST PUSH1 0x0 DUP2 SWAP1 POP PUSH2 0x3417 DUP3 PUSH2 0x33F5 JUMP JUMPDEST SWAP2 SWAP1 POP JUMP JUMPDEST PUSH1 0x0 PUSH2 0x3427 DUP3 PUSH2 0x3409 JUMP JUMPDEST SWAP1 POP SWAP2 SWAP1 POP JUMP JUMPDEST PUSH2 0x3437 DUP2 PUSH2 0x341C JUMP JUMPDEST DUP3 MSTORE POP POP JUMP JUMPDEST PUSH1 0x0 PUSH1 0x40 DUP3 ADD SWAP1 POP PUSH2 0x3452 PUSH1 0x0 DUP4 ADD DUP6 PUSH2 0x342E JUMP JUMPDEST PUSH2 0x345F PUSH1 0x20 DUP4 ADD DUP5 PUSH2 0x272F JUMP JUMPDEST SWAP4 SWAP3 POP POP POP JUMP JUMPDEST PUSH1 0x0 PUSH1 0x40 DUP3 ADD SWAP1 POP PUSH2 0x347B PUSH1 0x0 DUP4 ADD DUP6 PUSH2 0x2800 JUMP JUMPDEST PUSH2 0x3488 PUSH1 0x20 DUP4 ADD DUP5 PUSH2 0x272F JUMP JUMPDEST SWAP4 SWAP3 POP POP POP JUMP JUMPDEST PUSH32 0x496E76616C696420726571756573742069642100000000000000000000000000 PUSH1 0x0 DUP3 ADD MSTORE POP JUMP JUMPDEST PUSH1 0x0 PUSH2 0x34C5 PUSH1 0x13 DUP4 PUSH2 0x2749 JUMP JUMPDEST SWAP2 POP PUSH2 0x34D0 DUP3 PUSH2 0x348F JUMP JUMPDEST PUSH1 0x20 DUP3 ADD SWAP1 POP SWAP2 SWAP1 POP JUMP JUMPDEST PUSH1 0x0 PUSH1 0x20 DUP3 ADD SWAP1 POP DUP2 DUP2 SUB PUSH1 0x0 DUP4 ADD MSTORE PUSH2 0x34F4 DUP2 PUSH2 0x34B8 JUMP JUMPDEST SWAP1 POP SWAP2 SWAP1 POP JUMP JUMPDEST PUSH32 0x4E487B7100000000000000000000000000000000000000000000000000000000 PUSH1 0x0 MSTORE PUSH1 0x32 PUSH1 0x4 MSTORE PUSH1 0x24 PUSH1 0x0 REVERT JUMPDEST PUSH1 0x0 PUSH2 0x3535 DUP3 PUSH2 0x26CC JUMP JUMPDEST SWAP2 POP PUSH32 0xFFFFFFFFFFFFFFFFFFFFFFFFFFFFFFFFFFFFFFFFFFFFFFFFFFFFFFFFFFFFFFFF DUP3 SUB PUSH2 0x3567 JUMPI PUSH2 0x3566 PUSH2 0x2FF5 JUMP JUMPDEST JUMPDEST PUSH1 0x1 DUP3 ADD SWAP1 POP SWAP2 SWAP1 POP JUMP JUMPDEST PUSH32 0x596F7520686176656E277420726571756573746564206F722074686520726571 PUSH1 0x0 DUP3 ADD MSTORE PUSH32 0x756573742068617320616C7265616479206265656E20617070726F7665642100 PUSH1 0x20 DUP3 ADD MSTORE POP JUMP JUMPDEST PUSH1 0x0 PUSH2 0x35CE PUSH1 0x3F DUP4 PUSH2 0x2749 JUMP JUMPDEST SWAP2 POP PUSH2 0x35D9 DUP3 PUSH2 0x3572 JUMP JUMPDEST PUSH1 0x40 DUP3 ADD SWAP1 POP SWAP2 SWAP1 POP JUMP JUMPDEST PUSH1 0x0 PUSH1 0x20 DUP3 ADD SWAP1 POP DUP2 DUP2 SUB PUSH1 0x0 DUP4 ADD MSTORE PUSH2 0x35FD DUP2 PUSH2 0x35C1 JUMP JUMPDEST SWAP1 POP SWAP2 SWAP1 POP JUMP JUMPDEST PUSH1 0x0 PUSH2 0x360F DUP3 PUSH2 0x26CC JUMP JUMPDEST SWAP2 POP PUSH2 0x361A DUP4 PUSH2 0x26CC JUMP JUMPDEST SWAP3 POP DUP3 DUP3 SUB SWAP1 POP DUP2 DUP2 GT ISZERO PUSH2 0x3632 JUMPI PUSH2 0x3631 PUSH2 0x2FF5 JUMP JUMPDEST JUMPDEST SWAP3 SWAP2 POP POP JUMP JUMPDEST PUSH1 0x0 DUP2 SLOAD SWAP1 POP PUSH2 0x3647 DUP2 PUSH2 0x2E87 JUMP JUMPDEST SWAP1 POP SWAP2 SWAP1 POP JUMP JUMPDEST PUSH1 0x0 DUP2 SWAP1 POP DUP2 PUSH1 0x0 MSTORE PUSH1 0x20 PUSH1 0x0 KECCAK256 SWAP1 POP SWAP2 SWAP1 POP JUMP JUMPDEST PUSH1 0x0 PUSH1 0x20 PUSH1 0x1F DUP4 ADD DIV SWAP1 POP SWAP2 SWAP1 POP JUMP JUMPDEST PUSH1 0x0 DUP3 DUP3 SHL SWAP1 POP SWAP3 SWAP2 POP POP JUMP JUMPDEST PUSH1 0x0 PUSH1 0x8 DUP4 MUL PUSH2 0x36B0 PUSH32 0xFFFFFFFFFFFFFFFFFFFFFFFFFFFFFFFFFFFFFFFFFFFFFFFFFFFFFFFFFFFFFFFF DUP3 PUSH2 0x3673 JUMP JUMPDEST PUSH2 0x36BA DUP7 DUP4 PUSH2 0x3673 JUMP JUMPDEST SWAP6 POP DUP1 NOT DUP5 AND SWAP4 POP DUP1 DUP7 AND DUP5 OR SWAP3 POP POP POP SWAP4 SWAP3 POP POP POP JUMP JUMPDEST PUSH1 0x0 DUP2 SWAP1 POP SWAP2 SWAP1 POP JUMP JUMPDEST PUSH1 0x0 PUSH2 0x36F7 PUSH2 0x36F2 PUSH2 0x36ED DUP5 PUSH2 0x26CC JUMP JUMPDEST PUSH2 0x36D2 JUMP JUMPDEST PUSH2 0x26CC JUMP JUMPDEST SWAP1 POP SWAP2 SWAP1 POP JUMP JUMPDEST PUSH1 0x0 DUP2 SWAP1 POP SWAP2 SWAP1 POP JUMP JUMPDEST PUSH2 0x3711 DUP4 PUSH2 0x36DC JUMP JUMPDEST PUSH2 0x3725 PUSH2 0x371D DUP3 PUSH2 0x36FE JUMP JUMPDEST DUP5 DUP5 SLOAD PUSH2 0x3680 JUMP JUMPDEST DUP3 SSTORE POP POP POP POP JUMP JUMPDEST PUSH1 0x0 SWAP1 JUMP JUMPDEST PUSH2 0x373A PUSH2 0x372D JUMP JUMPDEST PUSH2 0x3745 DUP2 DUP5 DUP5 PUSH2 0x3708 JUMP JUMPDEST POP POP POP JUMP JUMPDEST JUMPDEST DUP2 DUP2 LT ISZERO PUSH2 0x3769 JUMPI PUSH2 0x375E PUSH1 0x0 DUP3 PUSH2 0x3732 JUMP JUMPDEST PUSH1 0x1 DUP2 ADD SWAP1 POP PUSH2 0x374B JUMP JUMPDEST POP POP JUMP JUMPDEST PUSH1 0x1F DUP3 GT ISZERO PUSH2 0x37AE JUMPI PUSH2 0x377F DUP2 PUSH2 0x364E JUMP JUMPDEST PUSH2 0x3788 DUP5 PUSH2 0x3663 JUMP JUMPDEST DUP2 ADD PUSH1 0x20 DUP6 LT ISZERO PUSH2 0x3797 JUMPI DUP2 SWAP1 POP JUMPDEST PUSH2 0x37AB PUSH2 0x37A3 DUP6 PUSH2 0x3663 JUMP JUMPDEST DUP4 ADD DUP3 PUSH2 0x374A JUMP JUMPDEST POP POP JUMPDEST POP POP POP JUMP JUMPDEST PUSH1 0x0 DUP3 DUP3 SHR SWAP1 POP SWAP3 SWAP2 POP POP JUMP JUMPDEST PUSH1 0x0 PUSH2 0x37D1 PUSH1 0x0 NOT DUP5 PUSH1 0x8 MUL PUSH2 0x37B3 JUMP JUMPDEST NOT DUP1 DUP4 AND SWAP2 POP POP SWAP3 SWAP2 POP POP JUMP JUMPDEST PUSH1 0x0 PUSH2 0x37EA DUP4 DUP4 PUSH2 0x37C0 JUMP JUMPDEST SWAP2 POP DUP3 PUSH1 0x2 MUL DUP3 OR SWAP1 POP SWAP3 SWAP2 POP POP JUMP JUMPDEST DUP2 DUP2 SUB PUSH2 0x3808 JUMPI POP POP PUSH2 0x38E0 JUMP JUMPDEST PUSH2 0x3811 DUP3 PUSH2 0x3638 JUMP JUMPDEST PUSH8 0xFFFFFFFFFFFFFFFF DUP2 GT ISZERO PUSH2 0x382A JUMPI PUSH2 0x3829 PUSH2 0x2932 JUMP JUMPDEST JUMPDEST PUSH2 0x3834 DUP3 SLOAD PUSH2 0x2E87 JUMP JUMPDEST PUSH2 0x383F DUP3 DUP3 DUP6 PUSH2 0x376D JUMP JUMPDEST PUSH1 0x0 PUSH1 0x1F DUP4 GT PUSH1 0x1 DUP2 EQ PUSH2 0x386E JUMPI PUSH1 0x0 DUP5 ISZERO PUSH2 0x385C JUMPI DUP3 DUP8 ADD SLOAD SWAP1 POP JUMPDEST PUSH2 0x3866 DUP6 DUP3 PUSH2 0x37DE JUMP JUMPDEST DUP7 SSTORE POP PUSH2 0x38D9 JUMP JUMPDEST PUSH1 0x1F NOT DUP5 AND PUSH2 0x387C DUP8 PUSH2 0x364E JUMP JUMPDEST SWAP7 POP PUSH2 0x3887 DUP7 PUSH2 0x364E JUMP JUMPDEST PUSH1 0x0 JUMPDEST DUP3 DUP2 LT ISZERO PUSH2 0x38AF JUMPI DUP5 DUP10 ADD SLOAD DUP3 SSTORE PUSH1 0x1 DUP3 ADD SWAP2 POP PUSH1 0x1 DUP6 ADD SWAP5 POP PUSH1 0x20 DUP2 ADD SWAP1 POP PUSH2 0x388A JUMP JUMPDEST DUP7 DUP4 LT ISZERO PUSH2 0x38CC JUMPI DUP5 DUP10 ADD SLOAD PUSH2 0x38C8 PUSH1 0x1F DUP10 AND DUP3 PUSH2 0x37C0 JUMP JUMPDEST DUP4 SSTORE POP JUMPDEST PUSH1 0x1 PUSH1 0x2 DUP9 MUL ADD DUP9 SSTORE POP POP POP JUMPDEST POP POP POP POP POP POP JUMPDEST JUMP JUMPDEST PUSH32 0x4E487B7100000000000000000000000000000000000000000000000000000000 PUSH1 0x0 MSTORE PUSH1 0x31 PUSH1 0x4 MSTORE PUSH1 0x24 PUSH1 0x0 REVERT JUMPDEST PUSH32 0x6174206C6561737420302E303120455448206973206E656564656420746F2063 PUSH1 0x0 DUP3 ADD MSTORE PUSH32 0x7265617465206120636F6D70616E790000000000000000000000000000000000 PUSH1 0x20 DUP3 ADD MSTORE POP JUMP JUMPDEST PUSH1 0x0 PUSH2 0x396D PUSH1 0x2F DUP4 PUSH2 0x2749 JUMP JUMPDEST SWAP2 POP PUSH2 0x3978 DUP3 PUSH2 0x3911 JUMP JUMPDEST PUSH1 0x40 DUP3 ADD SWAP1 POP SWAP2 SWAP1 POP JUMP JUMPDEST PUSH1 0x0 PUSH1 0x20 DUP3 ADD SWAP1 POP DUP2 DUP2 SUB PUSH1 0x0 DUP4 ADD MSTORE PUSH2 0x399C DUP2 PUSH2 0x3960 JUMP JUMPDEST SWAP1 POP SWAP2 SWAP1 POP JUMP JUMPDEST PUSH2 0x39AC DUP3 PUSH2 0x273E JUMP JUMPDEST PUSH8 0xFFFFFFFFFFFFFFFF DUP2 GT ISZERO PUSH2 0x39C5 JUMPI PUSH2 0x39C4 PUSH2 0x2932 JUMP JUMPDEST JUMPDEST PUSH2 0x39CF DUP3 SLOAD PUSH2 0x2E87 JUMP JUMPDEST PUSH2 0x39DA DUP3 DUP3 DUP6 PUSH2 0x376D JUMP JUMPDEST PUSH1 0x0 PUSH1 0x20 SWAP1 POP PUSH1 0x1F DUP4 GT PUSH1 0x1 DUP2 EQ PUSH2 0x3A0D JUMPI PUSH1 0x0 DUP5 ISZERO PUSH2 0x39FB JUMPI DUP3 DUP8 ADD MLOAD SWAP1 POP JUMPDEST PUSH2 0x3A05 DUP6 DUP3 PUSH2 0x37DE JUMP JUMPDEST DUP7 SSTORE POP PUSH2 0x3A6D JUMP JUMPDEST PUSH1 0x1F NOT DUP5 AND PUSH2 0x3A1B DUP7 PUSH2 0x364E JUMP JUMPDEST PUSH1 0x0 JUMPDEST DUP3 DUP2 LT ISZERO PUSH2 0x3A43 JUMPI DUP5 DUP10 ADD MLOAD DUP3 SSTORE PUSH1 0x1 DUP3 ADD SWAP2 POP PUSH1 0x20 DUP6 ADD SWAP5 POP PUSH1 0x20 DUP2 ADD SWAP1 POP PUSH2 0x3A1E JUMP JUMPDEST DUP7 DUP4 LT ISZERO PUSH2 0x3A60 JUMPI DUP5 DUP10 ADD MLOAD PUSH2 0x3A5C PUSH1 0x1F DUP10 AND DUP3 PUSH2 0x37C0 JUMP JUMPDEST DUP4 SSTORE POP JUMPDEST PUSH1 0x1 PUSH1 0x2 DUP9 MUL ADD DUP9 SSTORE POP POP POP JUMPDEST POP POP POP POP POP POP JUMP JUMPDEST PUSH1 0x0 DUP2 MLOAD SWAP1 POP SWAP2 SWAP1 POP JUMP JUMPDEST PUSH1 0x0 DUP3 DUP3 MSTORE PUSH1 0x20 DUP3 ADD SWAP1 POP SWAP3 SWAP2 POP POP JUMP JUMPDEST PUSH1 0x0 DUP2 SWAP1 POP PUSH1 0x20 DUP3 ADD SWAP1 POP SWAP2 SWAP1 POP JUMP JUMPDEST PUSH2 0x3AAA DUP2 PUSH2 0x26CC JUMP JUMPDEST DUP3 MSTORE POP POP JUMP JUMPDEST PUSH1 0x0 PUSH2 0x3ABC DUP4 DUP4 PUSH2 0x3AA1 JUMP JUMPDEST PUSH1 0x20 DUP4 ADD SWAP1 POP SWAP3 SWAP2 POP POP JUMP JUMPDEST PUSH1 0x0 PUSH1 0x20 DUP3 ADD SWAP1 POP SWAP2 SWAP1 POP JUMP JUMPDEST PUSH1 0x0 PUSH2 0x3AE0 DUP3 PUSH2 0x3A75 JUMP JUMPDEST PUSH2 0x3AEA DUP2 DUP6 PUSH2 0x3A80 JUMP JUMPDEST SWAP4 POP PUSH2 0x3AF5 DUP4 PUSH2 0x3A91 JUMP JUMPDEST DUP1 PUSH1 0x0 JUMPDEST DUP4 DUP2 LT ISZERO PUSH2 0x3B26 JUMPI DUP2 MLOAD PUSH2 0x3B0D DUP9 DUP3 PUSH2 0x3AB0 JUMP JUMPDEST SWAP8 POP PUSH2 0x3B18 DUP4 PUSH2 0x3AC8 JUMP JUMPDEST SWAP3 POP POP PUSH1 0x1 DUP2 ADD SWAP1 POP PUSH2 0x3AF9 JUMP JUMPDEST POP DUP6 SWAP4 POP POP POP POP SWAP3 SWAP2 POP POP JUMP JUMPDEST PUSH1 0x0 DUP2 MLOAD SWAP1 POP SWAP2 SWAP1 POP JUMP JUMPDEST PUSH1 0x0 DUP3 DUP3 MSTORE PUSH1 0x20 DUP3 ADD SWAP1 POP SWAP3 SWAP2 POP POP JUMP JUMPDEST PUSH1 0x0 DUP2 SWAP1 POP PUSH1 0x20 DUP3 ADD SWAP1 POP SWAP2 SWAP1 POP JUMP JUMPDEST PUSH1 0x0 DUP3 DUP3 MSTORE PUSH1 0x20 DUP3 ADD SWAP1 POP SWAP3 SWAP2 POP POP JUMP JUMPDEST PUSH1 0x0 PUSH2 0x3B7B DUP3 PUSH2 0x273E JUMP JUMPDEST PUSH2 0x3B85 DUP2 DUP6 PUSH2 0x3B5F JUMP JUMPDEST SWAP4 POP PUSH2 0x3B95 DUP2 DUP6 PUSH1 0x20 DUP7 ADD PUSH2 0x275A JUMP JUMPDEST PUSH2 0x3B9E DUP2 PUSH2 0x2784 JUMP JUMPDEST DUP5 ADD SWAP2 POP POP SWAP3 SWAP2 POP POP JUMP JUMPDEST PUSH1 0x0 PUSH2 0x3BB5 DUP4 DUP4 PUSH2 0x3B70 JUMP JUMPDEST SWAP1 POP SWAP3 SWAP2 POP POP JUMP JUMPDEST PUSH1 0x0 PUSH1 0x20 DUP3 ADD SWAP1 POP SWAP2 SWAP1 POP JUMP JUMPDEST PUSH1 0x0 PUSH2 0x3BD5 DUP3 PUSH2 0x3B33 JUMP JUMPDEST PUSH2 0x3BDF DUP2 DUP6 PUSH2 0x3B3E JUMP JUMPDEST SWAP4 POP DUP4 PUSH1 0x20 DUP3 MUL DUP6 ADD PUSH2 0x3BF1 DUP6 PUSH2 0x3B4F JUMP JUMPDEST DUP1 PUSH1 0x0 JUMPDEST DUP6 DUP2 LT ISZERO PUSH2 0x3C2D JUMPI DUP5 DUP5 SUB DUP10 MSTORE DUP2 MLOAD PUSH2 0x3C0E DUP6 DUP3 PUSH2 0x3BA9 JUMP JUMPDEST SWAP5 POP PUSH2 0x3C19 DUP4 PUSH2 0x3BBD JUMP JUMPDEST SWAP3 POP PUSH1 0x20 DUP11 ADD SWAP10 POP POP PUSH1 0x1 DUP2 ADD SWAP1 POP PUSH2 0x3BF5 JUMP JUMPDEST POP DUP3 SWAP8 POP DUP8 SWAP6 POP POP POP POP POP POP SWAP3 SWAP2 POP POP JUMP JUMPDEST PUSH1 0x0 DUP2 MLOAD SWAP1 POP SWAP2 SWAP1 POP JUMP JUMPDEST PUSH1 0x0 DUP3 DUP3 MSTORE PUSH1 0x20 DUP3 ADD SWAP1 POP SWAP3 SWAP2 POP POP JUMP JUMPDEST PUSH1 0x0 DUP2 SWAP1 POP PUSH1 0x20 DUP3 ADD SWAP1 POP SWAP2 SWAP1 POP JUMP JUMPDEST PUSH2 0x3C74 DUP2 PUSH2 0x2B76 JUMP JUMPDEST DUP3 MSTORE POP POP JUMP JUMPDEST PUSH1 0x0 PUSH2 0x3C86 DUP4 DUP4 PUSH2 0x3C6B JUMP JUMPDEST PUSH1 0x20 DUP4 ADD SWAP1 POP SWAP3 SWAP2 POP POP JUMP JUMPDEST PUSH1 0x0 PUSH1 0x20 DUP3 ADD SWAP1 POP SWAP2 SWAP1 POP JUMP JUMPDEST PUSH1 0x0 PUSH2 0x3CAA DUP3 PUSH2 0x3C3F JUMP JUMPDEST PUSH2 0x3CB4 DUP2 DUP6 PUSH2 0x3C4A JUMP JUMPDEST SWAP4 POP PUSH2 0x3CBF DUP4 PUSH2 0x3C5B JUMP JUMPDEST DUP1 PUSH1 0x0 JUMPDEST DUP4 DUP2 LT ISZERO PUSH2 0x3CF0 JUMPI DUP2 MLOAD PUSH2 0x3CD7 DUP9 DUP3 PUSH2 0x3C7A JUMP JUMPDEST SWAP8 POP PUSH2 0x3CE2 DUP4 PUSH2 0x3C92 JUMP JUMPDEST SWAP3 POP POP PUSH1 0x1 DUP2 ADD SWAP1 POP PUSH2 0x3CC3 JUMP JUMPDEST POP DUP6 SWAP4 POP POP POP POP SWAP3 SWAP2 POP POP JUMP JUMPDEST PUSH1 0x0 PUSH1 0xA0 DUP3 ADD SWAP1 POP DUP2 DUP2 SUB PUSH1 0x0 DUP4 ADD MSTORE PUSH2 0x3D17 DUP2 DUP9 PUSH2 0x3AD5 JUMP JUMPDEST SWAP1 POP DUP2 DUP2 SUB PUSH1 0x20 DUP4 ADD MSTORE PUSH2 0x3D2B DUP2 DUP8 PUSH2 0x3AD5 JUMP JUMPDEST SWAP1 POP DUP2 DUP2 SUB PUSH1 0x40 DUP4 ADD MSTORE PUSH2 0x3D3F DUP2 DUP7 PUSH2 0x3BCA JUMP JUMPDEST SWAP1 POP DUP2 DUP2 SUB PUSH1 0x60 DUP4 ADD MSTORE PUSH2 0x3D53 DUP2 DUP6 PUSH2 0x3BCA JUMP JUMPDEST SWAP1 POP DUP2 DUP2 SUB PUSH1 0x80 DUP4 ADD MSTORE PUSH2 0x3D67 DUP2 DUP5 PUSH2 0x3C9F JUMP JUMPDEST SWAP1 POP SWAP7 SWAP6 POP POP POP POP POP POP JUMP JUMPDEST PUSH1 0x0 PUSH1 0x80 DUP3 ADD SWAP1 POP PUSH2 0x3D88 PUSH1 0x0 DUP4 ADD DUP8 PUSH2 0x272F JUMP JUMPDEST PUSH2 0x3D95 PUSH1 0x20 DUP4 ADD DUP7 PUSH2 0x272F JUMP JUMPDEST PUSH2 0x3DA2 PUSH1 0x40 DUP4 ADD DUP6 PUSH2 0x272F JUMP JUMPDEST PUSH2 0x3DAF PUSH1 0x60 DUP4 ADD DUP5 PUSH2 0x272F JUMP JUMPDEST SWAP6 SWAP5 POP POP POP POP POP JUMP JUMPDEST PUSH1 0x0 DUP1 REVERT JUMPDEST PUSH1 0x0 PUSH1 0x80 DUP3 DUP5 SUB SLT ISZERO PUSH2 0x3DD3 JUMPI PUSH2 0x3DD2 PUSH2 0x3DB8 JUMP JUMPDEST JUMPDEST PUSH2 0x3DDD PUSH1 0x80 PUSH2 0x2992 JUMP JUMPDEST SWAP1 POP PUSH1 0x0 PUSH2 0x3DED DUP5 DUP3 DUP6 ADD PUSH2 0x2F61 JUMP JUMPDEST PUSH1 0x0 DUP4 ADD MSTORE POP PUSH1 0x20 PUSH2 0x3E01 DUP5 DUP3 DUP6 ADD PUSH2 0x2F61 JUMP JUMPDEST PUSH1 0x20 DUP4 ADD MSTORE POP PUSH1 0x40 PUSH2 0x3E15 DUP5 DUP3 DUP6 ADD PUSH2 0x2F61 JUMP JUMPDEST PUSH1 0x40 DUP4 ADD MSTORE POP PUSH1 0x60 PUSH2 0x3E29 DUP5 DUP3 DUP6 ADD PUSH2 0x2F61 JUMP JUMPDEST PUSH1 0x60 DUP4 ADD MSTORE POP SWAP3 SWAP2 POP POP JUMP JUMPDEST PUSH1 0x0 DUP2 MLOAD SWAP1 POP PUSH2 0x3E44 DUP2 PUSH2 0x285B JUMP JUMPDEST SWAP3 SWAP2 POP POP JUMP JUMPDEST PUSH1 0x0 PUSH2 0x160 DUP3 DUP5 SUB SLT ISZERO PUSH2 0x3E61 JUMPI PUSH2 0x3E60 PUSH2 0x3DB8 JUMP JUMPDEST JUMPDEST PUSH2 0x3E6C PUSH2 0x100 PUSH2 0x2992 JUMP JUMPDEST SWAP1 POP PUSH1 0x0 PUSH2 0x3E7C DUP5 DUP3 DUP6 ADD PUSH2 0x2F61 JUMP JUMPDEST PUSH1 0x0 DUP4 ADD MSTORE POP PUSH1 0x20 PUSH2 0x3E90 DUP5 DUP3 DUP6 ADD PUSH2 0x2F61 JUMP JUMPDEST PUSH1 0x20 DUP4 ADD MSTORE POP PUSH1 0x40 PUSH2 0x3EA4 DUP5 DUP3 DUP6 ADD PUSH2 0x3DBD JUMP JUMPDEST PUSH1 0x40 DUP4 ADD MSTORE POP PUSH1 0xC0 PUSH2 0x3EB8 DUP5 DUP3 DUP6 ADD PUSH2 0x2F61 JUMP JUMPDEST PUSH1 0x60 DUP4 ADD MSTORE POP PUSH1 0xE0 PUSH2 0x3ECC DUP5 DUP3 DUP6 ADD PUSH2 0x3E35 JUMP JUMPDEST PUSH1 0x80 DUP4 ADD MSTORE POP PUSH2 0x100 PUSH2 0x3EE1 DUP5 DUP3 DUP6 ADD PUSH2 0x2FB3 JUMP JUMPDEST PUSH1 0xA0 DUP4 ADD MSTORE POP PUSH2 0x120 PUSH2 0x3EF6 DUP5 DUP3 DUP6 ADD PUSH2 0x2F61 JUMP JUMPDEST PUSH1 0xC0 DUP4 ADD MSTORE POP PUSH2 0x140 PUSH2 0x3F0B DUP5 DUP3 DUP6 ADD PUSH2 0x2F61 JUMP JUMPDEST PUSH1 0xE0 DUP4 ADD MSTORE POP SWAP3 SWAP2 POP POP JUMP JUMPDEST PUSH1 0x0 PUSH2 0x160 DUP3 DUP5 SUB SLT ISZERO PUSH2 0x3F2E JUMPI PUSH2 0x3F2D PUSH2 0x26C2 JUMP JUMPDEST JUMPDEST PUSH1 0x0 PUSH2 0x3F3C DUP5 DUP3 DUP6 ADD PUSH2 0x3E4A JUMP JUMPDEST SWAP2 POP POP SWAP3 SWAP2 POP POP JUMP JUMPDEST PUSH32 0x6E6F7420617070726F7665642062792062656E65666963696172792100000000 PUSH1 0x0 DUP3 ADD MSTORE POP JUMP JUMPDEST PUSH1 0x0 PUSH2 0x3F7B PUSH1 0x1C DUP4 PUSH2 0x2749 JUMP JUMPDEST SWAP2 POP PUSH2 0x3F86 DUP3 PUSH2 0x3F45 JUMP JUMPDEST PUSH1 0x20 DUP3 ADD SWAP1 POP SWAP2 SWAP1 POP JUMP JUMPDEST PUSH1 0x0 PUSH1 0x20 DUP3 ADD SWAP1 POP DUP2 DUP2 SUB PUSH1 0x0 DUP4 ADD MSTORE PUSH2 0x3FAA DUP2 PUSH2 0x3F6E JUMP JUMPDEST SWAP1 POP SWAP2 SWAP1 POP JUMP JUMPDEST PUSH1 0x0 PUSH1 0x40 DUP3 ADD SWAP1 POP PUSH2 0x3FC6 PUSH1 0x0 DUP4 ADD DUP6 PUSH2 0x272F JUMP JUMPDEST PUSH2 0x3FD3 PUSH1 0x20 DUP4 ADD DUP5 PUSH2 0x272F JUMP JUMPDEST SWAP4 SWAP3 POP POP POP JUMP JUMPDEST PUSH2 0x3FE3 DUP2 PUSH2 0x2E14 JUMP JUMPDEST DUP2 EQ PUSH2 0x3FEE JUMPI PUSH1 0x0 DUP1 REVERT JUMPDEST POP JUMP JUMPDEST PUSH1 0x0 DUP2 MLOAD SWAP1 POP PUSH2 0x4000 DUP2 PUSH2 0x3FDA JUMP JUMPDEST SWAP3 SWAP2 POP POP JUMP JUMPDEST PUSH1 0x0 PUSH1 0x20 DUP3 DUP5 SUB SLT ISZERO PUSH2 0x401C JUMPI PUSH2 0x401B PUSH2 0x26C2 JUMP JUMPDEST JUMPDEST PUSH1 0x0 PUSH2 0x402A DUP5 DUP3 DUP6 ADD PUSH2 0x3FF1 JUMP JUMPDEST SWAP2 POP POP SWAP3 SWAP2 POP POP JUMP INVALID LOG2 PUSH5 0x6970667358 0x22 SLT KECCAK256 0xB0 COINBASE SSTORE 0xD5 0xD7 STOP 0xC4 PUSH8 0x2B6E6A970CADE49A 0xFC MOD 0x5D 0xA9 0xCD 0x2F CALLVALUE 0xA5 0xD9 0xB4 0xF9 SHL 0xB4 0xC0 0xEF DUP9 PUSH5 0x736F6C6343 STOP ADDMOD SGT STOP CALLER "
		},
		"gasEstimates": {
			"creation": {
				"codeDepositCost": "3297800",
				"executionCost": "infinite",
				"totalCost": "infinite"
			},
			"external": {
				"add(string)": "infinite",
				"addRequestLists(uint256,uint256,string)": "infinite",
				"autoTransfer(uint256,uint256,uint256,bytes)": "infinite",
				"checkRequestsFromCompany(uint256)": "infinite",
				"checkRequestsFromStakeholder(uint256,uint256)": "infinite",
				"companies(uint256)": "infinite",
				"createInsurance(uint256,uint256,uint256,uint8,uint256,uint256)": "infinite",
				"createStakeholderInfo(uint256,uint256,uint256,uint256)": "infinite",
				"getCredit(uint256)": "infinite",
				"getName(uint256)": "infinite",
				"getNumOfCompany()": "2482",
				"getOwner(uint256)": "5044",
				"signInsurance(uint256,uint256)": "infinite",
				"solveRequest(uint256,uint256)": "infinite",
				"updateCredit(uint256)": "27220"
			},
			"internal": {
				"passToStakeHolder(uint256,uint256)": "infinite",
				"reject(uint256,uint256)": "infinite"
			}
		},
		"methodIdentifiers": {
			"add(string)": "b0c8f9dc",
			"addRequestLists(uint256,uint256,string)": "e5c86f58",
			"autoTransfer(uint256,uint256,uint256,bytes)": "452c4756",
			"checkRequestsFromCompany(uint256)": "dd9937f7",
			"checkRequestsFromStakeholder(uint256,uint256)": "5d996701",
			"companies(uint256)": "2813d19d",
			"createInsurance(uint256,uint256,uint256,uint8,uint256,uint256)": "2dd0b640",
			"createStakeholderInfo(uint256,uint256,uint256,uint256)": "e0e5c324",
			"getCredit(uint256)": "da304e4d",
			"getName(uint256)": "6b8ff574",
			"getNumOfCompany()": "62584ffe",
			"getOwner(uint256)": "c41a360a",
			"signInsurance(uint256,uint256)": "f96b5080",
			"solveRequest(uint256,uint256)": "67ade5f5",
			"updateCredit(uint256)": "e0579807"
		}
	},
	"abi": [
		{
			"inputs": [
				{
					"internalType": "contract Insurance",
					"name": "insuranceAddress",
					"type": "address"
				},
				{
					"internalType": "contract Stakeholder",
					"name": "stakeholderAddress",
					"type": "address"
				},
				{
					"internalType": "contract MedicalCertificate",
					"name": "medicalCertInstanceAddress",
					"type": "address"
				},
				{
					"internalType": "contract TrustInsure",
					"name": "trustinsureInstanceAddress",
					"type": "address"
				}
			],
			"stateMutability": "nonpayable",
			"type": "constructor"
		},
		{
			"anonymous": false,
			"inputs": [
				{
					"indexed": false,
					"internalType": "uint256[]",
					"name": "requestids",
					"type": "uint256[]"
				},
				{
					"indexed": false,
					"internalType": "uint256[]",
					"name": "buyerids",
					"type": "uint256[]"
				},
				{
					"indexed": false,
					"internalType": "string[]",
					"name": "buyercontacts",
					"type": "string[]"
				},
				{
					"indexed": false,
					"internalType": "string[]",
					"name": "producttypes",
					"type": "string[]"
				},
				{
					"indexed": false,
					"internalType": "enum InsuranceCompany.requestStatus[]",
					"name": "statuses",
					"type": "uint8[]"
				}
			],
			"name": "allRequests",
			"type": "event"
		},
		{
			"anonymous": false,
			"inputs": [
				{
					"indexed": false,
					"internalType": "enum InsuranceCompany.requestStatus",
					"name": "status",
					"type": "uint8"
				}
			],
			"name": "checkRequest",
			"type": "event"
		},
		{
			"anonymous": false,
			"inputs": [
				{
					"indexed": false,
					"internalType": "uint256",
					"name": "insuranceId",
					"type": "uint256"
				}
			],
			"name": "create",
			"type": "event"
		},
		{
			"anonymous": false,
			"inputs": [],
			"name": "passedToStakeholder",
			"type": "event"
		},
		{
			"anonymous": false,
			"inputs": [
				{
					"indexed": false,
					"internalType": "uint256",
					"name": "requestId",
					"type": "uint256"
				}
			],
			"name": "requestReject",
			"type": "event"
		},
		{
			"anonymous": false,
			"inputs": [
				{
					"indexed": false,
					"internalType": "uint256",
					"name": "requestId",
					"type": "uint256"
				}
			],
			"name": "requestSolve",
			"type": "event"
		},
		{
			"anonymous": false,
			"inputs": [
				{
					"indexed": false,
					"internalType": "address",
					"name": "beneficiary",
					"type": "address"
				},
				{
					"indexed": false,
					"internalType": "uint256",
					"name": "amount",
					"type": "uint256"
				}
			],
			"name": "transfer",
			"type": "event"
		},
		{
			"inputs": [
				{
					"internalType": "string",
					"name": "name",
					"type": "string"
				}
			],
			"name": "add",
			"outputs": [
				{
					"internalType": "uint256",
					"name": "",
					"type": "uint256"
				}
			],
			"stateMutability": "payable",
			"type": "function"
		},
		{
			"inputs": [
				{
					"internalType": "uint256",
					"name": "_buyerId",
					"type": "uint256"
				},
				{
					"internalType": "uint256",
					"name": "_companyId",
					"type": "uint256"
				},
				{
					"internalType": "string",
					"name": "_typeProduct",
					"type": "string"
				}
			],
			"name": "addRequestLists",
			"outputs": [
				{
					"internalType": "bool",
					"name": "",
					"type": "bool"
				},
				{
					"internalType": "uint256",
					"name": "",
					"type": "uint256"
				}
			],
			"stateMutability": "nonpayable",
			"type": "function"
		},
		{
			"inputs": [
				{
					"internalType": "uint256",
					"name": "insuranceId",
					"type": "uint256"
				},
				{
					"internalType": "uint256",
					"name": "companyId",
					"type": "uint256"
				},
				{
					"internalType": "uint256",
					"name": "_hospitalId",
					"type": "uint256"
				},
				{
					"internalType": "bytes",
					"name": "mcId",
					"type": "bytes"
				}
			],
			"name": "autoTransfer",
			"outputs": [],
			"stateMutability": "payable",
			"type": "function"
		},
		{
			"inputs": [
				{
					"internalType": "uint256",
					"name": "companyId",
					"type": "uint256"
				}
			],
			"name": "checkRequestsFromCompany",
			"outputs": [],
			"stateMutability": "nonpayable",
			"type": "function"
		},
		{
			"inputs": [
				{
					"internalType": "uint256",
					"name": "companyId",
					"type": "uint256"
				},
				{
					"internalType": "uint256",
					"name": "requestId",
					"type": "uint256"
				}
			],
			"name": "checkRequestsFromStakeholder",
			"outputs": [
				{
					"internalType": "enum InsuranceCompany.requestStatus",
					"name": "",
					"type": "uint8"
				}
			],
			"stateMutability": "nonpayable",
			"type": "function"
		},
		{
			"inputs": [
				{
					"internalType": "uint256",
					"name": "",
					"type": "uint256"
				}
			],
			"name": "companies",
			"outputs": [
				{
					"internalType": "uint256",
					"name": "credit",
					"type": "uint256"
				},
				{
					"internalType": "string",
					"name": "name",
					"type": "string"
				},
				{
					"internalType": "address",
					"name": "owner",
					"type": "address"
				},
				{
					"internalType": "uint256",
					"name": "completed",
					"type": "uint256"
				}
			],
			"stateMutability": "view",
			"type": "function"
		},
		{
			"inputs": [
				{
					"internalType": "uint256",
					"name": "stakeholderInfoId",
					"type": "uint256"
				},
				{
					"internalType": "uint256",
					"name": "companyId",
					"type": "uint256"
				},
				{
					"internalType": "uint256",
					"name": "insuredAmount",
					"type": "uint256"
				},
				{
					"internalType": "enum Insurance.insuranceType",
					"name": "insType",
					"type": "uint8"
				},
				{
					"internalType": "uint256",
					"name": "issueDateYYYYMMDD",
					"type": "uint256"
				},
				{
					"internalType": "uint256",
					"name": "expiryDateYYYYMMDD",
					"type": "uint256"
				}
			],
			"name": "createInsurance",
			"outputs": [
				{
					"internalType": "uint256",
					"name": "",
					"type": "uint256"
				}
			],
			"stateMutability": "payable",
			"type": "function"
		},
		{
			"inputs": [
				{
					"internalType": "uint256",
					"name": "policyOwner",
					"type": "uint256"
				},
				{
					"internalType": "uint256",
					"name": "beneficiary",
					"type": "uint256"
				},
				{
					"internalType": "uint256",
					"name": "lifeAssured",
					"type": "uint256"
				},
				{
					"internalType": "uint256",
					"name": "payingAccount",
					"type": "uint256"
				}
			],
			"name": "createStakeholderInfo",
			"outputs": [
				{
					"internalType": "uint256",
					"name": "",
					"type": "uint256"
				}
			],
			"stateMutability": "nonpayable",
			"type": "function"
		},
		{
			"inputs": [
				{
					"internalType": "uint256",
					"name": "companyId",
					"type": "uint256"
				}
			],
			"name": "getCredit",
			"outputs": [
				{
					"internalType": "uint256",
					"name": "",
					"type": "uint256"
				}
			],
			"stateMutability": "view",
			"type": "function"
		},
		{
			"inputs": [
				{
					"internalType": "uint256",
					"name": "companyId",
					"type": "uint256"
				}
			],
			"name": "getName",
			"outputs": [
				{
					"internalType": "string",
					"name": "",
					"type": "string"
				}
			],
			"stateMutability": "view",
			"type": "function"
		},
		{
			"inputs": [],
			"name": "getNumOfCompany",
			"outputs": [
				{
					"internalType": "uint256",
					"name": "",
					"type": "uint256"
				}
			],
			"stateMutability": "view",
			"type": "function"
		},
		{
			"inputs": [
				{
					"internalType": "uint256",
					"name": "companyId",
					"type": "uint256"
				}
			],
			"name": "getOwner",
			"outputs": [
				{
					"internalType": "address",
					"name": "",
					"type": "address"
				}
			],
			"stateMutability": "view",
			"type": "function"
		},
		{
			"inputs": [
				{
					"internalType": "uint256",
					"name": "insuranceId",
					"type": "uint256"
				},
				{
					"internalType": "uint256",
					"name": "companyId",
					"type": "uint256"
				}
			],
			"name": "signInsurance",
			"outputs": [],
			"stateMutability": "payable",
			"type": "function"
		},
		{
			"inputs": [
				{
					"internalType": "uint256",
					"name": "companyId",
					"type": "uint256"
				},
				{
					"internalType": "uint256",
					"name": "requestId",
					"type": "uint256"
				}
			],
			"name": "solveRequest",
			"outputs": [],
			"stateMutability": "nonpayable",
			"type": "function"
		},
		{
			"inputs": [
				{
					"internalType": "uint256",
					"name": "companyId",
					"type": "uint256"
				}
			],
			"name": "updateCredit",
			"outputs": [],
			"stateMutability": "nonpayable",
			"type": "function"
		}
	]
}