{
	"data": {
		"bytecode": {
			"linkReferences": {},
			"object": "608060405260006003553480156200001657600080fd5b506040516200205b3803806200205b83398181016040528101906200003c919062000188565b816000806101000a81548173ffffffffffffffffffffffffffffffffffffffff021916908373ffffffffffffffffffffffffffffffffffffffff16021790555080600160006101000a81548173ffffffffffffffffffffffffffffffffffffffff021916908373ffffffffffffffffffffffffffffffffffffffff1602179055505050620001cf565b600080fd5b600073ffffffffffffffffffffffffffffffffffffffff82169050919050565b6000620000f782620000ca565b9050919050565b60006200010b82620000ea565b9050919050565b6200011d81620000fe565b81146200012957600080fd5b50565b6000815190506200013d8162000112565b92915050565b60006200015082620000ea565b9050919050565b620001628162000143565b81146200016e57600080fd5b50565b600081519050620001828162000157565b92915050565b60008060408385031215620001a257620001a1620000c5565b5b6000620001b2858286016200012c565b9250506020620001c58582860162000171565b9150509250929050565b611e7c80620001df6000396000f3fe608060405234801561001057600080fd5b506004361061004c5760003560e01c80639fe4f44014610051578063cb0c16b614610081578063da4d089e146100b1578063f9f24da1146100e1575b600080fd5b61006b600480360381019061006691906110cf565b6100eb565b604051610078919061112a565b60405180910390f35b61009b6004803603810190610096919061128b565b61041f565b6040516100a8919061131d565b60405180910390f35b6100cb60048036038101906100c69190611338565b6107f2565b6040516100d8919061131d565b60405180910390f35b6100e9610c32565b005b6000823373ffffffffffffffffffffffffffffffffffffffff1660008054906101000a900473ffffffffffffffffffffffffffffffffffffffff1673ffffffffffffffffffffffffffffffffffffffff1663c41a360a836040518263ffffffff1660e01b815260040161015e919061131d565b602060405180830381865afa15801561017b573d6000803e3d6000fd5b505050506040513d601f19601f8201168201806040525081019061019f9190611405565b73ffffffffffffffffffffffffffffffffffffffff16146101f5576040517f08c379a00000000000000000000000000000000000000000000000000000000081526004016101ec906114b5565b60405180910390fd5b600080600260008781526020019081526020016000208054905090506000805b828110156102755786600260008a81526020019081526020016000208281548110610243576102426114d5565b5b9060005260206000209060040201600001540361026257809350600191505b808061026d90611533565b915050610215565b5080156103e5576002600088815260200190815260200160002060018361029c919061157b565b815481106102ad576102ac6114d5565b5b90600052602060002090600402016002600089815260200190815260200160002084815481106102e0576102df6114d5565b5b90600052602060002090600402016000820154816000015560018201548160010155600282015481600201556003820160009054906101000a900460ff168160030160006101000a81548160ff02191690836001811115610344576103436115af565b5b02179055509050506002600088815260200190815260200160002080548061036f5761036e6115de565b5b6001900381819060005260206000209060040201600080820160009055600182016000905560028201600090556003820160006101000a81549060ff0219169055505090557f62e5e612e40441120640face53cc5b102e8b73752c06db0f790532bf1f89a57160405160405180910390a1610412565b7f6ce268b8b527055a271573ee97dae508396ebb8d80afa5b00e3f6a16c4e1afe960405160405180910390a15b8094505050505092915050565b6000843373ffffffffffffffffffffffffffffffffffffffff1660008054906101000a900473ffffffffffffffffffffffffffffffffffffffff1673ffffffffffffffffffffffffffffffffffffffff1663c41a360a836040518263ffffffff1660e01b8152600401610492919061131d565b602060405180830381865afa1580156104af573d6000803e3d6000fd5b505050506040513d601f19601f820116820180604052508101906104d39190611405565b73ffffffffffffffffffffffffffffffffffffffff1614610529576040517f08c379a0000000000000000000000000000000000000000000000000000000008152600401610520906114b5565b60405180910390fd5b8460405160200161053990611659565b604051602081830303815290604052805190602001208160405160200161056091906116e7565b6040516020818303038152906040528051906020012014806105cb575060405160200161058c90611755565b60405160208183030381529060405280519060200120816040516020016105b391906116e7565b60405160208183030381529060405280519060200120145b61060a576040517f08c379a0000000000000000000000000000000000000000000000000000000008152600401610601906117e7565b60405180910390fd5b61061261104b565b60405160200161062190611659565b604051602081830303815290604052805190602001208760405160200161064891906116e7565b60405160208183030381529060405280519060200120036106b45760405180608001604052806003600081548092919061068190611533565b919050558152602001878152602001868152602001600060018111156106aa576106a96115af565b5b8152509050610700565b6040518060800160405280600360008154809291906106d290611533565b9190505581526020018781526020018681526020016001808111156106fa576106f96115af565b5b81525090505b6002600089815260200190815260200160002081908060018154018082558091505060019003906000526020600020906004020160009091909190915060008201518160000155602082015181600101556040820151816002015560608201518160030160006101000a81548160ff02191690836001811115610786576107856115af565b5b021790555050507f1ae3bf8d727b8c677619c05c932e62edcd95ed521ece9e850d19577f1f5f5b1160405160405180910390a160048890806001815401808255809150506001900390600052602060002001600090919091909150556003549350505050949350505050565b600080600160009054906101000a900473ffffffffffffffffffffffffffffffffffffffff1673ffffffffffffffffffffffffffffffffffffffff16630f861dc4336040518263ffffffff1660e01b81526004016108509190611816565b602060405180830381865afa15801561086d573d6000803e3d6000fd5b505050506040513d601f19601f820116820180604052508101906108919190611846565b9050600081036108d6576040517f08c379a00000000000000000000000000000000000000000000000000000000081526004016108cd906118bf565b60405180910390fd5b600060026000878152602001908152602001600020805480602002602001604051908101604052809291908181526020016000905b8282101561099657838290600052602060002090600402016040518060800160405290816000820154815260200160018201548152602001600282015481526020016003820160009054906101000a900460ff166001811115610971576109706115af565b5b6001811115610983576109826115af565b5b815250508152602001906001019061090b565b505050509050600a815111156109e1576040517f08c379a00000000000000000000000000000000000000000000000000000000081526004016109d890611977565b60405180910390fd5b60008151905060006040518060400160405280600481526020017f6c69666500000000000000000000000000000000000000000000000000000000815250905060008060008060005b86811015610c1d57878181518110610a4557610a446114d5565b5b6020026020010151600001519450878181518110610a6657610a656114d5565b5b60200260200101516060015193508b8503610c0a5760006001811115610a8f57610a8e6115af565b5b846001811115610aa257610aa16115af565b5b03610ae0576040518060400160405280600881526020017f6163636964656e7400000000000000000000000000000000000000000000000081525095505b60008054906101000a900473ffffffffffffffffffffffffffffffffffffffff1673ffffffffffffffffffffffffffffffffffffffff166323192ed48a8f8e8a6040518563ffffffff1660e01b8152600401610b3f9493929190611997565b60408051808303816000875af1158015610b5d573d6000803e3d6000fd5b505050506040513d601f19601f82011682018060405250810190610b819190611a16565b80935081945050508215610bcc577f383053d42d986156a4286cdcbbc248c612086c31efb77b449c328deee057528e60405160405180910390a1819950505050505050505050610c2b565b7f0140f87f21890fe27173d90ed6364b8ed2b446b066c819af469a223b7ad776b160405160405180910390a160009950505050505050505050610c2b565b8080610c1590611533565b915050610a2a565b506000985050505050505050505b9392505050565b60608060608060606000805b6004805490508110156110035760006002600060048481548110610c6557610c646114d5565b5b90600052602060002001548152602001908152602001600020805480602002602001604051908101604052809291908181526020016000905b82821015610d2957838290600052602060002090600402016040518060800160405290816000820154815260200160018201548152602001600282015481526020016003820160009054906101000a900460ff166001811115610d0457610d036115af565b5b6001811115610d1657610d156115af565b5b8152505081526020019060010190610c9e565b50505050905060005b8151811015610fee5760048381548110610d4f57610d4e6114d5565b5b9060005260206000200154898581518110610d6d57610d6c6114d5565b5b60200260200101818152505060008054906101000a900473ffffffffffffffffffffffffffffffffffffffff1673ffffffffffffffffffffffffffffffffffffffff16636b8ff57460048581548110610dc957610dc86114d5565b5b90600052602060002001546040518263ffffffff1660e01b8152600401610df0919061131d565b600060405180830381865afa158015610e0d573d6000803e3d6000fd5b505050506040513d6000823e3d601f19601f82011682018060405250810190610e369190611ac6565b888581518110610e4957610e486114d5565b5b602002602001018190525060008054906101000a900473ffffffffffffffffffffffffffffffffffffffff1673ffffffffffffffffffffffffffffffffffffffff1663da304e4d60048581548110610ea457610ea36114d5565b5b90600052602060002001546040518263ffffffff1660e01b8152600401610ecb919061131d565b602060405180830381865afa158015610ee8573d6000803e3d6000fd5b505050506040513d601f19601f82011682018060405250810190610f0c9190611846565b878581518110610f1f57610f1e6114d5565b5b602002602001018181525050818181518110610f3e57610f3d6114d5565b5b602002602001015160600151868581518110610f5d57610f5c6114d5565b5b60200260200101906001811115610f7757610f766115af565b5b90816001811115610f8b57610f8a6115af565b5b81525050818181518110610fa257610fa16114d5565b5b602002602001015160400151858581518110610fc157610fc06114d5565b5b6020026020010181815250508380610fd890611533565b9450508080610fe690611533565b915050610d32565b50508080610ffb90611533565b915050610c3e565b507fac2464686f2977050ec21344ddefe5e5e6873858cc88a17db6c72d8b5285675b868686868660405161103b959493929190611dd0565b60405180910390a1505050505050565b60405180608001604052806000815260200160008152602001600081526020016000600181111561107f5761107e6115af565b5b81525090565b6000604051905090565b600080fd5b600080fd5b6000819050919050565b6110ac81611099565b81146110b757600080fd5b50565b6000813590506110c9816110a3565b92915050565b600080604083850312156110e6576110e561108f565b5b60006110f4858286016110ba565b9250506020611105858286016110ba565b9150509250929050565b60008115159050919050565b6111248161110f565b82525050565b600060208201905061113f600083018461111b565b92915050565b600080fd5b600080fd5b6000601f19601f8301169050919050565b7f4e487b7100000000000000000000000000000000000000000000000000000000600052604160045260246000fd5b6111988261114f565b810181811067ffffffffffffffff821117156111b7576111b6611160565b5b80604052505050565b60006111ca611085565b90506111d6828261118f565b919050565b600067ffffffffffffffff8211156111f6576111f5611160565b5b6111ff8261114f565b9050602081019050919050565b82818337600083830152505050565b600061122e611229846111db565b6111c0565b90508281526020810184848401111561124a5761124961114a565b5b61125584828561120c565b509392505050565b600082601f83011261127257611271611145565b5b813561128284826020860161121b565b91505092915050565b600080600080608085870312156112a5576112a461108f565b5b60006112b3878288016110ba565b945050602085013567ffffffffffffffff8111156112d4576112d3611094565b5b6112e08782880161125d565b93505060406112f1878288016110ba565b9250506060611302878288016110ba565b91505092959194509250565b61131781611099565b82525050565b6000602082019050611332600083018461130e565b92915050565b6000806000606084860312156113515761135061108f565b5b600061135f868287016110ba565b9350506020611370868287016110ba565b925050604084013567ffffffffffffffff81111561139157611390611094565b5b61139d8682870161125d565b9150509250925092565b600073ffffffffffffffffffffffffffffffffffffffff82169050919050565b60006113d2826113a7565b9050919050565b6113e2816113c7565b81146113ed57600080fd5b50565b6000815190506113ff816113d9565b92915050565b60006020828403121561141b5761141a61108f565b5b6000611429848285016113f0565b91505092915050565b600082825260208201905092915050565b7f596f7520617265206e6f7420616c6c6f77656420746f206c697374207468652060008201527f70726f6475637421000000000000000000000000000000000000000000000000602082015250565b600061149f602883611432565b91506114aa82611443565b604082019050919050565b600060208201905081810360008301526114ce81611492565b9050919050565b7f4e487b7100000000000000000000000000000000000000000000000000000000600052603260045260246000fd5b7f4e487b7100000000000000000000000000000000000000000000000000000000600052601160045260246000fd5b600061153e82611099565b91507fffffffffffffffffffffffffffffffffffffffffffffffffffffffffffffffff82036115705761156f611504565b5b600182019050919050565b600061158682611099565b915061159183611099565b92508282039050818111156115a9576115a8611504565b5b92915050565b7f4e487b7100000000000000000000000000000000000000000000000000000000600052602160045260246000fd5b7f4e487b7100000000000000000000000000000000000000000000000000000000600052603160045260246000fd5b7f6163636964656e74000000000000000000000000000000000000000000000000600082015250565b6000611643600883611432565b915061164e8261160d565b602082019050919050565b6000602082019050818103600083015261167281611636565b9050919050565b600081519050919050565b60005b838110156116a2578082015181840152602081019050611687565b60008484015250505050565b60006116b982611679565b6116c38185611432565b93506116d3818560208601611684565b6116dc8161114f565b840191505092915050565b6000602082019050818103600083015261170181846116ae565b905092915050565b7f6c69666500000000000000000000000000000000000000000000000000000000600082015250565b600061173f600483611432565b915061174a82611709565b602082019050919050565b6000602082019050818103600083015261176e81611732565b9050919050565b7f596f752073686f756c6420696e7075742076616c69642070726f64756374207460008201527f7970652c2065672e206163636964656e74206f72206c69666521000000000000602082015250565b60006117d1603a83611432565b91506117dc82611775565b604082019050919050565b60006020820190508181036000830152611800816117c4565b9050919050565b611810816113c7565b82525050565b600060208201905061182b6000830184611807565b92915050565b600081519050611840816110a3565b92915050565b60006020828403121561185c5761185b61108f565b5b600061186a84828501611831565b91505092915050565b7f4e6f742072656769737465726564210000000000000000000000000000000000600082015250565b60006118a9600f83611432565b91506118b482611873565b602082019050919050565b600060208201905081810360008301526118d88161189c565b9050919050565b7f54686520636f6d70616e792061726520657870657269656e63696e672068696760008201527f6820766f6c756d65206f662072657175657374732c20706c6561736520636f6d60208201527f65206261636b206c617465722100000000000000000000000000000000000000604082015250565b6000611961604d83611432565b915061196c826118df565b606082019050919050565b6000602082019050818103600083015261199081611954565b9050919050565b60006080820190506119ac600083018761130e565b6119b9602083018661130e565b81810360408301526119cb81856116ae565b905081810360608301526119df81846116ae565b905095945050505050565b6119f38161110f565b81146119fe57600080fd5b50565b600081519050611a10816119ea565b92915050565b60008060408385031215611a2d57611a2c61108f565b5b6000611a3b85828601611a01565b9250506020611a4c85828601611831565b9150509250929050565b6000611a69611a64846111db565b6111c0565b905082815260208101848484011115611a8557611a8461114a565b5b611a90848285611684565b509392505050565b600082601f830112611aad57611aac611145565b5b8151611abd848260208601611a56565b91505092915050565b600060208284031215611adc57611adb61108f565b5b600082015167ffffffffffffffff811115611afa57611af9611094565b5b611b0684828501611a98565b91505092915050565b600081519050919050565b600082825260208201905092915050565b6000819050602082019050919050565b611b4481611099565b82525050565b6000611b568383611b3b565b60208301905092915050565b6000602082019050919050565b6000611b7a82611b0f565b611b848185611b1a565b9350611b8f83611b2b565b8060005b83811015611bc0578151611ba78882611b4a565b9750611bb283611b62565b925050600181019050611b93565b5085935050505092915050565b600081519050919050565b600082825260208201905092915050565b6000819050602082019050919050565b600082825260208201905092915050565b6000611c1582611679565b611c1f8185611bf9565b9350611c2f818560208601611684565b611c388161114f565b840191505092915050565b6000611c4f8383611c0a565b905092915050565b6000602082019050919050565b6000611c6f82611bcd565b611c798185611bd8565b935083602082028501611c8b85611be9565b8060005b85811015611cc75784840389528151611ca88582611c43565b9450611cb383611c57565b925060208a01995050600181019050611c8f565b50829750879550505050505092915050565b600081519050919050565b600082825260208201905092915050565b6000819050602082019050919050565b60028110611d1657611d156115af565b5b50565b6000819050611d2782611d05565b919050565b6000611d3782611d19565b9050919050565b611d4781611d2c565b82525050565b6000611d598383611d3e565b60208301905092915050565b6000602082019050919050565b6000611d7d82611cd9565b611d878185611ce4565b9350611d9283611cf5565b8060005b83811015611dc3578151611daa8882611d4d565b9750611db583611d65565b925050600181019050611d96565b5085935050505092915050565b600060a0820190508181036000830152611dea8188611b6f565b90508181036020830152611dfe8187611c64565b90508181036040830152611e128186611b6f565b90508181036060830152611e268185611d72565b90508181036080830152611e3a8184611b6f565b9050969550505050505056fea26469706673582212202bf4560f6cb815790035997b931108e26f25b263f41c14381a7488cf059387af64736f6c63430008130033",
			"opcodes": "PUSH1 0x80 PUSH1 0x40 MSTORE PUSH1 0x0 PUSH1 0x3 SSTORE CALLVALUE DUP1 ISZERO PUSH3 0x16 JUMPI PUSH1 0x0 DUP1 REVERT JUMPDEST POP PUSH1 0x40 MLOAD PUSH3 0x205B CODESIZE SUB DUP1 PUSH3 0x205B DUP4 CODECOPY DUP2 DUP2 ADD PUSH1 0x40 MSTORE DUP2 ADD SWAP1 PUSH3 0x3C SWAP2 SWAP1 PUSH3 0x188 JUMP JUMPDEST DUP2 PUSH1 0x0 DUP1 PUSH2 0x100 EXP DUP2 SLOAD DUP2 PUSH20 0xFFFFFFFFFFFFFFFFFFFFFFFFFFFFFFFFFFFFFFFF MUL NOT AND SWAP1 DUP4 PUSH20 0xFFFFFFFFFFFFFFFFFFFFFFFFFFFFFFFFFFFFFFFF AND MUL OR SWAP1 SSTORE POP DUP1 PUSH1 0x1 PUSH1 0x0 PUSH2 0x100 EXP DUP2 SLOAD DUP2 PUSH20 0xFFFFFFFFFFFFFFFFFFFFFFFFFFFFFFFFFFFFFFFF MUL NOT AND SWAP1 DUP4 PUSH20 0xFFFFFFFFFFFFFFFFFFFFFFFFFFFFFFFFFFFFFFFF AND MUL OR SWAP1 SSTORE POP POP POP PUSH3 0x1CF JUMP JUMPDEST PUSH1 0x0 DUP1 REVERT JUMPDEST PUSH1 0x0 PUSH20 0xFFFFFFFFFFFFFFFFFFFFFFFFFFFFFFFFFFFFFFFF DUP3 AND SWAP1 POP SWAP2 SWAP1 POP JUMP JUMPDEST PUSH1 0x0 PUSH3 0xF7 DUP3 PUSH3 0xCA JUMP JUMPDEST SWAP1 POP SWAP2 SWAP1 POP JUMP JUMPDEST PUSH1 0x0 PUSH3 0x10B DUP3 PUSH3 0xEA JUMP JUMPDEST SWAP1 POP SWAP2 SWAP1 POP JUMP JUMPDEST PUSH3 0x11D DUP2 PUSH3 0xFE JUMP JUMPDEST DUP2 EQ PUSH3 0x129 JUMPI PUSH1 0x0 DUP1 REVERT JUMPDEST POP JUMP JUMPDEST PUSH1 0x0 DUP2 MLOAD SWAP1 POP PUSH3 0x13D DUP2 PUSH3 0x112 JUMP JUMPDEST SWAP3 SWAP2 POP POP JUMP JUMPDEST PUSH1 0x0 PUSH3 0x150 DUP3 PUSH3 0xEA JUMP JUMPDEST SWAP1 POP SWAP2 SWAP1 POP JUMP JUMPDEST PUSH3 0x162 DUP2 PUSH3 0x143 JUMP JUMPDEST DUP2 EQ PUSH3 0x16E JUMPI PUSH1 0x0 DUP1 REVERT JUMPDEST POP JUMP JUMPDEST PUSH1 0x0 DUP2 MLOAD SWAP1 POP PUSH3 0x182 DUP2 PUSH3 0x157 JUMP JUMPDEST SWAP3 SWAP2 POP POP JUMP JUMPDEST PUSH1 0x0 DUP1 PUSH1 0x40 DUP4 DUP6 SUB SLT ISZERO PUSH3 0x1A2 JUMPI PUSH3 0x1A1 PUSH3 0xC5 JUMP JUMPDEST JUMPDEST PUSH1 0x0 PUSH3 0x1B2 DUP6 DUP3 DUP7 ADD PUSH3 0x12C JUMP JUMPDEST SWAP3 POP POP PUSH1 0x20 PUSH3 0x1C5 DUP6 DUP3 DUP7 ADD PUSH3 0x171 JUMP JUMPDEST SWAP2 POP POP SWAP3 POP SWAP3 SWAP1 POP JUMP JUMPDEST PUSH2 0x1E7C DUP1 PUSH3 0x1DF PUSH1 0x0 CODECOPY PUSH1 0x0 RETURN INVALID PUSH1 0x80 PUSH1 0x40 MSTORE CALLVALUE DUP1 ISZERO PUSH2 0x10 JUMPI PUSH1 0x0 DUP1 REVERT JUMPDEST POP PUSH1 0x4 CALLDATASIZE LT PUSH2 0x4C JUMPI PUSH1 0x0 CALLDATALOAD PUSH1 0xE0 SHR DUP1 PUSH4 0x9FE4F440 EQ PUSH2 0x51 JUMPI DUP1 PUSH4 0xCB0C16B6 EQ PUSH2 0x81 JUMPI DUP1 PUSH4 0xDA4D089E EQ PUSH2 0xB1 JUMPI DUP1 PUSH4 0xF9F24DA1 EQ PUSH2 0xE1 JUMPI JUMPDEST PUSH1 0x0 DUP1 REVERT JUMPDEST PUSH2 0x6B PUSH1 0x4 DUP1 CALLDATASIZE SUB DUP2 ADD SWAP1 PUSH2 0x66 SWAP2 SWAP1 PUSH2 0x10CF JUMP JUMPDEST PUSH2 0xEB JUMP JUMPDEST PUSH1 0x40 MLOAD PUSH2 0x78 SWAP2 SWAP1 PUSH2 0x112A JUMP JUMPDEST PUSH1 0x40 MLOAD DUP1 SWAP2 SUB SWAP1 RETURN JUMPDEST PUSH2 0x9B PUSH1 0x4 DUP1 CALLDATASIZE SUB DUP2 ADD SWAP1 PUSH2 0x96 SWAP2 SWAP1 PUSH2 0x128B JUMP JUMPDEST PUSH2 0x41F JUMP JUMPDEST PUSH1 0x40 MLOAD PUSH2 0xA8 SWAP2 SWAP1 PUSH2 0x131D JUMP JUMPDEST PUSH1 0x40 MLOAD DUP1 SWAP2 SUB SWAP1 RETURN JUMPDEST PUSH2 0xCB PUSH1 0x4 DUP1 CALLDATASIZE SUB DUP2 ADD SWAP1 PUSH2 0xC6 SWAP2 SWAP1 PUSH2 0x1338 JUMP JUMPDEST PUSH2 0x7F2 JUMP JUMPDEST PUSH1 0x40 MLOAD PUSH2 0xD8 SWAP2 SWAP1 PUSH2 0x131D JUMP JUMPDEST PUSH1 0x40 MLOAD DUP1 SWAP2 SUB SWAP1 RETURN JUMPDEST PUSH2 0xE9 PUSH2 0xC32 JUMP JUMPDEST STOP JUMPDEST PUSH1 0x0 DUP3 CALLER PUSH20 0xFFFFFFFFFFFFFFFFFFFFFFFFFFFFFFFFFFFFFFFF AND PUSH1 0x0 DUP1 SLOAD SWAP1 PUSH2 0x100 EXP SWAP1 DIV PUSH20 0xFFFFFFFFFFFFFFFFFFFFFFFFFFFFFFFFFFFFFFFF AND PUSH20 0xFFFFFFFFFFFFFFFFFFFFFFFFFFFFFFFFFFFFFFFF AND PUSH4 0xC41A360A DUP4 PUSH1 0x40 MLOAD DUP3 PUSH4 0xFFFFFFFF AND PUSH1 0xE0 SHL DUP2 MSTORE PUSH1 0x4 ADD PUSH2 0x15E SWAP2 SWAP1 PUSH2 0x131D JUMP JUMPDEST PUSH1 0x20 PUSH1 0x40 MLOAD DUP1 DUP4 SUB DUP2 DUP7 GAS STATICCALL ISZERO DUP1 ISZERO PUSH2 0x17B JUMPI RETURNDATASIZE PUSH1 0x0 DUP1 RETURNDATACOPY RETURNDATASIZE PUSH1 0x0 REVERT JUMPDEST POP POP POP POP PUSH1 0x40 MLOAD RETURNDATASIZE PUSH1 0x1F NOT PUSH1 0x1F DUP3 ADD AND DUP3 ADD DUP1 PUSH1 0x40 MSTORE POP DUP2 ADD SWAP1 PUSH2 0x19F SWAP2 SWAP1 PUSH2 0x1405 JUMP JUMPDEST PUSH20 0xFFFFFFFFFFFFFFFFFFFFFFFFFFFFFFFFFFFFFFFF AND EQ PUSH2 0x1F5 JUMPI PUSH1 0x40 MLOAD PUSH32 0x8C379A000000000000000000000000000000000000000000000000000000000 DUP2 MSTORE PUSH1 0x4 ADD PUSH2 0x1EC SWAP1 PUSH2 0x14B5 JUMP JUMPDEST PUSH1 0x40 MLOAD DUP1 SWAP2 SUB SWAP1 REVERT JUMPDEST PUSH1 0x0 DUP1 PUSH1 0x2 PUSH1 0x0 DUP8 DUP2 MSTORE PUSH1 0x20 ADD SWAP1 DUP2 MSTORE PUSH1 0x20 ADD PUSH1 0x0 KECCAK256 DUP1 SLOAD SWAP1 POP SWAP1 POP PUSH1 0x0 DUP1 JUMPDEST DUP3 DUP2 LT ISZERO PUSH2 0x275 JUMPI DUP7 PUSH1 0x2 PUSH1 0x0 DUP11 DUP2 MSTORE PUSH1 0x20 ADD SWAP1 DUP2 MSTORE PUSH1 0x20 ADD PUSH1 0x0 KECCAK256 DUP3 DUP2 SLOAD DUP2 LT PUSH2 0x243 JUMPI PUSH2 0x242 PUSH2 0x14D5 JUMP JUMPDEST JUMPDEST SWAP1 PUSH1 0x0 MSTORE PUSH1 0x20 PUSH1 0x0 KECCAK256 SWAP1 PUSH1 0x4 MUL ADD PUSH1 0x0 ADD SLOAD SUB PUSH2 0x262 JUMPI DUP1 SWAP4 POP PUSH1 0x1 SWAP2 POP JUMPDEST DUP1 DUP1 PUSH2 0x26D SWAP1 PUSH2 0x1533 JUMP JUMPDEST SWAP2 POP POP PUSH2 0x215 JUMP JUMPDEST POP DUP1 ISZERO PUSH2 0x3E5 JUMPI PUSH1 0x2 PUSH1 0x0 DUP9 DUP2 MSTORE PUSH1 0x20 ADD SWAP1 DUP2 MSTORE PUSH1 0x20 ADD PUSH1 0x0 KECCAK256 PUSH1 0x1 DUP4 PUSH2 0x29C SWAP2 SWAP1 PUSH2 0x157B JUMP JUMPDEST DUP2 SLOAD DUP2 LT PUSH2 0x2AD JUMPI PUSH2 0x2AC PUSH2 0x14D5 JUMP JUMPDEST JUMPDEST SWAP1 PUSH1 0x0 MSTORE PUSH1 0x20 PUSH1 0x0 KECCAK256 SWAP1 PUSH1 0x4 MUL ADD PUSH1 0x2 PUSH1 0x0 DUP10 DUP2 MSTORE PUSH1 0x20 ADD SWAP1 DUP2 MSTORE PUSH1 0x20 ADD PUSH1 0x0 KECCAK256 DUP5 DUP2 SLOAD DUP2 LT PUSH2 0x2E0 JUMPI PUSH2 0x2DF PUSH2 0x14D5 JUMP JUMPDEST JUMPDEST SWAP1 PUSH1 0x0 MSTORE PUSH1 0x20 PUSH1 0x0 KECCAK256 SWAP1 PUSH1 0x4 MUL ADD PUSH1 0x0 DUP3 ADD SLOAD DUP2 PUSH1 0x0 ADD SSTORE PUSH1 0x1 DUP3 ADD SLOAD DUP2 PUSH1 0x1 ADD SSTORE PUSH1 0x2 DUP3 ADD SLOAD DUP2 PUSH1 0x2 ADD SSTORE PUSH1 0x3 DUP3 ADD PUSH1 0x0 SWAP1 SLOAD SWAP1 PUSH2 0x100 EXP SWAP1 DIV PUSH1 0xFF AND DUP2 PUSH1 0x3 ADD PUSH1 0x0 PUSH2 0x100 EXP DUP2 SLOAD DUP2 PUSH1 0xFF MUL NOT AND SWAP1 DUP4 PUSH1 0x1 DUP2 GT ISZERO PUSH2 0x344 JUMPI PUSH2 0x343 PUSH2 0x15AF JUMP JUMPDEST JUMPDEST MUL OR SWAP1 SSTORE POP SWAP1 POP POP PUSH1 0x2 PUSH1 0x0 DUP9 DUP2 MSTORE PUSH1 0x20 ADD SWAP1 DUP2 MSTORE PUSH1 0x20 ADD PUSH1 0x0 KECCAK256 DUP1 SLOAD DUP1 PUSH2 0x36F JUMPI PUSH2 0x36E PUSH2 0x15DE JUMP JUMPDEST JUMPDEST PUSH1 0x1 SWAP1 SUB DUP2 DUP2 SWAP1 PUSH1 0x0 MSTORE PUSH1 0x20 PUSH1 0x0 KECCAK256 SWAP1 PUSH1 0x4 MUL ADD PUSH1 0x0 DUP1 DUP3 ADD PUSH1 0x0 SWAP1 SSTORE PUSH1 0x1 DUP3 ADD PUSH1 0x0 SWAP1 SSTORE PUSH1 0x2 DUP3 ADD PUSH1 0x0 SWAP1 SSTORE PUSH1 0x3 DUP3 ADD PUSH1 0x0 PUSH2 0x100 EXP DUP2 SLOAD SWAP1 PUSH1 0xFF MUL NOT AND SWAP1 SSTORE POP POP SWAP1 SSTORE PUSH32 0x62E5E612E40441120640FACE53CC5B102E8B73752C06DB0F790532BF1F89A571 PUSH1 0x40 MLOAD PUSH1 0x40 MLOAD DUP1 SWAP2 SUB SWAP1 LOG1 PUSH2 0x412 JUMP JUMPDEST PUSH32 0x6CE268B8B527055A271573EE97DAE508396EBB8D80AFA5B00E3F6A16C4E1AFE9 PUSH1 0x40 MLOAD PUSH1 0x40 MLOAD DUP1 SWAP2 SUB SWAP1 LOG1 JUMPDEST DUP1 SWAP5 POP POP POP POP POP SWAP3 SWAP2 POP POP JUMP JUMPDEST PUSH1 0x0 DUP5 CALLER PUSH20 0xFFFFFFFFFFFFFFFFFFFFFFFFFFFFFFFFFFFFFFFF AND PUSH1 0x0 DUP1 SLOAD SWAP1 PUSH2 0x100 EXP SWAP1 DIV PUSH20 0xFFFFFFFFFFFFFFFFFFFFFFFFFFFFFFFFFFFFFFFF AND PUSH20 0xFFFFFFFFFFFFFFFFFFFFFFFFFFFFFFFFFFFFFFFF AND PUSH4 0xC41A360A DUP4 PUSH1 0x40 MLOAD DUP3 PUSH4 0xFFFFFFFF AND PUSH1 0xE0 SHL DUP2 MSTORE PUSH1 0x4 ADD PUSH2 0x492 SWAP2 SWAP1 PUSH2 0x131D JUMP JUMPDEST PUSH1 0x20 PUSH1 0x40 MLOAD DUP1 DUP4 SUB DUP2 DUP7 GAS STATICCALL ISZERO DUP1 ISZERO PUSH2 0x4AF JUMPI RETURNDATASIZE PUSH1 0x0 DUP1 RETURNDATACOPY RETURNDATASIZE PUSH1 0x0 REVERT JUMPDEST POP POP POP POP PUSH1 0x40 MLOAD RETURNDATASIZE PUSH1 0x1F NOT PUSH1 0x1F DUP3 ADD AND DUP3 ADD DUP1 PUSH1 0x40 MSTORE POP DUP2 ADD SWAP1 PUSH2 0x4D3 SWAP2 SWAP1 PUSH2 0x1405 JUMP JUMPDEST PUSH20 0xFFFFFFFFFFFFFFFFFFFFFFFFFFFFFFFFFFFFFFFF AND EQ PUSH2 0x529 JUMPI PUSH1 0x40 MLOAD PUSH32 0x8C379A000000000000000000000000000000000000000000000000000000000 DUP2 MSTORE PUSH1 0x4 ADD PUSH2 0x520 SWAP1 PUSH2 0x14B5 JUMP JUMPDEST PUSH1 0x40 MLOAD DUP1 SWAP2 SUB SWAP1 REVERT JUMPDEST DUP5 PUSH1 0x40 MLOAD PUSH1 0x20 ADD PUSH2 0x539 SWAP1 PUSH2 0x1659 JUMP JUMPDEST PUSH1 0x40 MLOAD PUSH1 0x20 DUP2 DUP4 SUB SUB DUP2 MSTORE SWAP1 PUSH1 0x40 MSTORE DUP1 MLOAD SWAP1 PUSH1 0x20 ADD KECCAK256 DUP2 PUSH1 0x40 MLOAD PUSH1 0x20 ADD PUSH2 0x560 SWAP2 SWAP1 PUSH2 0x16E7 JUMP JUMPDEST PUSH1 0x40 MLOAD PUSH1 0x20 DUP2 DUP4 SUB SUB DUP2 MSTORE SWAP1 PUSH1 0x40 MSTORE DUP1 MLOAD SWAP1 PUSH1 0x20 ADD KECCAK256 EQ DUP1 PUSH2 0x5CB JUMPI POP PUSH1 0x40 MLOAD PUSH1 0x20 ADD PUSH2 0x58C SWAP1 PUSH2 0x1755 JUMP JUMPDEST PUSH1 0x40 MLOAD PUSH1 0x20 DUP2 DUP4 SUB SUB DUP2 MSTORE SWAP1 PUSH1 0x40 MSTORE DUP1 MLOAD SWAP1 PUSH1 0x20 ADD KECCAK256 DUP2 PUSH1 0x40 MLOAD PUSH1 0x20 ADD PUSH2 0x5B3 SWAP2 SWAP1 PUSH2 0x16E7 JUMP JUMPDEST PUSH1 0x40 MLOAD PUSH1 0x20 DUP2 DUP4 SUB SUB DUP2 MSTORE SWAP1 PUSH1 0x40 MSTORE DUP1 MLOAD SWAP1 PUSH1 0x20 ADD KECCAK256 EQ JUMPDEST PUSH2 0x60A JUMPI PUSH1 0x40 MLOAD PUSH32 0x8C379A000000000000000000000000000000000000000000000000000000000 DUP2 MSTORE PUSH1 0x4 ADD PUSH2 0x601 SWAP1 PUSH2 0x17E7 JUMP JUMPDEST PUSH1 0x40 MLOAD DUP1 SWAP2 SUB SWAP1 REVERT JUMPDEST PUSH2 0x612 PUSH2 0x104B JUMP JUMPDEST PUSH1 0x40 MLOAD PUSH1 0x20 ADD PUSH2 0x621 SWAP1 PUSH2 0x1659 JUMP JUMPDEST PUSH1 0x40 MLOAD PUSH1 0x20 DUP2 DUP4 SUB SUB DUP2 MSTORE SWAP1 PUSH1 0x40 MSTORE DUP1 MLOAD SWAP1 PUSH1 0x20 ADD KECCAK256 DUP8 PUSH1 0x40 MLOAD PUSH1 0x20 ADD PUSH2 0x648 SWAP2 SWAP1 PUSH2 0x16E7 JUMP JUMPDEST PUSH1 0x40 MLOAD PUSH1 0x20 DUP2 DUP4 SUB SUB DUP2 MSTORE SWAP1 PUSH1 0x40 MSTORE DUP1 MLOAD SWAP1 PUSH1 0x20 ADD KECCAK256 SUB PUSH2 0x6B4 JUMPI PUSH1 0x40 MLOAD DUP1 PUSH1 0x80 ADD PUSH1 0x40 MSTORE DUP1 PUSH1 0x3 PUSH1 0x0 DUP2 SLOAD DUP1 SWAP3 SWAP2 SWAP1 PUSH2 0x681 SWAP1 PUSH2 0x1533 JUMP JUMPDEST SWAP2 SWAP1 POP SSTORE DUP2 MSTORE PUSH1 0x20 ADD DUP8 DUP2 MSTORE PUSH1 0x20 ADD DUP7 DUP2 MSTORE PUSH1 0x20 ADD PUSH1 0x0 PUSH1 0x1 DUP2 GT ISZERO PUSH2 0x6AA JUMPI PUSH2 0x6A9 PUSH2 0x15AF JUMP JUMPDEST JUMPDEST DUP2 MSTORE POP SWAP1 POP PUSH2 0x700 JUMP JUMPDEST PUSH1 0x40 MLOAD DUP1 PUSH1 0x80 ADD PUSH1 0x40 MSTORE DUP1 PUSH1 0x3 PUSH1 0x0 DUP2 SLOAD DUP1 SWAP3 SWAP2 SWAP1 PUSH2 0x6D2 SWAP1 PUSH2 0x1533 JUMP JUMPDEST SWAP2 SWAP1 POP SSTORE DUP2 MSTORE PUSH1 0x20 ADD DUP8 DUP2 MSTORE PUSH1 0x20 ADD DUP7 DUP2 MSTORE PUSH1 0x20 ADD PUSH1 0x1 DUP1 DUP2 GT ISZERO PUSH2 0x6FA JUMPI PUSH2 0x6F9 PUSH2 0x15AF JUMP JUMPDEST JUMPDEST DUP2 MSTORE POP SWAP1 POP JUMPDEST PUSH1 0x2 PUSH1 0x0 DUP10 DUP2 MSTORE PUSH1 0x20 ADD SWAP1 DUP2 MSTORE PUSH1 0x20 ADD PUSH1 0x0 KECCAK256 DUP2 SWAP1 DUP1 PUSH1 0x1 DUP2 SLOAD ADD DUP1 DUP3 SSTORE DUP1 SWAP2 POP POP PUSH1 0x1 SWAP1 SUB SWAP1 PUSH1 0x0 MSTORE PUSH1 0x20 PUSH1 0x0 KECCAK256 SWAP1 PUSH1 0x4 MUL ADD PUSH1 0x0 SWAP1 SWAP2 SWAP1 SWAP2 SWAP1 SWAP2 POP PUSH1 0x0 DUP3 ADD MLOAD DUP2 PUSH1 0x0 ADD SSTORE PUSH1 0x20 DUP3 ADD MLOAD DUP2 PUSH1 0x1 ADD SSTORE PUSH1 0x40 DUP3 ADD MLOAD DUP2 PUSH1 0x2 ADD SSTORE PUSH1 0x60 DUP3 ADD MLOAD DUP2 PUSH1 0x3 ADD PUSH1 0x0 PUSH2 0x100 EXP DUP2 SLOAD DUP2 PUSH1 0xFF MUL NOT AND SWAP1 DUP4 PUSH1 0x1 DUP2 GT ISZERO PUSH2 0x786 JUMPI PUSH2 0x785 PUSH2 0x15AF JUMP JUMPDEST JUMPDEST MUL OR SWAP1 SSTORE POP POP POP PUSH32 0x1AE3BF8D727B8C677619C05C932E62EDCD95ED521ECE9E850D19577F1F5F5B11 PUSH1 0x40 MLOAD PUSH1 0x40 MLOAD DUP1 SWAP2 SUB SWAP1 LOG1 PUSH1 0x4 DUP9 SWAP1 DUP1 PUSH1 0x1 DUP2 SLOAD ADD DUP1 DUP3 SSTORE DUP1 SWAP2 POP POP PUSH1 0x1 SWAP1 SUB SWAP1 PUSH1 0x0 MSTORE PUSH1 0x20 PUSH1 0x0 KECCAK256 ADD PUSH1 0x0 SWAP1 SWAP2 SWAP1 SWAP2 SWAP1 SWAP2 POP SSTORE PUSH1 0x3 SLOAD SWAP4 POP POP POP POP SWAP5 SWAP4 POP POP POP POP JUMP JUMPDEST PUSH1 0x0 DUP1 PUSH1 0x1 PUSH1 0x0 SWAP1 SLOAD SWAP1 PUSH2 0x100 EXP SWAP1 DIV PUSH20 0xFFFFFFFFFFFFFFFFFFFFFFFFFFFFFFFFFFFFFFFF AND PUSH20 0xFFFFFFFFFFFFFFFFFFFFFFFFFFFFFFFFFFFFFFFF AND PUSH4 0xF861DC4 CALLER PUSH1 0x40 MLOAD DUP3 PUSH4 0xFFFFFFFF AND PUSH1 0xE0 SHL DUP2 MSTORE PUSH1 0x4 ADD PUSH2 0x850 SWAP2 SWAP1 PUSH2 0x1816 JUMP JUMPDEST PUSH1 0x20 PUSH1 0x40 MLOAD DUP1 DUP4 SUB DUP2 DUP7 GAS STATICCALL ISZERO DUP1 ISZERO PUSH2 0x86D JUMPI RETURNDATASIZE PUSH1 0x0 DUP1 RETURNDATACOPY RETURNDATASIZE PUSH1 0x0 REVERT JUMPDEST POP POP POP POP PUSH1 0x40 MLOAD RETURNDATASIZE PUSH1 0x1F NOT PUSH1 0x1F DUP3 ADD AND DUP3 ADD DUP1 PUSH1 0x40 MSTORE POP DUP2 ADD SWAP1 PUSH2 0x891 SWAP2 SWAP1 PUSH2 0x1846 JUMP JUMPDEST SWAP1 POP PUSH1 0x0 DUP2 SUB PUSH2 0x8D6 JUMPI PUSH1 0x40 MLOAD PUSH32 0x8C379A000000000000000000000000000000000000000000000000000000000 DUP2 MSTORE PUSH1 0x4 ADD PUSH2 0x8CD SWAP1 PUSH2 0x18BF JUMP JUMPDEST PUSH1 0x40 MLOAD DUP1 SWAP2 SUB SWAP1 REVERT JUMPDEST PUSH1 0x0 PUSH1 0x2 PUSH1 0x0 DUP8 DUP2 MSTORE PUSH1 0x20 ADD SWAP1 DUP2 MSTORE PUSH1 0x20 ADD PUSH1 0x0 KECCAK256 DUP1 SLOAD DUP1 PUSH1 0x20 MUL PUSH1 0x20 ADD PUSH1 0x40 MLOAD SWAP1 DUP2 ADD PUSH1 0x40 MSTORE DUP1 SWAP3 SWAP2 SWAP1 DUP2 DUP2 MSTORE PUSH1 0x20 ADD PUSH1 0x0 SWAP1 JUMPDEST DUP3 DUP3 LT ISZERO PUSH2 0x996 JUMPI DUP4 DUP3 SWAP1 PUSH1 0x0 MSTORE PUSH1 0x20 PUSH1 0x0 KECCAK256 SWAP1 PUSH1 0x4 MUL ADD PUSH1 0x40 MLOAD DUP1 PUSH1 0x80 ADD PUSH1 0x40 MSTORE SWAP1 DUP2 PUSH1 0x0 DUP3 ADD SLOAD DUP2 MSTORE PUSH1 0x20 ADD PUSH1 0x1 DUP3 ADD SLOAD DUP2 MSTORE PUSH1 0x20 ADD PUSH1 0x2 DUP3 ADD SLOAD DUP2 MSTORE PUSH1 0x20 ADD PUSH1 0x3 DUP3 ADD PUSH1 0x0 SWAP1 SLOAD SWAP1 PUSH2 0x100 EXP SWAP1 DIV PUSH1 0xFF AND PUSH1 0x1 DUP2 GT ISZERO PUSH2 0x971 JUMPI PUSH2 0x970 PUSH2 0x15AF JUMP JUMPDEST JUMPDEST PUSH1 0x1 DUP2 GT ISZERO PUSH2 0x983 JUMPI PUSH2 0x982 PUSH2 0x15AF JUMP JUMPDEST JUMPDEST DUP2 MSTORE POP POP DUP2 MSTORE PUSH1 0x20 ADD SWAP1 PUSH1 0x1 ADD SWAP1 PUSH2 0x90B JUMP JUMPDEST POP POP POP POP SWAP1 POP PUSH1 0xA DUP2 MLOAD GT ISZERO PUSH2 0x9E1 JUMPI PUSH1 0x40 MLOAD PUSH32 0x8C379A000000000000000000000000000000000000000000000000000000000 DUP2 MSTORE PUSH1 0x4 ADD PUSH2 0x9D8 SWAP1 PUSH2 0x1977 JUMP JUMPDEST PUSH1 0x40 MLOAD DUP1 SWAP2 SUB SWAP1 REVERT JUMPDEST PUSH1 0x0 DUP2 MLOAD SWAP1 POP PUSH1 0x0 PUSH1 0x40 MLOAD DUP1 PUSH1 0x40 ADD PUSH1 0x40 MSTORE DUP1 PUSH1 0x4 DUP2 MSTORE PUSH1 0x20 ADD PUSH32 0x6C69666500000000000000000000000000000000000000000000000000000000 DUP2 MSTORE POP SWAP1 POP PUSH1 0x0 DUP1 PUSH1 0x0 DUP1 PUSH1 0x0 JUMPDEST DUP7 DUP2 LT ISZERO PUSH2 0xC1D JUMPI DUP8 DUP2 DUP2 MLOAD DUP2 LT PUSH2 0xA45 JUMPI PUSH2 0xA44 PUSH2 0x14D5 JUMP JUMPDEST JUMPDEST PUSH1 0x20 MUL PUSH1 0x20 ADD ADD MLOAD PUSH1 0x0 ADD MLOAD SWAP5 POP DUP8 DUP2 DUP2 MLOAD DUP2 LT PUSH2 0xA66 JUMPI PUSH2 0xA65 PUSH2 0x14D5 JUMP JUMPDEST JUMPDEST PUSH1 0x20 MUL PUSH1 0x20 ADD ADD MLOAD PUSH1 0x60 ADD MLOAD SWAP4 POP DUP12 DUP6 SUB PUSH2 0xC0A JUMPI PUSH1 0x0 PUSH1 0x1 DUP2 GT ISZERO PUSH2 0xA8F JUMPI PUSH2 0xA8E PUSH2 0x15AF JUMP JUMPDEST JUMPDEST DUP5 PUSH1 0x1 DUP2 GT ISZERO PUSH2 0xAA2 JUMPI PUSH2 0xAA1 PUSH2 0x15AF JUMP JUMPDEST JUMPDEST SUB PUSH2 0xAE0 JUMPI PUSH1 0x40 MLOAD DUP1 PUSH1 0x40 ADD PUSH1 0x40 MSTORE DUP1 PUSH1 0x8 DUP2 MSTORE PUSH1 0x20 ADD PUSH32 0x6163636964656E74000000000000000000000000000000000000000000000000 DUP2 MSTORE POP SWAP6 POP JUMPDEST PUSH1 0x0 DUP1 SLOAD SWAP1 PUSH2 0x100 EXP SWAP1 DIV PUSH20 0xFFFFFFFFFFFFFFFFFFFFFFFFFFFFFFFFFFFFFFFF AND PUSH20 0xFFFFFFFFFFFFFFFFFFFFFFFFFFFFFFFFFFFFFFFF AND PUSH4 0x23192ED4 DUP11 DUP16 DUP15 DUP11 PUSH1 0x40 MLOAD DUP6 PUSH4 0xFFFFFFFF AND PUSH1 0xE0 SHL DUP2 MSTORE PUSH1 0x4 ADD PUSH2 0xB3F SWAP5 SWAP4 SWAP3 SWAP2 SWAP1 PUSH2 0x1997 JUMP JUMPDEST PUSH1 0x40 DUP1 MLOAD DUP1 DUP4 SUB DUP2 PUSH1 0x0 DUP8 GAS CALL ISZERO DUP1 ISZERO PUSH2 0xB5D JUMPI RETURNDATASIZE PUSH1 0x0 DUP1 RETURNDATACOPY RETURNDATASIZE PUSH1 0x0 REVERT JUMPDEST POP POP POP POP PUSH1 0x40 MLOAD RETURNDATASIZE PUSH1 0x1F NOT PUSH1 0x1F DUP3 ADD AND DUP3 ADD DUP1 PUSH1 0x40 MSTORE POP DUP2 ADD SWAP1 PUSH2 0xB81 SWAP2 SWAP1 PUSH2 0x1A16 JUMP JUMPDEST DUP1 SWAP4 POP DUP2 SWAP5 POP POP POP DUP3 ISZERO PUSH2 0xBCC JUMPI PUSH32 0x383053D42D986156A4286CDCBBC248C612086C31EFB77B449C328DEEE057528E PUSH1 0x40 MLOAD PUSH1 0x40 MLOAD DUP1 SWAP2 SUB SWAP1 LOG1 DUP2 SWAP10 POP POP POP POP POP POP POP POP POP POP PUSH2 0xC2B JUMP JUMPDEST PUSH32 0x140F87F21890FE27173D90ED6364B8ED2B446B066C819AF469A223B7AD776B1 PUSH1 0x40 MLOAD PUSH1 0x40 MLOAD DUP1 SWAP2 SUB SWAP1 LOG1 PUSH1 0x0 SWAP10 POP POP POP POP POP POP POP POP POP POP PUSH2 0xC2B JUMP JUMPDEST DUP1 DUP1 PUSH2 0xC15 SWAP1 PUSH2 0x1533 JUMP JUMPDEST SWAP2 POP POP PUSH2 0xA2A JUMP JUMPDEST POP PUSH1 0x0 SWAP9 POP POP POP POP POP POP POP POP POP JUMPDEST SWAP4 SWAP3 POP POP POP JUMP JUMPDEST PUSH1 0x60 DUP1 PUSH1 0x60 DUP1 PUSH1 0x60 PUSH1 0x0 DUP1 JUMPDEST PUSH1 0x4 DUP1 SLOAD SWAP1 POP DUP2 LT ISZERO PUSH2 0x1003 JUMPI PUSH1 0x0 PUSH1 0x2 PUSH1 0x0 PUSH1 0x4 DUP5 DUP2 SLOAD DUP2 LT PUSH2 0xC65 JUMPI PUSH2 0xC64 PUSH2 0x14D5 JUMP JUMPDEST JUMPDEST SWAP1 PUSH1 0x0 MSTORE PUSH1 0x20 PUSH1 0x0 KECCAK256 ADD SLOAD DUP2 MSTORE PUSH1 0x20 ADD SWAP1 DUP2 MSTORE PUSH1 0x20 ADD PUSH1 0x0 KECCAK256 DUP1 SLOAD DUP1 PUSH1 0x20 MUL PUSH1 0x20 ADD PUSH1 0x40 MLOAD SWAP1 DUP2 ADD PUSH1 0x40 MSTORE DUP1 SWAP3 SWAP2 SWAP1 DUP2 DUP2 MSTORE PUSH1 0x20 ADD PUSH1 0x0 SWAP1 JUMPDEST DUP3 DUP3 LT ISZERO PUSH2 0xD29 JUMPI DUP4 DUP3 SWAP1 PUSH1 0x0 MSTORE PUSH1 0x20 PUSH1 0x0 KECCAK256 SWAP1 PUSH1 0x4 MUL ADD PUSH1 0x40 MLOAD DUP1 PUSH1 0x80 ADD PUSH1 0x40 MSTORE SWAP1 DUP2 PUSH1 0x0 DUP3 ADD SLOAD DUP2 MSTORE PUSH1 0x20 ADD PUSH1 0x1 DUP3 ADD SLOAD DUP2 MSTORE PUSH1 0x20 ADD PUSH1 0x2 DUP3 ADD SLOAD DUP2 MSTORE PUSH1 0x20 ADD PUSH1 0x3 DUP3 ADD PUSH1 0x0 SWAP1 SLOAD SWAP1 PUSH2 0x100 EXP SWAP1 DIV PUSH1 0xFF AND PUSH1 0x1 DUP2 GT ISZERO PUSH2 0xD04 JUMPI PUSH2 0xD03 PUSH2 0x15AF JUMP JUMPDEST JUMPDEST PUSH1 0x1 DUP2 GT ISZERO PUSH2 0xD16 JUMPI PUSH2 0xD15 PUSH2 0x15AF JUMP JUMPDEST JUMPDEST DUP2 MSTORE POP POP DUP2 MSTORE PUSH1 0x20 ADD SWAP1 PUSH1 0x1 ADD SWAP1 PUSH2 0xC9E JUMP JUMPDEST POP POP POP POP SWAP1 POP PUSH1 0x0 JUMPDEST DUP2 MLOAD DUP2 LT ISZERO PUSH2 0xFEE JUMPI PUSH1 0x4 DUP4 DUP2 SLOAD DUP2 LT PUSH2 0xD4F JUMPI PUSH2 0xD4E PUSH2 0x14D5 JUMP JUMPDEST JUMPDEST SWAP1 PUSH1 0x0 MSTORE PUSH1 0x20 PUSH1 0x0 KECCAK256 ADD SLOAD DUP10 DUP6 DUP2 MLOAD DUP2 LT PUSH2 0xD6D JUMPI PUSH2 0xD6C PUSH2 0x14D5 JUMP JUMPDEST JUMPDEST PUSH1 0x20 MUL PUSH1 0x20 ADD ADD DUP2 DUP2 MSTORE POP POP PUSH1 0x0 DUP1 SLOAD SWAP1 PUSH2 0x100 EXP SWAP1 DIV PUSH20 0xFFFFFFFFFFFFFFFFFFFFFFFFFFFFFFFFFFFFFFFF AND PUSH20 0xFFFFFFFFFFFFFFFFFFFFFFFFFFFFFFFFFFFFFFFF AND PUSH4 0x6B8FF574 PUSH1 0x4 DUP6 DUP2 SLOAD DUP2 LT PUSH2 0xDC9 JUMPI PUSH2 0xDC8 PUSH2 0x14D5 JUMP JUMPDEST JUMPDEST SWAP1 PUSH1 0x0 MSTORE PUSH1 0x20 PUSH1 0x0 KECCAK256 ADD SLOAD PUSH1 0x40 MLOAD DUP3 PUSH4 0xFFFFFFFF AND PUSH1 0xE0 SHL DUP2 MSTORE PUSH1 0x4 ADD PUSH2 0xDF0 SWAP2 SWAP1 PUSH2 0x131D JUMP JUMPDEST PUSH1 0x0 PUSH1 0x40 MLOAD DUP1 DUP4 SUB DUP2 DUP7 GAS STATICCALL ISZERO DUP1 ISZERO PUSH2 0xE0D JUMPI RETURNDATASIZE PUSH1 0x0 DUP1 RETURNDATACOPY RETURNDATASIZE PUSH1 0x0 REVERT JUMPDEST POP POP POP POP PUSH1 0x40 MLOAD RETURNDATASIZE PUSH1 0x0 DUP3 RETURNDATACOPY RETURNDATASIZE PUSH1 0x1F NOT PUSH1 0x1F DUP3 ADD AND DUP3 ADD DUP1 PUSH1 0x40 MSTORE POP DUP2 ADD SWAP1 PUSH2 0xE36 SWAP2 SWAP1 PUSH2 0x1AC6 JUMP JUMPDEST DUP9 DUP6 DUP2 MLOAD DUP2 LT PUSH2 0xE49 JUMPI PUSH2 0xE48 PUSH2 0x14D5 JUMP JUMPDEST JUMPDEST PUSH1 0x20 MUL PUSH1 0x20 ADD ADD DUP2 SWAP1 MSTORE POP PUSH1 0x0 DUP1 SLOAD SWAP1 PUSH2 0x100 EXP SWAP1 DIV PUSH20 0xFFFFFFFFFFFFFFFFFFFFFFFFFFFFFFFFFFFFFFFF AND PUSH20 0xFFFFFFFFFFFFFFFFFFFFFFFFFFFFFFFFFFFFFFFF AND PUSH4 0xDA304E4D PUSH1 0x4 DUP6 DUP2 SLOAD DUP2 LT PUSH2 0xEA4 JUMPI PUSH2 0xEA3 PUSH2 0x14D5 JUMP JUMPDEST JUMPDEST SWAP1 PUSH1 0x0 MSTORE PUSH1 0x20 PUSH1 0x0 KECCAK256 ADD SLOAD PUSH1 0x40 MLOAD DUP3 PUSH4 0xFFFFFFFF AND PUSH1 0xE0 SHL DUP2 MSTORE PUSH1 0x4 ADD PUSH2 0xECB SWAP2 SWAP1 PUSH2 0x131D JUMP JUMPDEST PUSH1 0x20 PUSH1 0x40 MLOAD DUP1 DUP4 SUB DUP2 DUP7 GAS STATICCALL ISZERO DUP1 ISZERO PUSH2 0xEE8 JUMPI RETURNDATASIZE PUSH1 0x0 DUP1 RETURNDATACOPY RETURNDATASIZE PUSH1 0x0 REVERT JUMPDEST POP POP POP POP PUSH1 0x40 MLOAD RETURNDATASIZE PUSH1 0x1F NOT PUSH1 0x1F DUP3 ADD AND DUP3 ADD DUP1 PUSH1 0x40 MSTORE POP DUP2 ADD SWAP1 PUSH2 0xF0C SWAP2 SWAP1 PUSH2 0x1846 JUMP JUMPDEST DUP8 DUP6 DUP2 MLOAD DUP2 LT PUSH2 0xF1F JUMPI PUSH2 0xF1E PUSH2 0x14D5 JUMP JUMPDEST JUMPDEST PUSH1 0x20 MUL PUSH1 0x20 ADD ADD DUP2 DUP2 MSTORE POP POP DUP2 DUP2 DUP2 MLOAD DUP2 LT PUSH2 0xF3E JUMPI PUSH2 0xF3D PUSH2 0x14D5 JUMP JUMPDEST JUMPDEST PUSH1 0x20 MUL PUSH1 0x20 ADD ADD MLOAD PUSH1 0x60 ADD MLOAD DUP7 DUP6 DUP2 MLOAD DUP2 LT PUSH2 0xF5D JUMPI PUSH2 0xF5C PUSH2 0x14D5 JUMP JUMPDEST JUMPDEST PUSH1 0x20 MUL PUSH1 0x20 ADD ADD SWAP1 PUSH1 0x1 DUP2 GT ISZERO PUSH2 0xF77 JUMPI PUSH2 0xF76 PUSH2 0x15AF JUMP JUMPDEST JUMPDEST SWAP1 DUP2 PUSH1 0x1 DUP2 GT ISZERO PUSH2 0xF8B JUMPI PUSH2 0xF8A PUSH2 0x15AF JUMP JUMPDEST JUMPDEST DUP2 MSTORE POP POP DUP2 DUP2 DUP2 MLOAD DUP2 LT PUSH2 0xFA2 JUMPI PUSH2 0xFA1 PUSH2 0x14D5 JUMP JUMPDEST JUMPDEST PUSH1 0x20 MUL PUSH1 0x20 ADD ADD MLOAD PUSH1 0x40 ADD MLOAD DUP6 DUP6 DUP2 MLOAD DUP2 LT PUSH2 0xFC1 JUMPI PUSH2 0xFC0 PUSH2 0x14D5 JUMP JUMPDEST JUMPDEST PUSH1 0x20 MUL PUSH1 0x20 ADD ADD DUP2 DUP2 MSTORE POP POP DUP4 DUP1 PUSH2 0xFD8 SWAP1 PUSH2 0x1533 JUMP JUMPDEST SWAP5 POP POP DUP1 DUP1 PUSH2 0xFE6 SWAP1 PUSH2 0x1533 JUMP JUMPDEST SWAP2 POP POP PUSH2 0xD32 JUMP JUMPDEST POP POP DUP1 DUP1 PUSH2 0xFFB SWAP1 PUSH2 0x1533 JUMP JUMPDEST SWAP2 POP POP PUSH2 0xC3E JUMP JUMPDEST POP PUSH32 0xAC2464686F2977050EC21344DDEFE5E5E6873858CC88A17DB6C72D8B5285675B DUP7 DUP7 DUP7 DUP7 DUP7 PUSH1 0x40 MLOAD PUSH2 0x103B SWAP6 SWAP5 SWAP4 SWAP3 SWAP2 SWAP1 PUSH2 0x1DD0 JUMP JUMPDEST PUSH1 0x40 MLOAD DUP1 SWAP2 SUB SWAP1 LOG1 POP POP POP POP POP POP JUMP JUMPDEST PUSH1 0x40 MLOAD DUP1 PUSH1 0x80 ADD PUSH1 0x40 MSTORE DUP1 PUSH1 0x0 DUP2 MSTORE PUSH1 0x20 ADD PUSH1 0x0 DUP2 MSTORE PUSH1 0x20 ADD PUSH1 0x0 DUP2 MSTORE PUSH1 0x20 ADD PUSH1 0x0 PUSH1 0x1 DUP2 GT ISZERO PUSH2 0x107F JUMPI PUSH2 0x107E PUSH2 0x15AF JUMP JUMPDEST JUMPDEST DUP2 MSTORE POP SWAP1 JUMP JUMPDEST PUSH1 0x0 PUSH1 0x40 MLOAD SWAP1 POP SWAP1 JUMP JUMPDEST PUSH1 0x0 DUP1 REVERT JUMPDEST PUSH1 0x0 DUP1 REVERT JUMPDEST PUSH1 0x0 DUP2 SWAP1 POP SWAP2 SWAP1 POP JUMP JUMPDEST PUSH2 0x10AC DUP2 PUSH2 0x1099 JUMP JUMPDEST DUP2 EQ PUSH2 0x10B7 JUMPI PUSH1 0x0 DUP1 REVERT JUMPDEST POP JUMP JUMPDEST PUSH1 0x0 DUP2 CALLDATALOAD SWAP1 POP PUSH2 0x10C9 DUP2 PUSH2 0x10A3 JUMP JUMPDEST SWAP3 SWAP2 POP POP JUMP JUMPDEST PUSH1 0x0 DUP1 PUSH1 0x40 DUP4 DUP6 SUB SLT ISZERO PUSH2 0x10E6 JUMPI PUSH2 0x10E5 PUSH2 0x108F JUMP JUMPDEST JUMPDEST PUSH1 0x0 PUSH2 0x10F4 DUP6 DUP3 DUP7 ADD PUSH2 0x10BA JUMP JUMPDEST SWAP3 POP POP PUSH1 0x20 PUSH2 0x1105 DUP6 DUP3 DUP7 ADD PUSH2 0x10BA JUMP JUMPDEST SWAP2 POP POP SWAP3 POP SWAP3 SWAP1 POP JUMP JUMPDEST PUSH1 0x0 DUP2 ISZERO ISZERO SWAP1 POP SWAP2 SWAP1 POP JUMP JUMPDEST PUSH2 0x1124 DUP2 PUSH2 0x110F JUMP JUMPDEST DUP3 MSTORE POP POP JUMP JUMPDEST PUSH1 0x0 PUSH1 0x20 DUP3 ADD SWAP1 POP PUSH2 0x113F PUSH1 0x0 DUP4 ADD DUP5 PUSH2 0x111B JUMP JUMPDEST SWAP3 SWAP2 POP POP JUMP JUMPDEST PUSH1 0x0 DUP1 REVERT JUMPDEST PUSH1 0x0 DUP1 REVERT JUMPDEST PUSH1 0x0 PUSH1 0x1F NOT PUSH1 0x1F DUP4 ADD AND SWAP1 POP SWAP2 SWAP1 POP JUMP JUMPDEST PUSH32 0x4E487B7100000000000000000000000000000000000000000000000000000000 PUSH1 0x0 MSTORE PUSH1 0x41 PUSH1 0x4 MSTORE PUSH1 0x24 PUSH1 0x0 REVERT JUMPDEST PUSH2 0x1198 DUP3 PUSH2 0x114F JUMP JUMPDEST DUP2 ADD DUP2 DUP2 LT PUSH8 0xFFFFFFFFFFFFFFFF DUP3 GT OR ISZERO PUSH2 0x11B7 JUMPI PUSH2 0x11B6 PUSH2 0x1160 JUMP JUMPDEST JUMPDEST DUP1 PUSH1 0x40 MSTORE POP POP POP JUMP JUMPDEST PUSH1 0x0 PUSH2 0x11CA PUSH2 0x1085 JUMP JUMPDEST SWAP1 POP PUSH2 0x11D6 DUP3 DUP3 PUSH2 0x118F JUMP JUMPDEST SWAP2 SWAP1 POP JUMP JUMPDEST PUSH1 0x0 PUSH8 0xFFFFFFFFFFFFFFFF DUP3 GT ISZERO PUSH2 0x11F6 JUMPI PUSH2 0x11F5 PUSH2 0x1160 JUMP JUMPDEST JUMPDEST PUSH2 0x11FF DUP3 PUSH2 0x114F JUMP JUMPDEST SWAP1 POP PUSH1 0x20 DUP2 ADD SWAP1 POP SWAP2 SWAP1 POP JUMP JUMPDEST DUP3 DUP2 DUP4 CALLDATACOPY PUSH1 0x0 DUP4 DUP4 ADD MSTORE POP POP POP JUMP JUMPDEST PUSH1 0x0 PUSH2 0x122E PUSH2 0x1229 DUP5 PUSH2 0x11DB JUMP JUMPDEST PUSH2 0x11C0 JUMP JUMPDEST SWAP1 POP DUP3 DUP2 MSTORE PUSH1 0x20 DUP2 ADD DUP5 DUP5 DUP5 ADD GT ISZERO PUSH2 0x124A JUMPI PUSH2 0x1249 PUSH2 0x114A JUMP JUMPDEST JUMPDEST PUSH2 0x1255 DUP5 DUP3 DUP6 PUSH2 0x120C JUMP JUMPDEST POP SWAP4 SWAP3 POP POP POP JUMP JUMPDEST PUSH1 0x0 DUP3 PUSH1 0x1F DUP4 ADD SLT PUSH2 0x1272 JUMPI PUSH2 0x1271 PUSH2 0x1145 JUMP JUMPDEST JUMPDEST DUP2 CALLDATALOAD PUSH2 0x1282 DUP5 DUP3 PUSH1 0x20 DUP7 ADD PUSH2 0x121B JUMP JUMPDEST SWAP2 POP POP SWAP3 SWAP2 POP POP JUMP JUMPDEST PUSH1 0x0 DUP1 PUSH1 0x0 DUP1 PUSH1 0x80 DUP6 DUP8 SUB SLT ISZERO PUSH2 0x12A5 JUMPI PUSH2 0x12A4 PUSH2 0x108F JUMP JUMPDEST JUMPDEST PUSH1 0x0 PUSH2 0x12B3 DUP8 DUP3 DUP9 ADD PUSH2 0x10BA JUMP JUMPDEST SWAP5 POP POP PUSH1 0x20 DUP6 ADD CALLDATALOAD PUSH8 0xFFFFFFFFFFFFFFFF DUP2 GT ISZERO PUSH2 0x12D4 JUMPI PUSH2 0x12D3 PUSH2 0x1094 JUMP JUMPDEST JUMPDEST PUSH2 0x12E0 DUP8 DUP3 DUP9 ADD PUSH2 0x125D JUMP JUMPDEST SWAP4 POP POP PUSH1 0x40 PUSH2 0x12F1 DUP8 DUP3 DUP9 ADD PUSH2 0x10BA JUMP JUMPDEST SWAP3 POP POP PUSH1 0x60 PUSH2 0x1302 DUP8 DUP3 DUP9 ADD PUSH2 0x10BA JUMP JUMPDEST SWAP2 POP POP SWAP3 SWAP6 SWAP2 SWAP5 POP SWAP3 POP JUMP JUMPDEST PUSH2 0x1317 DUP2 PUSH2 0x1099 JUMP JUMPDEST DUP3 MSTORE POP POP JUMP JUMPDEST PUSH1 0x0 PUSH1 0x20 DUP3 ADD SWAP1 POP PUSH2 0x1332 PUSH1 0x0 DUP4 ADD DUP5 PUSH2 0x130E JUMP JUMPDEST SWAP3 SWAP2 POP POP JUMP JUMPDEST PUSH1 0x0 DUP1 PUSH1 0x0 PUSH1 0x60 DUP5 DUP7 SUB SLT ISZERO PUSH2 0x1351 JUMPI PUSH2 0x1350 PUSH2 0x108F JUMP JUMPDEST JUMPDEST PUSH1 0x0 PUSH2 0x135F DUP7 DUP3 DUP8 ADD PUSH2 0x10BA JUMP JUMPDEST SWAP4 POP POP PUSH1 0x20 PUSH2 0x1370 DUP7 DUP3 DUP8 ADD PUSH2 0x10BA JUMP JUMPDEST SWAP3 POP POP PUSH1 0x40 DUP5 ADD CALLDATALOAD PUSH8 0xFFFFFFFFFFFFFFFF DUP2 GT ISZERO PUSH2 0x1391 JUMPI PUSH2 0x1390 PUSH2 0x1094 JUMP JUMPDEST JUMPDEST PUSH2 0x139D DUP7 DUP3 DUP8 ADD PUSH2 0x125D JUMP JUMPDEST SWAP2 POP POP SWAP3 POP SWAP3 POP SWAP3 JUMP JUMPDEST PUSH1 0x0 PUSH20 0xFFFFFFFFFFFFFFFFFFFFFFFFFFFFFFFFFFFFFFFF DUP3 AND SWAP1 POP SWAP2 SWAP1 POP JUMP JUMPDEST PUSH1 0x0 PUSH2 0x13D2 DUP3 PUSH2 0x13A7 JUMP JUMPDEST SWAP1 POP SWAP2 SWAP1 POP JUMP JUMPDEST PUSH2 0x13E2 DUP2 PUSH2 0x13C7 JUMP JUMPDEST DUP2 EQ PUSH2 0x13ED JUMPI PUSH1 0x0 DUP1 REVERT JUMPDEST POP JUMP JUMPDEST PUSH1 0x0 DUP2 MLOAD SWAP1 POP PUSH2 0x13FF DUP2 PUSH2 0x13D9 JUMP JUMPDEST SWAP3 SWAP2 POP POP JUMP JUMPDEST PUSH1 0x0 PUSH1 0x20 DUP3 DUP5 SUB SLT ISZERO PUSH2 0x141B JUMPI PUSH2 0x141A PUSH2 0x108F JUMP JUMPDEST JUMPDEST PUSH1 0x0 PUSH2 0x1429 DUP5 DUP3 DUP6 ADD PUSH2 0x13F0 JUMP JUMPDEST SWAP2 POP POP SWAP3 SWAP2 POP POP JUMP JUMPDEST PUSH1 0x0 DUP3 DUP3 MSTORE PUSH1 0x20 DUP3 ADD SWAP1 POP SWAP3 SWAP2 POP POP JUMP JUMPDEST PUSH32 0x596F7520617265206E6F7420616C6C6F77656420746F206C6973742074686520 PUSH1 0x0 DUP3 ADD MSTORE PUSH32 0x70726F6475637421000000000000000000000000000000000000000000000000 PUSH1 0x20 DUP3 ADD MSTORE POP JUMP JUMPDEST PUSH1 0x0 PUSH2 0x149F PUSH1 0x28 DUP4 PUSH2 0x1432 JUMP JUMPDEST SWAP2 POP PUSH2 0x14AA DUP3 PUSH2 0x1443 JUMP JUMPDEST PUSH1 0x40 DUP3 ADD SWAP1 POP SWAP2 SWAP1 POP JUMP JUMPDEST PUSH1 0x0 PUSH1 0x20 DUP3 ADD SWAP1 POP DUP2 DUP2 SUB PUSH1 0x0 DUP4 ADD MSTORE PUSH2 0x14CE DUP2 PUSH2 0x1492 JUMP JUMPDEST SWAP1 POP SWAP2 SWAP1 POP JUMP JUMPDEST PUSH32 0x4E487B7100000000000000000000000000000000000000000000000000000000 PUSH1 0x0 MSTORE PUSH1 0x32 PUSH1 0x4 MSTORE PUSH1 0x24 PUSH1 0x0 REVERT JUMPDEST PUSH32 0x4E487B7100000000000000000000000000000000000000000000000000000000 PUSH1 0x0 MSTORE PUSH1 0x11 PUSH1 0x4 MSTORE PUSH1 0x24 PUSH1 0x0 REVERT JUMPDEST PUSH1 0x0 PUSH2 0x153E DUP3 PUSH2 0x1099 JUMP JUMPDEST SWAP2 POP PUSH32 0xFFFFFFFFFFFFFFFFFFFFFFFFFFFFFFFFFFFFFFFFFFFFFFFFFFFFFFFFFFFFFFFF DUP3 SUB PUSH2 0x1570 JUMPI PUSH2 0x156F PUSH2 0x1504 JUMP JUMPDEST JUMPDEST PUSH1 0x1 DUP3 ADD SWAP1 POP SWAP2 SWAP1 POP JUMP JUMPDEST PUSH1 0x0 PUSH2 0x1586 DUP3 PUSH2 0x1099 JUMP JUMPDEST SWAP2 POP PUSH2 0x1591 DUP4 PUSH2 0x1099 JUMP JUMPDEST SWAP3 POP DUP3 DUP3 SUB SWAP1 POP DUP2 DUP2 GT ISZERO PUSH2 0x15A9 JUMPI PUSH2 0x15A8 PUSH2 0x1504 JUMP JUMPDEST JUMPDEST SWAP3 SWAP2 POP POP JUMP JUMPDEST PUSH32 0x4E487B7100000000000000000000000000000000000000000000000000000000 PUSH1 0x0 MSTORE PUSH1 0x21 PUSH1 0x4 MSTORE PUSH1 0x24 PUSH1 0x0 REVERT JUMPDEST PUSH32 0x4E487B7100000000000000000000000000000000000000000000000000000000 PUSH1 0x0 MSTORE PUSH1 0x31 PUSH1 0x4 MSTORE PUSH1 0x24 PUSH1 0x0 REVERT JUMPDEST PUSH32 0x6163636964656E74000000000000000000000000000000000000000000000000 PUSH1 0x0 DUP3 ADD MSTORE POP JUMP JUMPDEST PUSH1 0x0 PUSH2 0x1643 PUSH1 0x8 DUP4 PUSH2 0x1432 JUMP JUMPDEST SWAP2 POP PUSH2 0x164E DUP3 PUSH2 0x160D JUMP JUMPDEST PUSH1 0x20 DUP3 ADD SWAP1 POP SWAP2 SWAP1 POP JUMP JUMPDEST PUSH1 0x0 PUSH1 0x20 DUP3 ADD SWAP1 POP DUP2 DUP2 SUB PUSH1 0x0 DUP4 ADD MSTORE PUSH2 0x1672 DUP2 PUSH2 0x1636 JUMP JUMPDEST SWAP1 POP SWAP2 SWAP1 POP JUMP JUMPDEST PUSH1 0x0 DUP2 MLOAD SWAP1 POP SWAP2 SWAP1 POP JUMP JUMPDEST PUSH1 0x0 JUMPDEST DUP4 DUP2 LT ISZERO PUSH2 0x16A2 JUMPI DUP1 DUP3 ADD MLOAD DUP2 DUP5 ADD MSTORE PUSH1 0x20 DUP2 ADD SWAP1 POP PUSH2 0x1687 JUMP JUMPDEST PUSH1 0x0 DUP5 DUP5 ADD MSTORE POP POP POP POP JUMP JUMPDEST PUSH1 0x0 PUSH2 0x16B9 DUP3 PUSH2 0x1679 JUMP JUMPDEST PUSH2 0x16C3 DUP2 DUP6 PUSH2 0x1432 JUMP JUMPDEST SWAP4 POP PUSH2 0x16D3 DUP2 DUP6 PUSH1 0x20 DUP7 ADD PUSH2 0x1684 JUMP JUMPDEST PUSH2 0x16DC DUP2 PUSH2 0x114F JUMP JUMPDEST DUP5 ADD SWAP2 POP POP SWAP3 SWAP2 POP POP JUMP JUMPDEST PUSH1 0x0 PUSH1 0x20 DUP3 ADD SWAP1 POP DUP2 DUP2 SUB PUSH1 0x0 DUP4 ADD MSTORE PUSH2 0x1701 DUP2 DUP5 PUSH2 0x16AE JUMP JUMPDEST SWAP1 POP SWAP3 SWAP2 POP POP JUMP JUMPDEST PUSH32 0x6C69666500000000000000000000000000000000000000000000000000000000 PUSH1 0x0 DUP3 ADD MSTORE POP JUMP JUMPDEST PUSH1 0x0 PUSH2 0x173F PUSH1 0x4 DUP4 PUSH2 0x1432 JUMP JUMPDEST SWAP2 POP PUSH2 0x174A DUP3 PUSH2 0x1709 JUMP JUMPDEST PUSH1 0x20 DUP3 ADD SWAP1 POP SWAP2 SWAP1 POP JUMP JUMPDEST PUSH1 0x0 PUSH1 0x20 DUP3 ADD SWAP1 POP DUP2 DUP2 SUB PUSH1 0x0 DUP4 ADD MSTORE PUSH2 0x176E DUP2 PUSH2 0x1732 JUMP JUMPDEST SWAP1 POP SWAP2 SWAP1 POP JUMP JUMPDEST PUSH32 0x596F752073686F756C6420696E7075742076616C69642070726F647563742074 PUSH1 0x0 DUP3 ADD MSTORE PUSH32 0x7970652C2065672E206163636964656E74206F72206C69666521000000000000 PUSH1 0x20 DUP3 ADD MSTORE POP JUMP JUMPDEST PUSH1 0x0 PUSH2 0x17D1 PUSH1 0x3A DUP4 PUSH2 0x1432 JUMP JUMPDEST SWAP2 POP PUSH2 0x17DC DUP3 PUSH2 0x1775 JUMP JUMPDEST PUSH1 0x40 DUP3 ADD SWAP1 POP SWAP2 SWAP1 POP JUMP JUMPDEST PUSH1 0x0 PUSH1 0x20 DUP3 ADD SWAP1 POP DUP2 DUP2 SUB PUSH1 0x0 DUP4 ADD MSTORE PUSH2 0x1800 DUP2 PUSH2 0x17C4 JUMP JUMPDEST SWAP1 POP SWAP2 SWAP1 POP JUMP JUMPDEST PUSH2 0x1810 DUP2 PUSH2 0x13C7 JUMP JUMPDEST DUP3 MSTORE POP POP JUMP JUMPDEST PUSH1 0x0 PUSH1 0x20 DUP3 ADD SWAP1 POP PUSH2 0x182B PUSH1 0x0 DUP4 ADD DUP5 PUSH2 0x1807 JUMP JUMPDEST SWAP3 SWAP2 POP POP JUMP JUMPDEST PUSH1 0x0 DUP2 MLOAD SWAP1 POP PUSH2 0x1840 DUP2 PUSH2 0x10A3 JUMP JUMPDEST SWAP3 SWAP2 POP POP JUMP JUMPDEST PUSH1 0x0 PUSH1 0x20 DUP3 DUP5 SUB SLT ISZERO PUSH2 0x185C JUMPI PUSH2 0x185B PUSH2 0x108F JUMP JUMPDEST JUMPDEST PUSH1 0x0 PUSH2 0x186A DUP5 DUP3 DUP6 ADD PUSH2 0x1831 JUMP JUMPDEST SWAP2 POP POP SWAP3 SWAP2 POP POP JUMP JUMPDEST PUSH32 0x4E6F742072656769737465726564210000000000000000000000000000000000 PUSH1 0x0 DUP3 ADD MSTORE POP JUMP JUMPDEST PUSH1 0x0 PUSH2 0x18A9 PUSH1 0xF DUP4 PUSH2 0x1432 JUMP JUMPDEST SWAP2 POP PUSH2 0x18B4 DUP3 PUSH2 0x1873 JUMP JUMPDEST PUSH1 0x20 DUP3 ADD SWAP1 POP SWAP2 SWAP1 POP JUMP JUMPDEST PUSH1 0x0 PUSH1 0x20 DUP3 ADD SWAP1 POP DUP2 DUP2 SUB PUSH1 0x0 DUP4 ADD MSTORE PUSH2 0x18D8 DUP2 PUSH2 0x189C JUMP JUMPDEST SWAP1 POP SWAP2 SWAP1 POP JUMP JUMPDEST PUSH32 0x54686520636F6D70616E792061726520657870657269656E63696E6720686967 PUSH1 0x0 DUP3 ADD MSTORE PUSH32 0x6820766F6C756D65206F662072657175657374732C20706C6561736520636F6D PUSH1 0x20 DUP3 ADD MSTORE PUSH32 0x65206261636B206C617465722100000000000000000000000000000000000000 PUSH1 0x40 DUP3 ADD MSTORE POP JUMP JUMPDEST PUSH1 0x0 PUSH2 0x1961 PUSH1 0x4D DUP4 PUSH2 0x1432 JUMP JUMPDEST SWAP2 POP PUSH2 0x196C DUP3 PUSH2 0x18DF JUMP JUMPDEST PUSH1 0x60 DUP3 ADD SWAP1 POP SWAP2 SWAP1 POP JUMP JUMPDEST PUSH1 0x0 PUSH1 0x20 DUP3 ADD SWAP1 POP DUP2 DUP2 SUB PUSH1 0x0 DUP4 ADD MSTORE PUSH2 0x1990 DUP2 PUSH2 0x1954 JUMP JUMPDEST SWAP1 POP SWAP2 SWAP1 POP JUMP JUMPDEST PUSH1 0x0 PUSH1 0x80 DUP3 ADD SWAP1 POP PUSH2 0x19AC PUSH1 0x0 DUP4 ADD DUP8 PUSH2 0x130E JUMP JUMPDEST PUSH2 0x19B9 PUSH1 0x20 DUP4 ADD DUP7 PUSH2 0x130E JUMP JUMPDEST DUP2 DUP2 SUB PUSH1 0x40 DUP4 ADD MSTORE PUSH2 0x19CB DUP2 DUP6 PUSH2 0x16AE JUMP JUMPDEST SWAP1 POP DUP2 DUP2 SUB PUSH1 0x60 DUP4 ADD MSTORE PUSH2 0x19DF DUP2 DUP5 PUSH2 0x16AE JUMP JUMPDEST SWAP1 POP SWAP6 SWAP5 POP POP POP POP POP JUMP JUMPDEST PUSH2 0x19F3 DUP2 PUSH2 0x110F JUMP JUMPDEST DUP2 EQ PUSH2 0x19FE JUMPI PUSH1 0x0 DUP1 REVERT JUMPDEST POP JUMP JUMPDEST PUSH1 0x0 DUP2 MLOAD SWAP1 POP PUSH2 0x1A10 DUP2 PUSH2 0x19EA JUMP JUMPDEST SWAP3 SWAP2 POP POP JUMP JUMPDEST PUSH1 0x0 DUP1 PUSH1 0x40 DUP4 DUP6 SUB SLT ISZERO PUSH2 0x1A2D JUMPI PUSH2 0x1A2C PUSH2 0x108F JUMP JUMPDEST JUMPDEST PUSH1 0x0 PUSH2 0x1A3B DUP6 DUP3 DUP7 ADD PUSH2 0x1A01 JUMP JUMPDEST SWAP3 POP POP PUSH1 0x20 PUSH2 0x1A4C DUP6 DUP3 DUP7 ADD PUSH2 0x1831 JUMP JUMPDEST SWAP2 POP POP SWAP3 POP SWAP3 SWAP1 POP JUMP JUMPDEST PUSH1 0x0 PUSH2 0x1A69 PUSH2 0x1A64 DUP5 PUSH2 0x11DB JUMP JUMPDEST PUSH2 0x11C0 JUMP JUMPDEST SWAP1 POP DUP3 DUP2 MSTORE PUSH1 0x20 DUP2 ADD DUP5 DUP5 DUP5 ADD GT ISZERO PUSH2 0x1A85 JUMPI PUSH2 0x1A84 PUSH2 0x114A JUMP JUMPDEST JUMPDEST PUSH2 0x1A90 DUP5 DUP3 DUP6 PUSH2 0x1684 JUMP JUMPDEST POP SWAP4 SWAP3 POP POP POP JUMP JUMPDEST PUSH1 0x0 DUP3 PUSH1 0x1F DUP4 ADD SLT PUSH2 0x1AAD JUMPI PUSH2 0x1AAC PUSH2 0x1145 JUMP JUMPDEST JUMPDEST DUP2 MLOAD PUSH2 0x1ABD DUP5 DUP3 PUSH1 0x20 DUP7 ADD PUSH2 0x1A56 JUMP JUMPDEST SWAP2 POP POP SWAP3 SWAP2 POP POP JUMP JUMPDEST PUSH1 0x0 PUSH1 0x20 DUP3 DUP5 SUB SLT ISZERO PUSH2 0x1ADC JUMPI PUSH2 0x1ADB PUSH2 0x108F JUMP JUMPDEST JUMPDEST PUSH1 0x0 DUP3 ADD MLOAD PUSH8 0xFFFFFFFFFFFFFFFF DUP2 GT ISZERO PUSH2 0x1AFA JUMPI PUSH2 0x1AF9 PUSH2 0x1094 JUMP JUMPDEST JUMPDEST PUSH2 0x1B06 DUP5 DUP3 DUP6 ADD PUSH2 0x1A98 JUMP JUMPDEST SWAP2 POP POP SWAP3 SWAP2 POP POP JUMP JUMPDEST PUSH1 0x0 DUP2 MLOAD SWAP1 POP SWAP2 SWAP1 POP JUMP JUMPDEST PUSH1 0x0 DUP3 DUP3 MSTORE PUSH1 0x20 DUP3 ADD SWAP1 POP SWAP3 SWAP2 POP POP JUMP JUMPDEST PUSH1 0x0 DUP2 SWAP1 POP PUSH1 0x20 DUP3 ADD SWAP1 POP SWAP2 SWAP1 POP JUMP JUMPDEST PUSH2 0x1B44 DUP2 PUSH2 0x1099 JUMP JUMPDEST DUP3 MSTORE POP POP JUMP JUMPDEST PUSH1 0x0 PUSH2 0x1B56 DUP4 DUP4 PUSH2 0x1B3B JUMP JUMPDEST PUSH1 0x20 DUP4 ADD SWAP1 POP SWAP3 SWAP2 POP POP JUMP JUMPDEST PUSH1 0x0 PUSH1 0x20 DUP3 ADD SWAP1 POP SWAP2 SWAP1 POP JUMP JUMPDEST PUSH1 0x0 PUSH2 0x1B7A DUP3 PUSH2 0x1B0F JUMP JUMPDEST PUSH2 0x1B84 DUP2 DUP6 PUSH2 0x1B1A JUMP JUMPDEST SWAP4 POP PUSH2 0x1B8F DUP4 PUSH2 0x1B2B JUMP JUMPDEST DUP1 PUSH1 0x0 JUMPDEST DUP4 DUP2 LT ISZERO PUSH2 0x1BC0 JUMPI DUP2 MLOAD PUSH2 0x1BA7 DUP9 DUP3 PUSH2 0x1B4A JUMP JUMPDEST SWAP8 POP PUSH2 0x1BB2 DUP4 PUSH2 0x1B62 JUMP JUMPDEST SWAP3 POP POP PUSH1 0x1 DUP2 ADD SWAP1 POP PUSH2 0x1B93 JUMP JUMPDEST POP DUP6 SWAP4 POP POP POP POP SWAP3 SWAP2 POP POP JUMP JUMPDEST PUSH1 0x0 DUP2 MLOAD SWAP1 POP SWAP2 SWAP1 POP JUMP JUMPDEST PUSH1 0x0 DUP3 DUP3 MSTORE PUSH1 0x20 DUP3 ADD SWAP1 POP SWAP3 SWAP2 POP POP JUMP JUMPDEST PUSH1 0x0 DUP2 SWAP1 POP PUSH1 0x20 DUP3 ADD SWAP1 POP SWAP2 SWAP1 POP JUMP JUMPDEST PUSH1 0x0 DUP3 DUP3 MSTORE PUSH1 0x20 DUP3 ADD SWAP1 POP SWAP3 SWAP2 POP POP JUMP JUMPDEST PUSH1 0x0 PUSH2 0x1C15 DUP3 PUSH2 0x1679 JUMP JUMPDEST PUSH2 0x1C1F DUP2 DUP6 PUSH2 0x1BF9 JUMP JUMPDEST SWAP4 POP PUSH2 0x1C2F DUP2 DUP6 PUSH1 0x20 DUP7 ADD PUSH2 0x1684 JUMP JUMPDEST PUSH2 0x1C38 DUP2 PUSH2 0x114F JUMP JUMPDEST DUP5 ADD SWAP2 POP POP SWAP3 SWAP2 POP POP JUMP JUMPDEST PUSH1 0x0 PUSH2 0x1C4F DUP4 DUP4 PUSH2 0x1C0A JUMP JUMPDEST SWAP1 POP SWAP3 SWAP2 POP POP JUMP JUMPDEST PUSH1 0x0 PUSH1 0x20 DUP3 ADD SWAP1 POP SWAP2 SWAP1 POP JUMP JUMPDEST PUSH1 0x0 PUSH2 0x1C6F DUP3 PUSH2 0x1BCD JUMP JUMPDEST PUSH2 0x1C79 DUP2 DUP6 PUSH2 0x1BD8 JUMP JUMPDEST SWAP4 POP DUP4 PUSH1 0x20 DUP3 MUL DUP6 ADD PUSH2 0x1C8B DUP6 PUSH2 0x1BE9 JUMP JUMPDEST DUP1 PUSH1 0x0 JUMPDEST DUP6 DUP2 LT ISZERO PUSH2 0x1CC7 JUMPI DUP5 DUP5 SUB DUP10 MSTORE DUP2 MLOAD PUSH2 0x1CA8 DUP6 DUP3 PUSH2 0x1C43 JUMP JUMPDEST SWAP5 POP PUSH2 0x1CB3 DUP4 PUSH2 0x1C57 JUMP JUMPDEST SWAP3 POP PUSH1 0x20 DUP11 ADD SWAP10 POP POP PUSH1 0x1 DUP2 ADD SWAP1 POP PUSH2 0x1C8F JUMP JUMPDEST POP DUP3 SWAP8 POP DUP8 SWAP6 POP POP POP POP POP POP SWAP3 SWAP2 POP POP JUMP JUMPDEST PUSH1 0x0 DUP2 MLOAD SWAP1 POP SWAP2 SWAP1 POP JUMP JUMPDEST PUSH1 0x0 DUP3 DUP3 MSTORE PUSH1 0x20 DUP3 ADD SWAP1 POP SWAP3 SWAP2 POP POP JUMP JUMPDEST PUSH1 0x0 DUP2 SWAP1 POP PUSH1 0x20 DUP3 ADD SWAP1 POP SWAP2 SWAP1 POP JUMP JUMPDEST PUSH1 0x2 DUP2 LT PUSH2 0x1D16 JUMPI PUSH2 0x1D15 PUSH2 0x15AF JUMP JUMPDEST JUMPDEST POP JUMP JUMPDEST PUSH1 0x0 DUP2 SWAP1 POP PUSH2 0x1D27 DUP3 PUSH2 0x1D05 JUMP JUMPDEST SWAP2 SWAP1 POP JUMP JUMPDEST PUSH1 0x0 PUSH2 0x1D37 DUP3 PUSH2 0x1D19 JUMP JUMPDEST SWAP1 POP SWAP2 SWAP1 POP JUMP JUMPDEST PUSH2 0x1D47 DUP2 PUSH2 0x1D2C JUMP JUMPDEST DUP3 MSTORE POP POP JUMP JUMPDEST PUSH1 0x0 PUSH2 0x1D59 DUP4 DUP4 PUSH2 0x1D3E JUMP JUMPDEST PUSH1 0x20 DUP4 ADD SWAP1 POP SWAP3 SWAP2 POP POP JUMP JUMPDEST PUSH1 0x0 PUSH1 0x20 DUP3 ADD SWAP1 POP SWAP2 SWAP1 POP JUMP JUMPDEST PUSH1 0x0 PUSH2 0x1D7D DUP3 PUSH2 0x1CD9 JUMP JUMPDEST PUSH2 0x1D87 DUP2 DUP6 PUSH2 0x1CE4 JUMP JUMPDEST SWAP4 POP PUSH2 0x1D92 DUP4 PUSH2 0x1CF5 JUMP JUMPDEST DUP1 PUSH1 0x0 JUMPDEST DUP4 DUP2 LT ISZERO PUSH2 0x1DC3 JUMPI DUP2 MLOAD PUSH2 0x1DAA DUP9 DUP3 PUSH2 0x1D4D JUMP JUMPDEST SWAP8 POP PUSH2 0x1DB5 DUP4 PUSH2 0x1D65 JUMP JUMPDEST SWAP3 POP POP PUSH1 0x1 DUP2 ADD SWAP1 POP PUSH2 0x1D96 JUMP JUMPDEST POP DUP6 SWAP4 POP POP POP POP SWAP3 SWAP2 POP POP JUMP JUMPDEST PUSH1 0x0 PUSH1 0xA0 DUP3 ADD SWAP1 POP DUP2 DUP2 SUB PUSH1 0x0 DUP4 ADD MSTORE PUSH2 0x1DEA DUP2 DUP9 PUSH2 0x1B6F JUMP JUMPDEST SWAP1 POP DUP2 DUP2 SUB PUSH1 0x20 DUP4 ADD MSTORE PUSH2 0x1DFE DUP2 DUP8 PUSH2 0x1C64 JUMP JUMPDEST SWAP1 POP DUP2 DUP2 SUB PUSH1 0x40 DUP4 ADD MSTORE PUSH2 0x1E12 DUP2 DUP7 PUSH2 0x1B6F JUMP JUMPDEST SWAP1 POP DUP2 DUP2 SUB PUSH1 0x60 DUP4 ADD MSTORE PUSH2 0x1E26 DUP2 DUP6 PUSH2 0x1D72 JUMP JUMPDEST SWAP1 POP DUP2 DUP2 SUB PUSH1 0x80 DUP4 ADD MSTORE PUSH2 0x1E3A DUP2 DUP5 PUSH2 0x1B6F JUMP JUMPDEST SWAP1 POP SWAP7 SWAP6 POP POP POP POP POP POP JUMP INVALID LOG2 PUSH5 0x6970667358 0x22 SLT KECCAK256 0x2B DELEGATECALL JUMP 0xF PUSH13 0xB815790035997B931108E26F25 0xB2 PUSH4 0xF41C1438 BYTE PUSH21 0x88CF059387AF64736F6C6343000813003300000000 "
		},
		"gasEstimates": {
			"creation": {
				"codeDepositCost": "1560800",
				"executionCost": "infinite",
				"totalCost": "infinite"
			},
			"external": {
				"publishProduct(uint256,string,uint256,uint256)": "infinite",
				"viewProducts()": "infinite",
				"wantToBuy(uint256,uint256,string)": "infinite",
				"withdrawProduct(uint256,uint256)": "infinite"
			},
			"internal": {
				"getProductInfo(struct InsuranceMarket.Product memory)": "infinite"
			}
		},
		"methodIdentifiers": {
			"publishProduct(uint256,string,uint256,uint256)": "cb0c16b6",
			"viewProducts()": "f9f24da1",
			"wantToBuy(uint256,uint256,string)": "da4d089e",
			"withdrawProduct(uint256,uint256)": "9fe4f440"
		}
	},
	"abi": [
		{
			"inputs": [
				{
					"internalType": "contract InsuranceCompany",
					"name": "companyAddress",
					"type": "address"
				},
				{
					"internalType": "contract Stakeholder",
					"name": "stakeholderAddress",
					"type": "address"
				}
			],
			"stateMutability": "nonpayable",
			"type": "constructor"
		},
		{
			"anonymous": false,
			"inputs": [],
			"name": "productPublished",
			"type": "event"
		},
		{
			"anonymous": false,
			"inputs": [],
			"name": "productWithdrawedFail",
			"type": "event"
		},
		{
			"anonymous": false,
			"inputs": [],
			"name": "productWithdrawedSucceed",
			"type": "event"
		},
		{
			"anonymous": false,
			"inputs": [],
			"name": "requestFail",
			"type": "event"
		},
		{
			"anonymous": false,
			"inputs": [],
			"name": "requestSucceed",
			"type": "event"
		},
		{
			"anonymous": false,
			"inputs": [
				{
					"indexed": false,
					"internalType": "uint256[]",
					"name": "companyids",
					"type": "uint256[]"
				},
				{
					"indexed": false,
					"internalType": "string[]",
					"name": "companynames",
					"type": "string[]"
				},
				{
					"indexed": false,
					"internalType": "uint256[]",
					"name": "companycredits",
					"type": "uint256[]"
				},
				{
					"indexed": false,
					"internalType": "enum InsuranceMarket.productType[]",
					"name": "producttypes",
					"type": "uint8[]"
				},
				{
					"indexed": false,
					"internalType": "uint256[]",
					"name": "productassured",
					"type": "uint256[]"
				}
			],
			"name": "viewAvailableProducts",
			"type": "event"
		},
		{
			"inputs": [
				{
					"internalType": "uint256",
					"name": "companyId",
					"type": "uint256"
				},
				{
					"internalType": "string",
					"name": "_productType",
					"type": "string"
				},
				{
					"internalType": "uint256",
					"name": "_premium",
					"type": "uint256"
				},
				{
					"internalType": "uint256",
					"name": "_sumAssured",
					"type": "uint256"
				}
			],
			"name": "publishProduct",
			"outputs": [
				{
					"internalType": "uint256",
					"name": "",
					"type": "uint256"
				}
			],
			"stateMutability": "nonpayable",
			"type": "function"
		},
		{
			"inputs": [],
			"name": "viewProducts",
			"outputs": [],
			"stateMutability": "nonpayable",
			"type": "function"
		},
		{
			"inputs": [
				{
					"internalType": "uint256",
					"name": "companyId",
					"type": "uint256"
				},
				{
					"internalType": "uint256",
					"name": "productId",
					"type": "uint256"
				},
				{
					"internalType": "string",
					"name": "contact",
					"type": "string"
				}
			],
			"name": "wantToBuy",
			"outputs": [
				{
					"internalType": "uint256",
					"name": "",
					"type": "uint256"
				}
			],
			"stateMutability": "nonpayable",
			"type": "function"
		},
		{
			"inputs": [
				{
					"internalType": "uint256",
					"name": "companyId",
					"type": "uint256"
				},
				{
					"internalType": "uint256",
					"name": "productId",
					"type": "uint256"
				}
			],
			"name": "withdrawProduct",
			"outputs": [
				{
					"internalType": "bool",
					"name": "",
					"type": "bool"
				}
			],
			"stateMutability": "nonpayable",
			"type": "function"
		}
	]
}