{
	"data": {
		"bytecode": {
			"linkReferences": {},
			"object": "608060405260008055600060025534801561001957600080fd5b50610fd8806100296000396000f3fe608060405234801561001057600080fd5b50600436106101215760003560e01c80636833f200116100ad578063ca00902111610071578063ca00902114610385578063d91f2a0b146103b5578063e0e5c324146103d1578063e22900ff14610401578063f558eb051461043157610121565b80636833f200146102cd578063703849d9146102fd57806385fae6021461031b5780638edd52971461034b578063b7ff5dae1461036957610121565b80633fa3ab26116100f45780633fa3ab26146101d2578063575c2887146102055780635998f7751461023557806359fb49f9146102655780635c622a0e1461029d57610121565b80630386660a146101265780631a1fc3a0146101565780632dd0b64014610172578063302df083146101a2575b600080fd5b610140600480360381019061013b919061092b565b61043b565b60405161014d9190610967565b60405180910390f35b610170600480360381019061016b9190610982565b61045b565b005b61018c600480360381019061018791906109e7565b61047d565b6040516101999190610967565b60405180910390f35b6101bc60048036038101906101b7919061092b565b610489565b6040516101c99190610967565b60405180910390f35b6101ec60048036038101906101e7919061092b565b6104ac565b6040516101fc9493929190610a74565b60405180910390f35b61021f600480360381019061021a919061092b565b6104dc565b60405161022c9190610967565b60405180910390f35b61024f600480360381019061024a919061092b565b61051d565b60405161025c9190610967565b60405180910390f35b61027f600480360381019061027a919061092b565b61053d565b60405161029499989796959493929190610bdc565b60405180910390f35b6102b760048036038101906102b2919061092b565b6105d7565b6040516102c49190610c6c565b60405180910390f35b6102e760048036038101906102e2919061092b565b610604565b6040516102f49190610967565b60405180910390f35b610305610624565b6040516103129190610967565b60405180910390f35b6103356004803603810190610330919061092b565b61062a565b6040516103429190610db4565b60405180910390f35b610353610746565b6040516103609190610967565b60405180910390f35b610383600480360381019061037e9190610df5565b61074c565b005b61039f600480360381019061039a919061092b565b61078e565b6040516103ac9190610967565b60405180910390f35b6103cf60048036038101906103ca9190610982565b6107ae565b005b6103eb60048036038101906103e69190610e35565b610826565b6040516103f89190610967565b60405180910390f35b61041b6004803603810190610416919061092b565b610830565b6040516104289190610967565b60405180910390f35b610439610850565b005b600060016000838152602001908152602001600020600901549050919050565b8160016000838152602001908152602001600020600201600101819055505050565b60009695505050505050565b600060016000838152602001908152602001600020600201600101549050919050565b60036020528060005260406000206000915090508060000154908060010154908060020154908060030154905084565b6000600160008381526020019081526020016000206007015460016000848152602001908152602001600020600601546105169190610ecb565b9050919050565b600060016000838152602001908152602001600020600601549050919050565b600160205280600052604060002060009150905080600001549080600101549080600201604051806080016040529081600082015481526020016001820154815260200160028201548152602001600382015481525050908060060154908060070154908060080160009054906101000a900460ff16908060080160019054906101000a900460ff169080600901549080600a0154905089565b60006001600083815260200190815260200160002060080160019054906101000a900460ff169050919050565b600060016000838152602001908152602001600020600a01549050919050565b60005481565b610632610852565b6001600083815260200190815260200160002060405180610120016040529081600082015481526020016001820154815260200160028201604051806080016040529081600082015481526020016001820154815260200160028201548152602001600382015481525050815260200160068201548152602001600782015481526020016008820160009054906101000a900460ff1660018111156106da576106d9610b1d565b5b60018111156106ec576106eb610b1d565b5b81526020016008820160019054906101000a900460ff16600581111561071557610714610b1d565b5b600581111561072757610726610b1d565b5b815260200160098201548152602001600a820154815250509050919050565b60025481565b816001600083815260200190815260200160002060080160016101000a81548160ff0219169083600581111561078557610784610b1d565b5b02179055505050565b600060036000838152602001908152602001600020600001549050919050565b600060016000838152602001908152602001600020600a015403610807576040517f08c379a00000000000000000000000000000000000000000000000000000000081526004016107fe90610f82565b60405180910390fd5b8160016000838152602001908152602001600020600a01819055505050565b6000949350505050565b600060016000838152602001908152602001600020600101549050919050565b565b60405180610120016040528060008152602001600081526020016108746108c8565b815260200160008152602001600081526020016000600181111561089b5761089a610b1d565b5b8152602001600060058111156108b4576108b3610b1d565b5b815260200160008152602001600081525090565b6040518060800160405280600081526020016000815260200160008152602001600081525090565b600080fd5b6000819050919050565b610908816108f5565b811461091357600080fd5b50565b600081359050610925816108ff565b92915050565b600060208284031215610941576109406108f0565b5b600061094f84828501610916565b91505092915050565b610961816108f5565b82525050565b600060208201905061097c6000830184610958565b92915050565b60008060408385031215610999576109986108f0565b5b60006109a785828601610916565b92505060206109b885828601610916565b9150509250929050565b600281106109cf57600080fd5b50565b6000813590506109e1816109c2565b92915050565b60008060008060008060c08789031215610a0457610a036108f0565b5b6000610a1289828a01610916565b9650506020610a2389828a01610916565b9550506040610a3489828a01610916565b9450506060610a4589828a016109d2565b9350506080610a5689828a01610916565b92505060a0610a6789828a01610916565b9150509295509295509295565b6000608082019050610a896000830187610958565b610a966020830186610958565b610aa36040830185610958565b610ab06060830184610958565b95945050505050565b610ac2816108f5565b82525050565b608082016000820151610ade6000850182610ab9565b506020820151610af16020850182610ab9565b506040820151610b046040850182610ab9565b506060820151610b176060850182610ab9565b50505050565b7f4e487b7100000000000000000000000000000000000000000000000000000000600052602160045260246000fd5b60028110610b5d57610b5c610b1d565b5b50565b6000819050610b6e82610b4c565b919050565b6000610b7e82610b60565b9050919050565b610b8e81610b73565b82525050565b60068110610ba557610ba4610b1d565b5b50565b6000819050610bb682610b94565b919050565b6000610bc682610ba8565b9050919050565b610bd681610bbb565b82525050565b600061018082019050610bf2600083018c610958565b610bff602083018b610958565b610c0c604083018a610ac8565b610c1960c0830189610958565b610c2660e0830188610958565b610c34610100830187610b85565b610c42610120830186610bcd565b610c50610140830185610958565b610c5e610160830184610958565b9a9950505050505050505050565b6000602082019050610c816000830184610bcd565b92915050565b608082016000820151610c9d6000850182610ab9565b506020820151610cb06020850182610ab9565b506040820151610cc36040850182610ab9565b506060820151610cd66060850182610ab9565b50505050565b610ce581610b73565b82525050565b610cf481610bbb565b82525050565b61018082016000820151610d116000850182610ab9565b506020820151610d246020850182610ab9565b506040820151610d376040850182610c87565b506060820151610d4a60c0850182610ab9565b506080820151610d5d60e0850182610ab9565b5060a0820151610d71610100850182610cdc565b5060c0820151610d85610120850182610ceb565b5060e0820151610d99610140850182610ab9565b50610100820151610dae610160850182610ab9565b50505050565b600061018082019050610dca6000830184610cfa565b92915050565b60068110610ddd57600080fd5b50565b600081359050610def81610dd0565b92915050565b60008060408385031215610e0c57610e0b6108f0565b5b6000610e1a85828601610de0565b9250506020610e2b85828601610916565b9150509250929050565b60008060008060808587031215610e4f57610e4e6108f0565b5b6000610e5d87828801610916565b9450506020610e6e87828801610916565b9350506040610e7f87828801610916565b9250506060610e9087828801610916565b91505092959194509250565b7f4e487b7100000000000000000000000000000000000000000000000000000000600052601160045260246000fd5b6000610ed6826108f5565b9150610ee1836108f5565b9250828203905081811115610ef957610ef8610e9c565b5b92915050565b600082825260208201905092915050565b7f45787069727920646174652068617320616c7265616479206265656e20696e6960008201527f7469616c69736564000000000000000000000000000000000000000000000000602082015250565b6000610f6c602883610eff565b9150610f7782610f10565b604082019050919050565b60006020820190508181036000830152610f9b81610f5f565b905091905056fea26469706673582212205d96809b2b81af60de4b120a0f135df2726dab4fec13f45f2223b4bf28b1c7c464736f6c63430008130033",
			"opcodes": "PUSH1 0x80 PUSH1 0x40 MSTORE PUSH1 0x0 DUP1 SSTORE PUSH1 0x0 PUSH1 0x2 SSTORE CALLVALUE DUP1 ISZERO PUSH2 0x19 JUMPI PUSH1 0x0 DUP1 REVERT JUMPDEST POP PUSH2 0xFD8 DUP1 PUSH2 0x29 PUSH1 0x0 CODECOPY PUSH1 0x0 RETURN INVALID PUSH1 0x80 PUSH1 0x40 MSTORE CALLVALUE DUP1 ISZERO PUSH2 0x10 JUMPI PUSH1 0x0 DUP1 REVERT JUMPDEST POP PUSH1 0x4 CALLDATASIZE LT PUSH2 0x121 JUMPI PUSH1 0x0 CALLDATALOAD PUSH1 0xE0 SHR DUP1 PUSH4 0x6833F200 GT PUSH2 0xAD JUMPI DUP1 PUSH4 0xCA009021 GT PUSH2 0x71 JUMPI DUP1 PUSH4 0xCA009021 EQ PUSH2 0x385 JUMPI DUP1 PUSH4 0xD91F2A0B EQ PUSH2 0x3B5 JUMPI DUP1 PUSH4 0xE0E5C324 EQ PUSH2 0x3D1 JUMPI DUP1 PUSH4 0xE22900FF EQ PUSH2 0x401 JUMPI DUP1 PUSH4 0xF558EB05 EQ PUSH2 0x431 JUMPI PUSH2 0x121 JUMP JUMPDEST DUP1 PUSH4 0x6833F200 EQ PUSH2 0x2CD JUMPI DUP1 PUSH4 0x703849D9 EQ PUSH2 0x2FD JUMPI DUP1 PUSH4 0x85FAE602 EQ PUSH2 0x31B JUMPI DUP1 PUSH4 0x8EDD5297 EQ PUSH2 0x34B JUMPI DUP1 PUSH4 0xB7FF5DAE EQ PUSH2 0x369 JUMPI PUSH2 0x121 JUMP JUMPDEST DUP1 PUSH4 0x3FA3AB26 GT PUSH2 0xF4 JUMPI DUP1 PUSH4 0x3FA3AB26 EQ PUSH2 0x1D2 JUMPI DUP1 PUSH4 0x575C2887 EQ PUSH2 0x205 JUMPI DUP1 PUSH4 0x5998F775 EQ PUSH2 0x235 JUMPI DUP1 PUSH4 0x59FB49F9 EQ PUSH2 0x265 JUMPI DUP1 PUSH4 0x5C622A0E EQ PUSH2 0x29D JUMPI PUSH2 0x121 JUMP JUMPDEST DUP1 PUSH4 0x386660A EQ PUSH2 0x126 JUMPI DUP1 PUSH4 0x1A1FC3A0 EQ PUSH2 0x156 JUMPI DUP1 PUSH4 0x2DD0B640 EQ PUSH2 0x172 JUMPI DUP1 PUSH4 0x302DF083 EQ PUSH2 0x1A2 JUMPI JUMPDEST PUSH1 0x0 DUP1 REVERT JUMPDEST PUSH2 0x140 PUSH1 0x4 DUP1 CALLDATASIZE SUB DUP2 ADD SWAP1 PUSH2 0x13B SWAP2 SWAP1 PUSH2 0x92B JUMP JUMPDEST PUSH2 0x43B JUMP JUMPDEST PUSH1 0x40 MLOAD PUSH2 0x14D SWAP2 SWAP1 PUSH2 0x967 JUMP JUMPDEST PUSH1 0x40 MLOAD DUP1 SWAP2 SUB SWAP1 RETURN JUMPDEST PUSH2 0x170 PUSH1 0x4 DUP1 CALLDATASIZE SUB DUP2 ADD SWAP1 PUSH2 0x16B SWAP2 SWAP1 PUSH2 0x982 JUMP JUMPDEST PUSH2 0x45B JUMP JUMPDEST STOP JUMPDEST PUSH2 0x18C PUSH1 0x4 DUP1 CALLDATASIZE SUB DUP2 ADD SWAP1 PUSH2 0x187 SWAP2 SWAP1 PUSH2 0x9E7 JUMP JUMPDEST PUSH2 0x47D JUMP JUMPDEST PUSH1 0x40 MLOAD PUSH2 0x199 SWAP2 SWAP1 PUSH2 0x967 JUMP JUMPDEST PUSH1 0x40 MLOAD DUP1 SWAP2 SUB SWAP1 RETURN JUMPDEST PUSH2 0x1BC PUSH1 0x4 DUP1 CALLDATASIZE SUB DUP2 ADD SWAP1 PUSH2 0x1B7 SWAP2 SWAP1 PUSH2 0x92B JUMP JUMPDEST PUSH2 0x489 JUMP JUMPDEST PUSH1 0x40 MLOAD PUSH2 0x1C9 SWAP2 SWAP1 PUSH2 0x967 JUMP JUMPDEST PUSH1 0x40 MLOAD DUP1 SWAP2 SUB SWAP1 RETURN JUMPDEST PUSH2 0x1EC PUSH1 0x4 DUP1 CALLDATASIZE SUB DUP2 ADD SWAP1 PUSH2 0x1E7 SWAP2 SWAP1 PUSH2 0x92B JUMP JUMPDEST PUSH2 0x4AC JUMP JUMPDEST PUSH1 0x40 MLOAD PUSH2 0x1FC SWAP5 SWAP4 SWAP3 SWAP2 SWAP1 PUSH2 0xA74 JUMP JUMPDEST PUSH1 0x40 MLOAD DUP1 SWAP2 SUB SWAP1 RETURN JUMPDEST PUSH2 0x21F PUSH1 0x4 DUP1 CALLDATASIZE SUB DUP2 ADD SWAP1 PUSH2 0x21A SWAP2 SWAP1 PUSH2 0x92B JUMP JUMPDEST PUSH2 0x4DC JUMP JUMPDEST PUSH1 0x40 MLOAD PUSH2 0x22C SWAP2 SWAP1 PUSH2 0x967 JUMP JUMPDEST PUSH1 0x40 MLOAD DUP1 SWAP2 SUB SWAP1 RETURN JUMPDEST PUSH2 0x24F PUSH1 0x4 DUP1 CALLDATASIZE SUB DUP2 ADD SWAP1 PUSH2 0x24A SWAP2 SWAP1 PUSH2 0x92B JUMP JUMPDEST PUSH2 0x51D JUMP JUMPDEST PUSH1 0x40 MLOAD PUSH2 0x25C SWAP2 SWAP1 PUSH2 0x967 JUMP JUMPDEST PUSH1 0x40 MLOAD DUP1 SWAP2 SUB SWAP1 RETURN JUMPDEST PUSH2 0x27F PUSH1 0x4 DUP1 CALLDATASIZE SUB DUP2 ADD SWAP1 PUSH2 0x27A SWAP2 SWAP1 PUSH2 0x92B JUMP JUMPDEST PUSH2 0x53D JUMP JUMPDEST PUSH1 0x40 MLOAD PUSH2 0x294 SWAP10 SWAP9 SWAP8 SWAP7 SWAP6 SWAP5 SWAP4 SWAP3 SWAP2 SWAP1 PUSH2 0xBDC JUMP JUMPDEST PUSH1 0x40 MLOAD DUP1 SWAP2 SUB SWAP1 RETURN JUMPDEST PUSH2 0x2B7 PUSH1 0x4 DUP1 CALLDATASIZE SUB DUP2 ADD SWAP1 PUSH2 0x2B2 SWAP2 SWAP1 PUSH2 0x92B JUMP JUMPDEST PUSH2 0x5D7 JUMP JUMPDEST PUSH1 0x40 MLOAD PUSH2 0x2C4 SWAP2 SWAP1 PUSH2 0xC6C JUMP JUMPDEST PUSH1 0x40 MLOAD DUP1 SWAP2 SUB SWAP1 RETURN JUMPDEST PUSH2 0x2E7 PUSH1 0x4 DUP1 CALLDATASIZE SUB DUP2 ADD SWAP1 PUSH2 0x2E2 SWAP2 SWAP1 PUSH2 0x92B JUMP JUMPDEST PUSH2 0x604 JUMP JUMPDEST PUSH1 0x40 MLOAD PUSH2 0x2F4 SWAP2 SWAP1 PUSH2 0x967 JUMP JUMPDEST PUSH1 0x40 MLOAD DUP1 SWAP2 SUB SWAP1 RETURN JUMPDEST PUSH2 0x305 PUSH2 0x624 JUMP JUMPDEST PUSH1 0x40 MLOAD PUSH2 0x312 SWAP2 SWAP1 PUSH2 0x967 JUMP JUMPDEST PUSH1 0x40 MLOAD DUP1 SWAP2 SUB SWAP1 RETURN JUMPDEST PUSH2 0x335 PUSH1 0x4 DUP1 CALLDATASIZE SUB DUP2 ADD SWAP1 PUSH2 0x330 SWAP2 SWAP1 PUSH2 0x92B JUMP JUMPDEST PUSH2 0x62A JUMP JUMPDEST PUSH1 0x40 MLOAD PUSH2 0x342 SWAP2 SWAP1 PUSH2 0xDB4 JUMP JUMPDEST PUSH1 0x40 MLOAD DUP1 SWAP2 SUB SWAP1 RETURN JUMPDEST PUSH2 0x353 PUSH2 0x746 JUMP JUMPDEST PUSH1 0x40 MLOAD PUSH2 0x360 SWAP2 SWAP1 PUSH2 0x967 JUMP JUMPDEST PUSH1 0x40 MLOAD DUP1 SWAP2 SUB SWAP1 RETURN JUMPDEST PUSH2 0x383 PUSH1 0x4 DUP1 CALLDATASIZE SUB DUP2 ADD SWAP1 PUSH2 0x37E SWAP2 SWAP1 PUSH2 0xDF5 JUMP JUMPDEST PUSH2 0x74C JUMP JUMPDEST STOP JUMPDEST PUSH2 0x39F PUSH1 0x4 DUP1 CALLDATASIZE SUB DUP2 ADD SWAP1 PUSH2 0x39A SWAP2 SWAP1 PUSH2 0x92B JUMP JUMPDEST PUSH2 0x78E JUMP JUMPDEST PUSH1 0x40 MLOAD PUSH2 0x3AC SWAP2 SWAP1 PUSH2 0x967 JUMP JUMPDEST PUSH1 0x40 MLOAD DUP1 SWAP2 SUB SWAP1 RETURN JUMPDEST PUSH2 0x3CF PUSH1 0x4 DUP1 CALLDATASIZE SUB DUP2 ADD SWAP1 PUSH2 0x3CA SWAP2 SWAP1 PUSH2 0x982 JUMP JUMPDEST PUSH2 0x7AE JUMP JUMPDEST STOP JUMPDEST PUSH2 0x3EB PUSH1 0x4 DUP1 CALLDATASIZE SUB DUP2 ADD SWAP1 PUSH2 0x3E6 SWAP2 SWAP1 PUSH2 0xE35 JUMP JUMPDEST PUSH2 0x826 JUMP JUMPDEST PUSH1 0x40 MLOAD PUSH2 0x3F8 SWAP2 SWAP1 PUSH2 0x967 JUMP JUMPDEST PUSH1 0x40 MLOAD DUP1 SWAP2 SUB SWAP1 RETURN JUMPDEST PUSH2 0x41B PUSH1 0x4 DUP1 CALLDATASIZE SUB DUP2 ADD SWAP1 PUSH2 0x416 SWAP2 SWAP1 PUSH2 0x92B JUMP JUMPDEST PUSH2 0x830 JUMP JUMPDEST PUSH1 0x40 MLOAD PUSH2 0x428 SWAP2 SWAP1 PUSH2 0x967 JUMP JUMPDEST PUSH1 0x40 MLOAD DUP1 SWAP2 SUB SWAP1 RETURN JUMPDEST PUSH2 0x439 PUSH2 0x850 JUMP JUMPDEST STOP JUMPDEST PUSH1 0x0 PUSH1 0x1 PUSH1 0x0 DUP4 DUP2 MSTORE PUSH1 0x20 ADD SWAP1 DUP2 MSTORE PUSH1 0x20 ADD PUSH1 0x0 KECCAK256 PUSH1 0x9 ADD SLOAD SWAP1 POP SWAP2 SWAP1 POP JUMP JUMPDEST DUP2 PUSH1 0x1 PUSH1 0x0 DUP4 DUP2 MSTORE PUSH1 0x20 ADD SWAP1 DUP2 MSTORE PUSH1 0x20 ADD PUSH1 0x0 KECCAK256 PUSH1 0x2 ADD PUSH1 0x1 ADD DUP2 SWAP1 SSTORE POP POP POP JUMP JUMPDEST PUSH1 0x0 SWAP7 SWAP6 POP POP POP POP POP POP JUMP JUMPDEST PUSH1 0x0 PUSH1 0x1 PUSH1 0x0 DUP4 DUP2 MSTORE PUSH1 0x20 ADD SWAP1 DUP2 MSTORE PUSH1 0x20 ADD PUSH1 0x0 KECCAK256 PUSH1 0x2 ADD PUSH1 0x1 ADD SLOAD SWAP1 POP SWAP2 SWAP1 POP JUMP JUMPDEST PUSH1 0x3 PUSH1 0x20 MSTORE DUP1 PUSH1 0x0 MSTORE PUSH1 0x40 PUSH1 0x0 KECCAK256 PUSH1 0x0 SWAP2 POP SWAP1 POP DUP1 PUSH1 0x0 ADD SLOAD SWAP1 DUP1 PUSH1 0x1 ADD SLOAD SWAP1 DUP1 PUSH1 0x2 ADD SLOAD SWAP1 DUP1 PUSH1 0x3 ADD SLOAD SWAP1 POP DUP5 JUMP JUMPDEST PUSH1 0x0 PUSH1 0x1 PUSH1 0x0 DUP4 DUP2 MSTORE PUSH1 0x20 ADD SWAP1 DUP2 MSTORE PUSH1 0x20 ADD PUSH1 0x0 KECCAK256 PUSH1 0x7 ADD SLOAD PUSH1 0x1 PUSH1 0x0 DUP5 DUP2 MSTORE PUSH1 0x20 ADD SWAP1 DUP2 MSTORE PUSH1 0x20 ADD PUSH1 0x0 KECCAK256 PUSH1 0x6 ADD SLOAD PUSH2 0x516 SWAP2 SWAP1 PUSH2 0xECB JUMP JUMPDEST SWAP1 POP SWAP2 SWAP1 POP JUMP JUMPDEST PUSH1 0x0 PUSH1 0x1 PUSH1 0x0 DUP4 DUP2 MSTORE PUSH1 0x20 ADD SWAP1 DUP2 MSTORE PUSH1 0x20 ADD PUSH1 0x0 KECCAK256 PUSH1 0x6 ADD SLOAD SWAP1 POP SWAP2 SWAP1 POP JUMP JUMPDEST PUSH1 0x1 PUSH1 0x20 MSTORE DUP1 PUSH1 0x0 MSTORE PUSH1 0x40 PUSH1 0x0 KECCAK256 PUSH1 0x0 SWAP2 POP SWAP1 POP DUP1 PUSH1 0x0 ADD SLOAD SWAP1 DUP1 PUSH1 0x1 ADD SLOAD SWAP1 DUP1 PUSH1 0x2 ADD PUSH1 0x40 MLOAD DUP1 PUSH1 0x80 ADD PUSH1 0x40 MSTORE SWAP1 DUP2 PUSH1 0x0 DUP3 ADD SLOAD DUP2 MSTORE PUSH1 0x20 ADD PUSH1 0x1 DUP3 ADD SLOAD DUP2 MSTORE PUSH1 0x20 ADD PUSH1 0x2 DUP3 ADD SLOAD DUP2 MSTORE PUSH1 0x20 ADD PUSH1 0x3 DUP3 ADD SLOAD DUP2 MSTORE POP POP SWAP1 DUP1 PUSH1 0x6 ADD SLOAD SWAP1 DUP1 PUSH1 0x7 ADD SLOAD SWAP1 DUP1 PUSH1 0x8 ADD PUSH1 0x0 SWAP1 SLOAD SWAP1 PUSH2 0x100 EXP SWAP1 DIV PUSH1 0xFF AND SWAP1 DUP1 PUSH1 0x8 ADD PUSH1 0x1 SWAP1 SLOAD SWAP1 PUSH2 0x100 EXP SWAP1 DIV PUSH1 0xFF AND SWAP1 DUP1 PUSH1 0x9 ADD SLOAD SWAP1 DUP1 PUSH1 0xA ADD SLOAD SWAP1 POP DUP10 JUMP JUMPDEST PUSH1 0x0 PUSH1 0x1 PUSH1 0x0 DUP4 DUP2 MSTORE PUSH1 0x20 ADD SWAP1 DUP2 MSTORE PUSH1 0x20 ADD PUSH1 0x0 KECCAK256 PUSH1 0x8 ADD PUSH1 0x1 SWAP1 SLOAD SWAP1 PUSH2 0x100 EXP SWAP1 DIV PUSH1 0xFF AND SWAP1 POP SWAP2 SWAP1 POP JUMP JUMPDEST PUSH1 0x0 PUSH1 0x1 PUSH1 0x0 DUP4 DUP2 MSTORE PUSH1 0x20 ADD SWAP1 DUP2 MSTORE PUSH1 0x20 ADD PUSH1 0x0 KECCAK256 PUSH1 0xA ADD SLOAD SWAP1 POP SWAP2 SWAP1 POP JUMP JUMPDEST PUSH1 0x0 SLOAD DUP2 JUMP JUMPDEST PUSH2 0x632 PUSH2 0x852 JUMP JUMPDEST PUSH1 0x1 PUSH1 0x0 DUP4 DUP2 MSTORE PUSH1 0x20 ADD SWAP1 DUP2 MSTORE PUSH1 0x20 ADD PUSH1 0x0 KECCAK256 PUSH1 0x40 MLOAD DUP1 PUSH2 0x120 ADD PUSH1 0x40 MSTORE SWAP1 DUP2 PUSH1 0x0 DUP3 ADD SLOAD DUP2 MSTORE PUSH1 0x20 ADD PUSH1 0x1 DUP3 ADD SLOAD DUP2 MSTORE PUSH1 0x20 ADD PUSH1 0x2 DUP3 ADD PUSH1 0x40 MLOAD DUP1 PUSH1 0x80 ADD PUSH1 0x40 MSTORE SWAP1 DUP2 PUSH1 0x0 DUP3 ADD SLOAD DUP2 MSTORE PUSH1 0x20 ADD PUSH1 0x1 DUP3 ADD SLOAD DUP2 MSTORE PUSH1 0x20 ADD PUSH1 0x2 DUP3 ADD SLOAD DUP2 MSTORE PUSH1 0x20 ADD PUSH1 0x3 DUP3 ADD SLOAD DUP2 MSTORE POP POP DUP2 MSTORE PUSH1 0x20 ADD PUSH1 0x6 DUP3 ADD SLOAD DUP2 MSTORE PUSH1 0x20 ADD PUSH1 0x7 DUP3 ADD SLOAD DUP2 MSTORE PUSH1 0x20 ADD PUSH1 0x8 DUP3 ADD PUSH1 0x0 SWAP1 SLOAD SWAP1 PUSH2 0x100 EXP SWAP1 DIV PUSH1 0xFF AND PUSH1 0x1 DUP2 GT ISZERO PUSH2 0x6DA JUMPI PUSH2 0x6D9 PUSH2 0xB1D JUMP JUMPDEST JUMPDEST PUSH1 0x1 DUP2 GT ISZERO PUSH2 0x6EC JUMPI PUSH2 0x6EB PUSH2 0xB1D JUMP JUMPDEST JUMPDEST DUP2 MSTORE PUSH1 0x20 ADD PUSH1 0x8 DUP3 ADD PUSH1 0x1 SWAP1 SLOAD SWAP1 PUSH2 0x100 EXP SWAP1 DIV PUSH1 0xFF AND PUSH1 0x5 DUP2 GT ISZERO PUSH2 0x715 JUMPI PUSH2 0x714 PUSH2 0xB1D JUMP JUMPDEST JUMPDEST PUSH1 0x5 DUP2 GT ISZERO PUSH2 0x727 JUMPI PUSH2 0x726 PUSH2 0xB1D JUMP JUMPDEST JUMPDEST DUP2 MSTORE PUSH1 0x20 ADD PUSH1 0x9 DUP3 ADD SLOAD DUP2 MSTORE PUSH1 0x20 ADD PUSH1 0xA DUP3 ADD SLOAD DUP2 MSTORE POP POP SWAP1 POP SWAP2 SWAP1 POP JUMP JUMPDEST PUSH1 0x2 SLOAD DUP2 JUMP JUMPDEST DUP2 PUSH1 0x1 PUSH1 0x0 DUP4 DUP2 MSTORE PUSH1 0x20 ADD SWAP1 DUP2 MSTORE PUSH1 0x20 ADD PUSH1 0x0 KECCAK256 PUSH1 0x8 ADD PUSH1 0x1 PUSH2 0x100 EXP DUP2 SLOAD DUP2 PUSH1 0xFF MUL NOT AND SWAP1 DUP4 PUSH1 0x5 DUP2 GT ISZERO PUSH2 0x785 JUMPI PUSH2 0x784 PUSH2 0xB1D JUMP JUMPDEST JUMPDEST MUL OR SWAP1 SSTORE POP POP POP JUMP JUMPDEST PUSH1 0x0 PUSH1 0x3 PUSH1 0x0 DUP4 DUP2 MSTORE PUSH1 0x20 ADD SWAP1 DUP2 MSTORE PUSH1 0x20 ADD PUSH1 0x0 KECCAK256 PUSH1 0x0 ADD SLOAD SWAP1 POP SWAP2 SWAP1 POP JUMP JUMPDEST PUSH1 0x0 PUSH1 0x1 PUSH1 0x0 DUP4 DUP2 MSTORE PUSH1 0x20 ADD SWAP1 DUP2 MSTORE PUSH1 0x20 ADD PUSH1 0x0 KECCAK256 PUSH1 0xA ADD SLOAD SUB PUSH2 0x807 JUMPI PUSH1 0x40 MLOAD PUSH32 0x8C379A000000000000000000000000000000000000000000000000000000000 DUP2 MSTORE PUSH1 0x4 ADD PUSH2 0x7FE SWAP1 PUSH2 0xF82 JUMP JUMPDEST PUSH1 0x40 MLOAD DUP1 SWAP2 SUB SWAP1 REVERT JUMPDEST DUP2 PUSH1 0x1 PUSH1 0x0 DUP4 DUP2 MSTORE PUSH1 0x20 ADD SWAP1 DUP2 MSTORE PUSH1 0x20 ADD PUSH1 0x0 KECCAK256 PUSH1 0xA ADD DUP2 SWAP1 SSTORE POP POP POP JUMP JUMPDEST PUSH1 0x0 SWAP5 SWAP4 POP POP POP POP JUMP JUMPDEST PUSH1 0x0 PUSH1 0x1 PUSH1 0x0 DUP4 DUP2 MSTORE PUSH1 0x20 ADD SWAP1 DUP2 MSTORE PUSH1 0x20 ADD PUSH1 0x0 KECCAK256 PUSH1 0x1 ADD SLOAD SWAP1 POP SWAP2 SWAP1 POP JUMP JUMPDEST JUMP JUMPDEST PUSH1 0x40 MLOAD DUP1 PUSH2 0x120 ADD PUSH1 0x40 MSTORE DUP1 PUSH1 0x0 DUP2 MSTORE PUSH1 0x20 ADD PUSH1 0x0 DUP2 MSTORE PUSH1 0x20 ADD PUSH2 0x874 PUSH2 0x8C8 JUMP JUMPDEST DUP2 MSTORE PUSH1 0x20 ADD PUSH1 0x0 DUP2 MSTORE PUSH1 0x20 ADD PUSH1 0x0 DUP2 MSTORE PUSH1 0x20 ADD PUSH1 0x0 PUSH1 0x1 DUP2 GT ISZERO PUSH2 0x89B JUMPI PUSH2 0x89A PUSH2 0xB1D JUMP JUMPDEST JUMPDEST DUP2 MSTORE PUSH1 0x20 ADD PUSH1 0x0 PUSH1 0x5 DUP2 GT ISZERO PUSH2 0x8B4 JUMPI PUSH2 0x8B3 PUSH2 0xB1D JUMP JUMPDEST JUMPDEST DUP2 MSTORE PUSH1 0x20 ADD PUSH1 0x0 DUP2 MSTORE PUSH1 0x20 ADD PUSH1 0x0 DUP2 MSTORE POP SWAP1 JUMP JUMPDEST PUSH1 0x40 MLOAD DUP1 PUSH1 0x80 ADD PUSH1 0x40 MSTORE DUP1 PUSH1 0x0 DUP2 MSTORE PUSH1 0x20 ADD PUSH1 0x0 DUP2 MSTORE PUSH1 0x20 ADD PUSH1 0x0 DUP2 MSTORE PUSH1 0x20 ADD PUSH1 0x0 DUP2 MSTORE POP SWAP1 JUMP JUMPDEST PUSH1 0x0 DUP1 REVERT JUMPDEST PUSH1 0x0 DUP2 SWAP1 POP SWAP2 SWAP1 POP JUMP JUMPDEST PUSH2 0x908 DUP2 PUSH2 0x8F5 JUMP JUMPDEST DUP2 EQ PUSH2 0x913 JUMPI PUSH1 0x0 DUP1 REVERT JUMPDEST POP JUMP JUMPDEST PUSH1 0x0 DUP2 CALLDATALOAD SWAP1 POP PUSH2 0x925 DUP2 PUSH2 0x8FF JUMP JUMPDEST SWAP3 SWAP2 POP POP JUMP JUMPDEST PUSH1 0x0 PUSH1 0x20 DUP3 DUP5 SUB SLT ISZERO PUSH2 0x941 JUMPI PUSH2 0x940 PUSH2 0x8F0 JUMP JUMPDEST JUMPDEST PUSH1 0x0 PUSH2 0x94F DUP5 DUP3 DUP6 ADD PUSH2 0x916 JUMP JUMPDEST SWAP2 POP POP SWAP3 SWAP2 POP POP JUMP JUMPDEST PUSH2 0x961 DUP2 PUSH2 0x8F5 JUMP JUMPDEST DUP3 MSTORE POP POP JUMP JUMPDEST PUSH1 0x0 PUSH1 0x20 DUP3 ADD SWAP1 POP PUSH2 0x97C PUSH1 0x0 DUP4 ADD DUP5 PUSH2 0x958 JUMP JUMPDEST SWAP3 SWAP2 POP POP JUMP JUMPDEST PUSH1 0x0 DUP1 PUSH1 0x40 DUP4 DUP6 SUB SLT ISZERO PUSH2 0x999 JUMPI PUSH2 0x998 PUSH2 0x8F0 JUMP JUMPDEST JUMPDEST PUSH1 0x0 PUSH2 0x9A7 DUP6 DUP3 DUP7 ADD PUSH2 0x916 JUMP JUMPDEST SWAP3 POP POP PUSH1 0x20 PUSH2 0x9B8 DUP6 DUP3 DUP7 ADD PUSH2 0x916 JUMP JUMPDEST SWAP2 POP POP SWAP3 POP SWAP3 SWAP1 POP JUMP JUMPDEST PUSH1 0x2 DUP2 LT PUSH2 0x9CF JUMPI PUSH1 0x0 DUP1 REVERT JUMPDEST POP JUMP JUMPDEST PUSH1 0x0 DUP2 CALLDATALOAD SWAP1 POP PUSH2 0x9E1 DUP2 PUSH2 0x9C2 JUMP JUMPDEST SWAP3 SWAP2 POP POP JUMP JUMPDEST PUSH1 0x0 DUP1 PUSH1 0x0 DUP1 PUSH1 0x0 DUP1 PUSH1 0xC0 DUP8 DUP10 SUB SLT ISZERO PUSH2 0xA04 JUMPI PUSH2 0xA03 PUSH2 0x8F0 JUMP JUMPDEST JUMPDEST PUSH1 0x0 PUSH2 0xA12 DUP10 DUP3 DUP11 ADD PUSH2 0x916 JUMP JUMPDEST SWAP7 POP POP PUSH1 0x20 PUSH2 0xA23 DUP10 DUP3 DUP11 ADD PUSH2 0x916 JUMP JUMPDEST SWAP6 POP POP PUSH1 0x40 PUSH2 0xA34 DUP10 DUP3 DUP11 ADD PUSH2 0x916 JUMP JUMPDEST SWAP5 POP POP PUSH1 0x60 PUSH2 0xA45 DUP10 DUP3 DUP11 ADD PUSH2 0x9D2 JUMP JUMPDEST SWAP4 POP POP PUSH1 0x80 PUSH2 0xA56 DUP10 DUP3 DUP11 ADD PUSH2 0x916 JUMP JUMPDEST SWAP3 POP POP PUSH1 0xA0 PUSH2 0xA67 DUP10 DUP3 DUP11 ADD PUSH2 0x916 JUMP JUMPDEST SWAP2 POP POP SWAP3 SWAP6 POP SWAP3 SWAP6 POP SWAP3 SWAP6 JUMP JUMPDEST PUSH1 0x0 PUSH1 0x80 DUP3 ADD SWAP1 POP PUSH2 0xA89 PUSH1 0x0 DUP4 ADD DUP8 PUSH2 0x958 JUMP JUMPDEST PUSH2 0xA96 PUSH1 0x20 DUP4 ADD DUP7 PUSH2 0x958 JUMP JUMPDEST PUSH2 0xAA3 PUSH1 0x40 DUP4 ADD DUP6 PUSH2 0x958 JUMP JUMPDEST PUSH2 0xAB0 PUSH1 0x60 DUP4 ADD DUP5 PUSH2 0x958 JUMP JUMPDEST SWAP6 SWAP5 POP POP POP POP POP JUMP JUMPDEST PUSH2 0xAC2 DUP2 PUSH2 0x8F5 JUMP JUMPDEST DUP3 MSTORE POP POP JUMP JUMPDEST PUSH1 0x80 DUP3 ADD PUSH1 0x0 DUP3 ADD MLOAD PUSH2 0xADE PUSH1 0x0 DUP6 ADD DUP3 PUSH2 0xAB9 JUMP JUMPDEST POP PUSH1 0x20 DUP3 ADD MLOAD PUSH2 0xAF1 PUSH1 0x20 DUP6 ADD DUP3 PUSH2 0xAB9 JUMP JUMPDEST POP PUSH1 0x40 DUP3 ADD MLOAD PUSH2 0xB04 PUSH1 0x40 DUP6 ADD DUP3 PUSH2 0xAB9 JUMP JUMPDEST POP PUSH1 0x60 DUP3 ADD MLOAD PUSH2 0xB17 PUSH1 0x60 DUP6 ADD DUP3 PUSH2 0xAB9 JUMP JUMPDEST POP POP POP POP JUMP JUMPDEST PUSH32 0x4E487B7100000000000000000000000000000000000000000000000000000000 PUSH1 0x0 MSTORE PUSH1 0x21 PUSH1 0x4 MSTORE PUSH1 0x24 PUSH1 0x0 REVERT JUMPDEST PUSH1 0x2 DUP2 LT PUSH2 0xB5D JUMPI PUSH2 0xB5C PUSH2 0xB1D JUMP JUMPDEST JUMPDEST POP JUMP JUMPDEST PUSH1 0x0 DUP2 SWAP1 POP PUSH2 0xB6E DUP3 PUSH2 0xB4C JUMP JUMPDEST SWAP2 SWAP1 POP JUMP JUMPDEST PUSH1 0x0 PUSH2 0xB7E DUP3 PUSH2 0xB60 JUMP JUMPDEST SWAP1 POP SWAP2 SWAP1 POP JUMP JUMPDEST PUSH2 0xB8E DUP2 PUSH2 0xB73 JUMP JUMPDEST DUP3 MSTORE POP POP JUMP JUMPDEST PUSH1 0x6 DUP2 LT PUSH2 0xBA5 JUMPI PUSH2 0xBA4 PUSH2 0xB1D JUMP JUMPDEST JUMPDEST POP JUMP JUMPDEST PUSH1 0x0 DUP2 SWAP1 POP PUSH2 0xBB6 DUP3 PUSH2 0xB94 JUMP JUMPDEST SWAP2 SWAP1 POP JUMP JUMPDEST PUSH1 0x0 PUSH2 0xBC6 DUP3 PUSH2 0xBA8 JUMP JUMPDEST SWAP1 POP SWAP2 SWAP1 POP JUMP JUMPDEST PUSH2 0xBD6 DUP2 PUSH2 0xBBB JUMP JUMPDEST DUP3 MSTORE POP POP JUMP JUMPDEST PUSH1 0x0 PUSH2 0x180 DUP3 ADD SWAP1 POP PUSH2 0xBF2 PUSH1 0x0 DUP4 ADD DUP13 PUSH2 0x958 JUMP JUMPDEST PUSH2 0xBFF PUSH1 0x20 DUP4 ADD DUP12 PUSH2 0x958 JUMP JUMPDEST PUSH2 0xC0C PUSH1 0x40 DUP4 ADD DUP11 PUSH2 0xAC8 JUMP JUMPDEST PUSH2 0xC19 PUSH1 0xC0 DUP4 ADD DUP10 PUSH2 0x958 JUMP JUMPDEST PUSH2 0xC26 PUSH1 0xE0 DUP4 ADD DUP9 PUSH2 0x958 JUMP JUMPDEST PUSH2 0xC34 PUSH2 0x100 DUP4 ADD DUP8 PUSH2 0xB85 JUMP JUMPDEST PUSH2 0xC42 PUSH2 0x120 DUP4 ADD DUP7 PUSH2 0xBCD JUMP JUMPDEST PUSH2 0xC50 PUSH2 0x140 DUP4 ADD DUP6 PUSH2 0x958 JUMP JUMPDEST PUSH2 0xC5E PUSH2 0x160 DUP4 ADD DUP5 PUSH2 0x958 JUMP JUMPDEST SWAP11 SWAP10 POP POP POP POP POP POP POP POP POP POP JUMP JUMPDEST PUSH1 0x0 PUSH1 0x20 DUP3 ADD SWAP1 POP PUSH2 0xC81 PUSH1 0x0 DUP4 ADD DUP5 PUSH2 0xBCD JUMP JUMPDEST SWAP3 SWAP2 POP POP JUMP JUMPDEST PUSH1 0x80 DUP3 ADD PUSH1 0x0 DUP3 ADD MLOAD PUSH2 0xC9D PUSH1 0x0 DUP6 ADD DUP3 PUSH2 0xAB9 JUMP JUMPDEST POP PUSH1 0x20 DUP3 ADD MLOAD PUSH2 0xCB0 PUSH1 0x20 DUP6 ADD DUP3 PUSH2 0xAB9 JUMP JUMPDEST POP PUSH1 0x40 DUP3 ADD MLOAD PUSH2 0xCC3 PUSH1 0x40 DUP6 ADD DUP3 PUSH2 0xAB9 JUMP JUMPDEST POP PUSH1 0x60 DUP3 ADD MLOAD PUSH2 0xCD6 PUSH1 0x60 DUP6 ADD DUP3 PUSH2 0xAB9 JUMP JUMPDEST POP POP POP POP JUMP JUMPDEST PUSH2 0xCE5 DUP2 PUSH2 0xB73 JUMP JUMPDEST DUP3 MSTORE POP POP JUMP JUMPDEST PUSH2 0xCF4 DUP2 PUSH2 0xBBB JUMP JUMPDEST DUP3 MSTORE POP POP JUMP JUMPDEST PUSH2 0x180 DUP3 ADD PUSH1 0x0 DUP3 ADD MLOAD PUSH2 0xD11 PUSH1 0x0 DUP6 ADD DUP3 PUSH2 0xAB9 JUMP JUMPDEST POP PUSH1 0x20 DUP3 ADD MLOAD PUSH2 0xD24 PUSH1 0x20 DUP6 ADD DUP3 PUSH2 0xAB9 JUMP JUMPDEST POP PUSH1 0x40 DUP3 ADD MLOAD PUSH2 0xD37 PUSH1 0x40 DUP6 ADD DUP3 PUSH2 0xC87 JUMP JUMPDEST POP PUSH1 0x60 DUP3 ADD MLOAD PUSH2 0xD4A PUSH1 0xC0 DUP6 ADD DUP3 PUSH2 0xAB9 JUMP JUMPDEST POP PUSH1 0x80 DUP3 ADD MLOAD PUSH2 0xD5D PUSH1 0xE0 DUP6 ADD DUP3 PUSH2 0xAB9 JUMP JUMPDEST POP PUSH1 0xA0 DUP3 ADD MLOAD PUSH2 0xD71 PUSH2 0x100 DUP6 ADD DUP3 PUSH2 0xCDC JUMP JUMPDEST POP PUSH1 0xC0 DUP3 ADD MLOAD PUSH2 0xD85 PUSH2 0x120 DUP6 ADD DUP3 PUSH2 0xCEB JUMP JUMPDEST POP PUSH1 0xE0 DUP3 ADD MLOAD PUSH2 0xD99 PUSH2 0x140 DUP6 ADD DUP3 PUSH2 0xAB9 JUMP JUMPDEST POP PUSH2 0x100 DUP3 ADD MLOAD PUSH2 0xDAE PUSH2 0x160 DUP6 ADD DUP3 PUSH2 0xAB9 JUMP JUMPDEST POP POP POP POP JUMP JUMPDEST PUSH1 0x0 PUSH2 0x180 DUP3 ADD SWAP1 POP PUSH2 0xDCA PUSH1 0x0 DUP4 ADD DUP5 PUSH2 0xCFA JUMP JUMPDEST SWAP3 SWAP2 POP POP JUMP JUMPDEST PUSH1 0x6 DUP2 LT PUSH2 0xDDD JUMPI PUSH1 0x0 DUP1 REVERT JUMPDEST POP JUMP JUMPDEST PUSH1 0x0 DUP2 CALLDATALOAD SWAP1 POP PUSH2 0xDEF DUP2 PUSH2 0xDD0 JUMP JUMPDEST SWAP3 SWAP2 POP POP JUMP JUMPDEST PUSH1 0x0 DUP1 PUSH1 0x40 DUP4 DUP6 SUB SLT ISZERO PUSH2 0xE0C JUMPI PUSH2 0xE0B PUSH2 0x8F0 JUMP JUMPDEST JUMPDEST PUSH1 0x0 PUSH2 0xE1A DUP6 DUP3 DUP7 ADD PUSH2 0xDE0 JUMP JUMPDEST SWAP3 POP POP PUSH1 0x20 PUSH2 0xE2B DUP6 DUP3 DUP7 ADD PUSH2 0x916 JUMP JUMPDEST SWAP2 POP POP SWAP3 POP SWAP3 SWAP1 POP JUMP JUMPDEST PUSH1 0x0 DUP1 PUSH1 0x0 DUP1 PUSH1 0x80 DUP6 DUP8 SUB SLT ISZERO PUSH2 0xE4F JUMPI PUSH2 0xE4E PUSH2 0x8F0 JUMP JUMPDEST JUMPDEST PUSH1 0x0 PUSH2 0xE5D DUP8 DUP3 DUP9 ADD PUSH2 0x916 JUMP JUMPDEST SWAP5 POP POP PUSH1 0x20 PUSH2 0xE6E DUP8 DUP3 DUP9 ADD PUSH2 0x916 JUMP JUMPDEST SWAP4 POP POP PUSH1 0x40 PUSH2 0xE7F DUP8 DUP3 DUP9 ADD PUSH2 0x916 JUMP JUMPDEST SWAP3 POP POP PUSH1 0x60 PUSH2 0xE90 DUP8 DUP3 DUP9 ADD PUSH2 0x916 JUMP JUMPDEST SWAP2 POP POP SWAP3 SWAP6 SWAP2 SWAP5 POP SWAP3 POP JUMP JUMPDEST PUSH32 0x4E487B7100000000000000000000000000000000000000000000000000000000 PUSH1 0x0 MSTORE PUSH1 0x11 PUSH1 0x4 MSTORE PUSH1 0x24 PUSH1 0x0 REVERT JUMPDEST PUSH1 0x0 PUSH2 0xED6 DUP3 PUSH2 0x8F5 JUMP JUMPDEST SWAP2 POP PUSH2 0xEE1 DUP4 PUSH2 0x8F5 JUMP JUMPDEST SWAP3 POP DUP3 DUP3 SUB SWAP1 POP DUP2 DUP2 GT ISZERO PUSH2 0xEF9 JUMPI PUSH2 0xEF8 PUSH2 0xE9C JUMP JUMPDEST JUMPDEST SWAP3 SWAP2 POP POP JUMP JUMPDEST PUSH1 0x0 DUP3 DUP3 MSTORE PUSH1 0x20 DUP3 ADD SWAP1 POP SWAP3 SWAP2 POP POP JUMP JUMPDEST PUSH32 0x45787069727920646174652068617320616C7265616479206265656E20696E69 PUSH1 0x0 DUP3 ADD MSTORE PUSH32 0x7469616C69736564000000000000000000000000000000000000000000000000 PUSH1 0x20 DUP3 ADD MSTORE POP JUMP JUMPDEST PUSH1 0x0 PUSH2 0xF6C PUSH1 0x28 DUP4 PUSH2 0xEFF JUMP JUMPDEST SWAP2 POP PUSH2 0xF77 DUP3 PUSH2 0xF10 JUMP JUMPDEST PUSH1 0x40 DUP3 ADD SWAP1 POP SWAP2 SWAP1 POP JUMP JUMPDEST PUSH1 0x0 PUSH1 0x20 DUP3 ADD SWAP1 POP DUP2 DUP2 SUB PUSH1 0x0 DUP4 ADD MSTORE PUSH2 0xF9B DUP2 PUSH2 0xF5F JUMP JUMPDEST SWAP1 POP SWAP2 SWAP1 POP JUMP INVALID LOG2 PUSH5 0x6970667358 0x22 SLT KECCAK256 0x5D SWAP7 DUP1 SWAP12 0x2B DUP2 0xAF PUSH1 0xDE 0x4B SLT EXP 0xF SGT 0x5D CALLCODE PUSH19 0x6DAB4FEC13F45F2223B4BF28B1C7C464736F6C PUSH4 0x43000813 STOP CALLER "
		},
		"gasEstimates": {
			"creation": {
				"codeDepositCost": "811200",
				"executionCost": "10856",
				"totalCost": "822056"
			},
			"external": {
				"autoTrigger()": "254",
				"createInsurance(uint256,uint256,uint256,uint8,uint256,uint256)": "infinite",
				"createStakeholderInfo(uint256,uint256,uint256,uint256)": "infinite",
				"getBeneficiary(uint256)": "infinite",
				"getExpiryDate(uint256)": "infinite",
				"getInsurance(uint256)": "infinite",
				"getInsuranceCompany(uint256)": "infinite",
				"getInsuredAmount(uint256)": "infinite",
				"getIssueDate(uint256)": "infinite",
				"getPolicyOwner(uint256)": "infinite",
				"getRestAmount(uint256)": "infinite",
				"getStatus(uint256)": "3078",
				"insurances(uint256)": "infinite",
				"numInsurance()": "2474",
				"numStakeholder()": "2518",
				"setBeneficiary(uint256,uint256)": "infinite",
				"setExpiryDate(uint256,uint256)": "infinite",
				"stakeholderinfos(uint256)": "infinite",
				"updateStatus(uint8,uint256)": "25068"
			}
		},
		"methodIdentifiers": {
			"autoTrigger()": "f558eb05",
			"createInsurance(uint256,uint256,uint256,uint8,uint256,uint256)": "2dd0b640",
			"createStakeholderInfo(uint256,uint256,uint256,uint256)": "e0e5c324",
			"getBeneficiary(uint256)": "302df083",
			"getExpiryDate(uint256)": "6833f200",
			"getInsurance(uint256)": "85fae602",
			"getInsuranceCompany(uint256)": "e22900ff",
			"getInsuredAmount(uint256)": "5998f775",
			"getIssueDate(uint256)": "0386660a",
			"getPolicyOwner(uint256)": "ca009021",
			"getRestAmount(uint256)": "575c2887",
			"getStatus(uint256)": "5c622a0e",
			"insurances(uint256)": "59fb49f9",
			"numInsurance()": "703849d9",
			"numStakeholder()": "8edd5297",
			"setBeneficiary(uint256,uint256)": "1a1fc3a0",
			"setExpiryDate(uint256,uint256)": "d91f2a0b",
			"stakeholderinfos(uint256)": "3fa3ab26",
			"updateStatus(uint8,uint256)": "b7ff5dae"
		}
	},
	"abi": [
		{
			"inputs": [],
			"name": "autoTrigger",
			"outputs": [],
			"stateMutability": "nonpayable",
			"type": "function"
		},
		{
			"inputs": [
				{
					"internalType": "uint256",
					"name": "stakeholderInfoId",
					"type": "uint256"
				},
				{
					"internalType": "uint256",
					"name": "companyId",
					"type": "uint256"
				},
				{
					"internalType": "uint256",
					"name": "insuredAmount",
					"type": "uint256"
				},
				{
					"internalType": "enum Insurance.insuranceType",
					"name": "insType",
					"type": "uint8"
				},
				{
					"internalType": "uint256",
					"name": "issueDateYYYYMMDD",
					"type": "uint256"
				},
				{
					"internalType": "uint256",
					"name": "expiryDateYYYYMMDD",
					"type": "uint256"
				}
			],
			"name": "createInsurance",
			"outputs": [
				{
					"internalType": "uint256",
					"name": "",
					"type": "uint256"
				}
			],
			"stateMutability": "nonpayable",
			"type": "function"
		},
		{
			"inputs": [
				{
					"internalType": "uint256",
					"name": "policyOwner",
					"type": "uint256"
				},
				{
					"internalType": "uint256",
					"name": "beneficiary",
					"type": "uint256"
				},
				{
					"internalType": "uint256",
					"name": "lifeAssured",
					"type": "uint256"
				},
				{
					"internalType": "uint256",
					"name": "payingAccount",
					"type": "uint256"
				}
			],
			"name": "createStakeholderInfo",
			"outputs": [
				{
					"internalType": "uint256",
					"name": "",
					"type": "uint256"
				}
			],
			"stateMutability": "nonpayable",
			"type": "function"
		},
		{
			"inputs": [
				{
					"internalType": "uint256",
					"name": "insuranceId",
					"type": "uint256"
				}
			],
			"name": "getBeneficiary",
			"outputs": [
				{
					"internalType": "uint256",
					"name": "",
					"type": "uint256"
				}
			],
			"stateMutability": "view",
			"type": "function"
		},
		{
			"inputs": [
				{
					"internalType": "uint256",
					"name": "insuranceId",
					"type": "uint256"
				}
			],
			"name": "getExpiryDate",
			"outputs": [
				{
					"internalType": "uint256",
					"name": "",
					"type": "uint256"
				}
			],
			"stateMutability": "view",
			"type": "function"
		},
		{
			"inputs": [
				{
					"internalType": "uint256",
					"name": "insuranceId",
					"type": "uint256"
				}
			],
			"name": "getInsurance",
			"outputs": [
				{
					"components": [
						{
							"internalType": "uint256",
							"name": "ID",
							"type": "uint256"
						},
						{
							"internalType": "uint256",
							"name": "companyId",
							"type": "uint256"
						},
						{
							"components": [
								{
									"internalType": "uint256",
									"name": "policyOwner",
									"type": "uint256"
								},
								{
									"internalType": "uint256",
									"name": "beneficiary",
									"type": "uint256"
								},
								{
									"internalType": "uint256",
									"name": "lifeAssured",
									"type": "uint256"
								},
								{
									"internalType": "uint256",
									"name": "payingAccount",
									"type": "uint256"
								}
							],
							"internalType": "struct Insurance.stakeholderInfo",
							"name": "stakeholders",
							"type": "tuple"
						},
						{
							"internalType": "uint256",
							"name": "insuredAmount",
							"type": "uint256"
						},
						{
							"internalType": "uint256",
							"name": "currentAmount",
							"type": "uint256"
						},
						{
							"internalType": "enum Insurance.insuranceType",
							"name": "insType",
							"type": "uint8"
						},
						{
							"internalType": "enum Insurance.status",
							"name": "status",
							"type": "uint8"
						},
						{
							"internalType": "uint256",
							"name": "issueDate",
							"type": "uint256"
						},
						{
							"internalType": "uint256",
							"name": "expiryDate",
							"type": "uint256"
						}
					],
					"internalType": "struct Insurance.insurance",
					"name": "",
					"type": "tuple"
				}
			],
			"stateMutability": "view",
			"type": "function"
		},
		{
			"inputs": [
				{
					"internalType": "uint256",
					"name": "insuranceId",
					"type": "uint256"
				}
			],
			"name": "getInsuranceCompany",
			"outputs": [
				{
					"internalType": "uint256",
					"name": "",
					"type": "uint256"
				}
			],
			"stateMutability": "view",
			"type": "function"
		},
		{
			"inputs": [
				{
					"internalType": "uint256",
					"name": "insuranceId",
					"type": "uint256"
				}
			],
			"name": "getInsuredAmount",
			"outputs": [
				{
					"internalType": "uint256",
					"name": "",
					"type": "uint256"
				}
			],
			"stateMutability": "view",
			"type": "function"
		},
		{
			"inputs": [
				{
					"internalType": "uint256",
					"name": "insuranceId",
					"type": "uint256"
				}
			],
			"name": "getIssueDate",
			"outputs": [
				{
					"internalType": "uint256",
					"name": "",
					"type": "uint256"
				}
			],
			"stateMutability": "view",
			"type": "function"
		},
		{
			"inputs": [
				{
					"internalType": "uint256",
					"name": "stakeholderinfoId",
					"type": "uint256"
				}
			],
			"name": "getPolicyOwner",
			"outputs": [
				{
					"internalType": "uint256",
					"name": "",
					"type": "uint256"
				}
			],
			"stateMutability": "view",
			"type": "function"
		},
		{
			"inputs": [
				{
					"internalType": "uint256",
					"name": "insuranceId",
					"type": "uint256"
				}
			],
			"name": "getRestAmount",
			"outputs": [
				{
					"internalType": "uint256",
					"name": "",
					"type": "uint256"
				}
			],
			"stateMutability": "view",
			"type": "function"
		},
		{
			"inputs": [
				{
					"internalType": "uint256",
					"name": "insuranceId",
					"type": "uint256"
				}
			],
			"name": "getStatus",
			"outputs": [
				{
					"internalType": "enum Insurance.status",
					"name": "",
					"type": "uint8"
				}
			],
			"stateMutability": "view",
			"type": "function"
		},
		{
			"inputs": [
				{
					"internalType": "uint256",
					"name": "",
					"type": "uint256"
				}
			],
			"name": "insurances",
			"outputs": [
				{
					"internalType": "uint256",
					"name": "ID",
					"type": "uint256"
				},
				{
					"internalType": "uint256",
					"name": "companyId",
					"type": "uint256"
				},
				{
					"components": [
						{
							"internalType": "uint256",
							"name": "policyOwner",
							"type": "uint256"
						},
						{
							"internalType": "uint256",
							"name": "beneficiary",
							"type": "uint256"
						},
						{
							"internalType": "uint256",
							"name": "lifeAssured",
							"type": "uint256"
						},
						{
							"internalType": "uint256",
							"name": "payingAccount",
							"type": "uint256"
						}
					],
					"internalType": "struct Insurance.stakeholderInfo",
					"name": "stakeholders",
					"type": "tuple"
				},
				{
					"internalType": "uint256",
					"name": "insuredAmount",
					"type": "uint256"
				},
				{
					"internalType": "uint256",
					"name": "currentAmount",
					"type": "uint256"
				},
				{
					"internalType": "enum Insurance.insuranceType",
					"name": "insType",
					"type": "uint8"
				},
				{
					"internalType": "enum Insurance.status",
					"name": "status",
					"type": "uint8"
				},
				{
					"internalType": "uint256",
					"name": "issueDate",
					"type": "uint256"
				},
				{
					"internalType": "uint256",
					"name": "expiryDate",
					"type": "uint256"
				}
			],
			"stateMutability": "view",
			"type": "function"
		},
		{
			"inputs": [],
			"name": "numInsurance",
			"outputs": [
				{
					"internalType": "uint256",
					"name": "",
					"type": "uint256"
				}
			],
			"stateMutability": "view",
			"type": "function"
		},
		{
			"inputs": [],
			"name": "numStakeholder",
			"outputs": [
				{
					"internalType": "uint256",
					"name": "",
					"type": "uint256"
				}
			],
			"stateMutability": "view",
			"type": "function"
		},
		{
			"inputs": [
				{
					"internalType": "uint256",
					"name": "newBeneficiary",
					"type": "uint256"
				},
				{
					"internalType": "uint256",
					"name": "insuranceId",
					"type": "uint256"
				}
			],
			"name": "setBeneficiary",
			"outputs": [],
			"stateMutability": "nonpayable",
			"type": "function"
		},
		{
			"inputs": [
				{
					"internalType": "uint256",
					"name": "date",
					"type": "uint256"
				},
				{
					"internalType": "uint256",
					"name": "insuranceId",
					"type": "uint256"
				}
			],
			"name": "setExpiryDate",
			"outputs": [],
			"stateMutability": "nonpayable",
			"type": "function"
		},
		{
			"inputs": [
				{
					"internalType": "uint256",
					"name": "",
					"type": "uint256"
				}
			],
			"name": "stakeholderinfos",
			"outputs": [
				{
					"internalType": "uint256",
					"name": "policyOwner",
					"type": "uint256"
				},
				{
					"internalType": "uint256",
					"name": "beneficiary",
					"type": "uint256"
				},
				{
					"internalType": "uint256",
					"name": "lifeAssured",
					"type": "uint256"
				},
				{
					"internalType": "uint256",
					"name": "payingAccount",
					"type": "uint256"
				}
			],
			"stateMutability": "view",
			"type": "function"
		},
		{
			"inputs": [
				{
					"internalType": "enum Insurance.status",
					"name": "state",
					"type": "uint8"
				},
				{
					"internalType": "uint256",
					"name": "insuranceId",
					"type": "uint256"
				}
			],
			"name": "updateStatus",
			"outputs": [],
			"stateMutability": "nonpayable",
			"type": "function"
		}
	]
}