{
	"data": {
		"bytecode": {
			"linkReferences": {},
			"object": "6080604052600080556000600255600060065560006007553480156200002457600080fd5b50604051620054c3380380620054c383398181016040528101906200004a919062000197565b81600560006101000a81548173ffffffffffffffffffffffffffffffffffffffff021916908373ffffffffffffffffffffffffffffffffffffffff16021790555080600460006101000a81548173ffffffffffffffffffffffffffffffffffffffff021916908373ffffffffffffffffffffffffffffffffffffffff1602179055505050620001de565b600080fd5b600073ffffffffffffffffffffffffffffffffffffffff82169050919050565b60006200010682620000d9565b9050919050565b60006200011a82620000f9565b9050919050565b6200012c816200010d565b81146200013857600080fd5b50565b6000815190506200014c8162000121565b92915050565b60006200015f82620000f9565b9050919050565b620001718162000152565b81146200017d57600080fd5b50565b600081519050620001918162000166565b92915050565b60008060408385031215620001b157620001b0620000d4565b5b6000620001c1858286016200013b565b9250506020620001d48582860162000180565b9150509250929050565b6152d580620001ee6000396000f3fe6080604052600436106101f85760003560e01c80636833f2001161010d578063bfcb6cfb116100a0578063da304e4d1161006f578063da304e4d14610817578063dd9937f714610854578063e02bb9af1461087d578063e0e5c324146108a6578063e22900ff146108e3576101f8565b8063bfcb6cfb1461074b578063c41a360a14610774578063ca009021146107b1578063d91f2a0b146107ee576101f8565b80638edd5297116100dc5780638edd52971461068f57806393e949c3146106ba5780639f14d7c2146106f7578063b7ff5dae14610722576101f8565b80636833f200146105ad5780636b8ff574146105ea578063703849d91461062757806385fae60214610652576101f8565b80633d1894af116101905780635998f7751161015f5780635998f7751461048457806359fb49f9146104c15780635c622a0e146105075780635d9967011461054457806362584ffe14610582576101f8565b80633d1894af146103b55780633fa3ab26146103de578063467321d51461041e578063575c288714610447576101f8565b806323192ed4116101cc57806323192ed4146102d057806326e1cb821461030e5780632813d19d14610337578063302df08314610378576101f8565b8062544194146101fd5780630386660a1461022d5780631847c06b1461026a5780631a1fc3a0146102a7575b600080fd5b61021760048036038101906102129190613784565b610920565b60405161022491906137e6565b60405180910390f35b34801561023957600080fd5b50610254600480360381019061024f919061382d565b610a61565b60405161026191906137e6565b60405180910390f35b34801561027657600080fd5b50610291600480360381019061028c91906138b8565b610a81565b60405161029e91906137e6565b60405180910390f35b3480156102b357600080fd5b506102ce60048036038101906102c991906138e5565b610a99565b005b3480156102dc57600080fd5b506102f760048036038101906102f29190613925565b610ace565b6040516103059291906139df565b60405180910390f35b34801561031a57600080fd5b5061033560048036038101906103309190613a08565b610b99565b005b34801561034357600080fd5b5061035e6004803603810190610359919061382d565b610c92565b60405161036f959493929190613b70565b60405180910390f35b34801561038457600080fd5b5061039f600480360381019061039a919061382d565b610d70565b6040516103ac91906137e6565b60405180910390f35b3480156103c157600080fd5b506103dc60048036038101906103d791906138e5565b610da6565b005b3480156103ea57600080fd5b506104056004803603810190610400919061382d565b6111fc565b6040516104159493929190613bca565b60405180910390f35b34801561042a57600080fd5b5061044560048036038101906104409190613c0f565b61122c565b005b34801561045357600080fd5b5061046e6004803603810190610469919061382d565b61145e565b60405161047b91906137e6565b60405180910390f35b34801561049057600080fd5b506104ab60048036038101906104a6919061382d565b61149f565b6040516104b891906137e6565b60405180910390f35b3480156104cd57600080fd5b506104e860048036038101906104e3919061382d565b6114bf565b6040516104fe9a99989796959493929190613d35565b60405180910390f35b34801561051357600080fd5b5061052e6004803603810190610529919061382d565b61152d565b60405161053b9190613dd1565b60405180910390f35b34801561055057600080fd5b5061056b600480360381019061056691906138e5565b61155a565b604051610579929190613e34565b60405180910390f35b34801561058e57600080fd5b506105976118d1565b6040516105a491906137e6565b60405180910390f35b3480156105b957600080fd5b506105d460048036038101906105cf919061382d565b6118db565b6040516105e191906137e6565b60405180910390f35b3480156105f657600080fd5b50610611600480360381019061060c919061382d565b6118fb565b60405161061e9190613e5d565b60405180910390f35b34801561063357600080fd5b5061063c6119f7565b60405161064991906137e6565b60405180910390f35b34801561065e57600080fd5b506106796004803603810190610674919061382d565b6119fd565b6040516106869190613f78565b60405180910390f35b34801561069b57600080fd5b506106a4611af1565b6040516106b191906137e6565b60405180910390f35b3480156106c657600080fd5b506106e160048036038101906106dc9190613fb9565b611af7565b6040516106ee91906137e6565b60405180910390f35b34801561070357600080fd5b5061070c611e76565b60405161071991906137e6565b60405180910390f35b34801561072e57600080fd5b5061074960048036038101906107449190614080565b611ebd565b005b34801561075757600080fd5b50610772600480360381019061076d91906140c0565b611eff565b005b34801561078057600080fd5b5061079b6004803603810190610796919061382d565b612144565b6040516107a89190614113565b60405180910390f35b3480156107bd57600080fd5b506107d860048036038101906107d3919061382d565b6121d8565b6040516107e591906137e6565b60405180910390f35b3480156107fa57600080fd5b50610815600480360381019061081091906138e5565b6121f8565b005b34801561082357600080fd5b5061083e6004803603810190610839919061382d565b612270565b60405161084b91906137e6565b60405180910390f35b34801561086057600080fd5b5061087b6004803603810190610876919061382d565b6122e4565b005b34801561088957600080fd5b506108a4600480360381019061089f91906140c0565b6128b2565b005b3480156108b257600080fd5b506108cd60048036038101906108c8919061412e565b612cae565b6040516108da91906137e6565b60405180910390f35b3480156108ef57600080fd5b5061090a6004803603810190610905919061382d565b612d94565b60405161091791906137e6565b60405180910390f35b6000662386f26fc10000341161096b576040517f08c379a000000000000000000000000000000000000000000000000000000000815260040161096290614207565b60405180910390fd5b6007600081548092919061097e90614256565b919050555060006008600060075481526020019081526020016000209050600754816000018190555060008160010181905550828160020190816109c291906144aa565b50338160030160006101000a81548173ffffffffffffffffffffffffffffffffffffffff021916908373ffffffffffffffffffffffffffffffffffffffff16021790555060008160040181905550600754600960003373ffffffffffffffffffffffffffffffffffffffff1673ffffffffffffffffffffffffffffffffffffffff16815260200190815260200160002081905550600754915050919050565b600060016000838152602001908152602001600020600701549050919050565b60096020528060005260406000206000915090505481565b816003600060016000858152602001908152602001600020600201548152602001908152602001600020600101819055505050565b600080600060086000878152602001908152602001600020600601600181600181540180825580915050039060005260206000209060060201905060066000815480929190610b1c90614256565b9190505550600654816000018190555086816001018190555084816002019081610b4691906144aa565b5083816003019081610b5891906144aa565b5060028160040160006101000a81548160ff02191690836002811115610b8157610b80613c76565b5b02179055506001600654925092505094509492505050565b86848060036000600160008681526020019081526020016000206002015481526020019081526020016000206001015414610c09576040517f08c379a0000000000000000000000000000000000000000000000000000000008152600401610c00906145c8565b60405180910390fd5b7f023f2fc8ada0c4baed4ee1e3ba4fe20927aeb0927885a97721dff7bf7de72a5489604051610c3891906137e6565b60405180910390a1610c4e898989888888612db4565b7fa0645bbb67237e776cc7225ab792c6c0145b76e8013248761926aee49549ae998988604051610c7f9291906145e8565b60405180910390a1505050505050505050565b6008602052806000526040600020600091509050806000015490806001015490806002018054610cc1906142cd565b80601f0160208091040260200160405190810160405280929190818152602001828054610ced906142cd565b8015610d3a5780601f10610d0f57610100808354040283529160200191610d3a565b820191906000526020600020905b815481529060010190602001808311610d1d57829003601f168201915b5050505050908060030160009054906101000a900473ffffffffffffffffffffffffffffffffffffffff16908060040154905085565b60006003600060016000858152602001908152602001600020600201548152602001908152602001600020600101549050919050565b806007548111158015610dba575060008114155b610df9576040517f08c379a0000000000000000000000000000000000000000000000000000000008152600401610df09061465d565b60405180910390fd5b813373ffffffffffffffffffffffffffffffffffffffff166008600083815260200190815260200160002060030160009054906101000a900473ffffffffffffffffffffffffffffffffffffffff1673ffffffffffffffffffffffffffffffffffffffff1614610e9e576040517f08c379a0000000000000000000000000000000000000000000000000000000008152600401610e95906146c9565b60405180910390fd5b60008403610ee1576040517f08c379a0000000000000000000000000000000000000000000000000000000008152600401610ed890614735565b60405180910390fd5b60008060086000868152602001908152602001600020600601805480602002602001604051908101604052809291908181526020016000905b828210156110c957838290600052602060002090600602016040518060c00160405290816000820154815260200160018201548152602001600282018054610f61906142cd565b80601f0160208091040260200160405190810160405280929190818152602001828054610f8d906142cd565b8015610fda5780601f10610faf57610100808354040283529160200191610fda565b820191906000526020600020905b815481529060010190602001808311610fbd57829003601f168201915b50505050508152602001600382018054610ff3906142cd565b80601f016020809104026020016040519081016040528092919081815260200182805461101f906142cd565b801561106c5780601f106110415761010080835404028352916020019161106c565b820191906000526020600020905b81548152906001019060200180831161104f57829003601f168201915b505050505081526020016004820160009054906101000a900460ff16600281111561109a57611099613c76565b5b60028111156110ac576110ab613c76565b5b815260200160058201548152505081526020019060010190610f1a565b5050505090506000815190506000805b8281101561112157888482815181106110f5576110f4614755565b5b6020026020010151600001510361110e57809450600191505b808061111990614256565b9150506110d9565b506001151581151514611169576040517f08c379a0000000000000000000000000000000000000000000000000000000008152600401611160906147d0565b60405180910390fd5b80156111f257600183858151811061118457611183614755565b5b60200260200101516080019060028111156111a2576111a1613c76565b5b908160028111156111b6576111b5613c76565b5b815250507f8d7fed20d7d8248d56d7367c40d71b598aadef2c219eeb23c765211306d8cce8886040516111e991906137e6565b60405180910390a15b5050505050505050565b60036020528060005260406000206000915090508060000154908060010154908060020154908060030154905084565b8382806003600060016000868152602001908152602001600020600201548152602001908152602001600020600001541461129c576040517f08c379a00000000000000000000000000000000000000000000000000000000081526004016112939061483c565b60405180910390fd5b600060086000600160008a815260200190815260200160002060010154815260200190815260200160002060030160009054906101000a900473ffffffffffffffffffffffffffffffffffffffff169050600460009054906101000a900473ffffffffffffffffffffffffffffffffffffffff1673ffffffffffffffffffffffffffffffffffffffff16633456ea308583896040518463ffffffff1660e01b815260040161134c9392919061485c565b600060405180830381600087803b15801561136657600080fd5b505af115801561137a573d6000803e3d6000fd5b50505050856001600089815260200190815260200160002060050160008282546113a49190614893565b92505081905550600160008881526020019081526020016000206003015460016000898152602001908152602001600020600501540361141e5760036001600089815260200190815260200160002060060160016101000a81548160ff0219169083600581111561141857611417613c76565b5b02179055505b7f93e71af69425ab98903353cc1f5235add61a8f2f0875df40104a9161ecfca3328760405161144d91906137e6565b60405180910390a150505050505050565b60006001600083815260200190815260200160002060050154600160008481526020019081526020016000206003015461149891906148c7565b9050919050565b600060016000838152602001908152602001600020600401549050919050565b60016020528060005260406000206000915090508060000154908060010154908060020154908060030154908060040154908060050154908060060160009054906101000a900460ff16908060060160019054906101000a900460ff1690806007015490806008015490508a565b60006001600083815260200190815260200160002060060160019054906101000a900460ff169050919050565b600080600083036115a0576040517f08c379a0000000000000000000000000000000000000000000000000000000008152600401611597906147d0565b60405180910390fd5b60008060086000878152602001908152602001600020600601805480602002602001604051908101604052809291908181526020016000905b8282101561178857838290600052602060002090600602016040518060c00160405290816000820154815260200160018201548152602001600282018054611620906142cd565b80601f016020809104026020016040519081016040528092919081815260200182805461164c906142cd565b80156116995780601f1061166e57610100808354040283529160200191611699565b820191906000526020600020905b81548152906001019060200180831161167c57829003601f168201915b505050505081526020016003820180546116b2906142cd565b80601f01602080910402602001604051908101604052809291908181526020018280546116de906142cd565b801561172b5780601f106117005761010080835404028352916020019161172b565b820191906000526020600020905b81548152906001019060200180831161170e57829003601f168201915b505050505081526020016004820160009054906101000a900460ff16600281111561175957611758613c76565b5b600281111561176b5761176a613c76565b5b8152602001600582015481525050815260200190600101906115d9565b5050505090506000815190506000805b828110156117e057878482815181106117b4576117b3614755565b5b602002602001015160000151036117cd57809450600191505b80806117d890614256565b915050611798565b506001151581151514611828576040517f08c379a000000000000000000000000000000000000000000000000000000000815260040161181f90614947565b60405180910390fd5b8015611884577f2341ebb88dfa6ce59e54bdde82e9746e5a27fcd12a0d5d5ca812f1d01f4102e283858151811061186257611861614755565b5b60200260200101516080015160405161187b9190614967565b60405180910390a15b82848151811061189757611896614755565b5b6020026020010151608001518385815181106118b6576118b5614755565b5b602002602001015160a0015195509550505050509250929050565b6000600754905090565b600060016000838152602001908152602001600020600801549050919050565b6060816007548111158015611911575060008114155b611950576040517f08c379a00000000000000000000000000000000000000000000000000000000081526004016119479061465d565b60405180910390fd5b600860008481526020019081526020016000206002018054611971906142cd565b80601f016020809104026020016040519081016040528092919081815260200182805461199d906142cd565b80156119ea5780601f106119bf576101008083540402835291602001916119ea565b820191906000526020600020905b8154815290600101906020018083116119cd57829003601f168201915b5050505050915050919050565b60005481565b611a056135b3565b60016000838152602001908152602001600020604051806101400160405290816000820154815260200160018201548152602001600282015481526020016003820154815260200160048201548152602001600582015481526020016006820160009054906101000a900460ff166001811115611a8557611a84613c76565b5b6001811115611a9757611a96613c76565b5b81526020016006820160019054906101000a900460ff166005811115611ac057611abf613c76565b5b6005811115611ad257611ad1613c76565b5b8152602001600782015481526020016008820154815250509050919050565b60025481565b6000866007548111158015611b0d575060008114155b611b4c576040517f08c379a0000000000000000000000000000000000000000000000000000000008152600401611b439061465d565b60405180910390fd5b873373ffffffffffffffffffffffffffffffffffffffff166008600083815260200190815260200160002060030160009054906101000a900473ffffffffffffffffffffffffffffffffffffffff1673ffffffffffffffffffffffffffffffffffffffff1614611bf1576040517f08c379a0000000000000000000000000000000000000000000000000000000008152600401611be8906146c9565b60405180910390fd5b6001600460009054906101000a900473ffffffffffffffffffffffffffffffffffffffff1673ffffffffffffffffffffffffffffffffffffffff1663b9b7650a336040518263ffffffff1660e01b8152600401611c4e9190614113565b602060405180830381865afa158015611c6b573d6000803e3d6000fd5b505050506040513d601f19601f82011682018060405250810190611c8f9190614997565b11611ccf576040517f08c379a0000000000000000000000000000000000000000000000000000000008152600401611cc690614a36565b60405180910390fd5b629896808511611d14576040517f08c379a0000000000000000000000000000000000000000000000000000000008152600401611d0b90614aa2565b60405180910390fd5b629896808411611d59576040517f08c379a0000000000000000000000000000000000000000000000000000000008152600401611d5090614b0e565b60405180910390fd5b838510611d9b576040517f08c379a0000000000000000000000000000000000000000000000000000000008152600401611d9290614b0e565b60405180910390fd5b600080815480929190611dad90614256565b91905055506000600160008054815260200190815260200160002090508a816002018190555089816001018190555088816003018190555087816004018190555060008160050181905550868160060160006101000a81548160ff02191690836001811115611e1f57611e1e613c76565b5b021790555060008160060160016101000a81548160ff02191690836005811115611e4c57611e4b613c76565b5b02179055508581600701819055508481600801819055506000549350505050979650505050505050565b6000600960003373ffffffffffffffffffffffffffffffffffffffff1673ffffffffffffffffffffffffffffffffffffffff16815260200190815260200160002054905090565b816001600083815260200190815260200160002060060160016101000a81548160ff02191690836005811115611ef657611ef5613c76565b5b02179055505050565b816007548111158015611f13575060008114155b611f52576040517f08c379a0000000000000000000000000000000000000000000000000000000008152600401611f499061465d565b60405180910390fd5b83828060036000600160008681526020019081526020016000206002015481526020019081526020016000206000015414611fc2576040517f08c379a0000000000000000000000000000000000000000000000000000000008152600401611fb99061483c565b60405180910390fd5b600180600088815260200190815260200160002060060160016101000a81548160ff02191690836005811115611ffb57611ffa613c76565b5b0217905550600160008781526020019081526020016000206008600087815260200190815260200160002060050160008881526020019081526020016000206000820154816000015560018201548160010155600282015481600201556003820154816003015560048201548160040155600582015481600501556006820160009054906101000a900460ff168160060160006101000a81548160ff021916908360018111156120ae576120ad613c76565b5b02179055506006820160019054906101000a900460ff168160060160016101000a81548160ff021916908360058111156120eb576120ea613c76565b5b0217905550600782015481600701556008820154816008015590505060086000868152602001908152602001600020600401600081548092919061212e90614256565b919050555061213c8561345e565b505050505050565b600081600754811115801561215a575060008114155b612199576040517f08c379a00000000000000000000000000000000000000000000000000000000081526004016121909061465d565b60405180910390fd5b6008600084815260200190815260200160002060030160009054906101000a900473ffffffffffffffffffffffffffffffffffffffff16915050919050565b600060036000838152602001908152602001600020600001549050919050565b6000600160008381526020019081526020016000206008015403612251576040517f08c379a000000000000000000000000000000000000000000000000000000000815260040161224890614ba0565b60405180910390fd5b8160016000838152602001908152602001600020600801819055505050565b6000816007548111158015612286575060008114155b6122c5576040517f08c379a00000000000000000000000000000000000000000000000000000000081526004016122bc9061465d565b60405180910390fd5b6008600084815260200190815260200160002060010154915050919050565b8060075481111580156122f8575060008114155b612337576040517f08c379a000000000000000000000000000000000000000000000000000000000815260040161232e9061465d565b60405180910390fd5b813373ffffffffffffffffffffffffffffffffffffffff166008600083815260200190815260200160002060030160009054906101000a900473ffffffffffffffffffffffffffffffffffffffff1673ffffffffffffffffffffffffffffffffffffffff16146123dc576040517f08c379a00000000000000000000000000000000000000000000000000000000081526004016123d3906146c9565b60405180910390fd5b600060086000858152602001908152602001600020600601805480602002602001604051908101604052809291908181526020016000905b828210156125c357838290600052602060002090600602016040518060c0016040529081600082015481526020016001820154815260200160028201805461245b906142cd565b80601f0160208091040260200160405190810160405280929190818152602001828054612487906142cd565b80156124d45780601f106124a9576101008083540402835291602001916124d4565b820191906000526020600020905b8154815290600101906020018083116124b757829003601f168201915b505050505081526020016003820180546124ed906142cd565b80601f0160208091040260200160405190810160405280929190818152602001828054612519906142cd565b80156125665780601f1061253b57610100808354040283529160200191612566565b820191906000526020600020905b81548152906001019060200180831161254957829003601f168201915b505050505081526020016004820160009054906101000a900460ff16600281111561259457612593613c76565b5b60028111156125a6576125a5613c76565b5b815260200160058201548152505081526020019060010190612414565b5050505090506000815167ffffffffffffffff8111156125e6576125e5613659565b5b6040519080825280602002602001820160405280156126145781602001602082028036833780820191505090505b5090506000825167ffffffffffffffff81111561263457612633613659565b5b6040519080825280602002602001820160405280156126625781602001602082028036833780820191505090505b5090506000835167ffffffffffffffff81111561268257612681613659565b5b6040519080825280602002602001820160405280156126b557816020015b60608152602001906001900390816126a05790505b5090506000845167ffffffffffffffff8111156126d5576126d4613659565b5b60405190808252806020026020018201604052801561270857816020015b60608152602001906001900390816126f35790505b50905060005b855181101561286a5760028081111561272a57612729613c76565b5b86828151811061273d5761273c614755565b5b602002602001015160800151600281111561275b5761275a613c76565b5b036128575785818151811061277357612772614755565b5b60200260200101516000015185828151811061279257612791614755565b5b6020026020010181815250508581815181106127b1576127b0614755565b5b6020026020010151602001518482815181106127d0576127cf614755565b5b6020026020010181815250508581815181106127ef576127ee614755565b5b60200260200101516040015183828151811061280e5761280d614755565b5b602002602001018190525085818151811061282c5761282b614755565b5b60200260200101516060015182828151811061284b5761284a614755565b5b60200260200101819052505b808061286290614256565b91505061270e565b507ff8be3becfceddab2d6d90e42623d2779957d2177254cb3ee5fe6a9297233c8c2848484846040516128a09493929190614d7b565b60405180910390a15050505050505050565b6000600960003373ffffffffffffffffffffffffffffffffffffffff1673ffffffffffffffffffffffffffffffffffffffff1681526020019081526020016000205403612934576040517f08c379a000000000000000000000000000000000000000000000000000000000815260040161292b90614e28565b60405180910390fd5b60008214612ca95760008060086000868152602001908152602001600020600601805480602002602001604051908101604052809291908181526020016000905b82821015612b2457838290600052602060002090600602016040518060c001604052908160008201548152602001600182015481526020016002820180546129bc906142cd565b80601f01602080910402602001604051908101604052809291908181526020018280546129e8906142cd565b8015612a355780601f10612a0a57610100808354040283529160200191612a35565b820191906000526020600020905b815481529060010190602001808311612a1857829003601f168201915b50505050508152602001600382018054612a4e906142cd565b80601f0160208091040260200160405190810160405280929190818152602001828054612a7a906142cd565b8015612ac75780601f10612a9c57610100808354040283529160200191612ac7565b820191906000526020600020905b815481529060010190602001808311612aaa57829003601f168201915b505050505081526020016004820160009054906101000a900460ff166002811115612af557612af4613c76565b5b6002811115612b0757612b06613c76565b5b815260200160058201548152505081526020019060010190612975565b5050505090506000815190506000805b82811015612b7c5786848281518110612b5057612b4f614755565b5b60200260200101516000015103612b6957809450600191505b8080612b7490614256565b915050612b34565b506001151581151514612bc4576040517f08c379a0000000000000000000000000000000000000000000000000000000008152600401612bbb906147d0565b60405180910390fd5b8015612ca45784600860008981526020019081526020016000206006018581548110612bf357612bf2614755565b5b9060005260206000209060060201600501819055506000600860008981526020019081526020016000206006018581548110612c3257612c31614755565b5b906000526020600020906006020160040160006101000a81548160ff02191690836002811115612c6557612c64613c76565b5b02179055507f90218a18786a98dc15e72ee082c065814f7820762cfd88f194694627e1b7e4c68686604051612c9b9291906145e8565b60405180910390a15b505050505b505050565b600080600960003373ffffffffffffffffffffffffffffffffffffffff1673ffffffffffffffffffffffffffffffffffffffff1681526020019081526020016000205403612d31576040517f08c379a0000000000000000000000000000000000000000000000000000000008152600401612d2890614e28565b60405180910390fd5b60026000815480929190612d4490614256565b919050555060006003600060025481526020019081526020016000209050858160000181905550848160010181905550838160020181905550828160030181905550600254915050949350505050565b600060016000838152602001908152602001600020600101549050919050565b60036005811115612dc857612dc7613c76565b5b6001600088815260200190815260200160002060060160019054906101000a900460ff166005811115612dfe57612dfd613c76565b5b14612e3e576040517f08c379a0000000000000000000000000000000000000000000000000000000008152600401612e3590614eba565b60405180910390fd5b426276a7006064600160008a815260200190815260200160002060070154612e669190614eda565b612e709190614893565b1015612eb1576040517f08c379a0000000000000000000000000000000000000000000000000000000008152600401612ea890614f68565b60405180910390fd5b81604051602001612ec29190614fc4565b60405160208183030381529060405280519060200120600560009054906101000a900473ffffffffffffffffffffffffffffffffffffffff1673ffffffffffffffffffffffffffffffffffffffff1663302e1ab1866040518263ffffffff1660e01b8152600401612f3391906137e6565b600060405180830381865afa158015612f50573d6000803e3d6000fd5b505050506040513d6000823e3d601f19601f82011682018060405250810190612f79919061504b565b604051602001612f899190614fc4565b60405160208183030381529060405280519060200120148015613097575080604051602001612fb89190614fc4565b60405160208183030381529060405280519060200120600560009054906101000a900473ffffffffffffffffffffffffffffffffffffffff1673ffffffffffffffffffffffffffffffffffffffff1663caafc4fb866040518263ffffffff1660e01b815260040161302991906137e6565b600060405180830381865afa158015613046573d6000803e3d6000fd5b505050506040513d6000823e3d601f19601f8201168201806040525081019061306f919061504b565b60405160200161307f9190614fc4565b60405160208183030381529060405280519060200120145b6130d6576040517f08c379a00000000000000000000000000000000000000000000000000000000081526004016130cd90615106565b60405180910390fd5b6002808111156130e9576130e8613c76565b5b600560009054906101000a900473ffffffffffffffffffffffffffffffffffffffff1673ffffffffffffffffffffffffffffffffffffffff1663baaab57a866040518263ffffffff1660e01b815260040161314491906137e6565b602060405180830381865afa158015613161573d6000803e3d6000fd5b505050506040513d601f19601f82011682018060405250810190613185919061514b565b600281111561319757613196613c76565b5b0361321157426303c267006064600160008a8152602001908152602001600020600701546131c59190614eda565b6131cf9190614893565b1015613210576040517f08c379a0000000000000000000000000000000000000000000000000000000008152600401613207906151ea565b60405180910390fd5b5b600060016000888152602001908152602001600020600401549050600060086000888152602001908152602001600020905060008160030160009054906101000a900473ffffffffffffffffffffffffffffffffffffffff16905082600460009054906101000a900473ffffffffffffffffffffffffffffffffffffffff1673ffffffffffffffffffffffffffffffffffffffff1663b9b7650a836040518263ffffffff1660e01b81526004016132c89190614113565b602060405180830381865afa1580156132e5573d6000803e3d6000fd5b505050506040513d601f19601f820116820180604052508101906133099190614997565b101561334a576040517f08c379a000000000000000000000000000000000000000000000000000000000815260040161334190615256565b60405180910390fd5b600460009054906101000a900473ffffffffffffffffffffffffffffffffffffffff1673ffffffffffffffffffffffffffffffffffffffff16633456ea308288866040518463ffffffff1660e01b81526004016133a99392919061485c565b600060405180830381600087803b1580156133c357600080fd5b505af11580156133d7573d6000803e3d6000fd5b505050506004600160008b815260200190815260200160002060060160016101000a81548160ff0219169083600581111561341557613414613c76565b5b02179055507fa9059cbb2ab09eb219583f4a59a5d0623ade346d962bcd4e46b11da047c9049b868460405161344b929190615276565b60405180910390a1505050505050505050565b806007548111158015613472575060008114155b6134b1576040517f08c379a00000000000000000000000000000000000000000000000000000000081526004016134a89061465d565b60405180910390fd5b6000600860008481526020019081526020016000209050600081600401549050603281101580156134e3575060c88111155b156134f757600182600101819055506135ad565b60c881118015613509575061015e8111155b1561351d57600282600101819055506135ac565b61015e8111801561353057506101c28111155b1561354457600382600101819055506135ab565b6101c28111801561355757506103208111155b1561356b57600482600101819055506135aa565b6103208111801561357e57506107d08111155b1561359257600582600101819055506135a9565b6107d08111156135a8576103e782600101819055505b5b5b5b5b5b50505050565b604051806101400160405280600081526020016000815260200160008152602001600081526020016000815260200160008152602001600060018111156135fd576135fc613c76565b5b81526020016000600581111561361657613615613c76565b5b815260200160008152602001600081525090565b6000604051905090565b600080fd5b600080fd5b600080fd5b600080fd5b6000601f19601f8301169050919050565b7f4e487b7100000000000000000000000000000000000000000000000000000000600052604160045260246000fd5b61369182613648565b810181811067ffffffffffffffff821117156136b0576136af613659565b5b80604052505050565b60006136c361362a565b90506136cf8282613688565b919050565b600067ffffffffffffffff8211156136ef576136ee613659565b5b6136f882613648565b9050602081019050919050565b82818337600083830152505050565b6000613727613722846136d4565b6136b9565b90508281526020810184848401111561374357613742613643565b5b61374e848285613705565b509392505050565b600082601f83011261376b5761376a61363e565b5b813561377b848260208601613714565b91505092915050565b60006020828403121561379a57613799613634565b5b600082013567ffffffffffffffff8111156137b8576137b7613639565b5b6137c484828501613756565b91505092915050565b6000819050919050565b6137e0816137cd565b82525050565b60006020820190506137fb60008301846137d7565b92915050565b61380a816137cd565b811461381557600080fd5b50565b60008135905061382781613801565b92915050565b60006020828403121561384357613842613634565b5b600061385184828501613818565b91505092915050565b600073ffffffffffffffffffffffffffffffffffffffff82169050919050565b60006138858261385a565b9050919050565b6138958161387a565b81146138a057600080fd5b50565b6000813590506138b28161388c565b92915050565b6000602082840312156138ce576138cd613634565b5b60006138dc848285016138a3565b91505092915050565b600080604083850312156138fc576138fb613634565b5b600061390a85828601613818565b925050602061391b85828601613818565b9150509250929050565b6000806000806080858703121561393f5761393e613634565b5b600061394d87828801613818565b945050602061395e87828801613818565b935050604085013567ffffffffffffffff81111561397f5761397e613639565b5b61398b87828801613756565b925050606085013567ffffffffffffffff8111156139ac576139ab613639565b5b6139b887828801613756565b91505092959194509250565b60008115159050919050565b6139d9816139c4565b82525050565b60006040820190506139f460008301856139d0565b613a0160208301846137d7565b9392505050565b600080600080600080600060e0888a031215613a2757613a26613634565b5b6000613a358a828b01613818565b9750506020613a468a828b01613818565b9650506040613a578a828b01613818565b9550506060613a688a828b01613818565b9450506080613a798a828b016138a3565b93505060a088013567ffffffffffffffff811115613a9a57613a99613639565b5b613aa68a828b01613756565b92505060c088013567ffffffffffffffff811115613ac757613ac6613639565b5b613ad38a828b01613756565b91505092959891949750929550565b600081519050919050565b600082825260208201905092915050565b60005b83811015613b1c578082015181840152602081019050613b01565b60008484015250505050565b6000613b3382613ae2565b613b3d8185613aed565b9350613b4d818560208601613afe565b613b5681613648565b840191505092915050565b613b6a8161387a565b82525050565b600060a082019050613b8560008301886137d7565b613b9260208301876137d7565b8181036040830152613ba48186613b28565b9050613bb36060830185613b61565b613bc060808301846137d7565b9695505050505050565b6000608082019050613bdf60008301876137d7565b613bec60208301866137d7565b613bf960408301856137d7565b613c0660608301846137d7565b95945050505050565b60008060008060808587031215613c2957613c28613634565b5b6000613c3787828801613818565b9450506020613c4887828801613818565b9350506040613c5987828801613818565b9250506060613c6a878288016138a3565b91505092959194509250565b7f4e487b7100000000000000000000000000000000000000000000000000000000600052602160045260246000fd5b60028110613cb657613cb5613c76565b5b50565b6000819050613cc782613ca5565b919050565b6000613cd782613cb9565b9050919050565b613ce781613ccc565b82525050565b60068110613cfe57613cfd613c76565b5b50565b6000819050613d0f82613ced565b919050565b6000613d1f82613d01565b9050919050565b613d2f81613d14565b82525050565b600061014082019050613d4b600083018d6137d7565b613d58602083018c6137d7565b613d65604083018b6137d7565b613d72606083018a6137d7565b613d7f60808301896137d7565b613d8c60a08301886137d7565b613d9960c0830187613cde565b613da660e0830186613d26565b613db46101008301856137d7565b613dc26101208301846137d7565b9b9a5050505050505050505050565b6000602082019050613de66000830184613d26565b92915050565b60038110613dfd57613dfc613c76565b5b50565b6000819050613e0e82613dec565b919050565b6000613e1e82613e00565b9050919050565b613e2e81613e13565b82525050565b6000604082019050613e496000830185613e25565b613e5660208301846137d7565b9392505050565b60006020820190508181036000830152613e778184613b28565b905092915050565b613e88816137cd565b82525050565b613e9781613ccc565b82525050565b613ea681613d14565b82525050565b61014082016000820151613ec36000850182613e7f565b506020820151613ed66020850182613e7f565b506040820151613ee96040850182613e7f565b506060820151613efc6060850182613e7f565b506080820151613f0f6080850182613e7f565b5060a0820151613f2260a0850182613e7f565b5060c0820151613f3560c0850182613e8e565b5060e0820151613f4860e0850182613e9d565b50610100820151613f5d610100850182613e7f565b50610120820151613f72610120850182613e7f565b50505050565b600061014082019050613f8e6000830184613eac565b92915050565b60028110613fa157600080fd5b50565b600081359050613fb381613f94565b92915050565b600080600080600080600060e0888a031215613fd857613fd7613634565b5b6000613fe68a828b01613818565b9750506020613ff78a828b01613818565b96505060406140088a828b01613818565b95505060606140198a828b01613818565b945050608061402a8a828b01613fa4565b93505060a061403b8a828b01613818565b92505060c061404c8a828b01613818565b91505092959891949750929550565b6006811061406857600080fd5b50565b60008135905061407a8161405b565b92915050565b6000806040838503121561409757614096613634565b5b60006140a58582860161406b565b92505060206140b685828601613818565b9150509250929050565b6000806000606084860312156140d9576140d8613634565b5b60006140e786828701613818565b93505060206140f886828701613818565b925050604061410986828701613818565b9150509250925092565b60006020820190506141286000830184613b61565b92915050565b6000806000806080858703121561414857614147613634565b5b600061415687828801613818565b945050602061416787828801613818565b935050604061417887828801613818565b925050606061418987828801613818565b91505092959194509250565b7f6174206c6561737420302e303120455448206973206e656564656420746f206360008201527f7265617465206120636f6d70616e790000000000000000000000000000000000602082015250565b60006141f1602f83613aed565b91506141fc82614195565b604082019050919050565b60006020820190508181036000830152614220816141e4565b9050919050565b7f4e487b7100000000000000000000000000000000000000000000000000000000600052601160045260246000fd5b6000614261826137cd565b91507fffffffffffffffffffffffffffffffffffffffffffffffffffffffffffffffff820361429357614292614227565b5b600182019050919050565b7f4e487b7100000000000000000000000000000000000000000000000000000000600052602260045260246000fd5b600060028204905060018216806142e557607f821691505b6020821081036142f8576142f761429e565b5b50919050565b60008190508160005260206000209050919050565b60006020601f8301049050919050565b600082821b905092915050565b6000600883026143607fffffffffffffffffffffffffffffffffffffffffffffffffffffffffffffffff82614323565b61436a8683614323565b95508019841693508086168417925050509392505050565b6000819050919050565b60006143a76143a261439d846137cd565b614382565b6137cd565b9050919050565b6000819050919050565b6143c18361438c565b6143d56143cd826143ae565b848454614330565b825550505050565b600090565b6143ea6143dd565b6143f58184846143b8565b505050565b5b818110156144195761440e6000826143e2565b6001810190506143fb565b5050565b601f82111561445e5761442f816142fe565b61443884614313565b81016020851015614447578190505b61445b61445385614313565b8301826143fa565b50505b505050565b600082821c905092915050565b600061448160001984600802614463565b1980831691505092915050565b600061449a8383614470565b9150826002028217905092915050565b6144b382613ae2565b67ffffffffffffffff8111156144cc576144cb613659565b5b6144d682546142cd565b6144e182828561441d565b600060209050601f8311600181146145145760008415614502578287015190505b61450c858261448e565b865550614574565b601f198416614522866142fe565b60005b8281101561454a57848901518255600182019150602085019450602081019050614525565b868310156145675784890151614563601f891682614470565b8355505b6001600288020188555050505b505050505050565b7f496e76616c69642062656e656669636961727921000000000000000000000000600082015250565b60006145b2601483613aed565b91506145bd8261457c565b602082019050919050565b600060208201905081810360008301526145e1816145a5565b9050919050565b60006040820190506145fd60008301856137d7565b61460a60208301846137d7565b9392505050565b7f496e76616c696420636f6d70616e792069642100000000000000000000000000600082015250565b6000614647601383613aed565b915061465282614611565b602082019050919050565b600060208201905081810360008301526146768161463a565b9050919050565b7f596f7520617265206e6f7420746865206f776e65722100000000000000000000600082015250565b60006146b3601683613aed565b91506146be8261467d565b602082019050919050565b600060208201905081810360008301526146e2816146a6565b9050919050565b7f496e7075742076616c6964207265717565737449642100000000000000000000600082015250565b600061471f601683613aed565b915061472a826146e9565b602082019050919050565b6000602082019050818103600083015261474e81614712565b9050919050565b7f4e487b7100000000000000000000000000000000000000000000000000000000600052603260045260246000fd5b7f496e76616c696420726571756573742069642100000000000000000000000000600082015250565b60006147ba601383613aed565b91506147c582614784565b602082019050919050565b600060208201905081810360008301526147e9816147ad565b9050919050565b7f496e76616c696420706f6c696379206f776e6572210000000000000000000000600082015250565b6000614826601583613aed565b9150614831826147f0565b602082019050919050565b6000602082019050818103600083015261485581614819565b9050919050565b60006060820190506148716000830186613b61565b61487e6020830185613b61565b61488b60408301846137d7565b949350505050565b600061489e826137cd565b91506148a9836137cd565b92508282019050808211156148c1576148c0614227565b5b92915050565b60006148d2826137cd565b91506148dd836137cd565b92508282039050818111156148f5576148f4614227565b5b92915050565b7f596f7520686176656e2774207265717565737465642100000000000000000000600082015250565b6000614931601683613aed565b915061493c826148fb565b602082019050919050565b6000602082019050818103600083015261496081614924565b9050919050565b600060208201905061497c6000830184613e25565b92915050565b60008151905061499181613801565b92915050565b6000602082840312156149ad576149ac613634565b5b60006149bb84828501614982565b91505092915050565b7f31205472757374496e73757265206973206e656564656420746f20637265617460008201527f652061206e657720696e737572616e6365000000000000000000000000000000602082015250565b6000614a20603183613aed565b9150614a2b826149c4565b604082019050919050565b60006020820190508181036000830152614a4f81614a13565b9050919050565b7f496e76616c696420697373756520646174652100000000000000000000000000600082015250565b6000614a8c601383613aed565b9150614a9782614a56565b602082019050919050565b60006020820190508181036000830152614abb81614a7f565b9050919050565b7f496e76616c696420657870697279206461746521000000000000000000000000600082015250565b6000614af8601483613aed565b9150614b0382614ac2565b602082019050919050565b60006020820190508181036000830152614b2781614aeb565b9050919050565b7f45787069727920646174652068617320616c7265616479206265656e20696e6960008201527f7469616c69736564000000000000000000000000000000000000000000000000602082015250565b6000614b8a602883613aed565b9150614b9582614b2e565b604082019050919050565b60006020820190508181036000830152614bb981614b7d565b9050919050565b600081519050919050565b600082825260208201905092915050565b6000819050602082019050919050565b6000614bf88383613e7f565b60208301905092915050565b6000602082019050919050565b6000614c1c82614bc0565b614c268185614bcb565b9350614c3183614bdc565b8060005b83811015614c62578151614c498882614bec565b9750614c5483614c04565b925050600181019050614c35565b5085935050505092915050565b600081519050919050565b600082825260208201905092915050565b6000819050602082019050919050565b600082825260208201905092915050565b6000614cb782613ae2565b614cc18185614c9b565b9350614cd1818560208601613afe565b614cda81613648565b840191505092915050565b6000614cf18383614cac565b905092915050565b6000602082019050919050565b6000614d1182614c6f565b614d1b8185614c7a565b935083602082028501614d2d85614c8b565b8060005b85811015614d695784840389528151614d4a8582614ce5565b9450614d5583614cf9565b925060208a01995050600181019050614d31565b50829750879550505050505092915050565b60006080820190508181036000830152614d958187614c11565b90508181036020830152614da98186614c11565b90508181036040830152614dbd8185614d06565b90508181036060830152614dd18184614d06565b905095945050505050565b7f596f7520617265206e6f7420617574686f72697a656421000000000000000000600082015250565b6000614e12601783613aed565b9150614e1d82614ddc565b602082019050919050565b60006020820190508181036000830152614e4181614e05565b9050919050565b7f5374616b65686f6c64657220686176656e277420706169642074686520696e7360008201527f7572616e63652100000000000000000000000000000000000000000000000000602082015250565b6000614ea4602783613aed565b9150614eaf82614e48565b604082019050919050565b60006020820190508181036000830152614ed381614e97565b9050919050565b6000614ee5826137cd565b9150614ef0836137cd565b9250828202614efe816137cd565b91508282048414831517614f1557614f14614227565b5b5092915050565b7f486176656e27742074616b652065666665637421000000000000000000000000600082015250565b6000614f52601483613aed565b9150614f5d82614f1c565b602082019050919050565b60006020820190508181036000830152614f8181614f45565b9050919050565b600081905092915050565b6000614f9e82613ae2565b614fa88185614f88565b9350614fb8818560208601613afe565b80840191505092915050565b6000614fd08284614f93565b915081905092915050565b6000614fee614fe9846136d4565b6136b9565b90508281526020810184848401111561500a57615009613643565b5b615015848285613afe565b509392505050565b600082601f8301126150325761503161363e565b5b8151615042848260208601614fdb565b91505092915050565b60006020828403121561506157615060613634565b5b600082015167ffffffffffffffff81111561507f5761507e613639565b5b61508b8482850161501d565b91505092915050565b7f496e76616c6964206c6966652061737375726564206e616d6520616e64204e5260008201527f4943210000000000000000000000000000000000000000000000000000000000602082015250565b60006150f0602383613aed565b91506150fb82615094565b604082019050919050565b6000602082019050818103600083015261511f816150e3565b9050919050565b6003811061513357600080fd5b50565b60008151905061514581615126565b92915050565b60006020828403121561516157615160613634565b5b600061516f84828501615136565b91505092915050565b7f496620737569636964652063616e6e6f7420636c61696d2077697468696e203260008201527f2079656172732100000000000000000000000000000000000000000000000000602082015250565b60006151d4602783613aed565b91506151df82615178565b604082019050919050565b60006020820190508181036000830152615203816151c7565b9050919050565b7f6e6f7420656e6f756768205472757374496e7375726520746f20706179210000600082015250565b6000615240601e83613aed565b915061524b8261520a565b602082019050919050565b6000602082019050818103600083015261526f81615233565b9050919050565b600060408201905061528b6000830185613b61565b61529860208301846137d7565b939250505056fea26469706673582212201cac4bf9edb823f917ee207a155097708810f407be7f656c147f2eb1bdd041e864736f6c63430008120033",
			"opcodes": "PUSH1 0x80 PUSH1 0x40 MSTORE PUSH1 0x0 DUP1 SSTORE PUSH1 0x0 PUSH1 0x2 SSTORE PUSH1 0x0 PUSH1 0x6 SSTORE PUSH1 0x0 PUSH1 0x7 SSTORE CALLVALUE DUP1 ISZERO PUSH3 0x24 JUMPI PUSH1 0x0 DUP1 REVERT JUMPDEST POP PUSH1 0x40 MLOAD PUSH3 0x54C3 CODESIZE SUB DUP1 PUSH3 0x54C3 DUP4 CODECOPY DUP2 DUP2 ADD PUSH1 0x40 MSTORE DUP2 ADD SWAP1 PUSH3 0x4A SWAP2 SWAP1 PUSH3 0x197 JUMP JUMPDEST DUP2 PUSH1 0x5 PUSH1 0x0 PUSH2 0x100 EXP DUP2 SLOAD DUP2 PUSH20 0xFFFFFFFFFFFFFFFFFFFFFFFFFFFFFFFFFFFFFFFF MUL NOT AND SWAP1 DUP4 PUSH20 0xFFFFFFFFFFFFFFFFFFFFFFFFFFFFFFFFFFFFFFFF AND MUL OR SWAP1 SSTORE POP DUP1 PUSH1 0x4 PUSH1 0x0 PUSH2 0x100 EXP DUP2 SLOAD DUP2 PUSH20 0xFFFFFFFFFFFFFFFFFFFFFFFFFFFFFFFFFFFFFFFF MUL NOT AND SWAP1 DUP4 PUSH20 0xFFFFFFFFFFFFFFFFFFFFFFFFFFFFFFFFFFFFFFFF AND MUL OR SWAP1 SSTORE POP POP POP PUSH3 0x1DE JUMP JUMPDEST PUSH1 0x0 DUP1 REVERT JUMPDEST PUSH1 0x0 PUSH20 0xFFFFFFFFFFFFFFFFFFFFFFFFFFFFFFFFFFFFFFFF DUP3 AND SWAP1 POP SWAP2 SWAP1 POP JUMP JUMPDEST PUSH1 0x0 PUSH3 0x106 DUP3 PUSH3 0xD9 JUMP JUMPDEST SWAP1 POP SWAP2 SWAP1 POP JUMP JUMPDEST PUSH1 0x0 PUSH3 0x11A DUP3 PUSH3 0xF9 JUMP JUMPDEST SWAP1 POP SWAP2 SWAP1 POP JUMP JUMPDEST PUSH3 0x12C DUP2 PUSH3 0x10D JUMP JUMPDEST DUP2 EQ PUSH3 0x138 JUMPI PUSH1 0x0 DUP1 REVERT JUMPDEST POP JUMP JUMPDEST PUSH1 0x0 DUP2 MLOAD SWAP1 POP PUSH3 0x14C DUP2 PUSH3 0x121 JUMP JUMPDEST SWAP3 SWAP2 POP POP JUMP JUMPDEST PUSH1 0x0 PUSH3 0x15F DUP3 PUSH3 0xF9 JUMP JUMPDEST SWAP1 POP SWAP2 SWAP1 POP JUMP JUMPDEST PUSH3 0x171 DUP2 PUSH3 0x152 JUMP JUMPDEST DUP2 EQ PUSH3 0x17D JUMPI PUSH1 0x0 DUP1 REVERT JUMPDEST POP JUMP JUMPDEST PUSH1 0x0 DUP2 MLOAD SWAP1 POP PUSH3 0x191 DUP2 PUSH3 0x166 JUMP JUMPDEST SWAP3 SWAP2 POP POP JUMP JUMPDEST PUSH1 0x0 DUP1 PUSH1 0x40 DUP4 DUP6 SUB SLT ISZERO PUSH3 0x1B1 JUMPI PUSH3 0x1B0 PUSH3 0xD4 JUMP JUMPDEST JUMPDEST PUSH1 0x0 PUSH3 0x1C1 DUP6 DUP3 DUP7 ADD PUSH3 0x13B JUMP JUMPDEST SWAP3 POP POP PUSH1 0x20 PUSH3 0x1D4 DUP6 DUP3 DUP7 ADD PUSH3 0x180 JUMP JUMPDEST SWAP2 POP POP SWAP3 POP SWAP3 SWAP1 POP JUMP JUMPDEST PUSH2 0x52D5 DUP1 PUSH3 0x1EE PUSH1 0x0 CODECOPY PUSH1 0x0 RETURN INVALID PUSH1 0x80 PUSH1 0x40 MSTORE PUSH1 0x4 CALLDATASIZE LT PUSH2 0x1F8 JUMPI PUSH1 0x0 CALLDATALOAD PUSH1 0xE0 SHR DUP1 PUSH4 0x6833F200 GT PUSH2 0x10D JUMPI DUP1 PUSH4 0xBFCB6CFB GT PUSH2 0xA0 JUMPI DUP1 PUSH4 0xDA304E4D GT PUSH2 0x6F JUMPI DUP1 PUSH4 0xDA304E4D EQ PUSH2 0x817 JUMPI DUP1 PUSH4 0xDD9937F7 EQ PUSH2 0x854 JUMPI DUP1 PUSH4 0xE02BB9AF EQ PUSH2 0x87D JUMPI DUP1 PUSH4 0xE0E5C324 EQ PUSH2 0x8A6 JUMPI DUP1 PUSH4 0xE22900FF EQ PUSH2 0x8E3 JUMPI PUSH2 0x1F8 JUMP JUMPDEST DUP1 PUSH4 0xBFCB6CFB EQ PUSH2 0x74B JUMPI DUP1 PUSH4 0xC41A360A EQ PUSH2 0x774 JUMPI DUP1 PUSH4 0xCA009021 EQ PUSH2 0x7B1 JUMPI DUP1 PUSH4 0xD91F2A0B EQ PUSH2 0x7EE JUMPI PUSH2 0x1F8 JUMP JUMPDEST DUP1 PUSH4 0x8EDD5297 GT PUSH2 0xDC JUMPI DUP1 PUSH4 0x8EDD5297 EQ PUSH2 0x68F JUMPI DUP1 PUSH4 0x93E949C3 EQ PUSH2 0x6BA JUMPI DUP1 PUSH4 0x9F14D7C2 EQ PUSH2 0x6F7 JUMPI DUP1 PUSH4 0xB7FF5DAE EQ PUSH2 0x722 JUMPI PUSH2 0x1F8 JUMP JUMPDEST DUP1 PUSH4 0x6833F200 EQ PUSH2 0x5AD JUMPI DUP1 PUSH4 0x6B8FF574 EQ PUSH2 0x5EA JUMPI DUP1 PUSH4 0x703849D9 EQ PUSH2 0x627 JUMPI DUP1 PUSH4 0x85FAE602 EQ PUSH2 0x652 JUMPI PUSH2 0x1F8 JUMP JUMPDEST DUP1 PUSH4 0x3D1894AF GT PUSH2 0x190 JUMPI DUP1 PUSH4 0x5998F775 GT PUSH2 0x15F JUMPI DUP1 PUSH4 0x5998F775 EQ PUSH2 0x484 JUMPI DUP1 PUSH4 0x59FB49F9 EQ PUSH2 0x4C1 JUMPI DUP1 PUSH4 0x5C622A0E EQ PUSH2 0x507 JUMPI DUP1 PUSH4 0x5D996701 EQ PUSH2 0x544 JUMPI DUP1 PUSH4 0x62584FFE EQ PUSH2 0x582 JUMPI PUSH2 0x1F8 JUMP JUMPDEST DUP1 PUSH4 0x3D1894AF EQ PUSH2 0x3B5 JUMPI DUP1 PUSH4 0x3FA3AB26 EQ PUSH2 0x3DE JUMPI DUP1 PUSH4 0x467321D5 EQ PUSH2 0x41E JUMPI DUP1 PUSH4 0x575C2887 EQ PUSH2 0x447 JUMPI PUSH2 0x1F8 JUMP JUMPDEST DUP1 PUSH4 0x23192ED4 GT PUSH2 0x1CC JUMPI DUP1 PUSH4 0x23192ED4 EQ PUSH2 0x2D0 JUMPI DUP1 PUSH4 0x26E1CB82 EQ PUSH2 0x30E JUMPI DUP1 PUSH4 0x2813D19D EQ PUSH2 0x337 JUMPI DUP1 PUSH4 0x302DF083 EQ PUSH2 0x378 JUMPI PUSH2 0x1F8 JUMP JUMPDEST DUP1 PUSH3 0x544194 EQ PUSH2 0x1FD JUMPI DUP1 PUSH4 0x386660A EQ PUSH2 0x22D JUMPI DUP1 PUSH4 0x1847C06B EQ PUSH2 0x26A JUMPI DUP1 PUSH4 0x1A1FC3A0 EQ PUSH2 0x2A7 JUMPI JUMPDEST PUSH1 0x0 DUP1 REVERT JUMPDEST PUSH2 0x217 PUSH1 0x4 DUP1 CALLDATASIZE SUB DUP2 ADD SWAP1 PUSH2 0x212 SWAP2 SWAP1 PUSH2 0x3784 JUMP JUMPDEST PUSH2 0x920 JUMP JUMPDEST PUSH1 0x40 MLOAD PUSH2 0x224 SWAP2 SWAP1 PUSH2 0x37E6 JUMP JUMPDEST PUSH1 0x40 MLOAD DUP1 SWAP2 SUB SWAP1 RETURN JUMPDEST CALLVALUE DUP1 ISZERO PUSH2 0x239 JUMPI PUSH1 0x0 DUP1 REVERT JUMPDEST POP PUSH2 0x254 PUSH1 0x4 DUP1 CALLDATASIZE SUB DUP2 ADD SWAP1 PUSH2 0x24F SWAP2 SWAP1 PUSH2 0x382D JUMP JUMPDEST PUSH2 0xA61 JUMP JUMPDEST PUSH1 0x40 MLOAD PUSH2 0x261 SWAP2 SWAP1 PUSH2 0x37E6 JUMP JUMPDEST PUSH1 0x40 MLOAD DUP1 SWAP2 SUB SWAP1 RETURN JUMPDEST CALLVALUE DUP1 ISZERO PUSH2 0x276 JUMPI PUSH1 0x0 DUP1 REVERT JUMPDEST POP PUSH2 0x291 PUSH1 0x4 DUP1 CALLDATASIZE SUB DUP2 ADD SWAP1 PUSH2 0x28C SWAP2 SWAP1 PUSH2 0x38B8 JUMP JUMPDEST PUSH2 0xA81 JUMP JUMPDEST PUSH1 0x40 MLOAD PUSH2 0x29E SWAP2 SWAP1 PUSH2 0x37E6 JUMP JUMPDEST PUSH1 0x40 MLOAD DUP1 SWAP2 SUB SWAP1 RETURN JUMPDEST CALLVALUE DUP1 ISZERO PUSH2 0x2B3 JUMPI PUSH1 0x0 DUP1 REVERT JUMPDEST POP PUSH2 0x2CE PUSH1 0x4 DUP1 CALLDATASIZE SUB DUP2 ADD SWAP1 PUSH2 0x2C9 SWAP2 SWAP1 PUSH2 0x38E5 JUMP JUMPDEST PUSH2 0xA99 JUMP JUMPDEST STOP JUMPDEST CALLVALUE DUP1 ISZERO PUSH2 0x2DC JUMPI PUSH1 0x0 DUP1 REVERT JUMPDEST POP PUSH2 0x2F7 PUSH1 0x4 DUP1 CALLDATASIZE SUB DUP2 ADD SWAP1 PUSH2 0x2F2 SWAP2 SWAP1 PUSH2 0x3925 JUMP JUMPDEST PUSH2 0xACE JUMP JUMPDEST PUSH1 0x40 MLOAD PUSH2 0x305 SWAP3 SWAP2 SWAP1 PUSH2 0x39DF JUMP JUMPDEST PUSH1 0x40 MLOAD DUP1 SWAP2 SUB SWAP1 RETURN JUMPDEST CALLVALUE DUP1 ISZERO PUSH2 0x31A JUMPI PUSH1 0x0 DUP1 REVERT JUMPDEST POP PUSH2 0x335 PUSH1 0x4 DUP1 CALLDATASIZE SUB DUP2 ADD SWAP1 PUSH2 0x330 SWAP2 SWAP1 PUSH2 0x3A08 JUMP JUMPDEST PUSH2 0xB99 JUMP JUMPDEST STOP JUMPDEST CALLVALUE DUP1 ISZERO PUSH2 0x343 JUMPI PUSH1 0x0 DUP1 REVERT JUMPDEST POP PUSH2 0x35E PUSH1 0x4 DUP1 CALLDATASIZE SUB DUP2 ADD SWAP1 PUSH2 0x359 SWAP2 SWAP1 PUSH2 0x382D JUMP JUMPDEST PUSH2 0xC92 JUMP JUMPDEST PUSH1 0x40 MLOAD PUSH2 0x36F SWAP6 SWAP5 SWAP4 SWAP3 SWAP2 SWAP1 PUSH2 0x3B70 JUMP JUMPDEST PUSH1 0x40 MLOAD DUP1 SWAP2 SUB SWAP1 RETURN JUMPDEST CALLVALUE DUP1 ISZERO PUSH2 0x384 JUMPI PUSH1 0x0 DUP1 REVERT JUMPDEST POP PUSH2 0x39F PUSH1 0x4 DUP1 CALLDATASIZE SUB DUP2 ADD SWAP1 PUSH2 0x39A SWAP2 SWAP1 PUSH2 0x382D JUMP JUMPDEST PUSH2 0xD70 JUMP JUMPDEST PUSH1 0x40 MLOAD PUSH2 0x3AC SWAP2 SWAP1 PUSH2 0x37E6 JUMP JUMPDEST PUSH1 0x40 MLOAD DUP1 SWAP2 SUB SWAP1 RETURN JUMPDEST CALLVALUE DUP1 ISZERO PUSH2 0x3C1 JUMPI PUSH1 0x0 DUP1 REVERT JUMPDEST POP PUSH2 0x3DC PUSH1 0x4 DUP1 CALLDATASIZE SUB DUP2 ADD SWAP1 PUSH2 0x3D7 SWAP2 SWAP1 PUSH2 0x38E5 JUMP JUMPDEST PUSH2 0xDA6 JUMP JUMPDEST STOP JUMPDEST CALLVALUE DUP1 ISZERO PUSH2 0x3EA JUMPI PUSH1 0x0 DUP1 REVERT JUMPDEST POP PUSH2 0x405 PUSH1 0x4 DUP1 CALLDATASIZE SUB DUP2 ADD SWAP1 PUSH2 0x400 SWAP2 SWAP1 PUSH2 0x382D JUMP JUMPDEST PUSH2 0x11FC JUMP JUMPDEST PUSH1 0x40 MLOAD PUSH2 0x415 SWAP5 SWAP4 SWAP3 SWAP2 SWAP1 PUSH2 0x3BCA JUMP JUMPDEST PUSH1 0x40 MLOAD DUP1 SWAP2 SUB SWAP1 RETURN JUMPDEST CALLVALUE DUP1 ISZERO PUSH2 0x42A JUMPI PUSH1 0x0 DUP1 REVERT JUMPDEST POP PUSH2 0x445 PUSH1 0x4 DUP1 CALLDATASIZE SUB DUP2 ADD SWAP1 PUSH2 0x440 SWAP2 SWAP1 PUSH2 0x3C0F JUMP JUMPDEST PUSH2 0x122C JUMP JUMPDEST STOP JUMPDEST CALLVALUE DUP1 ISZERO PUSH2 0x453 JUMPI PUSH1 0x0 DUP1 REVERT JUMPDEST POP PUSH2 0x46E PUSH1 0x4 DUP1 CALLDATASIZE SUB DUP2 ADD SWAP1 PUSH2 0x469 SWAP2 SWAP1 PUSH2 0x382D JUMP JUMPDEST PUSH2 0x145E JUMP JUMPDEST PUSH1 0x40 MLOAD PUSH2 0x47B SWAP2 SWAP1 PUSH2 0x37E6 JUMP JUMPDEST PUSH1 0x40 MLOAD DUP1 SWAP2 SUB SWAP1 RETURN JUMPDEST CALLVALUE DUP1 ISZERO PUSH2 0x490 JUMPI PUSH1 0x0 DUP1 REVERT JUMPDEST POP PUSH2 0x4AB PUSH1 0x4 DUP1 CALLDATASIZE SUB DUP2 ADD SWAP1 PUSH2 0x4A6 SWAP2 SWAP1 PUSH2 0x382D JUMP JUMPDEST PUSH2 0x149F JUMP JUMPDEST PUSH1 0x40 MLOAD PUSH2 0x4B8 SWAP2 SWAP1 PUSH2 0x37E6 JUMP JUMPDEST PUSH1 0x40 MLOAD DUP1 SWAP2 SUB SWAP1 RETURN JUMPDEST CALLVALUE DUP1 ISZERO PUSH2 0x4CD JUMPI PUSH1 0x0 DUP1 REVERT JUMPDEST POP PUSH2 0x4E8 PUSH1 0x4 DUP1 CALLDATASIZE SUB DUP2 ADD SWAP1 PUSH2 0x4E3 SWAP2 SWAP1 PUSH2 0x382D JUMP JUMPDEST PUSH2 0x14BF JUMP JUMPDEST PUSH1 0x40 MLOAD PUSH2 0x4FE SWAP11 SWAP10 SWAP9 SWAP8 SWAP7 SWAP6 SWAP5 SWAP4 SWAP3 SWAP2 SWAP1 PUSH2 0x3D35 JUMP JUMPDEST PUSH1 0x40 MLOAD DUP1 SWAP2 SUB SWAP1 RETURN JUMPDEST CALLVALUE DUP1 ISZERO PUSH2 0x513 JUMPI PUSH1 0x0 DUP1 REVERT JUMPDEST POP PUSH2 0x52E PUSH1 0x4 DUP1 CALLDATASIZE SUB DUP2 ADD SWAP1 PUSH2 0x529 SWAP2 SWAP1 PUSH2 0x382D JUMP JUMPDEST PUSH2 0x152D JUMP JUMPDEST PUSH1 0x40 MLOAD PUSH2 0x53B SWAP2 SWAP1 PUSH2 0x3DD1 JUMP JUMPDEST PUSH1 0x40 MLOAD DUP1 SWAP2 SUB SWAP1 RETURN JUMPDEST CALLVALUE DUP1 ISZERO PUSH2 0x550 JUMPI PUSH1 0x0 DUP1 REVERT JUMPDEST POP PUSH2 0x56B PUSH1 0x4 DUP1 CALLDATASIZE SUB DUP2 ADD SWAP1 PUSH2 0x566 SWAP2 SWAP1 PUSH2 0x38E5 JUMP JUMPDEST PUSH2 0x155A JUMP JUMPDEST PUSH1 0x40 MLOAD PUSH2 0x579 SWAP3 SWAP2 SWAP1 PUSH2 0x3E34 JUMP JUMPDEST PUSH1 0x40 MLOAD DUP1 SWAP2 SUB SWAP1 RETURN JUMPDEST CALLVALUE DUP1 ISZERO PUSH2 0x58E JUMPI PUSH1 0x0 DUP1 REVERT JUMPDEST POP PUSH2 0x597 PUSH2 0x18D1 JUMP JUMPDEST PUSH1 0x40 MLOAD PUSH2 0x5A4 SWAP2 SWAP1 PUSH2 0x37E6 JUMP JUMPDEST PUSH1 0x40 MLOAD DUP1 SWAP2 SUB SWAP1 RETURN JUMPDEST CALLVALUE DUP1 ISZERO PUSH2 0x5B9 JUMPI PUSH1 0x0 DUP1 REVERT JUMPDEST POP PUSH2 0x5D4 PUSH1 0x4 DUP1 CALLDATASIZE SUB DUP2 ADD SWAP1 PUSH2 0x5CF SWAP2 SWAP1 PUSH2 0x382D JUMP JUMPDEST PUSH2 0x18DB JUMP JUMPDEST PUSH1 0x40 MLOAD PUSH2 0x5E1 SWAP2 SWAP1 PUSH2 0x37E6 JUMP JUMPDEST PUSH1 0x40 MLOAD DUP1 SWAP2 SUB SWAP1 RETURN JUMPDEST CALLVALUE DUP1 ISZERO PUSH2 0x5F6 JUMPI PUSH1 0x0 DUP1 REVERT JUMPDEST POP PUSH2 0x611 PUSH1 0x4 DUP1 CALLDATASIZE SUB DUP2 ADD SWAP1 PUSH2 0x60C SWAP2 SWAP1 PUSH2 0x382D JUMP JUMPDEST PUSH2 0x18FB JUMP JUMPDEST PUSH1 0x40 MLOAD PUSH2 0x61E SWAP2 SWAP1 PUSH2 0x3E5D JUMP JUMPDEST PUSH1 0x40 MLOAD DUP1 SWAP2 SUB SWAP1 RETURN JUMPDEST CALLVALUE DUP1 ISZERO PUSH2 0x633 JUMPI PUSH1 0x0 DUP1 REVERT JUMPDEST POP PUSH2 0x63C PUSH2 0x19F7 JUMP JUMPDEST PUSH1 0x40 MLOAD PUSH2 0x649 SWAP2 SWAP1 PUSH2 0x37E6 JUMP JUMPDEST PUSH1 0x40 MLOAD DUP1 SWAP2 SUB SWAP1 RETURN JUMPDEST CALLVALUE DUP1 ISZERO PUSH2 0x65E JUMPI PUSH1 0x0 DUP1 REVERT JUMPDEST POP PUSH2 0x679 PUSH1 0x4 DUP1 CALLDATASIZE SUB DUP2 ADD SWAP1 PUSH2 0x674 SWAP2 SWAP1 PUSH2 0x382D JUMP JUMPDEST PUSH2 0x19FD JUMP JUMPDEST PUSH1 0x40 MLOAD PUSH2 0x686 SWAP2 SWAP1 PUSH2 0x3F78 JUMP JUMPDEST PUSH1 0x40 MLOAD DUP1 SWAP2 SUB SWAP1 RETURN JUMPDEST CALLVALUE DUP1 ISZERO PUSH2 0x69B JUMPI PUSH1 0x0 DUP1 REVERT JUMPDEST POP PUSH2 0x6A4 PUSH2 0x1AF1 JUMP JUMPDEST PUSH1 0x40 MLOAD PUSH2 0x6B1 SWAP2 SWAP1 PUSH2 0x37E6 JUMP JUMPDEST PUSH1 0x40 MLOAD DUP1 SWAP2 SUB SWAP1 RETURN JUMPDEST CALLVALUE DUP1 ISZERO PUSH2 0x6C6 JUMPI PUSH1 0x0 DUP1 REVERT JUMPDEST POP PUSH2 0x6E1 PUSH1 0x4 DUP1 CALLDATASIZE SUB DUP2 ADD SWAP1 PUSH2 0x6DC SWAP2 SWAP1 PUSH2 0x3FB9 JUMP JUMPDEST PUSH2 0x1AF7 JUMP JUMPDEST PUSH1 0x40 MLOAD PUSH2 0x6EE SWAP2 SWAP1 PUSH2 0x37E6 JUMP JUMPDEST PUSH1 0x40 MLOAD DUP1 SWAP2 SUB SWAP1 RETURN JUMPDEST CALLVALUE DUP1 ISZERO PUSH2 0x703 JUMPI PUSH1 0x0 DUP1 REVERT JUMPDEST POP PUSH2 0x70C PUSH2 0x1E76 JUMP JUMPDEST PUSH1 0x40 MLOAD PUSH2 0x719 SWAP2 SWAP1 PUSH2 0x37E6 JUMP JUMPDEST PUSH1 0x40 MLOAD DUP1 SWAP2 SUB SWAP1 RETURN JUMPDEST CALLVALUE DUP1 ISZERO PUSH2 0x72E JUMPI PUSH1 0x0 DUP1 REVERT JUMPDEST POP PUSH2 0x749 PUSH1 0x4 DUP1 CALLDATASIZE SUB DUP2 ADD SWAP1 PUSH2 0x744 SWAP2 SWAP1 PUSH2 0x4080 JUMP JUMPDEST PUSH2 0x1EBD JUMP JUMPDEST STOP JUMPDEST CALLVALUE DUP1 ISZERO PUSH2 0x757 JUMPI PUSH1 0x0 DUP1 REVERT JUMPDEST POP PUSH2 0x772 PUSH1 0x4 DUP1 CALLDATASIZE SUB DUP2 ADD SWAP1 PUSH2 0x76D SWAP2 SWAP1 PUSH2 0x40C0 JUMP JUMPDEST PUSH2 0x1EFF JUMP JUMPDEST STOP JUMPDEST CALLVALUE DUP1 ISZERO PUSH2 0x780 JUMPI PUSH1 0x0 DUP1 REVERT JUMPDEST POP PUSH2 0x79B PUSH1 0x4 DUP1 CALLDATASIZE SUB DUP2 ADD SWAP1 PUSH2 0x796 SWAP2 SWAP1 PUSH2 0x382D JUMP JUMPDEST PUSH2 0x2144 JUMP JUMPDEST PUSH1 0x40 MLOAD PUSH2 0x7A8 SWAP2 SWAP1 PUSH2 0x4113 JUMP JUMPDEST PUSH1 0x40 MLOAD DUP1 SWAP2 SUB SWAP1 RETURN JUMPDEST CALLVALUE DUP1 ISZERO PUSH2 0x7BD JUMPI PUSH1 0x0 DUP1 REVERT JUMPDEST POP PUSH2 0x7D8 PUSH1 0x4 DUP1 CALLDATASIZE SUB DUP2 ADD SWAP1 PUSH2 0x7D3 SWAP2 SWAP1 PUSH2 0x382D JUMP JUMPDEST PUSH2 0x21D8 JUMP JUMPDEST PUSH1 0x40 MLOAD PUSH2 0x7E5 SWAP2 SWAP1 PUSH2 0x37E6 JUMP JUMPDEST PUSH1 0x40 MLOAD DUP1 SWAP2 SUB SWAP1 RETURN JUMPDEST CALLVALUE DUP1 ISZERO PUSH2 0x7FA JUMPI PUSH1 0x0 DUP1 REVERT JUMPDEST POP PUSH2 0x815 PUSH1 0x4 DUP1 CALLDATASIZE SUB DUP2 ADD SWAP1 PUSH2 0x810 SWAP2 SWAP1 PUSH2 0x38E5 JUMP JUMPDEST PUSH2 0x21F8 JUMP JUMPDEST STOP JUMPDEST CALLVALUE DUP1 ISZERO PUSH2 0x823 JUMPI PUSH1 0x0 DUP1 REVERT JUMPDEST POP PUSH2 0x83E PUSH1 0x4 DUP1 CALLDATASIZE SUB DUP2 ADD SWAP1 PUSH2 0x839 SWAP2 SWAP1 PUSH2 0x382D JUMP JUMPDEST PUSH2 0x2270 JUMP JUMPDEST PUSH1 0x40 MLOAD PUSH2 0x84B SWAP2 SWAP1 PUSH2 0x37E6 JUMP JUMPDEST PUSH1 0x40 MLOAD DUP1 SWAP2 SUB SWAP1 RETURN JUMPDEST CALLVALUE DUP1 ISZERO PUSH2 0x860 JUMPI PUSH1 0x0 DUP1 REVERT JUMPDEST POP PUSH2 0x87B PUSH1 0x4 DUP1 CALLDATASIZE SUB DUP2 ADD SWAP1 PUSH2 0x876 SWAP2 SWAP1 PUSH2 0x382D JUMP JUMPDEST PUSH2 0x22E4 JUMP JUMPDEST STOP JUMPDEST CALLVALUE DUP1 ISZERO PUSH2 0x889 JUMPI PUSH1 0x0 DUP1 REVERT JUMPDEST POP PUSH2 0x8A4 PUSH1 0x4 DUP1 CALLDATASIZE SUB DUP2 ADD SWAP1 PUSH2 0x89F SWAP2 SWAP1 PUSH2 0x40C0 JUMP JUMPDEST PUSH2 0x28B2 JUMP JUMPDEST STOP JUMPDEST CALLVALUE DUP1 ISZERO PUSH2 0x8B2 JUMPI PUSH1 0x0 DUP1 REVERT JUMPDEST POP PUSH2 0x8CD PUSH1 0x4 DUP1 CALLDATASIZE SUB DUP2 ADD SWAP1 PUSH2 0x8C8 SWAP2 SWAP1 PUSH2 0x412E JUMP JUMPDEST PUSH2 0x2CAE JUMP JUMPDEST PUSH1 0x40 MLOAD PUSH2 0x8DA SWAP2 SWAP1 PUSH2 0x37E6 JUMP JUMPDEST PUSH1 0x40 MLOAD DUP1 SWAP2 SUB SWAP1 RETURN JUMPDEST CALLVALUE DUP1 ISZERO PUSH2 0x8EF JUMPI PUSH1 0x0 DUP1 REVERT JUMPDEST POP PUSH2 0x90A PUSH1 0x4 DUP1 CALLDATASIZE SUB DUP2 ADD SWAP1 PUSH2 0x905 SWAP2 SWAP1 PUSH2 0x382D JUMP JUMPDEST PUSH2 0x2D94 JUMP JUMPDEST PUSH1 0x40 MLOAD PUSH2 0x917 SWAP2 SWAP1 PUSH2 0x37E6 JUMP JUMPDEST PUSH1 0x40 MLOAD DUP1 SWAP2 SUB SWAP1 RETURN JUMPDEST PUSH1 0x0 PUSH7 0x2386F26FC10000 CALLVALUE GT PUSH2 0x96B JUMPI PUSH1 0x40 MLOAD PUSH32 0x8C379A000000000000000000000000000000000000000000000000000000000 DUP2 MSTORE PUSH1 0x4 ADD PUSH2 0x962 SWAP1 PUSH2 0x4207 JUMP JUMPDEST PUSH1 0x40 MLOAD DUP1 SWAP2 SUB SWAP1 REVERT JUMPDEST PUSH1 0x7 PUSH1 0x0 DUP2 SLOAD DUP1 SWAP3 SWAP2 SWAP1 PUSH2 0x97E SWAP1 PUSH2 0x4256 JUMP JUMPDEST SWAP2 SWAP1 POP SSTORE POP PUSH1 0x0 PUSH1 0x8 PUSH1 0x0 PUSH1 0x7 SLOAD DUP2 MSTORE PUSH1 0x20 ADD SWAP1 DUP2 MSTORE PUSH1 0x20 ADD PUSH1 0x0 KECCAK256 SWAP1 POP PUSH1 0x7 SLOAD DUP2 PUSH1 0x0 ADD DUP2 SWAP1 SSTORE POP PUSH1 0x0 DUP2 PUSH1 0x1 ADD DUP2 SWAP1 SSTORE POP DUP3 DUP2 PUSH1 0x2 ADD SWAP1 DUP2 PUSH2 0x9C2 SWAP2 SWAP1 PUSH2 0x44AA JUMP JUMPDEST POP CALLER DUP2 PUSH1 0x3 ADD PUSH1 0x0 PUSH2 0x100 EXP DUP2 SLOAD DUP2 PUSH20 0xFFFFFFFFFFFFFFFFFFFFFFFFFFFFFFFFFFFFFFFF MUL NOT AND SWAP1 DUP4 PUSH20 0xFFFFFFFFFFFFFFFFFFFFFFFFFFFFFFFFFFFFFFFF AND MUL OR SWAP1 SSTORE POP PUSH1 0x0 DUP2 PUSH1 0x4 ADD DUP2 SWAP1 SSTORE POP PUSH1 0x7 SLOAD PUSH1 0x9 PUSH1 0x0 CALLER PUSH20 0xFFFFFFFFFFFFFFFFFFFFFFFFFFFFFFFFFFFFFFFF AND PUSH20 0xFFFFFFFFFFFFFFFFFFFFFFFFFFFFFFFFFFFFFFFF AND DUP2 MSTORE PUSH1 0x20 ADD SWAP1 DUP2 MSTORE PUSH1 0x20 ADD PUSH1 0x0 KECCAK256 DUP2 SWAP1 SSTORE POP PUSH1 0x7 SLOAD SWAP2 POP POP SWAP2 SWAP1 POP JUMP JUMPDEST PUSH1 0x0 PUSH1 0x1 PUSH1 0x0 DUP4 DUP2 MSTORE PUSH1 0x20 ADD SWAP1 DUP2 MSTORE PUSH1 0x20 ADD PUSH1 0x0 KECCAK256 PUSH1 0x7 ADD SLOAD SWAP1 POP SWAP2 SWAP1 POP JUMP JUMPDEST PUSH1 0x9 PUSH1 0x20 MSTORE DUP1 PUSH1 0x0 MSTORE PUSH1 0x40 PUSH1 0x0 KECCAK256 PUSH1 0x0 SWAP2 POP SWAP1 POP SLOAD DUP2 JUMP JUMPDEST DUP2 PUSH1 0x3 PUSH1 0x0 PUSH1 0x1 PUSH1 0x0 DUP6 DUP2 MSTORE PUSH1 0x20 ADD SWAP1 DUP2 MSTORE PUSH1 0x20 ADD PUSH1 0x0 KECCAK256 PUSH1 0x2 ADD SLOAD DUP2 MSTORE PUSH1 0x20 ADD SWAP1 DUP2 MSTORE PUSH1 0x20 ADD PUSH1 0x0 KECCAK256 PUSH1 0x1 ADD DUP2 SWAP1 SSTORE POP POP POP JUMP JUMPDEST PUSH1 0x0 DUP1 PUSH1 0x0 PUSH1 0x8 PUSH1 0x0 DUP8 DUP2 MSTORE PUSH1 0x20 ADD SWAP1 DUP2 MSTORE PUSH1 0x20 ADD PUSH1 0x0 KECCAK256 PUSH1 0x6 ADD PUSH1 0x1 DUP2 PUSH1 0x1 DUP2 SLOAD ADD DUP1 DUP3 SSTORE DUP1 SWAP2 POP POP SUB SWAP1 PUSH1 0x0 MSTORE PUSH1 0x20 PUSH1 0x0 KECCAK256 SWAP1 PUSH1 0x6 MUL ADD SWAP1 POP PUSH1 0x6 PUSH1 0x0 DUP2 SLOAD DUP1 SWAP3 SWAP2 SWAP1 PUSH2 0xB1C SWAP1 PUSH2 0x4256 JUMP JUMPDEST SWAP2 SWAP1 POP SSTORE POP PUSH1 0x6 SLOAD DUP2 PUSH1 0x0 ADD DUP2 SWAP1 SSTORE POP DUP7 DUP2 PUSH1 0x1 ADD DUP2 SWAP1 SSTORE POP DUP5 DUP2 PUSH1 0x2 ADD SWAP1 DUP2 PUSH2 0xB46 SWAP2 SWAP1 PUSH2 0x44AA JUMP JUMPDEST POP DUP4 DUP2 PUSH1 0x3 ADD SWAP1 DUP2 PUSH2 0xB58 SWAP2 SWAP1 PUSH2 0x44AA JUMP JUMPDEST POP PUSH1 0x2 DUP2 PUSH1 0x4 ADD PUSH1 0x0 PUSH2 0x100 EXP DUP2 SLOAD DUP2 PUSH1 0xFF MUL NOT AND SWAP1 DUP4 PUSH1 0x2 DUP2 GT ISZERO PUSH2 0xB81 JUMPI PUSH2 0xB80 PUSH2 0x3C76 JUMP JUMPDEST JUMPDEST MUL OR SWAP1 SSTORE POP PUSH1 0x1 PUSH1 0x6 SLOAD SWAP3 POP SWAP3 POP POP SWAP5 POP SWAP5 SWAP3 POP POP POP JUMP JUMPDEST DUP7 DUP5 DUP1 PUSH1 0x3 PUSH1 0x0 PUSH1 0x1 PUSH1 0x0 DUP7 DUP2 MSTORE PUSH1 0x20 ADD SWAP1 DUP2 MSTORE PUSH1 0x20 ADD PUSH1 0x0 KECCAK256 PUSH1 0x2 ADD SLOAD DUP2 MSTORE PUSH1 0x20 ADD SWAP1 DUP2 MSTORE PUSH1 0x20 ADD PUSH1 0x0 KECCAK256 PUSH1 0x1 ADD SLOAD EQ PUSH2 0xC09 JUMPI PUSH1 0x40 MLOAD PUSH32 0x8C379A000000000000000000000000000000000000000000000000000000000 DUP2 MSTORE PUSH1 0x4 ADD PUSH2 0xC00 SWAP1 PUSH2 0x45C8 JUMP JUMPDEST PUSH1 0x40 MLOAD DUP1 SWAP2 SUB SWAP1 REVERT JUMPDEST PUSH32 0x23F2FC8ADA0C4BAED4EE1E3BA4FE20927AEB0927885A97721DFF7BF7DE72A54 DUP10 PUSH1 0x40 MLOAD PUSH2 0xC38 SWAP2 SWAP1 PUSH2 0x37E6 JUMP JUMPDEST PUSH1 0x40 MLOAD DUP1 SWAP2 SUB SWAP1 LOG1 PUSH2 0xC4E DUP10 DUP10 DUP10 DUP9 DUP9 DUP9 PUSH2 0x2DB4 JUMP JUMPDEST PUSH32 0xA0645BBB67237E776CC7225AB792C6C0145B76E8013248761926AEE49549AE99 DUP10 DUP9 PUSH1 0x40 MLOAD PUSH2 0xC7F SWAP3 SWAP2 SWAP1 PUSH2 0x45E8 JUMP JUMPDEST PUSH1 0x40 MLOAD DUP1 SWAP2 SUB SWAP1 LOG1 POP POP POP POP POP POP POP POP POP JUMP JUMPDEST PUSH1 0x8 PUSH1 0x20 MSTORE DUP1 PUSH1 0x0 MSTORE PUSH1 0x40 PUSH1 0x0 KECCAK256 PUSH1 0x0 SWAP2 POP SWAP1 POP DUP1 PUSH1 0x0 ADD SLOAD SWAP1 DUP1 PUSH1 0x1 ADD SLOAD SWAP1 DUP1 PUSH1 0x2 ADD DUP1 SLOAD PUSH2 0xCC1 SWAP1 PUSH2 0x42CD JUMP JUMPDEST DUP1 PUSH1 0x1F ADD PUSH1 0x20 DUP1 SWAP2 DIV MUL PUSH1 0x20 ADD PUSH1 0x40 MLOAD SWAP1 DUP2 ADD PUSH1 0x40 MSTORE DUP1 SWAP3 SWAP2 SWAP1 DUP2 DUP2 MSTORE PUSH1 0x20 ADD DUP3 DUP1 SLOAD PUSH2 0xCED SWAP1 PUSH2 0x42CD JUMP JUMPDEST DUP1 ISZERO PUSH2 0xD3A JUMPI DUP1 PUSH1 0x1F LT PUSH2 0xD0F JUMPI PUSH2 0x100 DUP1 DUP4 SLOAD DIV MUL DUP4 MSTORE SWAP2 PUSH1 0x20 ADD SWAP2 PUSH2 0xD3A JUMP JUMPDEST DUP3 ADD SWAP2 SWAP1 PUSH1 0x0 MSTORE PUSH1 0x20 PUSH1 0x0 KECCAK256 SWAP1 JUMPDEST DUP2 SLOAD DUP2 MSTORE SWAP1 PUSH1 0x1 ADD SWAP1 PUSH1 0x20 ADD DUP1 DUP4 GT PUSH2 0xD1D JUMPI DUP3 SWAP1 SUB PUSH1 0x1F AND DUP3 ADD SWAP2 JUMPDEST POP POP POP POP POP SWAP1 DUP1 PUSH1 0x3 ADD PUSH1 0x0 SWAP1 SLOAD SWAP1 PUSH2 0x100 EXP SWAP1 DIV PUSH20 0xFFFFFFFFFFFFFFFFFFFFFFFFFFFFFFFFFFFFFFFF AND SWAP1 DUP1 PUSH1 0x4 ADD SLOAD SWAP1 POP DUP6 JUMP JUMPDEST PUSH1 0x0 PUSH1 0x3 PUSH1 0x0 PUSH1 0x1 PUSH1 0x0 DUP6 DUP2 MSTORE PUSH1 0x20 ADD SWAP1 DUP2 MSTORE PUSH1 0x20 ADD PUSH1 0x0 KECCAK256 PUSH1 0x2 ADD SLOAD DUP2 MSTORE PUSH1 0x20 ADD SWAP1 DUP2 MSTORE PUSH1 0x20 ADD PUSH1 0x0 KECCAK256 PUSH1 0x1 ADD SLOAD SWAP1 POP SWAP2 SWAP1 POP JUMP JUMPDEST DUP1 PUSH1 0x7 SLOAD DUP2 GT ISZERO DUP1 ISZERO PUSH2 0xDBA JUMPI POP PUSH1 0x0 DUP2 EQ ISZERO JUMPDEST PUSH2 0xDF9 JUMPI PUSH1 0x40 MLOAD PUSH32 0x8C379A000000000000000000000000000000000000000000000000000000000 DUP2 MSTORE PUSH1 0x4 ADD PUSH2 0xDF0 SWAP1 PUSH2 0x465D JUMP JUMPDEST PUSH1 0x40 MLOAD DUP1 SWAP2 SUB SWAP1 REVERT JUMPDEST DUP2 CALLER PUSH20 0xFFFFFFFFFFFFFFFFFFFFFFFFFFFFFFFFFFFFFFFF AND PUSH1 0x8 PUSH1 0x0 DUP4 DUP2 MSTORE PUSH1 0x20 ADD SWAP1 DUP2 MSTORE PUSH1 0x20 ADD PUSH1 0x0 KECCAK256 PUSH1 0x3 ADD PUSH1 0x0 SWAP1 SLOAD SWAP1 PUSH2 0x100 EXP SWAP1 DIV PUSH20 0xFFFFFFFFFFFFFFFFFFFFFFFFFFFFFFFFFFFFFFFF AND PUSH20 0xFFFFFFFFFFFFFFFFFFFFFFFFFFFFFFFFFFFFFFFF AND EQ PUSH2 0xE9E JUMPI PUSH1 0x40 MLOAD PUSH32 0x8C379A000000000000000000000000000000000000000000000000000000000 DUP2 MSTORE PUSH1 0x4 ADD PUSH2 0xE95 SWAP1 PUSH2 0x46C9 JUMP JUMPDEST PUSH1 0x40 MLOAD DUP1 SWAP2 SUB SWAP1 REVERT JUMPDEST PUSH1 0x0 DUP5 SUB PUSH2 0xEE1 JUMPI PUSH1 0x40 MLOAD PUSH32 0x8C379A000000000000000000000000000000000000000000000000000000000 DUP2 MSTORE PUSH1 0x4 ADD PUSH2 0xED8 SWAP1 PUSH2 0x4735 JUMP JUMPDEST PUSH1 0x40 MLOAD DUP1 SWAP2 SUB SWAP1 REVERT JUMPDEST PUSH1 0x0 DUP1 PUSH1 0x8 PUSH1 0x0 DUP7 DUP2 MSTORE PUSH1 0x20 ADD SWAP1 DUP2 MSTORE PUSH1 0x20 ADD PUSH1 0x0 KECCAK256 PUSH1 0x6 ADD DUP1 SLOAD DUP1 PUSH1 0x20 MUL PUSH1 0x20 ADD PUSH1 0x40 MLOAD SWAP1 DUP2 ADD PUSH1 0x40 MSTORE DUP1 SWAP3 SWAP2 SWAP1 DUP2 DUP2 MSTORE PUSH1 0x20 ADD PUSH1 0x0 SWAP1 JUMPDEST DUP3 DUP3 LT ISZERO PUSH2 0x10C9 JUMPI DUP4 DUP3 SWAP1 PUSH1 0x0 MSTORE PUSH1 0x20 PUSH1 0x0 KECCAK256 SWAP1 PUSH1 0x6 MUL ADD PUSH1 0x40 MLOAD DUP1 PUSH1 0xC0 ADD PUSH1 0x40 MSTORE SWAP1 DUP2 PUSH1 0x0 DUP3 ADD SLOAD DUP2 MSTORE PUSH1 0x20 ADD PUSH1 0x1 DUP3 ADD SLOAD DUP2 MSTORE PUSH1 0x20 ADD PUSH1 0x2 DUP3 ADD DUP1 SLOAD PUSH2 0xF61 SWAP1 PUSH2 0x42CD JUMP JUMPDEST DUP1 PUSH1 0x1F ADD PUSH1 0x20 DUP1 SWAP2 DIV MUL PUSH1 0x20 ADD PUSH1 0x40 MLOAD SWAP1 DUP2 ADD PUSH1 0x40 MSTORE DUP1 SWAP3 SWAP2 SWAP1 DUP2 DUP2 MSTORE PUSH1 0x20 ADD DUP3 DUP1 SLOAD PUSH2 0xF8D SWAP1 PUSH2 0x42CD JUMP JUMPDEST DUP1 ISZERO PUSH2 0xFDA JUMPI DUP1 PUSH1 0x1F LT PUSH2 0xFAF JUMPI PUSH2 0x100 DUP1 DUP4 SLOAD DIV MUL DUP4 MSTORE SWAP2 PUSH1 0x20 ADD SWAP2 PUSH2 0xFDA JUMP JUMPDEST DUP3 ADD SWAP2 SWAP1 PUSH1 0x0 MSTORE PUSH1 0x20 PUSH1 0x0 KECCAK256 SWAP1 JUMPDEST DUP2 SLOAD DUP2 MSTORE SWAP1 PUSH1 0x1 ADD SWAP1 PUSH1 0x20 ADD DUP1 DUP4 GT PUSH2 0xFBD JUMPI DUP3 SWAP1 SUB PUSH1 0x1F AND DUP3 ADD SWAP2 JUMPDEST POP POP POP POP POP DUP2 MSTORE PUSH1 0x20 ADD PUSH1 0x3 DUP3 ADD DUP1 SLOAD PUSH2 0xFF3 SWAP1 PUSH2 0x42CD JUMP JUMPDEST DUP1 PUSH1 0x1F ADD PUSH1 0x20 DUP1 SWAP2 DIV MUL PUSH1 0x20 ADD PUSH1 0x40 MLOAD SWAP1 DUP2 ADD PUSH1 0x40 MSTORE DUP1 SWAP3 SWAP2 SWAP1 DUP2 DUP2 MSTORE PUSH1 0x20 ADD DUP3 DUP1 SLOAD PUSH2 0x101F SWAP1 PUSH2 0x42CD JUMP JUMPDEST DUP1 ISZERO PUSH2 0x106C JUMPI DUP1 PUSH1 0x1F LT PUSH2 0x1041 JUMPI PUSH2 0x100 DUP1 DUP4 SLOAD DIV MUL DUP4 MSTORE SWAP2 PUSH1 0x20 ADD SWAP2 PUSH2 0x106C JUMP JUMPDEST DUP3 ADD SWAP2 SWAP1 PUSH1 0x0 MSTORE PUSH1 0x20 PUSH1 0x0 KECCAK256 SWAP1 JUMPDEST DUP2 SLOAD DUP2 MSTORE SWAP1 PUSH1 0x1 ADD SWAP1 PUSH1 0x20 ADD DUP1 DUP4 GT PUSH2 0x104F JUMPI DUP3 SWAP1 SUB PUSH1 0x1F AND DUP3 ADD SWAP2 JUMPDEST POP POP POP POP POP DUP2 MSTORE PUSH1 0x20 ADD PUSH1 0x4 DUP3 ADD PUSH1 0x0 SWAP1 SLOAD SWAP1 PUSH2 0x100 EXP SWAP1 DIV PUSH1 0xFF AND PUSH1 0x2 DUP2 GT ISZERO PUSH2 0x109A JUMPI PUSH2 0x1099 PUSH2 0x3C76 JUMP JUMPDEST JUMPDEST PUSH1 0x2 DUP2 GT ISZERO PUSH2 0x10AC JUMPI PUSH2 0x10AB PUSH2 0x3C76 JUMP JUMPDEST JUMPDEST DUP2 MSTORE PUSH1 0x20 ADD PUSH1 0x5 DUP3 ADD SLOAD DUP2 MSTORE POP POP DUP2 MSTORE PUSH1 0x20 ADD SWAP1 PUSH1 0x1 ADD SWAP1 PUSH2 0xF1A JUMP JUMPDEST POP POP POP POP SWAP1 POP PUSH1 0x0 DUP2 MLOAD SWAP1 POP PUSH1 0x0 DUP1 JUMPDEST DUP3 DUP2 LT ISZERO PUSH2 0x1121 JUMPI DUP9 DUP5 DUP3 DUP2 MLOAD DUP2 LT PUSH2 0x10F5 JUMPI PUSH2 0x10F4 PUSH2 0x4755 JUMP JUMPDEST JUMPDEST PUSH1 0x20 MUL PUSH1 0x20 ADD ADD MLOAD PUSH1 0x0 ADD MLOAD SUB PUSH2 0x110E JUMPI DUP1 SWAP5 POP PUSH1 0x1 SWAP2 POP JUMPDEST DUP1 DUP1 PUSH2 0x1119 SWAP1 PUSH2 0x4256 JUMP JUMPDEST SWAP2 POP POP PUSH2 0x10D9 JUMP JUMPDEST POP PUSH1 0x1 ISZERO ISZERO DUP2 ISZERO ISZERO EQ PUSH2 0x1169 JUMPI PUSH1 0x40 MLOAD PUSH32 0x8C379A000000000000000000000000000000000000000000000000000000000 DUP2 MSTORE PUSH1 0x4 ADD PUSH2 0x1160 SWAP1 PUSH2 0x47D0 JUMP JUMPDEST PUSH1 0x40 MLOAD DUP1 SWAP2 SUB SWAP1 REVERT JUMPDEST DUP1 ISZERO PUSH2 0x11F2 JUMPI PUSH1 0x1 DUP4 DUP6 DUP2 MLOAD DUP2 LT PUSH2 0x1184 JUMPI PUSH2 0x1183 PUSH2 0x4755 JUMP JUMPDEST JUMPDEST PUSH1 0x20 MUL PUSH1 0x20 ADD ADD MLOAD PUSH1 0x80 ADD SWAP1 PUSH1 0x2 DUP2 GT ISZERO PUSH2 0x11A2 JUMPI PUSH2 0x11A1 PUSH2 0x3C76 JUMP JUMPDEST JUMPDEST SWAP1 DUP2 PUSH1 0x2 DUP2 GT ISZERO PUSH2 0x11B6 JUMPI PUSH2 0x11B5 PUSH2 0x3C76 JUMP JUMPDEST JUMPDEST DUP2 MSTORE POP POP PUSH32 0x8D7FED20D7D8248D56D7367C40D71B598AADEF2C219EEB23C765211306D8CCE8 DUP9 PUSH1 0x40 MLOAD PUSH2 0x11E9 SWAP2 SWAP1 PUSH2 0x37E6 JUMP JUMPDEST PUSH1 0x40 MLOAD DUP1 SWAP2 SUB SWAP1 LOG1 JUMPDEST POP POP POP POP POP POP POP POP JUMP JUMPDEST PUSH1 0x3 PUSH1 0x20 MSTORE DUP1 PUSH1 0x0 MSTORE PUSH1 0x40 PUSH1 0x0 KECCAK256 PUSH1 0x0 SWAP2 POP SWAP1 POP DUP1 PUSH1 0x0 ADD SLOAD SWAP1 DUP1 PUSH1 0x1 ADD SLOAD SWAP1 DUP1 PUSH1 0x2 ADD SLOAD SWAP1 DUP1 PUSH1 0x3 ADD SLOAD SWAP1 POP DUP5 JUMP JUMPDEST DUP4 DUP3 DUP1 PUSH1 0x3 PUSH1 0x0 PUSH1 0x1 PUSH1 0x0 DUP7 DUP2 MSTORE PUSH1 0x20 ADD SWAP1 DUP2 MSTORE PUSH1 0x20 ADD PUSH1 0x0 KECCAK256 PUSH1 0x2 ADD SLOAD DUP2 MSTORE PUSH1 0x20 ADD SWAP1 DUP2 MSTORE PUSH1 0x20 ADD PUSH1 0x0 KECCAK256 PUSH1 0x0 ADD SLOAD EQ PUSH2 0x129C JUMPI PUSH1 0x40 MLOAD PUSH32 0x8C379A000000000000000000000000000000000000000000000000000000000 DUP2 MSTORE PUSH1 0x4 ADD PUSH2 0x1293 SWAP1 PUSH2 0x483C JUMP JUMPDEST PUSH1 0x40 MLOAD DUP1 SWAP2 SUB SWAP1 REVERT JUMPDEST PUSH1 0x0 PUSH1 0x8 PUSH1 0x0 PUSH1 0x1 PUSH1 0x0 DUP11 DUP2 MSTORE PUSH1 0x20 ADD SWAP1 DUP2 MSTORE PUSH1 0x20 ADD PUSH1 0x0 KECCAK256 PUSH1 0x1 ADD SLOAD DUP2 MSTORE PUSH1 0x20 ADD SWAP1 DUP2 MSTORE PUSH1 0x20 ADD PUSH1 0x0 KECCAK256 PUSH1 0x3 ADD PUSH1 0x0 SWAP1 SLOAD SWAP1 PUSH2 0x100 EXP SWAP1 DIV PUSH20 0xFFFFFFFFFFFFFFFFFFFFFFFFFFFFFFFFFFFFFFFF AND SWAP1 POP PUSH1 0x4 PUSH1 0x0 SWAP1 SLOAD SWAP1 PUSH2 0x100 EXP SWAP1 DIV PUSH20 0xFFFFFFFFFFFFFFFFFFFFFFFFFFFFFFFFFFFFFFFF AND PUSH20 0xFFFFFFFFFFFFFFFFFFFFFFFFFFFFFFFFFFFFFFFF AND PUSH4 0x3456EA30 DUP6 DUP4 DUP10 PUSH1 0x40 MLOAD DUP5 PUSH4 0xFFFFFFFF AND PUSH1 0xE0 SHL DUP2 MSTORE PUSH1 0x4 ADD PUSH2 0x134C SWAP4 SWAP3 SWAP2 SWAP1 PUSH2 0x485C JUMP JUMPDEST PUSH1 0x0 PUSH1 0x40 MLOAD DUP1 DUP4 SUB DUP2 PUSH1 0x0 DUP8 DUP1 EXTCODESIZE ISZERO DUP1 ISZERO PUSH2 0x1366 JUMPI PUSH1 0x0 DUP1 REVERT JUMPDEST POP GAS CALL ISZERO DUP1 ISZERO PUSH2 0x137A JUMPI RETURNDATASIZE PUSH1 0x0 DUP1 RETURNDATACOPY RETURNDATASIZE PUSH1 0x0 REVERT JUMPDEST POP POP POP POP DUP6 PUSH1 0x1 PUSH1 0x0 DUP10 DUP2 MSTORE PUSH1 0x20 ADD SWAP1 DUP2 MSTORE PUSH1 0x20 ADD PUSH1 0x0 KECCAK256 PUSH1 0x5 ADD PUSH1 0x0 DUP3 DUP3 SLOAD PUSH2 0x13A4 SWAP2 SWAP1 PUSH2 0x4893 JUMP JUMPDEST SWAP3 POP POP DUP2 SWAP1 SSTORE POP PUSH1 0x1 PUSH1 0x0 DUP9 DUP2 MSTORE PUSH1 0x20 ADD SWAP1 DUP2 MSTORE PUSH1 0x20 ADD PUSH1 0x0 KECCAK256 PUSH1 0x3 ADD SLOAD PUSH1 0x1 PUSH1 0x0 DUP10 DUP2 MSTORE PUSH1 0x20 ADD SWAP1 DUP2 MSTORE PUSH1 0x20 ADD PUSH1 0x0 KECCAK256 PUSH1 0x5 ADD SLOAD SUB PUSH2 0x141E JUMPI PUSH1 0x3 PUSH1 0x1 PUSH1 0x0 DUP10 DUP2 MSTORE PUSH1 0x20 ADD SWAP1 DUP2 MSTORE PUSH1 0x20 ADD PUSH1 0x0 KECCAK256 PUSH1 0x6 ADD PUSH1 0x1 PUSH2 0x100 EXP DUP2 SLOAD DUP2 PUSH1 0xFF MUL NOT AND SWAP1 DUP4 PUSH1 0x5 DUP2 GT ISZERO PUSH2 0x1418 JUMPI PUSH2 0x1417 PUSH2 0x3C76 JUMP JUMPDEST JUMPDEST MUL OR SWAP1 SSTORE POP JUMPDEST PUSH32 0x93E71AF69425AB98903353CC1F5235ADD61A8F2F0875DF40104A9161ECFCA332 DUP8 PUSH1 0x40 MLOAD PUSH2 0x144D SWAP2 SWAP1 PUSH2 0x37E6 JUMP JUMPDEST PUSH1 0x40 MLOAD DUP1 SWAP2 SUB SWAP1 LOG1 POP POP POP POP POP POP POP JUMP JUMPDEST PUSH1 0x0 PUSH1 0x1 PUSH1 0x0 DUP4 DUP2 MSTORE PUSH1 0x20 ADD SWAP1 DUP2 MSTORE PUSH1 0x20 ADD PUSH1 0x0 KECCAK256 PUSH1 0x5 ADD SLOAD PUSH1 0x1 PUSH1 0x0 DUP5 DUP2 MSTORE PUSH1 0x20 ADD SWAP1 DUP2 MSTORE PUSH1 0x20 ADD PUSH1 0x0 KECCAK256 PUSH1 0x3 ADD SLOAD PUSH2 0x1498 SWAP2 SWAP1 PUSH2 0x48C7 JUMP JUMPDEST SWAP1 POP SWAP2 SWAP1 POP JUMP JUMPDEST PUSH1 0x0 PUSH1 0x1 PUSH1 0x0 DUP4 DUP2 MSTORE PUSH1 0x20 ADD SWAP1 DUP2 MSTORE PUSH1 0x20 ADD PUSH1 0x0 KECCAK256 PUSH1 0x4 ADD SLOAD SWAP1 POP SWAP2 SWAP1 POP JUMP JUMPDEST PUSH1 0x1 PUSH1 0x20 MSTORE DUP1 PUSH1 0x0 MSTORE PUSH1 0x40 PUSH1 0x0 KECCAK256 PUSH1 0x0 SWAP2 POP SWAP1 POP DUP1 PUSH1 0x0 ADD SLOAD SWAP1 DUP1 PUSH1 0x1 ADD SLOAD SWAP1 DUP1 PUSH1 0x2 ADD SLOAD SWAP1 DUP1 PUSH1 0x3 ADD SLOAD SWAP1 DUP1 PUSH1 0x4 ADD SLOAD SWAP1 DUP1 PUSH1 0x5 ADD SLOAD SWAP1 DUP1 PUSH1 0x6 ADD PUSH1 0x0 SWAP1 SLOAD SWAP1 PUSH2 0x100 EXP SWAP1 DIV PUSH1 0xFF AND SWAP1 DUP1 PUSH1 0x6 ADD PUSH1 0x1 SWAP1 SLOAD SWAP1 PUSH2 0x100 EXP SWAP1 DIV PUSH1 0xFF AND SWAP1 DUP1 PUSH1 0x7 ADD SLOAD SWAP1 DUP1 PUSH1 0x8 ADD SLOAD SWAP1 POP DUP11 JUMP JUMPDEST PUSH1 0x0 PUSH1 0x1 PUSH1 0x0 DUP4 DUP2 MSTORE PUSH1 0x20 ADD SWAP1 DUP2 MSTORE PUSH1 0x20 ADD PUSH1 0x0 KECCAK256 PUSH1 0x6 ADD PUSH1 0x1 SWAP1 SLOAD SWAP1 PUSH2 0x100 EXP SWAP1 DIV PUSH1 0xFF AND SWAP1 POP SWAP2 SWAP1 POP JUMP JUMPDEST PUSH1 0x0 DUP1 PUSH1 0x0 DUP4 SUB PUSH2 0x15A0 JUMPI PUSH1 0x40 MLOAD PUSH32 0x8C379A000000000000000000000000000000000000000000000000000000000 DUP2 MSTORE PUSH1 0x4 ADD PUSH2 0x1597 SWAP1 PUSH2 0x47D0 JUMP JUMPDEST PUSH1 0x40 MLOAD DUP1 SWAP2 SUB SWAP1 REVERT JUMPDEST PUSH1 0x0 DUP1 PUSH1 0x8 PUSH1 0x0 DUP8 DUP2 MSTORE PUSH1 0x20 ADD SWAP1 DUP2 MSTORE PUSH1 0x20 ADD PUSH1 0x0 KECCAK256 PUSH1 0x6 ADD DUP1 SLOAD DUP1 PUSH1 0x20 MUL PUSH1 0x20 ADD PUSH1 0x40 MLOAD SWAP1 DUP2 ADD PUSH1 0x40 MSTORE DUP1 SWAP3 SWAP2 SWAP1 DUP2 DUP2 MSTORE PUSH1 0x20 ADD PUSH1 0x0 SWAP1 JUMPDEST DUP3 DUP3 LT ISZERO PUSH2 0x1788 JUMPI DUP4 DUP3 SWAP1 PUSH1 0x0 MSTORE PUSH1 0x20 PUSH1 0x0 KECCAK256 SWAP1 PUSH1 0x6 MUL ADD PUSH1 0x40 MLOAD DUP1 PUSH1 0xC0 ADD PUSH1 0x40 MSTORE SWAP1 DUP2 PUSH1 0x0 DUP3 ADD SLOAD DUP2 MSTORE PUSH1 0x20 ADD PUSH1 0x1 DUP3 ADD SLOAD DUP2 MSTORE PUSH1 0x20 ADD PUSH1 0x2 DUP3 ADD DUP1 SLOAD PUSH2 0x1620 SWAP1 PUSH2 0x42CD JUMP JUMPDEST DUP1 PUSH1 0x1F ADD PUSH1 0x20 DUP1 SWAP2 DIV MUL PUSH1 0x20 ADD PUSH1 0x40 MLOAD SWAP1 DUP2 ADD PUSH1 0x40 MSTORE DUP1 SWAP3 SWAP2 SWAP1 DUP2 DUP2 MSTORE PUSH1 0x20 ADD DUP3 DUP1 SLOAD PUSH2 0x164C SWAP1 PUSH2 0x42CD JUMP JUMPDEST DUP1 ISZERO PUSH2 0x1699 JUMPI DUP1 PUSH1 0x1F LT PUSH2 0x166E JUMPI PUSH2 0x100 DUP1 DUP4 SLOAD DIV MUL DUP4 MSTORE SWAP2 PUSH1 0x20 ADD SWAP2 PUSH2 0x1699 JUMP JUMPDEST DUP3 ADD SWAP2 SWAP1 PUSH1 0x0 MSTORE PUSH1 0x20 PUSH1 0x0 KECCAK256 SWAP1 JUMPDEST DUP2 SLOAD DUP2 MSTORE SWAP1 PUSH1 0x1 ADD SWAP1 PUSH1 0x20 ADD DUP1 DUP4 GT PUSH2 0x167C JUMPI DUP3 SWAP1 SUB PUSH1 0x1F AND DUP3 ADD SWAP2 JUMPDEST POP POP POP POP POP DUP2 MSTORE PUSH1 0x20 ADD PUSH1 0x3 DUP3 ADD DUP1 SLOAD PUSH2 0x16B2 SWAP1 PUSH2 0x42CD JUMP JUMPDEST DUP1 PUSH1 0x1F ADD PUSH1 0x20 DUP1 SWAP2 DIV MUL PUSH1 0x20 ADD PUSH1 0x40 MLOAD SWAP1 DUP2 ADD PUSH1 0x40 MSTORE DUP1 SWAP3 SWAP2 SWAP1 DUP2 DUP2 MSTORE PUSH1 0x20 ADD DUP3 DUP1 SLOAD PUSH2 0x16DE SWAP1 PUSH2 0x42CD JUMP JUMPDEST DUP1 ISZERO PUSH2 0x172B JUMPI DUP1 PUSH1 0x1F LT PUSH2 0x1700 JUMPI PUSH2 0x100 DUP1 DUP4 SLOAD DIV MUL DUP4 MSTORE SWAP2 PUSH1 0x20 ADD SWAP2 PUSH2 0x172B JUMP JUMPDEST DUP3 ADD SWAP2 SWAP1 PUSH1 0x0 MSTORE PUSH1 0x20 PUSH1 0x0 KECCAK256 SWAP1 JUMPDEST DUP2 SLOAD DUP2 MSTORE SWAP1 PUSH1 0x1 ADD SWAP1 PUSH1 0x20 ADD DUP1 DUP4 GT PUSH2 0x170E JUMPI DUP3 SWAP1 SUB PUSH1 0x1F AND DUP3 ADD SWAP2 JUMPDEST POP POP POP POP POP DUP2 MSTORE PUSH1 0x20 ADD PUSH1 0x4 DUP3 ADD PUSH1 0x0 SWAP1 SLOAD SWAP1 PUSH2 0x100 EXP SWAP1 DIV PUSH1 0xFF AND PUSH1 0x2 DUP2 GT ISZERO PUSH2 0x1759 JUMPI PUSH2 0x1758 PUSH2 0x3C76 JUMP JUMPDEST JUMPDEST PUSH1 0x2 DUP2 GT ISZERO PUSH2 0x176B JUMPI PUSH2 0x176A PUSH2 0x3C76 JUMP JUMPDEST JUMPDEST DUP2 MSTORE PUSH1 0x20 ADD PUSH1 0x5 DUP3 ADD SLOAD DUP2 MSTORE POP POP DUP2 MSTORE PUSH1 0x20 ADD SWAP1 PUSH1 0x1 ADD SWAP1 PUSH2 0x15D9 JUMP JUMPDEST POP POP POP POP SWAP1 POP PUSH1 0x0 DUP2 MLOAD SWAP1 POP PUSH1 0x0 DUP1 JUMPDEST DUP3 DUP2 LT ISZERO PUSH2 0x17E0 JUMPI DUP8 DUP5 DUP3 DUP2 MLOAD DUP2 LT PUSH2 0x17B4 JUMPI PUSH2 0x17B3 PUSH2 0x4755 JUMP JUMPDEST JUMPDEST PUSH1 0x20 MUL PUSH1 0x20 ADD ADD MLOAD PUSH1 0x0 ADD MLOAD SUB PUSH2 0x17CD JUMPI DUP1 SWAP5 POP PUSH1 0x1 SWAP2 POP JUMPDEST DUP1 DUP1 PUSH2 0x17D8 SWAP1 PUSH2 0x4256 JUMP JUMPDEST SWAP2 POP POP PUSH2 0x1798 JUMP JUMPDEST POP PUSH1 0x1 ISZERO ISZERO DUP2 ISZERO ISZERO EQ PUSH2 0x1828 JUMPI PUSH1 0x40 MLOAD PUSH32 0x8C379A000000000000000000000000000000000000000000000000000000000 DUP2 MSTORE PUSH1 0x4 ADD PUSH2 0x181F SWAP1 PUSH2 0x4947 JUMP JUMPDEST PUSH1 0x40 MLOAD DUP1 SWAP2 SUB SWAP1 REVERT JUMPDEST DUP1 ISZERO PUSH2 0x1884 JUMPI PUSH32 0x2341EBB88DFA6CE59E54BDDE82E9746E5A27FCD12A0D5D5CA812F1D01F4102E2 DUP4 DUP6 DUP2 MLOAD DUP2 LT PUSH2 0x1862 JUMPI PUSH2 0x1861 PUSH2 0x4755 JUMP JUMPDEST JUMPDEST PUSH1 0x20 MUL PUSH1 0x20 ADD ADD MLOAD PUSH1 0x80 ADD MLOAD PUSH1 0x40 MLOAD PUSH2 0x187B SWAP2 SWAP1 PUSH2 0x4967 JUMP JUMPDEST PUSH1 0x40 MLOAD DUP1 SWAP2 SUB SWAP1 LOG1 JUMPDEST DUP3 DUP5 DUP2 MLOAD DUP2 LT PUSH2 0x1897 JUMPI PUSH2 0x1896 PUSH2 0x4755 JUMP JUMPDEST JUMPDEST PUSH1 0x20 MUL PUSH1 0x20 ADD ADD MLOAD PUSH1 0x80 ADD MLOAD DUP4 DUP6 DUP2 MLOAD DUP2 LT PUSH2 0x18B6 JUMPI PUSH2 0x18B5 PUSH2 0x4755 JUMP JUMPDEST JUMPDEST PUSH1 0x20 MUL PUSH1 0x20 ADD ADD MLOAD PUSH1 0xA0 ADD MLOAD SWAP6 POP SWAP6 POP POP POP POP POP SWAP3 POP SWAP3 SWAP1 POP JUMP JUMPDEST PUSH1 0x0 PUSH1 0x7 SLOAD SWAP1 POP SWAP1 JUMP JUMPDEST PUSH1 0x0 PUSH1 0x1 PUSH1 0x0 DUP4 DUP2 MSTORE PUSH1 0x20 ADD SWAP1 DUP2 MSTORE PUSH1 0x20 ADD PUSH1 0x0 KECCAK256 PUSH1 0x8 ADD SLOAD SWAP1 POP SWAP2 SWAP1 POP JUMP JUMPDEST PUSH1 0x60 DUP2 PUSH1 0x7 SLOAD DUP2 GT ISZERO DUP1 ISZERO PUSH2 0x1911 JUMPI POP PUSH1 0x0 DUP2 EQ ISZERO JUMPDEST PUSH2 0x1950 JUMPI PUSH1 0x40 MLOAD PUSH32 0x8C379A000000000000000000000000000000000000000000000000000000000 DUP2 MSTORE PUSH1 0x4 ADD PUSH2 0x1947 SWAP1 PUSH2 0x465D JUMP JUMPDEST PUSH1 0x40 MLOAD DUP1 SWAP2 SUB SWAP1 REVERT JUMPDEST PUSH1 0x8 PUSH1 0x0 DUP5 DUP2 MSTORE PUSH1 0x20 ADD SWAP1 DUP2 MSTORE PUSH1 0x20 ADD PUSH1 0x0 KECCAK256 PUSH1 0x2 ADD DUP1 SLOAD PUSH2 0x1971 SWAP1 PUSH2 0x42CD JUMP JUMPDEST DUP1 PUSH1 0x1F ADD PUSH1 0x20 DUP1 SWAP2 DIV MUL PUSH1 0x20 ADD PUSH1 0x40 MLOAD SWAP1 DUP2 ADD PUSH1 0x40 MSTORE DUP1 SWAP3 SWAP2 SWAP1 DUP2 DUP2 MSTORE PUSH1 0x20 ADD DUP3 DUP1 SLOAD PUSH2 0x199D SWAP1 PUSH2 0x42CD JUMP JUMPDEST DUP1 ISZERO PUSH2 0x19EA JUMPI DUP1 PUSH1 0x1F LT PUSH2 0x19BF JUMPI PUSH2 0x100 DUP1 DUP4 SLOAD DIV MUL DUP4 MSTORE SWAP2 PUSH1 0x20 ADD SWAP2 PUSH2 0x19EA JUMP JUMPDEST DUP3 ADD SWAP2 SWAP1 PUSH1 0x0 MSTORE PUSH1 0x20 PUSH1 0x0 KECCAK256 SWAP1 JUMPDEST DUP2 SLOAD DUP2 MSTORE SWAP1 PUSH1 0x1 ADD SWAP1 PUSH1 0x20 ADD DUP1 DUP4 GT PUSH2 0x19CD JUMPI DUP3 SWAP1 SUB PUSH1 0x1F AND DUP3 ADD SWAP2 JUMPDEST POP POP POP POP POP SWAP2 POP POP SWAP2 SWAP1 POP JUMP JUMPDEST PUSH1 0x0 SLOAD DUP2 JUMP JUMPDEST PUSH2 0x1A05 PUSH2 0x35B3 JUMP JUMPDEST PUSH1 0x1 PUSH1 0x0 DUP4 DUP2 MSTORE PUSH1 0x20 ADD SWAP1 DUP2 MSTORE PUSH1 0x20 ADD PUSH1 0x0 KECCAK256 PUSH1 0x40 MLOAD DUP1 PUSH2 0x140 ADD PUSH1 0x40 MSTORE SWAP1 DUP2 PUSH1 0x0 DUP3 ADD SLOAD DUP2 MSTORE PUSH1 0x20 ADD PUSH1 0x1 DUP3 ADD SLOAD DUP2 MSTORE PUSH1 0x20 ADD PUSH1 0x2 DUP3 ADD SLOAD DUP2 MSTORE PUSH1 0x20 ADD PUSH1 0x3 DUP3 ADD SLOAD DUP2 MSTORE PUSH1 0x20 ADD PUSH1 0x4 DUP3 ADD SLOAD DUP2 MSTORE PUSH1 0x20 ADD PUSH1 0x5 DUP3 ADD SLOAD DUP2 MSTORE PUSH1 0x20 ADD PUSH1 0x6 DUP3 ADD PUSH1 0x0 SWAP1 SLOAD SWAP1 PUSH2 0x100 EXP SWAP1 DIV PUSH1 0xFF AND PUSH1 0x1 DUP2 GT ISZERO PUSH2 0x1A85 JUMPI PUSH2 0x1A84 PUSH2 0x3C76 JUMP JUMPDEST JUMPDEST PUSH1 0x1 DUP2 GT ISZERO PUSH2 0x1A97 JUMPI PUSH2 0x1A96 PUSH2 0x3C76 JUMP JUMPDEST JUMPDEST DUP2 MSTORE PUSH1 0x20 ADD PUSH1 0x6 DUP3 ADD PUSH1 0x1 SWAP1 SLOAD SWAP1 PUSH2 0x100 EXP SWAP1 DIV PUSH1 0xFF AND PUSH1 0x5 DUP2 GT ISZERO PUSH2 0x1AC0 JUMPI PUSH2 0x1ABF PUSH2 0x3C76 JUMP JUMPDEST JUMPDEST PUSH1 0x5 DUP2 GT ISZERO PUSH2 0x1AD2 JUMPI PUSH2 0x1AD1 PUSH2 0x3C76 JUMP JUMPDEST JUMPDEST DUP2 MSTORE PUSH1 0x20 ADD PUSH1 0x7 DUP3 ADD SLOAD DUP2 MSTORE PUSH1 0x20 ADD PUSH1 0x8 DUP3 ADD SLOAD DUP2 MSTORE POP POP SWAP1 POP SWAP2 SWAP1 POP JUMP JUMPDEST PUSH1 0x2 SLOAD DUP2 JUMP JUMPDEST PUSH1 0x0 DUP7 PUSH1 0x7 SLOAD DUP2 GT ISZERO DUP1 ISZERO PUSH2 0x1B0D JUMPI POP PUSH1 0x0 DUP2 EQ ISZERO JUMPDEST PUSH2 0x1B4C JUMPI PUSH1 0x40 MLOAD PUSH32 0x8C379A000000000000000000000000000000000000000000000000000000000 DUP2 MSTORE PUSH1 0x4 ADD PUSH2 0x1B43 SWAP1 PUSH2 0x465D JUMP JUMPDEST PUSH1 0x40 MLOAD DUP1 SWAP2 SUB SWAP1 REVERT JUMPDEST DUP8 CALLER PUSH20 0xFFFFFFFFFFFFFFFFFFFFFFFFFFFFFFFFFFFFFFFF AND PUSH1 0x8 PUSH1 0x0 DUP4 DUP2 MSTORE PUSH1 0x20 ADD SWAP1 DUP2 MSTORE PUSH1 0x20 ADD PUSH1 0x0 KECCAK256 PUSH1 0x3 ADD PUSH1 0x0 SWAP1 SLOAD SWAP1 PUSH2 0x100 EXP SWAP1 DIV PUSH20 0xFFFFFFFFFFFFFFFFFFFFFFFFFFFFFFFFFFFFFFFF AND PUSH20 0xFFFFFFFFFFFFFFFFFFFFFFFFFFFFFFFFFFFFFFFF AND EQ PUSH2 0x1BF1 JUMPI PUSH1 0x40 MLOAD PUSH32 0x8C379A000000000000000000000000000000000000000000000000000000000 DUP2 MSTORE PUSH1 0x4 ADD PUSH2 0x1BE8 SWAP1 PUSH2 0x46C9 JUMP JUMPDEST PUSH1 0x40 MLOAD DUP1 SWAP2 SUB SWAP1 REVERT JUMPDEST PUSH1 0x1 PUSH1 0x4 PUSH1 0x0 SWAP1 SLOAD SWAP1 PUSH2 0x100 EXP SWAP1 DIV PUSH20 0xFFFFFFFFFFFFFFFFFFFFFFFFFFFFFFFFFFFFFFFF AND PUSH20 0xFFFFFFFFFFFFFFFFFFFFFFFFFFFFFFFFFFFFFFFF AND PUSH4 0xB9B7650A CALLER PUSH1 0x40 MLOAD DUP3 PUSH4 0xFFFFFFFF AND PUSH1 0xE0 SHL DUP2 MSTORE PUSH1 0x4 ADD PUSH2 0x1C4E SWAP2 SWAP1 PUSH2 0x4113 JUMP JUMPDEST PUSH1 0x20 PUSH1 0x40 MLOAD DUP1 DUP4 SUB DUP2 DUP7 GAS STATICCALL ISZERO DUP1 ISZERO PUSH2 0x1C6B JUMPI RETURNDATASIZE PUSH1 0x0 DUP1 RETURNDATACOPY RETURNDATASIZE PUSH1 0x0 REVERT JUMPDEST POP POP POP POP PUSH1 0x40 MLOAD RETURNDATASIZE PUSH1 0x1F NOT PUSH1 0x1F DUP3 ADD AND DUP3 ADD DUP1 PUSH1 0x40 MSTORE POP DUP2 ADD SWAP1 PUSH2 0x1C8F SWAP2 SWAP1 PUSH2 0x4997 JUMP JUMPDEST GT PUSH2 0x1CCF JUMPI PUSH1 0x40 MLOAD PUSH32 0x8C379A000000000000000000000000000000000000000000000000000000000 DUP2 MSTORE PUSH1 0x4 ADD PUSH2 0x1CC6 SWAP1 PUSH2 0x4A36 JUMP JUMPDEST PUSH1 0x40 MLOAD DUP1 SWAP2 SUB SWAP1 REVERT JUMPDEST PUSH3 0x989680 DUP6 GT PUSH2 0x1D14 JUMPI PUSH1 0x40 MLOAD PUSH32 0x8C379A000000000000000000000000000000000000000000000000000000000 DUP2 MSTORE PUSH1 0x4 ADD PUSH2 0x1D0B SWAP1 PUSH2 0x4AA2 JUMP JUMPDEST PUSH1 0x40 MLOAD DUP1 SWAP2 SUB SWAP1 REVERT JUMPDEST PUSH3 0x989680 DUP5 GT PUSH2 0x1D59 JUMPI PUSH1 0x40 MLOAD PUSH32 0x8C379A000000000000000000000000000000000000000000000000000000000 DUP2 MSTORE PUSH1 0x4 ADD PUSH2 0x1D50 SWAP1 PUSH2 0x4B0E JUMP JUMPDEST PUSH1 0x40 MLOAD DUP1 SWAP2 SUB SWAP1 REVERT JUMPDEST DUP4 DUP6 LT PUSH2 0x1D9B JUMPI PUSH1 0x40 MLOAD PUSH32 0x8C379A000000000000000000000000000000000000000000000000000000000 DUP2 MSTORE PUSH1 0x4 ADD PUSH2 0x1D92 SWAP1 PUSH2 0x4B0E JUMP JUMPDEST PUSH1 0x40 MLOAD DUP1 SWAP2 SUB SWAP1 REVERT JUMPDEST PUSH1 0x0 DUP1 DUP2 SLOAD DUP1 SWAP3 SWAP2 SWAP1 PUSH2 0x1DAD SWAP1 PUSH2 0x4256 JUMP JUMPDEST SWAP2 SWAP1 POP SSTORE POP PUSH1 0x0 PUSH1 0x1 PUSH1 0x0 DUP1 SLOAD DUP2 MSTORE PUSH1 0x20 ADD SWAP1 DUP2 MSTORE PUSH1 0x20 ADD PUSH1 0x0 KECCAK256 SWAP1 POP DUP11 DUP2 PUSH1 0x2 ADD DUP2 SWAP1 SSTORE POP DUP10 DUP2 PUSH1 0x1 ADD DUP2 SWAP1 SSTORE POP DUP9 DUP2 PUSH1 0x3 ADD DUP2 SWAP1 SSTORE POP DUP8 DUP2 PUSH1 0x4 ADD DUP2 SWAP1 SSTORE POP PUSH1 0x0 DUP2 PUSH1 0x5 ADD DUP2 SWAP1 SSTORE POP DUP7 DUP2 PUSH1 0x6 ADD PUSH1 0x0 PUSH2 0x100 EXP DUP2 SLOAD DUP2 PUSH1 0xFF MUL NOT AND SWAP1 DUP4 PUSH1 0x1 DUP2 GT ISZERO PUSH2 0x1E1F JUMPI PUSH2 0x1E1E PUSH2 0x3C76 JUMP JUMPDEST JUMPDEST MUL OR SWAP1 SSTORE POP PUSH1 0x0 DUP2 PUSH1 0x6 ADD PUSH1 0x1 PUSH2 0x100 EXP DUP2 SLOAD DUP2 PUSH1 0xFF MUL NOT AND SWAP1 DUP4 PUSH1 0x5 DUP2 GT ISZERO PUSH2 0x1E4C JUMPI PUSH2 0x1E4B PUSH2 0x3C76 JUMP JUMPDEST JUMPDEST MUL OR SWAP1 SSTORE POP DUP6 DUP2 PUSH1 0x7 ADD DUP2 SWAP1 SSTORE POP DUP5 DUP2 PUSH1 0x8 ADD DUP2 SWAP1 SSTORE POP PUSH1 0x0 SLOAD SWAP4 POP POP POP POP SWAP8 SWAP7 POP POP POP POP POP POP POP JUMP JUMPDEST PUSH1 0x0 PUSH1 0x9 PUSH1 0x0 CALLER PUSH20 0xFFFFFFFFFFFFFFFFFFFFFFFFFFFFFFFFFFFFFFFF AND PUSH20 0xFFFFFFFFFFFFFFFFFFFFFFFFFFFFFFFFFFFFFFFF AND DUP2 MSTORE PUSH1 0x20 ADD SWAP1 DUP2 MSTORE PUSH1 0x20 ADD PUSH1 0x0 KECCAK256 SLOAD SWAP1 POP SWAP1 JUMP JUMPDEST DUP2 PUSH1 0x1 PUSH1 0x0 DUP4 DUP2 MSTORE PUSH1 0x20 ADD SWAP1 DUP2 MSTORE PUSH1 0x20 ADD PUSH1 0x0 KECCAK256 PUSH1 0x6 ADD PUSH1 0x1 PUSH2 0x100 EXP DUP2 SLOAD DUP2 PUSH1 0xFF MUL NOT AND SWAP1 DUP4 PUSH1 0x5 DUP2 GT ISZERO PUSH2 0x1EF6 JUMPI PUSH2 0x1EF5 PUSH2 0x3C76 JUMP JUMPDEST JUMPDEST MUL OR SWAP1 SSTORE POP POP POP JUMP JUMPDEST DUP2 PUSH1 0x7 SLOAD DUP2 GT ISZERO DUP1 ISZERO PUSH2 0x1F13 JUMPI POP PUSH1 0x0 DUP2 EQ ISZERO JUMPDEST PUSH2 0x1F52 JUMPI PUSH1 0x40 MLOAD PUSH32 0x8C379A000000000000000000000000000000000000000000000000000000000 DUP2 MSTORE PUSH1 0x4 ADD PUSH2 0x1F49 SWAP1 PUSH2 0x465D JUMP JUMPDEST PUSH1 0x40 MLOAD DUP1 SWAP2 SUB SWAP1 REVERT JUMPDEST DUP4 DUP3 DUP1 PUSH1 0x3 PUSH1 0x0 PUSH1 0x1 PUSH1 0x0 DUP7 DUP2 MSTORE PUSH1 0x20 ADD SWAP1 DUP2 MSTORE PUSH1 0x20 ADD PUSH1 0x0 KECCAK256 PUSH1 0x2 ADD SLOAD DUP2 MSTORE PUSH1 0x20 ADD SWAP1 DUP2 MSTORE PUSH1 0x20 ADD PUSH1 0x0 KECCAK256 PUSH1 0x0 ADD SLOAD EQ PUSH2 0x1FC2 JUMPI PUSH1 0x40 MLOAD PUSH32 0x8C379A000000000000000000000000000000000000000000000000000000000 DUP2 MSTORE PUSH1 0x4 ADD PUSH2 0x1FB9 SWAP1 PUSH2 0x483C JUMP JUMPDEST PUSH1 0x40 MLOAD DUP1 SWAP2 SUB SWAP1 REVERT JUMPDEST PUSH1 0x1 DUP1 PUSH1 0x0 DUP9 DUP2 MSTORE PUSH1 0x20 ADD SWAP1 DUP2 MSTORE PUSH1 0x20 ADD PUSH1 0x0 KECCAK256 PUSH1 0x6 ADD PUSH1 0x1 PUSH2 0x100 EXP DUP2 SLOAD DUP2 PUSH1 0xFF MUL NOT AND SWAP1 DUP4 PUSH1 0x5 DUP2 GT ISZERO PUSH2 0x1FFB JUMPI PUSH2 0x1FFA PUSH2 0x3C76 JUMP JUMPDEST JUMPDEST MUL OR SWAP1 SSTORE POP PUSH1 0x1 PUSH1 0x0 DUP8 DUP2 MSTORE PUSH1 0x20 ADD SWAP1 DUP2 MSTORE PUSH1 0x20 ADD PUSH1 0x0 KECCAK256 PUSH1 0x8 PUSH1 0x0 DUP8 DUP2 MSTORE PUSH1 0x20 ADD SWAP1 DUP2 MSTORE PUSH1 0x20 ADD PUSH1 0x0 KECCAK256 PUSH1 0x5 ADD PUSH1 0x0 DUP9 DUP2 MSTORE PUSH1 0x20 ADD SWAP1 DUP2 MSTORE PUSH1 0x20 ADD PUSH1 0x0 KECCAK256 PUSH1 0x0 DUP3 ADD SLOAD DUP2 PUSH1 0x0 ADD SSTORE PUSH1 0x1 DUP3 ADD SLOAD DUP2 PUSH1 0x1 ADD SSTORE PUSH1 0x2 DUP3 ADD SLOAD DUP2 PUSH1 0x2 ADD SSTORE PUSH1 0x3 DUP3 ADD SLOAD DUP2 PUSH1 0x3 ADD SSTORE PUSH1 0x4 DUP3 ADD SLOAD DUP2 PUSH1 0x4 ADD SSTORE PUSH1 0x5 DUP3 ADD SLOAD DUP2 PUSH1 0x5 ADD SSTORE PUSH1 0x6 DUP3 ADD PUSH1 0x0 SWAP1 SLOAD SWAP1 PUSH2 0x100 EXP SWAP1 DIV PUSH1 0xFF AND DUP2 PUSH1 0x6 ADD PUSH1 0x0 PUSH2 0x100 EXP DUP2 SLOAD DUP2 PUSH1 0xFF MUL NOT AND SWAP1 DUP4 PUSH1 0x1 DUP2 GT ISZERO PUSH2 0x20AE JUMPI PUSH2 0x20AD PUSH2 0x3C76 JUMP JUMPDEST JUMPDEST MUL OR SWAP1 SSTORE POP PUSH1 0x6 DUP3 ADD PUSH1 0x1 SWAP1 SLOAD SWAP1 PUSH2 0x100 EXP SWAP1 DIV PUSH1 0xFF AND DUP2 PUSH1 0x6 ADD PUSH1 0x1 PUSH2 0x100 EXP DUP2 SLOAD DUP2 PUSH1 0xFF MUL NOT AND SWAP1 DUP4 PUSH1 0x5 DUP2 GT ISZERO PUSH2 0x20EB JUMPI PUSH2 0x20EA PUSH2 0x3C76 JUMP JUMPDEST JUMPDEST MUL OR SWAP1 SSTORE POP PUSH1 0x7 DUP3 ADD SLOAD DUP2 PUSH1 0x7 ADD SSTORE PUSH1 0x8 DUP3 ADD SLOAD DUP2 PUSH1 0x8 ADD SSTORE SWAP1 POP POP PUSH1 0x8 PUSH1 0x0 DUP7 DUP2 MSTORE PUSH1 0x20 ADD SWAP1 DUP2 MSTORE PUSH1 0x20 ADD PUSH1 0x0 KECCAK256 PUSH1 0x4 ADD PUSH1 0x0 DUP2 SLOAD DUP1 SWAP3 SWAP2 SWAP1 PUSH2 0x212E SWAP1 PUSH2 0x4256 JUMP JUMPDEST SWAP2 SWAP1 POP SSTORE POP PUSH2 0x213C DUP6 PUSH2 0x345E JUMP JUMPDEST POP POP POP POP POP POP JUMP JUMPDEST PUSH1 0x0 DUP2 PUSH1 0x7 SLOAD DUP2 GT ISZERO DUP1 ISZERO PUSH2 0x215A JUMPI POP PUSH1 0x0 DUP2 EQ ISZERO JUMPDEST PUSH2 0x2199 JUMPI PUSH1 0x40 MLOAD PUSH32 0x8C379A000000000000000000000000000000000000000000000000000000000 DUP2 MSTORE PUSH1 0x4 ADD PUSH2 0x2190 SWAP1 PUSH2 0x465D JUMP JUMPDEST PUSH1 0x40 MLOAD DUP1 SWAP2 SUB SWAP1 REVERT JUMPDEST PUSH1 0x8 PUSH1 0x0 DUP5 DUP2 MSTORE PUSH1 0x20 ADD SWAP1 DUP2 MSTORE PUSH1 0x20 ADD PUSH1 0x0 KECCAK256 PUSH1 0x3 ADD PUSH1 0x0 SWAP1 SLOAD SWAP1 PUSH2 0x100 EXP SWAP1 DIV PUSH20 0xFFFFFFFFFFFFFFFFFFFFFFFFFFFFFFFFFFFFFFFF AND SWAP2 POP POP SWAP2 SWAP1 POP JUMP JUMPDEST PUSH1 0x0 PUSH1 0x3 PUSH1 0x0 DUP4 DUP2 MSTORE PUSH1 0x20 ADD SWAP1 DUP2 MSTORE PUSH1 0x20 ADD PUSH1 0x0 KECCAK256 PUSH1 0x0 ADD SLOAD SWAP1 POP SWAP2 SWAP1 POP JUMP JUMPDEST PUSH1 0x0 PUSH1 0x1 PUSH1 0x0 DUP4 DUP2 MSTORE PUSH1 0x20 ADD SWAP1 DUP2 MSTORE PUSH1 0x20 ADD PUSH1 0x0 KECCAK256 PUSH1 0x8 ADD SLOAD SUB PUSH2 0x2251 JUMPI PUSH1 0x40 MLOAD PUSH32 0x8C379A000000000000000000000000000000000000000000000000000000000 DUP2 MSTORE PUSH1 0x4 ADD PUSH2 0x2248 SWAP1 PUSH2 0x4BA0 JUMP JUMPDEST PUSH1 0x40 MLOAD DUP1 SWAP2 SUB SWAP1 REVERT JUMPDEST DUP2 PUSH1 0x1 PUSH1 0x0 DUP4 DUP2 MSTORE PUSH1 0x20 ADD SWAP1 DUP2 MSTORE PUSH1 0x20 ADD PUSH1 0x0 KECCAK256 PUSH1 0x8 ADD DUP2 SWAP1 SSTORE POP POP POP JUMP JUMPDEST PUSH1 0x0 DUP2 PUSH1 0x7 SLOAD DUP2 GT ISZERO DUP1 ISZERO PUSH2 0x2286 JUMPI POP PUSH1 0x0 DUP2 EQ ISZERO JUMPDEST PUSH2 0x22C5 JUMPI PUSH1 0x40 MLOAD PUSH32 0x8C379A000000000000000000000000000000000000000000000000000000000 DUP2 MSTORE PUSH1 0x4 ADD PUSH2 0x22BC SWAP1 PUSH2 0x465D JUMP JUMPDEST PUSH1 0x40 MLOAD DUP1 SWAP2 SUB SWAP1 REVERT JUMPDEST PUSH1 0x8 PUSH1 0x0 DUP5 DUP2 MSTORE PUSH1 0x20 ADD SWAP1 DUP2 MSTORE PUSH1 0x20 ADD PUSH1 0x0 KECCAK256 PUSH1 0x1 ADD SLOAD SWAP2 POP POP SWAP2 SWAP1 POP JUMP JUMPDEST DUP1 PUSH1 0x7 SLOAD DUP2 GT ISZERO DUP1 ISZERO PUSH2 0x22F8 JUMPI POP PUSH1 0x0 DUP2 EQ ISZERO JUMPDEST PUSH2 0x2337 JUMPI PUSH1 0x40 MLOAD PUSH32 0x8C379A000000000000000000000000000000000000000000000000000000000 DUP2 MSTORE PUSH1 0x4 ADD PUSH2 0x232E SWAP1 PUSH2 0x465D JUMP JUMPDEST PUSH1 0x40 MLOAD DUP1 SWAP2 SUB SWAP1 REVERT JUMPDEST DUP2 CALLER PUSH20 0xFFFFFFFFFFFFFFFFFFFFFFFFFFFFFFFFFFFFFFFF AND PUSH1 0x8 PUSH1 0x0 DUP4 DUP2 MSTORE PUSH1 0x20 ADD SWAP1 DUP2 MSTORE PUSH1 0x20 ADD PUSH1 0x0 KECCAK256 PUSH1 0x3 ADD PUSH1 0x0 SWAP1 SLOAD SWAP1 PUSH2 0x100 EXP SWAP1 DIV PUSH20 0xFFFFFFFFFFFFFFFFFFFFFFFFFFFFFFFFFFFFFFFF AND PUSH20 0xFFFFFFFFFFFFFFFFFFFFFFFFFFFFFFFFFFFFFFFF AND EQ PUSH2 0x23DC JUMPI PUSH1 0x40 MLOAD PUSH32 0x8C379A000000000000000000000000000000000000000000000000000000000 DUP2 MSTORE PUSH1 0x4 ADD PUSH2 0x23D3 SWAP1 PUSH2 0x46C9 JUMP JUMPDEST PUSH1 0x40 MLOAD DUP1 SWAP2 SUB SWAP1 REVERT JUMPDEST PUSH1 0x0 PUSH1 0x8 PUSH1 0x0 DUP6 DUP2 MSTORE PUSH1 0x20 ADD SWAP1 DUP2 MSTORE PUSH1 0x20 ADD PUSH1 0x0 KECCAK256 PUSH1 0x6 ADD DUP1 SLOAD DUP1 PUSH1 0x20 MUL PUSH1 0x20 ADD PUSH1 0x40 MLOAD SWAP1 DUP2 ADD PUSH1 0x40 MSTORE DUP1 SWAP3 SWAP2 SWAP1 DUP2 DUP2 MSTORE PUSH1 0x20 ADD PUSH1 0x0 SWAP1 JUMPDEST DUP3 DUP3 LT ISZERO PUSH2 0x25C3 JUMPI DUP4 DUP3 SWAP1 PUSH1 0x0 MSTORE PUSH1 0x20 PUSH1 0x0 KECCAK256 SWAP1 PUSH1 0x6 MUL ADD PUSH1 0x40 MLOAD DUP1 PUSH1 0xC0 ADD PUSH1 0x40 MSTORE SWAP1 DUP2 PUSH1 0x0 DUP3 ADD SLOAD DUP2 MSTORE PUSH1 0x20 ADD PUSH1 0x1 DUP3 ADD SLOAD DUP2 MSTORE PUSH1 0x20 ADD PUSH1 0x2 DUP3 ADD DUP1 SLOAD PUSH2 0x245B SWAP1 PUSH2 0x42CD JUMP JUMPDEST DUP1 PUSH1 0x1F ADD PUSH1 0x20 DUP1 SWAP2 DIV MUL PUSH1 0x20 ADD PUSH1 0x40 MLOAD SWAP1 DUP2 ADD PUSH1 0x40 MSTORE DUP1 SWAP3 SWAP2 SWAP1 DUP2 DUP2 MSTORE PUSH1 0x20 ADD DUP3 DUP1 SLOAD PUSH2 0x2487 SWAP1 PUSH2 0x42CD JUMP JUMPDEST DUP1 ISZERO PUSH2 0x24D4 JUMPI DUP1 PUSH1 0x1F LT PUSH2 0x24A9 JUMPI PUSH2 0x100 DUP1 DUP4 SLOAD DIV MUL DUP4 MSTORE SWAP2 PUSH1 0x20 ADD SWAP2 PUSH2 0x24D4 JUMP JUMPDEST DUP3 ADD SWAP2 SWAP1 PUSH1 0x0 MSTORE PUSH1 0x20 PUSH1 0x0 KECCAK256 SWAP1 JUMPDEST DUP2 SLOAD DUP2 MSTORE SWAP1 PUSH1 0x1 ADD SWAP1 PUSH1 0x20 ADD DUP1 DUP4 GT PUSH2 0x24B7 JUMPI DUP3 SWAP1 SUB PUSH1 0x1F AND DUP3 ADD SWAP2 JUMPDEST POP POP POP POP POP DUP2 MSTORE PUSH1 0x20 ADD PUSH1 0x3 DUP3 ADD DUP1 SLOAD PUSH2 0x24ED SWAP1 PUSH2 0x42CD JUMP JUMPDEST DUP1 PUSH1 0x1F ADD PUSH1 0x20 DUP1 SWAP2 DIV MUL PUSH1 0x20 ADD PUSH1 0x40 MLOAD SWAP1 DUP2 ADD PUSH1 0x40 MSTORE DUP1 SWAP3 SWAP2 SWAP1 DUP2 DUP2 MSTORE PUSH1 0x20 ADD DUP3 DUP1 SLOAD PUSH2 0x2519 SWAP1 PUSH2 0x42CD JUMP JUMPDEST DUP1 ISZERO PUSH2 0x2566 JUMPI DUP1 PUSH1 0x1F LT PUSH2 0x253B JUMPI PUSH2 0x100 DUP1 DUP4 SLOAD DIV MUL DUP4 MSTORE SWAP2 PUSH1 0x20 ADD SWAP2 PUSH2 0x2566 JUMP JUMPDEST DUP3 ADD SWAP2 SWAP1 PUSH1 0x0 MSTORE PUSH1 0x20 PUSH1 0x0 KECCAK256 SWAP1 JUMPDEST DUP2 SLOAD DUP2 MSTORE SWAP1 PUSH1 0x1 ADD SWAP1 PUSH1 0x20 ADD DUP1 DUP4 GT PUSH2 0x2549 JUMPI DUP3 SWAP1 SUB PUSH1 0x1F AND DUP3 ADD SWAP2 JUMPDEST POP POP POP POP POP DUP2 MSTORE PUSH1 0x20 ADD PUSH1 0x4 DUP3 ADD PUSH1 0x0 SWAP1 SLOAD SWAP1 PUSH2 0x100 EXP SWAP1 DIV PUSH1 0xFF AND PUSH1 0x2 DUP2 GT ISZERO PUSH2 0x2594 JUMPI PUSH2 0x2593 PUSH2 0x3C76 JUMP JUMPDEST JUMPDEST PUSH1 0x2 DUP2 GT ISZERO PUSH2 0x25A6 JUMPI PUSH2 0x25A5 PUSH2 0x3C76 JUMP JUMPDEST JUMPDEST DUP2 MSTORE PUSH1 0x20 ADD PUSH1 0x5 DUP3 ADD SLOAD DUP2 MSTORE POP POP DUP2 MSTORE PUSH1 0x20 ADD SWAP1 PUSH1 0x1 ADD SWAP1 PUSH2 0x2414 JUMP JUMPDEST POP POP POP POP SWAP1 POP PUSH1 0x0 DUP2 MLOAD PUSH8 0xFFFFFFFFFFFFFFFF DUP2 GT ISZERO PUSH2 0x25E6 JUMPI PUSH2 0x25E5 PUSH2 0x3659 JUMP JUMPDEST JUMPDEST PUSH1 0x40 MLOAD SWAP1 DUP1 DUP3 MSTORE DUP1 PUSH1 0x20 MUL PUSH1 0x20 ADD DUP3 ADD PUSH1 0x40 MSTORE DUP1 ISZERO PUSH2 0x2614 JUMPI DUP2 PUSH1 0x20 ADD PUSH1 0x20 DUP3 MUL DUP1 CALLDATASIZE DUP4 CALLDATACOPY DUP1 DUP3 ADD SWAP2 POP POP SWAP1 POP JUMPDEST POP SWAP1 POP PUSH1 0x0 DUP3 MLOAD PUSH8 0xFFFFFFFFFFFFFFFF DUP2 GT ISZERO PUSH2 0x2634 JUMPI PUSH2 0x2633 PUSH2 0x3659 JUMP JUMPDEST JUMPDEST PUSH1 0x40 MLOAD SWAP1 DUP1 DUP3 MSTORE DUP1 PUSH1 0x20 MUL PUSH1 0x20 ADD DUP3 ADD PUSH1 0x40 MSTORE DUP1 ISZERO PUSH2 0x2662 JUMPI DUP2 PUSH1 0x20 ADD PUSH1 0x20 DUP3 MUL DUP1 CALLDATASIZE DUP4 CALLDATACOPY DUP1 DUP3 ADD SWAP2 POP POP SWAP1 POP JUMPDEST POP SWAP1 POP PUSH1 0x0 DUP4 MLOAD PUSH8 0xFFFFFFFFFFFFFFFF DUP2 GT ISZERO PUSH2 0x2682 JUMPI PUSH2 0x2681 PUSH2 0x3659 JUMP JUMPDEST JUMPDEST PUSH1 0x40 MLOAD SWAP1 DUP1 DUP3 MSTORE DUP1 PUSH1 0x20 MUL PUSH1 0x20 ADD DUP3 ADD PUSH1 0x40 MSTORE DUP1 ISZERO PUSH2 0x26B5 JUMPI DUP2 PUSH1 0x20 ADD JUMPDEST PUSH1 0x60 DUP2 MSTORE PUSH1 0x20 ADD SWAP1 PUSH1 0x1 SWAP1 SUB SWAP1 DUP2 PUSH2 0x26A0 JUMPI SWAP1 POP JUMPDEST POP SWAP1 POP PUSH1 0x0 DUP5 MLOAD PUSH8 0xFFFFFFFFFFFFFFFF DUP2 GT ISZERO PUSH2 0x26D5 JUMPI PUSH2 0x26D4 PUSH2 0x3659 JUMP JUMPDEST JUMPDEST PUSH1 0x40 MLOAD SWAP1 DUP1 DUP3 MSTORE DUP1 PUSH1 0x20 MUL PUSH1 0x20 ADD DUP3 ADD PUSH1 0x40 MSTORE DUP1 ISZERO PUSH2 0x2708 JUMPI DUP2 PUSH1 0x20 ADD JUMPDEST PUSH1 0x60 DUP2 MSTORE PUSH1 0x20 ADD SWAP1 PUSH1 0x1 SWAP1 SUB SWAP1 DUP2 PUSH2 0x26F3 JUMPI SWAP1 POP JUMPDEST POP SWAP1 POP PUSH1 0x0 JUMPDEST DUP6 MLOAD DUP2 LT ISZERO PUSH2 0x286A JUMPI PUSH1 0x2 DUP1 DUP2 GT ISZERO PUSH2 0x272A JUMPI PUSH2 0x2729 PUSH2 0x3C76 JUMP JUMPDEST JUMPDEST DUP7 DUP3 DUP2 MLOAD DUP2 LT PUSH2 0x273D JUMPI PUSH2 0x273C PUSH2 0x4755 JUMP JUMPDEST JUMPDEST PUSH1 0x20 MUL PUSH1 0x20 ADD ADD MLOAD PUSH1 0x80 ADD MLOAD PUSH1 0x2 DUP2 GT ISZERO PUSH2 0x275B JUMPI PUSH2 0x275A PUSH2 0x3C76 JUMP JUMPDEST JUMPDEST SUB PUSH2 0x2857 JUMPI DUP6 DUP2 DUP2 MLOAD DUP2 LT PUSH2 0x2773 JUMPI PUSH2 0x2772 PUSH2 0x4755 JUMP JUMPDEST JUMPDEST PUSH1 0x20 MUL PUSH1 0x20 ADD ADD MLOAD PUSH1 0x0 ADD MLOAD DUP6 DUP3 DUP2 MLOAD DUP2 LT PUSH2 0x2792 JUMPI PUSH2 0x2791 PUSH2 0x4755 JUMP JUMPDEST JUMPDEST PUSH1 0x20 MUL PUSH1 0x20 ADD ADD DUP2 DUP2 MSTORE POP POP DUP6 DUP2 DUP2 MLOAD DUP2 LT PUSH2 0x27B1 JUMPI PUSH2 0x27B0 PUSH2 0x4755 JUMP JUMPDEST JUMPDEST PUSH1 0x20 MUL PUSH1 0x20 ADD ADD MLOAD PUSH1 0x20 ADD MLOAD DUP5 DUP3 DUP2 MLOAD DUP2 LT PUSH2 0x27D0 JUMPI PUSH2 0x27CF PUSH2 0x4755 JUMP JUMPDEST JUMPDEST PUSH1 0x20 MUL PUSH1 0x20 ADD ADD DUP2 DUP2 MSTORE POP POP DUP6 DUP2 DUP2 MLOAD DUP2 LT PUSH2 0x27EF JUMPI PUSH2 0x27EE PUSH2 0x4755 JUMP JUMPDEST JUMPDEST PUSH1 0x20 MUL PUSH1 0x20 ADD ADD MLOAD PUSH1 0x40 ADD MLOAD DUP4 DUP3 DUP2 MLOAD DUP2 LT PUSH2 0x280E JUMPI PUSH2 0x280D PUSH2 0x4755 JUMP JUMPDEST JUMPDEST PUSH1 0x20 MUL PUSH1 0x20 ADD ADD DUP2 SWAP1 MSTORE POP DUP6 DUP2 DUP2 MLOAD DUP2 LT PUSH2 0x282C JUMPI PUSH2 0x282B PUSH2 0x4755 JUMP JUMPDEST JUMPDEST PUSH1 0x20 MUL PUSH1 0x20 ADD ADD MLOAD PUSH1 0x60 ADD MLOAD DUP3 DUP3 DUP2 MLOAD DUP2 LT PUSH2 0x284B JUMPI PUSH2 0x284A PUSH2 0x4755 JUMP JUMPDEST JUMPDEST PUSH1 0x20 MUL PUSH1 0x20 ADD ADD DUP2 SWAP1 MSTORE POP JUMPDEST DUP1 DUP1 PUSH2 0x2862 SWAP1 PUSH2 0x4256 JUMP JUMPDEST SWAP2 POP POP PUSH2 0x270E JUMP JUMPDEST POP PUSH32 0xF8BE3BECFCEDDAB2D6D90E42623D2779957D2177254CB3EE5FE6A9297233C8C2 DUP5 DUP5 DUP5 DUP5 PUSH1 0x40 MLOAD PUSH2 0x28A0 SWAP5 SWAP4 SWAP3 SWAP2 SWAP1 PUSH2 0x4D7B JUMP JUMPDEST PUSH1 0x40 MLOAD DUP1 SWAP2 SUB SWAP1 LOG1 POP POP POP POP POP POP POP POP JUMP JUMPDEST PUSH1 0x0 PUSH1 0x9 PUSH1 0x0 CALLER PUSH20 0xFFFFFFFFFFFFFFFFFFFFFFFFFFFFFFFFFFFFFFFF AND PUSH20 0xFFFFFFFFFFFFFFFFFFFFFFFFFFFFFFFFFFFFFFFF AND DUP2 MSTORE PUSH1 0x20 ADD SWAP1 DUP2 MSTORE PUSH1 0x20 ADD PUSH1 0x0 KECCAK256 SLOAD SUB PUSH2 0x2934 JUMPI PUSH1 0x40 MLOAD PUSH32 0x8C379A000000000000000000000000000000000000000000000000000000000 DUP2 MSTORE PUSH1 0x4 ADD PUSH2 0x292B SWAP1 PUSH2 0x4E28 JUMP JUMPDEST PUSH1 0x40 MLOAD DUP1 SWAP2 SUB SWAP1 REVERT JUMPDEST PUSH1 0x0 DUP3 EQ PUSH2 0x2CA9 JUMPI PUSH1 0x0 DUP1 PUSH1 0x8 PUSH1 0x0 DUP7 DUP2 MSTORE PUSH1 0x20 ADD SWAP1 DUP2 MSTORE PUSH1 0x20 ADD PUSH1 0x0 KECCAK256 PUSH1 0x6 ADD DUP1 SLOAD DUP1 PUSH1 0x20 MUL PUSH1 0x20 ADD PUSH1 0x40 MLOAD SWAP1 DUP2 ADD PUSH1 0x40 MSTORE DUP1 SWAP3 SWAP2 SWAP1 DUP2 DUP2 MSTORE PUSH1 0x20 ADD PUSH1 0x0 SWAP1 JUMPDEST DUP3 DUP3 LT ISZERO PUSH2 0x2B24 JUMPI DUP4 DUP3 SWAP1 PUSH1 0x0 MSTORE PUSH1 0x20 PUSH1 0x0 KECCAK256 SWAP1 PUSH1 0x6 MUL ADD PUSH1 0x40 MLOAD DUP1 PUSH1 0xC0 ADD PUSH1 0x40 MSTORE SWAP1 DUP2 PUSH1 0x0 DUP3 ADD SLOAD DUP2 MSTORE PUSH1 0x20 ADD PUSH1 0x1 DUP3 ADD SLOAD DUP2 MSTORE PUSH1 0x20 ADD PUSH1 0x2 DUP3 ADD DUP1 SLOAD PUSH2 0x29BC SWAP1 PUSH2 0x42CD JUMP JUMPDEST DUP1 PUSH1 0x1F ADD PUSH1 0x20 DUP1 SWAP2 DIV MUL PUSH1 0x20 ADD PUSH1 0x40 MLOAD SWAP1 DUP2 ADD PUSH1 0x40 MSTORE DUP1 SWAP3 SWAP2 SWAP1 DUP2 DUP2 MSTORE PUSH1 0x20 ADD DUP3 DUP1 SLOAD PUSH2 0x29E8 SWAP1 PUSH2 0x42CD JUMP JUMPDEST DUP1 ISZERO PUSH2 0x2A35 JUMPI DUP1 PUSH1 0x1F LT PUSH2 0x2A0A JUMPI PUSH2 0x100 DUP1 DUP4 SLOAD DIV MUL DUP4 MSTORE SWAP2 PUSH1 0x20 ADD SWAP2 PUSH2 0x2A35 JUMP JUMPDEST DUP3 ADD SWAP2 SWAP1 PUSH1 0x0 MSTORE PUSH1 0x20 PUSH1 0x0 KECCAK256 SWAP1 JUMPDEST DUP2 SLOAD DUP2 MSTORE SWAP1 PUSH1 0x1 ADD SWAP1 PUSH1 0x20 ADD DUP1 DUP4 GT PUSH2 0x2A18 JUMPI DUP3 SWAP1 SUB PUSH1 0x1F AND DUP3 ADD SWAP2 JUMPDEST POP POP POP POP POP DUP2 MSTORE PUSH1 0x20 ADD PUSH1 0x3 DUP3 ADD DUP1 SLOAD PUSH2 0x2A4E SWAP1 PUSH2 0x42CD JUMP JUMPDEST DUP1 PUSH1 0x1F ADD PUSH1 0x20 DUP1 SWAP2 DIV MUL PUSH1 0x20 ADD PUSH1 0x40 MLOAD SWAP1 DUP2 ADD PUSH1 0x40 MSTORE DUP1 SWAP3 SWAP2 SWAP1 DUP2 DUP2 MSTORE PUSH1 0x20 ADD DUP3 DUP1 SLOAD PUSH2 0x2A7A SWAP1 PUSH2 0x42CD JUMP JUMPDEST DUP1 ISZERO PUSH2 0x2AC7 JUMPI DUP1 PUSH1 0x1F LT PUSH2 0x2A9C JUMPI PUSH2 0x100 DUP1 DUP4 SLOAD DIV MUL DUP4 MSTORE SWAP2 PUSH1 0x20 ADD SWAP2 PUSH2 0x2AC7 JUMP JUMPDEST DUP3 ADD SWAP2 SWAP1 PUSH1 0x0 MSTORE PUSH1 0x20 PUSH1 0x0 KECCAK256 SWAP1 JUMPDEST DUP2 SLOAD DUP2 MSTORE SWAP1 PUSH1 0x1 ADD SWAP1 PUSH1 0x20 ADD DUP1 DUP4 GT PUSH2 0x2AAA JUMPI DUP3 SWAP1 SUB PUSH1 0x1F AND DUP3 ADD SWAP2 JUMPDEST POP POP POP POP POP DUP2 MSTORE PUSH1 0x20 ADD PUSH1 0x4 DUP3 ADD PUSH1 0x0 SWAP1 SLOAD SWAP1 PUSH2 0x100 EXP SWAP1 DIV PUSH1 0xFF AND PUSH1 0x2 DUP2 GT ISZERO PUSH2 0x2AF5 JUMPI PUSH2 0x2AF4 PUSH2 0x3C76 JUMP JUMPDEST JUMPDEST PUSH1 0x2 DUP2 GT ISZERO PUSH2 0x2B07 JUMPI PUSH2 0x2B06 PUSH2 0x3C76 JUMP JUMPDEST JUMPDEST DUP2 MSTORE PUSH1 0x20 ADD PUSH1 0x5 DUP3 ADD SLOAD DUP2 MSTORE POP POP DUP2 MSTORE PUSH1 0x20 ADD SWAP1 PUSH1 0x1 ADD SWAP1 PUSH2 0x2975 JUMP JUMPDEST POP POP POP POP SWAP1 POP PUSH1 0x0 DUP2 MLOAD SWAP1 POP PUSH1 0x0 DUP1 JUMPDEST DUP3 DUP2 LT ISZERO PUSH2 0x2B7C JUMPI DUP7 DUP5 DUP3 DUP2 MLOAD DUP2 LT PUSH2 0x2B50 JUMPI PUSH2 0x2B4F PUSH2 0x4755 JUMP JUMPDEST JUMPDEST PUSH1 0x20 MUL PUSH1 0x20 ADD ADD MLOAD PUSH1 0x0 ADD MLOAD SUB PUSH2 0x2B69 JUMPI DUP1 SWAP5 POP PUSH1 0x1 SWAP2 POP JUMPDEST DUP1 DUP1 PUSH2 0x2B74 SWAP1 PUSH2 0x4256 JUMP JUMPDEST SWAP2 POP POP PUSH2 0x2B34 JUMP JUMPDEST POP PUSH1 0x1 ISZERO ISZERO DUP2 ISZERO ISZERO EQ PUSH2 0x2BC4 JUMPI PUSH1 0x40 MLOAD PUSH32 0x8C379A000000000000000000000000000000000000000000000000000000000 DUP2 MSTORE PUSH1 0x4 ADD PUSH2 0x2BBB SWAP1 PUSH2 0x47D0 JUMP JUMPDEST PUSH1 0x40 MLOAD DUP1 SWAP2 SUB SWAP1 REVERT JUMPDEST DUP1 ISZERO PUSH2 0x2CA4 JUMPI DUP5 PUSH1 0x8 PUSH1 0x0 DUP10 DUP2 MSTORE PUSH1 0x20 ADD SWAP1 DUP2 MSTORE PUSH1 0x20 ADD PUSH1 0x0 KECCAK256 PUSH1 0x6 ADD DUP6 DUP2 SLOAD DUP2 LT PUSH2 0x2BF3 JUMPI PUSH2 0x2BF2 PUSH2 0x4755 JUMP JUMPDEST JUMPDEST SWAP1 PUSH1 0x0 MSTORE PUSH1 0x20 PUSH1 0x0 KECCAK256 SWAP1 PUSH1 0x6 MUL ADD PUSH1 0x5 ADD DUP2 SWAP1 SSTORE POP PUSH1 0x0 PUSH1 0x8 PUSH1 0x0 DUP10 DUP2 MSTORE PUSH1 0x20 ADD SWAP1 DUP2 MSTORE PUSH1 0x20 ADD PUSH1 0x0 KECCAK256 PUSH1 0x6 ADD DUP6 DUP2 SLOAD DUP2 LT PUSH2 0x2C32 JUMPI PUSH2 0x2C31 PUSH2 0x4755 JUMP JUMPDEST JUMPDEST SWAP1 PUSH1 0x0 MSTORE PUSH1 0x20 PUSH1 0x0 KECCAK256 SWAP1 PUSH1 0x6 MUL ADD PUSH1 0x4 ADD PUSH1 0x0 PUSH2 0x100 EXP DUP2 SLOAD DUP2 PUSH1 0xFF MUL NOT AND SWAP1 DUP4 PUSH1 0x2 DUP2 GT ISZERO PUSH2 0x2C65 JUMPI PUSH2 0x2C64 PUSH2 0x3C76 JUMP JUMPDEST JUMPDEST MUL OR SWAP1 SSTORE POP PUSH32 0x90218A18786A98DC15E72EE082C065814F7820762CFD88F194694627E1B7E4C6 DUP7 DUP7 PUSH1 0x40 MLOAD PUSH2 0x2C9B SWAP3 SWAP2 SWAP1 PUSH2 0x45E8 JUMP JUMPDEST PUSH1 0x40 MLOAD DUP1 SWAP2 SUB SWAP1 LOG1 JUMPDEST POP POP POP POP JUMPDEST POP POP POP JUMP JUMPDEST PUSH1 0x0 DUP1 PUSH1 0x9 PUSH1 0x0 CALLER PUSH20 0xFFFFFFFFFFFFFFFFFFFFFFFFFFFFFFFFFFFFFFFF AND PUSH20 0xFFFFFFFFFFFFFFFFFFFFFFFFFFFFFFFFFFFFFFFF AND DUP2 MSTORE PUSH1 0x20 ADD SWAP1 DUP2 MSTORE PUSH1 0x20 ADD PUSH1 0x0 KECCAK256 SLOAD SUB PUSH2 0x2D31 JUMPI PUSH1 0x40 MLOAD PUSH32 0x8C379A000000000000000000000000000000000000000000000000000000000 DUP2 MSTORE PUSH1 0x4 ADD PUSH2 0x2D28 SWAP1 PUSH2 0x4E28 JUMP JUMPDEST PUSH1 0x40 MLOAD DUP1 SWAP2 SUB SWAP1 REVERT JUMPDEST PUSH1 0x2 PUSH1 0x0 DUP2 SLOAD DUP1 SWAP3 SWAP2 SWAP1 PUSH2 0x2D44 SWAP1 PUSH2 0x4256 JUMP JUMPDEST SWAP2 SWAP1 POP SSTORE POP PUSH1 0x0 PUSH1 0x3 PUSH1 0x0 PUSH1 0x2 SLOAD DUP2 MSTORE PUSH1 0x20 ADD SWAP1 DUP2 MSTORE PUSH1 0x20 ADD PUSH1 0x0 KECCAK256 SWAP1 POP DUP6 DUP2 PUSH1 0x0 ADD DUP2 SWAP1 SSTORE POP DUP5 DUP2 PUSH1 0x1 ADD DUP2 SWAP1 SSTORE POP DUP4 DUP2 PUSH1 0x2 ADD DUP2 SWAP1 SSTORE POP DUP3 DUP2 PUSH1 0x3 ADD DUP2 SWAP1 SSTORE POP PUSH1 0x2 SLOAD SWAP2 POP POP SWAP5 SWAP4 POP POP POP POP JUMP JUMPDEST PUSH1 0x0 PUSH1 0x1 PUSH1 0x0 DUP4 DUP2 MSTORE PUSH1 0x20 ADD SWAP1 DUP2 MSTORE PUSH1 0x20 ADD PUSH1 0x0 KECCAK256 PUSH1 0x1 ADD SLOAD SWAP1 POP SWAP2 SWAP1 POP JUMP JUMPDEST PUSH1 0x3 PUSH1 0x5 DUP2 GT ISZERO PUSH2 0x2DC8 JUMPI PUSH2 0x2DC7 PUSH2 0x3C76 JUMP JUMPDEST JUMPDEST PUSH1 0x1 PUSH1 0x0 DUP9 DUP2 MSTORE PUSH1 0x20 ADD SWAP1 DUP2 MSTORE PUSH1 0x20 ADD PUSH1 0x0 KECCAK256 PUSH1 0x6 ADD PUSH1 0x1 SWAP1 SLOAD SWAP1 PUSH2 0x100 EXP SWAP1 DIV PUSH1 0xFF AND PUSH1 0x5 DUP2 GT ISZERO PUSH2 0x2DFE JUMPI PUSH2 0x2DFD PUSH2 0x3C76 JUMP JUMPDEST JUMPDEST EQ PUSH2 0x2E3E JUMPI PUSH1 0x40 MLOAD PUSH32 0x8C379A000000000000000000000000000000000000000000000000000000000 DUP2 MSTORE PUSH1 0x4 ADD PUSH2 0x2E35 SWAP1 PUSH2 0x4EBA JUMP JUMPDEST PUSH1 0x40 MLOAD DUP1 SWAP2 SUB SWAP1 REVERT JUMPDEST TIMESTAMP PUSH3 0x76A700 PUSH1 0x64 PUSH1 0x1 PUSH1 0x0 DUP11 DUP2 MSTORE PUSH1 0x20 ADD SWAP1 DUP2 MSTORE PUSH1 0x20 ADD PUSH1 0x0 KECCAK256 PUSH1 0x7 ADD SLOAD PUSH2 0x2E66 SWAP2 SWAP1 PUSH2 0x4EDA JUMP JUMPDEST PUSH2 0x2E70 SWAP2 SWAP1 PUSH2 0x4893 JUMP JUMPDEST LT ISZERO PUSH2 0x2EB1 JUMPI PUSH1 0x40 MLOAD PUSH32 0x8C379A000000000000000000000000000000000000000000000000000000000 DUP2 MSTORE PUSH1 0x4 ADD PUSH2 0x2EA8 SWAP1 PUSH2 0x4F68 JUMP JUMPDEST PUSH1 0x40 MLOAD DUP1 SWAP2 SUB SWAP1 REVERT JUMPDEST DUP2 PUSH1 0x40 MLOAD PUSH1 0x20 ADD PUSH2 0x2EC2 SWAP2 SWAP1 PUSH2 0x4FC4 JUMP JUMPDEST PUSH1 0x40 MLOAD PUSH1 0x20 DUP2 DUP4 SUB SUB DUP2 MSTORE SWAP1 PUSH1 0x40 MSTORE DUP1 MLOAD SWAP1 PUSH1 0x20 ADD KECCAK256 PUSH1 0x5 PUSH1 0x0 SWAP1 SLOAD SWAP1 PUSH2 0x100 EXP SWAP1 DIV PUSH20 0xFFFFFFFFFFFFFFFFFFFFFFFFFFFFFFFFFFFFFFFF AND PUSH20 0xFFFFFFFFFFFFFFFFFFFFFFFFFFFFFFFFFFFFFFFF AND PUSH4 0x302E1AB1 DUP7 PUSH1 0x40 MLOAD DUP3 PUSH4 0xFFFFFFFF AND PUSH1 0xE0 SHL DUP2 MSTORE PUSH1 0x4 ADD PUSH2 0x2F33 SWAP2 SWAP1 PUSH2 0x37E6 JUMP JUMPDEST PUSH1 0x0 PUSH1 0x40 MLOAD DUP1 DUP4 SUB DUP2 DUP7 GAS STATICCALL ISZERO DUP1 ISZERO PUSH2 0x2F50 JUMPI RETURNDATASIZE PUSH1 0x0 DUP1 RETURNDATACOPY RETURNDATASIZE PUSH1 0x0 REVERT JUMPDEST POP POP POP POP PUSH1 0x40 MLOAD RETURNDATASIZE PUSH1 0x0 DUP3 RETURNDATACOPY RETURNDATASIZE PUSH1 0x1F NOT PUSH1 0x1F DUP3 ADD AND DUP3 ADD DUP1 PUSH1 0x40 MSTORE POP DUP2 ADD SWAP1 PUSH2 0x2F79 SWAP2 SWAP1 PUSH2 0x504B JUMP JUMPDEST PUSH1 0x40 MLOAD PUSH1 0x20 ADD PUSH2 0x2F89 SWAP2 SWAP1 PUSH2 0x4FC4 JUMP JUMPDEST PUSH1 0x40 MLOAD PUSH1 0x20 DUP2 DUP4 SUB SUB DUP2 MSTORE SWAP1 PUSH1 0x40 MSTORE DUP1 MLOAD SWAP1 PUSH1 0x20 ADD KECCAK256 EQ DUP1 ISZERO PUSH2 0x3097 JUMPI POP DUP1 PUSH1 0x40 MLOAD PUSH1 0x20 ADD PUSH2 0x2FB8 SWAP2 SWAP1 PUSH2 0x4FC4 JUMP JUMPDEST PUSH1 0x40 MLOAD PUSH1 0x20 DUP2 DUP4 SUB SUB DUP2 MSTORE SWAP1 PUSH1 0x40 MSTORE DUP1 MLOAD SWAP1 PUSH1 0x20 ADD KECCAK256 PUSH1 0x5 PUSH1 0x0 SWAP1 SLOAD SWAP1 PUSH2 0x100 EXP SWAP1 DIV PUSH20 0xFFFFFFFFFFFFFFFFFFFFFFFFFFFFFFFFFFFFFFFF AND PUSH20 0xFFFFFFFFFFFFFFFFFFFFFFFFFFFFFFFFFFFFFFFF AND PUSH4 0xCAAFC4FB DUP7 PUSH1 0x40 MLOAD DUP3 PUSH4 0xFFFFFFFF AND PUSH1 0xE0 SHL DUP2 MSTORE PUSH1 0x4 ADD PUSH2 0x3029 SWAP2 SWAP1 PUSH2 0x37E6 JUMP JUMPDEST PUSH1 0x0 PUSH1 0x40 MLOAD DUP1 DUP4 SUB DUP2 DUP7 GAS STATICCALL ISZERO DUP1 ISZERO PUSH2 0x3046 JUMPI RETURNDATASIZE PUSH1 0x0 DUP1 RETURNDATACOPY RETURNDATASIZE PUSH1 0x0 REVERT JUMPDEST POP POP POP POP PUSH1 0x40 MLOAD RETURNDATASIZE PUSH1 0x0 DUP3 RETURNDATACOPY RETURNDATASIZE PUSH1 0x1F NOT PUSH1 0x1F DUP3 ADD AND DUP3 ADD DUP1 PUSH1 0x40 MSTORE POP DUP2 ADD SWAP1 PUSH2 0x306F SWAP2 SWAP1 PUSH2 0x504B JUMP JUMPDEST PUSH1 0x40 MLOAD PUSH1 0x20 ADD PUSH2 0x307F SWAP2 SWAP1 PUSH2 0x4FC4 JUMP JUMPDEST PUSH1 0x40 MLOAD PUSH1 0x20 DUP2 DUP4 SUB SUB DUP2 MSTORE SWAP1 PUSH1 0x40 MSTORE DUP1 MLOAD SWAP1 PUSH1 0x20 ADD KECCAK256 EQ JUMPDEST PUSH2 0x30D6 JUMPI PUSH1 0x40 MLOAD PUSH32 0x8C379A000000000000000000000000000000000000000000000000000000000 DUP2 MSTORE PUSH1 0x4 ADD PUSH2 0x30CD SWAP1 PUSH2 0x5106 JUMP JUMPDEST PUSH1 0x40 MLOAD DUP1 SWAP2 SUB SWAP1 REVERT JUMPDEST PUSH1 0x2 DUP1 DUP2 GT ISZERO PUSH2 0x30E9 JUMPI PUSH2 0x30E8 PUSH2 0x3C76 JUMP JUMPDEST JUMPDEST PUSH1 0x5 PUSH1 0x0 SWAP1 SLOAD SWAP1 PUSH2 0x100 EXP SWAP1 DIV PUSH20 0xFFFFFFFFFFFFFFFFFFFFFFFFFFFFFFFFFFFFFFFF AND PUSH20 0xFFFFFFFFFFFFFFFFFFFFFFFFFFFFFFFFFFFFFFFF AND PUSH4 0xBAAAB57A DUP7 PUSH1 0x40 MLOAD DUP3 PUSH4 0xFFFFFFFF AND PUSH1 0xE0 SHL DUP2 MSTORE PUSH1 0x4 ADD PUSH2 0x3144 SWAP2 SWAP1 PUSH2 0x37E6 JUMP JUMPDEST PUSH1 0x20 PUSH1 0x40 MLOAD DUP1 DUP4 SUB DUP2 DUP7 GAS STATICCALL ISZERO DUP1 ISZERO PUSH2 0x3161 JUMPI RETURNDATASIZE PUSH1 0x0 DUP1 RETURNDATACOPY RETURNDATASIZE PUSH1 0x0 REVERT JUMPDEST POP POP POP POP PUSH1 0x40 MLOAD RETURNDATASIZE PUSH1 0x1F NOT PUSH1 0x1F DUP3 ADD AND DUP3 ADD DUP1 PUSH1 0x40 MSTORE POP DUP2 ADD SWAP1 PUSH2 0x3185 SWAP2 SWAP1 PUSH2 0x514B JUMP JUMPDEST PUSH1 0x2 DUP2 GT ISZERO PUSH2 0x3197 JUMPI PUSH2 0x3196 PUSH2 0x3C76 JUMP JUMPDEST JUMPDEST SUB PUSH2 0x3211 JUMPI TIMESTAMP PUSH4 0x3C26700 PUSH1 0x64 PUSH1 0x1 PUSH1 0x0 DUP11 DUP2 MSTORE PUSH1 0x20 ADD SWAP1 DUP2 MSTORE PUSH1 0x20 ADD PUSH1 0x0 KECCAK256 PUSH1 0x7 ADD SLOAD PUSH2 0x31C5 SWAP2 SWAP1 PUSH2 0x4EDA JUMP JUMPDEST PUSH2 0x31CF SWAP2 SWAP1 PUSH2 0x4893 JUMP JUMPDEST LT ISZERO PUSH2 0x3210 JUMPI PUSH1 0x40 MLOAD PUSH32 0x8C379A000000000000000000000000000000000000000000000000000000000 DUP2 MSTORE PUSH1 0x4 ADD PUSH2 0x3207 SWAP1 PUSH2 0x51EA JUMP JUMPDEST PUSH1 0x40 MLOAD DUP1 SWAP2 SUB SWAP1 REVERT JUMPDEST JUMPDEST PUSH1 0x0 PUSH1 0x1 PUSH1 0x0 DUP9 DUP2 MSTORE PUSH1 0x20 ADD SWAP1 DUP2 MSTORE PUSH1 0x20 ADD PUSH1 0x0 KECCAK256 PUSH1 0x4 ADD SLOAD SWAP1 POP PUSH1 0x0 PUSH1 0x8 PUSH1 0x0 DUP9 DUP2 MSTORE PUSH1 0x20 ADD SWAP1 DUP2 MSTORE PUSH1 0x20 ADD PUSH1 0x0 KECCAK256 SWAP1 POP PUSH1 0x0 DUP2 PUSH1 0x3 ADD PUSH1 0x0 SWAP1 SLOAD SWAP1 PUSH2 0x100 EXP SWAP1 DIV PUSH20 0xFFFFFFFFFFFFFFFFFFFFFFFFFFFFFFFFFFFFFFFF AND SWAP1 POP DUP3 PUSH1 0x4 PUSH1 0x0 SWAP1 SLOAD SWAP1 PUSH2 0x100 EXP SWAP1 DIV PUSH20 0xFFFFFFFFFFFFFFFFFFFFFFFFFFFFFFFFFFFFFFFF AND PUSH20 0xFFFFFFFFFFFFFFFFFFFFFFFFFFFFFFFFFFFFFFFF AND PUSH4 0xB9B7650A DUP4 PUSH1 0x40 MLOAD DUP3 PUSH4 0xFFFFFFFF AND PUSH1 0xE0 SHL DUP2 MSTORE PUSH1 0x4 ADD PUSH2 0x32C8 SWAP2 SWAP1 PUSH2 0x4113 JUMP JUMPDEST PUSH1 0x20 PUSH1 0x40 MLOAD DUP1 DUP4 SUB DUP2 DUP7 GAS STATICCALL ISZERO DUP1 ISZERO PUSH2 0x32E5 JUMPI RETURNDATASIZE PUSH1 0x0 DUP1 RETURNDATACOPY RETURNDATASIZE PUSH1 0x0 REVERT JUMPDEST POP POP POP POP PUSH1 0x40 MLOAD RETURNDATASIZE PUSH1 0x1F NOT PUSH1 0x1F DUP3 ADD AND DUP3 ADD DUP1 PUSH1 0x40 MSTORE POP DUP2 ADD SWAP1 PUSH2 0x3309 SWAP2 SWAP1 PUSH2 0x4997 JUMP JUMPDEST LT ISZERO PUSH2 0x334A JUMPI PUSH1 0x40 MLOAD PUSH32 0x8C379A000000000000000000000000000000000000000000000000000000000 DUP2 MSTORE PUSH1 0x4 ADD PUSH2 0x3341 SWAP1 PUSH2 0x5256 JUMP JUMPDEST PUSH1 0x40 MLOAD DUP1 SWAP2 SUB SWAP1 REVERT JUMPDEST PUSH1 0x4 PUSH1 0x0 SWAP1 SLOAD SWAP1 PUSH2 0x100 EXP SWAP1 DIV PUSH20 0xFFFFFFFFFFFFFFFFFFFFFFFFFFFFFFFFFFFFFFFF AND PUSH20 0xFFFFFFFFFFFFFFFFFFFFFFFFFFFFFFFFFFFFFFFF AND PUSH4 0x3456EA30 DUP3 DUP9 DUP7 PUSH1 0x40 MLOAD DUP5 PUSH4 0xFFFFFFFF AND PUSH1 0xE0 SHL DUP2 MSTORE PUSH1 0x4 ADD PUSH2 0x33A9 SWAP4 SWAP3 SWAP2 SWAP1 PUSH2 0x485C JUMP JUMPDEST PUSH1 0x0 PUSH1 0x40 MLOAD DUP1 DUP4 SUB DUP2 PUSH1 0x0 DUP8 DUP1 EXTCODESIZE ISZERO DUP1 ISZERO PUSH2 0x33C3 JUMPI PUSH1 0x0 DUP1 REVERT JUMPDEST POP GAS CALL ISZERO DUP1 ISZERO PUSH2 0x33D7 JUMPI RETURNDATASIZE PUSH1 0x0 DUP1 RETURNDATACOPY RETURNDATASIZE PUSH1 0x0 REVERT JUMPDEST POP POP POP POP PUSH1 0x4 PUSH1 0x1 PUSH1 0x0 DUP12 DUP2 MSTORE PUSH1 0x20 ADD SWAP1 DUP2 MSTORE PUSH1 0x20 ADD PUSH1 0x0 KECCAK256 PUSH1 0x6 ADD PUSH1 0x1 PUSH2 0x100 EXP DUP2 SLOAD DUP2 PUSH1 0xFF MUL NOT AND SWAP1 DUP4 PUSH1 0x5 DUP2 GT ISZERO PUSH2 0x3415 JUMPI PUSH2 0x3414 PUSH2 0x3C76 JUMP JUMPDEST JUMPDEST MUL OR SWAP1 SSTORE POP PUSH32 0xA9059CBB2AB09EB219583F4A59A5D0623ADE346D962BCD4E46B11DA047C9049B DUP7 DUP5 PUSH1 0x40 MLOAD PUSH2 0x344B SWAP3 SWAP2 SWAP1 PUSH2 0x5276 JUMP JUMPDEST PUSH1 0x40 MLOAD DUP1 SWAP2 SUB SWAP1 LOG1 POP POP POP POP POP POP POP POP POP JUMP JUMPDEST DUP1 PUSH1 0x7 SLOAD DUP2 GT ISZERO DUP1 ISZERO PUSH2 0x3472 JUMPI POP PUSH1 0x0 DUP2 EQ ISZERO JUMPDEST PUSH2 0x34B1 JUMPI PUSH1 0x40 MLOAD PUSH32 0x8C379A000000000000000000000000000000000000000000000000000000000 DUP2 MSTORE PUSH1 0x4 ADD PUSH2 0x34A8 SWAP1 PUSH2 0x465D JUMP JUMPDEST PUSH1 0x40 MLOAD DUP1 SWAP2 SUB SWAP1 REVERT JUMPDEST PUSH1 0x0 PUSH1 0x8 PUSH1 0x0 DUP5 DUP2 MSTORE PUSH1 0x20 ADD SWAP1 DUP2 MSTORE PUSH1 0x20 ADD PUSH1 0x0 KECCAK256 SWAP1 POP PUSH1 0x0 DUP2 PUSH1 0x4 ADD SLOAD SWAP1 POP PUSH1 0x32 DUP2 LT ISZERO DUP1 ISZERO PUSH2 0x34E3 JUMPI POP PUSH1 0xC8 DUP2 GT ISZERO JUMPDEST ISZERO PUSH2 0x34F7 JUMPI PUSH1 0x1 DUP3 PUSH1 0x1 ADD DUP2 SWAP1 SSTORE POP PUSH2 0x35AD JUMP JUMPDEST PUSH1 0xC8 DUP2 GT DUP1 ISZERO PUSH2 0x3509 JUMPI POP PUSH2 0x15E DUP2 GT ISZERO JUMPDEST ISZERO PUSH2 0x351D JUMPI PUSH1 0x2 DUP3 PUSH1 0x1 ADD DUP2 SWAP1 SSTORE POP PUSH2 0x35AC JUMP JUMPDEST PUSH2 0x15E DUP2 GT DUP1 ISZERO PUSH2 0x3530 JUMPI POP PUSH2 0x1C2 DUP2 GT ISZERO JUMPDEST ISZERO PUSH2 0x3544 JUMPI PUSH1 0x3 DUP3 PUSH1 0x1 ADD DUP2 SWAP1 SSTORE POP PUSH2 0x35AB JUMP JUMPDEST PUSH2 0x1C2 DUP2 GT DUP1 ISZERO PUSH2 0x3557 JUMPI POP PUSH2 0x320 DUP2 GT ISZERO JUMPDEST ISZERO PUSH2 0x356B JUMPI PUSH1 0x4 DUP3 PUSH1 0x1 ADD DUP2 SWAP1 SSTORE POP PUSH2 0x35AA JUMP JUMPDEST PUSH2 0x320 DUP2 GT DUP1 ISZERO PUSH2 0x357E JUMPI POP PUSH2 0x7D0 DUP2 GT ISZERO JUMPDEST ISZERO PUSH2 0x3592 JUMPI PUSH1 0x5 DUP3 PUSH1 0x1 ADD DUP2 SWAP1 SSTORE POP PUSH2 0x35A9 JUMP JUMPDEST PUSH2 0x7D0 DUP2 GT ISZERO PUSH2 0x35A8 JUMPI PUSH2 0x3E7 DUP3 PUSH1 0x1 ADD DUP2 SWAP1 SSTORE POP JUMPDEST JUMPDEST JUMPDEST JUMPDEST JUMPDEST JUMPDEST POP POP POP POP JUMP JUMPDEST PUSH1 0x40 MLOAD DUP1 PUSH2 0x140 ADD PUSH1 0x40 MSTORE DUP1 PUSH1 0x0 DUP2 MSTORE PUSH1 0x20 ADD PUSH1 0x0 DUP2 MSTORE PUSH1 0x20 ADD PUSH1 0x0 DUP2 MSTORE PUSH1 0x20 ADD PUSH1 0x0 DUP2 MSTORE PUSH1 0x20 ADD PUSH1 0x0 DUP2 MSTORE PUSH1 0x20 ADD PUSH1 0x0 DUP2 MSTORE PUSH1 0x20 ADD PUSH1 0x0 PUSH1 0x1 DUP2 GT ISZERO PUSH2 0x35FD JUMPI PUSH2 0x35FC PUSH2 0x3C76 JUMP JUMPDEST JUMPDEST DUP2 MSTORE PUSH1 0x20 ADD PUSH1 0x0 PUSH1 0x5 DUP2 GT ISZERO PUSH2 0x3616 JUMPI PUSH2 0x3615 PUSH2 0x3C76 JUMP JUMPDEST JUMPDEST DUP2 MSTORE PUSH1 0x20 ADD PUSH1 0x0 DUP2 MSTORE PUSH1 0x20 ADD PUSH1 0x0 DUP2 MSTORE POP SWAP1 JUMP JUMPDEST PUSH1 0x0 PUSH1 0x40 MLOAD SWAP1 POP SWAP1 JUMP JUMPDEST PUSH1 0x0 DUP1 REVERT JUMPDEST PUSH1 0x0 DUP1 REVERT JUMPDEST PUSH1 0x0 DUP1 REVERT JUMPDEST PUSH1 0x0 DUP1 REVERT JUMPDEST PUSH1 0x0 PUSH1 0x1F NOT PUSH1 0x1F DUP4 ADD AND SWAP1 POP SWAP2 SWAP1 POP JUMP JUMPDEST PUSH32 0x4E487B7100000000000000000000000000000000000000000000000000000000 PUSH1 0x0 MSTORE PUSH1 0x41 PUSH1 0x4 MSTORE PUSH1 0x24 PUSH1 0x0 REVERT JUMPDEST PUSH2 0x3691 DUP3 PUSH2 0x3648 JUMP JUMPDEST DUP2 ADD DUP2 DUP2 LT PUSH8 0xFFFFFFFFFFFFFFFF DUP3 GT OR ISZERO PUSH2 0x36B0 JUMPI PUSH2 0x36AF PUSH2 0x3659 JUMP JUMPDEST JUMPDEST DUP1 PUSH1 0x40 MSTORE POP POP POP JUMP JUMPDEST PUSH1 0x0 PUSH2 0x36C3 PUSH2 0x362A JUMP JUMPDEST SWAP1 POP PUSH2 0x36CF DUP3 DUP3 PUSH2 0x3688 JUMP JUMPDEST SWAP2 SWAP1 POP JUMP JUMPDEST PUSH1 0x0 PUSH8 0xFFFFFFFFFFFFFFFF DUP3 GT ISZERO PUSH2 0x36EF JUMPI PUSH2 0x36EE PUSH2 0x3659 JUMP JUMPDEST JUMPDEST PUSH2 0x36F8 DUP3 PUSH2 0x3648 JUMP JUMPDEST SWAP1 POP PUSH1 0x20 DUP2 ADD SWAP1 POP SWAP2 SWAP1 POP JUMP JUMPDEST DUP3 DUP2 DUP4 CALLDATACOPY PUSH1 0x0 DUP4 DUP4 ADD MSTORE POP POP POP JUMP JUMPDEST PUSH1 0x0 PUSH2 0x3727 PUSH2 0x3722 DUP5 PUSH2 0x36D4 JUMP JUMPDEST PUSH2 0x36B9 JUMP JUMPDEST SWAP1 POP DUP3 DUP2 MSTORE PUSH1 0x20 DUP2 ADD DUP5 DUP5 DUP5 ADD GT ISZERO PUSH2 0x3743 JUMPI PUSH2 0x3742 PUSH2 0x3643 JUMP JUMPDEST JUMPDEST PUSH2 0x374E DUP5 DUP3 DUP6 PUSH2 0x3705 JUMP JUMPDEST POP SWAP4 SWAP3 POP POP POP JUMP JUMPDEST PUSH1 0x0 DUP3 PUSH1 0x1F DUP4 ADD SLT PUSH2 0x376B JUMPI PUSH2 0x376A PUSH2 0x363E JUMP JUMPDEST JUMPDEST DUP2 CALLDATALOAD PUSH2 0x377B DUP5 DUP3 PUSH1 0x20 DUP7 ADD PUSH2 0x3714 JUMP JUMPDEST SWAP2 POP POP SWAP3 SWAP2 POP POP JUMP JUMPDEST PUSH1 0x0 PUSH1 0x20 DUP3 DUP5 SUB SLT ISZERO PUSH2 0x379A JUMPI PUSH2 0x3799 PUSH2 0x3634 JUMP JUMPDEST JUMPDEST PUSH1 0x0 DUP3 ADD CALLDATALOAD PUSH8 0xFFFFFFFFFFFFFFFF DUP2 GT ISZERO PUSH2 0x37B8 JUMPI PUSH2 0x37B7 PUSH2 0x3639 JUMP JUMPDEST JUMPDEST PUSH2 0x37C4 DUP5 DUP3 DUP6 ADD PUSH2 0x3756 JUMP JUMPDEST SWAP2 POP POP SWAP3 SWAP2 POP POP JUMP JUMPDEST PUSH1 0x0 DUP2 SWAP1 POP SWAP2 SWAP1 POP JUMP JUMPDEST PUSH2 0x37E0 DUP2 PUSH2 0x37CD JUMP JUMPDEST DUP3 MSTORE POP POP JUMP JUMPDEST PUSH1 0x0 PUSH1 0x20 DUP3 ADD SWAP1 POP PUSH2 0x37FB PUSH1 0x0 DUP4 ADD DUP5 PUSH2 0x37D7 JUMP JUMPDEST SWAP3 SWAP2 POP POP JUMP JUMPDEST PUSH2 0x380A DUP2 PUSH2 0x37CD JUMP JUMPDEST DUP2 EQ PUSH2 0x3815 JUMPI PUSH1 0x0 DUP1 REVERT JUMPDEST POP JUMP JUMPDEST PUSH1 0x0 DUP2 CALLDATALOAD SWAP1 POP PUSH2 0x3827 DUP2 PUSH2 0x3801 JUMP JUMPDEST SWAP3 SWAP2 POP POP JUMP JUMPDEST PUSH1 0x0 PUSH1 0x20 DUP3 DUP5 SUB SLT ISZERO PUSH2 0x3843 JUMPI PUSH2 0x3842 PUSH2 0x3634 JUMP JUMPDEST JUMPDEST PUSH1 0x0 PUSH2 0x3851 DUP5 DUP3 DUP6 ADD PUSH2 0x3818 JUMP JUMPDEST SWAP2 POP POP SWAP3 SWAP2 POP POP JUMP JUMPDEST PUSH1 0x0 PUSH20 0xFFFFFFFFFFFFFFFFFFFFFFFFFFFFFFFFFFFFFFFF DUP3 AND SWAP1 POP SWAP2 SWAP1 POP JUMP JUMPDEST PUSH1 0x0 PUSH2 0x3885 DUP3 PUSH2 0x385A JUMP JUMPDEST SWAP1 POP SWAP2 SWAP1 POP JUMP JUMPDEST PUSH2 0x3895 DUP2 PUSH2 0x387A JUMP JUMPDEST DUP2 EQ PUSH2 0x38A0 JUMPI PUSH1 0x0 DUP1 REVERT JUMPDEST POP JUMP JUMPDEST PUSH1 0x0 DUP2 CALLDATALOAD SWAP1 POP PUSH2 0x38B2 DUP2 PUSH2 0x388C JUMP JUMPDEST SWAP3 SWAP2 POP POP JUMP JUMPDEST PUSH1 0x0 PUSH1 0x20 DUP3 DUP5 SUB SLT ISZERO PUSH2 0x38CE JUMPI PUSH2 0x38CD PUSH2 0x3634 JUMP JUMPDEST JUMPDEST PUSH1 0x0 PUSH2 0x38DC DUP5 DUP3 DUP6 ADD PUSH2 0x38A3 JUMP JUMPDEST SWAP2 POP POP SWAP3 SWAP2 POP POP JUMP JUMPDEST PUSH1 0x0 DUP1 PUSH1 0x40 DUP4 DUP6 SUB SLT ISZERO PUSH2 0x38FC JUMPI PUSH2 0x38FB PUSH2 0x3634 JUMP JUMPDEST JUMPDEST PUSH1 0x0 PUSH2 0x390A DUP6 DUP3 DUP7 ADD PUSH2 0x3818 JUMP JUMPDEST SWAP3 POP POP PUSH1 0x20 PUSH2 0x391B DUP6 DUP3 DUP7 ADD PUSH2 0x3818 JUMP JUMPDEST SWAP2 POP POP SWAP3 POP SWAP3 SWAP1 POP JUMP JUMPDEST PUSH1 0x0 DUP1 PUSH1 0x0 DUP1 PUSH1 0x80 DUP6 DUP8 SUB SLT ISZERO PUSH2 0x393F JUMPI PUSH2 0x393E PUSH2 0x3634 JUMP JUMPDEST JUMPDEST PUSH1 0x0 PUSH2 0x394D DUP8 DUP3 DUP9 ADD PUSH2 0x3818 JUMP JUMPDEST SWAP5 POP POP PUSH1 0x20 PUSH2 0x395E DUP8 DUP3 DUP9 ADD PUSH2 0x3818 JUMP JUMPDEST SWAP4 POP POP PUSH1 0x40 DUP6 ADD CALLDATALOAD PUSH8 0xFFFFFFFFFFFFFFFF DUP2 GT ISZERO PUSH2 0x397F JUMPI PUSH2 0x397E PUSH2 0x3639 JUMP JUMPDEST JUMPDEST PUSH2 0x398B DUP8 DUP3 DUP9 ADD PUSH2 0x3756 JUMP JUMPDEST SWAP3 POP POP PUSH1 0x60 DUP6 ADD CALLDATALOAD PUSH8 0xFFFFFFFFFFFFFFFF DUP2 GT ISZERO PUSH2 0x39AC JUMPI PUSH2 0x39AB PUSH2 0x3639 JUMP JUMPDEST JUMPDEST PUSH2 0x39B8 DUP8 DUP3 DUP9 ADD PUSH2 0x3756 JUMP JUMPDEST SWAP2 POP POP SWAP3 SWAP6 SWAP2 SWAP5 POP SWAP3 POP JUMP JUMPDEST PUSH1 0x0 DUP2 ISZERO ISZERO SWAP1 POP SWAP2 SWAP1 POP JUMP JUMPDEST PUSH2 0x39D9 DUP2 PUSH2 0x39C4 JUMP JUMPDEST DUP3 MSTORE POP POP JUMP JUMPDEST PUSH1 0x0 PUSH1 0x40 DUP3 ADD SWAP1 POP PUSH2 0x39F4 PUSH1 0x0 DUP4 ADD DUP6 PUSH2 0x39D0 JUMP JUMPDEST PUSH2 0x3A01 PUSH1 0x20 DUP4 ADD DUP5 PUSH2 0x37D7 JUMP JUMPDEST SWAP4 SWAP3 POP POP POP JUMP JUMPDEST PUSH1 0x0 DUP1 PUSH1 0x0 DUP1 PUSH1 0x0 DUP1 PUSH1 0x0 PUSH1 0xE0 DUP9 DUP11 SUB SLT ISZERO PUSH2 0x3A27 JUMPI PUSH2 0x3A26 PUSH2 0x3634 JUMP JUMPDEST JUMPDEST PUSH1 0x0 PUSH2 0x3A35 DUP11 DUP3 DUP12 ADD PUSH2 0x3818 JUMP JUMPDEST SWAP8 POP POP PUSH1 0x20 PUSH2 0x3A46 DUP11 DUP3 DUP12 ADD PUSH2 0x3818 JUMP JUMPDEST SWAP7 POP POP PUSH1 0x40 PUSH2 0x3A57 DUP11 DUP3 DUP12 ADD PUSH2 0x3818 JUMP JUMPDEST SWAP6 POP POP PUSH1 0x60 PUSH2 0x3A68 DUP11 DUP3 DUP12 ADD PUSH2 0x3818 JUMP JUMPDEST SWAP5 POP POP PUSH1 0x80 PUSH2 0x3A79 DUP11 DUP3 DUP12 ADD PUSH2 0x38A3 JUMP JUMPDEST SWAP4 POP POP PUSH1 0xA0 DUP9 ADD CALLDATALOAD PUSH8 0xFFFFFFFFFFFFFFFF DUP2 GT ISZERO PUSH2 0x3A9A JUMPI PUSH2 0x3A99 PUSH2 0x3639 JUMP JUMPDEST JUMPDEST PUSH2 0x3AA6 DUP11 DUP3 DUP12 ADD PUSH2 0x3756 JUMP JUMPDEST SWAP3 POP POP PUSH1 0xC0 DUP9 ADD CALLDATALOAD PUSH8 0xFFFFFFFFFFFFFFFF DUP2 GT ISZERO PUSH2 0x3AC7 JUMPI PUSH2 0x3AC6 PUSH2 0x3639 JUMP JUMPDEST JUMPDEST PUSH2 0x3AD3 DUP11 DUP3 DUP12 ADD PUSH2 0x3756 JUMP JUMPDEST SWAP2 POP POP SWAP3 SWAP6 SWAP9 SWAP2 SWAP5 SWAP8 POP SWAP3 SWAP6 POP JUMP JUMPDEST PUSH1 0x0 DUP2 MLOAD SWAP1 POP SWAP2 SWAP1 POP JUMP JUMPDEST PUSH1 0x0 DUP3 DUP3 MSTORE PUSH1 0x20 DUP3 ADD SWAP1 POP SWAP3 SWAP2 POP POP JUMP JUMPDEST PUSH1 0x0 JUMPDEST DUP4 DUP2 LT ISZERO PUSH2 0x3B1C JUMPI DUP1 DUP3 ADD MLOAD DUP2 DUP5 ADD MSTORE PUSH1 0x20 DUP2 ADD SWAP1 POP PUSH2 0x3B01 JUMP JUMPDEST PUSH1 0x0 DUP5 DUP5 ADD MSTORE POP POP POP POP JUMP JUMPDEST PUSH1 0x0 PUSH2 0x3B33 DUP3 PUSH2 0x3AE2 JUMP JUMPDEST PUSH2 0x3B3D DUP2 DUP6 PUSH2 0x3AED JUMP JUMPDEST SWAP4 POP PUSH2 0x3B4D DUP2 DUP6 PUSH1 0x20 DUP7 ADD PUSH2 0x3AFE JUMP JUMPDEST PUSH2 0x3B56 DUP2 PUSH2 0x3648 JUMP JUMPDEST DUP5 ADD SWAP2 POP POP SWAP3 SWAP2 POP POP JUMP JUMPDEST PUSH2 0x3B6A DUP2 PUSH2 0x387A JUMP JUMPDEST DUP3 MSTORE POP POP JUMP JUMPDEST PUSH1 0x0 PUSH1 0xA0 DUP3 ADD SWAP1 POP PUSH2 0x3B85 PUSH1 0x0 DUP4 ADD DUP9 PUSH2 0x37D7 JUMP JUMPDEST PUSH2 0x3B92 PUSH1 0x20 DUP4 ADD DUP8 PUSH2 0x37D7 JUMP JUMPDEST DUP2 DUP2 SUB PUSH1 0x40 DUP4 ADD MSTORE PUSH2 0x3BA4 DUP2 DUP7 PUSH2 0x3B28 JUMP JUMPDEST SWAP1 POP PUSH2 0x3BB3 PUSH1 0x60 DUP4 ADD DUP6 PUSH2 0x3B61 JUMP JUMPDEST PUSH2 0x3BC0 PUSH1 0x80 DUP4 ADD DUP5 PUSH2 0x37D7 JUMP JUMPDEST SWAP7 SWAP6 POP POP POP POP POP POP JUMP JUMPDEST PUSH1 0x0 PUSH1 0x80 DUP3 ADD SWAP1 POP PUSH2 0x3BDF PUSH1 0x0 DUP4 ADD DUP8 PUSH2 0x37D7 JUMP JUMPDEST PUSH2 0x3BEC PUSH1 0x20 DUP4 ADD DUP7 PUSH2 0x37D7 JUMP JUMPDEST PUSH2 0x3BF9 PUSH1 0x40 DUP4 ADD DUP6 PUSH2 0x37D7 JUMP JUMPDEST PUSH2 0x3C06 PUSH1 0x60 DUP4 ADD DUP5 PUSH2 0x37D7 JUMP JUMPDEST SWAP6 SWAP5 POP POP POP POP POP JUMP JUMPDEST PUSH1 0x0 DUP1 PUSH1 0x0 DUP1 PUSH1 0x80 DUP6 DUP8 SUB SLT ISZERO PUSH2 0x3C29 JUMPI PUSH2 0x3C28 PUSH2 0x3634 JUMP JUMPDEST JUMPDEST PUSH1 0x0 PUSH2 0x3C37 DUP8 DUP3 DUP9 ADD PUSH2 0x3818 JUMP JUMPDEST SWAP5 POP POP PUSH1 0x20 PUSH2 0x3C48 DUP8 DUP3 DUP9 ADD PUSH2 0x3818 JUMP JUMPDEST SWAP4 POP POP PUSH1 0x40 PUSH2 0x3C59 DUP8 DUP3 DUP9 ADD PUSH2 0x3818 JUMP JUMPDEST SWAP3 POP POP PUSH1 0x60 PUSH2 0x3C6A DUP8 DUP3 DUP9 ADD PUSH2 0x38A3 JUMP JUMPDEST SWAP2 POP POP SWAP3 SWAP6 SWAP2 SWAP5 POP SWAP3 POP JUMP JUMPDEST PUSH32 0x4E487B7100000000000000000000000000000000000000000000000000000000 PUSH1 0x0 MSTORE PUSH1 0x21 PUSH1 0x4 MSTORE PUSH1 0x24 PUSH1 0x0 REVERT JUMPDEST PUSH1 0x2 DUP2 LT PUSH2 0x3CB6 JUMPI PUSH2 0x3CB5 PUSH2 0x3C76 JUMP JUMPDEST JUMPDEST POP JUMP JUMPDEST PUSH1 0x0 DUP2 SWAP1 POP PUSH2 0x3CC7 DUP3 PUSH2 0x3CA5 JUMP JUMPDEST SWAP2 SWAP1 POP JUMP JUMPDEST PUSH1 0x0 PUSH2 0x3CD7 DUP3 PUSH2 0x3CB9 JUMP JUMPDEST SWAP1 POP SWAP2 SWAP1 POP JUMP JUMPDEST PUSH2 0x3CE7 DUP2 PUSH2 0x3CCC JUMP JUMPDEST DUP3 MSTORE POP POP JUMP JUMPDEST PUSH1 0x6 DUP2 LT PUSH2 0x3CFE JUMPI PUSH2 0x3CFD PUSH2 0x3C76 JUMP JUMPDEST JUMPDEST POP JUMP JUMPDEST PUSH1 0x0 DUP2 SWAP1 POP PUSH2 0x3D0F DUP3 PUSH2 0x3CED JUMP JUMPDEST SWAP2 SWAP1 POP JUMP JUMPDEST PUSH1 0x0 PUSH2 0x3D1F DUP3 PUSH2 0x3D01 JUMP JUMPDEST SWAP1 POP SWAP2 SWAP1 POP JUMP JUMPDEST PUSH2 0x3D2F DUP2 PUSH2 0x3D14 JUMP JUMPDEST DUP3 MSTORE POP POP JUMP JUMPDEST PUSH1 0x0 PUSH2 0x140 DUP3 ADD SWAP1 POP PUSH2 0x3D4B PUSH1 0x0 DUP4 ADD DUP14 PUSH2 0x37D7 JUMP JUMPDEST PUSH2 0x3D58 PUSH1 0x20 DUP4 ADD DUP13 PUSH2 0x37D7 JUMP JUMPDEST PUSH2 0x3D65 PUSH1 0x40 DUP4 ADD DUP12 PUSH2 0x37D7 JUMP JUMPDEST PUSH2 0x3D72 PUSH1 0x60 DUP4 ADD DUP11 PUSH2 0x37D7 JUMP JUMPDEST PUSH2 0x3D7F PUSH1 0x80 DUP4 ADD DUP10 PUSH2 0x37D7 JUMP JUMPDEST PUSH2 0x3D8C PUSH1 0xA0 DUP4 ADD DUP9 PUSH2 0x37D7 JUMP JUMPDEST PUSH2 0x3D99 PUSH1 0xC0 DUP4 ADD DUP8 PUSH2 0x3CDE JUMP JUMPDEST PUSH2 0x3DA6 PUSH1 0xE0 DUP4 ADD DUP7 PUSH2 0x3D26 JUMP JUMPDEST PUSH2 0x3DB4 PUSH2 0x100 DUP4 ADD DUP6 PUSH2 0x37D7 JUMP JUMPDEST PUSH2 0x3DC2 PUSH2 0x120 DUP4 ADD DUP5 PUSH2 0x37D7 JUMP JUMPDEST SWAP12 SWAP11 POP POP POP POP POP POP POP POP POP POP POP JUMP JUMPDEST PUSH1 0x0 PUSH1 0x20 DUP3 ADD SWAP1 POP PUSH2 0x3DE6 PUSH1 0x0 DUP4 ADD DUP5 PUSH2 0x3D26 JUMP JUMPDEST SWAP3 SWAP2 POP POP JUMP JUMPDEST PUSH1 0x3 DUP2 LT PUSH2 0x3DFD JUMPI PUSH2 0x3DFC PUSH2 0x3C76 JUMP JUMPDEST JUMPDEST POP JUMP JUMPDEST PUSH1 0x0 DUP2 SWAP1 POP PUSH2 0x3E0E DUP3 PUSH2 0x3DEC JUMP JUMPDEST SWAP2 SWAP1 POP JUMP JUMPDEST PUSH1 0x0 PUSH2 0x3E1E DUP3 PUSH2 0x3E00 JUMP JUMPDEST SWAP1 POP SWAP2 SWAP1 POP JUMP JUMPDEST PUSH2 0x3E2E DUP2 PUSH2 0x3E13 JUMP JUMPDEST DUP3 MSTORE POP POP JUMP JUMPDEST PUSH1 0x0 PUSH1 0x40 DUP3 ADD SWAP1 POP PUSH2 0x3E49 PUSH1 0x0 DUP4 ADD DUP6 PUSH2 0x3E25 JUMP JUMPDEST PUSH2 0x3E56 PUSH1 0x20 DUP4 ADD DUP5 PUSH2 0x37D7 JUMP JUMPDEST SWAP4 SWAP3 POP POP POP JUMP JUMPDEST PUSH1 0x0 PUSH1 0x20 DUP3 ADD SWAP1 POP DUP2 DUP2 SUB PUSH1 0x0 DUP4 ADD MSTORE PUSH2 0x3E77 DUP2 DUP5 PUSH2 0x3B28 JUMP JUMPDEST SWAP1 POP SWAP3 SWAP2 POP POP JUMP JUMPDEST PUSH2 0x3E88 DUP2 PUSH2 0x37CD JUMP JUMPDEST DUP3 MSTORE POP POP JUMP JUMPDEST PUSH2 0x3E97 DUP2 PUSH2 0x3CCC JUMP JUMPDEST DUP3 MSTORE POP POP JUMP JUMPDEST PUSH2 0x3EA6 DUP2 PUSH2 0x3D14 JUMP JUMPDEST DUP3 MSTORE POP POP JUMP JUMPDEST PUSH2 0x140 DUP3 ADD PUSH1 0x0 DUP3 ADD MLOAD PUSH2 0x3EC3 PUSH1 0x0 DUP6 ADD DUP3 PUSH2 0x3E7F JUMP JUMPDEST POP PUSH1 0x20 DUP3 ADD MLOAD PUSH2 0x3ED6 PUSH1 0x20 DUP6 ADD DUP3 PUSH2 0x3E7F JUMP JUMPDEST POP PUSH1 0x40 DUP3 ADD MLOAD PUSH2 0x3EE9 PUSH1 0x40 DUP6 ADD DUP3 PUSH2 0x3E7F JUMP JUMPDEST POP PUSH1 0x60 DUP3 ADD MLOAD PUSH2 0x3EFC PUSH1 0x60 DUP6 ADD DUP3 PUSH2 0x3E7F JUMP JUMPDEST POP PUSH1 0x80 DUP3 ADD MLOAD PUSH2 0x3F0F PUSH1 0x80 DUP6 ADD DUP3 PUSH2 0x3E7F JUMP JUMPDEST POP PUSH1 0xA0 DUP3 ADD MLOAD PUSH2 0x3F22 PUSH1 0xA0 DUP6 ADD DUP3 PUSH2 0x3E7F JUMP JUMPDEST POP PUSH1 0xC0 DUP3 ADD MLOAD PUSH2 0x3F35 PUSH1 0xC0 DUP6 ADD DUP3 PUSH2 0x3E8E JUMP JUMPDEST POP PUSH1 0xE0 DUP3 ADD MLOAD PUSH2 0x3F48 PUSH1 0xE0 DUP6 ADD DUP3 PUSH2 0x3E9D JUMP JUMPDEST POP PUSH2 0x100 DUP3 ADD MLOAD PUSH2 0x3F5D PUSH2 0x100 DUP6 ADD DUP3 PUSH2 0x3E7F JUMP JUMPDEST POP PUSH2 0x120 DUP3 ADD MLOAD PUSH2 0x3F72 PUSH2 0x120 DUP6 ADD DUP3 PUSH2 0x3E7F JUMP JUMPDEST POP POP POP POP JUMP JUMPDEST PUSH1 0x0 PUSH2 0x140 DUP3 ADD SWAP1 POP PUSH2 0x3F8E PUSH1 0x0 DUP4 ADD DUP5 PUSH2 0x3EAC JUMP JUMPDEST SWAP3 SWAP2 POP POP JUMP JUMPDEST PUSH1 0x2 DUP2 LT PUSH2 0x3FA1 JUMPI PUSH1 0x0 DUP1 REVERT JUMPDEST POP JUMP JUMPDEST PUSH1 0x0 DUP2 CALLDATALOAD SWAP1 POP PUSH2 0x3FB3 DUP2 PUSH2 0x3F94 JUMP JUMPDEST SWAP3 SWAP2 POP POP JUMP JUMPDEST PUSH1 0x0 DUP1 PUSH1 0x0 DUP1 PUSH1 0x0 DUP1 PUSH1 0x0 PUSH1 0xE0 DUP9 DUP11 SUB SLT ISZERO PUSH2 0x3FD8 JUMPI PUSH2 0x3FD7 PUSH2 0x3634 JUMP JUMPDEST JUMPDEST PUSH1 0x0 PUSH2 0x3FE6 DUP11 DUP3 DUP12 ADD PUSH2 0x3818 JUMP JUMPDEST SWAP8 POP POP PUSH1 0x20 PUSH2 0x3FF7 DUP11 DUP3 DUP12 ADD PUSH2 0x3818 JUMP JUMPDEST SWAP7 POP POP PUSH1 0x40 PUSH2 0x4008 DUP11 DUP3 DUP12 ADD PUSH2 0x3818 JUMP JUMPDEST SWAP6 POP POP PUSH1 0x60 PUSH2 0x4019 DUP11 DUP3 DUP12 ADD PUSH2 0x3818 JUMP JUMPDEST SWAP5 POP POP PUSH1 0x80 PUSH2 0x402A DUP11 DUP3 DUP12 ADD PUSH2 0x3FA4 JUMP JUMPDEST SWAP4 POP POP PUSH1 0xA0 PUSH2 0x403B DUP11 DUP3 DUP12 ADD PUSH2 0x3818 JUMP JUMPDEST SWAP3 POP POP PUSH1 0xC0 PUSH2 0x404C DUP11 DUP3 DUP12 ADD PUSH2 0x3818 JUMP JUMPDEST SWAP2 POP POP SWAP3 SWAP6 SWAP9 SWAP2 SWAP5 SWAP8 POP SWAP3 SWAP6 POP JUMP JUMPDEST PUSH1 0x6 DUP2 LT PUSH2 0x4068 JUMPI PUSH1 0x0 DUP1 REVERT JUMPDEST POP JUMP JUMPDEST PUSH1 0x0 DUP2 CALLDATALOAD SWAP1 POP PUSH2 0x407A DUP2 PUSH2 0x405B JUMP JUMPDEST SWAP3 SWAP2 POP POP JUMP JUMPDEST PUSH1 0x0 DUP1 PUSH1 0x40 DUP4 DUP6 SUB SLT ISZERO PUSH2 0x4097 JUMPI PUSH2 0x4096 PUSH2 0x3634 JUMP JUMPDEST JUMPDEST PUSH1 0x0 PUSH2 0x40A5 DUP6 DUP3 DUP7 ADD PUSH2 0x406B JUMP JUMPDEST SWAP3 POP POP PUSH1 0x20 PUSH2 0x40B6 DUP6 DUP3 DUP7 ADD PUSH2 0x3818 JUMP JUMPDEST SWAP2 POP POP SWAP3 POP SWAP3 SWAP1 POP JUMP JUMPDEST PUSH1 0x0 DUP1 PUSH1 0x0 PUSH1 0x60 DUP5 DUP7 SUB SLT ISZERO PUSH2 0x40D9 JUMPI PUSH2 0x40D8 PUSH2 0x3634 JUMP JUMPDEST JUMPDEST PUSH1 0x0 PUSH2 0x40E7 DUP7 DUP3 DUP8 ADD PUSH2 0x3818 JUMP JUMPDEST SWAP4 POP POP PUSH1 0x20 PUSH2 0x40F8 DUP7 DUP3 DUP8 ADD PUSH2 0x3818 JUMP JUMPDEST SWAP3 POP POP PUSH1 0x40 PUSH2 0x4109 DUP7 DUP3 DUP8 ADD PUSH2 0x3818 JUMP JUMPDEST SWAP2 POP POP SWAP3 POP SWAP3 POP SWAP3 JUMP JUMPDEST PUSH1 0x0 PUSH1 0x20 DUP3 ADD SWAP1 POP PUSH2 0x4128 PUSH1 0x0 DUP4 ADD DUP5 PUSH2 0x3B61 JUMP JUMPDEST SWAP3 SWAP2 POP POP JUMP JUMPDEST PUSH1 0x0 DUP1 PUSH1 0x0 DUP1 PUSH1 0x80 DUP6 DUP8 SUB SLT ISZERO PUSH2 0x4148 JUMPI PUSH2 0x4147 PUSH2 0x3634 JUMP JUMPDEST JUMPDEST PUSH1 0x0 PUSH2 0x4156 DUP8 DUP3 DUP9 ADD PUSH2 0x3818 JUMP JUMPDEST SWAP5 POP POP PUSH1 0x20 PUSH2 0x4167 DUP8 DUP3 DUP9 ADD PUSH2 0x3818 JUMP JUMPDEST SWAP4 POP POP PUSH1 0x40 PUSH2 0x4178 DUP8 DUP3 DUP9 ADD PUSH2 0x3818 JUMP JUMPDEST SWAP3 POP POP PUSH1 0x60 PUSH2 0x4189 DUP8 DUP3 DUP9 ADD PUSH2 0x3818 JUMP JUMPDEST SWAP2 POP POP SWAP3 SWAP6 SWAP2 SWAP5 POP SWAP3 POP JUMP JUMPDEST PUSH32 0x6174206C6561737420302E303120455448206973206E656564656420746F2063 PUSH1 0x0 DUP3 ADD MSTORE PUSH32 0x7265617465206120636F6D70616E790000000000000000000000000000000000 PUSH1 0x20 DUP3 ADD MSTORE POP JUMP JUMPDEST PUSH1 0x0 PUSH2 0x41F1 PUSH1 0x2F DUP4 PUSH2 0x3AED JUMP JUMPDEST SWAP2 POP PUSH2 0x41FC DUP3 PUSH2 0x4195 JUMP JUMPDEST PUSH1 0x40 DUP3 ADD SWAP1 POP SWAP2 SWAP1 POP JUMP JUMPDEST PUSH1 0x0 PUSH1 0x20 DUP3 ADD SWAP1 POP DUP2 DUP2 SUB PUSH1 0x0 DUP4 ADD MSTORE PUSH2 0x4220 DUP2 PUSH2 0x41E4 JUMP JUMPDEST SWAP1 POP SWAP2 SWAP1 POP JUMP JUMPDEST PUSH32 0x4E487B7100000000000000000000000000000000000000000000000000000000 PUSH1 0x0 MSTORE PUSH1 0x11 PUSH1 0x4 MSTORE PUSH1 0x24 PUSH1 0x0 REVERT JUMPDEST PUSH1 0x0 PUSH2 0x4261 DUP3 PUSH2 0x37CD JUMP JUMPDEST SWAP2 POP PUSH32 0xFFFFFFFFFFFFFFFFFFFFFFFFFFFFFFFFFFFFFFFFFFFFFFFFFFFFFFFFFFFFFFFF DUP3 SUB PUSH2 0x4293 JUMPI PUSH2 0x4292 PUSH2 0x4227 JUMP JUMPDEST JUMPDEST PUSH1 0x1 DUP3 ADD SWAP1 POP SWAP2 SWAP1 POP JUMP JUMPDEST PUSH32 0x4E487B7100000000000000000000000000000000000000000000000000000000 PUSH1 0x0 MSTORE PUSH1 0x22 PUSH1 0x4 MSTORE PUSH1 0x24 PUSH1 0x0 REVERT JUMPDEST PUSH1 0x0 PUSH1 0x2 DUP3 DIV SWAP1 POP PUSH1 0x1 DUP3 AND DUP1 PUSH2 0x42E5 JUMPI PUSH1 0x7F DUP3 AND SWAP2 POP JUMPDEST PUSH1 0x20 DUP3 LT DUP2 SUB PUSH2 0x42F8 JUMPI PUSH2 0x42F7 PUSH2 0x429E JUMP JUMPDEST JUMPDEST POP SWAP2 SWAP1 POP JUMP JUMPDEST PUSH1 0x0 DUP2 SWAP1 POP DUP2 PUSH1 0x0 MSTORE PUSH1 0x20 PUSH1 0x0 KECCAK256 SWAP1 POP SWAP2 SWAP1 POP JUMP JUMPDEST PUSH1 0x0 PUSH1 0x20 PUSH1 0x1F DUP4 ADD DIV SWAP1 POP SWAP2 SWAP1 POP JUMP JUMPDEST PUSH1 0x0 DUP3 DUP3 SHL SWAP1 POP SWAP3 SWAP2 POP POP JUMP JUMPDEST PUSH1 0x0 PUSH1 0x8 DUP4 MUL PUSH2 0x4360 PUSH32 0xFFFFFFFFFFFFFFFFFFFFFFFFFFFFFFFFFFFFFFFFFFFFFFFFFFFFFFFFFFFFFFFF DUP3 PUSH2 0x4323 JUMP JUMPDEST PUSH2 0x436A DUP7 DUP4 PUSH2 0x4323 JUMP JUMPDEST SWAP6 POP DUP1 NOT DUP5 AND SWAP4 POP DUP1 DUP7 AND DUP5 OR SWAP3 POP POP POP SWAP4 SWAP3 POP POP POP JUMP JUMPDEST PUSH1 0x0 DUP2 SWAP1 POP SWAP2 SWAP1 POP JUMP JUMPDEST PUSH1 0x0 PUSH2 0x43A7 PUSH2 0x43A2 PUSH2 0x439D DUP5 PUSH2 0x37CD JUMP JUMPDEST PUSH2 0x4382 JUMP JUMPDEST PUSH2 0x37CD JUMP JUMPDEST SWAP1 POP SWAP2 SWAP1 POP JUMP JUMPDEST PUSH1 0x0 DUP2 SWAP1 POP SWAP2 SWAP1 POP JUMP JUMPDEST PUSH2 0x43C1 DUP4 PUSH2 0x438C JUMP JUMPDEST PUSH2 0x43D5 PUSH2 0x43CD DUP3 PUSH2 0x43AE JUMP JUMPDEST DUP5 DUP5 SLOAD PUSH2 0x4330 JUMP JUMPDEST DUP3 SSTORE POP POP POP POP JUMP JUMPDEST PUSH1 0x0 SWAP1 JUMP JUMPDEST PUSH2 0x43EA PUSH2 0x43DD JUMP JUMPDEST PUSH2 0x43F5 DUP2 DUP5 DUP5 PUSH2 0x43B8 JUMP JUMPDEST POP POP POP JUMP JUMPDEST JUMPDEST DUP2 DUP2 LT ISZERO PUSH2 0x4419 JUMPI PUSH2 0x440E PUSH1 0x0 DUP3 PUSH2 0x43E2 JUMP JUMPDEST PUSH1 0x1 DUP2 ADD SWAP1 POP PUSH2 0x43FB JUMP JUMPDEST POP POP JUMP JUMPDEST PUSH1 0x1F DUP3 GT ISZERO PUSH2 0x445E JUMPI PUSH2 0x442F DUP2 PUSH2 0x42FE JUMP JUMPDEST PUSH2 0x4438 DUP5 PUSH2 0x4313 JUMP JUMPDEST DUP2 ADD PUSH1 0x20 DUP6 LT ISZERO PUSH2 0x4447 JUMPI DUP2 SWAP1 POP JUMPDEST PUSH2 0x445B PUSH2 0x4453 DUP6 PUSH2 0x4313 JUMP JUMPDEST DUP4 ADD DUP3 PUSH2 0x43FA JUMP JUMPDEST POP POP JUMPDEST POP POP POP JUMP JUMPDEST PUSH1 0x0 DUP3 DUP3 SHR SWAP1 POP SWAP3 SWAP2 POP POP JUMP JUMPDEST PUSH1 0x0 PUSH2 0x4481 PUSH1 0x0 NOT DUP5 PUSH1 0x8 MUL PUSH2 0x4463 JUMP JUMPDEST NOT DUP1 DUP4 AND SWAP2 POP POP SWAP3 SWAP2 POP POP JUMP JUMPDEST PUSH1 0x0 PUSH2 0x449A DUP4 DUP4 PUSH2 0x4470 JUMP JUMPDEST SWAP2 POP DUP3 PUSH1 0x2 MUL DUP3 OR SWAP1 POP SWAP3 SWAP2 POP POP JUMP JUMPDEST PUSH2 0x44B3 DUP3 PUSH2 0x3AE2 JUMP JUMPDEST PUSH8 0xFFFFFFFFFFFFFFFF DUP2 GT ISZERO PUSH2 0x44CC JUMPI PUSH2 0x44CB PUSH2 0x3659 JUMP JUMPDEST JUMPDEST PUSH2 0x44D6 DUP3 SLOAD PUSH2 0x42CD JUMP JUMPDEST PUSH2 0x44E1 DUP3 DUP3 DUP6 PUSH2 0x441D JUMP JUMPDEST PUSH1 0x0 PUSH1 0x20 SWAP1 POP PUSH1 0x1F DUP4 GT PUSH1 0x1 DUP2 EQ PUSH2 0x4514 JUMPI PUSH1 0x0 DUP5 ISZERO PUSH2 0x4502 JUMPI DUP3 DUP8 ADD MLOAD SWAP1 POP JUMPDEST PUSH2 0x450C DUP6 DUP3 PUSH2 0x448E JUMP JUMPDEST DUP7 SSTORE POP PUSH2 0x4574 JUMP JUMPDEST PUSH1 0x1F NOT DUP5 AND PUSH2 0x4522 DUP7 PUSH2 0x42FE JUMP JUMPDEST PUSH1 0x0 JUMPDEST DUP3 DUP2 LT ISZERO PUSH2 0x454A JUMPI DUP5 DUP10 ADD MLOAD DUP3 SSTORE PUSH1 0x1 DUP3 ADD SWAP2 POP PUSH1 0x20 DUP6 ADD SWAP5 POP PUSH1 0x20 DUP2 ADD SWAP1 POP PUSH2 0x4525 JUMP JUMPDEST DUP7 DUP4 LT ISZERO PUSH2 0x4567 JUMPI DUP5 DUP10 ADD MLOAD PUSH2 0x4563 PUSH1 0x1F DUP10 AND DUP3 PUSH2 0x4470 JUMP JUMPDEST DUP4 SSTORE POP JUMPDEST PUSH1 0x1 PUSH1 0x2 DUP9 MUL ADD DUP9 SSTORE POP POP POP JUMPDEST POP POP POP POP POP POP JUMP JUMPDEST PUSH32 0x496E76616C69642062656E656669636961727921000000000000000000000000 PUSH1 0x0 DUP3 ADD MSTORE POP JUMP JUMPDEST PUSH1 0x0 PUSH2 0x45B2 PUSH1 0x14 DUP4 PUSH2 0x3AED JUMP JUMPDEST SWAP2 POP PUSH2 0x45BD DUP3 PUSH2 0x457C JUMP JUMPDEST PUSH1 0x20 DUP3 ADD SWAP1 POP SWAP2 SWAP1 POP JUMP JUMPDEST PUSH1 0x0 PUSH1 0x20 DUP3 ADD SWAP1 POP DUP2 DUP2 SUB PUSH1 0x0 DUP4 ADD MSTORE PUSH2 0x45E1 DUP2 PUSH2 0x45A5 JUMP JUMPDEST SWAP1 POP SWAP2 SWAP1 POP JUMP JUMPDEST PUSH1 0x0 PUSH1 0x40 DUP3 ADD SWAP1 POP PUSH2 0x45FD PUSH1 0x0 DUP4 ADD DUP6 PUSH2 0x37D7 JUMP JUMPDEST PUSH2 0x460A PUSH1 0x20 DUP4 ADD DUP5 PUSH2 0x37D7 JUMP JUMPDEST SWAP4 SWAP3 POP POP POP JUMP JUMPDEST PUSH32 0x496E76616C696420636F6D70616E792069642100000000000000000000000000 PUSH1 0x0 DUP3 ADD MSTORE POP JUMP JUMPDEST PUSH1 0x0 PUSH2 0x4647 PUSH1 0x13 DUP4 PUSH2 0x3AED JUMP JUMPDEST SWAP2 POP PUSH2 0x4652 DUP3 PUSH2 0x4611 JUMP JUMPDEST PUSH1 0x20 DUP3 ADD SWAP1 POP SWAP2 SWAP1 POP JUMP JUMPDEST PUSH1 0x0 PUSH1 0x20 DUP3 ADD SWAP1 POP DUP2 DUP2 SUB PUSH1 0x0 DUP4 ADD MSTORE PUSH2 0x4676 DUP2 PUSH2 0x463A JUMP JUMPDEST SWAP1 POP SWAP2 SWAP1 POP JUMP JUMPDEST PUSH32 0x596F7520617265206E6F7420746865206F776E65722100000000000000000000 PUSH1 0x0 DUP3 ADD MSTORE POP JUMP JUMPDEST PUSH1 0x0 PUSH2 0x46B3 PUSH1 0x16 DUP4 PUSH2 0x3AED JUMP JUMPDEST SWAP2 POP PUSH2 0x46BE DUP3 PUSH2 0x467D JUMP JUMPDEST PUSH1 0x20 DUP3 ADD SWAP1 POP SWAP2 SWAP1 POP JUMP JUMPDEST PUSH1 0x0 PUSH1 0x20 DUP3 ADD SWAP1 POP DUP2 DUP2 SUB PUSH1 0x0 DUP4 ADD MSTORE PUSH2 0x46E2 DUP2 PUSH2 0x46A6 JUMP JUMPDEST SWAP1 POP SWAP2 SWAP1 POP JUMP JUMPDEST PUSH32 0x496E7075742076616C6964207265717565737449642100000000000000000000 PUSH1 0x0 DUP3 ADD MSTORE POP JUMP JUMPDEST PUSH1 0x0 PUSH2 0x471F PUSH1 0x16 DUP4 PUSH2 0x3AED JUMP JUMPDEST SWAP2 POP PUSH2 0x472A DUP3 PUSH2 0x46E9 JUMP JUMPDEST PUSH1 0x20 DUP3 ADD SWAP1 POP SWAP2 SWAP1 POP JUMP JUMPDEST PUSH1 0x0 PUSH1 0x20 DUP3 ADD SWAP1 POP DUP2 DUP2 SUB PUSH1 0x0 DUP4 ADD MSTORE PUSH2 0x474E DUP2 PUSH2 0x4712 JUMP JUMPDEST SWAP1 POP SWAP2 SWAP1 POP JUMP JUMPDEST PUSH32 0x4E487B7100000000000000000000000000000000000000000000000000000000 PUSH1 0x0 MSTORE PUSH1 0x32 PUSH1 0x4 MSTORE PUSH1 0x24 PUSH1 0x0 REVERT JUMPDEST PUSH32 0x496E76616C696420726571756573742069642100000000000000000000000000 PUSH1 0x0 DUP3 ADD MSTORE POP JUMP JUMPDEST PUSH1 0x0 PUSH2 0x47BA PUSH1 0x13 DUP4 PUSH2 0x3AED JUMP JUMPDEST SWAP2 POP PUSH2 0x47C5 DUP3 PUSH2 0x4784 JUMP JUMPDEST PUSH1 0x20 DUP3 ADD SWAP1 POP SWAP2 SWAP1 POP JUMP JUMPDEST PUSH1 0x0 PUSH1 0x20 DUP3 ADD SWAP1 POP DUP2 DUP2 SUB PUSH1 0x0 DUP4 ADD MSTORE PUSH2 0x47E9 DUP2 PUSH2 0x47AD JUMP JUMPDEST SWAP1 POP SWAP2 SWAP1 POP JUMP JUMPDEST PUSH32 0x496E76616C696420706F6C696379206F776E6572210000000000000000000000 PUSH1 0x0 DUP3 ADD MSTORE POP JUMP JUMPDEST PUSH1 0x0 PUSH2 0x4826 PUSH1 0x15 DUP4 PUSH2 0x3AED JUMP JUMPDEST SWAP2 POP PUSH2 0x4831 DUP3 PUSH2 0x47F0 JUMP JUMPDEST PUSH1 0x20 DUP3 ADD SWAP1 POP SWAP2 SWAP1 POP JUMP JUMPDEST PUSH1 0x0 PUSH1 0x20 DUP3 ADD SWAP1 POP DUP2 DUP2 SUB PUSH1 0x0 DUP4 ADD MSTORE PUSH2 0x4855 DUP2 PUSH2 0x4819 JUMP JUMPDEST SWAP1 POP SWAP2 SWAP1 POP JUMP JUMPDEST PUSH1 0x0 PUSH1 0x60 DUP3 ADD SWAP1 POP PUSH2 0x4871 PUSH1 0x0 DUP4 ADD DUP7 PUSH2 0x3B61 JUMP JUMPDEST PUSH2 0x487E PUSH1 0x20 DUP4 ADD DUP6 PUSH2 0x3B61 JUMP JUMPDEST PUSH2 0x488B PUSH1 0x40 DUP4 ADD DUP5 PUSH2 0x37D7 JUMP JUMPDEST SWAP5 SWAP4 POP POP POP POP JUMP JUMPDEST PUSH1 0x0 PUSH2 0x489E DUP3 PUSH2 0x37CD JUMP JUMPDEST SWAP2 POP PUSH2 0x48A9 DUP4 PUSH2 0x37CD JUMP JUMPDEST SWAP3 POP DUP3 DUP3 ADD SWAP1 POP DUP1 DUP3 GT ISZERO PUSH2 0x48C1 JUMPI PUSH2 0x48C0 PUSH2 0x4227 JUMP JUMPDEST JUMPDEST SWAP3 SWAP2 POP POP JUMP JUMPDEST PUSH1 0x0 PUSH2 0x48D2 DUP3 PUSH2 0x37CD JUMP JUMPDEST SWAP2 POP PUSH2 0x48DD DUP4 PUSH2 0x37CD JUMP JUMPDEST SWAP3 POP DUP3 DUP3 SUB SWAP1 POP DUP2 DUP2 GT ISZERO PUSH2 0x48F5 JUMPI PUSH2 0x48F4 PUSH2 0x4227 JUMP JUMPDEST JUMPDEST SWAP3 SWAP2 POP POP JUMP JUMPDEST PUSH32 0x596F7520686176656E2774207265717565737465642100000000000000000000 PUSH1 0x0 DUP3 ADD MSTORE POP JUMP JUMPDEST PUSH1 0x0 PUSH2 0x4931 PUSH1 0x16 DUP4 PUSH2 0x3AED JUMP JUMPDEST SWAP2 POP PUSH2 0x493C DUP3 PUSH2 0x48FB JUMP JUMPDEST PUSH1 0x20 DUP3 ADD SWAP1 POP SWAP2 SWAP1 POP JUMP JUMPDEST PUSH1 0x0 PUSH1 0x20 DUP3 ADD SWAP1 POP DUP2 DUP2 SUB PUSH1 0x0 DUP4 ADD MSTORE PUSH2 0x4960 DUP2 PUSH2 0x4924 JUMP JUMPDEST SWAP1 POP SWAP2 SWAP1 POP JUMP JUMPDEST PUSH1 0x0 PUSH1 0x20 DUP3 ADD SWAP1 POP PUSH2 0x497C PUSH1 0x0 DUP4 ADD DUP5 PUSH2 0x3E25 JUMP JUMPDEST SWAP3 SWAP2 POP POP JUMP JUMPDEST PUSH1 0x0 DUP2 MLOAD SWAP1 POP PUSH2 0x4991 DUP2 PUSH2 0x3801 JUMP JUMPDEST SWAP3 SWAP2 POP POP JUMP JUMPDEST PUSH1 0x0 PUSH1 0x20 DUP3 DUP5 SUB SLT ISZERO PUSH2 0x49AD JUMPI PUSH2 0x49AC PUSH2 0x3634 JUMP JUMPDEST JUMPDEST PUSH1 0x0 PUSH2 0x49BB DUP5 DUP3 DUP6 ADD PUSH2 0x4982 JUMP JUMPDEST SWAP2 POP POP SWAP3 SWAP2 POP POP JUMP JUMPDEST PUSH32 0x31205472757374496E73757265206973206E656564656420746F206372656174 PUSH1 0x0 DUP3 ADD MSTORE PUSH32 0x652061206E657720696E737572616E6365000000000000000000000000000000 PUSH1 0x20 DUP3 ADD MSTORE POP JUMP JUMPDEST PUSH1 0x0 PUSH2 0x4A20 PUSH1 0x31 DUP4 PUSH2 0x3AED JUMP JUMPDEST SWAP2 POP PUSH2 0x4A2B DUP3 PUSH2 0x49C4 JUMP JUMPDEST PUSH1 0x40 DUP3 ADD SWAP1 POP SWAP2 SWAP1 POP JUMP JUMPDEST PUSH1 0x0 PUSH1 0x20 DUP3 ADD SWAP1 POP DUP2 DUP2 SUB PUSH1 0x0 DUP4 ADD MSTORE PUSH2 0x4A4F DUP2 PUSH2 0x4A13 JUMP JUMPDEST SWAP1 POP SWAP2 SWAP1 POP JUMP JUMPDEST PUSH32 0x496E76616C696420697373756520646174652100000000000000000000000000 PUSH1 0x0 DUP3 ADD MSTORE POP JUMP JUMPDEST PUSH1 0x0 PUSH2 0x4A8C PUSH1 0x13 DUP4 PUSH2 0x3AED JUMP JUMPDEST SWAP2 POP PUSH2 0x4A97 DUP3 PUSH2 0x4A56 JUMP JUMPDEST PUSH1 0x20 DUP3 ADD SWAP1 POP SWAP2 SWAP1 POP JUMP JUMPDEST PUSH1 0x0 PUSH1 0x20 DUP3 ADD SWAP1 POP DUP2 DUP2 SUB PUSH1 0x0 DUP4 ADD MSTORE PUSH2 0x4ABB DUP2 PUSH2 0x4A7F JUMP JUMPDEST SWAP1 POP SWAP2 SWAP1 POP JUMP JUMPDEST PUSH32 0x496E76616C696420657870697279206461746521000000000000000000000000 PUSH1 0x0 DUP3 ADD MSTORE POP JUMP JUMPDEST PUSH1 0x0 PUSH2 0x4AF8 PUSH1 0x14 DUP4 PUSH2 0x3AED JUMP JUMPDEST SWAP2 POP PUSH2 0x4B03 DUP3 PUSH2 0x4AC2 JUMP JUMPDEST PUSH1 0x20 DUP3 ADD SWAP1 POP SWAP2 SWAP1 POP JUMP JUMPDEST PUSH1 0x0 PUSH1 0x20 DUP3 ADD SWAP1 POP DUP2 DUP2 SUB PUSH1 0x0 DUP4 ADD MSTORE PUSH2 0x4B27 DUP2 PUSH2 0x4AEB JUMP JUMPDEST SWAP1 POP SWAP2 SWAP1 POP JUMP JUMPDEST PUSH32 0x45787069727920646174652068617320616C7265616479206265656E20696E69 PUSH1 0x0 DUP3 ADD MSTORE PUSH32 0x7469616C69736564000000000000000000000000000000000000000000000000 PUSH1 0x20 DUP3 ADD MSTORE POP JUMP JUMPDEST PUSH1 0x0 PUSH2 0x4B8A PUSH1 0x28 DUP4 PUSH2 0x3AED JUMP JUMPDEST SWAP2 POP PUSH2 0x4B95 DUP3 PUSH2 0x4B2E JUMP JUMPDEST PUSH1 0x40 DUP3 ADD SWAP1 POP SWAP2 SWAP1 POP JUMP JUMPDEST PUSH1 0x0 PUSH1 0x20 DUP3 ADD SWAP1 POP DUP2 DUP2 SUB PUSH1 0x0 DUP4 ADD MSTORE PUSH2 0x4BB9 DUP2 PUSH2 0x4B7D JUMP JUMPDEST SWAP1 POP SWAP2 SWAP1 POP JUMP JUMPDEST PUSH1 0x0 DUP2 MLOAD SWAP1 POP SWAP2 SWAP1 POP JUMP JUMPDEST PUSH1 0x0 DUP3 DUP3 MSTORE PUSH1 0x20 DUP3 ADD SWAP1 POP SWAP3 SWAP2 POP POP JUMP JUMPDEST PUSH1 0x0 DUP2 SWAP1 POP PUSH1 0x20 DUP3 ADD SWAP1 POP SWAP2 SWAP1 POP JUMP JUMPDEST PUSH1 0x0 PUSH2 0x4BF8 DUP4 DUP4 PUSH2 0x3E7F JUMP JUMPDEST PUSH1 0x20 DUP4 ADD SWAP1 POP SWAP3 SWAP2 POP POP JUMP JUMPDEST PUSH1 0x0 PUSH1 0x20 DUP3 ADD SWAP1 POP SWAP2 SWAP1 POP JUMP JUMPDEST PUSH1 0x0 PUSH2 0x4C1C DUP3 PUSH2 0x4BC0 JUMP JUMPDEST PUSH2 0x4C26 DUP2 DUP6 PUSH2 0x4BCB JUMP JUMPDEST SWAP4 POP PUSH2 0x4C31 DUP4 PUSH2 0x4BDC JUMP JUMPDEST DUP1 PUSH1 0x0 JUMPDEST DUP4 DUP2 LT ISZERO PUSH2 0x4C62 JUMPI DUP2 MLOAD PUSH2 0x4C49 DUP9 DUP3 PUSH2 0x4BEC JUMP JUMPDEST SWAP8 POP PUSH2 0x4C54 DUP4 PUSH2 0x4C04 JUMP JUMPDEST SWAP3 POP POP PUSH1 0x1 DUP2 ADD SWAP1 POP PUSH2 0x4C35 JUMP JUMPDEST POP DUP6 SWAP4 POP POP POP POP SWAP3 SWAP2 POP POP JUMP JUMPDEST PUSH1 0x0 DUP2 MLOAD SWAP1 POP SWAP2 SWAP1 POP JUMP JUMPDEST PUSH1 0x0 DUP3 DUP3 MSTORE PUSH1 0x20 DUP3 ADD SWAP1 POP SWAP3 SWAP2 POP POP JUMP JUMPDEST PUSH1 0x0 DUP2 SWAP1 POP PUSH1 0x20 DUP3 ADD SWAP1 POP SWAP2 SWAP1 POP JUMP JUMPDEST PUSH1 0x0 DUP3 DUP3 MSTORE PUSH1 0x20 DUP3 ADD SWAP1 POP SWAP3 SWAP2 POP POP JUMP JUMPDEST PUSH1 0x0 PUSH2 0x4CB7 DUP3 PUSH2 0x3AE2 JUMP JUMPDEST PUSH2 0x4CC1 DUP2 DUP6 PUSH2 0x4C9B JUMP JUMPDEST SWAP4 POP PUSH2 0x4CD1 DUP2 DUP6 PUSH1 0x20 DUP7 ADD PUSH2 0x3AFE JUMP JUMPDEST PUSH2 0x4CDA DUP2 PUSH2 0x3648 JUMP JUMPDEST DUP5 ADD SWAP2 POP POP SWAP3 SWAP2 POP POP JUMP JUMPDEST PUSH1 0x0 PUSH2 0x4CF1 DUP4 DUP4 PUSH2 0x4CAC JUMP JUMPDEST SWAP1 POP SWAP3 SWAP2 POP POP JUMP JUMPDEST PUSH1 0x0 PUSH1 0x20 DUP3 ADD SWAP1 POP SWAP2 SWAP1 POP JUMP JUMPDEST PUSH1 0x0 PUSH2 0x4D11 DUP3 PUSH2 0x4C6F JUMP JUMPDEST PUSH2 0x4D1B DUP2 DUP6 PUSH2 0x4C7A JUMP JUMPDEST SWAP4 POP DUP4 PUSH1 0x20 DUP3 MUL DUP6 ADD PUSH2 0x4D2D DUP6 PUSH2 0x4C8B JUMP JUMPDEST DUP1 PUSH1 0x0 JUMPDEST DUP6 DUP2 LT ISZERO PUSH2 0x4D69 JUMPI DUP5 DUP5 SUB DUP10 MSTORE DUP2 MLOAD PUSH2 0x4D4A DUP6 DUP3 PUSH2 0x4CE5 JUMP JUMPDEST SWAP5 POP PUSH2 0x4D55 DUP4 PUSH2 0x4CF9 JUMP JUMPDEST SWAP3 POP PUSH1 0x20 DUP11 ADD SWAP10 POP POP PUSH1 0x1 DUP2 ADD SWAP1 POP PUSH2 0x4D31 JUMP JUMPDEST POP DUP3 SWAP8 POP DUP8 SWAP6 POP POP POP POP POP POP SWAP3 SWAP2 POP POP JUMP JUMPDEST PUSH1 0x0 PUSH1 0x80 DUP3 ADD SWAP1 POP DUP2 DUP2 SUB PUSH1 0x0 DUP4 ADD MSTORE PUSH2 0x4D95 DUP2 DUP8 PUSH2 0x4C11 JUMP JUMPDEST SWAP1 POP DUP2 DUP2 SUB PUSH1 0x20 DUP4 ADD MSTORE PUSH2 0x4DA9 DUP2 DUP7 PUSH2 0x4C11 JUMP JUMPDEST SWAP1 POP DUP2 DUP2 SUB PUSH1 0x40 DUP4 ADD MSTORE PUSH2 0x4DBD DUP2 DUP6 PUSH2 0x4D06 JUMP JUMPDEST SWAP1 POP DUP2 DUP2 SUB PUSH1 0x60 DUP4 ADD MSTORE PUSH2 0x4DD1 DUP2 DUP5 PUSH2 0x4D06 JUMP JUMPDEST SWAP1 POP SWAP6 SWAP5 POP POP POP POP POP JUMP JUMPDEST PUSH32 0x596F7520617265206E6F7420617574686F72697A656421000000000000000000 PUSH1 0x0 DUP3 ADD MSTORE POP JUMP JUMPDEST PUSH1 0x0 PUSH2 0x4E12 PUSH1 0x17 DUP4 PUSH2 0x3AED JUMP JUMPDEST SWAP2 POP PUSH2 0x4E1D DUP3 PUSH2 0x4DDC JUMP JUMPDEST PUSH1 0x20 DUP3 ADD SWAP1 POP SWAP2 SWAP1 POP JUMP JUMPDEST PUSH1 0x0 PUSH1 0x20 DUP3 ADD SWAP1 POP DUP2 DUP2 SUB PUSH1 0x0 DUP4 ADD MSTORE PUSH2 0x4E41 DUP2 PUSH2 0x4E05 JUMP JUMPDEST SWAP1 POP SWAP2 SWAP1 POP JUMP JUMPDEST PUSH32 0x5374616B65686F6C64657220686176656E277420706169642074686520696E73 PUSH1 0x0 DUP3 ADD MSTORE PUSH32 0x7572616E63652100000000000000000000000000000000000000000000000000 PUSH1 0x20 DUP3 ADD MSTORE POP JUMP JUMPDEST PUSH1 0x0 PUSH2 0x4EA4 PUSH1 0x27 DUP4 PUSH2 0x3AED JUMP JUMPDEST SWAP2 POP PUSH2 0x4EAF DUP3 PUSH2 0x4E48 JUMP JUMPDEST PUSH1 0x40 DUP3 ADD SWAP1 POP SWAP2 SWAP1 POP JUMP JUMPDEST PUSH1 0x0 PUSH1 0x20 DUP3 ADD SWAP1 POP DUP2 DUP2 SUB PUSH1 0x0 DUP4 ADD MSTORE PUSH2 0x4ED3 DUP2 PUSH2 0x4E97 JUMP JUMPDEST SWAP1 POP SWAP2 SWAP1 POP JUMP JUMPDEST PUSH1 0x0 PUSH2 0x4EE5 DUP3 PUSH2 0x37CD JUMP JUMPDEST SWAP2 POP PUSH2 0x4EF0 DUP4 PUSH2 0x37CD JUMP JUMPDEST SWAP3 POP DUP3 DUP3 MUL PUSH2 0x4EFE DUP2 PUSH2 0x37CD JUMP JUMPDEST SWAP2 POP DUP3 DUP3 DIV DUP5 EQ DUP4 ISZERO OR PUSH2 0x4F15 JUMPI PUSH2 0x4F14 PUSH2 0x4227 JUMP JUMPDEST JUMPDEST POP SWAP3 SWAP2 POP POP JUMP JUMPDEST PUSH32 0x486176656E27742074616B652065666665637421000000000000000000000000 PUSH1 0x0 DUP3 ADD MSTORE POP JUMP JUMPDEST PUSH1 0x0 PUSH2 0x4F52 PUSH1 0x14 DUP4 PUSH2 0x3AED JUMP JUMPDEST SWAP2 POP PUSH2 0x4F5D DUP3 PUSH2 0x4F1C JUMP JUMPDEST PUSH1 0x20 DUP3 ADD SWAP1 POP SWAP2 SWAP1 POP JUMP JUMPDEST PUSH1 0x0 PUSH1 0x20 DUP3 ADD SWAP1 POP DUP2 DUP2 SUB PUSH1 0x0 DUP4 ADD MSTORE PUSH2 0x4F81 DUP2 PUSH2 0x4F45 JUMP JUMPDEST SWAP1 POP SWAP2 SWAP1 POP JUMP JUMPDEST PUSH1 0x0 DUP2 SWAP1 POP SWAP3 SWAP2 POP POP JUMP JUMPDEST PUSH1 0x0 PUSH2 0x4F9E DUP3 PUSH2 0x3AE2 JUMP JUMPDEST PUSH2 0x4FA8 DUP2 DUP6 PUSH2 0x4F88 JUMP JUMPDEST SWAP4 POP PUSH2 0x4FB8 DUP2 DUP6 PUSH1 0x20 DUP7 ADD PUSH2 0x3AFE JUMP JUMPDEST DUP1 DUP5 ADD SWAP2 POP POP SWAP3 SWAP2 POP POP JUMP JUMPDEST PUSH1 0x0 PUSH2 0x4FD0 DUP3 DUP5 PUSH2 0x4F93 JUMP JUMPDEST SWAP2 POP DUP2 SWAP1 POP SWAP3 SWAP2 POP POP JUMP JUMPDEST PUSH1 0x0 PUSH2 0x4FEE PUSH2 0x4FE9 DUP5 PUSH2 0x36D4 JUMP JUMPDEST PUSH2 0x36B9 JUMP JUMPDEST SWAP1 POP DUP3 DUP2 MSTORE PUSH1 0x20 DUP2 ADD DUP5 DUP5 DUP5 ADD GT ISZERO PUSH2 0x500A JUMPI PUSH2 0x5009 PUSH2 0x3643 JUMP JUMPDEST JUMPDEST PUSH2 0x5015 DUP5 DUP3 DUP6 PUSH2 0x3AFE JUMP JUMPDEST POP SWAP4 SWAP3 POP POP POP JUMP JUMPDEST PUSH1 0x0 DUP3 PUSH1 0x1F DUP4 ADD SLT PUSH2 0x5032 JUMPI PUSH2 0x5031 PUSH2 0x363E JUMP JUMPDEST JUMPDEST DUP2 MLOAD PUSH2 0x5042 DUP5 DUP3 PUSH1 0x20 DUP7 ADD PUSH2 0x4FDB JUMP JUMPDEST SWAP2 POP POP SWAP3 SWAP2 POP POP JUMP JUMPDEST PUSH1 0x0 PUSH1 0x20 DUP3 DUP5 SUB SLT ISZERO PUSH2 0x5061 JUMPI PUSH2 0x5060 PUSH2 0x3634 JUMP JUMPDEST JUMPDEST PUSH1 0x0 DUP3 ADD MLOAD PUSH8 0xFFFFFFFFFFFFFFFF DUP2 GT ISZERO PUSH2 0x507F JUMPI PUSH2 0x507E PUSH2 0x3639 JUMP JUMPDEST JUMPDEST PUSH2 0x508B DUP5 DUP3 DUP6 ADD PUSH2 0x501D JUMP JUMPDEST SWAP2 POP POP SWAP3 SWAP2 POP POP JUMP JUMPDEST PUSH32 0x496E76616C6964206C6966652061737375726564206E616D6520616E64204E52 PUSH1 0x0 DUP3 ADD MSTORE PUSH32 0x4943210000000000000000000000000000000000000000000000000000000000 PUSH1 0x20 DUP3 ADD MSTORE POP JUMP JUMPDEST PUSH1 0x0 PUSH2 0x50F0 PUSH1 0x23 DUP4 PUSH2 0x3AED JUMP JUMPDEST SWAP2 POP PUSH2 0x50FB DUP3 PUSH2 0x5094 JUMP JUMPDEST PUSH1 0x40 DUP3 ADD SWAP1 POP SWAP2 SWAP1 POP JUMP JUMPDEST PUSH1 0x0 PUSH1 0x20 DUP3 ADD SWAP1 POP DUP2 DUP2 SUB PUSH1 0x0 DUP4 ADD MSTORE PUSH2 0x511F DUP2 PUSH2 0x50E3 JUMP JUMPDEST SWAP1 POP SWAP2 SWAP1 POP JUMP JUMPDEST PUSH1 0x3 DUP2 LT PUSH2 0x5133 JUMPI PUSH1 0x0 DUP1 REVERT JUMPDEST POP JUMP JUMPDEST PUSH1 0x0 DUP2 MLOAD SWAP1 POP PUSH2 0x5145 DUP2 PUSH2 0x5126 JUMP JUMPDEST SWAP3 SWAP2 POP POP JUMP JUMPDEST PUSH1 0x0 PUSH1 0x20 DUP3 DUP5 SUB SLT ISZERO PUSH2 0x5161 JUMPI PUSH2 0x5160 PUSH2 0x3634 JUMP JUMPDEST JUMPDEST PUSH1 0x0 PUSH2 0x516F DUP5 DUP3 DUP6 ADD PUSH2 0x5136 JUMP JUMPDEST SWAP2 POP POP SWAP3 SWAP2 POP POP JUMP JUMPDEST PUSH32 0x496620737569636964652063616E6E6F7420636C61696D2077697468696E2032 PUSH1 0x0 DUP3 ADD MSTORE PUSH32 0x2079656172732100000000000000000000000000000000000000000000000000 PUSH1 0x20 DUP3 ADD MSTORE POP JUMP JUMPDEST PUSH1 0x0 PUSH2 0x51D4 PUSH1 0x27 DUP4 PUSH2 0x3AED JUMP JUMPDEST SWAP2 POP PUSH2 0x51DF DUP3 PUSH2 0x5178 JUMP JUMPDEST PUSH1 0x40 DUP3 ADD SWAP1 POP SWAP2 SWAP1 POP JUMP JUMPDEST PUSH1 0x0 PUSH1 0x20 DUP3 ADD SWAP1 POP DUP2 DUP2 SUB PUSH1 0x0 DUP4 ADD MSTORE PUSH2 0x5203 DUP2 PUSH2 0x51C7 JUMP JUMPDEST SWAP1 POP SWAP2 SWAP1 POP JUMP JUMPDEST PUSH32 0x6E6F7420656E6F756768205472757374496E7375726520746F20706179210000 PUSH1 0x0 DUP3 ADD MSTORE POP JUMP JUMPDEST PUSH1 0x0 PUSH2 0x5240 PUSH1 0x1E DUP4 PUSH2 0x3AED JUMP JUMPDEST SWAP2 POP PUSH2 0x524B DUP3 PUSH2 0x520A JUMP JUMPDEST PUSH1 0x20 DUP3 ADD SWAP1 POP SWAP2 SWAP1 POP JUMP JUMPDEST PUSH1 0x0 PUSH1 0x20 DUP3 ADD SWAP1 POP DUP2 DUP2 SUB PUSH1 0x0 DUP4 ADD MSTORE PUSH2 0x526F DUP2 PUSH2 0x5233 JUMP JUMPDEST SWAP1 POP SWAP2 SWAP1 POP JUMP JUMPDEST PUSH1 0x0 PUSH1 0x40 DUP3 ADD SWAP1 POP PUSH2 0x528B PUSH1 0x0 DUP4 ADD DUP6 PUSH2 0x3B61 JUMP JUMPDEST PUSH2 0x5298 PUSH1 0x20 DUP4 ADD DUP5 PUSH2 0x37D7 JUMP JUMPDEST SWAP4 SWAP3 POP POP POP JUMP INVALID LOG2 PUSH5 0x6970667358 0x22 SLT KECCAK256 SHR 0xAC 0x4B 0xF9 0xED 0xB8 0x23 0xF9 OR 0xEE KECCAK256 PUSH27 0x155097708810F407BE7F656C147F2EB1BDD041E864736F6C634300 ADDMOD SLT STOP CALLER "
		},
		"gasEstimates": {
			"creation": {
				"codeDepositCost": "4241000",
				"executionCost": "infinite",
				"totalCost": "infinite"
			},
			"external": {
				"addRequestLists(uint256,uint256,string,string)": "infinite",
				"checkRequestsFromCompany(uint256)": "infinite",
				"checkRequestsFromStakeholder(uint256,uint256)": "infinite",
				"claim(uint256,uint256,uint256,uint256,address,string,string)": "infinite",
				"companies(uint256)": "infinite",
				"createInsurance(uint256,uint256,uint256,uint256,uint8,uint256,uint256)": "infinite",
				"createStakeholderInfo(uint256,uint256,uint256,uint256)": "infinite",
				"getBeneficiary(uint256)": "infinite",
				"getCompanyId()": "2615",
				"getCredit(uint256)": "infinite",
				"getExpiryDate(uint256)": "infinite",
				"getInsurance(uint256)": "infinite",
				"getInsuranceCompany(uint256)": "infinite",
				"getInsuredAmount(uint256)": "infinite",
				"getIssueDate(uint256)": "infinite",
				"getName(uint256)": "infinite",
				"getNumOfCompany()": "2570",
				"getOwner(uint256)": "5103",
				"getPolicyOwner(uint256)": "infinite",
				"getRestAmount(uint256)": "infinite",
				"getStatus(uint256)": "3056",
				"ids(address)": "2905",
				"insurances(uint256)": "infinite",
				"numInsurance()": "2519",
				"numStakeholder()": "2474",
				"payPremium(uint256,uint256,uint256,address)": "infinite",
				"registerCompany(string)": "infinite",
				"rejectRequest(uint256,uint256)": "infinite",
				"setBeneficiary(uint256,uint256)": "infinite",
				"setExpiryDate(uint256,uint256)": "infinite",
				"signInsurance(uint256,uint256,uint256)": "infinite",
				"solveRequest(uint256,uint256,uint256)": "infinite",
				"stakeholderinfos(uint256)": "infinite",
				"updateStatus(uint8,uint256)": "25068"
			},
			"internal": {
				"autoTransfer(uint256,uint256,uint256,address,string memory,string memory)": "infinite",
				"updateCredit(uint256)": "infinite"
			}
		},
		"methodIdentifiers": {
			"addRequestLists(uint256,uint256,string,string)": "23192ed4",
			"checkRequestsFromCompany(uint256)": "dd9937f7",
			"checkRequestsFromStakeholder(uint256,uint256)": "5d996701",
			"claim(uint256,uint256,uint256,uint256,address,string,string)": "26e1cb82",
			"companies(uint256)": "2813d19d",
			"createInsurance(uint256,uint256,uint256,uint256,uint8,uint256,uint256)": "93e949c3",
			"createStakeholderInfo(uint256,uint256,uint256,uint256)": "e0e5c324",
			"getBeneficiary(uint256)": "302df083",
			"getCompanyId()": "9f14d7c2",
			"getCredit(uint256)": "da304e4d",
			"getExpiryDate(uint256)": "6833f200",
			"getInsurance(uint256)": "85fae602",
			"getInsuranceCompany(uint256)": "e22900ff",
			"getInsuredAmount(uint256)": "5998f775",
			"getIssueDate(uint256)": "0386660a",
			"getName(uint256)": "6b8ff574",
			"getNumOfCompany()": "62584ffe",
			"getOwner(uint256)": "c41a360a",
			"getPolicyOwner(uint256)": "ca009021",
			"getRestAmount(uint256)": "575c2887",
			"getStatus(uint256)": "5c622a0e",
			"ids(address)": "1847c06b",
			"insurances(uint256)": "59fb49f9",
			"numInsurance()": "703849d9",
			"numStakeholder()": "8edd5297",
			"payPremium(uint256,uint256,uint256,address)": "467321d5",
			"registerCompany(string)": "00544194",
			"rejectRequest(uint256,uint256)": "3d1894af",
			"setBeneficiary(uint256,uint256)": "1a1fc3a0",
			"setExpiryDate(uint256,uint256)": "d91f2a0b",
			"signInsurance(uint256,uint256,uint256)": "bfcb6cfb",
			"solveRequest(uint256,uint256,uint256)": "e02bb9af",
			"stakeholderinfos(uint256)": "3fa3ab26",
			"updateStatus(uint8,uint256)": "b7ff5dae"
		}
	},
	"abi": [
		{
			"inputs": [
				{
					"internalType": "contract Hospital",
					"name": "hospitalInstanceAddress",
					"type": "address"
				},
				{
					"internalType": "contract TrustInsure",
					"name": "trustinsureInstanceAddress",
					"type": "address"
				}
			],
			"stateMutability": "nonpayable",
			"type": "constructor"
		},
		{
			"anonymous": false,
			"inputs": [
				{
					"indexed": false,
					"internalType": "uint256",
					"name": "insuranceID",
					"type": "uint256"
				}
			],
			"name": "allPaid",
			"type": "event"
		},
		{
			"anonymous": false,
			"inputs": [
				{
					"indexed": false,
					"internalType": "uint256[]",
					"name": "requestids",
					"type": "uint256[]"
				},
				{
					"indexed": false,
					"internalType": "uint256[]",
					"name": "buyerids",
					"type": "uint256[]"
				},
				{
					"indexed": false,
					"internalType": "string[]",
					"name": "buyercontacts",
					"type": "string[]"
				},
				{
					"indexed": false,
					"internalType": "string[]",
					"name": "producttypes",
					"type": "string[]"
				}
			],
			"name": "allRequests",
			"type": "event"
		},
		{
			"anonymous": false,
			"inputs": [
				{
					"indexed": false,
					"internalType": "uint256",
					"name": "insuranceID",
					"type": "uint256"
				}
			],
			"name": "askingCert",
			"type": "event"
		},
		{
			"anonymous": false,
			"inputs": [
				{
					"indexed": false,
					"internalType": "enum InsuranceCompany.requestStatus",
					"name": "status",
					"type": "uint8"
				}
			],
			"name": "checkRequest",
			"type": "event"
		},
		{
			"anonymous": false,
			"inputs": [
				{
					"indexed": false,
					"internalType": "uint256",
					"name": "insuranceID",
					"type": "uint256"
				},
				{
					"indexed": false,
					"internalType": "uint256",
					"name": "mcId",
					"type": "uint256"
				}
			],
			"name": "claimingFromComp",
			"type": "event"
		},
		{
			"anonymous": false,
			"inputs": [
				{
					"indexed": false,
					"internalType": "uint256",
					"name": "insuranceId",
					"type": "uint256"
				}
			],
			"name": "create",
			"type": "event"
		},
		{
			"anonymous": false,
			"inputs": [
				{
					"indexed": false,
					"internalType": "uint256",
					"name": "requestId",
					"type": "uint256"
				}
			],
			"name": "requestReject",
			"type": "event"
		},
		{
			"anonymous": false,
			"inputs": [
				{
					"indexed": false,
					"internalType": "uint256",
					"name": "requestId",
					"type": "uint256"
				},
				{
					"indexed": false,
					"internalType": "uint256",
					"name": "insuranceId",
					"type": "uint256"
				}
			],
			"name": "requestSolve",
			"type": "event"
		},
		{
			"anonymous": false,
			"inputs": [
				{
					"indexed": false,
					"internalType": "address",
					"name": "beneficiary",
					"type": "address"
				},
				{
					"indexed": false,
					"internalType": "uint256",
					"name": "amount",
					"type": "uint256"
				}
			],
			"name": "transfer",
			"type": "event"
		},
		{
			"inputs": [
				{
					"internalType": "uint256",
					"name": "_buyerId",
					"type": "uint256"
				},
				{
					"internalType": "uint256",
					"name": "_companyId",
					"type": "uint256"
				},
				{
					"internalType": "string",
					"name": "contact",
					"type": "string"
				},
				{
					"internalType": "string",
					"name": "_typeProduct",
					"type": "string"
				}
			],
			"name": "addRequestLists",
			"outputs": [
				{
					"internalType": "bool",
					"name": "",
					"type": "bool"
				},
				{
					"internalType": "uint256",
					"name": "",
					"type": "uint256"
				}
			],
			"stateMutability": "nonpayable",
			"type": "function"
		},
		{
			"inputs": [
				{
					"internalType": "uint256",
					"name": "companyId",
					"type": "uint256"
				}
			],
			"name": "checkRequestsFromCompany",
			"outputs": [],
			"stateMutability": "nonpayable",
			"type": "function"
		},
		{
			"inputs": [
				{
					"internalType": "uint256",
					"name": "companyId",
					"type": "uint256"
				},
				{
					"internalType": "uint256",
					"name": "requestId",
					"type": "uint256"
				}
			],
			"name": "checkRequestsFromStakeholder",
			"outputs": [
				{
					"internalType": "enum InsuranceCompany.requestStatus",
					"name": "",
					"type": "uint8"
				},
				{
					"internalType": "uint256",
					"name": "",
					"type": "uint256"
				}
			],
			"stateMutability": "nonpayable",
			"type": "function"
		},
		{
			"inputs": [
				{
					"internalType": "uint256",
					"name": "insuranceID",
					"type": "uint256"
				},
				{
					"internalType": "uint256",
					"name": "companyId",
					"type": "uint256"
				},
				{
					"internalType": "uint256",
					"name": "mcId",
					"type": "uint256"
				},
				{
					"internalType": "uint256",
					"name": "beneficiaryID",
					"type": "uint256"
				},
				{
					"internalType": "address",
					"name": "beneficiaryAddress",
					"type": "address"
				},
				{
					"internalType": "string",
					"name": "name",
					"type": "string"
				},
				{
					"internalType": "string",
					"name": "NRIC",
					"type": "string"
				}
			],
			"name": "claim",
			"outputs": [],
			"stateMutability": "nonpayable",
			"type": "function"
		},
		{
			"inputs": [
				{
					"internalType": "uint256",
					"name": "",
					"type": "uint256"
				}
			],
			"name": "companies",
			"outputs": [
				{
					"internalType": "uint256",
					"name": "companyId",
					"type": "uint256"
				},
				{
					"internalType": "uint256",
					"name": "credit",
					"type": "uint256"
				},
				{
					"internalType": "string",
					"name": "name",
					"type": "string"
				},
				{
					"internalType": "address",
					"name": "owner",
					"type": "address"
				},
				{
					"internalType": "uint256",
					"name": "completed",
					"type": "uint256"
				}
			],
			"stateMutability": "view",
			"type": "function"
		},
		{
			"inputs": [
				{
					"internalType": "uint256",
					"name": "stakeholderInfoId",
					"type": "uint256"
				},
				{
					"internalType": "uint256",
					"name": "companyId",
					"type": "uint256"
				},
				{
					"internalType": "uint256",
					"name": "premium",
					"type": "uint256"
				},
				{
					"internalType": "uint256",
					"name": "insuredAmount",
					"type": "uint256"
				},
				{
					"internalType": "enum Insurance.insuranceType",
					"name": "insType0life1accident",
					"type": "uint8"
				},
				{
					"internalType": "uint256",
					"name": "issueDateYYYYMMDD",
					"type": "uint256"
				},
				{
					"internalType": "uint256",
					"name": "expiryDateYYYYMMDD",
					"type": "uint256"
				}
			],
			"name": "createInsurance",
			"outputs": [
				{
					"internalType": "uint256",
					"name": "",
					"type": "uint256"
				}
			],
			"stateMutability": "nonpayable",
			"type": "function"
		},
		{
			"inputs": [
				{
					"internalType": "uint256",
					"name": "policyOwner",
					"type": "uint256"
				},
				{
					"internalType": "uint256",
					"name": "beneficiary",
					"type": "uint256"
				},
				{
					"internalType": "uint256",
					"name": "lifeAssured",
					"type": "uint256"
				},
				{
					"internalType": "uint256",
					"name": "payingAccount",
					"type": "uint256"
				}
			],
			"name": "createStakeholderInfo",
			"outputs": [
				{
					"internalType": "uint256",
					"name": "",
					"type": "uint256"
				}
			],
			"stateMutability": "nonpayable",
			"type": "function"
		},
		{
			"inputs": [
				{
					"internalType": "uint256",
					"name": "insuranceId",
					"type": "uint256"
				}
			],
			"name": "getBeneficiary",
			"outputs": [
				{
					"internalType": "uint256",
					"name": "",
					"type": "uint256"
				}
			],
			"stateMutability": "view",
			"type": "function"
		},
		{
			"inputs": [],
			"name": "getCompanyId",
			"outputs": [
				{
					"internalType": "uint256",
					"name": "",
					"type": "uint256"
				}
			],
			"stateMutability": "view",
			"type": "function"
		},
		{
			"inputs": [
				{
					"internalType": "uint256",
					"name": "companyId",
					"type": "uint256"
				}
			],
			"name": "getCredit",
			"outputs": [
				{
					"internalType": "uint256",
					"name": "",
					"type": "uint256"
				}
			],
			"stateMutability": "view",
			"type": "function"
		},
		{
			"inputs": [
				{
					"internalType": "uint256",
					"name": "insuranceId",
					"type": "uint256"
				}
			],
			"name": "getExpiryDate",
			"outputs": [
				{
					"internalType": "uint256",
					"name": "",
					"type": "uint256"
				}
			],
			"stateMutability": "view",
			"type": "function"
		},
		{
			"inputs": [
				{
					"internalType": "uint256",
					"name": "insuranceId",
					"type": "uint256"
				}
			],
			"name": "getInsurance",
			"outputs": [
				{
					"components": [
						{
							"internalType": "uint256",
							"name": "ID",
							"type": "uint256"
						},
						{
							"internalType": "uint256",
							"name": "companyId",
							"type": "uint256"
						},
						{
							"internalType": "uint256",
							"name": "stakeholders",
							"type": "uint256"
						},
						{
							"internalType": "uint256",
							"name": "premium",
							"type": "uint256"
						},
						{
							"internalType": "uint256",
							"name": "insuredAmount",
							"type": "uint256"
						},
						{
							"internalType": "uint256",
							"name": "currentAmount",
							"type": "uint256"
						},
						{
							"internalType": "enum Insurance.insuranceType",
							"name": "insType",
							"type": "uint8"
						},
						{
							"internalType": "enum Insurance.status",
							"name": "status",
							"type": "uint8"
						},
						{
							"internalType": "uint256",
							"name": "issueDate",
							"type": "uint256"
						},
						{
							"internalType": "uint256",
							"name": "expiryDate",
							"type": "uint256"
						}
					],
					"internalType": "struct Insurance.insurance",
					"name": "",
					"type": "tuple"
				}
			],
			"stateMutability": "view",
			"type": "function"
		},
		{
			"inputs": [
				{
					"internalType": "uint256",
					"name": "insuranceId",
					"type": "uint256"
				}
			],
			"name": "getInsuranceCompany",
			"outputs": [
				{
					"internalType": "uint256",
					"name": "",
					"type": "uint256"
				}
			],
			"stateMutability": "view",
			"type": "function"
		},
		{
			"inputs": [
				{
					"internalType": "uint256",
					"name": "insuranceId",
					"type": "uint256"
				}
			],
			"name": "getInsuredAmount",
			"outputs": [
				{
					"internalType": "uint256",
					"name": "",
					"type": "uint256"
				}
			],
			"stateMutability": "view",
			"type": "function"
		},
		{
			"inputs": [
				{
					"internalType": "uint256",
					"name": "insuranceId",
					"type": "uint256"
				}
			],
			"name": "getIssueDate",
			"outputs": [
				{
					"internalType": "uint256",
					"name": "",
					"type": "uint256"
				}
			],
			"stateMutability": "view",
			"type": "function"
		},
		{
			"inputs": [
				{
					"internalType": "uint256",
					"name": "companyId",
					"type": "uint256"
				}
			],
			"name": "getName",
			"outputs": [
				{
					"internalType": "string",
					"name": "",
					"type": "string"
				}
			],
			"stateMutability": "view",
			"type": "function"
		},
		{
			"inputs": [],
			"name": "getNumOfCompany",
			"outputs": [
				{
					"internalType": "uint256",
					"name": "",
					"type": "uint256"
				}
			],
			"stateMutability": "view",
			"type": "function"
		},
		{
			"inputs": [
				{
					"internalType": "uint256",
					"name": "companyId",
					"type": "uint256"
				}
			],
			"name": "getOwner",
			"outputs": [
				{
					"internalType": "address",
					"name": "",
					"type": "address"
				}
			],
			"stateMutability": "view",
			"type": "function"
		},
		{
			"inputs": [
				{
					"internalType": "uint256",
					"name": "stakeholderinfoId",
					"type": "uint256"
				}
			],
			"name": "getPolicyOwner",
			"outputs": [
				{
					"internalType": "uint256",
					"name": "",
					"type": "uint256"
				}
			],
			"stateMutability": "view",
			"type": "function"
		},
		{
			"inputs": [
				{
					"internalType": "uint256",
					"name": "insuranceId",
					"type": "uint256"
				}
			],
			"name": "getRestAmount",
			"outputs": [
				{
					"internalType": "uint256",
					"name": "",
					"type": "uint256"
				}
			],
			"stateMutability": "view",
			"type": "function"
		},
		{
			"inputs": [
				{
					"internalType": "uint256",
					"name": "insuranceId",
					"type": "uint256"
				}
			],
			"name": "getStatus",
			"outputs": [
				{
					"internalType": "enum Insurance.status",
					"name": "",
					"type": "uint8"
				}
			],
			"stateMutability": "view",
			"type": "function"
		},
		{
			"inputs": [
				{
					"internalType": "address",
					"name": "",
					"type": "address"
				}
			],
			"name": "ids",
			"outputs": [
				{
					"internalType": "uint256",
					"name": "",
					"type": "uint256"
				}
			],
			"stateMutability": "view",
			"type": "function"
		},
		{
			"inputs": [
				{
					"internalType": "uint256",
					"name": "",
					"type": "uint256"
				}
			],
			"name": "insurances",
			"outputs": [
				{
					"internalType": "uint256",
					"name": "ID",
					"type": "uint256"
				},
				{
					"internalType": "uint256",
					"name": "companyId",
					"type": "uint256"
				},
				{
					"internalType": "uint256",
					"name": "stakeholders",
					"type": "uint256"
				},
				{
					"internalType": "uint256",
					"name": "premium",
					"type": "uint256"
				},
				{
					"internalType": "uint256",
					"name": "insuredAmount",
					"type": "uint256"
				},
				{
					"internalType": "uint256",
					"name": "currentAmount",
					"type": "uint256"
				},
				{
					"internalType": "enum Insurance.insuranceType",
					"name": "insType",
					"type": "uint8"
				},
				{
					"internalType": "enum Insurance.status",
					"name": "status",
					"type": "uint8"
				},
				{
					"internalType": "uint256",
					"name": "issueDate",
					"type": "uint256"
				},
				{
					"internalType": "uint256",
					"name": "expiryDate",
					"type": "uint256"
				}
			],
			"stateMutability": "view",
			"type": "function"
		},
		{
			"inputs": [],
			"name": "numInsurance",
			"outputs": [
				{
					"internalType": "uint256",
					"name": "",
					"type": "uint256"
				}
			],
			"stateMutability": "view",
			"type": "function"
		},
		{
			"inputs": [],
			"name": "numStakeholder",
			"outputs": [
				{
					"internalType": "uint256",
					"name": "",
					"type": "uint256"
				}
			],
			"stateMutability": "view",
			"type": "function"
		},
		{
			"inputs": [
				{
					"internalType": "uint256",
					"name": "insuranceId",
					"type": "uint256"
				},
				{
					"internalType": "uint256",
					"name": "amount",
					"type": "uint256"
				},
				{
					"internalType": "uint256",
					"name": "policyOwnerID",
					"type": "uint256"
				},
				{
					"internalType": "address",
					"name": "policyOwner",
					"type": "address"
				}
			],
			"name": "payPremium",
			"outputs": [],
			"stateMutability": "nonpayable",
			"type": "function"
		},
		{
			"inputs": [
				{
					"internalType": "string",
					"name": "name",
					"type": "string"
				}
			],
			"name": "registerCompany",
			"outputs": [
				{
					"internalType": "uint256",
					"name": "",
					"type": "uint256"
				}
			],
			"stateMutability": "payable",
			"type": "function"
		},
		{
			"inputs": [
				{
					"internalType": "uint256",
					"name": "requestId",
					"type": "uint256"
				},
				{
					"internalType": "uint256",
					"name": "companyId",
					"type": "uint256"
				}
			],
			"name": "rejectRequest",
			"outputs": [],
			"stateMutability": "nonpayable",
			"type": "function"
		},
		{
			"inputs": [
				{
					"internalType": "uint256",
					"name": "newBeneficiary",
					"type": "uint256"
				},
				{
					"internalType": "uint256",
					"name": "insuranceId",
					"type": "uint256"
				}
			],
			"name": "setBeneficiary",
			"outputs": [],
			"stateMutability": "nonpayable",
			"type": "function"
		},
		{
			"inputs": [
				{
					"internalType": "uint256",
					"name": "date",
					"type": "uint256"
				},
				{
					"internalType": "uint256",
					"name": "insuranceId",
					"type": "uint256"
				}
			],
			"name": "setExpiryDate",
			"outputs": [],
			"stateMutability": "nonpayable",
			"type": "function"
		},
		{
			"inputs": [
				{
					"internalType": "uint256",
					"name": "insuranceId",
					"type": "uint256"
				},
				{
					"internalType": "uint256",
					"name": "companyId",
					"type": "uint256"
				},
				{
					"internalType": "uint256",
					"name": "policyOwnerID",
					"type": "uint256"
				}
			],
			"name": "signInsurance",
			"outputs": [],
			"stateMutability": "nonpayable",
			"type": "function"
		},
		{
			"inputs": [
				{
					"internalType": "uint256",
					"name": "companyId",
					"type": "uint256"
				},
				{
					"internalType": "uint256",
					"name": "requestId",
					"type": "uint256"
				},
				{
					"internalType": "uint256",
					"name": "insuranceId",
					"type": "uint256"
				}
			],
			"name": "solveRequest",
			"outputs": [],
			"stateMutability": "nonpayable",
			"type": "function"
		},
		{
			"inputs": [
				{
					"internalType": "uint256",
					"name": "",
					"type": "uint256"
				}
			],
			"name": "stakeholderinfos",
			"outputs": [
				{
					"internalType": "uint256",
					"name": "policyOwner",
					"type": "uint256"
				},
				{
					"internalType": "uint256",
					"name": "beneficiary",
					"type": "uint256"
				},
				{
					"internalType": "uint256",
					"name": "lifeAssured",
					"type": "uint256"
				},
				{
					"internalType": "uint256",
					"name": "payingAccount",
					"type": "uint256"
				}
			],
			"stateMutability": "view",
			"type": "function"
		},
		{
			"inputs": [
				{
					"internalType": "enum Insurance.status",
					"name": "state",
					"type": "uint8"
				},
				{
					"internalType": "uint256",
					"name": "insuranceId",
					"type": "uint256"
				}
			],
			"name": "updateStatus",
			"outputs": [],
			"stateMutability": "nonpayable",
			"type": "function"
		}
	]
}