{
	"data": {
		"bytecode": {
			"linkReferences": {},
			"object": "6080604052600080556000600255600060065560006007553480156200002457600080fd5b5060405162004a9238038062004a9283398181016040528101906200004a919062000197565b81600460006101000a81548173ffffffffffffffffffffffffffffffffffffffff021916908373ffffffffffffffffffffffffffffffffffffffff16021790555080600560006101000a81548173ffffffffffffffffffffffffffffffffffffffff021916908373ffffffffffffffffffffffffffffffffffffffff1602179055505050620001de565b600080fd5b600073ffffffffffffffffffffffffffffffffffffffff82169050919050565b60006200010682620000d9565b9050919050565b60006200011a82620000f9565b9050919050565b6200012c816200010d565b81146200013857600080fd5b50565b6000815190506200014c8162000121565b92915050565b60006200015f82620000f9565b9050919050565b620001718162000152565b81146200017d57600080fd5b50565b600081519050620001918162000166565b92915050565b60008060408385031215620001b157620001b0620000d4565b5b6000620001c1858286016200013b565b9250506020620001d48582860162000180565b9150509250929050565b6148a480620001ee6000396000f3fe6080604052600436106101f95760003560e01c80636b8ff5741161010d578063ca009021116100a0578063e02bb9af1161006f578063e02bb9af146107ec578063e057980714610815578063e0e5c3241461083e578063e22900ff1461087b578063f558eb05146108b8576101f9565b8063ca00902114610720578063d91f2a0b1461075d578063da304e4d14610786578063dd9937f7146107c3576101f9565b80638edd5297116100dc5780638edd52971461065f578063b0c8f9dc1461068a578063b7ff5dae146106ba578063c41a360a146106e3576101f9565b80636b8ff57414610591578063700d9ef7146105ce578063703849d9146105f757806385fae60214610622576101f9565b80633fa3ab261161019057806359fb49f91161015f57806359fb49f91461046a5780635c622a0e146104af5780635d996701146104ec57806362584ffe146105295780636833f20014610554576101f9565b80633fa3ab2614610387578063561c865b146103c7578063575c2887146103f05780635998f7751461042d576101f9565b80632813d19d116101cc5780632813d19d146102be5780632dd0b640146102fe578063302df0831461032e57806334fb36c81461036b576101f9565b80630386660a146101fe5780631a1fc3a01461023b57806323192ed414610264578063267b63cb146102a2575b600080fd5b34801561020a57600080fd5b5061022560048036038101906102209190612d16565b6108cf565b6040516102329190612d52565b60405180910390f35b34801561024757600080fd5b50610262600480360381019061025d9190612d6d565b6108ef565b005b34801561027057600080fd5b5061028b60048036038101906102869190612ef3565b610911565b604051610299929190612fad565b60405180910390f35b6102bc60048036038101906102b79190613077565b6109dc565b005b3480156102ca57600080fd5b506102e560048036038101906102e09190612d16565b610feb565b6040516102f59493929190613218565b60405180910390f35b61031860048036038101906103139190613289565b6110c3565b6040516103259190612d52565b60405180910390f35b34801561033a57600080fd5b5061035560048036038101906103509190612d16565b611216565b6040516103629190612d52565b60405180910390f35b61038560048036038101906103809190613316565b611239565b005b34801561039357600080fd5b506103ae60048036038101906103a99190612d16565b61147c565b6040516103be9493929190613399565b60405180910390f35b3480156103d357600080fd5b506103ee60048036038101906103e991906133de565b6114ac565b005b3480156103fc57600080fd5b5061041760048036038101906104129190612d16565b6116ca565b6040516104249190612d52565b60405180910390f35b34801561043957600080fd5b50610454600480360381019061044f9190612d16565b61170b565b6040516104619190612d52565b60405180910390f35b34801561047657600080fd5b50610491600480360381019061048c9190612d16565b61172b565b6040516104a699989796959493929190613554565b60405180910390f35b3480156104bb57600080fd5b506104d660048036038101906104d19190612d16565b6117c5565b6040516104e391906135e4565b60405180910390f35b3480156104f857600080fd5b50610513600480360381019061050e9190612d6d565b6117f2565b6040516105209190613647565b60405180910390f35b34801561053557600080fd5b5061053e611b45565b60405161054b9190612d52565b60405180910390f35b34801561056057600080fd5b5061057b60048036038101906105769190612d16565b611b4f565b6040516105889190612d52565b60405180910390f35b34801561059d57600080fd5b506105b860048036038101906105b39190612d16565b611b6f565b6040516105c59190613662565b60405180910390f35b3480156105da57600080fd5b506105f560048036038101906105f09190613684565b611c5d565b005b34801561060357600080fd5b5061060c611d43565b6040516106199190612d52565b60405180910390f35b34801561062e57600080fd5b5061064960048036038101906106449190612d16565b611d49565b60405161065691906138a7565b60405180910390f35b34801561066b57600080fd5b50610674611e65565b6040516106819190612d52565b60405180910390f35b6106a4600480360381019061069f91906138c3565b611e6b565b6040516106b19190612d52565b60405180910390f35b3480156106c657600080fd5b506106e160048036038101906106dc9190613931565b611f57565b005b3480156106ef57600080fd5b5061070a60048036038101906107059190612d16565b611f99565b6040516107179190613971565b60405180910390f35b34801561072c57600080fd5b5061074760048036038101906107429190612d16565b61201f565b6040516107549190612d52565b60405180910390f35b34801561076957600080fd5b50610784600480360381019061077f9190612d6d565b61203f565b005b34801561079257600080fd5b506107ad60048036038101906107a89190612d16565b6120b7565b6040516107ba9190612d52565b60405180910390f35b3480156107cf57600080fd5b506107ea60048036038101906107e59190612d16565b61211d565b005b3480156107f857600080fd5b50610813600480360381019061080e91906133de565b612748565b005b34801561082157600080fd5b5061083c60048036038101906108379190612d16565b612a60565b005b34801561084a57600080fd5b506108656004803603810190610860919061398c565b612ba7565b6040516108729190612d52565b60405180910390f35b34801561088757600080fd5b506108a2600480360381019061089d9190612d16565b612c0c565b6040516108af9190612d52565b60405180910390f35b3480156108c457600080fd5b506108cd612c2c565b005b600060016000838152602001908152602001600020600901549050919050565b8160016000838152602001908152602001600020600201600101819055505050565b60008060006008600087815260200190815260200160002060050160018160018154018082558091505003906000526020600020906006020190506006600081548092919061095f90613a22565b91905055506006548160000181905550868160010181905550848160020190816109899190613c76565b508381600301908161099b9190613c76565b5060028160040160006101000a81548160ff021916908360028111156109c4576109c3613495565b5b02179055506001600654925092505094509492505050565b600360058111156109f0576109ef613495565b5b6001600088815260200190815260200160002060080160019054906101000a900460ff166005811115610a2657610a25613495565b5b14610a3057600080fd5b426276a7006001600089815260200190815260200160002060090154610a569190613d48565b1015610a6157600080fd5b81604051602001610a729190613db8565b60405160208183030381529060405280519060200120600460009054906101000a900473ffffffffffffffffffffffffffffffffffffffff1673ffffffffffffffffffffffffffffffffffffffff1663f29a6f44856040518263ffffffff1660e01b8152600401610ae39190613e24565b600060405180830381865afa158015610b00573d6000803e3d6000fd5b505050506040513d6000823e3d601f19601f82011682018060405250810190610b299190613eb6565b604051602001610b399190613db8565b60405160208183030381529060405280519060200120148015610c47575080604051602001610b689190613db8565b60405160208183030381529060405280519060200120600460009054906101000a900473ffffffffffffffffffffffffffffffffffffffff1673ffffffffffffffffffffffffffffffffffffffff1663d4c85366856040518263ffffffff1660e01b8152600401610bd99190613e24565b600060405180830381865afa158015610bf6573d6000803e3d6000fd5b505050506040513d6000823e3d601f19601f82011682018060405250810190610c1f9190613eb6565b604051602001610c2f9190613db8565b60405160208183030381529060405280519060200120145b610c86576040517f08c379a0000000000000000000000000000000000000000000000000000000008152600401610c7d90613f4b565b60405180910390fd5b600280811115610c9957610c98613495565b5b600460009054906101000a900473ffffffffffffffffffffffffffffffffffffffff1673ffffffffffffffffffffffffffffffffffffffff166329efb4a9856040518263ffffffff1660e01b8152600401610cf49190613e24565b602060405180830381865afa158015610d11573d6000803e3d6000fd5b505050506040513d601f19601f82011682018060405250810190610d359190613f90565b6002811115610d4757610d46613495565b5b03610d7f57426303c267006001600089815260200190815260200160002060090154610d739190613d48565b1015610d7e57600080fd5b5b600060016000888152602001908152602001600020600601549050600060086000888152602001908152602001600020905060008160020160009054906101000a900473ffffffffffffffffffffffffffffffffffffffff16905082600560009054906101000a900473ffffffffffffffffffffffffffffffffffffffff1673ffffffffffffffffffffffffffffffffffffffff1663b9b7650a836040518263ffffffff1660e01b8152600401610e369190613971565b602060405180830381865afa158015610e53573d6000803e3d6000fd5b505050506040513d601f19601f82011682018060405250810190610e779190613fd2565b1015610eb8576040517f08c379a0000000000000000000000000000000000000000000000000000000008152600401610eaf9061404b565b60405180910390fd5b6000600160008b8152602001908152602001600020600201600101549050600560009054906101000a900473ffffffffffffffffffffffffffffffffffffffff1673ffffffffffffffffffffffffffffffffffffffff16633456ea308383876040518463ffffffff1660e01b8152600401610f359392919061406b565b600060405180830381600087803b158015610f4f57600080fd5b505af1158015610f63573d6000803e3d6000fd5b505050506004600160008c815260200190815260200160002060080160016101000a81548160ff02191690836005811115610fa157610fa0613495565b5b02179055507fa9059cbb2ab09eb219583f4a59a5d0623ade346d962bcd4e46b11da047c9049b8185604051610fd79291906140a2565b60405180910390a150505050505050505050565b600860205280600052604060002060009150905080600001549080600101805461101490613a99565b80601f016020809104026020016040519081016040528092919081815260200182805461104090613a99565b801561108d5780601f106110625761010080835404028352916020019161108d565b820191906000526020600020905b81548152906001019060200180831161107057829003601f168201915b5050505050908060020160009054906101000a900473ffffffffffffffffffffffffffffffffffffffff16908060030154905084565b6000662386f26fc10000341461110e576040517f08c379a00000000000000000000000000000000000000000000000000000000081526004016111059061413d565b60405180910390fd5b60008081548092919061112090613a22565b919050555060006001600080548152602001908152602001600020905060036000898152602001908152602001600020816002016000820154816000015560018201548160010155600282015481600201556003820154816003015590505086816001018190555085816006018190555060008160070181905550848160080160006101000a81548160ff021916908360018111156111c2576111c1613495565b5b021790555060008160080160016101000a81548160ff021916908360058111156111ef576111ee613495565b5b02179055508381600901819055508281600a01819055506000549150509695505050505050565b600060016000838152602001908152602001600020600201600101549050919050565b82600754811061127e576040517f08c379a0000000000000000000000000000000000000000000000000000000008152600401611275906141a9565b60405180910390fd5b8483806001600084815260200190815260200160002060020160000154146112db576040517f08c379a00000000000000000000000000000000000000000000000000000000081526004016112d290614215565b60405180910390fd5b600180600089815260200190815260200160002060080160016101000a81548160ff0219169083600581111561131457611313613495565b5b0217905550600160008881526020019081526020016000206008600088815260200190815260200160002060040160008981526020019081526020016000206000820154816000015560018201548160010155600282018160020160008201548160000155600182015481600101556002820154816002015560038201548160030155505060068201548160060155600782015481600701556008820160009054906101000a900460ff168160080160006101000a81548160ff021916908360018111156113e5576113e4613495565b5b02179055506008820160019054906101000a900460ff168160080160016101000a81548160ff0219169083600581111561142257611421613495565b5b021790555060098201548160090155600a82015481600a015590505060086000878152602001908152602001600020600301600081548092919061146590613a22565b919050555061147386612a60565b50505050505050565b60036020528060005260406000206000915090508060000154908060010154908060020154908060030154905084565b828180600160008481526020019081526020016000206002016000015414611509576040517f08c379a000000000000000000000000000000000000000000000000000000000815260040161150090614215565b60405180910390fd5b6000600860006001600089815260200190815260200160002060010154815260200190815260200160002060020160009054906101000a900473ffffffffffffffffffffffffffffffffffffffff169050600560009054906101000a900473ffffffffffffffffffffffffffffffffffffffff1673ffffffffffffffffffffffffffffffffffffffff16633456ea303383886040518463ffffffff1660e01b81526004016115b99392919061406b565b600060405180830381600087803b1580156115d357600080fd5b505af11580156115e7573d6000803e3d6000fd5b50505050846001600088815260200190815260200160002060070160008282546116119190613d48565b92505081905550600160008781526020019081526020016000206006015460016000888152602001908152602001600020600701540361168b5760036001600088815260200190815260200160002060080160016101000a81548160ff0219169083600581111561168557611684613495565b5b02179055505b7f93e71af69425ab98903353cc1f5235add61a8f2f0875df40104a9161ecfca332866040516116ba9190612d52565b60405180910390a1505050505050565b6000600160008381526020019081526020016000206007015460016000848152602001908152602001600020600601546117049190614235565b9050919050565b600060016000838152602001908152602001600020600601549050919050565b600160205280600052604060002060009150905080600001549080600101549080600201604051806080016040529081600082015481526020016001820154815260200160028201548152602001600382015481525050908060060154908060070154908060080160009054906101000a900460ff16908060080160019054906101000a900460ff169080600901549080600a0154905089565b60006001600083815260200190815260200160002060080160019054906101000a900460ff169050919050565b6000808203611836576040517f08c379a000000000000000000000000000000000000000000000000000000000815260040161182d906142b5565b60405180910390fd5b60008060086000868152602001908152602001600020600501805480602002602001604051908101604052809291908181526020016000905b82821015611a1e57838290600052602060002090600602016040518060c001604052908160008201548152602001600182015481526020016002820180546118b690613a99565b80601f01602080910402602001604051908101604052809291908181526020018280546118e290613a99565b801561192f5780601f106119045761010080835404028352916020019161192f565b820191906000526020600020905b81548152906001019060200180831161191257829003601f168201915b5050505050815260200160038201805461194890613a99565b80601f016020809104026020016040519081016040528092919081815260200182805461197490613a99565b80156119c15780601f10611996576101008083540402835291602001916119c1565b820191906000526020600020905b8154815290600101906020018083116119a457829003601f168201915b505050505081526020016004820160009054906101000a900460ff1660028111156119ef576119ee613495565b5b6002811115611a0157611a00613495565b5b81526020016005820154815250508152602001906001019061186f565b5050505090506000815190506000805b82811015611a765786848281518110611a4a57611a496142d5565b5b60200260200101516000015103611a6357809450600191505b8080611a6e90613a22565b915050611a2e565b506001151581151514611abe576040517f08c379a0000000000000000000000000000000000000000000000000000000008152600401611ab590614376565b60405180910390fd5b8015611b1a577f2341ebb88dfa6ce59e54bdde82e9746e5a27fcd12a0d5d5ca812f1d01f4102e2838581518110611af857611af76142d5565b5b602002602001015160800151604051611b119190613647565b60405180910390a15b828481518110611b2d57611b2c6142d5565b5b60200260200101516080015194505050505092915050565b6000600754905090565b600060016000838152602001908152602001600020600a01549050919050565b6060816007548110611bb6576040517f08c379a0000000000000000000000000000000000000000000000000000000008152600401611bad906141a9565b60405180910390fd5b600860008481526020019081526020016000206001018054611bd790613a99565b80601f0160208091040260200160405190810160405280929190818152602001828054611c0390613a99565b8015611c505780601f10611c2557610100808354040283529160200191611c50565b820191906000526020600020905b815481529060010190602001808311611c3357829003601f168201915b5050505050915050919050565b868380600160008481526020019081526020016000206002016000015414611cba576040517f08c379a0000000000000000000000000000000000000000000000000000000008152600401611cb190614215565b60405180910390fd5b7f023f2fc8ada0c4baed4ee1e3ba4fe20927aeb0927885a97721dff7bf7de72a5489604051611ce99190612d52565b60405180910390a1611cff8989888a88886109dc565b7f5865064e6acb4fff420dd41011f2a5680096a4c8d5d8b6cf9d358d6e71fbf1ac8988604051611d30929190614396565b60405180910390a1505050505050505050565b60005481565b611d51612c2e565b6001600083815260200190815260200160002060405180610120016040529081600082015481526020016001820154815260200160028201604051806080016040529081600082015481526020016001820154815260200160028201548152602001600382015481525050815260200160068201548152602001600782015481526020016008820160009054906101000a900460ff166001811115611df957611df8613495565b5b6001811115611e0b57611e0a613495565b5b81526020016008820160019054906101000a900460ff166005811115611e3457611e33613495565b5b6005811115611e4657611e45613495565b5b815260200160098201548152602001600a820154815250509050919050565b60025481565b6000662386f26fc100003411611eb6576040517f08c379a0000000000000000000000000000000000000000000000000000000008152600401611ead90614438565b60405180910390fd5b60006008600060076000815480929190611ecf90613a22565b91905055815260200190815260200160002090506000816000018190555082816001019081611efe9190613c76565b50338160020160006101000a81548173ffffffffffffffffffffffffffffffffffffffff021916908373ffffffffffffffffffffffffffffffffffffffff16021790555060008160030181905550600754915050919050565b816001600083815260200190815260200160002060080160016101000a81548160ff02191690836005811115611f9057611f8f613495565b5b02179055505050565b6000816007548110611fe0576040517f08c379a0000000000000000000000000000000000000000000000000000000008152600401611fd7906141a9565b60405180910390fd5b6008600084815260200190815260200160002060020160009054906101000a900473ffffffffffffffffffffffffffffffffffffffff16915050919050565b600060036000838152602001908152602001600020600001549050919050565b600060016000838152602001908152602001600020600a015403612098576040517f08c379a000000000000000000000000000000000000000000000000000000000815260040161208f906144ca565b60405180910390fd5b8160016000838152602001908152602001600020600a01819055505050565b60008160075481106120fe576040517f08c379a00000000000000000000000000000000000000000000000000000000081526004016120f5906141a9565b60405180910390fd5b6008600084815260200190815260200160002060000154915050919050565b806007548110612162576040517f08c379a0000000000000000000000000000000000000000000000000000000008152600401612159906141a9565b60405180910390fd5b813373ffffffffffffffffffffffffffffffffffffffff166008600083815260200190815260200160002060020160009054906101000a900473ffffffffffffffffffffffffffffffffffffffff1673ffffffffffffffffffffffffffffffffffffffff1614612207576040517f08c379a00000000000000000000000000000000000000000000000000000000081526004016121fe90614536565b60405180910390fd5b600060086000858152602001908152602001600020600501805480602002602001604051908101604052809291908181526020016000905b828210156123ee57838290600052602060002090600602016040518060c0016040529081600082015481526020016001820154815260200160028201805461228690613a99565b80601f01602080910402602001604051908101604052809291908181526020018280546122b290613a99565b80156122ff5780601f106122d4576101008083540402835291602001916122ff565b820191906000526020600020905b8154815290600101906020018083116122e257829003601f168201915b5050505050815260200160038201805461231890613a99565b80601f016020809104026020016040519081016040528092919081815260200182805461234490613a99565b80156123915780601f1061236657610100808354040283529160200191612391565b820191906000526020600020905b81548152906001019060200180831161237457829003601f168201915b505050505081526020016004820160009054906101000a900460ff1660028111156123bf576123be613495565b5b60028111156123d1576123d0613495565b5b81526020016005820154815250508152602001906001019061223f565b5050505090506000815167ffffffffffffffff81111561241157612410612dc8565b5b60405190808252806020026020018201604052801561243f5781602001602082028036833780820191505090505b5090506000825167ffffffffffffffff81111561245f5761245e612dc8565b5b60405190808252806020026020018201604052801561248d5781602001602082028036833780820191505090505b5090506000835167ffffffffffffffff8111156124ad576124ac612dc8565b5b6040519080825280602002602001820160405280156124e057816020015b60608152602001906001900390816124cb5790505b5090506000845167ffffffffffffffff811115612500576124ff612dc8565b5b60405190808252806020026020018201604052801561253357816020015b606081526020019060019003908161251e5790505b5090506000855167ffffffffffffffff81111561255357612552612dc8565b5b6040519080825280602002602001820160405280156125815781602001602082028036833780820191505090505b50905060005b86518110156126fd578681815181106125a3576125a26142d5565b5b6020026020010151600001518682815181106125c2576125c16142d5565b5b6020026020010181815250508681815181106125e1576125e06142d5565b5b602002602001015160200151858281518110612600576125ff6142d5565b5b60200260200101818152505086818151811061261f5761261e6142d5565b5b60200260200101516040015184828151811061263e5761263d6142d5565b5b602002602001018190525086818151811061265c5761265b6142d5565b5b60200260200101516060015183828151811061267b5761267a6142d5565b5b6020026020010181905250868181518110612699576126986142d5565b5b6020026020010151608001518282815181106126b8576126b76142d5565b5b602002602001019060028111156126d2576126d1613495565b5b908160028111156126e6576126e5613495565b5b8152505080806126f590613a22565b915050612587565b507fe6c75ee9cdd3e628203f6e03ddbecea0e9472f78039061cde763650d2880f7b785858585856040516127359594939291906147cf565b60405180910390a1505050505050505050565b60008214612a5b5760008060086000868152602001908152602001600020600501805480602002602001604051908101604052809291908181526020016000905b8282101561293857838290600052602060002090600602016040518060c001604052908160008201548152602001600182015481526020016002820180546127d090613a99565b80601f01602080910402602001604051908101604052809291908181526020018280546127fc90613a99565b80156128495780601f1061281e57610100808354040283529160200191612849565b820191906000526020600020905b81548152906001019060200180831161282c57829003601f168201915b5050505050815260200160038201805461286290613a99565b80601f016020809104026020016040519081016040528092919081815260200182805461288e90613a99565b80156128db5780601f106128b0576101008083540402835291602001916128db565b820191906000526020600020905b8154815290600101906020018083116128be57829003601f168201915b505050505081526020016004820160009054906101000a900460ff16600281111561290957612908613495565b5b600281111561291b5761291a613495565b5b815260200160058201548152505081526020019060010190612789565b5050505090506000815190506000805b828110156129905786848281518110612964576129636142d5565b5b6020026020010151600001510361297d57809450600191505b808061298890613a22565b915050612948565b5060011515811515146129d8576040517f08c379a00000000000000000000000000000000000000000000000000000000081526004016129cf906142b5565b60405180910390fd5b8015612a565784600860008981526020019081526020016000206005018581548110612a0757612a066142d5565b5b9060005260206000209060060201600501819055507f90218a18786a98dc15e72ee082c065814f7820762cfd88f194694627e1b7e4c68686604051612a4d929190614845565b60405180910390a15b505050505b505050565b806007548110612aa5576040517f08c379a0000000000000000000000000000000000000000000000000000000008152600401612a9c906141a9565b60405180910390fd5b600060086000848152602001908152602001600020905060008160030154905060328110158015612ad7575060c88111155b15612aeb5760018260000181905550612ba1565b60c881118015612afd575061015e8111155b15612b115760028260000181905550612ba0565b61015e81118015612b2457506101c28111155b15612b385760038260000181905550612b9f565b6101c281118015612b4b57506103208111155b15612b5f5760048260000181905550612b9e565b61032081118015612b7257506107d08111155b15612b865760058260000181905550612b9d565b6107d0811115612b9c576103e782600001819055505b5b5b5b5b5b50505050565b600060026000815480929190612bbc90613a22565b919050555060006003600060025481526020019081526020016000209050858160000181905550848160010181905550838160020181905550828160030181905550600254915050949350505050565b600060016000838152602001908152602001600020600101549050919050565b565b6040518061012001604052806000815260200160008152602001612c50612ca4565b8152602001600081526020016000815260200160006001811115612c7757612c76613495565b5b815260200160006005811115612c9057612c8f613495565b5b815260200160008152602001600081525090565b6040518060800160405280600081526020016000815260200160008152602001600081525090565b6000604051905090565b600080fd5b600080fd5b6000819050919050565b612cf381612ce0565b8114612cfe57600080fd5b50565b600081359050612d1081612cea565b92915050565b600060208284031215612d2c57612d2b612cd6565b5b6000612d3a84828501612d01565b91505092915050565b612d4c81612ce0565b82525050565b6000602082019050612d676000830184612d43565b92915050565b60008060408385031215612d8457612d83612cd6565b5b6000612d9285828601612d01565b9250506020612da385828601612d01565b9150509250929050565b600080fd5b600080fd5b6000601f19601f8301169050919050565b7f4e487b7100000000000000000000000000000000000000000000000000000000600052604160045260246000fd5b612e0082612db7565b810181811067ffffffffffffffff82111715612e1f57612e1e612dc8565b5b80604052505050565b6000612e32612ccc565b9050612e3e8282612df7565b919050565b600067ffffffffffffffff821115612e5e57612e5d612dc8565b5b612e6782612db7565b9050602081019050919050565b82818337600083830152505050565b6000612e96612e9184612e43565b612e28565b905082815260208101848484011115612eb257612eb1612db2565b5b612ebd848285612e74565b509392505050565b600082601f830112612eda57612ed9612dad565b5b8135612eea848260208601612e83565b91505092915050565b60008060008060808587031215612f0d57612f0c612cd6565b5b6000612f1b87828801612d01565b9450506020612f2c87828801612d01565b935050604085013567ffffffffffffffff811115612f4d57612f4c612cdb565b5b612f5987828801612ec5565b925050606085013567ffffffffffffffff811115612f7a57612f79612cdb565b5b612f8687828801612ec5565b91505092959194509250565b60008115159050919050565b612fa781612f92565b82525050565b6000604082019050612fc26000830185612f9e565b612fcf6020830184612d43565b9392505050565b600067ffffffffffffffff821115612ff157612ff0612dc8565b5b612ffa82612db7565b9050602081019050919050565b600061301a61301584612fd6565b612e28565b90508281526020810184848401111561303657613035612db2565b5b613041848285612e74565b509392505050565b600082601f83011261305e5761305d612dad565b5b813561306e848260208601613007565b91505092915050565b60008060008060008060c0878903121561309457613093612cd6565b5b60006130a289828a01612d01565b96505060206130b389828a01612d01565b95505060406130c489828a01612d01565b945050606087013567ffffffffffffffff8111156130e5576130e4612cdb565b5b6130f189828a01613049565b935050608087013567ffffffffffffffff81111561311257613111612cdb565b5b61311e89828a01612ec5565b92505060a087013567ffffffffffffffff81111561313f5761313e612cdb565b5b61314b89828a01612ec5565b9150509295509295509295565b600081519050919050565b600082825260208201905092915050565b60005b83811015613192578082015181840152602081019050613177565b60008484015250505050565b60006131a982613158565b6131b38185613163565b93506131c3818560208601613174565b6131cc81612db7565b840191505092915050565b600073ffffffffffffffffffffffffffffffffffffffff82169050919050565b6000613202826131d7565b9050919050565b613212816131f7565b82525050565b600060808201905061322d6000830187612d43565b818103602083015261323f818661319e565b905061324e6040830185613209565b61325b6060830184612d43565b95945050505050565b6002811061327157600080fd5b50565b60008135905061328381613264565b92915050565b60008060008060008060c087890312156132a6576132a5612cd6565b5b60006132b489828a01612d01565b96505060206132c589828a01612d01565b95505060406132d689828a01612d01565b94505060606132e789828a01613274565b93505060806132f889828a01612d01565b92505060a061330989828a01612d01565b9150509295509295509295565b600080600080608085870312156133305761332f612cd6565b5b600061333e87828801612d01565b945050602061334f87828801612d01565b935050604061336087828801612d01565b925050606085013567ffffffffffffffff81111561338157613380612cdb565b5b61338d87828801612ec5565b91505092959194509250565b60006080820190506133ae6000830187612d43565b6133bb6020830186612d43565b6133c86040830185612d43565b6133d56060830184612d43565b95945050505050565b6000806000606084860312156133f7576133f6612cd6565b5b600061340586828701612d01565b935050602061341686828701612d01565b925050604061342786828701612d01565b9150509250925092565b61343a81612ce0565b82525050565b6080820160008201516134566000850182613431565b5060208201516134696020850182613431565b50604082015161347c6040850182613431565b50606082015161348f6060850182613431565b50505050565b7f4e487b7100000000000000000000000000000000000000000000000000000000600052602160045260246000fd5b600281106134d5576134d4613495565b5b50565b60008190506134e6826134c4565b919050565b60006134f6826134d8565b9050919050565b613506816134eb565b82525050565b6006811061351d5761351c613495565b5b50565b600081905061352e8261350c565b919050565b600061353e82613520565b9050919050565b61354e81613533565b82525050565b60006101808201905061356a600083018c612d43565b613577602083018b612d43565b613584604083018a613440565b61359160c0830189612d43565b61359e60e0830188612d43565b6135ac6101008301876134fd565b6135ba610120830186613545565b6135c8610140830185612d43565b6135d6610160830184612d43565b9a9950505050505050505050565b60006020820190506135f96000830184613545565b92915050565b600381106136105761360f613495565b5b50565b6000819050613621826135ff565b919050565b600061363182613613565b9050919050565b61364181613626565b82525050565b600060208201905061365c6000830184613638565b92915050565b6000602082019050818103600083015261367c818461319e565b905092915050565b600080600080600080600060e0888a0312156136a3576136a2612cd6565b5b60006136b18a828b01612d01565b97505060206136c28a828b01612d01565b965050604088013567ffffffffffffffff8111156136e3576136e2612cdb565b5b6136ef8a828b01613049565b95505060606137008a828b01612d01565b94505060806137118a828b01612d01565b93505060a088013567ffffffffffffffff81111561373257613731612cdb565b5b61373e8a828b01612ec5565b92505060c088013567ffffffffffffffff81111561375f5761375e612cdb565b5b61376b8a828b01612ec5565b91505092959891949750929550565b6080820160008201516137906000850182613431565b5060208201516137a36020850182613431565b5060408201516137b66040850182613431565b5060608201516137c96060850182613431565b50505050565b6137d8816134eb565b82525050565b6137e781613533565b82525050565b610180820160008201516138046000850182613431565b5060208201516138176020850182613431565b50604082015161382a604085018261377a565b50606082015161383d60c0850182613431565b50608082015161385060e0850182613431565b5060a08201516138646101008501826137cf565b5060c08201516138786101208501826137de565b5060e082015161388c610140850182613431565b506101008201516138a1610160850182613431565b50505050565b6000610180820190506138bd60008301846137ed565b92915050565b6000602082840312156138d9576138d8612cd6565b5b600082013567ffffffffffffffff8111156138f7576138f6612cdb565b5b61390384828501612ec5565b91505092915050565b6006811061391957600080fd5b50565b60008135905061392b8161390c565b92915050565b6000806040838503121561394857613947612cd6565b5b60006139568582860161391c565b925050602061396785828601612d01565b9150509250929050565b60006020820190506139866000830184613209565b92915050565b600080600080608085870312156139a6576139a5612cd6565b5b60006139b487828801612d01565b94505060206139c587828801612d01565b93505060406139d687828801612d01565b92505060606139e787828801612d01565b91505092959194509250565b7f4e487b7100000000000000000000000000000000000000000000000000000000600052601160045260246000fd5b6000613a2d82612ce0565b91507fffffffffffffffffffffffffffffffffffffffffffffffffffffffffffffffff8203613a5f57613a5e6139f3565b5b600182019050919050565b7f4e487b7100000000000000000000000000000000000000000000000000000000600052602260045260246000fd5b60006002820490506001821680613ab157607f821691505b602082108103613ac457613ac3613a6a565b5b50919050565b60008190508160005260206000209050919050565b60006020601f8301049050919050565b600082821b905092915050565b600060088302613b2c7fffffffffffffffffffffffffffffffffffffffffffffffffffffffffffffffff82613aef565b613b368683613aef565b95508019841693508086168417925050509392505050565b6000819050919050565b6000613b73613b6e613b6984612ce0565b613b4e565b612ce0565b9050919050565b6000819050919050565b613b8d83613b58565b613ba1613b9982613b7a565b848454613afc565b825550505050565b600090565b613bb6613ba9565b613bc1818484613b84565b505050565b5b81811015613be557613bda600082613bae565b600181019050613bc7565b5050565b601f821115613c2a57613bfb81613aca565b613c0484613adf565b81016020851015613c13578190505b613c27613c1f85613adf565b830182613bc6565b50505b505050565b600082821c905092915050565b6000613c4d60001984600802613c2f565b1980831691505092915050565b6000613c668383613c3c565b9150826002028217905092915050565b613c7f82613158565b67ffffffffffffffff811115613c9857613c97612dc8565b5b613ca28254613a99565b613cad828285613be9565b600060209050601f831160018114613ce05760008415613cce578287015190505b613cd88582613c5a565b865550613d40565b601f198416613cee86613aca565b60005b82811015613d1657848901518255600182019150602085019450602081019050613cf1565b86831015613d335784890151613d2f601f891682613c3c565b8355505b6001600288020188555050505b505050505050565b6000613d5382612ce0565b9150613d5e83612ce0565b9250828201905080821115613d7657613d756139f3565b5b92915050565b600081905092915050565b6000613d9282613158565b613d9c8185613d7c565b9350613dac818560208601613174565b80840191505092915050565b6000613dc48284613d87565b915081905092915050565b600081519050919050565b600082825260208201905092915050565b6000613df682613dcf565b613e008185613dda565b9350613e10818560208601613174565b613e1981612db7565b840191505092915050565b60006020820190508181036000830152613e3e8184613deb565b905092915050565b6000613e59613e5484612e43565b612e28565b905082815260208101848484011115613e7557613e74612db2565b5b613e80848285613174565b509392505050565b600082601f830112613e9d57613e9c612dad565b5b8151613ead848260208601613e46565b91505092915050565b600060208284031215613ecc57613ecb612cd6565b5b600082015167ffffffffffffffff811115613eea57613ee9612cdb565b5b613ef684828501613e88565b91505092915050565b7f4e6f74207468652073616d65207374616b65686f6c6465722100000000000000600082015250565b6000613f35601983613163565b9150613f4082613eff565b602082019050919050565b60006020820190508181036000830152613f6481613f28565b9050919050565b60038110613f7857600080fd5b50565b600081519050613f8a81613f6b565b92915050565b600060208284031215613fa657613fa5612cd6565b5b6000613fb484828501613f7b565b91505092915050565b600081519050613fcc81612cea565b92915050565b600060208284031215613fe857613fe7612cd6565b5b6000613ff684828501613fbd565b91505092915050565b7f6e6f7420656e6f75676820746f6b656e20746f20706179000000000000000000600082015250565b6000614035601783613163565b915061404082613fff565b602082019050919050565b6000602082019050818103600083015261406481614028565b9050919050565b60006060820190506140806000830186613209565b61408d6020830185613209565b61409a6040830184612d43565b949350505050565b60006040820190506140b76000830185613209565b6140c46020830184612d43565b9392505050565b7f302e303120455448206973206e656564656420746f20696e697469616c69736560008201527f2061206e657720696e737572616e636500000000000000000000000000000000602082015250565b6000614127603083613163565b9150614132826140cb565b604082019050919050565b600060208201905081810360008301526141568161411a565b9050919050565b7f496e76616c696420636f6d70616e792069642100000000000000000000000000600082015250565b6000614193601383613163565b915061419e8261415d565b602082019050919050565b600060208201905081810360008301526141c281614186565b9050919050565b7f496e76616c696420706f6c696379206f776e6572210000000000000000000000600082015250565b60006141ff601583613163565b915061420a826141c9565b602082019050919050565b6000602082019050818103600083015261422e816141f2565b9050919050565b600061424082612ce0565b915061424b83612ce0565b9250828203905081811115614263576142626139f3565b5b92915050565b7f496e76616c696420726571756573742069642100000000000000000000000000600082015250565b600061429f601383613163565b91506142aa82614269565b602082019050919050565b600060208201905081810360008301526142ce81614292565b9050919050565b7f4e487b7100000000000000000000000000000000000000000000000000000000600052603260045260246000fd5b7f596f7520686176656e277420726571756573746564206f72207468652072657160008201527f756573742068617320616c7265616479206265656e20617070726f7665642100602082015250565b6000614360603f83613163565b915061436b82614304565b604082019050919050565b6000602082019050818103600083015261438f81614353565b9050919050565b60006040820190506143ab6000830185612d43565b81810360208301526143bd8184613deb565b90509392505050565b7f6174206c6561737420302e303120455448206973206e656564656420746f206360008201527f7265617465206120636f6d70616e790000000000000000000000000000000000602082015250565b6000614422602f83613163565b915061442d826143c6565b604082019050919050565b6000602082019050818103600083015261445181614415565b9050919050565b7f45787069727920646174652068617320616c7265616479206265656e20696e6960008201527f7469616c69736564000000000000000000000000000000000000000000000000602082015250565b60006144b4602883613163565b91506144bf82614458565b604082019050919050565b600060208201905081810360008301526144e3816144a7565b9050919050565b7f596f7520617265206e6f7420746865206f776e65722100000000000000000000600082015250565b6000614520601683613163565b915061452b826144ea565b602082019050919050565b6000602082019050818103600083015261454f81614513565b9050919050565b600081519050919050565b600082825260208201905092915050565b6000819050602082019050919050565b600061458e8383613431565b60208301905092915050565b6000602082019050919050565b60006145b282614556565b6145bc8185614561565b93506145c783614572565b8060005b838110156145f85781516145df8882614582565b97506145ea8361459a565b9250506001810190506145cb565b5085935050505092915050565b600081519050919050565b600082825260208201905092915050565b6000819050602082019050919050565b600082825260208201905092915050565b600061464d82613158565b6146578185614631565b9350614667818560208601613174565b61467081612db7565b840191505092915050565b60006146878383614642565b905092915050565b6000602082019050919050565b60006146a782614605565b6146b18185614610565b9350836020820285016146c385614621565b8060005b858110156146ff57848403895281516146e0858261467b565b94506146eb8361468f565b925060208a019950506001810190506146c7565b50829750879550505050505092915050565b600081519050919050565b600082825260208201905092915050565b6000819050602082019050919050565b61474681613626565b82525050565b6000614758838361473d565b60208301905092915050565b6000602082019050919050565b600061477c82614711565b614786818561471c565b93506147918361472d565b8060005b838110156147c25781516147a9888261474c565b97506147b483614764565b925050600181019050614795565b5085935050505092915050565b600060a08201905081810360008301526147e981886145a7565b905081810360208301526147fd81876145a7565b90508181036040830152614811818661469c565b90508181036060830152614825818561469c565b905081810360808301526148398184614771565b90509695505050505050565b600060408201905061485a6000830185612d43565b6148676020830184612d43565b939250505056fea264697066735822122021b4774b636bd46153be0d83a91fa609bc7fd2d5e5cca9f6464132bf56a90b1d64736f6c63430008130033",
			"opcodes": "PUSH1 0x80 PUSH1 0x40 MSTORE PUSH1 0x0 DUP1 SSTORE PUSH1 0x0 PUSH1 0x2 SSTORE PUSH1 0x0 PUSH1 0x6 SSTORE PUSH1 0x0 PUSH1 0x7 SSTORE CALLVALUE DUP1 ISZERO PUSH3 0x24 JUMPI PUSH1 0x0 DUP1 REVERT JUMPDEST POP PUSH1 0x40 MLOAD PUSH3 0x4A92 CODESIZE SUB DUP1 PUSH3 0x4A92 DUP4 CODECOPY DUP2 DUP2 ADD PUSH1 0x40 MSTORE DUP2 ADD SWAP1 PUSH3 0x4A SWAP2 SWAP1 PUSH3 0x197 JUMP JUMPDEST DUP2 PUSH1 0x4 PUSH1 0x0 PUSH2 0x100 EXP DUP2 SLOAD DUP2 PUSH20 0xFFFFFFFFFFFFFFFFFFFFFFFFFFFFFFFFFFFFFFFF MUL NOT AND SWAP1 DUP4 PUSH20 0xFFFFFFFFFFFFFFFFFFFFFFFFFFFFFFFFFFFFFFFF AND MUL OR SWAP1 SSTORE POP DUP1 PUSH1 0x5 PUSH1 0x0 PUSH2 0x100 EXP DUP2 SLOAD DUP2 PUSH20 0xFFFFFFFFFFFFFFFFFFFFFFFFFFFFFFFFFFFFFFFF MUL NOT AND SWAP1 DUP4 PUSH20 0xFFFFFFFFFFFFFFFFFFFFFFFFFFFFFFFFFFFFFFFF AND MUL OR SWAP1 SSTORE POP POP POP PUSH3 0x1DE JUMP JUMPDEST PUSH1 0x0 DUP1 REVERT JUMPDEST PUSH1 0x0 PUSH20 0xFFFFFFFFFFFFFFFFFFFFFFFFFFFFFFFFFFFFFFFF DUP3 AND SWAP1 POP SWAP2 SWAP1 POP JUMP JUMPDEST PUSH1 0x0 PUSH3 0x106 DUP3 PUSH3 0xD9 JUMP JUMPDEST SWAP1 POP SWAP2 SWAP1 POP JUMP JUMPDEST PUSH1 0x0 PUSH3 0x11A DUP3 PUSH3 0xF9 JUMP JUMPDEST SWAP1 POP SWAP2 SWAP1 POP JUMP JUMPDEST PUSH3 0x12C DUP2 PUSH3 0x10D JUMP JUMPDEST DUP2 EQ PUSH3 0x138 JUMPI PUSH1 0x0 DUP1 REVERT JUMPDEST POP JUMP JUMPDEST PUSH1 0x0 DUP2 MLOAD SWAP1 POP PUSH3 0x14C DUP2 PUSH3 0x121 JUMP JUMPDEST SWAP3 SWAP2 POP POP JUMP JUMPDEST PUSH1 0x0 PUSH3 0x15F DUP3 PUSH3 0xF9 JUMP JUMPDEST SWAP1 POP SWAP2 SWAP1 POP JUMP JUMPDEST PUSH3 0x171 DUP2 PUSH3 0x152 JUMP JUMPDEST DUP2 EQ PUSH3 0x17D JUMPI PUSH1 0x0 DUP1 REVERT JUMPDEST POP JUMP JUMPDEST PUSH1 0x0 DUP2 MLOAD SWAP1 POP PUSH3 0x191 DUP2 PUSH3 0x166 JUMP JUMPDEST SWAP3 SWAP2 POP POP JUMP JUMPDEST PUSH1 0x0 DUP1 PUSH1 0x40 DUP4 DUP6 SUB SLT ISZERO PUSH3 0x1B1 JUMPI PUSH3 0x1B0 PUSH3 0xD4 JUMP JUMPDEST JUMPDEST PUSH1 0x0 PUSH3 0x1C1 DUP6 DUP3 DUP7 ADD PUSH3 0x13B JUMP JUMPDEST SWAP3 POP POP PUSH1 0x20 PUSH3 0x1D4 DUP6 DUP3 DUP7 ADD PUSH3 0x180 JUMP JUMPDEST SWAP2 POP POP SWAP3 POP SWAP3 SWAP1 POP JUMP JUMPDEST PUSH2 0x48A4 DUP1 PUSH3 0x1EE PUSH1 0x0 CODECOPY PUSH1 0x0 RETURN INVALID PUSH1 0x80 PUSH1 0x40 MSTORE PUSH1 0x4 CALLDATASIZE LT PUSH2 0x1F9 JUMPI PUSH1 0x0 CALLDATALOAD PUSH1 0xE0 SHR DUP1 PUSH4 0x6B8FF574 GT PUSH2 0x10D JUMPI DUP1 PUSH4 0xCA009021 GT PUSH2 0xA0 JUMPI DUP1 PUSH4 0xE02BB9AF GT PUSH2 0x6F JUMPI DUP1 PUSH4 0xE02BB9AF EQ PUSH2 0x7EC JUMPI DUP1 PUSH4 0xE0579807 EQ PUSH2 0x815 JUMPI DUP1 PUSH4 0xE0E5C324 EQ PUSH2 0x83E JUMPI DUP1 PUSH4 0xE22900FF EQ PUSH2 0x87B JUMPI DUP1 PUSH4 0xF558EB05 EQ PUSH2 0x8B8 JUMPI PUSH2 0x1F9 JUMP JUMPDEST DUP1 PUSH4 0xCA009021 EQ PUSH2 0x720 JUMPI DUP1 PUSH4 0xD91F2A0B EQ PUSH2 0x75D JUMPI DUP1 PUSH4 0xDA304E4D EQ PUSH2 0x786 JUMPI DUP1 PUSH4 0xDD9937F7 EQ PUSH2 0x7C3 JUMPI PUSH2 0x1F9 JUMP JUMPDEST DUP1 PUSH4 0x8EDD5297 GT PUSH2 0xDC JUMPI DUP1 PUSH4 0x8EDD5297 EQ PUSH2 0x65F JUMPI DUP1 PUSH4 0xB0C8F9DC EQ PUSH2 0x68A JUMPI DUP1 PUSH4 0xB7FF5DAE EQ PUSH2 0x6BA JUMPI DUP1 PUSH4 0xC41A360A EQ PUSH2 0x6E3 JUMPI PUSH2 0x1F9 JUMP JUMPDEST DUP1 PUSH4 0x6B8FF574 EQ PUSH2 0x591 JUMPI DUP1 PUSH4 0x700D9EF7 EQ PUSH2 0x5CE JUMPI DUP1 PUSH4 0x703849D9 EQ PUSH2 0x5F7 JUMPI DUP1 PUSH4 0x85FAE602 EQ PUSH2 0x622 JUMPI PUSH2 0x1F9 JUMP JUMPDEST DUP1 PUSH4 0x3FA3AB26 GT PUSH2 0x190 JUMPI DUP1 PUSH4 0x59FB49F9 GT PUSH2 0x15F JUMPI DUP1 PUSH4 0x59FB49F9 EQ PUSH2 0x46A JUMPI DUP1 PUSH4 0x5C622A0E EQ PUSH2 0x4AF JUMPI DUP1 PUSH4 0x5D996701 EQ PUSH2 0x4EC JUMPI DUP1 PUSH4 0x62584FFE EQ PUSH2 0x529 JUMPI DUP1 PUSH4 0x6833F200 EQ PUSH2 0x554 JUMPI PUSH2 0x1F9 JUMP JUMPDEST DUP1 PUSH4 0x3FA3AB26 EQ PUSH2 0x387 JUMPI DUP1 PUSH4 0x561C865B EQ PUSH2 0x3C7 JUMPI DUP1 PUSH4 0x575C2887 EQ PUSH2 0x3F0 JUMPI DUP1 PUSH4 0x5998F775 EQ PUSH2 0x42D JUMPI PUSH2 0x1F9 JUMP JUMPDEST DUP1 PUSH4 0x2813D19D GT PUSH2 0x1CC JUMPI DUP1 PUSH4 0x2813D19D EQ PUSH2 0x2BE JUMPI DUP1 PUSH4 0x2DD0B640 EQ PUSH2 0x2FE JUMPI DUP1 PUSH4 0x302DF083 EQ PUSH2 0x32E JUMPI DUP1 PUSH4 0x34FB36C8 EQ PUSH2 0x36B JUMPI PUSH2 0x1F9 JUMP JUMPDEST DUP1 PUSH4 0x386660A EQ PUSH2 0x1FE JUMPI DUP1 PUSH4 0x1A1FC3A0 EQ PUSH2 0x23B JUMPI DUP1 PUSH4 0x23192ED4 EQ PUSH2 0x264 JUMPI DUP1 PUSH4 0x267B63CB EQ PUSH2 0x2A2 JUMPI JUMPDEST PUSH1 0x0 DUP1 REVERT JUMPDEST CALLVALUE DUP1 ISZERO PUSH2 0x20A JUMPI PUSH1 0x0 DUP1 REVERT JUMPDEST POP PUSH2 0x225 PUSH1 0x4 DUP1 CALLDATASIZE SUB DUP2 ADD SWAP1 PUSH2 0x220 SWAP2 SWAP1 PUSH2 0x2D16 JUMP JUMPDEST PUSH2 0x8CF JUMP JUMPDEST PUSH1 0x40 MLOAD PUSH2 0x232 SWAP2 SWAP1 PUSH2 0x2D52 JUMP JUMPDEST PUSH1 0x40 MLOAD DUP1 SWAP2 SUB SWAP1 RETURN JUMPDEST CALLVALUE DUP1 ISZERO PUSH2 0x247 JUMPI PUSH1 0x0 DUP1 REVERT JUMPDEST POP PUSH2 0x262 PUSH1 0x4 DUP1 CALLDATASIZE SUB DUP2 ADD SWAP1 PUSH2 0x25D SWAP2 SWAP1 PUSH2 0x2D6D JUMP JUMPDEST PUSH2 0x8EF JUMP JUMPDEST STOP JUMPDEST CALLVALUE DUP1 ISZERO PUSH2 0x270 JUMPI PUSH1 0x0 DUP1 REVERT JUMPDEST POP PUSH2 0x28B PUSH1 0x4 DUP1 CALLDATASIZE SUB DUP2 ADD SWAP1 PUSH2 0x286 SWAP2 SWAP1 PUSH2 0x2EF3 JUMP JUMPDEST PUSH2 0x911 JUMP JUMPDEST PUSH1 0x40 MLOAD PUSH2 0x299 SWAP3 SWAP2 SWAP1 PUSH2 0x2FAD JUMP JUMPDEST PUSH1 0x40 MLOAD DUP1 SWAP2 SUB SWAP1 RETURN JUMPDEST PUSH2 0x2BC PUSH1 0x4 DUP1 CALLDATASIZE SUB DUP2 ADD SWAP1 PUSH2 0x2B7 SWAP2 SWAP1 PUSH2 0x3077 JUMP JUMPDEST PUSH2 0x9DC JUMP JUMPDEST STOP JUMPDEST CALLVALUE DUP1 ISZERO PUSH2 0x2CA JUMPI PUSH1 0x0 DUP1 REVERT JUMPDEST POP PUSH2 0x2E5 PUSH1 0x4 DUP1 CALLDATASIZE SUB DUP2 ADD SWAP1 PUSH2 0x2E0 SWAP2 SWAP1 PUSH2 0x2D16 JUMP JUMPDEST PUSH2 0xFEB JUMP JUMPDEST PUSH1 0x40 MLOAD PUSH2 0x2F5 SWAP5 SWAP4 SWAP3 SWAP2 SWAP1 PUSH2 0x3218 JUMP JUMPDEST PUSH1 0x40 MLOAD DUP1 SWAP2 SUB SWAP1 RETURN JUMPDEST PUSH2 0x318 PUSH1 0x4 DUP1 CALLDATASIZE SUB DUP2 ADD SWAP1 PUSH2 0x313 SWAP2 SWAP1 PUSH2 0x3289 JUMP JUMPDEST PUSH2 0x10C3 JUMP JUMPDEST PUSH1 0x40 MLOAD PUSH2 0x325 SWAP2 SWAP1 PUSH2 0x2D52 JUMP JUMPDEST PUSH1 0x40 MLOAD DUP1 SWAP2 SUB SWAP1 RETURN JUMPDEST CALLVALUE DUP1 ISZERO PUSH2 0x33A JUMPI PUSH1 0x0 DUP1 REVERT JUMPDEST POP PUSH2 0x355 PUSH1 0x4 DUP1 CALLDATASIZE SUB DUP2 ADD SWAP1 PUSH2 0x350 SWAP2 SWAP1 PUSH2 0x2D16 JUMP JUMPDEST PUSH2 0x1216 JUMP JUMPDEST PUSH1 0x40 MLOAD PUSH2 0x362 SWAP2 SWAP1 PUSH2 0x2D52 JUMP JUMPDEST PUSH1 0x40 MLOAD DUP1 SWAP2 SUB SWAP1 RETURN JUMPDEST PUSH2 0x385 PUSH1 0x4 DUP1 CALLDATASIZE SUB DUP2 ADD SWAP1 PUSH2 0x380 SWAP2 SWAP1 PUSH2 0x3316 JUMP JUMPDEST PUSH2 0x1239 JUMP JUMPDEST STOP JUMPDEST CALLVALUE DUP1 ISZERO PUSH2 0x393 JUMPI PUSH1 0x0 DUP1 REVERT JUMPDEST POP PUSH2 0x3AE PUSH1 0x4 DUP1 CALLDATASIZE SUB DUP2 ADD SWAP1 PUSH2 0x3A9 SWAP2 SWAP1 PUSH2 0x2D16 JUMP JUMPDEST PUSH2 0x147C JUMP JUMPDEST PUSH1 0x40 MLOAD PUSH2 0x3BE SWAP5 SWAP4 SWAP3 SWAP2 SWAP1 PUSH2 0x3399 JUMP JUMPDEST PUSH1 0x40 MLOAD DUP1 SWAP2 SUB SWAP1 RETURN JUMPDEST CALLVALUE DUP1 ISZERO PUSH2 0x3D3 JUMPI PUSH1 0x0 DUP1 REVERT JUMPDEST POP PUSH2 0x3EE PUSH1 0x4 DUP1 CALLDATASIZE SUB DUP2 ADD SWAP1 PUSH2 0x3E9 SWAP2 SWAP1 PUSH2 0x33DE JUMP JUMPDEST PUSH2 0x14AC JUMP JUMPDEST STOP JUMPDEST CALLVALUE DUP1 ISZERO PUSH2 0x3FC JUMPI PUSH1 0x0 DUP1 REVERT JUMPDEST POP PUSH2 0x417 PUSH1 0x4 DUP1 CALLDATASIZE SUB DUP2 ADD SWAP1 PUSH2 0x412 SWAP2 SWAP1 PUSH2 0x2D16 JUMP JUMPDEST PUSH2 0x16CA JUMP JUMPDEST PUSH1 0x40 MLOAD PUSH2 0x424 SWAP2 SWAP1 PUSH2 0x2D52 JUMP JUMPDEST PUSH1 0x40 MLOAD DUP1 SWAP2 SUB SWAP1 RETURN JUMPDEST CALLVALUE DUP1 ISZERO PUSH2 0x439 JUMPI PUSH1 0x0 DUP1 REVERT JUMPDEST POP PUSH2 0x454 PUSH1 0x4 DUP1 CALLDATASIZE SUB DUP2 ADD SWAP1 PUSH2 0x44F SWAP2 SWAP1 PUSH2 0x2D16 JUMP JUMPDEST PUSH2 0x170B JUMP JUMPDEST PUSH1 0x40 MLOAD PUSH2 0x461 SWAP2 SWAP1 PUSH2 0x2D52 JUMP JUMPDEST PUSH1 0x40 MLOAD DUP1 SWAP2 SUB SWAP1 RETURN JUMPDEST CALLVALUE DUP1 ISZERO PUSH2 0x476 JUMPI PUSH1 0x0 DUP1 REVERT JUMPDEST POP PUSH2 0x491 PUSH1 0x4 DUP1 CALLDATASIZE SUB DUP2 ADD SWAP1 PUSH2 0x48C SWAP2 SWAP1 PUSH2 0x2D16 JUMP JUMPDEST PUSH2 0x172B JUMP JUMPDEST PUSH1 0x40 MLOAD PUSH2 0x4A6 SWAP10 SWAP9 SWAP8 SWAP7 SWAP6 SWAP5 SWAP4 SWAP3 SWAP2 SWAP1 PUSH2 0x3554 JUMP JUMPDEST PUSH1 0x40 MLOAD DUP1 SWAP2 SUB SWAP1 RETURN JUMPDEST CALLVALUE DUP1 ISZERO PUSH2 0x4BB JUMPI PUSH1 0x0 DUP1 REVERT JUMPDEST POP PUSH2 0x4D6 PUSH1 0x4 DUP1 CALLDATASIZE SUB DUP2 ADD SWAP1 PUSH2 0x4D1 SWAP2 SWAP1 PUSH2 0x2D16 JUMP JUMPDEST PUSH2 0x17C5 JUMP JUMPDEST PUSH1 0x40 MLOAD PUSH2 0x4E3 SWAP2 SWAP1 PUSH2 0x35E4 JUMP JUMPDEST PUSH1 0x40 MLOAD DUP1 SWAP2 SUB SWAP1 RETURN JUMPDEST CALLVALUE DUP1 ISZERO PUSH2 0x4F8 JUMPI PUSH1 0x0 DUP1 REVERT JUMPDEST POP PUSH2 0x513 PUSH1 0x4 DUP1 CALLDATASIZE SUB DUP2 ADD SWAP1 PUSH2 0x50E SWAP2 SWAP1 PUSH2 0x2D6D JUMP JUMPDEST PUSH2 0x17F2 JUMP JUMPDEST PUSH1 0x40 MLOAD PUSH2 0x520 SWAP2 SWAP1 PUSH2 0x3647 JUMP JUMPDEST PUSH1 0x40 MLOAD DUP1 SWAP2 SUB SWAP1 RETURN JUMPDEST CALLVALUE DUP1 ISZERO PUSH2 0x535 JUMPI PUSH1 0x0 DUP1 REVERT JUMPDEST POP PUSH2 0x53E PUSH2 0x1B45 JUMP JUMPDEST PUSH1 0x40 MLOAD PUSH2 0x54B SWAP2 SWAP1 PUSH2 0x2D52 JUMP JUMPDEST PUSH1 0x40 MLOAD DUP1 SWAP2 SUB SWAP1 RETURN JUMPDEST CALLVALUE DUP1 ISZERO PUSH2 0x560 JUMPI PUSH1 0x0 DUP1 REVERT JUMPDEST POP PUSH2 0x57B PUSH1 0x4 DUP1 CALLDATASIZE SUB DUP2 ADD SWAP1 PUSH2 0x576 SWAP2 SWAP1 PUSH2 0x2D16 JUMP JUMPDEST PUSH2 0x1B4F JUMP JUMPDEST PUSH1 0x40 MLOAD PUSH2 0x588 SWAP2 SWAP1 PUSH2 0x2D52 JUMP JUMPDEST PUSH1 0x40 MLOAD DUP1 SWAP2 SUB SWAP1 RETURN JUMPDEST CALLVALUE DUP1 ISZERO PUSH2 0x59D JUMPI PUSH1 0x0 DUP1 REVERT JUMPDEST POP PUSH2 0x5B8 PUSH1 0x4 DUP1 CALLDATASIZE SUB DUP2 ADD SWAP1 PUSH2 0x5B3 SWAP2 SWAP1 PUSH2 0x2D16 JUMP JUMPDEST PUSH2 0x1B6F JUMP JUMPDEST PUSH1 0x40 MLOAD PUSH2 0x5C5 SWAP2 SWAP1 PUSH2 0x3662 JUMP JUMPDEST PUSH1 0x40 MLOAD DUP1 SWAP2 SUB SWAP1 RETURN JUMPDEST CALLVALUE DUP1 ISZERO PUSH2 0x5DA JUMPI PUSH1 0x0 DUP1 REVERT JUMPDEST POP PUSH2 0x5F5 PUSH1 0x4 DUP1 CALLDATASIZE SUB DUP2 ADD SWAP1 PUSH2 0x5F0 SWAP2 SWAP1 PUSH2 0x3684 JUMP JUMPDEST PUSH2 0x1C5D JUMP JUMPDEST STOP JUMPDEST CALLVALUE DUP1 ISZERO PUSH2 0x603 JUMPI PUSH1 0x0 DUP1 REVERT JUMPDEST POP PUSH2 0x60C PUSH2 0x1D43 JUMP JUMPDEST PUSH1 0x40 MLOAD PUSH2 0x619 SWAP2 SWAP1 PUSH2 0x2D52 JUMP JUMPDEST PUSH1 0x40 MLOAD DUP1 SWAP2 SUB SWAP1 RETURN JUMPDEST CALLVALUE DUP1 ISZERO PUSH2 0x62E JUMPI PUSH1 0x0 DUP1 REVERT JUMPDEST POP PUSH2 0x649 PUSH1 0x4 DUP1 CALLDATASIZE SUB DUP2 ADD SWAP1 PUSH2 0x644 SWAP2 SWAP1 PUSH2 0x2D16 JUMP JUMPDEST PUSH2 0x1D49 JUMP JUMPDEST PUSH1 0x40 MLOAD PUSH2 0x656 SWAP2 SWAP1 PUSH2 0x38A7 JUMP JUMPDEST PUSH1 0x40 MLOAD DUP1 SWAP2 SUB SWAP1 RETURN JUMPDEST CALLVALUE DUP1 ISZERO PUSH2 0x66B JUMPI PUSH1 0x0 DUP1 REVERT JUMPDEST POP PUSH2 0x674 PUSH2 0x1E65 JUMP JUMPDEST PUSH1 0x40 MLOAD PUSH2 0x681 SWAP2 SWAP1 PUSH2 0x2D52 JUMP JUMPDEST PUSH1 0x40 MLOAD DUP1 SWAP2 SUB SWAP1 RETURN JUMPDEST PUSH2 0x6A4 PUSH1 0x4 DUP1 CALLDATASIZE SUB DUP2 ADD SWAP1 PUSH2 0x69F SWAP2 SWAP1 PUSH2 0x38C3 JUMP JUMPDEST PUSH2 0x1E6B JUMP JUMPDEST PUSH1 0x40 MLOAD PUSH2 0x6B1 SWAP2 SWAP1 PUSH2 0x2D52 JUMP JUMPDEST PUSH1 0x40 MLOAD DUP1 SWAP2 SUB SWAP1 RETURN JUMPDEST CALLVALUE DUP1 ISZERO PUSH2 0x6C6 JUMPI PUSH1 0x0 DUP1 REVERT JUMPDEST POP PUSH2 0x6E1 PUSH1 0x4 DUP1 CALLDATASIZE SUB DUP2 ADD SWAP1 PUSH2 0x6DC SWAP2 SWAP1 PUSH2 0x3931 JUMP JUMPDEST PUSH2 0x1F57 JUMP JUMPDEST STOP JUMPDEST CALLVALUE DUP1 ISZERO PUSH2 0x6EF JUMPI PUSH1 0x0 DUP1 REVERT JUMPDEST POP PUSH2 0x70A PUSH1 0x4 DUP1 CALLDATASIZE SUB DUP2 ADD SWAP1 PUSH2 0x705 SWAP2 SWAP1 PUSH2 0x2D16 JUMP JUMPDEST PUSH2 0x1F99 JUMP JUMPDEST PUSH1 0x40 MLOAD PUSH2 0x717 SWAP2 SWAP1 PUSH2 0x3971 JUMP JUMPDEST PUSH1 0x40 MLOAD DUP1 SWAP2 SUB SWAP1 RETURN JUMPDEST CALLVALUE DUP1 ISZERO PUSH2 0x72C JUMPI PUSH1 0x0 DUP1 REVERT JUMPDEST POP PUSH2 0x747 PUSH1 0x4 DUP1 CALLDATASIZE SUB DUP2 ADD SWAP1 PUSH2 0x742 SWAP2 SWAP1 PUSH2 0x2D16 JUMP JUMPDEST PUSH2 0x201F JUMP JUMPDEST PUSH1 0x40 MLOAD PUSH2 0x754 SWAP2 SWAP1 PUSH2 0x2D52 JUMP JUMPDEST PUSH1 0x40 MLOAD DUP1 SWAP2 SUB SWAP1 RETURN JUMPDEST CALLVALUE DUP1 ISZERO PUSH2 0x769 JUMPI PUSH1 0x0 DUP1 REVERT JUMPDEST POP PUSH2 0x784 PUSH1 0x4 DUP1 CALLDATASIZE SUB DUP2 ADD SWAP1 PUSH2 0x77F SWAP2 SWAP1 PUSH2 0x2D6D JUMP JUMPDEST PUSH2 0x203F JUMP JUMPDEST STOP JUMPDEST CALLVALUE DUP1 ISZERO PUSH2 0x792 JUMPI PUSH1 0x0 DUP1 REVERT JUMPDEST POP PUSH2 0x7AD PUSH1 0x4 DUP1 CALLDATASIZE SUB DUP2 ADD SWAP1 PUSH2 0x7A8 SWAP2 SWAP1 PUSH2 0x2D16 JUMP JUMPDEST PUSH2 0x20B7 JUMP JUMPDEST PUSH1 0x40 MLOAD PUSH2 0x7BA SWAP2 SWAP1 PUSH2 0x2D52 JUMP JUMPDEST PUSH1 0x40 MLOAD DUP1 SWAP2 SUB SWAP1 RETURN JUMPDEST CALLVALUE DUP1 ISZERO PUSH2 0x7CF JUMPI PUSH1 0x0 DUP1 REVERT JUMPDEST POP PUSH2 0x7EA PUSH1 0x4 DUP1 CALLDATASIZE SUB DUP2 ADD SWAP1 PUSH2 0x7E5 SWAP2 SWAP1 PUSH2 0x2D16 JUMP JUMPDEST PUSH2 0x211D JUMP JUMPDEST STOP JUMPDEST CALLVALUE DUP1 ISZERO PUSH2 0x7F8 JUMPI PUSH1 0x0 DUP1 REVERT JUMPDEST POP PUSH2 0x813 PUSH1 0x4 DUP1 CALLDATASIZE SUB DUP2 ADD SWAP1 PUSH2 0x80E SWAP2 SWAP1 PUSH2 0x33DE JUMP JUMPDEST PUSH2 0x2748 JUMP JUMPDEST STOP JUMPDEST CALLVALUE DUP1 ISZERO PUSH2 0x821 JUMPI PUSH1 0x0 DUP1 REVERT JUMPDEST POP PUSH2 0x83C PUSH1 0x4 DUP1 CALLDATASIZE SUB DUP2 ADD SWAP1 PUSH2 0x837 SWAP2 SWAP1 PUSH2 0x2D16 JUMP JUMPDEST PUSH2 0x2A60 JUMP JUMPDEST STOP JUMPDEST CALLVALUE DUP1 ISZERO PUSH2 0x84A JUMPI PUSH1 0x0 DUP1 REVERT JUMPDEST POP PUSH2 0x865 PUSH1 0x4 DUP1 CALLDATASIZE SUB DUP2 ADD SWAP1 PUSH2 0x860 SWAP2 SWAP1 PUSH2 0x398C JUMP JUMPDEST PUSH2 0x2BA7 JUMP JUMPDEST PUSH1 0x40 MLOAD PUSH2 0x872 SWAP2 SWAP1 PUSH2 0x2D52 JUMP JUMPDEST PUSH1 0x40 MLOAD DUP1 SWAP2 SUB SWAP1 RETURN JUMPDEST CALLVALUE DUP1 ISZERO PUSH2 0x887 JUMPI PUSH1 0x0 DUP1 REVERT JUMPDEST POP PUSH2 0x8A2 PUSH1 0x4 DUP1 CALLDATASIZE SUB DUP2 ADD SWAP1 PUSH2 0x89D SWAP2 SWAP1 PUSH2 0x2D16 JUMP JUMPDEST PUSH2 0x2C0C JUMP JUMPDEST PUSH1 0x40 MLOAD PUSH2 0x8AF SWAP2 SWAP1 PUSH2 0x2D52 JUMP JUMPDEST PUSH1 0x40 MLOAD DUP1 SWAP2 SUB SWAP1 RETURN JUMPDEST CALLVALUE DUP1 ISZERO PUSH2 0x8C4 JUMPI PUSH1 0x0 DUP1 REVERT JUMPDEST POP PUSH2 0x8CD PUSH2 0x2C2C JUMP JUMPDEST STOP JUMPDEST PUSH1 0x0 PUSH1 0x1 PUSH1 0x0 DUP4 DUP2 MSTORE PUSH1 0x20 ADD SWAP1 DUP2 MSTORE PUSH1 0x20 ADD PUSH1 0x0 KECCAK256 PUSH1 0x9 ADD SLOAD SWAP1 POP SWAP2 SWAP1 POP JUMP JUMPDEST DUP2 PUSH1 0x1 PUSH1 0x0 DUP4 DUP2 MSTORE PUSH1 0x20 ADD SWAP1 DUP2 MSTORE PUSH1 0x20 ADD PUSH1 0x0 KECCAK256 PUSH1 0x2 ADD PUSH1 0x1 ADD DUP2 SWAP1 SSTORE POP POP POP JUMP JUMPDEST PUSH1 0x0 DUP1 PUSH1 0x0 PUSH1 0x8 PUSH1 0x0 DUP8 DUP2 MSTORE PUSH1 0x20 ADD SWAP1 DUP2 MSTORE PUSH1 0x20 ADD PUSH1 0x0 KECCAK256 PUSH1 0x5 ADD PUSH1 0x1 DUP2 PUSH1 0x1 DUP2 SLOAD ADD DUP1 DUP3 SSTORE DUP1 SWAP2 POP POP SUB SWAP1 PUSH1 0x0 MSTORE PUSH1 0x20 PUSH1 0x0 KECCAK256 SWAP1 PUSH1 0x6 MUL ADD SWAP1 POP PUSH1 0x6 PUSH1 0x0 DUP2 SLOAD DUP1 SWAP3 SWAP2 SWAP1 PUSH2 0x95F SWAP1 PUSH2 0x3A22 JUMP JUMPDEST SWAP2 SWAP1 POP SSTORE POP PUSH1 0x6 SLOAD DUP2 PUSH1 0x0 ADD DUP2 SWAP1 SSTORE POP DUP7 DUP2 PUSH1 0x1 ADD DUP2 SWAP1 SSTORE POP DUP5 DUP2 PUSH1 0x2 ADD SWAP1 DUP2 PUSH2 0x989 SWAP2 SWAP1 PUSH2 0x3C76 JUMP JUMPDEST POP DUP4 DUP2 PUSH1 0x3 ADD SWAP1 DUP2 PUSH2 0x99B SWAP2 SWAP1 PUSH2 0x3C76 JUMP JUMPDEST POP PUSH1 0x2 DUP2 PUSH1 0x4 ADD PUSH1 0x0 PUSH2 0x100 EXP DUP2 SLOAD DUP2 PUSH1 0xFF MUL NOT AND SWAP1 DUP4 PUSH1 0x2 DUP2 GT ISZERO PUSH2 0x9C4 JUMPI PUSH2 0x9C3 PUSH2 0x3495 JUMP JUMPDEST JUMPDEST MUL OR SWAP1 SSTORE POP PUSH1 0x1 PUSH1 0x6 SLOAD SWAP3 POP SWAP3 POP POP SWAP5 POP SWAP5 SWAP3 POP POP POP JUMP JUMPDEST PUSH1 0x3 PUSH1 0x5 DUP2 GT ISZERO PUSH2 0x9F0 JUMPI PUSH2 0x9EF PUSH2 0x3495 JUMP JUMPDEST JUMPDEST PUSH1 0x1 PUSH1 0x0 DUP9 DUP2 MSTORE PUSH1 0x20 ADD SWAP1 DUP2 MSTORE PUSH1 0x20 ADD PUSH1 0x0 KECCAK256 PUSH1 0x8 ADD PUSH1 0x1 SWAP1 SLOAD SWAP1 PUSH2 0x100 EXP SWAP1 DIV PUSH1 0xFF AND PUSH1 0x5 DUP2 GT ISZERO PUSH2 0xA26 JUMPI PUSH2 0xA25 PUSH2 0x3495 JUMP JUMPDEST JUMPDEST EQ PUSH2 0xA30 JUMPI PUSH1 0x0 DUP1 REVERT JUMPDEST TIMESTAMP PUSH3 0x76A700 PUSH1 0x1 PUSH1 0x0 DUP10 DUP2 MSTORE PUSH1 0x20 ADD SWAP1 DUP2 MSTORE PUSH1 0x20 ADD PUSH1 0x0 KECCAK256 PUSH1 0x9 ADD SLOAD PUSH2 0xA56 SWAP2 SWAP1 PUSH2 0x3D48 JUMP JUMPDEST LT ISZERO PUSH2 0xA61 JUMPI PUSH1 0x0 DUP1 REVERT JUMPDEST DUP2 PUSH1 0x40 MLOAD PUSH1 0x20 ADD PUSH2 0xA72 SWAP2 SWAP1 PUSH2 0x3DB8 JUMP JUMPDEST PUSH1 0x40 MLOAD PUSH1 0x20 DUP2 DUP4 SUB SUB DUP2 MSTORE SWAP1 PUSH1 0x40 MSTORE DUP1 MLOAD SWAP1 PUSH1 0x20 ADD KECCAK256 PUSH1 0x4 PUSH1 0x0 SWAP1 SLOAD SWAP1 PUSH2 0x100 EXP SWAP1 DIV PUSH20 0xFFFFFFFFFFFFFFFFFFFFFFFFFFFFFFFFFFFFFFFF AND PUSH20 0xFFFFFFFFFFFFFFFFFFFFFFFFFFFFFFFFFFFFFFFF AND PUSH4 0xF29A6F44 DUP6 PUSH1 0x40 MLOAD DUP3 PUSH4 0xFFFFFFFF AND PUSH1 0xE0 SHL DUP2 MSTORE PUSH1 0x4 ADD PUSH2 0xAE3 SWAP2 SWAP1 PUSH2 0x3E24 JUMP JUMPDEST PUSH1 0x0 PUSH1 0x40 MLOAD DUP1 DUP4 SUB DUP2 DUP7 GAS STATICCALL ISZERO DUP1 ISZERO PUSH2 0xB00 JUMPI RETURNDATASIZE PUSH1 0x0 DUP1 RETURNDATACOPY RETURNDATASIZE PUSH1 0x0 REVERT JUMPDEST POP POP POP POP PUSH1 0x40 MLOAD RETURNDATASIZE PUSH1 0x0 DUP3 RETURNDATACOPY RETURNDATASIZE PUSH1 0x1F NOT PUSH1 0x1F DUP3 ADD AND DUP3 ADD DUP1 PUSH1 0x40 MSTORE POP DUP2 ADD SWAP1 PUSH2 0xB29 SWAP2 SWAP1 PUSH2 0x3EB6 JUMP JUMPDEST PUSH1 0x40 MLOAD PUSH1 0x20 ADD PUSH2 0xB39 SWAP2 SWAP1 PUSH2 0x3DB8 JUMP JUMPDEST PUSH1 0x40 MLOAD PUSH1 0x20 DUP2 DUP4 SUB SUB DUP2 MSTORE SWAP1 PUSH1 0x40 MSTORE DUP1 MLOAD SWAP1 PUSH1 0x20 ADD KECCAK256 EQ DUP1 ISZERO PUSH2 0xC47 JUMPI POP DUP1 PUSH1 0x40 MLOAD PUSH1 0x20 ADD PUSH2 0xB68 SWAP2 SWAP1 PUSH2 0x3DB8 JUMP JUMPDEST PUSH1 0x40 MLOAD PUSH1 0x20 DUP2 DUP4 SUB SUB DUP2 MSTORE SWAP1 PUSH1 0x40 MSTORE DUP1 MLOAD SWAP1 PUSH1 0x20 ADD KECCAK256 PUSH1 0x4 PUSH1 0x0 SWAP1 SLOAD SWAP1 PUSH2 0x100 EXP SWAP1 DIV PUSH20 0xFFFFFFFFFFFFFFFFFFFFFFFFFFFFFFFFFFFFFFFF AND PUSH20 0xFFFFFFFFFFFFFFFFFFFFFFFFFFFFFFFFFFFFFFFF AND PUSH4 0xD4C85366 DUP6 PUSH1 0x40 MLOAD DUP3 PUSH4 0xFFFFFFFF AND PUSH1 0xE0 SHL DUP2 MSTORE PUSH1 0x4 ADD PUSH2 0xBD9 SWAP2 SWAP1 PUSH2 0x3E24 JUMP JUMPDEST PUSH1 0x0 PUSH1 0x40 MLOAD DUP1 DUP4 SUB DUP2 DUP7 GAS STATICCALL ISZERO DUP1 ISZERO PUSH2 0xBF6 JUMPI RETURNDATASIZE PUSH1 0x0 DUP1 RETURNDATACOPY RETURNDATASIZE PUSH1 0x0 REVERT JUMPDEST POP POP POP POP PUSH1 0x40 MLOAD RETURNDATASIZE PUSH1 0x0 DUP3 RETURNDATACOPY RETURNDATASIZE PUSH1 0x1F NOT PUSH1 0x1F DUP3 ADD AND DUP3 ADD DUP1 PUSH1 0x40 MSTORE POP DUP2 ADD SWAP1 PUSH2 0xC1F SWAP2 SWAP1 PUSH2 0x3EB6 JUMP JUMPDEST PUSH1 0x40 MLOAD PUSH1 0x20 ADD PUSH2 0xC2F SWAP2 SWAP1 PUSH2 0x3DB8 JUMP JUMPDEST PUSH1 0x40 MLOAD PUSH1 0x20 DUP2 DUP4 SUB SUB DUP2 MSTORE SWAP1 PUSH1 0x40 MSTORE DUP1 MLOAD SWAP1 PUSH1 0x20 ADD KECCAK256 EQ JUMPDEST PUSH2 0xC86 JUMPI PUSH1 0x40 MLOAD PUSH32 0x8C379A000000000000000000000000000000000000000000000000000000000 DUP2 MSTORE PUSH1 0x4 ADD PUSH2 0xC7D SWAP1 PUSH2 0x3F4B JUMP JUMPDEST PUSH1 0x40 MLOAD DUP1 SWAP2 SUB SWAP1 REVERT JUMPDEST PUSH1 0x2 DUP1 DUP2 GT ISZERO PUSH2 0xC99 JUMPI PUSH2 0xC98 PUSH2 0x3495 JUMP JUMPDEST JUMPDEST PUSH1 0x4 PUSH1 0x0 SWAP1 SLOAD SWAP1 PUSH2 0x100 EXP SWAP1 DIV PUSH20 0xFFFFFFFFFFFFFFFFFFFFFFFFFFFFFFFFFFFFFFFF AND PUSH20 0xFFFFFFFFFFFFFFFFFFFFFFFFFFFFFFFFFFFFFFFF AND PUSH4 0x29EFB4A9 DUP6 PUSH1 0x40 MLOAD DUP3 PUSH4 0xFFFFFFFF AND PUSH1 0xE0 SHL DUP2 MSTORE PUSH1 0x4 ADD PUSH2 0xCF4 SWAP2 SWAP1 PUSH2 0x3E24 JUMP JUMPDEST PUSH1 0x20 PUSH1 0x40 MLOAD DUP1 DUP4 SUB DUP2 DUP7 GAS STATICCALL ISZERO DUP1 ISZERO PUSH2 0xD11 JUMPI RETURNDATASIZE PUSH1 0x0 DUP1 RETURNDATACOPY RETURNDATASIZE PUSH1 0x0 REVERT JUMPDEST POP POP POP POP PUSH1 0x40 MLOAD RETURNDATASIZE PUSH1 0x1F NOT PUSH1 0x1F DUP3 ADD AND DUP3 ADD DUP1 PUSH1 0x40 MSTORE POP DUP2 ADD SWAP1 PUSH2 0xD35 SWAP2 SWAP1 PUSH2 0x3F90 JUMP JUMPDEST PUSH1 0x2 DUP2 GT ISZERO PUSH2 0xD47 JUMPI PUSH2 0xD46 PUSH2 0x3495 JUMP JUMPDEST JUMPDEST SUB PUSH2 0xD7F JUMPI TIMESTAMP PUSH4 0x3C26700 PUSH1 0x1 PUSH1 0x0 DUP10 DUP2 MSTORE PUSH1 0x20 ADD SWAP1 DUP2 MSTORE PUSH1 0x20 ADD PUSH1 0x0 KECCAK256 PUSH1 0x9 ADD SLOAD PUSH2 0xD73 SWAP2 SWAP1 PUSH2 0x3D48 JUMP JUMPDEST LT ISZERO PUSH2 0xD7E JUMPI PUSH1 0x0 DUP1 REVERT JUMPDEST JUMPDEST PUSH1 0x0 PUSH1 0x1 PUSH1 0x0 DUP9 DUP2 MSTORE PUSH1 0x20 ADD SWAP1 DUP2 MSTORE PUSH1 0x20 ADD PUSH1 0x0 KECCAK256 PUSH1 0x6 ADD SLOAD SWAP1 POP PUSH1 0x0 PUSH1 0x8 PUSH1 0x0 DUP9 DUP2 MSTORE PUSH1 0x20 ADD SWAP1 DUP2 MSTORE PUSH1 0x20 ADD PUSH1 0x0 KECCAK256 SWAP1 POP PUSH1 0x0 DUP2 PUSH1 0x2 ADD PUSH1 0x0 SWAP1 SLOAD SWAP1 PUSH2 0x100 EXP SWAP1 DIV PUSH20 0xFFFFFFFFFFFFFFFFFFFFFFFFFFFFFFFFFFFFFFFF AND SWAP1 POP DUP3 PUSH1 0x5 PUSH1 0x0 SWAP1 SLOAD SWAP1 PUSH2 0x100 EXP SWAP1 DIV PUSH20 0xFFFFFFFFFFFFFFFFFFFFFFFFFFFFFFFFFFFFFFFF AND PUSH20 0xFFFFFFFFFFFFFFFFFFFFFFFFFFFFFFFFFFFFFFFF AND PUSH4 0xB9B7650A DUP4 PUSH1 0x40 MLOAD DUP3 PUSH4 0xFFFFFFFF AND PUSH1 0xE0 SHL DUP2 MSTORE PUSH1 0x4 ADD PUSH2 0xE36 SWAP2 SWAP1 PUSH2 0x3971 JUMP JUMPDEST PUSH1 0x20 PUSH1 0x40 MLOAD DUP1 DUP4 SUB DUP2 DUP7 GAS STATICCALL ISZERO DUP1 ISZERO PUSH2 0xE53 JUMPI RETURNDATASIZE PUSH1 0x0 DUP1 RETURNDATACOPY RETURNDATASIZE PUSH1 0x0 REVERT JUMPDEST POP POP POP POP PUSH1 0x40 MLOAD RETURNDATASIZE PUSH1 0x1F NOT PUSH1 0x1F DUP3 ADD AND DUP3 ADD DUP1 PUSH1 0x40 MSTORE POP DUP2 ADD SWAP1 PUSH2 0xE77 SWAP2 SWAP1 PUSH2 0x3FD2 JUMP JUMPDEST LT ISZERO PUSH2 0xEB8 JUMPI PUSH1 0x40 MLOAD PUSH32 0x8C379A000000000000000000000000000000000000000000000000000000000 DUP2 MSTORE PUSH1 0x4 ADD PUSH2 0xEAF SWAP1 PUSH2 0x404B JUMP JUMPDEST PUSH1 0x40 MLOAD DUP1 SWAP2 SUB SWAP1 REVERT JUMPDEST PUSH1 0x0 PUSH1 0x1 PUSH1 0x0 DUP12 DUP2 MSTORE PUSH1 0x20 ADD SWAP1 DUP2 MSTORE PUSH1 0x20 ADD PUSH1 0x0 KECCAK256 PUSH1 0x2 ADD PUSH1 0x1 ADD SLOAD SWAP1 POP PUSH1 0x5 PUSH1 0x0 SWAP1 SLOAD SWAP1 PUSH2 0x100 EXP SWAP1 DIV PUSH20 0xFFFFFFFFFFFFFFFFFFFFFFFFFFFFFFFFFFFFFFFF AND PUSH20 0xFFFFFFFFFFFFFFFFFFFFFFFFFFFFFFFFFFFFFFFF AND PUSH4 0x3456EA30 DUP4 DUP4 DUP8 PUSH1 0x40 MLOAD DUP5 PUSH4 0xFFFFFFFF AND PUSH1 0xE0 SHL DUP2 MSTORE PUSH1 0x4 ADD PUSH2 0xF35 SWAP4 SWAP3 SWAP2 SWAP1 PUSH2 0x406B JUMP JUMPDEST PUSH1 0x0 PUSH1 0x40 MLOAD DUP1 DUP4 SUB DUP2 PUSH1 0x0 DUP8 DUP1 EXTCODESIZE ISZERO DUP1 ISZERO PUSH2 0xF4F JUMPI PUSH1 0x0 DUP1 REVERT JUMPDEST POP GAS CALL ISZERO DUP1 ISZERO PUSH2 0xF63 JUMPI RETURNDATASIZE PUSH1 0x0 DUP1 RETURNDATACOPY RETURNDATASIZE PUSH1 0x0 REVERT JUMPDEST POP POP POP POP PUSH1 0x4 PUSH1 0x1 PUSH1 0x0 DUP13 DUP2 MSTORE PUSH1 0x20 ADD SWAP1 DUP2 MSTORE PUSH1 0x20 ADD PUSH1 0x0 KECCAK256 PUSH1 0x8 ADD PUSH1 0x1 PUSH2 0x100 EXP DUP2 SLOAD DUP2 PUSH1 0xFF MUL NOT AND SWAP1 DUP4 PUSH1 0x5 DUP2 GT ISZERO PUSH2 0xFA1 JUMPI PUSH2 0xFA0 PUSH2 0x3495 JUMP JUMPDEST JUMPDEST MUL OR SWAP1 SSTORE POP PUSH32 0xA9059CBB2AB09EB219583F4A59A5D0623ADE346D962BCD4E46B11DA047C9049B DUP2 DUP6 PUSH1 0x40 MLOAD PUSH2 0xFD7 SWAP3 SWAP2 SWAP1 PUSH2 0x40A2 JUMP JUMPDEST PUSH1 0x40 MLOAD DUP1 SWAP2 SUB SWAP1 LOG1 POP POP POP POP POP POP POP POP POP POP JUMP JUMPDEST PUSH1 0x8 PUSH1 0x20 MSTORE DUP1 PUSH1 0x0 MSTORE PUSH1 0x40 PUSH1 0x0 KECCAK256 PUSH1 0x0 SWAP2 POP SWAP1 POP DUP1 PUSH1 0x0 ADD SLOAD SWAP1 DUP1 PUSH1 0x1 ADD DUP1 SLOAD PUSH2 0x1014 SWAP1 PUSH2 0x3A99 JUMP JUMPDEST DUP1 PUSH1 0x1F ADD PUSH1 0x20 DUP1 SWAP2 DIV MUL PUSH1 0x20 ADD PUSH1 0x40 MLOAD SWAP1 DUP2 ADD PUSH1 0x40 MSTORE DUP1 SWAP3 SWAP2 SWAP1 DUP2 DUP2 MSTORE PUSH1 0x20 ADD DUP3 DUP1 SLOAD PUSH2 0x1040 SWAP1 PUSH2 0x3A99 JUMP JUMPDEST DUP1 ISZERO PUSH2 0x108D JUMPI DUP1 PUSH1 0x1F LT PUSH2 0x1062 JUMPI PUSH2 0x100 DUP1 DUP4 SLOAD DIV MUL DUP4 MSTORE SWAP2 PUSH1 0x20 ADD SWAP2 PUSH2 0x108D JUMP JUMPDEST DUP3 ADD SWAP2 SWAP1 PUSH1 0x0 MSTORE PUSH1 0x20 PUSH1 0x0 KECCAK256 SWAP1 JUMPDEST DUP2 SLOAD DUP2 MSTORE SWAP1 PUSH1 0x1 ADD SWAP1 PUSH1 0x20 ADD DUP1 DUP4 GT PUSH2 0x1070 JUMPI DUP3 SWAP1 SUB PUSH1 0x1F AND DUP3 ADD SWAP2 JUMPDEST POP POP POP POP POP SWAP1 DUP1 PUSH1 0x2 ADD PUSH1 0x0 SWAP1 SLOAD SWAP1 PUSH2 0x100 EXP SWAP1 DIV PUSH20 0xFFFFFFFFFFFFFFFFFFFFFFFFFFFFFFFFFFFFFFFF AND SWAP1 DUP1 PUSH1 0x3 ADD SLOAD SWAP1 POP DUP5 JUMP JUMPDEST PUSH1 0x0 PUSH7 0x2386F26FC10000 CALLVALUE EQ PUSH2 0x110E JUMPI PUSH1 0x40 MLOAD PUSH32 0x8C379A000000000000000000000000000000000000000000000000000000000 DUP2 MSTORE PUSH1 0x4 ADD PUSH2 0x1105 SWAP1 PUSH2 0x413D JUMP JUMPDEST PUSH1 0x40 MLOAD DUP1 SWAP2 SUB SWAP1 REVERT JUMPDEST PUSH1 0x0 DUP1 DUP2 SLOAD DUP1 SWAP3 SWAP2 SWAP1 PUSH2 0x1120 SWAP1 PUSH2 0x3A22 JUMP JUMPDEST SWAP2 SWAP1 POP SSTORE POP PUSH1 0x0 PUSH1 0x1 PUSH1 0x0 DUP1 SLOAD DUP2 MSTORE PUSH1 0x20 ADD SWAP1 DUP2 MSTORE PUSH1 0x20 ADD PUSH1 0x0 KECCAK256 SWAP1 POP PUSH1 0x3 PUSH1 0x0 DUP10 DUP2 MSTORE PUSH1 0x20 ADD SWAP1 DUP2 MSTORE PUSH1 0x20 ADD PUSH1 0x0 KECCAK256 DUP2 PUSH1 0x2 ADD PUSH1 0x0 DUP3 ADD SLOAD DUP2 PUSH1 0x0 ADD SSTORE PUSH1 0x1 DUP3 ADD SLOAD DUP2 PUSH1 0x1 ADD SSTORE PUSH1 0x2 DUP3 ADD SLOAD DUP2 PUSH1 0x2 ADD SSTORE PUSH1 0x3 DUP3 ADD SLOAD DUP2 PUSH1 0x3 ADD SSTORE SWAP1 POP POP DUP7 DUP2 PUSH1 0x1 ADD DUP2 SWAP1 SSTORE POP DUP6 DUP2 PUSH1 0x6 ADD DUP2 SWAP1 SSTORE POP PUSH1 0x0 DUP2 PUSH1 0x7 ADD DUP2 SWAP1 SSTORE POP DUP5 DUP2 PUSH1 0x8 ADD PUSH1 0x0 PUSH2 0x100 EXP DUP2 SLOAD DUP2 PUSH1 0xFF MUL NOT AND SWAP1 DUP4 PUSH1 0x1 DUP2 GT ISZERO PUSH2 0x11C2 JUMPI PUSH2 0x11C1 PUSH2 0x3495 JUMP JUMPDEST JUMPDEST MUL OR SWAP1 SSTORE POP PUSH1 0x0 DUP2 PUSH1 0x8 ADD PUSH1 0x1 PUSH2 0x100 EXP DUP2 SLOAD DUP2 PUSH1 0xFF MUL NOT AND SWAP1 DUP4 PUSH1 0x5 DUP2 GT ISZERO PUSH2 0x11EF JUMPI PUSH2 0x11EE PUSH2 0x3495 JUMP JUMPDEST JUMPDEST MUL OR SWAP1 SSTORE POP DUP4 DUP2 PUSH1 0x9 ADD DUP2 SWAP1 SSTORE POP DUP3 DUP2 PUSH1 0xA ADD DUP2 SWAP1 SSTORE POP PUSH1 0x0 SLOAD SWAP2 POP POP SWAP7 SWAP6 POP POP POP POP POP POP JUMP JUMPDEST PUSH1 0x0 PUSH1 0x1 PUSH1 0x0 DUP4 DUP2 MSTORE PUSH1 0x20 ADD SWAP1 DUP2 MSTORE PUSH1 0x20 ADD PUSH1 0x0 KECCAK256 PUSH1 0x2 ADD PUSH1 0x1 ADD SLOAD SWAP1 POP SWAP2 SWAP1 POP JUMP JUMPDEST DUP3 PUSH1 0x7 SLOAD DUP2 LT PUSH2 0x127E JUMPI PUSH1 0x40 MLOAD PUSH32 0x8C379A000000000000000000000000000000000000000000000000000000000 DUP2 MSTORE PUSH1 0x4 ADD PUSH2 0x1275 SWAP1 PUSH2 0x41A9 JUMP JUMPDEST PUSH1 0x40 MLOAD DUP1 SWAP2 SUB SWAP1 REVERT JUMPDEST DUP5 DUP4 DUP1 PUSH1 0x1 PUSH1 0x0 DUP5 DUP2 MSTORE PUSH1 0x20 ADD SWAP1 DUP2 MSTORE PUSH1 0x20 ADD PUSH1 0x0 KECCAK256 PUSH1 0x2 ADD PUSH1 0x0 ADD SLOAD EQ PUSH2 0x12DB JUMPI PUSH1 0x40 MLOAD PUSH32 0x8C379A000000000000000000000000000000000000000000000000000000000 DUP2 MSTORE PUSH1 0x4 ADD PUSH2 0x12D2 SWAP1 PUSH2 0x4215 JUMP JUMPDEST PUSH1 0x40 MLOAD DUP1 SWAP2 SUB SWAP1 REVERT JUMPDEST PUSH1 0x1 DUP1 PUSH1 0x0 DUP10 DUP2 MSTORE PUSH1 0x20 ADD SWAP1 DUP2 MSTORE PUSH1 0x20 ADD PUSH1 0x0 KECCAK256 PUSH1 0x8 ADD PUSH1 0x1 PUSH2 0x100 EXP DUP2 SLOAD DUP2 PUSH1 0xFF MUL NOT AND SWAP1 DUP4 PUSH1 0x5 DUP2 GT ISZERO PUSH2 0x1314 JUMPI PUSH2 0x1313 PUSH2 0x3495 JUMP JUMPDEST JUMPDEST MUL OR SWAP1 SSTORE POP PUSH1 0x1 PUSH1 0x0 DUP9 DUP2 MSTORE PUSH1 0x20 ADD SWAP1 DUP2 MSTORE PUSH1 0x20 ADD PUSH1 0x0 KECCAK256 PUSH1 0x8 PUSH1 0x0 DUP9 DUP2 MSTORE PUSH1 0x20 ADD SWAP1 DUP2 MSTORE PUSH1 0x20 ADD PUSH1 0x0 KECCAK256 PUSH1 0x4 ADD PUSH1 0x0 DUP10 DUP2 MSTORE PUSH1 0x20 ADD SWAP1 DUP2 MSTORE PUSH1 0x20 ADD PUSH1 0x0 KECCAK256 PUSH1 0x0 DUP3 ADD SLOAD DUP2 PUSH1 0x0 ADD SSTORE PUSH1 0x1 DUP3 ADD SLOAD DUP2 PUSH1 0x1 ADD SSTORE PUSH1 0x2 DUP3 ADD DUP2 PUSH1 0x2 ADD PUSH1 0x0 DUP3 ADD SLOAD DUP2 PUSH1 0x0 ADD SSTORE PUSH1 0x1 DUP3 ADD SLOAD DUP2 PUSH1 0x1 ADD SSTORE PUSH1 0x2 DUP3 ADD SLOAD DUP2 PUSH1 0x2 ADD SSTORE PUSH1 0x3 DUP3 ADD SLOAD DUP2 PUSH1 0x3 ADD SSTORE POP POP PUSH1 0x6 DUP3 ADD SLOAD DUP2 PUSH1 0x6 ADD SSTORE PUSH1 0x7 DUP3 ADD SLOAD DUP2 PUSH1 0x7 ADD SSTORE PUSH1 0x8 DUP3 ADD PUSH1 0x0 SWAP1 SLOAD SWAP1 PUSH2 0x100 EXP SWAP1 DIV PUSH1 0xFF AND DUP2 PUSH1 0x8 ADD PUSH1 0x0 PUSH2 0x100 EXP DUP2 SLOAD DUP2 PUSH1 0xFF MUL NOT AND SWAP1 DUP4 PUSH1 0x1 DUP2 GT ISZERO PUSH2 0x13E5 JUMPI PUSH2 0x13E4 PUSH2 0x3495 JUMP JUMPDEST JUMPDEST MUL OR SWAP1 SSTORE POP PUSH1 0x8 DUP3 ADD PUSH1 0x1 SWAP1 SLOAD SWAP1 PUSH2 0x100 EXP SWAP1 DIV PUSH1 0xFF AND DUP2 PUSH1 0x8 ADD PUSH1 0x1 PUSH2 0x100 EXP DUP2 SLOAD DUP2 PUSH1 0xFF MUL NOT AND SWAP1 DUP4 PUSH1 0x5 DUP2 GT ISZERO PUSH2 0x1422 JUMPI PUSH2 0x1421 PUSH2 0x3495 JUMP JUMPDEST JUMPDEST MUL OR SWAP1 SSTORE POP PUSH1 0x9 DUP3 ADD SLOAD DUP2 PUSH1 0x9 ADD SSTORE PUSH1 0xA DUP3 ADD SLOAD DUP2 PUSH1 0xA ADD SSTORE SWAP1 POP POP PUSH1 0x8 PUSH1 0x0 DUP8 DUP2 MSTORE PUSH1 0x20 ADD SWAP1 DUP2 MSTORE PUSH1 0x20 ADD PUSH1 0x0 KECCAK256 PUSH1 0x3 ADD PUSH1 0x0 DUP2 SLOAD DUP1 SWAP3 SWAP2 SWAP1 PUSH2 0x1465 SWAP1 PUSH2 0x3A22 JUMP JUMPDEST SWAP2 SWAP1 POP SSTORE POP PUSH2 0x1473 DUP7 PUSH2 0x2A60 JUMP JUMPDEST POP POP POP POP POP POP POP JUMP JUMPDEST PUSH1 0x3 PUSH1 0x20 MSTORE DUP1 PUSH1 0x0 MSTORE PUSH1 0x40 PUSH1 0x0 KECCAK256 PUSH1 0x0 SWAP2 POP SWAP1 POP DUP1 PUSH1 0x0 ADD SLOAD SWAP1 DUP1 PUSH1 0x1 ADD SLOAD SWAP1 DUP1 PUSH1 0x2 ADD SLOAD SWAP1 DUP1 PUSH1 0x3 ADD SLOAD SWAP1 POP DUP5 JUMP JUMPDEST DUP3 DUP2 DUP1 PUSH1 0x1 PUSH1 0x0 DUP5 DUP2 MSTORE PUSH1 0x20 ADD SWAP1 DUP2 MSTORE PUSH1 0x20 ADD PUSH1 0x0 KECCAK256 PUSH1 0x2 ADD PUSH1 0x0 ADD SLOAD EQ PUSH2 0x1509 JUMPI PUSH1 0x40 MLOAD PUSH32 0x8C379A000000000000000000000000000000000000000000000000000000000 DUP2 MSTORE PUSH1 0x4 ADD PUSH2 0x1500 SWAP1 PUSH2 0x4215 JUMP JUMPDEST PUSH1 0x40 MLOAD DUP1 SWAP2 SUB SWAP1 REVERT JUMPDEST PUSH1 0x0 PUSH1 0x8 PUSH1 0x0 PUSH1 0x1 PUSH1 0x0 DUP10 DUP2 MSTORE PUSH1 0x20 ADD SWAP1 DUP2 MSTORE PUSH1 0x20 ADD PUSH1 0x0 KECCAK256 PUSH1 0x1 ADD SLOAD DUP2 MSTORE PUSH1 0x20 ADD SWAP1 DUP2 MSTORE PUSH1 0x20 ADD PUSH1 0x0 KECCAK256 PUSH1 0x2 ADD PUSH1 0x0 SWAP1 SLOAD SWAP1 PUSH2 0x100 EXP SWAP1 DIV PUSH20 0xFFFFFFFFFFFFFFFFFFFFFFFFFFFFFFFFFFFFFFFF AND SWAP1 POP PUSH1 0x5 PUSH1 0x0 SWAP1 SLOAD SWAP1 PUSH2 0x100 EXP SWAP1 DIV PUSH20 0xFFFFFFFFFFFFFFFFFFFFFFFFFFFFFFFFFFFFFFFF AND PUSH20 0xFFFFFFFFFFFFFFFFFFFFFFFFFFFFFFFFFFFFFFFF AND PUSH4 0x3456EA30 CALLER DUP4 DUP9 PUSH1 0x40 MLOAD DUP5 PUSH4 0xFFFFFFFF AND PUSH1 0xE0 SHL DUP2 MSTORE PUSH1 0x4 ADD PUSH2 0x15B9 SWAP4 SWAP3 SWAP2 SWAP1 PUSH2 0x406B JUMP JUMPDEST PUSH1 0x0 PUSH1 0x40 MLOAD DUP1 DUP4 SUB DUP2 PUSH1 0x0 DUP8 DUP1 EXTCODESIZE ISZERO DUP1 ISZERO PUSH2 0x15D3 JUMPI PUSH1 0x0 DUP1 REVERT JUMPDEST POP GAS CALL ISZERO DUP1 ISZERO PUSH2 0x15E7 JUMPI RETURNDATASIZE PUSH1 0x0 DUP1 RETURNDATACOPY RETURNDATASIZE PUSH1 0x0 REVERT JUMPDEST POP POP POP POP DUP5 PUSH1 0x1 PUSH1 0x0 DUP9 DUP2 MSTORE PUSH1 0x20 ADD SWAP1 DUP2 MSTORE PUSH1 0x20 ADD PUSH1 0x0 KECCAK256 PUSH1 0x7 ADD PUSH1 0x0 DUP3 DUP3 SLOAD PUSH2 0x1611 SWAP2 SWAP1 PUSH2 0x3D48 JUMP JUMPDEST SWAP3 POP POP DUP2 SWAP1 SSTORE POP PUSH1 0x1 PUSH1 0x0 DUP8 DUP2 MSTORE PUSH1 0x20 ADD SWAP1 DUP2 MSTORE PUSH1 0x20 ADD PUSH1 0x0 KECCAK256 PUSH1 0x6 ADD SLOAD PUSH1 0x1 PUSH1 0x0 DUP9 DUP2 MSTORE PUSH1 0x20 ADD SWAP1 DUP2 MSTORE PUSH1 0x20 ADD PUSH1 0x0 KECCAK256 PUSH1 0x7 ADD SLOAD SUB PUSH2 0x168B JUMPI PUSH1 0x3 PUSH1 0x1 PUSH1 0x0 DUP9 DUP2 MSTORE PUSH1 0x20 ADD SWAP1 DUP2 MSTORE PUSH1 0x20 ADD PUSH1 0x0 KECCAK256 PUSH1 0x8 ADD PUSH1 0x1 PUSH2 0x100 EXP DUP2 SLOAD DUP2 PUSH1 0xFF MUL NOT AND SWAP1 DUP4 PUSH1 0x5 DUP2 GT ISZERO PUSH2 0x1685 JUMPI PUSH2 0x1684 PUSH2 0x3495 JUMP JUMPDEST JUMPDEST MUL OR SWAP1 SSTORE POP JUMPDEST PUSH32 0x93E71AF69425AB98903353CC1F5235ADD61A8F2F0875DF40104A9161ECFCA332 DUP7 PUSH1 0x40 MLOAD PUSH2 0x16BA SWAP2 SWAP1 PUSH2 0x2D52 JUMP JUMPDEST PUSH1 0x40 MLOAD DUP1 SWAP2 SUB SWAP1 LOG1 POP POP POP POP POP POP JUMP JUMPDEST PUSH1 0x0 PUSH1 0x1 PUSH1 0x0 DUP4 DUP2 MSTORE PUSH1 0x20 ADD SWAP1 DUP2 MSTORE PUSH1 0x20 ADD PUSH1 0x0 KECCAK256 PUSH1 0x7 ADD SLOAD PUSH1 0x1 PUSH1 0x0 DUP5 DUP2 MSTORE PUSH1 0x20 ADD SWAP1 DUP2 MSTORE PUSH1 0x20 ADD PUSH1 0x0 KECCAK256 PUSH1 0x6 ADD SLOAD PUSH2 0x1704 SWAP2 SWAP1 PUSH2 0x4235 JUMP JUMPDEST SWAP1 POP SWAP2 SWAP1 POP JUMP JUMPDEST PUSH1 0x0 PUSH1 0x1 PUSH1 0x0 DUP4 DUP2 MSTORE PUSH1 0x20 ADD SWAP1 DUP2 MSTORE PUSH1 0x20 ADD PUSH1 0x0 KECCAK256 PUSH1 0x6 ADD SLOAD SWAP1 POP SWAP2 SWAP1 POP JUMP JUMPDEST PUSH1 0x1 PUSH1 0x20 MSTORE DUP1 PUSH1 0x0 MSTORE PUSH1 0x40 PUSH1 0x0 KECCAK256 PUSH1 0x0 SWAP2 POP SWAP1 POP DUP1 PUSH1 0x0 ADD SLOAD SWAP1 DUP1 PUSH1 0x1 ADD SLOAD SWAP1 DUP1 PUSH1 0x2 ADD PUSH1 0x40 MLOAD DUP1 PUSH1 0x80 ADD PUSH1 0x40 MSTORE SWAP1 DUP2 PUSH1 0x0 DUP3 ADD SLOAD DUP2 MSTORE PUSH1 0x20 ADD PUSH1 0x1 DUP3 ADD SLOAD DUP2 MSTORE PUSH1 0x20 ADD PUSH1 0x2 DUP3 ADD SLOAD DUP2 MSTORE PUSH1 0x20 ADD PUSH1 0x3 DUP3 ADD SLOAD DUP2 MSTORE POP POP SWAP1 DUP1 PUSH1 0x6 ADD SLOAD SWAP1 DUP1 PUSH1 0x7 ADD SLOAD SWAP1 DUP1 PUSH1 0x8 ADD PUSH1 0x0 SWAP1 SLOAD SWAP1 PUSH2 0x100 EXP SWAP1 DIV PUSH1 0xFF AND SWAP1 DUP1 PUSH1 0x8 ADD PUSH1 0x1 SWAP1 SLOAD SWAP1 PUSH2 0x100 EXP SWAP1 DIV PUSH1 0xFF AND SWAP1 DUP1 PUSH1 0x9 ADD SLOAD SWAP1 DUP1 PUSH1 0xA ADD SLOAD SWAP1 POP DUP10 JUMP JUMPDEST PUSH1 0x0 PUSH1 0x1 PUSH1 0x0 DUP4 DUP2 MSTORE PUSH1 0x20 ADD SWAP1 DUP2 MSTORE PUSH1 0x20 ADD PUSH1 0x0 KECCAK256 PUSH1 0x8 ADD PUSH1 0x1 SWAP1 SLOAD SWAP1 PUSH2 0x100 EXP SWAP1 DIV PUSH1 0xFF AND SWAP1 POP SWAP2 SWAP1 POP JUMP JUMPDEST PUSH1 0x0 DUP1 DUP3 SUB PUSH2 0x1836 JUMPI PUSH1 0x40 MLOAD PUSH32 0x8C379A000000000000000000000000000000000000000000000000000000000 DUP2 MSTORE PUSH1 0x4 ADD PUSH2 0x182D SWAP1 PUSH2 0x42B5 JUMP JUMPDEST PUSH1 0x40 MLOAD DUP1 SWAP2 SUB SWAP1 REVERT JUMPDEST PUSH1 0x0 DUP1 PUSH1 0x8 PUSH1 0x0 DUP7 DUP2 MSTORE PUSH1 0x20 ADD SWAP1 DUP2 MSTORE PUSH1 0x20 ADD PUSH1 0x0 KECCAK256 PUSH1 0x5 ADD DUP1 SLOAD DUP1 PUSH1 0x20 MUL PUSH1 0x20 ADD PUSH1 0x40 MLOAD SWAP1 DUP2 ADD PUSH1 0x40 MSTORE DUP1 SWAP3 SWAP2 SWAP1 DUP2 DUP2 MSTORE PUSH1 0x20 ADD PUSH1 0x0 SWAP1 JUMPDEST DUP3 DUP3 LT ISZERO PUSH2 0x1A1E JUMPI DUP4 DUP3 SWAP1 PUSH1 0x0 MSTORE PUSH1 0x20 PUSH1 0x0 KECCAK256 SWAP1 PUSH1 0x6 MUL ADD PUSH1 0x40 MLOAD DUP1 PUSH1 0xC0 ADD PUSH1 0x40 MSTORE SWAP1 DUP2 PUSH1 0x0 DUP3 ADD SLOAD DUP2 MSTORE PUSH1 0x20 ADD PUSH1 0x1 DUP3 ADD SLOAD DUP2 MSTORE PUSH1 0x20 ADD PUSH1 0x2 DUP3 ADD DUP1 SLOAD PUSH2 0x18B6 SWAP1 PUSH2 0x3A99 JUMP JUMPDEST DUP1 PUSH1 0x1F ADD PUSH1 0x20 DUP1 SWAP2 DIV MUL PUSH1 0x20 ADD PUSH1 0x40 MLOAD SWAP1 DUP2 ADD PUSH1 0x40 MSTORE DUP1 SWAP3 SWAP2 SWAP1 DUP2 DUP2 MSTORE PUSH1 0x20 ADD DUP3 DUP1 SLOAD PUSH2 0x18E2 SWAP1 PUSH2 0x3A99 JUMP JUMPDEST DUP1 ISZERO PUSH2 0x192F JUMPI DUP1 PUSH1 0x1F LT PUSH2 0x1904 JUMPI PUSH2 0x100 DUP1 DUP4 SLOAD DIV MUL DUP4 MSTORE SWAP2 PUSH1 0x20 ADD SWAP2 PUSH2 0x192F JUMP JUMPDEST DUP3 ADD SWAP2 SWAP1 PUSH1 0x0 MSTORE PUSH1 0x20 PUSH1 0x0 KECCAK256 SWAP1 JUMPDEST DUP2 SLOAD DUP2 MSTORE SWAP1 PUSH1 0x1 ADD SWAP1 PUSH1 0x20 ADD DUP1 DUP4 GT PUSH2 0x1912 JUMPI DUP3 SWAP1 SUB PUSH1 0x1F AND DUP3 ADD SWAP2 JUMPDEST POP POP POP POP POP DUP2 MSTORE PUSH1 0x20 ADD PUSH1 0x3 DUP3 ADD DUP1 SLOAD PUSH2 0x1948 SWAP1 PUSH2 0x3A99 JUMP JUMPDEST DUP1 PUSH1 0x1F ADD PUSH1 0x20 DUP1 SWAP2 DIV MUL PUSH1 0x20 ADD PUSH1 0x40 MLOAD SWAP1 DUP2 ADD PUSH1 0x40 MSTORE DUP1 SWAP3 SWAP2 SWAP1 DUP2 DUP2 MSTORE PUSH1 0x20 ADD DUP3 DUP1 SLOAD PUSH2 0x1974 SWAP1 PUSH2 0x3A99 JUMP JUMPDEST DUP1 ISZERO PUSH2 0x19C1 JUMPI DUP1 PUSH1 0x1F LT PUSH2 0x1996 JUMPI PUSH2 0x100 DUP1 DUP4 SLOAD DIV MUL DUP4 MSTORE SWAP2 PUSH1 0x20 ADD SWAP2 PUSH2 0x19C1 JUMP JUMPDEST DUP3 ADD SWAP2 SWAP1 PUSH1 0x0 MSTORE PUSH1 0x20 PUSH1 0x0 KECCAK256 SWAP1 JUMPDEST DUP2 SLOAD DUP2 MSTORE SWAP1 PUSH1 0x1 ADD SWAP1 PUSH1 0x20 ADD DUP1 DUP4 GT PUSH2 0x19A4 JUMPI DUP3 SWAP1 SUB PUSH1 0x1F AND DUP3 ADD SWAP2 JUMPDEST POP POP POP POP POP DUP2 MSTORE PUSH1 0x20 ADD PUSH1 0x4 DUP3 ADD PUSH1 0x0 SWAP1 SLOAD SWAP1 PUSH2 0x100 EXP SWAP1 DIV PUSH1 0xFF AND PUSH1 0x2 DUP2 GT ISZERO PUSH2 0x19EF JUMPI PUSH2 0x19EE PUSH2 0x3495 JUMP JUMPDEST JUMPDEST PUSH1 0x2 DUP2 GT ISZERO PUSH2 0x1A01 JUMPI PUSH2 0x1A00 PUSH2 0x3495 JUMP JUMPDEST JUMPDEST DUP2 MSTORE PUSH1 0x20 ADD PUSH1 0x5 DUP3 ADD SLOAD DUP2 MSTORE POP POP DUP2 MSTORE PUSH1 0x20 ADD SWAP1 PUSH1 0x1 ADD SWAP1 PUSH2 0x186F JUMP JUMPDEST POP POP POP POP SWAP1 POP PUSH1 0x0 DUP2 MLOAD SWAP1 POP PUSH1 0x0 DUP1 JUMPDEST DUP3 DUP2 LT ISZERO PUSH2 0x1A76 JUMPI DUP7 DUP5 DUP3 DUP2 MLOAD DUP2 LT PUSH2 0x1A4A JUMPI PUSH2 0x1A49 PUSH2 0x42D5 JUMP JUMPDEST JUMPDEST PUSH1 0x20 MUL PUSH1 0x20 ADD ADD MLOAD PUSH1 0x0 ADD MLOAD SUB PUSH2 0x1A63 JUMPI DUP1 SWAP5 POP PUSH1 0x1 SWAP2 POP JUMPDEST DUP1 DUP1 PUSH2 0x1A6E SWAP1 PUSH2 0x3A22 JUMP JUMPDEST SWAP2 POP POP PUSH2 0x1A2E JUMP JUMPDEST POP PUSH1 0x1 ISZERO ISZERO DUP2 ISZERO ISZERO EQ PUSH2 0x1ABE JUMPI PUSH1 0x40 MLOAD PUSH32 0x8C379A000000000000000000000000000000000000000000000000000000000 DUP2 MSTORE PUSH1 0x4 ADD PUSH2 0x1AB5 SWAP1 PUSH2 0x4376 JUMP JUMPDEST PUSH1 0x40 MLOAD DUP1 SWAP2 SUB SWAP1 REVERT JUMPDEST DUP1 ISZERO PUSH2 0x1B1A JUMPI PUSH32 0x2341EBB88DFA6CE59E54BDDE82E9746E5A27FCD12A0D5D5CA812F1D01F4102E2 DUP4 DUP6 DUP2 MLOAD DUP2 LT PUSH2 0x1AF8 JUMPI PUSH2 0x1AF7 PUSH2 0x42D5 JUMP JUMPDEST JUMPDEST PUSH1 0x20 MUL PUSH1 0x20 ADD ADD MLOAD PUSH1 0x80 ADD MLOAD PUSH1 0x40 MLOAD PUSH2 0x1B11 SWAP2 SWAP1 PUSH2 0x3647 JUMP JUMPDEST PUSH1 0x40 MLOAD DUP1 SWAP2 SUB SWAP1 LOG1 JUMPDEST DUP3 DUP5 DUP2 MLOAD DUP2 LT PUSH2 0x1B2D JUMPI PUSH2 0x1B2C PUSH2 0x42D5 JUMP JUMPDEST JUMPDEST PUSH1 0x20 MUL PUSH1 0x20 ADD ADD MLOAD PUSH1 0x80 ADD MLOAD SWAP5 POP POP POP POP POP SWAP3 SWAP2 POP POP JUMP JUMPDEST PUSH1 0x0 PUSH1 0x7 SLOAD SWAP1 POP SWAP1 JUMP JUMPDEST PUSH1 0x0 PUSH1 0x1 PUSH1 0x0 DUP4 DUP2 MSTORE PUSH1 0x20 ADD SWAP1 DUP2 MSTORE PUSH1 0x20 ADD PUSH1 0x0 KECCAK256 PUSH1 0xA ADD SLOAD SWAP1 POP SWAP2 SWAP1 POP JUMP JUMPDEST PUSH1 0x60 DUP2 PUSH1 0x7 SLOAD DUP2 LT PUSH2 0x1BB6 JUMPI PUSH1 0x40 MLOAD PUSH32 0x8C379A000000000000000000000000000000000000000000000000000000000 DUP2 MSTORE PUSH1 0x4 ADD PUSH2 0x1BAD SWAP1 PUSH2 0x41A9 JUMP JUMPDEST PUSH1 0x40 MLOAD DUP1 SWAP2 SUB SWAP1 REVERT JUMPDEST PUSH1 0x8 PUSH1 0x0 DUP5 DUP2 MSTORE PUSH1 0x20 ADD SWAP1 DUP2 MSTORE PUSH1 0x20 ADD PUSH1 0x0 KECCAK256 PUSH1 0x1 ADD DUP1 SLOAD PUSH2 0x1BD7 SWAP1 PUSH2 0x3A99 JUMP JUMPDEST DUP1 PUSH1 0x1F ADD PUSH1 0x20 DUP1 SWAP2 DIV MUL PUSH1 0x20 ADD PUSH1 0x40 MLOAD SWAP1 DUP2 ADD PUSH1 0x40 MSTORE DUP1 SWAP3 SWAP2 SWAP1 DUP2 DUP2 MSTORE PUSH1 0x20 ADD DUP3 DUP1 SLOAD PUSH2 0x1C03 SWAP1 PUSH2 0x3A99 JUMP JUMPDEST DUP1 ISZERO PUSH2 0x1C50 JUMPI DUP1 PUSH1 0x1F LT PUSH2 0x1C25 JUMPI PUSH2 0x100 DUP1 DUP4 SLOAD DIV MUL DUP4 MSTORE SWAP2 PUSH1 0x20 ADD SWAP2 PUSH2 0x1C50 JUMP JUMPDEST DUP3 ADD SWAP2 SWAP1 PUSH1 0x0 MSTORE PUSH1 0x20 PUSH1 0x0 KECCAK256 SWAP1 JUMPDEST DUP2 SLOAD DUP2 MSTORE SWAP1 PUSH1 0x1 ADD SWAP1 PUSH1 0x20 ADD DUP1 DUP4 GT PUSH2 0x1C33 JUMPI DUP3 SWAP1 SUB PUSH1 0x1F AND DUP3 ADD SWAP2 JUMPDEST POP POP POP POP POP SWAP2 POP POP SWAP2 SWAP1 POP JUMP JUMPDEST DUP7 DUP4 DUP1 PUSH1 0x1 PUSH1 0x0 DUP5 DUP2 MSTORE PUSH1 0x20 ADD SWAP1 DUP2 MSTORE PUSH1 0x20 ADD PUSH1 0x0 KECCAK256 PUSH1 0x2 ADD PUSH1 0x0 ADD SLOAD EQ PUSH2 0x1CBA JUMPI PUSH1 0x40 MLOAD PUSH32 0x8C379A000000000000000000000000000000000000000000000000000000000 DUP2 MSTORE PUSH1 0x4 ADD PUSH2 0x1CB1 SWAP1 PUSH2 0x4215 JUMP JUMPDEST PUSH1 0x40 MLOAD DUP1 SWAP2 SUB SWAP1 REVERT JUMPDEST PUSH32 0x23F2FC8ADA0C4BAED4EE1E3BA4FE20927AEB0927885A97721DFF7BF7DE72A54 DUP10 PUSH1 0x40 MLOAD PUSH2 0x1CE9 SWAP2 SWAP1 PUSH2 0x2D52 JUMP JUMPDEST PUSH1 0x40 MLOAD DUP1 SWAP2 SUB SWAP1 LOG1 PUSH2 0x1CFF DUP10 DUP10 DUP9 DUP11 DUP9 DUP9 PUSH2 0x9DC JUMP JUMPDEST PUSH32 0x5865064E6ACB4FFF420DD41011F2A5680096A4C8D5D8B6CF9D358D6E71FBF1AC DUP10 DUP9 PUSH1 0x40 MLOAD PUSH2 0x1D30 SWAP3 SWAP2 SWAP1 PUSH2 0x4396 JUMP JUMPDEST PUSH1 0x40 MLOAD DUP1 SWAP2 SUB SWAP1 LOG1 POP POP POP POP POP POP POP POP POP JUMP JUMPDEST PUSH1 0x0 SLOAD DUP2 JUMP JUMPDEST PUSH2 0x1D51 PUSH2 0x2C2E JUMP JUMPDEST PUSH1 0x1 PUSH1 0x0 DUP4 DUP2 MSTORE PUSH1 0x20 ADD SWAP1 DUP2 MSTORE PUSH1 0x20 ADD PUSH1 0x0 KECCAK256 PUSH1 0x40 MLOAD DUP1 PUSH2 0x120 ADD PUSH1 0x40 MSTORE SWAP1 DUP2 PUSH1 0x0 DUP3 ADD SLOAD DUP2 MSTORE PUSH1 0x20 ADD PUSH1 0x1 DUP3 ADD SLOAD DUP2 MSTORE PUSH1 0x20 ADD PUSH1 0x2 DUP3 ADD PUSH1 0x40 MLOAD DUP1 PUSH1 0x80 ADD PUSH1 0x40 MSTORE SWAP1 DUP2 PUSH1 0x0 DUP3 ADD SLOAD DUP2 MSTORE PUSH1 0x20 ADD PUSH1 0x1 DUP3 ADD SLOAD DUP2 MSTORE PUSH1 0x20 ADD PUSH1 0x2 DUP3 ADD SLOAD DUP2 MSTORE PUSH1 0x20 ADD PUSH1 0x3 DUP3 ADD SLOAD DUP2 MSTORE POP POP DUP2 MSTORE PUSH1 0x20 ADD PUSH1 0x6 DUP3 ADD SLOAD DUP2 MSTORE PUSH1 0x20 ADD PUSH1 0x7 DUP3 ADD SLOAD DUP2 MSTORE PUSH1 0x20 ADD PUSH1 0x8 DUP3 ADD PUSH1 0x0 SWAP1 SLOAD SWAP1 PUSH2 0x100 EXP SWAP1 DIV PUSH1 0xFF AND PUSH1 0x1 DUP2 GT ISZERO PUSH2 0x1DF9 JUMPI PUSH2 0x1DF8 PUSH2 0x3495 JUMP JUMPDEST JUMPDEST PUSH1 0x1 DUP2 GT ISZERO PUSH2 0x1E0B JUMPI PUSH2 0x1E0A PUSH2 0x3495 JUMP JUMPDEST JUMPDEST DUP2 MSTORE PUSH1 0x20 ADD PUSH1 0x8 DUP3 ADD PUSH1 0x1 SWAP1 SLOAD SWAP1 PUSH2 0x100 EXP SWAP1 DIV PUSH1 0xFF AND PUSH1 0x5 DUP2 GT ISZERO PUSH2 0x1E34 JUMPI PUSH2 0x1E33 PUSH2 0x3495 JUMP JUMPDEST JUMPDEST PUSH1 0x5 DUP2 GT ISZERO PUSH2 0x1E46 JUMPI PUSH2 0x1E45 PUSH2 0x3495 JUMP JUMPDEST JUMPDEST DUP2 MSTORE PUSH1 0x20 ADD PUSH1 0x9 DUP3 ADD SLOAD DUP2 MSTORE PUSH1 0x20 ADD PUSH1 0xA DUP3 ADD SLOAD DUP2 MSTORE POP POP SWAP1 POP SWAP2 SWAP1 POP JUMP JUMPDEST PUSH1 0x2 SLOAD DUP2 JUMP JUMPDEST PUSH1 0x0 PUSH7 0x2386F26FC10000 CALLVALUE GT PUSH2 0x1EB6 JUMPI PUSH1 0x40 MLOAD PUSH32 0x8C379A000000000000000000000000000000000000000000000000000000000 DUP2 MSTORE PUSH1 0x4 ADD PUSH2 0x1EAD SWAP1 PUSH2 0x4438 JUMP JUMPDEST PUSH1 0x40 MLOAD DUP1 SWAP2 SUB SWAP1 REVERT JUMPDEST PUSH1 0x0 PUSH1 0x8 PUSH1 0x0 PUSH1 0x7 PUSH1 0x0 DUP2 SLOAD DUP1 SWAP3 SWAP2 SWAP1 PUSH2 0x1ECF SWAP1 PUSH2 0x3A22 JUMP JUMPDEST SWAP2 SWAP1 POP SSTORE DUP2 MSTORE PUSH1 0x20 ADD SWAP1 DUP2 MSTORE PUSH1 0x20 ADD PUSH1 0x0 KECCAK256 SWAP1 POP PUSH1 0x0 DUP2 PUSH1 0x0 ADD DUP2 SWAP1 SSTORE POP DUP3 DUP2 PUSH1 0x1 ADD SWAP1 DUP2 PUSH2 0x1EFE SWAP2 SWAP1 PUSH2 0x3C76 JUMP JUMPDEST POP CALLER DUP2 PUSH1 0x2 ADD PUSH1 0x0 PUSH2 0x100 EXP DUP2 SLOAD DUP2 PUSH20 0xFFFFFFFFFFFFFFFFFFFFFFFFFFFFFFFFFFFFFFFF MUL NOT AND SWAP1 DUP4 PUSH20 0xFFFFFFFFFFFFFFFFFFFFFFFFFFFFFFFFFFFFFFFF AND MUL OR SWAP1 SSTORE POP PUSH1 0x0 DUP2 PUSH1 0x3 ADD DUP2 SWAP1 SSTORE POP PUSH1 0x7 SLOAD SWAP2 POP POP SWAP2 SWAP1 POP JUMP JUMPDEST DUP2 PUSH1 0x1 PUSH1 0x0 DUP4 DUP2 MSTORE PUSH1 0x20 ADD SWAP1 DUP2 MSTORE PUSH1 0x20 ADD PUSH1 0x0 KECCAK256 PUSH1 0x8 ADD PUSH1 0x1 PUSH2 0x100 EXP DUP2 SLOAD DUP2 PUSH1 0xFF MUL NOT AND SWAP1 DUP4 PUSH1 0x5 DUP2 GT ISZERO PUSH2 0x1F90 JUMPI PUSH2 0x1F8F PUSH2 0x3495 JUMP JUMPDEST JUMPDEST MUL OR SWAP1 SSTORE POP POP POP JUMP JUMPDEST PUSH1 0x0 DUP2 PUSH1 0x7 SLOAD DUP2 LT PUSH2 0x1FE0 JUMPI PUSH1 0x40 MLOAD PUSH32 0x8C379A000000000000000000000000000000000000000000000000000000000 DUP2 MSTORE PUSH1 0x4 ADD PUSH2 0x1FD7 SWAP1 PUSH2 0x41A9 JUMP JUMPDEST PUSH1 0x40 MLOAD DUP1 SWAP2 SUB SWAP1 REVERT JUMPDEST PUSH1 0x8 PUSH1 0x0 DUP5 DUP2 MSTORE PUSH1 0x20 ADD SWAP1 DUP2 MSTORE PUSH1 0x20 ADD PUSH1 0x0 KECCAK256 PUSH1 0x2 ADD PUSH1 0x0 SWAP1 SLOAD SWAP1 PUSH2 0x100 EXP SWAP1 DIV PUSH20 0xFFFFFFFFFFFFFFFFFFFFFFFFFFFFFFFFFFFFFFFF AND SWAP2 POP POP SWAP2 SWAP1 POP JUMP JUMPDEST PUSH1 0x0 PUSH1 0x3 PUSH1 0x0 DUP4 DUP2 MSTORE PUSH1 0x20 ADD SWAP1 DUP2 MSTORE PUSH1 0x20 ADD PUSH1 0x0 KECCAK256 PUSH1 0x0 ADD SLOAD SWAP1 POP SWAP2 SWAP1 POP JUMP JUMPDEST PUSH1 0x0 PUSH1 0x1 PUSH1 0x0 DUP4 DUP2 MSTORE PUSH1 0x20 ADD SWAP1 DUP2 MSTORE PUSH1 0x20 ADD PUSH1 0x0 KECCAK256 PUSH1 0xA ADD SLOAD SUB PUSH2 0x2098 JUMPI PUSH1 0x40 MLOAD PUSH32 0x8C379A000000000000000000000000000000000000000000000000000000000 DUP2 MSTORE PUSH1 0x4 ADD PUSH2 0x208F SWAP1 PUSH2 0x44CA JUMP JUMPDEST PUSH1 0x40 MLOAD DUP1 SWAP2 SUB SWAP1 REVERT JUMPDEST DUP2 PUSH1 0x1 PUSH1 0x0 DUP4 DUP2 MSTORE PUSH1 0x20 ADD SWAP1 DUP2 MSTORE PUSH1 0x20 ADD PUSH1 0x0 KECCAK256 PUSH1 0xA ADD DUP2 SWAP1 SSTORE POP POP POP JUMP JUMPDEST PUSH1 0x0 DUP2 PUSH1 0x7 SLOAD DUP2 LT PUSH2 0x20FE JUMPI PUSH1 0x40 MLOAD PUSH32 0x8C379A000000000000000000000000000000000000000000000000000000000 DUP2 MSTORE PUSH1 0x4 ADD PUSH2 0x20F5 SWAP1 PUSH2 0x41A9 JUMP JUMPDEST PUSH1 0x40 MLOAD DUP1 SWAP2 SUB SWAP1 REVERT JUMPDEST PUSH1 0x8 PUSH1 0x0 DUP5 DUP2 MSTORE PUSH1 0x20 ADD SWAP1 DUP2 MSTORE PUSH1 0x20 ADD PUSH1 0x0 KECCAK256 PUSH1 0x0 ADD SLOAD SWAP2 POP POP SWAP2 SWAP1 POP JUMP JUMPDEST DUP1 PUSH1 0x7 SLOAD DUP2 LT PUSH2 0x2162 JUMPI PUSH1 0x40 MLOAD PUSH32 0x8C379A000000000000000000000000000000000000000000000000000000000 DUP2 MSTORE PUSH1 0x4 ADD PUSH2 0x2159 SWAP1 PUSH2 0x41A9 JUMP JUMPDEST PUSH1 0x40 MLOAD DUP1 SWAP2 SUB SWAP1 REVERT JUMPDEST DUP2 CALLER PUSH20 0xFFFFFFFFFFFFFFFFFFFFFFFFFFFFFFFFFFFFFFFF AND PUSH1 0x8 PUSH1 0x0 DUP4 DUP2 MSTORE PUSH1 0x20 ADD SWAP1 DUP2 MSTORE PUSH1 0x20 ADD PUSH1 0x0 KECCAK256 PUSH1 0x2 ADD PUSH1 0x0 SWAP1 SLOAD SWAP1 PUSH2 0x100 EXP SWAP1 DIV PUSH20 0xFFFFFFFFFFFFFFFFFFFFFFFFFFFFFFFFFFFFFFFF AND PUSH20 0xFFFFFFFFFFFFFFFFFFFFFFFFFFFFFFFFFFFFFFFF AND EQ PUSH2 0x2207 JUMPI PUSH1 0x40 MLOAD PUSH32 0x8C379A000000000000000000000000000000000000000000000000000000000 DUP2 MSTORE PUSH1 0x4 ADD PUSH2 0x21FE SWAP1 PUSH2 0x4536 JUMP JUMPDEST PUSH1 0x40 MLOAD DUP1 SWAP2 SUB SWAP1 REVERT JUMPDEST PUSH1 0x0 PUSH1 0x8 PUSH1 0x0 DUP6 DUP2 MSTORE PUSH1 0x20 ADD SWAP1 DUP2 MSTORE PUSH1 0x20 ADD PUSH1 0x0 KECCAK256 PUSH1 0x5 ADD DUP1 SLOAD DUP1 PUSH1 0x20 MUL PUSH1 0x20 ADD PUSH1 0x40 MLOAD SWAP1 DUP2 ADD PUSH1 0x40 MSTORE DUP1 SWAP3 SWAP2 SWAP1 DUP2 DUP2 MSTORE PUSH1 0x20 ADD PUSH1 0x0 SWAP1 JUMPDEST DUP3 DUP3 LT ISZERO PUSH2 0x23EE JUMPI DUP4 DUP3 SWAP1 PUSH1 0x0 MSTORE PUSH1 0x20 PUSH1 0x0 KECCAK256 SWAP1 PUSH1 0x6 MUL ADD PUSH1 0x40 MLOAD DUP1 PUSH1 0xC0 ADD PUSH1 0x40 MSTORE SWAP1 DUP2 PUSH1 0x0 DUP3 ADD SLOAD DUP2 MSTORE PUSH1 0x20 ADD PUSH1 0x1 DUP3 ADD SLOAD DUP2 MSTORE PUSH1 0x20 ADD PUSH1 0x2 DUP3 ADD DUP1 SLOAD PUSH2 0x2286 SWAP1 PUSH2 0x3A99 JUMP JUMPDEST DUP1 PUSH1 0x1F ADD PUSH1 0x20 DUP1 SWAP2 DIV MUL PUSH1 0x20 ADD PUSH1 0x40 MLOAD SWAP1 DUP2 ADD PUSH1 0x40 MSTORE DUP1 SWAP3 SWAP2 SWAP1 DUP2 DUP2 MSTORE PUSH1 0x20 ADD DUP3 DUP1 SLOAD PUSH2 0x22B2 SWAP1 PUSH2 0x3A99 JUMP JUMPDEST DUP1 ISZERO PUSH2 0x22FF JUMPI DUP1 PUSH1 0x1F LT PUSH2 0x22D4 JUMPI PUSH2 0x100 DUP1 DUP4 SLOAD DIV MUL DUP4 MSTORE SWAP2 PUSH1 0x20 ADD SWAP2 PUSH2 0x22FF JUMP JUMPDEST DUP3 ADD SWAP2 SWAP1 PUSH1 0x0 MSTORE PUSH1 0x20 PUSH1 0x0 KECCAK256 SWAP1 JUMPDEST DUP2 SLOAD DUP2 MSTORE SWAP1 PUSH1 0x1 ADD SWAP1 PUSH1 0x20 ADD DUP1 DUP4 GT PUSH2 0x22E2 JUMPI DUP3 SWAP1 SUB PUSH1 0x1F AND DUP3 ADD SWAP2 JUMPDEST POP POP POP POP POP DUP2 MSTORE PUSH1 0x20 ADD PUSH1 0x3 DUP3 ADD DUP1 SLOAD PUSH2 0x2318 SWAP1 PUSH2 0x3A99 JUMP JUMPDEST DUP1 PUSH1 0x1F ADD PUSH1 0x20 DUP1 SWAP2 DIV MUL PUSH1 0x20 ADD PUSH1 0x40 MLOAD SWAP1 DUP2 ADD PUSH1 0x40 MSTORE DUP1 SWAP3 SWAP2 SWAP1 DUP2 DUP2 MSTORE PUSH1 0x20 ADD DUP3 DUP1 SLOAD PUSH2 0x2344 SWAP1 PUSH2 0x3A99 JUMP JUMPDEST DUP1 ISZERO PUSH2 0x2391 JUMPI DUP1 PUSH1 0x1F LT PUSH2 0x2366 JUMPI PUSH2 0x100 DUP1 DUP4 SLOAD DIV MUL DUP4 MSTORE SWAP2 PUSH1 0x20 ADD SWAP2 PUSH2 0x2391 JUMP JUMPDEST DUP3 ADD SWAP2 SWAP1 PUSH1 0x0 MSTORE PUSH1 0x20 PUSH1 0x0 KECCAK256 SWAP1 JUMPDEST DUP2 SLOAD DUP2 MSTORE SWAP1 PUSH1 0x1 ADD SWAP1 PUSH1 0x20 ADD DUP1 DUP4 GT PUSH2 0x2374 JUMPI DUP3 SWAP1 SUB PUSH1 0x1F AND DUP3 ADD SWAP2 JUMPDEST POP POP POP POP POP DUP2 MSTORE PUSH1 0x20 ADD PUSH1 0x4 DUP3 ADD PUSH1 0x0 SWAP1 SLOAD SWAP1 PUSH2 0x100 EXP SWAP1 DIV PUSH1 0xFF AND PUSH1 0x2 DUP2 GT ISZERO PUSH2 0x23BF JUMPI PUSH2 0x23BE PUSH2 0x3495 JUMP JUMPDEST JUMPDEST PUSH1 0x2 DUP2 GT ISZERO PUSH2 0x23D1 JUMPI PUSH2 0x23D0 PUSH2 0x3495 JUMP JUMPDEST JUMPDEST DUP2 MSTORE PUSH1 0x20 ADD PUSH1 0x5 DUP3 ADD SLOAD DUP2 MSTORE POP POP DUP2 MSTORE PUSH1 0x20 ADD SWAP1 PUSH1 0x1 ADD SWAP1 PUSH2 0x223F JUMP JUMPDEST POP POP POP POP SWAP1 POP PUSH1 0x0 DUP2 MLOAD PUSH8 0xFFFFFFFFFFFFFFFF DUP2 GT ISZERO PUSH2 0x2411 JUMPI PUSH2 0x2410 PUSH2 0x2DC8 JUMP JUMPDEST JUMPDEST PUSH1 0x40 MLOAD SWAP1 DUP1 DUP3 MSTORE DUP1 PUSH1 0x20 MUL PUSH1 0x20 ADD DUP3 ADD PUSH1 0x40 MSTORE DUP1 ISZERO PUSH2 0x243F JUMPI DUP2 PUSH1 0x20 ADD PUSH1 0x20 DUP3 MUL DUP1 CALLDATASIZE DUP4 CALLDATACOPY DUP1 DUP3 ADD SWAP2 POP POP SWAP1 POP JUMPDEST POP SWAP1 POP PUSH1 0x0 DUP3 MLOAD PUSH8 0xFFFFFFFFFFFFFFFF DUP2 GT ISZERO PUSH2 0x245F JUMPI PUSH2 0x245E PUSH2 0x2DC8 JUMP JUMPDEST JUMPDEST PUSH1 0x40 MLOAD SWAP1 DUP1 DUP3 MSTORE DUP1 PUSH1 0x20 MUL PUSH1 0x20 ADD DUP3 ADD PUSH1 0x40 MSTORE DUP1 ISZERO PUSH2 0x248D JUMPI DUP2 PUSH1 0x20 ADD PUSH1 0x20 DUP3 MUL DUP1 CALLDATASIZE DUP4 CALLDATACOPY DUP1 DUP3 ADD SWAP2 POP POP SWAP1 POP JUMPDEST POP SWAP1 POP PUSH1 0x0 DUP4 MLOAD PUSH8 0xFFFFFFFFFFFFFFFF DUP2 GT ISZERO PUSH2 0x24AD JUMPI PUSH2 0x24AC PUSH2 0x2DC8 JUMP JUMPDEST JUMPDEST PUSH1 0x40 MLOAD SWAP1 DUP1 DUP3 MSTORE DUP1 PUSH1 0x20 MUL PUSH1 0x20 ADD DUP3 ADD PUSH1 0x40 MSTORE DUP1 ISZERO PUSH2 0x24E0 JUMPI DUP2 PUSH1 0x20 ADD JUMPDEST PUSH1 0x60 DUP2 MSTORE PUSH1 0x20 ADD SWAP1 PUSH1 0x1 SWAP1 SUB SWAP1 DUP2 PUSH2 0x24CB JUMPI SWAP1 POP JUMPDEST POP SWAP1 POP PUSH1 0x0 DUP5 MLOAD PUSH8 0xFFFFFFFFFFFFFFFF DUP2 GT ISZERO PUSH2 0x2500 JUMPI PUSH2 0x24FF PUSH2 0x2DC8 JUMP JUMPDEST JUMPDEST PUSH1 0x40 MLOAD SWAP1 DUP1 DUP3 MSTORE DUP1 PUSH1 0x20 MUL PUSH1 0x20 ADD DUP3 ADD PUSH1 0x40 MSTORE DUP1 ISZERO PUSH2 0x2533 JUMPI DUP2 PUSH1 0x20 ADD JUMPDEST PUSH1 0x60 DUP2 MSTORE PUSH1 0x20 ADD SWAP1 PUSH1 0x1 SWAP1 SUB SWAP1 DUP2 PUSH2 0x251E JUMPI SWAP1 POP JUMPDEST POP SWAP1 POP PUSH1 0x0 DUP6 MLOAD PUSH8 0xFFFFFFFFFFFFFFFF DUP2 GT ISZERO PUSH2 0x2553 JUMPI PUSH2 0x2552 PUSH2 0x2DC8 JUMP JUMPDEST JUMPDEST PUSH1 0x40 MLOAD SWAP1 DUP1 DUP3 MSTORE DUP1 PUSH1 0x20 MUL PUSH1 0x20 ADD DUP3 ADD PUSH1 0x40 MSTORE DUP1 ISZERO PUSH2 0x2581 JUMPI DUP2 PUSH1 0x20 ADD PUSH1 0x20 DUP3 MUL DUP1 CALLDATASIZE DUP4 CALLDATACOPY DUP1 DUP3 ADD SWAP2 POP POP SWAP1 POP JUMPDEST POP SWAP1 POP PUSH1 0x0 JUMPDEST DUP7 MLOAD DUP2 LT ISZERO PUSH2 0x26FD JUMPI DUP7 DUP2 DUP2 MLOAD DUP2 LT PUSH2 0x25A3 JUMPI PUSH2 0x25A2 PUSH2 0x42D5 JUMP JUMPDEST JUMPDEST PUSH1 0x20 MUL PUSH1 0x20 ADD ADD MLOAD PUSH1 0x0 ADD MLOAD DUP7 DUP3 DUP2 MLOAD DUP2 LT PUSH2 0x25C2 JUMPI PUSH2 0x25C1 PUSH2 0x42D5 JUMP JUMPDEST JUMPDEST PUSH1 0x20 MUL PUSH1 0x20 ADD ADD DUP2 DUP2 MSTORE POP POP DUP7 DUP2 DUP2 MLOAD DUP2 LT PUSH2 0x25E1 JUMPI PUSH2 0x25E0 PUSH2 0x42D5 JUMP JUMPDEST JUMPDEST PUSH1 0x20 MUL PUSH1 0x20 ADD ADD MLOAD PUSH1 0x20 ADD MLOAD DUP6 DUP3 DUP2 MLOAD DUP2 LT PUSH2 0x2600 JUMPI PUSH2 0x25FF PUSH2 0x42D5 JUMP JUMPDEST JUMPDEST PUSH1 0x20 MUL PUSH1 0x20 ADD ADD DUP2 DUP2 MSTORE POP POP DUP7 DUP2 DUP2 MLOAD DUP2 LT PUSH2 0x261F JUMPI PUSH2 0x261E PUSH2 0x42D5 JUMP JUMPDEST JUMPDEST PUSH1 0x20 MUL PUSH1 0x20 ADD ADD MLOAD PUSH1 0x40 ADD MLOAD DUP5 DUP3 DUP2 MLOAD DUP2 LT PUSH2 0x263E JUMPI PUSH2 0x263D PUSH2 0x42D5 JUMP JUMPDEST JUMPDEST PUSH1 0x20 MUL PUSH1 0x20 ADD ADD DUP2 SWAP1 MSTORE POP DUP7 DUP2 DUP2 MLOAD DUP2 LT PUSH2 0x265C JUMPI PUSH2 0x265B PUSH2 0x42D5 JUMP JUMPDEST JUMPDEST PUSH1 0x20 MUL PUSH1 0x20 ADD ADD MLOAD PUSH1 0x60 ADD MLOAD DUP4 DUP3 DUP2 MLOAD DUP2 LT PUSH2 0x267B JUMPI PUSH2 0x267A PUSH2 0x42D5 JUMP JUMPDEST JUMPDEST PUSH1 0x20 MUL PUSH1 0x20 ADD ADD DUP2 SWAP1 MSTORE POP DUP7 DUP2 DUP2 MLOAD DUP2 LT PUSH2 0x2699 JUMPI PUSH2 0x2698 PUSH2 0x42D5 JUMP JUMPDEST JUMPDEST PUSH1 0x20 MUL PUSH1 0x20 ADD ADD MLOAD PUSH1 0x80 ADD MLOAD DUP3 DUP3 DUP2 MLOAD DUP2 LT PUSH2 0x26B8 JUMPI PUSH2 0x26B7 PUSH2 0x42D5 JUMP JUMPDEST JUMPDEST PUSH1 0x20 MUL PUSH1 0x20 ADD ADD SWAP1 PUSH1 0x2 DUP2 GT ISZERO PUSH2 0x26D2 JUMPI PUSH2 0x26D1 PUSH2 0x3495 JUMP JUMPDEST JUMPDEST SWAP1 DUP2 PUSH1 0x2 DUP2 GT ISZERO PUSH2 0x26E6 JUMPI PUSH2 0x26E5 PUSH2 0x3495 JUMP JUMPDEST JUMPDEST DUP2 MSTORE POP POP DUP1 DUP1 PUSH2 0x26F5 SWAP1 PUSH2 0x3A22 JUMP JUMPDEST SWAP2 POP POP PUSH2 0x2587 JUMP JUMPDEST POP PUSH32 0xE6C75EE9CDD3E628203F6E03DDBECEA0E9472F78039061CDE763650D2880F7B7 DUP6 DUP6 DUP6 DUP6 DUP6 PUSH1 0x40 MLOAD PUSH2 0x2735 SWAP6 SWAP5 SWAP4 SWAP3 SWAP2 SWAP1 PUSH2 0x47CF JUMP JUMPDEST PUSH1 0x40 MLOAD DUP1 SWAP2 SUB SWAP1 LOG1 POP POP POP POP POP POP POP POP POP JUMP JUMPDEST PUSH1 0x0 DUP3 EQ PUSH2 0x2A5B JUMPI PUSH1 0x0 DUP1 PUSH1 0x8 PUSH1 0x0 DUP7 DUP2 MSTORE PUSH1 0x20 ADD SWAP1 DUP2 MSTORE PUSH1 0x20 ADD PUSH1 0x0 KECCAK256 PUSH1 0x5 ADD DUP1 SLOAD DUP1 PUSH1 0x20 MUL PUSH1 0x20 ADD PUSH1 0x40 MLOAD SWAP1 DUP2 ADD PUSH1 0x40 MSTORE DUP1 SWAP3 SWAP2 SWAP1 DUP2 DUP2 MSTORE PUSH1 0x20 ADD PUSH1 0x0 SWAP1 JUMPDEST DUP3 DUP3 LT ISZERO PUSH2 0x2938 JUMPI DUP4 DUP3 SWAP1 PUSH1 0x0 MSTORE PUSH1 0x20 PUSH1 0x0 KECCAK256 SWAP1 PUSH1 0x6 MUL ADD PUSH1 0x40 MLOAD DUP1 PUSH1 0xC0 ADD PUSH1 0x40 MSTORE SWAP1 DUP2 PUSH1 0x0 DUP3 ADD SLOAD DUP2 MSTORE PUSH1 0x20 ADD PUSH1 0x1 DUP3 ADD SLOAD DUP2 MSTORE PUSH1 0x20 ADD PUSH1 0x2 DUP3 ADD DUP1 SLOAD PUSH2 0x27D0 SWAP1 PUSH2 0x3A99 JUMP JUMPDEST DUP1 PUSH1 0x1F ADD PUSH1 0x20 DUP1 SWAP2 DIV MUL PUSH1 0x20 ADD PUSH1 0x40 MLOAD SWAP1 DUP2 ADD PUSH1 0x40 MSTORE DUP1 SWAP3 SWAP2 SWAP1 DUP2 DUP2 MSTORE PUSH1 0x20 ADD DUP3 DUP1 SLOAD PUSH2 0x27FC SWAP1 PUSH2 0x3A99 JUMP JUMPDEST DUP1 ISZERO PUSH2 0x2849 JUMPI DUP1 PUSH1 0x1F LT PUSH2 0x281E JUMPI PUSH2 0x100 DUP1 DUP4 SLOAD DIV MUL DUP4 MSTORE SWAP2 PUSH1 0x20 ADD SWAP2 PUSH2 0x2849 JUMP JUMPDEST DUP3 ADD SWAP2 SWAP1 PUSH1 0x0 MSTORE PUSH1 0x20 PUSH1 0x0 KECCAK256 SWAP1 JUMPDEST DUP2 SLOAD DUP2 MSTORE SWAP1 PUSH1 0x1 ADD SWAP1 PUSH1 0x20 ADD DUP1 DUP4 GT PUSH2 0x282C JUMPI DUP3 SWAP1 SUB PUSH1 0x1F AND DUP3 ADD SWAP2 JUMPDEST POP POP POP POP POP DUP2 MSTORE PUSH1 0x20 ADD PUSH1 0x3 DUP3 ADD DUP1 SLOAD PUSH2 0x2862 SWAP1 PUSH2 0x3A99 JUMP JUMPDEST DUP1 PUSH1 0x1F ADD PUSH1 0x20 DUP1 SWAP2 DIV MUL PUSH1 0x20 ADD PUSH1 0x40 MLOAD SWAP1 DUP2 ADD PUSH1 0x40 MSTORE DUP1 SWAP3 SWAP2 SWAP1 DUP2 DUP2 MSTORE PUSH1 0x20 ADD DUP3 DUP1 SLOAD PUSH2 0x288E SWAP1 PUSH2 0x3A99 JUMP JUMPDEST DUP1 ISZERO PUSH2 0x28DB JUMPI DUP1 PUSH1 0x1F LT PUSH2 0x28B0 JUMPI PUSH2 0x100 DUP1 DUP4 SLOAD DIV MUL DUP4 MSTORE SWAP2 PUSH1 0x20 ADD SWAP2 PUSH2 0x28DB JUMP JUMPDEST DUP3 ADD SWAP2 SWAP1 PUSH1 0x0 MSTORE PUSH1 0x20 PUSH1 0x0 KECCAK256 SWAP1 JUMPDEST DUP2 SLOAD DUP2 MSTORE SWAP1 PUSH1 0x1 ADD SWAP1 PUSH1 0x20 ADD DUP1 DUP4 GT PUSH2 0x28BE JUMPI DUP3 SWAP1 SUB PUSH1 0x1F AND DUP3 ADD SWAP2 JUMPDEST POP POP POP POP POP DUP2 MSTORE PUSH1 0x20 ADD PUSH1 0x4 DUP3 ADD PUSH1 0x0 SWAP1 SLOAD SWAP1 PUSH2 0x100 EXP SWAP1 DIV PUSH1 0xFF AND PUSH1 0x2 DUP2 GT ISZERO PUSH2 0x2909 JUMPI PUSH2 0x2908 PUSH2 0x3495 JUMP JUMPDEST JUMPDEST PUSH1 0x2 DUP2 GT ISZERO PUSH2 0x291B JUMPI PUSH2 0x291A PUSH2 0x3495 JUMP JUMPDEST JUMPDEST DUP2 MSTORE PUSH1 0x20 ADD PUSH1 0x5 DUP3 ADD SLOAD DUP2 MSTORE POP POP DUP2 MSTORE PUSH1 0x20 ADD SWAP1 PUSH1 0x1 ADD SWAP1 PUSH2 0x2789 JUMP JUMPDEST POP POP POP POP SWAP1 POP PUSH1 0x0 DUP2 MLOAD SWAP1 POP PUSH1 0x0 DUP1 JUMPDEST DUP3 DUP2 LT ISZERO PUSH2 0x2990 JUMPI DUP7 DUP5 DUP3 DUP2 MLOAD DUP2 LT PUSH2 0x2964 JUMPI PUSH2 0x2963 PUSH2 0x42D5 JUMP JUMPDEST JUMPDEST PUSH1 0x20 MUL PUSH1 0x20 ADD ADD MLOAD PUSH1 0x0 ADD MLOAD SUB PUSH2 0x297D JUMPI DUP1 SWAP5 POP PUSH1 0x1 SWAP2 POP JUMPDEST DUP1 DUP1 PUSH2 0x2988 SWAP1 PUSH2 0x3A22 JUMP JUMPDEST SWAP2 POP POP PUSH2 0x2948 JUMP JUMPDEST POP PUSH1 0x1 ISZERO ISZERO DUP2 ISZERO ISZERO EQ PUSH2 0x29D8 JUMPI PUSH1 0x40 MLOAD PUSH32 0x8C379A000000000000000000000000000000000000000000000000000000000 DUP2 MSTORE PUSH1 0x4 ADD PUSH2 0x29CF SWAP1 PUSH2 0x42B5 JUMP JUMPDEST PUSH1 0x40 MLOAD DUP1 SWAP2 SUB SWAP1 REVERT JUMPDEST DUP1 ISZERO PUSH2 0x2A56 JUMPI DUP5 PUSH1 0x8 PUSH1 0x0 DUP10 DUP2 MSTORE PUSH1 0x20 ADD SWAP1 DUP2 MSTORE PUSH1 0x20 ADD PUSH1 0x0 KECCAK256 PUSH1 0x5 ADD DUP6 DUP2 SLOAD DUP2 LT PUSH2 0x2A07 JUMPI PUSH2 0x2A06 PUSH2 0x42D5 JUMP JUMPDEST JUMPDEST SWAP1 PUSH1 0x0 MSTORE PUSH1 0x20 PUSH1 0x0 KECCAK256 SWAP1 PUSH1 0x6 MUL ADD PUSH1 0x5 ADD DUP2 SWAP1 SSTORE POP PUSH32 0x90218A18786A98DC15E72EE082C065814F7820762CFD88F194694627E1B7E4C6 DUP7 DUP7 PUSH1 0x40 MLOAD PUSH2 0x2A4D SWAP3 SWAP2 SWAP1 PUSH2 0x4845 JUMP JUMPDEST PUSH1 0x40 MLOAD DUP1 SWAP2 SUB SWAP1 LOG1 JUMPDEST POP POP POP POP JUMPDEST POP POP POP JUMP JUMPDEST DUP1 PUSH1 0x7 SLOAD DUP2 LT PUSH2 0x2AA5 JUMPI PUSH1 0x40 MLOAD PUSH32 0x8C379A000000000000000000000000000000000000000000000000000000000 DUP2 MSTORE PUSH1 0x4 ADD PUSH2 0x2A9C SWAP1 PUSH2 0x41A9 JUMP JUMPDEST PUSH1 0x40 MLOAD DUP1 SWAP2 SUB SWAP1 REVERT JUMPDEST PUSH1 0x0 PUSH1 0x8 PUSH1 0x0 DUP5 DUP2 MSTORE PUSH1 0x20 ADD SWAP1 DUP2 MSTORE PUSH1 0x20 ADD PUSH1 0x0 KECCAK256 SWAP1 POP PUSH1 0x0 DUP2 PUSH1 0x3 ADD SLOAD SWAP1 POP PUSH1 0x32 DUP2 LT ISZERO DUP1 ISZERO PUSH2 0x2AD7 JUMPI POP PUSH1 0xC8 DUP2 GT ISZERO JUMPDEST ISZERO PUSH2 0x2AEB JUMPI PUSH1 0x1 DUP3 PUSH1 0x0 ADD DUP2 SWAP1 SSTORE POP PUSH2 0x2BA1 JUMP JUMPDEST PUSH1 0xC8 DUP2 GT DUP1 ISZERO PUSH2 0x2AFD JUMPI POP PUSH2 0x15E DUP2 GT ISZERO JUMPDEST ISZERO PUSH2 0x2B11 JUMPI PUSH1 0x2 DUP3 PUSH1 0x0 ADD DUP2 SWAP1 SSTORE POP PUSH2 0x2BA0 JUMP JUMPDEST PUSH2 0x15E DUP2 GT DUP1 ISZERO PUSH2 0x2B24 JUMPI POP PUSH2 0x1C2 DUP2 GT ISZERO JUMPDEST ISZERO PUSH2 0x2B38 JUMPI PUSH1 0x3 DUP3 PUSH1 0x0 ADD DUP2 SWAP1 SSTORE POP PUSH2 0x2B9F JUMP JUMPDEST PUSH2 0x1C2 DUP2 GT DUP1 ISZERO PUSH2 0x2B4B JUMPI POP PUSH2 0x320 DUP2 GT ISZERO JUMPDEST ISZERO PUSH2 0x2B5F JUMPI PUSH1 0x4 DUP3 PUSH1 0x0 ADD DUP2 SWAP1 SSTORE POP PUSH2 0x2B9E JUMP JUMPDEST PUSH2 0x320 DUP2 GT DUP1 ISZERO PUSH2 0x2B72 JUMPI POP PUSH2 0x7D0 DUP2 GT ISZERO JUMPDEST ISZERO PUSH2 0x2B86 JUMPI PUSH1 0x5 DUP3 PUSH1 0x0 ADD DUP2 SWAP1 SSTORE POP PUSH2 0x2B9D JUMP JUMPDEST PUSH2 0x7D0 DUP2 GT ISZERO PUSH2 0x2B9C JUMPI PUSH2 0x3E7 DUP3 PUSH1 0x0 ADD DUP2 SWAP1 SSTORE POP JUMPDEST JUMPDEST JUMPDEST JUMPDEST JUMPDEST JUMPDEST POP POP POP POP JUMP JUMPDEST PUSH1 0x0 PUSH1 0x2 PUSH1 0x0 DUP2 SLOAD DUP1 SWAP3 SWAP2 SWAP1 PUSH2 0x2BBC SWAP1 PUSH2 0x3A22 JUMP JUMPDEST SWAP2 SWAP1 POP SSTORE POP PUSH1 0x0 PUSH1 0x3 PUSH1 0x0 PUSH1 0x2 SLOAD DUP2 MSTORE PUSH1 0x20 ADD SWAP1 DUP2 MSTORE PUSH1 0x20 ADD PUSH1 0x0 KECCAK256 SWAP1 POP DUP6 DUP2 PUSH1 0x0 ADD DUP2 SWAP1 SSTORE POP DUP5 DUP2 PUSH1 0x1 ADD DUP2 SWAP1 SSTORE POP DUP4 DUP2 PUSH1 0x2 ADD DUP2 SWAP1 SSTORE POP DUP3 DUP2 PUSH1 0x3 ADD DUP2 SWAP1 SSTORE POP PUSH1 0x2 SLOAD SWAP2 POP POP SWAP5 SWAP4 POP POP POP POP JUMP JUMPDEST PUSH1 0x0 PUSH1 0x1 PUSH1 0x0 DUP4 DUP2 MSTORE PUSH1 0x20 ADD SWAP1 DUP2 MSTORE PUSH1 0x20 ADD PUSH1 0x0 KECCAK256 PUSH1 0x1 ADD SLOAD SWAP1 POP SWAP2 SWAP1 POP JUMP JUMPDEST JUMP JUMPDEST PUSH1 0x40 MLOAD DUP1 PUSH2 0x120 ADD PUSH1 0x40 MSTORE DUP1 PUSH1 0x0 DUP2 MSTORE PUSH1 0x20 ADD PUSH1 0x0 DUP2 MSTORE PUSH1 0x20 ADD PUSH2 0x2C50 PUSH2 0x2CA4 JUMP JUMPDEST DUP2 MSTORE PUSH1 0x20 ADD PUSH1 0x0 DUP2 MSTORE PUSH1 0x20 ADD PUSH1 0x0 DUP2 MSTORE PUSH1 0x20 ADD PUSH1 0x0 PUSH1 0x1 DUP2 GT ISZERO PUSH2 0x2C77 JUMPI PUSH2 0x2C76 PUSH2 0x3495 JUMP JUMPDEST JUMPDEST DUP2 MSTORE PUSH1 0x20 ADD PUSH1 0x0 PUSH1 0x5 DUP2 GT ISZERO PUSH2 0x2C90 JUMPI PUSH2 0x2C8F PUSH2 0x3495 JUMP JUMPDEST JUMPDEST DUP2 MSTORE PUSH1 0x20 ADD PUSH1 0x0 DUP2 MSTORE PUSH1 0x20 ADD PUSH1 0x0 DUP2 MSTORE POP SWAP1 JUMP JUMPDEST PUSH1 0x40 MLOAD DUP1 PUSH1 0x80 ADD PUSH1 0x40 MSTORE DUP1 PUSH1 0x0 DUP2 MSTORE PUSH1 0x20 ADD PUSH1 0x0 DUP2 MSTORE PUSH1 0x20 ADD PUSH1 0x0 DUP2 MSTORE PUSH1 0x20 ADD PUSH1 0x0 DUP2 MSTORE POP SWAP1 JUMP JUMPDEST PUSH1 0x0 PUSH1 0x40 MLOAD SWAP1 POP SWAP1 JUMP JUMPDEST PUSH1 0x0 DUP1 REVERT JUMPDEST PUSH1 0x0 DUP1 REVERT JUMPDEST PUSH1 0x0 DUP2 SWAP1 POP SWAP2 SWAP1 POP JUMP JUMPDEST PUSH2 0x2CF3 DUP2 PUSH2 0x2CE0 JUMP JUMPDEST DUP2 EQ PUSH2 0x2CFE JUMPI PUSH1 0x0 DUP1 REVERT JUMPDEST POP JUMP JUMPDEST PUSH1 0x0 DUP2 CALLDATALOAD SWAP1 POP PUSH2 0x2D10 DUP2 PUSH2 0x2CEA JUMP JUMPDEST SWAP3 SWAP2 POP POP JUMP JUMPDEST PUSH1 0x0 PUSH1 0x20 DUP3 DUP5 SUB SLT ISZERO PUSH2 0x2D2C JUMPI PUSH2 0x2D2B PUSH2 0x2CD6 JUMP JUMPDEST JUMPDEST PUSH1 0x0 PUSH2 0x2D3A DUP5 DUP3 DUP6 ADD PUSH2 0x2D01 JUMP JUMPDEST SWAP2 POP POP SWAP3 SWAP2 POP POP JUMP JUMPDEST PUSH2 0x2D4C DUP2 PUSH2 0x2CE0 JUMP JUMPDEST DUP3 MSTORE POP POP JUMP JUMPDEST PUSH1 0x0 PUSH1 0x20 DUP3 ADD SWAP1 POP PUSH2 0x2D67 PUSH1 0x0 DUP4 ADD DUP5 PUSH2 0x2D43 JUMP JUMPDEST SWAP3 SWAP2 POP POP JUMP JUMPDEST PUSH1 0x0 DUP1 PUSH1 0x40 DUP4 DUP6 SUB SLT ISZERO PUSH2 0x2D84 JUMPI PUSH2 0x2D83 PUSH2 0x2CD6 JUMP JUMPDEST JUMPDEST PUSH1 0x0 PUSH2 0x2D92 DUP6 DUP3 DUP7 ADD PUSH2 0x2D01 JUMP JUMPDEST SWAP3 POP POP PUSH1 0x20 PUSH2 0x2DA3 DUP6 DUP3 DUP7 ADD PUSH2 0x2D01 JUMP JUMPDEST SWAP2 POP POP SWAP3 POP SWAP3 SWAP1 POP JUMP JUMPDEST PUSH1 0x0 DUP1 REVERT JUMPDEST PUSH1 0x0 DUP1 REVERT JUMPDEST PUSH1 0x0 PUSH1 0x1F NOT PUSH1 0x1F DUP4 ADD AND SWAP1 POP SWAP2 SWAP1 POP JUMP JUMPDEST PUSH32 0x4E487B7100000000000000000000000000000000000000000000000000000000 PUSH1 0x0 MSTORE PUSH1 0x41 PUSH1 0x4 MSTORE PUSH1 0x24 PUSH1 0x0 REVERT JUMPDEST PUSH2 0x2E00 DUP3 PUSH2 0x2DB7 JUMP JUMPDEST DUP2 ADD DUP2 DUP2 LT PUSH8 0xFFFFFFFFFFFFFFFF DUP3 GT OR ISZERO PUSH2 0x2E1F JUMPI PUSH2 0x2E1E PUSH2 0x2DC8 JUMP JUMPDEST JUMPDEST DUP1 PUSH1 0x40 MSTORE POP POP POP JUMP JUMPDEST PUSH1 0x0 PUSH2 0x2E32 PUSH2 0x2CCC JUMP JUMPDEST SWAP1 POP PUSH2 0x2E3E DUP3 DUP3 PUSH2 0x2DF7 JUMP JUMPDEST SWAP2 SWAP1 POP JUMP JUMPDEST PUSH1 0x0 PUSH8 0xFFFFFFFFFFFFFFFF DUP3 GT ISZERO PUSH2 0x2E5E JUMPI PUSH2 0x2E5D PUSH2 0x2DC8 JUMP JUMPDEST JUMPDEST PUSH2 0x2E67 DUP3 PUSH2 0x2DB7 JUMP JUMPDEST SWAP1 POP PUSH1 0x20 DUP2 ADD SWAP1 POP SWAP2 SWAP1 POP JUMP JUMPDEST DUP3 DUP2 DUP4 CALLDATACOPY PUSH1 0x0 DUP4 DUP4 ADD MSTORE POP POP POP JUMP JUMPDEST PUSH1 0x0 PUSH2 0x2E96 PUSH2 0x2E91 DUP5 PUSH2 0x2E43 JUMP JUMPDEST PUSH2 0x2E28 JUMP JUMPDEST SWAP1 POP DUP3 DUP2 MSTORE PUSH1 0x20 DUP2 ADD DUP5 DUP5 DUP5 ADD GT ISZERO PUSH2 0x2EB2 JUMPI PUSH2 0x2EB1 PUSH2 0x2DB2 JUMP JUMPDEST JUMPDEST PUSH2 0x2EBD DUP5 DUP3 DUP6 PUSH2 0x2E74 JUMP JUMPDEST POP SWAP4 SWAP3 POP POP POP JUMP JUMPDEST PUSH1 0x0 DUP3 PUSH1 0x1F DUP4 ADD SLT PUSH2 0x2EDA JUMPI PUSH2 0x2ED9 PUSH2 0x2DAD JUMP JUMPDEST JUMPDEST DUP2 CALLDATALOAD PUSH2 0x2EEA DUP5 DUP3 PUSH1 0x20 DUP7 ADD PUSH2 0x2E83 JUMP JUMPDEST SWAP2 POP POP SWAP3 SWAP2 POP POP JUMP JUMPDEST PUSH1 0x0 DUP1 PUSH1 0x0 DUP1 PUSH1 0x80 DUP6 DUP8 SUB SLT ISZERO PUSH2 0x2F0D JUMPI PUSH2 0x2F0C PUSH2 0x2CD6 JUMP JUMPDEST JUMPDEST PUSH1 0x0 PUSH2 0x2F1B DUP8 DUP3 DUP9 ADD PUSH2 0x2D01 JUMP JUMPDEST SWAP5 POP POP PUSH1 0x20 PUSH2 0x2F2C DUP8 DUP3 DUP9 ADD PUSH2 0x2D01 JUMP JUMPDEST SWAP4 POP POP PUSH1 0x40 DUP6 ADD CALLDATALOAD PUSH8 0xFFFFFFFFFFFFFFFF DUP2 GT ISZERO PUSH2 0x2F4D JUMPI PUSH2 0x2F4C PUSH2 0x2CDB JUMP JUMPDEST JUMPDEST PUSH2 0x2F59 DUP8 DUP3 DUP9 ADD PUSH2 0x2EC5 JUMP JUMPDEST SWAP3 POP POP PUSH1 0x60 DUP6 ADD CALLDATALOAD PUSH8 0xFFFFFFFFFFFFFFFF DUP2 GT ISZERO PUSH2 0x2F7A JUMPI PUSH2 0x2F79 PUSH2 0x2CDB JUMP JUMPDEST JUMPDEST PUSH2 0x2F86 DUP8 DUP3 DUP9 ADD PUSH2 0x2EC5 JUMP JUMPDEST SWAP2 POP POP SWAP3 SWAP6 SWAP2 SWAP5 POP SWAP3 POP JUMP JUMPDEST PUSH1 0x0 DUP2 ISZERO ISZERO SWAP1 POP SWAP2 SWAP1 POP JUMP JUMPDEST PUSH2 0x2FA7 DUP2 PUSH2 0x2F92 JUMP JUMPDEST DUP3 MSTORE POP POP JUMP JUMPDEST PUSH1 0x0 PUSH1 0x40 DUP3 ADD SWAP1 POP PUSH2 0x2FC2 PUSH1 0x0 DUP4 ADD DUP6 PUSH2 0x2F9E JUMP JUMPDEST PUSH2 0x2FCF PUSH1 0x20 DUP4 ADD DUP5 PUSH2 0x2D43 JUMP JUMPDEST SWAP4 SWAP3 POP POP POP JUMP JUMPDEST PUSH1 0x0 PUSH8 0xFFFFFFFFFFFFFFFF DUP3 GT ISZERO PUSH2 0x2FF1 JUMPI PUSH2 0x2FF0 PUSH2 0x2DC8 JUMP JUMPDEST JUMPDEST PUSH2 0x2FFA DUP3 PUSH2 0x2DB7 JUMP JUMPDEST SWAP1 POP PUSH1 0x20 DUP2 ADD SWAP1 POP SWAP2 SWAP1 POP JUMP JUMPDEST PUSH1 0x0 PUSH2 0x301A PUSH2 0x3015 DUP5 PUSH2 0x2FD6 JUMP JUMPDEST PUSH2 0x2E28 JUMP JUMPDEST SWAP1 POP DUP3 DUP2 MSTORE PUSH1 0x20 DUP2 ADD DUP5 DUP5 DUP5 ADD GT ISZERO PUSH2 0x3036 JUMPI PUSH2 0x3035 PUSH2 0x2DB2 JUMP JUMPDEST JUMPDEST PUSH2 0x3041 DUP5 DUP3 DUP6 PUSH2 0x2E74 JUMP JUMPDEST POP SWAP4 SWAP3 POP POP POP JUMP JUMPDEST PUSH1 0x0 DUP3 PUSH1 0x1F DUP4 ADD SLT PUSH2 0x305E JUMPI PUSH2 0x305D PUSH2 0x2DAD JUMP JUMPDEST JUMPDEST DUP2 CALLDATALOAD PUSH2 0x306E DUP5 DUP3 PUSH1 0x20 DUP7 ADD PUSH2 0x3007 JUMP JUMPDEST SWAP2 POP POP SWAP3 SWAP2 POP POP JUMP JUMPDEST PUSH1 0x0 DUP1 PUSH1 0x0 DUP1 PUSH1 0x0 DUP1 PUSH1 0xC0 DUP8 DUP10 SUB SLT ISZERO PUSH2 0x3094 JUMPI PUSH2 0x3093 PUSH2 0x2CD6 JUMP JUMPDEST JUMPDEST PUSH1 0x0 PUSH2 0x30A2 DUP10 DUP3 DUP11 ADD PUSH2 0x2D01 JUMP JUMPDEST SWAP7 POP POP PUSH1 0x20 PUSH2 0x30B3 DUP10 DUP3 DUP11 ADD PUSH2 0x2D01 JUMP JUMPDEST SWAP6 POP POP PUSH1 0x40 PUSH2 0x30C4 DUP10 DUP3 DUP11 ADD PUSH2 0x2D01 JUMP JUMPDEST SWAP5 POP POP PUSH1 0x60 DUP8 ADD CALLDATALOAD PUSH8 0xFFFFFFFFFFFFFFFF DUP2 GT ISZERO PUSH2 0x30E5 JUMPI PUSH2 0x30E4 PUSH2 0x2CDB JUMP JUMPDEST JUMPDEST PUSH2 0x30F1 DUP10 DUP3 DUP11 ADD PUSH2 0x3049 JUMP JUMPDEST SWAP4 POP POP PUSH1 0x80 DUP8 ADD CALLDATALOAD PUSH8 0xFFFFFFFFFFFFFFFF DUP2 GT ISZERO PUSH2 0x3112 JUMPI PUSH2 0x3111 PUSH2 0x2CDB JUMP JUMPDEST JUMPDEST PUSH2 0x311E DUP10 DUP3 DUP11 ADD PUSH2 0x2EC5 JUMP JUMPDEST SWAP3 POP POP PUSH1 0xA0 DUP8 ADD CALLDATALOAD PUSH8 0xFFFFFFFFFFFFFFFF DUP2 GT ISZERO PUSH2 0x313F JUMPI PUSH2 0x313E PUSH2 0x2CDB JUMP JUMPDEST JUMPDEST PUSH2 0x314B DUP10 DUP3 DUP11 ADD PUSH2 0x2EC5 JUMP JUMPDEST SWAP2 POP POP SWAP3 SWAP6 POP SWAP3 SWAP6 POP SWAP3 SWAP6 JUMP JUMPDEST PUSH1 0x0 DUP2 MLOAD SWAP1 POP SWAP2 SWAP1 POP JUMP JUMPDEST PUSH1 0x0 DUP3 DUP3 MSTORE PUSH1 0x20 DUP3 ADD SWAP1 POP SWAP3 SWAP2 POP POP JUMP JUMPDEST PUSH1 0x0 JUMPDEST DUP4 DUP2 LT ISZERO PUSH2 0x3192 JUMPI DUP1 DUP3 ADD MLOAD DUP2 DUP5 ADD MSTORE PUSH1 0x20 DUP2 ADD SWAP1 POP PUSH2 0x3177 JUMP JUMPDEST PUSH1 0x0 DUP5 DUP5 ADD MSTORE POP POP POP POP JUMP JUMPDEST PUSH1 0x0 PUSH2 0x31A9 DUP3 PUSH2 0x3158 JUMP JUMPDEST PUSH2 0x31B3 DUP2 DUP6 PUSH2 0x3163 JUMP JUMPDEST SWAP4 POP PUSH2 0x31C3 DUP2 DUP6 PUSH1 0x20 DUP7 ADD PUSH2 0x3174 JUMP JUMPDEST PUSH2 0x31CC DUP2 PUSH2 0x2DB7 JUMP JUMPDEST DUP5 ADD SWAP2 POP POP SWAP3 SWAP2 POP POP JUMP JUMPDEST PUSH1 0x0 PUSH20 0xFFFFFFFFFFFFFFFFFFFFFFFFFFFFFFFFFFFFFFFF DUP3 AND SWAP1 POP SWAP2 SWAP1 POP JUMP JUMPDEST PUSH1 0x0 PUSH2 0x3202 DUP3 PUSH2 0x31D7 JUMP JUMPDEST SWAP1 POP SWAP2 SWAP1 POP JUMP JUMPDEST PUSH2 0x3212 DUP2 PUSH2 0x31F7 JUMP JUMPDEST DUP3 MSTORE POP POP JUMP JUMPDEST PUSH1 0x0 PUSH1 0x80 DUP3 ADD SWAP1 POP PUSH2 0x322D PUSH1 0x0 DUP4 ADD DUP8 PUSH2 0x2D43 JUMP JUMPDEST DUP2 DUP2 SUB PUSH1 0x20 DUP4 ADD MSTORE PUSH2 0x323F DUP2 DUP7 PUSH2 0x319E JUMP JUMPDEST SWAP1 POP PUSH2 0x324E PUSH1 0x40 DUP4 ADD DUP6 PUSH2 0x3209 JUMP JUMPDEST PUSH2 0x325B PUSH1 0x60 DUP4 ADD DUP5 PUSH2 0x2D43 JUMP JUMPDEST SWAP6 SWAP5 POP POP POP POP POP JUMP JUMPDEST PUSH1 0x2 DUP2 LT PUSH2 0x3271 JUMPI PUSH1 0x0 DUP1 REVERT JUMPDEST POP JUMP JUMPDEST PUSH1 0x0 DUP2 CALLDATALOAD SWAP1 POP PUSH2 0x3283 DUP2 PUSH2 0x3264 JUMP JUMPDEST SWAP3 SWAP2 POP POP JUMP JUMPDEST PUSH1 0x0 DUP1 PUSH1 0x0 DUP1 PUSH1 0x0 DUP1 PUSH1 0xC0 DUP8 DUP10 SUB SLT ISZERO PUSH2 0x32A6 JUMPI PUSH2 0x32A5 PUSH2 0x2CD6 JUMP JUMPDEST JUMPDEST PUSH1 0x0 PUSH2 0x32B4 DUP10 DUP3 DUP11 ADD PUSH2 0x2D01 JUMP JUMPDEST SWAP7 POP POP PUSH1 0x20 PUSH2 0x32C5 DUP10 DUP3 DUP11 ADD PUSH2 0x2D01 JUMP JUMPDEST SWAP6 POP POP PUSH1 0x40 PUSH2 0x32D6 DUP10 DUP3 DUP11 ADD PUSH2 0x2D01 JUMP JUMPDEST SWAP5 POP POP PUSH1 0x60 PUSH2 0x32E7 DUP10 DUP3 DUP11 ADD PUSH2 0x3274 JUMP JUMPDEST SWAP4 POP POP PUSH1 0x80 PUSH2 0x32F8 DUP10 DUP3 DUP11 ADD PUSH2 0x2D01 JUMP JUMPDEST SWAP3 POP POP PUSH1 0xA0 PUSH2 0x3309 DUP10 DUP3 DUP11 ADD PUSH2 0x2D01 JUMP JUMPDEST SWAP2 POP POP SWAP3 SWAP6 POP SWAP3 SWAP6 POP SWAP3 SWAP6 JUMP JUMPDEST PUSH1 0x0 DUP1 PUSH1 0x0 DUP1 PUSH1 0x80 DUP6 DUP8 SUB SLT ISZERO PUSH2 0x3330 JUMPI PUSH2 0x332F PUSH2 0x2CD6 JUMP JUMPDEST JUMPDEST PUSH1 0x0 PUSH2 0x333E DUP8 DUP3 DUP9 ADD PUSH2 0x2D01 JUMP JUMPDEST SWAP5 POP POP PUSH1 0x20 PUSH2 0x334F DUP8 DUP3 DUP9 ADD PUSH2 0x2D01 JUMP JUMPDEST SWAP4 POP POP PUSH1 0x40 PUSH2 0x3360 DUP8 DUP3 DUP9 ADD PUSH2 0x2D01 JUMP JUMPDEST SWAP3 POP POP PUSH1 0x60 DUP6 ADD CALLDATALOAD PUSH8 0xFFFFFFFFFFFFFFFF DUP2 GT ISZERO PUSH2 0x3381 JUMPI PUSH2 0x3380 PUSH2 0x2CDB JUMP JUMPDEST JUMPDEST PUSH2 0x338D DUP8 DUP3 DUP9 ADD PUSH2 0x2EC5 JUMP JUMPDEST SWAP2 POP POP SWAP3 SWAP6 SWAP2 SWAP5 POP SWAP3 POP JUMP JUMPDEST PUSH1 0x0 PUSH1 0x80 DUP3 ADD SWAP1 POP PUSH2 0x33AE PUSH1 0x0 DUP4 ADD DUP8 PUSH2 0x2D43 JUMP JUMPDEST PUSH2 0x33BB PUSH1 0x20 DUP4 ADD DUP7 PUSH2 0x2D43 JUMP JUMPDEST PUSH2 0x33C8 PUSH1 0x40 DUP4 ADD DUP6 PUSH2 0x2D43 JUMP JUMPDEST PUSH2 0x33D5 PUSH1 0x60 DUP4 ADD DUP5 PUSH2 0x2D43 JUMP JUMPDEST SWAP6 SWAP5 POP POP POP POP POP JUMP JUMPDEST PUSH1 0x0 DUP1 PUSH1 0x0 PUSH1 0x60 DUP5 DUP7 SUB SLT ISZERO PUSH2 0x33F7 JUMPI PUSH2 0x33F6 PUSH2 0x2CD6 JUMP JUMPDEST JUMPDEST PUSH1 0x0 PUSH2 0x3405 DUP7 DUP3 DUP8 ADD PUSH2 0x2D01 JUMP JUMPDEST SWAP4 POP POP PUSH1 0x20 PUSH2 0x3416 DUP7 DUP3 DUP8 ADD PUSH2 0x2D01 JUMP JUMPDEST SWAP3 POP POP PUSH1 0x40 PUSH2 0x3427 DUP7 DUP3 DUP8 ADD PUSH2 0x2D01 JUMP JUMPDEST SWAP2 POP POP SWAP3 POP SWAP3 POP SWAP3 JUMP JUMPDEST PUSH2 0x343A DUP2 PUSH2 0x2CE0 JUMP JUMPDEST DUP3 MSTORE POP POP JUMP JUMPDEST PUSH1 0x80 DUP3 ADD PUSH1 0x0 DUP3 ADD MLOAD PUSH2 0x3456 PUSH1 0x0 DUP6 ADD DUP3 PUSH2 0x3431 JUMP JUMPDEST POP PUSH1 0x20 DUP3 ADD MLOAD PUSH2 0x3469 PUSH1 0x20 DUP6 ADD DUP3 PUSH2 0x3431 JUMP JUMPDEST POP PUSH1 0x40 DUP3 ADD MLOAD PUSH2 0x347C PUSH1 0x40 DUP6 ADD DUP3 PUSH2 0x3431 JUMP JUMPDEST POP PUSH1 0x60 DUP3 ADD MLOAD PUSH2 0x348F PUSH1 0x60 DUP6 ADD DUP3 PUSH2 0x3431 JUMP JUMPDEST POP POP POP POP JUMP JUMPDEST PUSH32 0x4E487B7100000000000000000000000000000000000000000000000000000000 PUSH1 0x0 MSTORE PUSH1 0x21 PUSH1 0x4 MSTORE PUSH1 0x24 PUSH1 0x0 REVERT JUMPDEST PUSH1 0x2 DUP2 LT PUSH2 0x34D5 JUMPI PUSH2 0x34D4 PUSH2 0x3495 JUMP JUMPDEST JUMPDEST POP JUMP JUMPDEST PUSH1 0x0 DUP2 SWAP1 POP PUSH2 0x34E6 DUP3 PUSH2 0x34C4 JUMP JUMPDEST SWAP2 SWAP1 POP JUMP JUMPDEST PUSH1 0x0 PUSH2 0x34F6 DUP3 PUSH2 0x34D8 JUMP JUMPDEST SWAP1 POP SWAP2 SWAP1 POP JUMP JUMPDEST PUSH2 0x3506 DUP2 PUSH2 0x34EB JUMP JUMPDEST DUP3 MSTORE POP POP JUMP JUMPDEST PUSH1 0x6 DUP2 LT PUSH2 0x351D JUMPI PUSH2 0x351C PUSH2 0x3495 JUMP JUMPDEST JUMPDEST POP JUMP JUMPDEST PUSH1 0x0 DUP2 SWAP1 POP PUSH2 0x352E DUP3 PUSH2 0x350C JUMP JUMPDEST SWAP2 SWAP1 POP JUMP JUMPDEST PUSH1 0x0 PUSH2 0x353E DUP3 PUSH2 0x3520 JUMP JUMPDEST SWAP1 POP SWAP2 SWAP1 POP JUMP JUMPDEST PUSH2 0x354E DUP2 PUSH2 0x3533 JUMP JUMPDEST DUP3 MSTORE POP POP JUMP JUMPDEST PUSH1 0x0 PUSH2 0x180 DUP3 ADD SWAP1 POP PUSH2 0x356A PUSH1 0x0 DUP4 ADD DUP13 PUSH2 0x2D43 JUMP JUMPDEST PUSH2 0x3577 PUSH1 0x20 DUP4 ADD DUP12 PUSH2 0x2D43 JUMP JUMPDEST PUSH2 0x3584 PUSH1 0x40 DUP4 ADD DUP11 PUSH2 0x3440 JUMP JUMPDEST PUSH2 0x3591 PUSH1 0xC0 DUP4 ADD DUP10 PUSH2 0x2D43 JUMP JUMPDEST PUSH2 0x359E PUSH1 0xE0 DUP4 ADD DUP9 PUSH2 0x2D43 JUMP JUMPDEST PUSH2 0x35AC PUSH2 0x100 DUP4 ADD DUP8 PUSH2 0x34FD JUMP JUMPDEST PUSH2 0x35BA PUSH2 0x120 DUP4 ADD DUP7 PUSH2 0x3545 JUMP JUMPDEST PUSH2 0x35C8 PUSH2 0x140 DUP4 ADD DUP6 PUSH2 0x2D43 JUMP JUMPDEST PUSH2 0x35D6 PUSH2 0x160 DUP4 ADD DUP5 PUSH2 0x2D43 JUMP JUMPDEST SWAP11 SWAP10 POP POP POP POP POP POP POP POP POP POP JUMP JUMPDEST PUSH1 0x0 PUSH1 0x20 DUP3 ADD SWAP1 POP PUSH2 0x35F9 PUSH1 0x0 DUP4 ADD DUP5 PUSH2 0x3545 JUMP JUMPDEST SWAP3 SWAP2 POP POP JUMP JUMPDEST PUSH1 0x3 DUP2 LT PUSH2 0x3610 JUMPI PUSH2 0x360F PUSH2 0x3495 JUMP JUMPDEST JUMPDEST POP JUMP JUMPDEST PUSH1 0x0 DUP2 SWAP1 POP PUSH2 0x3621 DUP3 PUSH2 0x35FF JUMP JUMPDEST SWAP2 SWAP1 POP JUMP JUMPDEST PUSH1 0x0 PUSH2 0x3631 DUP3 PUSH2 0x3613 JUMP JUMPDEST SWAP1 POP SWAP2 SWAP1 POP JUMP JUMPDEST PUSH2 0x3641 DUP2 PUSH2 0x3626 JUMP JUMPDEST DUP3 MSTORE POP POP JUMP JUMPDEST PUSH1 0x0 PUSH1 0x20 DUP3 ADD SWAP1 POP PUSH2 0x365C PUSH1 0x0 DUP4 ADD DUP5 PUSH2 0x3638 JUMP JUMPDEST SWAP3 SWAP2 POP POP JUMP JUMPDEST PUSH1 0x0 PUSH1 0x20 DUP3 ADD SWAP1 POP DUP2 DUP2 SUB PUSH1 0x0 DUP4 ADD MSTORE PUSH2 0x367C DUP2 DUP5 PUSH2 0x319E JUMP JUMPDEST SWAP1 POP SWAP3 SWAP2 POP POP JUMP JUMPDEST PUSH1 0x0 DUP1 PUSH1 0x0 DUP1 PUSH1 0x0 DUP1 PUSH1 0x0 PUSH1 0xE0 DUP9 DUP11 SUB SLT ISZERO PUSH2 0x36A3 JUMPI PUSH2 0x36A2 PUSH2 0x2CD6 JUMP JUMPDEST JUMPDEST PUSH1 0x0 PUSH2 0x36B1 DUP11 DUP3 DUP12 ADD PUSH2 0x2D01 JUMP JUMPDEST SWAP8 POP POP PUSH1 0x20 PUSH2 0x36C2 DUP11 DUP3 DUP12 ADD PUSH2 0x2D01 JUMP JUMPDEST SWAP7 POP POP PUSH1 0x40 DUP9 ADD CALLDATALOAD PUSH8 0xFFFFFFFFFFFFFFFF DUP2 GT ISZERO PUSH2 0x36E3 JUMPI PUSH2 0x36E2 PUSH2 0x2CDB JUMP JUMPDEST JUMPDEST PUSH2 0x36EF DUP11 DUP3 DUP12 ADD PUSH2 0x3049 JUMP JUMPDEST SWAP6 POP POP PUSH1 0x60 PUSH2 0x3700 DUP11 DUP3 DUP12 ADD PUSH2 0x2D01 JUMP JUMPDEST SWAP5 POP POP PUSH1 0x80 PUSH2 0x3711 DUP11 DUP3 DUP12 ADD PUSH2 0x2D01 JUMP JUMPDEST SWAP4 POP POP PUSH1 0xA0 DUP9 ADD CALLDATALOAD PUSH8 0xFFFFFFFFFFFFFFFF DUP2 GT ISZERO PUSH2 0x3732 JUMPI PUSH2 0x3731 PUSH2 0x2CDB JUMP JUMPDEST JUMPDEST PUSH2 0x373E DUP11 DUP3 DUP12 ADD PUSH2 0x2EC5 JUMP JUMPDEST SWAP3 POP POP PUSH1 0xC0 DUP9 ADD CALLDATALOAD PUSH8 0xFFFFFFFFFFFFFFFF DUP2 GT ISZERO PUSH2 0x375F JUMPI PUSH2 0x375E PUSH2 0x2CDB JUMP JUMPDEST JUMPDEST PUSH2 0x376B DUP11 DUP3 DUP12 ADD PUSH2 0x2EC5 JUMP JUMPDEST SWAP2 POP POP SWAP3 SWAP6 SWAP9 SWAP2 SWAP5 SWAP8 POP SWAP3 SWAP6 POP JUMP JUMPDEST PUSH1 0x80 DUP3 ADD PUSH1 0x0 DUP3 ADD MLOAD PUSH2 0x3790 PUSH1 0x0 DUP6 ADD DUP3 PUSH2 0x3431 JUMP JUMPDEST POP PUSH1 0x20 DUP3 ADD MLOAD PUSH2 0x37A3 PUSH1 0x20 DUP6 ADD DUP3 PUSH2 0x3431 JUMP JUMPDEST POP PUSH1 0x40 DUP3 ADD MLOAD PUSH2 0x37B6 PUSH1 0x40 DUP6 ADD DUP3 PUSH2 0x3431 JUMP JUMPDEST POP PUSH1 0x60 DUP3 ADD MLOAD PUSH2 0x37C9 PUSH1 0x60 DUP6 ADD DUP3 PUSH2 0x3431 JUMP JUMPDEST POP POP POP POP JUMP JUMPDEST PUSH2 0x37D8 DUP2 PUSH2 0x34EB JUMP JUMPDEST DUP3 MSTORE POP POP JUMP JUMPDEST PUSH2 0x37E7 DUP2 PUSH2 0x3533 JUMP JUMPDEST DUP3 MSTORE POP POP JUMP JUMPDEST PUSH2 0x180 DUP3 ADD PUSH1 0x0 DUP3 ADD MLOAD PUSH2 0x3804 PUSH1 0x0 DUP6 ADD DUP3 PUSH2 0x3431 JUMP JUMPDEST POP PUSH1 0x20 DUP3 ADD MLOAD PUSH2 0x3817 PUSH1 0x20 DUP6 ADD DUP3 PUSH2 0x3431 JUMP JUMPDEST POP PUSH1 0x40 DUP3 ADD MLOAD PUSH2 0x382A PUSH1 0x40 DUP6 ADD DUP3 PUSH2 0x377A JUMP JUMPDEST POP PUSH1 0x60 DUP3 ADD MLOAD PUSH2 0x383D PUSH1 0xC0 DUP6 ADD DUP3 PUSH2 0x3431 JUMP JUMPDEST POP PUSH1 0x80 DUP3 ADD MLOAD PUSH2 0x3850 PUSH1 0xE0 DUP6 ADD DUP3 PUSH2 0x3431 JUMP JUMPDEST POP PUSH1 0xA0 DUP3 ADD MLOAD PUSH2 0x3864 PUSH2 0x100 DUP6 ADD DUP3 PUSH2 0x37CF JUMP JUMPDEST POP PUSH1 0xC0 DUP3 ADD MLOAD PUSH2 0x3878 PUSH2 0x120 DUP6 ADD DUP3 PUSH2 0x37DE JUMP JUMPDEST POP PUSH1 0xE0 DUP3 ADD MLOAD PUSH2 0x388C PUSH2 0x140 DUP6 ADD DUP3 PUSH2 0x3431 JUMP JUMPDEST POP PUSH2 0x100 DUP3 ADD MLOAD PUSH2 0x38A1 PUSH2 0x160 DUP6 ADD DUP3 PUSH2 0x3431 JUMP JUMPDEST POP POP POP POP JUMP JUMPDEST PUSH1 0x0 PUSH2 0x180 DUP3 ADD SWAP1 POP PUSH2 0x38BD PUSH1 0x0 DUP4 ADD DUP5 PUSH2 0x37ED JUMP JUMPDEST SWAP3 SWAP2 POP POP JUMP JUMPDEST PUSH1 0x0 PUSH1 0x20 DUP3 DUP5 SUB SLT ISZERO PUSH2 0x38D9 JUMPI PUSH2 0x38D8 PUSH2 0x2CD6 JUMP JUMPDEST JUMPDEST PUSH1 0x0 DUP3 ADD CALLDATALOAD PUSH8 0xFFFFFFFFFFFFFFFF DUP2 GT ISZERO PUSH2 0x38F7 JUMPI PUSH2 0x38F6 PUSH2 0x2CDB JUMP JUMPDEST JUMPDEST PUSH2 0x3903 DUP5 DUP3 DUP6 ADD PUSH2 0x2EC5 JUMP JUMPDEST SWAP2 POP POP SWAP3 SWAP2 POP POP JUMP JUMPDEST PUSH1 0x6 DUP2 LT PUSH2 0x3919 JUMPI PUSH1 0x0 DUP1 REVERT JUMPDEST POP JUMP JUMPDEST PUSH1 0x0 DUP2 CALLDATALOAD SWAP1 POP PUSH2 0x392B DUP2 PUSH2 0x390C JUMP JUMPDEST SWAP3 SWAP2 POP POP JUMP JUMPDEST PUSH1 0x0 DUP1 PUSH1 0x40 DUP4 DUP6 SUB SLT ISZERO PUSH2 0x3948 JUMPI PUSH2 0x3947 PUSH2 0x2CD6 JUMP JUMPDEST JUMPDEST PUSH1 0x0 PUSH2 0x3956 DUP6 DUP3 DUP7 ADD PUSH2 0x391C JUMP JUMPDEST SWAP3 POP POP PUSH1 0x20 PUSH2 0x3967 DUP6 DUP3 DUP7 ADD PUSH2 0x2D01 JUMP JUMPDEST SWAP2 POP POP SWAP3 POP SWAP3 SWAP1 POP JUMP JUMPDEST PUSH1 0x0 PUSH1 0x20 DUP3 ADD SWAP1 POP PUSH2 0x3986 PUSH1 0x0 DUP4 ADD DUP5 PUSH2 0x3209 JUMP JUMPDEST SWAP3 SWAP2 POP POP JUMP JUMPDEST PUSH1 0x0 DUP1 PUSH1 0x0 DUP1 PUSH1 0x80 DUP6 DUP8 SUB SLT ISZERO PUSH2 0x39A6 JUMPI PUSH2 0x39A5 PUSH2 0x2CD6 JUMP JUMPDEST JUMPDEST PUSH1 0x0 PUSH2 0x39B4 DUP8 DUP3 DUP9 ADD PUSH2 0x2D01 JUMP JUMPDEST SWAP5 POP POP PUSH1 0x20 PUSH2 0x39C5 DUP8 DUP3 DUP9 ADD PUSH2 0x2D01 JUMP JUMPDEST SWAP4 POP POP PUSH1 0x40 PUSH2 0x39D6 DUP8 DUP3 DUP9 ADD PUSH2 0x2D01 JUMP JUMPDEST SWAP3 POP POP PUSH1 0x60 PUSH2 0x39E7 DUP8 DUP3 DUP9 ADD PUSH2 0x2D01 JUMP JUMPDEST SWAP2 POP POP SWAP3 SWAP6 SWAP2 SWAP5 POP SWAP3 POP JUMP JUMPDEST PUSH32 0x4E487B7100000000000000000000000000000000000000000000000000000000 PUSH1 0x0 MSTORE PUSH1 0x11 PUSH1 0x4 MSTORE PUSH1 0x24 PUSH1 0x0 REVERT JUMPDEST PUSH1 0x0 PUSH2 0x3A2D DUP3 PUSH2 0x2CE0 JUMP JUMPDEST SWAP2 POP PUSH32 0xFFFFFFFFFFFFFFFFFFFFFFFFFFFFFFFFFFFFFFFFFFFFFFFFFFFFFFFFFFFFFFFF DUP3 SUB PUSH2 0x3A5F JUMPI PUSH2 0x3A5E PUSH2 0x39F3 JUMP JUMPDEST JUMPDEST PUSH1 0x1 DUP3 ADD SWAP1 POP SWAP2 SWAP1 POP JUMP JUMPDEST PUSH32 0x4E487B7100000000000000000000000000000000000000000000000000000000 PUSH1 0x0 MSTORE PUSH1 0x22 PUSH1 0x4 MSTORE PUSH1 0x24 PUSH1 0x0 REVERT JUMPDEST PUSH1 0x0 PUSH1 0x2 DUP3 DIV SWAP1 POP PUSH1 0x1 DUP3 AND DUP1 PUSH2 0x3AB1 JUMPI PUSH1 0x7F DUP3 AND SWAP2 POP JUMPDEST PUSH1 0x20 DUP3 LT DUP2 SUB PUSH2 0x3AC4 JUMPI PUSH2 0x3AC3 PUSH2 0x3A6A JUMP JUMPDEST JUMPDEST POP SWAP2 SWAP1 POP JUMP JUMPDEST PUSH1 0x0 DUP2 SWAP1 POP DUP2 PUSH1 0x0 MSTORE PUSH1 0x20 PUSH1 0x0 KECCAK256 SWAP1 POP SWAP2 SWAP1 POP JUMP JUMPDEST PUSH1 0x0 PUSH1 0x20 PUSH1 0x1F DUP4 ADD DIV SWAP1 POP SWAP2 SWAP1 POP JUMP JUMPDEST PUSH1 0x0 DUP3 DUP3 SHL SWAP1 POP SWAP3 SWAP2 POP POP JUMP JUMPDEST PUSH1 0x0 PUSH1 0x8 DUP4 MUL PUSH2 0x3B2C PUSH32 0xFFFFFFFFFFFFFFFFFFFFFFFFFFFFFFFFFFFFFFFFFFFFFFFFFFFFFFFFFFFFFFFF DUP3 PUSH2 0x3AEF JUMP JUMPDEST PUSH2 0x3B36 DUP7 DUP4 PUSH2 0x3AEF JUMP JUMPDEST SWAP6 POP DUP1 NOT DUP5 AND SWAP4 POP DUP1 DUP7 AND DUP5 OR SWAP3 POP POP POP SWAP4 SWAP3 POP POP POP JUMP JUMPDEST PUSH1 0x0 DUP2 SWAP1 POP SWAP2 SWAP1 POP JUMP JUMPDEST PUSH1 0x0 PUSH2 0x3B73 PUSH2 0x3B6E PUSH2 0x3B69 DUP5 PUSH2 0x2CE0 JUMP JUMPDEST PUSH2 0x3B4E JUMP JUMPDEST PUSH2 0x2CE0 JUMP JUMPDEST SWAP1 POP SWAP2 SWAP1 POP JUMP JUMPDEST PUSH1 0x0 DUP2 SWAP1 POP SWAP2 SWAP1 POP JUMP JUMPDEST PUSH2 0x3B8D DUP4 PUSH2 0x3B58 JUMP JUMPDEST PUSH2 0x3BA1 PUSH2 0x3B99 DUP3 PUSH2 0x3B7A JUMP JUMPDEST DUP5 DUP5 SLOAD PUSH2 0x3AFC JUMP JUMPDEST DUP3 SSTORE POP POP POP POP JUMP JUMPDEST PUSH1 0x0 SWAP1 JUMP JUMPDEST PUSH2 0x3BB6 PUSH2 0x3BA9 JUMP JUMPDEST PUSH2 0x3BC1 DUP2 DUP5 DUP5 PUSH2 0x3B84 JUMP JUMPDEST POP POP POP JUMP JUMPDEST JUMPDEST DUP2 DUP2 LT ISZERO PUSH2 0x3BE5 JUMPI PUSH2 0x3BDA PUSH1 0x0 DUP3 PUSH2 0x3BAE JUMP JUMPDEST PUSH1 0x1 DUP2 ADD SWAP1 POP PUSH2 0x3BC7 JUMP JUMPDEST POP POP JUMP JUMPDEST PUSH1 0x1F DUP3 GT ISZERO PUSH2 0x3C2A JUMPI PUSH2 0x3BFB DUP2 PUSH2 0x3ACA JUMP JUMPDEST PUSH2 0x3C04 DUP5 PUSH2 0x3ADF JUMP JUMPDEST DUP2 ADD PUSH1 0x20 DUP6 LT ISZERO PUSH2 0x3C13 JUMPI DUP2 SWAP1 POP JUMPDEST PUSH2 0x3C27 PUSH2 0x3C1F DUP6 PUSH2 0x3ADF JUMP JUMPDEST DUP4 ADD DUP3 PUSH2 0x3BC6 JUMP JUMPDEST POP POP JUMPDEST POP POP POP JUMP JUMPDEST PUSH1 0x0 DUP3 DUP3 SHR SWAP1 POP SWAP3 SWAP2 POP POP JUMP JUMPDEST PUSH1 0x0 PUSH2 0x3C4D PUSH1 0x0 NOT DUP5 PUSH1 0x8 MUL PUSH2 0x3C2F JUMP JUMPDEST NOT DUP1 DUP4 AND SWAP2 POP POP SWAP3 SWAP2 POP POP JUMP JUMPDEST PUSH1 0x0 PUSH2 0x3C66 DUP4 DUP4 PUSH2 0x3C3C JUMP JUMPDEST SWAP2 POP DUP3 PUSH1 0x2 MUL DUP3 OR SWAP1 POP SWAP3 SWAP2 POP POP JUMP JUMPDEST PUSH2 0x3C7F DUP3 PUSH2 0x3158 JUMP JUMPDEST PUSH8 0xFFFFFFFFFFFFFFFF DUP2 GT ISZERO PUSH2 0x3C98 JUMPI PUSH2 0x3C97 PUSH2 0x2DC8 JUMP JUMPDEST JUMPDEST PUSH2 0x3CA2 DUP3 SLOAD PUSH2 0x3A99 JUMP JUMPDEST PUSH2 0x3CAD DUP3 DUP3 DUP6 PUSH2 0x3BE9 JUMP JUMPDEST PUSH1 0x0 PUSH1 0x20 SWAP1 POP PUSH1 0x1F DUP4 GT PUSH1 0x1 DUP2 EQ PUSH2 0x3CE0 JUMPI PUSH1 0x0 DUP5 ISZERO PUSH2 0x3CCE JUMPI DUP3 DUP8 ADD MLOAD SWAP1 POP JUMPDEST PUSH2 0x3CD8 DUP6 DUP3 PUSH2 0x3C5A JUMP JUMPDEST DUP7 SSTORE POP PUSH2 0x3D40 JUMP JUMPDEST PUSH1 0x1F NOT DUP5 AND PUSH2 0x3CEE DUP7 PUSH2 0x3ACA JUMP JUMPDEST PUSH1 0x0 JUMPDEST DUP3 DUP2 LT ISZERO PUSH2 0x3D16 JUMPI DUP5 DUP10 ADD MLOAD DUP3 SSTORE PUSH1 0x1 DUP3 ADD SWAP2 POP PUSH1 0x20 DUP6 ADD SWAP5 POP PUSH1 0x20 DUP2 ADD SWAP1 POP PUSH2 0x3CF1 JUMP JUMPDEST DUP7 DUP4 LT ISZERO PUSH2 0x3D33 JUMPI DUP5 DUP10 ADD MLOAD PUSH2 0x3D2F PUSH1 0x1F DUP10 AND DUP3 PUSH2 0x3C3C JUMP JUMPDEST DUP4 SSTORE POP JUMPDEST PUSH1 0x1 PUSH1 0x2 DUP9 MUL ADD DUP9 SSTORE POP POP POP JUMPDEST POP POP POP POP POP POP JUMP JUMPDEST PUSH1 0x0 PUSH2 0x3D53 DUP3 PUSH2 0x2CE0 JUMP JUMPDEST SWAP2 POP PUSH2 0x3D5E DUP4 PUSH2 0x2CE0 JUMP JUMPDEST SWAP3 POP DUP3 DUP3 ADD SWAP1 POP DUP1 DUP3 GT ISZERO PUSH2 0x3D76 JUMPI PUSH2 0x3D75 PUSH2 0x39F3 JUMP JUMPDEST JUMPDEST SWAP3 SWAP2 POP POP JUMP JUMPDEST PUSH1 0x0 DUP2 SWAP1 POP SWAP3 SWAP2 POP POP JUMP JUMPDEST PUSH1 0x0 PUSH2 0x3D92 DUP3 PUSH2 0x3158 JUMP JUMPDEST PUSH2 0x3D9C DUP2 DUP6 PUSH2 0x3D7C JUMP JUMPDEST SWAP4 POP PUSH2 0x3DAC DUP2 DUP6 PUSH1 0x20 DUP7 ADD PUSH2 0x3174 JUMP JUMPDEST DUP1 DUP5 ADD SWAP2 POP POP SWAP3 SWAP2 POP POP JUMP JUMPDEST PUSH1 0x0 PUSH2 0x3DC4 DUP3 DUP5 PUSH2 0x3D87 JUMP JUMPDEST SWAP2 POP DUP2 SWAP1 POP SWAP3 SWAP2 POP POP JUMP JUMPDEST PUSH1 0x0 DUP2 MLOAD SWAP1 POP SWAP2 SWAP1 POP JUMP JUMPDEST PUSH1 0x0 DUP3 DUP3 MSTORE PUSH1 0x20 DUP3 ADD SWAP1 POP SWAP3 SWAP2 POP POP JUMP JUMPDEST PUSH1 0x0 PUSH2 0x3DF6 DUP3 PUSH2 0x3DCF JUMP JUMPDEST PUSH2 0x3E00 DUP2 DUP6 PUSH2 0x3DDA JUMP JUMPDEST SWAP4 POP PUSH2 0x3E10 DUP2 DUP6 PUSH1 0x20 DUP7 ADD PUSH2 0x3174 JUMP JUMPDEST PUSH2 0x3E19 DUP2 PUSH2 0x2DB7 JUMP JUMPDEST DUP5 ADD SWAP2 POP POP SWAP3 SWAP2 POP POP JUMP JUMPDEST PUSH1 0x0 PUSH1 0x20 DUP3 ADD SWAP1 POP DUP2 DUP2 SUB PUSH1 0x0 DUP4 ADD MSTORE PUSH2 0x3E3E DUP2 DUP5 PUSH2 0x3DEB JUMP JUMPDEST SWAP1 POP SWAP3 SWAP2 POP POP JUMP JUMPDEST PUSH1 0x0 PUSH2 0x3E59 PUSH2 0x3E54 DUP5 PUSH2 0x2E43 JUMP JUMPDEST PUSH2 0x2E28 JUMP JUMPDEST SWAP1 POP DUP3 DUP2 MSTORE PUSH1 0x20 DUP2 ADD DUP5 DUP5 DUP5 ADD GT ISZERO PUSH2 0x3E75 JUMPI PUSH2 0x3E74 PUSH2 0x2DB2 JUMP JUMPDEST JUMPDEST PUSH2 0x3E80 DUP5 DUP3 DUP6 PUSH2 0x3174 JUMP JUMPDEST POP SWAP4 SWAP3 POP POP POP JUMP JUMPDEST PUSH1 0x0 DUP3 PUSH1 0x1F DUP4 ADD SLT PUSH2 0x3E9D JUMPI PUSH2 0x3E9C PUSH2 0x2DAD JUMP JUMPDEST JUMPDEST DUP2 MLOAD PUSH2 0x3EAD DUP5 DUP3 PUSH1 0x20 DUP7 ADD PUSH2 0x3E46 JUMP JUMPDEST SWAP2 POP POP SWAP3 SWAP2 POP POP JUMP JUMPDEST PUSH1 0x0 PUSH1 0x20 DUP3 DUP5 SUB SLT ISZERO PUSH2 0x3ECC JUMPI PUSH2 0x3ECB PUSH2 0x2CD6 JUMP JUMPDEST JUMPDEST PUSH1 0x0 DUP3 ADD MLOAD PUSH8 0xFFFFFFFFFFFFFFFF DUP2 GT ISZERO PUSH2 0x3EEA JUMPI PUSH2 0x3EE9 PUSH2 0x2CDB JUMP JUMPDEST JUMPDEST PUSH2 0x3EF6 DUP5 DUP3 DUP6 ADD PUSH2 0x3E88 JUMP JUMPDEST SWAP2 POP POP SWAP3 SWAP2 POP POP JUMP JUMPDEST PUSH32 0x4E6F74207468652073616D65207374616B65686F6C6465722100000000000000 PUSH1 0x0 DUP3 ADD MSTORE POP JUMP JUMPDEST PUSH1 0x0 PUSH2 0x3F35 PUSH1 0x19 DUP4 PUSH2 0x3163 JUMP JUMPDEST SWAP2 POP PUSH2 0x3F40 DUP3 PUSH2 0x3EFF JUMP JUMPDEST PUSH1 0x20 DUP3 ADD SWAP1 POP SWAP2 SWAP1 POP JUMP JUMPDEST PUSH1 0x0 PUSH1 0x20 DUP3 ADD SWAP1 POP DUP2 DUP2 SUB PUSH1 0x0 DUP4 ADD MSTORE PUSH2 0x3F64 DUP2 PUSH2 0x3F28 JUMP JUMPDEST SWAP1 POP SWAP2 SWAP1 POP JUMP JUMPDEST PUSH1 0x3 DUP2 LT PUSH2 0x3F78 JUMPI PUSH1 0x0 DUP1 REVERT JUMPDEST POP JUMP JUMPDEST PUSH1 0x0 DUP2 MLOAD SWAP1 POP PUSH2 0x3F8A DUP2 PUSH2 0x3F6B JUMP JUMPDEST SWAP3 SWAP2 POP POP JUMP JUMPDEST PUSH1 0x0 PUSH1 0x20 DUP3 DUP5 SUB SLT ISZERO PUSH2 0x3FA6 JUMPI PUSH2 0x3FA5 PUSH2 0x2CD6 JUMP JUMPDEST JUMPDEST PUSH1 0x0 PUSH2 0x3FB4 DUP5 DUP3 DUP6 ADD PUSH2 0x3F7B JUMP JUMPDEST SWAP2 POP POP SWAP3 SWAP2 POP POP JUMP JUMPDEST PUSH1 0x0 DUP2 MLOAD SWAP1 POP PUSH2 0x3FCC DUP2 PUSH2 0x2CEA JUMP JUMPDEST SWAP3 SWAP2 POP POP JUMP JUMPDEST PUSH1 0x0 PUSH1 0x20 DUP3 DUP5 SUB SLT ISZERO PUSH2 0x3FE8 JUMPI PUSH2 0x3FE7 PUSH2 0x2CD6 JUMP JUMPDEST JUMPDEST PUSH1 0x0 PUSH2 0x3FF6 DUP5 DUP3 DUP6 ADD PUSH2 0x3FBD JUMP JUMPDEST SWAP2 POP POP SWAP3 SWAP2 POP POP JUMP JUMPDEST PUSH32 0x6E6F7420656E6F75676820746F6B656E20746F20706179000000000000000000 PUSH1 0x0 DUP3 ADD MSTORE POP JUMP JUMPDEST PUSH1 0x0 PUSH2 0x4035 PUSH1 0x17 DUP4 PUSH2 0x3163 JUMP JUMPDEST SWAP2 POP PUSH2 0x4040 DUP3 PUSH2 0x3FFF JUMP JUMPDEST PUSH1 0x20 DUP3 ADD SWAP1 POP SWAP2 SWAP1 POP JUMP JUMPDEST PUSH1 0x0 PUSH1 0x20 DUP3 ADD SWAP1 POP DUP2 DUP2 SUB PUSH1 0x0 DUP4 ADD MSTORE PUSH2 0x4064 DUP2 PUSH2 0x4028 JUMP JUMPDEST SWAP1 POP SWAP2 SWAP1 POP JUMP JUMPDEST PUSH1 0x0 PUSH1 0x60 DUP3 ADD SWAP1 POP PUSH2 0x4080 PUSH1 0x0 DUP4 ADD DUP7 PUSH2 0x3209 JUMP JUMPDEST PUSH2 0x408D PUSH1 0x20 DUP4 ADD DUP6 PUSH2 0x3209 JUMP JUMPDEST PUSH2 0x409A PUSH1 0x40 DUP4 ADD DUP5 PUSH2 0x2D43 JUMP JUMPDEST SWAP5 SWAP4 POP POP POP POP JUMP JUMPDEST PUSH1 0x0 PUSH1 0x40 DUP3 ADD SWAP1 POP PUSH2 0x40B7 PUSH1 0x0 DUP4 ADD DUP6 PUSH2 0x3209 JUMP JUMPDEST PUSH2 0x40C4 PUSH1 0x20 DUP4 ADD DUP5 PUSH2 0x2D43 JUMP JUMPDEST SWAP4 SWAP3 POP POP POP JUMP JUMPDEST PUSH32 0x302E303120455448206973206E656564656420746F20696E697469616C697365 PUSH1 0x0 DUP3 ADD MSTORE PUSH32 0x2061206E657720696E737572616E636500000000000000000000000000000000 PUSH1 0x20 DUP3 ADD MSTORE POP JUMP JUMPDEST PUSH1 0x0 PUSH2 0x4127 PUSH1 0x30 DUP4 PUSH2 0x3163 JUMP JUMPDEST SWAP2 POP PUSH2 0x4132 DUP3 PUSH2 0x40CB JUMP JUMPDEST PUSH1 0x40 DUP3 ADD SWAP1 POP SWAP2 SWAP1 POP JUMP JUMPDEST PUSH1 0x0 PUSH1 0x20 DUP3 ADD SWAP1 POP DUP2 DUP2 SUB PUSH1 0x0 DUP4 ADD MSTORE PUSH2 0x4156 DUP2 PUSH2 0x411A JUMP JUMPDEST SWAP1 POP SWAP2 SWAP1 POP JUMP JUMPDEST PUSH32 0x496E76616C696420636F6D70616E792069642100000000000000000000000000 PUSH1 0x0 DUP3 ADD MSTORE POP JUMP JUMPDEST PUSH1 0x0 PUSH2 0x4193 PUSH1 0x13 DUP4 PUSH2 0x3163 JUMP JUMPDEST SWAP2 POP PUSH2 0x419E DUP3 PUSH2 0x415D JUMP JUMPDEST PUSH1 0x20 DUP3 ADD SWAP1 POP SWAP2 SWAP1 POP JUMP JUMPDEST PUSH1 0x0 PUSH1 0x20 DUP3 ADD SWAP1 POP DUP2 DUP2 SUB PUSH1 0x0 DUP4 ADD MSTORE PUSH2 0x41C2 DUP2 PUSH2 0x4186 JUMP JUMPDEST SWAP1 POP SWAP2 SWAP1 POP JUMP JUMPDEST PUSH32 0x496E76616C696420706F6C696379206F776E6572210000000000000000000000 PUSH1 0x0 DUP3 ADD MSTORE POP JUMP JUMPDEST PUSH1 0x0 PUSH2 0x41FF PUSH1 0x15 DUP4 PUSH2 0x3163 JUMP JUMPDEST SWAP2 POP PUSH2 0x420A DUP3 PUSH2 0x41C9 JUMP JUMPDEST PUSH1 0x20 DUP3 ADD SWAP1 POP SWAP2 SWAP1 POP JUMP JUMPDEST PUSH1 0x0 PUSH1 0x20 DUP3 ADD SWAP1 POP DUP2 DUP2 SUB PUSH1 0x0 DUP4 ADD MSTORE PUSH2 0x422E DUP2 PUSH2 0x41F2 JUMP JUMPDEST SWAP1 POP SWAP2 SWAP1 POP JUMP JUMPDEST PUSH1 0x0 PUSH2 0x4240 DUP3 PUSH2 0x2CE0 JUMP JUMPDEST SWAP2 POP PUSH2 0x424B DUP4 PUSH2 0x2CE0 JUMP JUMPDEST SWAP3 POP DUP3 DUP3 SUB SWAP1 POP DUP2 DUP2 GT ISZERO PUSH2 0x4263 JUMPI PUSH2 0x4262 PUSH2 0x39F3 JUMP JUMPDEST JUMPDEST SWAP3 SWAP2 POP POP JUMP JUMPDEST PUSH32 0x496E76616C696420726571756573742069642100000000000000000000000000 PUSH1 0x0 DUP3 ADD MSTORE POP JUMP JUMPDEST PUSH1 0x0 PUSH2 0x429F PUSH1 0x13 DUP4 PUSH2 0x3163 JUMP JUMPDEST SWAP2 POP PUSH2 0x42AA DUP3 PUSH2 0x4269 JUMP JUMPDEST PUSH1 0x20 DUP3 ADD SWAP1 POP SWAP2 SWAP1 POP JUMP JUMPDEST PUSH1 0x0 PUSH1 0x20 DUP3 ADD SWAP1 POP DUP2 DUP2 SUB PUSH1 0x0 DUP4 ADD MSTORE PUSH2 0x42CE DUP2 PUSH2 0x4292 JUMP JUMPDEST SWAP1 POP SWAP2 SWAP1 POP JUMP JUMPDEST PUSH32 0x4E487B7100000000000000000000000000000000000000000000000000000000 PUSH1 0x0 MSTORE PUSH1 0x32 PUSH1 0x4 MSTORE PUSH1 0x24 PUSH1 0x0 REVERT JUMPDEST PUSH32 0x596F7520686176656E277420726571756573746564206F722074686520726571 PUSH1 0x0 DUP3 ADD MSTORE PUSH32 0x756573742068617320616C7265616479206265656E20617070726F7665642100 PUSH1 0x20 DUP3 ADD MSTORE POP JUMP JUMPDEST PUSH1 0x0 PUSH2 0x4360 PUSH1 0x3F DUP4 PUSH2 0x3163 JUMP JUMPDEST SWAP2 POP PUSH2 0x436B DUP3 PUSH2 0x4304 JUMP JUMPDEST PUSH1 0x40 DUP3 ADD SWAP1 POP SWAP2 SWAP1 POP JUMP JUMPDEST PUSH1 0x0 PUSH1 0x20 DUP3 ADD SWAP1 POP DUP2 DUP2 SUB PUSH1 0x0 DUP4 ADD MSTORE PUSH2 0x438F DUP2 PUSH2 0x4353 JUMP JUMPDEST SWAP1 POP SWAP2 SWAP1 POP JUMP JUMPDEST PUSH1 0x0 PUSH1 0x40 DUP3 ADD SWAP1 POP PUSH2 0x43AB PUSH1 0x0 DUP4 ADD DUP6 PUSH2 0x2D43 JUMP JUMPDEST DUP2 DUP2 SUB PUSH1 0x20 DUP4 ADD MSTORE PUSH2 0x43BD DUP2 DUP5 PUSH2 0x3DEB JUMP JUMPDEST SWAP1 POP SWAP4 SWAP3 POP POP POP JUMP JUMPDEST PUSH32 0x6174206C6561737420302E303120455448206973206E656564656420746F2063 PUSH1 0x0 DUP3 ADD MSTORE PUSH32 0x7265617465206120636F6D70616E790000000000000000000000000000000000 PUSH1 0x20 DUP3 ADD MSTORE POP JUMP JUMPDEST PUSH1 0x0 PUSH2 0x4422 PUSH1 0x2F DUP4 PUSH2 0x3163 JUMP JUMPDEST SWAP2 POP PUSH2 0x442D DUP3 PUSH2 0x43C6 JUMP JUMPDEST PUSH1 0x40 DUP3 ADD SWAP1 POP SWAP2 SWAP1 POP JUMP JUMPDEST PUSH1 0x0 PUSH1 0x20 DUP3 ADD SWAP1 POP DUP2 DUP2 SUB PUSH1 0x0 DUP4 ADD MSTORE PUSH2 0x4451 DUP2 PUSH2 0x4415 JUMP JUMPDEST SWAP1 POP SWAP2 SWAP1 POP JUMP JUMPDEST PUSH32 0x45787069727920646174652068617320616C7265616479206265656E20696E69 PUSH1 0x0 DUP3 ADD MSTORE PUSH32 0x7469616C69736564000000000000000000000000000000000000000000000000 PUSH1 0x20 DUP3 ADD MSTORE POP JUMP JUMPDEST PUSH1 0x0 PUSH2 0x44B4 PUSH1 0x28 DUP4 PUSH2 0x3163 JUMP JUMPDEST SWAP2 POP PUSH2 0x44BF DUP3 PUSH2 0x4458 JUMP JUMPDEST PUSH1 0x40 DUP3 ADD SWAP1 POP SWAP2 SWAP1 POP JUMP JUMPDEST PUSH1 0x0 PUSH1 0x20 DUP3 ADD SWAP1 POP DUP2 DUP2 SUB PUSH1 0x0 DUP4 ADD MSTORE PUSH2 0x44E3 DUP2 PUSH2 0x44A7 JUMP JUMPDEST SWAP1 POP SWAP2 SWAP1 POP JUMP JUMPDEST PUSH32 0x596F7520617265206E6F7420746865206F776E65722100000000000000000000 PUSH1 0x0 DUP3 ADD MSTORE POP JUMP JUMPDEST PUSH1 0x0 PUSH2 0x4520 PUSH1 0x16 DUP4 PUSH2 0x3163 JUMP JUMPDEST SWAP2 POP PUSH2 0x452B DUP3 PUSH2 0x44EA JUMP JUMPDEST PUSH1 0x20 DUP3 ADD SWAP1 POP SWAP2 SWAP1 POP JUMP JUMPDEST PUSH1 0x0 PUSH1 0x20 DUP3 ADD SWAP1 POP DUP2 DUP2 SUB PUSH1 0x0 DUP4 ADD MSTORE PUSH2 0x454F DUP2 PUSH2 0x4513 JUMP JUMPDEST SWAP1 POP SWAP2 SWAP1 POP JUMP JUMPDEST PUSH1 0x0 DUP2 MLOAD SWAP1 POP SWAP2 SWAP1 POP JUMP JUMPDEST PUSH1 0x0 DUP3 DUP3 MSTORE PUSH1 0x20 DUP3 ADD SWAP1 POP SWAP3 SWAP2 POP POP JUMP JUMPDEST PUSH1 0x0 DUP2 SWAP1 POP PUSH1 0x20 DUP3 ADD SWAP1 POP SWAP2 SWAP1 POP JUMP JUMPDEST PUSH1 0x0 PUSH2 0x458E DUP4 DUP4 PUSH2 0x3431 JUMP JUMPDEST PUSH1 0x20 DUP4 ADD SWAP1 POP SWAP3 SWAP2 POP POP JUMP JUMPDEST PUSH1 0x0 PUSH1 0x20 DUP3 ADD SWAP1 POP SWAP2 SWAP1 POP JUMP JUMPDEST PUSH1 0x0 PUSH2 0x45B2 DUP3 PUSH2 0x4556 JUMP JUMPDEST PUSH2 0x45BC DUP2 DUP6 PUSH2 0x4561 JUMP JUMPDEST SWAP4 POP PUSH2 0x45C7 DUP4 PUSH2 0x4572 JUMP JUMPDEST DUP1 PUSH1 0x0 JUMPDEST DUP4 DUP2 LT ISZERO PUSH2 0x45F8 JUMPI DUP2 MLOAD PUSH2 0x45DF DUP9 DUP3 PUSH2 0x4582 JUMP JUMPDEST SWAP8 POP PUSH2 0x45EA DUP4 PUSH2 0x459A JUMP JUMPDEST SWAP3 POP POP PUSH1 0x1 DUP2 ADD SWAP1 POP PUSH2 0x45CB JUMP JUMPDEST POP DUP6 SWAP4 POP POP POP POP SWAP3 SWAP2 POP POP JUMP JUMPDEST PUSH1 0x0 DUP2 MLOAD SWAP1 POP SWAP2 SWAP1 POP JUMP JUMPDEST PUSH1 0x0 DUP3 DUP3 MSTORE PUSH1 0x20 DUP3 ADD SWAP1 POP SWAP3 SWAP2 POP POP JUMP JUMPDEST PUSH1 0x0 DUP2 SWAP1 POP PUSH1 0x20 DUP3 ADD SWAP1 POP SWAP2 SWAP1 POP JUMP JUMPDEST PUSH1 0x0 DUP3 DUP3 MSTORE PUSH1 0x20 DUP3 ADD SWAP1 POP SWAP3 SWAP2 POP POP JUMP JUMPDEST PUSH1 0x0 PUSH2 0x464D DUP3 PUSH2 0x3158 JUMP JUMPDEST PUSH2 0x4657 DUP2 DUP6 PUSH2 0x4631 JUMP JUMPDEST SWAP4 POP PUSH2 0x4667 DUP2 DUP6 PUSH1 0x20 DUP7 ADD PUSH2 0x3174 JUMP JUMPDEST PUSH2 0x4670 DUP2 PUSH2 0x2DB7 JUMP JUMPDEST DUP5 ADD SWAP2 POP POP SWAP3 SWAP2 POP POP JUMP JUMPDEST PUSH1 0x0 PUSH2 0x4687 DUP4 DUP4 PUSH2 0x4642 JUMP JUMPDEST SWAP1 POP SWAP3 SWAP2 POP POP JUMP JUMPDEST PUSH1 0x0 PUSH1 0x20 DUP3 ADD SWAP1 POP SWAP2 SWAP1 POP JUMP JUMPDEST PUSH1 0x0 PUSH2 0x46A7 DUP3 PUSH2 0x4605 JUMP JUMPDEST PUSH2 0x46B1 DUP2 DUP6 PUSH2 0x4610 JUMP JUMPDEST SWAP4 POP DUP4 PUSH1 0x20 DUP3 MUL DUP6 ADD PUSH2 0x46C3 DUP6 PUSH2 0x4621 JUMP JUMPDEST DUP1 PUSH1 0x0 JUMPDEST DUP6 DUP2 LT ISZERO PUSH2 0x46FF JUMPI DUP5 DUP5 SUB DUP10 MSTORE DUP2 MLOAD PUSH2 0x46E0 DUP6 DUP3 PUSH2 0x467B JUMP JUMPDEST SWAP5 POP PUSH2 0x46EB DUP4 PUSH2 0x468F JUMP JUMPDEST SWAP3 POP PUSH1 0x20 DUP11 ADD SWAP10 POP POP PUSH1 0x1 DUP2 ADD SWAP1 POP PUSH2 0x46C7 JUMP JUMPDEST POP DUP3 SWAP8 POP DUP8 SWAP6 POP POP POP POP POP POP SWAP3 SWAP2 POP POP JUMP JUMPDEST PUSH1 0x0 DUP2 MLOAD SWAP1 POP SWAP2 SWAP1 POP JUMP JUMPDEST PUSH1 0x0 DUP3 DUP3 MSTORE PUSH1 0x20 DUP3 ADD SWAP1 POP SWAP3 SWAP2 POP POP JUMP JUMPDEST PUSH1 0x0 DUP2 SWAP1 POP PUSH1 0x20 DUP3 ADD SWAP1 POP SWAP2 SWAP1 POP JUMP JUMPDEST PUSH2 0x4746 DUP2 PUSH2 0x3626 JUMP JUMPDEST DUP3 MSTORE POP POP JUMP JUMPDEST PUSH1 0x0 PUSH2 0x4758 DUP4 DUP4 PUSH2 0x473D JUMP JUMPDEST PUSH1 0x20 DUP4 ADD SWAP1 POP SWAP3 SWAP2 POP POP JUMP JUMPDEST PUSH1 0x0 PUSH1 0x20 DUP3 ADD SWAP1 POP SWAP2 SWAP1 POP JUMP JUMPDEST PUSH1 0x0 PUSH2 0x477C DUP3 PUSH2 0x4711 JUMP JUMPDEST PUSH2 0x4786 DUP2 DUP6 PUSH2 0x471C JUMP JUMPDEST SWAP4 POP PUSH2 0x4791 DUP4 PUSH2 0x472D JUMP JUMPDEST DUP1 PUSH1 0x0 JUMPDEST DUP4 DUP2 LT ISZERO PUSH2 0x47C2 JUMPI DUP2 MLOAD PUSH2 0x47A9 DUP9 DUP3 PUSH2 0x474C JUMP JUMPDEST SWAP8 POP PUSH2 0x47B4 DUP4 PUSH2 0x4764 JUMP JUMPDEST SWAP3 POP POP PUSH1 0x1 DUP2 ADD SWAP1 POP PUSH2 0x4795 JUMP JUMPDEST POP DUP6 SWAP4 POP POP POP POP SWAP3 SWAP2 POP POP JUMP JUMPDEST PUSH1 0x0 PUSH1 0xA0 DUP3 ADD SWAP1 POP DUP2 DUP2 SUB PUSH1 0x0 DUP4 ADD MSTORE PUSH2 0x47E9 DUP2 DUP9 PUSH2 0x45A7 JUMP JUMPDEST SWAP1 POP DUP2 DUP2 SUB PUSH1 0x20 DUP4 ADD MSTORE PUSH2 0x47FD DUP2 DUP8 PUSH2 0x45A7 JUMP JUMPDEST SWAP1 POP DUP2 DUP2 SUB PUSH1 0x40 DUP4 ADD MSTORE PUSH2 0x4811 DUP2 DUP7 PUSH2 0x469C JUMP JUMPDEST SWAP1 POP DUP2 DUP2 SUB PUSH1 0x60 DUP4 ADD MSTORE PUSH2 0x4825 DUP2 DUP6 PUSH2 0x469C JUMP JUMPDEST SWAP1 POP DUP2 DUP2 SUB PUSH1 0x80 DUP4 ADD MSTORE PUSH2 0x4839 DUP2 DUP5 PUSH2 0x4771 JUMP JUMPDEST SWAP1 POP SWAP7 SWAP6 POP POP POP POP POP POP JUMP JUMPDEST PUSH1 0x0 PUSH1 0x40 DUP3 ADD SWAP1 POP PUSH2 0x485A PUSH1 0x0 DUP4 ADD DUP6 PUSH2 0x2D43 JUMP JUMPDEST PUSH2 0x4867 PUSH1 0x20 DUP4 ADD DUP5 PUSH2 0x2D43 JUMP JUMPDEST SWAP4 SWAP3 POP POP POP JUMP INVALID LOG2 PUSH5 0x6970667358 0x22 SLT KECCAK256 0x21 0xB4 PUSH24 0x4B636BD46153BE0D83A91FA609BC7FD2D5E5CCA9F6464132 0xBF JUMP 0xA9 SIGNEXTEND SAR PUSH5 0x736F6C6343 STOP ADDMOD SGT STOP CALLER "
		},
		"gasEstimates": {
			"creation": {
				"codeDepositCost": "3719200",
				"executionCost": "infinite",
				"totalCost": "infinite"
			},
			"external": {
				"add(string)": "infinite",
				"addRequestLists(uint256,uint256,string,string)": "infinite",
				"autoTransfer(uint256,uint256,uint256,bytes,string,string)": "infinite",
				"autoTrigger()": "276",
				"checkRequestsFromCompany(uint256)": "infinite",
				"checkRequestsFromStakeholder(uint256,uint256)": "infinite",
				"claim(uint256,uint256,bytes,uint256,uint256,string,string)": "infinite",
				"companies(uint256)": "infinite",
				"createInsurance(uint256,uint256,uint256,uint8,uint256,uint256)": "infinite",
				"createStakeholderInfo(uint256,uint256,uint256,uint256)": "infinite",
				"getBeneficiary(uint256)": "infinite",
				"getCredit(uint256)": "infinite",
				"getExpiryDate(uint256)": "infinite",
				"getInsurance(uint256)": "infinite",
				"getInsuranceCompany(uint256)": "infinite",
				"getInsuredAmount(uint256)": "infinite",
				"getIssueDate(uint256)": "infinite",
				"getName(uint256)": "infinite",
				"getNumOfCompany()": "2548",
				"getOwner(uint256)": "5110",
				"getPolicyOwner(uint256)": "infinite",
				"getRestAmount(uint256)": "infinite",
				"getStatus(uint256)": "3034",
				"insurances(uint256)": "infinite",
				"numInsurance()": "2519",
				"numStakeholder()": "2474",
				"payPremium(uint256,uint256,uint256)": "infinite",
				"setBeneficiary(uint256,uint256)": "infinite",
				"setExpiryDate(uint256,uint256)": "infinite",
				"signInsurance(uint256,uint256,uint256,string)": "infinite",
				"solveRequest(uint256,uint256,uint256)": "infinite",
				"stakeholderinfos(uint256)": "infinite",
				"updateCredit(uint256)": "27264",
				"updateStatus(uint8,uint256)": "25046"
			},
			"internal": {
				"reject(uint256,uint256)": "infinite"
			}
		},
		"methodIdentifiers": {
			"add(string)": "b0c8f9dc",
			"addRequestLists(uint256,uint256,string,string)": "23192ed4",
			"autoTransfer(uint256,uint256,uint256,bytes,string,string)": "267b63cb",
			"autoTrigger()": "f558eb05",
			"checkRequestsFromCompany(uint256)": "dd9937f7",
			"checkRequestsFromStakeholder(uint256,uint256)": "5d996701",
			"claim(uint256,uint256,bytes,uint256,uint256,string,string)": "700d9ef7",
			"companies(uint256)": "2813d19d",
			"createInsurance(uint256,uint256,uint256,uint8,uint256,uint256)": "2dd0b640",
			"createStakeholderInfo(uint256,uint256,uint256,uint256)": "e0e5c324",
			"getBeneficiary(uint256)": "302df083",
			"getCredit(uint256)": "da304e4d",
			"getExpiryDate(uint256)": "6833f200",
			"getInsurance(uint256)": "85fae602",
			"getInsuranceCompany(uint256)": "e22900ff",
			"getInsuredAmount(uint256)": "5998f775",
			"getIssueDate(uint256)": "0386660a",
			"getName(uint256)": "6b8ff574",
			"getNumOfCompany()": "62584ffe",
			"getOwner(uint256)": "c41a360a",
			"getPolicyOwner(uint256)": "ca009021",
			"getRestAmount(uint256)": "575c2887",
			"getStatus(uint256)": "5c622a0e",
			"insurances(uint256)": "59fb49f9",
			"numInsurance()": "703849d9",
			"numStakeholder()": "8edd5297",
			"payPremium(uint256,uint256,uint256)": "561c865b",
			"setBeneficiary(uint256,uint256)": "1a1fc3a0",
			"setExpiryDate(uint256,uint256)": "d91f2a0b",
			"signInsurance(uint256,uint256,uint256,string)": "34fb36c8",
			"solveRequest(uint256,uint256,uint256)": "e02bb9af",
			"stakeholderinfos(uint256)": "3fa3ab26",
			"updateCredit(uint256)": "e0579807",
			"updateStatus(uint8,uint256)": "b7ff5dae"
		}
	},
	"abi": [
		{
			"inputs": [
				{
					"internalType": "contract Hospital",
					"name": "hospitalInstanceAddress",
					"type": "address"
				},
				{
					"internalType": "contract TrustInsure",
					"name": "trustinsureInstanceAddress",
					"type": "address"
				}
			],
			"stateMutability": "nonpayable",
			"type": "constructor"
		},
		{
			"anonymous": false,
			"inputs": [
				{
					"indexed": false,
					"internalType": "uint256",
					"name": "insuranceID",
					"type": "uint256"
				}
			],
			"name": "allPaid",
			"type": "event"
		},
		{
			"anonymous": false,
			"inputs": [
				{
					"indexed": false,
					"internalType": "uint256[]",
					"name": "requestids",
					"type": "uint256[]"
				},
				{
					"indexed": false,
					"internalType": "uint256[]",
					"name": "buyerids",
					"type": "uint256[]"
				},
				{
					"indexed": false,
					"internalType": "string[]",
					"name": "buyercontacts",
					"type": "string[]"
				},
				{
					"indexed": false,
					"internalType": "string[]",
					"name": "producttypes",
					"type": "string[]"
				},
				{
					"indexed": false,
					"internalType": "enum InsuranceCompany.requestStatus[]",
					"name": "statuses",
					"type": "uint8[]"
				}
			],
			"name": "allRequests",
			"type": "event"
		},
		{
			"anonymous": false,
			"inputs": [
				{
					"indexed": false,
					"internalType": "uint256",
					"name": "insuranceID",
					"type": "uint256"
				}
			],
			"name": "askingCert",
			"type": "event"
		},
		{
			"anonymous": false,
			"inputs": [
				{
					"indexed": false,
					"internalType": "enum InsuranceCompany.requestStatus",
					"name": "status",
					"type": "uint8"
				}
			],
			"name": "checkRequest",
			"type": "event"
		},
		{
			"anonymous": false,
			"inputs": [
				{
					"indexed": false,
					"internalType": "uint256",
					"name": "insuranceID",
					"type": "uint256"
				},
				{
					"indexed": false,
					"internalType": "bytes",
					"name": "mcId",
					"type": "bytes"
				}
			],
			"name": "claimingFromComp",
			"type": "event"
		},
		{
			"anonymous": false,
			"inputs": [
				{
					"indexed": false,
					"internalType": "uint256",
					"name": "insuranceId",
					"type": "uint256"
				}
			],
			"name": "create",
			"type": "event"
		},
		{
			"anonymous": false,
			"inputs": [
				{
					"indexed": false,
					"internalType": "uint256",
					"name": "requestId",
					"type": "uint256"
				}
			],
			"name": "requestReject",
			"type": "event"
		},
		{
			"anonymous": false,
			"inputs": [
				{
					"indexed": false,
					"internalType": "uint256",
					"name": "requestId",
					"type": "uint256"
				},
				{
					"indexed": false,
					"internalType": "uint256",
					"name": "insuranceId",
					"type": "uint256"
				}
			],
			"name": "requestSolve",
			"type": "event"
		},
		{
			"anonymous": false,
			"inputs": [
				{
					"indexed": false,
					"internalType": "address",
					"name": "beneficiary",
					"type": "address"
				},
				{
					"indexed": false,
					"internalType": "uint256",
					"name": "amount",
					"type": "uint256"
				}
			],
			"name": "transfer",
			"type": "event"
		},
		{
			"inputs": [
				{
					"internalType": "string",
					"name": "name",
					"type": "string"
				}
			],
			"name": "add",
			"outputs": [
				{
					"internalType": "uint256",
					"name": "",
					"type": "uint256"
				}
			],
			"stateMutability": "payable",
			"type": "function"
		},
		{
			"inputs": [
				{
					"internalType": "uint256",
					"name": "_buyerId",
					"type": "uint256"
				},
				{
					"internalType": "uint256",
					"name": "_companyId",
					"type": "uint256"
				},
				{
					"internalType": "string",
					"name": "contact",
					"type": "string"
				},
				{
					"internalType": "string",
					"name": "_typeProduct",
					"type": "string"
				}
			],
			"name": "addRequestLists",
			"outputs": [
				{
					"internalType": "bool",
					"name": "",
					"type": "bool"
				},
				{
					"internalType": "uint256",
					"name": "",
					"type": "uint256"
				}
			],
			"stateMutability": "nonpayable",
			"type": "function"
		},
		{
			"inputs": [
				{
					"internalType": "uint256",
					"name": "insuranceId",
					"type": "uint256"
				},
				{
					"internalType": "uint256",
					"name": "companyId",
					"type": "uint256"
				},
				{
					"internalType": "uint256",
					"name": "_hospitalId",
					"type": "uint256"
				},
				{
					"internalType": "bytes",
					"name": "mcId",
					"type": "bytes"
				},
				{
					"internalType": "string",
					"name": "name",
					"type": "string"
				},
				{
					"internalType": "string",
					"name": "NRIC",
					"type": "string"
				}
			],
			"name": "autoTransfer",
			"outputs": [],
			"stateMutability": "payable",
			"type": "function"
		},
		{
			"inputs": [],
			"name": "autoTrigger",
			"outputs": [],
			"stateMutability": "nonpayable",
			"type": "function"
		},
		{
			"inputs": [
				{
					"internalType": "uint256",
					"name": "companyId",
					"type": "uint256"
				}
			],
			"name": "checkRequestsFromCompany",
			"outputs": [],
			"stateMutability": "nonpayable",
			"type": "function"
		},
		{
			"inputs": [
				{
					"internalType": "uint256",
					"name": "companyId",
					"type": "uint256"
				},
				{
					"internalType": "uint256",
					"name": "requestId",
					"type": "uint256"
				}
			],
			"name": "checkRequestsFromStakeholder",
			"outputs": [
				{
					"internalType": "enum InsuranceCompany.requestStatus",
					"name": "",
					"type": "uint8"
				}
			],
			"stateMutability": "nonpayable",
			"type": "function"
		},
		{
			"inputs": [
				{
					"internalType": "uint256",
					"name": "insuranceID",
					"type": "uint256"
				},
				{
					"internalType": "uint256",
					"name": "companyId",
					"type": "uint256"
				},
				{
					"internalType": "bytes",
					"name": "mcId",
					"type": "bytes"
				},
				{
					"internalType": "uint256",
					"name": "hospitalId",
					"type": "uint256"
				},
				{
					"internalType": "uint256",
					"name": "policyOwnerID",
					"type": "uint256"
				},
				{
					"internalType": "string",
					"name": "name",
					"type": "string"
				},
				{
					"internalType": "string",
					"name": "NRIC",
					"type": "string"
				}
			],
			"name": "claim",
			"outputs": [],
			"stateMutability": "nonpayable",
			"type": "function"
		},
		{
			"inputs": [
				{
					"internalType": "uint256",
					"name": "",
					"type": "uint256"
				}
			],
			"name": "companies",
			"outputs": [
				{
					"internalType": "uint256",
					"name": "credit",
					"type": "uint256"
				},
				{
					"internalType": "string",
					"name": "name",
					"type": "string"
				},
				{
					"internalType": "address",
					"name": "owner",
					"type": "address"
				},
				{
					"internalType": "uint256",
					"name": "completed",
					"type": "uint256"
				}
			],
			"stateMutability": "view",
			"type": "function"
		},
		{
			"inputs": [
				{
					"internalType": "uint256",
					"name": "stakeholderInfoId",
					"type": "uint256"
				},
				{
					"internalType": "uint256",
					"name": "companyId",
					"type": "uint256"
				},
				{
					"internalType": "uint256",
					"name": "insuredAmount",
					"type": "uint256"
				},
				{
					"internalType": "enum Insurance.insuranceType",
					"name": "insType",
					"type": "uint8"
				},
				{
					"internalType": "uint256",
					"name": "issueDateYYYYMMDD",
					"type": "uint256"
				},
				{
					"internalType": "uint256",
					"name": "expiryDateYYYYMMDD",
					"type": "uint256"
				}
			],
			"name": "createInsurance",
			"outputs": [
				{
					"internalType": "uint256",
					"name": "",
					"type": "uint256"
				}
			],
			"stateMutability": "payable",
			"type": "function"
		},
		{
			"inputs": [
				{
					"internalType": "uint256",
					"name": "policyOwner",
					"type": "uint256"
				},
				{
					"internalType": "uint256",
					"name": "beneficiary",
					"type": "uint256"
				},
				{
					"internalType": "uint256",
					"name": "lifeAssured",
					"type": "uint256"
				},
				{
					"internalType": "uint256",
					"name": "payingAccount",
					"type": "uint256"
				}
			],
			"name": "createStakeholderInfo",
			"outputs": [
				{
					"internalType": "uint256",
					"name": "",
					"type": "uint256"
				}
			],
			"stateMutability": "nonpayable",
			"type": "function"
		},
		{
			"inputs": [
				{
					"internalType": "uint256",
					"name": "insuranceId",
					"type": "uint256"
				}
			],
			"name": "getBeneficiary",
			"outputs": [
				{
					"internalType": "uint256",
					"name": "",
					"type": "uint256"
				}
			],
			"stateMutability": "view",
			"type": "function"
		},
		{
			"inputs": [
				{
					"internalType": "uint256",
					"name": "companyId",
					"type": "uint256"
				}
			],
			"name": "getCredit",
			"outputs": [
				{
					"internalType": "uint256",
					"name": "",
					"type": "uint256"
				}
			],
			"stateMutability": "view",
			"type": "function"
		},
		{
			"inputs": [
				{
					"internalType": "uint256",
					"name": "insuranceId",
					"type": "uint256"
				}
			],
			"name": "getExpiryDate",
			"outputs": [
				{
					"internalType": "uint256",
					"name": "",
					"type": "uint256"
				}
			],
			"stateMutability": "view",
			"type": "function"
		},
		{
			"inputs": [
				{
					"internalType": "uint256",
					"name": "insuranceId",
					"type": "uint256"
				}
			],
			"name": "getInsurance",
			"outputs": [
				{
					"components": [
						{
							"internalType": "uint256",
							"name": "ID",
							"type": "uint256"
						},
						{
							"internalType": "uint256",
							"name": "companyId",
							"type": "uint256"
						},
						{
							"components": [
								{
									"internalType": "uint256",
									"name": "policyOwner",
									"type": "uint256"
								},
								{
									"internalType": "uint256",
									"name": "beneficiary",
									"type": "uint256"
								},
								{
									"internalType": "uint256",
									"name": "lifeAssured",
									"type": "uint256"
								},
								{
									"internalType": "uint256",
									"name": "payingAccount",
									"type": "uint256"
								}
							],
							"internalType": "struct Insurance.stakeholderInfo",
							"name": "stakeholders",
							"type": "tuple"
						},
						{
							"internalType": "uint256",
							"name": "insuredAmount",
							"type": "uint256"
						},
						{
							"internalType": "uint256",
							"name": "currentAmount",
							"type": "uint256"
						},
						{
							"internalType": "enum Insurance.insuranceType",
							"name": "insType",
							"type": "uint8"
						},
						{
							"internalType": "enum Insurance.status",
							"name": "status",
							"type": "uint8"
						},
						{
							"internalType": "uint256",
							"name": "issueDate",
							"type": "uint256"
						},
						{
							"internalType": "uint256",
							"name": "expiryDate",
							"type": "uint256"
						}
					],
					"internalType": "struct Insurance.insurance",
					"name": "",
					"type": "tuple"
				}
			],
			"stateMutability": "view",
			"type": "function"
		},
		{
			"inputs": [
				{
					"internalType": "uint256",
					"name": "insuranceId",
					"type": "uint256"
				}
			],
			"name": "getInsuranceCompany",
			"outputs": [
				{
					"internalType": "uint256",
					"name": "",
					"type": "uint256"
				}
			],
			"stateMutability": "view",
			"type": "function"
		},
		{
			"inputs": [
				{
					"internalType": "uint256",
					"name": "insuranceId",
					"type": "uint256"
				}
			],
			"name": "getInsuredAmount",
			"outputs": [
				{
					"internalType": "uint256",
					"name": "",
					"type": "uint256"
				}
			],
			"stateMutability": "view",
			"type": "function"
		},
		{
			"inputs": [
				{
					"internalType": "uint256",
					"name": "insuranceId",
					"type": "uint256"
				}
			],
			"name": "getIssueDate",
			"outputs": [
				{
					"internalType": "uint256",
					"name": "",
					"type": "uint256"
				}
			],
			"stateMutability": "view",
			"type": "function"
		},
		{
			"inputs": [
				{
					"internalType": "uint256",
					"name": "companyId",
					"type": "uint256"
				}
			],
			"name": "getName",
			"outputs": [
				{
					"internalType": "string",
					"name": "",
					"type": "string"
				}
			],
			"stateMutability": "view",
			"type": "function"
		},
		{
			"inputs": [],
			"name": "getNumOfCompany",
			"outputs": [
				{
					"internalType": "uint256",
					"name": "",
					"type": "uint256"
				}
			],
			"stateMutability": "view",
			"type": "function"
		},
		{
			"inputs": [
				{
					"internalType": "uint256",
					"name": "companyId",
					"type": "uint256"
				}
			],
			"name": "getOwner",
			"outputs": [
				{
					"internalType": "address",
					"name": "",
					"type": "address"
				}
			],
			"stateMutability": "view",
			"type": "function"
		},
		{
			"inputs": [
				{
					"internalType": "uint256",
					"name": "stakeholderinfoId",
					"type": "uint256"
				}
			],
			"name": "getPolicyOwner",
			"outputs": [
				{
					"internalType": "uint256",
					"name": "",
					"type": "uint256"
				}
			],
			"stateMutability": "view",
			"type": "function"
		},
		{
			"inputs": [
				{
					"internalType": "uint256",
					"name": "insuranceId",
					"type": "uint256"
				}
			],
			"name": "getRestAmount",
			"outputs": [
				{
					"internalType": "uint256",
					"name": "",
					"type": "uint256"
				}
			],
			"stateMutability": "view",
			"type": "function"
		},
		{
			"inputs": [
				{
					"internalType": "uint256",
					"name": "insuranceId",
					"type": "uint256"
				}
			],
			"name": "getStatus",
			"outputs": [
				{
					"internalType": "enum Insurance.status",
					"name": "",
					"type": "uint8"
				}
			],
			"stateMutability": "view",
			"type": "function"
		},
		{
			"inputs": [
				{
					"internalType": "uint256",
					"name": "",
					"type": "uint256"
				}
			],
			"name": "insurances",
			"outputs": [
				{
					"internalType": "uint256",
					"name": "ID",
					"type": "uint256"
				},
				{
					"internalType": "uint256",
					"name": "companyId",
					"type": "uint256"
				},
				{
					"components": [
						{
							"internalType": "uint256",
							"name": "policyOwner",
							"type": "uint256"
						},
						{
							"internalType": "uint256",
							"name": "beneficiary",
							"type": "uint256"
						},
						{
							"internalType": "uint256",
							"name": "lifeAssured",
							"type": "uint256"
						},
						{
							"internalType": "uint256",
							"name": "payingAccount",
							"type": "uint256"
						}
					],
					"internalType": "struct Insurance.stakeholderInfo",
					"name": "stakeholders",
					"type": "tuple"
				},
				{
					"internalType": "uint256",
					"name": "insuredAmount",
					"type": "uint256"
				},
				{
					"internalType": "uint256",
					"name": "currentAmount",
					"type": "uint256"
				},
				{
					"internalType": "enum Insurance.insuranceType",
					"name": "insType",
					"type": "uint8"
				},
				{
					"internalType": "enum Insurance.status",
					"name": "status",
					"type": "uint8"
				},
				{
					"internalType": "uint256",
					"name": "issueDate",
					"type": "uint256"
				},
				{
					"internalType": "uint256",
					"name": "expiryDate",
					"type": "uint256"
				}
			],
			"stateMutability": "view",
			"type": "function"
		},
		{
			"inputs": [],
			"name": "numInsurance",
			"outputs": [
				{
					"internalType": "uint256",
					"name": "",
					"type": "uint256"
				}
			],
			"stateMutability": "view",
			"type": "function"
		},
		{
			"inputs": [],
			"name": "numStakeholder",
			"outputs": [
				{
					"internalType": "uint256",
					"name": "",
					"type": "uint256"
				}
			],
			"stateMutability": "view",
			"type": "function"
		},
		{
			"inputs": [
				{
					"internalType": "uint256",
					"name": "insuranceId",
					"type": "uint256"
				},
				{
					"internalType": "uint256",
					"name": "amount",
					"type": "uint256"
				},
				{
					"internalType": "uint256",
					"name": "policyOwnerID",
					"type": "uint256"
				}
			],
			"name": "payPremium",
			"outputs": [],
			"stateMutability": "nonpayable",
			"type": "function"
		},
		{
			"inputs": [
				{
					"internalType": "uint256",
					"name": "newBeneficiary",
					"type": "uint256"
				},
				{
					"internalType": "uint256",
					"name": "insuranceId",
					"type": "uint256"
				}
			],
			"name": "setBeneficiary",
			"outputs": [],
			"stateMutability": "nonpayable",
			"type": "function"
		},
		{
			"inputs": [
				{
					"internalType": "uint256",
					"name": "date",
					"type": "uint256"
				},
				{
					"internalType": "uint256",
					"name": "insuranceId",
					"type": "uint256"
				}
			],
			"name": "setExpiryDate",
			"outputs": [],
			"stateMutability": "nonpayable",
			"type": "function"
		},
		{
			"inputs": [
				{
					"internalType": "uint256",
					"name": "insuranceId",
					"type": "uint256"
				},
				{
					"internalType": "uint256",
					"name": "companyId",
					"type": "uint256"
				},
				{
					"internalType": "uint256",
					"name": "policyOwnerID",
					"type": "uint256"
				},
				{
					"internalType": "string",
					"name": "signature",
					"type": "string"
				}
			],
			"name": "signInsurance",
			"outputs": [],
			"stateMutability": "payable",
			"type": "function"
		},
		{
			"inputs": [
				{
					"internalType": "uint256",
					"name": "companyId",
					"type": "uint256"
				},
				{
					"internalType": "uint256",
					"name": "requestId",
					"type": "uint256"
				},
				{
					"internalType": "uint256",
					"name": "insuranceId",
					"type": "uint256"
				}
			],
			"name": "solveRequest",
			"outputs": [],
			"stateMutability": "nonpayable",
			"type": "function"
		},
		{
			"inputs": [
				{
					"internalType": "uint256",
					"name": "",
					"type": "uint256"
				}
			],
			"name": "stakeholderinfos",
			"outputs": [
				{
					"internalType": "uint256",
					"name": "policyOwner",
					"type": "uint256"
				},
				{
					"internalType": "uint256",
					"name": "beneficiary",
					"type": "uint256"
				},
				{
					"internalType": "uint256",
					"name": "lifeAssured",
					"type": "uint256"
				},
				{
					"internalType": "uint256",
					"name": "payingAccount",
					"type": "uint256"
				}
			],
			"stateMutability": "view",
			"type": "function"
		},
		{
			"inputs": [
				{
					"internalType": "uint256",
					"name": "companyId",
					"type": "uint256"
				}
			],
			"name": "updateCredit",
			"outputs": [],
			"stateMutability": "nonpayable",
			"type": "function"
		},
		{
			"inputs": [
				{
					"internalType": "enum Insurance.status",
					"name": "state",
					"type": "uint8"
				},
				{
					"internalType": "uint256",
					"name": "insuranceId",
					"type": "uint256"
				}
			],
			"name": "updateStatus",
			"outputs": [],
			"stateMutability": "nonpayable",
			"type": "function"
		}
	]
}