{
	"data": {
		"bytecode": {
			"linkReferences": {},
			"object": "6080604052600060025560006004553480156200001b57600080fd5b506040516200158b3803806200158b83398181016040528101906200004191906200018d565b816000806101000a81548173ffffffffffffffffffffffffffffffffffffffff021916908373ffffffffffffffffffffffffffffffffffffffff16021790555080600160006101000a81548173ffffffffffffffffffffffffffffffffffffffff021916908373ffffffffffffffffffffffffffffffffffffffff1602179055505050620001d4565b600080fd5b600073ffffffffffffffffffffffffffffffffffffffff82169050919050565b6000620000fc82620000cf565b9050919050565b60006200011082620000ef565b9050919050565b620001228162000103565b81146200012e57600080fd5b50565b600081519050620001428162000117565b92915050565b60006200015582620000ef565b9050919050565b620001678162000148565b81146200017357600080fd5b50565b60008151905062000187816200015c565b92915050565b60008060408385031215620001a757620001a6620000ca565b5b6000620001b78582860162000131565b9250506020620001ca8582860162000176565b9150509250929050565b6113a780620001e46000396000f3fe6080604052600436106101095760003560e01c8063703849d911610095578063ca00902111610064578063ca009021146103d8578063d91f2a0b14610415578063e0e5c3241461043e578063e22900ff1461047b578063f558eb05146104b857610109565b8063703849d91461031c57806385fae602146103475780638edd529714610384578063b7ff5dae146103af57610109565b80633fa3ab26116100dc5780633fa3ab26146101e15780635998f7751461022157806359fb49f91461025e5780635c622a0e146102a25780636833f200146102df57610109565b80630386660a1461010e5780631a1fc3a01461014b5780632dd0b64014610174578063302df083146101a4575b600080fd5b34801561011a57600080fd5b5061013560048036038101906101309190610bed565b6104cf565b6040516101429190610c29565b60405180910390f35b34801561015757600080fd5b50610172600480360381019061016d9190610c44565b6104ef565b005b61018e60048036038101906101899190610ca9565b6105fd565b60405161019b9190610c29565b60405180910390f35b3480156101b057600080fd5b506101cb60048036038101906101c69190610bed565b610748565b6040516101d89190610c29565b60405180910390f35b3480156101ed57600080fd5b5061020860048036038101906102039190610bed565b61076b565b6040516102189493929190610d36565b60405180910390f35b34801561022d57600080fd5b5061024860048036038101906102439190610bed565b61079b565b6040516102559190610c29565b60405180910390f35b34801561026a57600080fd5b5061028560048036038101906102809190610bed565b6107bb565b604051610299989796959493929190610e9e565b60405180910390f35b3480156102ae57600080fd5b506102c960048036038101906102c49190610bed565b61084f565b6040516102d69190610f1f565b60405180910390f35b3480156102eb57600080fd5b5061030660048036038101906103019190610bed565b61087c565b6040516103139190610c29565b60405180910390f35b34801561032857600080fd5b5061033161089c565b60405161033e9190610c29565b60405180910390f35b34801561035357600080fd5b5061036e60048036038101906103699190610bed565b6108a2565b60405161037b9190611052565b60405180910390f35b34801561039057600080fd5b506103996109b4565b6040516103a69190610c29565b60405180910390f35b3480156103bb57600080fd5b506103d660048036038101906103d19190611093565b6109ba565b005b3480156103e457600080fd5b506103ff60048036038101906103fa9190610bed565b6109fc565b60405161040c9190610c29565b60405180910390f35b34801561042157600080fd5b5061043c60048036038101906104379190610c44565b610a1c565b005b34801561044a57600080fd5b50610465600480360381019061046091906110d3565b610a94565b6040516104729190610c29565b60405180910390f35b34801561048757600080fd5b506104a2600480360381019061049d9190610bed565b610af9565b6040516104af9190610c29565b60405180910390f35b3480156104c457600080fd5b506104cd610b19565b005b600060036000838152602001908152602001600020600801549050919050565b803373ffffffffffffffffffffffffffffffffffffffff1660008054906101000a900473ffffffffffffffffffffffffffffffffffffffff1673ffffffffffffffffffffffffffffffffffffffff16635564f64460036000858152602001908152602001600020600201600001546040518263ffffffff1660e01b81526004016105799190610c29565b602060405180830381865afa158015610596573d6000803e3d6000fd5b505050506040513d601f19601f820116820180604052508101906105ba9190611198565b73ffffffffffffffffffffffffffffffffffffffff16146105da57600080fd5b826003600084815260200190815260200160002060020160010181905550505050565b6000662386f26fc100003414610648576040517f08c379a000000000000000000000000000000000000000000000000000000000815260040161063f90611248565b60405180910390fd5b6002600081548092919061065b90611297565b919050555060006003600060025481526020019081526020016000209050600560008981526020019081526020016000208160020160008201548160000155600182015481600101556002820154816002015560038201548160030155905050868160010181905550858160060181905550848160070160006101000a81548160ff021916908360018111156106f4576106f3610ddf565b5b021790555060008160070160016101000a81548160ff0219169083600581111561072157610720610ddf565b5b02179055508381600801819055508281600901819055506002549150509695505050505050565b600060036000838152602001908152602001600020600201600101549050919050565b60056020528060005260406000206000915090508060000154908060010154908060020154908060030154905084565b600060036000838152602001908152602001600020600601549050919050565b600360205280600052604060002060009150905080600001549080600101549080600201604051806080016040529081600082015481526020016001820154815260200160028201548152602001600382015481525050908060060154908060070160009054906101000a900460ff16908060070160019054906101000a900460ff16908060080154908060090154905088565b60006003600083815260200190815260200160002060070160019054906101000a900460ff169050919050565b600060036000838152602001908152602001600020600901549050919050565b60025481565b6108aa610b1b565b60036000838152602001908152602001600020604051806101000160405290816000820154815260200160018201548152602001600282016040518060800160405290816000820154815260200160018201548152602001600282015481526020016003820154815250508152602001600682015481526020016007820160009054906101000a900460ff16600181111561094857610947610ddf565b5b600181111561095a57610959610ddf565b5b81526020016007820160019054906101000a900460ff16600581111561098357610982610ddf565b5b600581111561099557610994610ddf565b5b8152602001600882015481526020016009820154815250509050919050565b60045481565b816003600083815260200190815260200160002060070160016101000a81548160ff021916908360058111156109f3576109f2610ddf565b5b02179055505050565b600060056000838152602001908152602001600020600001549050919050565b6000600360008381526020019081526020016000206009015403610a75576040517f08c379a0000000000000000000000000000000000000000000000000000000008152600401610a6c90611351565b60405180910390fd5b8160036000838152602001908152602001600020600901819055505050565b600060046000815480929190610aa990611297565b919050555060006005600060045481526020019081526020016000209050858160000181905550848160010181905550838160020181905550828160030181905550600454915050949350505050565b600060036000838152602001908152602001600020600101549050919050565b565b6040518061010001604052806000815260200160008152602001610b3d610b8a565b81526020016000815260200160006001811115610b5d57610b5c610ddf565b5b815260200160006005811115610b7657610b75610ddf565b5b815260200160008152602001600081525090565b6040518060800160405280600081526020016000815260200160008152602001600081525090565b600080fd5b6000819050919050565b610bca81610bb7565b8114610bd557600080fd5b50565b600081359050610be781610bc1565b92915050565b600060208284031215610c0357610c02610bb2565b5b6000610c1184828501610bd8565b91505092915050565b610c2381610bb7565b82525050565b6000602082019050610c3e6000830184610c1a565b92915050565b60008060408385031215610c5b57610c5a610bb2565b5b6000610c6985828601610bd8565b9250506020610c7a85828601610bd8565b9150509250929050565b60028110610c9157600080fd5b50565b600081359050610ca381610c84565b92915050565b60008060008060008060c08789031215610cc657610cc5610bb2565b5b6000610cd489828a01610bd8565b9650506020610ce589828a01610bd8565b9550506040610cf689828a01610bd8565b9450506060610d0789828a01610c94565b9350506080610d1889828a01610bd8565b92505060a0610d2989828a01610bd8565b9150509295509295509295565b6000608082019050610d4b6000830187610c1a565b610d586020830186610c1a565b610d656040830185610c1a565b610d726060830184610c1a565b95945050505050565b610d8481610bb7565b82525050565b608082016000820151610da06000850182610d7b565b506020820151610db36020850182610d7b565b506040820151610dc66040850182610d7b565b506060820151610dd96060850182610d7b565b50505050565b7f4e487b7100000000000000000000000000000000000000000000000000000000600052602160045260246000fd5b60028110610e1f57610e1e610ddf565b5b50565b6000819050610e3082610e0e565b919050565b6000610e4082610e22565b9050919050565b610e5081610e35565b82525050565b60068110610e6757610e66610ddf565b5b50565b6000819050610e7882610e56565b919050565b6000610e8882610e6a565b9050919050565b610e9881610e7d565b82525050565b600061016082019050610eb4600083018b610c1a565b610ec1602083018a610c1a565b610ece6040830189610d8a565b610edb60c0830188610c1a565b610ee860e0830187610e47565b610ef6610100830186610e8f565b610f04610120830185610c1a565b610f12610140830184610c1a565b9998505050505050505050565b6000602082019050610f346000830184610e8f565b92915050565b608082016000820151610f506000850182610d7b565b506020820151610f636020850182610d7b565b506040820151610f766040850182610d7b565b506060820151610f896060850182610d7b565b50505050565b610f9881610e35565b82525050565b610fa781610e7d565b82525050565b61016082016000820151610fc46000850182610d7b565b506020820151610fd76020850182610d7b565b506040820151610fea6040850182610f3a565b506060820151610ffd60c0850182610d7b565b50608082015161101060e0850182610f8f565b5060a0820151611024610100850182610f9e565b5060c0820151611038610120850182610d7b565b5060e082015161104c610140850182610d7b565b50505050565b6000610160820190506110686000830184610fad565b92915050565b6006811061107b57600080fd5b50565b60008135905061108d8161106e565b92915050565b600080604083850312156110aa576110a9610bb2565b5b60006110b88582860161107e565b92505060206110c985828601610bd8565b9150509250929050565b600080600080608085870312156110ed576110ec610bb2565b5b60006110fb87828801610bd8565b945050602061110c87828801610bd8565b935050604061111d87828801610bd8565b925050606061112e87828801610bd8565b91505092959194509250565b600073ffffffffffffffffffffffffffffffffffffffff82169050919050565b60006111658261113a565b9050919050565b6111758161115a565b811461118057600080fd5b50565b6000815190506111928161116c565b92915050565b6000602082840312156111ae576111ad610bb2565b5b60006111bc84828501611183565b91505092915050565b600082825260208201905092915050565b7f302e303120455448206973206e656564656420746f20696e697469616c69736560008201527f2061206e657720696e737572616e636500000000000000000000000000000000602082015250565b60006112326030836111c5565b915061123d826111d6565b604082019050919050565b6000602082019050818103600083015261126181611225565b9050919050565b7f4e487b7100000000000000000000000000000000000000000000000000000000600052601160045260246000fd5b60006112a282610bb7565b91507fffffffffffffffffffffffffffffffffffffffffffffffffffffffffffffffff82036112d4576112d3611268565b5b600182019050919050565b7f45787069727920646174652068617320616c7265616479206265656e20696e6960008201527f7469616c69736564000000000000000000000000000000000000000000000000602082015250565b600061133b6028836111c5565b9150611346826112df565b604082019050919050565b6000602082019050818103600083015261136a8161132e565b905091905056fea2646970667358221220d7a41ada2670d995f26b61f8dc2e1c65ccd62dd836a29af6c01b1866eb43911364736f6c63430008130033",
			"opcodes": "PUSH1 0x80 PUSH1 0x40 MSTORE PUSH1 0x0 PUSH1 0x2 SSTORE PUSH1 0x0 PUSH1 0x4 SSTORE CALLVALUE DUP1 ISZERO PUSH3 0x1B JUMPI PUSH1 0x0 DUP1 REVERT JUMPDEST POP PUSH1 0x40 MLOAD PUSH3 0x158B CODESIZE SUB DUP1 PUSH3 0x158B DUP4 CODECOPY DUP2 DUP2 ADD PUSH1 0x40 MSTORE DUP2 ADD SWAP1 PUSH3 0x41 SWAP2 SWAP1 PUSH3 0x18D JUMP JUMPDEST DUP2 PUSH1 0x0 DUP1 PUSH2 0x100 EXP DUP2 SLOAD DUP2 PUSH20 0xFFFFFFFFFFFFFFFFFFFFFFFFFFFFFFFFFFFFFFFF MUL NOT AND SWAP1 DUP4 PUSH20 0xFFFFFFFFFFFFFFFFFFFFFFFFFFFFFFFFFFFFFFFF AND MUL OR SWAP1 SSTORE POP DUP1 PUSH1 0x1 PUSH1 0x0 PUSH2 0x100 EXP DUP2 SLOAD DUP2 PUSH20 0xFFFFFFFFFFFFFFFFFFFFFFFFFFFFFFFFFFFFFFFF MUL NOT AND SWAP1 DUP4 PUSH20 0xFFFFFFFFFFFFFFFFFFFFFFFFFFFFFFFFFFFFFFFF AND MUL OR SWAP1 SSTORE POP POP POP PUSH3 0x1D4 JUMP JUMPDEST PUSH1 0x0 DUP1 REVERT JUMPDEST PUSH1 0x0 PUSH20 0xFFFFFFFFFFFFFFFFFFFFFFFFFFFFFFFFFFFFFFFF DUP3 AND SWAP1 POP SWAP2 SWAP1 POP JUMP JUMPDEST PUSH1 0x0 PUSH3 0xFC DUP3 PUSH3 0xCF JUMP JUMPDEST SWAP1 POP SWAP2 SWAP1 POP JUMP JUMPDEST PUSH1 0x0 PUSH3 0x110 DUP3 PUSH3 0xEF JUMP JUMPDEST SWAP1 POP SWAP2 SWAP1 POP JUMP JUMPDEST PUSH3 0x122 DUP2 PUSH3 0x103 JUMP JUMPDEST DUP2 EQ PUSH3 0x12E JUMPI PUSH1 0x0 DUP1 REVERT JUMPDEST POP JUMP JUMPDEST PUSH1 0x0 DUP2 MLOAD SWAP1 POP PUSH3 0x142 DUP2 PUSH3 0x117 JUMP JUMPDEST SWAP3 SWAP2 POP POP JUMP JUMPDEST PUSH1 0x0 PUSH3 0x155 DUP3 PUSH3 0xEF JUMP JUMPDEST SWAP1 POP SWAP2 SWAP1 POP JUMP JUMPDEST PUSH3 0x167 DUP2 PUSH3 0x148 JUMP JUMPDEST DUP2 EQ PUSH3 0x173 JUMPI PUSH1 0x0 DUP1 REVERT JUMPDEST POP JUMP JUMPDEST PUSH1 0x0 DUP2 MLOAD SWAP1 POP PUSH3 0x187 DUP2 PUSH3 0x15C JUMP JUMPDEST SWAP3 SWAP2 POP POP JUMP JUMPDEST PUSH1 0x0 DUP1 PUSH1 0x40 DUP4 DUP6 SUB SLT ISZERO PUSH3 0x1A7 JUMPI PUSH3 0x1A6 PUSH3 0xCA JUMP JUMPDEST JUMPDEST PUSH1 0x0 PUSH3 0x1B7 DUP6 DUP3 DUP7 ADD PUSH3 0x131 JUMP JUMPDEST SWAP3 POP POP PUSH1 0x20 PUSH3 0x1CA DUP6 DUP3 DUP7 ADD PUSH3 0x176 JUMP JUMPDEST SWAP2 POP POP SWAP3 POP SWAP3 SWAP1 POP JUMP JUMPDEST PUSH2 0x13A7 DUP1 PUSH3 0x1E4 PUSH1 0x0 CODECOPY PUSH1 0x0 RETURN INVALID PUSH1 0x80 PUSH1 0x40 MSTORE PUSH1 0x4 CALLDATASIZE LT PUSH2 0x109 JUMPI PUSH1 0x0 CALLDATALOAD PUSH1 0xE0 SHR DUP1 PUSH4 0x703849D9 GT PUSH2 0x95 JUMPI DUP1 PUSH4 0xCA009021 GT PUSH2 0x64 JUMPI DUP1 PUSH4 0xCA009021 EQ PUSH2 0x3D8 JUMPI DUP1 PUSH4 0xD91F2A0B EQ PUSH2 0x415 JUMPI DUP1 PUSH4 0xE0E5C324 EQ PUSH2 0x43E JUMPI DUP1 PUSH4 0xE22900FF EQ PUSH2 0x47B JUMPI DUP1 PUSH4 0xF558EB05 EQ PUSH2 0x4B8 JUMPI PUSH2 0x109 JUMP JUMPDEST DUP1 PUSH4 0x703849D9 EQ PUSH2 0x31C JUMPI DUP1 PUSH4 0x85FAE602 EQ PUSH2 0x347 JUMPI DUP1 PUSH4 0x8EDD5297 EQ PUSH2 0x384 JUMPI DUP1 PUSH4 0xB7FF5DAE EQ PUSH2 0x3AF JUMPI PUSH2 0x109 JUMP JUMPDEST DUP1 PUSH4 0x3FA3AB26 GT PUSH2 0xDC JUMPI DUP1 PUSH4 0x3FA3AB26 EQ PUSH2 0x1E1 JUMPI DUP1 PUSH4 0x5998F775 EQ PUSH2 0x221 JUMPI DUP1 PUSH4 0x59FB49F9 EQ PUSH2 0x25E JUMPI DUP1 PUSH4 0x5C622A0E EQ PUSH2 0x2A2 JUMPI DUP1 PUSH4 0x6833F200 EQ PUSH2 0x2DF JUMPI PUSH2 0x109 JUMP JUMPDEST DUP1 PUSH4 0x386660A EQ PUSH2 0x10E JUMPI DUP1 PUSH4 0x1A1FC3A0 EQ PUSH2 0x14B JUMPI DUP1 PUSH4 0x2DD0B640 EQ PUSH2 0x174 JUMPI DUP1 PUSH4 0x302DF083 EQ PUSH2 0x1A4 JUMPI JUMPDEST PUSH1 0x0 DUP1 REVERT JUMPDEST CALLVALUE DUP1 ISZERO PUSH2 0x11A JUMPI PUSH1 0x0 DUP1 REVERT JUMPDEST POP PUSH2 0x135 PUSH1 0x4 DUP1 CALLDATASIZE SUB DUP2 ADD SWAP1 PUSH2 0x130 SWAP2 SWAP1 PUSH2 0xBED JUMP JUMPDEST PUSH2 0x4CF JUMP JUMPDEST PUSH1 0x40 MLOAD PUSH2 0x142 SWAP2 SWAP1 PUSH2 0xC29 JUMP JUMPDEST PUSH1 0x40 MLOAD DUP1 SWAP2 SUB SWAP1 RETURN JUMPDEST CALLVALUE DUP1 ISZERO PUSH2 0x157 JUMPI PUSH1 0x0 DUP1 REVERT JUMPDEST POP PUSH2 0x172 PUSH1 0x4 DUP1 CALLDATASIZE SUB DUP2 ADD SWAP1 PUSH2 0x16D SWAP2 SWAP1 PUSH2 0xC44 JUMP JUMPDEST PUSH2 0x4EF JUMP JUMPDEST STOP JUMPDEST PUSH2 0x18E PUSH1 0x4 DUP1 CALLDATASIZE SUB DUP2 ADD SWAP1 PUSH2 0x189 SWAP2 SWAP1 PUSH2 0xCA9 JUMP JUMPDEST PUSH2 0x5FD JUMP JUMPDEST PUSH1 0x40 MLOAD PUSH2 0x19B SWAP2 SWAP1 PUSH2 0xC29 JUMP JUMPDEST PUSH1 0x40 MLOAD DUP1 SWAP2 SUB SWAP1 RETURN JUMPDEST CALLVALUE DUP1 ISZERO PUSH2 0x1B0 JUMPI PUSH1 0x0 DUP1 REVERT JUMPDEST POP PUSH2 0x1CB PUSH1 0x4 DUP1 CALLDATASIZE SUB DUP2 ADD SWAP1 PUSH2 0x1C6 SWAP2 SWAP1 PUSH2 0xBED JUMP JUMPDEST PUSH2 0x748 JUMP JUMPDEST PUSH1 0x40 MLOAD PUSH2 0x1D8 SWAP2 SWAP1 PUSH2 0xC29 JUMP JUMPDEST PUSH1 0x40 MLOAD DUP1 SWAP2 SUB SWAP1 RETURN JUMPDEST CALLVALUE DUP1 ISZERO PUSH2 0x1ED JUMPI PUSH1 0x0 DUP1 REVERT JUMPDEST POP PUSH2 0x208 PUSH1 0x4 DUP1 CALLDATASIZE SUB DUP2 ADD SWAP1 PUSH2 0x203 SWAP2 SWAP1 PUSH2 0xBED JUMP JUMPDEST PUSH2 0x76B JUMP JUMPDEST PUSH1 0x40 MLOAD PUSH2 0x218 SWAP5 SWAP4 SWAP3 SWAP2 SWAP1 PUSH2 0xD36 JUMP JUMPDEST PUSH1 0x40 MLOAD DUP1 SWAP2 SUB SWAP1 RETURN JUMPDEST CALLVALUE DUP1 ISZERO PUSH2 0x22D JUMPI PUSH1 0x0 DUP1 REVERT JUMPDEST POP PUSH2 0x248 PUSH1 0x4 DUP1 CALLDATASIZE SUB DUP2 ADD SWAP1 PUSH2 0x243 SWAP2 SWAP1 PUSH2 0xBED JUMP JUMPDEST PUSH2 0x79B JUMP JUMPDEST PUSH1 0x40 MLOAD PUSH2 0x255 SWAP2 SWAP1 PUSH2 0xC29 JUMP JUMPDEST PUSH1 0x40 MLOAD DUP1 SWAP2 SUB SWAP1 RETURN JUMPDEST CALLVALUE DUP1 ISZERO PUSH2 0x26A JUMPI PUSH1 0x0 DUP1 REVERT JUMPDEST POP PUSH2 0x285 PUSH1 0x4 DUP1 CALLDATASIZE SUB DUP2 ADD SWAP1 PUSH2 0x280 SWAP2 SWAP1 PUSH2 0xBED JUMP JUMPDEST PUSH2 0x7BB JUMP JUMPDEST PUSH1 0x40 MLOAD PUSH2 0x299 SWAP9 SWAP8 SWAP7 SWAP6 SWAP5 SWAP4 SWAP3 SWAP2 SWAP1 PUSH2 0xE9E JUMP JUMPDEST PUSH1 0x40 MLOAD DUP1 SWAP2 SUB SWAP1 RETURN JUMPDEST CALLVALUE DUP1 ISZERO PUSH2 0x2AE JUMPI PUSH1 0x0 DUP1 REVERT JUMPDEST POP PUSH2 0x2C9 PUSH1 0x4 DUP1 CALLDATASIZE SUB DUP2 ADD SWAP1 PUSH2 0x2C4 SWAP2 SWAP1 PUSH2 0xBED JUMP JUMPDEST PUSH2 0x84F JUMP JUMPDEST PUSH1 0x40 MLOAD PUSH2 0x2D6 SWAP2 SWAP1 PUSH2 0xF1F JUMP JUMPDEST PUSH1 0x40 MLOAD DUP1 SWAP2 SUB SWAP1 RETURN JUMPDEST CALLVALUE DUP1 ISZERO PUSH2 0x2EB JUMPI PUSH1 0x0 DUP1 REVERT JUMPDEST POP PUSH2 0x306 PUSH1 0x4 DUP1 CALLDATASIZE SUB DUP2 ADD SWAP1 PUSH2 0x301 SWAP2 SWAP1 PUSH2 0xBED JUMP JUMPDEST PUSH2 0x87C JUMP JUMPDEST PUSH1 0x40 MLOAD PUSH2 0x313 SWAP2 SWAP1 PUSH2 0xC29 JUMP JUMPDEST PUSH1 0x40 MLOAD DUP1 SWAP2 SUB SWAP1 RETURN JUMPDEST CALLVALUE DUP1 ISZERO PUSH2 0x328 JUMPI PUSH1 0x0 DUP1 REVERT JUMPDEST POP PUSH2 0x331 PUSH2 0x89C JUMP JUMPDEST PUSH1 0x40 MLOAD PUSH2 0x33E SWAP2 SWAP1 PUSH2 0xC29 JUMP JUMPDEST PUSH1 0x40 MLOAD DUP1 SWAP2 SUB SWAP1 RETURN JUMPDEST CALLVALUE DUP1 ISZERO PUSH2 0x353 JUMPI PUSH1 0x0 DUP1 REVERT JUMPDEST POP PUSH2 0x36E PUSH1 0x4 DUP1 CALLDATASIZE SUB DUP2 ADD SWAP1 PUSH2 0x369 SWAP2 SWAP1 PUSH2 0xBED JUMP JUMPDEST PUSH2 0x8A2 JUMP JUMPDEST PUSH1 0x40 MLOAD PUSH2 0x37B SWAP2 SWAP1 PUSH2 0x1052 JUMP JUMPDEST PUSH1 0x40 MLOAD DUP1 SWAP2 SUB SWAP1 RETURN JUMPDEST CALLVALUE DUP1 ISZERO PUSH2 0x390 JUMPI PUSH1 0x0 DUP1 REVERT JUMPDEST POP PUSH2 0x399 PUSH2 0x9B4 JUMP JUMPDEST PUSH1 0x40 MLOAD PUSH2 0x3A6 SWAP2 SWAP1 PUSH2 0xC29 JUMP JUMPDEST PUSH1 0x40 MLOAD DUP1 SWAP2 SUB SWAP1 RETURN JUMPDEST CALLVALUE DUP1 ISZERO PUSH2 0x3BB JUMPI PUSH1 0x0 DUP1 REVERT JUMPDEST POP PUSH2 0x3D6 PUSH1 0x4 DUP1 CALLDATASIZE SUB DUP2 ADD SWAP1 PUSH2 0x3D1 SWAP2 SWAP1 PUSH2 0x1093 JUMP JUMPDEST PUSH2 0x9BA JUMP JUMPDEST STOP JUMPDEST CALLVALUE DUP1 ISZERO PUSH2 0x3E4 JUMPI PUSH1 0x0 DUP1 REVERT JUMPDEST POP PUSH2 0x3FF PUSH1 0x4 DUP1 CALLDATASIZE SUB DUP2 ADD SWAP1 PUSH2 0x3FA SWAP2 SWAP1 PUSH2 0xBED JUMP JUMPDEST PUSH2 0x9FC JUMP JUMPDEST PUSH1 0x40 MLOAD PUSH2 0x40C SWAP2 SWAP1 PUSH2 0xC29 JUMP JUMPDEST PUSH1 0x40 MLOAD DUP1 SWAP2 SUB SWAP1 RETURN JUMPDEST CALLVALUE DUP1 ISZERO PUSH2 0x421 JUMPI PUSH1 0x0 DUP1 REVERT JUMPDEST POP PUSH2 0x43C PUSH1 0x4 DUP1 CALLDATASIZE SUB DUP2 ADD SWAP1 PUSH2 0x437 SWAP2 SWAP1 PUSH2 0xC44 JUMP JUMPDEST PUSH2 0xA1C JUMP JUMPDEST STOP JUMPDEST CALLVALUE DUP1 ISZERO PUSH2 0x44A JUMPI PUSH1 0x0 DUP1 REVERT JUMPDEST POP PUSH2 0x465 PUSH1 0x4 DUP1 CALLDATASIZE SUB DUP2 ADD SWAP1 PUSH2 0x460 SWAP2 SWAP1 PUSH2 0x10D3 JUMP JUMPDEST PUSH2 0xA94 JUMP JUMPDEST PUSH1 0x40 MLOAD PUSH2 0x472 SWAP2 SWAP1 PUSH2 0xC29 JUMP JUMPDEST PUSH1 0x40 MLOAD DUP1 SWAP2 SUB SWAP1 RETURN JUMPDEST CALLVALUE DUP1 ISZERO PUSH2 0x487 JUMPI PUSH1 0x0 DUP1 REVERT JUMPDEST POP PUSH2 0x4A2 PUSH1 0x4 DUP1 CALLDATASIZE SUB DUP2 ADD SWAP1 PUSH2 0x49D SWAP2 SWAP1 PUSH2 0xBED JUMP JUMPDEST PUSH2 0xAF9 JUMP JUMPDEST PUSH1 0x40 MLOAD PUSH2 0x4AF SWAP2 SWAP1 PUSH2 0xC29 JUMP JUMPDEST PUSH1 0x40 MLOAD DUP1 SWAP2 SUB SWAP1 RETURN JUMPDEST CALLVALUE DUP1 ISZERO PUSH2 0x4C4 JUMPI PUSH1 0x0 DUP1 REVERT JUMPDEST POP PUSH2 0x4CD PUSH2 0xB19 JUMP JUMPDEST STOP JUMPDEST PUSH1 0x0 PUSH1 0x3 PUSH1 0x0 DUP4 DUP2 MSTORE PUSH1 0x20 ADD SWAP1 DUP2 MSTORE PUSH1 0x20 ADD PUSH1 0x0 KECCAK256 PUSH1 0x8 ADD SLOAD SWAP1 POP SWAP2 SWAP1 POP JUMP JUMPDEST DUP1 CALLER PUSH20 0xFFFFFFFFFFFFFFFFFFFFFFFFFFFFFFFFFFFFFFFF AND PUSH1 0x0 DUP1 SLOAD SWAP1 PUSH2 0x100 EXP SWAP1 DIV PUSH20 0xFFFFFFFFFFFFFFFFFFFFFFFFFFFFFFFFFFFFFFFF AND PUSH20 0xFFFFFFFFFFFFFFFFFFFFFFFFFFFFFFFFFFFFFFFF AND PUSH4 0x5564F644 PUSH1 0x3 PUSH1 0x0 DUP6 DUP2 MSTORE PUSH1 0x20 ADD SWAP1 DUP2 MSTORE PUSH1 0x20 ADD PUSH1 0x0 KECCAK256 PUSH1 0x2 ADD PUSH1 0x0 ADD SLOAD PUSH1 0x40 MLOAD DUP3 PUSH4 0xFFFFFFFF AND PUSH1 0xE0 SHL DUP2 MSTORE PUSH1 0x4 ADD PUSH2 0x579 SWAP2 SWAP1 PUSH2 0xC29 JUMP JUMPDEST PUSH1 0x20 PUSH1 0x40 MLOAD DUP1 DUP4 SUB DUP2 DUP7 GAS STATICCALL ISZERO DUP1 ISZERO PUSH2 0x596 JUMPI RETURNDATASIZE PUSH1 0x0 DUP1 RETURNDATACOPY RETURNDATASIZE PUSH1 0x0 REVERT JUMPDEST POP POP POP POP PUSH1 0x40 MLOAD RETURNDATASIZE PUSH1 0x1F NOT PUSH1 0x1F DUP3 ADD AND DUP3 ADD DUP1 PUSH1 0x40 MSTORE POP DUP2 ADD SWAP1 PUSH2 0x5BA SWAP2 SWAP1 PUSH2 0x1198 JUMP JUMPDEST PUSH20 0xFFFFFFFFFFFFFFFFFFFFFFFFFFFFFFFFFFFFFFFF AND EQ PUSH2 0x5DA JUMPI PUSH1 0x0 DUP1 REVERT JUMPDEST DUP3 PUSH1 0x3 PUSH1 0x0 DUP5 DUP2 MSTORE PUSH1 0x20 ADD SWAP1 DUP2 MSTORE PUSH1 0x20 ADD PUSH1 0x0 KECCAK256 PUSH1 0x2 ADD PUSH1 0x1 ADD DUP2 SWAP1 SSTORE POP POP POP POP JUMP JUMPDEST PUSH1 0x0 PUSH7 0x2386F26FC10000 CALLVALUE EQ PUSH2 0x648 JUMPI PUSH1 0x40 MLOAD PUSH32 0x8C379A000000000000000000000000000000000000000000000000000000000 DUP2 MSTORE PUSH1 0x4 ADD PUSH2 0x63F SWAP1 PUSH2 0x1248 JUMP JUMPDEST PUSH1 0x40 MLOAD DUP1 SWAP2 SUB SWAP1 REVERT JUMPDEST PUSH1 0x2 PUSH1 0x0 DUP2 SLOAD DUP1 SWAP3 SWAP2 SWAP1 PUSH2 0x65B SWAP1 PUSH2 0x1297 JUMP JUMPDEST SWAP2 SWAP1 POP SSTORE POP PUSH1 0x0 PUSH1 0x3 PUSH1 0x0 PUSH1 0x2 SLOAD DUP2 MSTORE PUSH1 0x20 ADD SWAP1 DUP2 MSTORE PUSH1 0x20 ADD PUSH1 0x0 KECCAK256 SWAP1 POP PUSH1 0x5 PUSH1 0x0 DUP10 DUP2 MSTORE PUSH1 0x20 ADD SWAP1 DUP2 MSTORE PUSH1 0x20 ADD PUSH1 0x0 KECCAK256 DUP2 PUSH1 0x2 ADD PUSH1 0x0 DUP3 ADD SLOAD DUP2 PUSH1 0x0 ADD SSTORE PUSH1 0x1 DUP3 ADD SLOAD DUP2 PUSH1 0x1 ADD SSTORE PUSH1 0x2 DUP3 ADD SLOAD DUP2 PUSH1 0x2 ADD SSTORE PUSH1 0x3 DUP3 ADD SLOAD DUP2 PUSH1 0x3 ADD SSTORE SWAP1 POP POP DUP7 DUP2 PUSH1 0x1 ADD DUP2 SWAP1 SSTORE POP DUP6 DUP2 PUSH1 0x6 ADD DUP2 SWAP1 SSTORE POP DUP5 DUP2 PUSH1 0x7 ADD PUSH1 0x0 PUSH2 0x100 EXP DUP2 SLOAD DUP2 PUSH1 0xFF MUL NOT AND SWAP1 DUP4 PUSH1 0x1 DUP2 GT ISZERO PUSH2 0x6F4 JUMPI PUSH2 0x6F3 PUSH2 0xDDF JUMP JUMPDEST JUMPDEST MUL OR SWAP1 SSTORE POP PUSH1 0x0 DUP2 PUSH1 0x7 ADD PUSH1 0x1 PUSH2 0x100 EXP DUP2 SLOAD DUP2 PUSH1 0xFF MUL NOT AND SWAP1 DUP4 PUSH1 0x5 DUP2 GT ISZERO PUSH2 0x721 JUMPI PUSH2 0x720 PUSH2 0xDDF JUMP JUMPDEST JUMPDEST MUL OR SWAP1 SSTORE POP DUP4 DUP2 PUSH1 0x8 ADD DUP2 SWAP1 SSTORE POP DUP3 DUP2 PUSH1 0x9 ADD DUP2 SWAP1 SSTORE POP PUSH1 0x2 SLOAD SWAP2 POP POP SWAP7 SWAP6 POP POP POP POP POP POP JUMP JUMPDEST PUSH1 0x0 PUSH1 0x3 PUSH1 0x0 DUP4 DUP2 MSTORE PUSH1 0x20 ADD SWAP1 DUP2 MSTORE PUSH1 0x20 ADD PUSH1 0x0 KECCAK256 PUSH1 0x2 ADD PUSH1 0x1 ADD SLOAD SWAP1 POP SWAP2 SWAP1 POP JUMP JUMPDEST PUSH1 0x5 PUSH1 0x20 MSTORE DUP1 PUSH1 0x0 MSTORE PUSH1 0x40 PUSH1 0x0 KECCAK256 PUSH1 0x0 SWAP2 POP SWAP1 POP DUP1 PUSH1 0x0 ADD SLOAD SWAP1 DUP1 PUSH1 0x1 ADD SLOAD SWAP1 DUP1 PUSH1 0x2 ADD SLOAD SWAP1 DUP1 PUSH1 0x3 ADD SLOAD SWAP1 POP DUP5 JUMP JUMPDEST PUSH1 0x0 PUSH1 0x3 PUSH1 0x0 DUP4 DUP2 MSTORE PUSH1 0x20 ADD SWAP1 DUP2 MSTORE PUSH1 0x20 ADD PUSH1 0x0 KECCAK256 PUSH1 0x6 ADD SLOAD SWAP1 POP SWAP2 SWAP1 POP JUMP JUMPDEST PUSH1 0x3 PUSH1 0x20 MSTORE DUP1 PUSH1 0x0 MSTORE PUSH1 0x40 PUSH1 0x0 KECCAK256 PUSH1 0x0 SWAP2 POP SWAP1 POP DUP1 PUSH1 0x0 ADD SLOAD SWAP1 DUP1 PUSH1 0x1 ADD SLOAD SWAP1 DUP1 PUSH1 0x2 ADD PUSH1 0x40 MLOAD DUP1 PUSH1 0x80 ADD PUSH1 0x40 MSTORE SWAP1 DUP2 PUSH1 0x0 DUP3 ADD SLOAD DUP2 MSTORE PUSH1 0x20 ADD PUSH1 0x1 DUP3 ADD SLOAD DUP2 MSTORE PUSH1 0x20 ADD PUSH1 0x2 DUP3 ADD SLOAD DUP2 MSTORE PUSH1 0x20 ADD PUSH1 0x3 DUP3 ADD SLOAD DUP2 MSTORE POP POP SWAP1 DUP1 PUSH1 0x6 ADD SLOAD SWAP1 DUP1 PUSH1 0x7 ADD PUSH1 0x0 SWAP1 SLOAD SWAP1 PUSH2 0x100 EXP SWAP1 DIV PUSH1 0xFF AND SWAP1 DUP1 PUSH1 0x7 ADD PUSH1 0x1 SWAP1 SLOAD SWAP1 PUSH2 0x100 EXP SWAP1 DIV PUSH1 0xFF AND SWAP1 DUP1 PUSH1 0x8 ADD SLOAD SWAP1 DUP1 PUSH1 0x9 ADD SLOAD SWAP1 POP DUP9 JUMP JUMPDEST PUSH1 0x0 PUSH1 0x3 PUSH1 0x0 DUP4 DUP2 MSTORE PUSH1 0x20 ADD SWAP1 DUP2 MSTORE PUSH1 0x20 ADD PUSH1 0x0 KECCAK256 PUSH1 0x7 ADD PUSH1 0x1 SWAP1 SLOAD SWAP1 PUSH2 0x100 EXP SWAP1 DIV PUSH1 0xFF AND SWAP1 POP SWAP2 SWAP1 POP JUMP JUMPDEST PUSH1 0x0 PUSH1 0x3 PUSH1 0x0 DUP4 DUP2 MSTORE PUSH1 0x20 ADD SWAP1 DUP2 MSTORE PUSH1 0x20 ADD PUSH1 0x0 KECCAK256 PUSH1 0x9 ADD SLOAD SWAP1 POP SWAP2 SWAP1 POP JUMP JUMPDEST PUSH1 0x2 SLOAD DUP2 JUMP JUMPDEST PUSH2 0x8AA PUSH2 0xB1B JUMP JUMPDEST PUSH1 0x3 PUSH1 0x0 DUP4 DUP2 MSTORE PUSH1 0x20 ADD SWAP1 DUP2 MSTORE PUSH1 0x20 ADD PUSH1 0x0 KECCAK256 PUSH1 0x40 MLOAD DUP1 PUSH2 0x100 ADD PUSH1 0x40 MSTORE SWAP1 DUP2 PUSH1 0x0 DUP3 ADD SLOAD DUP2 MSTORE PUSH1 0x20 ADD PUSH1 0x1 DUP3 ADD SLOAD DUP2 MSTORE PUSH1 0x20 ADD PUSH1 0x2 DUP3 ADD PUSH1 0x40 MLOAD DUP1 PUSH1 0x80 ADD PUSH1 0x40 MSTORE SWAP1 DUP2 PUSH1 0x0 DUP3 ADD SLOAD DUP2 MSTORE PUSH1 0x20 ADD PUSH1 0x1 DUP3 ADD SLOAD DUP2 MSTORE PUSH1 0x20 ADD PUSH1 0x2 DUP3 ADD SLOAD DUP2 MSTORE PUSH1 0x20 ADD PUSH1 0x3 DUP3 ADD SLOAD DUP2 MSTORE POP POP DUP2 MSTORE PUSH1 0x20 ADD PUSH1 0x6 DUP3 ADD SLOAD DUP2 MSTORE PUSH1 0x20 ADD PUSH1 0x7 DUP3 ADD PUSH1 0x0 SWAP1 SLOAD SWAP1 PUSH2 0x100 EXP SWAP1 DIV PUSH1 0xFF AND PUSH1 0x1 DUP2 GT ISZERO PUSH2 0x948 JUMPI PUSH2 0x947 PUSH2 0xDDF JUMP JUMPDEST JUMPDEST PUSH1 0x1 DUP2 GT ISZERO PUSH2 0x95A JUMPI PUSH2 0x959 PUSH2 0xDDF JUMP JUMPDEST JUMPDEST DUP2 MSTORE PUSH1 0x20 ADD PUSH1 0x7 DUP3 ADD PUSH1 0x1 SWAP1 SLOAD SWAP1 PUSH2 0x100 EXP SWAP1 DIV PUSH1 0xFF AND PUSH1 0x5 DUP2 GT ISZERO PUSH2 0x983 JUMPI PUSH2 0x982 PUSH2 0xDDF JUMP JUMPDEST JUMPDEST PUSH1 0x5 DUP2 GT ISZERO PUSH2 0x995 JUMPI PUSH2 0x994 PUSH2 0xDDF JUMP JUMPDEST JUMPDEST DUP2 MSTORE PUSH1 0x20 ADD PUSH1 0x8 DUP3 ADD SLOAD DUP2 MSTORE PUSH1 0x20 ADD PUSH1 0x9 DUP3 ADD SLOAD DUP2 MSTORE POP POP SWAP1 POP SWAP2 SWAP1 POP JUMP JUMPDEST PUSH1 0x4 SLOAD DUP2 JUMP JUMPDEST DUP2 PUSH1 0x3 PUSH1 0x0 DUP4 DUP2 MSTORE PUSH1 0x20 ADD SWAP1 DUP2 MSTORE PUSH1 0x20 ADD PUSH1 0x0 KECCAK256 PUSH1 0x7 ADD PUSH1 0x1 PUSH2 0x100 EXP DUP2 SLOAD DUP2 PUSH1 0xFF MUL NOT AND SWAP1 DUP4 PUSH1 0x5 DUP2 GT ISZERO PUSH2 0x9F3 JUMPI PUSH2 0x9F2 PUSH2 0xDDF JUMP JUMPDEST JUMPDEST MUL OR SWAP1 SSTORE POP POP POP JUMP JUMPDEST PUSH1 0x0 PUSH1 0x5 PUSH1 0x0 DUP4 DUP2 MSTORE PUSH1 0x20 ADD SWAP1 DUP2 MSTORE PUSH1 0x20 ADD PUSH1 0x0 KECCAK256 PUSH1 0x0 ADD SLOAD SWAP1 POP SWAP2 SWAP1 POP JUMP JUMPDEST PUSH1 0x0 PUSH1 0x3 PUSH1 0x0 DUP4 DUP2 MSTORE PUSH1 0x20 ADD SWAP1 DUP2 MSTORE PUSH1 0x20 ADD PUSH1 0x0 KECCAK256 PUSH1 0x9 ADD SLOAD SUB PUSH2 0xA75 JUMPI PUSH1 0x40 MLOAD PUSH32 0x8C379A000000000000000000000000000000000000000000000000000000000 DUP2 MSTORE PUSH1 0x4 ADD PUSH2 0xA6C SWAP1 PUSH2 0x1351 JUMP JUMPDEST PUSH1 0x40 MLOAD DUP1 SWAP2 SUB SWAP1 REVERT JUMPDEST DUP2 PUSH1 0x3 PUSH1 0x0 DUP4 DUP2 MSTORE PUSH1 0x20 ADD SWAP1 DUP2 MSTORE PUSH1 0x20 ADD PUSH1 0x0 KECCAK256 PUSH1 0x9 ADD DUP2 SWAP1 SSTORE POP POP POP JUMP JUMPDEST PUSH1 0x0 PUSH1 0x4 PUSH1 0x0 DUP2 SLOAD DUP1 SWAP3 SWAP2 SWAP1 PUSH2 0xAA9 SWAP1 PUSH2 0x1297 JUMP JUMPDEST SWAP2 SWAP1 POP SSTORE POP PUSH1 0x0 PUSH1 0x5 PUSH1 0x0 PUSH1 0x4 SLOAD DUP2 MSTORE PUSH1 0x20 ADD SWAP1 DUP2 MSTORE PUSH1 0x20 ADD PUSH1 0x0 KECCAK256 SWAP1 POP DUP6 DUP2 PUSH1 0x0 ADD DUP2 SWAP1 SSTORE POP DUP5 DUP2 PUSH1 0x1 ADD DUP2 SWAP1 SSTORE POP DUP4 DUP2 PUSH1 0x2 ADD DUP2 SWAP1 SSTORE POP DUP3 DUP2 PUSH1 0x3 ADD DUP2 SWAP1 SSTORE POP PUSH1 0x4 SLOAD SWAP2 POP POP SWAP5 SWAP4 POP POP POP POP JUMP JUMPDEST PUSH1 0x0 PUSH1 0x3 PUSH1 0x0 DUP4 DUP2 MSTORE PUSH1 0x20 ADD SWAP1 DUP2 MSTORE PUSH1 0x20 ADD PUSH1 0x0 KECCAK256 PUSH1 0x1 ADD SLOAD SWAP1 POP SWAP2 SWAP1 POP JUMP JUMPDEST JUMP JUMPDEST PUSH1 0x40 MLOAD DUP1 PUSH2 0x100 ADD PUSH1 0x40 MSTORE DUP1 PUSH1 0x0 DUP2 MSTORE PUSH1 0x20 ADD PUSH1 0x0 DUP2 MSTORE PUSH1 0x20 ADD PUSH2 0xB3D PUSH2 0xB8A JUMP JUMPDEST DUP2 MSTORE PUSH1 0x20 ADD PUSH1 0x0 DUP2 MSTORE PUSH1 0x20 ADD PUSH1 0x0 PUSH1 0x1 DUP2 GT ISZERO PUSH2 0xB5D JUMPI PUSH2 0xB5C PUSH2 0xDDF JUMP JUMPDEST JUMPDEST DUP2 MSTORE PUSH1 0x20 ADD PUSH1 0x0 PUSH1 0x5 DUP2 GT ISZERO PUSH2 0xB76 JUMPI PUSH2 0xB75 PUSH2 0xDDF JUMP JUMPDEST JUMPDEST DUP2 MSTORE PUSH1 0x20 ADD PUSH1 0x0 DUP2 MSTORE PUSH1 0x20 ADD PUSH1 0x0 DUP2 MSTORE POP SWAP1 JUMP JUMPDEST PUSH1 0x40 MLOAD DUP1 PUSH1 0x80 ADD PUSH1 0x40 MSTORE DUP1 PUSH1 0x0 DUP2 MSTORE PUSH1 0x20 ADD PUSH1 0x0 DUP2 MSTORE PUSH1 0x20 ADD PUSH1 0x0 DUP2 MSTORE PUSH1 0x20 ADD PUSH1 0x0 DUP2 MSTORE POP SWAP1 JUMP JUMPDEST PUSH1 0x0 DUP1 REVERT JUMPDEST PUSH1 0x0 DUP2 SWAP1 POP SWAP2 SWAP1 POP JUMP JUMPDEST PUSH2 0xBCA DUP2 PUSH2 0xBB7 JUMP JUMPDEST DUP2 EQ PUSH2 0xBD5 JUMPI PUSH1 0x0 DUP1 REVERT JUMPDEST POP JUMP JUMPDEST PUSH1 0x0 DUP2 CALLDATALOAD SWAP1 POP PUSH2 0xBE7 DUP2 PUSH2 0xBC1 JUMP JUMPDEST SWAP3 SWAP2 POP POP JUMP JUMPDEST PUSH1 0x0 PUSH1 0x20 DUP3 DUP5 SUB SLT ISZERO PUSH2 0xC03 JUMPI PUSH2 0xC02 PUSH2 0xBB2 JUMP JUMPDEST JUMPDEST PUSH1 0x0 PUSH2 0xC11 DUP5 DUP3 DUP6 ADD PUSH2 0xBD8 JUMP JUMPDEST SWAP2 POP POP SWAP3 SWAP2 POP POP JUMP JUMPDEST PUSH2 0xC23 DUP2 PUSH2 0xBB7 JUMP JUMPDEST DUP3 MSTORE POP POP JUMP JUMPDEST PUSH1 0x0 PUSH1 0x20 DUP3 ADD SWAP1 POP PUSH2 0xC3E PUSH1 0x0 DUP4 ADD DUP5 PUSH2 0xC1A JUMP JUMPDEST SWAP3 SWAP2 POP POP JUMP JUMPDEST PUSH1 0x0 DUP1 PUSH1 0x40 DUP4 DUP6 SUB SLT ISZERO PUSH2 0xC5B JUMPI PUSH2 0xC5A PUSH2 0xBB2 JUMP JUMPDEST JUMPDEST PUSH1 0x0 PUSH2 0xC69 DUP6 DUP3 DUP7 ADD PUSH2 0xBD8 JUMP JUMPDEST SWAP3 POP POP PUSH1 0x20 PUSH2 0xC7A DUP6 DUP3 DUP7 ADD PUSH2 0xBD8 JUMP JUMPDEST SWAP2 POP POP SWAP3 POP SWAP3 SWAP1 POP JUMP JUMPDEST PUSH1 0x2 DUP2 LT PUSH2 0xC91 JUMPI PUSH1 0x0 DUP1 REVERT JUMPDEST POP JUMP JUMPDEST PUSH1 0x0 DUP2 CALLDATALOAD SWAP1 POP PUSH2 0xCA3 DUP2 PUSH2 0xC84 JUMP JUMPDEST SWAP3 SWAP2 POP POP JUMP JUMPDEST PUSH1 0x0 DUP1 PUSH1 0x0 DUP1 PUSH1 0x0 DUP1 PUSH1 0xC0 DUP8 DUP10 SUB SLT ISZERO PUSH2 0xCC6 JUMPI PUSH2 0xCC5 PUSH2 0xBB2 JUMP JUMPDEST JUMPDEST PUSH1 0x0 PUSH2 0xCD4 DUP10 DUP3 DUP11 ADD PUSH2 0xBD8 JUMP JUMPDEST SWAP7 POP POP PUSH1 0x20 PUSH2 0xCE5 DUP10 DUP3 DUP11 ADD PUSH2 0xBD8 JUMP JUMPDEST SWAP6 POP POP PUSH1 0x40 PUSH2 0xCF6 DUP10 DUP3 DUP11 ADD PUSH2 0xBD8 JUMP JUMPDEST SWAP5 POP POP PUSH1 0x60 PUSH2 0xD07 DUP10 DUP3 DUP11 ADD PUSH2 0xC94 JUMP JUMPDEST SWAP4 POP POP PUSH1 0x80 PUSH2 0xD18 DUP10 DUP3 DUP11 ADD PUSH2 0xBD8 JUMP JUMPDEST SWAP3 POP POP PUSH1 0xA0 PUSH2 0xD29 DUP10 DUP3 DUP11 ADD PUSH2 0xBD8 JUMP JUMPDEST SWAP2 POP POP SWAP3 SWAP6 POP SWAP3 SWAP6 POP SWAP3 SWAP6 JUMP JUMPDEST PUSH1 0x0 PUSH1 0x80 DUP3 ADD SWAP1 POP PUSH2 0xD4B PUSH1 0x0 DUP4 ADD DUP8 PUSH2 0xC1A JUMP JUMPDEST PUSH2 0xD58 PUSH1 0x20 DUP4 ADD DUP7 PUSH2 0xC1A JUMP JUMPDEST PUSH2 0xD65 PUSH1 0x40 DUP4 ADD DUP6 PUSH2 0xC1A JUMP JUMPDEST PUSH2 0xD72 PUSH1 0x60 DUP4 ADD DUP5 PUSH2 0xC1A JUMP JUMPDEST SWAP6 SWAP5 POP POP POP POP POP JUMP JUMPDEST PUSH2 0xD84 DUP2 PUSH2 0xBB7 JUMP JUMPDEST DUP3 MSTORE POP POP JUMP JUMPDEST PUSH1 0x80 DUP3 ADD PUSH1 0x0 DUP3 ADD MLOAD PUSH2 0xDA0 PUSH1 0x0 DUP6 ADD DUP3 PUSH2 0xD7B JUMP JUMPDEST POP PUSH1 0x20 DUP3 ADD MLOAD PUSH2 0xDB3 PUSH1 0x20 DUP6 ADD DUP3 PUSH2 0xD7B JUMP JUMPDEST POP PUSH1 0x40 DUP3 ADD MLOAD PUSH2 0xDC6 PUSH1 0x40 DUP6 ADD DUP3 PUSH2 0xD7B JUMP JUMPDEST POP PUSH1 0x60 DUP3 ADD MLOAD PUSH2 0xDD9 PUSH1 0x60 DUP6 ADD DUP3 PUSH2 0xD7B JUMP JUMPDEST POP POP POP POP JUMP JUMPDEST PUSH32 0x4E487B7100000000000000000000000000000000000000000000000000000000 PUSH1 0x0 MSTORE PUSH1 0x21 PUSH1 0x4 MSTORE PUSH1 0x24 PUSH1 0x0 REVERT JUMPDEST PUSH1 0x2 DUP2 LT PUSH2 0xE1F JUMPI PUSH2 0xE1E PUSH2 0xDDF JUMP JUMPDEST JUMPDEST POP JUMP JUMPDEST PUSH1 0x0 DUP2 SWAP1 POP PUSH2 0xE30 DUP3 PUSH2 0xE0E JUMP JUMPDEST SWAP2 SWAP1 POP JUMP JUMPDEST PUSH1 0x0 PUSH2 0xE40 DUP3 PUSH2 0xE22 JUMP JUMPDEST SWAP1 POP SWAP2 SWAP1 POP JUMP JUMPDEST PUSH2 0xE50 DUP2 PUSH2 0xE35 JUMP JUMPDEST DUP3 MSTORE POP POP JUMP JUMPDEST PUSH1 0x6 DUP2 LT PUSH2 0xE67 JUMPI PUSH2 0xE66 PUSH2 0xDDF JUMP JUMPDEST JUMPDEST POP JUMP JUMPDEST PUSH1 0x0 DUP2 SWAP1 POP PUSH2 0xE78 DUP3 PUSH2 0xE56 JUMP JUMPDEST SWAP2 SWAP1 POP JUMP JUMPDEST PUSH1 0x0 PUSH2 0xE88 DUP3 PUSH2 0xE6A JUMP JUMPDEST SWAP1 POP SWAP2 SWAP1 POP JUMP JUMPDEST PUSH2 0xE98 DUP2 PUSH2 0xE7D JUMP JUMPDEST DUP3 MSTORE POP POP JUMP JUMPDEST PUSH1 0x0 PUSH2 0x160 DUP3 ADD SWAP1 POP PUSH2 0xEB4 PUSH1 0x0 DUP4 ADD DUP12 PUSH2 0xC1A JUMP JUMPDEST PUSH2 0xEC1 PUSH1 0x20 DUP4 ADD DUP11 PUSH2 0xC1A JUMP JUMPDEST PUSH2 0xECE PUSH1 0x40 DUP4 ADD DUP10 PUSH2 0xD8A JUMP JUMPDEST PUSH2 0xEDB PUSH1 0xC0 DUP4 ADD DUP9 PUSH2 0xC1A JUMP JUMPDEST PUSH2 0xEE8 PUSH1 0xE0 DUP4 ADD DUP8 PUSH2 0xE47 JUMP JUMPDEST PUSH2 0xEF6 PUSH2 0x100 DUP4 ADD DUP7 PUSH2 0xE8F JUMP JUMPDEST PUSH2 0xF04 PUSH2 0x120 DUP4 ADD DUP6 PUSH2 0xC1A JUMP JUMPDEST PUSH2 0xF12 PUSH2 0x140 DUP4 ADD DUP5 PUSH2 0xC1A JUMP JUMPDEST SWAP10 SWAP9 POP POP POP POP POP POP POP POP POP JUMP JUMPDEST PUSH1 0x0 PUSH1 0x20 DUP3 ADD SWAP1 POP PUSH2 0xF34 PUSH1 0x0 DUP4 ADD DUP5 PUSH2 0xE8F JUMP JUMPDEST SWAP3 SWAP2 POP POP JUMP JUMPDEST PUSH1 0x80 DUP3 ADD PUSH1 0x0 DUP3 ADD MLOAD PUSH2 0xF50 PUSH1 0x0 DUP6 ADD DUP3 PUSH2 0xD7B JUMP JUMPDEST POP PUSH1 0x20 DUP3 ADD MLOAD PUSH2 0xF63 PUSH1 0x20 DUP6 ADD DUP3 PUSH2 0xD7B JUMP JUMPDEST POP PUSH1 0x40 DUP3 ADD MLOAD PUSH2 0xF76 PUSH1 0x40 DUP6 ADD DUP3 PUSH2 0xD7B JUMP JUMPDEST POP PUSH1 0x60 DUP3 ADD MLOAD PUSH2 0xF89 PUSH1 0x60 DUP6 ADD DUP3 PUSH2 0xD7B JUMP JUMPDEST POP POP POP POP JUMP JUMPDEST PUSH2 0xF98 DUP2 PUSH2 0xE35 JUMP JUMPDEST DUP3 MSTORE POP POP JUMP JUMPDEST PUSH2 0xFA7 DUP2 PUSH2 0xE7D JUMP JUMPDEST DUP3 MSTORE POP POP JUMP JUMPDEST PUSH2 0x160 DUP3 ADD PUSH1 0x0 DUP3 ADD MLOAD PUSH2 0xFC4 PUSH1 0x0 DUP6 ADD DUP3 PUSH2 0xD7B JUMP JUMPDEST POP PUSH1 0x20 DUP3 ADD MLOAD PUSH2 0xFD7 PUSH1 0x20 DUP6 ADD DUP3 PUSH2 0xD7B JUMP JUMPDEST POP PUSH1 0x40 DUP3 ADD MLOAD PUSH2 0xFEA PUSH1 0x40 DUP6 ADD DUP3 PUSH2 0xF3A JUMP JUMPDEST POP PUSH1 0x60 DUP3 ADD MLOAD PUSH2 0xFFD PUSH1 0xC0 DUP6 ADD DUP3 PUSH2 0xD7B JUMP JUMPDEST POP PUSH1 0x80 DUP3 ADD MLOAD PUSH2 0x1010 PUSH1 0xE0 DUP6 ADD DUP3 PUSH2 0xF8F JUMP JUMPDEST POP PUSH1 0xA0 DUP3 ADD MLOAD PUSH2 0x1024 PUSH2 0x100 DUP6 ADD DUP3 PUSH2 0xF9E JUMP JUMPDEST POP PUSH1 0xC0 DUP3 ADD MLOAD PUSH2 0x1038 PUSH2 0x120 DUP6 ADD DUP3 PUSH2 0xD7B JUMP JUMPDEST POP PUSH1 0xE0 DUP3 ADD MLOAD PUSH2 0x104C PUSH2 0x140 DUP6 ADD DUP3 PUSH2 0xD7B JUMP JUMPDEST POP POP POP POP JUMP JUMPDEST PUSH1 0x0 PUSH2 0x160 DUP3 ADD SWAP1 POP PUSH2 0x1068 PUSH1 0x0 DUP4 ADD DUP5 PUSH2 0xFAD JUMP JUMPDEST SWAP3 SWAP2 POP POP JUMP JUMPDEST PUSH1 0x6 DUP2 LT PUSH2 0x107B JUMPI PUSH1 0x0 DUP1 REVERT JUMPDEST POP JUMP JUMPDEST PUSH1 0x0 DUP2 CALLDATALOAD SWAP1 POP PUSH2 0x108D DUP2 PUSH2 0x106E JUMP JUMPDEST SWAP3 SWAP2 POP POP JUMP JUMPDEST PUSH1 0x0 DUP1 PUSH1 0x40 DUP4 DUP6 SUB SLT ISZERO PUSH2 0x10AA JUMPI PUSH2 0x10A9 PUSH2 0xBB2 JUMP JUMPDEST JUMPDEST PUSH1 0x0 PUSH2 0x10B8 DUP6 DUP3 DUP7 ADD PUSH2 0x107E JUMP JUMPDEST SWAP3 POP POP PUSH1 0x20 PUSH2 0x10C9 DUP6 DUP3 DUP7 ADD PUSH2 0xBD8 JUMP JUMPDEST SWAP2 POP POP SWAP3 POP SWAP3 SWAP1 POP JUMP JUMPDEST PUSH1 0x0 DUP1 PUSH1 0x0 DUP1 PUSH1 0x80 DUP6 DUP8 SUB SLT ISZERO PUSH2 0x10ED JUMPI PUSH2 0x10EC PUSH2 0xBB2 JUMP JUMPDEST JUMPDEST PUSH1 0x0 PUSH2 0x10FB DUP8 DUP3 DUP9 ADD PUSH2 0xBD8 JUMP JUMPDEST SWAP5 POP POP PUSH1 0x20 PUSH2 0x110C DUP8 DUP3 DUP9 ADD PUSH2 0xBD8 JUMP JUMPDEST SWAP4 POP POP PUSH1 0x40 PUSH2 0x111D DUP8 DUP3 DUP9 ADD PUSH2 0xBD8 JUMP JUMPDEST SWAP3 POP POP PUSH1 0x60 PUSH2 0x112E DUP8 DUP3 DUP9 ADD PUSH2 0xBD8 JUMP JUMPDEST SWAP2 POP POP SWAP3 SWAP6 SWAP2 SWAP5 POP SWAP3 POP JUMP JUMPDEST PUSH1 0x0 PUSH20 0xFFFFFFFFFFFFFFFFFFFFFFFFFFFFFFFFFFFFFFFF DUP3 AND SWAP1 POP SWAP2 SWAP1 POP JUMP JUMPDEST PUSH1 0x0 PUSH2 0x1165 DUP3 PUSH2 0x113A JUMP JUMPDEST SWAP1 POP SWAP2 SWAP1 POP JUMP JUMPDEST PUSH2 0x1175 DUP2 PUSH2 0x115A JUMP JUMPDEST DUP2 EQ PUSH2 0x1180 JUMPI PUSH1 0x0 DUP1 REVERT JUMPDEST POP JUMP JUMPDEST PUSH1 0x0 DUP2 MLOAD SWAP1 POP PUSH2 0x1192 DUP2 PUSH2 0x116C JUMP JUMPDEST SWAP3 SWAP2 POP POP JUMP JUMPDEST PUSH1 0x0 PUSH1 0x20 DUP3 DUP5 SUB SLT ISZERO PUSH2 0x11AE JUMPI PUSH2 0x11AD PUSH2 0xBB2 JUMP JUMPDEST JUMPDEST PUSH1 0x0 PUSH2 0x11BC DUP5 DUP3 DUP6 ADD PUSH2 0x1183 JUMP JUMPDEST SWAP2 POP POP SWAP3 SWAP2 POP POP JUMP JUMPDEST PUSH1 0x0 DUP3 DUP3 MSTORE PUSH1 0x20 DUP3 ADD SWAP1 POP SWAP3 SWAP2 POP POP JUMP JUMPDEST PUSH32 0x302E303120455448206973206E656564656420746F20696E697469616C697365 PUSH1 0x0 DUP3 ADD MSTORE PUSH32 0x2061206E657720696E737572616E636500000000000000000000000000000000 PUSH1 0x20 DUP3 ADD MSTORE POP JUMP JUMPDEST PUSH1 0x0 PUSH2 0x1232 PUSH1 0x30 DUP4 PUSH2 0x11C5 JUMP JUMPDEST SWAP2 POP PUSH2 0x123D DUP3 PUSH2 0x11D6 JUMP JUMPDEST PUSH1 0x40 DUP3 ADD SWAP1 POP SWAP2 SWAP1 POP JUMP JUMPDEST PUSH1 0x0 PUSH1 0x20 DUP3 ADD SWAP1 POP DUP2 DUP2 SUB PUSH1 0x0 DUP4 ADD MSTORE PUSH2 0x1261 DUP2 PUSH2 0x1225 JUMP JUMPDEST SWAP1 POP SWAP2 SWAP1 POP JUMP JUMPDEST PUSH32 0x4E487B7100000000000000000000000000000000000000000000000000000000 PUSH1 0x0 MSTORE PUSH1 0x11 PUSH1 0x4 MSTORE PUSH1 0x24 PUSH1 0x0 REVERT JUMPDEST PUSH1 0x0 PUSH2 0x12A2 DUP3 PUSH2 0xBB7 JUMP JUMPDEST SWAP2 POP PUSH32 0xFFFFFFFFFFFFFFFFFFFFFFFFFFFFFFFFFFFFFFFFFFFFFFFFFFFFFFFFFFFFFFFF DUP3 SUB PUSH2 0x12D4 JUMPI PUSH2 0x12D3 PUSH2 0x1268 JUMP JUMPDEST JUMPDEST PUSH1 0x1 DUP3 ADD SWAP1 POP SWAP2 SWAP1 POP JUMP JUMPDEST PUSH32 0x45787069727920646174652068617320616C7265616479206265656E20696E69 PUSH1 0x0 DUP3 ADD MSTORE PUSH32 0x7469616C69736564000000000000000000000000000000000000000000000000 PUSH1 0x20 DUP3 ADD MSTORE POP JUMP JUMPDEST PUSH1 0x0 PUSH2 0x133B PUSH1 0x28 DUP4 PUSH2 0x11C5 JUMP JUMPDEST SWAP2 POP PUSH2 0x1346 DUP3 PUSH2 0x12DF JUMP JUMPDEST PUSH1 0x40 DUP3 ADD SWAP1 POP SWAP2 SWAP1 POP JUMP JUMPDEST PUSH1 0x0 PUSH1 0x20 DUP3 ADD SWAP1 POP DUP2 DUP2 SUB PUSH1 0x0 DUP4 ADD MSTORE PUSH2 0x136A DUP2 PUSH2 0x132E JUMP JUMPDEST SWAP1 POP SWAP2 SWAP1 POP JUMP INVALID LOG2 PUSH5 0x6970667358 0x22 SLT KECCAK256 0xD7 LOG4 BYTE 0xDA 0x26 PUSH17 0xD995F26B61F8DC2E1C65CCD62DD836A29A 0xF6 0xC0 SHL XOR PUSH7 0xEB43911364736F PUSH13 0x63430008130033000000000000 "
		},
		"gasEstimates": {
			"creation": {
				"codeDepositCost": "1006200",
				"executionCost": "infinite",
				"totalCost": "infinite"
			},
			"external": {
				"autoTrigger()": "254",
				"createInsurance(uint256,uint256,uint256,uint8,uint256,uint256)": "infinite",
				"createStakeholderInfo(uint256,uint256,uint256,uint256)": "infinite",
				"getBeneficiary(uint256)": "infinite",
				"getExpiryDate(uint256)": "infinite",
				"getInsurance(uint256)": "infinite",
				"getInsuranceCompany(uint256)": "infinite",
				"getInsuredAmount(uint256)": "infinite",
				"getIssueDate(uint256)": "infinite",
				"getPolicyOwner(uint256)": "infinite",
				"getStatus(uint256)": "3056",
				"insurances(uint256)": "infinite",
				"numInsurance()": "2452",
				"numStakeholder()": "2496",
				"setBeneficiary(uint256,uint256)": "infinite",
				"setExpiryDate(uint256,uint256)": "infinite",
				"stakeholderinfos(uint256)": "infinite",
				"updateStatus(uint8,uint256)": "25046"
			}
		},
		"methodIdentifiers": {
			"autoTrigger()": "f558eb05",
			"createInsurance(uint256,uint256,uint256,uint8,uint256,uint256)": "2dd0b640",
			"createStakeholderInfo(uint256,uint256,uint256,uint256)": "e0e5c324",
			"getBeneficiary(uint256)": "302df083",
			"getExpiryDate(uint256)": "6833f200",
			"getInsurance(uint256)": "85fae602",
			"getInsuranceCompany(uint256)": "e22900ff",
			"getInsuredAmount(uint256)": "5998f775",
			"getIssueDate(uint256)": "0386660a",
			"getPolicyOwner(uint256)": "ca009021",
			"getStatus(uint256)": "5c622a0e",
			"insurances(uint256)": "59fb49f9",
			"numInsurance()": "703849d9",
			"numStakeholder()": "8edd5297",
			"setBeneficiary(uint256,uint256)": "1a1fc3a0",
			"setExpiryDate(uint256,uint256)": "d91f2a0b",
			"stakeholderinfos(uint256)": "3fa3ab26",
			"updateStatus(uint8,uint256)": "b7ff5dae"
		}
	},
	"abi": [
		{
			"inputs": [
				{
					"internalType": "contract Stakeholder",
					"name": "stakeholderAddress",
					"type": "address"
				},
				{
					"internalType": "contract InsuranceCompany",
					"name": "insuranceCompanyAddress",
					"type": "address"
				}
			],
			"stateMutability": "nonpayable",
			"type": "constructor"
		},
		{
			"inputs": [],
			"name": "autoTrigger",
			"outputs": [],
			"stateMutability": "nonpayable",
			"type": "function"
		},
		{
			"inputs": [
				{
					"internalType": "uint256",
					"name": "stakeholderInfoId",
					"type": "uint256"
				},
				{
					"internalType": "uint256",
					"name": "companyId",
					"type": "uint256"
				},
				{
					"internalType": "uint256",
					"name": "insuredAmount",
					"type": "uint256"
				},
				{
					"internalType": "enum Insurance.insuranceType",
					"name": "insType",
					"type": "uint8"
				},
				{
					"internalType": "uint256",
					"name": "issueDateYYYYMMDD",
					"type": "uint256"
				},
				{
					"internalType": "uint256",
					"name": "expiryDateYYYYMMDD",
					"type": "uint256"
				}
			],
			"name": "createInsurance",
			"outputs": [
				{
					"internalType": "uint256",
					"name": "",
					"type": "uint256"
				}
			],
			"stateMutability": "payable",
			"type": "function"
		},
		{
			"inputs": [
				{
					"internalType": "uint256",
					"name": "policyOwner",
					"type": "uint256"
				},
				{
					"internalType": "uint256",
					"name": "beneficiary",
					"type": "uint256"
				},
				{
					"internalType": "uint256",
					"name": "lifeAssured",
					"type": "uint256"
				},
				{
					"internalType": "uint256",
					"name": "payingAccount",
					"type": "uint256"
				}
			],
			"name": "createStakeholderInfo",
			"outputs": [
				{
					"internalType": "uint256",
					"name": "",
					"type": "uint256"
				}
			],
			"stateMutability": "nonpayable",
			"type": "function"
		},
		{
			"inputs": [
				{
					"internalType": "uint256",
					"name": "insuranceId",
					"type": "uint256"
				}
			],
			"name": "getBeneficiary",
			"outputs": [
				{
					"internalType": "uint256",
					"name": "",
					"type": "uint256"
				}
			],
			"stateMutability": "view",
			"type": "function"
		},
		{
			"inputs": [
				{
					"internalType": "uint256",
					"name": "insuranceId",
					"type": "uint256"
				}
			],
			"name": "getExpiryDate",
			"outputs": [
				{
					"internalType": "uint256",
					"name": "",
					"type": "uint256"
				}
			],
			"stateMutability": "view",
			"type": "function"
		},
		{
			"inputs": [
				{
					"internalType": "uint256",
					"name": "insuranceId",
					"type": "uint256"
				}
			],
			"name": "getInsurance",
			"outputs": [
				{
					"components": [
						{
							"internalType": "uint256",
							"name": "ID",
							"type": "uint256"
						},
						{
							"internalType": "uint256",
							"name": "companyId",
							"type": "uint256"
						},
						{
							"components": [
								{
									"internalType": "uint256",
									"name": "policyOwner",
									"type": "uint256"
								},
								{
									"internalType": "uint256",
									"name": "beneficiary",
									"type": "uint256"
								},
								{
									"internalType": "uint256",
									"name": "lifeAssured",
									"type": "uint256"
								},
								{
									"internalType": "uint256",
									"name": "payingAccount",
									"type": "uint256"
								}
							],
							"internalType": "struct Insurance.stakeholderInfo",
							"name": "stakeholders",
							"type": "tuple"
						},
						{
							"internalType": "uint256",
							"name": "insuredAmount",
							"type": "uint256"
						},
						{
							"internalType": "enum Insurance.insuranceType",
							"name": "insType",
							"type": "uint8"
						},
						{
							"internalType": "enum Insurance.status",
							"name": "status",
							"type": "uint8"
						},
						{
							"internalType": "uint256",
							"name": "issueDate",
							"type": "uint256"
						},
						{
							"internalType": "uint256",
							"name": "expiryDate",
							"type": "uint256"
						}
					],
					"internalType": "struct Insurance.insurance",
					"name": "",
					"type": "tuple"
				}
			],
			"stateMutability": "view",
			"type": "function"
		},
		{
			"inputs": [
				{
					"internalType": "uint256",
					"name": "insuranceId",
					"type": "uint256"
				}
			],
			"name": "getInsuranceCompany",
			"outputs": [
				{
					"internalType": "uint256",
					"name": "",
					"type": "uint256"
				}
			],
			"stateMutability": "view",
			"type": "function"
		},
		{
			"inputs": [
				{
					"internalType": "uint256",
					"name": "insuranceId",
					"type": "uint256"
				}
			],
			"name": "getInsuredAmount",
			"outputs": [
				{
					"internalType": "uint256",
					"name": "",
					"type": "uint256"
				}
			],
			"stateMutability": "view",
			"type": "function"
		},
		{
			"inputs": [
				{
					"internalType": "uint256",
					"name": "insuranceId",
					"type": "uint256"
				}
			],
			"name": "getIssueDate",
			"outputs": [
				{
					"internalType": "uint256",
					"name": "",
					"type": "uint256"
				}
			],
			"stateMutability": "view",
			"type": "function"
		},
		{
			"inputs": [
				{
					"internalType": "uint256",
					"name": "stakeholderinfoId",
					"type": "uint256"
				}
			],
			"name": "getPolicyOwner",
			"outputs": [
				{
					"internalType": "uint256",
					"name": "",
					"type": "uint256"
				}
			],
			"stateMutability": "view",
			"type": "function"
		},
		{
			"inputs": [
				{
					"internalType": "uint256",
					"name": "insuranceId",
					"type": "uint256"
				}
			],
			"name": "getStatus",
			"outputs": [
				{
					"internalType": "enum Insurance.status",
					"name": "",
					"type": "uint8"
				}
			],
			"stateMutability": "view",
			"type": "function"
		},
		{
			"inputs": [
				{
					"internalType": "uint256",
					"name": "",
					"type": "uint256"
				}
			],
			"name": "insurances",
			"outputs": [
				{
					"internalType": "uint256",
					"name": "ID",
					"type": "uint256"
				},
				{
					"internalType": "uint256",
					"name": "companyId",
					"type": "uint256"
				},
				{
					"components": [
						{
							"internalType": "uint256",
							"name": "policyOwner",
							"type": "uint256"
						},
						{
							"internalType": "uint256",
							"name": "beneficiary",
							"type": "uint256"
						},
						{
							"internalType": "uint256",
							"name": "lifeAssured",
							"type": "uint256"
						},
						{
							"internalType": "uint256",
							"name": "payingAccount",
							"type": "uint256"
						}
					],
					"internalType": "struct Insurance.stakeholderInfo",
					"name": "stakeholders",
					"type": "tuple"
				},
				{
					"internalType": "uint256",
					"name": "insuredAmount",
					"type": "uint256"
				},
				{
					"internalType": "enum Insurance.insuranceType",
					"name": "insType",
					"type": "uint8"
				},
				{
					"internalType": "enum Insurance.status",
					"name": "status",
					"type": "uint8"
				},
				{
					"internalType": "uint256",
					"name": "issueDate",
					"type": "uint256"
				},
				{
					"internalType": "uint256",
					"name": "expiryDate",
					"type": "uint256"
				}
			],
			"stateMutability": "view",
			"type": "function"
		},
		{
			"inputs": [],
			"name": "numInsurance",
			"outputs": [
				{
					"internalType": "uint256",
					"name": "",
					"type": "uint256"
				}
			],
			"stateMutability": "view",
			"type": "function"
		},
		{
			"inputs": [],
			"name": "numStakeholder",
			"outputs": [
				{
					"internalType": "uint256",
					"name": "",
					"type": "uint256"
				}
			],
			"stateMutability": "view",
			"type": "function"
		},
		{
			"inputs": [
				{
					"internalType": "uint256",
					"name": "newBeneficiary",
					"type": "uint256"
				},
				{
					"internalType": "uint256",
					"name": "insuranceId",
					"type": "uint256"
				}
			],
			"name": "setBeneficiary",
			"outputs": [],
			"stateMutability": "nonpayable",
			"type": "function"
		},
		{
			"inputs": [
				{
					"internalType": "uint256",
					"name": "date",
					"type": "uint256"
				},
				{
					"internalType": "uint256",
					"name": "insuranceId",
					"type": "uint256"
				}
			],
			"name": "setExpiryDate",
			"outputs": [],
			"stateMutability": "nonpayable",
			"type": "function"
		},
		{
			"inputs": [
				{
					"internalType": "uint256",
					"name": "",
					"type": "uint256"
				}
			],
			"name": "stakeholderinfos",
			"outputs": [
				{
					"internalType": "uint256",
					"name": "policyOwner",
					"type": "uint256"
				},
				{
					"internalType": "uint256",
					"name": "beneficiary",
					"type": "uint256"
				},
				{
					"internalType": "uint256",
					"name": "lifeAssured",
					"type": "uint256"
				},
				{
					"internalType": "uint256",
					"name": "payingAccount",
					"type": "uint256"
				}
			],
			"stateMutability": "view",
			"type": "function"
		},
		{
			"inputs": [
				{
					"internalType": "enum Insurance.status",
					"name": "state",
					"type": "uint8"
				},
				{
					"internalType": "uint256",
					"name": "insuranceId",
					"type": "uint256"
				}
			],
			"name": "updateStatus",
			"outputs": [],
			"stateMutability": "nonpayable",
			"type": "function"
		}
	]
}