{
	"data": {
		"bytecode": {
			"linkReferences": {},
			"object": "6080604052600080556000600255600060065560006007553480156200002457600080fd5b50604051620056613803806200566183398181016040528101906200004a919062000197565b81600560006101000a81548173ffffffffffffffffffffffffffffffffffffffff021916908373ffffffffffffffffffffffffffffffffffffffff16021790555080600460006101000a81548173ffffffffffffffffffffffffffffffffffffffff021916908373ffffffffffffffffffffffffffffffffffffffff1602179055505050620001de565b600080fd5b600073ffffffffffffffffffffffffffffffffffffffff82169050919050565b60006200010682620000d9565b9050919050565b60006200011a82620000f9565b9050919050565b6200012c816200010d565b81146200013857600080fd5b50565b6000815190506200014c8162000121565b92915050565b60006200015f82620000f9565b9050919050565b620001718162000152565b81146200017d57600080fd5b50565b600081519050620001918162000166565b92915050565b60008060408385031215620001b157620001b0620000d4565b5b6000620001c1858286016200013b565b9250506020620001d48582860162000180565b9150509250929050565b61547380620001ee6000396000f3fe6080604052600436106102035760003560e01c80636833f20011610118578063c41a360a116100a0578063dd9937f71161006f578063dd9937f71461085e578063e02bb9af14610887578063e0e5c324146108b0578063e22900ff146108ed578063f558eb051461092a57610203565b8063c41a360a1461077e578063ca009021146107bb578063d91f2a0b146107f8578063da304e4d1461082157610203565b806385fae602116100e757806385fae602146106995780638edd5297146106d65780639f14d7c214610701578063b7ff5dae1461072c578063bfcb6cfb1461075557610203565b80636833f200146105cb5780636b8ff57414610608578063700d9ef714610645578063703849d91461066e57610203565b80633d1894af1161019b5780635998f7751161016a5780635998f775146104a357806359fb49f9146104e05780635c622a0e146105255780635d9967011461056257806362584ffe146105a057610203565b80633d1894af146103d45780633fa3ab26146103fd578063561c865b1461043d578063575c28871461046657610203565b806323192ed4116101d757806323192ed4146102db5780632813d19d146103195780632dd0b6401461035a578063302df0831461039757610203565b8062544194146102085780630386660a146102385780631847c06b146102755780631a1fc3a0146102b2575b600080fd5b610222600480360381019061021d9190613816565b610941565b60405161022f9190613878565b60405180910390f35b34801561024457600080fd5b5061025f600480360381019061025a91906138bf565b610a82565b60405161026c9190613878565b60405180910390f35b34801561028157600080fd5b5061029c6004803603810190610297919061394a565b610aa2565b6040516102a99190613878565b60405180910390f35b3480156102be57600080fd5b506102d960048036038101906102d49190613977565b610aba565b005b3480156102e757600080fd5b5061030260048036038101906102fd91906139b7565b610adc565b604051610310929190613a71565b60405180910390f35b34801561032557600080fd5b50610340600480360381019061033b91906138bf565b610ba7565b604051610351959493929190613b28565b60405180910390f35b34801561036657600080fd5b50610381600480360381019061037c9190613ba7565b610c85565b60405161038e9190613878565b60405180910390f35b3480156103a357600080fd5b506103be60048036038101906103b991906138bf565b611033565b6040516103cb9190613878565b60405180910390f35b3480156103e057600080fd5b506103fb60048036038101906103f69190613977565b611056565b005b34801561040957600080fd5b50610424600480360381019061041f91906138bf565b6114ac565b6040516104349493929190613c34565b60405180910390f35b34801561044957600080fd5b50610464600480360381019061045f9190613c79565b6114dc565b005b34801561047257600080fd5b5061048d600480360381019061048891906138bf565b6116fa565b60405161049a9190613878565b60405180910390f35b3480156104af57600080fd5b506104ca60048036038101906104c591906138bf565b61173b565b6040516104d79190613878565b60405180910390f35b3480156104ec57600080fd5b50610507600480360381019061050291906138bf565b61175b565b60405161051c99989796959493929190613def565b60405180910390f35b34801561053157600080fd5b5061054c600480360381019061054791906138bf565b6117f5565b6040516105599190613e7f565b60405180910390f35b34801561056e57600080fd5b5061058960048036038101906105849190613977565b611822565b604051610597929190613ee2565b60405180910390f35b3480156105ac57600080fd5b506105b5611b99565b6040516105c29190613878565b60405180910390f35b3480156105d757600080fd5b506105f260048036038101906105ed91906138bf565b611ba3565b6040516105ff9190613878565b60405180910390f35b34801561061457600080fd5b5061062f600480360381019061062a91906138bf565b611bc3565b60405161063c9190613f0b565b60405180910390f35b34801561065157600080fd5b5061066c60048036038101906106679190613fce565b611cbf565b005b34801561067a57600080fd5b50610683611da5565b6040516106909190613878565b60405180910390f35b3480156106a557600080fd5b506106c060048036038101906106bb91906138bf565b611dab565b6040516106cd91906141f1565b60405180910390f35b3480156106e257600080fd5b506106eb611ec7565b6040516106f89190613878565b60405180910390f35b34801561070d57600080fd5b50610716611ecd565b6040516107239190613878565b60405180910390f35b34801561073857600080fd5b50610753600480360381019061074e9190614232565b611f14565b005b34801561076157600080fd5b5061077c60048036038101906107779190613c79565b611f56565b005b34801561078a57600080fd5b506107a560048036038101906107a091906138bf565b6121a6565b6040516107b29190614272565b60405180910390f35b3480156107c757600080fd5b506107e260048036038101906107dd91906138bf565b61223a565b6040516107ef9190613878565b60405180910390f35b34801561080457600080fd5b5061081f600480360381019061081a9190613977565b61225a565b005b34801561082d57600080fd5b50610848600480360381019061084391906138bf565b6122d2565b6040516108559190613878565b60405180910390f35b34801561086a57600080fd5b50610885600480360381019061088091906138bf565b612346565b005b34801561089357600080fd5b506108ae60048036038101906108a99190613c79565b612914565b005b3480156108bc57600080fd5b506108d760048036038101906108d2919061428d565b612d10565b6040516108e49190613878565b60405180910390f35b3480156108f957600080fd5b50610914600480360381019061090f91906138bf565b612df6565b6040516109219190613878565b60405180910390f35b34801561093657600080fd5b5061093f612e16565b005b6000662386f26fc10000341161098c576040517f08c379a000000000000000000000000000000000000000000000000000000000815260040161098390614366565b60405180910390fd5b6007600081548092919061099f906143b5565b919050555060006008600060075481526020019081526020016000209050600754816000018190555060008160010181905550828160020190816109e39190614609565b50338160030160006101000a81548173ffffffffffffffffffffffffffffffffffffffff021916908373ffffffffffffffffffffffffffffffffffffffff16021790555060008160040181905550600754600960003373ffffffffffffffffffffffffffffffffffffffff1673ffffffffffffffffffffffffffffffffffffffff16815260200190815260200160002081905550600754915050919050565b600060016000838152602001908152602001600020600901549050919050565b60096020528060005260406000206000915090505481565b8160016000838152602001908152602001600020600201600101819055505050565b600080600060086000878152602001908152602001600020600601600181600181540180825580915050039060005260206000209060060201905060066000815480929190610b2a906143b5565b9190505550600654816000018190555086816001018190555084816002019081610b549190614609565b5083816003019081610b669190614609565b5060028160040160006101000a81548160ff02191690836002811115610b8f57610b8e613d30565b5b02179055506001600654925092505094509492505050565b6008602052806000526040600020600091509050806000015490806001015490806002018054610bd69061442c565b80601f0160208091040260200160405190810160405280929190818152602001828054610c029061442c565b8015610c4f5780601f10610c2457610100808354040283529160200191610c4f565b820191906000526020600020905b815481529060010190602001808311610c3257829003601f168201915b5050505050908060030160009054906101000a900473ffffffffffffffffffffffffffffffffffffffff16908060040154905085565b6000856007548111158015610c9b575060008114155b610cda576040517f08c379a0000000000000000000000000000000000000000000000000000000008152600401610cd190614727565b60405180910390fd5b863373ffffffffffffffffffffffffffffffffffffffff166008600083815260200190815260200160002060030160009054906101000a900473ffffffffffffffffffffffffffffffffffffffff1673ffffffffffffffffffffffffffffffffffffffff1614610d7f576040517f08c379a0000000000000000000000000000000000000000000000000000000008152600401610d7690614793565b60405180910390fd5b6001600460009054906101000a900473ffffffffffffffffffffffffffffffffffffffff1673ffffffffffffffffffffffffffffffffffffffff1663b9b7650a336040518263ffffffff1660e01b8152600401610ddc9190614272565b602060405180830381865afa158015610df9573d6000803e3d6000fd5b505050506040513d601f19601f82011682018060405250810190610e1d91906147c8565b11610e5d576040517f08c379a0000000000000000000000000000000000000000000000000000000008152600401610e5490614867565b60405180910390fd5b629896808511610ea2576040517f08c379a0000000000000000000000000000000000000000000000000000000008152600401610e99906148d3565b60405180910390fd5b629896808411610ee7576040517f08c379a0000000000000000000000000000000000000000000000000000000008152600401610ede9061493f565b60405180910390fd5b838510610f29576040517f08c379a0000000000000000000000000000000000000000000000000000000008152600401610f209061493f565b60405180910390fd5b600080815480929190610f3b906143b5565b9190505550600060016000805481526020019081526020016000209050600360008b8152602001908152602001600020816002016000820154816000015560018201548160010155600282015481600201556003820154816003015590505088816001018190555087816006018190555060008160070181905550868160080160006101000a81548160ff02191690836001811115610fdd57610fdc613d30565b5b021790555060008160080160016101000a81548160ff0219169083600581111561100a57611009613d30565b5b02179055508581600901819055508481600a018190555060005493505050509695505050505050565b600060016000838152602001908152602001600020600201600101549050919050565b80600754811115801561106a575060008114155b6110a9576040517f08c379a00000000000000000000000000000000000000000000000000000000081526004016110a090614727565b60405180910390fd5b813373ffffffffffffffffffffffffffffffffffffffff166008600083815260200190815260200160002060030160009054906101000a900473ffffffffffffffffffffffffffffffffffffffff1673ffffffffffffffffffffffffffffffffffffffff161461114e576040517f08c379a000000000000000000000000000000000000000000000000000000000815260040161114590614793565b60405180910390fd5b60008403611191576040517f08c379a0000000000000000000000000000000000000000000000000000000008152600401611188906149ab565b60405180910390fd5b60008060086000868152602001908152602001600020600601805480602002602001604051908101604052809291908181526020016000905b8282101561137957838290600052602060002090600602016040518060c001604052908160008201548152602001600182015481526020016002820180546112119061442c565b80601f016020809104026020016040519081016040528092919081815260200182805461123d9061442c565b801561128a5780601f1061125f5761010080835404028352916020019161128a565b820191906000526020600020905b81548152906001019060200180831161126d57829003601f168201915b505050505081526020016003820180546112a39061442c565b80601f01602080910402602001604051908101604052809291908181526020018280546112cf9061442c565b801561131c5780601f106112f15761010080835404028352916020019161131c565b820191906000526020600020905b8154815290600101906020018083116112ff57829003601f168201915b505050505081526020016004820160009054906101000a900460ff16600281111561134a57611349613d30565b5b600281111561135c5761135b613d30565b5b8152602001600582015481525050815260200190600101906111ca565b5050505090506000815190506000805b828110156113d157888482815181106113a5576113a46149cb565b5b602002602001015160000151036113be57809450600191505b80806113c9906143b5565b915050611389565b506001151581151514611419576040517f08c379a000000000000000000000000000000000000000000000000000000000815260040161141090614a46565b60405180910390fd5b80156114a2576001838581518110611434576114336149cb565b5b602002602001015160800190600281111561145257611451613d30565b5b9081600281111561146657611465613d30565b5b815250507f8d7fed20d7d8248d56d7367c40d71b598aadef2c219eeb23c765211306d8cce8886040516114999190613878565b60405180910390a15b5050505050505050565b60036020528060005260406000206000915090508060000154908060010154908060020154908060030154905084565b828180600160008481526020019081526020016000206002016000015414611539576040517f08c379a000000000000000000000000000000000000000000000000000000000815260040161153090614ab2565b60405180910390fd5b6000600860006001600089815260200190815260200160002060010154815260200190815260200160002060030160009054906101000a900473ffffffffffffffffffffffffffffffffffffffff169050600460009054906101000a900473ffffffffffffffffffffffffffffffffffffffff1673ffffffffffffffffffffffffffffffffffffffff16633456ea303383886040518463ffffffff1660e01b81526004016115e993929190614ad2565b600060405180830381600087803b15801561160357600080fd5b505af1158015611617573d6000803e3d6000fd5b50505050846001600088815260200190815260200160002060070160008282546116419190614b09565b9250508190555060016000878152602001908152602001600020600601546001600088815260200190815260200160002060070154036116bb5760036001600088815260200190815260200160002060080160016101000a81548160ff021916908360058111156116b5576116b4613d30565b5b02179055505b7f93e71af69425ab98903353cc1f5235add61a8f2f0875df40104a9161ecfca332866040516116ea9190613878565b60405180910390a1505050505050565b6000600160008381526020019081526020016000206007015460016000848152602001908152602001600020600601546117349190614b3d565b9050919050565b600060016000838152602001908152602001600020600601549050919050565b600160205280600052604060002060009150905080600001549080600101549080600201604051806080016040529081600082015481526020016001820154815260200160028201548152602001600382015481525050908060060154908060070154908060080160009054906101000a900460ff16908060080160019054906101000a900460ff169080600901549080600a0154905089565b60006001600083815260200190815260200160002060080160019054906101000a900460ff169050919050565b60008060008303611868576040517f08c379a000000000000000000000000000000000000000000000000000000000815260040161185f90614a46565b60405180910390fd5b60008060086000878152602001908152602001600020600601805480602002602001604051908101604052809291908181526020016000905b82821015611a5057838290600052602060002090600602016040518060c001604052908160008201548152602001600182015481526020016002820180546118e89061442c565b80601f01602080910402602001604051908101604052809291908181526020018280546119149061442c565b80156119615780601f1061193657610100808354040283529160200191611961565b820191906000526020600020905b81548152906001019060200180831161194457829003601f168201915b5050505050815260200160038201805461197a9061442c565b80601f01602080910402602001604051908101604052809291908181526020018280546119a69061442c565b80156119f35780601f106119c8576101008083540402835291602001916119f3565b820191906000526020600020905b8154815290600101906020018083116119d657829003601f168201915b505050505081526020016004820160009054906101000a900460ff166002811115611a2157611a20613d30565b5b6002811115611a3357611a32613d30565b5b8152602001600582015481525050815260200190600101906118a1565b5050505090506000815190506000805b82811015611aa85787848281518110611a7c57611a7b6149cb565b5b60200260200101516000015103611a9557809450600191505b8080611aa0906143b5565b915050611a60565b506001151581151514611af0576040517f08c379a0000000000000000000000000000000000000000000000000000000008152600401611ae790614bbd565b60405180910390fd5b8015611b4c577f2341ebb88dfa6ce59e54bdde82e9746e5a27fcd12a0d5d5ca812f1d01f4102e2838581518110611b2a57611b296149cb565b5b602002602001015160800151604051611b439190614bdd565b60405180910390a15b828481518110611b5f57611b5e6149cb565b5b602002602001015160800151838581518110611b7e57611b7d6149cb565b5b602002602001015160a0015195509550505050509250929050565b6000600754905090565b600060016000838152602001908152602001600020600a01549050919050565b6060816007548111158015611bd9575060008114155b611c18576040517f08c379a0000000000000000000000000000000000000000000000000000000008152600401611c0f90614727565b60405180910390fd5b600860008481526020019081526020016000206002018054611c399061442c565b80601f0160208091040260200160405190810160405280929190818152602001828054611c659061442c565b8015611cb25780601f10611c8757610100808354040283529160200191611cb2565b820191906000526020600020905b815481529060010190602001808311611c9557829003601f168201915b5050505050915050919050565b868380600160008481526020019081526020016000206002016001015414611d1c576040517f08c379a0000000000000000000000000000000000000000000000000000000008152600401611d1390614c44565b60405180910390fd5b7f023f2fc8ada0c4baed4ee1e3ba4fe20927aeb0927885a97721dff7bf7de72a5489604051611d4b9190613878565b60405180910390a1611d618989888a8888612e18565b7f5865064e6acb4fff420dd41011f2a5680096a4c8d5d8b6cf9d358d6e71fbf1ac8988604051611d92929190614cb9565b60405180910390a1505050505050505050565b60005481565b611db361361e565b6001600083815260200190815260200160002060405180610120016040529081600082015481526020016001820154815260200160028201604051806080016040529081600082015481526020016001820154815260200160028201548152602001600382015481525050815260200160068201548152602001600782015481526020016008820160009054906101000a900460ff166001811115611e5b57611e5a613d30565b5b6001811115611e6d57611e6c613d30565b5b81526020016008820160019054906101000a900460ff166005811115611e9657611e95613d30565b5b6005811115611ea857611ea7613d30565b5b815260200160098201548152602001600a820154815250509050919050565b60025481565b6000600960003373ffffffffffffffffffffffffffffffffffffffff1673ffffffffffffffffffffffffffffffffffffffff16815260200190815260200160002054905090565b816001600083815260200190815260200160002060080160016101000a81548160ff02191690836005811115611f4d57611f4c613d30565b5b02179055505050565b816007548111158015611f6a575060008114155b611fa9576040517f08c379a0000000000000000000000000000000000000000000000000000000008152600401611fa090614727565b60405180910390fd5b838280600160008481526020019081526020016000206002016000015414612006576040517f08c379a0000000000000000000000000000000000000000000000000000000008152600401611ffd90614ab2565b60405180910390fd5b600180600088815260200190815260200160002060080160016101000a81548160ff0219169083600581111561203f5761203e613d30565b5b0217905550600160008781526020019081526020016000206008600087815260200190815260200160002060050160008881526020019081526020016000206000820154816000015560018201548160010155600282018160020160008201548160000155600182015481600101556002820154816002015560038201548160030155505060068201548160060155600782015481600701556008820160009054906101000a900460ff168160080160006101000a81548160ff021916908360018111156121105761210f613d30565b5b02179055506008820160019054906101000a900460ff168160080160016101000a81548160ff0219169083600581111561214d5761214c613d30565b5b021790555060098201548160090155600a82015481600a0155905050600860008681526020019081526020016000206004016000815480929190612190906143b5565b919050555061219e856134c9565b505050505050565b60008160075481111580156121bc575060008114155b6121fb576040517f08c379a00000000000000000000000000000000000000000000000000000000081526004016121f290614727565b60405180910390fd5b6008600084815260200190815260200160002060030160009054906101000a900473ffffffffffffffffffffffffffffffffffffffff16915050919050565b600060036000838152602001908152602001600020600001549050919050565b600060016000838152602001908152602001600020600a0154036122b3576040517f08c379a00000000000000000000000000000000000000000000000000000000081526004016122aa90614d5b565b60405180910390fd5b8160016000838152602001908152602001600020600a01819055505050565b60008160075481111580156122e8575060008114155b612327576040517f08c379a000000000000000000000000000000000000000000000000000000000815260040161231e90614727565b60405180910390fd5b6008600084815260200190815260200160002060010154915050919050565b80600754811115801561235a575060008114155b612399576040517f08c379a000000000000000000000000000000000000000000000000000000000815260040161239090614727565b60405180910390fd5b813373ffffffffffffffffffffffffffffffffffffffff166008600083815260200190815260200160002060030160009054906101000a900473ffffffffffffffffffffffffffffffffffffffff1673ffffffffffffffffffffffffffffffffffffffff161461243e576040517f08c379a000000000000000000000000000000000000000000000000000000000815260040161243590614793565b60405180910390fd5b600060086000858152602001908152602001600020600601805480602002602001604051908101604052809291908181526020016000905b8282101561262557838290600052602060002090600602016040518060c001604052908160008201548152602001600182015481526020016002820180546124bd9061442c565b80601f01602080910402602001604051908101604052809291908181526020018280546124e99061442c565b80156125365780601f1061250b57610100808354040283529160200191612536565b820191906000526020600020905b81548152906001019060200180831161251957829003601f168201915b5050505050815260200160038201805461254f9061442c565b80601f016020809104026020016040519081016040528092919081815260200182805461257b9061442c565b80156125c85780601f1061259d576101008083540402835291602001916125c8565b820191906000526020600020905b8154815290600101906020018083116125ab57829003601f168201915b505050505081526020016004820160009054906101000a900460ff1660028111156125f6576125f5613d30565b5b600281111561260857612607613d30565b5b815260200160058201548152505081526020019060010190612476565b5050505090506000815167ffffffffffffffff811115612648576126476136eb565b5b6040519080825280602002602001820160405280156126765781602001602082028036833780820191505090505b5090506000825167ffffffffffffffff811115612696576126956136eb565b5b6040519080825280602002602001820160405280156126c45781602001602082028036833780820191505090505b5090506000835167ffffffffffffffff8111156126e4576126e36136eb565b5b60405190808252806020026020018201604052801561271757816020015b60608152602001906001900390816127025790505b5090506000845167ffffffffffffffff811115612737576127366136eb565b5b60405190808252806020026020018201604052801561276a57816020015b60608152602001906001900390816127555790505b50905060005b85518110156128cc5760028081111561278c5761278b613d30565b5b86828151811061279f5761279e6149cb565b5b60200260200101516080015160028111156127bd576127bc613d30565b5b036128b9578581815181106127d5576127d46149cb565b5b6020026020010151600001518582815181106127f4576127f36149cb565b5b602002602001018181525050858181518110612813576128126149cb565b5b602002602001015160200151848281518110612832576128316149cb565b5b602002602001018181525050858181518110612851576128506149cb565b5b6020026020010151604001518382815181106128705761286f6149cb565b5b602002602001018190525085818151811061288e5761288d6149cb565b5b6020026020010151606001518282815181106128ad576128ac6149cb565b5b60200260200101819052505b80806128c4906143b5565b915050612770565b507ff8be3becfceddab2d6d90e42623d2779957d2177254cb3ee5fe6a9297233c8c2848484846040516129029493929190614f36565b60405180910390a15050505050505050565b6000600960003373ffffffffffffffffffffffffffffffffffffffff1673ffffffffffffffffffffffffffffffffffffffff1681526020019081526020016000205403612996576040517f08c379a000000000000000000000000000000000000000000000000000000000815260040161298d90614fe3565b60405180910390fd5b60008214612d0b5760008060086000868152602001908152602001600020600601805480602002602001604051908101604052809291908181526020016000905b82821015612b8657838290600052602060002090600602016040518060c00160405290816000820154815260200160018201548152602001600282018054612a1e9061442c565b80601f0160208091040260200160405190810160405280929190818152602001828054612a4a9061442c565b8015612a975780601f10612a6c57610100808354040283529160200191612a97565b820191906000526020600020905b815481529060010190602001808311612a7a57829003601f168201915b50505050508152602001600382018054612ab09061442c565b80601f0160208091040260200160405190810160405280929190818152602001828054612adc9061442c565b8015612b295780601f10612afe57610100808354040283529160200191612b29565b820191906000526020600020905b815481529060010190602001808311612b0c57829003601f168201915b505050505081526020016004820160009054906101000a900460ff166002811115612b5757612b56613d30565b5b6002811115612b6957612b68613d30565b5b8152602001600582015481525050815260200190600101906129d7565b5050505090506000815190506000805b82811015612bde5786848281518110612bb257612bb16149cb565b5b60200260200101516000015103612bcb57809450600191505b8080612bd6906143b5565b915050612b96565b506001151581151514612c26576040517f08c379a0000000000000000000000000000000000000000000000000000000008152600401612c1d90614a46565b60405180910390fd5b8015612d065784600860008981526020019081526020016000206006018581548110612c5557612c546149cb565b5b9060005260206000209060060201600501819055506000600860008981526020019081526020016000206006018581548110612c9457612c936149cb565b5b906000526020600020906006020160040160006101000a81548160ff02191690836002811115612cc757612cc6613d30565b5b02179055507f90218a18786a98dc15e72ee082c065814f7820762cfd88f194694627e1b7e4c68686604051612cfd929190615003565b60405180910390a15b505050505b505050565b600080600960003373ffffffffffffffffffffffffffffffffffffffff1673ffffffffffffffffffffffffffffffffffffffff1681526020019081526020016000205403612d93576040517f08c379a0000000000000000000000000000000000000000000000000000000008152600401612d8a90614fe3565b60405180910390fd5b60026000815480929190612da6906143b5565b919050555060006003600060025481526020019081526020016000209050858160000181905550848160010181905550838160020181905550828160030181905550600254915050949350505050565b600060016000838152602001908152602001600020600101549050919050565b565b60036005811115612e2c57612e2b613d30565b5b6001600088815260200190815260200160002060080160019054906101000a900460ff166005811115612e6257612e61613d30565b5b14612ea2576040517f08c379a0000000000000000000000000000000000000000000000000000000008152600401612e999061509e565b60405180910390fd5b426276a7006001600089815260200190815260200160002060090154612ec89190614b09565b1015612f09576040517f08c379a0000000000000000000000000000000000000000000000000000000008152600401612f009061510a565b60405180910390fd5b81604051602001612f1a9190615166565b60405160208183030381529060405280519060200120600560009054906101000a900473ffffffffffffffffffffffffffffffffffffffff1673ffffffffffffffffffffffffffffffffffffffff1663f29a6f44856040518263ffffffff1660e01b8152600401612f8b919061517d565b600060405180830381865afa158015612fa8573d6000803e3d6000fd5b505050506040513d6000823e3d601f19601f82011682018060405250810190612fd1919061520f565b604051602001612fe19190615166565b604051602081830303815290604052805190602001201480156130ef5750806040516020016130109190615166565b60405160208183030381529060405280519060200120600560009054906101000a900473ffffffffffffffffffffffffffffffffffffffff1673ffffffffffffffffffffffffffffffffffffffff1663d4c85366856040518263ffffffff1660e01b8152600401613081919061517d565b600060405180830381865afa15801561309e573d6000803e3d6000fd5b505050506040513d6000823e3d601f19601f820116820180604052508101906130c7919061520f565b6040516020016130d79190615166565b60405160208183030381529060405280519060200120145b61312e576040517f08c379a0000000000000000000000000000000000000000000000000000000008152600401613125906152a4565b60405180910390fd5b60028081111561314157613140613d30565b5b600560009054906101000a900473ffffffffffffffffffffffffffffffffffffffff1673ffffffffffffffffffffffffffffffffffffffff166329efb4a9856040518263ffffffff1660e01b815260040161319c919061517d565b602060405180830381865afa1580156131b9573d6000803e3d6000fd5b505050506040513d601f19601f820116820180604052508101906131dd91906152e9565b60028111156131ef576131ee613d30565b5b0361325d57426303c26700600160008981526020019081526020016000206009015461321b9190614b09565b101561325c576040517f08c379a000000000000000000000000000000000000000000000000000000000815260040161325390615388565b60405180910390fd5b5b600060016000888152602001908152602001600020600601549050600060086000888152602001908152602001600020905060008160030160009054906101000a900473ffffffffffffffffffffffffffffffffffffffff16905082600460009054906101000a900473ffffffffffffffffffffffffffffffffffffffff1673ffffffffffffffffffffffffffffffffffffffff1663b9b7650a836040518263ffffffff1660e01b81526004016133149190614272565b602060405180830381865afa158015613331573d6000803e3d6000fd5b505050506040513d601f19601f8201168201806040525081019061335591906147c8565b1015613396576040517f08c379a000000000000000000000000000000000000000000000000000000000815260040161338d906153f4565b60405180910390fd5b6000600160008b8152602001908152602001600020600201600101549050600460009054906101000a900473ffffffffffffffffffffffffffffffffffffffff1673ffffffffffffffffffffffffffffffffffffffff16633456ea308383876040518463ffffffff1660e01b815260040161341393929190614ad2565b600060405180830381600087803b15801561342d57600080fd5b505af1158015613441573d6000803e3d6000fd5b505050506004600160008c815260200190815260200160002060080160016101000a81548160ff0219169083600581111561347f5761347e613d30565b5b02179055507fa9059cbb2ab09eb219583f4a59a5d0623ade346d962bcd4e46b11da047c9049b81856040516134b5929190615414565b60405180910390a150505050505050505050565b8060075481111580156134dd575060008114155b61351c576040517f08c379a000000000000000000000000000000000000000000000000000000000815260040161351390614727565b60405180910390fd5b60006008600084815260200190815260200160002090506000816004015490506032811015801561354e575060c88111155b156135625760018260010181905550613618565b60c881118015613574575061015e8111155b156135885760028260010181905550613617565b61015e8111801561359b57506101c28111155b156135af5760038260010181905550613616565b6101c2811180156135c257506103208111155b156135d65760048260010181905550613615565b610320811180156135e957506107d08111155b156135fd5760058260010181905550613614565b6107d0811115613613576103e782600101819055505b5b5b5b5b5b50505050565b6040518061012001604052806000815260200160008152602001613640613694565b815260200160008152602001600081526020016000600181111561366757613666613d30565b5b8152602001600060058111156136805761367f613d30565b5b815260200160008152602001600081525090565b6040518060800160405280600081526020016000815260200160008152602001600081525090565b6000604051905090565b600080fd5b600080fd5b600080fd5b600080fd5b6000601f19601f8301169050919050565b7f4e487b7100000000000000000000000000000000000000000000000000000000600052604160045260246000fd5b613723826136da565b810181811067ffffffffffffffff82111715613742576137416136eb565b5b80604052505050565b60006137556136bc565b9050613761828261371a565b919050565b600067ffffffffffffffff821115613781576137806136eb565b5b61378a826136da565b9050602081019050919050565b82818337600083830152505050565b60006137b96137b484613766565b61374b565b9050828152602081018484840111156137d5576137d46136d5565b5b6137e0848285613797565b509392505050565b600082601f8301126137fd576137fc6136d0565b5b813561380d8482602086016137a6565b91505092915050565b60006020828403121561382c5761382b6136c6565b5b600082013567ffffffffffffffff81111561384a576138496136cb565b5b613856848285016137e8565b91505092915050565b6000819050919050565b6138728161385f565b82525050565b600060208201905061388d6000830184613869565b92915050565b61389c8161385f565b81146138a757600080fd5b50565b6000813590506138b981613893565b92915050565b6000602082840312156138d5576138d46136c6565b5b60006138e3848285016138aa565b91505092915050565b600073ffffffffffffffffffffffffffffffffffffffff82169050919050565b6000613917826138ec565b9050919050565b6139278161390c565b811461393257600080fd5b50565b6000813590506139448161391e565b92915050565b6000602082840312156139605761395f6136c6565b5b600061396e84828501613935565b91505092915050565b6000806040838503121561398e5761398d6136c6565b5b600061399c858286016138aa565b92505060206139ad858286016138aa565b9150509250929050565b600080600080608085870312156139d1576139d06136c6565b5b60006139df878288016138aa565b94505060206139f0878288016138aa565b935050604085013567ffffffffffffffff811115613a1157613a106136cb565b5b613a1d878288016137e8565b925050606085013567ffffffffffffffff811115613a3e57613a3d6136cb565b5b613a4a878288016137e8565b91505092959194509250565b60008115159050919050565b613a6b81613a56565b82525050565b6000604082019050613a866000830185613a62565b613a936020830184613869565b9392505050565b600081519050919050565b600082825260208201905092915050565b60005b83811015613ad4578082015181840152602081019050613ab9565b60008484015250505050565b6000613aeb82613a9a565b613af58185613aa5565b9350613b05818560208601613ab6565b613b0e816136da565b840191505092915050565b613b228161390c565b82525050565b600060a082019050613b3d6000830188613869565b613b4a6020830187613869565b8181036040830152613b5c8186613ae0565b9050613b6b6060830185613b19565b613b786080830184613869565b9695505050505050565b60028110613b8f57600080fd5b50565b600081359050613ba181613b82565b92915050565b60008060008060008060c08789031215613bc457613bc36136c6565b5b6000613bd289828a016138aa565b9650506020613be389828a016138aa565b9550506040613bf489828a016138aa565b9450506060613c0589828a01613b92565b9350506080613c1689828a016138aa565b92505060a0613c2789828a016138aa565b9150509295509295509295565b6000608082019050613c496000830187613869565b613c566020830186613869565b613c636040830185613869565b613c706060830184613869565b95945050505050565b600080600060608486031215613c9257613c916136c6565b5b6000613ca0868287016138aa565b9350506020613cb1868287016138aa565b9250506040613cc2868287016138aa565b9150509250925092565b613cd58161385f565b82525050565b608082016000820151613cf16000850182613ccc565b506020820151613d046020850182613ccc565b506040820151613d176040850182613ccc565b506060820151613d2a6060850182613ccc565b50505050565b7f4e487b7100000000000000000000000000000000000000000000000000000000600052602160045260246000fd5b60028110613d7057613d6f613d30565b5b50565b6000819050613d8182613d5f565b919050565b6000613d9182613d73565b9050919050565b613da181613d86565b82525050565b60068110613db857613db7613d30565b5b50565b6000819050613dc982613da7565b919050565b6000613dd982613dbb565b9050919050565b613de981613dce565b82525050565b600061018082019050613e05600083018c613869565b613e12602083018b613869565b613e1f604083018a613cdb565b613e2c60c0830189613869565b613e3960e0830188613869565b613e47610100830187613d98565b613e55610120830186613de0565b613e63610140830185613869565b613e71610160830184613869565b9a9950505050505050505050565b6000602082019050613e946000830184613de0565b92915050565b60038110613eab57613eaa613d30565b5b50565b6000819050613ebc82613e9a565b919050565b6000613ecc82613eae565b9050919050565b613edc81613ec1565b82525050565b6000604082019050613ef76000830185613ed3565b613f046020830184613869565b9392505050565b60006020820190508181036000830152613f258184613ae0565b905092915050565b600067ffffffffffffffff821115613f4857613f476136eb565b5b613f51826136da565b9050602081019050919050565b6000613f71613f6c84613f2d565b61374b565b905082815260208101848484011115613f8d57613f8c6136d5565b5b613f98848285613797565b509392505050565b600082601f830112613fb557613fb46136d0565b5b8135613fc5848260208601613f5e565b91505092915050565b600080600080600080600060e0888a031215613fed57613fec6136c6565b5b6000613ffb8a828b016138aa565b975050602061400c8a828b016138aa565b965050604088013567ffffffffffffffff81111561402d5761402c6136cb565b5b6140398a828b01613fa0565b955050606061404a8a828b016138aa565b945050608061405b8a828b016138aa565b93505060a088013567ffffffffffffffff81111561407c5761407b6136cb565b5b6140888a828b016137e8565b92505060c088013567ffffffffffffffff8111156140a9576140a86136cb565b5b6140b58a828b016137e8565b91505092959891949750929550565b6080820160008201516140da6000850182613ccc565b5060208201516140ed6020850182613ccc565b5060408201516141006040850182613ccc565b5060608201516141136060850182613ccc565b50505050565b61412281613d86565b82525050565b61413181613dce565b82525050565b6101808201600082015161414e6000850182613ccc565b5060208201516141616020850182613ccc565b50604082015161417460408501826140c4565b50606082015161418760c0850182613ccc565b50608082015161419a60e0850182613ccc565b5060a08201516141ae610100850182614119565b5060c08201516141c2610120850182614128565b5060e08201516141d6610140850182613ccc565b506101008201516141eb610160850182613ccc565b50505050565b6000610180820190506142076000830184614137565b92915050565b6006811061421a57600080fd5b50565b60008135905061422c8161420d565b92915050565b60008060408385031215614249576142486136c6565b5b60006142578582860161421d565b9250506020614268858286016138aa565b9150509250929050565b60006020820190506142876000830184613b19565b92915050565b600080600080608085870312156142a7576142a66136c6565b5b60006142b5878288016138aa565b94505060206142c6878288016138aa565b93505060406142d7878288016138aa565b92505060606142e8878288016138aa565b91505092959194509250565b7f6174206c6561737420302e303120455448206973206e656564656420746f206360008201527f7265617465206120636f6d70616e790000000000000000000000000000000000602082015250565b6000614350602f83613aa5565b915061435b826142f4565b604082019050919050565b6000602082019050818103600083015261437f81614343565b9050919050565b7f4e487b7100000000000000000000000000000000000000000000000000000000600052601160045260246000fd5b60006143c08261385f565b91507fffffffffffffffffffffffffffffffffffffffffffffffffffffffffffffffff82036143f2576143f1614386565b5b600182019050919050565b7f4e487b7100000000000000000000000000000000000000000000000000000000600052602260045260246000fd5b6000600282049050600182168061444457607f821691505b602082108103614457576144566143fd565b5b50919050565b60008190508160005260206000209050919050565b60006020601f8301049050919050565b600082821b905092915050565b6000600883026144bf7fffffffffffffffffffffffffffffffffffffffffffffffffffffffffffffffff82614482565b6144c98683614482565b95508019841693508086168417925050509392505050565b6000819050919050565b60006145066145016144fc8461385f565b6144e1565b61385f565b9050919050565b6000819050919050565b614520836144eb565b61453461452c8261450d565b84845461448f565b825550505050565b600090565b61454961453c565b614554818484614517565b505050565b5b818110156145785761456d600082614541565b60018101905061455a565b5050565b601f8211156145bd5761458e8161445d565b61459784614472565b810160208510156145a6578190505b6145ba6145b285614472565b830182614559565b50505b505050565b600082821c905092915050565b60006145e0600019846008026145c2565b1980831691505092915050565b60006145f983836145cf565b9150826002028217905092915050565b61461282613a9a565b67ffffffffffffffff81111561462b5761462a6136eb565b5b614635825461442c565b61464082828561457c565b600060209050601f8311600181146146735760008415614661578287015190505b61466b85826145ed565b8655506146d3565b601f1984166146818661445d565b60005b828110156146a957848901518255600182019150602085019450602081019050614684565b868310156146c657848901516146c2601f8916826145cf565b8355505b6001600288020188555050505b505050505050565b7f496e76616c696420636f6d70616e792069642100000000000000000000000000600082015250565b6000614711601383613aa5565b915061471c826146db565b602082019050919050565b6000602082019050818103600083015261474081614704565b9050919050565b7f596f7520617265206e6f7420746865206f776e65722100000000000000000000600082015250565b600061477d601683613aa5565b915061478882614747565b602082019050919050565b600060208201905081810360008301526147ac81614770565b9050919050565b6000815190506147c281613893565b92915050565b6000602082840312156147de576147dd6136c6565b5b60006147ec848285016147b3565b91505092915050565b7f31205472757374496e73757265206973206e656564656420746f20637265617460008201527f652061206e657720696e737572616e6365000000000000000000000000000000602082015250565b6000614851603183613aa5565b915061485c826147f5565b604082019050919050565b6000602082019050818103600083015261488081614844565b9050919050565b7f496e76616c696420697373756520646174652100000000000000000000000000600082015250565b60006148bd601383613aa5565b91506148c882614887565b602082019050919050565b600060208201905081810360008301526148ec816148b0565b9050919050565b7f496e76616c696420657870697279206461746521000000000000000000000000600082015250565b6000614929601483613aa5565b9150614934826148f3565b602082019050919050565b600060208201905081810360008301526149588161491c565b9050919050565b7f496e7075742076616c6964207265717565737449642100000000000000000000600082015250565b6000614995601683613aa5565b91506149a08261495f565b602082019050919050565b600060208201905081810360008301526149c481614988565b9050919050565b7f4e487b7100000000000000000000000000000000000000000000000000000000600052603260045260246000fd5b7f496e76616c696420726571756573742069642100000000000000000000000000600082015250565b6000614a30601383613aa5565b9150614a3b826149fa565b602082019050919050565b60006020820190508181036000830152614a5f81614a23565b9050919050565b7f496e76616c696420706f6c696379206f776e6572210000000000000000000000600082015250565b6000614a9c601583613aa5565b9150614aa782614a66565b602082019050919050565b60006020820190508181036000830152614acb81614a8f565b9050919050565b6000606082019050614ae76000830186613b19565b614af46020830185613b19565b614b016040830184613869565b949350505050565b6000614b148261385f565b9150614b1f8361385f565b9250828201905080821115614b3757614b36614386565b5b92915050565b6000614b488261385f565b9150614b538361385f565b9250828203905081811115614b6b57614b6a614386565b5b92915050565b7f596f7520686176656e2774207265717565737465642100000000000000000000600082015250565b6000614ba7601683613aa5565b9150614bb282614b71565b602082019050919050565b60006020820190508181036000830152614bd681614b9a565b9050919050565b6000602082019050614bf26000830184613ed3565b92915050565b7f496e76616c69642062656e656669636961727921000000000000000000000000600082015250565b6000614c2e601483613aa5565b9150614c3982614bf8565b602082019050919050565b60006020820190508181036000830152614c5d81614c21565b9050919050565b600081519050919050565b600082825260208201905092915050565b6000614c8b82614c64565b614c958185614c6f565b9350614ca5818560208601613ab6565b614cae816136da565b840191505092915050565b6000604082019050614cce6000830185613869565b8181036020830152614ce08184614c80565b90509392505050565b7f45787069727920646174652068617320616c7265616479206265656e20696e6960008201527f7469616c69736564000000000000000000000000000000000000000000000000602082015250565b6000614d45602883613aa5565b9150614d5082614ce9565b604082019050919050565b60006020820190508181036000830152614d7481614d38565b9050919050565b600081519050919050565b600082825260208201905092915050565b6000819050602082019050919050565b6000614db38383613ccc565b60208301905092915050565b6000602082019050919050565b6000614dd782614d7b565b614de18185614d86565b9350614dec83614d97565b8060005b83811015614e1d578151614e048882614da7565b9750614e0f83614dbf565b925050600181019050614df0565b5085935050505092915050565b600081519050919050565b600082825260208201905092915050565b6000819050602082019050919050565b600082825260208201905092915050565b6000614e7282613a9a565b614e7c8185614e56565b9350614e8c818560208601613ab6565b614e95816136da565b840191505092915050565b6000614eac8383614e67565b905092915050565b6000602082019050919050565b6000614ecc82614e2a565b614ed68185614e35565b935083602082028501614ee885614e46565b8060005b85811015614f245784840389528151614f058582614ea0565b9450614f1083614eb4565b925060208a01995050600181019050614eec565b50829750879550505050505092915050565b60006080820190508181036000830152614f508187614dcc565b90508181036020830152614f648186614dcc565b90508181036040830152614f788185614ec1565b90508181036060830152614f8c8184614ec1565b905095945050505050565b7f596f7520617265206e6f7420617574686f72697a656421000000000000000000600082015250565b6000614fcd601783613aa5565b9150614fd882614f97565b602082019050919050565b60006020820190508181036000830152614ffc81614fc0565b9050919050565b60006040820190506150186000830185613869565b6150256020830184613869565b9392505050565b7f5374616b65686f6c64657220686176656e277420706169642074686520696e7360008201527f7572616e63652100000000000000000000000000000000000000000000000000602082015250565b6000615088602783613aa5565b91506150938261502c565b604082019050919050565b600060208201905081810360008301526150b78161507b565b9050919050565b7f486176656e27742074616b652065666665637421000000000000000000000000600082015250565b60006150f4601483613aa5565b91506150ff826150be565b602082019050919050565b60006020820190508181036000830152615123816150e7565b9050919050565b600081905092915050565b600061514082613a9a565b61514a818561512a565b935061515a818560208601613ab6565b80840191505092915050565b60006151728284615135565b915081905092915050565b600060208201905081810360008301526151978184614c80565b905092915050565b60006151b26151ad84613766565b61374b565b9050828152602081018484840111156151ce576151cd6136d5565b5b6151d9848285613ab6565b509392505050565b600082601f8301126151f6576151f56136d0565b5b815161520684826020860161519f565b91505092915050565b600060208284031215615225576152246136c6565b5b600082015167ffffffffffffffff811115615243576152426136cb565b5b61524f848285016151e1565b91505092915050565b7f4e6f74207468652073616d65207374616b65686f6c6465722100000000000000600082015250565b600061528e601983613aa5565b915061529982615258565b602082019050919050565b600060208201905081810360008301526152bd81615281565b9050919050565b600381106152d157600080fd5b50565b6000815190506152e3816152c4565b92915050565b6000602082840312156152ff576152fe6136c6565b5b600061530d848285016152d4565b91505092915050565b7f496620737569636964652063616e6e6f7420636c61696d2077697468696e203260008201527f2079656172732100000000000000000000000000000000000000000000000000602082015250565b6000615372602783613aa5565b915061537d82615316565b604082019050919050565b600060208201905081810360008301526153a181615365565b9050919050565b7f6e6f7420656e6f756768205472757374496e7375726520746f20706179210000600082015250565b60006153de601e83613aa5565b91506153e9826153a8565b602082019050919050565b6000602082019050818103600083015261540d816153d1565b9050919050565b60006040820190506154296000830185613b19565b6154366020830184613869565b939250505056fea264697066735822122031e855add3ab600256066511bf8ffed20b0f5510311695b8940ec185aaf7635364736f6c63430008130033",
			"opcodes": "PUSH1 0x80 PUSH1 0x40 MSTORE PUSH1 0x0 DUP1 SSTORE PUSH1 0x0 PUSH1 0x2 SSTORE PUSH1 0x0 PUSH1 0x6 SSTORE PUSH1 0x0 PUSH1 0x7 SSTORE CALLVALUE DUP1 ISZERO PUSH3 0x24 JUMPI PUSH1 0x0 DUP1 REVERT JUMPDEST POP PUSH1 0x40 MLOAD PUSH3 0x5661 CODESIZE SUB DUP1 PUSH3 0x5661 DUP4 CODECOPY DUP2 DUP2 ADD PUSH1 0x40 MSTORE DUP2 ADD SWAP1 PUSH3 0x4A SWAP2 SWAP1 PUSH3 0x197 JUMP JUMPDEST DUP2 PUSH1 0x5 PUSH1 0x0 PUSH2 0x100 EXP DUP2 SLOAD DUP2 PUSH20 0xFFFFFFFFFFFFFFFFFFFFFFFFFFFFFFFFFFFFFFFF MUL NOT AND SWAP1 DUP4 PUSH20 0xFFFFFFFFFFFFFFFFFFFFFFFFFFFFFFFFFFFFFFFF AND MUL OR SWAP1 SSTORE POP DUP1 PUSH1 0x4 PUSH1 0x0 PUSH2 0x100 EXP DUP2 SLOAD DUP2 PUSH20 0xFFFFFFFFFFFFFFFFFFFFFFFFFFFFFFFFFFFFFFFF MUL NOT AND SWAP1 DUP4 PUSH20 0xFFFFFFFFFFFFFFFFFFFFFFFFFFFFFFFFFFFFFFFF AND MUL OR SWAP1 SSTORE POP POP POP PUSH3 0x1DE JUMP JUMPDEST PUSH1 0x0 DUP1 REVERT JUMPDEST PUSH1 0x0 PUSH20 0xFFFFFFFFFFFFFFFFFFFFFFFFFFFFFFFFFFFFFFFF DUP3 AND SWAP1 POP SWAP2 SWAP1 POP JUMP JUMPDEST PUSH1 0x0 PUSH3 0x106 DUP3 PUSH3 0xD9 JUMP JUMPDEST SWAP1 POP SWAP2 SWAP1 POP JUMP JUMPDEST PUSH1 0x0 PUSH3 0x11A DUP3 PUSH3 0xF9 JUMP JUMPDEST SWAP1 POP SWAP2 SWAP1 POP JUMP JUMPDEST PUSH3 0x12C DUP2 PUSH3 0x10D JUMP JUMPDEST DUP2 EQ PUSH3 0x138 JUMPI PUSH1 0x0 DUP1 REVERT JUMPDEST POP JUMP JUMPDEST PUSH1 0x0 DUP2 MLOAD SWAP1 POP PUSH3 0x14C DUP2 PUSH3 0x121 JUMP JUMPDEST SWAP3 SWAP2 POP POP JUMP JUMPDEST PUSH1 0x0 PUSH3 0x15F DUP3 PUSH3 0xF9 JUMP JUMPDEST SWAP1 POP SWAP2 SWAP1 POP JUMP JUMPDEST PUSH3 0x171 DUP2 PUSH3 0x152 JUMP JUMPDEST DUP2 EQ PUSH3 0x17D JUMPI PUSH1 0x0 DUP1 REVERT JUMPDEST POP JUMP JUMPDEST PUSH1 0x0 DUP2 MLOAD SWAP1 POP PUSH3 0x191 DUP2 PUSH3 0x166 JUMP JUMPDEST SWAP3 SWAP2 POP POP JUMP JUMPDEST PUSH1 0x0 DUP1 PUSH1 0x40 DUP4 DUP6 SUB SLT ISZERO PUSH3 0x1B1 JUMPI PUSH3 0x1B0 PUSH3 0xD4 JUMP JUMPDEST JUMPDEST PUSH1 0x0 PUSH3 0x1C1 DUP6 DUP3 DUP7 ADD PUSH3 0x13B JUMP JUMPDEST SWAP3 POP POP PUSH1 0x20 PUSH3 0x1D4 DUP6 DUP3 DUP7 ADD PUSH3 0x180 JUMP JUMPDEST SWAP2 POP POP SWAP3 POP SWAP3 SWAP1 POP JUMP JUMPDEST PUSH2 0x5473 DUP1 PUSH3 0x1EE PUSH1 0x0 CODECOPY PUSH1 0x0 RETURN INVALID PUSH1 0x80 PUSH1 0x40 MSTORE PUSH1 0x4 CALLDATASIZE LT PUSH2 0x203 JUMPI PUSH1 0x0 CALLDATALOAD PUSH1 0xE0 SHR DUP1 PUSH4 0x6833F200 GT PUSH2 0x118 JUMPI DUP1 PUSH4 0xC41A360A GT PUSH2 0xA0 JUMPI DUP1 PUSH4 0xDD9937F7 GT PUSH2 0x6F JUMPI DUP1 PUSH4 0xDD9937F7 EQ PUSH2 0x85E JUMPI DUP1 PUSH4 0xE02BB9AF EQ PUSH2 0x887 JUMPI DUP1 PUSH4 0xE0E5C324 EQ PUSH2 0x8B0 JUMPI DUP1 PUSH4 0xE22900FF EQ PUSH2 0x8ED JUMPI DUP1 PUSH4 0xF558EB05 EQ PUSH2 0x92A JUMPI PUSH2 0x203 JUMP JUMPDEST DUP1 PUSH4 0xC41A360A EQ PUSH2 0x77E JUMPI DUP1 PUSH4 0xCA009021 EQ PUSH2 0x7BB JUMPI DUP1 PUSH4 0xD91F2A0B EQ PUSH2 0x7F8 JUMPI DUP1 PUSH4 0xDA304E4D EQ PUSH2 0x821 JUMPI PUSH2 0x203 JUMP JUMPDEST DUP1 PUSH4 0x85FAE602 GT PUSH2 0xE7 JUMPI DUP1 PUSH4 0x85FAE602 EQ PUSH2 0x699 JUMPI DUP1 PUSH4 0x8EDD5297 EQ PUSH2 0x6D6 JUMPI DUP1 PUSH4 0x9F14D7C2 EQ PUSH2 0x701 JUMPI DUP1 PUSH4 0xB7FF5DAE EQ PUSH2 0x72C JUMPI DUP1 PUSH4 0xBFCB6CFB EQ PUSH2 0x755 JUMPI PUSH2 0x203 JUMP JUMPDEST DUP1 PUSH4 0x6833F200 EQ PUSH2 0x5CB JUMPI DUP1 PUSH4 0x6B8FF574 EQ PUSH2 0x608 JUMPI DUP1 PUSH4 0x700D9EF7 EQ PUSH2 0x645 JUMPI DUP1 PUSH4 0x703849D9 EQ PUSH2 0x66E JUMPI PUSH2 0x203 JUMP JUMPDEST DUP1 PUSH4 0x3D1894AF GT PUSH2 0x19B JUMPI DUP1 PUSH4 0x5998F775 GT PUSH2 0x16A JUMPI DUP1 PUSH4 0x5998F775 EQ PUSH2 0x4A3 JUMPI DUP1 PUSH4 0x59FB49F9 EQ PUSH2 0x4E0 JUMPI DUP1 PUSH4 0x5C622A0E EQ PUSH2 0x525 JUMPI DUP1 PUSH4 0x5D996701 EQ PUSH2 0x562 JUMPI DUP1 PUSH4 0x62584FFE EQ PUSH2 0x5A0 JUMPI PUSH2 0x203 JUMP JUMPDEST DUP1 PUSH4 0x3D1894AF EQ PUSH2 0x3D4 JUMPI DUP1 PUSH4 0x3FA3AB26 EQ PUSH2 0x3FD JUMPI DUP1 PUSH4 0x561C865B EQ PUSH2 0x43D JUMPI DUP1 PUSH4 0x575C2887 EQ PUSH2 0x466 JUMPI PUSH2 0x203 JUMP JUMPDEST DUP1 PUSH4 0x23192ED4 GT PUSH2 0x1D7 JUMPI DUP1 PUSH4 0x23192ED4 EQ PUSH2 0x2DB JUMPI DUP1 PUSH4 0x2813D19D EQ PUSH2 0x319 JUMPI DUP1 PUSH4 0x2DD0B640 EQ PUSH2 0x35A JUMPI DUP1 PUSH4 0x302DF083 EQ PUSH2 0x397 JUMPI PUSH2 0x203 JUMP JUMPDEST DUP1 PUSH3 0x544194 EQ PUSH2 0x208 JUMPI DUP1 PUSH4 0x386660A EQ PUSH2 0x238 JUMPI DUP1 PUSH4 0x1847C06B EQ PUSH2 0x275 JUMPI DUP1 PUSH4 0x1A1FC3A0 EQ PUSH2 0x2B2 JUMPI JUMPDEST PUSH1 0x0 DUP1 REVERT JUMPDEST PUSH2 0x222 PUSH1 0x4 DUP1 CALLDATASIZE SUB DUP2 ADD SWAP1 PUSH2 0x21D SWAP2 SWAP1 PUSH2 0x3816 JUMP JUMPDEST PUSH2 0x941 JUMP JUMPDEST PUSH1 0x40 MLOAD PUSH2 0x22F SWAP2 SWAP1 PUSH2 0x3878 JUMP JUMPDEST PUSH1 0x40 MLOAD DUP1 SWAP2 SUB SWAP1 RETURN JUMPDEST CALLVALUE DUP1 ISZERO PUSH2 0x244 JUMPI PUSH1 0x0 DUP1 REVERT JUMPDEST POP PUSH2 0x25F PUSH1 0x4 DUP1 CALLDATASIZE SUB DUP2 ADD SWAP1 PUSH2 0x25A SWAP2 SWAP1 PUSH2 0x38BF JUMP JUMPDEST PUSH2 0xA82 JUMP JUMPDEST PUSH1 0x40 MLOAD PUSH2 0x26C SWAP2 SWAP1 PUSH2 0x3878 JUMP JUMPDEST PUSH1 0x40 MLOAD DUP1 SWAP2 SUB SWAP1 RETURN JUMPDEST CALLVALUE DUP1 ISZERO PUSH2 0x281 JUMPI PUSH1 0x0 DUP1 REVERT JUMPDEST POP PUSH2 0x29C PUSH1 0x4 DUP1 CALLDATASIZE SUB DUP2 ADD SWAP1 PUSH2 0x297 SWAP2 SWAP1 PUSH2 0x394A JUMP JUMPDEST PUSH2 0xAA2 JUMP JUMPDEST PUSH1 0x40 MLOAD PUSH2 0x2A9 SWAP2 SWAP1 PUSH2 0x3878 JUMP JUMPDEST PUSH1 0x40 MLOAD DUP1 SWAP2 SUB SWAP1 RETURN JUMPDEST CALLVALUE DUP1 ISZERO PUSH2 0x2BE JUMPI PUSH1 0x0 DUP1 REVERT JUMPDEST POP PUSH2 0x2D9 PUSH1 0x4 DUP1 CALLDATASIZE SUB DUP2 ADD SWAP1 PUSH2 0x2D4 SWAP2 SWAP1 PUSH2 0x3977 JUMP JUMPDEST PUSH2 0xABA JUMP JUMPDEST STOP JUMPDEST CALLVALUE DUP1 ISZERO PUSH2 0x2E7 JUMPI PUSH1 0x0 DUP1 REVERT JUMPDEST POP PUSH2 0x302 PUSH1 0x4 DUP1 CALLDATASIZE SUB DUP2 ADD SWAP1 PUSH2 0x2FD SWAP2 SWAP1 PUSH2 0x39B7 JUMP JUMPDEST PUSH2 0xADC JUMP JUMPDEST PUSH1 0x40 MLOAD PUSH2 0x310 SWAP3 SWAP2 SWAP1 PUSH2 0x3A71 JUMP JUMPDEST PUSH1 0x40 MLOAD DUP1 SWAP2 SUB SWAP1 RETURN JUMPDEST CALLVALUE DUP1 ISZERO PUSH2 0x325 JUMPI PUSH1 0x0 DUP1 REVERT JUMPDEST POP PUSH2 0x340 PUSH1 0x4 DUP1 CALLDATASIZE SUB DUP2 ADD SWAP1 PUSH2 0x33B SWAP2 SWAP1 PUSH2 0x38BF JUMP JUMPDEST PUSH2 0xBA7 JUMP JUMPDEST PUSH1 0x40 MLOAD PUSH2 0x351 SWAP6 SWAP5 SWAP4 SWAP3 SWAP2 SWAP1 PUSH2 0x3B28 JUMP JUMPDEST PUSH1 0x40 MLOAD DUP1 SWAP2 SUB SWAP1 RETURN JUMPDEST CALLVALUE DUP1 ISZERO PUSH2 0x366 JUMPI PUSH1 0x0 DUP1 REVERT JUMPDEST POP PUSH2 0x381 PUSH1 0x4 DUP1 CALLDATASIZE SUB DUP2 ADD SWAP1 PUSH2 0x37C SWAP2 SWAP1 PUSH2 0x3BA7 JUMP JUMPDEST PUSH2 0xC85 JUMP JUMPDEST PUSH1 0x40 MLOAD PUSH2 0x38E SWAP2 SWAP1 PUSH2 0x3878 JUMP JUMPDEST PUSH1 0x40 MLOAD DUP1 SWAP2 SUB SWAP1 RETURN JUMPDEST CALLVALUE DUP1 ISZERO PUSH2 0x3A3 JUMPI PUSH1 0x0 DUP1 REVERT JUMPDEST POP PUSH2 0x3BE PUSH1 0x4 DUP1 CALLDATASIZE SUB DUP2 ADD SWAP1 PUSH2 0x3B9 SWAP2 SWAP1 PUSH2 0x38BF JUMP JUMPDEST PUSH2 0x1033 JUMP JUMPDEST PUSH1 0x40 MLOAD PUSH2 0x3CB SWAP2 SWAP1 PUSH2 0x3878 JUMP JUMPDEST PUSH1 0x40 MLOAD DUP1 SWAP2 SUB SWAP1 RETURN JUMPDEST CALLVALUE DUP1 ISZERO PUSH2 0x3E0 JUMPI PUSH1 0x0 DUP1 REVERT JUMPDEST POP PUSH2 0x3FB PUSH1 0x4 DUP1 CALLDATASIZE SUB DUP2 ADD SWAP1 PUSH2 0x3F6 SWAP2 SWAP1 PUSH2 0x3977 JUMP JUMPDEST PUSH2 0x1056 JUMP JUMPDEST STOP JUMPDEST CALLVALUE DUP1 ISZERO PUSH2 0x409 JUMPI PUSH1 0x0 DUP1 REVERT JUMPDEST POP PUSH2 0x424 PUSH1 0x4 DUP1 CALLDATASIZE SUB DUP2 ADD SWAP1 PUSH2 0x41F SWAP2 SWAP1 PUSH2 0x38BF JUMP JUMPDEST PUSH2 0x14AC JUMP JUMPDEST PUSH1 0x40 MLOAD PUSH2 0x434 SWAP5 SWAP4 SWAP3 SWAP2 SWAP1 PUSH2 0x3C34 JUMP JUMPDEST PUSH1 0x40 MLOAD DUP1 SWAP2 SUB SWAP1 RETURN JUMPDEST CALLVALUE DUP1 ISZERO PUSH2 0x449 JUMPI PUSH1 0x0 DUP1 REVERT JUMPDEST POP PUSH2 0x464 PUSH1 0x4 DUP1 CALLDATASIZE SUB DUP2 ADD SWAP1 PUSH2 0x45F SWAP2 SWAP1 PUSH2 0x3C79 JUMP JUMPDEST PUSH2 0x14DC JUMP JUMPDEST STOP JUMPDEST CALLVALUE DUP1 ISZERO PUSH2 0x472 JUMPI PUSH1 0x0 DUP1 REVERT JUMPDEST POP PUSH2 0x48D PUSH1 0x4 DUP1 CALLDATASIZE SUB DUP2 ADD SWAP1 PUSH2 0x488 SWAP2 SWAP1 PUSH2 0x38BF JUMP JUMPDEST PUSH2 0x16FA JUMP JUMPDEST PUSH1 0x40 MLOAD PUSH2 0x49A SWAP2 SWAP1 PUSH2 0x3878 JUMP JUMPDEST PUSH1 0x40 MLOAD DUP1 SWAP2 SUB SWAP1 RETURN JUMPDEST CALLVALUE DUP1 ISZERO PUSH2 0x4AF JUMPI PUSH1 0x0 DUP1 REVERT JUMPDEST POP PUSH2 0x4CA PUSH1 0x4 DUP1 CALLDATASIZE SUB DUP2 ADD SWAP1 PUSH2 0x4C5 SWAP2 SWAP1 PUSH2 0x38BF JUMP JUMPDEST PUSH2 0x173B JUMP JUMPDEST PUSH1 0x40 MLOAD PUSH2 0x4D7 SWAP2 SWAP1 PUSH2 0x3878 JUMP JUMPDEST PUSH1 0x40 MLOAD DUP1 SWAP2 SUB SWAP1 RETURN JUMPDEST CALLVALUE DUP1 ISZERO PUSH2 0x4EC JUMPI PUSH1 0x0 DUP1 REVERT JUMPDEST POP PUSH2 0x507 PUSH1 0x4 DUP1 CALLDATASIZE SUB DUP2 ADD SWAP1 PUSH2 0x502 SWAP2 SWAP1 PUSH2 0x38BF JUMP JUMPDEST PUSH2 0x175B JUMP JUMPDEST PUSH1 0x40 MLOAD PUSH2 0x51C SWAP10 SWAP9 SWAP8 SWAP7 SWAP6 SWAP5 SWAP4 SWAP3 SWAP2 SWAP1 PUSH2 0x3DEF JUMP JUMPDEST PUSH1 0x40 MLOAD DUP1 SWAP2 SUB SWAP1 RETURN JUMPDEST CALLVALUE DUP1 ISZERO PUSH2 0x531 JUMPI PUSH1 0x0 DUP1 REVERT JUMPDEST POP PUSH2 0x54C PUSH1 0x4 DUP1 CALLDATASIZE SUB DUP2 ADD SWAP1 PUSH2 0x547 SWAP2 SWAP1 PUSH2 0x38BF JUMP JUMPDEST PUSH2 0x17F5 JUMP JUMPDEST PUSH1 0x40 MLOAD PUSH2 0x559 SWAP2 SWAP1 PUSH2 0x3E7F JUMP JUMPDEST PUSH1 0x40 MLOAD DUP1 SWAP2 SUB SWAP1 RETURN JUMPDEST CALLVALUE DUP1 ISZERO PUSH2 0x56E JUMPI PUSH1 0x0 DUP1 REVERT JUMPDEST POP PUSH2 0x589 PUSH1 0x4 DUP1 CALLDATASIZE SUB DUP2 ADD SWAP1 PUSH2 0x584 SWAP2 SWAP1 PUSH2 0x3977 JUMP JUMPDEST PUSH2 0x1822 JUMP JUMPDEST PUSH1 0x40 MLOAD PUSH2 0x597 SWAP3 SWAP2 SWAP1 PUSH2 0x3EE2 JUMP JUMPDEST PUSH1 0x40 MLOAD DUP1 SWAP2 SUB SWAP1 RETURN JUMPDEST CALLVALUE DUP1 ISZERO PUSH2 0x5AC JUMPI PUSH1 0x0 DUP1 REVERT JUMPDEST POP PUSH2 0x5B5 PUSH2 0x1B99 JUMP JUMPDEST PUSH1 0x40 MLOAD PUSH2 0x5C2 SWAP2 SWAP1 PUSH2 0x3878 JUMP JUMPDEST PUSH1 0x40 MLOAD DUP1 SWAP2 SUB SWAP1 RETURN JUMPDEST CALLVALUE DUP1 ISZERO PUSH2 0x5D7 JUMPI PUSH1 0x0 DUP1 REVERT JUMPDEST POP PUSH2 0x5F2 PUSH1 0x4 DUP1 CALLDATASIZE SUB DUP2 ADD SWAP1 PUSH2 0x5ED SWAP2 SWAP1 PUSH2 0x38BF JUMP JUMPDEST PUSH2 0x1BA3 JUMP JUMPDEST PUSH1 0x40 MLOAD PUSH2 0x5FF SWAP2 SWAP1 PUSH2 0x3878 JUMP JUMPDEST PUSH1 0x40 MLOAD DUP1 SWAP2 SUB SWAP1 RETURN JUMPDEST CALLVALUE DUP1 ISZERO PUSH2 0x614 JUMPI PUSH1 0x0 DUP1 REVERT JUMPDEST POP PUSH2 0x62F PUSH1 0x4 DUP1 CALLDATASIZE SUB DUP2 ADD SWAP1 PUSH2 0x62A SWAP2 SWAP1 PUSH2 0x38BF JUMP JUMPDEST PUSH2 0x1BC3 JUMP JUMPDEST PUSH1 0x40 MLOAD PUSH2 0x63C SWAP2 SWAP1 PUSH2 0x3F0B JUMP JUMPDEST PUSH1 0x40 MLOAD DUP1 SWAP2 SUB SWAP1 RETURN JUMPDEST CALLVALUE DUP1 ISZERO PUSH2 0x651 JUMPI PUSH1 0x0 DUP1 REVERT JUMPDEST POP PUSH2 0x66C PUSH1 0x4 DUP1 CALLDATASIZE SUB DUP2 ADD SWAP1 PUSH2 0x667 SWAP2 SWAP1 PUSH2 0x3FCE JUMP JUMPDEST PUSH2 0x1CBF JUMP JUMPDEST STOP JUMPDEST CALLVALUE DUP1 ISZERO PUSH2 0x67A JUMPI PUSH1 0x0 DUP1 REVERT JUMPDEST POP PUSH2 0x683 PUSH2 0x1DA5 JUMP JUMPDEST PUSH1 0x40 MLOAD PUSH2 0x690 SWAP2 SWAP1 PUSH2 0x3878 JUMP JUMPDEST PUSH1 0x40 MLOAD DUP1 SWAP2 SUB SWAP1 RETURN JUMPDEST CALLVALUE DUP1 ISZERO PUSH2 0x6A5 JUMPI PUSH1 0x0 DUP1 REVERT JUMPDEST POP PUSH2 0x6C0 PUSH1 0x4 DUP1 CALLDATASIZE SUB DUP2 ADD SWAP1 PUSH2 0x6BB SWAP2 SWAP1 PUSH2 0x38BF JUMP JUMPDEST PUSH2 0x1DAB JUMP JUMPDEST PUSH1 0x40 MLOAD PUSH2 0x6CD SWAP2 SWAP1 PUSH2 0x41F1 JUMP JUMPDEST PUSH1 0x40 MLOAD DUP1 SWAP2 SUB SWAP1 RETURN JUMPDEST CALLVALUE DUP1 ISZERO PUSH2 0x6E2 JUMPI PUSH1 0x0 DUP1 REVERT JUMPDEST POP PUSH2 0x6EB PUSH2 0x1EC7 JUMP JUMPDEST PUSH1 0x40 MLOAD PUSH2 0x6F8 SWAP2 SWAP1 PUSH2 0x3878 JUMP JUMPDEST PUSH1 0x40 MLOAD DUP1 SWAP2 SUB SWAP1 RETURN JUMPDEST CALLVALUE DUP1 ISZERO PUSH2 0x70D JUMPI PUSH1 0x0 DUP1 REVERT JUMPDEST POP PUSH2 0x716 PUSH2 0x1ECD JUMP JUMPDEST PUSH1 0x40 MLOAD PUSH2 0x723 SWAP2 SWAP1 PUSH2 0x3878 JUMP JUMPDEST PUSH1 0x40 MLOAD DUP1 SWAP2 SUB SWAP1 RETURN JUMPDEST CALLVALUE DUP1 ISZERO PUSH2 0x738 JUMPI PUSH1 0x0 DUP1 REVERT JUMPDEST POP PUSH2 0x753 PUSH1 0x4 DUP1 CALLDATASIZE SUB DUP2 ADD SWAP1 PUSH2 0x74E SWAP2 SWAP1 PUSH2 0x4232 JUMP JUMPDEST PUSH2 0x1F14 JUMP JUMPDEST STOP JUMPDEST CALLVALUE DUP1 ISZERO PUSH2 0x761 JUMPI PUSH1 0x0 DUP1 REVERT JUMPDEST POP PUSH2 0x77C PUSH1 0x4 DUP1 CALLDATASIZE SUB DUP2 ADD SWAP1 PUSH2 0x777 SWAP2 SWAP1 PUSH2 0x3C79 JUMP JUMPDEST PUSH2 0x1F56 JUMP JUMPDEST STOP JUMPDEST CALLVALUE DUP1 ISZERO PUSH2 0x78A JUMPI PUSH1 0x0 DUP1 REVERT JUMPDEST POP PUSH2 0x7A5 PUSH1 0x4 DUP1 CALLDATASIZE SUB DUP2 ADD SWAP1 PUSH2 0x7A0 SWAP2 SWAP1 PUSH2 0x38BF JUMP JUMPDEST PUSH2 0x21A6 JUMP JUMPDEST PUSH1 0x40 MLOAD PUSH2 0x7B2 SWAP2 SWAP1 PUSH2 0x4272 JUMP JUMPDEST PUSH1 0x40 MLOAD DUP1 SWAP2 SUB SWAP1 RETURN JUMPDEST CALLVALUE DUP1 ISZERO PUSH2 0x7C7 JUMPI PUSH1 0x0 DUP1 REVERT JUMPDEST POP PUSH2 0x7E2 PUSH1 0x4 DUP1 CALLDATASIZE SUB DUP2 ADD SWAP1 PUSH2 0x7DD SWAP2 SWAP1 PUSH2 0x38BF JUMP JUMPDEST PUSH2 0x223A JUMP JUMPDEST PUSH1 0x40 MLOAD PUSH2 0x7EF SWAP2 SWAP1 PUSH2 0x3878 JUMP JUMPDEST PUSH1 0x40 MLOAD DUP1 SWAP2 SUB SWAP1 RETURN JUMPDEST CALLVALUE DUP1 ISZERO PUSH2 0x804 JUMPI PUSH1 0x0 DUP1 REVERT JUMPDEST POP PUSH2 0x81F PUSH1 0x4 DUP1 CALLDATASIZE SUB DUP2 ADD SWAP1 PUSH2 0x81A SWAP2 SWAP1 PUSH2 0x3977 JUMP JUMPDEST PUSH2 0x225A JUMP JUMPDEST STOP JUMPDEST CALLVALUE DUP1 ISZERO PUSH2 0x82D JUMPI PUSH1 0x0 DUP1 REVERT JUMPDEST POP PUSH2 0x848 PUSH1 0x4 DUP1 CALLDATASIZE SUB DUP2 ADD SWAP1 PUSH2 0x843 SWAP2 SWAP1 PUSH2 0x38BF JUMP JUMPDEST PUSH2 0x22D2 JUMP JUMPDEST PUSH1 0x40 MLOAD PUSH2 0x855 SWAP2 SWAP1 PUSH2 0x3878 JUMP JUMPDEST PUSH1 0x40 MLOAD DUP1 SWAP2 SUB SWAP1 RETURN JUMPDEST CALLVALUE DUP1 ISZERO PUSH2 0x86A JUMPI PUSH1 0x0 DUP1 REVERT JUMPDEST POP PUSH2 0x885 PUSH1 0x4 DUP1 CALLDATASIZE SUB DUP2 ADD SWAP1 PUSH2 0x880 SWAP2 SWAP1 PUSH2 0x38BF JUMP JUMPDEST PUSH2 0x2346 JUMP JUMPDEST STOP JUMPDEST CALLVALUE DUP1 ISZERO PUSH2 0x893 JUMPI PUSH1 0x0 DUP1 REVERT JUMPDEST POP PUSH2 0x8AE PUSH1 0x4 DUP1 CALLDATASIZE SUB DUP2 ADD SWAP1 PUSH2 0x8A9 SWAP2 SWAP1 PUSH2 0x3C79 JUMP JUMPDEST PUSH2 0x2914 JUMP JUMPDEST STOP JUMPDEST CALLVALUE DUP1 ISZERO PUSH2 0x8BC JUMPI PUSH1 0x0 DUP1 REVERT JUMPDEST POP PUSH2 0x8D7 PUSH1 0x4 DUP1 CALLDATASIZE SUB DUP2 ADD SWAP1 PUSH2 0x8D2 SWAP2 SWAP1 PUSH2 0x428D JUMP JUMPDEST PUSH2 0x2D10 JUMP JUMPDEST PUSH1 0x40 MLOAD PUSH2 0x8E4 SWAP2 SWAP1 PUSH2 0x3878 JUMP JUMPDEST PUSH1 0x40 MLOAD DUP1 SWAP2 SUB SWAP1 RETURN JUMPDEST CALLVALUE DUP1 ISZERO PUSH2 0x8F9 JUMPI PUSH1 0x0 DUP1 REVERT JUMPDEST POP PUSH2 0x914 PUSH1 0x4 DUP1 CALLDATASIZE SUB DUP2 ADD SWAP1 PUSH2 0x90F SWAP2 SWAP1 PUSH2 0x38BF JUMP JUMPDEST PUSH2 0x2DF6 JUMP JUMPDEST PUSH1 0x40 MLOAD PUSH2 0x921 SWAP2 SWAP1 PUSH2 0x3878 JUMP JUMPDEST PUSH1 0x40 MLOAD DUP1 SWAP2 SUB SWAP1 RETURN JUMPDEST CALLVALUE DUP1 ISZERO PUSH2 0x936 JUMPI PUSH1 0x0 DUP1 REVERT JUMPDEST POP PUSH2 0x93F PUSH2 0x2E16 JUMP JUMPDEST STOP JUMPDEST PUSH1 0x0 PUSH7 0x2386F26FC10000 CALLVALUE GT PUSH2 0x98C JUMPI PUSH1 0x40 MLOAD PUSH32 0x8C379A000000000000000000000000000000000000000000000000000000000 DUP2 MSTORE PUSH1 0x4 ADD PUSH2 0x983 SWAP1 PUSH2 0x4366 JUMP JUMPDEST PUSH1 0x40 MLOAD DUP1 SWAP2 SUB SWAP1 REVERT JUMPDEST PUSH1 0x7 PUSH1 0x0 DUP2 SLOAD DUP1 SWAP3 SWAP2 SWAP1 PUSH2 0x99F SWAP1 PUSH2 0x43B5 JUMP JUMPDEST SWAP2 SWAP1 POP SSTORE POP PUSH1 0x0 PUSH1 0x8 PUSH1 0x0 PUSH1 0x7 SLOAD DUP2 MSTORE PUSH1 0x20 ADD SWAP1 DUP2 MSTORE PUSH1 0x20 ADD PUSH1 0x0 KECCAK256 SWAP1 POP PUSH1 0x7 SLOAD DUP2 PUSH1 0x0 ADD DUP2 SWAP1 SSTORE POP PUSH1 0x0 DUP2 PUSH1 0x1 ADD DUP2 SWAP1 SSTORE POP DUP3 DUP2 PUSH1 0x2 ADD SWAP1 DUP2 PUSH2 0x9E3 SWAP2 SWAP1 PUSH2 0x4609 JUMP JUMPDEST POP CALLER DUP2 PUSH1 0x3 ADD PUSH1 0x0 PUSH2 0x100 EXP DUP2 SLOAD DUP2 PUSH20 0xFFFFFFFFFFFFFFFFFFFFFFFFFFFFFFFFFFFFFFFF MUL NOT AND SWAP1 DUP4 PUSH20 0xFFFFFFFFFFFFFFFFFFFFFFFFFFFFFFFFFFFFFFFF AND MUL OR SWAP1 SSTORE POP PUSH1 0x0 DUP2 PUSH1 0x4 ADD DUP2 SWAP1 SSTORE POP PUSH1 0x7 SLOAD PUSH1 0x9 PUSH1 0x0 CALLER PUSH20 0xFFFFFFFFFFFFFFFFFFFFFFFFFFFFFFFFFFFFFFFF AND PUSH20 0xFFFFFFFFFFFFFFFFFFFFFFFFFFFFFFFFFFFFFFFF AND DUP2 MSTORE PUSH1 0x20 ADD SWAP1 DUP2 MSTORE PUSH1 0x20 ADD PUSH1 0x0 KECCAK256 DUP2 SWAP1 SSTORE POP PUSH1 0x7 SLOAD SWAP2 POP POP SWAP2 SWAP1 POP JUMP JUMPDEST PUSH1 0x0 PUSH1 0x1 PUSH1 0x0 DUP4 DUP2 MSTORE PUSH1 0x20 ADD SWAP1 DUP2 MSTORE PUSH1 0x20 ADD PUSH1 0x0 KECCAK256 PUSH1 0x9 ADD SLOAD SWAP1 POP SWAP2 SWAP1 POP JUMP JUMPDEST PUSH1 0x9 PUSH1 0x20 MSTORE DUP1 PUSH1 0x0 MSTORE PUSH1 0x40 PUSH1 0x0 KECCAK256 PUSH1 0x0 SWAP2 POP SWAP1 POP SLOAD DUP2 JUMP JUMPDEST DUP2 PUSH1 0x1 PUSH1 0x0 DUP4 DUP2 MSTORE PUSH1 0x20 ADD SWAP1 DUP2 MSTORE PUSH1 0x20 ADD PUSH1 0x0 KECCAK256 PUSH1 0x2 ADD PUSH1 0x1 ADD DUP2 SWAP1 SSTORE POP POP POP JUMP JUMPDEST PUSH1 0x0 DUP1 PUSH1 0x0 PUSH1 0x8 PUSH1 0x0 DUP8 DUP2 MSTORE PUSH1 0x20 ADD SWAP1 DUP2 MSTORE PUSH1 0x20 ADD PUSH1 0x0 KECCAK256 PUSH1 0x6 ADD PUSH1 0x1 DUP2 PUSH1 0x1 DUP2 SLOAD ADD DUP1 DUP3 SSTORE DUP1 SWAP2 POP POP SUB SWAP1 PUSH1 0x0 MSTORE PUSH1 0x20 PUSH1 0x0 KECCAK256 SWAP1 PUSH1 0x6 MUL ADD SWAP1 POP PUSH1 0x6 PUSH1 0x0 DUP2 SLOAD DUP1 SWAP3 SWAP2 SWAP1 PUSH2 0xB2A SWAP1 PUSH2 0x43B5 JUMP JUMPDEST SWAP2 SWAP1 POP SSTORE POP PUSH1 0x6 SLOAD DUP2 PUSH1 0x0 ADD DUP2 SWAP1 SSTORE POP DUP7 DUP2 PUSH1 0x1 ADD DUP2 SWAP1 SSTORE POP DUP5 DUP2 PUSH1 0x2 ADD SWAP1 DUP2 PUSH2 0xB54 SWAP2 SWAP1 PUSH2 0x4609 JUMP JUMPDEST POP DUP4 DUP2 PUSH1 0x3 ADD SWAP1 DUP2 PUSH2 0xB66 SWAP2 SWAP1 PUSH2 0x4609 JUMP JUMPDEST POP PUSH1 0x2 DUP2 PUSH1 0x4 ADD PUSH1 0x0 PUSH2 0x100 EXP DUP2 SLOAD DUP2 PUSH1 0xFF MUL NOT AND SWAP1 DUP4 PUSH1 0x2 DUP2 GT ISZERO PUSH2 0xB8F JUMPI PUSH2 0xB8E PUSH2 0x3D30 JUMP JUMPDEST JUMPDEST MUL OR SWAP1 SSTORE POP PUSH1 0x1 PUSH1 0x6 SLOAD SWAP3 POP SWAP3 POP POP SWAP5 POP SWAP5 SWAP3 POP POP POP JUMP JUMPDEST PUSH1 0x8 PUSH1 0x20 MSTORE DUP1 PUSH1 0x0 MSTORE PUSH1 0x40 PUSH1 0x0 KECCAK256 PUSH1 0x0 SWAP2 POP SWAP1 POP DUP1 PUSH1 0x0 ADD SLOAD SWAP1 DUP1 PUSH1 0x1 ADD SLOAD SWAP1 DUP1 PUSH1 0x2 ADD DUP1 SLOAD PUSH2 0xBD6 SWAP1 PUSH2 0x442C JUMP JUMPDEST DUP1 PUSH1 0x1F ADD PUSH1 0x20 DUP1 SWAP2 DIV MUL PUSH1 0x20 ADD PUSH1 0x40 MLOAD SWAP1 DUP2 ADD PUSH1 0x40 MSTORE DUP1 SWAP3 SWAP2 SWAP1 DUP2 DUP2 MSTORE PUSH1 0x20 ADD DUP3 DUP1 SLOAD PUSH2 0xC02 SWAP1 PUSH2 0x442C JUMP JUMPDEST DUP1 ISZERO PUSH2 0xC4F JUMPI DUP1 PUSH1 0x1F LT PUSH2 0xC24 JUMPI PUSH2 0x100 DUP1 DUP4 SLOAD DIV MUL DUP4 MSTORE SWAP2 PUSH1 0x20 ADD SWAP2 PUSH2 0xC4F JUMP JUMPDEST DUP3 ADD SWAP2 SWAP1 PUSH1 0x0 MSTORE PUSH1 0x20 PUSH1 0x0 KECCAK256 SWAP1 JUMPDEST DUP2 SLOAD DUP2 MSTORE SWAP1 PUSH1 0x1 ADD SWAP1 PUSH1 0x20 ADD DUP1 DUP4 GT PUSH2 0xC32 JUMPI DUP3 SWAP1 SUB PUSH1 0x1F AND DUP3 ADD SWAP2 JUMPDEST POP POP POP POP POP SWAP1 DUP1 PUSH1 0x3 ADD PUSH1 0x0 SWAP1 SLOAD SWAP1 PUSH2 0x100 EXP SWAP1 DIV PUSH20 0xFFFFFFFFFFFFFFFFFFFFFFFFFFFFFFFFFFFFFFFF AND SWAP1 DUP1 PUSH1 0x4 ADD SLOAD SWAP1 POP DUP6 JUMP JUMPDEST PUSH1 0x0 DUP6 PUSH1 0x7 SLOAD DUP2 GT ISZERO DUP1 ISZERO PUSH2 0xC9B JUMPI POP PUSH1 0x0 DUP2 EQ ISZERO JUMPDEST PUSH2 0xCDA JUMPI PUSH1 0x40 MLOAD PUSH32 0x8C379A000000000000000000000000000000000000000000000000000000000 DUP2 MSTORE PUSH1 0x4 ADD PUSH2 0xCD1 SWAP1 PUSH2 0x4727 JUMP JUMPDEST PUSH1 0x40 MLOAD DUP1 SWAP2 SUB SWAP1 REVERT JUMPDEST DUP7 CALLER PUSH20 0xFFFFFFFFFFFFFFFFFFFFFFFFFFFFFFFFFFFFFFFF AND PUSH1 0x8 PUSH1 0x0 DUP4 DUP2 MSTORE PUSH1 0x20 ADD SWAP1 DUP2 MSTORE PUSH1 0x20 ADD PUSH1 0x0 KECCAK256 PUSH1 0x3 ADD PUSH1 0x0 SWAP1 SLOAD SWAP1 PUSH2 0x100 EXP SWAP1 DIV PUSH20 0xFFFFFFFFFFFFFFFFFFFFFFFFFFFFFFFFFFFFFFFF AND PUSH20 0xFFFFFFFFFFFFFFFFFFFFFFFFFFFFFFFFFFFFFFFF AND EQ PUSH2 0xD7F JUMPI PUSH1 0x40 MLOAD PUSH32 0x8C379A000000000000000000000000000000000000000000000000000000000 DUP2 MSTORE PUSH1 0x4 ADD PUSH2 0xD76 SWAP1 PUSH2 0x4793 JUMP JUMPDEST PUSH1 0x40 MLOAD DUP1 SWAP2 SUB SWAP1 REVERT JUMPDEST PUSH1 0x1 PUSH1 0x4 PUSH1 0x0 SWAP1 SLOAD SWAP1 PUSH2 0x100 EXP SWAP1 DIV PUSH20 0xFFFFFFFFFFFFFFFFFFFFFFFFFFFFFFFFFFFFFFFF AND PUSH20 0xFFFFFFFFFFFFFFFFFFFFFFFFFFFFFFFFFFFFFFFF AND PUSH4 0xB9B7650A CALLER PUSH1 0x40 MLOAD DUP3 PUSH4 0xFFFFFFFF AND PUSH1 0xE0 SHL DUP2 MSTORE PUSH1 0x4 ADD PUSH2 0xDDC SWAP2 SWAP1 PUSH2 0x4272 JUMP JUMPDEST PUSH1 0x20 PUSH1 0x40 MLOAD DUP1 DUP4 SUB DUP2 DUP7 GAS STATICCALL ISZERO DUP1 ISZERO PUSH2 0xDF9 JUMPI RETURNDATASIZE PUSH1 0x0 DUP1 RETURNDATACOPY RETURNDATASIZE PUSH1 0x0 REVERT JUMPDEST POP POP POP POP PUSH1 0x40 MLOAD RETURNDATASIZE PUSH1 0x1F NOT PUSH1 0x1F DUP3 ADD AND DUP3 ADD DUP1 PUSH1 0x40 MSTORE POP DUP2 ADD SWAP1 PUSH2 0xE1D SWAP2 SWAP1 PUSH2 0x47C8 JUMP JUMPDEST GT PUSH2 0xE5D JUMPI PUSH1 0x40 MLOAD PUSH32 0x8C379A000000000000000000000000000000000000000000000000000000000 DUP2 MSTORE PUSH1 0x4 ADD PUSH2 0xE54 SWAP1 PUSH2 0x4867 JUMP JUMPDEST PUSH1 0x40 MLOAD DUP1 SWAP2 SUB SWAP1 REVERT JUMPDEST PUSH3 0x989680 DUP6 GT PUSH2 0xEA2 JUMPI PUSH1 0x40 MLOAD PUSH32 0x8C379A000000000000000000000000000000000000000000000000000000000 DUP2 MSTORE PUSH1 0x4 ADD PUSH2 0xE99 SWAP1 PUSH2 0x48D3 JUMP JUMPDEST PUSH1 0x40 MLOAD DUP1 SWAP2 SUB SWAP1 REVERT JUMPDEST PUSH3 0x989680 DUP5 GT PUSH2 0xEE7 JUMPI PUSH1 0x40 MLOAD PUSH32 0x8C379A000000000000000000000000000000000000000000000000000000000 DUP2 MSTORE PUSH1 0x4 ADD PUSH2 0xEDE SWAP1 PUSH2 0x493F JUMP JUMPDEST PUSH1 0x40 MLOAD DUP1 SWAP2 SUB SWAP1 REVERT JUMPDEST DUP4 DUP6 LT PUSH2 0xF29 JUMPI PUSH1 0x40 MLOAD PUSH32 0x8C379A000000000000000000000000000000000000000000000000000000000 DUP2 MSTORE PUSH1 0x4 ADD PUSH2 0xF20 SWAP1 PUSH2 0x493F JUMP JUMPDEST PUSH1 0x40 MLOAD DUP1 SWAP2 SUB SWAP1 REVERT JUMPDEST PUSH1 0x0 DUP1 DUP2 SLOAD DUP1 SWAP3 SWAP2 SWAP1 PUSH2 0xF3B SWAP1 PUSH2 0x43B5 JUMP JUMPDEST SWAP2 SWAP1 POP SSTORE POP PUSH1 0x0 PUSH1 0x1 PUSH1 0x0 DUP1 SLOAD DUP2 MSTORE PUSH1 0x20 ADD SWAP1 DUP2 MSTORE PUSH1 0x20 ADD PUSH1 0x0 KECCAK256 SWAP1 POP PUSH1 0x3 PUSH1 0x0 DUP12 DUP2 MSTORE PUSH1 0x20 ADD SWAP1 DUP2 MSTORE PUSH1 0x20 ADD PUSH1 0x0 KECCAK256 DUP2 PUSH1 0x2 ADD PUSH1 0x0 DUP3 ADD SLOAD DUP2 PUSH1 0x0 ADD SSTORE PUSH1 0x1 DUP3 ADD SLOAD DUP2 PUSH1 0x1 ADD SSTORE PUSH1 0x2 DUP3 ADD SLOAD DUP2 PUSH1 0x2 ADD SSTORE PUSH1 0x3 DUP3 ADD SLOAD DUP2 PUSH1 0x3 ADD SSTORE SWAP1 POP POP DUP9 DUP2 PUSH1 0x1 ADD DUP2 SWAP1 SSTORE POP DUP8 DUP2 PUSH1 0x6 ADD DUP2 SWAP1 SSTORE POP PUSH1 0x0 DUP2 PUSH1 0x7 ADD DUP2 SWAP1 SSTORE POP DUP7 DUP2 PUSH1 0x8 ADD PUSH1 0x0 PUSH2 0x100 EXP DUP2 SLOAD DUP2 PUSH1 0xFF MUL NOT AND SWAP1 DUP4 PUSH1 0x1 DUP2 GT ISZERO PUSH2 0xFDD JUMPI PUSH2 0xFDC PUSH2 0x3D30 JUMP JUMPDEST JUMPDEST MUL OR SWAP1 SSTORE POP PUSH1 0x0 DUP2 PUSH1 0x8 ADD PUSH1 0x1 PUSH2 0x100 EXP DUP2 SLOAD DUP2 PUSH1 0xFF MUL NOT AND SWAP1 DUP4 PUSH1 0x5 DUP2 GT ISZERO PUSH2 0x100A JUMPI PUSH2 0x1009 PUSH2 0x3D30 JUMP JUMPDEST JUMPDEST MUL OR SWAP1 SSTORE POP DUP6 DUP2 PUSH1 0x9 ADD DUP2 SWAP1 SSTORE POP DUP5 DUP2 PUSH1 0xA ADD DUP2 SWAP1 SSTORE POP PUSH1 0x0 SLOAD SWAP4 POP POP POP POP SWAP7 SWAP6 POP POP POP POP POP POP JUMP JUMPDEST PUSH1 0x0 PUSH1 0x1 PUSH1 0x0 DUP4 DUP2 MSTORE PUSH1 0x20 ADD SWAP1 DUP2 MSTORE PUSH1 0x20 ADD PUSH1 0x0 KECCAK256 PUSH1 0x2 ADD PUSH1 0x1 ADD SLOAD SWAP1 POP SWAP2 SWAP1 POP JUMP JUMPDEST DUP1 PUSH1 0x7 SLOAD DUP2 GT ISZERO DUP1 ISZERO PUSH2 0x106A JUMPI POP PUSH1 0x0 DUP2 EQ ISZERO JUMPDEST PUSH2 0x10A9 JUMPI PUSH1 0x40 MLOAD PUSH32 0x8C379A000000000000000000000000000000000000000000000000000000000 DUP2 MSTORE PUSH1 0x4 ADD PUSH2 0x10A0 SWAP1 PUSH2 0x4727 JUMP JUMPDEST PUSH1 0x40 MLOAD DUP1 SWAP2 SUB SWAP1 REVERT JUMPDEST DUP2 CALLER PUSH20 0xFFFFFFFFFFFFFFFFFFFFFFFFFFFFFFFFFFFFFFFF AND PUSH1 0x8 PUSH1 0x0 DUP4 DUP2 MSTORE PUSH1 0x20 ADD SWAP1 DUP2 MSTORE PUSH1 0x20 ADD PUSH1 0x0 KECCAK256 PUSH1 0x3 ADD PUSH1 0x0 SWAP1 SLOAD SWAP1 PUSH2 0x100 EXP SWAP1 DIV PUSH20 0xFFFFFFFFFFFFFFFFFFFFFFFFFFFFFFFFFFFFFFFF AND PUSH20 0xFFFFFFFFFFFFFFFFFFFFFFFFFFFFFFFFFFFFFFFF AND EQ PUSH2 0x114E JUMPI PUSH1 0x40 MLOAD PUSH32 0x8C379A000000000000000000000000000000000000000000000000000000000 DUP2 MSTORE PUSH1 0x4 ADD PUSH2 0x1145 SWAP1 PUSH2 0x4793 JUMP JUMPDEST PUSH1 0x40 MLOAD DUP1 SWAP2 SUB SWAP1 REVERT JUMPDEST PUSH1 0x0 DUP5 SUB PUSH2 0x1191 JUMPI PUSH1 0x40 MLOAD PUSH32 0x8C379A000000000000000000000000000000000000000000000000000000000 DUP2 MSTORE PUSH1 0x4 ADD PUSH2 0x1188 SWAP1 PUSH2 0x49AB JUMP JUMPDEST PUSH1 0x40 MLOAD DUP1 SWAP2 SUB SWAP1 REVERT JUMPDEST PUSH1 0x0 DUP1 PUSH1 0x8 PUSH1 0x0 DUP7 DUP2 MSTORE PUSH1 0x20 ADD SWAP1 DUP2 MSTORE PUSH1 0x20 ADD PUSH1 0x0 KECCAK256 PUSH1 0x6 ADD DUP1 SLOAD DUP1 PUSH1 0x20 MUL PUSH1 0x20 ADD PUSH1 0x40 MLOAD SWAP1 DUP2 ADD PUSH1 0x40 MSTORE DUP1 SWAP3 SWAP2 SWAP1 DUP2 DUP2 MSTORE PUSH1 0x20 ADD PUSH1 0x0 SWAP1 JUMPDEST DUP3 DUP3 LT ISZERO PUSH2 0x1379 JUMPI DUP4 DUP3 SWAP1 PUSH1 0x0 MSTORE PUSH1 0x20 PUSH1 0x0 KECCAK256 SWAP1 PUSH1 0x6 MUL ADD PUSH1 0x40 MLOAD DUP1 PUSH1 0xC0 ADD PUSH1 0x40 MSTORE SWAP1 DUP2 PUSH1 0x0 DUP3 ADD SLOAD DUP2 MSTORE PUSH1 0x20 ADD PUSH1 0x1 DUP3 ADD SLOAD DUP2 MSTORE PUSH1 0x20 ADD PUSH1 0x2 DUP3 ADD DUP1 SLOAD PUSH2 0x1211 SWAP1 PUSH2 0x442C JUMP JUMPDEST DUP1 PUSH1 0x1F ADD PUSH1 0x20 DUP1 SWAP2 DIV MUL PUSH1 0x20 ADD PUSH1 0x40 MLOAD SWAP1 DUP2 ADD PUSH1 0x40 MSTORE DUP1 SWAP3 SWAP2 SWAP1 DUP2 DUP2 MSTORE PUSH1 0x20 ADD DUP3 DUP1 SLOAD PUSH2 0x123D SWAP1 PUSH2 0x442C JUMP JUMPDEST DUP1 ISZERO PUSH2 0x128A JUMPI DUP1 PUSH1 0x1F LT PUSH2 0x125F JUMPI PUSH2 0x100 DUP1 DUP4 SLOAD DIV MUL DUP4 MSTORE SWAP2 PUSH1 0x20 ADD SWAP2 PUSH2 0x128A JUMP JUMPDEST DUP3 ADD SWAP2 SWAP1 PUSH1 0x0 MSTORE PUSH1 0x20 PUSH1 0x0 KECCAK256 SWAP1 JUMPDEST DUP2 SLOAD DUP2 MSTORE SWAP1 PUSH1 0x1 ADD SWAP1 PUSH1 0x20 ADD DUP1 DUP4 GT PUSH2 0x126D JUMPI DUP3 SWAP1 SUB PUSH1 0x1F AND DUP3 ADD SWAP2 JUMPDEST POP POP POP POP POP DUP2 MSTORE PUSH1 0x20 ADD PUSH1 0x3 DUP3 ADD DUP1 SLOAD PUSH2 0x12A3 SWAP1 PUSH2 0x442C JUMP JUMPDEST DUP1 PUSH1 0x1F ADD PUSH1 0x20 DUP1 SWAP2 DIV MUL PUSH1 0x20 ADD PUSH1 0x40 MLOAD SWAP1 DUP2 ADD PUSH1 0x40 MSTORE DUP1 SWAP3 SWAP2 SWAP1 DUP2 DUP2 MSTORE PUSH1 0x20 ADD DUP3 DUP1 SLOAD PUSH2 0x12CF SWAP1 PUSH2 0x442C JUMP JUMPDEST DUP1 ISZERO PUSH2 0x131C JUMPI DUP1 PUSH1 0x1F LT PUSH2 0x12F1 JUMPI PUSH2 0x100 DUP1 DUP4 SLOAD DIV MUL DUP4 MSTORE SWAP2 PUSH1 0x20 ADD SWAP2 PUSH2 0x131C JUMP JUMPDEST DUP3 ADD SWAP2 SWAP1 PUSH1 0x0 MSTORE PUSH1 0x20 PUSH1 0x0 KECCAK256 SWAP1 JUMPDEST DUP2 SLOAD DUP2 MSTORE SWAP1 PUSH1 0x1 ADD SWAP1 PUSH1 0x20 ADD DUP1 DUP4 GT PUSH2 0x12FF JUMPI DUP3 SWAP1 SUB PUSH1 0x1F AND DUP3 ADD SWAP2 JUMPDEST POP POP POP POP POP DUP2 MSTORE PUSH1 0x20 ADD PUSH1 0x4 DUP3 ADD PUSH1 0x0 SWAP1 SLOAD SWAP1 PUSH2 0x100 EXP SWAP1 DIV PUSH1 0xFF AND PUSH1 0x2 DUP2 GT ISZERO PUSH2 0x134A JUMPI PUSH2 0x1349 PUSH2 0x3D30 JUMP JUMPDEST JUMPDEST PUSH1 0x2 DUP2 GT ISZERO PUSH2 0x135C JUMPI PUSH2 0x135B PUSH2 0x3D30 JUMP JUMPDEST JUMPDEST DUP2 MSTORE PUSH1 0x20 ADD PUSH1 0x5 DUP3 ADD SLOAD DUP2 MSTORE POP POP DUP2 MSTORE PUSH1 0x20 ADD SWAP1 PUSH1 0x1 ADD SWAP1 PUSH2 0x11CA JUMP JUMPDEST POP POP POP POP SWAP1 POP PUSH1 0x0 DUP2 MLOAD SWAP1 POP PUSH1 0x0 DUP1 JUMPDEST DUP3 DUP2 LT ISZERO PUSH2 0x13D1 JUMPI DUP9 DUP5 DUP3 DUP2 MLOAD DUP2 LT PUSH2 0x13A5 JUMPI PUSH2 0x13A4 PUSH2 0x49CB JUMP JUMPDEST JUMPDEST PUSH1 0x20 MUL PUSH1 0x20 ADD ADD MLOAD PUSH1 0x0 ADD MLOAD SUB PUSH2 0x13BE JUMPI DUP1 SWAP5 POP PUSH1 0x1 SWAP2 POP JUMPDEST DUP1 DUP1 PUSH2 0x13C9 SWAP1 PUSH2 0x43B5 JUMP JUMPDEST SWAP2 POP POP PUSH2 0x1389 JUMP JUMPDEST POP PUSH1 0x1 ISZERO ISZERO DUP2 ISZERO ISZERO EQ PUSH2 0x1419 JUMPI PUSH1 0x40 MLOAD PUSH32 0x8C379A000000000000000000000000000000000000000000000000000000000 DUP2 MSTORE PUSH1 0x4 ADD PUSH2 0x1410 SWAP1 PUSH2 0x4A46 JUMP JUMPDEST PUSH1 0x40 MLOAD DUP1 SWAP2 SUB SWAP1 REVERT JUMPDEST DUP1 ISZERO PUSH2 0x14A2 JUMPI PUSH1 0x1 DUP4 DUP6 DUP2 MLOAD DUP2 LT PUSH2 0x1434 JUMPI PUSH2 0x1433 PUSH2 0x49CB JUMP JUMPDEST JUMPDEST PUSH1 0x20 MUL PUSH1 0x20 ADD ADD MLOAD PUSH1 0x80 ADD SWAP1 PUSH1 0x2 DUP2 GT ISZERO PUSH2 0x1452 JUMPI PUSH2 0x1451 PUSH2 0x3D30 JUMP JUMPDEST JUMPDEST SWAP1 DUP2 PUSH1 0x2 DUP2 GT ISZERO PUSH2 0x1466 JUMPI PUSH2 0x1465 PUSH2 0x3D30 JUMP JUMPDEST JUMPDEST DUP2 MSTORE POP POP PUSH32 0x8D7FED20D7D8248D56D7367C40D71B598AADEF2C219EEB23C765211306D8CCE8 DUP9 PUSH1 0x40 MLOAD PUSH2 0x1499 SWAP2 SWAP1 PUSH2 0x3878 JUMP JUMPDEST PUSH1 0x40 MLOAD DUP1 SWAP2 SUB SWAP1 LOG1 JUMPDEST POP POP POP POP POP POP POP POP JUMP JUMPDEST PUSH1 0x3 PUSH1 0x20 MSTORE DUP1 PUSH1 0x0 MSTORE PUSH1 0x40 PUSH1 0x0 KECCAK256 PUSH1 0x0 SWAP2 POP SWAP1 POP DUP1 PUSH1 0x0 ADD SLOAD SWAP1 DUP1 PUSH1 0x1 ADD SLOAD SWAP1 DUP1 PUSH1 0x2 ADD SLOAD SWAP1 DUP1 PUSH1 0x3 ADD SLOAD SWAP1 POP DUP5 JUMP JUMPDEST DUP3 DUP2 DUP1 PUSH1 0x1 PUSH1 0x0 DUP5 DUP2 MSTORE PUSH1 0x20 ADD SWAP1 DUP2 MSTORE PUSH1 0x20 ADD PUSH1 0x0 KECCAK256 PUSH1 0x2 ADD PUSH1 0x0 ADD SLOAD EQ PUSH2 0x1539 JUMPI PUSH1 0x40 MLOAD PUSH32 0x8C379A000000000000000000000000000000000000000000000000000000000 DUP2 MSTORE PUSH1 0x4 ADD PUSH2 0x1530 SWAP1 PUSH2 0x4AB2 JUMP JUMPDEST PUSH1 0x40 MLOAD DUP1 SWAP2 SUB SWAP1 REVERT JUMPDEST PUSH1 0x0 PUSH1 0x8 PUSH1 0x0 PUSH1 0x1 PUSH1 0x0 DUP10 DUP2 MSTORE PUSH1 0x20 ADD SWAP1 DUP2 MSTORE PUSH1 0x20 ADD PUSH1 0x0 KECCAK256 PUSH1 0x1 ADD SLOAD DUP2 MSTORE PUSH1 0x20 ADD SWAP1 DUP2 MSTORE PUSH1 0x20 ADD PUSH1 0x0 KECCAK256 PUSH1 0x3 ADD PUSH1 0x0 SWAP1 SLOAD SWAP1 PUSH2 0x100 EXP SWAP1 DIV PUSH20 0xFFFFFFFFFFFFFFFFFFFFFFFFFFFFFFFFFFFFFFFF AND SWAP1 POP PUSH1 0x4 PUSH1 0x0 SWAP1 SLOAD SWAP1 PUSH2 0x100 EXP SWAP1 DIV PUSH20 0xFFFFFFFFFFFFFFFFFFFFFFFFFFFFFFFFFFFFFFFF AND PUSH20 0xFFFFFFFFFFFFFFFFFFFFFFFFFFFFFFFFFFFFFFFF AND PUSH4 0x3456EA30 CALLER DUP4 DUP9 PUSH1 0x40 MLOAD DUP5 PUSH4 0xFFFFFFFF AND PUSH1 0xE0 SHL DUP2 MSTORE PUSH1 0x4 ADD PUSH2 0x15E9 SWAP4 SWAP3 SWAP2 SWAP1 PUSH2 0x4AD2 JUMP JUMPDEST PUSH1 0x0 PUSH1 0x40 MLOAD DUP1 DUP4 SUB DUP2 PUSH1 0x0 DUP8 DUP1 EXTCODESIZE ISZERO DUP1 ISZERO PUSH2 0x1603 JUMPI PUSH1 0x0 DUP1 REVERT JUMPDEST POP GAS CALL ISZERO DUP1 ISZERO PUSH2 0x1617 JUMPI RETURNDATASIZE PUSH1 0x0 DUP1 RETURNDATACOPY RETURNDATASIZE PUSH1 0x0 REVERT JUMPDEST POP POP POP POP DUP5 PUSH1 0x1 PUSH1 0x0 DUP9 DUP2 MSTORE PUSH1 0x20 ADD SWAP1 DUP2 MSTORE PUSH1 0x20 ADD PUSH1 0x0 KECCAK256 PUSH1 0x7 ADD PUSH1 0x0 DUP3 DUP3 SLOAD PUSH2 0x1641 SWAP2 SWAP1 PUSH2 0x4B09 JUMP JUMPDEST SWAP3 POP POP DUP2 SWAP1 SSTORE POP PUSH1 0x1 PUSH1 0x0 DUP8 DUP2 MSTORE PUSH1 0x20 ADD SWAP1 DUP2 MSTORE PUSH1 0x20 ADD PUSH1 0x0 KECCAK256 PUSH1 0x6 ADD SLOAD PUSH1 0x1 PUSH1 0x0 DUP9 DUP2 MSTORE PUSH1 0x20 ADD SWAP1 DUP2 MSTORE PUSH1 0x20 ADD PUSH1 0x0 KECCAK256 PUSH1 0x7 ADD SLOAD SUB PUSH2 0x16BB JUMPI PUSH1 0x3 PUSH1 0x1 PUSH1 0x0 DUP9 DUP2 MSTORE PUSH1 0x20 ADD SWAP1 DUP2 MSTORE PUSH1 0x20 ADD PUSH1 0x0 KECCAK256 PUSH1 0x8 ADD PUSH1 0x1 PUSH2 0x100 EXP DUP2 SLOAD DUP2 PUSH1 0xFF MUL NOT AND SWAP1 DUP4 PUSH1 0x5 DUP2 GT ISZERO PUSH2 0x16B5 JUMPI PUSH2 0x16B4 PUSH2 0x3D30 JUMP JUMPDEST JUMPDEST MUL OR SWAP1 SSTORE POP JUMPDEST PUSH32 0x93E71AF69425AB98903353CC1F5235ADD61A8F2F0875DF40104A9161ECFCA332 DUP7 PUSH1 0x40 MLOAD PUSH2 0x16EA SWAP2 SWAP1 PUSH2 0x3878 JUMP JUMPDEST PUSH1 0x40 MLOAD DUP1 SWAP2 SUB SWAP1 LOG1 POP POP POP POP POP POP JUMP JUMPDEST PUSH1 0x0 PUSH1 0x1 PUSH1 0x0 DUP4 DUP2 MSTORE PUSH1 0x20 ADD SWAP1 DUP2 MSTORE PUSH1 0x20 ADD PUSH1 0x0 KECCAK256 PUSH1 0x7 ADD SLOAD PUSH1 0x1 PUSH1 0x0 DUP5 DUP2 MSTORE PUSH1 0x20 ADD SWAP1 DUP2 MSTORE PUSH1 0x20 ADD PUSH1 0x0 KECCAK256 PUSH1 0x6 ADD SLOAD PUSH2 0x1734 SWAP2 SWAP1 PUSH2 0x4B3D JUMP JUMPDEST SWAP1 POP SWAP2 SWAP1 POP JUMP JUMPDEST PUSH1 0x0 PUSH1 0x1 PUSH1 0x0 DUP4 DUP2 MSTORE PUSH1 0x20 ADD SWAP1 DUP2 MSTORE PUSH1 0x20 ADD PUSH1 0x0 KECCAK256 PUSH1 0x6 ADD SLOAD SWAP1 POP SWAP2 SWAP1 POP JUMP JUMPDEST PUSH1 0x1 PUSH1 0x20 MSTORE DUP1 PUSH1 0x0 MSTORE PUSH1 0x40 PUSH1 0x0 KECCAK256 PUSH1 0x0 SWAP2 POP SWAP1 POP DUP1 PUSH1 0x0 ADD SLOAD SWAP1 DUP1 PUSH1 0x1 ADD SLOAD SWAP1 DUP1 PUSH1 0x2 ADD PUSH1 0x40 MLOAD DUP1 PUSH1 0x80 ADD PUSH1 0x40 MSTORE SWAP1 DUP2 PUSH1 0x0 DUP3 ADD SLOAD DUP2 MSTORE PUSH1 0x20 ADD PUSH1 0x1 DUP3 ADD SLOAD DUP2 MSTORE PUSH1 0x20 ADD PUSH1 0x2 DUP3 ADD SLOAD DUP2 MSTORE PUSH1 0x20 ADD PUSH1 0x3 DUP3 ADD SLOAD DUP2 MSTORE POP POP SWAP1 DUP1 PUSH1 0x6 ADD SLOAD SWAP1 DUP1 PUSH1 0x7 ADD SLOAD SWAP1 DUP1 PUSH1 0x8 ADD PUSH1 0x0 SWAP1 SLOAD SWAP1 PUSH2 0x100 EXP SWAP1 DIV PUSH1 0xFF AND SWAP1 DUP1 PUSH1 0x8 ADD PUSH1 0x1 SWAP1 SLOAD SWAP1 PUSH2 0x100 EXP SWAP1 DIV PUSH1 0xFF AND SWAP1 DUP1 PUSH1 0x9 ADD SLOAD SWAP1 DUP1 PUSH1 0xA ADD SLOAD SWAP1 POP DUP10 JUMP JUMPDEST PUSH1 0x0 PUSH1 0x1 PUSH1 0x0 DUP4 DUP2 MSTORE PUSH1 0x20 ADD SWAP1 DUP2 MSTORE PUSH1 0x20 ADD PUSH1 0x0 KECCAK256 PUSH1 0x8 ADD PUSH1 0x1 SWAP1 SLOAD SWAP1 PUSH2 0x100 EXP SWAP1 DIV PUSH1 0xFF AND SWAP1 POP SWAP2 SWAP1 POP JUMP JUMPDEST PUSH1 0x0 DUP1 PUSH1 0x0 DUP4 SUB PUSH2 0x1868 JUMPI PUSH1 0x40 MLOAD PUSH32 0x8C379A000000000000000000000000000000000000000000000000000000000 DUP2 MSTORE PUSH1 0x4 ADD PUSH2 0x185F SWAP1 PUSH2 0x4A46 JUMP JUMPDEST PUSH1 0x40 MLOAD DUP1 SWAP2 SUB SWAP1 REVERT JUMPDEST PUSH1 0x0 DUP1 PUSH1 0x8 PUSH1 0x0 DUP8 DUP2 MSTORE PUSH1 0x20 ADD SWAP1 DUP2 MSTORE PUSH1 0x20 ADD PUSH1 0x0 KECCAK256 PUSH1 0x6 ADD DUP1 SLOAD DUP1 PUSH1 0x20 MUL PUSH1 0x20 ADD PUSH1 0x40 MLOAD SWAP1 DUP2 ADD PUSH1 0x40 MSTORE DUP1 SWAP3 SWAP2 SWAP1 DUP2 DUP2 MSTORE PUSH1 0x20 ADD PUSH1 0x0 SWAP1 JUMPDEST DUP3 DUP3 LT ISZERO PUSH2 0x1A50 JUMPI DUP4 DUP3 SWAP1 PUSH1 0x0 MSTORE PUSH1 0x20 PUSH1 0x0 KECCAK256 SWAP1 PUSH1 0x6 MUL ADD PUSH1 0x40 MLOAD DUP1 PUSH1 0xC0 ADD PUSH1 0x40 MSTORE SWAP1 DUP2 PUSH1 0x0 DUP3 ADD SLOAD DUP2 MSTORE PUSH1 0x20 ADD PUSH1 0x1 DUP3 ADD SLOAD DUP2 MSTORE PUSH1 0x20 ADD PUSH1 0x2 DUP3 ADD DUP1 SLOAD PUSH2 0x18E8 SWAP1 PUSH2 0x442C JUMP JUMPDEST DUP1 PUSH1 0x1F ADD PUSH1 0x20 DUP1 SWAP2 DIV MUL PUSH1 0x20 ADD PUSH1 0x40 MLOAD SWAP1 DUP2 ADD PUSH1 0x40 MSTORE DUP1 SWAP3 SWAP2 SWAP1 DUP2 DUP2 MSTORE PUSH1 0x20 ADD DUP3 DUP1 SLOAD PUSH2 0x1914 SWAP1 PUSH2 0x442C JUMP JUMPDEST DUP1 ISZERO PUSH2 0x1961 JUMPI DUP1 PUSH1 0x1F LT PUSH2 0x1936 JUMPI PUSH2 0x100 DUP1 DUP4 SLOAD DIV MUL DUP4 MSTORE SWAP2 PUSH1 0x20 ADD SWAP2 PUSH2 0x1961 JUMP JUMPDEST DUP3 ADD SWAP2 SWAP1 PUSH1 0x0 MSTORE PUSH1 0x20 PUSH1 0x0 KECCAK256 SWAP1 JUMPDEST DUP2 SLOAD DUP2 MSTORE SWAP1 PUSH1 0x1 ADD SWAP1 PUSH1 0x20 ADD DUP1 DUP4 GT PUSH2 0x1944 JUMPI DUP3 SWAP1 SUB PUSH1 0x1F AND DUP3 ADD SWAP2 JUMPDEST POP POP POP POP POP DUP2 MSTORE PUSH1 0x20 ADD PUSH1 0x3 DUP3 ADD DUP1 SLOAD PUSH2 0x197A SWAP1 PUSH2 0x442C JUMP JUMPDEST DUP1 PUSH1 0x1F ADD PUSH1 0x20 DUP1 SWAP2 DIV MUL PUSH1 0x20 ADD PUSH1 0x40 MLOAD SWAP1 DUP2 ADD PUSH1 0x40 MSTORE DUP1 SWAP3 SWAP2 SWAP1 DUP2 DUP2 MSTORE PUSH1 0x20 ADD DUP3 DUP1 SLOAD PUSH2 0x19A6 SWAP1 PUSH2 0x442C JUMP JUMPDEST DUP1 ISZERO PUSH2 0x19F3 JUMPI DUP1 PUSH1 0x1F LT PUSH2 0x19C8 JUMPI PUSH2 0x100 DUP1 DUP4 SLOAD DIV MUL DUP4 MSTORE SWAP2 PUSH1 0x20 ADD SWAP2 PUSH2 0x19F3 JUMP JUMPDEST DUP3 ADD SWAP2 SWAP1 PUSH1 0x0 MSTORE PUSH1 0x20 PUSH1 0x0 KECCAK256 SWAP1 JUMPDEST DUP2 SLOAD DUP2 MSTORE SWAP1 PUSH1 0x1 ADD SWAP1 PUSH1 0x20 ADD DUP1 DUP4 GT PUSH2 0x19D6 JUMPI DUP3 SWAP1 SUB PUSH1 0x1F AND DUP3 ADD SWAP2 JUMPDEST POP POP POP POP POP DUP2 MSTORE PUSH1 0x20 ADD PUSH1 0x4 DUP3 ADD PUSH1 0x0 SWAP1 SLOAD SWAP1 PUSH2 0x100 EXP SWAP1 DIV PUSH1 0xFF AND PUSH1 0x2 DUP2 GT ISZERO PUSH2 0x1A21 JUMPI PUSH2 0x1A20 PUSH2 0x3D30 JUMP JUMPDEST JUMPDEST PUSH1 0x2 DUP2 GT ISZERO PUSH2 0x1A33 JUMPI PUSH2 0x1A32 PUSH2 0x3D30 JUMP JUMPDEST JUMPDEST DUP2 MSTORE PUSH1 0x20 ADD PUSH1 0x5 DUP3 ADD SLOAD DUP2 MSTORE POP POP DUP2 MSTORE PUSH1 0x20 ADD SWAP1 PUSH1 0x1 ADD SWAP1 PUSH2 0x18A1 JUMP JUMPDEST POP POP POP POP SWAP1 POP PUSH1 0x0 DUP2 MLOAD SWAP1 POP PUSH1 0x0 DUP1 JUMPDEST DUP3 DUP2 LT ISZERO PUSH2 0x1AA8 JUMPI DUP8 DUP5 DUP3 DUP2 MLOAD DUP2 LT PUSH2 0x1A7C JUMPI PUSH2 0x1A7B PUSH2 0x49CB JUMP JUMPDEST JUMPDEST PUSH1 0x20 MUL PUSH1 0x20 ADD ADD MLOAD PUSH1 0x0 ADD MLOAD SUB PUSH2 0x1A95 JUMPI DUP1 SWAP5 POP PUSH1 0x1 SWAP2 POP JUMPDEST DUP1 DUP1 PUSH2 0x1AA0 SWAP1 PUSH2 0x43B5 JUMP JUMPDEST SWAP2 POP POP PUSH2 0x1A60 JUMP JUMPDEST POP PUSH1 0x1 ISZERO ISZERO DUP2 ISZERO ISZERO EQ PUSH2 0x1AF0 JUMPI PUSH1 0x40 MLOAD PUSH32 0x8C379A000000000000000000000000000000000000000000000000000000000 DUP2 MSTORE PUSH1 0x4 ADD PUSH2 0x1AE7 SWAP1 PUSH2 0x4BBD JUMP JUMPDEST PUSH1 0x40 MLOAD DUP1 SWAP2 SUB SWAP1 REVERT JUMPDEST DUP1 ISZERO PUSH2 0x1B4C JUMPI PUSH32 0x2341EBB88DFA6CE59E54BDDE82E9746E5A27FCD12A0D5D5CA812F1D01F4102E2 DUP4 DUP6 DUP2 MLOAD DUP2 LT PUSH2 0x1B2A JUMPI PUSH2 0x1B29 PUSH2 0x49CB JUMP JUMPDEST JUMPDEST PUSH1 0x20 MUL PUSH1 0x20 ADD ADD MLOAD PUSH1 0x80 ADD MLOAD PUSH1 0x40 MLOAD PUSH2 0x1B43 SWAP2 SWAP1 PUSH2 0x4BDD JUMP JUMPDEST PUSH1 0x40 MLOAD DUP1 SWAP2 SUB SWAP1 LOG1 JUMPDEST DUP3 DUP5 DUP2 MLOAD DUP2 LT PUSH2 0x1B5F JUMPI PUSH2 0x1B5E PUSH2 0x49CB JUMP JUMPDEST JUMPDEST PUSH1 0x20 MUL PUSH1 0x20 ADD ADD MLOAD PUSH1 0x80 ADD MLOAD DUP4 DUP6 DUP2 MLOAD DUP2 LT PUSH2 0x1B7E JUMPI PUSH2 0x1B7D PUSH2 0x49CB JUMP JUMPDEST JUMPDEST PUSH1 0x20 MUL PUSH1 0x20 ADD ADD MLOAD PUSH1 0xA0 ADD MLOAD SWAP6 POP SWAP6 POP POP POP POP POP SWAP3 POP SWAP3 SWAP1 POP JUMP JUMPDEST PUSH1 0x0 PUSH1 0x7 SLOAD SWAP1 POP SWAP1 JUMP JUMPDEST PUSH1 0x0 PUSH1 0x1 PUSH1 0x0 DUP4 DUP2 MSTORE PUSH1 0x20 ADD SWAP1 DUP2 MSTORE PUSH1 0x20 ADD PUSH1 0x0 KECCAK256 PUSH1 0xA ADD SLOAD SWAP1 POP SWAP2 SWAP1 POP JUMP JUMPDEST PUSH1 0x60 DUP2 PUSH1 0x7 SLOAD DUP2 GT ISZERO DUP1 ISZERO PUSH2 0x1BD9 JUMPI POP PUSH1 0x0 DUP2 EQ ISZERO JUMPDEST PUSH2 0x1C18 JUMPI PUSH1 0x40 MLOAD PUSH32 0x8C379A000000000000000000000000000000000000000000000000000000000 DUP2 MSTORE PUSH1 0x4 ADD PUSH2 0x1C0F SWAP1 PUSH2 0x4727 JUMP JUMPDEST PUSH1 0x40 MLOAD DUP1 SWAP2 SUB SWAP1 REVERT JUMPDEST PUSH1 0x8 PUSH1 0x0 DUP5 DUP2 MSTORE PUSH1 0x20 ADD SWAP1 DUP2 MSTORE PUSH1 0x20 ADD PUSH1 0x0 KECCAK256 PUSH1 0x2 ADD DUP1 SLOAD PUSH2 0x1C39 SWAP1 PUSH2 0x442C JUMP JUMPDEST DUP1 PUSH1 0x1F ADD PUSH1 0x20 DUP1 SWAP2 DIV MUL PUSH1 0x20 ADD PUSH1 0x40 MLOAD SWAP1 DUP2 ADD PUSH1 0x40 MSTORE DUP1 SWAP3 SWAP2 SWAP1 DUP2 DUP2 MSTORE PUSH1 0x20 ADD DUP3 DUP1 SLOAD PUSH2 0x1C65 SWAP1 PUSH2 0x442C JUMP JUMPDEST DUP1 ISZERO PUSH2 0x1CB2 JUMPI DUP1 PUSH1 0x1F LT PUSH2 0x1C87 JUMPI PUSH2 0x100 DUP1 DUP4 SLOAD DIV MUL DUP4 MSTORE SWAP2 PUSH1 0x20 ADD SWAP2 PUSH2 0x1CB2 JUMP JUMPDEST DUP3 ADD SWAP2 SWAP1 PUSH1 0x0 MSTORE PUSH1 0x20 PUSH1 0x0 KECCAK256 SWAP1 JUMPDEST DUP2 SLOAD DUP2 MSTORE SWAP1 PUSH1 0x1 ADD SWAP1 PUSH1 0x20 ADD DUP1 DUP4 GT PUSH2 0x1C95 JUMPI DUP3 SWAP1 SUB PUSH1 0x1F AND DUP3 ADD SWAP2 JUMPDEST POP POP POP POP POP SWAP2 POP POP SWAP2 SWAP1 POP JUMP JUMPDEST DUP7 DUP4 DUP1 PUSH1 0x1 PUSH1 0x0 DUP5 DUP2 MSTORE PUSH1 0x20 ADD SWAP1 DUP2 MSTORE PUSH1 0x20 ADD PUSH1 0x0 KECCAK256 PUSH1 0x2 ADD PUSH1 0x1 ADD SLOAD EQ PUSH2 0x1D1C JUMPI PUSH1 0x40 MLOAD PUSH32 0x8C379A000000000000000000000000000000000000000000000000000000000 DUP2 MSTORE PUSH1 0x4 ADD PUSH2 0x1D13 SWAP1 PUSH2 0x4C44 JUMP JUMPDEST PUSH1 0x40 MLOAD DUP1 SWAP2 SUB SWAP1 REVERT JUMPDEST PUSH32 0x23F2FC8ADA0C4BAED4EE1E3BA4FE20927AEB0927885A97721DFF7BF7DE72A54 DUP10 PUSH1 0x40 MLOAD PUSH2 0x1D4B SWAP2 SWAP1 PUSH2 0x3878 JUMP JUMPDEST PUSH1 0x40 MLOAD DUP1 SWAP2 SUB SWAP1 LOG1 PUSH2 0x1D61 DUP10 DUP10 DUP9 DUP11 DUP9 DUP9 PUSH2 0x2E18 JUMP JUMPDEST PUSH32 0x5865064E6ACB4FFF420DD41011F2A5680096A4C8D5D8B6CF9D358D6E71FBF1AC DUP10 DUP9 PUSH1 0x40 MLOAD PUSH2 0x1D92 SWAP3 SWAP2 SWAP1 PUSH2 0x4CB9 JUMP JUMPDEST PUSH1 0x40 MLOAD DUP1 SWAP2 SUB SWAP1 LOG1 POP POP POP POP POP POP POP POP POP JUMP JUMPDEST PUSH1 0x0 SLOAD DUP2 JUMP JUMPDEST PUSH2 0x1DB3 PUSH2 0x361E JUMP JUMPDEST PUSH1 0x1 PUSH1 0x0 DUP4 DUP2 MSTORE PUSH1 0x20 ADD SWAP1 DUP2 MSTORE PUSH1 0x20 ADD PUSH1 0x0 KECCAK256 PUSH1 0x40 MLOAD DUP1 PUSH2 0x120 ADD PUSH1 0x40 MSTORE SWAP1 DUP2 PUSH1 0x0 DUP3 ADD SLOAD DUP2 MSTORE PUSH1 0x20 ADD PUSH1 0x1 DUP3 ADD SLOAD DUP2 MSTORE PUSH1 0x20 ADD PUSH1 0x2 DUP3 ADD PUSH1 0x40 MLOAD DUP1 PUSH1 0x80 ADD PUSH1 0x40 MSTORE SWAP1 DUP2 PUSH1 0x0 DUP3 ADD SLOAD DUP2 MSTORE PUSH1 0x20 ADD PUSH1 0x1 DUP3 ADD SLOAD DUP2 MSTORE PUSH1 0x20 ADD PUSH1 0x2 DUP3 ADD SLOAD DUP2 MSTORE PUSH1 0x20 ADD PUSH1 0x3 DUP3 ADD SLOAD DUP2 MSTORE POP POP DUP2 MSTORE PUSH1 0x20 ADD PUSH1 0x6 DUP3 ADD SLOAD DUP2 MSTORE PUSH1 0x20 ADD PUSH1 0x7 DUP3 ADD SLOAD DUP2 MSTORE PUSH1 0x20 ADD PUSH1 0x8 DUP3 ADD PUSH1 0x0 SWAP1 SLOAD SWAP1 PUSH2 0x100 EXP SWAP1 DIV PUSH1 0xFF AND PUSH1 0x1 DUP2 GT ISZERO PUSH2 0x1E5B JUMPI PUSH2 0x1E5A PUSH2 0x3D30 JUMP JUMPDEST JUMPDEST PUSH1 0x1 DUP2 GT ISZERO PUSH2 0x1E6D JUMPI PUSH2 0x1E6C PUSH2 0x3D30 JUMP JUMPDEST JUMPDEST DUP2 MSTORE PUSH1 0x20 ADD PUSH1 0x8 DUP3 ADD PUSH1 0x1 SWAP1 SLOAD SWAP1 PUSH2 0x100 EXP SWAP1 DIV PUSH1 0xFF AND PUSH1 0x5 DUP2 GT ISZERO PUSH2 0x1E96 JUMPI PUSH2 0x1E95 PUSH2 0x3D30 JUMP JUMPDEST JUMPDEST PUSH1 0x5 DUP2 GT ISZERO PUSH2 0x1EA8 JUMPI PUSH2 0x1EA7 PUSH2 0x3D30 JUMP JUMPDEST JUMPDEST DUP2 MSTORE PUSH1 0x20 ADD PUSH1 0x9 DUP3 ADD SLOAD DUP2 MSTORE PUSH1 0x20 ADD PUSH1 0xA DUP3 ADD SLOAD DUP2 MSTORE POP POP SWAP1 POP SWAP2 SWAP1 POP JUMP JUMPDEST PUSH1 0x2 SLOAD DUP2 JUMP JUMPDEST PUSH1 0x0 PUSH1 0x9 PUSH1 0x0 CALLER PUSH20 0xFFFFFFFFFFFFFFFFFFFFFFFFFFFFFFFFFFFFFFFF AND PUSH20 0xFFFFFFFFFFFFFFFFFFFFFFFFFFFFFFFFFFFFFFFF AND DUP2 MSTORE PUSH1 0x20 ADD SWAP1 DUP2 MSTORE PUSH1 0x20 ADD PUSH1 0x0 KECCAK256 SLOAD SWAP1 POP SWAP1 JUMP JUMPDEST DUP2 PUSH1 0x1 PUSH1 0x0 DUP4 DUP2 MSTORE PUSH1 0x20 ADD SWAP1 DUP2 MSTORE PUSH1 0x20 ADD PUSH1 0x0 KECCAK256 PUSH1 0x8 ADD PUSH1 0x1 PUSH2 0x100 EXP DUP2 SLOAD DUP2 PUSH1 0xFF MUL NOT AND SWAP1 DUP4 PUSH1 0x5 DUP2 GT ISZERO PUSH2 0x1F4D JUMPI PUSH2 0x1F4C PUSH2 0x3D30 JUMP JUMPDEST JUMPDEST MUL OR SWAP1 SSTORE POP POP POP JUMP JUMPDEST DUP2 PUSH1 0x7 SLOAD DUP2 GT ISZERO DUP1 ISZERO PUSH2 0x1F6A JUMPI POP PUSH1 0x0 DUP2 EQ ISZERO JUMPDEST PUSH2 0x1FA9 JUMPI PUSH1 0x40 MLOAD PUSH32 0x8C379A000000000000000000000000000000000000000000000000000000000 DUP2 MSTORE PUSH1 0x4 ADD PUSH2 0x1FA0 SWAP1 PUSH2 0x4727 JUMP JUMPDEST PUSH1 0x40 MLOAD DUP1 SWAP2 SUB SWAP1 REVERT JUMPDEST DUP4 DUP3 DUP1 PUSH1 0x1 PUSH1 0x0 DUP5 DUP2 MSTORE PUSH1 0x20 ADD SWAP1 DUP2 MSTORE PUSH1 0x20 ADD PUSH1 0x0 KECCAK256 PUSH1 0x2 ADD PUSH1 0x0 ADD SLOAD EQ PUSH2 0x2006 JUMPI PUSH1 0x40 MLOAD PUSH32 0x8C379A000000000000000000000000000000000000000000000000000000000 DUP2 MSTORE PUSH1 0x4 ADD PUSH2 0x1FFD SWAP1 PUSH2 0x4AB2 JUMP JUMPDEST PUSH1 0x40 MLOAD DUP1 SWAP2 SUB SWAP1 REVERT JUMPDEST PUSH1 0x1 DUP1 PUSH1 0x0 DUP9 DUP2 MSTORE PUSH1 0x20 ADD SWAP1 DUP2 MSTORE PUSH1 0x20 ADD PUSH1 0x0 KECCAK256 PUSH1 0x8 ADD PUSH1 0x1 PUSH2 0x100 EXP DUP2 SLOAD DUP2 PUSH1 0xFF MUL NOT AND SWAP1 DUP4 PUSH1 0x5 DUP2 GT ISZERO PUSH2 0x203F JUMPI PUSH2 0x203E PUSH2 0x3D30 JUMP JUMPDEST JUMPDEST MUL OR SWAP1 SSTORE POP PUSH1 0x1 PUSH1 0x0 DUP8 DUP2 MSTORE PUSH1 0x20 ADD SWAP1 DUP2 MSTORE PUSH1 0x20 ADD PUSH1 0x0 KECCAK256 PUSH1 0x8 PUSH1 0x0 DUP8 DUP2 MSTORE PUSH1 0x20 ADD SWAP1 DUP2 MSTORE PUSH1 0x20 ADD PUSH1 0x0 KECCAK256 PUSH1 0x5 ADD PUSH1 0x0 DUP9 DUP2 MSTORE PUSH1 0x20 ADD SWAP1 DUP2 MSTORE PUSH1 0x20 ADD PUSH1 0x0 KECCAK256 PUSH1 0x0 DUP3 ADD SLOAD DUP2 PUSH1 0x0 ADD SSTORE PUSH1 0x1 DUP3 ADD SLOAD DUP2 PUSH1 0x1 ADD SSTORE PUSH1 0x2 DUP3 ADD DUP2 PUSH1 0x2 ADD PUSH1 0x0 DUP3 ADD SLOAD DUP2 PUSH1 0x0 ADD SSTORE PUSH1 0x1 DUP3 ADD SLOAD DUP2 PUSH1 0x1 ADD SSTORE PUSH1 0x2 DUP3 ADD SLOAD DUP2 PUSH1 0x2 ADD SSTORE PUSH1 0x3 DUP3 ADD SLOAD DUP2 PUSH1 0x3 ADD SSTORE POP POP PUSH1 0x6 DUP3 ADD SLOAD DUP2 PUSH1 0x6 ADD SSTORE PUSH1 0x7 DUP3 ADD SLOAD DUP2 PUSH1 0x7 ADD SSTORE PUSH1 0x8 DUP3 ADD PUSH1 0x0 SWAP1 SLOAD SWAP1 PUSH2 0x100 EXP SWAP1 DIV PUSH1 0xFF AND DUP2 PUSH1 0x8 ADD PUSH1 0x0 PUSH2 0x100 EXP DUP2 SLOAD DUP2 PUSH1 0xFF MUL NOT AND SWAP1 DUP4 PUSH1 0x1 DUP2 GT ISZERO PUSH2 0x2110 JUMPI PUSH2 0x210F PUSH2 0x3D30 JUMP JUMPDEST JUMPDEST MUL OR SWAP1 SSTORE POP PUSH1 0x8 DUP3 ADD PUSH1 0x1 SWAP1 SLOAD SWAP1 PUSH2 0x100 EXP SWAP1 DIV PUSH1 0xFF AND DUP2 PUSH1 0x8 ADD PUSH1 0x1 PUSH2 0x100 EXP DUP2 SLOAD DUP2 PUSH1 0xFF MUL NOT AND SWAP1 DUP4 PUSH1 0x5 DUP2 GT ISZERO PUSH2 0x214D JUMPI PUSH2 0x214C PUSH2 0x3D30 JUMP JUMPDEST JUMPDEST MUL OR SWAP1 SSTORE POP PUSH1 0x9 DUP3 ADD SLOAD DUP2 PUSH1 0x9 ADD SSTORE PUSH1 0xA DUP3 ADD SLOAD DUP2 PUSH1 0xA ADD SSTORE SWAP1 POP POP PUSH1 0x8 PUSH1 0x0 DUP7 DUP2 MSTORE PUSH1 0x20 ADD SWAP1 DUP2 MSTORE PUSH1 0x20 ADD PUSH1 0x0 KECCAK256 PUSH1 0x4 ADD PUSH1 0x0 DUP2 SLOAD DUP1 SWAP3 SWAP2 SWAP1 PUSH2 0x2190 SWAP1 PUSH2 0x43B5 JUMP JUMPDEST SWAP2 SWAP1 POP SSTORE POP PUSH2 0x219E DUP6 PUSH2 0x34C9 JUMP JUMPDEST POP POP POP POP POP POP JUMP JUMPDEST PUSH1 0x0 DUP2 PUSH1 0x7 SLOAD DUP2 GT ISZERO DUP1 ISZERO PUSH2 0x21BC JUMPI POP PUSH1 0x0 DUP2 EQ ISZERO JUMPDEST PUSH2 0x21FB JUMPI PUSH1 0x40 MLOAD PUSH32 0x8C379A000000000000000000000000000000000000000000000000000000000 DUP2 MSTORE PUSH1 0x4 ADD PUSH2 0x21F2 SWAP1 PUSH2 0x4727 JUMP JUMPDEST PUSH1 0x40 MLOAD DUP1 SWAP2 SUB SWAP1 REVERT JUMPDEST PUSH1 0x8 PUSH1 0x0 DUP5 DUP2 MSTORE PUSH1 0x20 ADD SWAP1 DUP2 MSTORE PUSH1 0x20 ADD PUSH1 0x0 KECCAK256 PUSH1 0x3 ADD PUSH1 0x0 SWAP1 SLOAD SWAP1 PUSH2 0x100 EXP SWAP1 DIV PUSH20 0xFFFFFFFFFFFFFFFFFFFFFFFFFFFFFFFFFFFFFFFF AND SWAP2 POP POP SWAP2 SWAP1 POP JUMP JUMPDEST PUSH1 0x0 PUSH1 0x3 PUSH1 0x0 DUP4 DUP2 MSTORE PUSH1 0x20 ADD SWAP1 DUP2 MSTORE PUSH1 0x20 ADD PUSH1 0x0 KECCAK256 PUSH1 0x0 ADD SLOAD SWAP1 POP SWAP2 SWAP1 POP JUMP JUMPDEST PUSH1 0x0 PUSH1 0x1 PUSH1 0x0 DUP4 DUP2 MSTORE PUSH1 0x20 ADD SWAP1 DUP2 MSTORE PUSH1 0x20 ADD PUSH1 0x0 KECCAK256 PUSH1 0xA ADD SLOAD SUB PUSH2 0x22B3 JUMPI PUSH1 0x40 MLOAD PUSH32 0x8C379A000000000000000000000000000000000000000000000000000000000 DUP2 MSTORE PUSH1 0x4 ADD PUSH2 0x22AA SWAP1 PUSH2 0x4D5B JUMP JUMPDEST PUSH1 0x40 MLOAD DUP1 SWAP2 SUB SWAP1 REVERT JUMPDEST DUP2 PUSH1 0x1 PUSH1 0x0 DUP4 DUP2 MSTORE PUSH1 0x20 ADD SWAP1 DUP2 MSTORE PUSH1 0x20 ADD PUSH1 0x0 KECCAK256 PUSH1 0xA ADD DUP2 SWAP1 SSTORE POP POP POP JUMP JUMPDEST PUSH1 0x0 DUP2 PUSH1 0x7 SLOAD DUP2 GT ISZERO DUP1 ISZERO PUSH2 0x22E8 JUMPI POP PUSH1 0x0 DUP2 EQ ISZERO JUMPDEST PUSH2 0x2327 JUMPI PUSH1 0x40 MLOAD PUSH32 0x8C379A000000000000000000000000000000000000000000000000000000000 DUP2 MSTORE PUSH1 0x4 ADD PUSH2 0x231E SWAP1 PUSH2 0x4727 JUMP JUMPDEST PUSH1 0x40 MLOAD DUP1 SWAP2 SUB SWAP1 REVERT JUMPDEST PUSH1 0x8 PUSH1 0x0 DUP5 DUP2 MSTORE PUSH1 0x20 ADD SWAP1 DUP2 MSTORE PUSH1 0x20 ADD PUSH1 0x0 KECCAK256 PUSH1 0x1 ADD SLOAD SWAP2 POP POP SWAP2 SWAP1 POP JUMP JUMPDEST DUP1 PUSH1 0x7 SLOAD DUP2 GT ISZERO DUP1 ISZERO PUSH2 0x235A JUMPI POP PUSH1 0x0 DUP2 EQ ISZERO JUMPDEST PUSH2 0x2399 JUMPI PUSH1 0x40 MLOAD PUSH32 0x8C379A000000000000000000000000000000000000000000000000000000000 DUP2 MSTORE PUSH1 0x4 ADD PUSH2 0x2390 SWAP1 PUSH2 0x4727 JUMP JUMPDEST PUSH1 0x40 MLOAD DUP1 SWAP2 SUB SWAP1 REVERT JUMPDEST DUP2 CALLER PUSH20 0xFFFFFFFFFFFFFFFFFFFFFFFFFFFFFFFFFFFFFFFF AND PUSH1 0x8 PUSH1 0x0 DUP4 DUP2 MSTORE PUSH1 0x20 ADD SWAP1 DUP2 MSTORE PUSH1 0x20 ADD PUSH1 0x0 KECCAK256 PUSH1 0x3 ADD PUSH1 0x0 SWAP1 SLOAD SWAP1 PUSH2 0x100 EXP SWAP1 DIV PUSH20 0xFFFFFFFFFFFFFFFFFFFFFFFFFFFFFFFFFFFFFFFF AND PUSH20 0xFFFFFFFFFFFFFFFFFFFFFFFFFFFFFFFFFFFFFFFF AND EQ PUSH2 0x243E JUMPI PUSH1 0x40 MLOAD PUSH32 0x8C379A000000000000000000000000000000000000000000000000000000000 DUP2 MSTORE PUSH1 0x4 ADD PUSH2 0x2435 SWAP1 PUSH2 0x4793 JUMP JUMPDEST PUSH1 0x40 MLOAD DUP1 SWAP2 SUB SWAP1 REVERT JUMPDEST PUSH1 0x0 PUSH1 0x8 PUSH1 0x0 DUP6 DUP2 MSTORE PUSH1 0x20 ADD SWAP1 DUP2 MSTORE PUSH1 0x20 ADD PUSH1 0x0 KECCAK256 PUSH1 0x6 ADD DUP1 SLOAD DUP1 PUSH1 0x20 MUL PUSH1 0x20 ADD PUSH1 0x40 MLOAD SWAP1 DUP2 ADD PUSH1 0x40 MSTORE DUP1 SWAP3 SWAP2 SWAP1 DUP2 DUP2 MSTORE PUSH1 0x20 ADD PUSH1 0x0 SWAP1 JUMPDEST DUP3 DUP3 LT ISZERO PUSH2 0x2625 JUMPI DUP4 DUP3 SWAP1 PUSH1 0x0 MSTORE PUSH1 0x20 PUSH1 0x0 KECCAK256 SWAP1 PUSH1 0x6 MUL ADD PUSH1 0x40 MLOAD DUP1 PUSH1 0xC0 ADD PUSH1 0x40 MSTORE SWAP1 DUP2 PUSH1 0x0 DUP3 ADD SLOAD DUP2 MSTORE PUSH1 0x20 ADD PUSH1 0x1 DUP3 ADD SLOAD DUP2 MSTORE PUSH1 0x20 ADD PUSH1 0x2 DUP3 ADD DUP1 SLOAD PUSH2 0x24BD SWAP1 PUSH2 0x442C JUMP JUMPDEST DUP1 PUSH1 0x1F ADD PUSH1 0x20 DUP1 SWAP2 DIV MUL PUSH1 0x20 ADD PUSH1 0x40 MLOAD SWAP1 DUP2 ADD PUSH1 0x40 MSTORE DUP1 SWAP3 SWAP2 SWAP1 DUP2 DUP2 MSTORE PUSH1 0x20 ADD DUP3 DUP1 SLOAD PUSH2 0x24E9 SWAP1 PUSH2 0x442C JUMP JUMPDEST DUP1 ISZERO PUSH2 0x2536 JUMPI DUP1 PUSH1 0x1F LT PUSH2 0x250B JUMPI PUSH2 0x100 DUP1 DUP4 SLOAD DIV MUL DUP4 MSTORE SWAP2 PUSH1 0x20 ADD SWAP2 PUSH2 0x2536 JUMP JUMPDEST DUP3 ADD SWAP2 SWAP1 PUSH1 0x0 MSTORE PUSH1 0x20 PUSH1 0x0 KECCAK256 SWAP1 JUMPDEST DUP2 SLOAD DUP2 MSTORE SWAP1 PUSH1 0x1 ADD SWAP1 PUSH1 0x20 ADD DUP1 DUP4 GT PUSH2 0x2519 JUMPI DUP3 SWAP1 SUB PUSH1 0x1F AND DUP3 ADD SWAP2 JUMPDEST POP POP POP POP POP DUP2 MSTORE PUSH1 0x20 ADD PUSH1 0x3 DUP3 ADD DUP1 SLOAD PUSH2 0x254F SWAP1 PUSH2 0x442C JUMP JUMPDEST DUP1 PUSH1 0x1F ADD PUSH1 0x20 DUP1 SWAP2 DIV MUL PUSH1 0x20 ADD PUSH1 0x40 MLOAD SWAP1 DUP2 ADD PUSH1 0x40 MSTORE DUP1 SWAP3 SWAP2 SWAP1 DUP2 DUP2 MSTORE PUSH1 0x20 ADD DUP3 DUP1 SLOAD PUSH2 0x257B SWAP1 PUSH2 0x442C JUMP JUMPDEST DUP1 ISZERO PUSH2 0x25C8 JUMPI DUP1 PUSH1 0x1F LT PUSH2 0x259D JUMPI PUSH2 0x100 DUP1 DUP4 SLOAD DIV MUL DUP4 MSTORE SWAP2 PUSH1 0x20 ADD SWAP2 PUSH2 0x25C8 JUMP JUMPDEST DUP3 ADD SWAP2 SWAP1 PUSH1 0x0 MSTORE PUSH1 0x20 PUSH1 0x0 KECCAK256 SWAP1 JUMPDEST DUP2 SLOAD DUP2 MSTORE SWAP1 PUSH1 0x1 ADD SWAP1 PUSH1 0x20 ADD DUP1 DUP4 GT PUSH2 0x25AB JUMPI DUP3 SWAP1 SUB PUSH1 0x1F AND DUP3 ADD SWAP2 JUMPDEST POP POP POP POP POP DUP2 MSTORE PUSH1 0x20 ADD PUSH1 0x4 DUP3 ADD PUSH1 0x0 SWAP1 SLOAD SWAP1 PUSH2 0x100 EXP SWAP1 DIV PUSH1 0xFF AND PUSH1 0x2 DUP2 GT ISZERO PUSH2 0x25F6 JUMPI PUSH2 0x25F5 PUSH2 0x3D30 JUMP JUMPDEST JUMPDEST PUSH1 0x2 DUP2 GT ISZERO PUSH2 0x2608 JUMPI PUSH2 0x2607 PUSH2 0x3D30 JUMP JUMPDEST JUMPDEST DUP2 MSTORE PUSH1 0x20 ADD PUSH1 0x5 DUP3 ADD SLOAD DUP2 MSTORE POP POP DUP2 MSTORE PUSH1 0x20 ADD SWAP1 PUSH1 0x1 ADD SWAP1 PUSH2 0x2476 JUMP JUMPDEST POP POP POP POP SWAP1 POP PUSH1 0x0 DUP2 MLOAD PUSH8 0xFFFFFFFFFFFFFFFF DUP2 GT ISZERO PUSH2 0x2648 JUMPI PUSH2 0x2647 PUSH2 0x36EB JUMP JUMPDEST JUMPDEST PUSH1 0x40 MLOAD SWAP1 DUP1 DUP3 MSTORE DUP1 PUSH1 0x20 MUL PUSH1 0x20 ADD DUP3 ADD PUSH1 0x40 MSTORE DUP1 ISZERO PUSH2 0x2676 JUMPI DUP2 PUSH1 0x20 ADD PUSH1 0x20 DUP3 MUL DUP1 CALLDATASIZE DUP4 CALLDATACOPY DUP1 DUP3 ADD SWAP2 POP POP SWAP1 POP JUMPDEST POP SWAP1 POP PUSH1 0x0 DUP3 MLOAD PUSH8 0xFFFFFFFFFFFFFFFF DUP2 GT ISZERO PUSH2 0x2696 JUMPI PUSH2 0x2695 PUSH2 0x36EB JUMP JUMPDEST JUMPDEST PUSH1 0x40 MLOAD SWAP1 DUP1 DUP3 MSTORE DUP1 PUSH1 0x20 MUL PUSH1 0x20 ADD DUP3 ADD PUSH1 0x40 MSTORE DUP1 ISZERO PUSH2 0x26C4 JUMPI DUP2 PUSH1 0x20 ADD PUSH1 0x20 DUP3 MUL DUP1 CALLDATASIZE DUP4 CALLDATACOPY DUP1 DUP3 ADD SWAP2 POP POP SWAP1 POP JUMPDEST POP SWAP1 POP PUSH1 0x0 DUP4 MLOAD PUSH8 0xFFFFFFFFFFFFFFFF DUP2 GT ISZERO PUSH2 0x26E4 JUMPI PUSH2 0x26E3 PUSH2 0x36EB JUMP JUMPDEST JUMPDEST PUSH1 0x40 MLOAD SWAP1 DUP1 DUP3 MSTORE DUP1 PUSH1 0x20 MUL PUSH1 0x20 ADD DUP3 ADD PUSH1 0x40 MSTORE DUP1 ISZERO PUSH2 0x2717 JUMPI DUP2 PUSH1 0x20 ADD JUMPDEST PUSH1 0x60 DUP2 MSTORE PUSH1 0x20 ADD SWAP1 PUSH1 0x1 SWAP1 SUB SWAP1 DUP2 PUSH2 0x2702 JUMPI SWAP1 POP JUMPDEST POP SWAP1 POP PUSH1 0x0 DUP5 MLOAD PUSH8 0xFFFFFFFFFFFFFFFF DUP2 GT ISZERO PUSH2 0x2737 JUMPI PUSH2 0x2736 PUSH2 0x36EB JUMP JUMPDEST JUMPDEST PUSH1 0x40 MLOAD SWAP1 DUP1 DUP3 MSTORE DUP1 PUSH1 0x20 MUL PUSH1 0x20 ADD DUP3 ADD PUSH1 0x40 MSTORE DUP1 ISZERO PUSH2 0x276A JUMPI DUP2 PUSH1 0x20 ADD JUMPDEST PUSH1 0x60 DUP2 MSTORE PUSH1 0x20 ADD SWAP1 PUSH1 0x1 SWAP1 SUB SWAP1 DUP2 PUSH2 0x2755 JUMPI SWAP1 POP JUMPDEST POP SWAP1 POP PUSH1 0x0 JUMPDEST DUP6 MLOAD DUP2 LT ISZERO PUSH2 0x28CC JUMPI PUSH1 0x2 DUP1 DUP2 GT ISZERO PUSH2 0x278C JUMPI PUSH2 0x278B PUSH2 0x3D30 JUMP JUMPDEST JUMPDEST DUP7 DUP3 DUP2 MLOAD DUP2 LT PUSH2 0x279F JUMPI PUSH2 0x279E PUSH2 0x49CB JUMP JUMPDEST JUMPDEST PUSH1 0x20 MUL PUSH1 0x20 ADD ADD MLOAD PUSH1 0x80 ADD MLOAD PUSH1 0x2 DUP2 GT ISZERO PUSH2 0x27BD JUMPI PUSH2 0x27BC PUSH2 0x3D30 JUMP JUMPDEST JUMPDEST SUB PUSH2 0x28B9 JUMPI DUP6 DUP2 DUP2 MLOAD DUP2 LT PUSH2 0x27D5 JUMPI PUSH2 0x27D4 PUSH2 0x49CB JUMP JUMPDEST JUMPDEST PUSH1 0x20 MUL PUSH1 0x20 ADD ADD MLOAD PUSH1 0x0 ADD MLOAD DUP6 DUP3 DUP2 MLOAD DUP2 LT PUSH2 0x27F4 JUMPI PUSH2 0x27F3 PUSH2 0x49CB JUMP JUMPDEST JUMPDEST PUSH1 0x20 MUL PUSH1 0x20 ADD ADD DUP2 DUP2 MSTORE POP POP DUP6 DUP2 DUP2 MLOAD DUP2 LT PUSH2 0x2813 JUMPI PUSH2 0x2812 PUSH2 0x49CB JUMP JUMPDEST JUMPDEST PUSH1 0x20 MUL PUSH1 0x20 ADD ADD MLOAD PUSH1 0x20 ADD MLOAD DUP5 DUP3 DUP2 MLOAD DUP2 LT PUSH2 0x2832 JUMPI PUSH2 0x2831 PUSH2 0x49CB JUMP JUMPDEST JUMPDEST PUSH1 0x20 MUL PUSH1 0x20 ADD ADD DUP2 DUP2 MSTORE POP POP DUP6 DUP2 DUP2 MLOAD DUP2 LT PUSH2 0x2851 JUMPI PUSH2 0x2850 PUSH2 0x49CB JUMP JUMPDEST JUMPDEST PUSH1 0x20 MUL PUSH1 0x20 ADD ADD MLOAD PUSH1 0x40 ADD MLOAD DUP4 DUP3 DUP2 MLOAD DUP2 LT PUSH2 0x2870 JUMPI PUSH2 0x286F PUSH2 0x49CB JUMP JUMPDEST JUMPDEST PUSH1 0x20 MUL PUSH1 0x20 ADD ADD DUP2 SWAP1 MSTORE POP DUP6 DUP2 DUP2 MLOAD DUP2 LT PUSH2 0x288E JUMPI PUSH2 0x288D PUSH2 0x49CB JUMP JUMPDEST JUMPDEST PUSH1 0x20 MUL PUSH1 0x20 ADD ADD MLOAD PUSH1 0x60 ADD MLOAD DUP3 DUP3 DUP2 MLOAD DUP2 LT PUSH2 0x28AD JUMPI PUSH2 0x28AC PUSH2 0x49CB JUMP JUMPDEST JUMPDEST PUSH1 0x20 MUL PUSH1 0x20 ADD ADD DUP2 SWAP1 MSTORE POP JUMPDEST DUP1 DUP1 PUSH2 0x28C4 SWAP1 PUSH2 0x43B5 JUMP JUMPDEST SWAP2 POP POP PUSH2 0x2770 JUMP JUMPDEST POP PUSH32 0xF8BE3BECFCEDDAB2D6D90E42623D2779957D2177254CB3EE5FE6A9297233C8C2 DUP5 DUP5 DUP5 DUP5 PUSH1 0x40 MLOAD PUSH2 0x2902 SWAP5 SWAP4 SWAP3 SWAP2 SWAP1 PUSH2 0x4F36 JUMP JUMPDEST PUSH1 0x40 MLOAD DUP1 SWAP2 SUB SWAP1 LOG1 POP POP POP POP POP POP POP POP JUMP JUMPDEST PUSH1 0x0 PUSH1 0x9 PUSH1 0x0 CALLER PUSH20 0xFFFFFFFFFFFFFFFFFFFFFFFFFFFFFFFFFFFFFFFF AND PUSH20 0xFFFFFFFFFFFFFFFFFFFFFFFFFFFFFFFFFFFFFFFF AND DUP2 MSTORE PUSH1 0x20 ADD SWAP1 DUP2 MSTORE PUSH1 0x20 ADD PUSH1 0x0 KECCAK256 SLOAD SUB PUSH2 0x2996 JUMPI PUSH1 0x40 MLOAD PUSH32 0x8C379A000000000000000000000000000000000000000000000000000000000 DUP2 MSTORE PUSH1 0x4 ADD PUSH2 0x298D SWAP1 PUSH2 0x4FE3 JUMP JUMPDEST PUSH1 0x40 MLOAD DUP1 SWAP2 SUB SWAP1 REVERT JUMPDEST PUSH1 0x0 DUP3 EQ PUSH2 0x2D0B JUMPI PUSH1 0x0 DUP1 PUSH1 0x8 PUSH1 0x0 DUP7 DUP2 MSTORE PUSH1 0x20 ADD SWAP1 DUP2 MSTORE PUSH1 0x20 ADD PUSH1 0x0 KECCAK256 PUSH1 0x6 ADD DUP1 SLOAD DUP1 PUSH1 0x20 MUL PUSH1 0x20 ADD PUSH1 0x40 MLOAD SWAP1 DUP2 ADD PUSH1 0x40 MSTORE DUP1 SWAP3 SWAP2 SWAP1 DUP2 DUP2 MSTORE PUSH1 0x20 ADD PUSH1 0x0 SWAP1 JUMPDEST DUP3 DUP3 LT ISZERO PUSH2 0x2B86 JUMPI DUP4 DUP3 SWAP1 PUSH1 0x0 MSTORE PUSH1 0x20 PUSH1 0x0 KECCAK256 SWAP1 PUSH1 0x6 MUL ADD PUSH1 0x40 MLOAD DUP1 PUSH1 0xC0 ADD PUSH1 0x40 MSTORE SWAP1 DUP2 PUSH1 0x0 DUP3 ADD SLOAD DUP2 MSTORE PUSH1 0x20 ADD PUSH1 0x1 DUP3 ADD SLOAD DUP2 MSTORE PUSH1 0x20 ADD PUSH1 0x2 DUP3 ADD DUP1 SLOAD PUSH2 0x2A1E SWAP1 PUSH2 0x442C JUMP JUMPDEST DUP1 PUSH1 0x1F ADD PUSH1 0x20 DUP1 SWAP2 DIV MUL PUSH1 0x20 ADD PUSH1 0x40 MLOAD SWAP1 DUP2 ADD PUSH1 0x40 MSTORE DUP1 SWAP3 SWAP2 SWAP1 DUP2 DUP2 MSTORE PUSH1 0x20 ADD DUP3 DUP1 SLOAD PUSH2 0x2A4A SWAP1 PUSH2 0x442C JUMP JUMPDEST DUP1 ISZERO PUSH2 0x2A97 JUMPI DUP1 PUSH1 0x1F LT PUSH2 0x2A6C JUMPI PUSH2 0x100 DUP1 DUP4 SLOAD DIV MUL DUP4 MSTORE SWAP2 PUSH1 0x20 ADD SWAP2 PUSH2 0x2A97 JUMP JUMPDEST DUP3 ADD SWAP2 SWAP1 PUSH1 0x0 MSTORE PUSH1 0x20 PUSH1 0x0 KECCAK256 SWAP1 JUMPDEST DUP2 SLOAD DUP2 MSTORE SWAP1 PUSH1 0x1 ADD SWAP1 PUSH1 0x20 ADD DUP1 DUP4 GT PUSH2 0x2A7A JUMPI DUP3 SWAP1 SUB PUSH1 0x1F AND DUP3 ADD SWAP2 JUMPDEST POP POP POP POP POP DUP2 MSTORE PUSH1 0x20 ADD PUSH1 0x3 DUP3 ADD DUP1 SLOAD PUSH2 0x2AB0 SWAP1 PUSH2 0x442C JUMP JUMPDEST DUP1 PUSH1 0x1F ADD PUSH1 0x20 DUP1 SWAP2 DIV MUL PUSH1 0x20 ADD PUSH1 0x40 MLOAD SWAP1 DUP2 ADD PUSH1 0x40 MSTORE DUP1 SWAP3 SWAP2 SWAP1 DUP2 DUP2 MSTORE PUSH1 0x20 ADD DUP3 DUP1 SLOAD PUSH2 0x2ADC SWAP1 PUSH2 0x442C JUMP JUMPDEST DUP1 ISZERO PUSH2 0x2B29 JUMPI DUP1 PUSH1 0x1F LT PUSH2 0x2AFE JUMPI PUSH2 0x100 DUP1 DUP4 SLOAD DIV MUL DUP4 MSTORE SWAP2 PUSH1 0x20 ADD SWAP2 PUSH2 0x2B29 JUMP JUMPDEST DUP3 ADD SWAP2 SWAP1 PUSH1 0x0 MSTORE PUSH1 0x20 PUSH1 0x0 KECCAK256 SWAP1 JUMPDEST DUP2 SLOAD DUP2 MSTORE SWAP1 PUSH1 0x1 ADD SWAP1 PUSH1 0x20 ADD DUP1 DUP4 GT PUSH2 0x2B0C JUMPI DUP3 SWAP1 SUB PUSH1 0x1F AND DUP3 ADD SWAP2 JUMPDEST POP POP POP POP POP DUP2 MSTORE PUSH1 0x20 ADD PUSH1 0x4 DUP3 ADD PUSH1 0x0 SWAP1 SLOAD SWAP1 PUSH2 0x100 EXP SWAP1 DIV PUSH1 0xFF AND PUSH1 0x2 DUP2 GT ISZERO PUSH2 0x2B57 JUMPI PUSH2 0x2B56 PUSH2 0x3D30 JUMP JUMPDEST JUMPDEST PUSH1 0x2 DUP2 GT ISZERO PUSH2 0x2B69 JUMPI PUSH2 0x2B68 PUSH2 0x3D30 JUMP JUMPDEST JUMPDEST DUP2 MSTORE PUSH1 0x20 ADD PUSH1 0x5 DUP3 ADD SLOAD DUP2 MSTORE POP POP DUP2 MSTORE PUSH1 0x20 ADD SWAP1 PUSH1 0x1 ADD SWAP1 PUSH2 0x29D7 JUMP JUMPDEST POP POP POP POP SWAP1 POP PUSH1 0x0 DUP2 MLOAD SWAP1 POP PUSH1 0x0 DUP1 JUMPDEST DUP3 DUP2 LT ISZERO PUSH2 0x2BDE JUMPI DUP7 DUP5 DUP3 DUP2 MLOAD DUP2 LT PUSH2 0x2BB2 JUMPI PUSH2 0x2BB1 PUSH2 0x49CB JUMP JUMPDEST JUMPDEST PUSH1 0x20 MUL PUSH1 0x20 ADD ADD MLOAD PUSH1 0x0 ADD MLOAD SUB PUSH2 0x2BCB JUMPI DUP1 SWAP5 POP PUSH1 0x1 SWAP2 POP JUMPDEST DUP1 DUP1 PUSH2 0x2BD6 SWAP1 PUSH2 0x43B5 JUMP JUMPDEST SWAP2 POP POP PUSH2 0x2B96 JUMP JUMPDEST POP PUSH1 0x1 ISZERO ISZERO DUP2 ISZERO ISZERO EQ PUSH2 0x2C26 JUMPI PUSH1 0x40 MLOAD PUSH32 0x8C379A000000000000000000000000000000000000000000000000000000000 DUP2 MSTORE PUSH1 0x4 ADD PUSH2 0x2C1D SWAP1 PUSH2 0x4A46 JUMP JUMPDEST PUSH1 0x40 MLOAD DUP1 SWAP2 SUB SWAP1 REVERT JUMPDEST DUP1 ISZERO PUSH2 0x2D06 JUMPI DUP5 PUSH1 0x8 PUSH1 0x0 DUP10 DUP2 MSTORE PUSH1 0x20 ADD SWAP1 DUP2 MSTORE PUSH1 0x20 ADD PUSH1 0x0 KECCAK256 PUSH1 0x6 ADD DUP6 DUP2 SLOAD DUP2 LT PUSH2 0x2C55 JUMPI PUSH2 0x2C54 PUSH2 0x49CB JUMP JUMPDEST JUMPDEST SWAP1 PUSH1 0x0 MSTORE PUSH1 0x20 PUSH1 0x0 KECCAK256 SWAP1 PUSH1 0x6 MUL ADD PUSH1 0x5 ADD DUP2 SWAP1 SSTORE POP PUSH1 0x0 PUSH1 0x8 PUSH1 0x0 DUP10 DUP2 MSTORE PUSH1 0x20 ADD SWAP1 DUP2 MSTORE PUSH1 0x20 ADD PUSH1 0x0 KECCAK256 PUSH1 0x6 ADD DUP6 DUP2 SLOAD DUP2 LT PUSH2 0x2C94 JUMPI PUSH2 0x2C93 PUSH2 0x49CB JUMP JUMPDEST JUMPDEST SWAP1 PUSH1 0x0 MSTORE PUSH1 0x20 PUSH1 0x0 KECCAK256 SWAP1 PUSH1 0x6 MUL ADD PUSH1 0x4 ADD PUSH1 0x0 PUSH2 0x100 EXP DUP2 SLOAD DUP2 PUSH1 0xFF MUL NOT AND SWAP1 DUP4 PUSH1 0x2 DUP2 GT ISZERO PUSH2 0x2CC7 JUMPI PUSH2 0x2CC6 PUSH2 0x3D30 JUMP JUMPDEST JUMPDEST MUL OR SWAP1 SSTORE POP PUSH32 0x90218A18786A98DC15E72EE082C065814F7820762CFD88F194694627E1B7E4C6 DUP7 DUP7 PUSH1 0x40 MLOAD PUSH2 0x2CFD SWAP3 SWAP2 SWAP1 PUSH2 0x5003 JUMP JUMPDEST PUSH1 0x40 MLOAD DUP1 SWAP2 SUB SWAP1 LOG1 JUMPDEST POP POP POP POP JUMPDEST POP POP POP JUMP JUMPDEST PUSH1 0x0 DUP1 PUSH1 0x9 PUSH1 0x0 CALLER PUSH20 0xFFFFFFFFFFFFFFFFFFFFFFFFFFFFFFFFFFFFFFFF AND PUSH20 0xFFFFFFFFFFFFFFFFFFFFFFFFFFFFFFFFFFFFFFFF AND DUP2 MSTORE PUSH1 0x20 ADD SWAP1 DUP2 MSTORE PUSH1 0x20 ADD PUSH1 0x0 KECCAK256 SLOAD SUB PUSH2 0x2D93 JUMPI PUSH1 0x40 MLOAD PUSH32 0x8C379A000000000000000000000000000000000000000000000000000000000 DUP2 MSTORE PUSH1 0x4 ADD PUSH2 0x2D8A SWAP1 PUSH2 0x4FE3 JUMP JUMPDEST PUSH1 0x40 MLOAD DUP1 SWAP2 SUB SWAP1 REVERT JUMPDEST PUSH1 0x2 PUSH1 0x0 DUP2 SLOAD DUP1 SWAP3 SWAP2 SWAP1 PUSH2 0x2DA6 SWAP1 PUSH2 0x43B5 JUMP JUMPDEST SWAP2 SWAP1 POP SSTORE POP PUSH1 0x0 PUSH1 0x3 PUSH1 0x0 PUSH1 0x2 SLOAD DUP2 MSTORE PUSH1 0x20 ADD SWAP1 DUP2 MSTORE PUSH1 0x20 ADD PUSH1 0x0 KECCAK256 SWAP1 POP DUP6 DUP2 PUSH1 0x0 ADD DUP2 SWAP1 SSTORE POP DUP5 DUP2 PUSH1 0x1 ADD DUP2 SWAP1 SSTORE POP DUP4 DUP2 PUSH1 0x2 ADD DUP2 SWAP1 SSTORE POP DUP3 DUP2 PUSH1 0x3 ADD DUP2 SWAP1 SSTORE POP PUSH1 0x2 SLOAD SWAP2 POP POP SWAP5 SWAP4 POP POP POP POP JUMP JUMPDEST PUSH1 0x0 PUSH1 0x1 PUSH1 0x0 DUP4 DUP2 MSTORE PUSH1 0x20 ADD SWAP1 DUP2 MSTORE PUSH1 0x20 ADD PUSH1 0x0 KECCAK256 PUSH1 0x1 ADD SLOAD SWAP1 POP SWAP2 SWAP1 POP JUMP JUMPDEST JUMP JUMPDEST PUSH1 0x3 PUSH1 0x5 DUP2 GT ISZERO PUSH2 0x2E2C JUMPI PUSH2 0x2E2B PUSH2 0x3D30 JUMP JUMPDEST JUMPDEST PUSH1 0x1 PUSH1 0x0 DUP9 DUP2 MSTORE PUSH1 0x20 ADD SWAP1 DUP2 MSTORE PUSH1 0x20 ADD PUSH1 0x0 KECCAK256 PUSH1 0x8 ADD PUSH1 0x1 SWAP1 SLOAD SWAP1 PUSH2 0x100 EXP SWAP1 DIV PUSH1 0xFF AND PUSH1 0x5 DUP2 GT ISZERO PUSH2 0x2E62 JUMPI PUSH2 0x2E61 PUSH2 0x3D30 JUMP JUMPDEST JUMPDEST EQ PUSH2 0x2EA2 JUMPI PUSH1 0x40 MLOAD PUSH32 0x8C379A000000000000000000000000000000000000000000000000000000000 DUP2 MSTORE PUSH1 0x4 ADD PUSH2 0x2E99 SWAP1 PUSH2 0x509E JUMP JUMPDEST PUSH1 0x40 MLOAD DUP1 SWAP2 SUB SWAP1 REVERT JUMPDEST TIMESTAMP PUSH3 0x76A700 PUSH1 0x1 PUSH1 0x0 DUP10 DUP2 MSTORE PUSH1 0x20 ADD SWAP1 DUP2 MSTORE PUSH1 0x20 ADD PUSH1 0x0 KECCAK256 PUSH1 0x9 ADD SLOAD PUSH2 0x2EC8 SWAP2 SWAP1 PUSH2 0x4B09 JUMP JUMPDEST LT ISZERO PUSH2 0x2F09 JUMPI PUSH1 0x40 MLOAD PUSH32 0x8C379A000000000000000000000000000000000000000000000000000000000 DUP2 MSTORE PUSH1 0x4 ADD PUSH2 0x2F00 SWAP1 PUSH2 0x510A JUMP JUMPDEST PUSH1 0x40 MLOAD DUP1 SWAP2 SUB SWAP1 REVERT JUMPDEST DUP2 PUSH1 0x40 MLOAD PUSH1 0x20 ADD PUSH2 0x2F1A SWAP2 SWAP1 PUSH2 0x5166 JUMP JUMPDEST PUSH1 0x40 MLOAD PUSH1 0x20 DUP2 DUP4 SUB SUB DUP2 MSTORE SWAP1 PUSH1 0x40 MSTORE DUP1 MLOAD SWAP1 PUSH1 0x20 ADD KECCAK256 PUSH1 0x5 PUSH1 0x0 SWAP1 SLOAD SWAP1 PUSH2 0x100 EXP SWAP1 DIV PUSH20 0xFFFFFFFFFFFFFFFFFFFFFFFFFFFFFFFFFFFFFFFF AND PUSH20 0xFFFFFFFFFFFFFFFFFFFFFFFFFFFFFFFFFFFFFFFF AND PUSH4 0xF29A6F44 DUP6 PUSH1 0x40 MLOAD DUP3 PUSH4 0xFFFFFFFF AND PUSH1 0xE0 SHL DUP2 MSTORE PUSH1 0x4 ADD PUSH2 0x2F8B SWAP2 SWAP1 PUSH2 0x517D JUMP JUMPDEST PUSH1 0x0 PUSH1 0x40 MLOAD DUP1 DUP4 SUB DUP2 DUP7 GAS STATICCALL ISZERO DUP1 ISZERO PUSH2 0x2FA8 JUMPI RETURNDATASIZE PUSH1 0x0 DUP1 RETURNDATACOPY RETURNDATASIZE PUSH1 0x0 REVERT JUMPDEST POP POP POP POP PUSH1 0x40 MLOAD RETURNDATASIZE PUSH1 0x0 DUP3 RETURNDATACOPY RETURNDATASIZE PUSH1 0x1F NOT PUSH1 0x1F DUP3 ADD AND DUP3 ADD DUP1 PUSH1 0x40 MSTORE POP DUP2 ADD SWAP1 PUSH2 0x2FD1 SWAP2 SWAP1 PUSH2 0x520F JUMP JUMPDEST PUSH1 0x40 MLOAD PUSH1 0x20 ADD PUSH2 0x2FE1 SWAP2 SWAP1 PUSH2 0x5166 JUMP JUMPDEST PUSH1 0x40 MLOAD PUSH1 0x20 DUP2 DUP4 SUB SUB DUP2 MSTORE SWAP1 PUSH1 0x40 MSTORE DUP1 MLOAD SWAP1 PUSH1 0x20 ADD KECCAK256 EQ DUP1 ISZERO PUSH2 0x30EF JUMPI POP DUP1 PUSH1 0x40 MLOAD PUSH1 0x20 ADD PUSH2 0x3010 SWAP2 SWAP1 PUSH2 0x5166 JUMP JUMPDEST PUSH1 0x40 MLOAD PUSH1 0x20 DUP2 DUP4 SUB SUB DUP2 MSTORE SWAP1 PUSH1 0x40 MSTORE DUP1 MLOAD SWAP1 PUSH1 0x20 ADD KECCAK256 PUSH1 0x5 PUSH1 0x0 SWAP1 SLOAD SWAP1 PUSH2 0x100 EXP SWAP1 DIV PUSH20 0xFFFFFFFFFFFFFFFFFFFFFFFFFFFFFFFFFFFFFFFF AND PUSH20 0xFFFFFFFFFFFFFFFFFFFFFFFFFFFFFFFFFFFFFFFF AND PUSH4 0xD4C85366 DUP6 PUSH1 0x40 MLOAD DUP3 PUSH4 0xFFFFFFFF AND PUSH1 0xE0 SHL DUP2 MSTORE PUSH1 0x4 ADD PUSH2 0x3081 SWAP2 SWAP1 PUSH2 0x517D JUMP JUMPDEST PUSH1 0x0 PUSH1 0x40 MLOAD DUP1 DUP4 SUB DUP2 DUP7 GAS STATICCALL ISZERO DUP1 ISZERO PUSH2 0x309E JUMPI RETURNDATASIZE PUSH1 0x0 DUP1 RETURNDATACOPY RETURNDATASIZE PUSH1 0x0 REVERT JUMPDEST POP POP POP POP PUSH1 0x40 MLOAD RETURNDATASIZE PUSH1 0x0 DUP3 RETURNDATACOPY RETURNDATASIZE PUSH1 0x1F NOT PUSH1 0x1F DUP3 ADD AND DUP3 ADD DUP1 PUSH1 0x40 MSTORE POP DUP2 ADD SWAP1 PUSH2 0x30C7 SWAP2 SWAP1 PUSH2 0x520F JUMP JUMPDEST PUSH1 0x40 MLOAD PUSH1 0x20 ADD PUSH2 0x30D7 SWAP2 SWAP1 PUSH2 0x5166 JUMP JUMPDEST PUSH1 0x40 MLOAD PUSH1 0x20 DUP2 DUP4 SUB SUB DUP2 MSTORE SWAP1 PUSH1 0x40 MSTORE DUP1 MLOAD SWAP1 PUSH1 0x20 ADD KECCAK256 EQ JUMPDEST PUSH2 0x312E JUMPI PUSH1 0x40 MLOAD PUSH32 0x8C379A000000000000000000000000000000000000000000000000000000000 DUP2 MSTORE PUSH1 0x4 ADD PUSH2 0x3125 SWAP1 PUSH2 0x52A4 JUMP JUMPDEST PUSH1 0x40 MLOAD DUP1 SWAP2 SUB SWAP1 REVERT JUMPDEST PUSH1 0x2 DUP1 DUP2 GT ISZERO PUSH2 0x3141 JUMPI PUSH2 0x3140 PUSH2 0x3D30 JUMP JUMPDEST JUMPDEST PUSH1 0x5 PUSH1 0x0 SWAP1 SLOAD SWAP1 PUSH2 0x100 EXP SWAP1 DIV PUSH20 0xFFFFFFFFFFFFFFFFFFFFFFFFFFFFFFFFFFFFFFFF AND PUSH20 0xFFFFFFFFFFFFFFFFFFFFFFFFFFFFFFFFFFFFFFFF AND PUSH4 0x29EFB4A9 DUP6 PUSH1 0x40 MLOAD DUP3 PUSH4 0xFFFFFFFF AND PUSH1 0xE0 SHL DUP2 MSTORE PUSH1 0x4 ADD PUSH2 0x319C SWAP2 SWAP1 PUSH2 0x517D JUMP JUMPDEST PUSH1 0x20 PUSH1 0x40 MLOAD DUP1 DUP4 SUB DUP2 DUP7 GAS STATICCALL ISZERO DUP1 ISZERO PUSH2 0x31B9 JUMPI RETURNDATASIZE PUSH1 0x0 DUP1 RETURNDATACOPY RETURNDATASIZE PUSH1 0x0 REVERT JUMPDEST POP POP POP POP PUSH1 0x40 MLOAD RETURNDATASIZE PUSH1 0x1F NOT PUSH1 0x1F DUP3 ADD AND DUP3 ADD DUP1 PUSH1 0x40 MSTORE POP DUP2 ADD SWAP1 PUSH2 0x31DD SWAP2 SWAP1 PUSH2 0x52E9 JUMP JUMPDEST PUSH1 0x2 DUP2 GT ISZERO PUSH2 0x31EF JUMPI PUSH2 0x31EE PUSH2 0x3D30 JUMP JUMPDEST JUMPDEST SUB PUSH2 0x325D JUMPI TIMESTAMP PUSH4 0x3C26700 PUSH1 0x1 PUSH1 0x0 DUP10 DUP2 MSTORE PUSH1 0x20 ADD SWAP1 DUP2 MSTORE PUSH1 0x20 ADD PUSH1 0x0 KECCAK256 PUSH1 0x9 ADD SLOAD PUSH2 0x321B SWAP2 SWAP1 PUSH2 0x4B09 JUMP JUMPDEST LT ISZERO PUSH2 0x325C JUMPI PUSH1 0x40 MLOAD PUSH32 0x8C379A000000000000000000000000000000000000000000000000000000000 DUP2 MSTORE PUSH1 0x4 ADD PUSH2 0x3253 SWAP1 PUSH2 0x5388 JUMP JUMPDEST PUSH1 0x40 MLOAD DUP1 SWAP2 SUB SWAP1 REVERT JUMPDEST JUMPDEST PUSH1 0x0 PUSH1 0x1 PUSH1 0x0 DUP9 DUP2 MSTORE PUSH1 0x20 ADD SWAP1 DUP2 MSTORE PUSH1 0x20 ADD PUSH1 0x0 KECCAK256 PUSH1 0x6 ADD SLOAD SWAP1 POP PUSH1 0x0 PUSH1 0x8 PUSH1 0x0 DUP9 DUP2 MSTORE PUSH1 0x20 ADD SWAP1 DUP2 MSTORE PUSH1 0x20 ADD PUSH1 0x0 KECCAK256 SWAP1 POP PUSH1 0x0 DUP2 PUSH1 0x3 ADD PUSH1 0x0 SWAP1 SLOAD SWAP1 PUSH2 0x100 EXP SWAP1 DIV PUSH20 0xFFFFFFFFFFFFFFFFFFFFFFFFFFFFFFFFFFFFFFFF AND SWAP1 POP DUP3 PUSH1 0x4 PUSH1 0x0 SWAP1 SLOAD SWAP1 PUSH2 0x100 EXP SWAP1 DIV PUSH20 0xFFFFFFFFFFFFFFFFFFFFFFFFFFFFFFFFFFFFFFFF AND PUSH20 0xFFFFFFFFFFFFFFFFFFFFFFFFFFFFFFFFFFFFFFFF AND PUSH4 0xB9B7650A DUP4 PUSH1 0x40 MLOAD DUP3 PUSH4 0xFFFFFFFF AND PUSH1 0xE0 SHL DUP2 MSTORE PUSH1 0x4 ADD PUSH2 0x3314 SWAP2 SWAP1 PUSH2 0x4272 JUMP JUMPDEST PUSH1 0x20 PUSH1 0x40 MLOAD DUP1 DUP4 SUB DUP2 DUP7 GAS STATICCALL ISZERO DUP1 ISZERO PUSH2 0x3331 JUMPI RETURNDATASIZE PUSH1 0x0 DUP1 RETURNDATACOPY RETURNDATASIZE PUSH1 0x0 REVERT JUMPDEST POP POP POP POP PUSH1 0x40 MLOAD RETURNDATASIZE PUSH1 0x1F NOT PUSH1 0x1F DUP3 ADD AND DUP3 ADD DUP1 PUSH1 0x40 MSTORE POP DUP2 ADD SWAP1 PUSH2 0x3355 SWAP2 SWAP1 PUSH2 0x47C8 JUMP JUMPDEST LT ISZERO PUSH2 0x3396 JUMPI PUSH1 0x40 MLOAD PUSH32 0x8C379A000000000000000000000000000000000000000000000000000000000 DUP2 MSTORE PUSH1 0x4 ADD PUSH2 0x338D SWAP1 PUSH2 0x53F4 JUMP JUMPDEST PUSH1 0x40 MLOAD DUP1 SWAP2 SUB SWAP1 REVERT JUMPDEST PUSH1 0x0 PUSH1 0x1 PUSH1 0x0 DUP12 DUP2 MSTORE PUSH1 0x20 ADD SWAP1 DUP2 MSTORE PUSH1 0x20 ADD PUSH1 0x0 KECCAK256 PUSH1 0x2 ADD PUSH1 0x1 ADD SLOAD SWAP1 POP PUSH1 0x4 PUSH1 0x0 SWAP1 SLOAD SWAP1 PUSH2 0x100 EXP SWAP1 DIV PUSH20 0xFFFFFFFFFFFFFFFFFFFFFFFFFFFFFFFFFFFFFFFF AND PUSH20 0xFFFFFFFFFFFFFFFFFFFFFFFFFFFFFFFFFFFFFFFF AND PUSH4 0x3456EA30 DUP4 DUP4 DUP8 PUSH1 0x40 MLOAD DUP5 PUSH4 0xFFFFFFFF AND PUSH1 0xE0 SHL DUP2 MSTORE PUSH1 0x4 ADD PUSH2 0x3413 SWAP4 SWAP3 SWAP2 SWAP1 PUSH2 0x4AD2 JUMP JUMPDEST PUSH1 0x0 PUSH1 0x40 MLOAD DUP1 DUP4 SUB DUP2 PUSH1 0x0 DUP8 DUP1 EXTCODESIZE ISZERO DUP1 ISZERO PUSH2 0x342D JUMPI PUSH1 0x0 DUP1 REVERT JUMPDEST POP GAS CALL ISZERO DUP1 ISZERO PUSH2 0x3441 JUMPI RETURNDATASIZE PUSH1 0x0 DUP1 RETURNDATACOPY RETURNDATASIZE PUSH1 0x0 REVERT JUMPDEST POP POP POP POP PUSH1 0x4 PUSH1 0x1 PUSH1 0x0 DUP13 DUP2 MSTORE PUSH1 0x20 ADD SWAP1 DUP2 MSTORE PUSH1 0x20 ADD PUSH1 0x0 KECCAK256 PUSH1 0x8 ADD PUSH1 0x1 PUSH2 0x100 EXP DUP2 SLOAD DUP2 PUSH1 0xFF MUL NOT AND SWAP1 DUP4 PUSH1 0x5 DUP2 GT ISZERO PUSH2 0x347F JUMPI PUSH2 0x347E PUSH2 0x3D30 JUMP JUMPDEST JUMPDEST MUL OR SWAP1 SSTORE POP PUSH32 0xA9059CBB2AB09EB219583F4A59A5D0623ADE346D962BCD4E46B11DA047C9049B DUP2 DUP6 PUSH1 0x40 MLOAD PUSH2 0x34B5 SWAP3 SWAP2 SWAP1 PUSH2 0x5414 JUMP JUMPDEST PUSH1 0x40 MLOAD DUP1 SWAP2 SUB SWAP1 LOG1 POP POP POP POP POP POP POP POP POP POP JUMP JUMPDEST DUP1 PUSH1 0x7 SLOAD DUP2 GT ISZERO DUP1 ISZERO PUSH2 0x34DD JUMPI POP PUSH1 0x0 DUP2 EQ ISZERO JUMPDEST PUSH2 0x351C JUMPI PUSH1 0x40 MLOAD PUSH32 0x8C379A000000000000000000000000000000000000000000000000000000000 DUP2 MSTORE PUSH1 0x4 ADD PUSH2 0x3513 SWAP1 PUSH2 0x4727 JUMP JUMPDEST PUSH1 0x40 MLOAD DUP1 SWAP2 SUB SWAP1 REVERT JUMPDEST PUSH1 0x0 PUSH1 0x8 PUSH1 0x0 DUP5 DUP2 MSTORE PUSH1 0x20 ADD SWAP1 DUP2 MSTORE PUSH1 0x20 ADD PUSH1 0x0 KECCAK256 SWAP1 POP PUSH1 0x0 DUP2 PUSH1 0x4 ADD SLOAD SWAP1 POP PUSH1 0x32 DUP2 LT ISZERO DUP1 ISZERO PUSH2 0x354E JUMPI POP PUSH1 0xC8 DUP2 GT ISZERO JUMPDEST ISZERO PUSH2 0x3562 JUMPI PUSH1 0x1 DUP3 PUSH1 0x1 ADD DUP2 SWAP1 SSTORE POP PUSH2 0x3618 JUMP JUMPDEST PUSH1 0xC8 DUP2 GT DUP1 ISZERO PUSH2 0x3574 JUMPI POP PUSH2 0x15E DUP2 GT ISZERO JUMPDEST ISZERO PUSH2 0x3588 JUMPI PUSH1 0x2 DUP3 PUSH1 0x1 ADD DUP2 SWAP1 SSTORE POP PUSH2 0x3617 JUMP JUMPDEST PUSH2 0x15E DUP2 GT DUP1 ISZERO PUSH2 0x359B JUMPI POP PUSH2 0x1C2 DUP2 GT ISZERO JUMPDEST ISZERO PUSH2 0x35AF JUMPI PUSH1 0x3 DUP3 PUSH1 0x1 ADD DUP2 SWAP1 SSTORE POP PUSH2 0x3616 JUMP JUMPDEST PUSH2 0x1C2 DUP2 GT DUP1 ISZERO PUSH2 0x35C2 JUMPI POP PUSH2 0x320 DUP2 GT ISZERO JUMPDEST ISZERO PUSH2 0x35D6 JUMPI PUSH1 0x4 DUP3 PUSH1 0x1 ADD DUP2 SWAP1 SSTORE POP PUSH2 0x3615 JUMP JUMPDEST PUSH2 0x320 DUP2 GT DUP1 ISZERO PUSH2 0x35E9 JUMPI POP PUSH2 0x7D0 DUP2 GT ISZERO JUMPDEST ISZERO PUSH2 0x35FD JUMPI PUSH1 0x5 DUP3 PUSH1 0x1 ADD DUP2 SWAP1 SSTORE POP PUSH2 0x3614 JUMP JUMPDEST PUSH2 0x7D0 DUP2 GT ISZERO PUSH2 0x3613 JUMPI PUSH2 0x3E7 DUP3 PUSH1 0x1 ADD DUP2 SWAP1 SSTORE POP JUMPDEST JUMPDEST JUMPDEST JUMPDEST JUMPDEST JUMPDEST POP POP POP POP JUMP JUMPDEST PUSH1 0x40 MLOAD DUP1 PUSH2 0x120 ADD PUSH1 0x40 MSTORE DUP1 PUSH1 0x0 DUP2 MSTORE PUSH1 0x20 ADD PUSH1 0x0 DUP2 MSTORE PUSH1 0x20 ADD PUSH2 0x3640 PUSH2 0x3694 JUMP JUMPDEST DUP2 MSTORE PUSH1 0x20 ADD PUSH1 0x0 DUP2 MSTORE PUSH1 0x20 ADD PUSH1 0x0 DUP2 MSTORE PUSH1 0x20 ADD PUSH1 0x0 PUSH1 0x1 DUP2 GT ISZERO PUSH2 0x3667 JUMPI PUSH2 0x3666 PUSH2 0x3D30 JUMP JUMPDEST JUMPDEST DUP2 MSTORE PUSH1 0x20 ADD PUSH1 0x0 PUSH1 0x5 DUP2 GT ISZERO PUSH2 0x3680 JUMPI PUSH2 0x367F PUSH2 0x3D30 JUMP JUMPDEST JUMPDEST DUP2 MSTORE PUSH1 0x20 ADD PUSH1 0x0 DUP2 MSTORE PUSH1 0x20 ADD PUSH1 0x0 DUP2 MSTORE POP SWAP1 JUMP JUMPDEST PUSH1 0x40 MLOAD DUP1 PUSH1 0x80 ADD PUSH1 0x40 MSTORE DUP1 PUSH1 0x0 DUP2 MSTORE PUSH1 0x20 ADD PUSH1 0x0 DUP2 MSTORE PUSH1 0x20 ADD PUSH1 0x0 DUP2 MSTORE PUSH1 0x20 ADD PUSH1 0x0 DUP2 MSTORE POP SWAP1 JUMP JUMPDEST PUSH1 0x0 PUSH1 0x40 MLOAD SWAP1 POP SWAP1 JUMP JUMPDEST PUSH1 0x0 DUP1 REVERT JUMPDEST PUSH1 0x0 DUP1 REVERT JUMPDEST PUSH1 0x0 DUP1 REVERT JUMPDEST PUSH1 0x0 DUP1 REVERT JUMPDEST PUSH1 0x0 PUSH1 0x1F NOT PUSH1 0x1F DUP4 ADD AND SWAP1 POP SWAP2 SWAP1 POP JUMP JUMPDEST PUSH32 0x4E487B7100000000000000000000000000000000000000000000000000000000 PUSH1 0x0 MSTORE PUSH1 0x41 PUSH1 0x4 MSTORE PUSH1 0x24 PUSH1 0x0 REVERT JUMPDEST PUSH2 0x3723 DUP3 PUSH2 0x36DA JUMP JUMPDEST DUP2 ADD DUP2 DUP2 LT PUSH8 0xFFFFFFFFFFFFFFFF DUP3 GT OR ISZERO PUSH2 0x3742 JUMPI PUSH2 0x3741 PUSH2 0x36EB JUMP JUMPDEST JUMPDEST DUP1 PUSH1 0x40 MSTORE POP POP POP JUMP JUMPDEST PUSH1 0x0 PUSH2 0x3755 PUSH2 0x36BC JUMP JUMPDEST SWAP1 POP PUSH2 0x3761 DUP3 DUP3 PUSH2 0x371A JUMP JUMPDEST SWAP2 SWAP1 POP JUMP JUMPDEST PUSH1 0x0 PUSH8 0xFFFFFFFFFFFFFFFF DUP3 GT ISZERO PUSH2 0x3781 JUMPI PUSH2 0x3780 PUSH2 0x36EB JUMP JUMPDEST JUMPDEST PUSH2 0x378A DUP3 PUSH2 0x36DA JUMP JUMPDEST SWAP1 POP PUSH1 0x20 DUP2 ADD SWAP1 POP SWAP2 SWAP1 POP JUMP JUMPDEST DUP3 DUP2 DUP4 CALLDATACOPY PUSH1 0x0 DUP4 DUP4 ADD MSTORE POP POP POP JUMP JUMPDEST PUSH1 0x0 PUSH2 0x37B9 PUSH2 0x37B4 DUP5 PUSH2 0x3766 JUMP JUMPDEST PUSH2 0x374B JUMP JUMPDEST SWAP1 POP DUP3 DUP2 MSTORE PUSH1 0x20 DUP2 ADD DUP5 DUP5 DUP5 ADD GT ISZERO PUSH2 0x37D5 JUMPI PUSH2 0x37D4 PUSH2 0x36D5 JUMP JUMPDEST JUMPDEST PUSH2 0x37E0 DUP5 DUP3 DUP6 PUSH2 0x3797 JUMP JUMPDEST POP SWAP4 SWAP3 POP POP POP JUMP JUMPDEST PUSH1 0x0 DUP3 PUSH1 0x1F DUP4 ADD SLT PUSH2 0x37FD JUMPI PUSH2 0x37FC PUSH2 0x36D0 JUMP JUMPDEST JUMPDEST DUP2 CALLDATALOAD PUSH2 0x380D DUP5 DUP3 PUSH1 0x20 DUP7 ADD PUSH2 0x37A6 JUMP JUMPDEST SWAP2 POP POP SWAP3 SWAP2 POP POP JUMP JUMPDEST PUSH1 0x0 PUSH1 0x20 DUP3 DUP5 SUB SLT ISZERO PUSH2 0x382C JUMPI PUSH2 0x382B PUSH2 0x36C6 JUMP JUMPDEST JUMPDEST PUSH1 0x0 DUP3 ADD CALLDATALOAD PUSH8 0xFFFFFFFFFFFFFFFF DUP2 GT ISZERO PUSH2 0x384A JUMPI PUSH2 0x3849 PUSH2 0x36CB JUMP JUMPDEST JUMPDEST PUSH2 0x3856 DUP5 DUP3 DUP6 ADD PUSH2 0x37E8 JUMP JUMPDEST SWAP2 POP POP SWAP3 SWAP2 POP POP JUMP JUMPDEST PUSH1 0x0 DUP2 SWAP1 POP SWAP2 SWAP1 POP JUMP JUMPDEST PUSH2 0x3872 DUP2 PUSH2 0x385F JUMP JUMPDEST DUP3 MSTORE POP POP JUMP JUMPDEST PUSH1 0x0 PUSH1 0x20 DUP3 ADD SWAP1 POP PUSH2 0x388D PUSH1 0x0 DUP4 ADD DUP5 PUSH2 0x3869 JUMP JUMPDEST SWAP3 SWAP2 POP POP JUMP JUMPDEST PUSH2 0x389C DUP2 PUSH2 0x385F JUMP JUMPDEST DUP2 EQ PUSH2 0x38A7 JUMPI PUSH1 0x0 DUP1 REVERT JUMPDEST POP JUMP JUMPDEST PUSH1 0x0 DUP2 CALLDATALOAD SWAP1 POP PUSH2 0x38B9 DUP2 PUSH2 0x3893 JUMP JUMPDEST SWAP3 SWAP2 POP POP JUMP JUMPDEST PUSH1 0x0 PUSH1 0x20 DUP3 DUP5 SUB SLT ISZERO PUSH2 0x38D5 JUMPI PUSH2 0x38D4 PUSH2 0x36C6 JUMP JUMPDEST JUMPDEST PUSH1 0x0 PUSH2 0x38E3 DUP5 DUP3 DUP6 ADD PUSH2 0x38AA JUMP JUMPDEST SWAP2 POP POP SWAP3 SWAP2 POP POP JUMP JUMPDEST PUSH1 0x0 PUSH20 0xFFFFFFFFFFFFFFFFFFFFFFFFFFFFFFFFFFFFFFFF DUP3 AND SWAP1 POP SWAP2 SWAP1 POP JUMP JUMPDEST PUSH1 0x0 PUSH2 0x3917 DUP3 PUSH2 0x38EC JUMP JUMPDEST SWAP1 POP SWAP2 SWAP1 POP JUMP JUMPDEST PUSH2 0x3927 DUP2 PUSH2 0x390C JUMP JUMPDEST DUP2 EQ PUSH2 0x3932 JUMPI PUSH1 0x0 DUP1 REVERT JUMPDEST POP JUMP JUMPDEST PUSH1 0x0 DUP2 CALLDATALOAD SWAP1 POP PUSH2 0x3944 DUP2 PUSH2 0x391E JUMP JUMPDEST SWAP3 SWAP2 POP POP JUMP JUMPDEST PUSH1 0x0 PUSH1 0x20 DUP3 DUP5 SUB SLT ISZERO PUSH2 0x3960 JUMPI PUSH2 0x395F PUSH2 0x36C6 JUMP JUMPDEST JUMPDEST PUSH1 0x0 PUSH2 0x396E DUP5 DUP3 DUP6 ADD PUSH2 0x3935 JUMP JUMPDEST SWAP2 POP POP SWAP3 SWAP2 POP POP JUMP JUMPDEST PUSH1 0x0 DUP1 PUSH1 0x40 DUP4 DUP6 SUB SLT ISZERO PUSH2 0x398E JUMPI PUSH2 0x398D PUSH2 0x36C6 JUMP JUMPDEST JUMPDEST PUSH1 0x0 PUSH2 0x399C DUP6 DUP3 DUP7 ADD PUSH2 0x38AA JUMP JUMPDEST SWAP3 POP POP PUSH1 0x20 PUSH2 0x39AD DUP6 DUP3 DUP7 ADD PUSH2 0x38AA JUMP JUMPDEST SWAP2 POP POP SWAP3 POP SWAP3 SWAP1 POP JUMP JUMPDEST PUSH1 0x0 DUP1 PUSH1 0x0 DUP1 PUSH1 0x80 DUP6 DUP8 SUB SLT ISZERO PUSH2 0x39D1 JUMPI PUSH2 0x39D0 PUSH2 0x36C6 JUMP JUMPDEST JUMPDEST PUSH1 0x0 PUSH2 0x39DF DUP8 DUP3 DUP9 ADD PUSH2 0x38AA JUMP JUMPDEST SWAP5 POP POP PUSH1 0x20 PUSH2 0x39F0 DUP8 DUP3 DUP9 ADD PUSH2 0x38AA JUMP JUMPDEST SWAP4 POP POP PUSH1 0x40 DUP6 ADD CALLDATALOAD PUSH8 0xFFFFFFFFFFFFFFFF DUP2 GT ISZERO PUSH2 0x3A11 JUMPI PUSH2 0x3A10 PUSH2 0x36CB JUMP JUMPDEST JUMPDEST PUSH2 0x3A1D DUP8 DUP3 DUP9 ADD PUSH2 0x37E8 JUMP JUMPDEST SWAP3 POP POP PUSH1 0x60 DUP6 ADD CALLDATALOAD PUSH8 0xFFFFFFFFFFFFFFFF DUP2 GT ISZERO PUSH2 0x3A3E JUMPI PUSH2 0x3A3D PUSH2 0x36CB JUMP JUMPDEST JUMPDEST PUSH2 0x3A4A DUP8 DUP3 DUP9 ADD PUSH2 0x37E8 JUMP JUMPDEST SWAP2 POP POP SWAP3 SWAP6 SWAP2 SWAP5 POP SWAP3 POP JUMP JUMPDEST PUSH1 0x0 DUP2 ISZERO ISZERO SWAP1 POP SWAP2 SWAP1 POP JUMP JUMPDEST PUSH2 0x3A6B DUP2 PUSH2 0x3A56 JUMP JUMPDEST DUP3 MSTORE POP POP JUMP JUMPDEST PUSH1 0x0 PUSH1 0x40 DUP3 ADD SWAP1 POP PUSH2 0x3A86 PUSH1 0x0 DUP4 ADD DUP6 PUSH2 0x3A62 JUMP JUMPDEST PUSH2 0x3A93 PUSH1 0x20 DUP4 ADD DUP5 PUSH2 0x3869 JUMP JUMPDEST SWAP4 SWAP3 POP POP POP JUMP JUMPDEST PUSH1 0x0 DUP2 MLOAD SWAP1 POP SWAP2 SWAP1 POP JUMP JUMPDEST PUSH1 0x0 DUP3 DUP3 MSTORE PUSH1 0x20 DUP3 ADD SWAP1 POP SWAP3 SWAP2 POP POP JUMP JUMPDEST PUSH1 0x0 JUMPDEST DUP4 DUP2 LT ISZERO PUSH2 0x3AD4 JUMPI DUP1 DUP3 ADD MLOAD DUP2 DUP5 ADD MSTORE PUSH1 0x20 DUP2 ADD SWAP1 POP PUSH2 0x3AB9 JUMP JUMPDEST PUSH1 0x0 DUP5 DUP5 ADD MSTORE POP POP POP POP JUMP JUMPDEST PUSH1 0x0 PUSH2 0x3AEB DUP3 PUSH2 0x3A9A JUMP JUMPDEST PUSH2 0x3AF5 DUP2 DUP6 PUSH2 0x3AA5 JUMP JUMPDEST SWAP4 POP PUSH2 0x3B05 DUP2 DUP6 PUSH1 0x20 DUP7 ADD PUSH2 0x3AB6 JUMP JUMPDEST PUSH2 0x3B0E DUP2 PUSH2 0x36DA JUMP JUMPDEST DUP5 ADD SWAP2 POP POP SWAP3 SWAP2 POP POP JUMP JUMPDEST PUSH2 0x3B22 DUP2 PUSH2 0x390C JUMP JUMPDEST DUP3 MSTORE POP POP JUMP JUMPDEST PUSH1 0x0 PUSH1 0xA0 DUP3 ADD SWAP1 POP PUSH2 0x3B3D PUSH1 0x0 DUP4 ADD DUP9 PUSH2 0x3869 JUMP JUMPDEST PUSH2 0x3B4A PUSH1 0x20 DUP4 ADD DUP8 PUSH2 0x3869 JUMP JUMPDEST DUP2 DUP2 SUB PUSH1 0x40 DUP4 ADD MSTORE PUSH2 0x3B5C DUP2 DUP7 PUSH2 0x3AE0 JUMP JUMPDEST SWAP1 POP PUSH2 0x3B6B PUSH1 0x60 DUP4 ADD DUP6 PUSH2 0x3B19 JUMP JUMPDEST PUSH2 0x3B78 PUSH1 0x80 DUP4 ADD DUP5 PUSH2 0x3869 JUMP JUMPDEST SWAP7 SWAP6 POP POP POP POP POP POP JUMP JUMPDEST PUSH1 0x2 DUP2 LT PUSH2 0x3B8F JUMPI PUSH1 0x0 DUP1 REVERT JUMPDEST POP JUMP JUMPDEST PUSH1 0x0 DUP2 CALLDATALOAD SWAP1 POP PUSH2 0x3BA1 DUP2 PUSH2 0x3B82 JUMP JUMPDEST SWAP3 SWAP2 POP POP JUMP JUMPDEST PUSH1 0x0 DUP1 PUSH1 0x0 DUP1 PUSH1 0x0 DUP1 PUSH1 0xC0 DUP8 DUP10 SUB SLT ISZERO PUSH2 0x3BC4 JUMPI PUSH2 0x3BC3 PUSH2 0x36C6 JUMP JUMPDEST JUMPDEST PUSH1 0x0 PUSH2 0x3BD2 DUP10 DUP3 DUP11 ADD PUSH2 0x38AA JUMP JUMPDEST SWAP7 POP POP PUSH1 0x20 PUSH2 0x3BE3 DUP10 DUP3 DUP11 ADD PUSH2 0x38AA JUMP JUMPDEST SWAP6 POP POP PUSH1 0x40 PUSH2 0x3BF4 DUP10 DUP3 DUP11 ADD PUSH2 0x38AA JUMP JUMPDEST SWAP5 POP POP PUSH1 0x60 PUSH2 0x3C05 DUP10 DUP3 DUP11 ADD PUSH2 0x3B92 JUMP JUMPDEST SWAP4 POP POP PUSH1 0x80 PUSH2 0x3C16 DUP10 DUP3 DUP11 ADD PUSH2 0x38AA JUMP JUMPDEST SWAP3 POP POP PUSH1 0xA0 PUSH2 0x3C27 DUP10 DUP3 DUP11 ADD PUSH2 0x38AA JUMP JUMPDEST SWAP2 POP POP SWAP3 SWAP6 POP SWAP3 SWAP6 POP SWAP3 SWAP6 JUMP JUMPDEST PUSH1 0x0 PUSH1 0x80 DUP3 ADD SWAP1 POP PUSH2 0x3C49 PUSH1 0x0 DUP4 ADD DUP8 PUSH2 0x3869 JUMP JUMPDEST PUSH2 0x3C56 PUSH1 0x20 DUP4 ADD DUP7 PUSH2 0x3869 JUMP JUMPDEST PUSH2 0x3C63 PUSH1 0x40 DUP4 ADD DUP6 PUSH2 0x3869 JUMP JUMPDEST PUSH2 0x3C70 PUSH1 0x60 DUP4 ADD DUP5 PUSH2 0x3869 JUMP JUMPDEST SWAP6 SWAP5 POP POP POP POP POP JUMP JUMPDEST PUSH1 0x0 DUP1 PUSH1 0x0 PUSH1 0x60 DUP5 DUP7 SUB SLT ISZERO PUSH2 0x3C92 JUMPI PUSH2 0x3C91 PUSH2 0x36C6 JUMP JUMPDEST JUMPDEST PUSH1 0x0 PUSH2 0x3CA0 DUP7 DUP3 DUP8 ADD PUSH2 0x38AA JUMP JUMPDEST SWAP4 POP POP PUSH1 0x20 PUSH2 0x3CB1 DUP7 DUP3 DUP8 ADD PUSH2 0x38AA JUMP JUMPDEST SWAP3 POP POP PUSH1 0x40 PUSH2 0x3CC2 DUP7 DUP3 DUP8 ADD PUSH2 0x38AA JUMP JUMPDEST SWAP2 POP POP SWAP3 POP SWAP3 POP SWAP3 JUMP JUMPDEST PUSH2 0x3CD5 DUP2 PUSH2 0x385F JUMP JUMPDEST DUP3 MSTORE POP POP JUMP JUMPDEST PUSH1 0x80 DUP3 ADD PUSH1 0x0 DUP3 ADD MLOAD PUSH2 0x3CF1 PUSH1 0x0 DUP6 ADD DUP3 PUSH2 0x3CCC JUMP JUMPDEST POP PUSH1 0x20 DUP3 ADD MLOAD PUSH2 0x3D04 PUSH1 0x20 DUP6 ADD DUP3 PUSH2 0x3CCC JUMP JUMPDEST POP PUSH1 0x40 DUP3 ADD MLOAD PUSH2 0x3D17 PUSH1 0x40 DUP6 ADD DUP3 PUSH2 0x3CCC JUMP JUMPDEST POP PUSH1 0x60 DUP3 ADD MLOAD PUSH2 0x3D2A PUSH1 0x60 DUP6 ADD DUP3 PUSH2 0x3CCC JUMP JUMPDEST POP POP POP POP JUMP JUMPDEST PUSH32 0x4E487B7100000000000000000000000000000000000000000000000000000000 PUSH1 0x0 MSTORE PUSH1 0x21 PUSH1 0x4 MSTORE PUSH1 0x24 PUSH1 0x0 REVERT JUMPDEST PUSH1 0x2 DUP2 LT PUSH2 0x3D70 JUMPI PUSH2 0x3D6F PUSH2 0x3D30 JUMP JUMPDEST JUMPDEST POP JUMP JUMPDEST PUSH1 0x0 DUP2 SWAP1 POP PUSH2 0x3D81 DUP3 PUSH2 0x3D5F JUMP JUMPDEST SWAP2 SWAP1 POP JUMP JUMPDEST PUSH1 0x0 PUSH2 0x3D91 DUP3 PUSH2 0x3D73 JUMP JUMPDEST SWAP1 POP SWAP2 SWAP1 POP JUMP JUMPDEST PUSH2 0x3DA1 DUP2 PUSH2 0x3D86 JUMP JUMPDEST DUP3 MSTORE POP POP JUMP JUMPDEST PUSH1 0x6 DUP2 LT PUSH2 0x3DB8 JUMPI PUSH2 0x3DB7 PUSH2 0x3D30 JUMP JUMPDEST JUMPDEST POP JUMP JUMPDEST PUSH1 0x0 DUP2 SWAP1 POP PUSH2 0x3DC9 DUP3 PUSH2 0x3DA7 JUMP JUMPDEST SWAP2 SWAP1 POP JUMP JUMPDEST PUSH1 0x0 PUSH2 0x3DD9 DUP3 PUSH2 0x3DBB JUMP JUMPDEST SWAP1 POP SWAP2 SWAP1 POP JUMP JUMPDEST PUSH2 0x3DE9 DUP2 PUSH2 0x3DCE JUMP JUMPDEST DUP3 MSTORE POP POP JUMP JUMPDEST PUSH1 0x0 PUSH2 0x180 DUP3 ADD SWAP1 POP PUSH2 0x3E05 PUSH1 0x0 DUP4 ADD DUP13 PUSH2 0x3869 JUMP JUMPDEST PUSH2 0x3E12 PUSH1 0x20 DUP4 ADD DUP12 PUSH2 0x3869 JUMP JUMPDEST PUSH2 0x3E1F PUSH1 0x40 DUP4 ADD DUP11 PUSH2 0x3CDB JUMP JUMPDEST PUSH2 0x3E2C PUSH1 0xC0 DUP4 ADD DUP10 PUSH2 0x3869 JUMP JUMPDEST PUSH2 0x3E39 PUSH1 0xE0 DUP4 ADD DUP9 PUSH2 0x3869 JUMP JUMPDEST PUSH2 0x3E47 PUSH2 0x100 DUP4 ADD DUP8 PUSH2 0x3D98 JUMP JUMPDEST PUSH2 0x3E55 PUSH2 0x120 DUP4 ADD DUP7 PUSH2 0x3DE0 JUMP JUMPDEST PUSH2 0x3E63 PUSH2 0x140 DUP4 ADD DUP6 PUSH2 0x3869 JUMP JUMPDEST PUSH2 0x3E71 PUSH2 0x160 DUP4 ADD DUP5 PUSH2 0x3869 JUMP JUMPDEST SWAP11 SWAP10 POP POP POP POP POP POP POP POP POP POP JUMP JUMPDEST PUSH1 0x0 PUSH1 0x20 DUP3 ADD SWAP1 POP PUSH2 0x3E94 PUSH1 0x0 DUP4 ADD DUP5 PUSH2 0x3DE0 JUMP JUMPDEST SWAP3 SWAP2 POP POP JUMP JUMPDEST PUSH1 0x3 DUP2 LT PUSH2 0x3EAB JUMPI PUSH2 0x3EAA PUSH2 0x3D30 JUMP JUMPDEST JUMPDEST POP JUMP JUMPDEST PUSH1 0x0 DUP2 SWAP1 POP PUSH2 0x3EBC DUP3 PUSH2 0x3E9A JUMP JUMPDEST SWAP2 SWAP1 POP JUMP JUMPDEST PUSH1 0x0 PUSH2 0x3ECC DUP3 PUSH2 0x3EAE JUMP JUMPDEST SWAP1 POP SWAP2 SWAP1 POP JUMP JUMPDEST PUSH2 0x3EDC DUP2 PUSH2 0x3EC1 JUMP JUMPDEST DUP3 MSTORE POP POP JUMP JUMPDEST PUSH1 0x0 PUSH1 0x40 DUP3 ADD SWAP1 POP PUSH2 0x3EF7 PUSH1 0x0 DUP4 ADD DUP6 PUSH2 0x3ED3 JUMP JUMPDEST PUSH2 0x3F04 PUSH1 0x20 DUP4 ADD DUP5 PUSH2 0x3869 JUMP JUMPDEST SWAP4 SWAP3 POP POP POP JUMP JUMPDEST PUSH1 0x0 PUSH1 0x20 DUP3 ADD SWAP1 POP DUP2 DUP2 SUB PUSH1 0x0 DUP4 ADD MSTORE PUSH2 0x3F25 DUP2 DUP5 PUSH2 0x3AE0 JUMP JUMPDEST SWAP1 POP SWAP3 SWAP2 POP POP JUMP JUMPDEST PUSH1 0x0 PUSH8 0xFFFFFFFFFFFFFFFF DUP3 GT ISZERO PUSH2 0x3F48 JUMPI PUSH2 0x3F47 PUSH2 0x36EB JUMP JUMPDEST JUMPDEST PUSH2 0x3F51 DUP3 PUSH2 0x36DA JUMP JUMPDEST SWAP1 POP PUSH1 0x20 DUP2 ADD SWAP1 POP SWAP2 SWAP1 POP JUMP JUMPDEST PUSH1 0x0 PUSH2 0x3F71 PUSH2 0x3F6C DUP5 PUSH2 0x3F2D JUMP JUMPDEST PUSH2 0x374B JUMP JUMPDEST SWAP1 POP DUP3 DUP2 MSTORE PUSH1 0x20 DUP2 ADD DUP5 DUP5 DUP5 ADD GT ISZERO PUSH2 0x3F8D JUMPI PUSH2 0x3F8C PUSH2 0x36D5 JUMP JUMPDEST JUMPDEST PUSH2 0x3F98 DUP5 DUP3 DUP6 PUSH2 0x3797 JUMP JUMPDEST POP SWAP4 SWAP3 POP POP POP JUMP JUMPDEST PUSH1 0x0 DUP3 PUSH1 0x1F DUP4 ADD SLT PUSH2 0x3FB5 JUMPI PUSH2 0x3FB4 PUSH2 0x36D0 JUMP JUMPDEST JUMPDEST DUP2 CALLDATALOAD PUSH2 0x3FC5 DUP5 DUP3 PUSH1 0x20 DUP7 ADD PUSH2 0x3F5E JUMP JUMPDEST SWAP2 POP POP SWAP3 SWAP2 POP POP JUMP JUMPDEST PUSH1 0x0 DUP1 PUSH1 0x0 DUP1 PUSH1 0x0 DUP1 PUSH1 0x0 PUSH1 0xE0 DUP9 DUP11 SUB SLT ISZERO PUSH2 0x3FED JUMPI PUSH2 0x3FEC PUSH2 0x36C6 JUMP JUMPDEST JUMPDEST PUSH1 0x0 PUSH2 0x3FFB DUP11 DUP3 DUP12 ADD PUSH2 0x38AA JUMP JUMPDEST SWAP8 POP POP PUSH1 0x20 PUSH2 0x400C DUP11 DUP3 DUP12 ADD PUSH2 0x38AA JUMP JUMPDEST SWAP7 POP POP PUSH1 0x40 DUP9 ADD CALLDATALOAD PUSH8 0xFFFFFFFFFFFFFFFF DUP2 GT ISZERO PUSH2 0x402D JUMPI PUSH2 0x402C PUSH2 0x36CB JUMP JUMPDEST JUMPDEST PUSH2 0x4039 DUP11 DUP3 DUP12 ADD PUSH2 0x3FA0 JUMP JUMPDEST SWAP6 POP POP PUSH1 0x60 PUSH2 0x404A DUP11 DUP3 DUP12 ADD PUSH2 0x38AA JUMP JUMPDEST SWAP5 POP POP PUSH1 0x80 PUSH2 0x405B DUP11 DUP3 DUP12 ADD PUSH2 0x38AA JUMP JUMPDEST SWAP4 POP POP PUSH1 0xA0 DUP9 ADD CALLDATALOAD PUSH8 0xFFFFFFFFFFFFFFFF DUP2 GT ISZERO PUSH2 0x407C JUMPI PUSH2 0x407B PUSH2 0x36CB JUMP JUMPDEST JUMPDEST PUSH2 0x4088 DUP11 DUP3 DUP12 ADD PUSH2 0x37E8 JUMP JUMPDEST SWAP3 POP POP PUSH1 0xC0 DUP9 ADD CALLDATALOAD PUSH8 0xFFFFFFFFFFFFFFFF DUP2 GT ISZERO PUSH2 0x40A9 JUMPI PUSH2 0x40A8 PUSH2 0x36CB JUMP JUMPDEST JUMPDEST PUSH2 0x40B5 DUP11 DUP3 DUP12 ADD PUSH2 0x37E8 JUMP JUMPDEST SWAP2 POP POP SWAP3 SWAP6 SWAP9 SWAP2 SWAP5 SWAP8 POP SWAP3 SWAP6 POP JUMP JUMPDEST PUSH1 0x80 DUP3 ADD PUSH1 0x0 DUP3 ADD MLOAD PUSH2 0x40DA PUSH1 0x0 DUP6 ADD DUP3 PUSH2 0x3CCC JUMP JUMPDEST POP PUSH1 0x20 DUP3 ADD MLOAD PUSH2 0x40ED PUSH1 0x20 DUP6 ADD DUP3 PUSH2 0x3CCC JUMP JUMPDEST POP PUSH1 0x40 DUP3 ADD MLOAD PUSH2 0x4100 PUSH1 0x40 DUP6 ADD DUP3 PUSH2 0x3CCC JUMP JUMPDEST POP PUSH1 0x60 DUP3 ADD MLOAD PUSH2 0x4113 PUSH1 0x60 DUP6 ADD DUP3 PUSH2 0x3CCC JUMP JUMPDEST POP POP POP POP JUMP JUMPDEST PUSH2 0x4122 DUP2 PUSH2 0x3D86 JUMP JUMPDEST DUP3 MSTORE POP POP JUMP JUMPDEST PUSH2 0x4131 DUP2 PUSH2 0x3DCE JUMP JUMPDEST DUP3 MSTORE POP POP JUMP JUMPDEST PUSH2 0x180 DUP3 ADD PUSH1 0x0 DUP3 ADD MLOAD PUSH2 0x414E PUSH1 0x0 DUP6 ADD DUP3 PUSH2 0x3CCC JUMP JUMPDEST POP PUSH1 0x20 DUP3 ADD MLOAD PUSH2 0x4161 PUSH1 0x20 DUP6 ADD DUP3 PUSH2 0x3CCC JUMP JUMPDEST POP PUSH1 0x40 DUP3 ADD MLOAD PUSH2 0x4174 PUSH1 0x40 DUP6 ADD DUP3 PUSH2 0x40C4 JUMP JUMPDEST POP PUSH1 0x60 DUP3 ADD MLOAD PUSH2 0x4187 PUSH1 0xC0 DUP6 ADD DUP3 PUSH2 0x3CCC JUMP JUMPDEST POP PUSH1 0x80 DUP3 ADD MLOAD PUSH2 0x419A PUSH1 0xE0 DUP6 ADD DUP3 PUSH2 0x3CCC JUMP JUMPDEST POP PUSH1 0xA0 DUP3 ADD MLOAD PUSH2 0x41AE PUSH2 0x100 DUP6 ADD DUP3 PUSH2 0x4119 JUMP JUMPDEST POP PUSH1 0xC0 DUP3 ADD MLOAD PUSH2 0x41C2 PUSH2 0x120 DUP6 ADD DUP3 PUSH2 0x4128 JUMP JUMPDEST POP PUSH1 0xE0 DUP3 ADD MLOAD PUSH2 0x41D6 PUSH2 0x140 DUP6 ADD DUP3 PUSH2 0x3CCC JUMP JUMPDEST POP PUSH2 0x100 DUP3 ADD MLOAD PUSH2 0x41EB PUSH2 0x160 DUP6 ADD DUP3 PUSH2 0x3CCC JUMP JUMPDEST POP POP POP POP JUMP JUMPDEST PUSH1 0x0 PUSH2 0x180 DUP3 ADD SWAP1 POP PUSH2 0x4207 PUSH1 0x0 DUP4 ADD DUP5 PUSH2 0x4137 JUMP JUMPDEST SWAP3 SWAP2 POP POP JUMP JUMPDEST PUSH1 0x6 DUP2 LT PUSH2 0x421A JUMPI PUSH1 0x0 DUP1 REVERT JUMPDEST POP JUMP JUMPDEST PUSH1 0x0 DUP2 CALLDATALOAD SWAP1 POP PUSH2 0x422C DUP2 PUSH2 0x420D JUMP JUMPDEST SWAP3 SWAP2 POP POP JUMP JUMPDEST PUSH1 0x0 DUP1 PUSH1 0x40 DUP4 DUP6 SUB SLT ISZERO PUSH2 0x4249 JUMPI PUSH2 0x4248 PUSH2 0x36C6 JUMP JUMPDEST JUMPDEST PUSH1 0x0 PUSH2 0x4257 DUP6 DUP3 DUP7 ADD PUSH2 0x421D JUMP JUMPDEST SWAP3 POP POP PUSH1 0x20 PUSH2 0x4268 DUP6 DUP3 DUP7 ADD PUSH2 0x38AA JUMP JUMPDEST SWAP2 POP POP SWAP3 POP SWAP3 SWAP1 POP JUMP JUMPDEST PUSH1 0x0 PUSH1 0x20 DUP3 ADD SWAP1 POP PUSH2 0x4287 PUSH1 0x0 DUP4 ADD DUP5 PUSH2 0x3B19 JUMP JUMPDEST SWAP3 SWAP2 POP POP JUMP JUMPDEST PUSH1 0x0 DUP1 PUSH1 0x0 DUP1 PUSH1 0x80 DUP6 DUP8 SUB SLT ISZERO PUSH2 0x42A7 JUMPI PUSH2 0x42A6 PUSH2 0x36C6 JUMP JUMPDEST JUMPDEST PUSH1 0x0 PUSH2 0x42B5 DUP8 DUP3 DUP9 ADD PUSH2 0x38AA JUMP JUMPDEST SWAP5 POP POP PUSH1 0x20 PUSH2 0x42C6 DUP8 DUP3 DUP9 ADD PUSH2 0x38AA JUMP JUMPDEST SWAP4 POP POP PUSH1 0x40 PUSH2 0x42D7 DUP8 DUP3 DUP9 ADD PUSH2 0x38AA JUMP JUMPDEST SWAP3 POP POP PUSH1 0x60 PUSH2 0x42E8 DUP8 DUP3 DUP9 ADD PUSH2 0x38AA JUMP JUMPDEST SWAP2 POP POP SWAP3 SWAP6 SWAP2 SWAP5 POP SWAP3 POP JUMP JUMPDEST PUSH32 0x6174206C6561737420302E303120455448206973206E656564656420746F2063 PUSH1 0x0 DUP3 ADD MSTORE PUSH32 0x7265617465206120636F6D70616E790000000000000000000000000000000000 PUSH1 0x20 DUP3 ADD MSTORE POP JUMP JUMPDEST PUSH1 0x0 PUSH2 0x4350 PUSH1 0x2F DUP4 PUSH2 0x3AA5 JUMP JUMPDEST SWAP2 POP PUSH2 0x435B DUP3 PUSH2 0x42F4 JUMP JUMPDEST PUSH1 0x40 DUP3 ADD SWAP1 POP SWAP2 SWAP1 POP JUMP JUMPDEST PUSH1 0x0 PUSH1 0x20 DUP3 ADD SWAP1 POP DUP2 DUP2 SUB PUSH1 0x0 DUP4 ADD MSTORE PUSH2 0x437F DUP2 PUSH2 0x4343 JUMP JUMPDEST SWAP1 POP SWAP2 SWAP1 POP JUMP JUMPDEST PUSH32 0x4E487B7100000000000000000000000000000000000000000000000000000000 PUSH1 0x0 MSTORE PUSH1 0x11 PUSH1 0x4 MSTORE PUSH1 0x24 PUSH1 0x0 REVERT JUMPDEST PUSH1 0x0 PUSH2 0x43C0 DUP3 PUSH2 0x385F JUMP JUMPDEST SWAP2 POP PUSH32 0xFFFFFFFFFFFFFFFFFFFFFFFFFFFFFFFFFFFFFFFFFFFFFFFFFFFFFFFFFFFFFFFF DUP3 SUB PUSH2 0x43F2 JUMPI PUSH2 0x43F1 PUSH2 0x4386 JUMP JUMPDEST JUMPDEST PUSH1 0x1 DUP3 ADD SWAP1 POP SWAP2 SWAP1 POP JUMP JUMPDEST PUSH32 0x4E487B7100000000000000000000000000000000000000000000000000000000 PUSH1 0x0 MSTORE PUSH1 0x22 PUSH1 0x4 MSTORE PUSH1 0x24 PUSH1 0x0 REVERT JUMPDEST PUSH1 0x0 PUSH1 0x2 DUP3 DIV SWAP1 POP PUSH1 0x1 DUP3 AND DUP1 PUSH2 0x4444 JUMPI PUSH1 0x7F DUP3 AND SWAP2 POP JUMPDEST PUSH1 0x20 DUP3 LT DUP2 SUB PUSH2 0x4457 JUMPI PUSH2 0x4456 PUSH2 0x43FD JUMP JUMPDEST JUMPDEST POP SWAP2 SWAP1 POP JUMP JUMPDEST PUSH1 0x0 DUP2 SWAP1 POP DUP2 PUSH1 0x0 MSTORE PUSH1 0x20 PUSH1 0x0 KECCAK256 SWAP1 POP SWAP2 SWAP1 POP JUMP JUMPDEST PUSH1 0x0 PUSH1 0x20 PUSH1 0x1F DUP4 ADD DIV SWAP1 POP SWAP2 SWAP1 POP JUMP JUMPDEST PUSH1 0x0 DUP3 DUP3 SHL SWAP1 POP SWAP3 SWAP2 POP POP JUMP JUMPDEST PUSH1 0x0 PUSH1 0x8 DUP4 MUL PUSH2 0x44BF PUSH32 0xFFFFFFFFFFFFFFFFFFFFFFFFFFFFFFFFFFFFFFFFFFFFFFFFFFFFFFFFFFFFFFFF DUP3 PUSH2 0x4482 JUMP JUMPDEST PUSH2 0x44C9 DUP7 DUP4 PUSH2 0x4482 JUMP JUMPDEST SWAP6 POP DUP1 NOT DUP5 AND SWAP4 POP DUP1 DUP7 AND DUP5 OR SWAP3 POP POP POP SWAP4 SWAP3 POP POP POP JUMP JUMPDEST PUSH1 0x0 DUP2 SWAP1 POP SWAP2 SWAP1 POP JUMP JUMPDEST PUSH1 0x0 PUSH2 0x4506 PUSH2 0x4501 PUSH2 0x44FC DUP5 PUSH2 0x385F JUMP JUMPDEST PUSH2 0x44E1 JUMP JUMPDEST PUSH2 0x385F JUMP JUMPDEST SWAP1 POP SWAP2 SWAP1 POP JUMP JUMPDEST PUSH1 0x0 DUP2 SWAP1 POP SWAP2 SWAP1 POP JUMP JUMPDEST PUSH2 0x4520 DUP4 PUSH2 0x44EB JUMP JUMPDEST PUSH2 0x4534 PUSH2 0x452C DUP3 PUSH2 0x450D JUMP JUMPDEST DUP5 DUP5 SLOAD PUSH2 0x448F JUMP JUMPDEST DUP3 SSTORE POP POP POP POP JUMP JUMPDEST PUSH1 0x0 SWAP1 JUMP JUMPDEST PUSH2 0x4549 PUSH2 0x453C JUMP JUMPDEST PUSH2 0x4554 DUP2 DUP5 DUP5 PUSH2 0x4517 JUMP JUMPDEST POP POP POP JUMP JUMPDEST JUMPDEST DUP2 DUP2 LT ISZERO PUSH2 0x4578 JUMPI PUSH2 0x456D PUSH1 0x0 DUP3 PUSH2 0x4541 JUMP JUMPDEST PUSH1 0x1 DUP2 ADD SWAP1 POP PUSH2 0x455A JUMP JUMPDEST POP POP JUMP JUMPDEST PUSH1 0x1F DUP3 GT ISZERO PUSH2 0x45BD JUMPI PUSH2 0x458E DUP2 PUSH2 0x445D JUMP JUMPDEST PUSH2 0x4597 DUP5 PUSH2 0x4472 JUMP JUMPDEST DUP2 ADD PUSH1 0x20 DUP6 LT ISZERO PUSH2 0x45A6 JUMPI DUP2 SWAP1 POP JUMPDEST PUSH2 0x45BA PUSH2 0x45B2 DUP6 PUSH2 0x4472 JUMP JUMPDEST DUP4 ADD DUP3 PUSH2 0x4559 JUMP JUMPDEST POP POP JUMPDEST POP POP POP JUMP JUMPDEST PUSH1 0x0 DUP3 DUP3 SHR SWAP1 POP SWAP3 SWAP2 POP POP JUMP JUMPDEST PUSH1 0x0 PUSH2 0x45E0 PUSH1 0x0 NOT DUP5 PUSH1 0x8 MUL PUSH2 0x45C2 JUMP JUMPDEST NOT DUP1 DUP4 AND SWAP2 POP POP SWAP3 SWAP2 POP POP JUMP JUMPDEST PUSH1 0x0 PUSH2 0x45F9 DUP4 DUP4 PUSH2 0x45CF JUMP JUMPDEST SWAP2 POP DUP3 PUSH1 0x2 MUL DUP3 OR SWAP1 POP SWAP3 SWAP2 POP POP JUMP JUMPDEST PUSH2 0x4612 DUP3 PUSH2 0x3A9A JUMP JUMPDEST PUSH8 0xFFFFFFFFFFFFFFFF DUP2 GT ISZERO PUSH2 0x462B JUMPI PUSH2 0x462A PUSH2 0x36EB JUMP JUMPDEST JUMPDEST PUSH2 0x4635 DUP3 SLOAD PUSH2 0x442C JUMP JUMPDEST PUSH2 0x4640 DUP3 DUP3 DUP6 PUSH2 0x457C JUMP JUMPDEST PUSH1 0x0 PUSH1 0x20 SWAP1 POP PUSH1 0x1F DUP4 GT PUSH1 0x1 DUP2 EQ PUSH2 0x4673 JUMPI PUSH1 0x0 DUP5 ISZERO PUSH2 0x4661 JUMPI DUP3 DUP8 ADD MLOAD SWAP1 POP JUMPDEST PUSH2 0x466B DUP6 DUP3 PUSH2 0x45ED JUMP JUMPDEST DUP7 SSTORE POP PUSH2 0x46D3 JUMP JUMPDEST PUSH1 0x1F NOT DUP5 AND PUSH2 0x4681 DUP7 PUSH2 0x445D JUMP JUMPDEST PUSH1 0x0 JUMPDEST DUP3 DUP2 LT ISZERO PUSH2 0x46A9 JUMPI DUP5 DUP10 ADD MLOAD DUP3 SSTORE PUSH1 0x1 DUP3 ADD SWAP2 POP PUSH1 0x20 DUP6 ADD SWAP5 POP PUSH1 0x20 DUP2 ADD SWAP1 POP PUSH2 0x4684 JUMP JUMPDEST DUP7 DUP4 LT ISZERO PUSH2 0x46C6 JUMPI DUP5 DUP10 ADD MLOAD PUSH2 0x46C2 PUSH1 0x1F DUP10 AND DUP3 PUSH2 0x45CF JUMP JUMPDEST DUP4 SSTORE POP JUMPDEST PUSH1 0x1 PUSH1 0x2 DUP9 MUL ADD DUP9 SSTORE POP POP POP JUMPDEST POP POP POP POP POP POP JUMP JUMPDEST PUSH32 0x496E76616C696420636F6D70616E792069642100000000000000000000000000 PUSH1 0x0 DUP3 ADD MSTORE POP JUMP JUMPDEST PUSH1 0x0 PUSH2 0x4711 PUSH1 0x13 DUP4 PUSH2 0x3AA5 JUMP JUMPDEST SWAP2 POP PUSH2 0x471C DUP3 PUSH2 0x46DB JUMP JUMPDEST PUSH1 0x20 DUP3 ADD SWAP1 POP SWAP2 SWAP1 POP JUMP JUMPDEST PUSH1 0x0 PUSH1 0x20 DUP3 ADD SWAP1 POP DUP2 DUP2 SUB PUSH1 0x0 DUP4 ADD MSTORE PUSH2 0x4740 DUP2 PUSH2 0x4704 JUMP JUMPDEST SWAP1 POP SWAP2 SWAP1 POP JUMP JUMPDEST PUSH32 0x596F7520617265206E6F7420746865206F776E65722100000000000000000000 PUSH1 0x0 DUP3 ADD MSTORE POP JUMP JUMPDEST PUSH1 0x0 PUSH2 0x477D PUSH1 0x16 DUP4 PUSH2 0x3AA5 JUMP JUMPDEST SWAP2 POP PUSH2 0x4788 DUP3 PUSH2 0x4747 JUMP JUMPDEST PUSH1 0x20 DUP3 ADD SWAP1 POP SWAP2 SWAP1 POP JUMP JUMPDEST PUSH1 0x0 PUSH1 0x20 DUP3 ADD SWAP1 POP DUP2 DUP2 SUB PUSH1 0x0 DUP4 ADD MSTORE PUSH2 0x47AC DUP2 PUSH2 0x4770 JUMP JUMPDEST SWAP1 POP SWAP2 SWAP1 POP JUMP JUMPDEST PUSH1 0x0 DUP2 MLOAD SWAP1 POP PUSH2 0x47C2 DUP2 PUSH2 0x3893 JUMP JUMPDEST SWAP3 SWAP2 POP POP JUMP JUMPDEST PUSH1 0x0 PUSH1 0x20 DUP3 DUP5 SUB SLT ISZERO PUSH2 0x47DE JUMPI PUSH2 0x47DD PUSH2 0x36C6 JUMP JUMPDEST JUMPDEST PUSH1 0x0 PUSH2 0x47EC DUP5 DUP3 DUP6 ADD PUSH2 0x47B3 JUMP JUMPDEST SWAP2 POP POP SWAP3 SWAP2 POP POP JUMP JUMPDEST PUSH32 0x31205472757374496E73757265206973206E656564656420746F206372656174 PUSH1 0x0 DUP3 ADD MSTORE PUSH32 0x652061206E657720696E737572616E6365000000000000000000000000000000 PUSH1 0x20 DUP3 ADD MSTORE POP JUMP JUMPDEST PUSH1 0x0 PUSH2 0x4851 PUSH1 0x31 DUP4 PUSH2 0x3AA5 JUMP JUMPDEST SWAP2 POP PUSH2 0x485C DUP3 PUSH2 0x47F5 JUMP JUMPDEST PUSH1 0x40 DUP3 ADD SWAP1 POP SWAP2 SWAP1 POP JUMP JUMPDEST PUSH1 0x0 PUSH1 0x20 DUP3 ADD SWAP1 POP DUP2 DUP2 SUB PUSH1 0x0 DUP4 ADD MSTORE PUSH2 0x4880 DUP2 PUSH2 0x4844 JUMP JUMPDEST SWAP1 POP SWAP2 SWAP1 POP JUMP JUMPDEST PUSH32 0x496E76616C696420697373756520646174652100000000000000000000000000 PUSH1 0x0 DUP3 ADD MSTORE POP JUMP JUMPDEST PUSH1 0x0 PUSH2 0x48BD PUSH1 0x13 DUP4 PUSH2 0x3AA5 JUMP JUMPDEST SWAP2 POP PUSH2 0x48C8 DUP3 PUSH2 0x4887 JUMP JUMPDEST PUSH1 0x20 DUP3 ADD SWAP1 POP SWAP2 SWAP1 POP JUMP JUMPDEST PUSH1 0x0 PUSH1 0x20 DUP3 ADD SWAP1 POP DUP2 DUP2 SUB PUSH1 0x0 DUP4 ADD MSTORE PUSH2 0x48EC DUP2 PUSH2 0x48B0 JUMP JUMPDEST SWAP1 POP SWAP2 SWAP1 POP JUMP JUMPDEST PUSH32 0x496E76616C696420657870697279206461746521000000000000000000000000 PUSH1 0x0 DUP3 ADD MSTORE POP JUMP JUMPDEST PUSH1 0x0 PUSH2 0x4929 PUSH1 0x14 DUP4 PUSH2 0x3AA5 JUMP JUMPDEST SWAP2 POP PUSH2 0x4934 DUP3 PUSH2 0x48F3 JUMP JUMPDEST PUSH1 0x20 DUP3 ADD SWAP1 POP SWAP2 SWAP1 POP JUMP JUMPDEST PUSH1 0x0 PUSH1 0x20 DUP3 ADD SWAP1 POP DUP2 DUP2 SUB PUSH1 0x0 DUP4 ADD MSTORE PUSH2 0x4958 DUP2 PUSH2 0x491C JUMP JUMPDEST SWAP1 POP SWAP2 SWAP1 POP JUMP JUMPDEST PUSH32 0x496E7075742076616C6964207265717565737449642100000000000000000000 PUSH1 0x0 DUP3 ADD MSTORE POP JUMP JUMPDEST PUSH1 0x0 PUSH2 0x4995 PUSH1 0x16 DUP4 PUSH2 0x3AA5 JUMP JUMPDEST SWAP2 POP PUSH2 0x49A0 DUP3 PUSH2 0x495F JUMP JUMPDEST PUSH1 0x20 DUP3 ADD SWAP1 POP SWAP2 SWAP1 POP JUMP JUMPDEST PUSH1 0x0 PUSH1 0x20 DUP3 ADD SWAP1 POP DUP2 DUP2 SUB PUSH1 0x0 DUP4 ADD MSTORE PUSH2 0x49C4 DUP2 PUSH2 0x4988 JUMP JUMPDEST SWAP1 POP SWAP2 SWAP1 POP JUMP JUMPDEST PUSH32 0x4E487B7100000000000000000000000000000000000000000000000000000000 PUSH1 0x0 MSTORE PUSH1 0x32 PUSH1 0x4 MSTORE PUSH1 0x24 PUSH1 0x0 REVERT JUMPDEST PUSH32 0x496E76616C696420726571756573742069642100000000000000000000000000 PUSH1 0x0 DUP3 ADD MSTORE POP JUMP JUMPDEST PUSH1 0x0 PUSH2 0x4A30 PUSH1 0x13 DUP4 PUSH2 0x3AA5 JUMP JUMPDEST SWAP2 POP PUSH2 0x4A3B DUP3 PUSH2 0x49FA JUMP JUMPDEST PUSH1 0x20 DUP3 ADD SWAP1 POP SWAP2 SWAP1 POP JUMP JUMPDEST PUSH1 0x0 PUSH1 0x20 DUP3 ADD SWAP1 POP DUP2 DUP2 SUB PUSH1 0x0 DUP4 ADD MSTORE PUSH2 0x4A5F DUP2 PUSH2 0x4A23 JUMP JUMPDEST SWAP1 POP SWAP2 SWAP1 POP JUMP JUMPDEST PUSH32 0x496E76616C696420706F6C696379206F776E6572210000000000000000000000 PUSH1 0x0 DUP3 ADD MSTORE POP JUMP JUMPDEST PUSH1 0x0 PUSH2 0x4A9C PUSH1 0x15 DUP4 PUSH2 0x3AA5 JUMP JUMPDEST SWAP2 POP PUSH2 0x4AA7 DUP3 PUSH2 0x4A66 JUMP JUMPDEST PUSH1 0x20 DUP3 ADD SWAP1 POP SWAP2 SWAP1 POP JUMP JUMPDEST PUSH1 0x0 PUSH1 0x20 DUP3 ADD SWAP1 POP DUP2 DUP2 SUB PUSH1 0x0 DUP4 ADD MSTORE PUSH2 0x4ACB DUP2 PUSH2 0x4A8F JUMP JUMPDEST SWAP1 POP SWAP2 SWAP1 POP JUMP JUMPDEST PUSH1 0x0 PUSH1 0x60 DUP3 ADD SWAP1 POP PUSH2 0x4AE7 PUSH1 0x0 DUP4 ADD DUP7 PUSH2 0x3B19 JUMP JUMPDEST PUSH2 0x4AF4 PUSH1 0x20 DUP4 ADD DUP6 PUSH2 0x3B19 JUMP JUMPDEST PUSH2 0x4B01 PUSH1 0x40 DUP4 ADD DUP5 PUSH2 0x3869 JUMP JUMPDEST SWAP5 SWAP4 POP POP POP POP JUMP JUMPDEST PUSH1 0x0 PUSH2 0x4B14 DUP3 PUSH2 0x385F JUMP JUMPDEST SWAP2 POP PUSH2 0x4B1F DUP4 PUSH2 0x385F JUMP JUMPDEST SWAP3 POP DUP3 DUP3 ADD SWAP1 POP DUP1 DUP3 GT ISZERO PUSH2 0x4B37 JUMPI PUSH2 0x4B36 PUSH2 0x4386 JUMP JUMPDEST JUMPDEST SWAP3 SWAP2 POP POP JUMP JUMPDEST PUSH1 0x0 PUSH2 0x4B48 DUP3 PUSH2 0x385F JUMP JUMPDEST SWAP2 POP PUSH2 0x4B53 DUP4 PUSH2 0x385F JUMP JUMPDEST SWAP3 POP DUP3 DUP3 SUB SWAP1 POP DUP2 DUP2 GT ISZERO PUSH2 0x4B6B JUMPI PUSH2 0x4B6A PUSH2 0x4386 JUMP JUMPDEST JUMPDEST SWAP3 SWAP2 POP POP JUMP JUMPDEST PUSH32 0x596F7520686176656E2774207265717565737465642100000000000000000000 PUSH1 0x0 DUP3 ADD MSTORE POP JUMP JUMPDEST PUSH1 0x0 PUSH2 0x4BA7 PUSH1 0x16 DUP4 PUSH2 0x3AA5 JUMP JUMPDEST SWAP2 POP PUSH2 0x4BB2 DUP3 PUSH2 0x4B71 JUMP JUMPDEST PUSH1 0x20 DUP3 ADD SWAP1 POP SWAP2 SWAP1 POP JUMP JUMPDEST PUSH1 0x0 PUSH1 0x20 DUP3 ADD SWAP1 POP DUP2 DUP2 SUB PUSH1 0x0 DUP4 ADD MSTORE PUSH2 0x4BD6 DUP2 PUSH2 0x4B9A JUMP JUMPDEST SWAP1 POP SWAP2 SWAP1 POP JUMP JUMPDEST PUSH1 0x0 PUSH1 0x20 DUP3 ADD SWAP1 POP PUSH2 0x4BF2 PUSH1 0x0 DUP4 ADD DUP5 PUSH2 0x3ED3 JUMP JUMPDEST SWAP3 SWAP2 POP POP JUMP JUMPDEST PUSH32 0x496E76616C69642062656E656669636961727921000000000000000000000000 PUSH1 0x0 DUP3 ADD MSTORE POP JUMP JUMPDEST PUSH1 0x0 PUSH2 0x4C2E PUSH1 0x14 DUP4 PUSH2 0x3AA5 JUMP JUMPDEST SWAP2 POP PUSH2 0x4C39 DUP3 PUSH2 0x4BF8 JUMP JUMPDEST PUSH1 0x20 DUP3 ADD SWAP1 POP SWAP2 SWAP1 POP JUMP JUMPDEST PUSH1 0x0 PUSH1 0x20 DUP3 ADD SWAP1 POP DUP2 DUP2 SUB PUSH1 0x0 DUP4 ADD MSTORE PUSH2 0x4C5D DUP2 PUSH2 0x4C21 JUMP JUMPDEST SWAP1 POP SWAP2 SWAP1 POP JUMP JUMPDEST PUSH1 0x0 DUP2 MLOAD SWAP1 POP SWAP2 SWAP1 POP JUMP JUMPDEST PUSH1 0x0 DUP3 DUP3 MSTORE PUSH1 0x20 DUP3 ADD SWAP1 POP SWAP3 SWAP2 POP POP JUMP JUMPDEST PUSH1 0x0 PUSH2 0x4C8B DUP3 PUSH2 0x4C64 JUMP JUMPDEST PUSH2 0x4C95 DUP2 DUP6 PUSH2 0x4C6F JUMP JUMPDEST SWAP4 POP PUSH2 0x4CA5 DUP2 DUP6 PUSH1 0x20 DUP7 ADD PUSH2 0x3AB6 JUMP JUMPDEST PUSH2 0x4CAE DUP2 PUSH2 0x36DA JUMP JUMPDEST DUP5 ADD SWAP2 POP POP SWAP3 SWAP2 POP POP JUMP JUMPDEST PUSH1 0x0 PUSH1 0x40 DUP3 ADD SWAP1 POP PUSH2 0x4CCE PUSH1 0x0 DUP4 ADD DUP6 PUSH2 0x3869 JUMP JUMPDEST DUP2 DUP2 SUB PUSH1 0x20 DUP4 ADD MSTORE PUSH2 0x4CE0 DUP2 DUP5 PUSH2 0x4C80 JUMP JUMPDEST SWAP1 POP SWAP4 SWAP3 POP POP POP JUMP JUMPDEST PUSH32 0x45787069727920646174652068617320616C7265616479206265656E20696E69 PUSH1 0x0 DUP3 ADD MSTORE PUSH32 0x7469616C69736564000000000000000000000000000000000000000000000000 PUSH1 0x20 DUP3 ADD MSTORE POP JUMP JUMPDEST PUSH1 0x0 PUSH2 0x4D45 PUSH1 0x28 DUP4 PUSH2 0x3AA5 JUMP JUMPDEST SWAP2 POP PUSH2 0x4D50 DUP3 PUSH2 0x4CE9 JUMP JUMPDEST PUSH1 0x40 DUP3 ADD SWAP1 POP SWAP2 SWAP1 POP JUMP JUMPDEST PUSH1 0x0 PUSH1 0x20 DUP3 ADD SWAP1 POP DUP2 DUP2 SUB PUSH1 0x0 DUP4 ADD MSTORE PUSH2 0x4D74 DUP2 PUSH2 0x4D38 JUMP JUMPDEST SWAP1 POP SWAP2 SWAP1 POP JUMP JUMPDEST PUSH1 0x0 DUP2 MLOAD SWAP1 POP SWAP2 SWAP1 POP JUMP JUMPDEST PUSH1 0x0 DUP3 DUP3 MSTORE PUSH1 0x20 DUP3 ADD SWAP1 POP SWAP3 SWAP2 POP POP JUMP JUMPDEST PUSH1 0x0 DUP2 SWAP1 POP PUSH1 0x20 DUP3 ADD SWAP1 POP SWAP2 SWAP1 POP JUMP JUMPDEST PUSH1 0x0 PUSH2 0x4DB3 DUP4 DUP4 PUSH2 0x3CCC JUMP JUMPDEST PUSH1 0x20 DUP4 ADD SWAP1 POP SWAP3 SWAP2 POP POP JUMP JUMPDEST PUSH1 0x0 PUSH1 0x20 DUP3 ADD SWAP1 POP SWAP2 SWAP1 POP JUMP JUMPDEST PUSH1 0x0 PUSH2 0x4DD7 DUP3 PUSH2 0x4D7B JUMP JUMPDEST PUSH2 0x4DE1 DUP2 DUP6 PUSH2 0x4D86 JUMP JUMPDEST SWAP4 POP PUSH2 0x4DEC DUP4 PUSH2 0x4D97 JUMP JUMPDEST DUP1 PUSH1 0x0 JUMPDEST DUP4 DUP2 LT ISZERO PUSH2 0x4E1D JUMPI DUP2 MLOAD PUSH2 0x4E04 DUP9 DUP3 PUSH2 0x4DA7 JUMP JUMPDEST SWAP8 POP PUSH2 0x4E0F DUP4 PUSH2 0x4DBF JUMP JUMPDEST SWAP3 POP POP PUSH1 0x1 DUP2 ADD SWAP1 POP PUSH2 0x4DF0 JUMP JUMPDEST POP DUP6 SWAP4 POP POP POP POP SWAP3 SWAP2 POP POP JUMP JUMPDEST PUSH1 0x0 DUP2 MLOAD SWAP1 POP SWAP2 SWAP1 POP JUMP JUMPDEST PUSH1 0x0 DUP3 DUP3 MSTORE PUSH1 0x20 DUP3 ADD SWAP1 POP SWAP3 SWAP2 POP POP JUMP JUMPDEST PUSH1 0x0 DUP2 SWAP1 POP PUSH1 0x20 DUP3 ADD SWAP1 POP SWAP2 SWAP1 POP JUMP JUMPDEST PUSH1 0x0 DUP3 DUP3 MSTORE PUSH1 0x20 DUP3 ADD SWAP1 POP SWAP3 SWAP2 POP POP JUMP JUMPDEST PUSH1 0x0 PUSH2 0x4E72 DUP3 PUSH2 0x3A9A JUMP JUMPDEST PUSH2 0x4E7C DUP2 DUP6 PUSH2 0x4E56 JUMP JUMPDEST SWAP4 POP PUSH2 0x4E8C DUP2 DUP6 PUSH1 0x20 DUP7 ADD PUSH2 0x3AB6 JUMP JUMPDEST PUSH2 0x4E95 DUP2 PUSH2 0x36DA JUMP JUMPDEST DUP5 ADD SWAP2 POP POP SWAP3 SWAP2 POP POP JUMP JUMPDEST PUSH1 0x0 PUSH2 0x4EAC DUP4 DUP4 PUSH2 0x4E67 JUMP JUMPDEST SWAP1 POP SWAP3 SWAP2 POP POP JUMP JUMPDEST PUSH1 0x0 PUSH1 0x20 DUP3 ADD SWAP1 POP SWAP2 SWAP1 POP JUMP JUMPDEST PUSH1 0x0 PUSH2 0x4ECC DUP3 PUSH2 0x4E2A JUMP JUMPDEST PUSH2 0x4ED6 DUP2 DUP6 PUSH2 0x4E35 JUMP JUMPDEST SWAP4 POP DUP4 PUSH1 0x20 DUP3 MUL DUP6 ADD PUSH2 0x4EE8 DUP6 PUSH2 0x4E46 JUMP JUMPDEST DUP1 PUSH1 0x0 JUMPDEST DUP6 DUP2 LT ISZERO PUSH2 0x4F24 JUMPI DUP5 DUP5 SUB DUP10 MSTORE DUP2 MLOAD PUSH2 0x4F05 DUP6 DUP3 PUSH2 0x4EA0 JUMP JUMPDEST SWAP5 POP PUSH2 0x4F10 DUP4 PUSH2 0x4EB4 JUMP JUMPDEST SWAP3 POP PUSH1 0x20 DUP11 ADD SWAP10 POP POP PUSH1 0x1 DUP2 ADD SWAP1 POP PUSH2 0x4EEC JUMP JUMPDEST POP DUP3 SWAP8 POP DUP8 SWAP6 POP POP POP POP POP POP SWAP3 SWAP2 POP POP JUMP JUMPDEST PUSH1 0x0 PUSH1 0x80 DUP3 ADD SWAP1 POP DUP2 DUP2 SUB PUSH1 0x0 DUP4 ADD MSTORE PUSH2 0x4F50 DUP2 DUP8 PUSH2 0x4DCC JUMP JUMPDEST SWAP1 POP DUP2 DUP2 SUB PUSH1 0x20 DUP4 ADD MSTORE PUSH2 0x4F64 DUP2 DUP7 PUSH2 0x4DCC JUMP JUMPDEST SWAP1 POP DUP2 DUP2 SUB PUSH1 0x40 DUP4 ADD MSTORE PUSH2 0x4F78 DUP2 DUP6 PUSH2 0x4EC1 JUMP JUMPDEST SWAP1 POP DUP2 DUP2 SUB PUSH1 0x60 DUP4 ADD MSTORE PUSH2 0x4F8C DUP2 DUP5 PUSH2 0x4EC1 JUMP JUMPDEST SWAP1 POP SWAP6 SWAP5 POP POP POP POP POP JUMP JUMPDEST PUSH32 0x596F7520617265206E6F7420617574686F72697A656421000000000000000000 PUSH1 0x0 DUP3 ADD MSTORE POP JUMP JUMPDEST PUSH1 0x0 PUSH2 0x4FCD PUSH1 0x17 DUP4 PUSH2 0x3AA5 JUMP JUMPDEST SWAP2 POP PUSH2 0x4FD8 DUP3 PUSH2 0x4F97 JUMP JUMPDEST PUSH1 0x20 DUP3 ADD SWAP1 POP SWAP2 SWAP1 POP JUMP JUMPDEST PUSH1 0x0 PUSH1 0x20 DUP3 ADD SWAP1 POP DUP2 DUP2 SUB PUSH1 0x0 DUP4 ADD MSTORE PUSH2 0x4FFC DUP2 PUSH2 0x4FC0 JUMP JUMPDEST SWAP1 POP SWAP2 SWAP1 POP JUMP JUMPDEST PUSH1 0x0 PUSH1 0x40 DUP3 ADD SWAP1 POP PUSH2 0x5018 PUSH1 0x0 DUP4 ADD DUP6 PUSH2 0x3869 JUMP JUMPDEST PUSH2 0x5025 PUSH1 0x20 DUP4 ADD DUP5 PUSH2 0x3869 JUMP JUMPDEST SWAP4 SWAP3 POP POP POP JUMP JUMPDEST PUSH32 0x5374616B65686F6C64657220686176656E277420706169642074686520696E73 PUSH1 0x0 DUP3 ADD MSTORE PUSH32 0x7572616E63652100000000000000000000000000000000000000000000000000 PUSH1 0x20 DUP3 ADD MSTORE POP JUMP JUMPDEST PUSH1 0x0 PUSH2 0x5088 PUSH1 0x27 DUP4 PUSH2 0x3AA5 JUMP JUMPDEST SWAP2 POP PUSH2 0x5093 DUP3 PUSH2 0x502C JUMP JUMPDEST PUSH1 0x40 DUP3 ADD SWAP1 POP SWAP2 SWAP1 POP JUMP JUMPDEST PUSH1 0x0 PUSH1 0x20 DUP3 ADD SWAP1 POP DUP2 DUP2 SUB PUSH1 0x0 DUP4 ADD MSTORE PUSH2 0x50B7 DUP2 PUSH2 0x507B JUMP JUMPDEST SWAP1 POP SWAP2 SWAP1 POP JUMP JUMPDEST PUSH32 0x486176656E27742074616B652065666665637421000000000000000000000000 PUSH1 0x0 DUP3 ADD MSTORE POP JUMP JUMPDEST PUSH1 0x0 PUSH2 0x50F4 PUSH1 0x14 DUP4 PUSH2 0x3AA5 JUMP JUMPDEST SWAP2 POP PUSH2 0x50FF DUP3 PUSH2 0x50BE JUMP JUMPDEST PUSH1 0x20 DUP3 ADD SWAP1 POP SWAP2 SWAP1 POP JUMP JUMPDEST PUSH1 0x0 PUSH1 0x20 DUP3 ADD SWAP1 POP DUP2 DUP2 SUB PUSH1 0x0 DUP4 ADD MSTORE PUSH2 0x5123 DUP2 PUSH2 0x50E7 JUMP JUMPDEST SWAP1 POP SWAP2 SWAP1 POP JUMP JUMPDEST PUSH1 0x0 DUP2 SWAP1 POP SWAP3 SWAP2 POP POP JUMP JUMPDEST PUSH1 0x0 PUSH2 0x5140 DUP3 PUSH2 0x3A9A JUMP JUMPDEST PUSH2 0x514A DUP2 DUP6 PUSH2 0x512A JUMP JUMPDEST SWAP4 POP PUSH2 0x515A DUP2 DUP6 PUSH1 0x20 DUP7 ADD PUSH2 0x3AB6 JUMP JUMPDEST DUP1 DUP5 ADD SWAP2 POP POP SWAP3 SWAP2 POP POP JUMP JUMPDEST PUSH1 0x0 PUSH2 0x5172 DUP3 DUP5 PUSH2 0x5135 JUMP JUMPDEST SWAP2 POP DUP2 SWAP1 POP SWAP3 SWAP2 POP POP JUMP JUMPDEST PUSH1 0x0 PUSH1 0x20 DUP3 ADD SWAP1 POP DUP2 DUP2 SUB PUSH1 0x0 DUP4 ADD MSTORE PUSH2 0x5197 DUP2 DUP5 PUSH2 0x4C80 JUMP JUMPDEST SWAP1 POP SWAP3 SWAP2 POP POP JUMP JUMPDEST PUSH1 0x0 PUSH2 0x51B2 PUSH2 0x51AD DUP5 PUSH2 0x3766 JUMP JUMPDEST PUSH2 0x374B JUMP JUMPDEST SWAP1 POP DUP3 DUP2 MSTORE PUSH1 0x20 DUP2 ADD DUP5 DUP5 DUP5 ADD GT ISZERO PUSH2 0x51CE JUMPI PUSH2 0x51CD PUSH2 0x36D5 JUMP JUMPDEST JUMPDEST PUSH2 0x51D9 DUP5 DUP3 DUP6 PUSH2 0x3AB6 JUMP JUMPDEST POP SWAP4 SWAP3 POP POP POP JUMP JUMPDEST PUSH1 0x0 DUP3 PUSH1 0x1F DUP4 ADD SLT PUSH2 0x51F6 JUMPI PUSH2 0x51F5 PUSH2 0x36D0 JUMP JUMPDEST JUMPDEST DUP2 MLOAD PUSH2 0x5206 DUP5 DUP3 PUSH1 0x20 DUP7 ADD PUSH2 0x519F JUMP JUMPDEST SWAP2 POP POP SWAP3 SWAP2 POP POP JUMP JUMPDEST PUSH1 0x0 PUSH1 0x20 DUP3 DUP5 SUB SLT ISZERO PUSH2 0x5225 JUMPI PUSH2 0x5224 PUSH2 0x36C6 JUMP JUMPDEST JUMPDEST PUSH1 0x0 DUP3 ADD MLOAD PUSH8 0xFFFFFFFFFFFFFFFF DUP2 GT ISZERO PUSH2 0x5243 JUMPI PUSH2 0x5242 PUSH2 0x36CB JUMP JUMPDEST JUMPDEST PUSH2 0x524F DUP5 DUP3 DUP6 ADD PUSH2 0x51E1 JUMP JUMPDEST SWAP2 POP POP SWAP3 SWAP2 POP POP JUMP JUMPDEST PUSH32 0x4E6F74207468652073616D65207374616B65686F6C6465722100000000000000 PUSH1 0x0 DUP3 ADD MSTORE POP JUMP JUMPDEST PUSH1 0x0 PUSH2 0x528E PUSH1 0x19 DUP4 PUSH2 0x3AA5 JUMP JUMPDEST SWAP2 POP PUSH2 0x5299 DUP3 PUSH2 0x5258 JUMP JUMPDEST PUSH1 0x20 DUP3 ADD SWAP1 POP SWAP2 SWAP1 POP JUMP JUMPDEST PUSH1 0x0 PUSH1 0x20 DUP3 ADD SWAP1 POP DUP2 DUP2 SUB PUSH1 0x0 DUP4 ADD MSTORE PUSH2 0x52BD DUP2 PUSH2 0x5281 JUMP JUMPDEST SWAP1 POP SWAP2 SWAP1 POP JUMP JUMPDEST PUSH1 0x3 DUP2 LT PUSH2 0x52D1 JUMPI PUSH1 0x0 DUP1 REVERT JUMPDEST POP JUMP JUMPDEST PUSH1 0x0 DUP2 MLOAD SWAP1 POP PUSH2 0x52E3 DUP2 PUSH2 0x52C4 JUMP JUMPDEST SWAP3 SWAP2 POP POP JUMP JUMPDEST PUSH1 0x0 PUSH1 0x20 DUP3 DUP5 SUB SLT ISZERO PUSH2 0x52FF JUMPI PUSH2 0x52FE PUSH2 0x36C6 JUMP JUMPDEST JUMPDEST PUSH1 0x0 PUSH2 0x530D DUP5 DUP3 DUP6 ADD PUSH2 0x52D4 JUMP JUMPDEST SWAP2 POP POP SWAP3 SWAP2 POP POP JUMP JUMPDEST PUSH32 0x496620737569636964652063616E6E6F7420636C61696D2077697468696E2032 PUSH1 0x0 DUP3 ADD MSTORE PUSH32 0x2079656172732100000000000000000000000000000000000000000000000000 PUSH1 0x20 DUP3 ADD MSTORE POP JUMP JUMPDEST PUSH1 0x0 PUSH2 0x5372 PUSH1 0x27 DUP4 PUSH2 0x3AA5 JUMP JUMPDEST SWAP2 POP PUSH2 0x537D DUP3 PUSH2 0x5316 JUMP JUMPDEST PUSH1 0x40 DUP3 ADD SWAP1 POP SWAP2 SWAP1 POP JUMP JUMPDEST PUSH1 0x0 PUSH1 0x20 DUP3 ADD SWAP1 POP DUP2 DUP2 SUB PUSH1 0x0 DUP4 ADD MSTORE PUSH2 0x53A1 DUP2 PUSH2 0x5365 JUMP JUMPDEST SWAP1 POP SWAP2 SWAP1 POP JUMP JUMPDEST PUSH32 0x6E6F7420656E6F756768205472757374496E7375726520746F20706179210000 PUSH1 0x0 DUP3 ADD MSTORE POP JUMP JUMPDEST PUSH1 0x0 PUSH2 0x53DE PUSH1 0x1E DUP4 PUSH2 0x3AA5 JUMP JUMPDEST SWAP2 POP PUSH2 0x53E9 DUP3 PUSH2 0x53A8 JUMP JUMPDEST PUSH1 0x20 DUP3 ADD SWAP1 POP SWAP2 SWAP1 POP JUMP JUMPDEST PUSH1 0x0 PUSH1 0x20 DUP3 ADD SWAP1 POP DUP2 DUP2 SUB PUSH1 0x0 DUP4 ADD MSTORE PUSH2 0x540D DUP2 PUSH2 0x53D1 JUMP JUMPDEST SWAP1 POP SWAP2 SWAP1 POP JUMP JUMPDEST PUSH1 0x0 PUSH1 0x40 DUP3 ADD SWAP1 POP PUSH2 0x5429 PUSH1 0x0 DUP4 ADD DUP6 PUSH2 0x3B19 JUMP JUMPDEST PUSH2 0x5436 PUSH1 0x20 DUP4 ADD DUP5 PUSH2 0x3869 JUMP JUMPDEST SWAP4 SWAP3 POP POP POP JUMP INVALID LOG2 PUSH5 0x6970667358 0x22 SLT KECCAK256 BALANCE 0xE8 SSTORE 0xAD 0xD3 0xAB PUSH1 0x2 JUMP MOD PUSH6 0x11BF8FFED20B 0xF SSTORE LT BALANCE AND SWAP6 0xB8 SWAP5 0xE 0xC1 DUP6 0xAA 0xF7 PUSH4 0x5364736F PUSH13 0x63430008130033000000000000 "
		},
		"gasEstimates": {
			"creation": {
				"codeDepositCost": "4323800",
				"executionCost": "infinite",
				"totalCost": "infinite"
			},
			"external": {
				"addRequestLists(uint256,uint256,string,string)": "infinite",
				"autoTrigger()": "276",
				"checkRequestsFromCompany(uint256)": "infinite",
				"checkRequestsFromStakeholder(uint256,uint256)": "infinite",
				"claim(uint256,uint256,bytes,uint256,uint256,string,string)": "infinite",
				"companies(uint256)": "infinite",
				"createInsurance(uint256,uint256,uint256,uint8,uint256,uint256)": "infinite",
				"createStakeholderInfo(uint256,uint256,uint256,uint256)": "infinite",
				"getBeneficiary(uint256)": "infinite",
				"getCompanyId()": "2615",
				"getCredit(uint256)": "infinite",
				"getExpiryDate(uint256)": "infinite",
				"getInsurance(uint256)": "infinite",
				"getInsuranceCompany(uint256)": "infinite",
				"getInsuredAmount(uint256)": "infinite",
				"getIssueDate(uint256)": "infinite",
				"getName(uint256)": "infinite",
				"getNumOfCompany()": "2570",
				"getOwner(uint256)": "5081",
				"getPolicyOwner(uint256)": "infinite",
				"getRestAmount(uint256)": "infinite",
				"getStatus(uint256)": "3056",
				"ids(address)": "2905",
				"insurances(uint256)": "infinite",
				"numInsurance()": "2541",
				"numStakeholder()": "2496",
				"payPremium(uint256,uint256,uint256)": "infinite",
				"registerCompany(string)": "infinite",
				"rejectRequest(uint256,uint256)": "infinite",
				"setBeneficiary(uint256,uint256)": "infinite",
				"setExpiryDate(uint256,uint256)": "infinite",
				"signInsurance(uint256,uint256,uint256)": "infinite",
				"solveRequest(uint256,uint256,uint256)": "infinite",
				"stakeholderinfos(uint256)": "infinite",
				"updateStatus(uint8,uint256)": "25068"
			},
			"internal": {
				"autoTransfer(uint256,uint256,uint256,bytes memory,string memory,string memory)": "infinite",
				"updateCredit(uint256)": "infinite"
			}
		},
		"methodIdentifiers": {
			"addRequestLists(uint256,uint256,string,string)": "23192ed4",
			"autoTrigger()": "f558eb05",
			"checkRequestsFromCompany(uint256)": "dd9937f7",
			"checkRequestsFromStakeholder(uint256,uint256)": "5d996701",
			"claim(uint256,uint256,bytes,uint256,uint256,string,string)": "700d9ef7",
			"companies(uint256)": "2813d19d",
			"createInsurance(uint256,uint256,uint256,uint8,uint256,uint256)": "2dd0b640",
			"createStakeholderInfo(uint256,uint256,uint256,uint256)": "e0e5c324",
			"getBeneficiary(uint256)": "302df083",
			"getCompanyId()": "9f14d7c2",
			"getCredit(uint256)": "da304e4d",
			"getExpiryDate(uint256)": "6833f200",
			"getInsurance(uint256)": "85fae602",
			"getInsuranceCompany(uint256)": "e22900ff",
			"getInsuredAmount(uint256)": "5998f775",
			"getIssueDate(uint256)": "0386660a",
			"getName(uint256)": "6b8ff574",
			"getNumOfCompany()": "62584ffe",
			"getOwner(uint256)": "c41a360a",
			"getPolicyOwner(uint256)": "ca009021",
			"getRestAmount(uint256)": "575c2887",
			"getStatus(uint256)": "5c622a0e",
			"ids(address)": "1847c06b",
			"insurances(uint256)": "59fb49f9",
			"numInsurance()": "703849d9",
			"numStakeholder()": "8edd5297",
			"payPremium(uint256,uint256,uint256)": "561c865b",
			"registerCompany(string)": "00544194",
			"rejectRequest(uint256,uint256)": "3d1894af",
			"setBeneficiary(uint256,uint256)": "1a1fc3a0",
			"setExpiryDate(uint256,uint256)": "d91f2a0b",
			"signInsurance(uint256,uint256,uint256)": "bfcb6cfb",
			"solveRequest(uint256,uint256,uint256)": "e02bb9af",
			"stakeholderinfos(uint256)": "3fa3ab26",
			"updateStatus(uint8,uint256)": "b7ff5dae"
		}
	},
	"abi": [
		{
			"inputs": [
				{
					"internalType": "contract Hospital",
					"name": "hospitalInstanceAddress",
					"type": "address"
				},
				{
					"internalType": "contract TrustInsure",
					"name": "trustinsureInstanceAddress",
					"type": "address"
				}
			],
			"stateMutability": "nonpayable",
			"type": "constructor"
		},
		{
			"anonymous": false,
			"inputs": [
				{
					"indexed": false,
					"internalType": "uint256",
					"name": "insuranceID",
					"type": "uint256"
				}
			],
			"name": "allPaid",
			"type": "event"
		},
		{
			"anonymous": false,
			"inputs": [
				{
					"indexed": false,
					"internalType": "uint256[]",
					"name": "requestids",
					"type": "uint256[]"
				},
				{
					"indexed": false,
					"internalType": "uint256[]",
					"name": "buyerids",
					"type": "uint256[]"
				},
				{
					"indexed": false,
					"internalType": "string[]",
					"name": "buyercontacts",
					"type": "string[]"
				},
				{
					"indexed": false,
					"internalType": "string[]",
					"name": "producttypes",
					"type": "string[]"
				}
			],
			"name": "allRequests",
			"type": "event"
		},
		{
			"anonymous": false,
			"inputs": [
				{
					"indexed": false,
					"internalType": "uint256",
					"name": "insuranceID",
					"type": "uint256"
				}
			],
			"name": "askingCert",
			"type": "event"
		},
		{
			"anonymous": false,
			"inputs": [
				{
					"indexed": false,
					"internalType": "enum InsuranceCompany.requestStatus",
					"name": "status",
					"type": "uint8"
				}
			],
			"name": "checkRequest",
			"type": "event"
		},
		{
			"anonymous": false,
			"inputs": [
				{
					"indexed": false,
					"internalType": "uint256",
					"name": "insuranceID",
					"type": "uint256"
				},
				{
					"indexed": false,
					"internalType": "bytes",
					"name": "mcId",
					"type": "bytes"
				}
			],
			"name": "claimingFromComp",
			"type": "event"
		},
		{
			"anonymous": false,
			"inputs": [
				{
					"indexed": false,
					"internalType": "uint256",
					"name": "insuranceId",
					"type": "uint256"
				}
			],
			"name": "create",
			"type": "event"
		},
		{
			"anonymous": false,
			"inputs": [
				{
					"indexed": false,
					"internalType": "uint256",
					"name": "requestId",
					"type": "uint256"
				}
			],
			"name": "requestReject",
			"type": "event"
		},
		{
			"anonymous": false,
			"inputs": [
				{
					"indexed": false,
					"internalType": "uint256",
					"name": "requestId",
					"type": "uint256"
				},
				{
					"indexed": false,
					"internalType": "uint256",
					"name": "insuranceId",
					"type": "uint256"
				}
			],
			"name": "requestSolve",
			"type": "event"
		},
		{
			"anonymous": false,
			"inputs": [
				{
					"indexed": false,
					"internalType": "address",
					"name": "beneficiary",
					"type": "address"
				},
				{
					"indexed": false,
					"internalType": "uint256",
					"name": "amount",
					"type": "uint256"
				}
			],
			"name": "transfer",
			"type": "event"
		},
		{
			"inputs": [
				{
					"internalType": "uint256",
					"name": "_buyerId",
					"type": "uint256"
				},
				{
					"internalType": "uint256",
					"name": "_companyId",
					"type": "uint256"
				},
				{
					"internalType": "string",
					"name": "contact",
					"type": "string"
				},
				{
					"internalType": "string",
					"name": "_typeProduct",
					"type": "string"
				}
			],
			"name": "addRequestLists",
			"outputs": [
				{
					"internalType": "bool",
					"name": "",
					"type": "bool"
				},
				{
					"internalType": "uint256",
					"name": "",
					"type": "uint256"
				}
			],
			"stateMutability": "nonpayable",
			"type": "function"
		},
		{
			"inputs": [],
			"name": "autoTrigger",
			"outputs": [],
			"stateMutability": "nonpayable",
			"type": "function"
		},
		{
			"inputs": [
				{
					"internalType": "uint256",
					"name": "companyId",
					"type": "uint256"
				}
			],
			"name": "checkRequestsFromCompany",
			"outputs": [],
			"stateMutability": "nonpayable",
			"type": "function"
		},
		{
			"inputs": [
				{
					"internalType": "uint256",
					"name": "companyId",
					"type": "uint256"
				},
				{
					"internalType": "uint256",
					"name": "requestId",
					"type": "uint256"
				}
			],
			"name": "checkRequestsFromStakeholder",
			"outputs": [
				{
					"internalType": "enum InsuranceCompany.requestStatus",
					"name": "",
					"type": "uint8"
				},
				{
					"internalType": "uint256",
					"name": "",
					"type": "uint256"
				}
			],
			"stateMutability": "nonpayable",
			"type": "function"
		},
		{
			"inputs": [
				{
					"internalType": "uint256",
					"name": "insuranceID",
					"type": "uint256"
				},
				{
					"internalType": "uint256",
					"name": "companyId",
					"type": "uint256"
				},
				{
					"internalType": "bytes",
					"name": "mcId",
					"type": "bytes"
				},
				{
					"internalType": "uint256",
					"name": "hospitalId",
					"type": "uint256"
				},
				{
					"internalType": "uint256",
					"name": "beneficiaryID",
					"type": "uint256"
				},
				{
					"internalType": "string",
					"name": "name",
					"type": "string"
				},
				{
					"internalType": "string",
					"name": "NRIC",
					"type": "string"
				}
			],
			"name": "claim",
			"outputs": [],
			"stateMutability": "nonpayable",
			"type": "function"
		},
		{
			"inputs": [
				{
					"internalType": "uint256",
					"name": "",
					"type": "uint256"
				}
			],
			"name": "companies",
			"outputs": [
				{
					"internalType": "uint256",
					"name": "companyId",
					"type": "uint256"
				},
				{
					"internalType": "uint256",
					"name": "credit",
					"type": "uint256"
				},
				{
					"internalType": "string",
					"name": "name",
					"type": "string"
				},
				{
					"internalType": "address",
					"name": "owner",
					"type": "address"
				},
				{
					"internalType": "uint256",
					"name": "completed",
					"type": "uint256"
				}
			],
			"stateMutability": "view",
			"type": "function"
		},
		{
			"inputs": [
				{
					"internalType": "uint256",
					"name": "stakeholderInfoId",
					"type": "uint256"
				},
				{
					"internalType": "uint256",
					"name": "companyId",
					"type": "uint256"
				},
				{
					"internalType": "uint256",
					"name": "insuredAmount",
					"type": "uint256"
				},
				{
					"internalType": "enum Insurance.insuranceType",
					"name": "insType",
					"type": "uint8"
				},
				{
					"internalType": "uint256",
					"name": "issueDateYYYYMMDD",
					"type": "uint256"
				},
				{
					"internalType": "uint256",
					"name": "expiryDateYYYYMMDD",
					"type": "uint256"
				}
			],
			"name": "createInsurance",
			"outputs": [
				{
					"internalType": "uint256",
					"name": "",
					"type": "uint256"
				}
			],
			"stateMutability": "nonpayable",
			"type": "function"
		},
		{
			"inputs": [
				{
					"internalType": "uint256",
					"name": "policyOwner",
					"type": "uint256"
				},
				{
					"internalType": "uint256",
					"name": "beneficiary",
					"type": "uint256"
				},
				{
					"internalType": "uint256",
					"name": "lifeAssured",
					"type": "uint256"
				},
				{
					"internalType": "uint256",
					"name": "payingAccount",
					"type": "uint256"
				}
			],
			"name": "createStakeholderInfo",
			"outputs": [
				{
					"internalType": "uint256",
					"name": "",
					"type": "uint256"
				}
			],
			"stateMutability": "nonpayable",
			"type": "function"
		},
		{
			"inputs": [
				{
					"internalType": "uint256",
					"name": "insuranceId",
					"type": "uint256"
				}
			],
			"name": "getBeneficiary",
			"outputs": [
				{
					"internalType": "uint256",
					"name": "",
					"type": "uint256"
				}
			],
			"stateMutability": "view",
			"type": "function"
		},
		{
			"inputs": [],
			"name": "getCompanyId",
			"outputs": [
				{
					"internalType": "uint256",
					"name": "",
					"type": "uint256"
				}
			],
			"stateMutability": "view",
			"type": "function"
		},
		{
			"inputs": [
				{
					"internalType": "uint256",
					"name": "companyId",
					"type": "uint256"
				}
			],
			"name": "getCredit",
			"outputs": [
				{
					"internalType": "uint256",
					"name": "",
					"type": "uint256"
				}
			],
			"stateMutability": "view",
			"type": "function"
		},
		{
			"inputs": [
				{
					"internalType": "uint256",
					"name": "insuranceId",
					"type": "uint256"
				}
			],
			"name": "getExpiryDate",
			"outputs": [
				{
					"internalType": "uint256",
					"name": "",
					"type": "uint256"
				}
			],
			"stateMutability": "view",
			"type": "function"
		},
		{
			"inputs": [
				{
					"internalType": "uint256",
					"name": "insuranceId",
					"type": "uint256"
				}
			],
			"name": "getInsurance",
			"outputs": [
				{
					"components": [
						{
							"internalType": "uint256",
							"name": "ID",
							"type": "uint256"
						},
						{
							"internalType": "uint256",
							"name": "companyId",
							"type": "uint256"
						},
						{
							"components": [
								{
									"internalType": "uint256",
									"name": "policyOwner",
									"type": "uint256"
								},
								{
									"internalType": "uint256",
									"name": "beneficiary",
									"type": "uint256"
								},
								{
									"internalType": "uint256",
									"name": "lifeAssured",
									"type": "uint256"
								},
								{
									"internalType": "uint256",
									"name": "payingAccount",
									"type": "uint256"
								}
							],
							"internalType": "struct Insurance.stakeholderInfo",
							"name": "stakeholders",
							"type": "tuple"
						},
						{
							"internalType": "uint256",
							"name": "insuredAmount",
							"type": "uint256"
						},
						{
							"internalType": "uint256",
							"name": "currentAmount",
							"type": "uint256"
						},
						{
							"internalType": "enum Insurance.insuranceType",
							"name": "insType",
							"type": "uint8"
						},
						{
							"internalType": "enum Insurance.status",
							"name": "status",
							"type": "uint8"
						},
						{
							"internalType": "uint256",
							"name": "issueDate",
							"type": "uint256"
						},
						{
							"internalType": "uint256",
							"name": "expiryDate",
							"type": "uint256"
						}
					],
					"internalType": "struct Insurance.insurance",
					"name": "",
					"type": "tuple"
				}
			],
			"stateMutability": "view",
			"type": "function"
		},
		{
			"inputs": [
				{
					"internalType": "uint256",
					"name": "insuranceId",
					"type": "uint256"
				}
			],
			"name": "getInsuranceCompany",
			"outputs": [
				{
					"internalType": "uint256",
					"name": "",
					"type": "uint256"
				}
			],
			"stateMutability": "view",
			"type": "function"
		},
		{
			"inputs": [
				{
					"internalType": "uint256",
					"name": "insuranceId",
					"type": "uint256"
				}
			],
			"name": "getInsuredAmount",
			"outputs": [
				{
					"internalType": "uint256",
					"name": "",
					"type": "uint256"
				}
			],
			"stateMutability": "view",
			"type": "function"
		},
		{
			"inputs": [
				{
					"internalType": "uint256",
					"name": "insuranceId",
					"type": "uint256"
				}
			],
			"name": "getIssueDate",
			"outputs": [
				{
					"internalType": "uint256",
					"name": "",
					"type": "uint256"
				}
			],
			"stateMutability": "view",
			"type": "function"
		},
		{
			"inputs": [
				{
					"internalType": "uint256",
					"name": "companyId",
					"type": "uint256"
				}
			],
			"name": "getName",
			"outputs": [
				{
					"internalType": "string",
					"name": "",
					"type": "string"
				}
			],
			"stateMutability": "view",
			"type": "function"
		},
		{
			"inputs": [],
			"name": "getNumOfCompany",
			"outputs": [
				{
					"internalType": "uint256",
					"name": "",
					"type": "uint256"
				}
			],
			"stateMutability": "view",
			"type": "function"
		},
		{
			"inputs": [
				{
					"internalType": "uint256",
					"name": "companyId",
					"type": "uint256"
				}
			],
			"name": "getOwner",
			"outputs": [
				{
					"internalType": "address",
					"name": "",
					"type": "address"
				}
			],
			"stateMutability": "view",
			"type": "function"
		},
		{
			"inputs": [
				{
					"internalType": "uint256",
					"name": "stakeholderinfoId",
					"type": "uint256"
				}
			],
			"name": "getPolicyOwner",
			"outputs": [
				{
					"internalType": "uint256",
					"name": "",
					"type": "uint256"
				}
			],
			"stateMutability": "view",
			"type": "function"
		},
		{
			"inputs": [
				{
					"internalType": "uint256",
					"name": "insuranceId",
					"type": "uint256"
				}
			],
			"name": "getRestAmount",
			"outputs": [
				{
					"internalType": "uint256",
					"name": "",
					"type": "uint256"
				}
			],
			"stateMutability": "view",
			"type": "function"
		},
		{
			"inputs": [
				{
					"internalType": "uint256",
					"name": "insuranceId",
					"type": "uint256"
				}
			],
			"name": "getStatus",
			"outputs": [
				{
					"internalType": "enum Insurance.status",
					"name": "",
					"type": "uint8"
				}
			],
			"stateMutability": "view",
			"type": "function"
		},
		{
			"inputs": [
				{
					"internalType": "address",
					"name": "",
					"type": "address"
				}
			],
			"name": "ids",
			"outputs": [
				{
					"internalType": "uint256",
					"name": "",
					"type": "uint256"
				}
			],
			"stateMutability": "view",
			"type": "function"
		},
		{
			"inputs": [
				{
					"internalType": "uint256",
					"name": "",
					"type": "uint256"
				}
			],
			"name": "insurances",
			"outputs": [
				{
					"internalType": "uint256",
					"name": "ID",
					"type": "uint256"
				},
				{
					"internalType": "uint256",
					"name": "companyId",
					"type": "uint256"
				},
				{
					"components": [
						{
							"internalType": "uint256",
							"name": "policyOwner",
							"type": "uint256"
						},
						{
							"internalType": "uint256",
							"name": "beneficiary",
							"type": "uint256"
						},
						{
							"internalType": "uint256",
							"name": "lifeAssured",
							"type": "uint256"
						},
						{
							"internalType": "uint256",
							"name": "payingAccount",
							"type": "uint256"
						}
					],
					"internalType": "struct Insurance.stakeholderInfo",
					"name": "stakeholders",
					"type": "tuple"
				},
				{
					"internalType": "uint256",
					"name": "insuredAmount",
					"type": "uint256"
				},
				{
					"internalType": "uint256",
					"name": "currentAmount",
					"type": "uint256"
				},
				{
					"internalType": "enum Insurance.insuranceType",
					"name": "insType",
					"type": "uint8"
				},
				{
					"internalType": "enum Insurance.status",
					"name": "status",
					"type": "uint8"
				},
				{
					"internalType": "uint256",
					"name": "issueDate",
					"type": "uint256"
				},
				{
					"internalType": "uint256",
					"name": "expiryDate",
					"type": "uint256"
				}
			],
			"stateMutability": "view",
			"type": "function"
		},
		{
			"inputs": [],
			"name": "numInsurance",
			"outputs": [
				{
					"internalType": "uint256",
					"name": "",
					"type": "uint256"
				}
			],
			"stateMutability": "view",
			"type": "function"
		},
		{
			"inputs": [],
			"name": "numStakeholder",
			"outputs": [
				{
					"internalType": "uint256",
					"name": "",
					"type": "uint256"
				}
			],
			"stateMutability": "view",
			"type": "function"
		},
		{
			"inputs": [
				{
					"internalType": "uint256",
					"name": "insuranceId",
					"type": "uint256"
				},
				{
					"internalType": "uint256",
					"name": "amount",
					"type": "uint256"
				},
				{
					"internalType": "uint256",
					"name": "policyOwnerID",
					"type": "uint256"
				}
			],
			"name": "payPremium",
			"outputs": [],
			"stateMutability": "nonpayable",
			"type": "function"
		},
		{
			"inputs": [
				{
					"internalType": "string",
					"name": "name",
					"type": "string"
				}
			],
			"name": "registerCompany",
			"outputs": [
				{
					"internalType": "uint256",
					"name": "",
					"type": "uint256"
				}
			],
			"stateMutability": "payable",
			"type": "function"
		},
		{
			"inputs": [
				{
					"internalType": "uint256",
					"name": "requestId",
					"type": "uint256"
				},
				{
					"internalType": "uint256",
					"name": "companyId",
					"type": "uint256"
				}
			],
			"name": "rejectRequest",
			"outputs": [],
			"stateMutability": "nonpayable",
			"type": "function"
		},
		{
			"inputs": [
				{
					"internalType": "uint256",
					"name": "newBeneficiary",
					"type": "uint256"
				},
				{
					"internalType": "uint256",
					"name": "insuranceId",
					"type": "uint256"
				}
			],
			"name": "setBeneficiary",
			"outputs": [],
			"stateMutability": "nonpayable",
			"type": "function"
		},
		{
			"inputs": [
				{
					"internalType": "uint256",
					"name": "date",
					"type": "uint256"
				},
				{
					"internalType": "uint256",
					"name": "insuranceId",
					"type": "uint256"
				}
			],
			"name": "setExpiryDate",
			"outputs": [],
			"stateMutability": "nonpayable",
			"type": "function"
		},
		{
			"inputs": [
				{
					"internalType": "uint256",
					"name": "insuranceId",
					"type": "uint256"
				},
				{
					"internalType": "uint256",
					"name": "companyId",
					"type": "uint256"
				},
				{
					"internalType": "uint256",
					"name": "policyOwnerID",
					"type": "uint256"
				}
			],
			"name": "signInsurance",
			"outputs": [],
			"stateMutability": "nonpayable",
			"type": "function"
		},
		{
			"inputs": [
				{
					"internalType": "uint256",
					"name": "companyId",
					"type": "uint256"
				},
				{
					"internalType": "uint256",
					"name": "requestId",
					"type": "uint256"
				},
				{
					"internalType": "uint256",
					"name": "insuranceId",
					"type": "uint256"
				}
			],
			"name": "solveRequest",
			"outputs": [],
			"stateMutability": "nonpayable",
			"type": "function"
		},
		{
			"inputs": [
				{
					"internalType": "uint256",
					"name": "",
					"type": "uint256"
				}
			],
			"name": "stakeholderinfos",
			"outputs": [
				{
					"internalType": "uint256",
					"name": "policyOwner",
					"type": "uint256"
				},
				{
					"internalType": "uint256",
					"name": "beneficiary",
					"type": "uint256"
				},
				{
					"internalType": "uint256",
					"name": "lifeAssured",
					"type": "uint256"
				},
				{
					"internalType": "uint256",
					"name": "payingAccount",
					"type": "uint256"
				}
			],
			"stateMutability": "view",
			"type": "function"
		},
		{
			"inputs": [
				{
					"internalType": "enum Insurance.status",
					"name": "state",
					"type": "uint8"
				},
				{
					"internalType": "uint256",
					"name": "insuranceId",
					"type": "uint256"
				}
			],
			"name": "updateStatus",
			"outputs": [],
			"stateMutability": "nonpayable",
			"type": "function"
		}
	]
}