{
	"data": {
		"bytecode": {
			"linkReferences": {},
			"object": "60806040526000805534801561001457600080fd5b5061090e806100246000396000f3fe608060405234801561001057600080fd5b50600436106100575760003560e01c8063302e1ab11461005c57806366e918b81461008c57806374946460146100bc578063baaab57a146100ec578063caafc4fb1461011c575b600080fd5b61007660048036038101906100719190610358565b61014c565b6040516100839190610415565b60405180910390f35b6100a660048036038101906100a19190610591565b61020a565b6040516100b39190610681565b60405180910390f35b6100d660048036038101906100d1919061069c565b610216565b6040516100e39190610681565b60405180910390f35b61010660048036038101906101019190610358565b610223565b604051610113919061085d565b60405180910390f35b61013660048036038101906101319190610358565b610250565b6040516101439190610415565b60405180910390f35b606060026000600160008581526020019081526020016000206002015481526020019081526020016000206001018054610185906108a7565b80601f01602080910402602001604051908101604052809291908181526020018280546101b1906108a7565b80156101fe5780601f106101d3576101008083540402835291602001916101fe565b820191906000526020600020905b8154815290600101906020018083116101e157829003601f168201915b50505050509050919050565b60009695505050505050565b6000979650505050505050565b60006001600083815260200190815260200160002060030160009054906101000a900460ff169050919050565b606060026000600160008581526020019081526020016000206002015481526020019081526020016000206002018054610289906108a7565b80601f01602080910402602001604051908101604052809291908181526020018280546102b5906108a7565b80156103025780601f106102d757610100808354040283529160200191610302565b820191906000526020600020905b8154815290600101906020018083116102e557829003601f168201915b50505050509050919050565b6000604051905090565b600080fd5b600080fd5b6000819050919050565b61033581610322565b811461034057600080fd5b50565b6000813590506103528161032c565b92915050565b60006020828403121561036e5761036d610318565b5b600061037c84828501610343565b91505092915050565b600081519050919050565b600082825260208201905092915050565b60005b838110156103bf5780820151818401526020810190506103a4565b60008484015250505050565b6000601f19601f8301169050919050565b60006103e782610385565b6103f18185610390565b93506104018185602086016103a1565b61040a816103cb565b840191505092915050565b6000602082019050818103600083015261042f81846103dc565b905092915050565b600080fd5b600080fd5b7f4e487b7100000000000000000000000000000000000000000000000000000000600052604160045260246000fd5b610479826103cb565b810181811067ffffffffffffffff8211171561049857610497610441565b5b80604052505050565b60006104ab61030e565b90506104b78282610470565b919050565b600067ffffffffffffffff8211156104d7576104d6610441565b5b6104e0826103cb565b9050602081019050919050565b82818337600083830152505050565b600061050f61050a846104bc565b6104a1565b90508281526020810184848401111561052b5761052a61043c565b5b6105368482856104ed565b509392505050565b600082601f83011261055357610552610437565b5b81356105638482602086016104fc565b91505092915050565b6003811061057957600080fd5b50565b60008135905061058b8161056c565b92915050565b60008060008060008060c087890312156105ae576105ad610318565b5b60006105bc89828a01610343565b965050602087013567ffffffffffffffff8111156105dd576105dc61031d565b5b6105e989828a0161053e565b95505060406105fa89828a01610343565b945050606061060b89828a0161057c565b935050608087013567ffffffffffffffff81111561062c5761062b61031d565b5b61063889828a0161053e565b92505060a087013567ffffffffffffffff8111156106595761065861031d565b5b61066589828a0161053e565b9150509295509295509295565b61067b81610322565b82525050565b60006020820190506106966000830184610672565b92915050565b600080600080600080600060e0888a0312156106bb576106ba610318565b5b60006106c98a828b01610343565b975050602088013567ffffffffffffffff8111156106ea576106e961031d565b5b6106f68a828b0161053e565b965050604088013567ffffffffffffffff8111156107175761071661031d565b5b6107238a828b0161053e565b955050606088013567ffffffffffffffff8111156107445761074361031d565b5b6107508a828b0161053e565b945050608088013567ffffffffffffffff8111156107715761077061031d565b5b61077d8a828b0161053e565b93505060a088013567ffffffffffffffff81111561079e5761079d61031d565b5b6107aa8a828b0161053e565b92505060c088013567ffffffffffffffff8111156107cb576107ca61031d565b5b6107d78a828b0161053e565b91505092959891949750929550565b7f4e487b7100000000000000000000000000000000000000000000000000000000600052602160045260246000fd5b60038110610826576108256107e6565b5b50565b600081905061083782610815565b919050565b600061084782610829565b9050919050565b6108578161083c565b82525050565b6000602082019050610872600083018461084e565b92915050565b7f4e487b7100000000000000000000000000000000000000000000000000000000600052602260045260246000fd5b600060028204905060018216806108bf57607f821691505b6020821081036108d2576108d1610878565b5b5091905056fea2646970667358221220420ef6948da0fce1663a7cc78c382abab01069c0936a53cade784a7cc7b067fd64736f6c63430008120033",
			"opcodes": "PUSH1 0x80 PUSH1 0x40 MSTORE PUSH1 0x0 DUP1 SSTORE CALLVALUE DUP1 ISZERO PUSH2 0x14 JUMPI PUSH1 0x0 DUP1 REVERT JUMPDEST POP PUSH2 0x90E DUP1 PUSH2 0x24 PUSH1 0x0 CODECOPY PUSH1 0x0 RETURN INVALID PUSH1 0x80 PUSH1 0x40 MSTORE CALLVALUE DUP1 ISZERO PUSH2 0x10 JUMPI PUSH1 0x0 DUP1 REVERT JUMPDEST POP PUSH1 0x4 CALLDATASIZE LT PUSH2 0x57 JUMPI PUSH1 0x0 CALLDATALOAD PUSH1 0xE0 SHR DUP1 PUSH4 0x302E1AB1 EQ PUSH2 0x5C JUMPI DUP1 PUSH4 0x66E918B8 EQ PUSH2 0x8C JUMPI DUP1 PUSH4 0x74946460 EQ PUSH2 0xBC JUMPI DUP1 PUSH4 0xBAAAB57A EQ PUSH2 0xEC JUMPI DUP1 PUSH4 0xCAAFC4FB EQ PUSH2 0x11C JUMPI JUMPDEST PUSH1 0x0 DUP1 REVERT JUMPDEST PUSH2 0x76 PUSH1 0x4 DUP1 CALLDATASIZE SUB DUP2 ADD SWAP1 PUSH2 0x71 SWAP2 SWAP1 PUSH2 0x358 JUMP JUMPDEST PUSH2 0x14C JUMP JUMPDEST PUSH1 0x40 MLOAD PUSH2 0x83 SWAP2 SWAP1 PUSH2 0x415 JUMP JUMPDEST PUSH1 0x40 MLOAD DUP1 SWAP2 SUB SWAP1 RETURN JUMPDEST PUSH2 0xA6 PUSH1 0x4 DUP1 CALLDATASIZE SUB DUP2 ADD SWAP1 PUSH2 0xA1 SWAP2 SWAP1 PUSH2 0x591 JUMP JUMPDEST PUSH2 0x20A JUMP JUMPDEST PUSH1 0x40 MLOAD PUSH2 0xB3 SWAP2 SWAP1 PUSH2 0x681 JUMP JUMPDEST PUSH1 0x40 MLOAD DUP1 SWAP2 SUB SWAP1 RETURN JUMPDEST PUSH2 0xD6 PUSH1 0x4 DUP1 CALLDATASIZE SUB DUP2 ADD SWAP1 PUSH2 0xD1 SWAP2 SWAP1 PUSH2 0x69C JUMP JUMPDEST PUSH2 0x216 JUMP JUMPDEST PUSH1 0x40 MLOAD PUSH2 0xE3 SWAP2 SWAP1 PUSH2 0x681 JUMP JUMPDEST PUSH1 0x40 MLOAD DUP1 SWAP2 SUB SWAP1 RETURN JUMPDEST PUSH2 0x106 PUSH1 0x4 DUP1 CALLDATASIZE SUB DUP2 ADD SWAP1 PUSH2 0x101 SWAP2 SWAP1 PUSH2 0x358 JUMP JUMPDEST PUSH2 0x223 JUMP JUMPDEST PUSH1 0x40 MLOAD PUSH2 0x113 SWAP2 SWAP1 PUSH2 0x85D JUMP JUMPDEST PUSH1 0x40 MLOAD DUP1 SWAP2 SUB SWAP1 RETURN JUMPDEST PUSH2 0x136 PUSH1 0x4 DUP1 CALLDATASIZE SUB DUP2 ADD SWAP1 PUSH2 0x131 SWAP2 SWAP1 PUSH2 0x358 JUMP JUMPDEST PUSH2 0x250 JUMP JUMPDEST PUSH1 0x40 MLOAD PUSH2 0x143 SWAP2 SWAP1 PUSH2 0x415 JUMP JUMPDEST PUSH1 0x40 MLOAD DUP1 SWAP2 SUB SWAP1 RETURN JUMPDEST PUSH1 0x60 PUSH1 0x2 PUSH1 0x0 PUSH1 0x1 PUSH1 0x0 DUP6 DUP2 MSTORE PUSH1 0x20 ADD SWAP1 DUP2 MSTORE PUSH1 0x20 ADD PUSH1 0x0 KECCAK256 PUSH1 0x2 ADD SLOAD DUP2 MSTORE PUSH1 0x20 ADD SWAP1 DUP2 MSTORE PUSH1 0x20 ADD PUSH1 0x0 KECCAK256 PUSH1 0x1 ADD DUP1 SLOAD PUSH2 0x185 SWAP1 PUSH2 0x8A7 JUMP JUMPDEST DUP1 PUSH1 0x1F ADD PUSH1 0x20 DUP1 SWAP2 DIV MUL PUSH1 0x20 ADD PUSH1 0x40 MLOAD SWAP1 DUP2 ADD PUSH1 0x40 MSTORE DUP1 SWAP3 SWAP2 SWAP1 DUP2 DUP2 MSTORE PUSH1 0x20 ADD DUP3 DUP1 SLOAD PUSH2 0x1B1 SWAP1 PUSH2 0x8A7 JUMP JUMPDEST DUP1 ISZERO PUSH2 0x1FE JUMPI DUP1 PUSH1 0x1F LT PUSH2 0x1D3 JUMPI PUSH2 0x100 DUP1 DUP4 SLOAD DIV MUL DUP4 MSTORE SWAP2 PUSH1 0x20 ADD SWAP2 PUSH2 0x1FE JUMP JUMPDEST DUP3 ADD SWAP2 SWAP1 PUSH1 0x0 MSTORE PUSH1 0x20 PUSH1 0x0 KECCAK256 SWAP1 JUMPDEST DUP2 SLOAD DUP2 MSTORE SWAP1 PUSH1 0x1 ADD SWAP1 PUSH1 0x20 ADD DUP1 DUP4 GT PUSH2 0x1E1 JUMPI DUP3 SWAP1 SUB PUSH1 0x1F AND DUP3 ADD SWAP2 JUMPDEST POP POP POP POP POP SWAP1 POP SWAP2 SWAP1 POP JUMP JUMPDEST PUSH1 0x0 SWAP7 SWAP6 POP POP POP POP POP POP JUMP JUMPDEST PUSH1 0x0 SWAP8 SWAP7 POP POP POP POP POP POP POP JUMP JUMPDEST PUSH1 0x0 PUSH1 0x1 PUSH1 0x0 DUP4 DUP2 MSTORE PUSH1 0x20 ADD SWAP1 DUP2 MSTORE PUSH1 0x20 ADD PUSH1 0x0 KECCAK256 PUSH1 0x3 ADD PUSH1 0x0 SWAP1 SLOAD SWAP1 PUSH2 0x100 EXP SWAP1 DIV PUSH1 0xFF AND SWAP1 POP SWAP2 SWAP1 POP JUMP JUMPDEST PUSH1 0x60 PUSH1 0x2 PUSH1 0x0 PUSH1 0x1 PUSH1 0x0 DUP6 DUP2 MSTORE PUSH1 0x20 ADD SWAP1 DUP2 MSTORE PUSH1 0x20 ADD PUSH1 0x0 KECCAK256 PUSH1 0x2 ADD SLOAD DUP2 MSTORE PUSH1 0x20 ADD SWAP1 DUP2 MSTORE PUSH1 0x20 ADD PUSH1 0x0 KECCAK256 PUSH1 0x2 ADD DUP1 SLOAD PUSH2 0x289 SWAP1 PUSH2 0x8A7 JUMP JUMPDEST DUP1 PUSH1 0x1F ADD PUSH1 0x20 DUP1 SWAP2 DIV MUL PUSH1 0x20 ADD PUSH1 0x40 MLOAD SWAP1 DUP2 ADD PUSH1 0x40 MSTORE DUP1 SWAP3 SWAP2 SWAP1 DUP2 DUP2 MSTORE PUSH1 0x20 ADD DUP3 DUP1 SLOAD PUSH2 0x2B5 SWAP1 PUSH2 0x8A7 JUMP JUMPDEST DUP1 ISZERO PUSH2 0x302 JUMPI DUP1 PUSH1 0x1F LT PUSH2 0x2D7 JUMPI PUSH2 0x100 DUP1 DUP4 SLOAD DIV MUL DUP4 MSTORE SWAP2 PUSH1 0x20 ADD SWAP2 PUSH2 0x302 JUMP JUMPDEST DUP3 ADD SWAP2 SWAP1 PUSH1 0x0 MSTORE PUSH1 0x20 PUSH1 0x0 KECCAK256 SWAP1 JUMPDEST DUP2 SLOAD DUP2 MSTORE SWAP1 PUSH1 0x1 ADD SWAP1 PUSH1 0x20 ADD DUP1 DUP4 GT PUSH2 0x2E5 JUMPI DUP3 SWAP1 SUB PUSH1 0x1F AND DUP3 ADD SWAP2 JUMPDEST POP POP POP POP POP SWAP1 POP SWAP2 SWAP1 POP JUMP JUMPDEST PUSH1 0x0 PUSH1 0x40 MLOAD SWAP1 POP SWAP1 JUMP JUMPDEST PUSH1 0x0 DUP1 REVERT JUMPDEST PUSH1 0x0 DUP1 REVERT JUMPDEST PUSH1 0x0 DUP2 SWAP1 POP SWAP2 SWAP1 POP JUMP JUMPDEST PUSH2 0x335 DUP2 PUSH2 0x322 JUMP JUMPDEST DUP2 EQ PUSH2 0x340 JUMPI PUSH1 0x0 DUP1 REVERT JUMPDEST POP JUMP JUMPDEST PUSH1 0x0 DUP2 CALLDATALOAD SWAP1 POP PUSH2 0x352 DUP2 PUSH2 0x32C JUMP JUMPDEST SWAP3 SWAP2 POP POP JUMP JUMPDEST PUSH1 0x0 PUSH1 0x20 DUP3 DUP5 SUB SLT ISZERO PUSH2 0x36E JUMPI PUSH2 0x36D PUSH2 0x318 JUMP JUMPDEST JUMPDEST PUSH1 0x0 PUSH2 0x37C DUP5 DUP3 DUP6 ADD PUSH2 0x343 JUMP JUMPDEST SWAP2 POP POP SWAP3 SWAP2 POP POP JUMP JUMPDEST PUSH1 0x0 DUP2 MLOAD SWAP1 POP SWAP2 SWAP1 POP JUMP JUMPDEST PUSH1 0x0 DUP3 DUP3 MSTORE PUSH1 0x20 DUP3 ADD SWAP1 POP SWAP3 SWAP2 POP POP JUMP JUMPDEST PUSH1 0x0 JUMPDEST DUP4 DUP2 LT ISZERO PUSH2 0x3BF JUMPI DUP1 DUP3 ADD MLOAD DUP2 DUP5 ADD MSTORE PUSH1 0x20 DUP2 ADD SWAP1 POP PUSH2 0x3A4 JUMP JUMPDEST PUSH1 0x0 DUP5 DUP5 ADD MSTORE POP POP POP POP JUMP JUMPDEST PUSH1 0x0 PUSH1 0x1F NOT PUSH1 0x1F DUP4 ADD AND SWAP1 POP SWAP2 SWAP1 POP JUMP JUMPDEST PUSH1 0x0 PUSH2 0x3E7 DUP3 PUSH2 0x385 JUMP JUMPDEST PUSH2 0x3F1 DUP2 DUP6 PUSH2 0x390 JUMP JUMPDEST SWAP4 POP PUSH2 0x401 DUP2 DUP6 PUSH1 0x20 DUP7 ADD PUSH2 0x3A1 JUMP JUMPDEST PUSH2 0x40A DUP2 PUSH2 0x3CB JUMP JUMPDEST DUP5 ADD SWAP2 POP POP SWAP3 SWAP2 POP POP JUMP JUMPDEST PUSH1 0x0 PUSH1 0x20 DUP3 ADD SWAP1 POP DUP2 DUP2 SUB PUSH1 0x0 DUP4 ADD MSTORE PUSH2 0x42F DUP2 DUP5 PUSH2 0x3DC JUMP JUMPDEST SWAP1 POP SWAP3 SWAP2 POP POP JUMP JUMPDEST PUSH1 0x0 DUP1 REVERT JUMPDEST PUSH1 0x0 DUP1 REVERT JUMPDEST PUSH32 0x4E487B7100000000000000000000000000000000000000000000000000000000 PUSH1 0x0 MSTORE PUSH1 0x41 PUSH1 0x4 MSTORE PUSH1 0x24 PUSH1 0x0 REVERT JUMPDEST PUSH2 0x479 DUP3 PUSH2 0x3CB JUMP JUMPDEST DUP2 ADD DUP2 DUP2 LT PUSH8 0xFFFFFFFFFFFFFFFF DUP3 GT OR ISZERO PUSH2 0x498 JUMPI PUSH2 0x497 PUSH2 0x441 JUMP JUMPDEST JUMPDEST DUP1 PUSH1 0x40 MSTORE POP POP POP JUMP JUMPDEST PUSH1 0x0 PUSH2 0x4AB PUSH2 0x30E JUMP JUMPDEST SWAP1 POP PUSH2 0x4B7 DUP3 DUP3 PUSH2 0x470 JUMP JUMPDEST SWAP2 SWAP1 POP JUMP JUMPDEST PUSH1 0x0 PUSH8 0xFFFFFFFFFFFFFFFF DUP3 GT ISZERO PUSH2 0x4D7 JUMPI PUSH2 0x4D6 PUSH2 0x441 JUMP JUMPDEST JUMPDEST PUSH2 0x4E0 DUP3 PUSH2 0x3CB JUMP JUMPDEST SWAP1 POP PUSH1 0x20 DUP2 ADD SWAP1 POP SWAP2 SWAP1 POP JUMP JUMPDEST DUP3 DUP2 DUP4 CALLDATACOPY PUSH1 0x0 DUP4 DUP4 ADD MSTORE POP POP POP JUMP JUMPDEST PUSH1 0x0 PUSH2 0x50F PUSH2 0x50A DUP5 PUSH2 0x4BC JUMP JUMPDEST PUSH2 0x4A1 JUMP JUMPDEST SWAP1 POP DUP3 DUP2 MSTORE PUSH1 0x20 DUP2 ADD DUP5 DUP5 DUP5 ADD GT ISZERO PUSH2 0x52B JUMPI PUSH2 0x52A PUSH2 0x43C JUMP JUMPDEST JUMPDEST PUSH2 0x536 DUP5 DUP3 DUP6 PUSH2 0x4ED JUMP JUMPDEST POP SWAP4 SWAP3 POP POP POP JUMP JUMPDEST PUSH1 0x0 DUP3 PUSH1 0x1F DUP4 ADD SLT PUSH2 0x553 JUMPI PUSH2 0x552 PUSH2 0x437 JUMP JUMPDEST JUMPDEST DUP2 CALLDATALOAD PUSH2 0x563 DUP5 DUP3 PUSH1 0x20 DUP7 ADD PUSH2 0x4FC JUMP JUMPDEST SWAP2 POP POP SWAP3 SWAP2 POP POP JUMP JUMPDEST PUSH1 0x3 DUP2 LT PUSH2 0x579 JUMPI PUSH1 0x0 DUP1 REVERT JUMPDEST POP JUMP JUMPDEST PUSH1 0x0 DUP2 CALLDATALOAD SWAP1 POP PUSH2 0x58B DUP2 PUSH2 0x56C JUMP JUMPDEST SWAP3 SWAP2 POP POP JUMP JUMPDEST PUSH1 0x0 DUP1 PUSH1 0x0 DUP1 PUSH1 0x0 DUP1 PUSH1 0xC0 DUP8 DUP10 SUB SLT ISZERO PUSH2 0x5AE JUMPI PUSH2 0x5AD PUSH2 0x318 JUMP JUMPDEST JUMPDEST PUSH1 0x0 PUSH2 0x5BC DUP10 DUP3 DUP11 ADD PUSH2 0x343 JUMP JUMPDEST SWAP7 POP POP PUSH1 0x20 DUP8 ADD CALLDATALOAD PUSH8 0xFFFFFFFFFFFFFFFF DUP2 GT ISZERO PUSH2 0x5DD JUMPI PUSH2 0x5DC PUSH2 0x31D JUMP JUMPDEST JUMPDEST PUSH2 0x5E9 DUP10 DUP3 DUP11 ADD PUSH2 0x53E JUMP JUMPDEST SWAP6 POP POP PUSH1 0x40 PUSH2 0x5FA DUP10 DUP3 DUP11 ADD PUSH2 0x343 JUMP JUMPDEST SWAP5 POP POP PUSH1 0x60 PUSH2 0x60B DUP10 DUP3 DUP11 ADD PUSH2 0x57C JUMP JUMPDEST SWAP4 POP POP PUSH1 0x80 DUP8 ADD CALLDATALOAD PUSH8 0xFFFFFFFFFFFFFFFF DUP2 GT ISZERO PUSH2 0x62C JUMPI PUSH2 0x62B PUSH2 0x31D JUMP JUMPDEST JUMPDEST PUSH2 0x638 DUP10 DUP3 DUP11 ADD PUSH2 0x53E JUMP JUMPDEST SWAP3 POP POP PUSH1 0xA0 DUP8 ADD CALLDATALOAD PUSH8 0xFFFFFFFFFFFFFFFF DUP2 GT ISZERO PUSH2 0x659 JUMPI PUSH2 0x658 PUSH2 0x31D JUMP JUMPDEST JUMPDEST PUSH2 0x665 DUP10 DUP3 DUP11 ADD PUSH2 0x53E JUMP JUMPDEST SWAP2 POP POP SWAP3 SWAP6 POP SWAP3 SWAP6 POP SWAP3 SWAP6 JUMP JUMPDEST PUSH2 0x67B DUP2 PUSH2 0x322 JUMP JUMPDEST DUP3 MSTORE POP POP JUMP JUMPDEST PUSH1 0x0 PUSH1 0x20 DUP3 ADD SWAP1 POP PUSH2 0x696 PUSH1 0x0 DUP4 ADD DUP5 PUSH2 0x672 JUMP JUMPDEST SWAP3 SWAP2 POP POP JUMP JUMPDEST PUSH1 0x0 DUP1 PUSH1 0x0 DUP1 PUSH1 0x0 DUP1 PUSH1 0x0 PUSH1 0xE0 DUP9 DUP11 SUB SLT ISZERO PUSH2 0x6BB JUMPI PUSH2 0x6BA PUSH2 0x318 JUMP JUMPDEST JUMPDEST PUSH1 0x0 PUSH2 0x6C9 DUP11 DUP3 DUP12 ADD PUSH2 0x343 JUMP JUMPDEST SWAP8 POP POP PUSH1 0x20 DUP9 ADD CALLDATALOAD PUSH8 0xFFFFFFFFFFFFFFFF DUP2 GT ISZERO PUSH2 0x6EA JUMPI PUSH2 0x6E9 PUSH2 0x31D JUMP JUMPDEST JUMPDEST PUSH2 0x6F6 DUP11 DUP3 DUP12 ADD PUSH2 0x53E JUMP JUMPDEST SWAP7 POP POP PUSH1 0x40 DUP9 ADD CALLDATALOAD PUSH8 0xFFFFFFFFFFFFFFFF DUP2 GT ISZERO PUSH2 0x717 JUMPI PUSH2 0x716 PUSH2 0x31D JUMP JUMPDEST JUMPDEST PUSH2 0x723 DUP11 DUP3 DUP12 ADD PUSH2 0x53E JUMP JUMPDEST SWAP6 POP POP PUSH1 0x60 DUP9 ADD CALLDATALOAD PUSH8 0xFFFFFFFFFFFFFFFF DUP2 GT ISZERO PUSH2 0x744 JUMPI PUSH2 0x743 PUSH2 0x31D JUMP JUMPDEST JUMPDEST PUSH2 0x750 DUP11 DUP3 DUP12 ADD PUSH2 0x53E JUMP JUMPDEST SWAP5 POP POP PUSH1 0x80 DUP9 ADD CALLDATALOAD PUSH8 0xFFFFFFFFFFFFFFFF DUP2 GT ISZERO PUSH2 0x771 JUMPI PUSH2 0x770 PUSH2 0x31D JUMP JUMPDEST JUMPDEST PUSH2 0x77D DUP11 DUP3 DUP12 ADD PUSH2 0x53E JUMP JUMPDEST SWAP4 POP POP PUSH1 0xA0 DUP9 ADD CALLDATALOAD PUSH8 0xFFFFFFFFFFFFFFFF DUP2 GT ISZERO PUSH2 0x79E JUMPI PUSH2 0x79D PUSH2 0x31D JUMP JUMPDEST JUMPDEST PUSH2 0x7AA DUP11 DUP3 DUP12 ADD PUSH2 0x53E JUMP JUMPDEST SWAP3 POP POP PUSH1 0xC0 DUP9 ADD CALLDATALOAD PUSH8 0xFFFFFFFFFFFFFFFF DUP2 GT ISZERO PUSH2 0x7CB JUMPI PUSH2 0x7CA PUSH2 0x31D JUMP JUMPDEST JUMPDEST PUSH2 0x7D7 DUP11 DUP3 DUP12 ADD PUSH2 0x53E JUMP JUMPDEST SWAP2 POP POP SWAP3 SWAP6 SWAP9 SWAP2 SWAP5 SWAP8 POP SWAP3 SWAP6 POP JUMP JUMPDEST PUSH32 0x4E487B7100000000000000000000000000000000000000000000000000000000 PUSH1 0x0 MSTORE PUSH1 0x21 PUSH1 0x4 MSTORE PUSH1 0x24 PUSH1 0x0 REVERT JUMPDEST PUSH1 0x3 DUP2 LT PUSH2 0x826 JUMPI PUSH2 0x825 PUSH2 0x7E6 JUMP JUMPDEST JUMPDEST POP JUMP JUMPDEST PUSH1 0x0 DUP2 SWAP1 POP PUSH2 0x837 DUP3 PUSH2 0x815 JUMP JUMPDEST SWAP2 SWAP1 POP JUMP JUMPDEST PUSH1 0x0 PUSH2 0x847 DUP3 PUSH2 0x829 JUMP JUMPDEST SWAP1 POP SWAP2 SWAP1 POP JUMP JUMPDEST PUSH2 0x857 DUP2 PUSH2 0x83C JUMP JUMPDEST DUP3 MSTORE POP POP JUMP JUMPDEST PUSH1 0x0 PUSH1 0x20 DUP3 ADD SWAP1 POP PUSH2 0x872 PUSH1 0x0 DUP4 ADD DUP5 PUSH2 0x84E JUMP JUMPDEST SWAP3 SWAP2 POP POP JUMP JUMPDEST PUSH32 0x4E487B7100000000000000000000000000000000000000000000000000000000 PUSH1 0x0 MSTORE PUSH1 0x22 PUSH1 0x4 MSTORE PUSH1 0x24 PUSH1 0x0 REVERT JUMPDEST PUSH1 0x0 PUSH1 0x2 DUP3 DIV SWAP1 POP PUSH1 0x1 DUP3 AND DUP1 PUSH2 0x8BF JUMPI PUSH1 0x7F DUP3 AND SWAP2 POP JUMPDEST PUSH1 0x20 DUP3 LT DUP2 SUB PUSH2 0x8D2 JUMPI PUSH2 0x8D1 PUSH2 0x878 JUMP JUMPDEST JUMPDEST POP SWAP2 SWAP1 POP JUMP INVALID LOG2 PUSH5 0x6970667358 0x22 SLT KECCAK256 TIMESTAMP 0xE 0xF6 SWAP5 DUP14 LOG0 0xFC 0xE1 PUSH7 0x3A7CC78C382ABA 0xB0 LT PUSH10 0xC0936A53CADE784A7CC7 0xB0 PUSH8 0xFD64736F6C634300 ADDMOD SLT STOP CALLER "
		},
		"gasEstimates": {
			"creation": {
				"codeDepositCost": "463600",
				"executionCost": "5505",
				"totalCost": "469105"
			},
			"external": {
				"addMC(uint256,string,uint256,uint8,string,string)": "infinite",
				"createPersonalInfo(uint256,string,string,string,string,string,string)": "infinite",
				"getMCCategory(uint256)": "2961",
				"getMCNRIC(uint256)": "infinite",
				"getMCName(uint256)": "infinite"
			}
		},
		"methodIdentifiers": {
			"addMC(uint256,string,uint256,uint8,string,string)": "66e918b8",
			"createPersonalInfo(uint256,string,string,string,string,string,string)": "74946460",
			"getMCCategory(uint256)": "baaab57a",
			"getMCNRIC(uint256)": "caafc4fb",
			"getMCName(uint256)": "302e1ab1"
		}
	},
	"abi": [
		{
			"anonymous": false,
			"inputs": [
				{
					"indexed": false,
					"internalType": "uint256",
					"name": "numMC",
					"type": "uint256"
				}
			],
			"name": "mcCreated",
			"type": "event"
		},
		{
			"inputs": [
				{
					"internalType": "uint256",
					"name": "hospital",
					"type": "uint256"
				},
				{
					"internalType": "string",
					"name": "password",
					"type": "string"
				},
				{
					"internalType": "uint256",
					"name": "personId",
					"type": "uint256"
				},
				{
					"internalType": "enum MedicalCertificate.certCategory",
					"name": "incidentType0incident1death2suicide",
					"type": "uint8"
				},
				{
					"internalType": "string",
					"name": "incidentYYYYMMDDHHMM",
					"type": "string"
				},
				{
					"internalType": "string",
					"name": "certifierName",
					"type": "string"
				}
			],
			"name": "addMC",
			"outputs": [
				{
					"internalType": "uint256",
					"name": "",
					"type": "uint256"
				}
			],
			"stateMutability": "nonpayable",
			"type": "function"
		},
		{
			"inputs": [
				{
					"internalType": "uint256",
					"name": "hospitalId",
					"type": "uint256"
				},
				{
					"internalType": "string",
					"name": "password",
					"type": "string"
				},
				{
					"internalType": "string",
					"name": "name",
					"type": "string"
				},
				{
					"internalType": "string",
					"name": "NRIC",
					"type": "string"
				},
				{
					"internalType": "string",
					"name": "sex",
					"type": "string"
				},
				{
					"internalType": "string",
					"name": "birthdateYYYYMMDD",
					"type": "string"
				},
				{
					"internalType": "string",
					"name": "race_nationality",
					"type": "string"
				}
			],
			"name": "createPersonalInfo",
			"outputs": [
				{
					"internalType": "uint256",
					"name": "",
					"type": "uint256"
				}
			],
			"stateMutability": "nonpayable",
			"type": "function"
		},
		{
			"inputs": [
				{
					"internalType": "uint256",
					"name": "id",
					"type": "uint256"
				}
			],
			"name": "getMCCategory",
			"outputs": [
				{
					"internalType": "enum MedicalCertificate.certCategory",
					"name": "",
					"type": "uint8"
				}
			],
			"stateMutability": "view",
			"type": "function"
		},
		{
			"inputs": [
				{
					"internalType": "uint256",
					"name": "id",
					"type": "uint256"
				}
			],
			"name": "getMCNRIC",
			"outputs": [
				{
					"internalType": "string",
					"name": "",
					"type": "string"
				}
			],
			"stateMutability": "view",
			"type": "function"
		},
		{
			"inputs": [
				{
					"internalType": "uint256",
					"name": "id",
					"type": "uint256"
				}
			],
			"name": "getMCName",
			"outputs": [
				{
					"internalType": "string",
					"name": "",
					"type": "string"
				}
			],
			"stateMutability": "view",
			"type": "function"
		}
	]
}