{
	"data": {
		"bytecode": {
			"linkReferences": {},
			"object": "608060405260006003553480156200001657600080fd5b506040516200242f3803806200242f83398181016040528101906200003c91906200020f565b826000806101000a81548173ffffffffffffffffffffffffffffffffffffffff021916908373ffffffffffffffffffffffffffffffffffffffff16021790555081600160006101000a81548173ffffffffffffffffffffffffffffffffffffffff021916908373ffffffffffffffffffffffffffffffffffffffff16021790555080600260006101000a81548173ffffffffffffffffffffffffffffffffffffffff021916908373ffffffffffffffffffffffffffffffffffffffff1602179055505050506200026b565b600080fd5b600073ffffffffffffffffffffffffffffffffffffffff82169050919050565b600062000139826200010c565b9050919050565b60006200014d826200012c565b9050919050565b6200015f8162000140565b81146200016b57600080fd5b50565b6000815190506200017f8162000154565b92915050565b600062000192826200012c565b9050919050565b620001a48162000185565b8114620001b057600080fd5b50565b600081519050620001c48162000199565b92915050565b6000620001d7826200012c565b9050919050565b620001e981620001ca565b8114620001f557600080fd5b50565b6000815190506200020981620001de565b92915050565b6000806000606084860312156200022b576200022a62000107565b5b60006200023b868287016200016e565b93505060206200024e86828701620001b3565b92505060406200026186828701620001f8565b9150509250925092565b6121b4806200027b6000396000f3fe608060405234801561001057600080fd5b50600436106100f55760003560e01c806368814af8116100975780638fe2701e116100665780638fe2701e146102d3578063a33661b514610303578063bdbeb6fe14610333578063fec5baf91461034f576100f5565b806368814af8146102255780636b4c44931461025557806388c2c519146102855780638edd5297146102b5576100f5565b8063458d0dc2116100d3578063458d0dc2146101795780635564f644146101a9578063561c865b146101d95780635a0b84f8146101f5576100f5565b80630f861dc4146100fa5780631d6b8b721461012a57806334fb36c81461015d575b600080fd5b610114600480360381019061010f9190611152565b61036b565b6040516101219190611198565b60405180910390f35b610144600480360381019061013f91906111df565b6103b4565b6040516101549493929190611300565b60405180910390f35b61017760048036038101906101729190611488565b610514565b005b610193600480360381019061018e919061150b565b61062c565b6040516101a0919061155e565b60405180910390f35b6101c360048036038101906101be91906111df565b6106dc565b6040516101d09190611580565b60405180910390f35b6101f360048036038101906101ee919061150b565b61079f565b005b61020f600480360381019061020a91906111df565b6108b6565b60405161021c919061159b565b60405180910390f35b61023f600480360381019061023a91906111df565b6109e1565b60405161024c919061167b565b60405180910390f35b61026f600480360381019061026a919061169d565b610acf565b60405161027c9190611198565b60405180910390f35b61029f600480360381019061029a91906111df565b610be5565b6040516102ac919061155e565b60405180910390f35b6102bd610d10565b6040516102ca9190611198565b60405180910390f35b6102ed60048036038101906102e8919061150b565b610d16565b6040516102fa9190611198565b60405180910390f35b61031d60048036038101906103189190611715565b610e83565b60405161032a9190611198565b60405180910390f35b61034d600480360381019061034891906117a0565b610f7f565b005b61036960048036038101906103649190611881565b610fbd565b005b6000600560008373ffffffffffffffffffffffffffffffffffffffff1673ffffffffffffffffffffffffffffffffffffffff168152602001908152602001600020549050919050565b60046020528060005260406000206000915090508060000154908060010180546103dd906119a6565b80601f0160208091040260200160405190810160405280929190818152602001828054610409906119a6565b80156104565780601f1061042b57610100808354040283529160200191610456565b820191906000526020600020905b81548152906001019060200180831161043957829003601f168201915b50505050509080600201805461046b906119a6565b80601f0160208091040260200160405190810160405280929190818152602001828054610497906119a6565b80156104e45780601f106104b9576101008083540402835291602001916104e4565b820191906000526020600020905b8154815290600101906020018083116104c757829003601f168201915b5050505050908060030160009054906101000a900473ffffffffffffffffffffffffffffffffffffffff16905084565b8180600560003373ffffffffffffffffffffffffffffffffffffffff1673ffffffffffffffffffffffffffffffffffffffff1681526020019081526020016000205414610596576040517f08c379a000000000000000000000000000000000000000000000000000000000815260040161058d90611a23565b60405180910390fd5b60008054906101000a900473ffffffffffffffffffffffffffffffffffffffff1673ffffffffffffffffffffffffffffffffffffffff1663bfcb6cfb8686866040518463ffffffff1660e01b81526004016105f393929190611a43565b600060405180830381600087803b15801561060d57600080fd5b505af1158015610621573d6000803e3d6000fd5b505050505050505050565b6060600160009054906101000a900473ffffffffffffffffffffffffffffffffffffffff1673ffffffffffffffffffffffffffffffffffffffff16639cb3d01f8585856040518463ffffffff1660e01b815260040161068d93929190611a43565b600060405180830381865afa1580156106aa573d6000803e3d6000fd5b505050506040513d6000823e3d601f19601f820116820180604052508101906106d39190611aea565b90509392505050565b60008180600560003373ffffffffffffffffffffffffffffffffffffffff1673ffffffffffffffffffffffffffffffffffffffff1681526020019081526020016000205414610760576040517f08c379a000000000000000000000000000000000000000000000000000000000815260040161075790611a23565b60405180910390fd5b6004600084815260200190815260200160002060030160009054906101000a900473ffffffffffffffffffffffffffffffffffffffff16915050919050565b8080600560003373ffffffffffffffffffffffffffffffffffffffff1673ffffffffffffffffffffffffffffffffffffffff1681526020019081526020016000205414610821576040517f08c379a000000000000000000000000000000000000000000000000000000000815260040161081890611a23565b60405180910390fd5b60008054906101000a900473ffffffffffffffffffffffffffffffffffffffff1673ffffffffffffffffffffffffffffffffffffffff1663561c865b8585856040518463ffffffff1660e01b815260040161087e93929190611a43565b600060405180830381600087803b15801561089857600080fd5b505af11580156108ac573d6000803e3d6000fd5b5050505050505050565b60608180600560003373ffffffffffffffffffffffffffffffffffffffff1673ffffffffffffffffffffffffffffffffffffffff168152602001908152602001600020541461093a576040517f08c379a000000000000000000000000000000000000000000000000000000000815260040161093190611a23565b60405180910390fd5b60046000848152602001908152602001600020600101805461095b906119a6565b80601f0160208091040260200160405190810160405280929190818152602001828054610987906119a6565b80156109d45780601f106109a9576101008083540402835291602001916109d4565b820191906000526020600020905b8154815290600101906020018083116109b757829003601f168201915b5050505050915050919050565b60608180600560003373ffffffffffffffffffffffffffffffffffffffff1673ffffffffffffffffffffffffffffffffffffffff1681526020019081526020016000205414610a65576040517f08c379a0000000000000000000000000000000000000000000000000000000008152600401610a5c90611a23565b60405180910390fd5b60066000848152602001908152602001600020805480602002602001604051908101604052809291908181526020018280548015610ac257602002820191906000526020600020905b815481526020019060010190808311610aae575b5050505050915050919050565b600060036000815480929190610ae490611b62565b919050555060006004600060035481526020019081526020016000209050600354816000018190555083816001019081610b1e9190611d56565b50338160030160006101000a81548173ffffffffffffffffffffffffffffffffffffffff021916908373ffffffffffffffffffffffffffffffffffffffff16021790555082604051602001610b739190611e64565b604051602081830303815290604052816002019081610b929190611ed6565b50600354600560003373ffffffffffffffffffffffffffffffffffffffff1673ffffffffffffffffffffffffffffffffffffffff1681526020019081526020016000208190555060035491505092915050565b60608180600560003373ffffffffffffffffffffffffffffffffffffffff1673ffffffffffffffffffffffffffffffffffffffff1681526020019081526020016000205414610c69576040517f08c379a0000000000000000000000000000000000000000000000000000000008152600401610c6090611a23565b60405180910390fd5b600460008481526020019081526020016000206002018054610c8a906119a6565b80601f0160208091040260200160405190810160405280929190818152602001828054610cb6906119a6565b8015610d035780601f10610cd857610100808354040283529160200191610d03565b820191906000526020600020905b815481529060010190602001808311610ce657829003601f168201915b5050505050915050919050565b60035481565b60008380600560003373ffffffffffffffffffffffffffffffffffffffff1673ffffffffffffffffffffffffffffffffffffffff1681526020019081526020016000205414610d9a576040517f08c379a0000000000000000000000000000000000000000000000000000000008152600401610d9190611a23565b60405180910390fd5b60008060008054906101000a900473ffffffffffffffffffffffffffffffffffffffff1673ffffffffffffffffffffffffffffffffffffffff16635d99670187876040518363ffffffff1660e01b8152600401610df8929190611fa8565b60408051808303816000875af1158015610e16573d6000803e3d6000fd5b505050506040513d601f19601f82011682018060405250810190610e3a919061200b565b9150915060006002811115610e5257610e5161204b565b5b826002811115610e6557610e6461204b565b5b03610e74578093505050610e7b565b6000935050505b509392505050565b600080610e8f3361036b565b90506000600160009054906101000a900473ffffffffffffffffffffffffffffffffffffffff1673ffffffffffffffffffffffffffffffffffffffff1663f043e745878488886040518563ffffffff1660e01b8152600401610ef4949392919061207a565b6020604051808303816000875af1158015610f13573d6000803e3d6000fd5b505050506040513d601f19601f82011682018060405250810190610f3791906120cd565b90506007600083815260200190815260200160002081908060018154018082558091505060019003906000526020600020016000909190919091505580925050509392505050565b600660008381526020019081526020016000208190806001815401808255809150506001900390600052602060002001600090919091909150555050565b8280600560003373ffffffffffffffffffffffffffffffffffffffff1673ffffffffffffffffffffffffffffffffffffffff168152602001908152602001600020541461103f576040517f08c379a000000000000000000000000000000000000000000000000000000000815260040161103690611a23565b60405180910390fd5b60008054906101000a900473ffffffffffffffffffffffffffffffffffffffff1673ffffffffffffffffffffffffffffffffffffffff1663700d9ef7898989898989896040518863ffffffff1660e01b81526004016110a497969594939291906120fa565b600060405180830381600087803b1580156110be57600080fd5b505af11580156110d2573d6000803e3d6000fd5b505050505050505050505050565b6000604051905090565b600080fd5b600080fd5b600073ffffffffffffffffffffffffffffffffffffffff82169050919050565b600061111f826110f4565b9050919050565b61112f81611114565b811461113a57600080fd5b50565b60008135905061114c81611126565b92915050565b600060208284031215611168576111676110ea565b5b60006111768482850161113d565b91505092915050565b6000819050919050565b6111928161117f565b82525050565b60006020820190506111ad6000830184611189565b92915050565b6111bc8161117f565b81146111c757600080fd5b50565b6000813590506111d9816111b3565b92915050565b6000602082840312156111f5576111f46110ea565b5b6000611203848285016111ca565b91505092915050565b600081519050919050565b600082825260208201905092915050565b60005b8381101561124657808201518184015260208101905061122b565b60008484015250505050565b6000601f19601f8301169050919050565b600061126e8261120c565b6112788185611217565b9350611288818560208601611228565b61129181611252565b840191505092915050565b600081519050919050565b600082825260208201905092915050565b60006112c38261129c565b6112cd81856112a7565b93506112dd818560208601611228565b6112e681611252565b840191505092915050565b6112fa81611114565b82525050565b60006080820190506113156000830187611189565b81810360208301526113278186611263565b9050818103604083015261133b81856112b8565b905061134a60608301846112f1565b95945050505050565b600080fd5b600080fd5b7f4e487b7100000000000000000000000000000000000000000000000000000000600052604160045260246000fd5b61139582611252565b810181811067ffffffffffffffff821117156113b4576113b361135d565b5b80604052505050565b60006113c76110e0565b90506113d3828261138c565b919050565b600067ffffffffffffffff8211156113f3576113f261135d565b5b6113fc82611252565b9050602081019050919050565b82818337600083830152505050565b600061142b611426846113d8565b6113bd565b90508281526020810184848401111561144757611446611358565b5b611452848285611409565b509392505050565b600082601f83011261146f5761146e611353565b5b813561147f848260208601611418565b91505092915050565b600080600080608085870312156114a2576114a16110ea565b5b60006114b0878288016111ca565b94505060206114c1878288016111ca565b93505060406114d2878288016111ca565b925050606085013567ffffffffffffffff8111156114f3576114f26110ef565b5b6114ff8782880161145a565b91505092959194509250565b600080600060608486031215611524576115236110ea565b5b6000611532868287016111ca565b9350506020611543868287016111ca565b9250506040611554868287016111ca565b9150509250925092565b6000602082019050818103600083015261157881846112b8565b905092915050565b600060208201905061159560008301846112f1565b92915050565b600060208201905081810360008301526115b58184611263565b905092915050565b600081519050919050565b600082825260208201905092915050565b6000819050602082019050919050565b6115f28161117f565b82525050565b600061160483836115e9565b60208301905092915050565b6000602082019050919050565b6000611628826115bd565b61163281856115c8565b935061163d836115d9565b8060005b8381101561166e57815161165588826115f8565b975061166083611610565b925050600181019050611641565b5085935050505092915050565b60006020820190508181036000830152611695818461161d565b905092915050565b600080604083850312156116b4576116b36110ea565b5b600083013567ffffffffffffffff8111156116d2576116d16110ef565b5b6116de8582860161145a565b925050602083013567ffffffffffffffff8111156116ff576116fe6110ef565b5b61170b8582860161145a565b9150509250929050565b60008060006060848603121561172e5761172d6110ea565b5b600061173c868287016111ca565b935050602084013567ffffffffffffffff81111561175d5761175c6110ef565b5b6117698682870161145a565b925050604084013567ffffffffffffffff81111561178a576117896110ef565b5b6117968682870161145a565b9150509250925092565b600080604083850312156117b7576117b66110ea565b5b60006117c5858286016111ca565b92505060206117d6858286016111ca565b9150509250929050565b600067ffffffffffffffff8211156117fb576117fa61135d565b5b61180482611252565b9050602081019050919050565b600061182461181f846117e0565b6113bd565b9050828152602081018484840111156118405761183f611358565b5b61184b848285611409565b509392505050565b600082601f83011261186857611867611353565b5b8135611878848260208601611811565b91505092915050565b600080600080600080600060e0888a0312156118a05761189f6110ea565b5b60006118ae8a828b016111ca565b97505060206118bf8a828b016111ca565b965050604088013567ffffffffffffffff8111156118e0576118df6110ef565b5b6118ec8a828b01611853565b95505060606118fd8a828b016111ca565b945050608061190e8a828b016111ca565b93505060a088013567ffffffffffffffff81111561192f5761192e6110ef565b5b61193b8a828b0161145a565b92505060c088013567ffffffffffffffff81111561195c5761195b6110ef565b5b6119688a828b0161145a565b91505092959891949750929550565b7f4e487b7100000000000000000000000000000000000000000000000000000000600052602260045260246000fd5b600060028204905060018216806119be57607f821691505b6020821081036119d1576119d0611977565b5b50919050565b7f496e76616c6964207374616b65686f6c64657221000000000000000000000000600082015250565b6000611a0d601483611217565b9150611a18826119d7565b602082019050919050565b60006020820190508181036000830152611a3c81611a00565b9050919050565b6000606082019050611a586000830186611189565b611a656020830185611189565b611a726040830184611189565b949350505050565b6000611a8d611a88846117e0565b6113bd565b905082815260208101848484011115611aa957611aa8611358565b5b611ab4848285611228565b509392505050565b600082601f830112611ad157611ad0611353565b5b8151611ae1848260208601611a7a565b91505092915050565b600060208284031215611b0057611aff6110ea565b5b600082015167ffffffffffffffff811115611b1e57611b1d6110ef565b5b611b2a84828501611abc565b91505092915050565b7f4e487b7100000000000000000000000000000000000000000000000000000000600052601160045260246000fd5b6000611b6d8261117f565b91507fffffffffffffffffffffffffffffffffffffffffffffffffffffffffffffffff8203611b9f57611b9e611b33565b5b600182019050919050565b60008190508160005260206000209050919050565b60006020601f8301049050919050565b600082821b905092915050565b600060088302611c0c7fffffffffffffffffffffffffffffffffffffffffffffffffffffffffffffffff82611bcf565b611c168683611bcf565b95508019841693508086168417925050509392505050565b6000819050919050565b6000611c53611c4e611c498461117f565b611c2e565b61117f565b9050919050565b6000819050919050565b611c6d83611c38565b611c81611c7982611c5a565b848454611bdc565b825550505050565b600090565b611c96611c89565b611ca1818484611c64565b505050565b5b81811015611cc557611cba600082611c8e565b600181019050611ca7565b5050565b601f821115611d0a57611cdb81611baa565b611ce484611bbf565b81016020851015611cf3578190505b611d07611cff85611bbf565b830182611ca6565b50505b505050565b600082821c905092915050565b6000611d2d60001984600802611d0f565b1980831691505092915050565b6000611d468383611d1c565b9150826002028217905092915050565b611d5f8261120c565b67ffffffffffffffff811115611d7857611d7761135d565b5b611d8282546119a6565b611d8d828285611cc9565b600060209050601f831160018114611dc05760008415611dae578287015190505b611db88582611d3a565b865550611e20565b601f198416611dce86611baa565b60005b82811015611df657848901518255600182019150602085019450602081019050611dd1565b86831015611e135784890151611e0f601f891682611d1c565b8355505b6001600288020188555050505b505050505050565b600081905092915050565b6000611e3e8261120c565b611e488185611e28565b9350611e58818560208601611228565b80840191505092915050565b6000611e708284611e33565b915081905092915050565b60008190508160005260206000209050919050565b601f821115611ed157611ea281611e7b565b611eab84611bbf565b81016020851015611eba578190505b611ece611ec685611bbf565b830182611ca6565b50505b505050565b611edf8261129c565b67ffffffffffffffff811115611ef857611ef761135d565b5b611f0282546119a6565b611f0d828285611e90565b600060209050601f831160018114611f405760008415611f2e578287015190505b611f388582611d3a565b865550611fa0565b601f198416611f4e86611e7b565b60005b82811015611f7657848901518255600182019150602085019450602081019050611f51565b86831015611f935784890151611f8f601f891682611d1c565b8355505b6001600288020188555050505b505050505050565b6000604082019050611fbd6000830185611189565b611fca6020830184611189565b9392505050565b60038110611fde57600080fd5b50565b600081519050611ff081611fd1565b92915050565b600081519050612005816111b3565b92915050565b60008060408385031215612022576120216110ea565b5b600061203085828601611fe1565b925050602061204185828601611ff6565b9150509250929050565b7f4e487b7100000000000000000000000000000000000000000000000000000000600052602160045260246000fd5b600060808201905061208f6000830187611189565b61209c6020830186611189565b81810360408301526120ae8185611263565b905081810360608301526120c28184611263565b905095945050505050565b6000602082840312156120e3576120e26110ea565b5b60006120f184828501611ff6565b91505092915050565b600060e08201905061210f600083018a611189565b61211c6020830189611189565b818103604083015261212e81886112b8565b905061213d6060830187611189565b61214a6080830186611189565b81810360a083015261215c8185611263565b905081810360c08301526121708184611263565b90509897505050505050505056fea26469706673582212207fd91590187a64059f09636c1f0b3623a3c36a5f820cdc6a0f1a6d853e71c4fe64736f6c63430008130033",
			"opcodes": "PUSH1 0x80 PUSH1 0x40 MSTORE PUSH1 0x0 PUSH1 0x3 SSTORE CALLVALUE DUP1 ISZERO PUSH3 0x16 JUMPI PUSH1 0x0 DUP1 REVERT JUMPDEST POP PUSH1 0x40 MLOAD PUSH3 0x242F CODESIZE SUB DUP1 PUSH3 0x242F DUP4 CODECOPY DUP2 DUP2 ADD PUSH1 0x40 MSTORE DUP2 ADD SWAP1 PUSH3 0x3C SWAP2 SWAP1 PUSH3 0x20F JUMP JUMPDEST DUP3 PUSH1 0x0 DUP1 PUSH2 0x100 EXP DUP2 SLOAD DUP2 PUSH20 0xFFFFFFFFFFFFFFFFFFFFFFFFFFFFFFFFFFFFFFFF MUL NOT AND SWAP1 DUP4 PUSH20 0xFFFFFFFFFFFFFFFFFFFFFFFFFFFFFFFFFFFFFFFF AND MUL OR SWAP1 SSTORE POP DUP2 PUSH1 0x1 PUSH1 0x0 PUSH2 0x100 EXP DUP2 SLOAD DUP2 PUSH20 0xFFFFFFFFFFFFFFFFFFFFFFFFFFFFFFFFFFFFFFFF MUL NOT AND SWAP1 DUP4 PUSH20 0xFFFFFFFFFFFFFFFFFFFFFFFFFFFFFFFFFFFFFFFF AND MUL OR SWAP1 SSTORE POP DUP1 PUSH1 0x2 PUSH1 0x0 PUSH2 0x100 EXP DUP2 SLOAD DUP2 PUSH20 0xFFFFFFFFFFFFFFFFFFFFFFFFFFFFFFFFFFFFFFFF MUL NOT AND SWAP1 DUP4 PUSH20 0xFFFFFFFFFFFFFFFFFFFFFFFFFFFFFFFFFFFFFFFF AND MUL OR SWAP1 SSTORE POP POP POP POP PUSH3 0x26B JUMP JUMPDEST PUSH1 0x0 DUP1 REVERT JUMPDEST PUSH1 0x0 PUSH20 0xFFFFFFFFFFFFFFFFFFFFFFFFFFFFFFFFFFFFFFFF DUP3 AND SWAP1 POP SWAP2 SWAP1 POP JUMP JUMPDEST PUSH1 0x0 PUSH3 0x139 DUP3 PUSH3 0x10C JUMP JUMPDEST SWAP1 POP SWAP2 SWAP1 POP JUMP JUMPDEST PUSH1 0x0 PUSH3 0x14D DUP3 PUSH3 0x12C JUMP JUMPDEST SWAP1 POP SWAP2 SWAP1 POP JUMP JUMPDEST PUSH3 0x15F DUP2 PUSH3 0x140 JUMP JUMPDEST DUP2 EQ PUSH3 0x16B JUMPI PUSH1 0x0 DUP1 REVERT JUMPDEST POP JUMP JUMPDEST PUSH1 0x0 DUP2 MLOAD SWAP1 POP PUSH3 0x17F DUP2 PUSH3 0x154 JUMP JUMPDEST SWAP3 SWAP2 POP POP JUMP JUMPDEST PUSH1 0x0 PUSH3 0x192 DUP3 PUSH3 0x12C JUMP JUMPDEST SWAP1 POP SWAP2 SWAP1 POP JUMP JUMPDEST PUSH3 0x1A4 DUP2 PUSH3 0x185 JUMP JUMPDEST DUP2 EQ PUSH3 0x1B0 JUMPI PUSH1 0x0 DUP1 REVERT JUMPDEST POP JUMP JUMPDEST PUSH1 0x0 DUP2 MLOAD SWAP1 POP PUSH3 0x1C4 DUP2 PUSH3 0x199 JUMP JUMPDEST SWAP3 SWAP2 POP POP JUMP JUMPDEST PUSH1 0x0 PUSH3 0x1D7 DUP3 PUSH3 0x12C JUMP JUMPDEST SWAP1 POP SWAP2 SWAP1 POP JUMP JUMPDEST PUSH3 0x1E9 DUP2 PUSH3 0x1CA JUMP JUMPDEST DUP2 EQ PUSH3 0x1F5 JUMPI PUSH1 0x0 DUP1 REVERT JUMPDEST POP JUMP JUMPDEST PUSH1 0x0 DUP2 MLOAD SWAP1 POP PUSH3 0x209 DUP2 PUSH3 0x1DE JUMP JUMPDEST SWAP3 SWAP2 POP POP JUMP JUMPDEST PUSH1 0x0 DUP1 PUSH1 0x0 PUSH1 0x60 DUP5 DUP7 SUB SLT ISZERO PUSH3 0x22B JUMPI PUSH3 0x22A PUSH3 0x107 JUMP JUMPDEST JUMPDEST PUSH1 0x0 PUSH3 0x23B DUP7 DUP3 DUP8 ADD PUSH3 0x16E JUMP JUMPDEST SWAP4 POP POP PUSH1 0x20 PUSH3 0x24E DUP7 DUP3 DUP8 ADD PUSH3 0x1B3 JUMP JUMPDEST SWAP3 POP POP PUSH1 0x40 PUSH3 0x261 DUP7 DUP3 DUP8 ADD PUSH3 0x1F8 JUMP JUMPDEST SWAP2 POP POP SWAP3 POP SWAP3 POP SWAP3 JUMP JUMPDEST PUSH2 0x21B4 DUP1 PUSH3 0x27B PUSH1 0x0 CODECOPY PUSH1 0x0 RETURN INVALID PUSH1 0x80 PUSH1 0x40 MSTORE CALLVALUE DUP1 ISZERO PUSH2 0x10 JUMPI PUSH1 0x0 DUP1 REVERT JUMPDEST POP PUSH1 0x4 CALLDATASIZE LT PUSH2 0xF5 JUMPI PUSH1 0x0 CALLDATALOAD PUSH1 0xE0 SHR DUP1 PUSH4 0x68814AF8 GT PUSH2 0x97 JUMPI DUP1 PUSH4 0x8FE2701E GT PUSH2 0x66 JUMPI DUP1 PUSH4 0x8FE2701E EQ PUSH2 0x2D3 JUMPI DUP1 PUSH4 0xA33661B5 EQ PUSH2 0x303 JUMPI DUP1 PUSH4 0xBDBEB6FE EQ PUSH2 0x333 JUMPI DUP1 PUSH4 0xFEC5BAF9 EQ PUSH2 0x34F JUMPI PUSH2 0xF5 JUMP JUMPDEST DUP1 PUSH4 0x68814AF8 EQ PUSH2 0x225 JUMPI DUP1 PUSH4 0x6B4C4493 EQ PUSH2 0x255 JUMPI DUP1 PUSH4 0x88C2C519 EQ PUSH2 0x285 JUMPI DUP1 PUSH4 0x8EDD5297 EQ PUSH2 0x2B5 JUMPI PUSH2 0xF5 JUMP JUMPDEST DUP1 PUSH4 0x458D0DC2 GT PUSH2 0xD3 JUMPI DUP1 PUSH4 0x458D0DC2 EQ PUSH2 0x179 JUMPI DUP1 PUSH4 0x5564F644 EQ PUSH2 0x1A9 JUMPI DUP1 PUSH4 0x561C865B EQ PUSH2 0x1D9 JUMPI DUP1 PUSH4 0x5A0B84F8 EQ PUSH2 0x1F5 JUMPI PUSH2 0xF5 JUMP JUMPDEST DUP1 PUSH4 0xF861DC4 EQ PUSH2 0xFA JUMPI DUP1 PUSH4 0x1D6B8B72 EQ PUSH2 0x12A JUMPI DUP1 PUSH4 0x34FB36C8 EQ PUSH2 0x15D JUMPI JUMPDEST PUSH1 0x0 DUP1 REVERT JUMPDEST PUSH2 0x114 PUSH1 0x4 DUP1 CALLDATASIZE SUB DUP2 ADD SWAP1 PUSH2 0x10F SWAP2 SWAP1 PUSH2 0x1152 JUMP JUMPDEST PUSH2 0x36B JUMP JUMPDEST PUSH1 0x40 MLOAD PUSH2 0x121 SWAP2 SWAP1 PUSH2 0x1198 JUMP JUMPDEST PUSH1 0x40 MLOAD DUP1 SWAP2 SUB SWAP1 RETURN JUMPDEST PUSH2 0x144 PUSH1 0x4 DUP1 CALLDATASIZE SUB DUP2 ADD SWAP1 PUSH2 0x13F SWAP2 SWAP1 PUSH2 0x11DF JUMP JUMPDEST PUSH2 0x3B4 JUMP JUMPDEST PUSH1 0x40 MLOAD PUSH2 0x154 SWAP5 SWAP4 SWAP3 SWAP2 SWAP1 PUSH2 0x1300 JUMP JUMPDEST PUSH1 0x40 MLOAD DUP1 SWAP2 SUB SWAP1 RETURN JUMPDEST PUSH2 0x177 PUSH1 0x4 DUP1 CALLDATASIZE SUB DUP2 ADD SWAP1 PUSH2 0x172 SWAP2 SWAP1 PUSH2 0x1488 JUMP JUMPDEST PUSH2 0x514 JUMP JUMPDEST STOP JUMPDEST PUSH2 0x193 PUSH1 0x4 DUP1 CALLDATASIZE SUB DUP2 ADD SWAP1 PUSH2 0x18E SWAP2 SWAP1 PUSH2 0x150B JUMP JUMPDEST PUSH2 0x62C JUMP JUMPDEST PUSH1 0x40 MLOAD PUSH2 0x1A0 SWAP2 SWAP1 PUSH2 0x155E JUMP JUMPDEST PUSH1 0x40 MLOAD DUP1 SWAP2 SUB SWAP1 RETURN JUMPDEST PUSH2 0x1C3 PUSH1 0x4 DUP1 CALLDATASIZE SUB DUP2 ADD SWAP1 PUSH2 0x1BE SWAP2 SWAP1 PUSH2 0x11DF JUMP JUMPDEST PUSH2 0x6DC JUMP JUMPDEST PUSH1 0x40 MLOAD PUSH2 0x1D0 SWAP2 SWAP1 PUSH2 0x1580 JUMP JUMPDEST PUSH1 0x40 MLOAD DUP1 SWAP2 SUB SWAP1 RETURN JUMPDEST PUSH2 0x1F3 PUSH1 0x4 DUP1 CALLDATASIZE SUB DUP2 ADD SWAP1 PUSH2 0x1EE SWAP2 SWAP1 PUSH2 0x150B JUMP JUMPDEST PUSH2 0x79F JUMP JUMPDEST STOP JUMPDEST PUSH2 0x20F PUSH1 0x4 DUP1 CALLDATASIZE SUB DUP2 ADD SWAP1 PUSH2 0x20A SWAP2 SWAP1 PUSH2 0x11DF JUMP JUMPDEST PUSH2 0x8B6 JUMP JUMPDEST PUSH1 0x40 MLOAD PUSH2 0x21C SWAP2 SWAP1 PUSH2 0x159B JUMP JUMPDEST PUSH1 0x40 MLOAD DUP1 SWAP2 SUB SWAP1 RETURN JUMPDEST PUSH2 0x23F PUSH1 0x4 DUP1 CALLDATASIZE SUB DUP2 ADD SWAP1 PUSH2 0x23A SWAP2 SWAP1 PUSH2 0x11DF JUMP JUMPDEST PUSH2 0x9E1 JUMP JUMPDEST PUSH1 0x40 MLOAD PUSH2 0x24C SWAP2 SWAP1 PUSH2 0x167B JUMP JUMPDEST PUSH1 0x40 MLOAD DUP1 SWAP2 SUB SWAP1 RETURN JUMPDEST PUSH2 0x26F PUSH1 0x4 DUP1 CALLDATASIZE SUB DUP2 ADD SWAP1 PUSH2 0x26A SWAP2 SWAP1 PUSH2 0x169D JUMP JUMPDEST PUSH2 0xACF JUMP JUMPDEST PUSH1 0x40 MLOAD PUSH2 0x27C SWAP2 SWAP1 PUSH2 0x1198 JUMP JUMPDEST PUSH1 0x40 MLOAD DUP1 SWAP2 SUB SWAP1 RETURN JUMPDEST PUSH2 0x29F PUSH1 0x4 DUP1 CALLDATASIZE SUB DUP2 ADD SWAP1 PUSH2 0x29A SWAP2 SWAP1 PUSH2 0x11DF JUMP JUMPDEST PUSH2 0xBE5 JUMP JUMPDEST PUSH1 0x40 MLOAD PUSH2 0x2AC SWAP2 SWAP1 PUSH2 0x155E JUMP JUMPDEST PUSH1 0x40 MLOAD DUP1 SWAP2 SUB SWAP1 RETURN JUMPDEST PUSH2 0x2BD PUSH2 0xD10 JUMP JUMPDEST PUSH1 0x40 MLOAD PUSH2 0x2CA SWAP2 SWAP1 PUSH2 0x1198 JUMP JUMPDEST PUSH1 0x40 MLOAD DUP1 SWAP2 SUB SWAP1 RETURN JUMPDEST PUSH2 0x2ED PUSH1 0x4 DUP1 CALLDATASIZE SUB DUP2 ADD SWAP1 PUSH2 0x2E8 SWAP2 SWAP1 PUSH2 0x150B JUMP JUMPDEST PUSH2 0xD16 JUMP JUMPDEST PUSH1 0x40 MLOAD PUSH2 0x2FA SWAP2 SWAP1 PUSH2 0x1198 JUMP JUMPDEST PUSH1 0x40 MLOAD DUP1 SWAP2 SUB SWAP1 RETURN JUMPDEST PUSH2 0x31D PUSH1 0x4 DUP1 CALLDATASIZE SUB DUP2 ADD SWAP1 PUSH2 0x318 SWAP2 SWAP1 PUSH2 0x1715 JUMP JUMPDEST PUSH2 0xE83 JUMP JUMPDEST PUSH1 0x40 MLOAD PUSH2 0x32A SWAP2 SWAP1 PUSH2 0x1198 JUMP JUMPDEST PUSH1 0x40 MLOAD DUP1 SWAP2 SUB SWAP1 RETURN JUMPDEST PUSH2 0x34D PUSH1 0x4 DUP1 CALLDATASIZE SUB DUP2 ADD SWAP1 PUSH2 0x348 SWAP2 SWAP1 PUSH2 0x17A0 JUMP JUMPDEST PUSH2 0xF7F JUMP JUMPDEST STOP JUMPDEST PUSH2 0x369 PUSH1 0x4 DUP1 CALLDATASIZE SUB DUP2 ADD SWAP1 PUSH2 0x364 SWAP2 SWAP1 PUSH2 0x1881 JUMP JUMPDEST PUSH2 0xFBD JUMP JUMPDEST STOP JUMPDEST PUSH1 0x0 PUSH1 0x5 PUSH1 0x0 DUP4 PUSH20 0xFFFFFFFFFFFFFFFFFFFFFFFFFFFFFFFFFFFFFFFF AND PUSH20 0xFFFFFFFFFFFFFFFFFFFFFFFFFFFFFFFFFFFFFFFF AND DUP2 MSTORE PUSH1 0x20 ADD SWAP1 DUP2 MSTORE PUSH1 0x20 ADD PUSH1 0x0 KECCAK256 SLOAD SWAP1 POP SWAP2 SWAP1 POP JUMP JUMPDEST PUSH1 0x4 PUSH1 0x20 MSTORE DUP1 PUSH1 0x0 MSTORE PUSH1 0x40 PUSH1 0x0 KECCAK256 PUSH1 0x0 SWAP2 POP SWAP1 POP DUP1 PUSH1 0x0 ADD SLOAD SWAP1 DUP1 PUSH1 0x1 ADD DUP1 SLOAD PUSH2 0x3DD SWAP1 PUSH2 0x19A6 JUMP JUMPDEST DUP1 PUSH1 0x1F ADD PUSH1 0x20 DUP1 SWAP2 DIV MUL PUSH1 0x20 ADD PUSH1 0x40 MLOAD SWAP1 DUP2 ADD PUSH1 0x40 MSTORE DUP1 SWAP3 SWAP2 SWAP1 DUP2 DUP2 MSTORE PUSH1 0x20 ADD DUP3 DUP1 SLOAD PUSH2 0x409 SWAP1 PUSH2 0x19A6 JUMP JUMPDEST DUP1 ISZERO PUSH2 0x456 JUMPI DUP1 PUSH1 0x1F LT PUSH2 0x42B JUMPI PUSH2 0x100 DUP1 DUP4 SLOAD DIV MUL DUP4 MSTORE SWAP2 PUSH1 0x20 ADD SWAP2 PUSH2 0x456 JUMP JUMPDEST DUP3 ADD SWAP2 SWAP1 PUSH1 0x0 MSTORE PUSH1 0x20 PUSH1 0x0 KECCAK256 SWAP1 JUMPDEST DUP2 SLOAD DUP2 MSTORE SWAP1 PUSH1 0x1 ADD SWAP1 PUSH1 0x20 ADD DUP1 DUP4 GT PUSH2 0x439 JUMPI DUP3 SWAP1 SUB PUSH1 0x1F AND DUP3 ADD SWAP2 JUMPDEST POP POP POP POP POP SWAP1 DUP1 PUSH1 0x2 ADD DUP1 SLOAD PUSH2 0x46B SWAP1 PUSH2 0x19A6 JUMP JUMPDEST DUP1 PUSH1 0x1F ADD PUSH1 0x20 DUP1 SWAP2 DIV MUL PUSH1 0x20 ADD PUSH1 0x40 MLOAD SWAP1 DUP2 ADD PUSH1 0x40 MSTORE DUP1 SWAP3 SWAP2 SWAP1 DUP2 DUP2 MSTORE PUSH1 0x20 ADD DUP3 DUP1 SLOAD PUSH2 0x497 SWAP1 PUSH2 0x19A6 JUMP JUMPDEST DUP1 ISZERO PUSH2 0x4E4 JUMPI DUP1 PUSH1 0x1F LT PUSH2 0x4B9 JUMPI PUSH2 0x100 DUP1 DUP4 SLOAD DIV MUL DUP4 MSTORE SWAP2 PUSH1 0x20 ADD SWAP2 PUSH2 0x4E4 JUMP JUMPDEST DUP3 ADD SWAP2 SWAP1 PUSH1 0x0 MSTORE PUSH1 0x20 PUSH1 0x0 KECCAK256 SWAP1 JUMPDEST DUP2 SLOAD DUP2 MSTORE SWAP1 PUSH1 0x1 ADD SWAP1 PUSH1 0x20 ADD DUP1 DUP4 GT PUSH2 0x4C7 JUMPI DUP3 SWAP1 SUB PUSH1 0x1F AND DUP3 ADD SWAP2 JUMPDEST POP POP POP POP POP SWAP1 DUP1 PUSH1 0x3 ADD PUSH1 0x0 SWAP1 SLOAD SWAP1 PUSH2 0x100 EXP SWAP1 DIV PUSH20 0xFFFFFFFFFFFFFFFFFFFFFFFFFFFFFFFFFFFFFFFF AND SWAP1 POP DUP5 JUMP JUMPDEST DUP2 DUP1 PUSH1 0x5 PUSH1 0x0 CALLER PUSH20 0xFFFFFFFFFFFFFFFFFFFFFFFFFFFFFFFFFFFFFFFF AND PUSH20 0xFFFFFFFFFFFFFFFFFFFFFFFFFFFFFFFFFFFFFFFF AND DUP2 MSTORE PUSH1 0x20 ADD SWAP1 DUP2 MSTORE PUSH1 0x20 ADD PUSH1 0x0 KECCAK256 SLOAD EQ PUSH2 0x596 JUMPI PUSH1 0x40 MLOAD PUSH32 0x8C379A000000000000000000000000000000000000000000000000000000000 DUP2 MSTORE PUSH1 0x4 ADD PUSH2 0x58D SWAP1 PUSH2 0x1A23 JUMP JUMPDEST PUSH1 0x40 MLOAD DUP1 SWAP2 SUB SWAP1 REVERT JUMPDEST PUSH1 0x0 DUP1 SLOAD SWAP1 PUSH2 0x100 EXP SWAP1 DIV PUSH20 0xFFFFFFFFFFFFFFFFFFFFFFFFFFFFFFFFFFFFFFFF AND PUSH20 0xFFFFFFFFFFFFFFFFFFFFFFFFFFFFFFFFFFFFFFFF AND PUSH4 0xBFCB6CFB DUP7 DUP7 DUP7 PUSH1 0x40 MLOAD DUP5 PUSH4 0xFFFFFFFF AND PUSH1 0xE0 SHL DUP2 MSTORE PUSH1 0x4 ADD PUSH2 0x5F3 SWAP4 SWAP3 SWAP2 SWAP1 PUSH2 0x1A43 JUMP JUMPDEST PUSH1 0x0 PUSH1 0x40 MLOAD DUP1 DUP4 SUB DUP2 PUSH1 0x0 DUP8 DUP1 EXTCODESIZE ISZERO DUP1 ISZERO PUSH2 0x60D JUMPI PUSH1 0x0 DUP1 REVERT JUMPDEST POP GAS CALL ISZERO DUP1 ISZERO PUSH2 0x621 JUMPI RETURNDATASIZE PUSH1 0x0 DUP1 RETURNDATACOPY RETURNDATASIZE PUSH1 0x0 REVERT JUMPDEST POP POP POP POP POP POP POP POP POP JUMP JUMPDEST PUSH1 0x60 PUSH1 0x1 PUSH1 0x0 SWAP1 SLOAD SWAP1 PUSH2 0x100 EXP SWAP1 DIV PUSH20 0xFFFFFFFFFFFFFFFFFFFFFFFFFFFFFFFFFFFFFFFF AND PUSH20 0xFFFFFFFFFFFFFFFFFFFFFFFFFFFFFFFFFFFFFFFF AND PUSH4 0x9CB3D01F DUP6 DUP6 DUP6 PUSH1 0x40 MLOAD DUP5 PUSH4 0xFFFFFFFF AND PUSH1 0xE0 SHL DUP2 MSTORE PUSH1 0x4 ADD PUSH2 0x68D SWAP4 SWAP3 SWAP2 SWAP1 PUSH2 0x1A43 JUMP JUMPDEST PUSH1 0x0 PUSH1 0x40 MLOAD DUP1 DUP4 SUB DUP2 DUP7 GAS STATICCALL ISZERO DUP1 ISZERO PUSH2 0x6AA JUMPI RETURNDATASIZE PUSH1 0x0 DUP1 RETURNDATACOPY RETURNDATASIZE PUSH1 0x0 REVERT JUMPDEST POP POP POP POP PUSH1 0x40 MLOAD RETURNDATASIZE PUSH1 0x0 DUP3 RETURNDATACOPY RETURNDATASIZE PUSH1 0x1F NOT PUSH1 0x1F DUP3 ADD AND DUP3 ADD DUP1 PUSH1 0x40 MSTORE POP DUP2 ADD SWAP1 PUSH2 0x6D3 SWAP2 SWAP1 PUSH2 0x1AEA JUMP JUMPDEST SWAP1 POP SWAP4 SWAP3 POP POP POP JUMP JUMPDEST PUSH1 0x0 DUP2 DUP1 PUSH1 0x5 PUSH1 0x0 CALLER PUSH20 0xFFFFFFFFFFFFFFFFFFFFFFFFFFFFFFFFFFFFFFFF AND PUSH20 0xFFFFFFFFFFFFFFFFFFFFFFFFFFFFFFFFFFFFFFFF AND DUP2 MSTORE PUSH1 0x20 ADD SWAP1 DUP2 MSTORE PUSH1 0x20 ADD PUSH1 0x0 KECCAK256 SLOAD EQ PUSH2 0x760 JUMPI PUSH1 0x40 MLOAD PUSH32 0x8C379A000000000000000000000000000000000000000000000000000000000 DUP2 MSTORE PUSH1 0x4 ADD PUSH2 0x757 SWAP1 PUSH2 0x1A23 JUMP JUMPDEST PUSH1 0x40 MLOAD DUP1 SWAP2 SUB SWAP1 REVERT JUMPDEST PUSH1 0x4 PUSH1 0x0 DUP5 DUP2 MSTORE PUSH1 0x20 ADD SWAP1 DUP2 MSTORE PUSH1 0x20 ADD PUSH1 0x0 KECCAK256 PUSH1 0x3 ADD PUSH1 0x0 SWAP1 SLOAD SWAP1 PUSH2 0x100 EXP SWAP1 DIV PUSH20 0xFFFFFFFFFFFFFFFFFFFFFFFFFFFFFFFFFFFFFFFF AND SWAP2 POP POP SWAP2 SWAP1 POP JUMP JUMPDEST DUP1 DUP1 PUSH1 0x5 PUSH1 0x0 CALLER PUSH20 0xFFFFFFFFFFFFFFFFFFFFFFFFFFFFFFFFFFFFFFFF AND PUSH20 0xFFFFFFFFFFFFFFFFFFFFFFFFFFFFFFFFFFFFFFFF AND DUP2 MSTORE PUSH1 0x20 ADD SWAP1 DUP2 MSTORE PUSH1 0x20 ADD PUSH1 0x0 KECCAK256 SLOAD EQ PUSH2 0x821 JUMPI PUSH1 0x40 MLOAD PUSH32 0x8C379A000000000000000000000000000000000000000000000000000000000 DUP2 MSTORE PUSH1 0x4 ADD PUSH2 0x818 SWAP1 PUSH2 0x1A23 JUMP JUMPDEST PUSH1 0x40 MLOAD DUP1 SWAP2 SUB SWAP1 REVERT JUMPDEST PUSH1 0x0 DUP1 SLOAD SWAP1 PUSH2 0x100 EXP SWAP1 DIV PUSH20 0xFFFFFFFFFFFFFFFFFFFFFFFFFFFFFFFFFFFFFFFF AND PUSH20 0xFFFFFFFFFFFFFFFFFFFFFFFFFFFFFFFFFFFFFFFF AND PUSH4 0x561C865B DUP6 DUP6 DUP6 PUSH1 0x40 MLOAD DUP5 PUSH4 0xFFFFFFFF AND PUSH1 0xE0 SHL DUP2 MSTORE PUSH1 0x4 ADD PUSH2 0x87E SWAP4 SWAP3 SWAP2 SWAP1 PUSH2 0x1A43 JUMP JUMPDEST PUSH1 0x0 PUSH1 0x40 MLOAD DUP1 DUP4 SUB DUP2 PUSH1 0x0 DUP8 DUP1 EXTCODESIZE ISZERO DUP1 ISZERO PUSH2 0x898 JUMPI PUSH1 0x0 DUP1 REVERT JUMPDEST POP GAS CALL ISZERO DUP1 ISZERO PUSH2 0x8AC JUMPI RETURNDATASIZE PUSH1 0x0 DUP1 RETURNDATACOPY RETURNDATASIZE PUSH1 0x0 REVERT JUMPDEST POP POP POP POP POP POP POP POP JUMP JUMPDEST PUSH1 0x60 DUP2 DUP1 PUSH1 0x5 PUSH1 0x0 CALLER PUSH20 0xFFFFFFFFFFFFFFFFFFFFFFFFFFFFFFFFFFFFFFFF AND PUSH20 0xFFFFFFFFFFFFFFFFFFFFFFFFFFFFFFFFFFFFFFFF AND DUP2 MSTORE PUSH1 0x20 ADD SWAP1 DUP2 MSTORE PUSH1 0x20 ADD PUSH1 0x0 KECCAK256 SLOAD EQ PUSH2 0x93A JUMPI PUSH1 0x40 MLOAD PUSH32 0x8C379A000000000000000000000000000000000000000000000000000000000 DUP2 MSTORE PUSH1 0x4 ADD PUSH2 0x931 SWAP1 PUSH2 0x1A23 JUMP JUMPDEST PUSH1 0x40 MLOAD DUP1 SWAP2 SUB SWAP1 REVERT JUMPDEST PUSH1 0x4 PUSH1 0x0 DUP5 DUP2 MSTORE PUSH1 0x20 ADD SWAP1 DUP2 MSTORE PUSH1 0x20 ADD PUSH1 0x0 KECCAK256 PUSH1 0x1 ADD DUP1 SLOAD PUSH2 0x95B SWAP1 PUSH2 0x19A6 JUMP JUMPDEST DUP1 PUSH1 0x1F ADD PUSH1 0x20 DUP1 SWAP2 DIV MUL PUSH1 0x20 ADD PUSH1 0x40 MLOAD SWAP1 DUP2 ADD PUSH1 0x40 MSTORE DUP1 SWAP3 SWAP2 SWAP1 DUP2 DUP2 MSTORE PUSH1 0x20 ADD DUP3 DUP1 SLOAD PUSH2 0x987 SWAP1 PUSH2 0x19A6 JUMP JUMPDEST DUP1 ISZERO PUSH2 0x9D4 JUMPI DUP1 PUSH1 0x1F LT PUSH2 0x9A9 JUMPI PUSH2 0x100 DUP1 DUP4 SLOAD DIV MUL DUP4 MSTORE SWAP2 PUSH1 0x20 ADD SWAP2 PUSH2 0x9D4 JUMP JUMPDEST DUP3 ADD SWAP2 SWAP1 PUSH1 0x0 MSTORE PUSH1 0x20 PUSH1 0x0 KECCAK256 SWAP1 JUMPDEST DUP2 SLOAD DUP2 MSTORE SWAP1 PUSH1 0x1 ADD SWAP1 PUSH1 0x20 ADD DUP1 DUP4 GT PUSH2 0x9B7 JUMPI DUP3 SWAP1 SUB PUSH1 0x1F AND DUP3 ADD SWAP2 JUMPDEST POP POP POP POP POP SWAP2 POP POP SWAP2 SWAP1 POP JUMP JUMPDEST PUSH1 0x60 DUP2 DUP1 PUSH1 0x5 PUSH1 0x0 CALLER PUSH20 0xFFFFFFFFFFFFFFFFFFFFFFFFFFFFFFFFFFFFFFFF AND PUSH20 0xFFFFFFFFFFFFFFFFFFFFFFFFFFFFFFFFFFFFFFFF AND DUP2 MSTORE PUSH1 0x20 ADD SWAP1 DUP2 MSTORE PUSH1 0x20 ADD PUSH1 0x0 KECCAK256 SLOAD EQ PUSH2 0xA65 JUMPI PUSH1 0x40 MLOAD PUSH32 0x8C379A000000000000000000000000000000000000000000000000000000000 DUP2 MSTORE PUSH1 0x4 ADD PUSH2 0xA5C SWAP1 PUSH2 0x1A23 JUMP JUMPDEST PUSH1 0x40 MLOAD DUP1 SWAP2 SUB SWAP1 REVERT JUMPDEST PUSH1 0x6 PUSH1 0x0 DUP5 DUP2 MSTORE PUSH1 0x20 ADD SWAP1 DUP2 MSTORE PUSH1 0x20 ADD PUSH1 0x0 KECCAK256 DUP1 SLOAD DUP1 PUSH1 0x20 MUL PUSH1 0x20 ADD PUSH1 0x40 MLOAD SWAP1 DUP2 ADD PUSH1 0x40 MSTORE DUP1 SWAP3 SWAP2 SWAP1 DUP2 DUP2 MSTORE PUSH1 0x20 ADD DUP3 DUP1 SLOAD DUP1 ISZERO PUSH2 0xAC2 JUMPI PUSH1 0x20 MUL DUP3 ADD SWAP2 SWAP1 PUSH1 0x0 MSTORE PUSH1 0x20 PUSH1 0x0 KECCAK256 SWAP1 JUMPDEST DUP2 SLOAD DUP2 MSTORE PUSH1 0x20 ADD SWAP1 PUSH1 0x1 ADD SWAP1 DUP1 DUP4 GT PUSH2 0xAAE JUMPI JUMPDEST POP POP POP POP POP SWAP2 POP POP SWAP2 SWAP1 POP JUMP JUMPDEST PUSH1 0x0 PUSH1 0x3 PUSH1 0x0 DUP2 SLOAD DUP1 SWAP3 SWAP2 SWAP1 PUSH2 0xAE4 SWAP1 PUSH2 0x1B62 JUMP JUMPDEST SWAP2 SWAP1 POP SSTORE POP PUSH1 0x0 PUSH1 0x4 PUSH1 0x0 PUSH1 0x3 SLOAD DUP2 MSTORE PUSH1 0x20 ADD SWAP1 DUP2 MSTORE PUSH1 0x20 ADD PUSH1 0x0 KECCAK256 SWAP1 POP PUSH1 0x3 SLOAD DUP2 PUSH1 0x0 ADD DUP2 SWAP1 SSTORE POP DUP4 DUP2 PUSH1 0x1 ADD SWAP1 DUP2 PUSH2 0xB1E SWAP2 SWAP1 PUSH2 0x1D56 JUMP JUMPDEST POP CALLER DUP2 PUSH1 0x3 ADD PUSH1 0x0 PUSH2 0x100 EXP DUP2 SLOAD DUP2 PUSH20 0xFFFFFFFFFFFFFFFFFFFFFFFFFFFFFFFFFFFFFFFF MUL NOT AND SWAP1 DUP4 PUSH20 0xFFFFFFFFFFFFFFFFFFFFFFFFFFFFFFFFFFFFFFFF AND MUL OR SWAP1 SSTORE POP DUP3 PUSH1 0x40 MLOAD PUSH1 0x20 ADD PUSH2 0xB73 SWAP2 SWAP1 PUSH2 0x1E64 JUMP JUMPDEST PUSH1 0x40 MLOAD PUSH1 0x20 DUP2 DUP4 SUB SUB DUP2 MSTORE SWAP1 PUSH1 0x40 MSTORE DUP2 PUSH1 0x2 ADD SWAP1 DUP2 PUSH2 0xB92 SWAP2 SWAP1 PUSH2 0x1ED6 JUMP JUMPDEST POP PUSH1 0x3 SLOAD PUSH1 0x5 PUSH1 0x0 CALLER PUSH20 0xFFFFFFFFFFFFFFFFFFFFFFFFFFFFFFFFFFFFFFFF AND PUSH20 0xFFFFFFFFFFFFFFFFFFFFFFFFFFFFFFFFFFFFFFFF AND DUP2 MSTORE PUSH1 0x20 ADD SWAP1 DUP2 MSTORE PUSH1 0x20 ADD PUSH1 0x0 KECCAK256 DUP2 SWAP1 SSTORE POP PUSH1 0x3 SLOAD SWAP2 POP POP SWAP3 SWAP2 POP POP JUMP JUMPDEST PUSH1 0x60 DUP2 DUP1 PUSH1 0x5 PUSH1 0x0 CALLER PUSH20 0xFFFFFFFFFFFFFFFFFFFFFFFFFFFFFFFFFFFFFFFF AND PUSH20 0xFFFFFFFFFFFFFFFFFFFFFFFFFFFFFFFFFFFFFFFF AND DUP2 MSTORE PUSH1 0x20 ADD SWAP1 DUP2 MSTORE PUSH1 0x20 ADD PUSH1 0x0 KECCAK256 SLOAD EQ PUSH2 0xC69 JUMPI PUSH1 0x40 MLOAD PUSH32 0x8C379A000000000000000000000000000000000000000000000000000000000 DUP2 MSTORE PUSH1 0x4 ADD PUSH2 0xC60 SWAP1 PUSH2 0x1A23 JUMP JUMPDEST PUSH1 0x40 MLOAD DUP1 SWAP2 SUB SWAP1 REVERT JUMPDEST PUSH1 0x4 PUSH1 0x0 DUP5 DUP2 MSTORE PUSH1 0x20 ADD SWAP1 DUP2 MSTORE PUSH1 0x20 ADD PUSH1 0x0 KECCAK256 PUSH1 0x2 ADD DUP1 SLOAD PUSH2 0xC8A SWAP1 PUSH2 0x19A6 JUMP JUMPDEST DUP1 PUSH1 0x1F ADD PUSH1 0x20 DUP1 SWAP2 DIV MUL PUSH1 0x20 ADD PUSH1 0x40 MLOAD SWAP1 DUP2 ADD PUSH1 0x40 MSTORE DUP1 SWAP3 SWAP2 SWAP1 DUP2 DUP2 MSTORE PUSH1 0x20 ADD DUP3 DUP1 SLOAD PUSH2 0xCB6 SWAP1 PUSH2 0x19A6 JUMP JUMPDEST DUP1 ISZERO PUSH2 0xD03 JUMPI DUP1 PUSH1 0x1F LT PUSH2 0xCD8 JUMPI PUSH2 0x100 DUP1 DUP4 SLOAD DIV MUL DUP4 MSTORE SWAP2 PUSH1 0x20 ADD SWAP2 PUSH2 0xD03 JUMP JUMPDEST DUP3 ADD SWAP2 SWAP1 PUSH1 0x0 MSTORE PUSH1 0x20 PUSH1 0x0 KECCAK256 SWAP1 JUMPDEST DUP2 SLOAD DUP2 MSTORE SWAP1 PUSH1 0x1 ADD SWAP1 PUSH1 0x20 ADD DUP1 DUP4 GT PUSH2 0xCE6 JUMPI DUP3 SWAP1 SUB PUSH1 0x1F AND DUP3 ADD SWAP2 JUMPDEST POP POP POP POP POP SWAP2 POP POP SWAP2 SWAP1 POP JUMP JUMPDEST PUSH1 0x3 SLOAD DUP2 JUMP JUMPDEST PUSH1 0x0 DUP4 DUP1 PUSH1 0x5 PUSH1 0x0 CALLER PUSH20 0xFFFFFFFFFFFFFFFFFFFFFFFFFFFFFFFFFFFFFFFF AND PUSH20 0xFFFFFFFFFFFFFFFFFFFFFFFFFFFFFFFFFFFFFFFF AND DUP2 MSTORE PUSH1 0x20 ADD SWAP1 DUP2 MSTORE PUSH1 0x20 ADD PUSH1 0x0 KECCAK256 SLOAD EQ PUSH2 0xD9A JUMPI PUSH1 0x40 MLOAD PUSH32 0x8C379A000000000000000000000000000000000000000000000000000000000 DUP2 MSTORE PUSH1 0x4 ADD PUSH2 0xD91 SWAP1 PUSH2 0x1A23 JUMP JUMPDEST PUSH1 0x40 MLOAD DUP1 SWAP2 SUB SWAP1 REVERT JUMPDEST PUSH1 0x0 DUP1 PUSH1 0x0 DUP1 SLOAD SWAP1 PUSH2 0x100 EXP SWAP1 DIV PUSH20 0xFFFFFFFFFFFFFFFFFFFFFFFFFFFFFFFFFFFFFFFF AND PUSH20 0xFFFFFFFFFFFFFFFFFFFFFFFFFFFFFFFFFFFFFFFF AND PUSH4 0x5D996701 DUP8 DUP8 PUSH1 0x40 MLOAD DUP4 PUSH4 0xFFFFFFFF AND PUSH1 0xE0 SHL DUP2 MSTORE PUSH1 0x4 ADD PUSH2 0xDF8 SWAP3 SWAP2 SWAP1 PUSH2 0x1FA8 JUMP JUMPDEST PUSH1 0x40 DUP1 MLOAD DUP1 DUP4 SUB DUP2 PUSH1 0x0 DUP8 GAS CALL ISZERO DUP1 ISZERO PUSH2 0xE16 JUMPI RETURNDATASIZE PUSH1 0x0 DUP1 RETURNDATACOPY RETURNDATASIZE PUSH1 0x0 REVERT JUMPDEST POP POP POP POP PUSH1 0x40 MLOAD RETURNDATASIZE PUSH1 0x1F NOT PUSH1 0x1F DUP3 ADD AND DUP3 ADD DUP1 PUSH1 0x40 MSTORE POP DUP2 ADD SWAP1 PUSH2 0xE3A SWAP2 SWAP1 PUSH2 0x200B JUMP JUMPDEST SWAP2 POP SWAP2 POP PUSH1 0x0 PUSH1 0x2 DUP2 GT ISZERO PUSH2 0xE52 JUMPI PUSH2 0xE51 PUSH2 0x204B JUMP JUMPDEST JUMPDEST DUP3 PUSH1 0x2 DUP2 GT ISZERO PUSH2 0xE65 JUMPI PUSH2 0xE64 PUSH2 0x204B JUMP JUMPDEST JUMPDEST SUB PUSH2 0xE74 JUMPI DUP1 SWAP4 POP POP POP PUSH2 0xE7B JUMP JUMPDEST PUSH1 0x0 SWAP4 POP POP POP JUMPDEST POP SWAP4 SWAP3 POP POP POP JUMP JUMPDEST PUSH1 0x0 DUP1 PUSH2 0xE8F CALLER PUSH2 0x36B JUMP JUMPDEST SWAP1 POP PUSH1 0x0 PUSH1 0x1 PUSH1 0x0 SWAP1 SLOAD SWAP1 PUSH2 0x100 EXP SWAP1 DIV PUSH20 0xFFFFFFFFFFFFFFFFFFFFFFFFFFFFFFFFFFFFFFFF AND PUSH20 0xFFFFFFFFFFFFFFFFFFFFFFFFFFFFFFFFFFFFFFFF AND PUSH4 0xF043E745 DUP8 DUP5 DUP9 DUP9 PUSH1 0x40 MLOAD DUP6 PUSH4 0xFFFFFFFF AND PUSH1 0xE0 SHL DUP2 MSTORE PUSH1 0x4 ADD PUSH2 0xEF4 SWAP5 SWAP4 SWAP3 SWAP2 SWAP1 PUSH2 0x207A JUMP JUMPDEST PUSH1 0x20 PUSH1 0x40 MLOAD DUP1 DUP4 SUB DUP2 PUSH1 0x0 DUP8 GAS CALL ISZERO DUP1 ISZERO PUSH2 0xF13 JUMPI RETURNDATASIZE PUSH1 0x0 DUP1 RETURNDATACOPY RETURNDATASIZE PUSH1 0x0 REVERT JUMPDEST POP POP POP POP PUSH1 0x40 MLOAD RETURNDATASIZE PUSH1 0x1F NOT PUSH1 0x1F DUP3 ADD AND DUP3 ADD DUP1 PUSH1 0x40 MSTORE POP DUP2 ADD SWAP1 PUSH2 0xF37 SWAP2 SWAP1 PUSH2 0x20CD JUMP JUMPDEST SWAP1 POP PUSH1 0x7 PUSH1 0x0 DUP4 DUP2 MSTORE PUSH1 0x20 ADD SWAP1 DUP2 MSTORE PUSH1 0x20 ADD PUSH1 0x0 KECCAK256 DUP2 SWAP1 DUP1 PUSH1 0x1 DUP2 SLOAD ADD DUP1 DUP3 SSTORE DUP1 SWAP2 POP POP PUSH1 0x1 SWAP1 SUB SWAP1 PUSH1 0x0 MSTORE PUSH1 0x20 PUSH1 0x0 KECCAK256 ADD PUSH1 0x0 SWAP1 SWAP2 SWAP1 SWAP2 SWAP1 SWAP2 POP SSTORE DUP1 SWAP3 POP POP POP SWAP4 SWAP3 POP POP POP JUMP JUMPDEST PUSH1 0x6 PUSH1 0x0 DUP4 DUP2 MSTORE PUSH1 0x20 ADD SWAP1 DUP2 MSTORE PUSH1 0x20 ADD PUSH1 0x0 KECCAK256 DUP2 SWAP1 DUP1 PUSH1 0x1 DUP2 SLOAD ADD DUP1 DUP3 SSTORE DUP1 SWAP2 POP POP PUSH1 0x1 SWAP1 SUB SWAP1 PUSH1 0x0 MSTORE PUSH1 0x20 PUSH1 0x0 KECCAK256 ADD PUSH1 0x0 SWAP1 SWAP2 SWAP1 SWAP2 SWAP1 SWAP2 POP SSTORE POP POP JUMP JUMPDEST DUP3 DUP1 PUSH1 0x5 PUSH1 0x0 CALLER PUSH20 0xFFFFFFFFFFFFFFFFFFFFFFFFFFFFFFFFFFFFFFFF AND PUSH20 0xFFFFFFFFFFFFFFFFFFFFFFFFFFFFFFFFFFFFFFFF AND DUP2 MSTORE PUSH1 0x20 ADD SWAP1 DUP2 MSTORE PUSH1 0x20 ADD PUSH1 0x0 KECCAK256 SLOAD EQ PUSH2 0x103F JUMPI PUSH1 0x40 MLOAD PUSH32 0x8C379A000000000000000000000000000000000000000000000000000000000 DUP2 MSTORE PUSH1 0x4 ADD PUSH2 0x1036 SWAP1 PUSH2 0x1A23 JUMP JUMPDEST PUSH1 0x40 MLOAD DUP1 SWAP2 SUB SWAP1 REVERT JUMPDEST PUSH1 0x0 DUP1 SLOAD SWAP1 PUSH2 0x100 EXP SWAP1 DIV PUSH20 0xFFFFFFFFFFFFFFFFFFFFFFFFFFFFFFFFFFFFFFFF AND PUSH20 0xFFFFFFFFFFFFFFFFFFFFFFFFFFFFFFFFFFFFFFFF AND PUSH4 0x700D9EF7 DUP10 DUP10 DUP10 DUP10 DUP10 DUP10 DUP10 PUSH1 0x40 MLOAD DUP9 PUSH4 0xFFFFFFFF AND PUSH1 0xE0 SHL DUP2 MSTORE PUSH1 0x4 ADD PUSH2 0x10A4 SWAP8 SWAP7 SWAP6 SWAP5 SWAP4 SWAP3 SWAP2 SWAP1 PUSH2 0x20FA JUMP JUMPDEST PUSH1 0x0 PUSH1 0x40 MLOAD DUP1 DUP4 SUB DUP2 PUSH1 0x0 DUP8 DUP1 EXTCODESIZE ISZERO DUP1 ISZERO PUSH2 0x10BE JUMPI PUSH1 0x0 DUP1 REVERT JUMPDEST POP GAS CALL ISZERO DUP1 ISZERO PUSH2 0x10D2 JUMPI RETURNDATASIZE PUSH1 0x0 DUP1 RETURNDATACOPY RETURNDATASIZE PUSH1 0x0 REVERT JUMPDEST POP POP POP POP POP POP POP POP POP POP POP POP JUMP JUMPDEST PUSH1 0x0 PUSH1 0x40 MLOAD SWAP1 POP SWAP1 JUMP JUMPDEST PUSH1 0x0 DUP1 REVERT JUMPDEST PUSH1 0x0 DUP1 REVERT JUMPDEST PUSH1 0x0 PUSH20 0xFFFFFFFFFFFFFFFFFFFFFFFFFFFFFFFFFFFFFFFF DUP3 AND SWAP1 POP SWAP2 SWAP1 POP JUMP JUMPDEST PUSH1 0x0 PUSH2 0x111F DUP3 PUSH2 0x10F4 JUMP JUMPDEST SWAP1 POP SWAP2 SWAP1 POP JUMP JUMPDEST PUSH2 0x112F DUP2 PUSH2 0x1114 JUMP JUMPDEST DUP2 EQ PUSH2 0x113A JUMPI PUSH1 0x0 DUP1 REVERT JUMPDEST POP JUMP JUMPDEST PUSH1 0x0 DUP2 CALLDATALOAD SWAP1 POP PUSH2 0x114C DUP2 PUSH2 0x1126 JUMP JUMPDEST SWAP3 SWAP2 POP POP JUMP JUMPDEST PUSH1 0x0 PUSH1 0x20 DUP3 DUP5 SUB SLT ISZERO PUSH2 0x1168 JUMPI PUSH2 0x1167 PUSH2 0x10EA JUMP JUMPDEST JUMPDEST PUSH1 0x0 PUSH2 0x1176 DUP5 DUP3 DUP6 ADD PUSH2 0x113D JUMP JUMPDEST SWAP2 POP POP SWAP3 SWAP2 POP POP JUMP JUMPDEST PUSH1 0x0 DUP2 SWAP1 POP SWAP2 SWAP1 POP JUMP JUMPDEST PUSH2 0x1192 DUP2 PUSH2 0x117F JUMP JUMPDEST DUP3 MSTORE POP POP JUMP JUMPDEST PUSH1 0x0 PUSH1 0x20 DUP3 ADD SWAP1 POP PUSH2 0x11AD PUSH1 0x0 DUP4 ADD DUP5 PUSH2 0x1189 JUMP JUMPDEST SWAP3 SWAP2 POP POP JUMP JUMPDEST PUSH2 0x11BC DUP2 PUSH2 0x117F JUMP JUMPDEST DUP2 EQ PUSH2 0x11C7 JUMPI PUSH1 0x0 DUP1 REVERT JUMPDEST POP JUMP JUMPDEST PUSH1 0x0 DUP2 CALLDATALOAD SWAP1 POP PUSH2 0x11D9 DUP2 PUSH2 0x11B3 JUMP JUMPDEST SWAP3 SWAP2 POP POP JUMP JUMPDEST PUSH1 0x0 PUSH1 0x20 DUP3 DUP5 SUB SLT ISZERO PUSH2 0x11F5 JUMPI PUSH2 0x11F4 PUSH2 0x10EA JUMP JUMPDEST JUMPDEST PUSH1 0x0 PUSH2 0x1203 DUP5 DUP3 DUP6 ADD PUSH2 0x11CA JUMP JUMPDEST SWAP2 POP POP SWAP3 SWAP2 POP POP JUMP JUMPDEST PUSH1 0x0 DUP2 MLOAD SWAP1 POP SWAP2 SWAP1 POP JUMP JUMPDEST PUSH1 0x0 DUP3 DUP3 MSTORE PUSH1 0x20 DUP3 ADD SWAP1 POP SWAP3 SWAP2 POP POP JUMP JUMPDEST PUSH1 0x0 JUMPDEST DUP4 DUP2 LT ISZERO PUSH2 0x1246 JUMPI DUP1 DUP3 ADD MLOAD DUP2 DUP5 ADD MSTORE PUSH1 0x20 DUP2 ADD SWAP1 POP PUSH2 0x122B JUMP JUMPDEST PUSH1 0x0 DUP5 DUP5 ADD MSTORE POP POP POP POP JUMP JUMPDEST PUSH1 0x0 PUSH1 0x1F NOT PUSH1 0x1F DUP4 ADD AND SWAP1 POP SWAP2 SWAP1 POP JUMP JUMPDEST PUSH1 0x0 PUSH2 0x126E DUP3 PUSH2 0x120C JUMP JUMPDEST PUSH2 0x1278 DUP2 DUP6 PUSH2 0x1217 JUMP JUMPDEST SWAP4 POP PUSH2 0x1288 DUP2 DUP6 PUSH1 0x20 DUP7 ADD PUSH2 0x1228 JUMP JUMPDEST PUSH2 0x1291 DUP2 PUSH2 0x1252 JUMP JUMPDEST DUP5 ADD SWAP2 POP POP SWAP3 SWAP2 POP POP JUMP JUMPDEST PUSH1 0x0 DUP2 MLOAD SWAP1 POP SWAP2 SWAP1 POP JUMP JUMPDEST PUSH1 0x0 DUP3 DUP3 MSTORE PUSH1 0x20 DUP3 ADD SWAP1 POP SWAP3 SWAP2 POP POP JUMP JUMPDEST PUSH1 0x0 PUSH2 0x12C3 DUP3 PUSH2 0x129C JUMP JUMPDEST PUSH2 0x12CD DUP2 DUP6 PUSH2 0x12A7 JUMP JUMPDEST SWAP4 POP PUSH2 0x12DD DUP2 DUP6 PUSH1 0x20 DUP7 ADD PUSH2 0x1228 JUMP JUMPDEST PUSH2 0x12E6 DUP2 PUSH2 0x1252 JUMP JUMPDEST DUP5 ADD SWAP2 POP POP SWAP3 SWAP2 POP POP JUMP JUMPDEST PUSH2 0x12FA DUP2 PUSH2 0x1114 JUMP JUMPDEST DUP3 MSTORE POP POP JUMP JUMPDEST PUSH1 0x0 PUSH1 0x80 DUP3 ADD SWAP1 POP PUSH2 0x1315 PUSH1 0x0 DUP4 ADD DUP8 PUSH2 0x1189 JUMP JUMPDEST DUP2 DUP2 SUB PUSH1 0x20 DUP4 ADD MSTORE PUSH2 0x1327 DUP2 DUP7 PUSH2 0x1263 JUMP JUMPDEST SWAP1 POP DUP2 DUP2 SUB PUSH1 0x40 DUP4 ADD MSTORE PUSH2 0x133B DUP2 DUP6 PUSH2 0x12B8 JUMP JUMPDEST SWAP1 POP PUSH2 0x134A PUSH1 0x60 DUP4 ADD DUP5 PUSH2 0x12F1 JUMP JUMPDEST SWAP6 SWAP5 POP POP POP POP POP JUMP JUMPDEST PUSH1 0x0 DUP1 REVERT JUMPDEST PUSH1 0x0 DUP1 REVERT JUMPDEST PUSH32 0x4E487B7100000000000000000000000000000000000000000000000000000000 PUSH1 0x0 MSTORE PUSH1 0x41 PUSH1 0x4 MSTORE PUSH1 0x24 PUSH1 0x0 REVERT JUMPDEST PUSH2 0x1395 DUP3 PUSH2 0x1252 JUMP JUMPDEST DUP2 ADD DUP2 DUP2 LT PUSH8 0xFFFFFFFFFFFFFFFF DUP3 GT OR ISZERO PUSH2 0x13B4 JUMPI PUSH2 0x13B3 PUSH2 0x135D JUMP JUMPDEST JUMPDEST DUP1 PUSH1 0x40 MSTORE POP POP POP JUMP JUMPDEST PUSH1 0x0 PUSH2 0x13C7 PUSH2 0x10E0 JUMP JUMPDEST SWAP1 POP PUSH2 0x13D3 DUP3 DUP3 PUSH2 0x138C JUMP JUMPDEST SWAP2 SWAP1 POP JUMP JUMPDEST PUSH1 0x0 PUSH8 0xFFFFFFFFFFFFFFFF DUP3 GT ISZERO PUSH2 0x13F3 JUMPI PUSH2 0x13F2 PUSH2 0x135D JUMP JUMPDEST JUMPDEST PUSH2 0x13FC DUP3 PUSH2 0x1252 JUMP JUMPDEST SWAP1 POP PUSH1 0x20 DUP2 ADD SWAP1 POP SWAP2 SWAP1 POP JUMP JUMPDEST DUP3 DUP2 DUP4 CALLDATACOPY PUSH1 0x0 DUP4 DUP4 ADD MSTORE POP POP POP JUMP JUMPDEST PUSH1 0x0 PUSH2 0x142B PUSH2 0x1426 DUP5 PUSH2 0x13D8 JUMP JUMPDEST PUSH2 0x13BD JUMP JUMPDEST SWAP1 POP DUP3 DUP2 MSTORE PUSH1 0x20 DUP2 ADD DUP5 DUP5 DUP5 ADD GT ISZERO PUSH2 0x1447 JUMPI PUSH2 0x1446 PUSH2 0x1358 JUMP JUMPDEST JUMPDEST PUSH2 0x1452 DUP5 DUP3 DUP6 PUSH2 0x1409 JUMP JUMPDEST POP SWAP4 SWAP3 POP POP POP JUMP JUMPDEST PUSH1 0x0 DUP3 PUSH1 0x1F DUP4 ADD SLT PUSH2 0x146F JUMPI PUSH2 0x146E PUSH2 0x1353 JUMP JUMPDEST JUMPDEST DUP2 CALLDATALOAD PUSH2 0x147F DUP5 DUP3 PUSH1 0x20 DUP7 ADD PUSH2 0x1418 JUMP JUMPDEST SWAP2 POP POP SWAP3 SWAP2 POP POP JUMP JUMPDEST PUSH1 0x0 DUP1 PUSH1 0x0 DUP1 PUSH1 0x80 DUP6 DUP8 SUB SLT ISZERO PUSH2 0x14A2 JUMPI PUSH2 0x14A1 PUSH2 0x10EA JUMP JUMPDEST JUMPDEST PUSH1 0x0 PUSH2 0x14B0 DUP8 DUP3 DUP9 ADD PUSH2 0x11CA JUMP JUMPDEST SWAP5 POP POP PUSH1 0x20 PUSH2 0x14C1 DUP8 DUP3 DUP9 ADD PUSH2 0x11CA JUMP JUMPDEST SWAP4 POP POP PUSH1 0x40 PUSH2 0x14D2 DUP8 DUP3 DUP9 ADD PUSH2 0x11CA JUMP JUMPDEST SWAP3 POP POP PUSH1 0x60 DUP6 ADD CALLDATALOAD PUSH8 0xFFFFFFFFFFFFFFFF DUP2 GT ISZERO PUSH2 0x14F3 JUMPI PUSH2 0x14F2 PUSH2 0x10EF JUMP JUMPDEST JUMPDEST PUSH2 0x14FF DUP8 DUP3 DUP9 ADD PUSH2 0x145A JUMP JUMPDEST SWAP2 POP POP SWAP3 SWAP6 SWAP2 SWAP5 POP SWAP3 POP JUMP JUMPDEST PUSH1 0x0 DUP1 PUSH1 0x0 PUSH1 0x60 DUP5 DUP7 SUB SLT ISZERO PUSH2 0x1524 JUMPI PUSH2 0x1523 PUSH2 0x10EA JUMP JUMPDEST JUMPDEST PUSH1 0x0 PUSH2 0x1532 DUP7 DUP3 DUP8 ADD PUSH2 0x11CA JUMP JUMPDEST SWAP4 POP POP PUSH1 0x20 PUSH2 0x1543 DUP7 DUP3 DUP8 ADD PUSH2 0x11CA JUMP JUMPDEST SWAP3 POP POP PUSH1 0x40 PUSH2 0x1554 DUP7 DUP3 DUP8 ADD PUSH2 0x11CA JUMP JUMPDEST SWAP2 POP POP SWAP3 POP SWAP3 POP SWAP3 JUMP JUMPDEST PUSH1 0x0 PUSH1 0x20 DUP3 ADD SWAP1 POP DUP2 DUP2 SUB PUSH1 0x0 DUP4 ADD MSTORE PUSH2 0x1578 DUP2 DUP5 PUSH2 0x12B8 JUMP JUMPDEST SWAP1 POP SWAP3 SWAP2 POP POP JUMP JUMPDEST PUSH1 0x0 PUSH1 0x20 DUP3 ADD SWAP1 POP PUSH2 0x1595 PUSH1 0x0 DUP4 ADD DUP5 PUSH2 0x12F1 JUMP JUMPDEST SWAP3 SWAP2 POP POP JUMP JUMPDEST PUSH1 0x0 PUSH1 0x20 DUP3 ADD SWAP1 POP DUP2 DUP2 SUB PUSH1 0x0 DUP4 ADD MSTORE PUSH2 0x15B5 DUP2 DUP5 PUSH2 0x1263 JUMP JUMPDEST SWAP1 POP SWAP3 SWAP2 POP POP JUMP JUMPDEST PUSH1 0x0 DUP2 MLOAD SWAP1 POP SWAP2 SWAP1 POP JUMP JUMPDEST PUSH1 0x0 DUP3 DUP3 MSTORE PUSH1 0x20 DUP3 ADD SWAP1 POP SWAP3 SWAP2 POP POP JUMP JUMPDEST PUSH1 0x0 DUP2 SWAP1 POP PUSH1 0x20 DUP3 ADD SWAP1 POP SWAP2 SWAP1 POP JUMP JUMPDEST PUSH2 0x15F2 DUP2 PUSH2 0x117F JUMP JUMPDEST DUP3 MSTORE POP POP JUMP JUMPDEST PUSH1 0x0 PUSH2 0x1604 DUP4 DUP4 PUSH2 0x15E9 JUMP JUMPDEST PUSH1 0x20 DUP4 ADD SWAP1 POP SWAP3 SWAP2 POP POP JUMP JUMPDEST PUSH1 0x0 PUSH1 0x20 DUP3 ADD SWAP1 POP SWAP2 SWAP1 POP JUMP JUMPDEST PUSH1 0x0 PUSH2 0x1628 DUP3 PUSH2 0x15BD JUMP JUMPDEST PUSH2 0x1632 DUP2 DUP6 PUSH2 0x15C8 JUMP JUMPDEST SWAP4 POP PUSH2 0x163D DUP4 PUSH2 0x15D9 JUMP JUMPDEST DUP1 PUSH1 0x0 JUMPDEST DUP4 DUP2 LT ISZERO PUSH2 0x166E JUMPI DUP2 MLOAD PUSH2 0x1655 DUP9 DUP3 PUSH2 0x15F8 JUMP JUMPDEST SWAP8 POP PUSH2 0x1660 DUP4 PUSH2 0x1610 JUMP JUMPDEST SWAP3 POP POP PUSH1 0x1 DUP2 ADD SWAP1 POP PUSH2 0x1641 JUMP JUMPDEST POP DUP6 SWAP4 POP POP POP POP SWAP3 SWAP2 POP POP JUMP JUMPDEST PUSH1 0x0 PUSH1 0x20 DUP3 ADD SWAP1 POP DUP2 DUP2 SUB PUSH1 0x0 DUP4 ADD MSTORE PUSH2 0x1695 DUP2 DUP5 PUSH2 0x161D JUMP JUMPDEST SWAP1 POP SWAP3 SWAP2 POP POP JUMP JUMPDEST PUSH1 0x0 DUP1 PUSH1 0x40 DUP4 DUP6 SUB SLT ISZERO PUSH2 0x16B4 JUMPI PUSH2 0x16B3 PUSH2 0x10EA JUMP JUMPDEST JUMPDEST PUSH1 0x0 DUP4 ADD CALLDATALOAD PUSH8 0xFFFFFFFFFFFFFFFF DUP2 GT ISZERO PUSH2 0x16D2 JUMPI PUSH2 0x16D1 PUSH2 0x10EF JUMP JUMPDEST JUMPDEST PUSH2 0x16DE DUP6 DUP3 DUP7 ADD PUSH2 0x145A JUMP JUMPDEST SWAP3 POP POP PUSH1 0x20 DUP4 ADD CALLDATALOAD PUSH8 0xFFFFFFFFFFFFFFFF DUP2 GT ISZERO PUSH2 0x16FF JUMPI PUSH2 0x16FE PUSH2 0x10EF JUMP JUMPDEST JUMPDEST PUSH2 0x170B DUP6 DUP3 DUP7 ADD PUSH2 0x145A JUMP JUMPDEST SWAP2 POP POP SWAP3 POP SWAP3 SWAP1 POP JUMP JUMPDEST PUSH1 0x0 DUP1 PUSH1 0x0 PUSH1 0x60 DUP5 DUP7 SUB SLT ISZERO PUSH2 0x172E JUMPI PUSH2 0x172D PUSH2 0x10EA JUMP JUMPDEST JUMPDEST PUSH1 0x0 PUSH2 0x173C DUP7 DUP3 DUP8 ADD PUSH2 0x11CA JUMP JUMPDEST SWAP4 POP POP PUSH1 0x20 DUP5 ADD CALLDATALOAD PUSH8 0xFFFFFFFFFFFFFFFF DUP2 GT ISZERO PUSH2 0x175D JUMPI PUSH2 0x175C PUSH2 0x10EF JUMP JUMPDEST JUMPDEST PUSH2 0x1769 DUP7 DUP3 DUP8 ADD PUSH2 0x145A JUMP JUMPDEST SWAP3 POP POP PUSH1 0x40 DUP5 ADD CALLDATALOAD PUSH8 0xFFFFFFFFFFFFFFFF DUP2 GT ISZERO PUSH2 0x178A JUMPI PUSH2 0x1789 PUSH2 0x10EF JUMP JUMPDEST JUMPDEST PUSH2 0x1796 DUP7 DUP3 DUP8 ADD PUSH2 0x145A JUMP JUMPDEST SWAP2 POP POP SWAP3 POP SWAP3 POP SWAP3 JUMP JUMPDEST PUSH1 0x0 DUP1 PUSH1 0x40 DUP4 DUP6 SUB SLT ISZERO PUSH2 0x17B7 JUMPI PUSH2 0x17B6 PUSH2 0x10EA JUMP JUMPDEST JUMPDEST PUSH1 0x0 PUSH2 0x17C5 DUP6 DUP3 DUP7 ADD PUSH2 0x11CA JUMP JUMPDEST SWAP3 POP POP PUSH1 0x20 PUSH2 0x17D6 DUP6 DUP3 DUP7 ADD PUSH2 0x11CA JUMP JUMPDEST SWAP2 POP POP SWAP3 POP SWAP3 SWAP1 POP JUMP JUMPDEST PUSH1 0x0 PUSH8 0xFFFFFFFFFFFFFFFF DUP3 GT ISZERO PUSH2 0x17FB JUMPI PUSH2 0x17FA PUSH2 0x135D JUMP JUMPDEST JUMPDEST PUSH2 0x1804 DUP3 PUSH2 0x1252 JUMP JUMPDEST SWAP1 POP PUSH1 0x20 DUP2 ADD SWAP1 POP SWAP2 SWAP1 POP JUMP JUMPDEST PUSH1 0x0 PUSH2 0x1824 PUSH2 0x181F DUP5 PUSH2 0x17E0 JUMP JUMPDEST PUSH2 0x13BD JUMP JUMPDEST SWAP1 POP DUP3 DUP2 MSTORE PUSH1 0x20 DUP2 ADD DUP5 DUP5 DUP5 ADD GT ISZERO PUSH2 0x1840 JUMPI PUSH2 0x183F PUSH2 0x1358 JUMP JUMPDEST JUMPDEST PUSH2 0x184B DUP5 DUP3 DUP6 PUSH2 0x1409 JUMP JUMPDEST POP SWAP4 SWAP3 POP POP POP JUMP JUMPDEST PUSH1 0x0 DUP3 PUSH1 0x1F DUP4 ADD SLT PUSH2 0x1868 JUMPI PUSH2 0x1867 PUSH2 0x1353 JUMP JUMPDEST JUMPDEST DUP2 CALLDATALOAD PUSH2 0x1878 DUP5 DUP3 PUSH1 0x20 DUP7 ADD PUSH2 0x1811 JUMP JUMPDEST SWAP2 POP POP SWAP3 SWAP2 POP POP JUMP JUMPDEST PUSH1 0x0 DUP1 PUSH1 0x0 DUP1 PUSH1 0x0 DUP1 PUSH1 0x0 PUSH1 0xE0 DUP9 DUP11 SUB SLT ISZERO PUSH2 0x18A0 JUMPI PUSH2 0x189F PUSH2 0x10EA JUMP JUMPDEST JUMPDEST PUSH1 0x0 PUSH2 0x18AE DUP11 DUP3 DUP12 ADD PUSH2 0x11CA JUMP JUMPDEST SWAP8 POP POP PUSH1 0x20 PUSH2 0x18BF DUP11 DUP3 DUP12 ADD PUSH2 0x11CA JUMP JUMPDEST SWAP7 POP POP PUSH1 0x40 DUP9 ADD CALLDATALOAD PUSH8 0xFFFFFFFFFFFFFFFF DUP2 GT ISZERO PUSH2 0x18E0 JUMPI PUSH2 0x18DF PUSH2 0x10EF JUMP JUMPDEST JUMPDEST PUSH2 0x18EC DUP11 DUP3 DUP12 ADD PUSH2 0x1853 JUMP JUMPDEST SWAP6 POP POP PUSH1 0x60 PUSH2 0x18FD DUP11 DUP3 DUP12 ADD PUSH2 0x11CA JUMP JUMPDEST SWAP5 POP POP PUSH1 0x80 PUSH2 0x190E DUP11 DUP3 DUP12 ADD PUSH2 0x11CA JUMP JUMPDEST SWAP4 POP POP PUSH1 0xA0 DUP9 ADD CALLDATALOAD PUSH8 0xFFFFFFFFFFFFFFFF DUP2 GT ISZERO PUSH2 0x192F JUMPI PUSH2 0x192E PUSH2 0x10EF JUMP JUMPDEST JUMPDEST PUSH2 0x193B DUP11 DUP3 DUP12 ADD PUSH2 0x145A JUMP JUMPDEST SWAP3 POP POP PUSH1 0xC0 DUP9 ADD CALLDATALOAD PUSH8 0xFFFFFFFFFFFFFFFF DUP2 GT ISZERO PUSH2 0x195C JUMPI PUSH2 0x195B PUSH2 0x10EF JUMP JUMPDEST JUMPDEST PUSH2 0x1968 DUP11 DUP3 DUP12 ADD PUSH2 0x145A JUMP JUMPDEST SWAP2 POP POP SWAP3 SWAP6 SWAP9 SWAP2 SWAP5 SWAP8 POP SWAP3 SWAP6 POP JUMP JUMPDEST PUSH32 0x4E487B7100000000000000000000000000000000000000000000000000000000 PUSH1 0x0 MSTORE PUSH1 0x22 PUSH1 0x4 MSTORE PUSH1 0x24 PUSH1 0x0 REVERT JUMPDEST PUSH1 0x0 PUSH1 0x2 DUP3 DIV SWAP1 POP PUSH1 0x1 DUP3 AND DUP1 PUSH2 0x19BE JUMPI PUSH1 0x7F DUP3 AND SWAP2 POP JUMPDEST PUSH1 0x20 DUP3 LT DUP2 SUB PUSH2 0x19D1 JUMPI PUSH2 0x19D0 PUSH2 0x1977 JUMP JUMPDEST JUMPDEST POP SWAP2 SWAP1 POP JUMP JUMPDEST PUSH32 0x496E76616C6964207374616B65686F6C64657221000000000000000000000000 PUSH1 0x0 DUP3 ADD MSTORE POP JUMP JUMPDEST PUSH1 0x0 PUSH2 0x1A0D PUSH1 0x14 DUP4 PUSH2 0x1217 JUMP JUMPDEST SWAP2 POP PUSH2 0x1A18 DUP3 PUSH2 0x19D7 JUMP JUMPDEST PUSH1 0x20 DUP3 ADD SWAP1 POP SWAP2 SWAP1 POP JUMP JUMPDEST PUSH1 0x0 PUSH1 0x20 DUP3 ADD SWAP1 POP DUP2 DUP2 SUB PUSH1 0x0 DUP4 ADD MSTORE PUSH2 0x1A3C DUP2 PUSH2 0x1A00 JUMP JUMPDEST SWAP1 POP SWAP2 SWAP1 POP JUMP JUMPDEST PUSH1 0x0 PUSH1 0x60 DUP3 ADD SWAP1 POP PUSH2 0x1A58 PUSH1 0x0 DUP4 ADD DUP7 PUSH2 0x1189 JUMP JUMPDEST PUSH2 0x1A65 PUSH1 0x20 DUP4 ADD DUP6 PUSH2 0x1189 JUMP JUMPDEST PUSH2 0x1A72 PUSH1 0x40 DUP4 ADD DUP5 PUSH2 0x1189 JUMP JUMPDEST SWAP5 SWAP4 POP POP POP POP JUMP JUMPDEST PUSH1 0x0 PUSH2 0x1A8D PUSH2 0x1A88 DUP5 PUSH2 0x17E0 JUMP JUMPDEST PUSH2 0x13BD JUMP JUMPDEST SWAP1 POP DUP3 DUP2 MSTORE PUSH1 0x20 DUP2 ADD DUP5 DUP5 DUP5 ADD GT ISZERO PUSH2 0x1AA9 JUMPI PUSH2 0x1AA8 PUSH2 0x1358 JUMP JUMPDEST JUMPDEST PUSH2 0x1AB4 DUP5 DUP3 DUP6 PUSH2 0x1228 JUMP JUMPDEST POP SWAP4 SWAP3 POP POP POP JUMP JUMPDEST PUSH1 0x0 DUP3 PUSH1 0x1F DUP4 ADD SLT PUSH2 0x1AD1 JUMPI PUSH2 0x1AD0 PUSH2 0x1353 JUMP JUMPDEST JUMPDEST DUP2 MLOAD PUSH2 0x1AE1 DUP5 DUP3 PUSH1 0x20 DUP7 ADD PUSH2 0x1A7A JUMP JUMPDEST SWAP2 POP POP SWAP3 SWAP2 POP POP JUMP JUMPDEST PUSH1 0x0 PUSH1 0x20 DUP3 DUP5 SUB SLT ISZERO PUSH2 0x1B00 JUMPI PUSH2 0x1AFF PUSH2 0x10EA JUMP JUMPDEST JUMPDEST PUSH1 0x0 DUP3 ADD MLOAD PUSH8 0xFFFFFFFFFFFFFFFF DUP2 GT ISZERO PUSH2 0x1B1E JUMPI PUSH2 0x1B1D PUSH2 0x10EF JUMP JUMPDEST JUMPDEST PUSH2 0x1B2A DUP5 DUP3 DUP6 ADD PUSH2 0x1ABC JUMP JUMPDEST SWAP2 POP POP SWAP3 SWAP2 POP POP JUMP JUMPDEST PUSH32 0x4E487B7100000000000000000000000000000000000000000000000000000000 PUSH1 0x0 MSTORE PUSH1 0x11 PUSH1 0x4 MSTORE PUSH1 0x24 PUSH1 0x0 REVERT JUMPDEST PUSH1 0x0 PUSH2 0x1B6D DUP3 PUSH2 0x117F JUMP JUMPDEST SWAP2 POP PUSH32 0xFFFFFFFFFFFFFFFFFFFFFFFFFFFFFFFFFFFFFFFFFFFFFFFFFFFFFFFFFFFFFFFF DUP3 SUB PUSH2 0x1B9F JUMPI PUSH2 0x1B9E PUSH2 0x1B33 JUMP JUMPDEST JUMPDEST PUSH1 0x1 DUP3 ADD SWAP1 POP SWAP2 SWAP1 POP JUMP JUMPDEST PUSH1 0x0 DUP2 SWAP1 POP DUP2 PUSH1 0x0 MSTORE PUSH1 0x20 PUSH1 0x0 KECCAK256 SWAP1 POP SWAP2 SWAP1 POP JUMP JUMPDEST PUSH1 0x0 PUSH1 0x20 PUSH1 0x1F DUP4 ADD DIV SWAP1 POP SWAP2 SWAP1 POP JUMP JUMPDEST PUSH1 0x0 DUP3 DUP3 SHL SWAP1 POP SWAP3 SWAP2 POP POP JUMP JUMPDEST PUSH1 0x0 PUSH1 0x8 DUP4 MUL PUSH2 0x1C0C PUSH32 0xFFFFFFFFFFFFFFFFFFFFFFFFFFFFFFFFFFFFFFFFFFFFFFFFFFFFFFFFFFFFFFFF DUP3 PUSH2 0x1BCF JUMP JUMPDEST PUSH2 0x1C16 DUP7 DUP4 PUSH2 0x1BCF JUMP JUMPDEST SWAP6 POP DUP1 NOT DUP5 AND SWAP4 POP DUP1 DUP7 AND DUP5 OR SWAP3 POP POP POP SWAP4 SWAP3 POP POP POP JUMP JUMPDEST PUSH1 0x0 DUP2 SWAP1 POP SWAP2 SWAP1 POP JUMP JUMPDEST PUSH1 0x0 PUSH2 0x1C53 PUSH2 0x1C4E PUSH2 0x1C49 DUP5 PUSH2 0x117F JUMP JUMPDEST PUSH2 0x1C2E JUMP JUMPDEST PUSH2 0x117F JUMP JUMPDEST SWAP1 POP SWAP2 SWAP1 POP JUMP JUMPDEST PUSH1 0x0 DUP2 SWAP1 POP SWAP2 SWAP1 POP JUMP JUMPDEST PUSH2 0x1C6D DUP4 PUSH2 0x1C38 JUMP JUMPDEST PUSH2 0x1C81 PUSH2 0x1C79 DUP3 PUSH2 0x1C5A JUMP JUMPDEST DUP5 DUP5 SLOAD PUSH2 0x1BDC JUMP JUMPDEST DUP3 SSTORE POP POP POP POP JUMP JUMPDEST PUSH1 0x0 SWAP1 JUMP JUMPDEST PUSH2 0x1C96 PUSH2 0x1C89 JUMP JUMPDEST PUSH2 0x1CA1 DUP2 DUP5 DUP5 PUSH2 0x1C64 JUMP JUMPDEST POP POP POP JUMP JUMPDEST JUMPDEST DUP2 DUP2 LT ISZERO PUSH2 0x1CC5 JUMPI PUSH2 0x1CBA PUSH1 0x0 DUP3 PUSH2 0x1C8E JUMP JUMPDEST PUSH1 0x1 DUP2 ADD SWAP1 POP PUSH2 0x1CA7 JUMP JUMPDEST POP POP JUMP JUMPDEST PUSH1 0x1F DUP3 GT ISZERO PUSH2 0x1D0A JUMPI PUSH2 0x1CDB DUP2 PUSH2 0x1BAA JUMP JUMPDEST PUSH2 0x1CE4 DUP5 PUSH2 0x1BBF JUMP JUMPDEST DUP2 ADD PUSH1 0x20 DUP6 LT ISZERO PUSH2 0x1CF3 JUMPI DUP2 SWAP1 POP JUMPDEST PUSH2 0x1D07 PUSH2 0x1CFF DUP6 PUSH2 0x1BBF JUMP JUMPDEST DUP4 ADD DUP3 PUSH2 0x1CA6 JUMP JUMPDEST POP POP JUMPDEST POP POP POP JUMP JUMPDEST PUSH1 0x0 DUP3 DUP3 SHR SWAP1 POP SWAP3 SWAP2 POP POP JUMP JUMPDEST PUSH1 0x0 PUSH2 0x1D2D PUSH1 0x0 NOT DUP5 PUSH1 0x8 MUL PUSH2 0x1D0F JUMP JUMPDEST NOT DUP1 DUP4 AND SWAP2 POP POP SWAP3 SWAP2 POP POP JUMP JUMPDEST PUSH1 0x0 PUSH2 0x1D46 DUP4 DUP4 PUSH2 0x1D1C JUMP JUMPDEST SWAP2 POP DUP3 PUSH1 0x2 MUL DUP3 OR SWAP1 POP SWAP3 SWAP2 POP POP JUMP JUMPDEST PUSH2 0x1D5F DUP3 PUSH2 0x120C JUMP JUMPDEST PUSH8 0xFFFFFFFFFFFFFFFF DUP2 GT ISZERO PUSH2 0x1D78 JUMPI PUSH2 0x1D77 PUSH2 0x135D JUMP JUMPDEST JUMPDEST PUSH2 0x1D82 DUP3 SLOAD PUSH2 0x19A6 JUMP JUMPDEST PUSH2 0x1D8D DUP3 DUP3 DUP6 PUSH2 0x1CC9 JUMP JUMPDEST PUSH1 0x0 PUSH1 0x20 SWAP1 POP PUSH1 0x1F DUP4 GT PUSH1 0x1 DUP2 EQ PUSH2 0x1DC0 JUMPI PUSH1 0x0 DUP5 ISZERO PUSH2 0x1DAE JUMPI DUP3 DUP8 ADD MLOAD SWAP1 POP JUMPDEST PUSH2 0x1DB8 DUP6 DUP3 PUSH2 0x1D3A JUMP JUMPDEST DUP7 SSTORE POP PUSH2 0x1E20 JUMP JUMPDEST PUSH1 0x1F NOT DUP5 AND PUSH2 0x1DCE DUP7 PUSH2 0x1BAA JUMP JUMPDEST PUSH1 0x0 JUMPDEST DUP3 DUP2 LT ISZERO PUSH2 0x1DF6 JUMPI DUP5 DUP10 ADD MLOAD DUP3 SSTORE PUSH1 0x1 DUP3 ADD SWAP2 POP PUSH1 0x20 DUP6 ADD SWAP5 POP PUSH1 0x20 DUP2 ADD SWAP1 POP PUSH2 0x1DD1 JUMP JUMPDEST DUP7 DUP4 LT ISZERO PUSH2 0x1E13 JUMPI DUP5 DUP10 ADD MLOAD PUSH2 0x1E0F PUSH1 0x1F DUP10 AND DUP3 PUSH2 0x1D1C JUMP JUMPDEST DUP4 SSTORE POP JUMPDEST PUSH1 0x1 PUSH1 0x2 DUP9 MUL ADD DUP9 SSTORE POP POP POP JUMPDEST POP POP POP POP POP POP JUMP JUMPDEST PUSH1 0x0 DUP2 SWAP1 POP SWAP3 SWAP2 POP POP JUMP JUMPDEST PUSH1 0x0 PUSH2 0x1E3E DUP3 PUSH2 0x120C JUMP JUMPDEST PUSH2 0x1E48 DUP2 DUP6 PUSH2 0x1E28 JUMP JUMPDEST SWAP4 POP PUSH2 0x1E58 DUP2 DUP6 PUSH1 0x20 DUP7 ADD PUSH2 0x1228 JUMP JUMPDEST DUP1 DUP5 ADD SWAP2 POP POP SWAP3 SWAP2 POP POP JUMP JUMPDEST PUSH1 0x0 PUSH2 0x1E70 DUP3 DUP5 PUSH2 0x1E33 JUMP JUMPDEST SWAP2 POP DUP2 SWAP1 POP SWAP3 SWAP2 POP POP JUMP JUMPDEST PUSH1 0x0 DUP2 SWAP1 POP DUP2 PUSH1 0x0 MSTORE PUSH1 0x20 PUSH1 0x0 KECCAK256 SWAP1 POP SWAP2 SWAP1 POP JUMP JUMPDEST PUSH1 0x1F DUP3 GT ISZERO PUSH2 0x1ED1 JUMPI PUSH2 0x1EA2 DUP2 PUSH2 0x1E7B JUMP JUMPDEST PUSH2 0x1EAB DUP5 PUSH2 0x1BBF JUMP JUMPDEST DUP2 ADD PUSH1 0x20 DUP6 LT ISZERO PUSH2 0x1EBA JUMPI DUP2 SWAP1 POP JUMPDEST PUSH2 0x1ECE PUSH2 0x1EC6 DUP6 PUSH2 0x1BBF JUMP JUMPDEST DUP4 ADD DUP3 PUSH2 0x1CA6 JUMP JUMPDEST POP POP JUMPDEST POP POP POP JUMP JUMPDEST PUSH2 0x1EDF DUP3 PUSH2 0x129C JUMP JUMPDEST PUSH8 0xFFFFFFFFFFFFFFFF DUP2 GT ISZERO PUSH2 0x1EF8 JUMPI PUSH2 0x1EF7 PUSH2 0x135D JUMP JUMPDEST JUMPDEST PUSH2 0x1F02 DUP3 SLOAD PUSH2 0x19A6 JUMP JUMPDEST PUSH2 0x1F0D DUP3 DUP3 DUP6 PUSH2 0x1E90 JUMP JUMPDEST PUSH1 0x0 PUSH1 0x20 SWAP1 POP PUSH1 0x1F DUP4 GT PUSH1 0x1 DUP2 EQ PUSH2 0x1F40 JUMPI PUSH1 0x0 DUP5 ISZERO PUSH2 0x1F2E JUMPI DUP3 DUP8 ADD MLOAD SWAP1 POP JUMPDEST PUSH2 0x1F38 DUP6 DUP3 PUSH2 0x1D3A JUMP JUMPDEST DUP7 SSTORE POP PUSH2 0x1FA0 JUMP JUMPDEST PUSH1 0x1F NOT DUP5 AND PUSH2 0x1F4E DUP7 PUSH2 0x1E7B JUMP JUMPDEST PUSH1 0x0 JUMPDEST DUP3 DUP2 LT ISZERO PUSH2 0x1F76 JUMPI DUP5 DUP10 ADD MLOAD DUP3 SSTORE PUSH1 0x1 DUP3 ADD SWAP2 POP PUSH1 0x20 DUP6 ADD SWAP5 POP PUSH1 0x20 DUP2 ADD SWAP1 POP PUSH2 0x1F51 JUMP JUMPDEST DUP7 DUP4 LT ISZERO PUSH2 0x1F93 JUMPI DUP5 DUP10 ADD MLOAD PUSH2 0x1F8F PUSH1 0x1F DUP10 AND DUP3 PUSH2 0x1D1C JUMP JUMPDEST DUP4 SSTORE POP JUMPDEST PUSH1 0x1 PUSH1 0x2 DUP9 MUL ADD DUP9 SSTORE POP POP POP JUMPDEST POP POP POP POP POP POP JUMP JUMPDEST PUSH1 0x0 PUSH1 0x40 DUP3 ADD SWAP1 POP PUSH2 0x1FBD PUSH1 0x0 DUP4 ADD DUP6 PUSH2 0x1189 JUMP JUMPDEST PUSH2 0x1FCA PUSH1 0x20 DUP4 ADD DUP5 PUSH2 0x1189 JUMP JUMPDEST SWAP4 SWAP3 POP POP POP JUMP JUMPDEST PUSH1 0x3 DUP2 LT PUSH2 0x1FDE JUMPI PUSH1 0x0 DUP1 REVERT JUMPDEST POP JUMP JUMPDEST PUSH1 0x0 DUP2 MLOAD SWAP1 POP PUSH2 0x1FF0 DUP2 PUSH2 0x1FD1 JUMP JUMPDEST SWAP3 SWAP2 POP POP JUMP JUMPDEST PUSH1 0x0 DUP2 MLOAD SWAP1 POP PUSH2 0x2005 DUP2 PUSH2 0x11B3 JUMP JUMPDEST SWAP3 SWAP2 POP POP JUMP JUMPDEST PUSH1 0x0 DUP1 PUSH1 0x40 DUP4 DUP6 SUB SLT ISZERO PUSH2 0x2022 JUMPI PUSH2 0x2021 PUSH2 0x10EA JUMP JUMPDEST JUMPDEST PUSH1 0x0 PUSH2 0x2030 DUP6 DUP3 DUP7 ADD PUSH2 0x1FE1 JUMP JUMPDEST SWAP3 POP POP PUSH1 0x20 PUSH2 0x2041 DUP6 DUP3 DUP7 ADD PUSH2 0x1FF6 JUMP JUMPDEST SWAP2 POP POP SWAP3 POP SWAP3 SWAP1 POP JUMP JUMPDEST PUSH32 0x4E487B7100000000000000000000000000000000000000000000000000000000 PUSH1 0x0 MSTORE PUSH1 0x21 PUSH1 0x4 MSTORE PUSH1 0x24 PUSH1 0x0 REVERT JUMPDEST PUSH1 0x0 PUSH1 0x80 DUP3 ADD SWAP1 POP PUSH2 0x208F PUSH1 0x0 DUP4 ADD DUP8 PUSH2 0x1189 JUMP JUMPDEST PUSH2 0x209C PUSH1 0x20 DUP4 ADD DUP7 PUSH2 0x1189 JUMP JUMPDEST DUP2 DUP2 SUB PUSH1 0x40 DUP4 ADD MSTORE PUSH2 0x20AE DUP2 DUP6 PUSH2 0x1263 JUMP JUMPDEST SWAP1 POP DUP2 DUP2 SUB PUSH1 0x60 DUP4 ADD MSTORE PUSH2 0x20C2 DUP2 DUP5 PUSH2 0x1263 JUMP JUMPDEST SWAP1 POP SWAP6 SWAP5 POP POP POP POP POP JUMP JUMPDEST PUSH1 0x0 PUSH1 0x20 DUP3 DUP5 SUB SLT ISZERO PUSH2 0x20E3 JUMPI PUSH2 0x20E2 PUSH2 0x10EA JUMP JUMPDEST JUMPDEST PUSH1 0x0 PUSH2 0x20F1 DUP5 DUP3 DUP6 ADD PUSH2 0x1FF6 JUMP JUMPDEST SWAP2 POP POP SWAP3 SWAP2 POP POP JUMP JUMPDEST PUSH1 0x0 PUSH1 0xE0 DUP3 ADD SWAP1 POP PUSH2 0x210F PUSH1 0x0 DUP4 ADD DUP11 PUSH2 0x1189 JUMP JUMPDEST PUSH2 0x211C PUSH1 0x20 DUP4 ADD DUP10 PUSH2 0x1189 JUMP JUMPDEST DUP2 DUP2 SUB PUSH1 0x40 DUP4 ADD MSTORE PUSH2 0x212E DUP2 DUP9 PUSH2 0x12B8 JUMP JUMPDEST SWAP1 POP PUSH2 0x213D PUSH1 0x60 DUP4 ADD DUP8 PUSH2 0x1189 JUMP JUMPDEST PUSH2 0x214A PUSH1 0x80 DUP4 ADD DUP7 PUSH2 0x1189 JUMP JUMPDEST DUP2 DUP2 SUB PUSH1 0xA0 DUP4 ADD MSTORE PUSH2 0x215C DUP2 DUP6 PUSH2 0x1263 JUMP JUMPDEST SWAP1 POP DUP2 DUP2 SUB PUSH1 0xC0 DUP4 ADD MSTORE PUSH2 0x2170 DUP2 DUP5 PUSH2 0x1263 JUMP JUMPDEST SWAP1 POP SWAP9 SWAP8 POP POP POP POP POP POP POP POP JUMP INVALID LOG2 PUSH5 0x6970667358 0x22 SLT KECCAK256 PUSH32 0xD91590187A64059F09636C1F0B3623A3C36A5F820CDC6A0F1A6D853E71C4FE64 PUSH20 0x6F6C634300081300330000000000000000000000 "
		},
		"gasEstimates": {
			"creation": {
				"codeDepositCost": "1725600",
				"executionCost": "infinite",
				"totalCost": "infinite"
			},
			"external": {
				"addRequestIds(uint256,uint256)": "infinite",
				"addStakeholder(string,string)": "infinite",
				"checkInsuranceRequests(uint256,uint256,uint256)": "infinite",
				"checkMCRequests(uint256,uint256,uint256)": "infinite",
				"claimInsurance(uint256,uint256,bytes,uint256,uint256,string,string)": "infinite",
				"getRequestId(uint256)": "infinite",
				"getStakeholderAddress(uint256)": "5133",
				"getStakeholderId(address)": "2865",
				"getStakeholderNRIC(uint256)": "infinite",
				"getStakeholderName(uint256)": "infinite",
				"numStakeholder()": "2518",
				"payPremium(uint256,uint256,uint256)": "infinite",
				"requestMC(uint256,string,string)": "infinite",
				"signInsurance(uint256,uint256,uint256,string)": "infinite",
				"stakeholders(uint256)": "infinite"
			}
		},
		"methodIdentifiers": {
			"addRequestIds(uint256,uint256)": "bdbeb6fe",
			"addStakeholder(string,string)": "6b4c4493",
			"checkInsuranceRequests(uint256,uint256,uint256)": "8fe2701e",
			"checkMCRequests(uint256,uint256,uint256)": "458d0dc2",
			"claimInsurance(uint256,uint256,bytes,uint256,uint256,string,string)": "fec5baf9",
			"getRequestId(uint256)": "68814af8",
			"getStakeholderAddress(uint256)": "5564f644",
			"getStakeholderId(address)": "0f861dc4",
			"getStakeholderNRIC(uint256)": "88c2c519",
			"getStakeholderName(uint256)": "5a0b84f8",
			"numStakeholder()": "8edd5297",
			"payPremium(uint256,uint256,uint256)": "561c865b",
			"requestMC(uint256,string,string)": "a33661b5",
			"signInsurance(uint256,uint256,uint256,string)": "34fb36c8",
			"stakeholders(uint256)": "1d6b8b72"
		}
	},
	"abi": [
		{
			"inputs": [
				{
					"internalType": "contract InsuranceCompany",
					"name": "insuranceCompanyAddress",
					"type": "address"
				},
				{
					"internalType": "contract Hospital",
					"name": "hospitalAddress",
					"type": "address"
				},
				{
					"internalType": "contract TrustInsure",
					"name": "insureAddress",
					"type": "address"
				}
			],
			"stateMutability": "nonpayable",
			"type": "constructor"
		},
		{
			"inputs": [
				{
					"internalType": "uint256",
					"name": "stakeholderId",
					"type": "uint256"
				},
				{
					"internalType": "uint256",
					"name": "requestId",
					"type": "uint256"
				}
			],
			"name": "addRequestIds",
			"outputs": [],
			"stateMutability": "nonpayable",
			"type": "function"
		},
		{
			"inputs": [
				{
					"internalType": "string",
					"name": "name",
					"type": "string"
				},
				{
					"internalType": "string",
					"name": "NRIC",
					"type": "string"
				}
			],
			"name": "addStakeholder",
			"outputs": [
				{
					"internalType": "uint256",
					"name": "",
					"type": "uint256"
				}
			],
			"stateMutability": "nonpayable",
			"type": "function"
		},
		{
			"inputs": [
				{
					"internalType": "uint256",
					"name": "stakeholderId",
					"type": "uint256"
				},
				{
					"internalType": "uint256",
					"name": "companyId",
					"type": "uint256"
				},
				{
					"internalType": "uint256",
					"name": "requestId",
					"type": "uint256"
				}
			],
			"name": "checkInsuranceRequests",
			"outputs": [
				{
					"internalType": "uint256",
					"name": "",
					"type": "uint256"
				}
			],
			"stateMutability": "nonpayable",
			"type": "function"
		},
		{
			"inputs": [
				{
					"internalType": "uint256",
					"name": "_hospitalId",
					"type": "uint256"
				},
				{
					"internalType": "uint256",
					"name": "_requestId",
					"type": "uint256"
				},
				{
					"internalType": "uint256",
					"name": "_stakeholderId",
					"type": "uint256"
				}
			],
			"name": "checkMCRequests",
			"outputs": [
				{
					"internalType": "bytes",
					"name": "",
					"type": "bytes"
				}
			],
			"stateMutability": "view",
			"type": "function"
		},
		{
			"inputs": [
				{
					"internalType": "uint256",
					"name": "insuranceID",
					"type": "uint256"
				},
				{
					"internalType": "uint256",
					"name": "companyId",
					"type": "uint256"
				},
				{
					"internalType": "bytes",
					"name": "mcId",
					"type": "bytes"
				},
				{
					"internalType": "uint256",
					"name": "hospitalId",
					"type": "uint256"
				},
				{
					"internalType": "uint256",
					"name": "policyOwnerID",
					"type": "uint256"
				},
				{
					"internalType": "string",
					"name": "name",
					"type": "string"
				},
				{
					"internalType": "string",
					"name": "NRIC",
					"type": "string"
				}
			],
			"name": "claimInsurance",
			"outputs": [],
			"stateMutability": "nonpayable",
			"type": "function"
		},
		{
			"inputs": [
				{
					"internalType": "uint256",
					"name": "stakeholderID",
					"type": "uint256"
				}
			],
			"name": "getRequestId",
			"outputs": [
				{
					"internalType": "uint256[]",
					"name": "",
					"type": "uint256[]"
				}
			],
			"stateMutability": "view",
			"type": "function"
		},
		{
			"inputs": [
				{
					"internalType": "uint256",
					"name": "stakeholderID",
					"type": "uint256"
				}
			],
			"name": "getStakeholderAddress",
			"outputs": [
				{
					"internalType": "address",
					"name": "",
					"type": "address"
				}
			],
			"stateMutability": "view",
			"type": "function"
		},
		{
			"inputs": [
				{
					"internalType": "address",
					"name": "_stakeholder",
					"type": "address"
				}
			],
			"name": "getStakeholderId",
			"outputs": [
				{
					"internalType": "uint256",
					"name": "",
					"type": "uint256"
				}
			],
			"stateMutability": "view",
			"type": "function"
		},
		{
			"inputs": [
				{
					"internalType": "uint256",
					"name": "stakeholderID",
					"type": "uint256"
				}
			],
			"name": "getStakeholderNRIC",
			"outputs": [
				{
					"internalType": "bytes",
					"name": "",
					"type": "bytes"
				}
			],
			"stateMutability": "view",
			"type": "function"
		},
		{
			"inputs": [
				{
					"internalType": "uint256",
					"name": "stakeholderID",
					"type": "uint256"
				}
			],
			"name": "getStakeholderName",
			"outputs": [
				{
					"internalType": "string",
					"name": "",
					"type": "string"
				}
			],
			"stateMutability": "view",
			"type": "function"
		},
		{
			"inputs": [],
			"name": "numStakeholder",
			"outputs": [
				{
					"internalType": "uint256",
					"name": "",
					"type": "uint256"
				}
			],
			"stateMutability": "view",
			"type": "function"
		},
		{
			"inputs": [
				{
					"internalType": "uint256",
					"name": "insuranceId",
					"type": "uint256"
				},
				{
					"internalType": "uint256",
					"name": "amount",
					"type": "uint256"
				},
				{
					"internalType": "uint256",
					"name": "policyOwnerID",
					"type": "uint256"
				}
			],
			"name": "payPremium",
			"outputs": [],
			"stateMutability": "nonpayable",
			"type": "function"
		},
		{
			"inputs": [
				{
					"internalType": "uint256",
					"name": "hospitalId",
					"type": "uint256"
				},
				{
					"internalType": "string",
					"name": "nameAssured",
					"type": "string"
				},
				{
					"internalType": "string",
					"name": "icAssured",
					"type": "string"
				}
			],
			"name": "requestMC",
			"outputs": [
				{
					"internalType": "uint256",
					"name": "",
					"type": "uint256"
				}
			],
			"stateMutability": "nonpayable",
			"type": "function"
		},
		{
			"inputs": [
				{
					"internalType": "uint256",
					"name": "insuranceId",
					"type": "uint256"
				},
				{
					"internalType": "uint256",
					"name": "companyId",
					"type": "uint256"
				},
				{
					"internalType": "uint256",
					"name": "policyOwnerID",
					"type": "uint256"
				},
				{
					"internalType": "string",
					"name": "signature",
					"type": "string"
				}
			],
			"name": "signInsurance",
			"outputs": [],
			"stateMutability": "nonpayable",
			"type": "function"
		},
		{
			"inputs": [
				{
					"internalType": "uint256",
					"name": "",
					"type": "uint256"
				}
			],
			"name": "stakeholders",
			"outputs": [
				{
					"internalType": "uint256",
					"name": "ID",
					"type": "uint256"
				},
				{
					"internalType": "string",
					"name": "name",
					"type": "string"
				},
				{
					"internalType": "bytes",
					"name": "NRIC",
					"type": "bytes"
				},
				{
					"internalType": "address",
					"name": "stakeholderAddress",
					"type": "address"
				}
			],
			"stateMutability": "view",
			"type": "function"
		}
	]
}