{
	"data": {
		"bytecode": {
			"linkReferences": {},
			"object": "608060405260006003553480156200001657600080fd5b50604051620029773803806200297783398181016040528101906200003c91906200020f565b826000806101000a81548173ffffffffffffffffffffffffffffffffffffffff021916908373ffffffffffffffffffffffffffffffffffffffff16021790555081600160006101000a81548173ffffffffffffffffffffffffffffffffffffffff021916908373ffffffffffffffffffffffffffffffffffffffff16021790555080600260006101000a81548173ffffffffffffffffffffffffffffffffffffffff021916908373ffffffffffffffffffffffffffffffffffffffff1602179055505050506200026b565b600080fd5b600073ffffffffffffffffffffffffffffffffffffffff82169050919050565b600062000139826200010c565b9050919050565b60006200014d826200012c565b9050919050565b6200015f8162000140565b81146200016b57600080fd5b50565b6000815190506200017f8162000154565b92915050565b600062000192826200012c565b9050919050565b620001a48162000185565b8114620001b057600080fd5b50565b600081519050620001c48162000199565b92915050565b6000620001d7826200012c565b9050919050565b620001e981620001ca565b8114620001f557600080fd5b50565b6000815190506200020981620001de565b92915050565b6000806000606084860312156200022b576200022a62000107565b5b60006200023b868287016200016e565b93505060206200024e86828701620001b3565b92505060406200026186828701620001f8565b9150509250925092565b6126fc806200027b6000396000f3fe608060405234801561001057600080fd5b50600436106101005760003560e01c80636b4c4493116100975780638fe2701e116100665780638fe2701e1461030e578063a33661b51461033e578063bdbeb6fe1461036e578063fec5baf91461038a57610100565b80636b4c44931461026057806385fae6021461029057806388c2c519146102c05780638edd5297146102f057610100565b80635564f644116100d35780635564f644146101b4578063561c865b146101e45780635a0b84f81461020057806368814af81461023057610100565b80630f861dc4146101055780631d6b8b721461013557806334fb36c814610168578063458d0dc214610184575b600080fd5b61011f600480360381019061011a91906112dc565b6103a6565b60405161012c9190611322565b60405180910390f35b61014f600480360381019061014a9190611369565b6103ef565b60405161015f949392919061148a565b60405180910390f35b610182600480360381019061017d9190611612565b61054f565b005b61019e60048036038101906101999190611695565b610667565b6040516101ab91906116e8565b60405180910390f35b6101ce60048036038101906101c99190611369565b610717565b6040516101db919061170a565b60405180910390f35b6101fe60048036038101906101f99190611695565b6107da565b005b61021a60048036038101906102159190611369565b6108f1565b6040516102279190611725565b60405180910390f35b61024a60048036038101906102459190611369565b610a1c565b6040516102579190611805565b60405180910390f35b61027a60048036038101906102759190611827565b610b0a565b6040516102879190611322565b60405180910390f35b6102aa60048036038101906102a59190611369565b610c20565b6040516102b79190611a82565b60405180910390f35b6102da60048036038101906102d59190611369565b610cca565b6040516102e791906116e8565b60405180910390f35b6102f8610df5565b6040516103059190611322565b60405180910390f35b61032860048036038101906103239190611695565b610dfb565b6040516103359190611322565b60405180910390f35b61035860048036038101906103539190611a9e565b610f68565b6040516103659190611322565b60405180910390f35b61038860048036038101906103839190611b29565b611064565b005b6103a4600480360381019061039f9190611c0a565b6110a2565b005b6000600560008373ffffffffffffffffffffffffffffffffffffffff1673ffffffffffffffffffffffffffffffffffffffff168152602001908152602001600020549050919050565b600460205280600052604060002060009150905080600001549080600101805461041890611d2f565b80601f016020809104026020016040519081016040528092919081815260200182805461044490611d2f565b80156104915780601f1061046657610100808354040283529160200191610491565b820191906000526020600020905b81548152906001019060200180831161047457829003601f168201915b5050505050908060020180546104a690611d2f565b80601f01602080910402602001604051908101604052809291908181526020018280546104d290611d2f565b801561051f5780601f106104f45761010080835404028352916020019161051f565b820191906000526020600020905b81548152906001019060200180831161050257829003601f168201915b5050505050908060030160009054906101000a900473ffffffffffffffffffffffffffffffffffffffff16905084565b8180600560003373ffffffffffffffffffffffffffffffffffffffff1673ffffffffffffffffffffffffffffffffffffffff16815260200190815260200160002054146105d1576040517f08c379a00000000000000000000000000000000000000000000000000000000081526004016105c890611dac565b60405180910390fd5b60008054906101000a900473ffffffffffffffffffffffffffffffffffffffff1673ffffffffffffffffffffffffffffffffffffffff1663bfcb6cfb8686866040518463ffffffff1660e01b815260040161062e93929190611dcc565b600060405180830381600087803b15801561064857600080fd5b505af115801561065c573d6000803e3d6000fd5b505050505050505050565b6060600160009054906101000a900473ffffffffffffffffffffffffffffffffffffffff1673ffffffffffffffffffffffffffffffffffffffff16639cb3d01f8585856040518463ffffffff1660e01b81526004016106c893929190611dcc565b600060405180830381865afa1580156106e5573d6000803e3d6000fd5b505050506040513d6000823e3d601f19601f8201168201806040525081019061070e9190611e73565b90509392505050565b60008180600560003373ffffffffffffffffffffffffffffffffffffffff1673ffffffffffffffffffffffffffffffffffffffff168152602001908152602001600020541461079b576040517f08c379a000000000000000000000000000000000000000000000000000000000815260040161079290611dac565b60405180910390fd5b6004600084815260200190815260200160002060030160009054906101000a900473ffffffffffffffffffffffffffffffffffffffff16915050919050565b8080600560003373ffffffffffffffffffffffffffffffffffffffff1673ffffffffffffffffffffffffffffffffffffffff168152602001908152602001600020541461085c576040517f08c379a000000000000000000000000000000000000000000000000000000000815260040161085390611dac565b60405180910390fd5b60008054906101000a900473ffffffffffffffffffffffffffffffffffffffff1673ffffffffffffffffffffffffffffffffffffffff1663561c865b8585856040518463ffffffff1660e01b81526004016108b993929190611dcc565b600060405180830381600087803b1580156108d357600080fd5b505af11580156108e7573d6000803e3d6000fd5b5050505050505050565b60608180600560003373ffffffffffffffffffffffffffffffffffffffff1673ffffffffffffffffffffffffffffffffffffffff1681526020019081526020016000205414610975576040517f08c379a000000000000000000000000000000000000000000000000000000000815260040161096c90611dac565b60405180910390fd5b60046000848152602001908152602001600020600101805461099690611d2f565b80601f01602080910402602001604051908101604052809291908181526020018280546109c290611d2f565b8015610a0f5780601f106109e457610100808354040283529160200191610a0f565b820191906000526020600020905b8154815290600101906020018083116109f257829003601f168201915b5050505050915050919050565b60608180600560003373ffffffffffffffffffffffffffffffffffffffff1673ffffffffffffffffffffffffffffffffffffffff1681526020019081526020016000205414610aa0576040517f08c379a0000000000000000000000000000000000000000000000000000000008152600401610a9790611dac565b60405180910390fd5b60066000848152602001908152602001600020805480602002602001604051908101604052809291908181526020018280548015610afd57602002820191906000526020600020905b815481526020019060010190808311610ae9575b5050505050915050919050565b600060036000815480929190610b1f90611eeb565b919050555060006004600060035481526020019081526020016000209050600354816000018190555083816001019081610b5991906120df565b50338160030160006101000a81548173ffffffffffffffffffffffffffffffffffffffff021916908373ffffffffffffffffffffffffffffffffffffffff16021790555082604051602001610bae91906121ed565b604051602081830303815290604052816002019081610bcd919061225f565b50600354600560003373ffffffffffffffffffffffffffffffffffffffff1673ffffffffffffffffffffffffffffffffffffffff1681526020019081526020016000208190555060035491505092915050565b610c286111c5565b60008054906101000a900473ffffffffffffffffffffffffffffffffffffffff1673ffffffffffffffffffffffffffffffffffffffff166385fae602836040518263ffffffff1660e01b8152600401610c819190611322565b6101a060405180830381865afa158015610c9f573d6000803e3d6000fd5b505050506040513d601f19601f82011682018060405250810190610cc39190612506565b9050919050565b60608180600560003373ffffffffffffffffffffffffffffffffffffffff1673ffffffffffffffffffffffffffffffffffffffff1681526020019081526020016000205414610d4e576040517f08c379a0000000000000000000000000000000000000000000000000000000008152600401610d4590611dac565b60405180910390fd5b600460008481526020019081526020016000206002018054610d6f90611d2f565b80601f0160208091040260200160405190810160405280929190818152602001828054610d9b90611d2f565b8015610de85780601f10610dbd57610100808354040283529160200191610de8565b820191906000526020600020905b815481529060010190602001808311610dcb57829003601f168201915b5050505050915050919050565b60035481565b60008380600560003373ffffffffffffffffffffffffffffffffffffffff1673ffffffffffffffffffffffffffffffffffffffff1681526020019081526020016000205414610e7f576040517f08c379a0000000000000000000000000000000000000000000000000000000008152600401610e7690611dac565b60405180910390fd5b60008060008054906101000a900473ffffffffffffffffffffffffffffffffffffffff1673ffffffffffffffffffffffffffffffffffffffff16635d99670187876040518363ffffffff1660e01b8152600401610edd929190612534565b60408051808303816000875af1158015610efb573d6000803e3d6000fd5b505050506040513d601f19601f82011682018060405250810190610f1f9190612582565b9150915060006002811115610f3757610f366118f4565b5b826002811115610f4a57610f496118f4565b5b03610f59578093505050610f60565b6000935050505b509392505050565b600080610f74336103a6565b90506000600160009054906101000a900473ffffffffffffffffffffffffffffffffffffffff1673ffffffffffffffffffffffffffffffffffffffff1663f043e745878488886040518563ffffffff1660e01b8152600401610fd994939291906125c2565b6020604051808303816000875af1158015610ff8573d6000803e3d6000fd5b505050506040513d601f19601f8201168201806040525081019061101c9190612615565b90506007600083815260200190815260200160002081908060018154018082558091505060019003906000526020600020016000909190919091505580925050509392505050565b600660008381526020019081526020016000208190806001815401808255809150506001900390600052602060002001600090919091909150555050565b8280600560003373ffffffffffffffffffffffffffffffffffffffff1673ffffffffffffffffffffffffffffffffffffffff1681526020019081526020016000205414611124576040517f08c379a000000000000000000000000000000000000000000000000000000000815260040161111b90611dac565b60405180910390fd5b60008054906101000a900473ffffffffffffffffffffffffffffffffffffffff1673ffffffffffffffffffffffffffffffffffffffff1663700d9ef7898989898989896040518863ffffffff1660e01b81526004016111899796959493929190612642565b600060405180830381600087803b1580156111a357600080fd5b505af11580156111b7573d6000803e3d6000fd5b505050505050505050505050565b60405180610140016040528060008152602001600081526020016111e7611242565b815260200160008152602001600081526020016000815260200160006001811115611215576112146118f4565b5b81526020016000600581111561122e5761122d6118f4565b5b815260200160008152602001600081525090565b6040518060800160405280600081526020016000815260200160008152602001600081525090565b6000604051905090565b600080fd5b600080fd5b600073ffffffffffffffffffffffffffffffffffffffff82169050919050565b60006112a98261127e565b9050919050565b6112b98161129e565b81146112c457600080fd5b50565b6000813590506112d6816112b0565b92915050565b6000602082840312156112f2576112f1611274565b5b6000611300848285016112c7565b91505092915050565b6000819050919050565b61131c81611309565b82525050565b60006020820190506113376000830184611313565b92915050565b61134681611309565b811461135157600080fd5b50565b6000813590506113638161133d565b92915050565b60006020828403121561137f5761137e611274565b5b600061138d84828501611354565b91505092915050565b600081519050919050565b600082825260208201905092915050565b60005b838110156113d05780820151818401526020810190506113b5565b60008484015250505050565b6000601f19601f8301169050919050565b60006113f882611396565b61140281856113a1565b93506114128185602086016113b2565b61141b816113dc565b840191505092915050565b600081519050919050565b600082825260208201905092915050565b600061144d82611426565b6114578185611431565b93506114678185602086016113b2565b611470816113dc565b840191505092915050565b6114848161129e565b82525050565b600060808201905061149f6000830187611313565b81810360208301526114b181866113ed565b905081810360408301526114c58185611442565b90506114d4606083018461147b565b95945050505050565b600080fd5b600080fd5b7f4e487b7100000000000000000000000000000000000000000000000000000000600052604160045260246000fd5b61151f826113dc565b810181811067ffffffffffffffff8211171561153e5761153d6114e7565b5b80604052505050565b600061155161126a565b905061155d8282611516565b919050565b600067ffffffffffffffff82111561157d5761157c6114e7565b5b611586826113dc565b9050602081019050919050565b82818337600083830152505050565b60006115b56115b084611562565b611547565b9050828152602081018484840111156115d1576115d06114e2565b5b6115dc848285611593565b509392505050565b600082601f8301126115f9576115f86114dd565b5b81356116098482602086016115a2565b91505092915050565b6000806000806080858703121561162c5761162b611274565b5b600061163a87828801611354565b945050602061164b87828801611354565b935050604061165c87828801611354565b925050606085013567ffffffffffffffff81111561167d5761167c611279565b5b611689878288016115e4565b91505092959194509250565b6000806000606084860312156116ae576116ad611274565b5b60006116bc86828701611354565b93505060206116cd86828701611354565b92505060406116de86828701611354565b9150509250925092565b600060208201905081810360008301526117028184611442565b905092915050565b600060208201905061171f600083018461147b565b92915050565b6000602082019050818103600083015261173f81846113ed565b905092915050565b600081519050919050565b600082825260208201905092915050565b6000819050602082019050919050565b61177c81611309565b82525050565b600061178e8383611773565b60208301905092915050565b6000602082019050919050565b60006117b282611747565b6117bc8185611752565b93506117c783611763565b8060005b838110156117f85781516117df8882611782565b97506117ea8361179a565b9250506001810190506117cb565b5085935050505092915050565b6000602082019050818103600083015261181f81846117a7565b905092915050565b6000806040838503121561183e5761183d611274565b5b600083013567ffffffffffffffff81111561185c5761185b611279565b5b611868858286016115e4565b925050602083013567ffffffffffffffff81111561188957611888611279565b5b611895858286016115e4565b9150509250929050565b6080820160008201516118b56000850182611773565b5060208201516118c86020850182611773565b5060408201516118db6040850182611773565b5060608201516118ee6060850182611773565b50505050565b7f4e487b7100000000000000000000000000000000000000000000000000000000600052602160045260246000fd5b60028110611934576119336118f4565b5b50565b600081905061194582611923565b919050565b600061195582611937565b9050919050565b6119658161194a565b82525050565b6006811061197c5761197b6118f4565b5b50565b600081905061198d8261196b565b919050565b600061199d8261197f565b9050919050565b6119ad81611992565b82525050565b6101a0820160008201516119ca6000850182611773565b5060208201516119dd6020850182611773565b5060408201516119f0604085018261189f565b506060820151611a0360c0850182611773565b506080820151611a1660e0850182611773565b5060a0820151611a2a610100850182611773565b5060c0820151611a3e61012085018261195c565b5060e0820151611a526101408501826119a4565b50610100820151611a67610160850182611773565b50610120820151611a7c610180850182611773565b50505050565b60006101a082019050611a9860008301846119b3565b92915050565b600080600060608486031215611ab757611ab6611274565b5b6000611ac586828701611354565b935050602084013567ffffffffffffffff811115611ae657611ae5611279565b5b611af2868287016115e4565b925050604084013567ffffffffffffffff811115611b1357611b12611279565b5b611b1f868287016115e4565b9150509250925092565b60008060408385031215611b4057611b3f611274565b5b6000611b4e85828601611354565b9250506020611b5f85828601611354565b9150509250929050565b600067ffffffffffffffff821115611b8457611b836114e7565b5b611b8d826113dc565b9050602081019050919050565b6000611bad611ba884611b69565b611547565b905082815260208101848484011115611bc957611bc86114e2565b5b611bd4848285611593565b509392505050565b600082601f830112611bf157611bf06114dd565b5b8135611c01848260208601611b9a565b91505092915050565b600080600080600080600060e0888a031215611c2957611c28611274565b5b6000611c378a828b01611354565b9750506020611c488a828b01611354565b965050604088013567ffffffffffffffff811115611c6957611c68611279565b5b611c758a828b01611bdc565b9550506060611c868a828b01611354565b9450506080611c978a828b01611354565b93505060a088013567ffffffffffffffff811115611cb857611cb7611279565b5b611cc48a828b016115e4565b92505060c088013567ffffffffffffffff811115611ce557611ce4611279565b5b611cf18a828b016115e4565b91505092959891949750929550565b7f4e487b7100000000000000000000000000000000000000000000000000000000600052602260045260246000fd5b60006002820490506001821680611d4757607f821691505b602082108103611d5a57611d59611d00565b5b50919050565b7f496e76616c6964207374616b65686f6c64657221000000000000000000000000600082015250565b6000611d966014836113a1565b9150611da182611d60565b602082019050919050565b60006020820190508181036000830152611dc581611d89565b9050919050565b6000606082019050611de16000830186611313565b611dee6020830185611313565b611dfb6040830184611313565b949350505050565b6000611e16611e1184611b69565b611547565b905082815260208101848484011115611e3257611e316114e2565b5b611e3d8482856113b2565b509392505050565b600082601f830112611e5a57611e596114dd565b5b8151611e6a848260208601611e03565b91505092915050565b600060208284031215611e8957611e88611274565b5b600082015167ffffffffffffffff811115611ea757611ea6611279565b5b611eb384828501611e45565b91505092915050565b7f4e487b7100000000000000000000000000000000000000000000000000000000600052601160045260246000fd5b6000611ef682611309565b91507fffffffffffffffffffffffffffffffffffffffffffffffffffffffffffffffff8203611f2857611f27611ebc565b5b600182019050919050565b60008190508160005260206000209050919050565b60006020601f8301049050919050565b600082821b905092915050565b600060088302611f957fffffffffffffffffffffffffffffffffffffffffffffffffffffffffffffffff82611f58565b611f9f8683611f58565b95508019841693508086168417925050509392505050565b6000819050919050565b6000611fdc611fd7611fd284611309565b611fb7565b611309565b9050919050565b6000819050919050565b611ff683611fc1565b61200a61200282611fe3565b848454611f65565b825550505050565b600090565b61201f612012565b61202a818484611fed565b505050565b5b8181101561204e57612043600082612017565b600181019050612030565b5050565b601f8211156120935761206481611f33565b61206d84611f48565b8101602085101561207c578190505b61209061208885611f48565b83018261202f565b50505b505050565b600082821c905092915050565b60006120b660001984600802612098565b1980831691505092915050565b60006120cf83836120a5565b9150826002028217905092915050565b6120e882611396565b67ffffffffffffffff811115612101576121006114e7565b5b61210b8254611d2f565b612116828285612052565b600060209050601f8311600181146121495760008415612137578287015190505b61214185826120c3565b8655506121a9565b601f19841661215786611f33565b60005b8281101561217f5784890151825560018201915060208501945060208101905061215a565b8683101561219c5784890151612198601f8916826120a5565b8355505b6001600288020188555050505b505050505050565b600081905092915050565b60006121c782611396565b6121d181856121b1565b93506121e18185602086016113b2565b80840191505092915050565b60006121f982846121bc565b915081905092915050565b60008190508160005260206000209050919050565b601f82111561225a5761222b81612204565b61223484611f48565b81016020851015612243578190505b61225761224f85611f48565b83018261202f565b50505b505050565b61226882611426565b67ffffffffffffffff811115612281576122806114e7565b5b61228b8254611d2f565b612296828285612219565b600060209050601f8311600181146122c957600084156122b7578287015190505b6122c185826120c3565b865550612329565b601f1984166122d786612204565b60005b828110156122ff578489015182556001820191506020850194506020810190506122da565b8683101561231c5784890151612318601f8916826120a5565b8355505b6001600288020188555050505b505050505050565b600080fd5b6000815190506123458161133d565b92915050565b60006080828403121561236157612360612331565b5b61236b6080611547565b9050600061237b84828501612336565b600083015250602061238f84828501612336565b60208301525060406123a384828501612336565b60408301525060606123b784828501612336565b60608301525092915050565b600281106123d057600080fd5b50565b6000815190506123e2816123c3565b92915050565b600681106123f557600080fd5b50565b600081519050612407816123e8565b92915050565b60006101a0828403121561242457612423612331565b5b61242f610140611547565b9050600061243f84828501612336565b600083015250602061245384828501612336565b60208301525060406124678482850161234b565b60408301525060c061247b84828501612336565b60608301525060e061248f84828501612336565b6080830152506101006124a484828501612336565b60a0830152506101206124b9848285016123d3565b60c0830152506101406124ce848285016123f8565b60e0830152506101606124e384828501612336565b610100830152506101806124f984828501612336565b6101208301525092915050565b60006101a0828403121561251d5761251c611274565b5b600061252b8482850161240d565b91505092915050565b60006040820190506125496000830185611313565b6125566020830184611313565b9392505050565b6003811061256a57600080fd5b50565b60008151905061257c8161255d565b92915050565b6000806040838503121561259957612598611274565b5b60006125a78582860161256d565b92505060206125b885828601612336565b9150509250929050565b60006080820190506125d76000830187611313565b6125e46020830186611313565b81810360408301526125f681856113ed565b9050818103606083015261260a81846113ed565b905095945050505050565b60006020828403121561262b5761262a611274565b5b600061263984828501612336565b91505092915050565b600060e082019050612657600083018a611313565b6126646020830189611313565b81810360408301526126768188611442565b90506126856060830187611313565b6126926080830186611313565b81810360a08301526126a481856113ed565b905081810360c08301526126b881846113ed565b90509897505050505050505056fea2646970667358221220d128c9b7b1168724c04bef47b032fd826e0d9b395f790450ce42101292472adf64736f6c63430008130033",
			"opcodes": "PUSH1 0x80 PUSH1 0x40 MSTORE PUSH1 0x0 PUSH1 0x3 SSTORE CALLVALUE DUP1 ISZERO PUSH3 0x16 JUMPI PUSH1 0x0 DUP1 REVERT JUMPDEST POP PUSH1 0x40 MLOAD PUSH3 0x2977 CODESIZE SUB DUP1 PUSH3 0x2977 DUP4 CODECOPY DUP2 DUP2 ADD PUSH1 0x40 MSTORE DUP2 ADD SWAP1 PUSH3 0x3C SWAP2 SWAP1 PUSH3 0x20F JUMP JUMPDEST DUP3 PUSH1 0x0 DUP1 PUSH2 0x100 EXP DUP2 SLOAD DUP2 PUSH20 0xFFFFFFFFFFFFFFFFFFFFFFFFFFFFFFFFFFFFFFFF MUL NOT AND SWAP1 DUP4 PUSH20 0xFFFFFFFFFFFFFFFFFFFFFFFFFFFFFFFFFFFFFFFF AND MUL OR SWAP1 SSTORE POP DUP2 PUSH1 0x1 PUSH1 0x0 PUSH2 0x100 EXP DUP2 SLOAD DUP2 PUSH20 0xFFFFFFFFFFFFFFFFFFFFFFFFFFFFFFFFFFFFFFFF MUL NOT AND SWAP1 DUP4 PUSH20 0xFFFFFFFFFFFFFFFFFFFFFFFFFFFFFFFFFFFFFFFF AND MUL OR SWAP1 SSTORE POP DUP1 PUSH1 0x2 PUSH1 0x0 PUSH2 0x100 EXP DUP2 SLOAD DUP2 PUSH20 0xFFFFFFFFFFFFFFFFFFFFFFFFFFFFFFFFFFFFFFFF MUL NOT AND SWAP1 DUP4 PUSH20 0xFFFFFFFFFFFFFFFFFFFFFFFFFFFFFFFFFFFFFFFF AND MUL OR SWAP1 SSTORE POP POP POP POP PUSH3 0x26B JUMP JUMPDEST PUSH1 0x0 DUP1 REVERT JUMPDEST PUSH1 0x0 PUSH20 0xFFFFFFFFFFFFFFFFFFFFFFFFFFFFFFFFFFFFFFFF DUP3 AND SWAP1 POP SWAP2 SWAP1 POP JUMP JUMPDEST PUSH1 0x0 PUSH3 0x139 DUP3 PUSH3 0x10C JUMP JUMPDEST SWAP1 POP SWAP2 SWAP1 POP JUMP JUMPDEST PUSH1 0x0 PUSH3 0x14D DUP3 PUSH3 0x12C JUMP JUMPDEST SWAP1 POP SWAP2 SWAP1 POP JUMP JUMPDEST PUSH3 0x15F DUP2 PUSH3 0x140 JUMP JUMPDEST DUP2 EQ PUSH3 0x16B JUMPI PUSH1 0x0 DUP1 REVERT JUMPDEST POP JUMP JUMPDEST PUSH1 0x0 DUP2 MLOAD SWAP1 POP PUSH3 0x17F DUP2 PUSH3 0x154 JUMP JUMPDEST SWAP3 SWAP2 POP POP JUMP JUMPDEST PUSH1 0x0 PUSH3 0x192 DUP3 PUSH3 0x12C JUMP JUMPDEST SWAP1 POP SWAP2 SWAP1 POP JUMP JUMPDEST PUSH3 0x1A4 DUP2 PUSH3 0x185 JUMP JUMPDEST DUP2 EQ PUSH3 0x1B0 JUMPI PUSH1 0x0 DUP1 REVERT JUMPDEST POP JUMP JUMPDEST PUSH1 0x0 DUP2 MLOAD SWAP1 POP PUSH3 0x1C4 DUP2 PUSH3 0x199 JUMP JUMPDEST SWAP3 SWAP2 POP POP JUMP JUMPDEST PUSH1 0x0 PUSH3 0x1D7 DUP3 PUSH3 0x12C JUMP JUMPDEST SWAP1 POP SWAP2 SWAP1 POP JUMP JUMPDEST PUSH3 0x1E9 DUP2 PUSH3 0x1CA JUMP JUMPDEST DUP2 EQ PUSH3 0x1F5 JUMPI PUSH1 0x0 DUP1 REVERT JUMPDEST POP JUMP JUMPDEST PUSH1 0x0 DUP2 MLOAD SWAP1 POP PUSH3 0x209 DUP2 PUSH3 0x1DE JUMP JUMPDEST SWAP3 SWAP2 POP POP JUMP JUMPDEST PUSH1 0x0 DUP1 PUSH1 0x0 PUSH1 0x60 DUP5 DUP7 SUB SLT ISZERO PUSH3 0x22B JUMPI PUSH3 0x22A PUSH3 0x107 JUMP JUMPDEST JUMPDEST PUSH1 0x0 PUSH3 0x23B DUP7 DUP3 DUP8 ADD PUSH3 0x16E JUMP JUMPDEST SWAP4 POP POP PUSH1 0x20 PUSH3 0x24E DUP7 DUP3 DUP8 ADD PUSH3 0x1B3 JUMP JUMPDEST SWAP3 POP POP PUSH1 0x40 PUSH3 0x261 DUP7 DUP3 DUP8 ADD PUSH3 0x1F8 JUMP JUMPDEST SWAP2 POP POP SWAP3 POP SWAP3 POP SWAP3 JUMP JUMPDEST PUSH2 0x26FC DUP1 PUSH3 0x27B PUSH1 0x0 CODECOPY PUSH1 0x0 RETURN INVALID PUSH1 0x80 PUSH1 0x40 MSTORE CALLVALUE DUP1 ISZERO PUSH2 0x10 JUMPI PUSH1 0x0 DUP1 REVERT JUMPDEST POP PUSH1 0x4 CALLDATASIZE LT PUSH2 0x100 JUMPI PUSH1 0x0 CALLDATALOAD PUSH1 0xE0 SHR DUP1 PUSH4 0x6B4C4493 GT PUSH2 0x97 JUMPI DUP1 PUSH4 0x8FE2701E GT PUSH2 0x66 JUMPI DUP1 PUSH4 0x8FE2701E EQ PUSH2 0x30E JUMPI DUP1 PUSH4 0xA33661B5 EQ PUSH2 0x33E JUMPI DUP1 PUSH4 0xBDBEB6FE EQ PUSH2 0x36E JUMPI DUP1 PUSH4 0xFEC5BAF9 EQ PUSH2 0x38A JUMPI PUSH2 0x100 JUMP JUMPDEST DUP1 PUSH4 0x6B4C4493 EQ PUSH2 0x260 JUMPI DUP1 PUSH4 0x85FAE602 EQ PUSH2 0x290 JUMPI DUP1 PUSH4 0x88C2C519 EQ PUSH2 0x2C0 JUMPI DUP1 PUSH4 0x8EDD5297 EQ PUSH2 0x2F0 JUMPI PUSH2 0x100 JUMP JUMPDEST DUP1 PUSH4 0x5564F644 GT PUSH2 0xD3 JUMPI DUP1 PUSH4 0x5564F644 EQ PUSH2 0x1B4 JUMPI DUP1 PUSH4 0x561C865B EQ PUSH2 0x1E4 JUMPI DUP1 PUSH4 0x5A0B84F8 EQ PUSH2 0x200 JUMPI DUP1 PUSH4 0x68814AF8 EQ PUSH2 0x230 JUMPI PUSH2 0x100 JUMP JUMPDEST DUP1 PUSH4 0xF861DC4 EQ PUSH2 0x105 JUMPI DUP1 PUSH4 0x1D6B8B72 EQ PUSH2 0x135 JUMPI DUP1 PUSH4 0x34FB36C8 EQ PUSH2 0x168 JUMPI DUP1 PUSH4 0x458D0DC2 EQ PUSH2 0x184 JUMPI JUMPDEST PUSH1 0x0 DUP1 REVERT JUMPDEST PUSH2 0x11F PUSH1 0x4 DUP1 CALLDATASIZE SUB DUP2 ADD SWAP1 PUSH2 0x11A SWAP2 SWAP1 PUSH2 0x12DC JUMP JUMPDEST PUSH2 0x3A6 JUMP JUMPDEST PUSH1 0x40 MLOAD PUSH2 0x12C SWAP2 SWAP1 PUSH2 0x1322 JUMP JUMPDEST PUSH1 0x40 MLOAD DUP1 SWAP2 SUB SWAP1 RETURN JUMPDEST PUSH2 0x14F PUSH1 0x4 DUP1 CALLDATASIZE SUB DUP2 ADD SWAP1 PUSH2 0x14A SWAP2 SWAP1 PUSH2 0x1369 JUMP JUMPDEST PUSH2 0x3EF JUMP JUMPDEST PUSH1 0x40 MLOAD PUSH2 0x15F SWAP5 SWAP4 SWAP3 SWAP2 SWAP1 PUSH2 0x148A JUMP JUMPDEST PUSH1 0x40 MLOAD DUP1 SWAP2 SUB SWAP1 RETURN JUMPDEST PUSH2 0x182 PUSH1 0x4 DUP1 CALLDATASIZE SUB DUP2 ADD SWAP1 PUSH2 0x17D SWAP2 SWAP1 PUSH2 0x1612 JUMP JUMPDEST PUSH2 0x54F JUMP JUMPDEST STOP JUMPDEST PUSH2 0x19E PUSH1 0x4 DUP1 CALLDATASIZE SUB DUP2 ADD SWAP1 PUSH2 0x199 SWAP2 SWAP1 PUSH2 0x1695 JUMP JUMPDEST PUSH2 0x667 JUMP JUMPDEST PUSH1 0x40 MLOAD PUSH2 0x1AB SWAP2 SWAP1 PUSH2 0x16E8 JUMP JUMPDEST PUSH1 0x40 MLOAD DUP1 SWAP2 SUB SWAP1 RETURN JUMPDEST PUSH2 0x1CE PUSH1 0x4 DUP1 CALLDATASIZE SUB DUP2 ADD SWAP1 PUSH2 0x1C9 SWAP2 SWAP1 PUSH2 0x1369 JUMP JUMPDEST PUSH2 0x717 JUMP JUMPDEST PUSH1 0x40 MLOAD PUSH2 0x1DB SWAP2 SWAP1 PUSH2 0x170A JUMP JUMPDEST PUSH1 0x40 MLOAD DUP1 SWAP2 SUB SWAP1 RETURN JUMPDEST PUSH2 0x1FE PUSH1 0x4 DUP1 CALLDATASIZE SUB DUP2 ADD SWAP1 PUSH2 0x1F9 SWAP2 SWAP1 PUSH2 0x1695 JUMP JUMPDEST PUSH2 0x7DA JUMP JUMPDEST STOP JUMPDEST PUSH2 0x21A PUSH1 0x4 DUP1 CALLDATASIZE SUB DUP2 ADD SWAP1 PUSH2 0x215 SWAP2 SWAP1 PUSH2 0x1369 JUMP JUMPDEST PUSH2 0x8F1 JUMP JUMPDEST PUSH1 0x40 MLOAD PUSH2 0x227 SWAP2 SWAP1 PUSH2 0x1725 JUMP JUMPDEST PUSH1 0x40 MLOAD DUP1 SWAP2 SUB SWAP1 RETURN JUMPDEST PUSH2 0x24A PUSH1 0x4 DUP1 CALLDATASIZE SUB DUP2 ADD SWAP1 PUSH2 0x245 SWAP2 SWAP1 PUSH2 0x1369 JUMP JUMPDEST PUSH2 0xA1C JUMP JUMPDEST PUSH1 0x40 MLOAD PUSH2 0x257 SWAP2 SWAP1 PUSH2 0x1805 JUMP JUMPDEST PUSH1 0x40 MLOAD DUP1 SWAP2 SUB SWAP1 RETURN JUMPDEST PUSH2 0x27A PUSH1 0x4 DUP1 CALLDATASIZE SUB DUP2 ADD SWAP1 PUSH2 0x275 SWAP2 SWAP1 PUSH2 0x1827 JUMP JUMPDEST PUSH2 0xB0A JUMP JUMPDEST PUSH1 0x40 MLOAD PUSH2 0x287 SWAP2 SWAP1 PUSH2 0x1322 JUMP JUMPDEST PUSH1 0x40 MLOAD DUP1 SWAP2 SUB SWAP1 RETURN JUMPDEST PUSH2 0x2AA PUSH1 0x4 DUP1 CALLDATASIZE SUB DUP2 ADD SWAP1 PUSH2 0x2A5 SWAP2 SWAP1 PUSH2 0x1369 JUMP JUMPDEST PUSH2 0xC20 JUMP JUMPDEST PUSH1 0x40 MLOAD PUSH2 0x2B7 SWAP2 SWAP1 PUSH2 0x1A82 JUMP JUMPDEST PUSH1 0x40 MLOAD DUP1 SWAP2 SUB SWAP1 RETURN JUMPDEST PUSH2 0x2DA PUSH1 0x4 DUP1 CALLDATASIZE SUB DUP2 ADD SWAP1 PUSH2 0x2D5 SWAP2 SWAP1 PUSH2 0x1369 JUMP JUMPDEST PUSH2 0xCCA JUMP JUMPDEST PUSH1 0x40 MLOAD PUSH2 0x2E7 SWAP2 SWAP1 PUSH2 0x16E8 JUMP JUMPDEST PUSH1 0x40 MLOAD DUP1 SWAP2 SUB SWAP1 RETURN JUMPDEST PUSH2 0x2F8 PUSH2 0xDF5 JUMP JUMPDEST PUSH1 0x40 MLOAD PUSH2 0x305 SWAP2 SWAP1 PUSH2 0x1322 JUMP JUMPDEST PUSH1 0x40 MLOAD DUP1 SWAP2 SUB SWAP1 RETURN JUMPDEST PUSH2 0x328 PUSH1 0x4 DUP1 CALLDATASIZE SUB DUP2 ADD SWAP1 PUSH2 0x323 SWAP2 SWAP1 PUSH2 0x1695 JUMP JUMPDEST PUSH2 0xDFB JUMP JUMPDEST PUSH1 0x40 MLOAD PUSH2 0x335 SWAP2 SWAP1 PUSH2 0x1322 JUMP JUMPDEST PUSH1 0x40 MLOAD DUP1 SWAP2 SUB SWAP1 RETURN JUMPDEST PUSH2 0x358 PUSH1 0x4 DUP1 CALLDATASIZE SUB DUP2 ADD SWAP1 PUSH2 0x353 SWAP2 SWAP1 PUSH2 0x1A9E JUMP JUMPDEST PUSH2 0xF68 JUMP JUMPDEST PUSH1 0x40 MLOAD PUSH2 0x365 SWAP2 SWAP1 PUSH2 0x1322 JUMP JUMPDEST PUSH1 0x40 MLOAD DUP1 SWAP2 SUB SWAP1 RETURN JUMPDEST PUSH2 0x388 PUSH1 0x4 DUP1 CALLDATASIZE SUB DUP2 ADD SWAP1 PUSH2 0x383 SWAP2 SWAP1 PUSH2 0x1B29 JUMP JUMPDEST PUSH2 0x1064 JUMP JUMPDEST STOP JUMPDEST PUSH2 0x3A4 PUSH1 0x4 DUP1 CALLDATASIZE SUB DUP2 ADD SWAP1 PUSH2 0x39F SWAP2 SWAP1 PUSH2 0x1C0A JUMP JUMPDEST PUSH2 0x10A2 JUMP JUMPDEST STOP JUMPDEST PUSH1 0x0 PUSH1 0x5 PUSH1 0x0 DUP4 PUSH20 0xFFFFFFFFFFFFFFFFFFFFFFFFFFFFFFFFFFFFFFFF AND PUSH20 0xFFFFFFFFFFFFFFFFFFFFFFFFFFFFFFFFFFFFFFFF AND DUP2 MSTORE PUSH1 0x20 ADD SWAP1 DUP2 MSTORE PUSH1 0x20 ADD PUSH1 0x0 KECCAK256 SLOAD SWAP1 POP SWAP2 SWAP1 POP JUMP JUMPDEST PUSH1 0x4 PUSH1 0x20 MSTORE DUP1 PUSH1 0x0 MSTORE PUSH1 0x40 PUSH1 0x0 KECCAK256 PUSH1 0x0 SWAP2 POP SWAP1 POP DUP1 PUSH1 0x0 ADD SLOAD SWAP1 DUP1 PUSH1 0x1 ADD DUP1 SLOAD PUSH2 0x418 SWAP1 PUSH2 0x1D2F JUMP JUMPDEST DUP1 PUSH1 0x1F ADD PUSH1 0x20 DUP1 SWAP2 DIV MUL PUSH1 0x20 ADD PUSH1 0x40 MLOAD SWAP1 DUP2 ADD PUSH1 0x40 MSTORE DUP1 SWAP3 SWAP2 SWAP1 DUP2 DUP2 MSTORE PUSH1 0x20 ADD DUP3 DUP1 SLOAD PUSH2 0x444 SWAP1 PUSH2 0x1D2F JUMP JUMPDEST DUP1 ISZERO PUSH2 0x491 JUMPI DUP1 PUSH1 0x1F LT PUSH2 0x466 JUMPI PUSH2 0x100 DUP1 DUP4 SLOAD DIV MUL DUP4 MSTORE SWAP2 PUSH1 0x20 ADD SWAP2 PUSH2 0x491 JUMP JUMPDEST DUP3 ADD SWAP2 SWAP1 PUSH1 0x0 MSTORE PUSH1 0x20 PUSH1 0x0 KECCAK256 SWAP1 JUMPDEST DUP2 SLOAD DUP2 MSTORE SWAP1 PUSH1 0x1 ADD SWAP1 PUSH1 0x20 ADD DUP1 DUP4 GT PUSH2 0x474 JUMPI DUP3 SWAP1 SUB PUSH1 0x1F AND DUP3 ADD SWAP2 JUMPDEST POP POP POP POP POP SWAP1 DUP1 PUSH1 0x2 ADD DUP1 SLOAD PUSH2 0x4A6 SWAP1 PUSH2 0x1D2F JUMP JUMPDEST DUP1 PUSH1 0x1F ADD PUSH1 0x20 DUP1 SWAP2 DIV MUL PUSH1 0x20 ADD PUSH1 0x40 MLOAD SWAP1 DUP2 ADD PUSH1 0x40 MSTORE DUP1 SWAP3 SWAP2 SWAP1 DUP2 DUP2 MSTORE PUSH1 0x20 ADD DUP3 DUP1 SLOAD PUSH2 0x4D2 SWAP1 PUSH2 0x1D2F JUMP JUMPDEST DUP1 ISZERO PUSH2 0x51F JUMPI DUP1 PUSH1 0x1F LT PUSH2 0x4F4 JUMPI PUSH2 0x100 DUP1 DUP4 SLOAD DIV MUL DUP4 MSTORE SWAP2 PUSH1 0x20 ADD SWAP2 PUSH2 0x51F JUMP JUMPDEST DUP3 ADD SWAP2 SWAP1 PUSH1 0x0 MSTORE PUSH1 0x20 PUSH1 0x0 KECCAK256 SWAP1 JUMPDEST DUP2 SLOAD DUP2 MSTORE SWAP1 PUSH1 0x1 ADD SWAP1 PUSH1 0x20 ADD DUP1 DUP4 GT PUSH2 0x502 JUMPI DUP3 SWAP1 SUB PUSH1 0x1F AND DUP3 ADD SWAP2 JUMPDEST POP POP POP POP POP SWAP1 DUP1 PUSH1 0x3 ADD PUSH1 0x0 SWAP1 SLOAD SWAP1 PUSH2 0x100 EXP SWAP1 DIV PUSH20 0xFFFFFFFFFFFFFFFFFFFFFFFFFFFFFFFFFFFFFFFF AND SWAP1 POP DUP5 JUMP JUMPDEST DUP2 DUP1 PUSH1 0x5 PUSH1 0x0 CALLER PUSH20 0xFFFFFFFFFFFFFFFFFFFFFFFFFFFFFFFFFFFFFFFF AND PUSH20 0xFFFFFFFFFFFFFFFFFFFFFFFFFFFFFFFFFFFFFFFF AND DUP2 MSTORE PUSH1 0x20 ADD SWAP1 DUP2 MSTORE PUSH1 0x20 ADD PUSH1 0x0 KECCAK256 SLOAD EQ PUSH2 0x5D1 JUMPI PUSH1 0x40 MLOAD PUSH32 0x8C379A000000000000000000000000000000000000000000000000000000000 DUP2 MSTORE PUSH1 0x4 ADD PUSH2 0x5C8 SWAP1 PUSH2 0x1DAC JUMP JUMPDEST PUSH1 0x40 MLOAD DUP1 SWAP2 SUB SWAP1 REVERT JUMPDEST PUSH1 0x0 DUP1 SLOAD SWAP1 PUSH2 0x100 EXP SWAP1 DIV PUSH20 0xFFFFFFFFFFFFFFFFFFFFFFFFFFFFFFFFFFFFFFFF AND PUSH20 0xFFFFFFFFFFFFFFFFFFFFFFFFFFFFFFFFFFFFFFFF AND PUSH4 0xBFCB6CFB DUP7 DUP7 DUP7 PUSH1 0x40 MLOAD DUP5 PUSH4 0xFFFFFFFF AND PUSH1 0xE0 SHL DUP2 MSTORE PUSH1 0x4 ADD PUSH2 0x62E SWAP4 SWAP3 SWAP2 SWAP1 PUSH2 0x1DCC JUMP JUMPDEST PUSH1 0x0 PUSH1 0x40 MLOAD DUP1 DUP4 SUB DUP2 PUSH1 0x0 DUP8 DUP1 EXTCODESIZE ISZERO DUP1 ISZERO PUSH2 0x648 JUMPI PUSH1 0x0 DUP1 REVERT JUMPDEST POP GAS CALL ISZERO DUP1 ISZERO PUSH2 0x65C JUMPI RETURNDATASIZE PUSH1 0x0 DUP1 RETURNDATACOPY RETURNDATASIZE PUSH1 0x0 REVERT JUMPDEST POP POP POP POP POP POP POP POP POP JUMP JUMPDEST PUSH1 0x60 PUSH1 0x1 PUSH1 0x0 SWAP1 SLOAD SWAP1 PUSH2 0x100 EXP SWAP1 DIV PUSH20 0xFFFFFFFFFFFFFFFFFFFFFFFFFFFFFFFFFFFFFFFF AND PUSH20 0xFFFFFFFFFFFFFFFFFFFFFFFFFFFFFFFFFFFFFFFF AND PUSH4 0x9CB3D01F DUP6 DUP6 DUP6 PUSH1 0x40 MLOAD DUP5 PUSH4 0xFFFFFFFF AND PUSH1 0xE0 SHL DUP2 MSTORE PUSH1 0x4 ADD PUSH2 0x6C8 SWAP4 SWAP3 SWAP2 SWAP1 PUSH2 0x1DCC JUMP JUMPDEST PUSH1 0x0 PUSH1 0x40 MLOAD DUP1 DUP4 SUB DUP2 DUP7 GAS STATICCALL ISZERO DUP1 ISZERO PUSH2 0x6E5 JUMPI RETURNDATASIZE PUSH1 0x0 DUP1 RETURNDATACOPY RETURNDATASIZE PUSH1 0x0 REVERT JUMPDEST POP POP POP POP PUSH1 0x40 MLOAD RETURNDATASIZE PUSH1 0x0 DUP3 RETURNDATACOPY RETURNDATASIZE PUSH1 0x1F NOT PUSH1 0x1F DUP3 ADD AND DUP3 ADD DUP1 PUSH1 0x40 MSTORE POP DUP2 ADD SWAP1 PUSH2 0x70E SWAP2 SWAP1 PUSH2 0x1E73 JUMP JUMPDEST SWAP1 POP SWAP4 SWAP3 POP POP POP JUMP JUMPDEST PUSH1 0x0 DUP2 DUP1 PUSH1 0x5 PUSH1 0x0 CALLER PUSH20 0xFFFFFFFFFFFFFFFFFFFFFFFFFFFFFFFFFFFFFFFF AND PUSH20 0xFFFFFFFFFFFFFFFFFFFFFFFFFFFFFFFFFFFFFFFF AND DUP2 MSTORE PUSH1 0x20 ADD SWAP1 DUP2 MSTORE PUSH1 0x20 ADD PUSH1 0x0 KECCAK256 SLOAD EQ PUSH2 0x79B JUMPI PUSH1 0x40 MLOAD PUSH32 0x8C379A000000000000000000000000000000000000000000000000000000000 DUP2 MSTORE PUSH1 0x4 ADD PUSH2 0x792 SWAP1 PUSH2 0x1DAC JUMP JUMPDEST PUSH1 0x40 MLOAD DUP1 SWAP2 SUB SWAP1 REVERT JUMPDEST PUSH1 0x4 PUSH1 0x0 DUP5 DUP2 MSTORE PUSH1 0x20 ADD SWAP1 DUP2 MSTORE PUSH1 0x20 ADD PUSH1 0x0 KECCAK256 PUSH1 0x3 ADD PUSH1 0x0 SWAP1 SLOAD SWAP1 PUSH2 0x100 EXP SWAP1 DIV PUSH20 0xFFFFFFFFFFFFFFFFFFFFFFFFFFFFFFFFFFFFFFFF AND SWAP2 POP POP SWAP2 SWAP1 POP JUMP JUMPDEST DUP1 DUP1 PUSH1 0x5 PUSH1 0x0 CALLER PUSH20 0xFFFFFFFFFFFFFFFFFFFFFFFFFFFFFFFFFFFFFFFF AND PUSH20 0xFFFFFFFFFFFFFFFFFFFFFFFFFFFFFFFFFFFFFFFF AND DUP2 MSTORE PUSH1 0x20 ADD SWAP1 DUP2 MSTORE PUSH1 0x20 ADD PUSH1 0x0 KECCAK256 SLOAD EQ PUSH2 0x85C JUMPI PUSH1 0x40 MLOAD PUSH32 0x8C379A000000000000000000000000000000000000000000000000000000000 DUP2 MSTORE PUSH1 0x4 ADD PUSH2 0x853 SWAP1 PUSH2 0x1DAC JUMP JUMPDEST PUSH1 0x40 MLOAD DUP1 SWAP2 SUB SWAP1 REVERT JUMPDEST PUSH1 0x0 DUP1 SLOAD SWAP1 PUSH2 0x100 EXP SWAP1 DIV PUSH20 0xFFFFFFFFFFFFFFFFFFFFFFFFFFFFFFFFFFFFFFFF AND PUSH20 0xFFFFFFFFFFFFFFFFFFFFFFFFFFFFFFFFFFFFFFFF AND PUSH4 0x561C865B DUP6 DUP6 DUP6 PUSH1 0x40 MLOAD DUP5 PUSH4 0xFFFFFFFF AND PUSH1 0xE0 SHL DUP2 MSTORE PUSH1 0x4 ADD PUSH2 0x8B9 SWAP4 SWAP3 SWAP2 SWAP1 PUSH2 0x1DCC JUMP JUMPDEST PUSH1 0x0 PUSH1 0x40 MLOAD DUP1 DUP4 SUB DUP2 PUSH1 0x0 DUP8 DUP1 EXTCODESIZE ISZERO DUP1 ISZERO PUSH2 0x8D3 JUMPI PUSH1 0x0 DUP1 REVERT JUMPDEST POP GAS CALL ISZERO DUP1 ISZERO PUSH2 0x8E7 JUMPI RETURNDATASIZE PUSH1 0x0 DUP1 RETURNDATACOPY RETURNDATASIZE PUSH1 0x0 REVERT JUMPDEST POP POP POP POP POP POP POP POP JUMP JUMPDEST PUSH1 0x60 DUP2 DUP1 PUSH1 0x5 PUSH1 0x0 CALLER PUSH20 0xFFFFFFFFFFFFFFFFFFFFFFFFFFFFFFFFFFFFFFFF AND PUSH20 0xFFFFFFFFFFFFFFFFFFFFFFFFFFFFFFFFFFFFFFFF AND DUP2 MSTORE PUSH1 0x20 ADD SWAP1 DUP2 MSTORE PUSH1 0x20 ADD PUSH1 0x0 KECCAK256 SLOAD EQ PUSH2 0x975 JUMPI PUSH1 0x40 MLOAD PUSH32 0x8C379A000000000000000000000000000000000000000000000000000000000 DUP2 MSTORE PUSH1 0x4 ADD PUSH2 0x96C SWAP1 PUSH2 0x1DAC JUMP JUMPDEST PUSH1 0x40 MLOAD DUP1 SWAP2 SUB SWAP1 REVERT JUMPDEST PUSH1 0x4 PUSH1 0x0 DUP5 DUP2 MSTORE PUSH1 0x20 ADD SWAP1 DUP2 MSTORE PUSH1 0x20 ADD PUSH1 0x0 KECCAK256 PUSH1 0x1 ADD DUP1 SLOAD PUSH2 0x996 SWAP1 PUSH2 0x1D2F JUMP JUMPDEST DUP1 PUSH1 0x1F ADD PUSH1 0x20 DUP1 SWAP2 DIV MUL PUSH1 0x20 ADD PUSH1 0x40 MLOAD SWAP1 DUP2 ADD PUSH1 0x40 MSTORE DUP1 SWAP3 SWAP2 SWAP1 DUP2 DUP2 MSTORE PUSH1 0x20 ADD DUP3 DUP1 SLOAD PUSH2 0x9C2 SWAP1 PUSH2 0x1D2F JUMP JUMPDEST DUP1 ISZERO PUSH2 0xA0F JUMPI DUP1 PUSH1 0x1F LT PUSH2 0x9E4 JUMPI PUSH2 0x100 DUP1 DUP4 SLOAD DIV MUL DUP4 MSTORE SWAP2 PUSH1 0x20 ADD SWAP2 PUSH2 0xA0F JUMP JUMPDEST DUP3 ADD SWAP2 SWAP1 PUSH1 0x0 MSTORE PUSH1 0x20 PUSH1 0x0 KECCAK256 SWAP1 JUMPDEST DUP2 SLOAD DUP2 MSTORE SWAP1 PUSH1 0x1 ADD SWAP1 PUSH1 0x20 ADD DUP1 DUP4 GT PUSH2 0x9F2 JUMPI DUP3 SWAP1 SUB PUSH1 0x1F AND DUP3 ADD SWAP2 JUMPDEST POP POP POP POP POP SWAP2 POP POP SWAP2 SWAP1 POP JUMP JUMPDEST PUSH1 0x60 DUP2 DUP1 PUSH1 0x5 PUSH1 0x0 CALLER PUSH20 0xFFFFFFFFFFFFFFFFFFFFFFFFFFFFFFFFFFFFFFFF AND PUSH20 0xFFFFFFFFFFFFFFFFFFFFFFFFFFFFFFFFFFFFFFFF AND DUP2 MSTORE PUSH1 0x20 ADD SWAP1 DUP2 MSTORE PUSH1 0x20 ADD PUSH1 0x0 KECCAK256 SLOAD EQ PUSH2 0xAA0 JUMPI PUSH1 0x40 MLOAD PUSH32 0x8C379A000000000000000000000000000000000000000000000000000000000 DUP2 MSTORE PUSH1 0x4 ADD PUSH2 0xA97 SWAP1 PUSH2 0x1DAC JUMP JUMPDEST PUSH1 0x40 MLOAD DUP1 SWAP2 SUB SWAP1 REVERT JUMPDEST PUSH1 0x6 PUSH1 0x0 DUP5 DUP2 MSTORE PUSH1 0x20 ADD SWAP1 DUP2 MSTORE PUSH1 0x20 ADD PUSH1 0x0 KECCAK256 DUP1 SLOAD DUP1 PUSH1 0x20 MUL PUSH1 0x20 ADD PUSH1 0x40 MLOAD SWAP1 DUP2 ADD PUSH1 0x40 MSTORE DUP1 SWAP3 SWAP2 SWAP1 DUP2 DUP2 MSTORE PUSH1 0x20 ADD DUP3 DUP1 SLOAD DUP1 ISZERO PUSH2 0xAFD JUMPI PUSH1 0x20 MUL DUP3 ADD SWAP2 SWAP1 PUSH1 0x0 MSTORE PUSH1 0x20 PUSH1 0x0 KECCAK256 SWAP1 JUMPDEST DUP2 SLOAD DUP2 MSTORE PUSH1 0x20 ADD SWAP1 PUSH1 0x1 ADD SWAP1 DUP1 DUP4 GT PUSH2 0xAE9 JUMPI JUMPDEST POP POP POP POP POP SWAP2 POP POP SWAP2 SWAP1 POP JUMP JUMPDEST PUSH1 0x0 PUSH1 0x3 PUSH1 0x0 DUP2 SLOAD DUP1 SWAP3 SWAP2 SWAP1 PUSH2 0xB1F SWAP1 PUSH2 0x1EEB JUMP JUMPDEST SWAP2 SWAP1 POP SSTORE POP PUSH1 0x0 PUSH1 0x4 PUSH1 0x0 PUSH1 0x3 SLOAD DUP2 MSTORE PUSH1 0x20 ADD SWAP1 DUP2 MSTORE PUSH1 0x20 ADD PUSH1 0x0 KECCAK256 SWAP1 POP PUSH1 0x3 SLOAD DUP2 PUSH1 0x0 ADD DUP2 SWAP1 SSTORE POP DUP4 DUP2 PUSH1 0x1 ADD SWAP1 DUP2 PUSH2 0xB59 SWAP2 SWAP1 PUSH2 0x20DF JUMP JUMPDEST POP CALLER DUP2 PUSH1 0x3 ADD PUSH1 0x0 PUSH2 0x100 EXP DUP2 SLOAD DUP2 PUSH20 0xFFFFFFFFFFFFFFFFFFFFFFFFFFFFFFFFFFFFFFFF MUL NOT AND SWAP1 DUP4 PUSH20 0xFFFFFFFFFFFFFFFFFFFFFFFFFFFFFFFFFFFFFFFF AND MUL OR SWAP1 SSTORE POP DUP3 PUSH1 0x40 MLOAD PUSH1 0x20 ADD PUSH2 0xBAE SWAP2 SWAP1 PUSH2 0x21ED JUMP JUMPDEST PUSH1 0x40 MLOAD PUSH1 0x20 DUP2 DUP4 SUB SUB DUP2 MSTORE SWAP1 PUSH1 0x40 MSTORE DUP2 PUSH1 0x2 ADD SWAP1 DUP2 PUSH2 0xBCD SWAP2 SWAP1 PUSH2 0x225F JUMP JUMPDEST POP PUSH1 0x3 SLOAD PUSH1 0x5 PUSH1 0x0 CALLER PUSH20 0xFFFFFFFFFFFFFFFFFFFFFFFFFFFFFFFFFFFFFFFF AND PUSH20 0xFFFFFFFFFFFFFFFFFFFFFFFFFFFFFFFFFFFFFFFF AND DUP2 MSTORE PUSH1 0x20 ADD SWAP1 DUP2 MSTORE PUSH1 0x20 ADD PUSH1 0x0 KECCAK256 DUP2 SWAP1 SSTORE POP PUSH1 0x3 SLOAD SWAP2 POP POP SWAP3 SWAP2 POP POP JUMP JUMPDEST PUSH2 0xC28 PUSH2 0x11C5 JUMP JUMPDEST PUSH1 0x0 DUP1 SLOAD SWAP1 PUSH2 0x100 EXP SWAP1 DIV PUSH20 0xFFFFFFFFFFFFFFFFFFFFFFFFFFFFFFFFFFFFFFFF AND PUSH20 0xFFFFFFFFFFFFFFFFFFFFFFFFFFFFFFFFFFFFFFFF AND PUSH4 0x85FAE602 DUP4 PUSH1 0x40 MLOAD DUP3 PUSH4 0xFFFFFFFF AND PUSH1 0xE0 SHL DUP2 MSTORE PUSH1 0x4 ADD PUSH2 0xC81 SWAP2 SWAP1 PUSH2 0x1322 JUMP JUMPDEST PUSH2 0x1A0 PUSH1 0x40 MLOAD DUP1 DUP4 SUB DUP2 DUP7 GAS STATICCALL ISZERO DUP1 ISZERO PUSH2 0xC9F JUMPI RETURNDATASIZE PUSH1 0x0 DUP1 RETURNDATACOPY RETURNDATASIZE PUSH1 0x0 REVERT JUMPDEST POP POP POP POP PUSH1 0x40 MLOAD RETURNDATASIZE PUSH1 0x1F NOT PUSH1 0x1F DUP3 ADD AND DUP3 ADD DUP1 PUSH1 0x40 MSTORE POP DUP2 ADD SWAP1 PUSH2 0xCC3 SWAP2 SWAP1 PUSH2 0x2506 JUMP JUMPDEST SWAP1 POP SWAP2 SWAP1 POP JUMP JUMPDEST PUSH1 0x60 DUP2 DUP1 PUSH1 0x5 PUSH1 0x0 CALLER PUSH20 0xFFFFFFFFFFFFFFFFFFFFFFFFFFFFFFFFFFFFFFFF AND PUSH20 0xFFFFFFFFFFFFFFFFFFFFFFFFFFFFFFFFFFFFFFFF AND DUP2 MSTORE PUSH1 0x20 ADD SWAP1 DUP2 MSTORE PUSH1 0x20 ADD PUSH1 0x0 KECCAK256 SLOAD EQ PUSH2 0xD4E JUMPI PUSH1 0x40 MLOAD PUSH32 0x8C379A000000000000000000000000000000000000000000000000000000000 DUP2 MSTORE PUSH1 0x4 ADD PUSH2 0xD45 SWAP1 PUSH2 0x1DAC JUMP JUMPDEST PUSH1 0x40 MLOAD DUP1 SWAP2 SUB SWAP1 REVERT JUMPDEST PUSH1 0x4 PUSH1 0x0 DUP5 DUP2 MSTORE PUSH1 0x20 ADD SWAP1 DUP2 MSTORE PUSH1 0x20 ADD PUSH1 0x0 KECCAK256 PUSH1 0x2 ADD DUP1 SLOAD PUSH2 0xD6F SWAP1 PUSH2 0x1D2F JUMP JUMPDEST DUP1 PUSH1 0x1F ADD PUSH1 0x20 DUP1 SWAP2 DIV MUL PUSH1 0x20 ADD PUSH1 0x40 MLOAD SWAP1 DUP2 ADD PUSH1 0x40 MSTORE DUP1 SWAP3 SWAP2 SWAP1 DUP2 DUP2 MSTORE PUSH1 0x20 ADD DUP3 DUP1 SLOAD PUSH2 0xD9B SWAP1 PUSH2 0x1D2F JUMP JUMPDEST DUP1 ISZERO PUSH2 0xDE8 JUMPI DUP1 PUSH1 0x1F LT PUSH2 0xDBD JUMPI PUSH2 0x100 DUP1 DUP4 SLOAD DIV MUL DUP4 MSTORE SWAP2 PUSH1 0x20 ADD SWAP2 PUSH2 0xDE8 JUMP JUMPDEST DUP3 ADD SWAP2 SWAP1 PUSH1 0x0 MSTORE PUSH1 0x20 PUSH1 0x0 KECCAK256 SWAP1 JUMPDEST DUP2 SLOAD DUP2 MSTORE SWAP1 PUSH1 0x1 ADD SWAP1 PUSH1 0x20 ADD DUP1 DUP4 GT PUSH2 0xDCB JUMPI DUP3 SWAP1 SUB PUSH1 0x1F AND DUP3 ADD SWAP2 JUMPDEST POP POP POP POP POP SWAP2 POP POP SWAP2 SWAP1 POP JUMP JUMPDEST PUSH1 0x3 SLOAD DUP2 JUMP JUMPDEST PUSH1 0x0 DUP4 DUP1 PUSH1 0x5 PUSH1 0x0 CALLER PUSH20 0xFFFFFFFFFFFFFFFFFFFFFFFFFFFFFFFFFFFFFFFF AND PUSH20 0xFFFFFFFFFFFFFFFFFFFFFFFFFFFFFFFFFFFFFFFF AND DUP2 MSTORE PUSH1 0x20 ADD SWAP1 DUP2 MSTORE PUSH1 0x20 ADD PUSH1 0x0 KECCAK256 SLOAD EQ PUSH2 0xE7F JUMPI PUSH1 0x40 MLOAD PUSH32 0x8C379A000000000000000000000000000000000000000000000000000000000 DUP2 MSTORE PUSH1 0x4 ADD PUSH2 0xE76 SWAP1 PUSH2 0x1DAC JUMP JUMPDEST PUSH1 0x40 MLOAD DUP1 SWAP2 SUB SWAP1 REVERT JUMPDEST PUSH1 0x0 DUP1 PUSH1 0x0 DUP1 SLOAD SWAP1 PUSH2 0x100 EXP SWAP1 DIV PUSH20 0xFFFFFFFFFFFFFFFFFFFFFFFFFFFFFFFFFFFFFFFF AND PUSH20 0xFFFFFFFFFFFFFFFFFFFFFFFFFFFFFFFFFFFFFFFF AND PUSH4 0x5D996701 DUP8 DUP8 PUSH1 0x40 MLOAD DUP4 PUSH4 0xFFFFFFFF AND PUSH1 0xE0 SHL DUP2 MSTORE PUSH1 0x4 ADD PUSH2 0xEDD SWAP3 SWAP2 SWAP1 PUSH2 0x2534 JUMP JUMPDEST PUSH1 0x40 DUP1 MLOAD DUP1 DUP4 SUB DUP2 PUSH1 0x0 DUP8 GAS CALL ISZERO DUP1 ISZERO PUSH2 0xEFB JUMPI RETURNDATASIZE PUSH1 0x0 DUP1 RETURNDATACOPY RETURNDATASIZE PUSH1 0x0 REVERT JUMPDEST POP POP POP POP PUSH1 0x40 MLOAD RETURNDATASIZE PUSH1 0x1F NOT PUSH1 0x1F DUP3 ADD AND DUP3 ADD DUP1 PUSH1 0x40 MSTORE POP DUP2 ADD SWAP1 PUSH2 0xF1F SWAP2 SWAP1 PUSH2 0x2582 JUMP JUMPDEST SWAP2 POP SWAP2 POP PUSH1 0x0 PUSH1 0x2 DUP2 GT ISZERO PUSH2 0xF37 JUMPI PUSH2 0xF36 PUSH2 0x18F4 JUMP JUMPDEST JUMPDEST DUP3 PUSH1 0x2 DUP2 GT ISZERO PUSH2 0xF4A JUMPI PUSH2 0xF49 PUSH2 0x18F4 JUMP JUMPDEST JUMPDEST SUB PUSH2 0xF59 JUMPI DUP1 SWAP4 POP POP POP PUSH2 0xF60 JUMP JUMPDEST PUSH1 0x0 SWAP4 POP POP POP JUMPDEST POP SWAP4 SWAP3 POP POP POP JUMP JUMPDEST PUSH1 0x0 DUP1 PUSH2 0xF74 CALLER PUSH2 0x3A6 JUMP JUMPDEST SWAP1 POP PUSH1 0x0 PUSH1 0x1 PUSH1 0x0 SWAP1 SLOAD SWAP1 PUSH2 0x100 EXP SWAP1 DIV PUSH20 0xFFFFFFFFFFFFFFFFFFFFFFFFFFFFFFFFFFFFFFFF AND PUSH20 0xFFFFFFFFFFFFFFFFFFFFFFFFFFFFFFFFFFFFFFFF AND PUSH4 0xF043E745 DUP8 DUP5 DUP9 DUP9 PUSH1 0x40 MLOAD DUP6 PUSH4 0xFFFFFFFF AND PUSH1 0xE0 SHL DUP2 MSTORE PUSH1 0x4 ADD PUSH2 0xFD9 SWAP5 SWAP4 SWAP3 SWAP2 SWAP1 PUSH2 0x25C2 JUMP JUMPDEST PUSH1 0x20 PUSH1 0x40 MLOAD DUP1 DUP4 SUB DUP2 PUSH1 0x0 DUP8 GAS CALL ISZERO DUP1 ISZERO PUSH2 0xFF8 JUMPI RETURNDATASIZE PUSH1 0x0 DUP1 RETURNDATACOPY RETURNDATASIZE PUSH1 0x0 REVERT JUMPDEST POP POP POP POP PUSH1 0x40 MLOAD RETURNDATASIZE PUSH1 0x1F NOT PUSH1 0x1F DUP3 ADD AND DUP3 ADD DUP1 PUSH1 0x40 MSTORE POP DUP2 ADD SWAP1 PUSH2 0x101C SWAP2 SWAP1 PUSH2 0x2615 JUMP JUMPDEST SWAP1 POP PUSH1 0x7 PUSH1 0x0 DUP4 DUP2 MSTORE PUSH1 0x20 ADD SWAP1 DUP2 MSTORE PUSH1 0x20 ADD PUSH1 0x0 KECCAK256 DUP2 SWAP1 DUP1 PUSH1 0x1 DUP2 SLOAD ADD DUP1 DUP3 SSTORE DUP1 SWAP2 POP POP PUSH1 0x1 SWAP1 SUB SWAP1 PUSH1 0x0 MSTORE PUSH1 0x20 PUSH1 0x0 KECCAK256 ADD PUSH1 0x0 SWAP1 SWAP2 SWAP1 SWAP2 SWAP1 SWAP2 POP SSTORE DUP1 SWAP3 POP POP POP SWAP4 SWAP3 POP POP POP JUMP JUMPDEST PUSH1 0x6 PUSH1 0x0 DUP4 DUP2 MSTORE PUSH1 0x20 ADD SWAP1 DUP2 MSTORE PUSH1 0x20 ADD PUSH1 0x0 KECCAK256 DUP2 SWAP1 DUP1 PUSH1 0x1 DUP2 SLOAD ADD DUP1 DUP3 SSTORE DUP1 SWAP2 POP POP PUSH1 0x1 SWAP1 SUB SWAP1 PUSH1 0x0 MSTORE PUSH1 0x20 PUSH1 0x0 KECCAK256 ADD PUSH1 0x0 SWAP1 SWAP2 SWAP1 SWAP2 SWAP1 SWAP2 POP SSTORE POP POP JUMP JUMPDEST DUP3 DUP1 PUSH1 0x5 PUSH1 0x0 CALLER PUSH20 0xFFFFFFFFFFFFFFFFFFFFFFFFFFFFFFFFFFFFFFFF AND PUSH20 0xFFFFFFFFFFFFFFFFFFFFFFFFFFFFFFFFFFFFFFFF AND DUP2 MSTORE PUSH1 0x20 ADD SWAP1 DUP2 MSTORE PUSH1 0x20 ADD PUSH1 0x0 KECCAK256 SLOAD EQ PUSH2 0x1124 JUMPI PUSH1 0x40 MLOAD PUSH32 0x8C379A000000000000000000000000000000000000000000000000000000000 DUP2 MSTORE PUSH1 0x4 ADD PUSH2 0x111B SWAP1 PUSH2 0x1DAC JUMP JUMPDEST PUSH1 0x40 MLOAD DUP1 SWAP2 SUB SWAP1 REVERT JUMPDEST PUSH1 0x0 DUP1 SLOAD SWAP1 PUSH2 0x100 EXP SWAP1 DIV PUSH20 0xFFFFFFFFFFFFFFFFFFFFFFFFFFFFFFFFFFFFFFFF AND PUSH20 0xFFFFFFFFFFFFFFFFFFFFFFFFFFFFFFFFFFFFFFFF AND PUSH4 0x700D9EF7 DUP10 DUP10 DUP10 DUP10 DUP10 DUP10 DUP10 PUSH1 0x40 MLOAD DUP9 PUSH4 0xFFFFFFFF AND PUSH1 0xE0 SHL DUP2 MSTORE PUSH1 0x4 ADD PUSH2 0x1189 SWAP8 SWAP7 SWAP6 SWAP5 SWAP4 SWAP3 SWAP2 SWAP1 PUSH2 0x2642 JUMP JUMPDEST PUSH1 0x0 PUSH1 0x40 MLOAD DUP1 DUP4 SUB DUP2 PUSH1 0x0 DUP8 DUP1 EXTCODESIZE ISZERO DUP1 ISZERO PUSH2 0x11A3 JUMPI PUSH1 0x0 DUP1 REVERT JUMPDEST POP GAS CALL ISZERO DUP1 ISZERO PUSH2 0x11B7 JUMPI RETURNDATASIZE PUSH1 0x0 DUP1 RETURNDATACOPY RETURNDATASIZE PUSH1 0x0 REVERT JUMPDEST POP POP POP POP POP POP POP POP POP POP POP POP JUMP JUMPDEST PUSH1 0x40 MLOAD DUP1 PUSH2 0x140 ADD PUSH1 0x40 MSTORE DUP1 PUSH1 0x0 DUP2 MSTORE PUSH1 0x20 ADD PUSH1 0x0 DUP2 MSTORE PUSH1 0x20 ADD PUSH2 0x11E7 PUSH2 0x1242 JUMP JUMPDEST DUP2 MSTORE PUSH1 0x20 ADD PUSH1 0x0 DUP2 MSTORE PUSH1 0x20 ADD PUSH1 0x0 DUP2 MSTORE PUSH1 0x20 ADD PUSH1 0x0 DUP2 MSTORE PUSH1 0x20 ADD PUSH1 0x0 PUSH1 0x1 DUP2 GT ISZERO PUSH2 0x1215 JUMPI PUSH2 0x1214 PUSH2 0x18F4 JUMP JUMPDEST JUMPDEST DUP2 MSTORE PUSH1 0x20 ADD PUSH1 0x0 PUSH1 0x5 DUP2 GT ISZERO PUSH2 0x122E JUMPI PUSH2 0x122D PUSH2 0x18F4 JUMP JUMPDEST JUMPDEST DUP2 MSTORE PUSH1 0x20 ADD PUSH1 0x0 DUP2 MSTORE PUSH1 0x20 ADD PUSH1 0x0 DUP2 MSTORE POP SWAP1 JUMP JUMPDEST PUSH1 0x40 MLOAD DUP1 PUSH1 0x80 ADD PUSH1 0x40 MSTORE DUP1 PUSH1 0x0 DUP2 MSTORE PUSH1 0x20 ADD PUSH1 0x0 DUP2 MSTORE PUSH1 0x20 ADD PUSH1 0x0 DUP2 MSTORE PUSH1 0x20 ADD PUSH1 0x0 DUP2 MSTORE POP SWAP1 JUMP JUMPDEST PUSH1 0x0 PUSH1 0x40 MLOAD SWAP1 POP SWAP1 JUMP JUMPDEST PUSH1 0x0 DUP1 REVERT JUMPDEST PUSH1 0x0 DUP1 REVERT JUMPDEST PUSH1 0x0 PUSH20 0xFFFFFFFFFFFFFFFFFFFFFFFFFFFFFFFFFFFFFFFF DUP3 AND SWAP1 POP SWAP2 SWAP1 POP JUMP JUMPDEST PUSH1 0x0 PUSH2 0x12A9 DUP3 PUSH2 0x127E JUMP JUMPDEST SWAP1 POP SWAP2 SWAP1 POP JUMP JUMPDEST PUSH2 0x12B9 DUP2 PUSH2 0x129E JUMP JUMPDEST DUP2 EQ PUSH2 0x12C4 JUMPI PUSH1 0x0 DUP1 REVERT JUMPDEST POP JUMP JUMPDEST PUSH1 0x0 DUP2 CALLDATALOAD SWAP1 POP PUSH2 0x12D6 DUP2 PUSH2 0x12B0 JUMP JUMPDEST SWAP3 SWAP2 POP POP JUMP JUMPDEST PUSH1 0x0 PUSH1 0x20 DUP3 DUP5 SUB SLT ISZERO PUSH2 0x12F2 JUMPI PUSH2 0x12F1 PUSH2 0x1274 JUMP JUMPDEST JUMPDEST PUSH1 0x0 PUSH2 0x1300 DUP5 DUP3 DUP6 ADD PUSH2 0x12C7 JUMP JUMPDEST SWAP2 POP POP SWAP3 SWAP2 POP POP JUMP JUMPDEST PUSH1 0x0 DUP2 SWAP1 POP SWAP2 SWAP1 POP JUMP JUMPDEST PUSH2 0x131C DUP2 PUSH2 0x1309 JUMP JUMPDEST DUP3 MSTORE POP POP JUMP JUMPDEST PUSH1 0x0 PUSH1 0x20 DUP3 ADD SWAP1 POP PUSH2 0x1337 PUSH1 0x0 DUP4 ADD DUP5 PUSH2 0x1313 JUMP JUMPDEST SWAP3 SWAP2 POP POP JUMP JUMPDEST PUSH2 0x1346 DUP2 PUSH2 0x1309 JUMP JUMPDEST DUP2 EQ PUSH2 0x1351 JUMPI PUSH1 0x0 DUP1 REVERT JUMPDEST POP JUMP JUMPDEST PUSH1 0x0 DUP2 CALLDATALOAD SWAP1 POP PUSH2 0x1363 DUP2 PUSH2 0x133D JUMP JUMPDEST SWAP3 SWAP2 POP POP JUMP JUMPDEST PUSH1 0x0 PUSH1 0x20 DUP3 DUP5 SUB SLT ISZERO PUSH2 0x137F JUMPI PUSH2 0x137E PUSH2 0x1274 JUMP JUMPDEST JUMPDEST PUSH1 0x0 PUSH2 0x138D DUP5 DUP3 DUP6 ADD PUSH2 0x1354 JUMP JUMPDEST SWAP2 POP POP SWAP3 SWAP2 POP POP JUMP JUMPDEST PUSH1 0x0 DUP2 MLOAD SWAP1 POP SWAP2 SWAP1 POP JUMP JUMPDEST PUSH1 0x0 DUP3 DUP3 MSTORE PUSH1 0x20 DUP3 ADD SWAP1 POP SWAP3 SWAP2 POP POP JUMP JUMPDEST PUSH1 0x0 JUMPDEST DUP4 DUP2 LT ISZERO PUSH2 0x13D0 JUMPI DUP1 DUP3 ADD MLOAD DUP2 DUP5 ADD MSTORE PUSH1 0x20 DUP2 ADD SWAP1 POP PUSH2 0x13B5 JUMP JUMPDEST PUSH1 0x0 DUP5 DUP5 ADD MSTORE POP POP POP POP JUMP JUMPDEST PUSH1 0x0 PUSH1 0x1F NOT PUSH1 0x1F DUP4 ADD AND SWAP1 POP SWAP2 SWAP1 POP JUMP JUMPDEST PUSH1 0x0 PUSH2 0x13F8 DUP3 PUSH2 0x1396 JUMP JUMPDEST PUSH2 0x1402 DUP2 DUP6 PUSH2 0x13A1 JUMP JUMPDEST SWAP4 POP PUSH2 0x1412 DUP2 DUP6 PUSH1 0x20 DUP7 ADD PUSH2 0x13B2 JUMP JUMPDEST PUSH2 0x141B DUP2 PUSH2 0x13DC JUMP JUMPDEST DUP5 ADD SWAP2 POP POP SWAP3 SWAP2 POP POP JUMP JUMPDEST PUSH1 0x0 DUP2 MLOAD SWAP1 POP SWAP2 SWAP1 POP JUMP JUMPDEST PUSH1 0x0 DUP3 DUP3 MSTORE PUSH1 0x20 DUP3 ADD SWAP1 POP SWAP3 SWAP2 POP POP JUMP JUMPDEST PUSH1 0x0 PUSH2 0x144D DUP3 PUSH2 0x1426 JUMP JUMPDEST PUSH2 0x1457 DUP2 DUP6 PUSH2 0x1431 JUMP JUMPDEST SWAP4 POP PUSH2 0x1467 DUP2 DUP6 PUSH1 0x20 DUP7 ADD PUSH2 0x13B2 JUMP JUMPDEST PUSH2 0x1470 DUP2 PUSH2 0x13DC JUMP JUMPDEST DUP5 ADD SWAP2 POP POP SWAP3 SWAP2 POP POP JUMP JUMPDEST PUSH2 0x1484 DUP2 PUSH2 0x129E JUMP JUMPDEST DUP3 MSTORE POP POP JUMP JUMPDEST PUSH1 0x0 PUSH1 0x80 DUP3 ADD SWAP1 POP PUSH2 0x149F PUSH1 0x0 DUP4 ADD DUP8 PUSH2 0x1313 JUMP JUMPDEST DUP2 DUP2 SUB PUSH1 0x20 DUP4 ADD MSTORE PUSH2 0x14B1 DUP2 DUP7 PUSH2 0x13ED JUMP JUMPDEST SWAP1 POP DUP2 DUP2 SUB PUSH1 0x40 DUP4 ADD MSTORE PUSH2 0x14C5 DUP2 DUP6 PUSH2 0x1442 JUMP JUMPDEST SWAP1 POP PUSH2 0x14D4 PUSH1 0x60 DUP4 ADD DUP5 PUSH2 0x147B JUMP JUMPDEST SWAP6 SWAP5 POP POP POP POP POP JUMP JUMPDEST PUSH1 0x0 DUP1 REVERT JUMPDEST PUSH1 0x0 DUP1 REVERT JUMPDEST PUSH32 0x4E487B7100000000000000000000000000000000000000000000000000000000 PUSH1 0x0 MSTORE PUSH1 0x41 PUSH1 0x4 MSTORE PUSH1 0x24 PUSH1 0x0 REVERT JUMPDEST PUSH2 0x151F DUP3 PUSH2 0x13DC JUMP JUMPDEST DUP2 ADD DUP2 DUP2 LT PUSH8 0xFFFFFFFFFFFFFFFF DUP3 GT OR ISZERO PUSH2 0x153E JUMPI PUSH2 0x153D PUSH2 0x14E7 JUMP JUMPDEST JUMPDEST DUP1 PUSH1 0x40 MSTORE POP POP POP JUMP JUMPDEST PUSH1 0x0 PUSH2 0x1551 PUSH2 0x126A JUMP JUMPDEST SWAP1 POP PUSH2 0x155D DUP3 DUP3 PUSH2 0x1516 JUMP JUMPDEST SWAP2 SWAP1 POP JUMP JUMPDEST PUSH1 0x0 PUSH8 0xFFFFFFFFFFFFFFFF DUP3 GT ISZERO PUSH2 0x157D JUMPI PUSH2 0x157C PUSH2 0x14E7 JUMP JUMPDEST JUMPDEST PUSH2 0x1586 DUP3 PUSH2 0x13DC JUMP JUMPDEST SWAP1 POP PUSH1 0x20 DUP2 ADD SWAP1 POP SWAP2 SWAP1 POP JUMP JUMPDEST DUP3 DUP2 DUP4 CALLDATACOPY PUSH1 0x0 DUP4 DUP4 ADD MSTORE POP POP POP JUMP JUMPDEST PUSH1 0x0 PUSH2 0x15B5 PUSH2 0x15B0 DUP5 PUSH2 0x1562 JUMP JUMPDEST PUSH2 0x1547 JUMP JUMPDEST SWAP1 POP DUP3 DUP2 MSTORE PUSH1 0x20 DUP2 ADD DUP5 DUP5 DUP5 ADD GT ISZERO PUSH2 0x15D1 JUMPI PUSH2 0x15D0 PUSH2 0x14E2 JUMP JUMPDEST JUMPDEST PUSH2 0x15DC DUP5 DUP3 DUP6 PUSH2 0x1593 JUMP JUMPDEST POP SWAP4 SWAP3 POP POP POP JUMP JUMPDEST PUSH1 0x0 DUP3 PUSH1 0x1F DUP4 ADD SLT PUSH2 0x15F9 JUMPI PUSH2 0x15F8 PUSH2 0x14DD JUMP JUMPDEST JUMPDEST DUP2 CALLDATALOAD PUSH2 0x1609 DUP5 DUP3 PUSH1 0x20 DUP7 ADD PUSH2 0x15A2 JUMP JUMPDEST SWAP2 POP POP SWAP3 SWAP2 POP POP JUMP JUMPDEST PUSH1 0x0 DUP1 PUSH1 0x0 DUP1 PUSH1 0x80 DUP6 DUP8 SUB SLT ISZERO PUSH2 0x162C JUMPI PUSH2 0x162B PUSH2 0x1274 JUMP JUMPDEST JUMPDEST PUSH1 0x0 PUSH2 0x163A DUP8 DUP3 DUP9 ADD PUSH2 0x1354 JUMP JUMPDEST SWAP5 POP POP PUSH1 0x20 PUSH2 0x164B DUP8 DUP3 DUP9 ADD PUSH2 0x1354 JUMP JUMPDEST SWAP4 POP POP PUSH1 0x40 PUSH2 0x165C DUP8 DUP3 DUP9 ADD PUSH2 0x1354 JUMP JUMPDEST SWAP3 POP POP PUSH1 0x60 DUP6 ADD CALLDATALOAD PUSH8 0xFFFFFFFFFFFFFFFF DUP2 GT ISZERO PUSH2 0x167D JUMPI PUSH2 0x167C PUSH2 0x1279 JUMP JUMPDEST JUMPDEST PUSH2 0x1689 DUP8 DUP3 DUP9 ADD PUSH2 0x15E4 JUMP JUMPDEST SWAP2 POP POP SWAP3 SWAP6 SWAP2 SWAP5 POP SWAP3 POP JUMP JUMPDEST PUSH1 0x0 DUP1 PUSH1 0x0 PUSH1 0x60 DUP5 DUP7 SUB SLT ISZERO PUSH2 0x16AE JUMPI PUSH2 0x16AD PUSH2 0x1274 JUMP JUMPDEST JUMPDEST PUSH1 0x0 PUSH2 0x16BC DUP7 DUP3 DUP8 ADD PUSH2 0x1354 JUMP JUMPDEST SWAP4 POP POP PUSH1 0x20 PUSH2 0x16CD DUP7 DUP3 DUP8 ADD PUSH2 0x1354 JUMP JUMPDEST SWAP3 POP POP PUSH1 0x40 PUSH2 0x16DE DUP7 DUP3 DUP8 ADD PUSH2 0x1354 JUMP JUMPDEST SWAP2 POP POP SWAP3 POP SWAP3 POP SWAP3 JUMP JUMPDEST PUSH1 0x0 PUSH1 0x20 DUP3 ADD SWAP1 POP DUP2 DUP2 SUB PUSH1 0x0 DUP4 ADD MSTORE PUSH2 0x1702 DUP2 DUP5 PUSH2 0x1442 JUMP JUMPDEST SWAP1 POP SWAP3 SWAP2 POP POP JUMP JUMPDEST PUSH1 0x0 PUSH1 0x20 DUP3 ADD SWAP1 POP PUSH2 0x171F PUSH1 0x0 DUP4 ADD DUP5 PUSH2 0x147B JUMP JUMPDEST SWAP3 SWAP2 POP POP JUMP JUMPDEST PUSH1 0x0 PUSH1 0x20 DUP3 ADD SWAP1 POP DUP2 DUP2 SUB PUSH1 0x0 DUP4 ADD MSTORE PUSH2 0x173F DUP2 DUP5 PUSH2 0x13ED JUMP JUMPDEST SWAP1 POP SWAP3 SWAP2 POP POP JUMP JUMPDEST PUSH1 0x0 DUP2 MLOAD SWAP1 POP SWAP2 SWAP1 POP JUMP JUMPDEST PUSH1 0x0 DUP3 DUP3 MSTORE PUSH1 0x20 DUP3 ADD SWAP1 POP SWAP3 SWAP2 POP POP JUMP JUMPDEST PUSH1 0x0 DUP2 SWAP1 POP PUSH1 0x20 DUP3 ADD SWAP1 POP SWAP2 SWAP1 POP JUMP JUMPDEST PUSH2 0x177C DUP2 PUSH2 0x1309 JUMP JUMPDEST DUP3 MSTORE POP POP JUMP JUMPDEST PUSH1 0x0 PUSH2 0x178E DUP4 DUP4 PUSH2 0x1773 JUMP JUMPDEST PUSH1 0x20 DUP4 ADD SWAP1 POP SWAP3 SWAP2 POP POP JUMP JUMPDEST PUSH1 0x0 PUSH1 0x20 DUP3 ADD SWAP1 POP SWAP2 SWAP1 POP JUMP JUMPDEST PUSH1 0x0 PUSH2 0x17B2 DUP3 PUSH2 0x1747 JUMP JUMPDEST PUSH2 0x17BC DUP2 DUP6 PUSH2 0x1752 JUMP JUMPDEST SWAP4 POP PUSH2 0x17C7 DUP4 PUSH2 0x1763 JUMP JUMPDEST DUP1 PUSH1 0x0 JUMPDEST DUP4 DUP2 LT ISZERO PUSH2 0x17F8 JUMPI DUP2 MLOAD PUSH2 0x17DF DUP9 DUP3 PUSH2 0x1782 JUMP JUMPDEST SWAP8 POP PUSH2 0x17EA DUP4 PUSH2 0x179A JUMP JUMPDEST SWAP3 POP POP PUSH1 0x1 DUP2 ADD SWAP1 POP PUSH2 0x17CB JUMP JUMPDEST POP DUP6 SWAP4 POP POP POP POP SWAP3 SWAP2 POP POP JUMP JUMPDEST PUSH1 0x0 PUSH1 0x20 DUP3 ADD SWAP1 POP DUP2 DUP2 SUB PUSH1 0x0 DUP4 ADD MSTORE PUSH2 0x181F DUP2 DUP5 PUSH2 0x17A7 JUMP JUMPDEST SWAP1 POP SWAP3 SWAP2 POP POP JUMP JUMPDEST PUSH1 0x0 DUP1 PUSH1 0x40 DUP4 DUP6 SUB SLT ISZERO PUSH2 0x183E JUMPI PUSH2 0x183D PUSH2 0x1274 JUMP JUMPDEST JUMPDEST PUSH1 0x0 DUP4 ADD CALLDATALOAD PUSH8 0xFFFFFFFFFFFFFFFF DUP2 GT ISZERO PUSH2 0x185C JUMPI PUSH2 0x185B PUSH2 0x1279 JUMP JUMPDEST JUMPDEST PUSH2 0x1868 DUP6 DUP3 DUP7 ADD PUSH2 0x15E4 JUMP JUMPDEST SWAP3 POP POP PUSH1 0x20 DUP4 ADD CALLDATALOAD PUSH8 0xFFFFFFFFFFFFFFFF DUP2 GT ISZERO PUSH2 0x1889 JUMPI PUSH2 0x1888 PUSH2 0x1279 JUMP JUMPDEST JUMPDEST PUSH2 0x1895 DUP6 DUP3 DUP7 ADD PUSH2 0x15E4 JUMP JUMPDEST SWAP2 POP POP SWAP3 POP SWAP3 SWAP1 POP JUMP JUMPDEST PUSH1 0x80 DUP3 ADD PUSH1 0x0 DUP3 ADD MLOAD PUSH2 0x18B5 PUSH1 0x0 DUP6 ADD DUP3 PUSH2 0x1773 JUMP JUMPDEST POP PUSH1 0x20 DUP3 ADD MLOAD PUSH2 0x18C8 PUSH1 0x20 DUP6 ADD DUP3 PUSH2 0x1773 JUMP JUMPDEST POP PUSH1 0x40 DUP3 ADD MLOAD PUSH2 0x18DB PUSH1 0x40 DUP6 ADD DUP3 PUSH2 0x1773 JUMP JUMPDEST POP PUSH1 0x60 DUP3 ADD MLOAD PUSH2 0x18EE PUSH1 0x60 DUP6 ADD DUP3 PUSH2 0x1773 JUMP JUMPDEST POP POP POP POP JUMP JUMPDEST PUSH32 0x4E487B7100000000000000000000000000000000000000000000000000000000 PUSH1 0x0 MSTORE PUSH1 0x21 PUSH1 0x4 MSTORE PUSH1 0x24 PUSH1 0x0 REVERT JUMPDEST PUSH1 0x2 DUP2 LT PUSH2 0x1934 JUMPI PUSH2 0x1933 PUSH2 0x18F4 JUMP JUMPDEST JUMPDEST POP JUMP JUMPDEST PUSH1 0x0 DUP2 SWAP1 POP PUSH2 0x1945 DUP3 PUSH2 0x1923 JUMP JUMPDEST SWAP2 SWAP1 POP JUMP JUMPDEST PUSH1 0x0 PUSH2 0x1955 DUP3 PUSH2 0x1937 JUMP JUMPDEST SWAP1 POP SWAP2 SWAP1 POP JUMP JUMPDEST PUSH2 0x1965 DUP2 PUSH2 0x194A JUMP JUMPDEST DUP3 MSTORE POP POP JUMP JUMPDEST PUSH1 0x6 DUP2 LT PUSH2 0x197C JUMPI PUSH2 0x197B PUSH2 0x18F4 JUMP JUMPDEST JUMPDEST POP JUMP JUMPDEST PUSH1 0x0 DUP2 SWAP1 POP PUSH2 0x198D DUP3 PUSH2 0x196B JUMP JUMPDEST SWAP2 SWAP1 POP JUMP JUMPDEST PUSH1 0x0 PUSH2 0x199D DUP3 PUSH2 0x197F JUMP JUMPDEST SWAP1 POP SWAP2 SWAP1 POP JUMP JUMPDEST PUSH2 0x19AD DUP2 PUSH2 0x1992 JUMP JUMPDEST DUP3 MSTORE POP POP JUMP JUMPDEST PUSH2 0x1A0 DUP3 ADD PUSH1 0x0 DUP3 ADD MLOAD PUSH2 0x19CA PUSH1 0x0 DUP6 ADD DUP3 PUSH2 0x1773 JUMP JUMPDEST POP PUSH1 0x20 DUP3 ADD MLOAD PUSH2 0x19DD PUSH1 0x20 DUP6 ADD DUP3 PUSH2 0x1773 JUMP JUMPDEST POP PUSH1 0x40 DUP3 ADD MLOAD PUSH2 0x19F0 PUSH1 0x40 DUP6 ADD DUP3 PUSH2 0x189F JUMP JUMPDEST POP PUSH1 0x60 DUP3 ADD MLOAD PUSH2 0x1A03 PUSH1 0xC0 DUP6 ADD DUP3 PUSH2 0x1773 JUMP JUMPDEST POP PUSH1 0x80 DUP3 ADD MLOAD PUSH2 0x1A16 PUSH1 0xE0 DUP6 ADD DUP3 PUSH2 0x1773 JUMP JUMPDEST POP PUSH1 0xA0 DUP3 ADD MLOAD PUSH2 0x1A2A PUSH2 0x100 DUP6 ADD DUP3 PUSH2 0x1773 JUMP JUMPDEST POP PUSH1 0xC0 DUP3 ADD MLOAD PUSH2 0x1A3E PUSH2 0x120 DUP6 ADD DUP3 PUSH2 0x195C JUMP JUMPDEST POP PUSH1 0xE0 DUP3 ADD MLOAD PUSH2 0x1A52 PUSH2 0x140 DUP6 ADD DUP3 PUSH2 0x19A4 JUMP JUMPDEST POP PUSH2 0x100 DUP3 ADD MLOAD PUSH2 0x1A67 PUSH2 0x160 DUP6 ADD DUP3 PUSH2 0x1773 JUMP JUMPDEST POP PUSH2 0x120 DUP3 ADD MLOAD PUSH2 0x1A7C PUSH2 0x180 DUP6 ADD DUP3 PUSH2 0x1773 JUMP JUMPDEST POP POP POP POP JUMP JUMPDEST PUSH1 0x0 PUSH2 0x1A0 DUP3 ADD SWAP1 POP PUSH2 0x1A98 PUSH1 0x0 DUP4 ADD DUP5 PUSH2 0x19B3 JUMP JUMPDEST SWAP3 SWAP2 POP POP JUMP JUMPDEST PUSH1 0x0 DUP1 PUSH1 0x0 PUSH1 0x60 DUP5 DUP7 SUB SLT ISZERO PUSH2 0x1AB7 JUMPI PUSH2 0x1AB6 PUSH2 0x1274 JUMP JUMPDEST JUMPDEST PUSH1 0x0 PUSH2 0x1AC5 DUP7 DUP3 DUP8 ADD PUSH2 0x1354 JUMP JUMPDEST SWAP4 POP POP PUSH1 0x20 DUP5 ADD CALLDATALOAD PUSH8 0xFFFFFFFFFFFFFFFF DUP2 GT ISZERO PUSH2 0x1AE6 JUMPI PUSH2 0x1AE5 PUSH2 0x1279 JUMP JUMPDEST JUMPDEST PUSH2 0x1AF2 DUP7 DUP3 DUP8 ADD PUSH2 0x15E4 JUMP JUMPDEST SWAP3 POP POP PUSH1 0x40 DUP5 ADD CALLDATALOAD PUSH8 0xFFFFFFFFFFFFFFFF DUP2 GT ISZERO PUSH2 0x1B13 JUMPI PUSH2 0x1B12 PUSH2 0x1279 JUMP JUMPDEST JUMPDEST PUSH2 0x1B1F DUP7 DUP3 DUP8 ADD PUSH2 0x15E4 JUMP JUMPDEST SWAP2 POP POP SWAP3 POP SWAP3 POP SWAP3 JUMP JUMPDEST PUSH1 0x0 DUP1 PUSH1 0x40 DUP4 DUP6 SUB SLT ISZERO PUSH2 0x1B40 JUMPI PUSH2 0x1B3F PUSH2 0x1274 JUMP JUMPDEST JUMPDEST PUSH1 0x0 PUSH2 0x1B4E DUP6 DUP3 DUP7 ADD PUSH2 0x1354 JUMP JUMPDEST SWAP3 POP POP PUSH1 0x20 PUSH2 0x1B5F DUP6 DUP3 DUP7 ADD PUSH2 0x1354 JUMP JUMPDEST SWAP2 POP POP SWAP3 POP SWAP3 SWAP1 POP JUMP JUMPDEST PUSH1 0x0 PUSH8 0xFFFFFFFFFFFFFFFF DUP3 GT ISZERO PUSH2 0x1B84 JUMPI PUSH2 0x1B83 PUSH2 0x14E7 JUMP JUMPDEST JUMPDEST PUSH2 0x1B8D DUP3 PUSH2 0x13DC JUMP JUMPDEST SWAP1 POP PUSH1 0x20 DUP2 ADD SWAP1 POP SWAP2 SWAP1 POP JUMP JUMPDEST PUSH1 0x0 PUSH2 0x1BAD PUSH2 0x1BA8 DUP5 PUSH2 0x1B69 JUMP JUMPDEST PUSH2 0x1547 JUMP JUMPDEST SWAP1 POP DUP3 DUP2 MSTORE PUSH1 0x20 DUP2 ADD DUP5 DUP5 DUP5 ADD GT ISZERO PUSH2 0x1BC9 JUMPI PUSH2 0x1BC8 PUSH2 0x14E2 JUMP JUMPDEST JUMPDEST PUSH2 0x1BD4 DUP5 DUP3 DUP6 PUSH2 0x1593 JUMP JUMPDEST POP SWAP4 SWAP3 POP POP POP JUMP JUMPDEST PUSH1 0x0 DUP3 PUSH1 0x1F DUP4 ADD SLT PUSH2 0x1BF1 JUMPI PUSH2 0x1BF0 PUSH2 0x14DD JUMP JUMPDEST JUMPDEST DUP2 CALLDATALOAD PUSH2 0x1C01 DUP5 DUP3 PUSH1 0x20 DUP7 ADD PUSH2 0x1B9A JUMP JUMPDEST SWAP2 POP POP SWAP3 SWAP2 POP POP JUMP JUMPDEST PUSH1 0x0 DUP1 PUSH1 0x0 DUP1 PUSH1 0x0 DUP1 PUSH1 0x0 PUSH1 0xE0 DUP9 DUP11 SUB SLT ISZERO PUSH2 0x1C29 JUMPI PUSH2 0x1C28 PUSH2 0x1274 JUMP JUMPDEST JUMPDEST PUSH1 0x0 PUSH2 0x1C37 DUP11 DUP3 DUP12 ADD PUSH2 0x1354 JUMP JUMPDEST SWAP8 POP POP PUSH1 0x20 PUSH2 0x1C48 DUP11 DUP3 DUP12 ADD PUSH2 0x1354 JUMP JUMPDEST SWAP7 POP POP PUSH1 0x40 DUP9 ADD CALLDATALOAD PUSH8 0xFFFFFFFFFFFFFFFF DUP2 GT ISZERO PUSH2 0x1C69 JUMPI PUSH2 0x1C68 PUSH2 0x1279 JUMP JUMPDEST JUMPDEST PUSH2 0x1C75 DUP11 DUP3 DUP12 ADD PUSH2 0x1BDC JUMP JUMPDEST SWAP6 POP POP PUSH1 0x60 PUSH2 0x1C86 DUP11 DUP3 DUP12 ADD PUSH2 0x1354 JUMP JUMPDEST SWAP5 POP POP PUSH1 0x80 PUSH2 0x1C97 DUP11 DUP3 DUP12 ADD PUSH2 0x1354 JUMP JUMPDEST SWAP4 POP POP PUSH1 0xA0 DUP9 ADD CALLDATALOAD PUSH8 0xFFFFFFFFFFFFFFFF DUP2 GT ISZERO PUSH2 0x1CB8 JUMPI PUSH2 0x1CB7 PUSH2 0x1279 JUMP JUMPDEST JUMPDEST PUSH2 0x1CC4 DUP11 DUP3 DUP12 ADD PUSH2 0x15E4 JUMP JUMPDEST SWAP3 POP POP PUSH1 0xC0 DUP9 ADD CALLDATALOAD PUSH8 0xFFFFFFFFFFFFFFFF DUP2 GT ISZERO PUSH2 0x1CE5 JUMPI PUSH2 0x1CE4 PUSH2 0x1279 JUMP JUMPDEST JUMPDEST PUSH2 0x1CF1 DUP11 DUP3 DUP12 ADD PUSH2 0x15E4 JUMP JUMPDEST SWAP2 POP POP SWAP3 SWAP6 SWAP9 SWAP2 SWAP5 SWAP8 POP SWAP3 SWAP6 POP JUMP JUMPDEST PUSH32 0x4E487B7100000000000000000000000000000000000000000000000000000000 PUSH1 0x0 MSTORE PUSH1 0x22 PUSH1 0x4 MSTORE PUSH1 0x24 PUSH1 0x0 REVERT JUMPDEST PUSH1 0x0 PUSH1 0x2 DUP3 DIV SWAP1 POP PUSH1 0x1 DUP3 AND DUP1 PUSH2 0x1D47 JUMPI PUSH1 0x7F DUP3 AND SWAP2 POP JUMPDEST PUSH1 0x20 DUP3 LT DUP2 SUB PUSH2 0x1D5A JUMPI PUSH2 0x1D59 PUSH2 0x1D00 JUMP JUMPDEST JUMPDEST POP SWAP2 SWAP1 POP JUMP JUMPDEST PUSH32 0x496E76616C6964207374616B65686F6C64657221000000000000000000000000 PUSH1 0x0 DUP3 ADD MSTORE POP JUMP JUMPDEST PUSH1 0x0 PUSH2 0x1D96 PUSH1 0x14 DUP4 PUSH2 0x13A1 JUMP JUMPDEST SWAP2 POP PUSH2 0x1DA1 DUP3 PUSH2 0x1D60 JUMP JUMPDEST PUSH1 0x20 DUP3 ADD SWAP1 POP SWAP2 SWAP1 POP JUMP JUMPDEST PUSH1 0x0 PUSH1 0x20 DUP3 ADD SWAP1 POP DUP2 DUP2 SUB PUSH1 0x0 DUP4 ADD MSTORE PUSH2 0x1DC5 DUP2 PUSH2 0x1D89 JUMP JUMPDEST SWAP1 POP SWAP2 SWAP1 POP JUMP JUMPDEST PUSH1 0x0 PUSH1 0x60 DUP3 ADD SWAP1 POP PUSH2 0x1DE1 PUSH1 0x0 DUP4 ADD DUP7 PUSH2 0x1313 JUMP JUMPDEST PUSH2 0x1DEE PUSH1 0x20 DUP4 ADD DUP6 PUSH2 0x1313 JUMP JUMPDEST PUSH2 0x1DFB PUSH1 0x40 DUP4 ADD DUP5 PUSH2 0x1313 JUMP JUMPDEST SWAP5 SWAP4 POP POP POP POP JUMP JUMPDEST PUSH1 0x0 PUSH2 0x1E16 PUSH2 0x1E11 DUP5 PUSH2 0x1B69 JUMP JUMPDEST PUSH2 0x1547 JUMP JUMPDEST SWAP1 POP DUP3 DUP2 MSTORE PUSH1 0x20 DUP2 ADD DUP5 DUP5 DUP5 ADD GT ISZERO PUSH2 0x1E32 JUMPI PUSH2 0x1E31 PUSH2 0x14E2 JUMP JUMPDEST JUMPDEST PUSH2 0x1E3D DUP5 DUP3 DUP6 PUSH2 0x13B2 JUMP JUMPDEST POP SWAP4 SWAP3 POP POP POP JUMP JUMPDEST PUSH1 0x0 DUP3 PUSH1 0x1F DUP4 ADD SLT PUSH2 0x1E5A JUMPI PUSH2 0x1E59 PUSH2 0x14DD JUMP JUMPDEST JUMPDEST DUP2 MLOAD PUSH2 0x1E6A DUP5 DUP3 PUSH1 0x20 DUP7 ADD PUSH2 0x1E03 JUMP JUMPDEST SWAP2 POP POP SWAP3 SWAP2 POP POP JUMP JUMPDEST PUSH1 0x0 PUSH1 0x20 DUP3 DUP5 SUB SLT ISZERO PUSH2 0x1E89 JUMPI PUSH2 0x1E88 PUSH2 0x1274 JUMP JUMPDEST JUMPDEST PUSH1 0x0 DUP3 ADD MLOAD PUSH8 0xFFFFFFFFFFFFFFFF DUP2 GT ISZERO PUSH2 0x1EA7 JUMPI PUSH2 0x1EA6 PUSH2 0x1279 JUMP JUMPDEST JUMPDEST PUSH2 0x1EB3 DUP5 DUP3 DUP6 ADD PUSH2 0x1E45 JUMP JUMPDEST SWAP2 POP POP SWAP3 SWAP2 POP POP JUMP JUMPDEST PUSH32 0x4E487B7100000000000000000000000000000000000000000000000000000000 PUSH1 0x0 MSTORE PUSH1 0x11 PUSH1 0x4 MSTORE PUSH1 0x24 PUSH1 0x0 REVERT JUMPDEST PUSH1 0x0 PUSH2 0x1EF6 DUP3 PUSH2 0x1309 JUMP JUMPDEST SWAP2 POP PUSH32 0xFFFFFFFFFFFFFFFFFFFFFFFFFFFFFFFFFFFFFFFFFFFFFFFFFFFFFFFFFFFFFFFF DUP3 SUB PUSH2 0x1F28 JUMPI PUSH2 0x1F27 PUSH2 0x1EBC JUMP JUMPDEST JUMPDEST PUSH1 0x1 DUP3 ADD SWAP1 POP SWAP2 SWAP1 POP JUMP JUMPDEST PUSH1 0x0 DUP2 SWAP1 POP DUP2 PUSH1 0x0 MSTORE PUSH1 0x20 PUSH1 0x0 KECCAK256 SWAP1 POP SWAP2 SWAP1 POP JUMP JUMPDEST PUSH1 0x0 PUSH1 0x20 PUSH1 0x1F DUP4 ADD DIV SWAP1 POP SWAP2 SWAP1 POP JUMP JUMPDEST PUSH1 0x0 DUP3 DUP3 SHL SWAP1 POP SWAP3 SWAP2 POP POP JUMP JUMPDEST PUSH1 0x0 PUSH1 0x8 DUP4 MUL PUSH2 0x1F95 PUSH32 0xFFFFFFFFFFFFFFFFFFFFFFFFFFFFFFFFFFFFFFFFFFFFFFFFFFFFFFFFFFFFFFFF DUP3 PUSH2 0x1F58 JUMP JUMPDEST PUSH2 0x1F9F DUP7 DUP4 PUSH2 0x1F58 JUMP JUMPDEST SWAP6 POP DUP1 NOT DUP5 AND SWAP4 POP DUP1 DUP7 AND DUP5 OR SWAP3 POP POP POP SWAP4 SWAP3 POP POP POP JUMP JUMPDEST PUSH1 0x0 DUP2 SWAP1 POP SWAP2 SWAP1 POP JUMP JUMPDEST PUSH1 0x0 PUSH2 0x1FDC PUSH2 0x1FD7 PUSH2 0x1FD2 DUP5 PUSH2 0x1309 JUMP JUMPDEST PUSH2 0x1FB7 JUMP JUMPDEST PUSH2 0x1309 JUMP JUMPDEST SWAP1 POP SWAP2 SWAP1 POP JUMP JUMPDEST PUSH1 0x0 DUP2 SWAP1 POP SWAP2 SWAP1 POP JUMP JUMPDEST PUSH2 0x1FF6 DUP4 PUSH2 0x1FC1 JUMP JUMPDEST PUSH2 0x200A PUSH2 0x2002 DUP3 PUSH2 0x1FE3 JUMP JUMPDEST DUP5 DUP5 SLOAD PUSH2 0x1F65 JUMP JUMPDEST DUP3 SSTORE POP POP POP POP JUMP JUMPDEST PUSH1 0x0 SWAP1 JUMP JUMPDEST PUSH2 0x201F PUSH2 0x2012 JUMP JUMPDEST PUSH2 0x202A DUP2 DUP5 DUP5 PUSH2 0x1FED JUMP JUMPDEST POP POP POP JUMP JUMPDEST JUMPDEST DUP2 DUP2 LT ISZERO PUSH2 0x204E JUMPI PUSH2 0x2043 PUSH1 0x0 DUP3 PUSH2 0x2017 JUMP JUMPDEST PUSH1 0x1 DUP2 ADD SWAP1 POP PUSH2 0x2030 JUMP JUMPDEST POP POP JUMP JUMPDEST PUSH1 0x1F DUP3 GT ISZERO PUSH2 0x2093 JUMPI PUSH2 0x2064 DUP2 PUSH2 0x1F33 JUMP JUMPDEST PUSH2 0x206D DUP5 PUSH2 0x1F48 JUMP JUMPDEST DUP2 ADD PUSH1 0x20 DUP6 LT ISZERO PUSH2 0x207C JUMPI DUP2 SWAP1 POP JUMPDEST PUSH2 0x2090 PUSH2 0x2088 DUP6 PUSH2 0x1F48 JUMP JUMPDEST DUP4 ADD DUP3 PUSH2 0x202F JUMP JUMPDEST POP POP JUMPDEST POP POP POP JUMP JUMPDEST PUSH1 0x0 DUP3 DUP3 SHR SWAP1 POP SWAP3 SWAP2 POP POP JUMP JUMPDEST PUSH1 0x0 PUSH2 0x20B6 PUSH1 0x0 NOT DUP5 PUSH1 0x8 MUL PUSH2 0x2098 JUMP JUMPDEST NOT DUP1 DUP4 AND SWAP2 POP POP SWAP3 SWAP2 POP POP JUMP JUMPDEST PUSH1 0x0 PUSH2 0x20CF DUP4 DUP4 PUSH2 0x20A5 JUMP JUMPDEST SWAP2 POP DUP3 PUSH1 0x2 MUL DUP3 OR SWAP1 POP SWAP3 SWAP2 POP POP JUMP JUMPDEST PUSH2 0x20E8 DUP3 PUSH2 0x1396 JUMP JUMPDEST PUSH8 0xFFFFFFFFFFFFFFFF DUP2 GT ISZERO PUSH2 0x2101 JUMPI PUSH2 0x2100 PUSH2 0x14E7 JUMP JUMPDEST JUMPDEST PUSH2 0x210B DUP3 SLOAD PUSH2 0x1D2F JUMP JUMPDEST PUSH2 0x2116 DUP3 DUP3 DUP6 PUSH2 0x2052 JUMP JUMPDEST PUSH1 0x0 PUSH1 0x20 SWAP1 POP PUSH1 0x1F DUP4 GT PUSH1 0x1 DUP2 EQ PUSH2 0x2149 JUMPI PUSH1 0x0 DUP5 ISZERO PUSH2 0x2137 JUMPI DUP3 DUP8 ADD MLOAD SWAP1 POP JUMPDEST PUSH2 0x2141 DUP6 DUP3 PUSH2 0x20C3 JUMP JUMPDEST DUP7 SSTORE POP PUSH2 0x21A9 JUMP JUMPDEST PUSH1 0x1F NOT DUP5 AND PUSH2 0x2157 DUP7 PUSH2 0x1F33 JUMP JUMPDEST PUSH1 0x0 JUMPDEST DUP3 DUP2 LT ISZERO PUSH2 0x217F JUMPI DUP5 DUP10 ADD MLOAD DUP3 SSTORE PUSH1 0x1 DUP3 ADD SWAP2 POP PUSH1 0x20 DUP6 ADD SWAP5 POP PUSH1 0x20 DUP2 ADD SWAP1 POP PUSH2 0x215A JUMP JUMPDEST DUP7 DUP4 LT ISZERO PUSH2 0x219C JUMPI DUP5 DUP10 ADD MLOAD PUSH2 0x2198 PUSH1 0x1F DUP10 AND DUP3 PUSH2 0x20A5 JUMP JUMPDEST DUP4 SSTORE POP JUMPDEST PUSH1 0x1 PUSH1 0x2 DUP9 MUL ADD DUP9 SSTORE POP POP POP JUMPDEST POP POP POP POP POP POP JUMP JUMPDEST PUSH1 0x0 DUP2 SWAP1 POP SWAP3 SWAP2 POP POP JUMP JUMPDEST PUSH1 0x0 PUSH2 0x21C7 DUP3 PUSH2 0x1396 JUMP JUMPDEST PUSH2 0x21D1 DUP2 DUP6 PUSH2 0x21B1 JUMP JUMPDEST SWAP4 POP PUSH2 0x21E1 DUP2 DUP6 PUSH1 0x20 DUP7 ADD PUSH2 0x13B2 JUMP JUMPDEST DUP1 DUP5 ADD SWAP2 POP POP SWAP3 SWAP2 POP POP JUMP JUMPDEST PUSH1 0x0 PUSH2 0x21F9 DUP3 DUP5 PUSH2 0x21BC JUMP JUMPDEST SWAP2 POP DUP2 SWAP1 POP SWAP3 SWAP2 POP POP JUMP JUMPDEST PUSH1 0x0 DUP2 SWAP1 POP DUP2 PUSH1 0x0 MSTORE PUSH1 0x20 PUSH1 0x0 KECCAK256 SWAP1 POP SWAP2 SWAP1 POP JUMP JUMPDEST PUSH1 0x1F DUP3 GT ISZERO PUSH2 0x225A JUMPI PUSH2 0x222B DUP2 PUSH2 0x2204 JUMP JUMPDEST PUSH2 0x2234 DUP5 PUSH2 0x1F48 JUMP JUMPDEST DUP2 ADD PUSH1 0x20 DUP6 LT ISZERO PUSH2 0x2243 JUMPI DUP2 SWAP1 POP JUMPDEST PUSH2 0x2257 PUSH2 0x224F DUP6 PUSH2 0x1F48 JUMP JUMPDEST DUP4 ADD DUP3 PUSH2 0x202F JUMP JUMPDEST POP POP JUMPDEST POP POP POP JUMP JUMPDEST PUSH2 0x2268 DUP3 PUSH2 0x1426 JUMP JUMPDEST PUSH8 0xFFFFFFFFFFFFFFFF DUP2 GT ISZERO PUSH2 0x2281 JUMPI PUSH2 0x2280 PUSH2 0x14E7 JUMP JUMPDEST JUMPDEST PUSH2 0x228B DUP3 SLOAD PUSH2 0x1D2F JUMP JUMPDEST PUSH2 0x2296 DUP3 DUP3 DUP6 PUSH2 0x2219 JUMP JUMPDEST PUSH1 0x0 PUSH1 0x20 SWAP1 POP PUSH1 0x1F DUP4 GT PUSH1 0x1 DUP2 EQ PUSH2 0x22C9 JUMPI PUSH1 0x0 DUP5 ISZERO PUSH2 0x22B7 JUMPI DUP3 DUP8 ADD MLOAD SWAP1 POP JUMPDEST PUSH2 0x22C1 DUP6 DUP3 PUSH2 0x20C3 JUMP JUMPDEST DUP7 SSTORE POP PUSH2 0x2329 JUMP JUMPDEST PUSH1 0x1F NOT DUP5 AND PUSH2 0x22D7 DUP7 PUSH2 0x2204 JUMP JUMPDEST PUSH1 0x0 JUMPDEST DUP3 DUP2 LT ISZERO PUSH2 0x22FF JUMPI DUP5 DUP10 ADD MLOAD DUP3 SSTORE PUSH1 0x1 DUP3 ADD SWAP2 POP PUSH1 0x20 DUP6 ADD SWAP5 POP PUSH1 0x20 DUP2 ADD SWAP1 POP PUSH2 0x22DA JUMP JUMPDEST DUP7 DUP4 LT ISZERO PUSH2 0x231C JUMPI DUP5 DUP10 ADD MLOAD PUSH2 0x2318 PUSH1 0x1F DUP10 AND DUP3 PUSH2 0x20A5 JUMP JUMPDEST DUP4 SSTORE POP JUMPDEST PUSH1 0x1 PUSH1 0x2 DUP9 MUL ADD DUP9 SSTORE POP POP POP JUMPDEST POP POP POP POP POP POP JUMP JUMPDEST PUSH1 0x0 DUP1 REVERT JUMPDEST PUSH1 0x0 DUP2 MLOAD SWAP1 POP PUSH2 0x2345 DUP2 PUSH2 0x133D JUMP JUMPDEST SWAP3 SWAP2 POP POP JUMP JUMPDEST PUSH1 0x0 PUSH1 0x80 DUP3 DUP5 SUB SLT ISZERO PUSH2 0x2361 JUMPI PUSH2 0x2360 PUSH2 0x2331 JUMP JUMPDEST JUMPDEST PUSH2 0x236B PUSH1 0x80 PUSH2 0x1547 JUMP JUMPDEST SWAP1 POP PUSH1 0x0 PUSH2 0x237B DUP5 DUP3 DUP6 ADD PUSH2 0x2336 JUMP JUMPDEST PUSH1 0x0 DUP4 ADD MSTORE POP PUSH1 0x20 PUSH2 0x238F DUP5 DUP3 DUP6 ADD PUSH2 0x2336 JUMP JUMPDEST PUSH1 0x20 DUP4 ADD MSTORE POP PUSH1 0x40 PUSH2 0x23A3 DUP5 DUP3 DUP6 ADD PUSH2 0x2336 JUMP JUMPDEST PUSH1 0x40 DUP4 ADD MSTORE POP PUSH1 0x60 PUSH2 0x23B7 DUP5 DUP3 DUP6 ADD PUSH2 0x2336 JUMP JUMPDEST PUSH1 0x60 DUP4 ADD MSTORE POP SWAP3 SWAP2 POP POP JUMP JUMPDEST PUSH1 0x2 DUP2 LT PUSH2 0x23D0 JUMPI PUSH1 0x0 DUP1 REVERT JUMPDEST POP JUMP JUMPDEST PUSH1 0x0 DUP2 MLOAD SWAP1 POP PUSH2 0x23E2 DUP2 PUSH2 0x23C3 JUMP JUMPDEST SWAP3 SWAP2 POP POP JUMP JUMPDEST PUSH1 0x6 DUP2 LT PUSH2 0x23F5 JUMPI PUSH1 0x0 DUP1 REVERT JUMPDEST POP JUMP JUMPDEST PUSH1 0x0 DUP2 MLOAD SWAP1 POP PUSH2 0x2407 DUP2 PUSH2 0x23E8 JUMP JUMPDEST SWAP3 SWAP2 POP POP JUMP JUMPDEST PUSH1 0x0 PUSH2 0x1A0 DUP3 DUP5 SUB SLT ISZERO PUSH2 0x2424 JUMPI PUSH2 0x2423 PUSH2 0x2331 JUMP JUMPDEST JUMPDEST PUSH2 0x242F PUSH2 0x140 PUSH2 0x1547 JUMP JUMPDEST SWAP1 POP PUSH1 0x0 PUSH2 0x243F DUP5 DUP3 DUP6 ADD PUSH2 0x2336 JUMP JUMPDEST PUSH1 0x0 DUP4 ADD MSTORE POP PUSH1 0x20 PUSH2 0x2453 DUP5 DUP3 DUP6 ADD PUSH2 0x2336 JUMP JUMPDEST PUSH1 0x20 DUP4 ADD MSTORE POP PUSH1 0x40 PUSH2 0x2467 DUP5 DUP3 DUP6 ADD PUSH2 0x234B JUMP JUMPDEST PUSH1 0x40 DUP4 ADD MSTORE POP PUSH1 0xC0 PUSH2 0x247B DUP5 DUP3 DUP6 ADD PUSH2 0x2336 JUMP JUMPDEST PUSH1 0x60 DUP4 ADD MSTORE POP PUSH1 0xE0 PUSH2 0x248F DUP5 DUP3 DUP6 ADD PUSH2 0x2336 JUMP JUMPDEST PUSH1 0x80 DUP4 ADD MSTORE POP PUSH2 0x100 PUSH2 0x24A4 DUP5 DUP3 DUP6 ADD PUSH2 0x2336 JUMP JUMPDEST PUSH1 0xA0 DUP4 ADD MSTORE POP PUSH2 0x120 PUSH2 0x24B9 DUP5 DUP3 DUP6 ADD PUSH2 0x23D3 JUMP JUMPDEST PUSH1 0xC0 DUP4 ADD MSTORE POP PUSH2 0x140 PUSH2 0x24CE DUP5 DUP3 DUP6 ADD PUSH2 0x23F8 JUMP JUMPDEST PUSH1 0xE0 DUP4 ADD MSTORE POP PUSH2 0x160 PUSH2 0x24E3 DUP5 DUP3 DUP6 ADD PUSH2 0x2336 JUMP JUMPDEST PUSH2 0x100 DUP4 ADD MSTORE POP PUSH2 0x180 PUSH2 0x24F9 DUP5 DUP3 DUP6 ADD PUSH2 0x2336 JUMP JUMPDEST PUSH2 0x120 DUP4 ADD MSTORE POP SWAP3 SWAP2 POP POP JUMP JUMPDEST PUSH1 0x0 PUSH2 0x1A0 DUP3 DUP5 SUB SLT ISZERO PUSH2 0x251D JUMPI PUSH2 0x251C PUSH2 0x1274 JUMP JUMPDEST JUMPDEST PUSH1 0x0 PUSH2 0x252B DUP5 DUP3 DUP6 ADD PUSH2 0x240D JUMP JUMPDEST SWAP2 POP POP SWAP3 SWAP2 POP POP JUMP JUMPDEST PUSH1 0x0 PUSH1 0x40 DUP3 ADD SWAP1 POP PUSH2 0x2549 PUSH1 0x0 DUP4 ADD DUP6 PUSH2 0x1313 JUMP JUMPDEST PUSH2 0x2556 PUSH1 0x20 DUP4 ADD DUP5 PUSH2 0x1313 JUMP JUMPDEST SWAP4 SWAP3 POP POP POP JUMP JUMPDEST PUSH1 0x3 DUP2 LT PUSH2 0x256A JUMPI PUSH1 0x0 DUP1 REVERT JUMPDEST POP JUMP JUMPDEST PUSH1 0x0 DUP2 MLOAD SWAP1 POP PUSH2 0x257C DUP2 PUSH2 0x255D JUMP JUMPDEST SWAP3 SWAP2 POP POP JUMP JUMPDEST PUSH1 0x0 DUP1 PUSH1 0x40 DUP4 DUP6 SUB SLT ISZERO PUSH2 0x2599 JUMPI PUSH2 0x2598 PUSH2 0x1274 JUMP JUMPDEST JUMPDEST PUSH1 0x0 PUSH2 0x25A7 DUP6 DUP3 DUP7 ADD PUSH2 0x256D JUMP JUMPDEST SWAP3 POP POP PUSH1 0x20 PUSH2 0x25B8 DUP6 DUP3 DUP7 ADD PUSH2 0x2336 JUMP JUMPDEST SWAP2 POP POP SWAP3 POP SWAP3 SWAP1 POP JUMP JUMPDEST PUSH1 0x0 PUSH1 0x80 DUP3 ADD SWAP1 POP PUSH2 0x25D7 PUSH1 0x0 DUP4 ADD DUP8 PUSH2 0x1313 JUMP JUMPDEST PUSH2 0x25E4 PUSH1 0x20 DUP4 ADD DUP7 PUSH2 0x1313 JUMP JUMPDEST DUP2 DUP2 SUB PUSH1 0x40 DUP4 ADD MSTORE PUSH2 0x25F6 DUP2 DUP6 PUSH2 0x13ED JUMP JUMPDEST SWAP1 POP DUP2 DUP2 SUB PUSH1 0x60 DUP4 ADD MSTORE PUSH2 0x260A DUP2 DUP5 PUSH2 0x13ED JUMP JUMPDEST SWAP1 POP SWAP6 SWAP5 POP POP POP POP POP JUMP JUMPDEST PUSH1 0x0 PUSH1 0x20 DUP3 DUP5 SUB SLT ISZERO PUSH2 0x262B JUMPI PUSH2 0x262A PUSH2 0x1274 JUMP JUMPDEST JUMPDEST PUSH1 0x0 PUSH2 0x2639 DUP5 DUP3 DUP6 ADD PUSH2 0x2336 JUMP JUMPDEST SWAP2 POP POP SWAP3 SWAP2 POP POP JUMP JUMPDEST PUSH1 0x0 PUSH1 0xE0 DUP3 ADD SWAP1 POP PUSH2 0x2657 PUSH1 0x0 DUP4 ADD DUP11 PUSH2 0x1313 JUMP JUMPDEST PUSH2 0x2664 PUSH1 0x20 DUP4 ADD DUP10 PUSH2 0x1313 JUMP JUMPDEST DUP2 DUP2 SUB PUSH1 0x40 DUP4 ADD MSTORE PUSH2 0x2676 DUP2 DUP9 PUSH2 0x1442 JUMP JUMPDEST SWAP1 POP PUSH2 0x2685 PUSH1 0x60 DUP4 ADD DUP8 PUSH2 0x1313 JUMP JUMPDEST PUSH2 0x2692 PUSH1 0x80 DUP4 ADD DUP7 PUSH2 0x1313 JUMP JUMPDEST DUP2 DUP2 SUB PUSH1 0xA0 DUP4 ADD MSTORE PUSH2 0x26A4 DUP2 DUP6 PUSH2 0x13ED JUMP JUMPDEST SWAP1 POP DUP2 DUP2 SUB PUSH1 0xC0 DUP4 ADD MSTORE PUSH2 0x26B8 DUP2 DUP5 PUSH2 0x13ED JUMP JUMPDEST SWAP1 POP SWAP9 SWAP8 POP POP POP POP POP POP POP POP JUMP INVALID LOG2 PUSH5 0x6970667358 0x22 SLT KECCAK256 0xD1 0x28 0xC9 0xB7 0xB1 AND DUP8 0x24 0xC0 0x4B 0xEF SELFBALANCE 0xB0 ORIGIN REVERT DUP3 PUSH15 0xD9B395F790450CE42101292472ADF PUSH5 0x736F6C6343 STOP ADDMOD SGT STOP CALLER "
		},
		"gasEstimates": {
			"creation": {
				"codeDepositCost": "1996000",
				"executionCost": "infinite",
				"totalCost": "infinite"
			},
			"external": {
				"addRequestIds(uint256,uint256)": "infinite",
				"addStakeholder(string,string)": "infinite",
				"checkInsuranceRequests(uint256,uint256,uint256)": "infinite",
				"checkMCRequests(uint256,uint256,uint256)": "infinite",
				"claimInsurance(uint256,uint256,bytes,uint256,uint256,string,string)": "infinite",
				"getInsurance(uint256)": "infinite",
				"getRequestId(uint256)": "infinite",
				"getStakeholderAddress(uint256)": "5111",
				"getStakeholderId(address)": "2865",
				"getStakeholderNRIC(uint256)": "infinite",
				"getStakeholderName(uint256)": "infinite",
				"numStakeholder()": "2518",
				"payPremium(uint256,uint256,uint256)": "infinite",
				"requestMC(uint256,string,string)": "infinite",
				"signInsurance(uint256,uint256,uint256,string)": "infinite",
				"stakeholders(uint256)": "infinite"
			}
		},
		"methodIdentifiers": {
			"addRequestIds(uint256,uint256)": "bdbeb6fe",
			"addStakeholder(string,string)": "6b4c4493",
			"checkInsuranceRequests(uint256,uint256,uint256)": "8fe2701e",
			"checkMCRequests(uint256,uint256,uint256)": "458d0dc2",
			"claimInsurance(uint256,uint256,bytes,uint256,uint256,string,string)": "fec5baf9",
			"getInsurance(uint256)": "85fae602",
			"getRequestId(uint256)": "68814af8",
			"getStakeholderAddress(uint256)": "5564f644",
			"getStakeholderId(address)": "0f861dc4",
			"getStakeholderNRIC(uint256)": "88c2c519",
			"getStakeholderName(uint256)": "5a0b84f8",
			"numStakeholder()": "8edd5297",
			"payPremium(uint256,uint256,uint256)": "561c865b",
			"requestMC(uint256,string,string)": "a33661b5",
			"signInsurance(uint256,uint256,uint256,string)": "34fb36c8",
			"stakeholders(uint256)": "1d6b8b72"
		}
	},
	"abi": [
		{
			"inputs": [
				{
					"internalType": "contract InsuranceCompany",
					"name": "insuranceCompanyAddress",
					"type": "address"
				},
				{
					"internalType": "contract Hospital",
					"name": "hospitalAddress",
					"type": "address"
				},
				{
					"internalType": "contract TrustInsure",
					"name": "insureAddress",
					"type": "address"
				}
			],
			"stateMutability": "nonpayable",
			"type": "constructor"
		},
		{
			"inputs": [
				{
					"internalType": "uint256",
					"name": "stakeholderId",
					"type": "uint256"
				},
				{
					"internalType": "uint256",
					"name": "requestId",
					"type": "uint256"
				}
			],
			"name": "addRequestIds",
			"outputs": [],
			"stateMutability": "nonpayable",
			"type": "function"
		},
		{
			"inputs": [
				{
					"internalType": "string",
					"name": "name",
					"type": "string"
				},
				{
					"internalType": "string",
					"name": "NRIC",
					"type": "string"
				}
			],
			"name": "addStakeholder",
			"outputs": [
				{
					"internalType": "uint256",
					"name": "",
					"type": "uint256"
				}
			],
			"stateMutability": "nonpayable",
			"type": "function"
		},
		{
			"inputs": [
				{
					"internalType": "uint256",
					"name": "stakeholderId",
					"type": "uint256"
				},
				{
					"internalType": "uint256",
					"name": "companyId",
					"type": "uint256"
				},
				{
					"internalType": "uint256",
					"name": "requestId",
					"type": "uint256"
				}
			],
			"name": "checkInsuranceRequests",
			"outputs": [
				{
					"internalType": "uint256",
					"name": "",
					"type": "uint256"
				}
			],
			"stateMutability": "nonpayable",
			"type": "function"
		},
		{
			"inputs": [
				{
					"internalType": "uint256",
					"name": "_hospitalId",
					"type": "uint256"
				},
				{
					"internalType": "uint256",
					"name": "_requestId",
					"type": "uint256"
				},
				{
					"internalType": "uint256",
					"name": "_stakeholderId",
					"type": "uint256"
				}
			],
			"name": "checkMCRequests",
			"outputs": [
				{
					"internalType": "bytes",
					"name": "",
					"type": "bytes"
				}
			],
			"stateMutability": "view",
			"type": "function"
		},
		{
			"inputs": [
				{
					"internalType": "uint256",
					"name": "insuranceID",
					"type": "uint256"
				},
				{
					"internalType": "uint256",
					"name": "companyId",
					"type": "uint256"
				},
				{
					"internalType": "bytes",
					"name": "mcId",
					"type": "bytes"
				},
				{
					"internalType": "uint256",
					"name": "hospitalId",
					"type": "uint256"
				},
				{
					"internalType": "uint256",
					"name": "policyOwnerID",
					"type": "uint256"
				},
				{
					"internalType": "string",
					"name": "name",
					"type": "string"
				},
				{
					"internalType": "string",
					"name": "NRIC",
					"type": "string"
				}
			],
			"name": "claimInsurance",
			"outputs": [],
			"stateMutability": "nonpayable",
			"type": "function"
		},
		{
			"inputs": [
				{
					"internalType": "uint256",
					"name": "insuranceId",
					"type": "uint256"
				}
			],
			"name": "getInsurance",
			"outputs": [
				{
					"components": [
						{
							"internalType": "uint256",
							"name": "ID",
							"type": "uint256"
						},
						{
							"internalType": "uint256",
							"name": "companyId",
							"type": "uint256"
						},
						{
							"components": [
								{
									"internalType": "uint256",
									"name": "policyOwner",
									"type": "uint256"
								},
								{
									"internalType": "uint256",
									"name": "beneficiary",
									"type": "uint256"
								},
								{
									"internalType": "uint256",
									"name": "lifeAssured",
									"type": "uint256"
								},
								{
									"internalType": "uint256",
									"name": "payingAccount",
									"type": "uint256"
								}
							],
							"internalType": "struct Insurance.stakeholderInfo",
							"name": "stakeholders",
							"type": "tuple"
						},
						{
							"internalType": "uint256",
							"name": "premium",
							"type": "uint256"
						},
						{
							"internalType": "uint256",
							"name": "insuredAmount",
							"type": "uint256"
						},
						{
							"internalType": "uint256",
							"name": "currentAmount",
							"type": "uint256"
						},
						{
							"internalType": "enum Insurance.insuranceType",
							"name": "insType",
							"type": "uint8"
						},
						{
							"internalType": "enum Insurance.status",
							"name": "status",
							"type": "uint8"
						},
						{
							"internalType": "uint256",
							"name": "issueDate",
							"type": "uint256"
						},
						{
							"internalType": "uint256",
							"name": "expiryDate",
							"type": "uint256"
						}
					],
					"internalType": "struct Insurance.insurance",
					"name": "",
					"type": "tuple"
				}
			],
			"stateMutability": "view",
			"type": "function"
		},
		{
			"inputs": [
				{
					"internalType": "uint256",
					"name": "stakeholderID",
					"type": "uint256"
				}
			],
			"name": "getRequestId",
			"outputs": [
				{
					"internalType": "uint256[]",
					"name": "",
					"type": "uint256[]"
				}
			],
			"stateMutability": "view",
			"type": "function"
		},
		{
			"inputs": [
				{
					"internalType": "uint256",
					"name": "stakeholderID",
					"type": "uint256"
				}
			],
			"name": "getStakeholderAddress",
			"outputs": [
				{
					"internalType": "address",
					"name": "",
					"type": "address"
				}
			],
			"stateMutability": "view",
			"type": "function"
		},
		{
			"inputs": [
				{
					"internalType": "address",
					"name": "_stakeholder",
					"type": "address"
				}
			],
			"name": "getStakeholderId",
			"outputs": [
				{
					"internalType": "uint256",
					"name": "",
					"type": "uint256"
				}
			],
			"stateMutability": "view",
			"type": "function"
		},
		{
			"inputs": [
				{
					"internalType": "uint256",
					"name": "stakeholderID",
					"type": "uint256"
				}
			],
			"name": "getStakeholderNRIC",
			"outputs": [
				{
					"internalType": "bytes",
					"name": "",
					"type": "bytes"
				}
			],
			"stateMutability": "view",
			"type": "function"
		},
		{
			"inputs": [
				{
					"internalType": "uint256",
					"name": "stakeholderID",
					"type": "uint256"
				}
			],
			"name": "getStakeholderName",
			"outputs": [
				{
					"internalType": "string",
					"name": "",
					"type": "string"
				}
			],
			"stateMutability": "view",
			"type": "function"
		},
		{
			"inputs": [],
			"name": "numStakeholder",
			"outputs": [
				{
					"internalType": "uint256",
					"name": "",
					"type": "uint256"
				}
			],
			"stateMutability": "view",
			"type": "function"
		},
		{
			"inputs": [
				{
					"internalType": "uint256",
					"name": "insuranceId",
					"type": "uint256"
				},
				{
					"internalType": "uint256",
					"name": "amount",
					"type": "uint256"
				},
				{
					"internalType": "uint256",
					"name": "policyOwnerID",
					"type": "uint256"
				}
			],
			"name": "payPremium",
			"outputs": [],
			"stateMutability": "nonpayable",
			"type": "function"
		},
		{
			"inputs": [
				{
					"internalType": "uint256",
					"name": "hospitalId",
					"type": "uint256"
				},
				{
					"internalType": "string",
					"name": "nameAssured",
					"type": "string"
				},
				{
					"internalType": "string",
					"name": "icAssured",
					"type": "string"
				}
			],
			"name": "requestMC",
			"outputs": [
				{
					"internalType": "uint256",
					"name": "",
					"type": "uint256"
				}
			],
			"stateMutability": "nonpayable",
			"type": "function"
		},
		{
			"inputs": [
				{
					"internalType": "uint256",
					"name": "insuranceId",
					"type": "uint256"
				},
				{
					"internalType": "uint256",
					"name": "companyId",
					"type": "uint256"
				},
				{
					"internalType": "uint256",
					"name": "policyOwnerID",
					"type": "uint256"
				},
				{
					"internalType": "string",
					"name": "signature",
					"type": "string"
				}
			],
			"name": "signInsurance",
			"outputs": [],
			"stateMutability": "nonpayable",
			"type": "function"
		},
		{
			"inputs": [
				{
					"internalType": "uint256",
					"name": "",
					"type": "uint256"
				}
			],
			"name": "stakeholders",
			"outputs": [
				{
					"internalType": "uint256",
					"name": "ID",
					"type": "uint256"
				},
				{
					"internalType": "string",
					"name": "name",
					"type": "string"
				},
				{
					"internalType": "bytes",
					"name": "NRIC",
					"type": "bytes"
				},
				{
					"internalType": "address",
					"name": "stakeholderAddress",
					"type": "address"
				}
			],
			"stateMutability": "view",
			"type": "function"
		}
	]
}