{
	"data": {
		"bytecode": {
			"linkReferences": {},
			"object": "608060405260006003553480156200001657600080fd5b50604051620021ed380380620021ed83398181016040528101906200003c91906200020f565b826000806101000a81548173ffffffffffffffffffffffffffffffffffffffff021916908373ffffffffffffffffffffffffffffffffffffffff16021790555081600160006101000a81548173ffffffffffffffffffffffffffffffffffffffff021916908373ffffffffffffffffffffffffffffffffffffffff16021790555080600260006101000a81548173ffffffffffffffffffffffffffffffffffffffff021916908373ffffffffffffffffffffffffffffffffffffffff1602179055505050506200026b565b600080fd5b600073ffffffffffffffffffffffffffffffffffffffff82169050919050565b600062000139826200010c565b9050919050565b60006200014d826200012c565b9050919050565b6200015f8162000140565b81146200016b57600080fd5b50565b6000815190506200017f8162000154565b92915050565b600062000192826200012c565b9050919050565b620001a48162000185565b8114620001b057600080fd5b50565b600081519050620001c48162000199565b92915050565b6000620001d7826200012c565b9050919050565b620001e981620001ca565b8114620001f557600080fd5b50565b6000815190506200020981620001de565b92915050565b6000806000606084860312156200022b576200022a62000107565b5b60006200023b868287016200016e565b93505060206200024e86828701620001b3565b92505060406200026186828701620001f8565b9150509250925092565b611f72806200027b6000396000f3fe608060405234801561001057600080fd5b50600436106100ea5760003560e01c806368814af81161008c5780638edd5297116100665780638edd5297146102aa5780638fe2701e146102c8578063bdbeb6fe146102f8578063fec5baf914610314576100ea565b806368814af81461021a5780636b4c44931461024a57806388c2c5191461027a576100ea565b8063458d0dc2116100c8578063458d0dc21461016e5780635564f6441461019e578063561c865b146101ce5780635a0b84f8146101ea576100ea565b80630f861dc4146100ef5780631d6b8b721461011f57806334fb36c814610152575b600080fd5b6101096004803603810190610104919061101b565b610330565b6040516101169190611061565b60405180910390f35b610139600480360381019061013491906110a8565b610379565b60405161014994939291906111c9565b60405180910390f35b61016c60048036038101906101679190611351565b6104d9565b005b610188600480360381019061018391906113d4565b6105f1565b6040516101959190611427565b60405180910390f35b6101b860048036038101906101b391906110a8565b6106a1565b6040516101c59190611449565b60405180910390f35b6101e860048036038101906101e391906113d4565b610764565b005b61020460048036038101906101ff91906110a8565b61087b565b6040516102119190611464565b60405180910390f35b610234600480360381019061022f91906110a8565b6109a6565b6040516102419190611544565b60405180910390f35b610264600480360381019061025f9190611566565b610a94565b6040516102719190611061565b60405180910390f35b610294600480360381019061028f91906110a8565b610baa565b6040516102a19190611427565b60405180910390f35b6102b2610cd5565b6040516102bf9190611061565b60405180910390f35b6102e260048036038101906102dd91906113d4565b610cdb565b6040516102ef9190611061565b60405180910390f35b610312600480360381019061030d91906115de565b610e48565b005b61032e600480360381019061032991906116bf565b610e86565b005b6000600560008373ffffffffffffffffffffffffffffffffffffffff1673ffffffffffffffffffffffffffffffffffffffff168152602001908152602001600020549050919050565b60046020528060005260406000206000915090508060000154908060010180546103a2906117e4565b80601f01602080910402602001604051908101604052809291908181526020018280546103ce906117e4565b801561041b5780601f106103f05761010080835404028352916020019161041b565b820191906000526020600020905b8154815290600101906020018083116103fe57829003601f168201915b505050505090806002018054610430906117e4565b80601f016020809104026020016040519081016040528092919081815260200182805461045c906117e4565b80156104a95780601f1061047e576101008083540402835291602001916104a9565b820191906000526020600020905b81548152906001019060200180831161048c57829003601f168201915b5050505050908060030160009054906101000a900473ffffffffffffffffffffffffffffffffffffffff16905084565b8180600560003373ffffffffffffffffffffffffffffffffffffffff1673ffffffffffffffffffffffffffffffffffffffff168152602001908152602001600020541461055b576040517f08c379a000000000000000000000000000000000000000000000000000000000815260040161055290611861565b60405180910390fd5b60008054906101000a900473ffffffffffffffffffffffffffffffffffffffff1673ffffffffffffffffffffffffffffffffffffffff1663bfcb6cfb8686866040518463ffffffff1660e01b81526004016105b893929190611881565b600060405180830381600087803b1580156105d257600080fd5b505af11580156105e6573d6000803e3d6000fd5b505050505050505050565b6060600160009054906101000a900473ffffffffffffffffffffffffffffffffffffffff1673ffffffffffffffffffffffffffffffffffffffff16639cb3d01f8585856040518463ffffffff1660e01b815260040161065293929190611881565b600060405180830381865afa15801561066f573d6000803e3d6000fd5b505050506040513d6000823e3d601f19601f820116820180604052508101906106989190611928565b90509392505050565b60008180600560003373ffffffffffffffffffffffffffffffffffffffff1673ffffffffffffffffffffffffffffffffffffffff1681526020019081526020016000205414610725576040517f08c379a000000000000000000000000000000000000000000000000000000000815260040161071c90611861565b60405180910390fd5b6004600084815260200190815260200160002060030160009054906101000a900473ffffffffffffffffffffffffffffffffffffffff16915050919050565b8080600560003373ffffffffffffffffffffffffffffffffffffffff1673ffffffffffffffffffffffffffffffffffffffff16815260200190815260200160002054146107e6576040517f08c379a00000000000000000000000000000000000000000000000000000000081526004016107dd90611861565b60405180910390fd5b60008054906101000a900473ffffffffffffffffffffffffffffffffffffffff1673ffffffffffffffffffffffffffffffffffffffff1663561c865b8585856040518463ffffffff1660e01b815260040161084393929190611881565b600060405180830381600087803b15801561085d57600080fd5b505af1158015610871573d6000803e3d6000fd5b5050505050505050565b60608180600560003373ffffffffffffffffffffffffffffffffffffffff1673ffffffffffffffffffffffffffffffffffffffff16815260200190815260200160002054146108ff576040517f08c379a00000000000000000000000000000000000000000000000000000000081526004016108f690611861565b60405180910390fd5b600460008481526020019081526020016000206001018054610920906117e4565b80601f016020809104026020016040519081016040528092919081815260200182805461094c906117e4565b80156109995780601f1061096e57610100808354040283529160200191610999565b820191906000526020600020905b81548152906001019060200180831161097c57829003601f168201915b5050505050915050919050565b60608180600560003373ffffffffffffffffffffffffffffffffffffffff1673ffffffffffffffffffffffffffffffffffffffff1681526020019081526020016000205414610a2a576040517f08c379a0000000000000000000000000000000000000000000000000000000008152600401610a2190611861565b60405180910390fd5b60066000848152602001908152602001600020805480602002602001604051908101604052809291908181526020018280548015610a8757602002820191906000526020600020905b815481526020019060010190808311610a73575b5050505050915050919050565b600060036000815480929190610aa9906119a0565b919050555060006004600060035481526020019081526020016000209050600354816000018190555083816001019081610ae39190611b94565b50338160030160006101000a81548173ffffffffffffffffffffffffffffffffffffffff021916908373ffffffffffffffffffffffffffffffffffffffff16021790555082604051602001610b389190611ca2565b604051602081830303815290604052816002019081610b579190611d14565b50600354600560003373ffffffffffffffffffffffffffffffffffffffff1673ffffffffffffffffffffffffffffffffffffffff1681526020019081526020016000208190555060035491505092915050565b60608180600560003373ffffffffffffffffffffffffffffffffffffffff1673ffffffffffffffffffffffffffffffffffffffff1681526020019081526020016000205414610c2e576040517f08c379a0000000000000000000000000000000000000000000000000000000008152600401610c2590611861565b60405180910390fd5b600460008481526020019081526020016000206002018054610c4f906117e4565b80601f0160208091040260200160405190810160405280929190818152602001828054610c7b906117e4565b8015610cc85780601f10610c9d57610100808354040283529160200191610cc8565b820191906000526020600020905b815481529060010190602001808311610cab57829003601f168201915b5050505050915050919050565b60035481565b60008380600560003373ffffffffffffffffffffffffffffffffffffffff1673ffffffffffffffffffffffffffffffffffffffff1681526020019081526020016000205414610d5f576040517f08c379a0000000000000000000000000000000000000000000000000000000008152600401610d5690611861565b60405180910390fd5b60008060008054906101000a900473ffffffffffffffffffffffffffffffffffffffff1673ffffffffffffffffffffffffffffffffffffffff16635d99670187876040518363ffffffff1660e01b8152600401610dbd929190611de6565b60408051808303816000875af1158015610ddb573d6000803e3d6000fd5b505050506040513d601f19601f82011682018060405250810190610dff9190611e49565b9150915060006002811115610e1757610e16611e89565b5b826002811115610e2a57610e29611e89565b5b03610e39578093505050610e40565b6000935050505b509392505050565b600660008381526020019081526020016000208190806001815401808255809150506001900390600052602060002001600090919091909150555050565b8280600560003373ffffffffffffffffffffffffffffffffffffffff1673ffffffffffffffffffffffffffffffffffffffff1681526020019081526020016000205414610f08576040517f08c379a0000000000000000000000000000000000000000000000000000000008152600401610eff90611861565b60405180910390fd5b60008054906101000a900473ffffffffffffffffffffffffffffffffffffffff1673ffffffffffffffffffffffffffffffffffffffff1663700d9ef7898989898989896040518863ffffffff1660e01b8152600401610f6d9796959493929190611eb8565b600060405180830381600087803b158015610f8757600080fd5b505af1158015610f9b573d6000803e3d6000fd5b505050505050505050505050565b6000604051905090565b600080fd5b600080fd5b600073ffffffffffffffffffffffffffffffffffffffff82169050919050565b6000610fe882610fbd565b9050919050565b610ff881610fdd565b811461100357600080fd5b50565b60008135905061101581610fef565b92915050565b60006020828403121561103157611030610fb3565b5b600061103f84828501611006565b91505092915050565b6000819050919050565b61105b81611048565b82525050565b60006020820190506110766000830184611052565b92915050565b61108581611048565b811461109057600080fd5b50565b6000813590506110a28161107c565b92915050565b6000602082840312156110be576110bd610fb3565b5b60006110cc84828501611093565b91505092915050565b600081519050919050565b600082825260208201905092915050565b60005b8381101561110f5780820151818401526020810190506110f4565b60008484015250505050565b6000601f19601f8301169050919050565b6000611137826110d5565b61114181856110e0565b93506111518185602086016110f1565b61115a8161111b565b840191505092915050565b600081519050919050565b600082825260208201905092915050565b600061118c82611165565b6111968185611170565b93506111a68185602086016110f1565b6111af8161111b565b840191505092915050565b6111c381610fdd565b82525050565b60006080820190506111de6000830187611052565b81810360208301526111f0818661112c565b905081810360408301526112048185611181565b905061121360608301846111ba565b95945050505050565b600080fd5b600080fd5b7f4e487b7100000000000000000000000000000000000000000000000000000000600052604160045260246000fd5b61125e8261111b565b810181811067ffffffffffffffff8211171561127d5761127c611226565b5b80604052505050565b6000611290610fa9565b905061129c8282611255565b919050565b600067ffffffffffffffff8211156112bc576112bb611226565b5b6112c58261111b565b9050602081019050919050565b82818337600083830152505050565b60006112f46112ef846112a1565b611286565b9050828152602081018484840111156113105761130f611221565b5b61131b8482856112d2565b509392505050565b600082601f8301126113385761133761121c565b5b81356113488482602086016112e1565b91505092915050565b6000806000806080858703121561136b5761136a610fb3565b5b600061137987828801611093565b945050602061138a87828801611093565b935050604061139b87828801611093565b925050606085013567ffffffffffffffff8111156113bc576113bb610fb8565b5b6113c887828801611323565b91505092959194509250565b6000806000606084860312156113ed576113ec610fb3565b5b60006113fb86828701611093565b935050602061140c86828701611093565b925050604061141d86828701611093565b9150509250925092565b600060208201905081810360008301526114418184611181565b905092915050565b600060208201905061145e60008301846111ba565b92915050565b6000602082019050818103600083015261147e818461112c565b905092915050565b600081519050919050565b600082825260208201905092915050565b6000819050602082019050919050565b6114bb81611048565b82525050565b60006114cd83836114b2565b60208301905092915050565b6000602082019050919050565b60006114f182611486565b6114fb8185611491565b9350611506836114a2565b8060005b8381101561153757815161151e88826114c1565b9750611529836114d9565b92505060018101905061150a565b5085935050505092915050565b6000602082019050818103600083015261155e81846114e6565b905092915050565b6000806040838503121561157d5761157c610fb3565b5b600083013567ffffffffffffffff81111561159b5761159a610fb8565b5b6115a785828601611323565b925050602083013567ffffffffffffffff8111156115c8576115c7610fb8565b5b6115d485828601611323565b9150509250929050565b600080604083850312156115f5576115f4610fb3565b5b600061160385828601611093565b925050602061161485828601611093565b9150509250929050565b600067ffffffffffffffff82111561163957611638611226565b5b6116428261111b565b9050602081019050919050565b600061166261165d8461161e565b611286565b90508281526020810184848401111561167e5761167d611221565b5b6116898482856112d2565b509392505050565b600082601f8301126116a6576116a561121c565b5b81356116b684826020860161164f565b91505092915050565b600080600080600080600060e0888a0312156116de576116dd610fb3565b5b60006116ec8a828b01611093565b97505060206116fd8a828b01611093565b965050604088013567ffffffffffffffff81111561171e5761171d610fb8565b5b61172a8a828b01611691565b955050606061173b8a828b01611093565b945050608061174c8a828b01611093565b93505060a088013567ffffffffffffffff81111561176d5761176c610fb8565b5b6117798a828b01611323565b92505060c088013567ffffffffffffffff81111561179a57611799610fb8565b5b6117a68a828b01611323565b91505092959891949750929550565b7f4e487b7100000000000000000000000000000000000000000000000000000000600052602260045260246000fd5b600060028204905060018216806117fc57607f821691505b60208210810361180f5761180e6117b5565b5b50919050565b7f496e76616c6964207374616b65686f6c64657221000000000000000000000000600082015250565b600061184b6014836110e0565b915061185682611815565b602082019050919050565b6000602082019050818103600083015261187a8161183e565b9050919050565b60006060820190506118966000830186611052565b6118a36020830185611052565b6118b06040830184611052565b949350505050565b60006118cb6118c68461161e565b611286565b9050828152602081018484840111156118e7576118e6611221565b5b6118f28482856110f1565b509392505050565b600082601f83011261190f5761190e61121c565b5b815161191f8482602086016118b8565b91505092915050565b60006020828403121561193e5761193d610fb3565b5b600082015167ffffffffffffffff81111561195c5761195b610fb8565b5b611968848285016118fa565b91505092915050565b7f4e487b7100000000000000000000000000000000000000000000000000000000600052601160045260246000fd5b60006119ab82611048565b91507fffffffffffffffffffffffffffffffffffffffffffffffffffffffffffffffff82036119dd576119dc611971565b5b600182019050919050565b60008190508160005260206000209050919050565b60006020601f8301049050919050565b600082821b905092915050565b600060088302611a4a7fffffffffffffffffffffffffffffffffffffffffffffffffffffffffffffffff82611a0d565b611a548683611a0d565b95508019841693508086168417925050509392505050565b6000819050919050565b6000611a91611a8c611a8784611048565b611a6c565b611048565b9050919050565b6000819050919050565b611aab83611a76565b611abf611ab782611a98565b848454611a1a565b825550505050565b600090565b611ad4611ac7565b611adf818484611aa2565b505050565b5b81811015611b0357611af8600082611acc565b600181019050611ae5565b5050565b601f821115611b4857611b19816119e8565b611b22846119fd565b81016020851015611b31578190505b611b45611b3d856119fd565b830182611ae4565b50505b505050565b600082821c905092915050565b6000611b6b60001984600802611b4d565b1980831691505092915050565b6000611b848383611b5a565b9150826002028217905092915050565b611b9d826110d5565b67ffffffffffffffff811115611bb657611bb5611226565b5b611bc082546117e4565b611bcb828285611b07565b600060209050601f831160018114611bfe5760008415611bec578287015190505b611bf68582611b78565b865550611c5e565b601f198416611c0c866119e8565b60005b82811015611c3457848901518255600182019150602085019450602081019050611c0f565b86831015611c515784890151611c4d601f891682611b5a565b8355505b6001600288020188555050505b505050505050565b600081905092915050565b6000611c7c826110d5565b611c868185611c66565b9350611c968185602086016110f1565b80840191505092915050565b6000611cae8284611c71565b915081905092915050565b60008190508160005260206000209050919050565b601f821115611d0f57611ce081611cb9565b611ce9846119fd565b81016020851015611cf8578190505b611d0c611d04856119fd565b830182611ae4565b50505b505050565b611d1d82611165565b67ffffffffffffffff811115611d3657611d35611226565b5b611d4082546117e4565b611d4b828285611cce565b600060209050601f831160018114611d7e5760008415611d6c578287015190505b611d768582611b78565b865550611dde565b601f198416611d8c86611cb9565b60005b82811015611db457848901518255600182019150602085019450602081019050611d8f565b86831015611dd15784890151611dcd601f891682611b5a565b8355505b6001600288020188555050505b505050505050565b6000604082019050611dfb6000830185611052565b611e086020830184611052565b9392505050565b60038110611e1c57600080fd5b50565b600081519050611e2e81611e0f565b92915050565b600081519050611e438161107c565b92915050565b60008060408385031215611e6057611e5f610fb3565b5b6000611e6e85828601611e1f565b9250506020611e7f85828601611e34565b9150509250929050565b7f4e487b7100000000000000000000000000000000000000000000000000000000600052602160045260246000fd5b600060e082019050611ecd600083018a611052565b611eda6020830189611052565b8181036040830152611eec8188611181565b9050611efb6060830187611052565b611f086080830186611052565b81810360a0830152611f1a818561112c565b905081810360c0830152611f2e818461112c565b90509897505050505050505056fea2646970667358221220804c56c4b7cff9705811fb90d56a41b08f5d1836dfc16c63b6c768dc1988e5ba64736f6c63430008130033",
			"opcodes": "PUSH1 0x80 PUSH1 0x40 MSTORE PUSH1 0x0 PUSH1 0x3 SSTORE CALLVALUE DUP1 ISZERO PUSH3 0x16 JUMPI PUSH1 0x0 DUP1 REVERT JUMPDEST POP PUSH1 0x40 MLOAD PUSH3 0x21ED CODESIZE SUB DUP1 PUSH3 0x21ED DUP4 CODECOPY DUP2 DUP2 ADD PUSH1 0x40 MSTORE DUP2 ADD SWAP1 PUSH3 0x3C SWAP2 SWAP1 PUSH3 0x20F JUMP JUMPDEST DUP3 PUSH1 0x0 DUP1 PUSH2 0x100 EXP DUP2 SLOAD DUP2 PUSH20 0xFFFFFFFFFFFFFFFFFFFFFFFFFFFFFFFFFFFFFFFF MUL NOT AND SWAP1 DUP4 PUSH20 0xFFFFFFFFFFFFFFFFFFFFFFFFFFFFFFFFFFFFFFFF AND MUL OR SWAP1 SSTORE POP DUP2 PUSH1 0x1 PUSH1 0x0 PUSH2 0x100 EXP DUP2 SLOAD DUP2 PUSH20 0xFFFFFFFFFFFFFFFFFFFFFFFFFFFFFFFFFFFFFFFF MUL NOT AND SWAP1 DUP4 PUSH20 0xFFFFFFFFFFFFFFFFFFFFFFFFFFFFFFFFFFFFFFFF AND MUL OR SWAP1 SSTORE POP DUP1 PUSH1 0x2 PUSH1 0x0 PUSH2 0x100 EXP DUP2 SLOAD DUP2 PUSH20 0xFFFFFFFFFFFFFFFFFFFFFFFFFFFFFFFFFFFFFFFF MUL NOT AND SWAP1 DUP4 PUSH20 0xFFFFFFFFFFFFFFFFFFFFFFFFFFFFFFFFFFFFFFFF AND MUL OR SWAP1 SSTORE POP POP POP POP PUSH3 0x26B JUMP JUMPDEST PUSH1 0x0 DUP1 REVERT JUMPDEST PUSH1 0x0 PUSH20 0xFFFFFFFFFFFFFFFFFFFFFFFFFFFFFFFFFFFFFFFF DUP3 AND SWAP1 POP SWAP2 SWAP1 POP JUMP JUMPDEST PUSH1 0x0 PUSH3 0x139 DUP3 PUSH3 0x10C JUMP JUMPDEST SWAP1 POP SWAP2 SWAP1 POP JUMP JUMPDEST PUSH1 0x0 PUSH3 0x14D DUP3 PUSH3 0x12C JUMP JUMPDEST SWAP1 POP SWAP2 SWAP1 POP JUMP JUMPDEST PUSH3 0x15F DUP2 PUSH3 0x140 JUMP JUMPDEST DUP2 EQ PUSH3 0x16B JUMPI PUSH1 0x0 DUP1 REVERT JUMPDEST POP JUMP JUMPDEST PUSH1 0x0 DUP2 MLOAD SWAP1 POP PUSH3 0x17F DUP2 PUSH3 0x154 JUMP JUMPDEST SWAP3 SWAP2 POP POP JUMP JUMPDEST PUSH1 0x0 PUSH3 0x192 DUP3 PUSH3 0x12C JUMP JUMPDEST SWAP1 POP SWAP2 SWAP1 POP JUMP JUMPDEST PUSH3 0x1A4 DUP2 PUSH3 0x185 JUMP JUMPDEST DUP2 EQ PUSH3 0x1B0 JUMPI PUSH1 0x0 DUP1 REVERT JUMPDEST POP JUMP JUMPDEST PUSH1 0x0 DUP2 MLOAD SWAP1 POP PUSH3 0x1C4 DUP2 PUSH3 0x199 JUMP JUMPDEST SWAP3 SWAP2 POP POP JUMP JUMPDEST PUSH1 0x0 PUSH3 0x1D7 DUP3 PUSH3 0x12C JUMP JUMPDEST SWAP1 POP SWAP2 SWAP1 POP JUMP JUMPDEST PUSH3 0x1E9 DUP2 PUSH3 0x1CA JUMP JUMPDEST DUP2 EQ PUSH3 0x1F5 JUMPI PUSH1 0x0 DUP1 REVERT JUMPDEST POP JUMP JUMPDEST PUSH1 0x0 DUP2 MLOAD SWAP1 POP PUSH3 0x209 DUP2 PUSH3 0x1DE JUMP JUMPDEST SWAP3 SWAP2 POP POP JUMP JUMPDEST PUSH1 0x0 DUP1 PUSH1 0x0 PUSH1 0x60 DUP5 DUP7 SUB SLT ISZERO PUSH3 0x22B JUMPI PUSH3 0x22A PUSH3 0x107 JUMP JUMPDEST JUMPDEST PUSH1 0x0 PUSH3 0x23B DUP7 DUP3 DUP8 ADD PUSH3 0x16E JUMP JUMPDEST SWAP4 POP POP PUSH1 0x20 PUSH3 0x24E DUP7 DUP3 DUP8 ADD PUSH3 0x1B3 JUMP JUMPDEST SWAP3 POP POP PUSH1 0x40 PUSH3 0x261 DUP7 DUP3 DUP8 ADD PUSH3 0x1F8 JUMP JUMPDEST SWAP2 POP POP SWAP3 POP SWAP3 POP SWAP3 JUMP JUMPDEST PUSH2 0x1F72 DUP1 PUSH3 0x27B PUSH1 0x0 CODECOPY PUSH1 0x0 RETURN INVALID PUSH1 0x80 PUSH1 0x40 MSTORE CALLVALUE DUP1 ISZERO PUSH2 0x10 JUMPI PUSH1 0x0 DUP1 REVERT JUMPDEST POP PUSH1 0x4 CALLDATASIZE LT PUSH2 0xEA JUMPI PUSH1 0x0 CALLDATALOAD PUSH1 0xE0 SHR DUP1 PUSH4 0x68814AF8 GT PUSH2 0x8C JUMPI DUP1 PUSH4 0x8EDD5297 GT PUSH2 0x66 JUMPI DUP1 PUSH4 0x8EDD5297 EQ PUSH2 0x2AA JUMPI DUP1 PUSH4 0x8FE2701E EQ PUSH2 0x2C8 JUMPI DUP1 PUSH4 0xBDBEB6FE EQ PUSH2 0x2F8 JUMPI DUP1 PUSH4 0xFEC5BAF9 EQ PUSH2 0x314 JUMPI PUSH2 0xEA JUMP JUMPDEST DUP1 PUSH4 0x68814AF8 EQ PUSH2 0x21A JUMPI DUP1 PUSH4 0x6B4C4493 EQ PUSH2 0x24A JUMPI DUP1 PUSH4 0x88C2C519 EQ PUSH2 0x27A JUMPI PUSH2 0xEA JUMP JUMPDEST DUP1 PUSH4 0x458D0DC2 GT PUSH2 0xC8 JUMPI DUP1 PUSH4 0x458D0DC2 EQ PUSH2 0x16E JUMPI DUP1 PUSH4 0x5564F644 EQ PUSH2 0x19E JUMPI DUP1 PUSH4 0x561C865B EQ PUSH2 0x1CE JUMPI DUP1 PUSH4 0x5A0B84F8 EQ PUSH2 0x1EA JUMPI PUSH2 0xEA JUMP JUMPDEST DUP1 PUSH4 0xF861DC4 EQ PUSH2 0xEF JUMPI DUP1 PUSH4 0x1D6B8B72 EQ PUSH2 0x11F JUMPI DUP1 PUSH4 0x34FB36C8 EQ PUSH2 0x152 JUMPI JUMPDEST PUSH1 0x0 DUP1 REVERT JUMPDEST PUSH2 0x109 PUSH1 0x4 DUP1 CALLDATASIZE SUB DUP2 ADD SWAP1 PUSH2 0x104 SWAP2 SWAP1 PUSH2 0x101B JUMP JUMPDEST PUSH2 0x330 JUMP JUMPDEST PUSH1 0x40 MLOAD PUSH2 0x116 SWAP2 SWAP1 PUSH2 0x1061 JUMP JUMPDEST PUSH1 0x40 MLOAD DUP1 SWAP2 SUB SWAP1 RETURN JUMPDEST PUSH2 0x139 PUSH1 0x4 DUP1 CALLDATASIZE SUB DUP2 ADD SWAP1 PUSH2 0x134 SWAP2 SWAP1 PUSH2 0x10A8 JUMP JUMPDEST PUSH2 0x379 JUMP JUMPDEST PUSH1 0x40 MLOAD PUSH2 0x149 SWAP5 SWAP4 SWAP3 SWAP2 SWAP1 PUSH2 0x11C9 JUMP JUMPDEST PUSH1 0x40 MLOAD DUP1 SWAP2 SUB SWAP1 RETURN JUMPDEST PUSH2 0x16C PUSH1 0x4 DUP1 CALLDATASIZE SUB DUP2 ADD SWAP1 PUSH2 0x167 SWAP2 SWAP1 PUSH2 0x1351 JUMP JUMPDEST PUSH2 0x4D9 JUMP JUMPDEST STOP JUMPDEST PUSH2 0x188 PUSH1 0x4 DUP1 CALLDATASIZE SUB DUP2 ADD SWAP1 PUSH2 0x183 SWAP2 SWAP1 PUSH2 0x13D4 JUMP JUMPDEST PUSH2 0x5F1 JUMP JUMPDEST PUSH1 0x40 MLOAD PUSH2 0x195 SWAP2 SWAP1 PUSH2 0x1427 JUMP JUMPDEST PUSH1 0x40 MLOAD DUP1 SWAP2 SUB SWAP1 RETURN JUMPDEST PUSH2 0x1B8 PUSH1 0x4 DUP1 CALLDATASIZE SUB DUP2 ADD SWAP1 PUSH2 0x1B3 SWAP2 SWAP1 PUSH2 0x10A8 JUMP JUMPDEST PUSH2 0x6A1 JUMP JUMPDEST PUSH1 0x40 MLOAD PUSH2 0x1C5 SWAP2 SWAP1 PUSH2 0x1449 JUMP JUMPDEST PUSH1 0x40 MLOAD DUP1 SWAP2 SUB SWAP1 RETURN JUMPDEST PUSH2 0x1E8 PUSH1 0x4 DUP1 CALLDATASIZE SUB DUP2 ADD SWAP1 PUSH2 0x1E3 SWAP2 SWAP1 PUSH2 0x13D4 JUMP JUMPDEST PUSH2 0x764 JUMP JUMPDEST STOP JUMPDEST PUSH2 0x204 PUSH1 0x4 DUP1 CALLDATASIZE SUB DUP2 ADD SWAP1 PUSH2 0x1FF SWAP2 SWAP1 PUSH2 0x10A8 JUMP JUMPDEST PUSH2 0x87B JUMP JUMPDEST PUSH1 0x40 MLOAD PUSH2 0x211 SWAP2 SWAP1 PUSH2 0x1464 JUMP JUMPDEST PUSH1 0x40 MLOAD DUP1 SWAP2 SUB SWAP1 RETURN JUMPDEST PUSH2 0x234 PUSH1 0x4 DUP1 CALLDATASIZE SUB DUP2 ADD SWAP1 PUSH2 0x22F SWAP2 SWAP1 PUSH2 0x10A8 JUMP JUMPDEST PUSH2 0x9A6 JUMP JUMPDEST PUSH1 0x40 MLOAD PUSH2 0x241 SWAP2 SWAP1 PUSH2 0x1544 JUMP JUMPDEST PUSH1 0x40 MLOAD DUP1 SWAP2 SUB SWAP1 RETURN JUMPDEST PUSH2 0x264 PUSH1 0x4 DUP1 CALLDATASIZE SUB DUP2 ADD SWAP1 PUSH2 0x25F SWAP2 SWAP1 PUSH2 0x1566 JUMP JUMPDEST PUSH2 0xA94 JUMP JUMPDEST PUSH1 0x40 MLOAD PUSH2 0x271 SWAP2 SWAP1 PUSH2 0x1061 JUMP JUMPDEST PUSH1 0x40 MLOAD DUP1 SWAP2 SUB SWAP1 RETURN JUMPDEST PUSH2 0x294 PUSH1 0x4 DUP1 CALLDATASIZE SUB DUP2 ADD SWAP1 PUSH2 0x28F SWAP2 SWAP1 PUSH2 0x10A8 JUMP JUMPDEST PUSH2 0xBAA JUMP JUMPDEST PUSH1 0x40 MLOAD PUSH2 0x2A1 SWAP2 SWAP1 PUSH2 0x1427 JUMP JUMPDEST PUSH1 0x40 MLOAD DUP1 SWAP2 SUB SWAP1 RETURN JUMPDEST PUSH2 0x2B2 PUSH2 0xCD5 JUMP JUMPDEST PUSH1 0x40 MLOAD PUSH2 0x2BF SWAP2 SWAP1 PUSH2 0x1061 JUMP JUMPDEST PUSH1 0x40 MLOAD DUP1 SWAP2 SUB SWAP1 RETURN JUMPDEST PUSH2 0x2E2 PUSH1 0x4 DUP1 CALLDATASIZE SUB DUP2 ADD SWAP1 PUSH2 0x2DD SWAP2 SWAP1 PUSH2 0x13D4 JUMP JUMPDEST PUSH2 0xCDB JUMP JUMPDEST PUSH1 0x40 MLOAD PUSH2 0x2EF SWAP2 SWAP1 PUSH2 0x1061 JUMP JUMPDEST PUSH1 0x40 MLOAD DUP1 SWAP2 SUB SWAP1 RETURN JUMPDEST PUSH2 0x312 PUSH1 0x4 DUP1 CALLDATASIZE SUB DUP2 ADD SWAP1 PUSH2 0x30D SWAP2 SWAP1 PUSH2 0x15DE JUMP JUMPDEST PUSH2 0xE48 JUMP JUMPDEST STOP JUMPDEST PUSH2 0x32E PUSH1 0x4 DUP1 CALLDATASIZE SUB DUP2 ADD SWAP1 PUSH2 0x329 SWAP2 SWAP1 PUSH2 0x16BF JUMP JUMPDEST PUSH2 0xE86 JUMP JUMPDEST STOP JUMPDEST PUSH1 0x0 PUSH1 0x5 PUSH1 0x0 DUP4 PUSH20 0xFFFFFFFFFFFFFFFFFFFFFFFFFFFFFFFFFFFFFFFF AND PUSH20 0xFFFFFFFFFFFFFFFFFFFFFFFFFFFFFFFFFFFFFFFF AND DUP2 MSTORE PUSH1 0x20 ADD SWAP1 DUP2 MSTORE PUSH1 0x20 ADD PUSH1 0x0 KECCAK256 SLOAD SWAP1 POP SWAP2 SWAP1 POP JUMP JUMPDEST PUSH1 0x4 PUSH1 0x20 MSTORE DUP1 PUSH1 0x0 MSTORE PUSH1 0x40 PUSH1 0x0 KECCAK256 PUSH1 0x0 SWAP2 POP SWAP1 POP DUP1 PUSH1 0x0 ADD SLOAD SWAP1 DUP1 PUSH1 0x1 ADD DUP1 SLOAD PUSH2 0x3A2 SWAP1 PUSH2 0x17E4 JUMP JUMPDEST DUP1 PUSH1 0x1F ADD PUSH1 0x20 DUP1 SWAP2 DIV MUL PUSH1 0x20 ADD PUSH1 0x40 MLOAD SWAP1 DUP2 ADD PUSH1 0x40 MSTORE DUP1 SWAP3 SWAP2 SWAP1 DUP2 DUP2 MSTORE PUSH1 0x20 ADD DUP3 DUP1 SLOAD PUSH2 0x3CE SWAP1 PUSH2 0x17E4 JUMP JUMPDEST DUP1 ISZERO PUSH2 0x41B JUMPI DUP1 PUSH1 0x1F LT PUSH2 0x3F0 JUMPI PUSH2 0x100 DUP1 DUP4 SLOAD DIV MUL DUP4 MSTORE SWAP2 PUSH1 0x20 ADD SWAP2 PUSH2 0x41B JUMP JUMPDEST DUP3 ADD SWAP2 SWAP1 PUSH1 0x0 MSTORE PUSH1 0x20 PUSH1 0x0 KECCAK256 SWAP1 JUMPDEST DUP2 SLOAD DUP2 MSTORE SWAP1 PUSH1 0x1 ADD SWAP1 PUSH1 0x20 ADD DUP1 DUP4 GT PUSH2 0x3FE JUMPI DUP3 SWAP1 SUB PUSH1 0x1F AND DUP3 ADD SWAP2 JUMPDEST POP POP POP POP POP SWAP1 DUP1 PUSH1 0x2 ADD DUP1 SLOAD PUSH2 0x430 SWAP1 PUSH2 0x17E4 JUMP JUMPDEST DUP1 PUSH1 0x1F ADD PUSH1 0x20 DUP1 SWAP2 DIV MUL PUSH1 0x20 ADD PUSH1 0x40 MLOAD SWAP1 DUP2 ADD PUSH1 0x40 MSTORE DUP1 SWAP3 SWAP2 SWAP1 DUP2 DUP2 MSTORE PUSH1 0x20 ADD DUP3 DUP1 SLOAD PUSH2 0x45C SWAP1 PUSH2 0x17E4 JUMP JUMPDEST DUP1 ISZERO PUSH2 0x4A9 JUMPI DUP1 PUSH1 0x1F LT PUSH2 0x47E JUMPI PUSH2 0x100 DUP1 DUP4 SLOAD DIV MUL DUP4 MSTORE SWAP2 PUSH1 0x20 ADD SWAP2 PUSH2 0x4A9 JUMP JUMPDEST DUP3 ADD SWAP2 SWAP1 PUSH1 0x0 MSTORE PUSH1 0x20 PUSH1 0x0 KECCAK256 SWAP1 JUMPDEST DUP2 SLOAD DUP2 MSTORE SWAP1 PUSH1 0x1 ADD SWAP1 PUSH1 0x20 ADD DUP1 DUP4 GT PUSH2 0x48C JUMPI DUP3 SWAP1 SUB PUSH1 0x1F AND DUP3 ADD SWAP2 JUMPDEST POP POP POP POP POP SWAP1 DUP1 PUSH1 0x3 ADD PUSH1 0x0 SWAP1 SLOAD SWAP1 PUSH2 0x100 EXP SWAP1 DIV PUSH20 0xFFFFFFFFFFFFFFFFFFFFFFFFFFFFFFFFFFFFFFFF AND SWAP1 POP DUP5 JUMP JUMPDEST DUP2 DUP1 PUSH1 0x5 PUSH1 0x0 CALLER PUSH20 0xFFFFFFFFFFFFFFFFFFFFFFFFFFFFFFFFFFFFFFFF AND PUSH20 0xFFFFFFFFFFFFFFFFFFFFFFFFFFFFFFFFFFFFFFFF AND DUP2 MSTORE PUSH1 0x20 ADD SWAP1 DUP2 MSTORE PUSH1 0x20 ADD PUSH1 0x0 KECCAK256 SLOAD EQ PUSH2 0x55B JUMPI PUSH1 0x40 MLOAD PUSH32 0x8C379A000000000000000000000000000000000000000000000000000000000 DUP2 MSTORE PUSH1 0x4 ADD PUSH2 0x552 SWAP1 PUSH2 0x1861 JUMP JUMPDEST PUSH1 0x40 MLOAD DUP1 SWAP2 SUB SWAP1 REVERT JUMPDEST PUSH1 0x0 DUP1 SLOAD SWAP1 PUSH2 0x100 EXP SWAP1 DIV PUSH20 0xFFFFFFFFFFFFFFFFFFFFFFFFFFFFFFFFFFFFFFFF AND PUSH20 0xFFFFFFFFFFFFFFFFFFFFFFFFFFFFFFFFFFFFFFFF AND PUSH4 0xBFCB6CFB DUP7 DUP7 DUP7 PUSH1 0x40 MLOAD DUP5 PUSH4 0xFFFFFFFF AND PUSH1 0xE0 SHL DUP2 MSTORE PUSH1 0x4 ADD PUSH2 0x5B8 SWAP4 SWAP3 SWAP2 SWAP1 PUSH2 0x1881 JUMP JUMPDEST PUSH1 0x0 PUSH1 0x40 MLOAD DUP1 DUP4 SUB DUP2 PUSH1 0x0 DUP8 DUP1 EXTCODESIZE ISZERO DUP1 ISZERO PUSH2 0x5D2 JUMPI PUSH1 0x0 DUP1 REVERT JUMPDEST POP GAS CALL ISZERO DUP1 ISZERO PUSH2 0x5E6 JUMPI RETURNDATASIZE PUSH1 0x0 DUP1 RETURNDATACOPY RETURNDATASIZE PUSH1 0x0 REVERT JUMPDEST POP POP POP POP POP POP POP POP POP JUMP JUMPDEST PUSH1 0x60 PUSH1 0x1 PUSH1 0x0 SWAP1 SLOAD SWAP1 PUSH2 0x100 EXP SWAP1 DIV PUSH20 0xFFFFFFFFFFFFFFFFFFFFFFFFFFFFFFFFFFFFFFFF AND PUSH20 0xFFFFFFFFFFFFFFFFFFFFFFFFFFFFFFFFFFFFFFFF AND PUSH4 0x9CB3D01F DUP6 DUP6 DUP6 PUSH1 0x40 MLOAD DUP5 PUSH4 0xFFFFFFFF AND PUSH1 0xE0 SHL DUP2 MSTORE PUSH1 0x4 ADD PUSH2 0x652 SWAP4 SWAP3 SWAP2 SWAP1 PUSH2 0x1881 JUMP JUMPDEST PUSH1 0x0 PUSH1 0x40 MLOAD DUP1 DUP4 SUB DUP2 DUP7 GAS STATICCALL ISZERO DUP1 ISZERO PUSH2 0x66F JUMPI RETURNDATASIZE PUSH1 0x0 DUP1 RETURNDATACOPY RETURNDATASIZE PUSH1 0x0 REVERT JUMPDEST POP POP POP POP PUSH1 0x40 MLOAD RETURNDATASIZE PUSH1 0x0 DUP3 RETURNDATACOPY RETURNDATASIZE PUSH1 0x1F NOT PUSH1 0x1F DUP3 ADD AND DUP3 ADD DUP1 PUSH1 0x40 MSTORE POP DUP2 ADD SWAP1 PUSH2 0x698 SWAP2 SWAP1 PUSH2 0x1928 JUMP JUMPDEST SWAP1 POP SWAP4 SWAP3 POP POP POP JUMP JUMPDEST PUSH1 0x0 DUP2 DUP1 PUSH1 0x5 PUSH1 0x0 CALLER PUSH20 0xFFFFFFFFFFFFFFFFFFFFFFFFFFFFFFFFFFFFFFFF AND PUSH20 0xFFFFFFFFFFFFFFFFFFFFFFFFFFFFFFFFFFFFFFFF AND DUP2 MSTORE PUSH1 0x20 ADD SWAP1 DUP2 MSTORE PUSH1 0x20 ADD PUSH1 0x0 KECCAK256 SLOAD EQ PUSH2 0x725 JUMPI PUSH1 0x40 MLOAD PUSH32 0x8C379A000000000000000000000000000000000000000000000000000000000 DUP2 MSTORE PUSH1 0x4 ADD PUSH2 0x71C SWAP1 PUSH2 0x1861 JUMP JUMPDEST PUSH1 0x40 MLOAD DUP1 SWAP2 SUB SWAP1 REVERT JUMPDEST PUSH1 0x4 PUSH1 0x0 DUP5 DUP2 MSTORE PUSH1 0x20 ADD SWAP1 DUP2 MSTORE PUSH1 0x20 ADD PUSH1 0x0 KECCAK256 PUSH1 0x3 ADD PUSH1 0x0 SWAP1 SLOAD SWAP1 PUSH2 0x100 EXP SWAP1 DIV PUSH20 0xFFFFFFFFFFFFFFFFFFFFFFFFFFFFFFFFFFFFFFFF AND SWAP2 POP POP SWAP2 SWAP1 POP JUMP JUMPDEST DUP1 DUP1 PUSH1 0x5 PUSH1 0x0 CALLER PUSH20 0xFFFFFFFFFFFFFFFFFFFFFFFFFFFFFFFFFFFFFFFF AND PUSH20 0xFFFFFFFFFFFFFFFFFFFFFFFFFFFFFFFFFFFFFFFF AND DUP2 MSTORE PUSH1 0x20 ADD SWAP1 DUP2 MSTORE PUSH1 0x20 ADD PUSH1 0x0 KECCAK256 SLOAD EQ PUSH2 0x7E6 JUMPI PUSH1 0x40 MLOAD PUSH32 0x8C379A000000000000000000000000000000000000000000000000000000000 DUP2 MSTORE PUSH1 0x4 ADD PUSH2 0x7DD SWAP1 PUSH2 0x1861 JUMP JUMPDEST PUSH1 0x40 MLOAD DUP1 SWAP2 SUB SWAP1 REVERT JUMPDEST PUSH1 0x0 DUP1 SLOAD SWAP1 PUSH2 0x100 EXP SWAP1 DIV PUSH20 0xFFFFFFFFFFFFFFFFFFFFFFFFFFFFFFFFFFFFFFFF AND PUSH20 0xFFFFFFFFFFFFFFFFFFFFFFFFFFFFFFFFFFFFFFFF AND PUSH4 0x561C865B DUP6 DUP6 DUP6 PUSH1 0x40 MLOAD DUP5 PUSH4 0xFFFFFFFF AND PUSH1 0xE0 SHL DUP2 MSTORE PUSH1 0x4 ADD PUSH2 0x843 SWAP4 SWAP3 SWAP2 SWAP1 PUSH2 0x1881 JUMP JUMPDEST PUSH1 0x0 PUSH1 0x40 MLOAD DUP1 DUP4 SUB DUP2 PUSH1 0x0 DUP8 DUP1 EXTCODESIZE ISZERO DUP1 ISZERO PUSH2 0x85D JUMPI PUSH1 0x0 DUP1 REVERT JUMPDEST POP GAS CALL ISZERO DUP1 ISZERO PUSH2 0x871 JUMPI RETURNDATASIZE PUSH1 0x0 DUP1 RETURNDATACOPY RETURNDATASIZE PUSH1 0x0 REVERT JUMPDEST POP POP POP POP POP POP POP POP JUMP JUMPDEST PUSH1 0x60 DUP2 DUP1 PUSH1 0x5 PUSH1 0x0 CALLER PUSH20 0xFFFFFFFFFFFFFFFFFFFFFFFFFFFFFFFFFFFFFFFF AND PUSH20 0xFFFFFFFFFFFFFFFFFFFFFFFFFFFFFFFFFFFFFFFF AND DUP2 MSTORE PUSH1 0x20 ADD SWAP1 DUP2 MSTORE PUSH1 0x20 ADD PUSH1 0x0 KECCAK256 SLOAD EQ PUSH2 0x8FF JUMPI PUSH1 0x40 MLOAD PUSH32 0x8C379A000000000000000000000000000000000000000000000000000000000 DUP2 MSTORE PUSH1 0x4 ADD PUSH2 0x8F6 SWAP1 PUSH2 0x1861 JUMP JUMPDEST PUSH1 0x40 MLOAD DUP1 SWAP2 SUB SWAP1 REVERT JUMPDEST PUSH1 0x4 PUSH1 0x0 DUP5 DUP2 MSTORE PUSH1 0x20 ADD SWAP1 DUP2 MSTORE PUSH1 0x20 ADD PUSH1 0x0 KECCAK256 PUSH1 0x1 ADD DUP1 SLOAD PUSH2 0x920 SWAP1 PUSH2 0x17E4 JUMP JUMPDEST DUP1 PUSH1 0x1F ADD PUSH1 0x20 DUP1 SWAP2 DIV MUL PUSH1 0x20 ADD PUSH1 0x40 MLOAD SWAP1 DUP2 ADD PUSH1 0x40 MSTORE DUP1 SWAP3 SWAP2 SWAP1 DUP2 DUP2 MSTORE PUSH1 0x20 ADD DUP3 DUP1 SLOAD PUSH2 0x94C SWAP1 PUSH2 0x17E4 JUMP JUMPDEST DUP1 ISZERO PUSH2 0x999 JUMPI DUP1 PUSH1 0x1F LT PUSH2 0x96E JUMPI PUSH2 0x100 DUP1 DUP4 SLOAD DIV MUL DUP4 MSTORE SWAP2 PUSH1 0x20 ADD SWAP2 PUSH2 0x999 JUMP JUMPDEST DUP3 ADD SWAP2 SWAP1 PUSH1 0x0 MSTORE PUSH1 0x20 PUSH1 0x0 KECCAK256 SWAP1 JUMPDEST DUP2 SLOAD DUP2 MSTORE SWAP1 PUSH1 0x1 ADD SWAP1 PUSH1 0x20 ADD DUP1 DUP4 GT PUSH2 0x97C JUMPI DUP3 SWAP1 SUB PUSH1 0x1F AND DUP3 ADD SWAP2 JUMPDEST POP POP POP POP POP SWAP2 POP POP SWAP2 SWAP1 POP JUMP JUMPDEST PUSH1 0x60 DUP2 DUP1 PUSH1 0x5 PUSH1 0x0 CALLER PUSH20 0xFFFFFFFFFFFFFFFFFFFFFFFFFFFFFFFFFFFFFFFF AND PUSH20 0xFFFFFFFFFFFFFFFFFFFFFFFFFFFFFFFFFFFFFFFF AND DUP2 MSTORE PUSH1 0x20 ADD SWAP1 DUP2 MSTORE PUSH1 0x20 ADD PUSH1 0x0 KECCAK256 SLOAD EQ PUSH2 0xA2A JUMPI PUSH1 0x40 MLOAD PUSH32 0x8C379A000000000000000000000000000000000000000000000000000000000 DUP2 MSTORE PUSH1 0x4 ADD PUSH2 0xA21 SWAP1 PUSH2 0x1861 JUMP JUMPDEST PUSH1 0x40 MLOAD DUP1 SWAP2 SUB SWAP1 REVERT JUMPDEST PUSH1 0x6 PUSH1 0x0 DUP5 DUP2 MSTORE PUSH1 0x20 ADD SWAP1 DUP2 MSTORE PUSH1 0x20 ADD PUSH1 0x0 KECCAK256 DUP1 SLOAD DUP1 PUSH1 0x20 MUL PUSH1 0x20 ADD PUSH1 0x40 MLOAD SWAP1 DUP2 ADD PUSH1 0x40 MSTORE DUP1 SWAP3 SWAP2 SWAP1 DUP2 DUP2 MSTORE PUSH1 0x20 ADD DUP3 DUP1 SLOAD DUP1 ISZERO PUSH2 0xA87 JUMPI PUSH1 0x20 MUL DUP3 ADD SWAP2 SWAP1 PUSH1 0x0 MSTORE PUSH1 0x20 PUSH1 0x0 KECCAK256 SWAP1 JUMPDEST DUP2 SLOAD DUP2 MSTORE PUSH1 0x20 ADD SWAP1 PUSH1 0x1 ADD SWAP1 DUP1 DUP4 GT PUSH2 0xA73 JUMPI JUMPDEST POP POP POP POP POP SWAP2 POP POP SWAP2 SWAP1 POP JUMP JUMPDEST PUSH1 0x0 PUSH1 0x3 PUSH1 0x0 DUP2 SLOAD DUP1 SWAP3 SWAP2 SWAP1 PUSH2 0xAA9 SWAP1 PUSH2 0x19A0 JUMP JUMPDEST SWAP2 SWAP1 POP SSTORE POP PUSH1 0x0 PUSH1 0x4 PUSH1 0x0 PUSH1 0x3 SLOAD DUP2 MSTORE PUSH1 0x20 ADD SWAP1 DUP2 MSTORE PUSH1 0x20 ADD PUSH1 0x0 KECCAK256 SWAP1 POP PUSH1 0x3 SLOAD DUP2 PUSH1 0x0 ADD DUP2 SWAP1 SSTORE POP DUP4 DUP2 PUSH1 0x1 ADD SWAP1 DUP2 PUSH2 0xAE3 SWAP2 SWAP1 PUSH2 0x1B94 JUMP JUMPDEST POP CALLER DUP2 PUSH1 0x3 ADD PUSH1 0x0 PUSH2 0x100 EXP DUP2 SLOAD DUP2 PUSH20 0xFFFFFFFFFFFFFFFFFFFFFFFFFFFFFFFFFFFFFFFF MUL NOT AND SWAP1 DUP4 PUSH20 0xFFFFFFFFFFFFFFFFFFFFFFFFFFFFFFFFFFFFFFFF AND MUL OR SWAP1 SSTORE POP DUP3 PUSH1 0x40 MLOAD PUSH1 0x20 ADD PUSH2 0xB38 SWAP2 SWAP1 PUSH2 0x1CA2 JUMP JUMPDEST PUSH1 0x40 MLOAD PUSH1 0x20 DUP2 DUP4 SUB SUB DUP2 MSTORE SWAP1 PUSH1 0x40 MSTORE DUP2 PUSH1 0x2 ADD SWAP1 DUP2 PUSH2 0xB57 SWAP2 SWAP1 PUSH2 0x1D14 JUMP JUMPDEST POP PUSH1 0x3 SLOAD PUSH1 0x5 PUSH1 0x0 CALLER PUSH20 0xFFFFFFFFFFFFFFFFFFFFFFFFFFFFFFFFFFFFFFFF AND PUSH20 0xFFFFFFFFFFFFFFFFFFFFFFFFFFFFFFFFFFFFFFFF AND DUP2 MSTORE PUSH1 0x20 ADD SWAP1 DUP2 MSTORE PUSH1 0x20 ADD PUSH1 0x0 KECCAK256 DUP2 SWAP1 SSTORE POP PUSH1 0x3 SLOAD SWAP2 POP POP SWAP3 SWAP2 POP POP JUMP JUMPDEST PUSH1 0x60 DUP2 DUP1 PUSH1 0x5 PUSH1 0x0 CALLER PUSH20 0xFFFFFFFFFFFFFFFFFFFFFFFFFFFFFFFFFFFFFFFF AND PUSH20 0xFFFFFFFFFFFFFFFFFFFFFFFFFFFFFFFFFFFFFFFF AND DUP2 MSTORE PUSH1 0x20 ADD SWAP1 DUP2 MSTORE PUSH1 0x20 ADD PUSH1 0x0 KECCAK256 SLOAD EQ PUSH2 0xC2E JUMPI PUSH1 0x40 MLOAD PUSH32 0x8C379A000000000000000000000000000000000000000000000000000000000 DUP2 MSTORE PUSH1 0x4 ADD PUSH2 0xC25 SWAP1 PUSH2 0x1861 JUMP JUMPDEST PUSH1 0x40 MLOAD DUP1 SWAP2 SUB SWAP1 REVERT JUMPDEST PUSH1 0x4 PUSH1 0x0 DUP5 DUP2 MSTORE PUSH1 0x20 ADD SWAP1 DUP2 MSTORE PUSH1 0x20 ADD PUSH1 0x0 KECCAK256 PUSH1 0x2 ADD DUP1 SLOAD PUSH2 0xC4F SWAP1 PUSH2 0x17E4 JUMP JUMPDEST DUP1 PUSH1 0x1F ADD PUSH1 0x20 DUP1 SWAP2 DIV MUL PUSH1 0x20 ADD PUSH1 0x40 MLOAD SWAP1 DUP2 ADD PUSH1 0x40 MSTORE DUP1 SWAP3 SWAP2 SWAP1 DUP2 DUP2 MSTORE PUSH1 0x20 ADD DUP3 DUP1 SLOAD PUSH2 0xC7B SWAP1 PUSH2 0x17E4 JUMP JUMPDEST DUP1 ISZERO PUSH2 0xCC8 JUMPI DUP1 PUSH1 0x1F LT PUSH2 0xC9D JUMPI PUSH2 0x100 DUP1 DUP4 SLOAD DIV MUL DUP4 MSTORE SWAP2 PUSH1 0x20 ADD SWAP2 PUSH2 0xCC8 JUMP JUMPDEST DUP3 ADD SWAP2 SWAP1 PUSH1 0x0 MSTORE PUSH1 0x20 PUSH1 0x0 KECCAK256 SWAP1 JUMPDEST DUP2 SLOAD DUP2 MSTORE SWAP1 PUSH1 0x1 ADD SWAP1 PUSH1 0x20 ADD DUP1 DUP4 GT PUSH2 0xCAB JUMPI DUP3 SWAP1 SUB PUSH1 0x1F AND DUP3 ADD SWAP2 JUMPDEST POP POP POP POP POP SWAP2 POP POP SWAP2 SWAP1 POP JUMP JUMPDEST PUSH1 0x3 SLOAD DUP2 JUMP JUMPDEST PUSH1 0x0 DUP4 DUP1 PUSH1 0x5 PUSH1 0x0 CALLER PUSH20 0xFFFFFFFFFFFFFFFFFFFFFFFFFFFFFFFFFFFFFFFF AND PUSH20 0xFFFFFFFFFFFFFFFFFFFFFFFFFFFFFFFFFFFFFFFF AND DUP2 MSTORE PUSH1 0x20 ADD SWAP1 DUP2 MSTORE PUSH1 0x20 ADD PUSH1 0x0 KECCAK256 SLOAD EQ PUSH2 0xD5F JUMPI PUSH1 0x40 MLOAD PUSH32 0x8C379A000000000000000000000000000000000000000000000000000000000 DUP2 MSTORE PUSH1 0x4 ADD PUSH2 0xD56 SWAP1 PUSH2 0x1861 JUMP JUMPDEST PUSH1 0x40 MLOAD DUP1 SWAP2 SUB SWAP1 REVERT JUMPDEST PUSH1 0x0 DUP1 PUSH1 0x0 DUP1 SLOAD SWAP1 PUSH2 0x100 EXP SWAP1 DIV PUSH20 0xFFFFFFFFFFFFFFFFFFFFFFFFFFFFFFFFFFFFFFFF AND PUSH20 0xFFFFFFFFFFFFFFFFFFFFFFFFFFFFFFFFFFFFFFFF AND PUSH4 0x5D996701 DUP8 DUP8 PUSH1 0x40 MLOAD DUP4 PUSH4 0xFFFFFFFF AND PUSH1 0xE0 SHL DUP2 MSTORE PUSH1 0x4 ADD PUSH2 0xDBD SWAP3 SWAP2 SWAP1 PUSH2 0x1DE6 JUMP JUMPDEST PUSH1 0x40 DUP1 MLOAD DUP1 DUP4 SUB DUP2 PUSH1 0x0 DUP8 GAS CALL ISZERO DUP1 ISZERO PUSH2 0xDDB JUMPI RETURNDATASIZE PUSH1 0x0 DUP1 RETURNDATACOPY RETURNDATASIZE PUSH1 0x0 REVERT JUMPDEST POP POP POP POP PUSH1 0x40 MLOAD RETURNDATASIZE PUSH1 0x1F NOT PUSH1 0x1F DUP3 ADD AND DUP3 ADD DUP1 PUSH1 0x40 MSTORE POP DUP2 ADD SWAP1 PUSH2 0xDFF SWAP2 SWAP1 PUSH2 0x1E49 JUMP JUMPDEST SWAP2 POP SWAP2 POP PUSH1 0x0 PUSH1 0x2 DUP2 GT ISZERO PUSH2 0xE17 JUMPI PUSH2 0xE16 PUSH2 0x1E89 JUMP JUMPDEST JUMPDEST DUP3 PUSH1 0x2 DUP2 GT ISZERO PUSH2 0xE2A JUMPI PUSH2 0xE29 PUSH2 0x1E89 JUMP JUMPDEST JUMPDEST SUB PUSH2 0xE39 JUMPI DUP1 SWAP4 POP POP POP PUSH2 0xE40 JUMP JUMPDEST PUSH1 0x0 SWAP4 POP POP POP JUMPDEST POP SWAP4 SWAP3 POP POP POP JUMP JUMPDEST PUSH1 0x6 PUSH1 0x0 DUP4 DUP2 MSTORE PUSH1 0x20 ADD SWAP1 DUP2 MSTORE PUSH1 0x20 ADD PUSH1 0x0 KECCAK256 DUP2 SWAP1 DUP1 PUSH1 0x1 DUP2 SLOAD ADD DUP1 DUP3 SSTORE DUP1 SWAP2 POP POP PUSH1 0x1 SWAP1 SUB SWAP1 PUSH1 0x0 MSTORE PUSH1 0x20 PUSH1 0x0 KECCAK256 ADD PUSH1 0x0 SWAP1 SWAP2 SWAP1 SWAP2 SWAP1 SWAP2 POP SSTORE POP POP JUMP JUMPDEST DUP3 DUP1 PUSH1 0x5 PUSH1 0x0 CALLER PUSH20 0xFFFFFFFFFFFFFFFFFFFFFFFFFFFFFFFFFFFFFFFF AND PUSH20 0xFFFFFFFFFFFFFFFFFFFFFFFFFFFFFFFFFFFFFFFF AND DUP2 MSTORE PUSH1 0x20 ADD SWAP1 DUP2 MSTORE PUSH1 0x20 ADD PUSH1 0x0 KECCAK256 SLOAD EQ PUSH2 0xF08 JUMPI PUSH1 0x40 MLOAD PUSH32 0x8C379A000000000000000000000000000000000000000000000000000000000 DUP2 MSTORE PUSH1 0x4 ADD PUSH2 0xEFF SWAP1 PUSH2 0x1861 JUMP JUMPDEST PUSH1 0x40 MLOAD DUP1 SWAP2 SUB SWAP1 REVERT JUMPDEST PUSH1 0x0 DUP1 SLOAD SWAP1 PUSH2 0x100 EXP SWAP1 DIV PUSH20 0xFFFFFFFFFFFFFFFFFFFFFFFFFFFFFFFFFFFFFFFF AND PUSH20 0xFFFFFFFFFFFFFFFFFFFFFFFFFFFFFFFFFFFFFFFF AND PUSH4 0x700D9EF7 DUP10 DUP10 DUP10 DUP10 DUP10 DUP10 DUP10 PUSH1 0x40 MLOAD DUP9 PUSH4 0xFFFFFFFF AND PUSH1 0xE0 SHL DUP2 MSTORE PUSH1 0x4 ADD PUSH2 0xF6D SWAP8 SWAP7 SWAP6 SWAP5 SWAP4 SWAP3 SWAP2 SWAP1 PUSH2 0x1EB8 JUMP JUMPDEST PUSH1 0x0 PUSH1 0x40 MLOAD DUP1 DUP4 SUB DUP2 PUSH1 0x0 DUP8 DUP1 EXTCODESIZE ISZERO DUP1 ISZERO PUSH2 0xF87 JUMPI PUSH1 0x0 DUP1 REVERT JUMPDEST POP GAS CALL ISZERO DUP1 ISZERO PUSH2 0xF9B JUMPI RETURNDATASIZE PUSH1 0x0 DUP1 RETURNDATACOPY RETURNDATASIZE PUSH1 0x0 REVERT JUMPDEST POP POP POP POP POP POP POP POP POP POP POP POP JUMP JUMPDEST PUSH1 0x0 PUSH1 0x40 MLOAD SWAP1 POP SWAP1 JUMP JUMPDEST PUSH1 0x0 DUP1 REVERT JUMPDEST PUSH1 0x0 DUP1 REVERT JUMPDEST PUSH1 0x0 PUSH20 0xFFFFFFFFFFFFFFFFFFFFFFFFFFFFFFFFFFFFFFFF DUP3 AND SWAP1 POP SWAP2 SWAP1 POP JUMP JUMPDEST PUSH1 0x0 PUSH2 0xFE8 DUP3 PUSH2 0xFBD JUMP JUMPDEST SWAP1 POP SWAP2 SWAP1 POP JUMP JUMPDEST PUSH2 0xFF8 DUP2 PUSH2 0xFDD JUMP JUMPDEST DUP2 EQ PUSH2 0x1003 JUMPI PUSH1 0x0 DUP1 REVERT JUMPDEST POP JUMP JUMPDEST PUSH1 0x0 DUP2 CALLDATALOAD SWAP1 POP PUSH2 0x1015 DUP2 PUSH2 0xFEF JUMP JUMPDEST SWAP3 SWAP2 POP POP JUMP JUMPDEST PUSH1 0x0 PUSH1 0x20 DUP3 DUP5 SUB SLT ISZERO PUSH2 0x1031 JUMPI PUSH2 0x1030 PUSH2 0xFB3 JUMP JUMPDEST JUMPDEST PUSH1 0x0 PUSH2 0x103F DUP5 DUP3 DUP6 ADD PUSH2 0x1006 JUMP JUMPDEST SWAP2 POP POP SWAP3 SWAP2 POP POP JUMP JUMPDEST PUSH1 0x0 DUP2 SWAP1 POP SWAP2 SWAP1 POP JUMP JUMPDEST PUSH2 0x105B DUP2 PUSH2 0x1048 JUMP JUMPDEST DUP3 MSTORE POP POP JUMP JUMPDEST PUSH1 0x0 PUSH1 0x20 DUP3 ADD SWAP1 POP PUSH2 0x1076 PUSH1 0x0 DUP4 ADD DUP5 PUSH2 0x1052 JUMP JUMPDEST SWAP3 SWAP2 POP POP JUMP JUMPDEST PUSH2 0x1085 DUP2 PUSH2 0x1048 JUMP JUMPDEST DUP2 EQ PUSH2 0x1090 JUMPI PUSH1 0x0 DUP1 REVERT JUMPDEST POP JUMP JUMPDEST PUSH1 0x0 DUP2 CALLDATALOAD SWAP1 POP PUSH2 0x10A2 DUP2 PUSH2 0x107C JUMP JUMPDEST SWAP3 SWAP2 POP POP JUMP JUMPDEST PUSH1 0x0 PUSH1 0x20 DUP3 DUP5 SUB SLT ISZERO PUSH2 0x10BE JUMPI PUSH2 0x10BD PUSH2 0xFB3 JUMP JUMPDEST JUMPDEST PUSH1 0x0 PUSH2 0x10CC DUP5 DUP3 DUP6 ADD PUSH2 0x1093 JUMP JUMPDEST SWAP2 POP POP SWAP3 SWAP2 POP POP JUMP JUMPDEST PUSH1 0x0 DUP2 MLOAD SWAP1 POP SWAP2 SWAP1 POP JUMP JUMPDEST PUSH1 0x0 DUP3 DUP3 MSTORE PUSH1 0x20 DUP3 ADD SWAP1 POP SWAP3 SWAP2 POP POP JUMP JUMPDEST PUSH1 0x0 JUMPDEST DUP4 DUP2 LT ISZERO PUSH2 0x110F JUMPI DUP1 DUP3 ADD MLOAD DUP2 DUP5 ADD MSTORE PUSH1 0x20 DUP2 ADD SWAP1 POP PUSH2 0x10F4 JUMP JUMPDEST PUSH1 0x0 DUP5 DUP5 ADD MSTORE POP POP POP POP JUMP JUMPDEST PUSH1 0x0 PUSH1 0x1F NOT PUSH1 0x1F DUP4 ADD AND SWAP1 POP SWAP2 SWAP1 POP JUMP JUMPDEST PUSH1 0x0 PUSH2 0x1137 DUP3 PUSH2 0x10D5 JUMP JUMPDEST PUSH2 0x1141 DUP2 DUP6 PUSH2 0x10E0 JUMP JUMPDEST SWAP4 POP PUSH2 0x1151 DUP2 DUP6 PUSH1 0x20 DUP7 ADD PUSH2 0x10F1 JUMP JUMPDEST PUSH2 0x115A DUP2 PUSH2 0x111B JUMP JUMPDEST DUP5 ADD SWAP2 POP POP SWAP3 SWAP2 POP POP JUMP JUMPDEST PUSH1 0x0 DUP2 MLOAD SWAP1 POP SWAP2 SWAP1 POP JUMP JUMPDEST PUSH1 0x0 DUP3 DUP3 MSTORE PUSH1 0x20 DUP3 ADD SWAP1 POP SWAP3 SWAP2 POP POP JUMP JUMPDEST PUSH1 0x0 PUSH2 0x118C DUP3 PUSH2 0x1165 JUMP JUMPDEST PUSH2 0x1196 DUP2 DUP6 PUSH2 0x1170 JUMP JUMPDEST SWAP4 POP PUSH2 0x11A6 DUP2 DUP6 PUSH1 0x20 DUP7 ADD PUSH2 0x10F1 JUMP JUMPDEST PUSH2 0x11AF DUP2 PUSH2 0x111B JUMP JUMPDEST DUP5 ADD SWAP2 POP POP SWAP3 SWAP2 POP POP JUMP JUMPDEST PUSH2 0x11C3 DUP2 PUSH2 0xFDD JUMP JUMPDEST DUP3 MSTORE POP POP JUMP JUMPDEST PUSH1 0x0 PUSH1 0x80 DUP3 ADD SWAP1 POP PUSH2 0x11DE PUSH1 0x0 DUP4 ADD DUP8 PUSH2 0x1052 JUMP JUMPDEST DUP2 DUP2 SUB PUSH1 0x20 DUP4 ADD MSTORE PUSH2 0x11F0 DUP2 DUP7 PUSH2 0x112C JUMP JUMPDEST SWAP1 POP DUP2 DUP2 SUB PUSH1 0x40 DUP4 ADD MSTORE PUSH2 0x1204 DUP2 DUP6 PUSH2 0x1181 JUMP JUMPDEST SWAP1 POP PUSH2 0x1213 PUSH1 0x60 DUP4 ADD DUP5 PUSH2 0x11BA JUMP JUMPDEST SWAP6 SWAP5 POP POP POP POP POP JUMP JUMPDEST PUSH1 0x0 DUP1 REVERT JUMPDEST PUSH1 0x0 DUP1 REVERT JUMPDEST PUSH32 0x4E487B7100000000000000000000000000000000000000000000000000000000 PUSH1 0x0 MSTORE PUSH1 0x41 PUSH1 0x4 MSTORE PUSH1 0x24 PUSH1 0x0 REVERT JUMPDEST PUSH2 0x125E DUP3 PUSH2 0x111B JUMP JUMPDEST DUP2 ADD DUP2 DUP2 LT PUSH8 0xFFFFFFFFFFFFFFFF DUP3 GT OR ISZERO PUSH2 0x127D JUMPI PUSH2 0x127C PUSH2 0x1226 JUMP JUMPDEST JUMPDEST DUP1 PUSH1 0x40 MSTORE POP POP POP JUMP JUMPDEST PUSH1 0x0 PUSH2 0x1290 PUSH2 0xFA9 JUMP JUMPDEST SWAP1 POP PUSH2 0x129C DUP3 DUP3 PUSH2 0x1255 JUMP JUMPDEST SWAP2 SWAP1 POP JUMP JUMPDEST PUSH1 0x0 PUSH8 0xFFFFFFFFFFFFFFFF DUP3 GT ISZERO PUSH2 0x12BC JUMPI PUSH2 0x12BB PUSH2 0x1226 JUMP JUMPDEST JUMPDEST PUSH2 0x12C5 DUP3 PUSH2 0x111B JUMP JUMPDEST SWAP1 POP PUSH1 0x20 DUP2 ADD SWAP1 POP SWAP2 SWAP1 POP JUMP JUMPDEST DUP3 DUP2 DUP4 CALLDATACOPY PUSH1 0x0 DUP4 DUP4 ADD MSTORE POP POP POP JUMP JUMPDEST PUSH1 0x0 PUSH2 0x12F4 PUSH2 0x12EF DUP5 PUSH2 0x12A1 JUMP JUMPDEST PUSH2 0x1286 JUMP JUMPDEST SWAP1 POP DUP3 DUP2 MSTORE PUSH1 0x20 DUP2 ADD DUP5 DUP5 DUP5 ADD GT ISZERO PUSH2 0x1310 JUMPI PUSH2 0x130F PUSH2 0x1221 JUMP JUMPDEST JUMPDEST PUSH2 0x131B DUP5 DUP3 DUP6 PUSH2 0x12D2 JUMP JUMPDEST POP SWAP4 SWAP3 POP POP POP JUMP JUMPDEST PUSH1 0x0 DUP3 PUSH1 0x1F DUP4 ADD SLT PUSH2 0x1338 JUMPI PUSH2 0x1337 PUSH2 0x121C JUMP JUMPDEST JUMPDEST DUP2 CALLDATALOAD PUSH2 0x1348 DUP5 DUP3 PUSH1 0x20 DUP7 ADD PUSH2 0x12E1 JUMP JUMPDEST SWAP2 POP POP SWAP3 SWAP2 POP POP JUMP JUMPDEST PUSH1 0x0 DUP1 PUSH1 0x0 DUP1 PUSH1 0x80 DUP6 DUP8 SUB SLT ISZERO PUSH2 0x136B JUMPI PUSH2 0x136A PUSH2 0xFB3 JUMP JUMPDEST JUMPDEST PUSH1 0x0 PUSH2 0x1379 DUP8 DUP3 DUP9 ADD PUSH2 0x1093 JUMP JUMPDEST SWAP5 POP POP PUSH1 0x20 PUSH2 0x138A DUP8 DUP3 DUP9 ADD PUSH2 0x1093 JUMP JUMPDEST SWAP4 POP POP PUSH1 0x40 PUSH2 0x139B DUP8 DUP3 DUP9 ADD PUSH2 0x1093 JUMP JUMPDEST SWAP3 POP POP PUSH1 0x60 DUP6 ADD CALLDATALOAD PUSH8 0xFFFFFFFFFFFFFFFF DUP2 GT ISZERO PUSH2 0x13BC JUMPI PUSH2 0x13BB PUSH2 0xFB8 JUMP JUMPDEST JUMPDEST PUSH2 0x13C8 DUP8 DUP3 DUP9 ADD PUSH2 0x1323 JUMP JUMPDEST SWAP2 POP POP SWAP3 SWAP6 SWAP2 SWAP5 POP SWAP3 POP JUMP JUMPDEST PUSH1 0x0 DUP1 PUSH1 0x0 PUSH1 0x60 DUP5 DUP7 SUB SLT ISZERO PUSH2 0x13ED JUMPI PUSH2 0x13EC PUSH2 0xFB3 JUMP JUMPDEST JUMPDEST PUSH1 0x0 PUSH2 0x13FB DUP7 DUP3 DUP8 ADD PUSH2 0x1093 JUMP JUMPDEST SWAP4 POP POP PUSH1 0x20 PUSH2 0x140C DUP7 DUP3 DUP8 ADD PUSH2 0x1093 JUMP JUMPDEST SWAP3 POP POP PUSH1 0x40 PUSH2 0x141D DUP7 DUP3 DUP8 ADD PUSH2 0x1093 JUMP JUMPDEST SWAP2 POP POP SWAP3 POP SWAP3 POP SWAP3 JUMP JUMPDEST PUSH1 0x0 PUSH1 0x20 DUP3 ADD SWAP1 POP DUP2 DUP2 SUB PUSH1 0x0 DUP4 ADD MSTORE PUSH2 0x1441 DUP2 DUP5 PUSH2 0x1181 JUMP JUMPDEST SWAP1 POP SWAP3 SWAP2 POP POP JUMP JUMPDEST PUSH1 0x0 PUSH1 0x20 DUP3 ADD SWAP1 POP PUSH2 0x145E PUSH1 0x0 DUP4 ADD DUP5 PUSH2 0x11BA JUMP JUMPDEST SWAP3 SWAP2 POP POP JUMP JUMPDEST PUSH1 0x0 PUSH1 0x20 DUP3 ADD SWAP1 POP DUP2 DUP2 SUB PUSH1 0x0 DUP4 ADD MSTORE PUSH2 0x147E DUP2 DUP5 PUSH2 0x112C JUMP JUMPDEST SWAP1 POP SWAP3 SWAP2 POP POP JUMP JUMPDEST PUSH1 0x0 DUP2 MLOAD SWAP1 POP SWAP2 SWAP1 POP JUMP JUMPDEST PUSH1 0x0 DUP3 DUP3 MSTORE PUSH1 0x20 DUP3 ADD SWAP1 POP SWAP3 SWAP2 POP POP JUMP JUMPDEST PUSH1 0x0 DUP2 SWAP1 POP PUSH1 0x20 DUP3 ADD SWAP1 POP SWAP2 SWAP1 POP JUMP JUMPDEST PUSH2 0x14BB DUP2 PUSH2 0x1048 JUMP JUMPDEST DUP3 MSTORE POP POP JUMP JUMPDEST PUSH1 0x0 PUSH2 0x14CD DUP4 DUP4 PUSH2 0x14B2 JUMP JUMPDEST PUSH1 0x20 DUP4 ADD SWAP1 POP SWAP3 SWAP2 POP POP JUMP JUMPDEST PUSH1 0x0 PUSH1 0x20 DUP3 ADD SWAP1 POP SWAP2 SWAP1 POP JUMP JUMPDEST PUSH1 0x0 PUSH2 0x14F1 DUP3 PUSH2 0x1486 JUMP JUMPDEST PUSH2 0x14FB DUP2 DUP6 PUSH2 0x1491 JUMP JUMPDEST SWAP4 POP PUSH2 0x1506 DUP4 PUSH2 0x14A2 JUMP JUMPDEST DUP1 PUSH1 0x0 JUMPDEST DUP4 DUP2 LT ISZERO PUSH2 0x1537 JUMPI DUP2 MLOAD PUSH2 0x151E DUP9 DUP3 PUSH2 0x14C1 JUMP JUMPDEST SWAP8 POP PUSH2 0x1529 DUP4 PUSH2 0x14D9 JUMP JUMPDEST SWAP3 POP POP PUSH1 0x1 DUP2 ADD SWAP1 POP PUSH2 0x150A JUMP JUMPDEST POP DUP6 SWAP4 POP POP POP POP SWAP3 SWAP2 POP POP JUMP JUMPDEST PUSH1 0x0 PUSH1 0x20 DUP3 ADD SWAP1 POP DUP2 DUP2 SUB PUSH1 0x0 DUP4 ADD MSTORE PUSH2 0x155E DUP2 DUP5 PUSH2 0x14E6 JUMP JUMPDEST SWAP1 POP SWAP3 SWAP2 POP POP JUMP JUMPDEST PUSH1 0x0 DUP1 PUSH1 0x40 DUP4 DUP6 SUB SLT ISZERO PUSH2 0x157D JUMPI PUSH2 0x157C PUSH2 0xFB3 JUMP JUMPDEST JUMPDEST PUSH1 0x0 DUP4 ADD CALLDATALOAD PUSH8 0xFFFFFFFFFFFFFFFF DUP2 GT ISZERO PUSH2 0x159B JUMPI PUSH2 0x159A PUSH2 0xFB8 JUMP JUMPDEST JUMPDEST PUSH2 0x15A7 DUP6 DUP3 DUP7 ADD PUSH2 0x1323 JUMP JUMPDEST SWAP3 POP POP PUSH1 0x20 DUP4 ADD CALLDATALOAD PUSH8 0xFFFFFFFFFFFFFFFF DUP2 GT ISZERO PUSH2 0x15C8 JUMPI PUSH2 0x15C7 PUSH2 0xFB8 JUMP JUMPDEST JUMPDEST PUSH2 0x15D4 DUP6 DUP3 DUP7 ADD PUSH2 0x1323 JUMP JUMPDEST SWAP2 POP POP SWAP3 POP SWAP3 SWAP1 POP JUMP JUMPDEST PUSH1 0x0 DUP1 PUSH1 0x40 DUP4 DUP6 SUB SLT ISZERO PUSH2 0x15F5 JUMPI PUSH2 0x15F4 PUSH2 0xFB3 JUMP JUMPDEST JUMPDEST PUSH1 0x0 PUSH2 0x1603 DUP6 DUP3 DUP7 ADD PUSH2 0x1093 JUMP JUMPDEST SWAP3 POP POP PUSH1 0x20 PUSH2 0x1614 DUP6 DUP3 DUP7 ADD PUSH2 0x1093 JUMP JUMPDEST SWAP2 POP POP SWAP3 POP SWAP3 SWAP1 POP JUMP JUMPDEST PUSH1 0x0 PUSH8 0xFFFFFFFFFFFFFFFF DUP3 GT ISZERO PUSH2 0x1639 JUMPI PUSH2 0x1638 PUSH2 0x1226 JUMP JUMPDEST JUMPDEST PUSH2 0x1642 DUP3 PUSH2 0x111B JUMP JUMPDEST SWAP1 POP PUSH1 0x20 DUP2 ADD SWAP1 POP SWAP2 SWAP1 POP JUMP JUMPDEST PUSH1 0x0 PUSH2 0x1662 PUSH2 0x165D DUP5 PUSH2 0x161E JUMP JUMPDEST PUSH2 0x1286 JUMP JUMPDEST SWAP1 POP DUP3 DUP2 MSTORE PUSH1 0x20 DUP2 ADD DUP5 DUP5 DUP5 ADD GT ISZERO PUSH2 0x167E JUMPI PUSH2 0x167D PUSH2 0x1221 JUMP JUMPDEST JUMPDEST PUSH2 0x1689 DUP5 DUP3 DUP6 PUSH2 0x12D2 JUMP JUMPDEST POP SWAP4 SWAP3 POP POP POP JUMP JUMPDEST PUSH1 0x0 DUP3 PUSH1 0x1F DUP4 ADD SLT PUSH2 0x16A6 JUMPI PUSH2 0x16A5 PUSH2 0x121C JUMP JUMPDEST JUMPDEST DUP2 CALLDATALOAD PUSH2 0x16B6 DUP5 DUP3 PUSH1 0x20 DUP7 ADD PUSH2 0x164F JUMP JUMPDEST SWAP2 POP POP SWAP3 SWAP2 POP POP JUMP JUMPDEST PUSH1 0x0 DUP1 PUSH1 0x0 DUP1 PUSH1 0x0 DUP1 PUSH1 0x0 PUSH1 0xE0 DUP9 DUP11 SUB SLT ISZERO PUSH2 0x16DE JUMPI PUSH2 0x16DD PUSH2 0xFB3 JUMP JUMPDEST JUMPDEST PUSH1 0x0 PUSH2 0x16EC DUP11 DUP3 DUP12 ADD PUSH2 0x1093 JUMP JUMPDEST SWAP8 POP POP PUSH1 0x20 PUSH2 0x16FD DUP11 DUP3 DUP12 ADD PUSH2 0x1093 JUMP JUMPDEST SWAP7 POP POP PUSH1 0x40 DUP9 ADD CALLDATALOAD PUSH8 0xFFFFFFFFFFFFFFFF DUP2 GT ISZERO PUSH2 0x171E JUMPI PUSH2 0x171D PUSH2 0xFB8 JUMP JUMPDEST JUMPDEST PUSH2 0x172A DUP11 DUP3 DUP12 ADD PUSH2 0x1691 JUMP JUMPDEST SWAP6 POP POP PUSH1 0x60 PUSH2 0x173B DUP11 DUP3 DUP12 ADD PUSH2 0x1093 JUMP JUMPDEST SWAP5 POP POP PUSH1 0x80 PUSH2 0x174C DUP11 DUP3 DUP12 ADD PUSH2 0x1093 JUMP JUMPDEST SWAP4 POP POP PUSH1 0xA0 DUP9 ADD CALLDATALOAD PUSH8 0xFFFFFFFFFFFFFFFF DUP2 GT ISZERO PUSH2 0x176D JUMPI PUSH2 0x176C PUSH2 0xFB8 JUMP JUMPDEST JUMPDEST PUSH2 0x1779 DUP11 DUP3 DUP12 ADD PUSH2 0x1323 JUMP JUMPDEST SWAP3 POP POP PUSH1 0xC0 DUP9 ADD CALLDATALOAD PUSH8 0xFFFFFFFFFFFFFFFF DUP2 GT ISZERO PUSH2 0x179A JUMPI PUSH2 0x1799 PUSH2 0xFB8 JUMP JUMPDEST JUMPDEST PUSH2 0x17A6 DUP11 DUP3 DUP12 ADD PUSH2 0x1323 JUMP JUMPDEST SWAP2 POP POP SWAP3 SWAP6 SWAP9 SWAP2 SWAP5 SWAP8 POP SWAP3 SWAP6 POP JUMP JUMPDEST PUSH32 0x4E487B7100000000000000000000000000000000000000000000000000000000 PUSH1 0x0 MSTORE PUSH1 0x22 PUSH1 0x4 MSTORE PUSH1 0x24 PUSH1 0x0 REVERT JUMPDEST PUSH1 0x0 PUSH1 0x2 DUP3 DIV SWAP1 POP PUSH1 0x1 DUP3 AND DUP1 PUSH2 0x17FC JUMPI PUSH1 0x7F DUP3 AND SWAP2 POP JUMPDEST PUSH1 0x20 DUP3 LT DUP2 SUB PUSH2 0x180F JUMPI PUSH2 0x180E PUSH2 0x17B5 JUMP JUMPDEST JUMPDEST POP SWAP2 SWAP1 POP JUMP JUMPDEST PUSH32 0x496E76616C6964207374616B65686F6C64657221000000000000000000000000 PUSH1 0x0 DUP3 ADD MSTORE POP JUMP JUMPDEST PUSH1 0x0 PUSH2 0x184B PUSH1 0x14 DUP4 PUSH2 0x10E0 JUMP JUMPDEST SWAP2 POP PUSH2 0x1856 DUP3 PUSH2 0x1815 JUMP JUMPDEST PUSH1 0x20 DUP3 ADD SWAP1 POP SWAP2 SWAP1 POP JUMP JUMPDEST PUSH1 0x0 PUSH1 0x20 DUP3 ADD SWAP1 POP DUP2 DUP2 SUB PUSH1 0x0 DUP4 ADD MSTORE PUSH2 0x187A DUP2 PUSH2 0x183E JUMP JUMPDEST SWAP1 POP SWAP2 SWAP1 POP JUMP JUMPDEST PUSH1 0x0 PUSH1 0x60 DUP3 ADD SWAP1 POP PUSH2 0x1896 PUSH1 0x0 DUP4 ADD DUP7 PUSH2 0x1052 JUMP JUMPDEST PUSH2 0x18A3 PUSH1 0x20 DUP4 ADD DUP6 PUSH2 0x1052 JUMP JUMPDEST PUSH2 0x18B0 PUSH1 0x40 DUP4 ADD DUP5 PUSH2 0x1052 JUMP JUMPDEST SWAP5 SWAP4 POP POP POP POP JUMP JUMPDEST PUSH1 0x0 PUSH2 0x18CB PUSH2 0x18C6 DUP5 PUSH2 0x161E JUMP JUMPDEST PUSH2 0x1286 JUMP JUMPDEST SWAP1 POP DUP3 DUP2 MSTORE PUSH1 0x20 DUP2 ADD DUP5 DUP5 DUP5 ADD GT ISZERO PUSH2 0x18E7 JUMPI PUSH2 0x18E6 PUSH2 0x1221 JUMP JUMPDEST JUMPDEST PUSH2 0x18F2 DUP5 DUP3 DUP6 PUSH2 0x10F1 JUMP JUMPDEST POP SWAP4 SWAP3 POP POP POP JUMP JUMPDEST PUSH1 0x0 DUP3 PUSH1 0x1F DUP4 ADD SLT PUSH2 0x190F JUMPI PUSH2 0x190E PUSH2 0x121C JUMP JUMPDEST JUMPDEST DUP2 MLOAD PUSH2 0x191F DUP5 DUP3 PUSH1 0x20 DUP7 ADD PUSH2 0x18B8 JUMP JUMPDEST SWAP2 POP POP SWAP3 SWAP2 POP POP JUMP JUMPDEST PUSH1 0x0 PUSH1 0x20 DUP3 DUP5 SUB SLT ISZERO PUSH2 0x193E JUMPI PUSH2 0x193D PUSH2 0xFB3 JUMP JUMPDEST JUMPDEST PUSH1 0x0 DUP3 ADD MLOAD PUSH8 0xFFFFFFFFFFFFFFFF DUP2 GT ISZERO PUSH2 0x195C JUMPI PUSH2 0x195B PUSH2 0xFB8 JUMP JUMPDEST JUMPDEST PUSH2 0x1968 DUP5 DUP3 DUP6 ADD PUSH2 0x18FA JUMP JUMPDEST SWAP2 POP POP SWAP3 SWAP2 POP POP JUMP JUMPDEST PUSH32 0x4E487B7100000000000000000000000000000000000000000000000000000000 PUSH1 0x0 MSTORE PUSH1 0x11 PUSH1 0x4 MSTORE PUSH1 0x24 PUSH1 0x0 REVERT JUMPDEST PUSH1 0x0 PUSH2 0x19AB DUP3 PUSH2 0x1048 JUMP JUMPDEST SWAP2 POP PUSH32 0xFFFFFFFFFFFFFFFFFFFFFFFFFFFFFFFFFFFFFFFFFFFFFFFFFFFFFFFFFFFFFFFF DUP3 SUB PUSH2 0x19DD JUMPI PUSH2 0x19DC PUSH2 0x1971 JUMP JUMPDEST JUMPDEST PUSH1 0x1 DUP3 ADD SWAP1 POP SWAP2 SWAP1 POP JUMP JUMPDEST PUSH1 0x0 DUP2 SWAP1 POP DUP2 PUSH1 0x0 MSTORE PUSH1 0x20 PUSH1 0x0 KECCAK256 SWAP1 POP SWAP2 SWAP1 POP JUMP JUMPDEST PUSH1 0x0 PUSH1 0x20 PUSH1 0x1F DUP4 ADD DIV SWAP1 POP SWAP2 SWAP1 POP JUMP JUMPDEST PUSH1 0x0 DUP3 DUP3 SHL SWAP1 POP SWAP3 SWAP2 POP POP JUMP JUMPDEST PUSH1 0x0 PUSH1 0x8 DUP4 MUL PUSH2 0x1A4A PUSH32 0xFFFFFFFFFFFFFFFFFFFFFFFFFFFFFFFFFFFFFFFFFFFFFFFFFFFFFFFFFFFFFFFF DUP3 PUSH2 0x1A0D JUMP JUMPDEST PUSH2 0x1A54 DUP7 DUP4 PUSH2 0x1A0D JUMP JUMPDEST SWAP6 POP DUP1 NOT DUP5 AND SWAP4 POP DUP1 DUP7 AND DUP5 OR SWAP3 POP POP POP SWAP4 SWAP3 POP POP POP JUMP JUMPDEST PUSH1 0x0 DUP2 SWAP1 POP SWAP2 SWAP1 POP JUMP JUMPDEST PUSH1 0x0 PUSH2 0x1A91 PUSH2 0x1A8C PUSH2 0x1A87 DUP5 PUSH2 0x1048 JUMP JUMPDEST PUSH2 0x1A6C JUMP JUMPDEST PUSH2 0x1048 JUMP JUMPDEST SWAP1 POP SWAP2 SWAP1 POP JUMP JUMPDEST PUSH1 0x0 DUP2 SWAP1 POP SWAP2 SWAP1 POP JUMP JUMPDEST PUSH2 0x1AAB DUP4 PUSH2 0x1A76 JUMP JUMPDEST PUSH2 0x1ABF PUSH2 0x1AB7 DUP3 PUSH2 0x1A98 JUMP JUMPDEST DUP5 DUP5 SLOAD PUSH2 0x1A1A JUMP JUMPDEST DUP3 SSTORE POP POP POP POP JUMP JUMPDEST PUSH1 0x0 SWAP1 JUMP JUMPDEST PUSH2 0x1AD4 PUSH2 0x1AC7 JUMP JUMPDEST PUSH2 0x1ADF DUP2 DUP5 DUP5 PUSH2 0x1AA2 JUMP JUMPDEST POP POP POP JUMP JUMPDEST JUMPDEST DUP2 DUP2 LT ISZERO PUSH2 0x1B03 JUMPI PUSH2 0x1AF8 PUSH1 0x0 DUP3 PUSH2 0x1ACC JUMP JUMPDEST PUSH1 0x1 DUP2 ADD SWAP1 POP PUSH2 0x1AE5 JUMP JUMPDEST POP POP JUMP JUMPDEST PUSH1 0x1F DUP3 GT ISZERO PUSH2 0x1B48 JUMPI PUSH2 0x1B19 DUP2 PUSH2 0x19E8 JUMP JUMPDEST PUSH2 0x1B22 DUP5 PUSH2 0x19FD JUMP JUMPDEST DUP2 ADD PUSH1 0x20 DUP6 LT ISZERO PUSH2 0x1B31 JUMPI DUP2 SWAP1 POP JUMPDEST PUSH2 0x1B45 PUSH2 0x1B3D DUP6 PUSH2 0x19FD JUMP JUMPDEST DUP4 ADD DUP3 PUSH2 0x1AE4 JUMP JUMPDEST POP POP JUMPDEST POP POP POP JUMP JUMPDEST PUSH1 0x0 DUP3 DUP3 SHR SWAP1 POP SWAP3 SWAP2 POP POP JUMP JUMPDEST PUSH1 0x0 PUSH2 0x1B6B PUSH1 0x0 NOT DUP5 PUSH1 0x8 MUL PUSH2 0x1B4D JUMP JUMPDEST NOT DUP1 DUP4 AND SWAP2 POP POP SWAP3 SWAP2 POP POP JUMP JUMPDEST PUSH1 0x0 PUSH2 0x1B84 DUP4 DUP4 PUSH2 0x1B5A JUMP JUMPDEST SWAP2 POP DUP3 PUSH1 0x2 MUL DUP3 OR SWAP1 POP SWAP3 SWAP2 POP POP JUMP JUMPDEST PUSH2 0x1B9D DUP3 PUSH2 0x10D5 JUMP JUMPDEST PUSH8 0xFFFFFFFFFFFFFFFF DUP2 GT ISZERO PUSH2 0x1BB6 JUMPI PUSH2 0x1BB5 PUSH2 0x1226 JUMP JUMPDEST JUMPDEST PUSH2 0x1BC0 DUP3 SLOAD PUSH2 0x17E4 JUMP JUMPDEST PUSH2 0x1BCB DUP3 DUP3 DUP6 PUSH2 0x1B07 JUMP JUMPDEST PUSH1 0x0 PUSH1 0x20 SWAP1 POP PUSH1 0x1F DUP4 GT PUSH1 0x1 DUP2 EQ PUSH2 0x1BFE JUMPI PUSH1 0x0 DUP5 ISZERO PUSH2 0x1BEC JUMPI DUP3 DUP8 ADD MLOAD SWAP1 POP JUMPDEST PUSH2 0x1BF6 DUP6 DUP3 PUSH2 0x1B78 JUMP JUMPDEST DUP7 SSTORE POP PUSH2 0x1C5E JUMP JUMPDEST PUSH1 0x1F NOT DUP5 AND PUSH2 0x1C0C DUP7 PUSH2 0x19E8 JUMP JUMPDEST PUSH1 0x0 JUMPDEST DUP3 DUP2 LT ISZERO PUSH2 0x1C34 JUMPI DUP5 DUP10 ADD MLOAD DUP3 SSTORE PUSH1 0x1 DUP3 ADD SWAP2 POP PUSH1 0x20 DUP6 ADD SWAP5 POP PUSH1 0x20 DUP2 ADD SWAP1 POP PUSH2 0x1C0F JUMP JUMPDEST DUP7 DUP4 LT ISZERO PUSH2 0x1C51 JUMPI DUP5 DUP10 ADD MLOAD PUSH2 0x1C4D PUSH1 0x1F DUP10 AND DUP3 PUSH2 0x1B5A JUMP JUMPDEST DUP4 SSTORE POP JUMPDEST PUSH1 0x1 PUSH1 0x2 DUP9 MUL ADD DUP9 SSTORE POP POP POP JUMPDEST POP POP POP POP POP POP JUMP JUMPDEST PUSH1 0x0 DUP2 SWAP1 POP SWAP3 SWAP2 POP POP JUMP JUMPDEST PUSH1 0x0 PUSH2 0x1C7C DUP3 PUSH2 0x10D5 JUMP JUMPDEST PUSH2 0x1C86 DUP2 DUP6 PUSH2 0x1C66 JUMP JUMPDEST SWAP4 POP PUSH2 0x1C96 DUP2 DUP6 PUSH1 0x20 DUP7 ADD PUSH2 0x10F1 JUMP JUMPDEST DUP1 DUP5 ADD SWAP2 POP POP SWAP3 SWAP2 POP POP JUMP JUMPDEST PUSH1 0x0 PUSH2 0x1CAE DUP3 DUP5 PUSH2 0x1C71 JUMP JUMPDEST SWAP2 POP DUP2 SWAP1 POP SWAP3 SWAP2 POP POP JUMP JUMPDEST PUSH1 0x0 DUP2 SWAP1 POP DUP2 PUSH1 0x0 MSTORE PUSH1 0x20 PUSH1 0x0 KECCAK256 SWAP1 POP SWAP2 SWAP1 POP JUMP JUMPDEST PUSH1 0x1F DUP3 GT ISZERO PUSH2 0x1D0F JUMPI PUSH2 0x1CE0 DUP2 PUSH2 0x1CB9 JUMP JUMPDEST PUSH2 0x1CE9 DUP5 PUSH2 0x19FD JUMP JUMPDEST DUP2 ADD PUSH1 0x20 DUP6 LT ISZERO PUSH2 0x1CF8 JUMPI DUP2 SWAP1 POP JUMPDEST PUSH2 0x1D0C PUSH2 0x1D04 DUP6 PUSH2 0x19FD JUMP JUMPDEST DUP4 ADD DUP3 PUSH2 0x1AE4 JUMP JUMPDEST POP POP JUMPDEST POP POP POP JUMP JUMPDEST PUSH2 0x1D1D DUP3 PUSH2 0x1165 JUMP JUMPDEST PUSH8 0xFFFFFFFFFFFFFFFF DUP2 GT ISZERO PUSH2 0x1D36 JUMPI PUSH2 0x1D35 PUSH2 0x1226 JUMP JUMPDEST JUMPDEST PUSH2 0x1D40 DUP3 SLOAD PUSH2 0x17E4 JUMP JUMPDEST PUSH2 0x1D4B DUP3 DUP3 DUP6 PUSH2 0x1CCE JUMP JUMPDEST PUSH1 0x0 PUSH1 0x20 SWAP1 POP PUSH1 0x1F DUP4 GT PUSH1 0x1 DUP2 EQ PUSH2 0x1D7E JUMPI PUSH1 0x0 DUP5 ISZERO PUSH2 0x1D6C JUMPI DUP3 DUP8 ADD MLOAD SWAP1 POP JUMPDEST PUSH2 0x1D76 DUP6 DUP3 PUSH2 0x1B78 JUMP JUMPDEST DUP7 SSTORE POP PUSH2 0x1DDE JUMP JUMPDEST PUSH1 0x1F NOT DUP5 AND PUSH2 0x1D8C DUP7 PUSH2 0x1CB9 JUMP JUMPDEST PUSH1 0x0 JUMPDEST DUP3 DUP2 LT ISZERO PUSH2 0x1DB4 JUMPI DUP5 DUP10 ADD MLOAD DUP3 SSTORE PUSH1 0x1 DUP3 ADD SWAP2 POP PUSH1 0x20 DUP6 ADD SWAP5 POP PUSH1 0x20 DUP2 ADD SWAP1 POP PUSH2 0x1D8F JUMP JUMPDEST DUP7 DUP4 LT ISZERO PUSH2 0x1DD1 JUMPI DUP5 DUP10 ADD MLOAD PUSH2 0x1DCD PUSH1 0x1F DUP10 AND DUP3 PUSH2 0x1B5A JUMP JUMPDEST DUP4 SSTORE POP JUMPDEST PUSH1 0x1 PUSH1 0x2 DUP9 MUL ADD DUP9 SSTORE POP POP POP JUMPDEST POP POP POP POP POP POP JUMP JUMPDEST PUSH1 0x0 PUSH1 0x40 DUP3 ADD SWAP1 POP PUSH2 0x1DFB PUSH1 0x0 DUP4 ADD DUP6 PUSH2 0x1052 JUMP JUMPDEST PUSH2 0x1E08 PUSH1 0x20 DUP4 ADD DUP5 PUSH2 0x1052 JUMP JUMPDEST SWAP4 SWAP3 POP POP POP JUMP JUMPDEST PUSH1 0x3 DUP2 LT PUSH2 0x1E1C JUMPI PUSH1 0x0 DUP1 REVERT JUMPDEST POP JUMP JUMPDEST PUSH1 0x0 DUP2 MLOAD SWAP1 POP PUSH2 0x1E2E DUP2 PUSH2 0x1E0F JUMP JUMPDEST SWAP3 SWAP2 POP POP JUMP JUMPDEST PUSH1 0x0 DUP2 MLOAD SWAP1 POP PUSH2 0x1E43 DUP2 PUSH2 0x107C JUMP JUMPDEST SWAP3 SWAP2 POP POP JUMP JUMPDEST PUSH1 0x0 DUP1 PUSH1 0x40 DUP4 DUP6 SUB SLT ISZERO PUSH2 0x1E60 JUMPI PUSH2 0x1E5F PUSH2 0xFB3 JUMP JUMPDEST JUMPDEST PUSH1 0x0 PUSH2 0x1E6E DUP6 DUP3 DUP7 ADD PUSH2 0x1E1F JUMP JUMPDEST SWAP3 POP POP PUSH1 0x20 PUSH2 0x1E7F DUP6 DUP3 DUP7 ADD PUSH2 0x1E34 JUMP JUMPDEST SWAP2 POP POP SWAP3 POP SWAP3 SWAP1 POP JUMP JUMPDEST PUSH32 0x4E487B7100000000000000000000000000000000000000000000000000000000 PUSH1 0x0 MSTORE PUSH1 0x21 PUSH1 0x4 MSTORE PUSH1 0x24 PUSH1 0x0 REVERT JUMPDEST PUSH1 0x0 PUSH1 0xE0 DUP3 ADD SWAP1 POP PUSH2 0x1ECD PUSH1 0x0 DUP4 ADD DUP11 PUSH2 0x1052 JUMP JUMPDEST PUSH2 0x1EDA PUSH1 0x20 DUP4 ADD DUP10 PUSH2 0x1052 JUMP JUMPDEST DUP2 DUP2 SUB PUSH1 0x40 DUP4 ADD MSTORE PUSH2 0x1EEC DUP2 DUP9 PUSH2 0x1181 JUMP JUMPDEST SWAP1 POP PUSH2 0x1EFB PUSH1 0x60 DUP4 ADD DUP8 PUSH2 0x1052 JUMP JUMPDEST PUSH2 0x1F08 PUSH1 0x80 DUP4 ADD DUP7 PUSH2 0x1052 JUMP JUMPDEST DUP2 DUP2 SUB PUSH1 0xA0 DUP4 ADD MSTORE PUSH2 0x1F1A DUP2 DUP6 PUSH2 0x112C JUMP JUMPDEST SWAP1 POP DUP2 DUP2 SUB PUSH1 0xC0 DUP4 ADD MSTORE PUSH2 0x1F2E DUP2 DUP5 PUSH2 0x112C JUMP JUMPDEST SWAP1 POP SWAP9 SWAP8 POP POP POP POP POP POP POP POP JUMP INVALID LOG2 PUSH5 0x6970667358 0x22 SLT KECCAK256 DUP1 0x4C JUMP 0xC4 0xB7 0xCF 0xF9 PUSH17 0x5811FB90D56A41B08F5D1836DFC16C63B6 0xC7 PUSH9 0xDC1988E5BA64736F6C PUSH4 0x43000813 STOP CALLER "
		},
		"gasEstimates": {
			"creation": {
				"codeDepositCost": "1610000",
				"executionCost": "infinite",
				"totalCost": "infinite"
			},
			"external": {
				"addRequestIds(uint256,uint256)": "infinite",
				"addStakeholder(string,string)": "infinite",
				"checkInsuranceRequests(uint256,uint256,uint256)": "infinite",
				"checkMCRequests(uint256,uint256,uint256)": "infinite",
				"claimInsurance(uint256,uint256,bytes,uint256,uint256,string,string)": "infinite",
				"getRequestId(uint256)": "infinite",
				"getStakeholderAddress(uint256)": "5133",
				"getStakeholderId(address)": "2865",
				"getStakeholderNRIC(uint256)": "infinite",
				"getStakeholderName(uint256)": "infinite",
				"numStakeholder()": "2451",
				"payPremium(uint256,uint256,uint256)": "infinite",
				"signInsurance(uint256,uint256,uint256,string)": "infinite",
				"stakeholders(uint256)": "infinite"
			}
		},
		"methodIdentifiers": {
			"addRequestIds(uint256,uint256)": "bdbeb6fe",
			"addStakeholder(string,string)": "6b4c4493",
			"checkInsuranceRequests(uint256,uint256,uint256)": "8fe2701e",
			"checkMCRequests(uint256,uint256,uint256)": "458d0dc2",
			"claimInsurance(uint256,uint256,bytes,uint256,uint256,string,string)": "fec5baf9",
			"getRequestId(uint256)": "68814af8",
			"getStakeholderAddress(uint256)": "5564f644",
			"getStakeholderId(address)": "0f861dc4",
			"getStakeholderNRIC(uint256)": "88c2c519",
			"getStakeholderName(uint256)": "5a0b84f8",
			"numStakeholder()": "8edd5297",
			"payPremium(uint256,uint256,uint256)": "561c865b",
			"signInsurance(uint256,uint256,uint256,string)": "34fb36c8",
			"stakeholders(uint256)": "1d6b8b72"
		}
	},
	"abi": [
		{
			"inputs": [
				{
					"internalType": "contract InsuranceCompany",
					"name": "insuranceCompanyAddress",
					"type": "address"
				},
				{
					"internalType": "contract Hospital",
					"name": "hospitalAddress",
					"type": "address"
				},
				{
					"internalType": "contract TrustInsure",
					"name": "insureAddress",
					"type": "address"
				}
			],
			"stateMutability": "nonpayable",
			"type": "constructor"
		},
		{
			"inputs": [
				{
					"internalType": "uint256",
					"name": "stakeholderId",
					"type": "uint256"
				},
				{
					"internalType": "uint256",
					"name": "requestId",
					"type": "uint256"
				}
			],
			"name": "addRequestIds",
			"outputs": [],
			"stateMutability": "nonpayable",
			"type": "function"
		},
		{
			"inputs": [
				{
					"internalType": "string",
					"name": "name",
					"type": "string"
				},
				{
					"internalType": "string",
					"name": "NRIC",
					"type": "string"
				}
			],
			"name": "addStakeholder",
			"outputs": [
				{
					"internalType": "uint256",
					"name": "",
					"type": "uint256"
				}
			],
			"stateMutability": "nonpayable",
			"type": "function"
		},
		{
			"inputs": [
				{
					"internalType": "uint256",
					"name": "stakeholderId",
					"type": "uint256"
				},
				{
					"internalType": "uint256",
					"name": "companyId",
					"type": "uint256"
				},
				{
					"internalType": "uint256",
					"name": "requestId",
					"type": "uint256"
				}
			],
			"name": "checkInsuranceRequests",
			"outputs": [
				{
					"internalType": "uint256",
					"name": "",
					"type": "uint256"
				}
			],
			"stateMutability": "nonpayable",
			"type": "function"
		},
		{
			"inputs": [
				{
					"internalType": "uint256",
					"name": "_hospitalId",
					"type": "uint256"
				},
				{
					"internalType": "uint256",
					"name": "_requestId",
					"type": "uint256"
				},
				{
					"internalType": "uint256",
					"name": "_stakeholderId",
					"type": "uint256"
				}
			],
			"name": "checkMCRequests",
			"outputs": [
				{
					"internalType": "bytes",
					"name": "",
					"type": "bytes"
				}
			],
			"stateMutability": "view",
			"type": "function"
		},
		{
			"inputs": [
				{
					"internalType": "uint256",
					"name": "insuranceID",
					"type": "uint256"
				},
				{
					"internalType": "uint256",
					"name": "companyId",
					"type": "uint256"
				},
				{
					"internalType": "bytes",
					"name": "mcId",
					"type": "bytes"
				},
				{
					"internalType": "uint256",
					"name": "hospitalId",
					"type": "uint256"
				},
				{
					"internalType": "uint256",
					"name": "policyOwnerID",
					"type": "uint256"
				},
				{
					"internalType": "string",
					"name": "name",
					"type": "string"
				},
				{
					"internalType": "string",
					"name": "NRIC",
					"type": "string"
				}
			],
			"name": "claimInsurance",
			"outputs": [],
			"stateMutability": "nonpayable",
			"type": "function"
		},
		{
			"inputs": [
				{
					"internalType": "uint256",
					"name": "stakeholderID",
					"type": "uint256"
				}
			],
			"name": "getRequestId",
			"outputs": [
				{
					"internalType": "uint256[]",
					"name": "",
					"type": "uint256[]"
				}
			],
			"stateMutability": "view",
			"type": "function"
		},
		{
			"inputs": [
				{
					"internalType": "uint256",
					"name": "stakeholderID",
					"type": "uint256"
				}
			],
			"name": "getStakeholderAddress",
			"outputs": [
				{
					"internalType": "address",
					"name": "",
					"type": "address"
				}
			],
			"stateMutability": "view",
			"type": "function"
		},
		{
			"inputs": [
				{
					"internalType": "address",
					"name": "_stakeholder",
					"type": "address"
				}
			],
			"name": "getStakeholderId",
			"outputs": [
				{
					"internalType": "uint256",
					"name": "",
					"type": "uint256"
				}
			],
			"stateMutability": "view",
			"type": "function"
		},
		{
			"inputs": [
				{
					"internalType": "uint256",
					"name": "stakeholderID",
					"type": "uint256"
				}
			],
			"name": "getStakeholderNRIC",
			"outputs": [
				{
					"internalType": "bytes",
					"name": "",
					"type": "bytes"
				}
			],
			"stateMutability": "view",
			"type": "function"
		},
		{
			"inputs": [
				{
					"internalType": "uint256",
					"name": "stakeholderID",
					"type": "uint256"
				}
			],
			"name": "getStakeholderName",
			"outputs": [
				{
					"internalType": "string",
					"name": "",
					"type": "string"
				}
			],
			"stateMutability": "view",
			"type": "function"
		},
		{
			"inputs": [],
			"name": "numStakeholder",
			"outputs": [
				{
					"internalType": "uint256",
					"name": "",
					"type": "uint256"
				}
			],
			"stateMutability": "view",
			"type": "function"
		},
		{
			"inputs": [
				{
					"internalType": "uint256",
					"name": "insuranceId",
					"type": "uint256"
				},
				{
					"internalType": "uint256",
					"name": "amount",
					"type": "uint256"
				},
				{
					"internalType": "uint256",
					"name": "policyOwnerID",
					"type": "uint256"
				}
			],
			"name": "payPremium",
			"outputs": [],
			"stateMutability": "nonpayable",
			"type": "function"
		},
		{
			"inputs": [
				{
					"internalType": "uint256",
					"name": "insuranceId",
					"type": "uint256"
				},
				{
					"internalType": "uint256",
					"name": "companyId",
					"type": "uint256"
				},
				{
					"internalType": "uint256",
					"name": "policyOwnerID",
					"type": "uint256"
				},
				{
					"internalType": "string",
					"name": "signature",
					"type": "string"
				}
			],
			"name": "signInsurance",
			"outputs": [],
			"stateMutability": "nonpayable",
			"type": "function"
		},
		{
			"inputs": [
				{
					"internalType": "uint256",
					"name": "",
					"type": "uint256"
				}
			],
			"name": "stakeholders",
			"outputs": [
				{
					"internalType": "uint256",
					"name": "ID",
					"type": "uint256"
				},
				{
					"internalType": "string",
					"name": "name",
					"type": "string"
				},
				{
					"internalType": "bytes",
					"name": "NRIC",
					"type": "bytes"
				},
				{
					"internalType": "address",
					"name": "stakeholderAddress",
					"type": "address"
				}
			],
			"stateMutability": "view",
			"type": "function"
		}
	]
}