{
  "contractName": "Hospital",
  "abi": [
    {
      "inputs": [
        {
          "internalType": "contract MedicalCertificate",
          "name": "mcAddress",
          "type": "address"
        }
      ],
      "stateMutability": "nonpayable",
      "type": "constructor"
    },
    {
      "anonymous": false,
      "inputs": [],
      "name": "createOneMC",
      "type": "event"
    },
    {
      "anonymous": false,
      "inputs": [],
      "name": "presidentChanged",
      "type": "event"
    },
    {
      "anonymous": false,
      "inputs": [],
      "name": "registered",
      "type": "event"
    },
    {
      "anonymous": false,
      "inputs": [
        {
          "indexed": false,
          "internalType": "uint256",
          "name": "reqeustId",
          "type": "uint256"
        }
      ],
      "name": "requestMade",
      "type": "event"
    },
    {
      "anonymous": false,
      "inputs": [
        {
          "indexed": false,
          "internalType": "uint256",
          "name": "requestId",
          "type": "uint256"
        }
      ],
      "name": "requestSolve",
      "type": "event"
    },
    {
      "inputs": [
        {
          "internalType": "string",
          "name": "_ic",
          "type": "string"
        },
        {
          "internalType": "string",
          "name": "_password",
          "type": "string"
        }
      ],
      "name": "register",
      "outputs": [
        {
          "internalType": "uint256",
          "name": "",
          "type": "uint256"
        }
      ],
      "stateMutability": "nonpayable",
      "type": "function"
    },
    {
      "inputs": [
        {
          "internalType": "string",
          "name": "name",
          "type": "string"
        },
        {
          "internalType": "string",
          "name": "NRIC",
          "type": "string"
        },
        {
          "internalType": "string",
          "name": "sex",
          "type": "string"
        },
        {
          "internalType": "uint256",
          "name": "birthdate",
          "type": "uint256"
        },
        {
          "internalType": "string",
          "name": "race_nationality",
          "type": "string"
        }
      ],
      "name": "createPersonalInfo",
      "outputs": [
        {
          "internalType": "uint256",
          "name": "",
          "type": "uint256"
        }
      ],
      "stateMutability": "nonpayable",
      "type": "function"
    },
    {
      "inputs": [
        {
          "internalType": "uint256",
          "name": "_hospitalId",
          "type": "uint256"
        },
        {
          "internalType": "uint256",
          "name": "lifeAssuredInfoId",
          "type": "uint256"
        },
        {
          "internalType": "enum MedicalCertificate.certCategory",
          "name": "incidentType",
          "type": "uint8"
        },
        {
          "internalType": "string",
          "name": "incidentYYYYMMDDHHMM",
          "type": "string"
        },
        {
          "internalType": "string",
          "name": "titleName",
          "type": "string"
        }
      ],
      "name": "createMC",
      "outputs": [
        {
          "internalType": "bytes",
          "name": "",
          "type": "bytes"
        }
      ],
      "stateMutability": "nonpayable",
      "type": "function"
    },
    {
      "inputs": [
        {
          "internalType": "uint256",
          "name": "_hospitalId",
          "type": "uint256"
        },
        {
          "internalType": "string",
          "name": "_password",
          "type": "string"
        },
        {
          "internalType": "bytes",
          "name": "mcId",
          "type": "bytes"
        },
        {
          "internalType": "uint256",
          "name": "_requestId",
          "type": "uint256"
        },
        {
          "internalType": "uint256",
          "name": "_stakeholderId",
          "type": "uint256"
        }
      ],
      "name": "solveRequest",
      "outputs": [
        {
          "internalType": "bytes",
          "name": "",
          "type": "bytes"
        }
      ],
      "stateMutability": "nonpayable",
      "type": "function"
    },
    {
      "inputs": [
        {
          "internalType": "uint256",
          "name": "_hospitalId",
          "type": "uint256"
        },
        {
          "internalType": "string",
          "name": "_password",
          "type": "string"
        },
        {
          "internalType": "string",
          "name": "_ic",
          "type": "string"
        }
      ],
      "name": "changePresident",
      "outputs": [],
      "stateMutability": "nonpayable",
      "type": "function"
    },
    {
      "inputs": [
        {
          "internalType": "uint256",
          "name": "_hospitalId",
          "type": "uint256"
        },
        {
          "internalType": "string",
          "name": "oldpassword",
          "type": "string"
        },
        {
          "internalType": "string",
          "name": "newpassword",
          "type": "string"
        }
      ],
      "name": "changePassword",
      "outputs": [],
      "stateMutability": "nonpayable",
      "type": "function"
    },
    {
      "inputs": [
        {
          "internalType": "address",
          "name": "_president",
          "type": "address"
        }
      ],
      "name": "getHospitalId",
      "outputs": [
        {
          "internalType": "uint256",
          "name": "",
          "type": "uint256"
        }
      ],
      "stateMutability": "view",
      "type": "function"
    },
    {
      "inputs": [
        {
          "internalType": "uint256",
          "name": "_hospitalId",
          "type": "uint256"
        }
      ],
      "name": "getPresident",
      "outputs": [
        {
          "internalType": "address",
          "name": "",
          "type": "address"
        }
      ],
      "stateMutability": "view",
      "type": "function"
    },
    {
      "inputs": [
        {
          "internalType": "uint256",
          "name": "_hospitalId",
          "type": "uint256"
        },
        {
          "internalType": "string",
          "name": "_password",
          "type": "string"
        }
      ],
      "name": "getPassword",
      "outputs": [
        {
          "internalType": "string",
          "name": "",
          "type": "string"
        }
      ],
      "stateMutability": "view",
      "type": "function"
    }
  ],
  "bytecode": "0x60806040526000600455600060055534801561001a57600080fd5b5060405161171b38038061171b8339810160408190526100399161005e565b600180546001600160a01b0319166001600160a01b039290921691909117905561008e565b60006020828403121561007057600080fd5b81516001600160a01b038116811461008757600080fd5b9392505050565b61167e8061009d6000396000f3fe608060405234801561001057600080fd5b50600436106100935760003560e01c80633ffbd47f116100665780633ffbd47f1461013d5780639fd95ce714610150578063ca630e1f14610170578063d48794af14610183578063efb70f081461019657600080fd5b806310ab2570146100985780631e8993d9146100de5780632a177158146100f35780632b41cdb91461012a575b600080fd5b6100c16100a6366004610e3e565b6000908152600260205260409020546001600160a01b031690565b6040516001600160a01b0390911681526020015b60405180910390f35b6100f16100ec366004610f2b565b6101a9565b005b61011c610101366004610f98565b6001600160a01b031660009081526003602052604090205490565b6040519081526020016100d5565b61011c610138366004610fc1565b61036c565b61011c61014b366004611078565b6103f2565b61016361015e3660046110dc565b6105a5565b6040516100d591906111ac565b6100f161017e366004610f2b565b610707565b6101636101913660046111bf565b61081c565b6101636101a4366004611252565b610c8f565b8282600260008381526020019081526020016000206002016040516101ce91906112ca565b6040518091039020816040516020016101e79190611366565b60405160208183030381529060405280519060200120146102235760405162461bcd60e51b815260040161021a906113a3565b60405180910390fd5b6000546040516306cf77af60e31b815284916001600160a01b03169063367bbd78906102539084906004016111ac565b602060405180830381865afa158015610270573d6000803e3d6000fd5b505050506040513d601f19601f8201168201806040525081019061029491906113cc565b6102d65760405162461bcd60e51b815260206004820152601360248201527234b73b30b634b210272924a190373ab6b132b960691b604482015260640161021a565b60008681526002602090815260409182902080546001600160a01b031916331790559051610306918691016113ee565b60408051601f19818403018152918152600088815260026020908152919020825161033a9360019092019290910190610da5565b506040517fdc5f6b9352635161a74876313a5729a4d33d34f1f65e69809e2e4275fb16be5590600090a1505050505050565b600154604051632b41cdb960e01b81526000916001600160a01b031690632b41cdb9906103a59089908990899089908990600401611425565b6020604051808303816000875af11580156103c4573d6000803e3d6000fd5b505050506040513d601f19601f820116820180604052508101906103e89190611484565b9695505050505050565b600080546040516306cf77af60e31b815284916001600160a01b03169063367bbd78906104239084906004016111ac565b602060405180830381865afa158015610440573d6000803e3d6000fd5b505050506040513d601f19601f8201168201806040525081019061046491906113cc565b6104a65760405162461bcd60e51b815260206004820152601360248201527234b73b30b634b210272924a190373ab6b132b960691b604482015260640161021a565b600480546000916002918391826104bc8361149d565b909155508152602080820192909252604090810160002080546001600160a01b0319163317815590519092506104f4918791016113ee565b60405160208183030381529060405281600101908051906020019061051a929190610da5565b508360405160200161052c9190611366565b604051602081830303815290604052816002019080519060200190610552929190610da5565b50600454600380830182905533600090815260209190915260408082209290925590517f2de40ce37397b7fb2d98ae62dc520d88b46e2c50beac9f696f11ccc6605ef3eb9190a150506004549392505050565b60008581526002602052604090206003015460609086906105ff5760405162461bcd60e51b8152602060048201526014602482015273496e76616c696420686f73706974616c2069642160601b604482015260640161021a565b60015460405163d353b2b160e01b81526000916001600160a01b03169063d353b2b190610638908b908b908b908b908b906004016114c6565b6000604051808303816000875af1158015610657573d6000803e3d6000fd5b505050506040513d6000823e601f3d908101601f1916820160405261067f919081019061154b565b905033600260008a8152602001908152602001600020600401826040516106a6919061159c565b90815260405190819003602001812080546001600160a01b03939093166001600160a01b0319909316929092179091557f278d2dbf6177cb0a7393b373d86b3114ec53cde7b0b841ed12144e6b057eb0f390600090a1979650505050505050565b60008381526002602052604090205483906001600160a01b0316331461075f5760405162461bcd60e51b815260206004820152600d60248201526c556e617574686f72697a65642160981b604482015260640161021a565b83836002600083815260200190815260200160002060020160405161078491906112ca565b60405180910390208160405160200161079d9190611366565b60405160208183030381529060405280519060200120146107d05760405162461bcd60e51b815260040161021a906113a3565b836040516020016107e19190611366565b60408051601f198184030181529181526000888152600260208181529290912083516108139491909201920190610da5565b50505050505050565b60008581526002602052604090206003015460609086906108765760405162461bcd60e51b8152602060048201526014602482015273496e76616c696420686f73706974616c2069642160601b604482015260640161021a565b86866002600083815260200190815260200160002060020160405161089b91906112ca565b6040518091039020816040516020016108b49190611366565b60405160208183030381529060405280519060200120146108e75760405162461bcd60e51b815260040161021a906113a3565b8515610c835760008981526002602090815260408083208884526005019091529020546109495760405162461bcd60e51b815260206004820152601060248201526f4e6f742072657175657374207965742160801b604482015260640161021a565b6000898152600260209081526040808320888452600501825280832080548251818502810185019093528083529192909190849084015b82821015610b7c57838290600052602060002090600502016040518060a001604052908160008201548152602001600182015481526020016002820180546109c79061128f565b80601f01602080910402602001604051908101604052809291908181526020018280546109f39061128f565b8015610a405780601f10610a1557610100808354040283529160200191610a40565b820191906000526020600020905b815481529060010190602001808311610a2357829003601f168201915b50505050508152602001600382018054610a599061128f565b80601f0160208091040260200160405190810160405280929190818152602001828054610a859061128f565b8015610ad25780601f10610aa757610100808354040283529160200191610ad2565b820191906000526020600020905b815481529060010190602001808311610ab557829003601f168201915b50505050508152602001600482018054610aeb9061128f565b80601f0160208091040260200160405190810160405280929190818152602001828054610b179061128f565b8015610b645780601f10610b3957610100808354040283529160200191610b64565b820191906000526020600020905b815481529060010190602001808311610b4757829003601f168201915b50505050508152505081526020019060010190610980565b5050825192935060009150819050805b83811015610bd3578a858281518110610ba757610ba76115b8565b6020026020010151600001511415610bc157809150600192505b80610bcb8161149d565b915050610b8c565b50600182151514610c1c5760405162461bcd60e51b8152602060048201526013602482015272496e76616c696420726571756573742069642160681b604482015260640161021a565b8115610c7e578a848281518110610c3557610c356115b8565b6020026020010151608001819052507fc01a711a994234663e49bcaf267235941ef164ac0dea30de367e8cdb0eeabd5a8a604051610c7591815260200190565b60405180910390a15b505050505b50505095945050505050565b60008281526002602052604090205460609083906001600160a01b03163314610cea5760405162461bcd60e51b815260206004820152600d60248201526c556e617574686f72697a65642160981b604482015260640161021a565b60008481526002602081905260408220018054829190610d099061128f565b80601f0160208091040260200160405190810160405280929190818152602001828054610d359061128f565b8015610d825780601f10610d5757610100808354040283529160200191610d82565b820191906000526020600020905b815481529060010190602001808311610d6557829003601f168201915b5050505050806020019051810190610d9a91906115ee565b509695505050505050565b828054610db19061128f565b90600052602060002090601f016020900481019282610dd35760008555610e19565b82601f10610dec57805160ff1916838001178555610e19565b82800160010185558215610e19579182015b82811115610e19578251825591602001919060010190610dfe565b50610e25929150610e29565b5090565b5b80821115610e255760008155600101610e2a565b600060208284031215610e5057600080fd5b5035919050565b634e487b7160e01b600052604160045260246000fd5b604051601f8201601f1916810167ffffffffffffffff81118282101715610e9657610e96610e57565b604052919050565b600067ffffffffffffffff821115610eb857610eb8610e57565b50601f01601f191660200190565b6000610ed9610ed484610e9e565b610e6d565b9050828152838383011115610eed57600080fd5b828260208301376000602084830101529392505050565b600082601f830112610f1557600080fd5b610f2483833560208501610ec6565b9392505050565b600080600060608486031215610f4057600080fd5b83359250602084013567ffffffffffffffff80821115610f5f57600080fd5b610f6b87838801610f04565b93506040860135915080821115610f8157600080fd5b50610f8e86828701610f04565b9150509250925092565b600060208284031215610faa57600080fd5b81356001600160a01b0381168114610f2457600080fd5b600080600080600060a08688031215610fd957600080fd5b853567ffffffffffffffff80821115610ff157600080fd5b610ffd89838a01610f04565b9650602088013591508082111561101357600080fd5b61101f89838a01610f04565b9550604088013591508082111561103557600080fd5b61104189838a01610f04565b945060608801359350608088013591508082111561105e57600080fd5b5061106b88828901610f04565b9150509295509295909350565b6000806040838503121561108b57600080fd5b823567ffffffffffffffff808211156110a357600080fd5b6110af86838701610f04565b935060208501359150808211156110c557600080fd5b506110d285828601610f04565b9150509250929050565b600080600080600060a086880312156110f457600080fd5b853594506020860135935060408601356003811061111157600080fd5b9250606086013567ffffffffffffffff8082111561112e57600080fd5b61113a89838a01610f04565b9350608088013591508082111561105e57600080fd5b60005b8381101561116b578181015183820152602001611153565b8381111561117a576000848401525b50505050565b60008151808452611198816020860160208601611150565b601f01601f19169290920160200192915050565b602081526000610f246020830184611180565b600080600080600060a086880312156111d757600080fd5b85359450602086013567ffffffffffffffff808211156111f657600080fd5b61120289838a01610f04565b9550604088013591508082111561121857600080fd5b508601601f8101881361122a57600080fd5b61123988823560208401610ec6565b9598949750949560608101359550608001359392505050565b6000806040838503121561126557600080fd5b82359150602083013567ffffffffffffffff81111561128357600080fd5b6110d285828601610f04565b600181811c908216806112a357607f821691505b602082108114156112c457634e487b7160e01b600052602260045260246000fd5b50919050565b600080835481600182811c9150808316806112e657607f831692505b602080841082141561130657634e487b7160e01b86526022600452602486fd5b81801561131a576001811461132b57611358565b60ff19861689528489019650611358565b60008a81526020902060005b868110156113505781548b820152908501908301611337565b505084890196505b509498975050505050505050565b6040815260006113796040830184611180565b828103602084015260088152671c185cdcdddbdc9960c21b60208201526040810191505092915050565b6020808252600f908201526e57726f6e672070617373776f72642160881b604082015260600190565b6000602082840312156113de57600080fd5b81518015158114610f2457600080fd5b6040815260006114016040830184611180565b82810360208401526002815261696360f01b60208201526040810191505092915050565b60a08152600061143860a0830188611180565b828103602084015261144a8188611180565b9050828103604084015261145e8187611180565b905084606084015282810360808401526114788185611180565b98975050505050505050565b60006020828403121561149657600080fd5b5051919050565b60006000198214156114bf57634e487b7160e01b600052601160045260246000fd5b5060010190565b8581528460208201526000600385106114ef57634e487b7160e01b600052602160045260246000fd5b84604083015260a0606083015261150960a0830185611180565b82810360808401526114788185611180565b6000611529610ed484610e9e565b905082815283838301111561153d57600080fd5b610f24836020830184611150565b60006020828403121561155d57600080fd5b815167ffffffffffffffff81111561157457600080fd5b8201601f8101841361158557600080fd5b6115948482516020840161151b565b949350505050565b600082516115ae818460208701611150565b9190910192915050565b634e487b7160e01b600052603260045260246000fd5b600082601f8301126115df57600080fd5b610f248383516020850161151b565b6000806040838503121561160157600080fd5b825167ffffffffffffffff8082111561161957600080fd5b611625868387016115ce565b9350602085015191508082111561163b57600080fd5b506110d2858286016115ce56fea26469706673582212207387867a347de9682e103df4dcfba20180fbc4ea0bd96e9545258f7d4a286b8964736f6c634300080c0033",
  "immutableReferences": {},
  "source": "pragma solidity ^0.8.12;\npragma experimental ABIEncoderV2;\nimport \"./MedicalCert.sol\";\nimport \"./StringLength.sol\";\n//import \"./Stakeholder.sol\";\n\ncontract Hospital {\n    StringLength stringlen;\n    MedicalCertificate medicalCert;\n    //Stakeholder stakeholderContract;\n\n    mapping(uint256 => hospital) registeredHospital; //hospital id => hospital\n    mapping(address => uint256) ids; //president => hospital id\n    //mapping(uint256 => uint256[]) stakeholders; //hospital id => requested stakeholder;\n\n    uint256 totalHospital = 0;\n\n    constructor (MedicalCertificate mcAddress) public  { //Stakeholder stakeholderAddress) public  {\n        medicalCert = mcAddress;\n        //stakeholderContract = stakeholderAddress;\n    }\n  \n    struct hospital {\n        address president; //owner of the hospital\n        bytes president_ic; //the identity of owner\n        bytes password; //passward needed to create MC\n        uint256 hospitalId; //id\n        mapping(bytes => address) mcs; // mc id => who create the mc\n        mapping(uint256 => Request[]) requests; //stakeholderId -> requests\n    }\n\n    struct Request {\n        uint256 reqId;\n        uint256 stakeholderId;\n        string nameAssured;\n        string icAssured;\n        bytes mcid;\n    }\n    \n    uint256 numOfReqs = 0;\n\n    // events\n    event registered();\n    event createOneMC();\n    event presidentChanged();\n    event requestSolve(uint256 requestId);\n    event requestMade(uint256 reqeustId);\n    // event liveRequest(uint256[] requestids,\n    //     uint256[] stakeholderids,\n    //     string[] names,\n    //     string[] ics);\n\n    //modifiers\n    modifier validHospital(uint256 _hospitalId) {\n        require(registeredHospital[_hospitalId].hospitalId > 0, \"Invalid hospital id!\");\n        _;\n    }\n    modifier validIC(string memory _ic) {\n        require(stringlen.strlen(_ic), \"invalid NRIC number\");\n        _;\n    }\n\n    modifier onlyOwner(uint256 _hospitalId) {\n        require (msg.sender == registeredHospital[ _hospitalId].president, \"Unauthorized!\");\n        _;\n    }\n\n    modifier verifyPassword(uint256 _hospitalId, string memory _password) {\n        require (keccak256(abi.encode(_password,\"password\")) == keccak256(registeredHospital[ _hospitalId].password), \"Wrong password!\");\n        _;\n    }\n\n    modifier validMCId(uint256 _hospitalId, bytes memory  _mcId) {\n        require(registeredHospital[_hospitalId].mcs[_mcId] != address(0), \"Wrong hospitalId or MCId!\");\n        _;\n    }\n\n    \n    //since below function already check validity no need here\n    // modifier validRequest(uint256  _hospitalId, uint256 _stakeholderId, uint256 _requestId) {\n    //    require(registeredHospital[_hospitalId].requests[_stakeholderId] > 0, \"You didn't make request!\");\n    //     _;\n    // }\n    \n    //functions\n\n\n     /** \n    * @dev register the hospital on chain\n    * @param _ic president NRIC\n    * @param _password password to register\n    * @return uint256 registered hospital id\n    */\n    function register(string memory _ic, string memory _password) public validIC(_ic) returns(uint256) {\n        hospital storage newHospital = registeredHospital[totalHospital++];\n\n        newHospital.president =  msg.sender;\n        newHospital.president_ic = abi.encode(_ic,\"ic\");\n        newHospital.password =  abi.encode(_password,\"password\");\n        newHospital.hospitalId =  totalHospital;\n        \n        \n        ids[msg.sender] = totalHospital;\n        \n        emit registered();\n        return totalHospital;\n    }\n\n    //MC\n    //  /** \n    // * @dev create MC with required information\n    // * @param _hospitalId hospital id\n    // * @param _password need password to create\n    // * @param _requestId whether the MC is for some request\n    // * @param _stakeholderId if it's a request, what's the stakeholder id\n    // * @param name the name of the person \n    // * @param NRIC the NRIC of the person \n    // * @param sex the sex of the person \n    // * @param birthdate the birthday of the person \n    // * @param race the race of the person \n    // * @param nationality the natinality of the person \n    // * @param incidentType the incident type\n    // * @param incidentYYYYMMDDHHMM the incident type\n    // * @param  place the place of incident\n    // * @param  cause the cause of incident\n    // * @param  titleName the title of who created the MC\n    // * @param  institution the institution name\n    // * @return byte32 mc Id\n    // */\n    function createPersonalInfo (//uint256 _hospitalId, //string memory _password,\n    string memory name, string memory NRIC, string memory sex, \n    uint256 birthdate, string memory race_nationality) \n    public //validHospital(_hospitalId) //verifyPassword(_hospitalId,_password) \n    returns (uint256) {\n        return medicalCert.createPersonalInfo(name, NRIC, sex, birthdate, race_nationality);\n    }\n\n    function createMC (uint256 _hospitalId, //string memory _password,\n    uint256 lifeAssuredInfoId,\n    MedicalCertificate.certCategory incidentType, \n    string memory incidentYYYYMMDDHHMM, string memory titleName) \n    public validHospital(_hospitalId) //verifyPassword(_hospitalId,_password) \n    returns (bytes memory) {\n        bytes memory  mcId = medicalCert.add(\n                _hospitalId,\n                lifeAssuredInfoId,\n                incidentType,\n                incidentYYYYMMDDHHMM,\n                titleName);\n        registeredHospital[_hospitalId].mcs[mcId] = msg.sender;\n        emit createOneMC();\n        return mcId;\n    }\n    \n    function solveRequest(uint256 _hospitalId, string memory _password, bytes memory mcId,\n    uint256 _requestId, uint256 _stakeholderId) \n    public validHospital(_hospitalId) verifyPassword(_hospitalId,_password) \n    returns(bytes memory)\n    {\n\n        if (_requestId != 0) {\n            require(registeredHospital[_hospitalId].requests[_stakeholderId].length > 0, \"Not request yet!\");\n            \n            Request[] memory reqs = registeredHospital[_hospitalId].requests[_stakeholderId];\n            uint256 length = reqs.length;\n            bool find = false;\n            uint256 index;\n            for (uint256 i = 0; i < length; i++) {\n                if (reqs[i].reqId == _requestId) {\n                    index = i;\n                    find = true;\n                }\n            }\n            \n            require(find == true, \"Invalid request id!\");\n            if (find) {\n                reqs[index].mcid = mcId;\n                emit requestSolve(_requestId);\n            }\n        }        \n        \n\n    }\n\n    //  /** \n    // * @dev stakeholder request to create MC\n    // * @param hospitalId the hospital id \n    // * @param stakeholderId the stakeholder Id\n    // * @param nameAssured the assured person's name\n    // * @param icAssured the assured person's NRIC\n    // * @return uint256 number of requests\n    // */\n    // function requestMC(uint256 hospitalId, uint256 stakeholderId, string memory nameAssured, string memory icAssured) \n    // public validHospital(hospitalId) returns(uint256) {\n    //     require(stakeholderContract.getStakeholderId(msg.sender) == stakeholderId, \"Invalid stakeholder!\");\n\n    //     Request memory req = Request(\n    //         numOfReqs++,\n    //         stakeholderId,\n    //         nameAssured,\n    //         icAssured,\n    //         bytes(\"0x\")\n    //     );\n        \n    //     registeredHospital[hospitalId].requests[stakeholderId].push(req);\n    //     stakeholders[hospitalId].push(stakeholderId);\n    //     emit requestMade(numOfReqs);\n    //     return numOfReqs;\n    // }\n\n    // /** \n    // * @dev check requests from hospital\n    // * @param _hospitalId the hospital id \n    // * @param _password password to register\n    // */\n    // function checkRequestFromHospital (uint256 _hospitalId, string memory _password) \n    // public validHospital(_hospitalId) verifyPassword(_hospitalId,_password) \n    // {\n    //     uint256[] memory requestids;\n    //     uint256[] memory stakeholderids;\n    //     string[] memory names;\n    //     string[]memory ics;\n\n    //     uint256[] memory requestedstakeholders = stakeholders[_hospitalId];\n\n    //     uint256 total_reqs = 0;\n\n    //     for (uint256 i = 0; i < requestedstakeholders.length; i++) {\n    //         uint256 stakeholderId = requestedstakeholders[i];\n    //         Request[] memory reqs = registeredHospital[_hospitalId].requests[stakeholderId];\n    //         for(uint256 j = 0; j < reqs.length; j++) {\n    //             Request memory req = reqs[j];\n                \n    //             if (keccak256(abi.encodePacked(req.mcid)) != keccak256(abi.encodePacked(bytes(\"0x\")))) {\n    //                 requestids[total_reqs] = req.reqId;\n    //                 stakeholderids[total_reqs] = req.stakeholderId;\n    //                 names[total_reqs] = req.nameAssured;\n    //                 ics[total_reqs] = req.icAssured;\n    //                 total_reqs++;\n    //             }\n    //         }            \n    //     }\n\n    //     emit liveRequest(requestids,stakeholderids, names,ics);\n    // }\n\n    // /** \n    // * @dev check mc Ids from stakeholder\n    // * @param _hospitalId hospital id\n    // * @param _requestId whether the MC is for some request\n    // * @param _stakeholderId if it's a request, what's the stakeholder id\n    // * @return  byte32 mcId\n    // */\n    // function checkMCIdFromStakeholder(uint256 _hospitalId, uint256 _requestId, uint256 _stakeholderId)\n    //   public validHospital(_hospitalId) //validRequest(_hospitalId, _stakeholderId,_requestId) \n    //   returns(bytes memory )\n    // {\n    //     Request[] memory reqs = registeredHospital[_hospitalId].requests[_stakeholderId];\n    //     uint256 length = reqs.length;\n    //     bool find = false;\n    //     uint256 index;\n    //     for (uint256 i = 0; i < length; i++) {\n    //         if (reqs[i].reqId == _requestId) {\n    //             index = i;\n    //             find = true;\n    //         }\n    //     }\n        \n    //     require(find == true, \"Invalid request id!\");\n    //     if (find) {\n    //         return reqs[index].mcid;\n    //     }         \n    // }\n    /** \n    * @dev change president of hospital\n    * @param _ic president NRIC\n    * @param _password password to register\n    * @param _hospitalId hospital id\n    */\n    function changePresident(uint256 _hospitalId, string memory _password, string memory _ic) \n    public verifyPassword(_hospitalId,_password) validIC(_ic)\n    {\n        registeredHospital[ _hospitalId].president = msg.sender;\n        registeredHospital[ _hospitalId].president_ic = abi.encode(_ic,\"ic\");\n        emit presidentChanged();\n    }\n\n    /** \n    * @dev change password of hospital\n    * @param oldpassword old password needed to change\n    * @param newpassword the new password\n    */\n    function changePassword(uint256 _hospitalId, string memory oldpassword, string memory newpassword)\n    public onlyOwner(_hospitalId) verifyPassword(_hospitalId,oldpassword)\n    {\n        registeredHospital[ _hospitalId].password = abi.encode(newpassword,\"password\");\n    }\n\n\n    //getters\n    function getHospitalId(address _president) public view returns(uint256) {\n        return ids[_president];\n    }\n\n    function getPresident(uint256 _hospitalId) public view returns(address) {\n        return  registeredHospital[ _hospitalId].president;\n    }\n\n    function getPassword(uint256 _hospitalId, string memory _password) \n        public view \n        onlyOwner(_hospitalId) \n        returns(string memory) \n    {\n        (string memory password, string memory s) = abi.decode(registeredHospital[ _hospitalId].password, (string,string));\n        return password;\n    }\n\n    // function getMC(uint256 _hospitalId, bytes memory  _mcId) \n    //     public view \n    //     validMCId(_hospitalId,_mcId)\n    //     returns (uint256, string memory, string memory, uint256, uint256, string memory, string memory, MedicalCertificate.certCategory, string memory, string memory, string memory, string memory, string memory)\n    // {\n    //     return medicalCert.getMC(_mcId);\n    // }\n\n}",
  "sourcePath": "/Users/yco/Desktop/IS4302/IS4302_Group12/contracts/Hospital.sol",
  "compiler": {
    "name": "solc",
    "version": "0.8.12+commit.f00d7308.Emscripten.clang"
  },
  "schemaVersion": "3.4.11",
  "updatedAt": "2023-03-31T09:25:56.911Z",
  "devdoc": {
    "kind": "dev",
    "methods": {
      "changePassword(uint256,string,string)": {
        "details": "change password of hospital",
        "params": {
          "newpassword": "the new password",
          "oldpassword": "old password needed to change"
        }
      },
      "changePresident(uint256,string,string)": {
        "details": "change president of hospital",
        "params": {
          "_hospitalId": "hospital id",
          "_ic": "president NRIC",
          "_password": "password to register"
        }
      },
      "register(string,string)": {
        "details": "register the hospital on chain",
        "params": {
          "_ic": "president NRIC",
          "_password": "password to register"
        },
        "returns": {
          "_0": "uint256 registered hospital id"
        }
      }
    },
    "version": 1
  },
  "userdoc": {
    "kind": "user",
    "methods": {},
    "version": 1
  }
}