{
  "contractName": "Hospital",
  "abi": [
    {
      "inputs": [
        {
          "internalType": "contract MedicalCertificate",
          "name": "mcAddress",
          "type": "address"
        },
        {
          "internalType": "contract Stakeholder",
          "name": "stakeholderAddress",
          "type": "address"
        }
      ],
      "stateMutability": "nonpayable",
      "type": "constructor"
    },
    {
      "anonymous": false,
      "inputs": [],
      "name": "createOneMC",
      "type": "event"
    },
    {
      "anonymous": false,
      "inputs": [
        {
          "indexed": false,
          "internalType": "uint256[]",
          "name": "requestids",
          "type": "uint256[]"
        },
        {
          "indexed": false,
          "internalType": "uint256[]",
          "name": "stakeholderids",
          "type": "uint256[]"
        },
        {
          "indexed": false,
          "internalType": "string[]",
          "name": "names",
          "type": "string[]"
        },
        {
          "indexed": false,
          "internalType": "string[]",
          "name": "ics",
          "type": "string[]"
        }
      ],
      "name": "liveRequest",
      "type": "event"
    },
    {
      "anonymous": false,
      "inputs": [],
      "name": "presidentChanged",
      "type": "event"
    },
    {
      "anonymous": false,
      "inputs": [],
      "name": "registered",
      "type": "event"
    },
    {
      "anonymous": false,
      "inputs": [
        {
          "indexed": false,
          "internalType": "uint256",
          "name": "reqeustId",
          "type": "uint256"
        }
      ],
      "name": "requestMade",
      "type": "event"
    },
    {
      "anonymous": false,
      "inputs": [
        {
          "indexed": false,
          "internalType": "uint256",
          "name": "requestId",
          "type": "uint256"
        }
      ],
      "name": "requestSolve",
      "type": "event"
    },
    {
      "inputs": [
        {
          "internalType": "string",
          "name": "NRIC",
          "type": "string"
        },
        {
          "internalType": "string",
          "name": "password",
          "type": "string"
        }
      ],
      "name": "register",
      "outputs": [
        {
          "internalType": "uint256",
          "name": "",
          "type": "uint256"
        }
      ],
      "stateMutability": "payable",
      "type": "function"
    },
    {
      "inputs": [
        {
          "internalType": "uint256",
          "name": "_hospitalId",
          "type": "uint256"
        },
        {
          "internalType": "string",
          "name": "_password",
          "type": "string"
        },
        {
          "internalType": "string",
          "name": "name",
          "type": "string"
        },
        {
          "internalType": "string",
          "name": "NRIC",
          "type": "string"
        },
        {
          "internalType": "string",
          "name": "sex",
          "type": "string"
        },
        {
          "internalType": "uint256",
          "name": "birthdate",
          "type": "uint256"
        },
        {
          "internalType": "string",
          "name": "race_nationality",
          "type": "string"
        }
      ],
      "name": "createPersonalInfo",
      "outputs": [
        {
          "internalType": "uint256",
          "name": "",
          "type": "uint256"
        }
      ],
      "stateMutability": "nonpayable",
      "type": "function"
    },
    {
      "inputs": [
        {
          "internalType": "uint256",
          "name": "hospitalId",
          "type": "uint256"
        },
        {
          "internalType": "string",
          "name": "password",
          "type": "string"
        },
        {
          "internalType": "uint256",
          "name": "lifeAssuredInfoId",
          "type": "uint256"
        },
        {
          "internalType": "enum MedicalCertificate.certCategory",
          "name": "incidentType",
          "type": "uint8"
        },
        {
          "internalType": "string",
          "name": "incidentYYYYMMDDHHMM",
          "type": "string"
        },
        {
          "internalType": "string",
          "name": "titleName",
          "type": "string"
        }
      ],
      "name": "createMC",
      "outputs": [
        {
          "internalType": "bytes",
          "name": "",
          "type": "bytes"
        }
      ],
      "stateMutability": "nonpayable",
      "type": "function"
    },
    {
      "inputs": [
        {
          "internalType": "uint256",
          "name": "hospitalId",
          "type": "uint256"
        },
        {
          "internalType": "string",
          "name": "password",
          "type": "string"
        },
        {
          "internalType": "bytes",
          "name": "mcId",
          "type": "bytes"
        },
        {
          "internalType": "uint256",
          "name": "requestId",
          "type": "uint256"
        },
        {
          "internalType": "uint256",
          "name": "stakeholderId",
          "type": "uint256"
        }
      ],
      "name": "solveRequest",
      "outputs": [
        {
          "internalType": "bytes",
          "name": "",
          "type": "bytes"
        }
      ],
      "stateMutability": "nonpayable",
      "type": "function"
    },
    {
      "inputs": [
        {
          "internalType": "uint256",
          "name": "hospitalId",
          "type": "uint256"
        },
        {
          "internalType": "uint256",
          "name": "stakeholderId",
          "type": "uint256"
        },
        {
          "internalType": "string",
          "name": "nameAssured",
          "type": "string"
        },
        {
          "internalType": "string",
          "name": "icAssured",
          "type": "string"
        }
      ],
      "name": "requestMC",
      "outputs": [
        {
          "internalType": "uint256",
          "name": "",
          "type": "uint256"
        }
      ],
      "stateMutability": "nonpayable",
      "type": "function"
    },
    {
      "inputs": [
        {
          "internalType": "uint256",
          "name": "_hospitalId",
          "type": "uint256"
        },
        {
          "internalType": "string",
          "name": "_password",
          "type": "string"
        }
      ],
      "name": "checkRequestFromHospital",
      "outputs": [],
      "stateMutability": "nonpayable",
      "type": "function"
    },
    {
      "inputs": [
        {
          "internalType": "uint256",
          "name": "_hospitalId",
          "type": "uint256"
        },
        {
          "internalType": "uint256",
          "name": "_requestId",
          "type": "uint256"
        },
        {
          "internalType": "uint256",
          "name": "_stakeholderId",
          "type": "uint256"
        }
      ],
      "name": "checkMCIdFromStakeholder",
      "outputs": [
        {
          "internalType": "bytes",
          "name": "",
          "type": "bytes"
        }
      ],
      "stateMutability": "nonpayable",
      "type": "function"
    },
    {
      "inputs": [
        {
          "internalType": "uint256",
          "name": "hospitalId",
          "type": "uint256"
        },
        {
          "internalType": "string",
          "name": "password",
          "type": "string"
        },
        {
          "internalType": "string",
          "name": "NRIC",
          "type": "string"
        }
      ],
      "name": "changePresident",
      "outputs": [],
      "stateMutability": "nonpayable",
      "type": "function"
    },
    {
      "inputs": [
        {
          "internalType": "uint256",
          "name": "hospitalId",
          "type": "uint256"
        },
        {
          "internalType": "string",
          "name": "oldpassword",
          "type": "string"
        },
        {
          "internalType": "string",
          "name": "newpassword",
          "type": "string"
        }
      ],
      "name": "changePassword",
      "outputs": [],
      "stateMutability": "nonpayable",
      "type": "function"
    },
    {
      "inputs": [
        {
          "internalType": "address",
          "name": "president",
          "type": "address"
        }
      ],
      "name": "getHospitalId",
      "outputs": [
        {
          "internalType": "uint256",
          "name": "",
          "type": "uint256"
        }
      ],
      "stateMutability": "view",
      "type": "function"
    },
    {
      "inputs": [
        {
          "internalType": "uint256",
          "name": "hospitalId",
          "type": "uint256"
        }
      ],
      "name": "getPresident",
      "outputs": [
        {
          "internalType": "address",
          "name": "",
          "type": "address"
        }
      ],
      "stateMutability": "view",
      "type": "function"
    },
    {
      "inputs": [
        {
          "internalType": "uint256",
          "name": "hospitalId",
          "type": "uint256"
        }
      ],
      "name": "getPassword",
      "outputs": [
        {
          "internalType": "string",
          "name": "",
          "type": "string"
        }
      ],
      "stateMutability": "view",
      "type": "function"
    }
  ],
  "bytecode": "0x6080604052600060055560006006553480156200001b57600080fd5b50604051620024ad380380620024ad8339810160408190526200003e9162000089565b600080546001600160a01b039384166001600160a01b03199182161790915560018054929093169116179055620000c8565b6001600160a01b03811681146200008657600080fd5b50565b600080604083850312156200009d57600080fd5b8251620000aa8162000070565b6020840151909250620000bd8162000070565b809150509250929050565b6123d580620000d86000396000f3fe6080604052600436106100a75760003560e01c80639cb3d01f116100645780639cb3d01f146101c5578063b710dc89146101e5578063ca630e1f14610205578063d48794af14610225578063f043e74514610245578063f38c6bb61461026557600080fd5b806310ab2570146100ac5780631e8993d9146100ff5780632a177158146101215780633ffbd47f14610165578063452ba754146101785780638564a78d14610198575b600080fd5b3480156100b857600080fd5b506100e26100c7366004611997565b6000908152600260205260409020546001600160a01b031690565b6040516001600160a01b0390911681526020015b60405180910390f35b34801561010b57600080fd5b5061011f61011a366004611a84565b610285565b005b34801561012d57600080fd5b5061015761013c366004611af1565b6001600160a01b031660009081526003602052604090205490565b6040519081526020016100f6565b610157610173366004611b1a565b6103dd565b34801561018457600080fd5b5061011f610193366004611b7e565b61058b565b3480156101a457600080fd5b506101b86101b3366004611bbb565b610aa6565b6040516100f69190611cca565b3480156101d157600080fd5b506101b86101e0366004611cdd565b610c55565b3480156101f157600080fd5b50610157610200366004611d09565b610f97565b34801561021157600080fd5b5061011f610220366004611a84565b6110c2565b34801561023157600080fd5b506101b8610240366004611dee565b6111d7565b34801561025157600080fd5b50610157610260366004611e81565b611623565b34801561027157600080fd5b506101b8610280366004611997565b6117e7565b8282600260008381526020019081526020016000206002016040516102aa9190611f2d565b6040518091039020816040516020016102c39190611fc9565b60405160208183030381529060405280519060200120146102ff5760405162461bcd60e51b81526004016102f690612006565b60405180910390fd5b8280516009146103475760405162461bcd60e51b815260206004820152601360248201527234b73b30b634b210272924a190373ab6b132b960691b60448201526064016102f6565b60008681526002602090815260409182902080546001600160a01b0319163317905590516103779186910161202f565b60408051601f1981840301815291815260008881526002602090815291902082516103ab93600190920192909101906118fe565b506040517fdc5f6b9352635161a74876313a5729a4d33d34f1f65e69809e2e4275fb16be5590600090a1505050505050565b60008280516009146104275760405162461bcd60e51b815260206004820152601360248201527234b73b30b634b210272924a190373ab6b132b960691b60448201526064016102f6565b34662386f26fc10000146104925760405162461bcd60e51b815260206004820152602c60248201527f302e303120455448206973206e656564656420746f207265676973746572207960448201526b1bdd5c881a1bdcdc1a5d185b60a21b60648201526084016102f6565b600580549060006104a283612066565b909155505060055460009081526002602090815260409182902080546001600160a01b0319163317815591516104da9187910161202f565b6040516020818303038152906040528160010190805190602001906105009291906118fe565b50836040516020016105129190611fc9565b6040516020818303038152906040528160020190805190602001906105389291906118fe565b50600554600380830182905533600090815260209190915260408082209290925590517f2de40ce37397b7fb2d98ae62dc520d88b46e2c50beac9f696f11ccc6605ef3eb9190a150506005549392505050565b60008281526002602052604090206003015482906105bb5760405162461bcd60e51b81526004016102f69061208f565b8282600260008381526020019081526020016000206002016040516105e09190611f2d565b6040518091039020816040516020016105f99190611fc9565b604051602081830303815290604052805190602001201461062c5760405162461bcd60e51b81526004016102f690612006565b6060806060806000600460008b815260200190815260200160002080548060200260200160405190810160405280929190818152602001828054801561069157602002820191906000526020600020905b81548152602001906001019080831161067d575b505050505090506000805b8251811015610a5b5760008382815181106106b9576106b96120bd565b60209081029190910181015160008f8152600283526040808220838352600501845280822080548251818702810187019093528083529395509193909290849084015b828210156108f857838290600052602060002090600502016040518060a0016040529081600082015481526020016001820154815260200160028201805461074390611ef8565b80601f016020809104026020016040519081016040528092919081815260200182805461076f90611ef8565b80156107bc5780601f10610791576101008083540402835291602001916107bc565b820191906000526020600020905b81548152906001019060200180831161079f57829003601f168201915b505050505081526020016003820180546107d590611ef8565b80601f016020809104026020016040519081016040528092919081815260200182805461080190611ef8565b801561084e5780601f106108235761010080835404028352916020019161084e565b820191906000526020600020905b81548152906001019060200180831161083157829003601f168201915b5050505050815260200160048201805461086790611ef8565b80601f016020809104026020016040519081016040528092919081815260200182805461089390611ef8565b80156108e05780601f106108b5576101008083540402835291602001916108e0565b820191906000526020600020905b8154815290600101906020018083116108c357829003601f168201915b505050505081525050815260200190600101906106fc565b50505050905060005b8151811015610a4557600082828151811061091e5761091e6120bd565b6020026020010151905060405180604001604052806002815260200161060f60f31b81525060405160200161095391906120d3565b60405160208183030381529060405280519060200120816080015160405160200161097e91906120d3565b6040516020818303038152906040528051906020012014610a325780600001518b87815181106109b0576109b06120bd565b60200260200101818152505080602001518a87815181106109d3576109d36120bd565b60200260200101818152505080604001518987815181106109f6576109f66120bd565b60200260200101819052508060600151888781518110610a1857610a186120bd565b60200260200101819052508580610a2e90612066565b9650505b5080610a3d81612066565b915050610901565b5050508080610a5390612066565b91505061069c565b507ff27964db71fbfa9cae0795251acb513d2227e5f9a4e8c35b6b5572a7267c243a86868686604051610a91949392919061217f565b60405180910390a15050505050505050505050565b6000868152600260205260409020600301546060908790610ad95760405162461bcd60e51b81526004016102f69061208f565b878760026000838152602001908152602001600020600201604051610afe9190611f2d565b604051809103902081604051602001610b179190611fc9565b6040516020818303038152906040528051906020012014610b4a5760405162461bcd60e51b81526004016102f690612006565b6000805460405163d353b2b160e01b81526001600160a01b039091169063d353b2b190610b83908e908d908d908d908d906004016121d7565b6000604051808303816000875af1158015610ba2573d6000803e3d6000fd5b505050506040513d6000823e601f3d908101601f19168201604052610bca9190810190612268565b905033600260008d815260200190815260200160002060040182604051610bf191906120d3565b90815260405190819003602001812080546001600160a01b03939093166001600160a01b0319909316929092179091557f278d2dbf6177cb0a7393b373d86b3114ec53cde7b0b841ed12144e6b057eb0f390600090a19a9950505050505050505050565b6000838152600260205260409020600301546060908490610c885760405162461bcd60e51b81526004016102f69061208f565b6000858152600260209081526040808320868452600501825280832080548251818502810185019093528083529192909190849084015b82821015610ebb57838290600052602060002090600502016040518060a00160405290816000820154815260200160018201548152602001600282018054610d0690611ef8565b80601f0160208091040260200160405190810160405280929190818152602001828054610d3290611ef8565b8015610d7f5780601f10610d5457610100808354040283529160200191610d7f565b820191906000526020600020905b815481529060010190602001808311610d6257829003601f168201915b50505050508152602001600382018054610d9890611ef8565b80601f0160208091040260200160405190810160405280929190818152602001828054610dc490611ef8565b8015610e115780601f10610de657610100808354040283529160200191610e11565b820191906000526020600020905b815481529060010190602001808311610df457829003601f168201915b50505050508152602001600482018054610e2a90611ef8565b80601f0160208091040260200160405190810160405280929190818152602001828054610e5690611ef8565b8015610ea35780601f10610e7857610100808354040283529160200191610ea3565b820191906000526020600020905b815481529060010190602001808311610e8657829003601f168201915b50505050508152505081526020019060010190610cbf565b5050825192935060009150819050805b83811015610f125788858281518110610ee657610ee66120bd565b6020026020010151600001511415610f0057809150600192505b80610f0a81612066565b915050610ecb565b50600182151514610f5b5760405162461bcd60e51b8152602060048201526013602482015272496e76616c696420726571756573742069642160681b60448201526064016102f6565b8115610f8a57838181518110610f7357610f736120bd565b602002602001015160800151955050505050610f8f565b505050505b509392505050565b6000878152600260205260408120600301548890610fc75760405162461bcd60e51b81526004016102f69061208f565b888860026000838152602001908152602001600020600201604051610fec9190611f2d565b6040518091039020816040516020016110059190611fc9565b60405160208183030381529060405280519060200120146110385760405162461bcd60e51b81526004016102f690612006565b600054604051632b41cdb960e01b81526001600160a01b0390911690632b41cdb990611070908c908c908c908c908c906004016122b9565b6020604051808303816000875af115801561108f573d6000803e3d6000fd5b505050506040513d601f19601f820116820180604052508101906110b3919061230c565b9b9a5050505050505050505050565b60008381526002602052604090205483906001600160a01b0316331461111a5760405162461bcd60e51b815260206004820152600d60248201526c556e617574686f72697a65642160981b60448201526064016102f6565b83836002600083815260200190815260200160002060020160405161113f9190611f2d565b6040518091039020816040516020016111589190611fc9565b604051602081830303815290604052805190602001201461118b5760405162461bcd60e51b81526004016102f690612006565b8360405160200161119c9190611fc9565b60408051601f198184030181529181526000888152600260208181529290912083516111ce94919092019201906118fe565b50505050505050565b600085815260026020526040902060030154606090869061120a5760405162461bcd60e51b81526004016102f69061208f565b86866002600083815260200190815260200160002060020160405161122f9190611f2d565b6040518091039020816040516020016112489190611fc9565b604051602081830303815290604052805190602001201461127b5760405162461bcd60e51b81526004016102f690612006565b85156116175760008981526002602090815260408083208884526005019091529020546112dd5760405162461bcd60e51b815260206004820152601060248201526f4e6f742072657175657374207965742160801b60448201526064016102f6565b6000898152600260209081526040808320888452600501825280832080548251818502810185019093528083529192909190849084015b8282101561151057838290600052602060002090600502016040518060a0016040529081600082015481526020016001820154815260200160028201805461135b90611ef8565b80601f016020809104026020016040519081016040528092919081815260200182805461138790611ef8565b80156113d45780601f106113a9576101008083540402835291602001916113d4565b820191906000526020600020905b8154815290600101906020018083116113b757829003601f168201915b505050505081526020016003820180546113ed90611ef8565b80601f016020809104026020016040519081016040528092919081815260200182805461141990611ef8565b80156114665780601f1061143b57610100808354040283529160200191611466565b820191906000526020600020905b81548152906001019060200180831161144957829003601f168201915b5050505050815260200160048201805461147f90611ef8565b80601f01602080910402602001604051908101604052809291908181526020018280546114ab90611ef8565b80156114f85780601f106114cd576101008083540402835291602001916114f8565b820191906000526020600020905b8154815290600101906020018083116114db57829003601f168201915b50505050508152505081526020019060010190611314565b5050825192935060009150819050805b83811015611567578a85828151811061153b5761153b6120bd565b602002602001015160000151141561155557809150600192505b8061155f81612066565b915050611520565b506001821515146115b05760405162461bcd60e51b8152602060048201526013602482015272496e76616c696420726571756573742069642160681b60448201526064016102f6565b8115611612578a8482815181106115c9576115c96120bd565b6020026020010151608001819052507fc01a711a994234663e49bcaf267235941ef164ac0dea30de367e8cdb0eeabd5a8a60405161160991815260200190565b60405180910390a15b505050505b50505095945050505050565b60008481526002602052604081206003015485906116535760405162461bcd60e51b81526004016102f69061208f565b6001546040516303e1877160e21b815233600482015286916001600160a01b031690630f861dc490602401602060405180830381865afa15801561169b573d6000803e3d6000fd5b505050506040513d601f19601f820116820180604052508101906116bf919061230c565b146117035760405162461bcd60e51b8152602060048201526014602482015273496e76616c6964207374616b65686f6c6465722160601b60448201526064016102f6565b6006805490600061171383612066565b9091555050600086815260026020818152604080842089855260059081018352908420805460018181018355918652948390206006549590920290910193845583018890558651611769928401918801906118fe565b50835161177f90600383019060208701906118fe565b50600087815260046020908152604080832080546001810182559084529282902090920188905560065491519182527f7cd6f88cec54e07d7b5a709e82d19e951e8d3a8f8e64c3982e5c2305383034b1910160405180910390a1505060065495945050505050565b60008181526002602052604090205460609082906001600160a01b031633146118425760405162461bcd60e51b815260206004820152600d60248201526c556e617574686f72697a65642160981b60448201526064016102f6565b6000838152600260208190526040822001805482919061186190611ef8565b80601f016020809104026020016040519081016040528092919081815260200182805461188d90611ef8565b80156118da5780601f106118af576101008083540402835291602001916118da565b820191906000526020600020905b8154815290600101906020018083116118bd57829003601f168201915b50505050508060200190518101906118f29190612345565b50935050505b50919050565b82805461190a90611ef8565b90600052602060002090601f01602090048101928261192c5760008555611972565b82601f1061194557805160ff1916838001178555611972565b82800160010185558215611972579182015b82811115611972578251825591602001919060010190611957565b5061197e929150611982565b5090565b5b8082111561197e5760008155600101611983565b6000602082840312156119a957600080fd5b5035919050565b634e487b7160e01b600052604160045260246000fd5b604051601f8201601f1916810167ffffffffffffffff811182821017156119ef576119ef6119b0565b604052919050565b600067ffffffffffffffff821115611a1157611a116119b0565b50601f01601f191660200190565b6000611a32611a2d846119f7565b6119c6565b9050828152838383011115611a4657600080fd5b828260208301376000602084830101529392505050565b600082601f830112611a6e57600080fd5b611a7d83833560208501611a1f565b9392505050565b600080600060608486031215611a9957600080fd5b83359250602084013567ffffffffffffffff80821115611ab857600080fd5b611ac487838801611a5d565b93506040860135915080821115611ada57600080fd5b50611ae786828701611a5d565b9150509250925092565b600060208284031215611b0357600080fd5b81356001600160a01b0381168114611a7d57600080fd5b60008060408385031215611b2d57600080fd5b823567ffffffffffffffff80821115611b4557600080fd5b611b5186838701611a5d565b93506020850135915080821115611b6757600080fd5b50611b7485828601611a5d565b9150509250929050565b60008060408385031215611b9157600080fd5b82359150602083013567ffffffffffffffff811115611baf57600080fd5b611b7485828601611a5d565b60008060008060008060c08789031215611bd457600080fd5b86359550602087013567ffffffffffffffff80821115611bf357600080fd5b611bff8a838b01611a5d565b9650604089013595506060890135915060038210611c1c57600080fd5b90935060808801359080821115611c3257600080fd5b611c3e8a838b01611a5d565b935060a0890135915080821115611c5457600080fd5b50611c6189828a01611a5d565b9150509295509295509295565b60005b83811015611c89578181015183820152602001611c71565b83811115611c98576000848401525b50505050565b60008151808452611cb6816020860160208601611c6e565b601f01601f19169290920160200192915050565b602081526000611a7d6020830184611c9e565b600080600060608486031215611cf257600080fd5b505081359360208301359350604090920135919050565b600080600080600080600060e0888a031215611d2457600080fd5b87359650602088013567ffffffffffffffff80821115611d4357600080fd5b611d4f8b838c01611a5d565b975060408a0135915080821115611d6557600080fd5b611d718b838c01611a5d565b965060608a0135915080821115611d8757600080fd5b611d938b838c01611a5d565b955060808a0135915080821115611da957600080fd5b611db58b838c01611a5d565b945060a08a0135935060c08a0135915080821115611dd257600080fd5b50611ddf8a828b01611a5d565b91505092959891949750929550565b600080600080600060a08688031215611e0657600080fd5b85359450602086013567ffffffffffffffff80821115611e2557600080fd5b611e3189838a01611a5d565b95506040880135915080821115611e4757600080fd5b508601601f81018813611e5957600080fd5b611e6888823560208401611a1f565b9598949750949560608101359550608001359392505050565b60008060008060808587031215611e9757600080fd5b8435935060208501359250604085013567ffffffffffffffff80821115611ebd57600080fd5b611ec988838901611a5d565b93506060870135915080821115611edf57600080fd5b50611eec87828801611a5d565b91505092959194509250565b600181811c90821680611f0c57607f821691505b602082108114156118f857634e487b7160e01b600052602260045260246000fd5b600080835481600182811c915080831680611f4957607f831692505b6020808410821415611f6957634e487b7160e01b86526022600452602486fd5b818015611f7d5760018114611f8e57611fbb565b60ff19861689528489019650611fbb565b60008a81526020902060005b86811015611fb35781548b820152908501908301611f9a565b505084890196505b509498975050505050505050565b604081526000611fdc6040830184611c9e565b828103602084015260088152671c185cdcdddbdc9960c21b60208201526040810191505092915050565b6020808252600f908201526e57726f6e672070617373776f72642160881b604082015260600190565b6040815260006120426040830184611c9e565b82810360208401526002815261696360f01b60208201526040810191505092915050565b600060001982141561208857634e487b7160e01b600052601160045260246000fd5b5060010190565b602080825260149082015273496e76616c696420686f73706974616c2069642160601b604082015260600190565b634e487b7160e01b600052603260045260246000fd5b600082516120e5818460208701611c6e565b9190910192915050565b600081518084526020808501945080840160005b8381101561211f57815187529582019590820190600101612103565b509495945050505050565b600081518084526020808501808196508360051b8101915082860160005b85811015612172578284038952612160848351611c9e565b98850198935090840190600101612148565b5091979650505050505050565b60808152600061219260808301876120ef565b82810360208401526121a481876120ef565b905082810360408401526121b8818661212a565b905082810360608401526121cc818561212a565b979650505050505050565b85815284602082015260006003851061220057634e487b7160e01b600052602160045260246000fd5b84604083015260a0606083015261221a60a0830185611c9e565b828103608084015261222c8185611c9e565b98975050505050505050565b6000612246611a2d846119f7565b905082815283838301111561225a57600080fd5b611a7d836020830184611c6e565b60006020828403121561227a57600080fd5b815167ffffffffffffffff81111561229157600080fd5b8201601f810184136122a257600080fd5b6122b184825160208401612238565b949350505050565b60a0815260006122cc60a0830188611c9e565b82810360208401526122de8188611c9e565b905082810360408401526122f28187611c9e565b9050846060840152828103608084015261222c8185611c9e565b60006020828403121561231e57600080fd5b5051919050565b600082601f83011261233657600080fd5b611a7d83835160208501612238565b6000806040838503121561235857600080fd5b825167ffffffffffffffff8082111561237057600080fd5b61237c86838701612325565b9350602085015191508082111561239257600080fd5b50611b748582860161232556fea2646970667358221220fc3cf7682a4435173434a9f2dfb8734df1f1b2ca526df055d02135edfc892d6064736f6c634300080c0033",
  "immutableReferences": {},
  "source": "pragma solidity ^0.8.12;\npragma experimental ABIEncoderV2;\nimport \"./MedicalCert.sol\";\nimport \"./Stakeholder.sol\";\n\ncontract Hospital {\n    MedicalCertificate medicalCert;\n    Stakeholder stakeholderContract;\n\n    mapping(uint256 => hospital) registeredHospital; //hospital id => hospital\n    mapping(address => uint256) ids; //president => hospital id\n    mapping(uint256 => uint256[]) stakeholders; //hospital id => requested stakeholder;\n\n    uint256 totalHospital = 0;\n\n    constructor (MedicalCertificate mcAddress, Stakeholder stakeholderAddress) public  {\n        medicalCert = mcAddress;\n        stakeholderContract = stakeholderAddress;\n    }\n  \n    struct hospital {\n        address president; //owner of the hospital\n        bytes president_ic; //the identity of owner\n        bytes password; //passward needed to create MC\n        uint256 hospitalId; //id\n        mapping(bytes => address) mcs; // mc id => who create the mc\n        mapping(uint256 => Request[]) requests; //stakeholderId -> requests\n    }\n\n    struct Request {\n        uint256 reqId;\n        uint256 stakeholderId;\n        string nameAssured;\n        string icAssured;\n        bytes mcid;\n    }\n    \n    uint256 numOfReqs = 0;\n\n    // events\n    event registered();\n    event createOneMC();\n    event presidentChanged();\n    event requestSolve(uint256 requestId);\n    event requestMade(uint256 reqeustId);\n    event liveRequest(uint256[] requestids,\n        uint256[] stakeholderids,\n        string[] names,\n        string[] ics);\n\n    //modifiers\n    modifier validHospital(uint256 _hospitalId) {\n        require(registeredHospital[_hospitalId].hospitalId > 0, \"Invalid hospital id!\");\n        _;\n    }\n    modifier validIC(string memory _ic) {\n        require(bytes(_ic).length == 9, \"invalid NRIC number\");\n        _;\n    }\n\n    modifier onlyOwner(uint256 _hospitalId) {\n        require (msg.sender == registeredHospital[ _hospitalId].president, \"Unauthorized!\");\n        _;\n    }\n\n    modifier verifyPassword(uint256 _hospitalId, string memory _password) {\n        require (keccak256(abi.encode(_password,\"password\")) == keccak256(registeredHospital[ _hospitalId].password), \"Wrong password!\");\n        _;\n    }\n\n    modifier validMCId(uint256 _hospitalId, bytes memory  _mcId) {\n        require(registeredHospital[_hospitalId].mcs[_mcId] != address(0), \"Wrong hospitalId or MCId!\");\n        _;\n    }\n\n    \n    //since below function already check validity no need here\n    // modifier validRequest(uint256  _hospitalId, uint256 _stakeholderId, uint256 _requestId) {\n    //    require(registeredHospital[_hospitalId].requests[_stakeholderId] > 0, \"You didn't make request!\");\n    //     _;\n    // }\n    \n    //functions\n\n\n     /** \n    * @dev register the hospital on chain\n    * @param NRIC president NRIC\n    * @param password password to register\n    * @return uint256 registered hospital id\n    */\n    function register(string memory NRIC, string memory password) public payable validIC(NRIC) returns(uint256) {\n        require(msg.value == 0.01 ether, \"0.01 ETH is needed to register your hospital\");\n\n        totalHospital++;\n        hospital storage newHospital = registeredHospital[totalHospital];\n\n        newHospital.president =  msg.sender;\n        newHospital.president_ic = abi.encode(NRIC,\"ic\");\n        newHospital.password =  abi.encode(password,\"password\");\n        newHospital.hospitalId =  totalHospital;\n        \n        \n        ids[msg.sender] = totalHospital;\n        \n        emit registered();\n        return totalHospital;\n    }\n\n    //MC\n    //  /** \n    // * @dev create MC with required information\n    // * @param _hospitalId hospital id\n    // * @param _password need password to create\n    // * @param _requestId whether the MC is for some request\n    // * @param _stakeholderId if it's a request, what's the stakeholder id\n    // * @param name the name of the person \n    // * @param NRIC the NRIC of the person \n    // * @param sex the sex of the person \n    // * @param birthdate the birthday of the person \n    // * @param race the race of the person \n    // * @param nationality the natinality of the person \n    // * @param incidentType the incident type\n    // * @param incidentYYYYMMDDHHMM the incident type\n    // * @param  place the place of incident\n    // * @param  cause the cause of incident\n    // * @param  titleName the title of who created the MC\n    // * @param  institution the institution name\n    // * @return byte32 mc Id\n    // */\n    function createPersonalInfo (uint256 _hospitalId, string memory _password,\n    string memory name, string memory NRIC, string memory sex, \n    uint256 birthdate, string memory race_nationality) \n    public validHospital(_hospitalId) verifyPassword(_hospitalId,_password) \n    returns (uint256) {\n        return medicalCert.createPersonalInfo(name, NRIC, sex, birthdate, race_nationality);\n    }\n\n    function createMC (uint256 hospitalId, string memory password,\n    uint256 lifeAssuredInfoId,\n    MedicalCertificate.certCategory incidentType, \n    string memory incidentYYYYMMDDHHMM, string memory titleName) \n    public validHospital(hospitalId) verifyPassword(hospitalId,password) \n    returns (bytes memory) {\n        bytes memory  mcId = medicalCert.add(\n                hospitalId,\n                lifeAssuredInfoId,\n                incidentType,\n                incidentYYYYMMDDHHMM,\n                titleName);\n        registeredHospital[hospitalId].mcs[mcId] = msg.sender;\n        emit createOneMC();\n        return mcId;\n    }\n    \n    function solveRequest(uint256 hospitalId, string memory password, bytes memory mcId,\n    uint256 requestId, uint256 stakeholderId) \n    public validHospital(hospitalId) verifyPassword(hospitalId,password) \n    returns(bytes memory)\n    {\n\n        if (requestId != 0) {\n            require(registeredHospital[hospitalId].requests[stakeholderId].length > 0, \"Not request yet!\");\n            \n            Request[] memory reqs = registeredHospital[hospitalId].requests[stakeholderId];\n            uint256 length = reqs.length;\n            bool find = false;\n            uint256 index;\n            for (uint256 i = 0; i < length; i++) {\n                if (reqs[i].reqId == requestId) {\n                    index = i;\n                    find = true;\n                }\n            }\n            \n            require(find == true, \"Invalid request id!\");\n            if (find) {\n                reqs[index].mcid = mcId;\n                emit requestSolve(requestId);\n            }\n        }        \n        \n\n    }\n\n    //  /** \n    // * @dev stakeholder request to create MC\n    // * @param hospitalId the hospital id \n    // * @param stakeholderId the stakeholder Id\n    // * @param nameAssured the assured person's name\n    // * @param icAssured the assured person's NRIC\n    // * @return uint256 number of requests\n    // */\n    function requestMC(uint256 hospitalId, uint256 stakeholderId, string memory nameAssured, string memory icAssured) \n    public validHospital(hospitalId) returns(uint256) {\n        require(stakeholderContract.getStakeholderId(msg.sender) == stakeholderId, \"Invalid stakeholder!\");\n  \n        numOfReqs++;\n        Request storage req =  registeredHospital[hospitalId].requests[stakeholderId].push();\n        req.reqId = numOfReqs;\n        req.stakeholderId = stakeholderId;\n        req.nameAssured = nameAssured;\n        req.icAssured = icAssured;\n        \n        stakeholders[hospitalId].push(stakeholderId);\n        emit requestMade(numOfReqs);\n        return numOfReqs;\n    }\n\n    // /** \n    // * @dev check requests from hospital\n    // * @param _hospitalId the hospital id \n    // * @param _password password to register\n    // */\n    function checkRequestFromHospital (uint256 _hospitalId, string memory _password) \n    public validHospital(_hospitalId) verifyPassword(_hospitalId,_password) \n    {\n        uint256[] memory requestids;\n        uint256[] memory stakeholderids;\n        string[] memory names;\n        string[]memory ics;\n\n        uint256[] memory requestedstakeholders = stakeholders[_hospitalId];\n\n        uint256 total_reqs = 0;\n\n        for (uint256 i = 0; i < requestedstakeholders.length; i++) {\n            uint256 stakeholderId = requestedstakeholders[i];\n            Request[] memory reqs = registeredHospital[_hospitalId].requests[stakeholderId];\n            for(uint256 j = 0; j < reqs.length; j++) {\n                Request memory req = reqs[j];\n                \n                if (keccak256(abi.encodePacked(req.mcid)) != keccak256(abi.encodePacked(bytes(\"0x\")))) {\n                    requestids[total_reqs] = req.reqId;\n                    stakeholderids[total_reqs] = req.stakeholderId;\n                    names[total_reqs] = req.nameAssured;\n                    ics[total_reqs] = req.icAssured;\n                    total_reqs++;\n                }\n            }            \n        }\n\n        emit liveRequest(requestids,stakeholderids, names,ics);\n    }\n\n    // /** \n    // * @dev check mc Ids from stakeholder\n    // * @param _hospitalId hospital id\n    // * @param _requestId whether the MC is for some request\n    // * @param _stakeholderId if it's a request, what's the stakeholder id\n    // * @return  byte32 mcId\n    // */\n    function checkMCIdFromStakeholder(uint256 _hospitalId, uint256 _requestId, uint256 _stakeholderId)\n      public validHospital(_hospitalId) //validRequest(_hospitalId, _stakeholderId,_requestId) \n      returns(bytes memory )\n    {\n        Request[] memory reqs = registeredHospital[_hospitalId].requests[_stakeholderId];\n        uint256 length = reqs.length;\n        bool find = false;\n        uint256 index;\n        for (uint256 i = 0; i < length; i++) {\n            if (reqs[i].reqId == _requestId) {\n                index = i;\n                find = true;\n            }\n        }\n        \n        require(find == true, \"Invalid request id!\");\n        if (find) {\n            return reqs[index].mcid;\n        }         \n    }\n    /** \n    * @dev change president of hospital\n    * @param NRIC president NRIC\n    * @param password password to register\n    * @param hospitalId hospital id\n    */\n    function changePresident(uint256 hospitalId, string memory password, string memory NRIC)\n    public verifyPassword(hospitalId,password) validIC(NRIC)\n    {\n        registeredHospital[ hospitalId].president = msg.sender;\n        registeredHospital[ hospitalId].president_ic = abi.encode(NRIC,\"ic\");\n        emit presidentChanged();\n    }\n\n    /** \n    * @dev change password of hospital\n    * @param oldpassword old password needed to change\n    * @param newpassword the new password\n    */\n    function changePassword(uint256 hospitalId, string memory oldpassword, string memory newpassword)\n    public onlyOwner(hospitalId) verifyPassword(hospitalId,oldpassword)\n    {\n        registeredHospital[ hospitalId].password = abi.encode(newpassword,\"password\");\n    }\n\n\n    //getters\n    function getHospitalId(address president) public view returns(uint256) {\n        return ids[president];\n    }\n\n    function getPresident(uint256 hospitalId) public view returns(address) {\n        return  registeredHospital[ hospitalId].president;\n    }\n\n    function getPassword(uint256 hospitalId) \n        public view \n        onlyOwner(hospitalId) \n        returns(string memory) \n    {\n        (string memory password, string memory s) = abi.decode(registeredHospital[hospitalId].password, (string,string));\n        return password;\n    }\n\n    // function getMC(uint256 _hospitalId, bytes memory  _mcId) \n    //     public view \n    //     validMCId(_hospitalId,_mcId)\n    //     returns (uint256, string memory, string memory, uint256, uint256, string memory, string memory, MedicalCertificate.certCategory, string memory, string memory, string memory, string memory, string memory)\n    // {\n    //     return medicalCert.getMC(_mcId);\n    // }\n\n}",
  "sourcePath": "/Users/yco/Desktop/IS4302/IS4302_Group12/contracts/Hospital.sol",
  "compiler": {
    "name": "solc",
    "version": "0.8.12+commit.f00d7308.Emscripten.clang"
  },
  "schemaVersion": "3.4.11",
  "updatedAt": "2023-03-31T14:36:33.243Z",
  "devdoc": {
    "kind": "dev",
    "methods": {
      "changePassword(uint256,string,string)": {
        "details": "change password of hospital",
        "params": {
          "newpassword": "the new password",
          "oldpassword": "old password needed to change"
        }
      },
      "changePresident(uint256,string,string)": {
        "details": "change president of hospital",
        "params": {
          "NRIC": "president NRIC",
          "hospitalId": "hospital id",
          "password": "password to register"
        }
      },
      "register(string,string)": {
        "details": "register the hospital on chain",
        "params": {
          "NRIC": "president NRIC",
          "password": "password to register"
        },
        "returns": {
          "_0": "uint256 registered hospital id"
        }
      }
    },
    "version": 1
  },
  "userdoc": {
    "kind": "user",
    "methods": {},
    "version": 1
  }
}