{
  "contractName": "Hospital",
  "abi": [
    {
      "anonymous": false,
      "inputs": [],
      "name": "createOneMC",
      "type": "event"
    },
    {
      "anonymous": false,
      "inputs": [
        {
          "indexed": false,
          "internalType": "uint256[]",
          "name": "requestids",
          "type": "uint256[]"
        },
        {
          "indexed": false,
          "internalType": "uint256[]",
          "name": "stakeholderids",
          "type": "uint256[]"
        },
        {
          "indexed": false,
          "internalType": "string[]",
          "name": "names",
          "type": "string[]"
        },
        {
          "indexed": false,
          "internalType": "string[]",
          "name": "ics",
          "type": "string[]"
        }
      ],
      "name": "liveRequest",
      "type": "event"
    },
    {
      "anonymous": false,
      "inputs": [
        {
          "indexed": false,
          "internalType": "uint256",
          "name": "numMC",
          "type": "uint256"
        }
      ],
      "name": "mcCreated",
      "type": "event"
    },
    {
      "anonymous": false,
      "inputs": [],
      "name": "presidentChanged",
      "type": "event"
    },
    {
      "anonymous": false,
      "inputs": [
        {
          "indexed": false,
          "internalType": "uint256",
          "name": "hospitalId",
          "type": "uint256"
        }
      ],
      "name": "registered",
      "type": "event"
    },
    {
      "anonymous": false,
      "inputs": [
        {
          "indexed": false,
          "internalType": "uint256",
          "name": "reqeustId",
          "type": "uint256"
        }
      ],
      "name": "requestMade",
      "type": "event"
    },
    {
      "anonymous": false,
      "inputs": [
        {
          "indexed": false,
          "internalType": "uint256",
          "name": "requestId",
          "type": "uint256"
        }
      ],
      "name": "requestSolve",
      "type": "event"
    },
    {
      "inputs": [
        {
          "internalType": "uint256",
          "name": "id",
          "type": "uint256"
        }
      ],
      "name": "getMCCategory",
      "outputs": [
        {
          "internalType": "enum MedicalCertificate.certCategory",
          "name": "",
          "type": "uint8"
        }
      ],
      "stateMutability": "view",
      "type": "function",
      "constant": true
    },
    {
      "inputs": [
        {
          "internalType": "uint256",
          "name": "id",
          "type": "uint256"
        }
      ],
      "name": "getMCNRIC",
      "outputs": [
        {
          "internalType": "string",
          "name": "",
          "type": "string"
        }
      ],
      "stateMutability": "view",
      "type": "function",
      "constant": true
    },
    {
      "inputs": [
        {
          "internalType": "uint256",
          "name": "id",
          "type": "uint256"
        }
      ],
      "name": "getMCName",
      "outputs": [
        {
          "internalType": "string",
          "name": "",
          "type": "string"
        }
      ],
      "stateMutability": "view",
      "type": "function",
      "constant": true
    },
    {
      "inputs": [
        {
          "internalType": "string",
          "name": "NRIC",
          "type": "string"
        },
        {
          "internalType": "string",
          "name": "password",
          "type": "string"
        }
      ],
      "name": "register",
      "outputs": [
        {
          "internalType": "uint256",
          "name": "",
          "type": "uint256"
        }
      ],
      "stateMutability": "payable",
      "type": "function",
      "payable": true
    },
    {
      "inputs": [
        {
          "internalType": "uint256",
          "name": "hospitalId",
          "type": "uint256"
        },
        {
          "internalType": "string",
          "name": "password",
          "type": "string"
        },
        {
          "internalType": "string",
          "name": "name",
          "type": "string"
        },
        {
          "internalType": "string",
          "name": "NRIC",
          "type": "string"
        },
        {
          "internalType": "string",
          "name": "sex",
          "type": "string"
        },
        {
          "internalType": "string",
          "name": "birthdateYYYYMMDD",
          "type": "string"
        },
        {
          "internalType": "string",
          "name": "race_nationality",
          "type": "string"
        }
      ],
      "name": "createPersonalInfo",
      "outputs": [
        {
          "internalType": "uint256",
          "name": "",
          "type": "uint256"
        }
      ],
      "stateMutability": "nonpayable",
      "type": "function"
    },
    {
      "inputs": [
        {
          "internalType": "uint256",
          "name": "hospital",
          "type": "uint256"
        },
        {
          "internalType": "string",
          "name": "password",
          "type": "string"
        },
        {
          "internalType": "uint256",
          "name": "personId",
          "type": "uint256"
        },
        {
          "internalType": "enum MedicalCertificate.certCategory",
          "name": "incidentType0incident1death2suicide",
          "type": "uint8"
        },
        {
          "internalType": "string",
          "name": "incidentYYYYMMDDHHMM",
          "type": "string"
        },
        {
          "internalType": "string",
          "name": "certifierName",
          "type": "string"
        }
      ],
      "name": "addMC",
      "outputs": [
        {
          "internalType": "uint256",
          "name": "",
          "type": "uint256"
        }
      ],
      "stateMutability": "nonpayable",
      "type": "function"
    },
    {
      "inputs": [
        {
          "internalType": "uint256",
          "name": "hospitalId",
          "type": "uint256"
        },
        {
          "internalType": "string",
          "name": "password",
          "type": "string"
        },
        {
          "internalType": "uint256",
          "name": "mcId",
          "type": "uint256"
        },
        {
          "internalType": "uint256",
          "name": "requestId",
          "type": "uint256"
        },
        {
          "internalType": "uint256",
          "name": "stakeholderId",
          "type": "uint256"
        }
      ],
      "name": "solveRequest",
      "outputs": [
        {
          "internalType": "uint256",
          "name": "",
          "type": "uint256"
        }
      ],
      "stateMutability": "nonpayable",
      "type": "function"
    },
    {
      "inputs": [
        {
          "internalType": "uint256",
          "name": "hospitalId",
          "type": "uint256"
        },
        {
          "internalType": "uint256",
          "name": "stakeholderId",
          "type": "uint256"
        },
        {
          "internalType": "string",
          "name": "nameAssured",
          "type": "string"
        },
        {
          "internalType": "string",
          "name": "icAssured",
          "type": "string"
        }
      ],
      "name": "requestMC",
      "outputs": [
        {
          "internalType": "uint256",
          "name": "",
          "type": "uint256"
        }
      ],
      "stateMutability": "nonpayable",
      "type": "function"
    },
    {
      "inputs": [
        {
          "internalType": "uint256",
          "name": "hospitalId",
          "type": "uint256"
        },
        {
          "internalType": "string",
          "name": "password",
          "type": "string"
        }
      ],
      "name": "checkRequestFromHospital",
      "outputs": [],
      "stateMutability": "nonpayable",
      "type": "function"
    },
    {
      "inputs": [
        {
          "internalType": "uint256",
          "name": "_hospitalId",
          "type": "uint256"
        },
        {
          "internalType": "uint256",
          "name": "_requestId",
          "type": "uint256"
        },
        {
          "internalType": "uint256",
          "name": "_stakeholderId",
          "type": "uint256"
        }
      ],
      "name": "checkMCIdFromStakeholder",
      "outputs": [
        {
          "internalType": "uint256",
          "name": "",
          "type": "uint256"
        }
      ],
      "stateMutability": "view",
      "type": "function",
      "constant": true
    },
    {
      "inputs": [
        {
          "internalType": "uint256",
          "name": "hospitalId",
          "type": "uint256"
        },
        {
          "internalType": "string",
          "name": "password",
          "type": "string"
        },
        {
          "internalType": "string",
          "name": "NRIC",
          "type": "string"
        }
      ],
      "name": "changePresident",
      "outputs": [],
      "stateMutability": "nonpayable",
      "type": "function"
    },
    {
      "inputs": [
        {
          "internalType": "uint256",
          "name": "hospitalId",
          "type": "uint256"
        },
        {
          "internalType": "string",
          "name": "oldpassword",
          "type": "string"
        },
        {
          "internalType": "string",
          "name": "newpassword",
          "type": "string"
        }
      ],
      "name": "changePassword",
      "outputs": [],
      "stateMutability": "nonpayable",
      "type": "function"
    },
    {
      "inputs": [
        {
          "internalType": "address",
          "name": "president",
          "type": "address"
        }
      ],
      "name": "getHospitalId",
      "outputs": [
        {
          "internalType": "uint256",
          "name": "",
          "type": "uint256"
        }
      ],
      "stateMutability": "view",
      "type": "function",
      "constant": true
    },
    {
      "inputs": [
        {
          "internalType": "uint256",
          "name": "hospitalId",
          "type": "uint256"
        }
      ],
      "name": "getPresident",
      "outputs": [
        {
          "internalType": "address",
          "name": "",
          "type": "address"
        }
      ],
      "stateMutability": "view",
      "type": "function",
      "constant": true
    },
    {
      "inputs": [
        {
          "internalType": "uint256",
          "name": "hospitalId",
          "type": "uint256"
        }
      ],
      "name": "getPassword",
      "outputs": [
        {
          "internalType": "string",
          "name": "",
          "type": "string"
        }
      ],
      "stateMutability": "view",
      "type": "function",
      "constant": true
    }
  ],
  "bytecode": "0x60806040526000805560006006556000600755600060085534801561002357600080fd5b506123ef806100336000396000f3fe6080604052600436106100e85760003560e01c806366e918b81161008a578063ca630e1f11610059578063ca630e1f146102c6578063caafc4fb146102e6578063f043e74514610306578063f38c6bb61461032657600080fd5b806366e918b81461022657806374946460146102465780639cb3d01f14610266578063baaab57a1461028657600080fd5b80632a177158116100c65780632a17715814610190578063302e1ab1146101c65780633ffbd47f146101f3578063452ba7541461020657600080fd5b806310ab2570146100ed57806318c40f27146101405780631e8993d91461016e575b600080fd5b3480156100f957600080fd5b50610123610108366004611a9c565b6000908152600360205260409020546001600160a01b031690565b6040516001600160a01b0390911681526020015b60405180910390f35b34801561014c57600080fd5b5061016061015b366004611b78565b610346565b604051908152602001610137565b34801561017a57600080fd5b5061018e610189366004611bd9565b610711565b005b34801561019c57600080fd5b506101606101ab366004611c45565b6001600160a01b031660009081526004602052604090205490565b3480156101d257600080fd5b506101e66101e1366004611a9c565b610860565b6040516101379190611cd1565b610160610201366004611ce4565b610914565b34801561021257600080fd5b5061018e610221366004611d47565b610ad3565b34801561023257600080fd5b50610160610241366004611d83565b61108f565b34801561025257600080fd5b50610160610261366004611e35565b611247565b34801561027257600080fd5b50610160610281366004611f34565b6113d7565b34801561029257600080fd5b506102b96102a1366004611a9c565b60009081526001602052604090206003015460ff1690565b6040516101379190611f76565b3480156102d257600080fd5b5061018e6102e1366004611bd9565b61168e565b3480156102f257600080fd5b506101e6610301366004611a9c565b6117a5565b34801561031257600080fd5b50610160610321366004611f9e565b6117d5565b34801561033257600080fd5b506101e6610341366004611a9c565b6118ec565b600085815260036020819052604082200154869061037f5760405162461bcd60e51b815260040161037690612014565b60405180910390fd5b8686600360008381526020019081526020016000206002016040516103a49190612077565b6040518091039020816040516020016103bd9190612113565b60405160208183030381529060405280519060200120146103f05760405162461bcd60e51b815260040161037690612150565b85156107055760008981526003602090815260408083208884526005019091529020546104525760405162461bcd60e51b815260206004820152601060248201526f4e6f742072657175657374207965742160801b6044820152606401610376565b6000898152600360209081526040808320888452600501825280832080548251818502810185019093528083529192909190849084015b828210156105fd57838290600052602060002090600502016040518060a001604052908160008201548152602001600182015481526020016002820180546104d090612042565b80601f01602080910402602001604051908101604052809291908181526020018280546104fc90612042565b80156105495780601f1061051e57610100808354040283529160200191610549565b820191906000526020600020905b81548152906001019060200180831161052c57829003601f168201915b5050505050815260200160038201805461056290612042565b80601f016020809104026020016040519081016040528092919081815260200182805461058e90612042565b80156105db5780601f106105b0576101008083540402835291602001916105db565b820191906000526020600020905b8154815290600101906020018083116105be57829003601f168201915b5050505050815260200160048201548152505081526020019060010190610489565b5050825192935060009150819050805b83811015610654578a85828151811061062857610628612179565b602002602001015160000151141561064257809150600192505b8061064c816121a5565b91505061060d565b5060018215151461069d5760405162461bcd60e51b8152602060048201526013602482015272496e76616c696420726571756573742069642160681b6044820152606401610376565b8115610700578a8482815181106106b6576106b6612179565b602002602001015160800181815250507fc01a711a994234663e49bcaf267235941ef164ac0dea30de367e8cdb0eeabd5a8a6040516106f791815260200190565b60405180910390a15b505050505b50505095945050505050565b8282600360008381526020019081526020016000206002016040516107369190612077565b60405180910390208160405160200161074f9190612113565b60405160208183030381529060405280519060200120146107825760405162461bcd60e51b815260040161037690612150565b8280516009146107ca5760405162461bcd60e51b815260206004820152601360248201527234b73b30b634b210272924a190373ab6b132b960691b6044820152606401610376565b60008681526003602090815260409182902080546001600160a01b0319163317905590516107fa918691016121c0565b60408051601f19818403018152918152600088815260036020908152919020825161082e9360019092019290910190611a03565b506040517fdc5f6b9352635161a74876313a5729a4d33d34f1f65e69809e2e4275fb16be5590600090a1505050505050565b600081815260016020818152604080842060029081015485529091529091200180546060919061088f90612042565b80601f01602080910402602001604051908101604052809291908181526020018280546108bb90612042565b80156109085780601f106108dd57610100808354040283529160200191610908565b820191906000526020600020905b8154815290600101906020018083116108eb57829003601f168201915b50505050509050919050565b600082805160091461095e5760405162461bcd60e51b815260206004820152601360248201527234b73b30b634b210272924a190373ab6b132b960691b6044820152606401610376565b662386f26fc100003410156109ca5760405162461bcd60e51b815260206004820152602c60248201527f302e303120455448206973206e656564656420746f207265676973746572207960448201526b1bdd5c881a1bdcdc1a5d185b60a21b6064820152608401610376565b600680549060006109da836121a5565b909155505060065460009081526003602090815260409182902080546001600160a01b031916331781559151610a12918791016121c0565b604051602081830303815290604052816001019080519060200190610a38929190611a03565b5083604051602001610a4a9190612113565b604051602081830303815290604052816002019080519060200190610a70929190611a03565b50600654600382018190553360009081526004602052604090819020829055517fe6cf13467d222a9bff8285bb981a618844afe23013a907fb49b2ea802d1c19e891610abf9190815260200190565b60405180910390a150506006549392505050565b600082815260036020819052604090912001548290610b045760405162461bcd60e51b815260040161037690612014565b828260036000838152602001908152602001600020600201604051610b299190612077565b604051809103902081604051602001610b429190612113565b6040516020818303038152906040528051906020012014610b755760405162461bcd60e51b815260040161037690612150565b60006007546001600160401b03811115610b9157610b91611ab5565b604051908082528060200260200182016040528015610bba578160200160208202803683370190505b50905060006007546001600160401b03811115610bd957610bd9611ab5565b604051908082528060200260200182016040528015610c02578160200160208202803683370190505b50905060006007546001600160401b03811115610c2157610c21611ab5565b604051908082528060200260200182016040528015610c5457816020015b6060815260200190600190039081610c3f5790505b50905060006007546001600160401b03811115610c7357610c73611ab5565b604051908082528060200260200182016040528015610ca657816020015b6060815260200190600190039081610c915790505b5060008a815260056020908152604080832080548251818502810185019093528083529495509293909291830182828015610d0057602002820191906000526020600020905b815481526020019060010190808311610cec575b505050505090506000805b8251811015611044576000838281518110610d2857610d28612179565b60209081029190910181015160008f8152600383526040808220838352600501845280822080548251818702810187019093528083529395509193909290849084015b82821015610edf57838290600052602060002090600502016040518060a00160405290816000820154815260200160018201548152602001600282018054610db290612042565b80601f0160208091040260200160405190810160405280929190818152602001828054610dde90612042565b8015610e2b5780601f10610e0057610100808354040283529160200191610e2b565b820191906000526020600020905b815481529060010190602001808311610e0e57829003601f168201915b50505050508152602001600382018054610e4490612042565b80601f0160208091040260200160405190810160405280929190818152602001828054610e7090612042565b8015610ebd5780601f10610e9257610100808354040283529160200191610ebd565b820191906000526020600020905b815481529060010190602001808311610ea057829003601f168201915b5050505050815260200160048201548152505081526020019060010190610d6b565b50505050905060005b815181101561102e576000828281518110610f0557610f05612179565b6020026020010151905060405180604001604052806002815260200161060f60f31b815250604051602001610f3a91906121f7565b604051602081830303815290604052805190602001208160800151604051602001610f6791815260200190565b604051602081830303815290604052805190602001201461101b5780600001518b8781518110610f9957610f99612179565b60200260200101818152505080602001518a8781518110610fbc57610fbc612179565b6020026020010181815250508060400151898781518110610fdf57610fdf612179565b6020026020010181905250806060015188878151811061100157611001612179565b60200260200101819052508580611017906121a5565b9650505b5080611026816121a5565b915050610ee8565b505050808061103c906121a5565b915050610d0b565b507ff27964db71fbfa9cae0795251acb513d2227e5f9a4e8c35b6b5572a7267c243a8686868660405161107a94939291906122a3565b60405180910390a15050505050505050505050565b60008681526003602081905260408220015487906110bf5760405162461bcd60e51b815260040161037690612014565b8787600360008381526020019081526020016000206002016040516110e49190612077565b6040518091039020816040516020016110fd9190612113565b60405160208183030381529060405280519060200120146111305760405162461bcd60e51b815260040161037690612150565b858051600c146111725760405162461bcd60e51b815260206004820152600d60248201526c496e76616c696420646174652160981b6044820152606401610376565b6000546111809060016122fb565b60008181558181526001602081905260409091209182558181018d905560028083018c90556003830180548c93919260ff19909116919084908111156111c8576111c8611f60565b021790555087516111e290600483019060208b0190611a03565b5086516111f890600583019060208a0190611a03565b507f08b2c200b5f16565b86d1596988527109771ff8ed118f330cca9ee70d6ba9a1660005460405161122c91815260200190565b60405180910390a150506000549a9950505050505050505050565b60008781526003602081905260408220015488906112775760405162461bcd60e51b815260040161037690612014565b88886003600083815260200190815260200160002060020160405161129c9190612077565b6040518091039020816040516020016112b59190612113565b60405160208183030381529060405280519060200120146112e85760405162461bcd60e51b815260040161037690612150565b85805160081461132a5760405162461bcd60e51b815260206004820152600d60248201526c496e76616c696420646174652160981b6044820152606401610376565b6008805490600061133a836121a5565b909155505060085460008181526002602090815260409091209182558b5161136a916001840191908e0190611a03565b50895161138090600283019060208d0190611a03565b50885161139690600383019060208c0190611a03565b5087516113ac90600483019060208b0190611a03565b5086516113c290600583019060208a0190611a03565b50506008549c9b505050505050505050505050565b60008381526003602081905260408220015484906114075760405162461bcd60e51b815260040161037690612014565b6000858152600360209081526040808320868452600501825280832080548251818502810185019093528083529192909190849084015b828210156115b257838290600052602060002090600502016040518060a0016040529081600082015481526020016001820154815260200160028201805461148590612042565b80601f01602080910402602001604051908101604052809291908181526020018280546114b190612042565b80156114fe5780601f106114d3576101008083540402835291602001916114fe565b820191906000526020600020905b8154815290600101906020018083116114e157829003601f168201915b5050505050815260200160038201805461151790612042565b80601f016020809104026020016040519081016040528092919081815260200182805461154390612042565b80156115905780601f1061156557610100808354040283529160200191611590565b820191906000526020600020905b81548152906001019060200180831161157357829003601f168201915b505050505081526020016004820154815250508152602001906001019061143e565b5050825192935060009150819050805b8381101561160957888582815181106115dd576115dd612179565b60200260200101516000015114156115f757809150600192505b80611601816121a5565b9150506115c2565b506001821515146116525760405162461bcd60e51b8152602060048201526013602482015272496e76616c696420726571756573742069642160681b6044820152606401610376565b81156116815783818151811061166a5761166a612179565b602002602001015160800151955050505050611686565b505050505b509392505050565b60008381526003602052604090205483906001600160a01b031633146116e65760405162461bcd60e51b815260206004820152600d60248201526c556e617574686f72697a65642160981b6044820152606401610376565b83836003600083815260200190815260200160002060020160405161170b9190612077565b6040518091039020816040516020016117249190612113565b60405160208183030381529060405280519060200120146117575760405162461bcd60e51b815260040161037690612150565b836040516020016117689190612113565b60408051601f19818403018152918152600088815260036020908152919020825161179c9360029092019290910190611a03565b50505050505050565b60008181526001602090815260408083206002908101548452918290529091200180546060919061088f90612042565b60008481526003602081905260408220015485906118055760405162461bcd60e51b815260040161037690612014565b60078054906000611815836121a5565b909155505060008681526003602090815260408083208884526005908101835290832080546001818101835591855293839020600754949092029091019283558201879055855161186e91600284019190880190611a03565b5083516118849060038301906020870190611a03565b50600087815260056020908152604080832080546001810182559084529282902090920188905560075491519182527f7cd6f88cec54e07d7b5a709e82d19e951e8d3a8f8e64c3982e5c2305383034b1910160405180910390a1505060075495945050505050565b60008181526003602052604090205460609082906001600160a01b031633146119475760405162461bcd60e51b815260206004820152600d60248201526c556e617574686f72697a65642160981b6044820152606401610376565b6000838152600360205260408120600201805482919061196690612042565b80601f016020809104026020016040519081016040528092919081815260200182805461199290612042565b80156119df5780601f106119b4576101008083540402835291602001916119df565b820191906000526020600020905b8154815290600101906020018083116119c257829003601f168201915b50505050508060200190518101906119f79190612360565b50935050505b50919050565b828054611a0f90612042565b90600052602060002090601f016020900481019282611a315760008555611a77565b82601f10611a4a57805160ff1916838001178555611a77565b82800160010185558215611a77579182015b82811115611a77578251825591602001919060010190611a5c565b50611a83929150611a87565b5090565b5b80821115611a835760008155600101611a88565b600060208284031215611aae57600080fd5b5035919050565b634e487b7160e01b600052604160045260246000fd5b604051601f8201601f191681016001600160401b0381118282101715611af357611af3611ab5565b604052919050565b60006001600160401b03821115611b1457611b14611ab5565b50601f01601f191660200190565b600082601f830112611b3357600080fd5b8135611b46611b4182611afb565b611acb565b818152846020838601011115611b5b57600080fd5b816020850160208301376000918101602001919091529392505050565b600080600080600060a08688031215611b9057600080fd5b8535945060208601356001600160401b03811115611bad57600080fd5b611bb988828901611b22565b959895975050505060408401359360608101359360809091013592509050565b600080600060608486031215611bee57600080fd5b8335925060208401356001600160401b0380821115611c0c57600080fd5b611c1887838801611b22565b93506040860135915080821115611c2e57600080fd5b50611c3b86828701611b22565b9150509250925092565b600060208284031215611c5757600080fd5b81356001600160a01b0381168114611c6e57600080fd5b9392505050565b60005b83811015611c90578181015183820152602001611c78565b83811115611c9f576000848401525b50505050565b60008151808452611cbd816020860160208601611c75565b601f01601f19169290920160200192915050565b602081526000611c6e6020830184611ca5565b60008060408385031215611cf757600080fd5b82356001600160401b0380821115611d0e57600080fd5b611d1a86838701611b22565b93506020850135915080821115611d3057600080fd5b50611d3d85828601611b22565b9150509250929050565b60008060408385031215611d5a57600080fd5b8235915060208301356001600160401b03811115611d7757600080fd5b611d3d85828601611b22565b60008060008060008060c08789031215611d9c57600080fd5b8635955060208701356001600160401b0380821115611dba57600080fd5b611dc68a838b01611b22565b9650604089013595506060890135915060038210611de357600080fd5b90935060808801359080821115611df957600080fd5b611e058a838b01611b22565b935060a0890135915080821115611e1b57600080fd5b50611e2889828a01611b22565b9150509295509295509295565b600080600080600080600060e0888a031215611e5057600080fd5b8735965060208801356001600160401b0380821115611e6e57600080fd5b611e7a8b838c01611b22565b975060408a0135915080821115611e9057600080fd5b611e9c8b838c01611b22565b965060608a0135915080821115611eb257600080fd5b611ebe8b838c01611b22565b955060808a0135915080821115611ed457600080fd5b611ee08b838c01611b22565b945060a08a0135915080821115611ef657600080fd5b611f028b838c01611b22565b935060c08a0135915080821115611f1857600080fd5b50611f258a828b01611b22565b91505092959891949750929550565b600080600060608486031215611f4957600080fd5b505081359360208301359350604090920135919050565b634e487b7160e01b600052602160045260246000fd5b6020810160038310611f9857634e487b7160e01b600052602160045260246000fd5b91905290565b60008060008060808587031215611fb457600080fd5b843593506020850135925060408501356001600160401b0380821115611fd957600080fd5b611fe588838901611b22565b93506060870135915080821115611ffb57600080fd5b5061200887828801611b22565b91505092959194509250565b602080825260149082015273496e76616c696420686f73706974616c2069642160601b604082015260600190565b600181811c9082168061205657607f821691505b602082108114156119fd57634e487b7160e01b600052602260045260246000fd5b600080835481600182811c91508083168061209357607f831692505b60208084108214156120b357634e487b7160e01b86526022600452602486fd5b8180156120c757600181146120d857612105565b60ff19861689528489019650612105565b60008a81526020902060005b868110156120fd5781548b8201529085019083016120e4565b505084890196505b509498975050505050505050565b6040815260006121266040830184611ca5565b828103602084015260088152671c185cdcdddbdc9960c21b60208201526040810191505092915050565b6020808252600f908201526e57726f6e672070617373776f72642160881b604082015260600190565b634e487b7160e01b600052603260045260246000fd5b634e487b7160e01b600052601160045260246000fd5b60006000198214156121b9576121b961218f565b5060010190565b6040815260006121d36040830184611ca5565b82810360208401526002815261696360f01b60208201526040810191505092915050565b60008251612209818460208701611c75565b9190910192915050565b600081518084526020808501945080840160005b8381101561224357815187529582019590820190600101612227565b509495945050505050565b600081518084526020808501808196508360051b8101915082860160005b85811015612296578284038952612284848351611ca5565b9885019893509084019060010161226c565b5091979650505050505050565b6080815260006122b66080830187612213565b82810360208401526122c88187612213565b905082810360408401526122dc818661224e565b905082810360608401526122f0818561224e565b979650505050505050565b6000821982111561230e5761230e61218f565b500190565b600082601f83011261232457600080fd5b8151612332611b4182611afb565b81815284602083860101111561234757600080fd5b612358826020830160208701611c75565b949350505050565b6000806040838503121561237357600080fd5b82516001600160401b038082111561238a57600080fd5b61239686838701612313565b935060208501519150808211156123ac57600080fd5b50611d3d8582860161231356fea2646970667358221220d0270803c478b9fb6ed3f9a0331dc07715d03fc1debc4654c03a4c0b22e02f9964736f6c634300080c0033",
  "immutableReferences": {},
  "source": "pragma solidity ^0.8.12;\npragma experimental ABIEncoderV2;\nimport \"./MedicalCert.sol\";\n\ncontract Hospital is MedicalCertificate  {\n\n    mapping(uint256 => hospital) registeredHospital; //hospital id => hospital\n    mapping(address => uint256) ids; //president => hospital id\n    mapping(uint256 => uint256[]) stakeholders; //hospital id => requested stakeholder;\n\n    uint256 totalHospital = 0;\n  \n    struct hospital {\n        address president; //owner of the hospital\n        bytes president_ic; //the identity of owner\n        bytes password; //passward needed to create MC\n        uint256 hospitalId; //id\n        mapping(bytes => address) mcs; // mc id => who create the mc\n        mapping(uint256 => Request[]) requests; //stakeholderId -> requests\n    }\n\n    struct Request {\n        uint256 reqId;\n        uint256 stakeholderId;\n        string nameAssured;\n        string icAssured;\n        uint256 mcid;\n    }\n    \n    uint256 numOfReqs = 0;\n    //mapping(uint256 => medicalCert) public MC;\n    //mapping(uint256 => personalInfo) public infos;\n\n    uint256 numOfPeople = 0;\n    //event mcCreated(uint256 numMC);\n\n    // events\n    event registered(uint256 hospitalId);\n    event createOneMC();\n    event presidentChanged();\n    event requestSolve(uint256 requestId);\n    event requestMade(uint256 reqeustId);\n    event liveRequest(uint256[] requestids,\n        uint256[] stakeholderids,\n        string[] names,\n        string[] ics);\n\n// =====================================================================================\n// modifiers\n// =====================================================================================\n\n    modifier validHospital(uint256 _hospitalId) {\n        require(registeredHospital[_hospitalId].hospitalId > 0, \"Invalid hospital id!\");\n        _;\n    }\n    modifier validIC(string memory _ic) {\n        require(bytes(_ic).length == 9, \"invalid NRIC number\");\n        _;\n    }\n\n    modifier onlyOwner(uint256 _hospitalId) {\n        require (msg.sender == registeredHospital[ _hospitalId].president, \"Unauthorized!\");\n        _;\n    }\n\n    modifier verifyPassword(uint256 _hospitalId, string memory _password) {\n        require (keccak256(abi.encode(_password,\"password\")) == keccak256(registeredHospital[ _hospitalId].password), \"Wrong password!\");\n        _;\n    }\n\n    modifier validMCId(uint256 _hospitalId, bytes memory  _mcId) {\n        require(registeredHospital[_hospitalId].mcs[_mcId] != address(0), \"Wrong hospitalId or MCId!\");\n        _;\n    }\n\n    modifier validDate(string memory s) {\n        require(bytes(s).length == 8, \"Invalid date!\");\n        _;\n    }\n    modifier validIncidentDate(string memory s) {\n        require(bytes(s).length == 12, \"Invalid date!\");\n        _;\n    }\n\n    \n    //since below function already check validity no need here\n    // modifier validRequest(uint256  _hospitalId, uint256 _stakeholderId, uint256 _requestId) {\n    //    require(registeredHospital[_hospitalId].requests[_stakeholderId] > 0, \"You didn't make request!\");\n    //     _;\n    // }\n    \n// =====================================================================================\n// functions\n// =====================================================================================\n\n     /** \n    * @dev register the hospital on chain\n    * @param NRIC president NRIC\n    * @param password password to register\n    * @return uint256 registered hospital id\n    */\n    function register(string memory NRIC, string memory password) public payable validIC(NRIC) returns(uint256) {\n        require(msg.value >= 0.01 ether, \"0.01 ETH is needed to register your hospital\");\n\n        totalHospital++;\n        hospital storage newHospital = registeredHospital[totalHospital];\n\n        newHospital.president =  msg.sender;\n        newHospital.president_ic = abi.encode(NRIC,\"ic\");\n        newHospital.password =  abi.encode(password,\"password\");\n        newHospital.hospitalId =  totalHospital;\n        \n        \n        ids[msg.sender] = totalHospital;\n        \n        emit registered(totalHospital);\n        return totalHospital;\n    }\n\n    /**\n    * @dev Create information profile for the assured person\n    * @param hospitalId hospital id\n    * @param password password for hospital\n    * @param name the name of the person who has accident\n    * @param NRIC the NRIC of the person who has accident\n    * @param sex the sexof the person who has accident\n    * @param birthdateYYYYMMDD the birthdate of the person who has accident\n    * @param race_nationality the race and nationality of the person who has accident\n    * @return uint256 number of people\n     */\n    function createPersonalInfo (uint256 hospitalId, string memory password, \n    string memory name, string memory NRIC, string memory sex, \n                string memory birthdateYYYYMMDD, string memory race_nationality) \n    public validHospital(hospitalId) verifyPassword(hospitalId,password)  validDate(birthdateYYYYMMDD)\n    override returns (uint256) {\n        numOfPeople++;\n        personalInfo storage person = infos[numOfPeople];\n        person.personId = numOfPeople;\n        person.name = name;\n        person.NRIC = NRIC;\n        person.sex = sex;\n        person.birthdate = birthdateYYYYMMDD;\n        person.race_nationality = race_nationality;\n\n        return numOfPeople;\n    }\n    /**\n    * @dev Create the medical certificate for the injured or dead person\n    * @param hospital the id of the hospital\n    * @param password password for hospital\n    * @param personId the id of the person who has accident\n    * @param incidentType0incident1death2suicide the incident type of accident where 0 is incident 1 is death and 2 is suicide\n    * @param incidentYYYYMMDDHHMM the incident date and time of the incident\n    * @param certifierName the certifier of the MC of the accident\n    * @return uint256 MC id in bytes\n     */\n    function addMC(uint256 hospital, string memory password, uint256 personId,\n    certCategory incidentType0incident1death2suicide, string memory incidentYYYYMMDDHHMM, \n    string memory certifierName\n    ) \n    public validHospital(hospital) verifyPassword(hospital,password) validIncidentDate(incidentYYYYMMDDHHMM)\n    override returns(uint256) {\n        counter = counter + 1;\n\n\n        medicalCert storage mc = MC[counter];\n        \n        mc.ID = counter;\n        mc.HospitalID = hospital;\n        mc.personal_info = personId;\n        mc.incident = incidentType0incident1death2suicide;\n        mc.dateTimeIncident = incidentYYYYMMDDHHMM;\n        mc.titleOfCertifier = certifierName;\n\n        emit mcCreated(counter);\n\n        return counter;    \n    }\n\n    /**\n    * @dev Create the medical certificate for the injured or dead person\n    * @param hospitalId the id of the hospital\n    * @param password password for hospital\n    * @param mcId the mc id of the request\n    * @param requestId the id of the request\n    * @param stakeholderId the id of the stakeholder\n     */\n    function solveRequest(uint256 hospitalId, string memory password, uint256 mcId,\n    uint256 requestId, uint256 stakeholderId) \n    public validHospital(hospitalId) verifyPassword(hospitalId,password) \n    returns(uint256)\n    {\n\n        if (requestId != 0) {\n            require(registeredHospital[hospitalId].requests[stakeholderId].length > 0, \"Not request yet!\");\n            \n            Request[] memory reqs = registeredHospital[hospitalId].requests[stakeholderId];\n            uint256 length = reqs.length;\n            bool find = false;\n            uint256 index;\n            for (uint256 i = 0; i < length; i++) {\n                if (reqs[i].reqId == requestId) {\n                    index = i;\n                    find = true;\n                }\n            }\n            \n            require(find == true, \"Invalid request id!\");\n            if (find) {\n                reqs[index].mcid = mcId;\n                emit requestSolve(requestId);\n            }\n        }        \n        \n\n    }\n\n    /** \n    * @dev stakeholder request to create MC\n    * @param hospitalId the hospital id \n    * @param stakeholderId the stakeholder Id\n    * @param nameAssured the assured person's name\n    * @param icAssured the assured person's NRIC\n    * @return uint256 number of requests\n    */\n    function requestMC(uint256 hospitalId, uint256 stakeholderId, string memory nameAssured, string memory icAssured) \n    external validHospital(hospitalId) returns(uint256) {\n        //require(stakeholderContract.getStakeholderId(msg.sender) == stakeholderId, \"Invalid stakeholder!\");\n  \n        numOfReqs++;\n        Request storage req =  registeredHospital[hospitalId].requests[stakeholderId].push();\n        req.reqId = numOfReqs;\n        req.stakeholderId = stakeholderId;\n        req.nameAssured = nameAssured;\n        req.icAssured = icAssured;\n        \n        stakeholders[hospitalId].push(stakeholderId);\n        emit requestMade(numOfReqs);\n        return numOfReqs;\n    }\n\n    // /** \n    // * @dev check requests from hospital\n    // * @param _hospitalId the hospital id \n    // * @param _password password to register\n    // */\n    function checkRequestFromHospital (uint256 hospitalId, string memory password) \n    public validHospital(hospitalId) verifyPassword(hospitalId,password) \n    {\n        uint256[] memory requestids = new uint256[](numOfReqs);\n        uint256[] memory stakeholderids = new uint256[](numOfReqs);\n        string[] memory names = new string[](numOfReqs);\n        string[]memory ics = new string[](numOfReqs);\n\n        uint256[] memory requestedstakeholders = stakeholders[hospitalId];\n\n        uint256 total_reqs = 0;\n\n        for (uint256 i = 0; i < requestedstakeholders.length; i++) {\n            uint256 stakeholderId = requestedstakeholders[i];\n            Request[] memory reqs = registeredHospital[hospitalId].requests[stakeholderId];\n            for(uint256 j = 0; j < reqs.length; j++) {\n                Request memory req = reqs[j];\n                \n                if (keccak256(abi.encodePacked(req.mcid)) != keccak256(abi.encodePacked(bytes(\"0x\")))) {\n                    requestids[total_reqs] = req.reqId;\n                    stakeholderids[total_reqs] = req.stakeholderId;\n                    names[total_reqs] = req.nameAssured;\n                    ics[total_reqs] = req.icAssured;\n                    total_reqs++;\n                }\n            }            \n        }\n\n        emit liveRequest(requestids,stakeholderids, names,ics);\n    }\n\n    // /** \n    // * @dev check mc Ids from stakeholder\n    // * @param _hospitalId hospital id\n    // * @param _requestId whether the MC is for some request\n    // * @param _stakeholderId if it's a request, what's the stakeholder id\n    // * @return  byte32 mcId\n    // */\n    function checkMCIdFromStakeholder(uint256 _hospitalId, uint256 _requestId, uint256 _stakeholderId)\n      external view validHospital(_hospitalId) //validRequest(_hospitalId, _stakeholderId,_requestId) \n      returns(uint256)\n    {\n        Request[] memory reqs = registeredHospital[_hospitalId].requests[_stakeholderId];\n        uint256 length = reqs.length;\n        bool find = false;\n        uint256 index;\n        for (uint256 i = 0; i < length; i++) {\n            if (reqs[i].reqId == _requestId) {\n                index = i;\n                find = true;\n            }\n        }\n        \n        require(find == true, \"Invalid request id!\");\n        if (find) {\n            return reqs[index].mcid;\n        }         \n    }\n    /** \n    * @dev change president of hospital\n    * @param NRIC president NRIC\n    * @param password password to register\n    * @param hospitalId hospital id\n    */\n    function changePresident(uint256 hospitalId, string memory password, string memory NRIC)\n    public verifyPassword(hospitalId,password) validIC(NRIC)\n    {\n        registeredHospital[ hospitalId].president = msg.sender;\n        registeredHospital[ hospitalId].president_ic = abi.encode(NRIC,\"ic\");\n        emit presidentChanged();\n    }\n\n    /** \n    * @dev change password of hospital\n    * @param oldpassword old password needed to change\n    * @param newpassword the new password\n    */\n    function changePassword(uint256 hospitalId, string memory oldpassword, string memory newpassword)\n    public onlyOwner(hospitalId) verifyPassword(hospitalId,oldpassword)\n    {\n        registeredHospital[ hospitalId].password = abi.encode(newpassword,\"password\");\n    }\n\n\n// =====================================================================================\n// getters\n// =====================================================================================\n    \n    /** \n    * @dev Get the hospital Id\n    * @param president president of hospital\n    * @return uint256 hospital id\n    */\n    function getHospitalId(address president) public view returns(uint256) {\n        return ids[president];\n    }\n\n    /** \n    * @dev Get the president of hospital\n    * @param hospitalId id of hospital\n    * @return address president\n    */\n    function getPresident(uint256 hospitalId) public view returns(address) {\n        return  registeredHospital[ hospitalId].president;\n    }\n\n    /** \n    * @dev Get the password of hospital\n    * @param hospitalId id of hospital\n    * @return string password\n    */\n    function getPassword(uint256 hospitalId) \n        public view \n        onlyOwner(hospitalId) \n        returns(string memory) \n    {\n        (string memory password, string memory s) = abi.decode(registeredHospital[hospitalId].password, (string,string));\n        return password;\n    }\n\n// =====================================================================================\n// archived code\n// =====================================================================================\n\n    // function getMC(uint256 _hospitalId, bytes memory  _mcId) \n    //     public view \n    //     validMCId(_hospitalId,_mcId)\n    //     returns (uint256, string memory, string memory, uint256, uint256, string memory, string memory, MedicalCertificate.certCategory, string memory, string memory, string memory, string memory, string memory)\n    // {\n    //     return medicalCert.getMC(_mcId);\n    // }\n\n//    function getMCName(uint256 id) public view returns(string memory) {\n//        return infos[MC[id].personal_info].name;\n//    }\n\n//    function getMCNRIC(uint256 id) public view returns(string memory) {\n//        return infos[MC[id].personal_info].NRIC;\n//    }\n\n//    function getMCCategory(uint256 id) public view returns(certCategory) {\n//        return MC[id].incident;\n//    }\n}",
  "sourcePath": "/Users/lhhhhhy/Downloads/IS4302/IS4302_Group12/contracts/Hospital.sol",
  "compiler": {
    "name": "solc",
    "version": "0.8.12+commit.f00d7308.Emscripten.clang"
  },
  "schemaVersion": "3.4.11",
  "updatedAt": "2023-04-11T14:29:57.412Z",
  "networkType": "ethereum",
  "devdoc": {
    "kind": "dev",
    "methods": {
      "addMC(uint256,string,uint256,uint8,string,string)": {
        "details": "Create the medical certificate for the injured or dead person",
        "params": {
          "certifierName": "the certifier of the MC of the accident",
          "hospital": "the id of the hospital",
          "incidentType0incident1death2suicide": "the incident type of accident where 0 is incident 1 is death and 2 is suicide",
          "incidentYYYYMMDDHHMM": "the incident date and time of the incident",
          "password": "password for hospital",
          "personId": "the id of the person who has accident"
        },
        "returns": {
          "_0": "uint256 MC id in bytes"
        }
      },
      "changePassword(uint256,string,string)": {
        "details": "change password of hospital",
        "params": {
          "newpassword": "the new password",
          "oldpassword": "old password needed to change"
        }
      },
      "changePresident(uint256,string,string)": {
        "details": "change president of hospital",
        "params": {
          "NRIC": "president NRIC",
          "hospitalId": "hospital id",
          "password": "password to register"
        }
      },
      "createPersonalInfo(uint256,string,string,string,string,string,string)": {
        "details": "Create information profile for the assured person",
        "params": {
          "NRIC": "the NRIC of the person who has accident",
          "birthdateYYYYMMDD": "the birthdate of the person who has accident",
          "hospitalId": "hospital id",
          "name": "the name of the person who has accident",
          "password": "password for hospital",
          "race_nationality": "the race and nationality of the person who has accident",
          "sex": "the sexof the person who has accident"
        },
        "returns": {
          "_0": "uint256 number of people"
        }
      },
      "getHospitalId(address)": {
        "details": "Get the hospital Id",
        "params": {
          "president": "president of hospital"
        },
        "returns": {
          "_0": "uint256 hospital id"
        }
      },
      "getPassword(uint256)": {
        "details": "Get the password of hospital",
        "params": {
          "hospitalId": "id of hospital"
        },
        "returns": {
          "_0": "string password"
        }
      },
      "getPresident(uint256)": {
        "details": "Get the president of hospital",
        "params": {
          "hospitalId": "id of hospital"
        },
        "returns": {
          "_0": "address president"
        }
      },
      "register(string,string)": {
        "details": "register the hospital on chain",
        "params": {
          "NRIC": "president NRIC",
          "password": "password to register"
        },
        "returns": {
          "_0": "uint256 registered hospital id"
        }
      },
      "requestMC(uint256,uint256,string,string)": {
        "details": "stakeholder request to create MC",
        "params": {
          "hospitalId": "the hospital id ",
          "icAssured": "the assured person's NRIC",
          "nameAssured": "the assured person's name",
          "stakeholderId": "the stakeholder Id"
        },
        "returns": {
          "_0": "uint256 number of requests"
        }
      },
      "solveRequest(uint256,string,uint256,uint256,uint256)": {
        "details": "Create the medical certificate for the injured or dead person",
        "params": {
          "hospitalId": "the id of the hospital",
          "mcId": "the mc id of the request",
          "password": "password for hospital",
          "requestId": "the id of the request",
          "stakeholderId": "the id of the stakeholder"
        }
      }
    },
    "version": 1
  },
  "userdoc": {
    "kind": "user",
    "methods": {},
    "version": 1
  }
}