{
  "contractName": "Hospital",
  "abi": [
    {
      "anonymous": false,
      "inputs": [],
      "name": "createOneMC",
      "type": "event"
    },
    {
      "anonymous": false,
      "inputs": [
        {
          "indexed": false,
          "internalType": "uint256[]",
          "name": "requestids",
          "type": "uint256[]"
        },
        {
          "indexed": false,
          "internalType": "uint256[]",
          "name": "stakeholderids",
          "type": "uint256[]"
        },
        {
          "indexed": false,
          "internalType": "string[]",
          "name": "names",
          "type": "string[]"
        },
        {
          "indexed": false,
          "internalType": "string[]",
          "name": "ics",
          "type": "string[]"
        }
      ],
      "name": "liveRequest",
      "type": "event"
    },
    {
      "anonymous": false,
      "inputs": [
        {
          "indexed": false,
          "internalType": "uint256",
          "name": "numMC",
          "type": "uint256"
        }
      ],
      "name": "mcCreated",
      "type": "event"
    },
    {
      "anonymous": false,
      "inputs": [],
      "name": "presidentChanged",
      "type": "event"
    },
    {
      "anonymous": false,
      "inputs": [
        {
          "indexed": false,
          "internalType": "uint256",
          "name": "hospitalId",
          "type": "uint256"
        }
      ],
      "name": "registered",
      "type": "event"
    },
    {
      "anonymous": false,
      "inputs": [
        {
          "indexed": false,
          "internalType": "uint256",
          "name": "reqeustId",
          "type": "uint256"
        }
      ],
      "name": "requestMade",
      "type": "event"
    },
    {
      "anonymous": false,
      "inputs": [
        {
          "indexed": false,
          "internalType": "uint256",
          "name": "requestId",
          "type": "uint256"
        }
      ],
      "name": "requestSolve",
      "type": "event"
    },
    {
      "inputs": [
        {
          "internalType": "uint256",
          "name": "id",
          "type": "uint256"
        }
      ],
      "name": "getMCCategory",
      "outputs": [
        {
          "internalType": "enum MedicalCertificate.certCategory",
          "name": "",
          "type": "uint8"
        }
      ],
      "stateMutability": "view",
      "type": "function",
      "constant": true
    },
    {
      "inputs": [
        {
          "internalType": "uint256",
          "name": "id",
          "type": "uint256"
        }
      ],
      "name": "getMCNRIC",
      "outputs": [
        {
          "internalType": "string",
          "name": "",
          "type": "string"
        }
      ],
      "stateMutability": "view",
      "type": "function",
      "constant": true
    },
    {
      "inputs": [
        {
          "internalType": "uint256",
          "name": "id",
          "type": "uint256"
        }
      ],
      "name": "getMCName",
      "outputs": [
        {
          "internalType": "string",
          "name": "",
          "type": "string"
        }
      ],
      "stateMutability": "view",
      "type": "function",
      "constant": true
    },
    {
      "inputs": [
        {
          "internalType": "string",
          "name": "NRIC",
          "type": "string"
        },
        {
          "internalType": "string",
          "name": "password",
          "type": "string"
        }
      ],
      "name": "register",
      "outputs": [
        {
          "internalType": "uint256",
          "name": "",
          "type": "uint256"
        }
      ],
      "stateMutability": "payable",
      "type": "function",
      "payable": true
    },
    {
      "inputs": [
        {
          "internalType": "uint256",
          "name": "hospitalId",
          "type": "uint256"
        },
        {
          "internalType": "string",
          "name": "password",
          "type": "string"
        },
        {
          "internalType": "string",
          "name": "name",
          "type": "string"
        },
        {
          "internalType": "string",
          "name": "NRIC",
          "type": "string"
        },
        {
          "internalType": "string",
          "name": "sex",
          "type": "string"
        },
        {
          "internalType": "string",
          "name": "birthdateYYYYMMDD",
          "type": "string"
        },
        {
          "internalType": "string",
          "name": "race_nationality",
          "type": "string"
        }
      ],
      "name": "createPersonalInfo",
      "outputs": [
        {
          "internalType": "uint256",
          "name": "",
          "type": "uint256"
        }
      ],
      "stateMutability": "nonpayable",
      "type": "function"
    },
    {
      "inputs": [
        {
          "internalType": "uint256",
          "name": "hospital",
          "type": "uint256"
        },
        {
          "internalType": "string",
          "name": "password",
          "type": "string"
        },
        {
          "internalType": "uint256",
          "name": "personId",
          "type": "uint256"
        },
        {
          "internalType": "enum MedicalCertificate.certCategory",
          "name": "incidentType0incident1death2suicide",
          "type": "uint8"
        },
        {
          "internalType": "string",
          "name": "incidentYYYYMMDDHHMM",
          "type": "string"
        },
        {
          "internalType": "string",
          "name": "certifierName",
          "type": "string"
        }
      ],
      "name": "addMC",
      "outputs": [
        {
          "internalType": "uint256",
          "name": "",
          "type": "uint256"
        }
      ],
      "stateMutability": "nonpayable",
      "type": "function"
    },
    {
      "inputs": [
        {
          "internalType": "uint256",
          "name": "hospitalId",
          "type": "uint256"
        },
        {
          "internalType": "string",
          "name": "password",
          "type": "string"
        },
        {
          "internalType": "uint256",
          "name": "mcId",
          "type": "uint256"
        },
        {
          "internalType": "uint256",
          "name": "requestId",
          "type": "uint256"
        },
        {
          "internalType": "uint256",
          "name": "stakeholderId",
          "type": "uint256"
        }
      ],
      "name": "solveRequest",
      "outputs": [
        {
          "internalType": "uint256",
          "name": "",
          "type": "uint256"
        }
      ],
      "stateMutability": "nonpayable",
      "type": "function"
    },
    {
      "inputs": [
        {
          "internalType": "uint256",
          "name": "hospitalId",
          "type": "uint256"
        },
        {
          "internalType": "uint256",
          "name": "stakeholderId",
          "type": "uint256"
        },
        {
          "internalType": "string",
          "name": "nameAssured",
          "type": "string"
        },
        {
          "internalType": "string",
          "name": "icAssured",
          "type": "string"
        }
      ],
      "name": "requestMC",
      "outputs": [
        {
          "internalType": "uint256",
          "name": "",
          "type": "uint256"
        }
      ],
      "stateMutability": "nonpayable",
      "type": "function"
    },
    {
      "inputs": [
        {
          "internalType": "uint256",
          "name": "hospitalId",
          "type": "uint256"
        },
        {
          "internalType": "string",
          "name": "password",
          "type": "string"
        }
      ],
      "name": "checkRequestFromHospital",
      "outputs": [],
      "stateMutability": "nonpayable",
      "type": "function"
    },
    {
      "inputs": [
        {
          "internalType": "uint256",
          "name": "_hospitalId",
          "type": "uint256"
        },
        {
          "internalType": "uint256",
          "name": "_requestId",
          "type": "uint256"
        },
        {
          "internalType": "uint256",
          "name": "_stakeholderId",
          "type": "uint256"
        }
      ],
      "name": "checkMCIdFromStakeholder",
      "outputs": [
        {
          "internalType": "uint256",
          "name": "",
          "type": "uint256"
        }
      ],
      "stateMutability": "view",
      "type": "function",
      "constant": true
    },
    {
      "inputs": [
        {
          "internalType": "uint256",
          "name": "hospitalId",
          "type": "uint256"
        },
        {
          "internalType": "string",
          "name": "password",
          "type": "string"
        },
        {
          "internalType": "string",
          "name": "NRIC",
          "type": "string"
        }
      ],
      "name": "changePresident",
      "outputs": [],
      "stateMutability": "nonpayable",
      "type": "function"
    },
    {
      "inputs": [
        {
          "internalType": "uint256",
          "name": "hospitalId",
          "type": "uint256"
        },
        {
          "internalType": "string",
          "name": "oldpassword",
          "type": "string"
        },
        {
          "internalType": "string",
          "name": "newpassword",
          "type": "string"
        }
      ],
      "name": "changePassword",
      "outputs": [],
      "stateMutability": "nonpayable",
      "type": "function"
    },
    {
      "inputs": [
        {
          "internalType": "address",
          "name": "president",
          "type": "address"
        }
      ],
      "name": "getHospitalId",
      "outputs": [
        {
          "internalType": "uint256",
          "name": "",
          "type": "uint256"
        }
      ],
      "stateMutability": "view",
      "type": "function",
      "constant": true
    },
    {
      "inputs": [
        {
          "internalType": "uint256",
          "name": "hospitalId",
          "type": "uint256"
        }
      ],
      "name": "getPresident",
      "outputs": [
        {
          "internalType": "address",
          "name": "",
          "type": "address"
        }
      ],
      "stateMutability": "view",
      "type": "function",
      "constant": true
    },
    {
      "inputs": [
        {
          "internalType": "uint256",
          "name": "hospitalId",
          "type": "uint256"
        }
      ],
      "name": "getPassword",
      "outputs": [
        {
          "internalType": "string",
          "name": "",
          "type": "string"
        }
      ],
      "stateMutability": "view",
      "type": "function",
      "constant": true
    },
    {
      "inputs": [],
      "name": "getNumOfReqs",
      "outputs": [
        {
          "internalType": "uint256",
          "name": "",
          "type": "uint256"
        }
      ],
      "stateMutability": "view",
      "type": "function",
      "constant": true
    },
    {
      "inputs": [],
      "name": "getNumOfPeople",
      "outputs": [
        {
          "internalType": "uint256",
          "name": "",
          "type": "uint256"
        }
      ],
      "stateMutability": "view",
      "type": "function",
      "constant": true
    },
    {
      "inputs": [],
      "name": "getHospitalCounter",
      "outputs": [
        {
          "internalType": "uint256",
          "name": "",
          "type": "uint256"
        }
      ],
      "stateMutability": "view",
      "type": "function",
      "constant": true
    }
  ],
  "bytecode": "0x608060405260008055600060065560006007556000600855600060095534801561002857600080fd5b50612445806100386000396000f3fe6080604052600436106101095760003560e01c80637494646011610095578063c60ef14f11610064578063c60ef14f14610311578063ca630e1f14610326578063caafc4fb14610346578063f043e74514610366578063f38c6bb61461038657600080fd5b8063749464601461027c5780639cb3d01f1461029c578063b0a3468b146102bc578063baaab57a146102d157600080fd5b8063302e1ab1116100dc578063302e1ab1146101e75780633ffbd47f14610214578063452ba7541461022757806366e918b8146102475780636f5f5fb71461026757600080fd5b806310ab25701461010e57806318c40f27146101615780631e8993d91461018f5780632a177158146101b1575b600080fd5b34801561011a57600080fd5b50610144610129366004611b12565b6000908152600360205260409020546001600160a01b031690565b6040516001600160a01b0390911681526020015b60405180910390f35b34801561016d57600080fd5b5061018161017c366004611bee565b6103a6565b604051908152602001610158565b34801561019b57600080fd5b506101af6101aa366004611c4f565b610771565b005b3480156101bd57600080fd5b506101816101cc366004611cbb565b6001600160a01b031660009081526004602052604090205490565b3480156101f357600080fd5b50610207610202366004611b12565b6108c0565b6040516101589190611d47565b610181610222366004611d5a565b610974565b34801561023357600080fd5b506101af610242366004611dbd565b610b33565b34801561025357600080fd5b50610181610262366004611df9565b6110ef565b34801561027357600080fd5b50600954610181565b34801561028857600080fd5b50610181610297366004611eab565b6112b7565b3480156102a857600080fd5b506101816102b7366004611faa565b61144d565b3480156102c857600080fd5b50600754610181565b3480156102dd57600080fd5b506103046102ec366004611b12565b60009081526001602052604090206003015460ff1690565b6040516101589190611fec565b34801561031d57600080fd5b50600854610181565b34801561033257600080fd5b506101af610341366004611c4f565b611704565b34801561035257600080fd5b50610207610361366004611b12565b61181b565b34801561037257600080fd5b50610181610381366004612014565b61184b565b34801561039257600080fd5b506102076103a1366004611b12565b611962565b60008581526003602081905260408220015486906103df5760405162461bcd60e51b81526004016103d69061208a565b60405180910390fd5b86866003600083815260200190815260200160002060020160405161040491906120ed565b60405180910390208160405160200161041d9190612189565b60405160208183030381529060405280519060200120146104505760405162461bcd60e51b81526004016103d6906121c6565b85156107655760008981526003602090815260408083208884526005019091529020546104b25760405162461bcd60e51b815260206004820152601060248201526f4e6f742072657175657374207965742160801b60448201526064016103d6565b6000898152600360209081526040808320888452600501825280832080548251818502810185019093528083529192909190849084015b8282101561065d57838290600052602060002090600502016040518060a00160405290816000820154815260200160018201548152602001600282018054610530906120b8565b80601f016020809104026020016040519081016040528092919081815260200182805461055c906120b8565b80156105a95780601f1061057e576101008083540402835291602001916105a9565b820191906000526020600020905b81548152906001019060200180831161058c57829003601f168201915b505050505081526020016003820180546105c2906120b8565b80601f01602080910402602001604051908101604052809291908181526020018280546105ee906120b8565b801561063b5780601f106106105761010080835404028352916020019161063b565b820191906000526020600020905b81548152906001019060200180831161061e57829003601f168201915b50505050508152602001600482015481525050815260200190600101906104e9565b5050825192935060009150819050805b838110156106b4578a858281518110610688576106886121ef565b60200260200101516000015114156106a257809150600192505b806106ac81612205565b91505061066d565b506001821515146106fd5760405162461bcd60e51b8152602060048201526013602482015272496e76616c696420726571756573742069642160681b60448201526064016103d6565b8115610760578a848281518110610716576107166121ef565b602002602001015160800181815250507fc01a711a994234663e49bcaf267235941ef164ac0dea30de367e8cdb0eeabd5a8a60405161075791815260200190565b60405180910390a15b505050505b50505095945050505050565b82826003600083815260200190815260200160002060020160405161079691906120ed565b6040518091039020816040516020016107af9190612189565b60405160208183030381529060405280519060200120146107e25760405162461bcd60e51b81526004016103d6906121c6565b82805160091461082a5760405162461bcd60e51b815260206004820152601360248201527234b73b30b634b210272924a190373ab6b132b960691b60448201526064016103d6565b60008681526003602090815260409182902080546001600160a01b03191633179055905161085a9186910161222e565b60408051601f19818403018152918152600088815260036020908152919020825161088e9360019092019290910190611a79565b506040517fdc5f6b9352635161a74876313a5729a4d33d34f1f65e69809e2e4275fb16be5590600090a1505050505050565b60008181526001602081815260408084206002908101548552909152909120018054606091906108ef906120b8565b80601f016020809104026020016040519081016040528092919081815260200182805461091b906120b8565b80156109685780601f1061093d57610100808354040283529160200191610968565b820191906000526020600020905b81548152906001019060200180831161094b57829003601f168201915b50505050509050919050565b60008280516009146109be5760405162461bcd60e51b815260206004820152601360248201527234b73b30b634b210272924a190373ab6b132b960691b60448201526064016103d6565b662386f26fc10000341015610a2a5760405162461bcd60e51b815260206004820152602c60248201527f302e303120455448206973206e656564656420746f207265676973746572207960448201526b1bdd5c881a1bdcdc1a5d185b60a21b60648201526084016103d6565b60068054906000610a3a83612205565b909155505060065460009081526003602090815260409182902080546001600160a01b031916331781559151610a729187910161222e565b604051602081830303815290604052816001019080519060200190610a98929190611a79565b5083604051602001610aaa9190612189565b604051602081830303815290604052816002019080519060200190610ad0929190611a79565b50600654600382018190553360009081526004602052604090819020829055517fe6cf13467d222a9bff8285bb981a618844afe23013a907fb49b2ea802d1c19e891610b1f9190815260200190565b60405180910390a150506006549392505050565b600082815260036020819052604090912001548290610b645760405162461bcd60e51b81526004016103d69061208a565b828260036000838152602001908152602001600020600201604051610b8991906120ed565b604051809103902081604051602001610ba29190612189565b6040516020818303038152906040528051906020012014610bd55760405162461bcd60e51b81526004016103d6906121c6565b60006008546001600160401b03811115610bf157610bf1611b2b565b604051908082528060200260200182016040528015610c1a578160200160208202803683370190505b50905060006008546001600160401b03811115610c3957610c39611b2b565b604051908082528060200260200182016040528015610c62578160200160208202803683370190505b50905060006008546001600160401b03811115610c8157610c81611b2b565b604051908082528060200260200182016040528015610cb457816020015b6060815260200190600190039081610c9f5790505b50905060006008546001600160401b03811115610cd357610cd3611b2b565b604051908082528060200260200182016040528015610d0657816020015b6060815260200190600190039081610cf15790505b5060008a815260056020908152604080832080548251818502810185019093528083529495509293909291830182828015610d6057602002820191906000526020600020905b815481526020019060010190808311610d4c575b505050505090506000805b82518110156110a4576000838281518110610d8857610d886121ef565b60209081029190910181015160008f8152600383526040808220838352600501845280822080548251818702810187019093528083529395509193909290849084015b82821015610f3f57838290600052602060002090600502016040518060a00160405290816000820154815260200160018201548152602001600282018054610e12906120b8565b80601f0160208091040260200160405190810160405280929190818152602001828054610e3e906120b8565b8015610e8b5780601f10610e6057610100808354040283529160200191610e8b565b820191906000526020600020905b815481529060010190602001808311610e6e57829003601f168201915b50505050508152602001600382018054610ea4906120b8565b80601f0160208091040260200160405190810160405280929190818152602001828054610ed0906120b8565b8015610f1d5780601f10610ef257610100808354040283529160200191610f1d565b820191906000526020600020905b815481529060010190602001808311610f0057829003601f168201915b5050505050815260200160048201548152505081526020019060010190610dcb565b50505050905060005b815181101561108e576000828281518110610f6557610f656121ef565b6020026020010151905060405180604001604052806002815260200161060f60f31b815250604051602001610f9a9190612265565b604051602081830303815290604052805190602001208160800151604051602001610fc791815260200190565b604051602081830303815290604052805190602001201461107b5780600001518b8781518110610ff957610ff96121ef565b60200260200101818152505080602001518a878151811061101c5761101c6121ef565b602002602001018181525050806040015189878151811061103f5761103f6121ef565b60200260200101819052508060600151888781518110611061576110616121ef565b6020026020010181905250858061107790612205565b9650505b508061108681612205565b915050610f48565b505050808061109c90612205565b915050610d6b565b507ff27964db71fbfa9cae0795251acb513d2227e5f9a4e8c35b6b5572a7267c243a868686866040516110da9493929190612311565b60405180910390a15050505050505050505050565b600086815260036020819052604082200154879061111f5760405162461bcd60e51b81526004016103d69061208a565b87876003600083815260200190815260200160002060020160405161114491906120ed565b60405180910390208160405160200161115d9190612189565b60405160208183030381529060405280519060200120146111905760405162461bcd60e51b81526004016103d6906121c6565b858051600c146111db5760405162461bcd60e51b8152602060048201526016602482015275496e76616c696420696e636964656e7420646174652160501b60448201526064016103d6565b600780549060006111eb83612205565b909155505060075460008181526001602081905260409091209182558181018d905560028083018c90556003830180548c93919260ff199091169190849081111561123857611238611fd6565b0217905550875161125290600483019060208b0190611a79565b50865161126890600583019060208a0190611a79565b507f08b2c200b5f16565b86d1596988527109771ff8ed118f330cca9ee70d6ba9a1660075460405161129c91815260200190565b60405180910390a150506007549a9950505050505050505050565b60008781526003602081905260408220015488906112e75760405162461bcd60e51b81526004016103d69061208a565b88886003600083815260200190815260200160002060020160405161130c91906120ed565b6040518091039020816040516020016113259190612189565b60405160208183030381529060405280519060200120146113585760405162461bcd60e51b81526004016103d6906121c6565b8580516008146113a05760405162461bcd60e51b8152602060048201526013602482015272496e76616c696420626972746820646174652160681b60448201526064016103d6565b600980549060006113b083612205565b909155505060095460008181526002602090815260409091209182558b516113e0916001840191908e0190611a79565b5089516113f690600283019060208d0190611a79565b50885161140c90600383019060208c0190611a79565b50875161142290600483019060208b0190611a79565b50865161143890600583019060208a0190611a79565b50506009549c9b505050505050505050505050565b600083815260036020819052604082200154849061147d5760405162461bcd60e51b81526004016103d69061208a565b6000858152600360209081526040808320868452600501825280832080548251818502810185019093528083529192909190849084015b8282101561162857838290600052602060002090600502016040518060a001604052908160008201548152602001600182015481526020016002820180546114fb906120b8565b80601f0160208091040260200160405190810160405280929190818152602001828054611527906120b8565b80156115745780601f1061154957610100808354040283529160200191611574565b820191906000526020600020905b81548152906001019060200180831161155757829003601f168201915b5050505050815260200160038201805461158d906120b8565b80601f01602080910402602001604051908101604052809291908181526020018280546115b9906120b8565b80156116065780601f106115db57610100808354040283529160200191611606565b820191906000526020600020905b8154815290600101906020018083116115e957829003601f168201915b50505050508152602001600482015481525050815260200190600101906114b4565b5050825192935060009150819050805b8381101561167f5788858281518110611653576116536121ef565b602002602001015160000151141561166d57809150600192505b8061167781612205565b915050611638565b506001821515146116c85760405162461bcd60e51b8152602060048201526013602482015272496e76616c696420726571756573742069642160681b60448201526064016103d6565b81156116f7578381815181106116e0576116e06121ef565b6020026020010151608001519550505050506116fc565b505050505b509392505050565b60008381526003602052604090205483906001600160a01b0316331461175c5760405162461bcd60e51b815260206004820152600d60248201526c556e617574686f72697a65642160981b60448201526064016103d6565b83836003600083815260200190815260200160002060020160405161178191906120ed565b60405180910390208160405160200161179a9190612189565b60405160208183030381529060405280519060200120146117cd5760405162461bcd60e51b81526004016103d6906121c6565b836040516020016117de9190612189565b60408051601f1981840301815291815260008881526003602090815291902082516118129360029092019290910190611a79565b50505050505050565b6000818152600160209081526040808320600290810154845291829052909120018054606091906108ef906120b8565b600084815260036020819052604082200154859061187b5760405162461bcd60e51b81526004016103d69061208a565b6008805490600061188b83612205565b90915550506000868152600360209081526040808320888452600590810183529083208054600181810183559185529383902060085494909202909101928355820187905585516118e491600284019190880190611a79565b5083516118fa9060038301906020870190611a79565b50600087815260056020908152604080832080546001810182559084529282902090920188905560085491519182527f7cd6f88cec54e07d7b5a709e82d19e951e8d3a8f8e64c3982e5c2305383034b1910160405180910390a1505060085495945050505050565b60008181526003602052604090205460609082906001600160a01b031633146119bd5760405162461bcd60e51b815260206004820152600d60248201526c556e617574686f72697a65642160981b60448201526064016103d6565b600083815260036020526040812060020180548291906119dc906120b8565b80601f0160208091040260200160405190810160405280929190818152602001828054611a08906120b8565b8015611a555780601f10611a2a57610100808354040283529160200191611a55565b820191906000526020600020905b815481529060010190602001808311611a3857829003601f168201915b5050505050806020019051810190611a6d91906123b6565b50935050505b50919050565b828054611a85906120b8565b90600052602060002090601f016020900481019282611aa75760008555611aed565b82601f10611ac057805160ff1916838001178555611aed565b82800160010185558215611aed579182015b82811115611aed578251825591602001919060010190611ad2565b50611af9929150611afd565b5090565b5b80821115611af95760008155600101611afe565b600060208284031215611b2457600080fd5b5035919050565b634e487b7160e01b600052604160045260246000fd5b604051601f8201601f191681016001600160401b0381118282101715611b6957611b69611b2b565b604052919050565b60006001600160401b03821115611b8a57611b8a611b2b565b50601f01601f191660200190565b600082601f830112611ba957600080fd5b8135611bbc611bb782611b71565b611b41565b818152846020838601011115611bd157600080fd5b816020850160208301376000918101602001919091529392505050565b600080600080600060a08688031215611c0657600080fd5b8535945060208601356001600160401b03811115611c2357600080fd5b611c2f88828901611b98565b959895975050505060408401359360608101359360809091013592509050565b600080600060608486031215611c6457600080fd5b8335925060208401356001600160401b0380821115611c8257600080fd5b611c8e87838801611b98565b93506040860135915080821115611ca457600080fd5b50611cb186828701611b98565b9150509250925092565b600060208284031215611ccd57600080fd5b81356001600160a01b0381168114611ce457600080fd5b9392505050565b60005b83811015611d06578181015183820152602001611cee565b83811115611d15576000848401525b50505050565b60008151808452611d33816020860160208601611ceb565b601f01601f19169290920160200192915050565b602081526000611ce46020830184611d1b565b60008060408385031215611d6d57600080fd5b82356001600160401b0380821115611d8457600080fd5b611d9086838701611b98565b93506020850135915080821115611da657600080fd5b50611db385828601611b98565b9150509250929050565b60008060408385031215611dd057600080fd5b8235915060208301356001600160401b03811115611ded57600080fd5b611db385828601611b98565b60008060008060008060c08789031215611e1257600080fd5b8635955060208701356001600160401b0380821115611e3057600080fd5b611e3c8a838b01611b98565b9650604089013595506060890135915060038210611e5957600080fd5b90935060808801359080821115611e6f57600080fd5b611e7b8a838b01611b98565b935060a0890135915080821115611e9157600080fd5b50611e9e89828a01611b98565b9150509295509295509295565b600080600080600080600060e0888a031215611ec657600080fd5b8735965060208801356001600160401b0380821115611ee457600080fd5b611ef08b838c01611b98565b975060408a0135915080821115611f0657600080fd5b611f128b838c01611b98565b965060608a0135915080821115611f2857600080fd5b611f348b838c01611b98565b955060808a0135915080821115611f4a57600080fd5b611f568b838c01611b98565b945060a08a0135915080821115611f6c57600080fd5b611f788b838c01611b98565b935060c08a0135915080821115611f8e57600080fd5b50611f9b8a828b01611b98565b91505092959891949750929550565b600080600060608486031215611fbf57600080fd5b505081359360208301359350604090920135919050565b634e487b7160e01b600052602160045260246000fd5b602081016003831061200e57634e487b7160e01b600052602160045260246000fd5b91905290565b6000806000806080858703121561202a57600080fd5b843593506020850135925060408501356001600160401b038082111561204f57600080fd5b61205b88838901611b98565b9350606087013591508082111561207157600080fd5b5061207e87828801611b98565b91505092959194509250565b602080825260149082015273496e76616c696420686f73706974616c2069642160601b604082015260600190565b600181811c908216806120cc57607f821691505b60208210811415611a7357634e487b7160e01b600052602260045260246000fd5b600080835481600182811c91508083168061210957607f831692505b602080841082141561212957634e487b7160e01b86526022600452602486fd5b81801561213d576001811461214e5761217b565b60ff1986168952848901965061217b565b60008a81526020902060005b868110156121735781548b82015290850190830161215a565b505084890196505b509498975050505050505050565b60408152600061219c6040830184611d1b565b828103602084015260088152671c185cdcdddbdc9960c21b60208201526040810191505092915050565b6020808252600f908201526e57726f6e672070617373776f72642160881b604082015260600190565b634e487b7160e01b600052603260045260246000fd5b600060001982141561222757634e487b7160e01b600052601160045260246000fd5b5060010190565b6040815260006122416040830184611d1b565b82810360208401526002815261696360f01b60208201526040810191505092915050565b60008251612277818460208701611ceb565b9190910192915050565b600081518084526020808501945080840160005b838110156122b157815187529582019590820190600101612295565b509495945050505050565b600081518084526020808501808196508360051b8101915082860160005b858110156123045782840389526122f2848351611d1b565b988501989350908401906001016122da565b5091979650505050505050565b6080815260006123246080830187612281565b82810360208401526123368187612281565b9050828103604084015261234a81866122bc565b9050828103606084015261235e81856122bc565b979650505050505050565b600082601f83011261237a57600080fd5b8151612388611bb782611b71565b81815284602083860101111561239d57600080fd5b6123ae826020830160208701611ceb565b949350505050565b600080604083850312156123c957600080fd5b82516001600160401b03808211156123e057600080fd5b6123ec86838701612369565b9350602085015191508082111561240257600080fd5b50611db38582860161236956fea26469706673582212208778883e18bd00266f44c9e7313e2cf2d273d9c81aa3cb25366391a7a014ed7964736f6c634300080c0033",
  "immutableReferences": {},
  "source": "pragma solidity ^0.8.12;\npragma experimental ABIEncoderV2;\nimport \"./MedicalCert.sol\";\n\ncontract Hospital is MedicalCertificate  {\n\n    mapping(uint256 => hospital) registeredHospital; //hospital id => hospital\n    mapping(address => uint256) ids; //president => hospital id\n    mapping(uint256 => uint256[]) stakeholders; //hospital id => requested stakeholder;\n\n    uint256 totalHospital = 0;\n  \n    struct hospital {\n        address president; //owner of the hospital\n        bytes president_ic; //the identity of owner\n        bytes password; //passward needed to create MC\n        uint256 hospitalId; //id\n        mapping(bytes => address) mcs; // mc id => who create the mc\n        mapping(uint256 => Request[]) requests; //stakeholderId -> requests\n    }\n\n    struct Request {\n        uint256 reqId;\n        uint256 stakeholderId;\n        string nameAssured;\n        string icAssured;\n        uint256 mcid;\n    }\n    \n    uint256 hospitalCounter = 0;\n    uint256 numOfReqs = 0;\n\n    //mapping(uint256 => medicalCert) public MC;\n    //mapping(uint256 => personalInfo) public infos;\n\n    uint256 numOfPeople = 0;\n    //event mcCreated(uint256 numMC);\n\n    // events\n    event registered(uint256 hospitalId);\n    event createOneMC();\n    event presidentChanged();\n    event requestSolve(uint256 requestId);\n    event requestMade(uint256 reqeustId);\n    event liveRequest(uint256[] requestids,\n        uint256[] stakeholderids,\n        string[] names,\n        string[] ics);\n\n// =====================================================================================\n// modifiers\n// =====================================================================================\n\n    modifier validHospital(uint256 _hospitalId) {\n        require(registeredHospital[_hospitalId].hospitalId > 0, \"Invalid hospital id!\");\n        _;\n    }\n    modifier validIC(string memory _ic) {\n        require(bytes(_ic).length == 9, \"invalid NRIC number\");\n        _;\n    }\n\n    modifier onlyOwner(uint256 _hospitalId) {\n        require (msg.sender == registeredHospital[ _hospitalId].president, \"Unauthorized!\");\n        _;\n    }\n\n    modifier verifyPassword(uint256 _hospitalId, string memory _password) {\n        require (keccak256(abi.encode(_password,\"password\")) == keccak256(registeredHospital[ _hospitalId].password), \"Wrong password!\");\n        _;\n    }\n\n    modifier validMCId(uint256 _hospitalId, bytes memory  _mcId) {\n        require(registeredHospital[_hospitalId].mcs[_mcId] != address(0), \"Wrong hospitalId or MCId!\");\n        _;\n    }\n\n    modifier validDate(string memory s) {\n        require(bytes(s).length == 8, \"Invalid birth date!\");\n        _;\n    }\n    modifier validIncidentDate(string memory s) {\n        require(bytes(s).length == 12, \"Invalid incident date!\");\n        _;\n    }\n\n    \n    //since below function already check validity no need here\n    // modifier validRequest(uint256  _hospitalId, uint256 _stakeholderId, uint256 _requestId) {\n    //    require(registeredHospital[_hospitalId].requests[_stakeholderId] > 0, \"You didn't make request!\");\n    //     _;\n    // }\n    \n// =====================================================================================\n// functions\n// =====================================================================================\n\n     /** \n    * @dev register the hospital on chain\n    * @param NRIC president NRIC\n    * @param password password to register\n    * @return uint256 registered hospital id\n    */\n    function register(string memory NRIC, string memory password) public payable validIC(NRIC) returns(uint256) {\n        require(msg.value >= 0.01 ether, \"0.01 ETH is needed to register your hospital\");\n\n        totalHospital++;\n        hospital storage newHospital = registeredHospital[totalHospital];\n\n        newHospital.president =  msg.sender;\n        newHospital.president_ic = abi.encode(NRIC,\"ic\");\n        newHospital.password =  abi.encode(password,\"password\");\n        newHospital.hospitalId =  totalHospital;\n        \n        \n        ids[msg.sender] = totalHospital;\n        \n        emit registered(totalHospital);\n        return totalHospital;\n    }\n\n    /**\n    * @dev Create information profile for the assured person\n    * @param hospitalId hospital id\n    * @param password password for hospital\n    * @param name the name of the person who has accident\n    * @param NRIC the NRIC of the person who has accident\n    * @param sex the sexof the person who has accident\n    * @param birthdateYYYYMMDD the birthdate of the person who has accident\n    * @param race_nationality the race and nationality of the person who has accident\n    * @return uint256 number of people\n     */\n    function createPersonalInfo (uint256 hospitalId, string memory password, \n    string memory name, string memory NRIC, string memory sex, \n                string memory birthdateYYYYMMDD, string memory race_nationality) \n    public validHospital(hospitalId) verifyPassword(hospitalId,password)  validDate(birthdateYYYYMMDD)\n    override returns (uint256) {\n        numOfPeople++;\n        personalInfo storage person = infos[numOfPeople];\n        person.personId = numOfPeople;\n        person.name = name;\n        person.NRIC = NRIC;\n        person.sex = sex;\n        person.birthdate = birthdateYYYYMMDD;\n        person.race_nationality = race_nationality;\n\n        return numOfPeople;\n    }\n    /**\n    * @dev Create the medical certificate for the injured or dead person\n    * @param hospital the id of the hospital\n    * @param password password for hospital\n    * @param personId the id of the person who has accident\n    * @param incidentType0incident1death2suicide the incident type of accident where 0 is incident 1 is death and 2 is suicide\n    * @param incidentYYYYMMDDHHMM the incident date and time of the incident\n    * @param certifierName the certifier of the MC of the accident\n    * @return uint256 MC id in bytes\n     */\n    function addMC(uint256 hospital, string memory password, uint256 personId,\n    certCategory incidentType0incident1death2suicide, string memory incidentYYYYMMDDHHMM, \n    string memory certifierName\n    ) \n    public validHospital(hospital) verifyPassword(hospital,password) validIncidentDate(incidentYYYYMMDDHHMM)\n    override returns(uint256) {\n        hospitalCounter++;\n\n        medicalCert storage mc = MC[hospitalCounter];\n        \n        mc.ID = hospitalCounter;\n        mc.HospitalID = hospital;\n        mc.personal_info = personId;\n        mc.incident = incidentType0incident1death2suicide;\n        mc.dateTimeIncident = incidentYYYYMMDDHHMM;\n        mc.titleOfCertifier = certifierName;\n\n        emit mcCreated(hospitalCounter);\n\n        return hospitalCounter;    \n    }\n\n    /**\n    * @dev Create the medical certificate for the injured or dead person\n    * @param hospitalId the id of the hospital\n    * @param password password for hospital\n    * @param mcId the mc id of the request\n    * @param requestId the id of the request\n    * @param stakeholderId the id of the stakeholder\n     */\n    function solveRequest(uint256 hospitalId, string memory password, uint256 mcId,\n    uint256 requestId, uint256 stakeholderId) \n    public validHospital(hospitalId) verifyPassword(hospitalId,password) \n    returns(uint256)\n    {\n\n        if (requestId != 0) {\n            require(registeredHospital[hospitalId].requests[stakeholderId].length > 0, \"Not request yet!\");\n            \n            Request[] memory reqs = registeredHospital[hospitalId].requests[stakeholderId];\n            uint256 length = reqs.length;\n            bool find = false;\n            uint256 index;\n            for (uint256 i = 0; i < length; i++) {\n                if (reqs[i].reqId == requestId) {\n                    index = i;\n                    find = true;\n                }\n            }\n            \n            require(find == true, \"Invalid request id!\");\n            if (find) {\n                reqs[index].mcid = mcId;\n                emit requestSolve(requestId);\n            }\n        }        \n        \n\n    }\n\n    /** \n    * @dev stakeholder request to create MC\n    * @param hospitalId the hospital id \n    * @param stakeholderId the stakeholder Id\n    * @param nameAssured the assured person's name\n    * @param icAssured the assured person's NRIC\n    * @return uint256 number of requests\n    */\n    function requestMC(uint256 hospitalId, uint256 stakeholderId, string memory nameAssured, string memory icAssured) \n    external validHospital(hospitalId) returns(uint256) {\n        //require(stakeholderContract.getStakeholderId(msg.sender) == stakeholderId, \"Invalid stakeholder!\");\n  \n        numOfReqs++;\n        Request storage req =  registeredHospital[hospitalId].requests[stakeholderId].push();\n        req.reqId = numOfReqs;\n        req.stakeholderId = stakeholderId;\n        req.nameAssured = nameAssured;\n        req.icAssured = icAssured;\n        \n        stakeholders[hospitalId].push(stakeholderId);\n        emit requestMade(numOfReqs);\n        return numOfReqs;\n    }\n\n    /** \n    * @dev check requests from hospital\n    * @param hospitalId the hospital id \n    * @param password password to register\n    */\n    function checkRequestFromHospital (uint256 hospitalId, string memory password) \n    public validHospital(hospitalId) verifyPassword(hospitalId,password) \n    {\n        uint256[] memory requestids = new uint256[](numOfReqs);\n        uint256[] memory stakeholderids = new uint256[](numOfReqs);\n        string[] memory names = new string[](numOfReqs);\n        string[]memory ics = new string[](numOfReqs);\n\n        uint256[] memory requestedstakeholders = stakeholders[hospitalId];\n\n        uint256 total_reqs = 0;\n\n        for (uint256 i = 0; i < requestedstakeholders.length; i++) {\n            uint256 stakeholderId = requestedstakeholders[i];\n            Request[] memory reqs = registeredHospital[hospitalId].requests[stakeholderId];\n            for(uint256 j = 0; j < reqs.length; j++) {\n                Request memory req = reqs[j];\n                \n                if (keccak256(abi.encodePacked(req.mcid)) != keccak256(abi.encodePacked(bytes(\"0x\")))) {\n                    requestids[total_reqs] = req.reqId;\n                    stakeholderids[total_reqs] = req.stakeholderId;\n                    names[total_reqs] = req.nameAssured;\n                    ics[total_reqs] = req.icAssured;\n                    total_reqs++;\n                }\n            }            \n        }\n\n        emit liveRequest(requestids,stakeholderids, names,ics);\n    }\n\n    /** \n    * @dev check mc Ids from stakeholder\n    * @param _hospitalId hospital id\n    * @param _requestId whether the MC is for some request\n    * @param _stakeholderId if it's a request, what's the stakeholder id\n    * @return uint256 mcId\n    */\n    function checkMCIdFromStakeholder(uint256 _hospitalId, uint256 _requestId, uint256 _stakeholderId)\n      external view validHospital(_hospitalId) //validRequest(_hospitalId, _stakeholderId,_requestId) \n      returns(uint256)\n    {\n        Request[] memory reqs = registeredHospital[_hospitalId].requests[_stakeholderId];\n        uint256 length = reqs.length;\n        bool find = false;\n        uint256 index;\n        for (uint256 i = 0; i < length; i++) {\n            if (reqs[i].reqId == _requestId) {\n                index = i;\n                find = true;\n            }\n        }\n        \n        require(find == true, \"Invalid request id!\");\n        if (find) {\n            return reqs[index].mcid;\n        }         \n    }\n    \n    /** \n    * @dev change president of hospital\n    * @param NRIC president NRIC\n    * @param password password to register\n    * @param hospitalId hospital id\n    */\n    function changePresident(uint256 hospitalId, string memory password, string memory NRIC)\n    public verifyPassword(hospitalId,password) validIC(NRIC)\n    {\n        registeredHospital[ hospitalId].president = msg.sender;\n        registeredHospital[ hospitalId].president_ic = abi.encode(NRIC,\"ic\");\n        emit presidentChanged();\n    }\n\n    /** \n    * @dev change password of hospital\n    * @param oldpassword old password needed to change\n    * @param newpassword the new password\n    */\n    function changePassword(uint256 hospitalId, string memory oldpassword, string memory newpassword)\n    public onlyOwner(hospitalId) verifyPassword(hospitalId,oldpassword)\n    {\n        registeredHospital[ hospitalId].password = abi.encode(newpassword,\"password\");\n    }\n\n\n// =====================================================================================\n// getters\n// =====================================================================================\n    \n    /** \n    * @dev Get the hospital Id\n    * @param president president of hospital\n    * @return uint256 hospital id\n    */\n    function getHospitalId(address president) public view returns(uint256) {\n        return ids[president];\n    }\n\n    /** \n    * @dev Get the president of hospital\n    * @param hospitalId id of hospital\n    * @return address president\n    */\n    function getPresident(uint256 hospitalId) public view returns(address) {\n        return  registeredHospital[ hospitalId].president;\n    }\n\n    /** \n    * @dev Get the password of hospital\n    * @param hospitalId id of hospital\n    * @return string password\n    */\n    function getPassword(uint256 hospitalId) \n        public view \n        onlyOwner(hospitalId) \n        returns(string memory) \n    {\n        (string memory password, string memory s) = abi.decode(registeredHospital[hospitalId].password, (string,string));\n        return password;\n    }\n\n    /** \n    * @dev Get number of requests\n    * @return uint256 number of requests\n    */\n    function getNumOfReqs() public view returns(uint256) {\n        return numOfReqs;\n    }\n\n    /** \n    * @dev Get number of people\n    * @return uint256 number of people\n    */\n    function getNumOfPeople() public view returns(uint256) {\n        return numOfPeople;\n    }\n\n    /** \n    * @dev Get number of hospital\n    * @return uint256 number of hospital\n    */\n    function getHospitalCounter() public view returns(uint256) {\n        return hospitalCounter;\n    }\n\n// =====================================================================================\n// archived code\n// =====================================================================================\n\n    // function getMC(uint256 _hospitalId, bytes memory  _mcId) \n    //     public view \n    //     validMCId(_hospitalId,_mcId)\n    //     returns (uint256, string memory, string memory, uint256, uint256, string memory, string memory, MedicalCertificate.certCategory, string memory, string memory, string memory, string memory, string memory)\n    // {\n    //     return medicalCert.getMC(_mcId);\n    // }\n\n//    function getMCName(uint256 id) public view returns(string memory) {\n//        return infos[MC[id].personal_info].name;\n//    }\n\n//    function getMCNRIC(uint256 id) public view returns(string memory) {\n//        return infos[MC[id].personal_info].NRIC;\n//    }\n\n//    function getMCCategory(uint256 id) public view returns(certCategory) {\n//        return MC[id].incident;\n//    }\n}",
  "sourcePath": "/Users/yco/Desktop/IS4302/IS4302_Group12/contracts/Hospital.sol",
  "compiler": {
    "name": "solc",
    "version": "0.8.12+commit.f00d7308.Emscripten.clang"
  },
  "schemaVersion": "3.4.11",
  "updatedAt": "2023-04-13T00:18:24.236Z",
  "networkType": "ethereum",
  "devdoc": {
    "kind": "dev",
    "methods": {
      "addMC(uint256,string,uint256,uint8,string,string)": {
        "details": "Create the medical certificate for the injured or dead person",
        "params": {
          "certifierName": "the certifier of the MC of the accident",
          "hospital": "the id of the hospital",
          "incidentType0incident1death2suicide": "the incident type of accident where 0 is incident 1 is death and 2 is suicide",
          "incidentYYYYMMDDHHMM": "the incident date and time of the incident",
          "password": "password for hospital",
          "personId": "the id of the person who has accident"
        },
        "returns": {
          "_0": "uint256 MC id in bytes"
        }
      },
      "changePassword(uint256,string,string)": {
        "details": "change password of hospital",
        "params": {
          "newpassword": "the new password",
          "oldpassword": "old password needed to change"
        }
      },
      "changePresident(uint256,string,string)": {
        "details": "change president of hospital",
        "params": {
          "NRIC": "president NRIC",
          "hospitalId": "hospital id",
          "password": "password to register"
        }
      },
      "checkMCIdFromStakeholder(uint256,uint256,uint256)": {
        "details": "check mc Ids from stakeholder",
        "params": {
          "_hospitalId": "hospital id",
          "_requestId": "whether the MC is for some request",
          "_stakeholderId": "if it's a request, what's the stakeholder id"
        },
        "returns": {
          "_0": "uint256 mcId"
        }
      },
      "checkRequestFromHospital(uint256,string)": {
        "details": "check requests from hospital",
        "params": {
          "hospitalId": "the hospital id ",
          "password": "password to register"
        }
      },
      "createPersonalInfo(uint256,string,string,string,string,string,string)": {
        "details": "Create information profile for the assured person",
        "params": {
          "NRIC": "the NRIC of the person who has accident",
          "birthdateYYYYMMDD": "the birthdate of the person who has accident",
          "hospitalId": "hospital id",
          "name": "the name of the person who has accident",
          "password": "password for hospital",
          "race_nationality": "the race and nationality of the person who has accident",
          "sex": "the sexof the person who has accident"
        },
        "returns": {
          "_0": "uint256 number of people"
        }
      },
      "getHospitalCounter()": {
        "details": "Get number of hospital",
        "returns": {
          "_0": "uint256 number of hospital"
        }
      },
      "getHospitalId(address)": {
        "details": "Get the hospital Id",
        "params": {
          "president": "president of hospital"
        },
        "returns": {
          "_0": "uint256 hospital id"
        }
      },
      "getNumOfPeople()": {
        "details": "Get number of people",
        "returns": {
          "_0": "uint256 number of people"
        }
      },
      "getNumOfReqs()": {
        "details": "Get number of requests",
        "returns": {
          "_0": "uint256 number of requests"
        }
      },
      "getPassword(uint256)": {
        "details": "Get the password of hospital",
        "params": {
          "hospitalId": "id of hospital"
        },
        "returns": {
          "_0": "string password"
        }
      },
      "getPresident(uint256)": {
        "details": "Get the president of hospital",
        "params": {
          "hospitalId": "id of hospital"
        },
        "returns": {
          "_0": "address president"
        }
      },
      "register(string,string)": {
        "details": "register the hospital on chain",
        "params": {
          "NRIC": "president NRIC",
          "password": "password to register"
        },
        "returns": {
          "_0": "uint256 registered hospital id"
        }
      },
      "requestMC(uint256,uint256,string,string)": {
        "details": "stakeholder request to create MC",
        "params": {
          "hospitalId": "the hospital id ",
          "icAssured": "the assured person's NRIC",
          "nameAssured": "the assured person's name",
          "stakeholderId": "the stakeholder Id"
        },
        "returns": {
          "_0": "uint256 number of requests"
        }
      },
      "solveRequest(uint256,string,uint256,uint256,uint256)": {
        "details": "Create the medical certificate for the injured or dead person",
        "params": {
          "hospitalId": "the id of the hospital",
          "mcId": "the mc id of the request",
          "password": "password for hospital",
          "requestId": "the id of the request",
          "stakeholderId": "the id of the stakeholder"
        }
      }
    },
    "version": 1
  },
  "userdoc": {
    "kind": "user",
    "methods": {},
    "version": 1
  }
}