{
  "contractName": "InsuranceCompany",
  "abi": [
    {
      "inputs": [
        {
          "internalType": "contract Hospital",
          "name": "hospitalInstanceAddress",
          "type": "address"
        },
        {
          "internalType": "contract TrustInsure",
          "name": "trustinsureInstanceAddress",
          "type": "address"
        }
      ],
      "stateMutability": "nonpayable",
      "type": "constructor"
    },
    {
      "anonymous": false,
      "inputs": [
        {
          "indexed": false,
          "internalType": "uint256",
          "name": "insuranceID",
          "type": "uint256"
        }
      ],
      "name": "allPaid",
      "type": "event"
    },
    {
      "anonymous": false,
      "inputs": [
        {
          "indexed": false,
          "internalType": "uint256[]",
          "name": "requestids",
          "type": "uint256[]"
        },
        {
          "indexed": false,
          "internalType": "uint256[]",
          "name": "buyerids",
          "type": "uint256[]"
        },
        {
          "indexed": false,
          "internalType": "string[]",
          "name": "buyercontacts",
          "type": "string[]"
        },
        {
          "indexed": false,
          "internalType": "string[]",
          "name": "producttypes",
          "type": "string[]"
        }
      ],
      "name": "allRequests",
      "type": "event"
    },
    {
      "anonymous": false,
      "inputs": [
        {
          "indexed": false,
          "internalType": "uint256",
          "name": "insuranceID",
          "type": "uint256"
        }
      ],
      "name": "askingCert",
      "type": "event"
    },
    {
      "anonymous": false,
      "inputs": [
        {
          "indexed": false,
          "internalType": "enum InsuranceCompany.requestStatus",
          "name": "status",
          "type": "uint8"
        }
      ],
      "name": "checkRequest",
      "type": "event"
    },
    {
      "anonymous": false,
      "inputs": [
        {
          "indexed": false,
          "internalType": "uint256",
          "name": "insuranceID",
          "type": "uint256"
        },
        {
          "indexed": false,
          "internalType": "uint256",
          "name": "mcId",
          "type": "uint256"
        }
      ],
      "name": "claimingFromComp",
      "type": "event"
    },
    {
      "anonymous": false,
      "inputs": [
        {
          "indexed": false,
          "internalType": "uint256",
          "name": "insuranceId",
          "type": "uint256"
        }
      ],
      "name": "create",
      "type": "event"
    },
    {
      "anonymous": false,
      "inputs": [
        {
          "indexed": false,
          "internalType": "uint256",
          "name": "requestId",
          "type": "uint256"
        }
      ],
      "name": "requestReject",
      "type": "event"
    },
    {
      "anonymous": false,
      "inputs": [
        {
          "indexed": false,
          "internalType": "uint256",
          "name": "requestId",
          "type": "uint256"
        },
        {
          "indexed": false,
          "internalType": "uint256",
          "name": "insuranceId",
          "type": "uint256"
        }
      ],
      "name": "requestSolve",
      "type": "event"
    },
    {
      "anonymous": false,
      "inputs": [
        {
          "indexed": false,
          "internalType": "address",
          "name": "beneficiary",
          "type": "address"
        },
        {
          "indexed": false,
          "internalType": "uint256",
          "name": "amount",
          "type": "uint256"
        }
      ],
      "name": "transfer",
      "type": "event"
    },
    {
      "inputs": [
        {
          "internalType": "uint256",
          "name": "",
          "type": "uint256"
        }
      ],
      "name": "companies",
      "outputs": [
        {
          "internalType": "uint256",
          "name": "companyId",
          "type": "uint256"
        },
        {
          "internalType": "uint256",
          "name": "credit",
          "type": "uint256"
        },
        {
          "internalType": "string",
          "name": "name",
          "type": "string"
        },
        {
          "internalType": "address",
          "name": "owner",
          "type": "address"
        },
        {
          "internalType": "uint256",
          "name": "completed",
          "type": "uint256"
        }
      ],
      "stateMutability": "view",
      "type": "function",
      "constant": true
    },
    {
      "inputs": [
        {
          "internalType": "uint256",
          "name": "insuranceId",
          "type": "uint256"
        }
      ],
      "name": "getBeneficiary",
      "outputs": [
        {
          "internalType": "uint256",
          "name": "",
          "type": "uint256"
        }
      ],
      "stateMutability": "view",
      "type": "function",
      "constant": true
    },
    {
      "inputs": [
        {
          "internalType": "uint256",
          "name": "insuranceId",
          "type": "uint256"
        }
      ],
      "name": "getExpiryDate",
      "outputs": [
        {
          "internalType": "uint256",
          "name": "",
          "type": "uint256"
        }
      ],
      "stateMutability": "view",
      "type": "function",
      "constant": true
    },
    {
      "inputs": [
        {
          "internalType": "uint256",
          "name": "insuranceId",
          "type": "uint256"
        }
      ],
      "name": "getInsurance",
      "outputs": [
        {
          "components": [
            {
              "internalType": "uint256",
              "name": "ID",
              "type": "uint256"
            },
            {
              "internalType": "uint256",
              "name": "companyId",
              "type": "uint256"
            },
            {
              "internalType": "uint256",
              "name": "stakeholders",
              "type": "uint256"
            },
            {
              "internalType": "uint256",
              "name": "premium",
              "type": "uint256"
            },
            {
              "internalType": "uint256",
              "name": "insuredAmount",
              "type": "uint256"
            },
            {
              "internalType": "uint256",
              "name": "currentAmount",
              "type": "uint256"
            },
            {
              "internalType": "enum Insurance.insuranceType",
              "name": "insType",
              "type": "uint8"
            },
            {
              "internalType": "enum Insurance.status",
              "name": "status",
              "type": "uint8"
            },
            {
              "internalType": "uint256",
              "name": "issueDate",
              "type": "uint256"
            },
            {
              "internalType": "uint256",
              "name": "expiryDate",
              "type": "uint256"
            }
          ],
          "internalType": "struct Insurance.insurance",
          "name": "",
          "type": "tuple"
        }
      ],
      "stateMutability": "view",
      "type": "function",
      "constant": true
    },
    {
      "inputs": [
        {
          "internalType": "uint256",
          "name": "insuranceId",
          "type": "uint256"
        }
      ],
      "name": "getInsuranceCompany",
      "outputs": [
        {
          "internalType": "uint256",
          "name": "",
          "type": "uint256"
        }
      ],
      "stateMutability": "view",
      "type": "function",
      "constant": true
    },
    {
      "inputs": [
        {
          "internalType": "uint256",
          "name": "insuranceId",
          "type": "uint256"
        }
      ],
      "name": "getInsuredAmount",
      "outputs": [
        {
          "internalType": "uint256",
          "name": "",
          "type": "uint256"
        }
      ],
      "stateMutability": "view",
      "type": "function",
      "constant": true
    },
    {
      "inputs": [
        {
          "internalType": "uint256",
          "name": "insuranceId",
          "type": "uint256"
        }
      ],
      "name": "getIssueDate",
      "outputs": [
        {
          "internalType": "uint256",
          "name": "",
          "type": "uint256"
        }
      ],
      "stateMutability": "view",
      "type": "function",
      "constant": true
    },
    {
      "inputs": [
        {
          "internalType": "uint256",
          "name": "stakeholderinfoId",
          "type": "uint256"
        }
      ],
      "name": "getPolicyOwner",
      "outputs": [
        {
          "internalType": "uint256",
          "name": "",
          "type": "uint256"
        }
      ],
      "stateMutability": "view",
      "type": "function",
      "constant": true
    },
    {
      "inputs": [
        {
          "internalType": "uint256",
          "name": "insuranceId",
          "type": "uint256"
        }
      ],
      "name": "getRestAmount",
      "outputs": [
        {
          "internalType": "uint256",
          "name": "",
          "type": "uint256"
        }
      ],
      "stateMutability": "view",
      "type": "function",
      "constant": true
    },
    {
      "inputs": [
        {
          "internalType": "uint256",
          "name": "insuranceId",
          "type": "uint256"
        }
      ],
      "name": "getStatus",
      "outputs": [
        {
          "internalType": "enum Insurance.status",
          "name": "",
          "type": "uint8"
        }
      ],
      "stateMutability": "view",
      "type": "function",
      "constant": true
    },
    {
      "inputs": [
        {
          "internalType": "address",
          "name": "",
          "type": "address"
        }
      ],
      "name": "ids",
      "outputs": [
        {
          "internalType": "uint256",
          "name": "",
          "type": "uint256"
        }
      ],
      "stateMutability": "view",
      "type": "function",
      "constant": true
    },
    {
      "inputs": [
        {
          "internalType": "uint256",
          "name": "",
          "type": "uint256"
        }
      ],
      "name": "insurances",
      "outputs": [
        {
          "internalType": "uint256",
          "name": "ID",
          "type": "uint256"
        },
        {
          "internalType": "uint256",
          "name": "companyId",
          "type": "uint256"
        },
        {
          "internalType": "uint256",
          "name": "stakeholders",
          "type": "uint256"
        },
        {
          "internalType": "uint256",
          "name": "premium",
          "type": "uint256"
        },
        {
          "internalType": "uint256",
          "name": "insuredAmount",
          "type": "uint256"
        },
        {
          "internalType": "uint256",
          "name": "currentAmount",
          "type": "uint256"
        },
        {
          "internalType": "enum Insurance.insuranceType",
          "name": "insType",
          "type": "uint8"
        },
        {
          "internalType": "enum Insurance.status",
          "name": "status",
          "type": "uint8"
        },
        {
          "internalType": "uint256",
          "name": "issueDate",
          "type": "uint256"
        },
        {
          "internalType": "uint256",
          "name": "expiryDate",
          "type": "uint256"
        }
      ],
      "stateMutability": "view",
      "type": "function",
      "constant": true
    },
    {
      "inputs": [],
      "name": "numInsurance",
      "outputs": [
        {
          "internalType": "uint256",
          "name": "",
          "type": "uint256"
        }
      ],
      "stateMutability": "view",
      "type": "function",
      "constant": true
    },
    {
      "inputs": [],
      "name": "numStakeholder",
      "outputs": [
        {
          "internalType": "uint256",
          "name": "",
          "type": "uint256"
        }
      ],
      "stateMutability": "view",
      "type": "function",
      "constant": true
    },
    {
      "inputs": [
        {
          "internalType": "uint256",
          "name": "newBeneficiary",
          "type": "uint256"
        },
        {
          "internalType": "uint256",
          "name": "insuranceId",
          "type": "uint256"
        }
      ],
      "name": "setBeneficiary",
      "outputs": [],
      "stateMutability": "nonpayable",
      "type": "function"
    },
    {
      "inputs": [
        {
          "internalType": "uint256",
          "name": "date",
          "type": "uint256"
        },
        {
          "internalType": "uint256",
          "name": "insuranceId",
          "type": "uint256"
        }
      ],
      "name": "setExpiryDate",
      "outputs": [],
      "stateMutability": "nonpayable",
      "type": "function"
    },
    {
      "inputs": [
        {
          "internalType": "uint256",
          "name": "",
          "type": "uint256"
        }
      ],
      "name": "stakeholderinfos",
      "outputs": [
        {
          "internalType": "uint256",
          "name": "policyOwner",
          "type": "uint256"
        },
        {
          "internalType": "uint256",
          "name": "beneficiary",
          "type": "uint256"
        },
        {
          "internalType": "uint256",
          "name": "lifeAssured",
          "type": "uint256"
        },
        {
          "internalType": "uint256",
          "name": "payingAccount",
          "type": "uint256"
        }
      ],
      "stateMutability": "view",
      "type": "function",
      "constant": true
    },
    {
      "inputs": [
        {
          "internalType": "enum Insurance.status",
          "name": "state",
          "type": "uint8"
        },
        {
          "internalType": "uint256",
          "name": "insuranceId",
          "type": "uint256"
        }
      ],
      "name": "updateStatus",
      "outputs": [],
      "stateMutability": "nonpayable",
      "type": "function"
    },
    {
      "inputs": [
        {
          "internalType": "string",
          "name": "name",
          "type": "string"
        }
      ],
      "name": "registerCompany",
      "outputs": [
        {
          "internalType": "uint256",
          "name": "",
          "type": "uint256"
        }
      ],
      "stateMutability": "payable",
      "type": "function",
      "payable": true
    },
    {
      "inputs": [
        {
          "internalType": "uint256",
          "name": "policyOwner",
          "type": "uint256"
        },
        {
          "internalType": "uint256",
          "name": "beneficiary",
          "type": "uint256"
        },
        {
          "internalType": "uint256",
          "name": "lifeAssured",
          "type": "uint256"
        },
        {
          "internalType": "uint256",
          "name": "payingAccount",
          "type": "uint256"
        }
      ],
      "name": "createStakeholderInfo",
      "outputs": [
        {
          "internalType": "uint256",
          "name": "",
          "type": "uint256"
        }
      ],
      "stateMutability": "nonpayable",
      "type": "function"
    },
    {
      "inputs": [
        {
          "internalType": "uint256",
          "name": "stakeholderInfoId",
          "type": "uint256"
        },
        {
          "internalType": "uint256",
          "name": "companyId",
          "type": "uint256"
        },
        {
          "internalType": "uint256",
          "name": "premium",
          "type": "uint256"
        },
        {
          "internalType": "uint256",
          "name": "insuredAmount",
          "type": "uint256"
        },
        {
          "internalType": "enum Insurance.insuranceType",
          "name": "insType0life1accident",
          "type": "uint8"
        },
        {
          "internalType": "uint256",
          "name": "issueDateYYYYMMDD",
          "type": "uint256"
        },
        {
          "internalType": "uint256",
          "name": "expiryDateYYYYMMDD",
          "type": "uint256"
        }
      ],
      "name": "createInsurance",
      "outputs": [
        {
          "internalType": "uint256",
          "name": "",
          "type": "uint256"
        }
      ],
      "stateMutability": "nonpayable",
      "type": "function"
    },
    {
      "inputs": [
        {
          "internalType": "uint256",
          "name": "companyId",
          "type": "uint256"
        },
        {
          "internalType": "uint256",
          "name": "requestId",
          "type": "uint256"
        },
        {
          "internalType": "uint256",
          "name": "insuranceId",
          "type": "uint256"
        }
      ],
      "name": "solveRequest",
      "outputs": [],
      "stateMutability": "nonpayable",
      "type": "function"
    },
    {
      "inputs": [
        {
          "internalType": "uint256",
          "name": "insuranceId",
          "type": "uint256"
        },
        {
          "internalType": "uint256",
          "name": "companyId",
          "type": "uint256"
        },
        {
          "internalType": "uint256",
          "name": "policyOwnerID",
          "type": "uint256"
        }
      ],
      "name": "signInsurance",
      "outputs": [],
      "stateMutability": "nonpayable",
      "type": "function"
    },
    {
      "inputs": [
        {
          "internalType": "uint256",
          "name": "insuranceId",
          "type": "uint256"
        },
        {
          "internalType": "uint256",
          "name": "amount",
          "type": "uint256"
        },
        {
          "internalType": "uint256",
          "name": "policyOwnerID",
          "type": "uint256"
        },
        {
          "internalType": "address",
          "name": "policyOwner",
          "type": "address"
        }
      ],
      "name": "payPremium",
      "outputs": [],
      "stateMutability": "nonpayable",
      "type": "function"
    },
    {
      "inputs": [
        {
          "internalType": "uint256",
          "name": "insuranceID",
          "type": "uint256"
        },
        {
          "internalType": "uint256",
          "name": "companyId",
          "type": "uint256"
        },
        {
          "internalType": "uint256",
          "name": "mcId",
          "type": "uint256"
        },
        {
          "internalType": "uint256",
          "name": "beneficiaryID",
          "type": "uint256"
        },
        {
          "internalType": "address",
          "name": "beneficiaryAddress",
          "type": "address"
        },
        {
          "internalType": "string",
          "name": "name",
          "type": "string"
        },
        {
          "internalType": "string",
          "name": "NRIC",
          "type": "string"
        }
      ],
      "name": "claim",
      "outputs": [],
      "stateMutability": "nonpayable",
      "type": "function"
    },
    {
      "inputs": [
        {
          "internalType": "uint256",
          "name": "_buyerId",
          "type": "uint256"
        },
        {
          "internalType": "uint256",
          "name": "_companyId",
          "type": "uint256"
        },
        {
          "internalType": "string",
          "name": "contact",
          "type": "string"
        },
        {
          "internalType": "string",
          "name": "_typeProduct",
          "type": "string"
        }
      ],
      "name": "addRequestLists",
      "outputs": [
        {
          "internalType": "bool",
          "name": "",
          "type": "bool"
        },
        {
          "internalType": "uint256",
          "name": "",
          "type": "uint256"
        }
      ],
      "stateMutability": "nonpayable",
      "type": "function"
    },
    {
      "inputs": [
        {
          "internalType": "uint256",
          "name": "companyId",
          "type": "uint256"
        }
      ],
      "name": "checkRequestsFromCompany",
      "outputs": [],
      "stateMutability": "nonpayable",
      "type": "function"
    },
    {
      "inputs": [
        {
          "internalType": "uint256",
          "name": "requestId",
          "type": "uint256"
        },
        {
          "internalType": "uint256",
          "name": "companyId",
          "type": "uint256"
        }
      ],
      "name": "rejectRequest",
      "outputs": [],
      "stateMutability": "nonpayable",
      "type": "function"
    },
    {
      "inputs": [
        {
          "internalType": "uint256",
          "name": "companyId",
          "type": "uint256"
        },
        {
          "internalType": "uint256",
          "name": "requestId",
          "type": "uint256"
        }
      ],
      "name": "checkRequestsFromStakeholder",
      "outputs": [
        {
          "internalType": "enum InsuranceCompany.requestStatus",
          "name": "",
          "type": "uint8"
        },
        {
          "internalType": "uint256",
          "name": "",
          "type": "uint256"
        }
      ],
      "stateMutability": "nonpayable",
      "type": "function"
    },
    {
      "inputs": [
        {
          "internalType": "uint256",
          "name": "companyId",
          "type": "uint256"
        }
      ],
      "name": "getCredit",
      "outputs": [
        {
          "internalType": "uint256",
          "name": "",
          "type": "uint256"
        }
      ],
      "stateMutability": "view",
      "type": "function",
      "constant": true
    },
    {
      "inputs": [
        {
          "internalType": "uint256",
          "name": "companyId",
          "type": "uint256"
        }
      ],
      "name": "getName",
      "outputs": [
        {
          "internalType": "string",
          "name": "",
          "type": "string"
        }
      ],
      "stateMutability": "view",
      "type": "function",
      "constant": true
    },
    {
      "inputs": [
        {
          "internalType": "uint256",
          "name": "companyId",
          "type": "uint256"
        }
      ],
      "name": "getOwner",
      "outputs": [
        {
          "internalType": "address",
          "name": "",
          "type": "address"
        }
      ],
      "stateMutability": "view",
      "type": "function",
      "constant": true
    },
    {
      "inputs": [],
      "name": "getCompanyId",
      "outputs": [
        {
          "internalType": "uint256",
          "name": "",
          "type": "uint256"
        }
      ],
      "stateMutability": "view",
      "type": "function",
      "constant": true
    },
    {
      "inputs": [],
      "name": "getNumOfCompany",
      "outputs": [
        {
          "internalType": "uint256",
          "name": "",
          "type": "uint256"
        }
      ],
      "stateMutability": "view",
      "type": "function",
      "constant": true
    }
  ],
  "bytecode": "0x6080604052600080556000600255600060065560006007553480156200002457600080fd5b50604051620035e8380380620035e8833981016040819052620000479162000092565b600580546001600160a01b039384166001600160a01b03199182161790915560048054929093169116179055620000d1565b6001600160a01b03811681146200008f57600080fd5b50565b60008060408385031215620000a657600080fd5b8251620000b38162000079565b6020840151909250620000c68162000079565b809150509250929050565b61350780620000e16000396000f3fe6080604052600436106101f85760003560e01c80636833f2001161010d578063bfcb6cfb116100a0578063da304e4d1161006f578063da304e4d14610747578063dd9937f714610767578063e02bb9af14610787578063e0e5c324146107a7578063e22900ff146107c757600080fd5b8063bfcb6cfb146106a2578063c41a360a146106c2578063ca009021146106fa578063d91f2a0b1461072757600080fd5b80638edd5297116100dc5780638edd52971461062a57806393e949c3146106405780639f14d7c214610660578063b7ff5dae1461068257600080fd5b80636833f2001461058a5780636b8ff574146105ba578063703849d9146105e757806385fae602146105fd57600080fd5b80633d1894af116101905780635998f7751161015f5780635998f7751461044b57806359fb49f91461047b5780635c622a0e146105025780635d9967011461054757806362584ffe1461057557600080fd5b80633d1894af146103875780633fa3ab26146103a7578063467321d51461040b578063575c28871461042b57600080fd5b806323192ed4116101cc57806323192ed4146102c057806326e1cb82146102f75780632813d19d14610317578063302df0831461034857600080fd5b8062544194146101fd5780630386660a146102235780631847c06b146102535780631a1fc3a014610280575b600080fd5b61021061020b366004612cc8565b6107f8565b6040519081526020015b60405180910390f35b34801561022f57600080fd5b5061021061023e366004612d05565b60009081526001602052604090206007015490565b34801561025f57600080fd5b5061021061026e366004612d3a565b60096020526000908152604090205481565b34801561028c57600080fd5b506102be61029b366004612d5c565b600090815260016020818152604080842060020154845260039091529091200155565b005b3480156102cc57600080fd5b506102e06102db366004612d7e565b6108ef565b60408051921515835260208301919091520161021a565b34801561030357600080fd5b506102be610312366004612df5565b610982565b34801561032357600080fd5b50610337610332366004612d05565b610a72565b60405161021a959493929190612ee8565b34801561035457600080fd5b50610210610363366004612d05565b60009081526001602081815260408084206002015484526003909152909120015490565b34801561039357600080fd5b506102be6103a2366004612d5c565b610b33565b3480156103b357600080fd5b506103eb6103c2366004612d05565b600360208190526000918252604090912080546001820154600283015492909301549092919084565b60408051948552602085019390935291830152606082015260800161021a565b34801561041757600080fd5b506102be610426366004612f24565b610ebb565b34801561043757600080fd5b50610210610446366004612d05565b61105b565b34801561045757600080fd5b50610210610466366004612d05565b60009081526001602052604090206004015490565b34801561048757600080fd5b506104ec610496366004612d05565b60016020819052600091825260409091208054918101546002820154600383015460048401546005850154600686015460078701546008909701549596949593949293919260ff8083169361010090930416918a565b60405161021a9a99989796959493929190612f9d565b34801561050e57600080fd5b5061053a61051d366004612d05565b600090815260016020526040902060060154610100900460ff1690565b60405161021a9190612ffb565b34801561055357600080fd5b50610567610562366004612d5c565b611084565b60405161021a929190613019565b34801561058157600080fd5b50600754610210565b34801561059657600080fd5b506102106105a5366004612d05565b60009081526001602052604090206008015490565b3480156105c657600080fd5b506105da6105d5366004612d05565b6113c0565b60405161021a9190613034565b3480156105f357600080fd5b5061021060005481565b34801561060957600080fd5b5061061d610618366004612d05565b611493565b60405161021a9190613047565b34801561063657600080fd5b5061021060025481565b34801561064c57600080fd5b5061021061065b3660046130c9565b611582565b34801561066c57600080fd5b5033600090815260096020526040902054610210565b34801561068e57600080fd5b506102be61069d36600461312c565b611834565b3480156106ae57600080fd5b506102be6106bd36600461315c565b61186d565b3480156106ce57600080fd5b506106e26106dd366004612d05565b611a20565b6040516001600160a01b03909116815260200161021a565b34801561070657600080fd5b50610210610715366004612d05565b60009081526003602052604090205490565b34801561073357600080fd5b506102be610742366004612d5c565b611a70565b34801561075357600080fd5b50610210610762366004612d05565b611af3565b34801561077357600080fd5b506102be610782366004612d05565b611b3a565b34801561079357600080fd5b506102be6107a236600461315c565b61202d565b3480156107b357600080fd5b506102106107c2366004613188565b6123b2565b3480156107d357600080fd5b506102106107e2366004612d05565b6000908152600160208190526040909120015490565b6000662386f26fc10000341161086d5760405162461bcd60e51b815260206004820152602f60248201527f6174206c6561737420302e303120455448206973206e656564656420746f206360448201526e7265617465206120636f6d70616e7960881b60648201526084015b60405180910390fd5b6007805490600061087d836131d0565b909155505060075460008181526008602090815260408220928355600183019190915583516108b491600284019190860190612b06565b506003810180546001600160a01b03191633908117909155600060049092018290556007549082526009602052604090912081905592915050565b60008381526008602090815260408220600690810180546001810182559084529183208154849383029091019183610926836131d0565b9091555050600654815560018101879055845161094c9060028301906020880190612b06565b5083516109629060038301906020870190612b06565b50600401805460ff19166002179055505060065460019590945092505050565b6000878152600160208181526040808420600201548452600390915290912001548790859081146109ec5760405162461bcd60e51b8152602060048201526014602482015273496e76616c69642062656e65666963696172792160601b6044820152606401610864565b6040518981527f023f2fc8ada0c4baed4ee1e3ba4fe20927aeb0927885a97721dff7bf7de72a549060200160405180910390a1610a2d898989888888612451565b604080518a8152602081018990527fa0645bbb67237e776cc7225ab792c6c0145b76e8013248761926aee49549ae9991015b60405180910390a1505050505050505050565b60086020526000908152604090208054600182015460028301805492939192610a9a906131eb565b80601f0160208091040260200160405190810160405280929190818152602001828054610ac6906131eb565b8015610b135780601f10610ae857610100808354040283529160200191610b13565b820191906000526020600020905b815481529060010190602001808311610af657829003601f168201915b50505050600383015460049093015491926001600160a01b031691905085565b806007548111158015610b4557508015155b610b615760405162461bcd60e51b815260040161086490613220565b60008281526008602052604090206003015482906001600160a01b03163314610b9c5760405162461bcd60e51b81526004016108649061324d565b83610be25760405162461bcd60e51b8152602060048201526016602482015275496e7075742076616c6964207265717565737449642160501b6044820152606401610864565b600083815260086020908152604080832060060180548251818502810185019093528083528493849084015b82821015610db557838290600052602060002090600602016040518060c00160405290816000820154815260200160018201548152602001600282018054610c55906131eb565b80601f0160208091040260200160405190810160405280929190818152602001828054610c81906131eb565b8015610cce5780601f10610ca357610100808354040283529160200191610cce565b820191906000526020600020905b815481529060010190602001808311610cb157829003601f168201915b50505050508152602001600382018054610ce7906131eb565b80601f0160208091040260200160405190810160405280929190818152602001828054610d13906131eb565b8015610d605780601f10610d3557610100808354040283529160200191610d60565b820191906000526020600020905b815481529060010190602001808311610d4357829003601f168201915b5050509183525050600482015460209091019060ff166002811115610d8757610d87612f63565b6002811115610d9857610d98612f63565b815260200160058201548152505081526020019060010190610c0e565b5050505090506000815190506000805b82811015610e0c5788848281518110610de057610de061327d565b6020026020010151600001511415610dfa57809450600191505b80610e04816131d0565b915050610dc5565b50600181151514610e2f5760405162461bcd60e51b815260040161086490613293565b8015610eb1576001838581518110610e4957610e4961327d565b6020026020010151608001906002811115610e6657610e66612f63565b90816002811115610e7957610e79612f63565b9052506040518881527f8d7fed20d7d8248d56d7367c40d71b598aadef2c219eeb23c765211306d8cce8906020015b60405180910390a15b5050505050505050565b60008481526001602090815260408083206002015483526003909152902054849083908114610f245760405162461bcd60e51b8152602060048201526015602482015274496e76616c696420706f6c696379206f776e65722160581b6044820152606401610864565b60008681526001602081815260408084209092015483526008905290819020600301546004805492516303456ea360e41b81526001600160a01b03878116928201929092529181166024830181905260448301899052921690633456ea3090606401600060405180830381600087803b158015610fa057600080fd5b505af1158015610fb4573d6000803e3d6000fd5b50505060008881526001602052604081206005018054899350909190610fdb9084906132c0565b909155505060008781526001602052604090206003810154600590910154141561101e576000878152600160205260409020600601805461ff0019166103001790555b6040518781527f93e71af69425ab98903353cc1f5235add61a8f2f0875df40104a9161ecfca332906020015b60405180910390a150505050505050565b6000818152600160205260408120600581015460039091015461107e91906132d8565b92915050565b600080826110a45760405162461bcd60e51b815260040161086490613293565b600084815260086020908152604080832060060180548251818502810185019093528083528493849084015b8282101561127757838290600052602060002090600602016040518060c00160405290816000820154815260200160018201548152602001600282018054611117906131eb565b80601f0160208091040260200160405190810160405280929190818152602001828054611143906131eb565b80156111905780601f1061116557610100808354040283529160200191611190565b820191906000526020600020905b81548152906001019060200180831161117357829003601f168201915b505050505081526020016003820180546111a9906131eb565b80601f01602080910402602001604051908101604052809291908181526020018280546111d5906131eb565b80156112225780601f106111f757610100808354040283529160200191611222565b820191906000526020600020905b81548152906001019060200180831161120557829003601f168201915b5050509183525050600482015460209091019060ff16600281111561124957611249612f63565b600281111561125a5761125a612f63565b8152602001600582015481525050815260200190600101906110d0565b5050505090506000815190506000805b828110156112ce57878482815181106112a2576112a261327d565b60200260200101516000015114156112bc57809450600191505b806112c6816131d0565b915050611287565b5060018115151461131a5760405162461bcd60e51b8152602060048201526016602482015275596f7520686176656e2774207265717565737465642160501b6044820152606401610864565b8015611375577f2341ebb88dfa6ce59e54bdde82e9746e5a27fcd12a0d5d5ca812f1d01f4102e28385815181106113535761135361327d565b60200260200101516080015160405161136c91906132ef565b60405180910390a15b8284815181106113875761138761327d565b6020026020010151608001518385815181106113a5576113a561327d565b602002602001015160a0015195509550505050509250929050565b60608160075481111580156113d457508015155b6113f05760405162461bcd60e51b815260040161086490613220565b6000838152600860205260409020600201805461140c906131eb565b80601f0160208091040260200160405190810160405280929190818152602001828054611438906131eb565b80156114855780601f1061145a57610100808354040283529160200191611485565b820191906000526020600020905b81548152906001019060200180831161146857829003601f168201915b505050505091505b50919050565b61149b612b8a565b60016000838152602001908152602001600020604051806101400160405290816000820154815260200160018201548152602001600282015481526020016003820154815260200160048201548152602001600582015481526020016006820160009054906101000a900460ff16600181111561151a5761151a612f63565b600181111561152b5761152b612f63565b81526020016006820160019054906101000a900460ff16600581111561155357611553612f63565b600581111561156457611564612f63565b81526007820154602082015260089091015460409091015292915050565b600086600754811115801561159657508015155b6115b25760405162461bcd60e51b815260040161086490613220565b60008881526008602052604090206003015488906001600160a01b031633146115ed5760405162461bcd60e51b81526004016108649061324d565b60048054604051635cdbb28560e11b815233928101929092526001916001600160a01b039091169063b9b7650a90602401602060405180830381865afa15801561163b573d6000803e3d6000fd5b505050506040513d601f19601f8201168201806040525081019061165f91906132fd565b116116c65760405162461bcd60e51b815260206004820152603160248201527f31205472757374496e73757265206973206e656564656420746f206372656174604482015270652061206e657720696e737572616e636560781b6064820152608401610864565b62989680851161170e5760405162461bcd60e51b8152602060048201526013602482015272496e76616c696420697373756520646174652160681b6044820152606401610864565b6298968084116117575760405162461bcd60e51b8152602060048201526014602482015273496e76616c69642065787069727920646174652160601b6044820152606401610864565b83851061179d5760405162461bcd60e51b8152602060048201526014602482015273496e76616c69642065787069727920646174652160601b6044820152606401610864565b6000805490806117ac836131d0565b90915550506000805481526001602081905260408220600281018d90558082018c9055600381018b9055600481018a90556005810192909255600682018054899260ff1990911690838181111561180557611805612f63565b021790555060068101805461ff0019169055600781019590955550505060089091015550506000549392505050565b6000818152600160205260409020600601805483919061ff00191661010083600581111561186457611864612f63565b02179055505050565b81600754811115801561187f57508015155b61189b5760405162461bcd60e51b815260040161086490613220565b600084815260016020908152604080832060020154835260039091529020548490839081146119045760405162461bcd60e51b8152602060048201526015602482015274496e76616c696420706f6c696379206f776e65722160581b6044820152606401610864565b60008681526001602081815260408084206006808201805461ff0019166101001781558b8752600885528387208d88526005908101909552929095208154815581850154818601556002808301549082015560038083015490820155600480830154908201558382015493810193909355905493820180549194929360ff90931692909160ff191690838181111561199e5761199e612f63565b0217905550600682810154908201805460ff61010093849004169261ff0019909116908360058111156119d3576119d3612f63565b02179055506007828101549082015560089182015490820155600086815260209190915260408120600401805491611a0a836131d0565b9190505550611a18856129fb565b505050505050565b6000816007548111158015611a3457508015155b611a505760405162461bcd60e51b815260040161086490613220565b50506000908152600860205260409020600301546001600160a01b031690565b600081815260016020526040902060080154611adf5760405162461bcd60e51b815260206004820152602860248201527f45787069727920646174652068617320616c7265616479206265656e20696e696044820152671d1a585b1a5cd95960c21b6064820152608401610864565b600090815260016020526040902060080155565b6000816007548111158015611b0757508015155b611b235760405162461bcd60e51b815260040161086490613220565b505060009081526008602052604090206001015490565b806007548111158015611b4c57508015155b611b685760405162461bcd60e51b815260040161086490613220565b60008281526008602052604090206003015482906001600160a01b03163314611ba35760405162461bcd60e51b81526004016108649061324d565b600083815260086020908152604080832060060180548251818502810185019093528083529192909190849084015b82821015611d7957838290600052602060002090600602016040518060c00160405290816000820154815260200160018201548152602001600282018054611c19906131eb565b80601f0160208091040260200160405190810160405280929190818152602001828054611c45906131eb565b8015611c925780601f10611c6757610100808354040283529160200191611c92565b820191906000526020600020905b815481529060010190602001808311611c7557829003601f168201915b50505050508152602001600382018054611cab906131eb565b80601f0160208091040260200160405190810160405280929190818152602001828054611cd7906131eb565b8015611d245780601f10611cf957610100808354040283529160200191611d24565b820191906000526020600020905b815481529060010190602001808311611d0757829003601f168201915b5050509183525050600482015460209091019060ff166002811115611d4b57611d4b612f63565b6002811115611d5c57611d5c612f63565b815260200160058201548152505081526020019060010190611bd2565b5050505090506000815167ffffffffffffffff811115611d9b57611d9b612c03565b604051908082528060200260200182016040528015611dc4578160200160208202803683370190505b5090506000825167ffffffffffffffff811115611de357611de3612c03565b604051908082528060200260200182016040528015611e0c578160200160208202803683370190505b5090506000835167ffffffffffffffff811115611e2b57611e2b612c03565b604051908082528060200260200182016040528015611e5e57816020015b6060815260200190600190039081611e495790505b5090506000845167ffffffffffffffff811115611e7d57611e7d612c03565b604051908082528060200260200182016040528015611eb057816020015b6060815260200190600190039081611e9b5790505b50905060005b8551811015611ff7576002868281518110611ed357611ed361327d565b6020026020010151608001516002811115611ef057611ef0612f63565b1415611fe557858181518110611f0857611f0861327d565b602002602001015160000151858281518110611f2657611f2661327d565b602002602001018181525050858181518110611f4457611f4461327d565b602002602001015160200151848281518110611f6257611f6261327d565b602002602001018181525050858181518110611f8057611f8061327d565b602002602001015160400151838281518110611f9e57611f9e61327d565b6020026020010181905250858181518110611fbb57611fbb61327d565b602002602001015160600151828281518110611fd957611fd961327d565b60200260200101819052505b80611fef816131d0565b915050611eb6565b507ff8be3becfceddab2d6d90e42623d2779957d2177254cb3ee5fe6a9297233c8c284848484604051610ea894939291906133a6565b336000908152600960205260409020546120835760405162461bcd60e51b8152602060048201526017602482015276596f7520617265206e6f7420617574686f72697a65642160481b6044820152606401610864565b81156123ad57600083815260086020908152604080832060060180548251818502810185019093528083528493849084015b8282101561225c57838290600052602060002090600602016040518060c001604052908160008201548152602001600182015481526020016002820180546120fc906131eb565b80601f0160208091040260200160405190810160405280929190818152602001828054612128906131eb565b80156121755780601f1061214a57610100808354040283529160200191612175565b820191906000526020600020905b81548152906001019060200180831161215857829003601f168201915b5050505050815260200160038201805461218e906131eb565b80601f01602080910402602001604051908101604052809291908181526020018280546121ba906131eb565b80156122075780601f106121dc57610100808354040283529160200191612207565b820191906000526020600020905b8154815290600101906020018083116121ea57829003601f168201915b5050509183525050600482015460209091019060ff16600281111561222e5761222e612f63565b600281111561223f5761223f612f63565b8152602001600582015481525050815260200190600101906120b5565b5050505090506000815190506000805b828110156122b357868482815181106122875761228761327d565b60200260200101516000015114156122a157809450600191505b806122ab816131d0565b91505061226c565b506001811515146122d65760405162461bcd60e51b815260040161086490613293565b80156123a85760008781526008602052604090206006018054869190869081106123025761230261327d565b90600052602060002090600602016005018190555060006008600089815260200190815260200160002060060185815481106123405761234061327d565b60009182526020909120600460069092020101805460ff1916600183600281111561236d5761236d612f63565b021790555060408051878152602081018790527f90218a18786a98dc15e72ee082c065814f7820762cfd88f194694627e1b7e4c6910161104a565b505050505b505050565b336000908152600960205260408120546124085760405162461bcd60e51b8152602060048201526017602482015276596f7520617265206e6f7420617574686f72697a65642160481b6044820152606401610864565b60028054906000612418836131d0565b90915550506002805460009081526003602081905260409091208781556001810187905580830186905501839055549050949350505050565b6003600087815260016020526040902060060154610100900460ff16600581111561247e5761247e612f63565b146124db5760405162461bcd60e51b815260206004820152602760248201527f5374616b65686f6c64657220686176656e277420706169642074686520696e736044820152667572616e63652160c81b6064820152608401610864565b60008681526001602052604090206007015442906124fa9060646133fe565b612507906276a7006132c0565b101561254c5760405162461bcd60e51b8152602060048201526014602482015273486176656e27742074616b65206566666563742160601b6044820152606401610864565b8160405160200161255d919061341d565b60408051808303601f1901815290829052805160209091012060055463302e1ab160e01b83526004830187905290916001600160a01b039091169063302e1ab190602401600060405180830381865afa1580156125be573d6000803e3d6000fd5b505050506040513d6000823e601f3d908101601f191682016040526125e69190810190613439565b6040516020016125f6919061341d565b604051602081830303815290604052805190602001201480156126d6575080604051602001612625919061341d565b60408051808303601f1901815290829052805160209091012060055463caafc4fb60e01b83526004830187905290916001600160a01b039091169063caafc4fb90602401600060405180830381865afa158015612686573d6000803e3d6000fd5b505050506040513d6000823e601f3d908101601f191682016040526126ae9190810190613439565b6040516020016126be919061341d565b60405160208183030381529060405280519060200120145b61272e5760405162461bcd60e51b815260206004820152602360248201527f496e76616c6964206c6966652061737375726564206e616d6520616e64204e5260448201526249432160e81b6064820152608401610864565b600554604051635d555abd60e11b8152600481018690526002916001600160a01b03169063baaab57a90602401602060405180830381865afa158015612778573d6000803e3d6000fd5b505050506040513d601f19601f8201168201806040525081019061279c91906134b0565b60028111156127ad576127ad612f63565b141561283e5760008681526001602052604090206007015442906127d29060646133fe565b6127e0906303c267006132c0565b101561283e5760405162461bcd60e51b815260206004820152602760248201527f496620737569636964652063616e6e6f7420636c61696d2077697468696e20326044820152662079656172732160c81b6064820152608401610864565b6000868152600160209081526040808320600490810154898552600890935292819020600381015484549251635cdbb28560e11b81526001600160a01b03918216958101869052939491939192859291169063b9b7650a90602401602060405180830381865afa1580156128b6573d6000803e3d6000fd5b505050506040513d601f19601f820116820180604052508101906128da91906132fd565b10156129285760405162461bcd60e51b815260206004820152601e60248201527f6e6f7420656e6f756768205472757374496e7375726520746f207061792100006044820152606401610864565b600480546040516303456ea360e41b81526001600160a01b0384811693820193909352888316602482015260448101869052911690633456ea3090606401600060405180830381600087803b15801561298057600080fd5b505af1158015612994573d6000803e3d6000fd5b50505060008a815260016020526040902060060180546004925061ff001916610100830217905550604080516001600160a01b0388168152602081018590527fa9059cbb2ab09eb219583f4a59a5d0623ade346d962bcd4e46b11da047c9049b9101610a5f565b806007548111158015612a0d57508015155b612a295760405162461bcd60e51b815260040161086490613220565b6000828152600860205260409020600481015460328110801590612a4e575060c88111155b15612a5e57600182810155612b00565b60c881118015612a70575061015e8111155b15612a815760026001830155612b00565b61015e81118015612a9457506101c28111155b15612aa55760036001830155612b00565b6101c281118015612ab857506103208111155b15612ac95760046001830155612b00565b61032081118015612adc57506107d08111155b15612aed5760056001830155612b00565b6107d0811115612b00576103e760018301555b50505050565b828054612b12906131eb565b90600052602060002090601f016020900481019282612b345760008555612b7a565b82601f10612b4d57805160ff1916838001178555612b7a565b82800160010185558215612b7a579182015b82811115612b7a578251825591602001919060010190612b5f565b50612b86929150612bee565b5090565b60405180610140016040528060008152602001600081526020016000815260200160008152602001600081526020016000815260200160006001811115612bd357612bd3612f63565b81526020016000815260200160008152602001600081525090565b5b80821115612b865760008155600101612bef565b634e487b7160e01b600052604160045260246000fd5b604051601f8201601f1916810167ffffffffffffffff81118282101715612c4257612c42612c03565b604052919050565b600067ffffffffffffffff821115612c6457612c64612c03565b50601f01601f191660200190565b600082601f830112612c8357600080fd5b8135612c96612c9182612c4a565b612c19565b818152846020838601011115612cab57600080fd5b816020850160208301376000918101602001919091529392505050565b600060208284031215612cda57600080fd5b813567ffffffffffffffff811115612cf157600080fd5b612cfd84828501612c72565b949350505050565b600060208284031215612d1757600080fd5b5035919050565b80356001600160a01b0381168114612d3557600080fd5b919050565b600060208284031215612d4c57600080fd5b612d5582612d1e565b9392505050565b60008060408385031215612d6f57600080fd5b50508035926020909101359150565b60008060008060808587031215612d9457600080fd5b8435935060208501359250604085013567ffffffffffffffff80821115612dba57600080fd5b612dc688838901612c72565b93506060870135915080821115612ddc57600080fd5b50612de987828801612c72565b91505092959194509250565b600080600080600080600060e0888a031215612e1057600080fd5b87359650602088013595506040880135945060608801359350612e3560808901612d1e565b925060a088013567ffffffffffffffff80821115612e5257600080fd5b612e5e8b838c01612c72565b935060c08a0135915080821115612e7457600080fd5b50612e818a828b01612c72565b91505092959891949750929550565b60005b83811015612eab578181015183820152602001612e93565b83811115612b005750506000910152565b60008151808452612ed4816020860160208601612e90565b601f01601f19169290920160200192915050565b85815284602082015260a060408201526000612f0760a0830186612ebc565b6001600160a01b0394909416606083015250608001529392505050565b60008060008060808587031215612f3a57600080fd5b843593506020850135925060408501359150612f5860608601612d1e565b905092959194509250565b634e487b7160e01b600052602160045260246000fd5b60028110612f8957612f89612f63565b9052565b60068110612f8957612f89612f63565b6000610140820190508b82528a60208301528960408301528860608301528760808301528660a0830152612fd460c0830187612f79565b612fe160e0830186612f8d565b610100820193909352610120015298975050505050505050565b6020810161107e8284612f8d565b60038110612f8957612f89612f63565b604081016130278285613009565b8260208301529392505050565b602081526000612d556020830184612ebc565b600061014082019050825182526020830151602083015260408301516040830152606083015160608301526080830151608083015260a083015160a083015260c083015161309860c0840182612f79565b5060e08301516130ab60e0840182612f8d565b50610100838101519083015261012092830151929091019190915290565b600080600080600080600060e0888a0312156130e457600080fd5b8735965060208801359550604088013594506060880135935060808801356002811061310f57600080fd5b9699959850939692959460a0840135945060c09093013592915050565b6000806040838503121561313f57600080fd5b82356006811061314e57600080fd5b946020939093013593505050565b60008060006060848603121561317157600080fd5b505081359360208301359350604090920135919050565b6000806000806080858703121561319e57600080fd5b5050823594602084013594506040840135936060013592509050565b634e487b7160e01b600052601160045260246000fd5b60006000198214156131e4576131e46131ba565b5060010190565b600181811c908216806131ff57607f821691505b6020821081141561148d57634e487b7160e01b600052602260045260246000fd5b602080825260139082015272496e76616c696420636f6d70616e792069642160681b604082015260600190565b602080825260169082015275596f7520617265206e6f7420746865206f776e65722160501b604082015260600190565b634e487b7160e01b600052603260045260246000fd5b602080825260139082015272496e76616c696420726571756573742069642160681b604082015260600190565b600082198211156132d3576132d36131ba565b500190565b6000828210156132ea576132ea6131ba565b500390565b6020810161107e8284613009565b60006020828403121561330f57600080fd5b5051919050565b600081518084526020808501945080840160005b838110156133465781518752958201959082019060010161332a565b509495945050505050565b600081518084526020808501808196508360051b8101915082860160005b85811015613399578284038952613387848351612ebc565b9885019893509084019060010161336f565b5091979650505050505050565b6080815260006133b96080830187613316565b82810360208401526133cb8187613316565b905082810360408401526133df8186613351565b905082810360608401526133f38185613351565b979650505050505050565b6000816000190483118215151615613418576134186131ba565b500290565b6000825161342f818460208701612e90565b9190910192915050565b60006020828403121561344b57600080fd5b815167ffffffffffffffff81111561346257600080fd5b8201601f8101841361347357600080fd5b8051613481612c9182612c4a565b81815285602083850101111561349657600080fd5b6134a7826020830160208601612e90565b95945050505050565b6000602082840312156134c257600080fd5b815160038110612d5557600080fdfea26469706673582212208a4c0f6deb57015def3e6117fad4644e347233e52fd4a52ab3c8ee731dd50df564736f6c634300080c0033",
  "immutableReferences": {},
  "source": "pragma solidity ^0.8.12;\npragma experimental ABIEncoderV2;\nimport \"./Insurance.sol\";\nimport \"./Hospital.sol\";\nimport \"./TrustInsure.sol\";\n\ncontract InsuranceCompany is Insurance {\n    TrustInsure trustinsureInstance;\n    Hospital hospitalInstance;\n    enum requestStatus {approved, rejected, pending}\n\n    struct insuranceCompany {\n        uint256 companyId;\n        uint256 credit;\n        string name;\n        address owner;\n        uint256 completed; //number range to stars\n        mapping(uint256 => insurance) insuranceIds;\n        Request[] requestLists;\n    }\n\n    struct Request {\n        uint256 reqId;\n        uint256 buyerId;\n        string contact;\n        string productType;\n        requestStatus status;\n        uint256 insuranceId;\n    }\n\n    constructor(Hospital hospitalInstanceAddress, \n                TrustInsure trustinsureInstanceAddress) \n    public \n    {\n        hospitalInstance = hospitalInstanceAddress;  \n        trustinsureInstance = trustinsureInstanceAddress;    \n    }\n\n    uint256 numOfReq = 0;\n    uint256 numOfCompany = 0;\n    mapping(uint256 => insuranceCompany) public companies;\n    mapping(address => uint256) public ids;\n    \n\n    event create (uint256 insuranceId);\n    event transfer (address beneficiary, uint256 amount);\n    event allRequests(uint256[] requestids,\n        uint256[] buyerids,\n        string[] buyercontacts,\n        string[] producttypes);\n    event requestSolve(uint256 requestId,uint256 insuranceId);\n    event requestReject(uint256 requestId);\n    event checkRequest(requestStatus status);\n    event allPaid(uint256 insuranceID);\n    event askingCert (uint256 insuranceID);\n    event claimingFromComp (uint256 insuranceID, uint256 mcId);\n\n\n// =====================================================================================\n// modifiers\n// =====================================================================================\n   \n    modifier ownerOnly(uint256 companyId) {\n        require(companies[companyId].owner == msg.sender, \"You are not the owner!\");\n        _;\n    }\n    \n    modifier validCompanyId(uint256 companyId) {\n        require(companyId <= numOfCompany && companyId != 0, \"Invalid company id!\");\n        _;\n    }\n\n    modifier validBeneficiary(uint256 insuranceId, uint256 beneficiaryID) {\n        require(stakeholderinfos[insurances[insuranceId].stakeholders].beneficiary == beneficiaryID, \"Invalid beneficiary!\");\n        _;\n    }\n\n    modifier validPolicyOwner(uint256 insuranceId, uint256 policyOwnerID) {\n        require(stakeholderinfos[insurances[insuranceId].stakeholders].policyOwner == policyOwnerID, \"Invalid policy owner!\");\n        _;\n    }\n\n    modifier onlyCompanyOwner() {\n        require(ids[msg.sender] != 0, \"You are not authorized!\");\n        _;\n    }\n\n// =====================================================================================\n// functions\n// =====================================================================================\n\n\n    /**\n    * @dev Register an insurance company\n    * @param name (string): the name of the new insurance company\n    * @return uint256 id of the company\n    */\n    function registerCompany(string memory name) public payable returns(uint256) {\n        require(msg.value > 0.01 ether, \"at least 0.01 ETH is needed to create a company\");\n        \n        numOfCompany++;\n        insuranceCompany storage newCompany = companies[numOfCompany];\n        \n        newCompany.companyId = numOfCompany;\n        newCompany.credit = 0;\n        newCompany.name = name;\n        newCompany.owner = msg.sender;\n        newCompany.completed = 0;\n\n        ids[msg.sender] = numOfCompany;\n        \n        return numOfCompany; \n    }\n\n    /**\n    * @dev Create related stakeholders profile for the insurance\n    * @param policyOwner the id of the stakeholder who want to purchase the insurance policy\n    * @param beneficiary the id of the stakeholder who will be benefited when the insurance is claimed\n    * @param lifeAssured the id of the stakeholder being assured\n    * @param payingAccount the id of the stakeholder who will receive the payment\n    * @return uint256 number of stakeholder\n    */\n    function createStakeholderInfo (uint256 policyOwner,\n        uint256  beneficiary,\n        uint256 lifeAssured,\n        uint256 payingAccount) \n    public onlyCompanyOwner\n    override returns(uint256) \n    {\n        numStakeholder++;\n        stakeholderInfo storage newInfo = stakeholderinfos[numStakeholder];\n        \n        newInfo.policyOwner = policyOwner;\n        newInfo.beneficiary = beneficiary;\n        newInfo.lifeAssured = lifeAssured;\n        newInfo.payingAccount = payingAccount;\n        \n        return numStakeholder;\n    }\n\n    /**\n    * @dev Create the insurance\n    * @param stakeholderInfoId the id of the stakeholder info that created before\n    * @param companyId the id of the company\n    * @param premium the total amount of premium fee that stakeholder should pay before claim\n    * @param insuredAmount the total amount of payment when the insurnace is claimed\n    * @param insType0life1accident the type of insurance, 0 for life or 1 for accident insurance\n    * @param issueDateYYYYMMDD The date of the insurance being created\n    * @param expiryDateYYYYMMDD The date of the insurance will be expired\n    * @return uint256 insurance id\n    */\n    function createInsurance (\n        uint256 stakeholderInfoId,\n        uint256 companyId,\n        uint256 premium,\n        uint256 insuredAmount,\n        Insurance.insuranceType insType0life1accident,\n        uint256 issueDateYYYYMMDD,\n        uint256 expiryDateYYYYMMDD\n    ) \n    public validCompanyId(companyId) ownerOnly(companyId)\n    override returns(uint256) \n    {\n        require(trustinsureInstance.checkInsure(msg.sender) > 1, \"1 TrustInsure is needed to create a new insurance\"); \n        require(issueDateYYYYMMDD > 10000000, \"Invalid issue date!\");\n        require(expiryDateYYYYMMDD > 10000000, \"Invalid expiry date!\");\n        require(issueDateYYYYMMDD < expiryDateYYYYMMDD, \"Invalid expiry date!\");\n        numInsurance++;\n        //new insurance object\n        insurance storage newInsurance = insurances[numInsurance];\n        newInsurance.stakeholders = stakeholderInfoId;\n        newInsurance.companyId = companyId;\n        newInsurance.premium = premium;\n        newInsurance.insuredAmount = insuredAmount;\n        newInsurance.currentAmount = 0;\n        newInsurance.insType = insType0life1accident;\n        newInsurance.status = status.unapproved; // initialise  status to unapproved\n        newInsurance.issueDate = issueDateYYYYMMDD;\n        newInsurance.expiryDate = expiryDateYYYYMMDD; \n        \n        return numInsurance;   //return new insurance Id\n    }\n\n    /**\n    * @dev Update request status and related insurance information\n    * @param companyId the id of the company\n    * @param requestId which request the company want to update and address\n    * @param insuranceId the id of the insurance that the company created specific for the request\n    */\n    function solveRequest(uint256 companyId, uint256 requestId, uint256 insuranceId) \n    public  onlyCompanyOwner\n    {\n        if (requestId != 0) {\n            uint256 index;\n            Request[] memory reqs = companies[companyId].requestLists;\n            uint256 length = reqs.length;\n            bool find = false;\n            for (uint256 i = 0; i < length; i++) {\n                if (reqs[i].reqId == requestId) {\n                    index = i;\n                    find = true;\n                }\n            }\n            \n            require(find == true, \"Invalid request id!\");\n            if (find) {\n                companies[companyId].requestLists[index].insuranceId = insuranceId;\n                companies[companyId].requestLists[index].status = requestStatus.approved;\n                emit requestSolve(requestId, insuranceId);\n            }\n        }        \n    }\n\n    /** \n    * @dev Allow the policyowner to verify the insurance contract information and sign\n    * @param insuranceId the id of the insurance\n    * @param companyId the id of the company\n    * @param policyOwnerID the id of the policy owner\n    */\n    //stakeholder call this function to sign the insurance\n    function signInsurance(uint256 insuranceId,uint256 companyId, uint256 policyOwnerID) \n    external\n    validCompanyId(companyId) validPolicyOwner(insuranceId, policyOwnerID)\n    {\n        insurances[insuranceId].status = Insurance.status.processing;\n\n        companies[companyId].insuranceIds[insuranceId] = insurances[insuranceId];\n        companies[companyId].completed++;\n        updateCredit(companyId);\n    }\n\n    /** \n    * @dev function to update the credit of company once a insurance is signed\n    * @param companyId the id of the company\n    */\n    function updateCredit(uint256 companyId) private validCompanyId(companyId) {\n        insuranceCompany storage company = companies[companyId];\n        uint256 completed = company.completed;\n        if(completed >=50 && completed <=200) {\n            company.credit = 1;\n        } else if(completed >200 && completed <=350) {\n            company.credit = 2;\n        } else if(completed >350 && completed <=450) {\n            company.credit = 3;\n        } else if(completed >450 && completed <=800) {\n            company.credit = 4;\n        } else if(completed >800 && completed <=2000) {\n            company.credit = 5;\n        } else if(completed >2000) {\n            company.credit = 999;\n        } \n    }\n\n    /** \n    * @dev Allow the policy owner to pay the premium\n    * @param insuranceId the id of the insurance\n    * @param amount the id of the insurance\n    * @param policyOwnerID the id of the policy owner\n    * @param policyOwner the address of policyowner\n    */\n    function payPremium(uint256 insuranceId, uint256 amount, uint256 policyOwnerID, address policyOwner) external validPolicyOwner(insuranceId, policyOwnerID){\n        address companyAddress = companies[insurances[insuranceId].companyId].owner;\n        trustinsureInstance.transferFromInsure(policyOwner,companyAddress,amount);\n\n        //mark as paid      \n        insurances[insuranceId].currentAmount += amount;\n        if (insurances[insuranceId].currentAmount == insurances[insuranceId].premium) {\n            insurances[insuranceId].status = status.paid;\n        }\n        \n        emit allPaid(insuranceId);\n    }\n\n    /** \n    * @dev Claim insurance\n    * @param insuranceID the id of the insurance\n    * @param companyId the id of the company\n    * @param mcId the id of the medical certificate\n    * @param beneficiaryID the id of beneficiary\n    * @param beneficiaryAddress the address of beneficiary\n    * @param name the name of the life assured\n    * @param NRIC the NRIC of the life assured\n    */\n    function claim(uint256 insuranceID,uint256 companyId, \n    uint256 mcId,uint256 beneficiaryID,\n    address beneficiaryAddress,\n    string memory name, string memory NRIC) \n    external validBeneficiary(insuranceID, beneficiaryID)\n    {\n        //step1: ask for cert from hospital\n        emit askingCert(insuranceID);\n\n        //step2: tell insurance company to pay back\n        autoTransfer(insuranceID, companyId, mcId, beneficiaryAddress, name, NRIC);\n        emit claimingFromComp(insuranceID,mcId);\n    }\n\n    //  /** \n    // * @dev check stakeholder details and mc details, if correct auto transfer money\n    // * @param  {uint256} insuranceId, {uint256} companyId,{uint256} _hospitalId,{bytes} mcId\n    // */\n    function autoTransfer(uint256 insuranceId,uint256 companyId,uint256 mcId,\n    address beneficiaryAddress,string memory name, string memory NRIC) private {\n        // Insurance memory insurance = insuranceInstance.getInsurance(insuranceId);\n        require(insurances[insuranceId].status == Insurance.status.paid, \"Stakeholder haven't paid the insurance!\");\n        //insurance valid from date \n        require(insurances[insuranceId].issueDate * 100 + 90 days >= block.timestamp, \"Haven't take effect!\");\n\n        require(keccak256(abi.encodePacked(hospitalInstance.getMCName(mcId))) == keccak256(abi.encodePacked(name)) && \n        keccak256(abi.encodePacked(hospitalInstance.getMCNRIC(mcId))) ==  keccak256(abi.encodePacked(NRIC)), \n        \"Invalid life assured name and NRIC!\");\n        //cert if its suicide\n        if(hospitalInstance.getMCCategory(mcId) == MedicalCertificate.certCategory.suicide) {  \n            require(insurances[insuranceId].issueDate * 100 + 2*365 days >= block.timestamp, \"If suicide cannot claim within 2 years!\");\n        }\n\n        uint256 value = insurances[insuranceId].insuredAmount;\n        insuranceCompany storage company = companies[companyId];\n\n        address companyOwner  = address(company.owner);\n        require(trustinsureInstance.checkInsure(companyOwner) >= value,\"not enough TrustInsure to pay!\");\n        \n        trustinsureInstance.transferFromInsure(companyOwner, beneficiaryAddress, value);\n        insurances[insuranceId].status = Insurance.status.claimed;\n        emit transfer(beneficiaryAddress, value);\n    }\n\n    // /**\n    // * @dev Allow insurance market to update requests\n    // * @return bool whether added successfullly\n    // * @return uint256 numOfReq request id\n    // */\n    function addRequestLists(uint256 _buyerId, uint256 _companyId, string memory contact, string memory _typeProduct) \n    external \n    returns(bool, uint256) \n    {\n        Request storage req =  companies[_companyId].requestLists.push();\n        \n        numOfReq++;\n        req.reqId = numOfReq;\n        req.buyerId =  _buyerId;\n        req.contact = contact;\n        req.productType = _typeProduct;\n        req.status = requestStatus.pending;\n        return (true, numOfReq);\n    }\n\n    // /**\n    // * @dev Allow insurance company check all requests\n    // */\n    function checkRequestsFromCompany(uint256 companyId) \n    public validCompanyId(companyId) ownerOnly(companyId) \n    {\n        Request[] memory reqs = companies[companyId].requestLists;\n        uint256[] memory requestids = new uint256[](reqs.length);\n        uint256[] memory buyerids = new uint256[](reqs.length);\n        string[] memory buyercontacts= new string[](reqs.length);\n        string[] memory producttypes = new string[](reqs.length);\n\n        //only show those pending requests\n        for(uint256 i = 0;i< reqs.length;i++) {\n            if (reqs[i].status == requestStatus.pending) {\n                requestids[i] = reqs[i].reqId;\n                buyerids[i] = reqs[i].buyerId;\n                buyercontacts[i] = reqs[i].contact;\n                producttypes[i] = reqs[i].productType;\n            }\n        }\n\n        emit allRequests(requestids,\n        buyerids,\n        buyercontacts,\n        producttypes);\n       \n    }\n    \n    // /**\n    // * @dev Allow insurance company reject request\n    // */\n    function rejectRequest(uint256 requestId,uint256 companyId) public\n    validCompanyId(companyId) ownerOnly(companyId)  \n    {\n        require(requestId != 0, \"Input valid requestId!\");\n\n        uint256 index;\n        Request[] memory reqs = companies[companyId].requestLists;\n        uint256 length = reqs.length;\n        bool find = false;\n        for (uint256 i = 0; i < length; i++) {\n            if (reqs[i].reqId == requestId) {\n                index = i;\n                find = true;\n            }\n        }\n        \n        require(find == true, \"Invalid request id!\");\n        if (find) {\n            reqs[index].status = requestStatus.rejected;\n            emit requestReject(requestId);\n        }\n\n    }\n\n    // /**\n    // * @dev Allow stakeholder to check request status\n    // */\n    function checkRequestsFromStakeholder(uint256 companyId, uint256 requestId) external returns (requestStatus, uint256) {\n        require(requestId != 0, \"Invalid request id!\");\n\n        uint256 index;\n        Request[] memory reqs = companies[companyId].requestLists;\n        uint256 length = reqs.length;\n        bool find = false;\n        for (uint256 i = 0; i < length; i++) {\n            if (reqs[i].reqId == requestId) {\n                index = i;\n                find = true;\n            }\n        }\n        \n        require(find == true, \"You haven't requested!\");\n        if (find) {\n            emit checkRequest(reqs[index].status);\n        }\n        \n        return (reqs[index].status, reqs[index].insuranceId);\n    }\n    \n// =====================================================================================\n// getters\n// =====================================================================================\n    \n    //get the company credit\n    function getCredit(uint256 companyId) public view validCompanyId(companyId) returns (uint256) {\n        return companies[companyId].credit;\n    }\n\n    function getName(uint256 companyId) public view validCompanyId(companyId) returns (string memory) {\n        return companies[companyId].name;\n    }\n    \n    function getOwner(uint256 companyId) public view validCompanyId(companyId) returns (address) {\n        return companies[companyId].owner;\n    }\n    \n    function getCompanyId() public view returns(uint256) {\n        return ids[msg.sender];\n    }\n    \n\n    function getNumOfCompany() public view returns (uint256) {\n        return numOfCompany;\n    }\n\n}\n",
  "sourcePath": "/Users/lhhhhhy/Downloads/IS4302/IS4302_Group12/contracts/InsuranceCompany.sol",
  "compiler": {
    "name": "solc",
    "version": "0.8.12+commit.f00d7308.Emscripten.clang"
  },
  "schemaVersion": "3.4.11",
  "updatedAt": "2023-04-11T14:29:57.430Z",
  "networkType": "ethereum",
  "devdoc": {
    "kind": "dev",
    "methods": {
      "claim(uint256,uint256,uint256,uint256,address,string,string)": {
        "details": "Claim insurance",
        "params": {
          "NRIC": "the NRIC of the life assured",
          "beneficiaryAddress": "the address of beneficiary",
          "beneficiaryID": "the id of beneficiary",
          "companyId": "the id of the company",
          "insuranceID": "the id of the insurance",
          "mcId": "the id of the medical certificate",
          "name": "the name of the life assured"
        }
      },
      "createInsurance(uint256,uint256,uint256,uint256,uint8,uint256,uint256)": {
        "details": "Create the insurance",
        "params": {
          "companyId": "the id of the company",
          "expiryDateYYYYMMDD": "The date of the insurance will be expired",
          "insType0life1accident": "the type of insurance, 0 for life or 1 for accident insurance",
          "insuredAmount": "the total amount of payment when the insurnace is claimed",
          "issueDateYYYYMMDD": "The date of the insurance being created",
          "premium": "the total amount of premium fee that stakeholder should pay before claim",
          "stakeholderInfoId": "the id of the stakeholder info that created before"
        },
        "returns": {
          "_0": "uint256 insurance id"
        }
      },
      "createStakeholderInfo(uint256,uint256,uint256,uint256)": {
        "details": "Create related stakeholders profile for the insurance",
        "params": {
          "beneficiary": "the id of the stakeholder who will be benefited when the insurance is claimed",
          "lifeAssured": "the id of the stakeholder being assured",
          "payingAccount": "the id of the stakeholder who will receive the payment",
          "policyOwner": "the id of the stakeholder who want to purchase the insurance policy"
        },
        "returns": {
          "_0": "uint256 number of stakeholder"
        }
      },
      "payPremium(uint256,uint256,uint256,address)": {
        "details": "Allow the policy owner to pay the premium",
        "params": {
          "amount": "the id of the insurance",
          "insuranceId": "the id of the insurance",
          "policyOwner": "the address of policyowner",
          "policyOwnerID": "the id of the policy owner"
        }
      },
      "registerCompany(string)": {
        "details": "Register an insurance company",
        "params": {
          "name": "(string): the name of the new insurance company"
        },
        "returns": {
          "_0": "uint256 id of the company"
        }
      },
      "signInsurance(uint256,uint256,uint256)": {
        "details": "Allow the policyowner to verify the insurance contract information and sign",
        "params": {
          "companyId": "the id of the company",
          "insuranceId": "the id of the insurance",
          "policyOwnerID": "the id of the policy owner"
        }
      },
      "solveRequest(uint256,uint256,uint256)": {
        "details": "Update request status and related insurance information",
        "params": {
          "companyId": "the id of the company",
          "insuranceId": "the id of the insurance that the company created specific for the request",
          "requestId": "which request the company want to update and address"
        }
      }
    },
    "version": 1
  },
  "userdoc": {
    "kind": "user",
    "methods": {},
    "version": 1
  }
}