{
  "contractName": "Insurance",
  "abi": [
    {
      "inputs": [
        {
          "internalType": "contract Stakeholder",
          "name": "stakeholderAddress",
          "type": "address"
        },
        {
          "internalType": "contract InsuranceCompany",
          "name": "insuranceCompanyAddress",
          "type": "address"
        }
      ],
      "stateMutability": "nonpayable",
      "type": "constructor"
    },
    {
      "inputs": [
        {
          "internalType": "uint256",
          "name": "",
          "type": "uint256"
        }
      ],
      "name": "insurances",
      "outputs": [
        {
          "internalType": "uint256",
          "name": "ID",
          "type": "uint256"
        },
        {
          "internalType": "uint256",
          "name": "companyId",
          "type": "uint256"
        },
        {
          "components": [
            {
              "internalType": "uint256",
              "name": "policyOwner",
              "type": "uint256"
            },
            {
              "internalType": "uint256",
              "name": "beneficiary",
              "type": "uint256"
            },
            {
              "internalType": "uint256",
              "name": "lifeAssured",
              "type": "uint256"
            },
            {
              "internalType": "uint256",
              "name": "payingAccount",
              "type": "uint256"
            }
          ],
          "internalType": "struct Insurance.stakeholderInfo",
          "name": "stakeholders",
          "type": "tuple"
        },
        {
          "internalType": "uint256",
          "name": "insuredAmount",
          "type": "uint256"
        },
        {
          "internalType": "enum Insurance.insuranceType",
          "name": "insType",
          "type": "uint8"
        },
        {
          "internalType": "enum Insurance.status",
          "name": "status",
          "type": "uint8"
        },
        {
          "internalType": "uint256",
          "name": "issueDate",
          "type": "uint256"
        },
        {
          "internalType": "uint256",
          "name": "expiryDate",
          "type": "uint256"
        }
      ],
      "stateMutability": "view",
      "type": "function"
    },
    {
      "inputs": [],
      "name": "numInsurance",
      "outputs": [
        {
          "internalType": "uint256",
          "name": "",
          "type": "uint256"
        }
      ],
      "stateMutability": "view",
      "type": "function"
    },
    {
      "inputs": [],
      "name": "numStakeholder",
      "outputs": [
        {
          "internalType": "uint256",
          "name": "",
          "type": "uint256"
        }
      ],
      "stateMutability": "view",
      "type": "function"
    },
    {
      "inputs": [
        {
          "internalType": "uint256",
          "name": "",
          "type": "uint256"
        }
      ],
      "name": "stakeholderinfos",
      "outputs": [
        {
          "internalType": "uint256",
          "name": "policyOwner",
          "type": "uint256"
        },
        {
          "internalType": "uint256",
          "name": "beneficiary",
          "type": "uint256"
        },
        {
          "internalType": "uint256",
          "name": "lifeAssured",
          "type": "uint256"
        },
        {
          "internalType": "uint256",
          "name": "payingAccount",
          "type": "uint256"
        }
      ],
      "stateMutability": "view",
      "type": "function"
    },
    {
      "inputs": [
        {
          "internalType": "uint256",
          "name": "policyOwner",
          "type": "uint256"
        },
        {
          "internalType": "uint256",
          "name": "beneficiary",
          "type": "uint256"
        },
        {
          "internalType": "uint256",
          "name": "lifeAssured",
          "type": "uint256"
        },
        {
          "internalType": "uint256",
          "name": "payingAccount",
          "type": "uint256"
        }
      ],
      "name": "createStakeholderInfo",
      "outputs": [
        {
          "internalType": "uint256",
          "name": "",
          "type": "uint256"
        }
      ],
      "stateMutability": "nonpayable",
      "type": "function"
    },
    {
      "inputs": [
        {
          "internalType": "uint256",
          "name": "stakeholderInfoId",
          "type": "uint256"
        },
        {
          "internalType": "uint256",
          "name": "companyId",
          "type": "uint256"
        },
        {
          "internalType": "uint256",
          "name": "insuredAmount",
          "type": "uint256"
        },
        {
          "internalType": "enum Insurance.insuranceType",
          "name": "insType",
          "type": "uint8"
        },
        {
          "internalType": "uint256",
          "name": "issueDateYYYYMMDD",
          "type": "uint256"
        },
        {
          "internalType": "uint256",
          "name": "expiryDateYYYYMMDD",
          "type": "uint256"
        }
      ],
      "name": "createInsurance",
      "outputs": [
        {
          "internalType": "uint256",
          "name": "",
          "type": "uint256"
        }
      ],
      "stateMutability": "payable",
      "type": "function"
    },
    {
      "inputs": [
        {
          "internalType": "uint256",
          "name": "newBeneficiary",
          "type": "uint256"
        },
        {
          "internalType": "uint256",
          "name": "insuranceId",
          "type": "uint256"
        }
      ],
      "name": "setBeneficiary",
      "outputs": [],
      "stateMutability": "nonpayable",
      "type": "function"
    },
    {
      "inputs": [
        {
          "internalType": "enum Insurance.status",
          "name": "state",
          "type": "uint8"
        },
        {
          "internalType": "uint256",
          "name": "insuranceId",
          "type": "uint256"
        }
      ],
      "name": "updateStatus",
      "outputs": [],
      "stateMutability": "nonpayable",
      "type": "function"
    },
    {
      "inputs": [
        {
          "internalType": "uint256",
          "name": "date",
          "type": "uint256"
        },
        {
          "internalType": "uint256",
          "name": "insuranceId",
          "type": "uint256"
        }
      ],
      "name": "setExpiryDate",
      "outputs": [],
      "stateMutability": "nonpayable",
      "type": "function"
    },
    {
      "inputs": [
        {
          "internalType": "uint256",
          "name": "insuranceId",
          "type": "uint256"
        }
      ],
      "name": "getInsurance",
      "outputs": [
        {
          "components": [
            {
              "internalType": "uint256",
              "name": "ID",
              "type": "uint256"
            },
            {
              "internalType": "uint256",
              "name": "companyId",
              "type": "uint256"
            },
            {
              "components": [
                {
                  "internalType": "uint256",
                  "name": "policyOwner",
                  "type": "uint256"
                },
                {
                  "internalType": "uint256",
                  "name": "beneficiary",
                  "type": "uint256"
                },
                {
                  "internalType": "uint256",
                  "name": "lifeAssured",
                  "type": "uint256"
                },
                {
                  "internalType": "uint256",
                  "name": "payingAccount",
                  "type": "uint256"
                }
              ],
              "internalType": "struct Insurance.stakeholderInfo",
              "name": "stakeholders",
              "type": "tuple"
            },
            {
              "internalType": "uint256",
              "name": "insuredAmount",
              "type": "uint256"
            },
            {
              "internalType": "enum Insurance.insuranceType",
              "name": "insType",
              "type": "uint8"
            },
            {
              "internalType": "enum Insurance.status",
              "name": "status",
              "type": "uint8"
            },
            {
              "internalType": "uint256",
              "name": "issueDate",
              "type": "uint256"
            },
            {
              "internalType": "uint256",
              "name": "expiryDate",
              "type": "uint256"
            }
          ],
          "internalType": "struct Insurance.insurance",
          "name": "",
          "type": "tuple"
        }
      ],
      "stateMutability": "nonpayable",
      "type": "function"
    },
    {
      "inputs": [
        {
          "internalType": "uint256",
          "name": "insuranceId",
          "type": "uint256"
        }
      ],
      "name": "getInsuredAmount",
      "outputs": [
        {
          "internalType": "uint256",
          "name": "",
          "type": "uint256"
        }
      ],
      "stateMutability": "nonpayable",
      "type": "function"
    },
    {
      "inputs": [
        {
          "internalType": "uint256",
          "name": "insuranceId",
          "type": "uint256"
        }
      ],
      "name": "getIssueDate",
      "outputs": [
        {
          "internalType": "uint256",
          "name": "",
          "type": "uint256"
        }
      ],
      "stateMutability": "nonpayable",
      "type": "function"
    },
    {
      "inputs": [
        {
          "internalType": "uint256",
          "name": "insuranceId",
          "type": "uint256"
        }
      ],
      "name": "getExpiryDate",
      "outputs": [
        {
          "internalType": "uint256",
          "name": "",
          "type": "uint256"
        }
      ],
      "stateMutability": "nonpayable",
      "type": "function"
    },
    {
      "inputs": [
        {
          "internalType": "uint256",
          "name": "insuranceId",
          "type": "uint256"
        }
      ],
      "name": "getInsuranceCompany",
      "outputs": [
        {
          "internalType": "uint256",
          "name": "",
          "type": "uint256"
        }
      ],
      "stateMutability": "nonpayable",
      "type": "function"
    },
    {
      "inputs": [
        {
          "internalType": "uint256",
          "name": "insuranceId",
          "type": "uint256"
        }
      ],
      "name": "getStatus",
      "outputs": [
        {
          "internalType": "enum Insurance.status",
          "name": "",
          "type": "uint8"
        }
      ],
      "stateMutability": "nonpayable",
      "type": "function"
    },
    {
      "inputs": [
        {
          "internalType": "uint256",
          "name": "insuranceId",
          "type": "uint256"
        }
      ],
      "name": "getBeneficiary",
      "outputs": [
        {
          "internalType": "uint256",
          "name": "",
          "type": "uint256"
        }
      ],
      "stateMutability": "nonpayable",
      "type": "function"
    },
    {
      "inputs": [
        {
          "internalType": "uint256",
          "name": "stakeholderinfoId",
          "type": "uint256"
        }
      ],
      "name": "getPolicyOwner",
      "outputs": [
        {
          "internalType": "uint256",
          "name": "",
          "type": "uint256"
        }
      ],
      "stateMutability": "view",
      "type": "function"
    },
    {
      "inputs": [],
      "name": "autoTrigger",
      "outputs": [],
      "stateMutability": "nonpayable",
      "type": "function"
    }
  ],
  "bytecode": "0x60806040526000600255600060045534801561001a57600080fd5b50604051610c89380380610c8983398101604081905261003991610082565b600080546001600160a01b039384166001600160a01b031991821617909155600180549290931691161790556100bc565b6001600160a01b038116811461007f57600080fd5b50565b6000806040838503121561009557600080fd5b82516100a08161006a565b60208401519092506100b18161006a565b809150509250929050565b610bbe806100cb6000396000f3fe6080604052600436106101095760003560e01c8063703849d911610095578063ca00902111610064578063ca009021146103da578063d91f2a0b14610407578063e0e5c32414610427578063e22900ff14610447578063f558eb051461047757600080fd5b8063703849d91461036157806385fae602146103775780638edd5297146103a4578063b7ff5dae146103ba57600080fd5b80633fa3ab26116100dc5780633fa3ab26146101b75780635998f7751461021957806359fb49f9146102495780635c622a0e146102ec5780636833f2001461033157600080fd5b80630386660a1461010e5780631a1fc3a0146101515780632dd0b64014610173578063302df08314610186575b600080fd5b34801561011a57600080fd5b5061013e6101293660046108ec565b60009081526003602052604090206008015490565b6040519081526020015b60405180910390f35b34801561015d57600080fd5b5061017161016c366004610905565b610486565b005b61013e610181366004610927565b610536565b34801561019257600080fd5b5061013e6101a13660046108ec565b6000908152600360208190526040909120015490565b3480156101c357600080fd5b506101f96101d23660046108ec565b60056020526000908152604090208054600182015460028301546003909301549192909184565b604080519485526020850193909352918301526060820152608001610148565b34801561022557600080fd5b5061013e6102343660046108ec565b60009081526003602052604090206006015490565b34801561025557600080fd5b506102d86102643660046108ec565b60036020818152600092835260409283902080546001820154855160808101875260028401548152948301549385019390935260048201549484019490945260058101546060840152600681015460078201546008830154600990930154939493919260ff80831693610100909304169188565b6040516101489897969594939291906109b8565b3480156102f857600080fd5b506103246103073660046108ec565b600090815260036020526040902060070154610100900460ff1690565b6040516101489190610a2e565b34801561033d57600080fd5b5061013e61034c3660046108ec565b60009081526003602052604090206009015490565b34801561036d57600080fd5b5061013e60025481565b34801561038357600080fd5b506103976103923660046108ec565b61065b565b6040516101489190610a42565b3480156103b057600080fd5b5061013e60045481565b3480156103c657600080fd5b506101716103d5366004610acd565b610768565b3480156103e657600080fd5b5061013e6103f53660046108ec565b60009081526005602052604090205490565b34801561041357600080fd5b50610171610422366004610905565b6107a1565b34801561043357600080fd5b5061013e610442366004610afd565b610824565b34801561045357600080fd5b5061013e6104623660046108ec565b60009081526003602052604090206001015490565b34801561048357600080fd5b50005b6000805482825260036020526040918290206002015491516315593d9160e21b8152839233926001600160a01b031691635564f644916104cc9160040190815260200190565b602060405180830381865afa1580156104e9573d6000803e3d6000fd5b505050506040513d601f19601f8201168201806040525081019061050d9190610b2f565b6001600160a01b03161461052057600080fd5b5060009081526003602081905260409091200155565b600034662386f26fc10000146105ac5760405162461bcd60e51b815260206004820152603060248201527f302e303120455448206973206e656564656420746f20696e697469616c69736560448201526f2061206e657720696e737572616e636560801b60648201526084015b60405180910390fd5b600280549060006105bc83610b5f565b90915550506002805460009081526003602081815260408084208c85526005928390529320805484860155600180820154858501559481015460048501559091015490820155818101889055600681018790556007810180549192879260ff191690838181111561062f5761062f61097e565b021790555060078101805461ff0019169055600881019390935550600990910155505060025492915050565b61066361086d565b60036000838152602001908152602001600020604051806101000160405290816000820154815260200160018201548152602001600282016040518060800160405290816000820154815260200160018201548152602001600282015481526020016003820154815250508152602001600682015481526020016007820160009054906101000a900460ff1660018111156107005761070061097e565b60018111156107115761071161097e565b81526020016007820160019054906101000a900460ff1660058111156107395761073961097e565b600581111561074a5761074a61097e565b81526008820154602082015260099091015460409091015292915050565b6000818152600360205260409020600701805483919061ff0019166101008360058111156107985761079861097e565b02179055505050565b6000818152600360205260409020600901546108105760405162461bcd60e51b815260206004820152602860248201527f45787069727920646174652068617320616c7265616479206265656e20696e696044820152671d1a585b1a5cd95960c21b60648201526084016105a3565b600090815260036020526040902060090155565b600480546000918261083583610b5f565b909155505060048054600090815260056020526040902095865560018601949094555060028401919091556003909201919091555490565b60405180610100016040528060008152602001600081526020016108b26040518060800160405280600081526020016000815260200160008152602001600081525090565b815260200160008152602001600060018111156108d1576108d161097e565b81526020016000815260200160008152602001600081525090565b6000602082840312156108fe57600080fd5b5035919050565b6000806040838503121561091857600080fd5b50508035926020909101359150565b60008060008060008060c0878903121561094057600080fd5b86359550602087013594506040870135935060608701356002811061096457600080fd5b9598949750929560808101359460a0909101359350915050565b634e487b7160e01b600052602160045260246000fd5b600281106109a4576109a461097e565b9052565b600681106109a4576109a461097e565b8881526020810188905261016081016109f56040830189805182526020810151602083015260408101516040830152606081015160608301525050565b8660c0830152610a0860e0830187610994565b610a166101008301866109a8565b61012082019390935261014001529695505050505050565b60208101610a3c82846109a8565b92915050565b81518152602080830151818301526040808401518051828501529182015160608085019190915290820151608084015281015160a083015261016082019050606083015160c08301526080830151610a9d60e0840182610994565b5060a0830151610ab16101008401826109a8565b5060c083015161012083015260e0909201516101409091015290565b60008060408385031215610ae057600080fd5b823560068110610aef57600080fd5b946020939093013593505050565b60008060008060808587031215610b1357600080fd5b5050823594602084013594506040840135936060013592509050565b600060208284031215610b4157600080fd5b81516001600160a01b0381168114610b5857600080fd5b9392505050565b6000600019821415610b8157634e487b7160e01b600052601160045260246000fd5b506001019056fea2646970667358221220179c2745f271a466d549b4611c661a7f466371aece60311b426966d23417ae0264736f6c634300080c0033",
  "immutableReferences": {},
  "source": "pragma solidity ^0.8.12;\npragma experimental ABIEncoderV2;\nimport \"./Stakeholder.sol\";\nimport \"./InsuranceCompany.sol\";\n\ncontract Insurance {\n    Stakeholder stakeholderContract;\n    InsuranceCompany insuranceCompanyContract;\n    \n    enum insuranceType { life, accident }\n    enum status { unapproved, processing,  unpaid, paid, claimed, unclaimed}\n    enum reasonType { suicide, others }\n\n    struct stakeholderInfo {\n        uint256 policyOwner;\n        uint256 beneficiary;\n        uint256 lifeAssured;\n        uint256 payingAccount;\n\n    }\n\n    struct insurance {\n        uint256 ID;\n        uint256 companyId;\n        stakeholderInfo stakeholders;\n        uint256 insuredAmount;\n        insuranceType insType;\n        status status;//\n        uint256 issueDate;\n        uint256 expiryDate;//\n    }\n    \n    uint256 public numInsurance = 0;\n    mapping(uint256 => insurance) public insurances;\n\n    uint256 public numStakeholder = 0;\n    mapping(uint256 => stakeholderInfo) public stakeholderinfos;\n\n    constructor (Stakeholder stakeholderAddress, InsuranceCompany insuranceCompanyAddress) public {\n        stakeholderContract = stakeholderAddress;\n        insuranceCompanyContract = insuranceCompanyAddress;\n    }\n\n    function createStakeholderInfo (uint256 policyOwner,\n        uint256  beneficiary,\n        uint256 lifeAssured,\n        uint256 payingAccount) \n    public returns(uint256) {\n        numStakeholder++;\n        stakeholderInfo storage newInfo = stakeholderinfos[numStakeholder];\n        \n        newInfo.policyOwner = policyOwner;\n        newInfo.beneficiary = beneficiary;\n        newInfo.lifeAssured = lifeAssured;\n        newInfo.payingAccount = payingAccount;\n        \n        return numStakeholder;\n    }\n\n    //  /** \n    // * @dev function to create a new insurance, and add to 'insurances' map. requires at least 0.01ETH to create\n    // * @return uint256 new insurance id\n    // */\n    function createInsurance(\n        uint stakeholderInfoId,\n        uint256 companyId,\n        uint256 insuredAmount,\n        insuranceType insType,\n        uint256 issueDateYYYYMMDD,\n        uint256 expiryDateYYYYMMDD\n    ) public payable returns(uint256) {\n        require(msg.value == 0.01 ether, \"0.01 ETH is needed to initialise a new insurance\"); // registering fee for insurance, not the payment for the actual insurance\n        \n        numInsurance++;\n        //new insurance object\n        insurance storage newInsurance = insurances[numInsurance];\n        newInsurance.stakeholders = stakeholderinfos[stakeholderInfoId];\n        newInsurance.companyId = companyId;\n        newInsurance.insuredAmount = insuredAmount;\n        newInsurance.insType = insType;\n        newInsurance.status = status.unapproved; // initialise  status to unapproved\n        newInsurance.issueDate = issueDateYYYYMMDD;\n        newInsurance.expiryDate = expiryDateYYYYMMDD; // initialise expiry date to 0\n        \n        return numInsurance;   //return new insurance Id\n    }\n\n    //modifier to ensure a function is callable only by its policy owner    \n    modifier policyOwnerOnly(uint256 insuranceId) {\n        //stakeholderContract.getStakeholderAddress(uint256 stakeholderID)\n        require(stakeholderContract.getStakeholderAddress(insurances[insuranceId].stakeholders.policyOwner) ==  msg.sender);\n        _;\n    }\n\n    //modifier to ensure a function is callable only by its insurance company   \n    // modifier companyOnly(uint256 insuranceId) {\n    //     require(insurances[insuranceId].company == msg.sender);\n    //     _;\n    // }\n\n    // SETTERS \n\n    function setBeneficiary(uint256 newBeneficiary, uint256 insuranceId) public policyOwnerOnly(insuranceId) {\n        insurances[insuranceId].stakeholders.beneficiary = newBeneficiary;\n    }\n\n    function updateStatus(status state, uint256 insuranceId) public { //policyOwnerOnly(insuranceId) {\n        insurances[insuranceId].status = state;\n    }\n\n    function setExpiryDate(uint256 date, uint256 insuranceId) public {//companyOnly(insuranceId) {\n\t    require(insurances[insuranceId].expiryDate != 0, \"Expiry date has already been initialised\");\n        insurances[insuranceId].expiryDate = date;\n\n    }\n    // GETTERS\n\n    function getInsurance(uint256 insuranceId) public returns (insurance memory) {\n        return insurances[insuranceId];\n    }\n\n    function getInsuredAmount(uint256 insuranceId) public returns (uint256) {\n        return insurances[insuranceId].insuredAmount;\n    }\n\n    function getIssueDate(uint256 insuranceId) public returns (uint256) {\n        return insurances[insuranceId].issueDate;\n    }\n\n    function getExpiryDate(uint256 insuranceId) public returns (uint256) {\n        return insurances[insuranceId].expiryDate;\n    }\n\n    function getInsuranceCompany(uint256 insuranceId) public returns (uint256) {\n        return insurances[insuranceId].companyId;\n    }\n\n    function getStatus(uint256 insuranceId) public returns (status) {\n        return insurances[insuranceId].status;\n    }\n\n    function getBeneficiary(uint256 insuranceId) public returns (uint256) {\n        return insurances[insuranceId].stakeholders.beneficiary;\n    }\n\n    function getPolicyOwner(uint256 stakeholderinfoId) public view returns (uint256) {\n        return stakeholderinfos[stakeholderinfoId].policyOwner;\n    }\n\n    function autoTrigger() public {\n        // if not enough, after one month, check again.\n        // otherwise, terminate the insurance until stakeholder could pay\n    }\n}",
  "sourcePath": "/Users/yco/Desktop/IS4302/IS4302_Group12/contracts/Insurance.sol",
  "compiler": {
    "name": "solc",
    "version": "0.8.12+commit.f00d7308.Emscripten.clang"
  },
  "schemaVersion": "3.4.11",
  "updatedAt": "2023-03-31T14:36:33.251Z",
  "devdoc": {
    "kind": "dev",
    "methods": {},
    "version": 1
  },
  "userdoc": {
    "kind": "user",
    "methods": {},
    "version": 1
  }
}