{
  "contractName": "InsuranceCompany",
  "abi": [
    {
      "inputs": [
        {
          "internalType": "contract Insurance",
          "name": "insuranceAddress",
          "type": "address"
        },
        {
          "internalType": "contract Stakeholder",
          "name": "stakeholderAddress",
          "type": "address"
        },
        {
          "internalType": "contract MedicalCertificate",
          "name": "medicalCertInstanceAddress",
          "type": "address"
        },
        {
          "internalType": "contract TrustInsure",
          "name": "trustinsureInstanceAddress",
          "type": "address"
        }
      ],
      "stateMutability": "nonpayable",
      "type": "constructor"
    },
    {
      "anonymous": false,
      "inputs": [
        {
          "indexed": false,
          "internalType": "uint256[]",
          "name": "requestids",
          "type": "uint256[]"
        },
        {
          "indexed": false,
          "internalType": "uint256[]",
          "name": "buyerids",
          "type": "uint256[]"
        },
        {
          "indexed": false,
          "internalType": "string[]",
          "name": "buyercontacts",
          "type": "string[]"
        },
        {
          "indexed": false,
          "internalType": "string[]",
          "name": "producttypes",
          "type": "string[]"
        },
        {
          "indexed": false,
          "internalType": "enum InsuranceCompany.requestStatus[]",
          "name": "statuses",
          "type": "uint8[]"
        }
      ],
      "name": "allRequests",
      "type": "event"
    },
    {
      "anonymous": false,
      "inputs": [
        {
          "indexed": false,
          "internalType": "enum InsuranceCompany.requestStatus",
          "name": "status",
          "type": "uint8"
        }
      ],
      "name": "checkRequest",
      "type": "event"
    },
    {
      "anonymous": false,
      "inputs": [
        {
          "indexed": false,
          "internalType": "uint256",
          "name": "insuranceId",
          "type": "uint256"
        }
      ],
      "name": "create",
      "type": "event"
    },
    {
      "anonymous": false,
      "inputs": [],
      "name": "passedToStakeholder",
      "type": "event"
    },
    {
      "anonymous": false,
      "inputs": [
        {
          "indexed": false,
          "internalType": "uint256",
          "name": "requestId",
          "type": "uint256"
        }
      ],
      "name": "requestReject",
      "type": "event"
    },
    {
      "anonymous": false,
      "inputs": [
        {
          "indexed": false,
          "internalType": "uint256",
          "name": "requestId",
          "type": "uint256"
        }
      ],
      "name": "requestSolve",
      "type": "event"
    },
    {
      "anonymous": false,
      "inputs": [
        {
          "indexed": false,
          "internalType": "address",
          "name": "beneficiary",
          "type": "address"
        },
        {
          "indexed": false,
          "internalType": "uint256",
          "name": "amount",
          "type": "uint256"
        }
      ],
      "name": "transfer",
      "type": "event"
    },
    {
      "inputs": [
        {
          "internalType": "uint256",
          "name": "",
          "type": "uint256"
        }
      ],
      "name": "companies",
      "outputs": [
        {
          "internalType": "uint256",
          "name": "credit",
          "type": "uint256"
        },
        {
          "internalType": "string",
          "name": "name",
          "type": "string"
        },
        {
          "internalType": "address",
          "name": "owner",
          "type": "address"
        },
        {
          "internalType": "uint256",
          "name": "completed",
          "type": "uint256"
        }
      ],
      "stateMutability": "view",
      "type": "function"
    },
    {
      "inputs": [
        {
          "internalType": "string",
          "name": "name",
          "type": "string"
        }
      ],
      "name": "add",
      "outputs": [
        {
          "internalType": "uint256",
          "name": "",
          "type": "uint256"
        }
      ],
      "stateMutability": "payable",
      "type": "function"
    },
    {
      "inputs": [
        {
          "internalType": "uint256",
          "name": "policyOwner",
          "type": "uint256"
        },
        {
          "internalType": "uint256",
          "name": "beneficiary",
          "type": "uint256"
        },
        {
          "internalType": "uint256",
          "name": "lifeAssured",
          "type": "uint256"
        },
        {
          "internalType": "uint256",
          "name": "payingAccount",
          "type": "uint256"
        }
      ],
      "name": "createStakeholderInfo",
      "outputs": [
        {
          "internalType": "uint256",
          "name": "",
          "type": "uint256"
        }
      ],
      "stateMutability": "nonpayable",
      "type": "function"
    },
    {
      "inputs": [
        {
          "internalType": "uint256",
          "name": "stakeholderInfoId",
          "type": "uint256"
        },
        {
          "internalType": "uint256",
          "name": "companyId",
          "type": "uint256"
        },
        {
          "internalType": "uint256",
          "name": "insuredAmount",
          "type": "uint256"
        },
        {
          "internalType": "enum Insurance.insuranceType",
          "name": "insType",
          "type": "uint8"
        },
        {
          "internalType": "uint256",
          "name": "issueDateYYYYMMDD",
          "type": "uint256"
        },
        {
          "internalType": "uint256",
          "name": "expiryDateYYYYMMDD",
          "type": "uint256"
        }
      ],
      "name": "createInsurance",
      "outputs": [
        {
          "internalType": "uint256",
          "name": "",
          "type": "uint256"
        }
      ],
      "stateMutability": "payable",
      "type": "function"
    },
    {
      "inputs": [
        {
          "internalType": "uint256",
          "name": "companyId",
          "type": "uint256"
        },
        {
          "internalType": "uint256",
          "name": "requestId",
          "type": "uint256"
        }
      ],
      "name": "solveRequest",
      "outputs": [],
      "stateMutability": "nonpayable",
      "type": "function"
    },
    {
      "inputs": [
        {
          "internalType": "uint256",
          "name": "insuranceId",
          "type": "uint256"
        },
        {
          "internalType": "uint256",
          "name": "companyId",
          "type": "uint256"
        }
      ],
      "name": "signInsurance",
      "outputs": [],
      "stateMutability": "payable",
      "type": "function"
    },
    {
      "inputs": [
        {
          "internalType": "uint256",
          "name": "companyId",
          "type": "uint256"
        }
      ],
      "name": "updateCredit",
      "outputs": [],
      "stateMutability": "nonpayable",
      "type": "function"
    },
    {
      "inputs": [
        {
          "internalType": "uint256",
          "name": "insuranceId",
          "type": "uint256"
        },
        {
          "internalType": "uint256",
          "name": "companyId",
          "type": "uint256"
        },
        {
          "internalType": "uint256",
          "name": "_hospitalId",
          "type": "uint256"
        },
        {
          "internalType": "bytes",
          "name": "mcId",
          "type": "bytes"
        }
      ],
      "name": "autoTransfer",
      "outputs": [],
      "stateMutability": "payable",
      "type": "function"
    },
    {
      "inputs": [
        {
          "internalType": "uint256",
          "name": "_buyerId",
          "type": "uint256"
        },
        {
          "internalType": "uint256",
          "name": "_companyId",
          "type": "uint256"
        },
        {
          "internalType": "string",
          "name": "_typeProduct",
          "type": "string"
        }
      ],
      "name": "addRequestLists",
      "outputs": [
        {
          "internalType": "bool",
          "name": "",
          "type": "bool"
        },
        {
          "internalType": "uint256",
          "name": "",
          "type": "uint256"
        }
      ],
      "stateMutability": "nonpayable",
      "type": "function"
    },
    {
      "inputs": [
        {
          "internalType": "uint256",
          "name": "companyId",
          "type": "uint256"
        }
      ],
      "name": "checkRequestsFromCompany",
      "outputs": [],
      "stateMutability": "nonpayable",
      "type": "function"
    },
    {
      "inputs": [
        {
          "internalType": "uint256",
          "name": "companyId",
          "type": "uint256"
        },
        {
          "internalType": "uint256",
          "name": "requestId",
          "type": "uint256"
        }
      ],
      "name": "checkRequestsFromStakeholder",
      "outputs": [
        {
          "internalType": "enum InsuranceCompany.requestStatus",
          "name": "",
          "type": "uint8"
        }
      ],
      "stateMutability": "nonpayable",
      "type": "function"
    },
    {
      "inputs": [
        {
          "internalType": "uint256",
          "name": "companyId",
          "type": "uint256"
        }
      ],
      "name": "getCredit",
      "outputs": [
        {
          "internalType": "uint256",
          "name": "",
          "type": "uint256"
        }
      ],
      "stateMutability": "view",
      "type": "function"
    },
    {
      "inputs": [
        {
          "internalType": "uint256",
          "name": "companyId",
          "type": "uint256"
        }
      ],
      "name": "getName",
      "outputs": [
        {
          "internalType": "string",
          "name": "",
          "type": "string"
        }
      ],
      "stateMutability": "view",
      "type": "function"
    },
    {
      "inputs": [
        {
          "internalType": "uint256",
          "name": "companyId",
          "type": "uint256"
        }
      ],
      "name": "getOwner",
      "outputs": [
        {
          "internalType": "address",
          "name": "",
          "type": "address"
        }
      ],
      "stateMutability": "view",
      "type": "function"
    },
    {
      "inputs": [],
      "name": "getNumOfCompany",
      "outputs": [
        {
          "internalType": "uint256",
          "name": "",
          "type": "uint256"
        }
      ],
      "stateMutability": "view",
      "type": "function"
    }
  ],
  "bytecode": "0x6080604052600060045560006005553480156200001b57600080fd5b5060405162002aa638038062002aa68339810160408190526200003e91620000ab565b600080546001600160a01b039586166001600160a01b031991821617909155600180549486169482169490941790935560028054928516928416929092179091556003805491909316911617905562000113565b6001600160a01b0381168114620000a857600080fd5b50565b60008060008060808587031215620000c257600080fd5b8451620000cf8162000092565b6020860151909450620000e28162000092565b6040860151909350620000f58162000092565b6060860151909250620001088162000092565b939692955090935050565b61298380620001236000396000f3fe6080604052600436106100e85760003560e01c8063b0c8f9dc1161008a578063e057980711610059578063e057980714610276578063e0e5c32414610296578063e5c86f58146102b6578063f96b5080146102ed57600080fd5b8063b0c8f9dc146101eb578063c41a360a146101fe578063da304e4d14610236578063dd9937f71461025657600080fd5b80635d996701116100c65780635d9967011461015c57806362584ffe1461018957806367ade5f51461019e5780636b8ff574146101be57600080fd5b80632813d19d146100ed5780632dd0b64014610126578063452c475614610147575b600080fd5b3480156100f957600080fd5b5061010d610108366004612132565b610300565b60405161011d94939291906121a3565b60405180910390f35b6101396101343660046121e5565b6103bb565b60405190815260200161011d565b61015a61015536600461230c565b610505565b005b34801561016857600080fd5b5061017c610177366004612379565b610d45565b60405161011d91906123c5565b34801561019557600080fd5b50600554610139565b3480156101aa57600080fd5b5061015a6101b9366004612379565b611017565b3480156101ca57600080fd5b506101de6101d9366004612132565b611365565b60405161011d91906123d3565b6101396101f93660046123ed565b611419565b34801561020a57600080fd5b5061021e610219366004612132565b6114f5565b6040516001600160a01b03909116815260200161011d565b34801561024257600080fd5b50610139610251366004612132565b611526565b34801561026257600080fd5b5061015a610271366004612132565b61154b565b34801561028257600080fd5b5061015a610291366004612132565b611a68565b3480156102a257600080fd5b506101396102b136600461243d565b611b43565b3480156102c257600080fd5b506102d66102d136600461246f565b611bd1565b60408051921515835260208301919091520161011d565b61015a6102fb366004612379565b611cd1565b60066020526000908152604090208054600182018054919291610322906124ee565b80601f016020809104026020016040519081016040528092919081815260200182805461034e906124ee565b801561039b5780601f106103705761010080835404028352916020019161039b565b820191906000526020600020905b81548152906001019060200180831161037e57829003601f168201915b50505050600283015460039093015491926001600160a01b031691905084565b60008560055481106103cc57600080fd5b6000805460405162b742d960e61b81526001600160a01b0390911690632dd0b64090610406908c908c908c908c908c908c90600401612523565b6020604051808303816000875af1158015610425573d6000803e3d6000fd5b505050506040513d601f19601f820116820180604052508101906104499190612565565b90507f780900dcfb922770b66b73546245c9d725e14dd206326f4f8f5a706976c2b61d8160405161047c91815260200190565b60405180910390a160005460405163ca00902160e01b8152600481018b90526104f9916001600160a01b03169063ca00902190602401602060405180830381865afa1580156104cf573d6000803e3d6000fd5b505050506040513d601f19601f820116820180604052508101906104f39190612565565b82611f39565b98975050505050505050565b600054604051632e31150760e11b8152600481018690526003916001600160a01b031690635c622a0e906024016020604051808303816000875af1158015610551573d6000803e3d6000fd5b505050506040513d601f19601f820116820180604052508101906105759190612592565b60058111156105865761058661239b565b1461059057600080fd5b6000546040516301c3330560e11b81526004810186905242916001600160a01b031690630386660a906024016020604051808303816000875af11580156105db573d6000803e3d6000fd5b505050506040513d601f19601f820116820180604052508101906105ff9190612565565b61060c906276a7006125c3565b101561061757600080fd5b6000805460405163302df08360e01b8152600481018790526001600160a01b039091169063302df083906024016020604051808303816000875af1158015610663573d6000803e3d6000fd5b505050506040513d601f19601f820116820180604052508101906106879190612565565b600254604051633ca69bd160e21b81529192506000916001600160a01b039091169063f29a6f44906106bd9086906004016123d3565b600060405180830381865afa1580156106da573d6000803e3d6000fd5b505050506040513d6000823e601f3d908101601f19168201604052610702919081019061260b565b6040516020016107129190612653565b60408051808303601f19018152908290528051602090910120600154630b41709f60e31b8352600483018590529092506000916001600160a01b0390911690635a0b84f890602401600060405180830381865afa158015610777573d6000803e3d6000fd5b505050506040513d6000823e601f3d908101601f1916820160405261079f919081019061260b565b6040516020016107af91906123d3565b60408051601f19818403018152908290528051602090910120600254636a6429b360e11b83529092506000916001600160a01b039091169063d4c85366906107fb9088906004016123d3565b600060405180830381865afa158015610818573d6000803e3d6000fd5b505050506040513d6000823e601f3d908101601f19168201604052610840919081019061260b565b60405160200161085091906123d3565b60408051808303601f190181529082905280516020909101206001546388c2c51960e01b8352600483018790529092506000916001600160a01b03909116906388c2c51990602401600060405180830381865afa1580156108b5573d6000803e3d6000fd5b505050506040513d6000823e601f3d908101601f191682016040526108dd919081019061260b565b80519060200120905082841480156108f457508082145b6109455760405162461bcd60e51b815260206004820152601960248201527f4e6f74207468652073616d65207374616b65686f6c646572210000000000000060448201526064015b60405180910390fd5b600280546040516329efb4a960e01b81526001600160a01b03909116906329efb4a990610976908a906004016123d3565b602060405180830381865afa158015610993573d6000803e3d6000fd5b505050506040513d601f19601f820116820180604052508101906109b7919061266f565b60028111156109c8576109c861239b565b1415610a56576000546040516301c3330560e11b8152600481018b905242916001600160a01b031690630386660a906024016020604051808303816000875af1158015610a19573d6000803e3d6000fd5b505050506040513d601f19601f82011682018060405250810190610a3d9190612565565b610a4b906303c267006125c3565b1015610a5657600080fd5b60008054604051635998f77560e01b8152600481018c90526001600160a01b0390911690635998f775906024016020604051808303816000875af1158015610aa2573d6000803e3d6000fd5b505050506040513d601f19601f82011682018060405250810190610ac69190612565565b60008a8152600660205260409081902060028101546003549251635cdbb28560e11b81526001600160a01b0391821660048201819052949550919392859291169063b9b7650a90602401602060405180830381865afa158015610b2d573d6000803e3d6000fd5b505050506040513d601f19601f82011682018060405250810190610b519190612565565b1015610b9f5760405162461bcd60e51b815260206004820152601760248201527f6e6f7420656e6f75676820746f6b656e20746f20706179000000000000000000604482015260640161093c565b6000805460405163302df08360e01b8152600481018f90526001600160a01b039091169063302df083906024016020604051808303816000875af1158015610beb573d6000803e3d6000fd5b505050506040513d601f19601f82011682018060405250810190610c0f9190612565565b6003546040516303456ea360e41b81526001600160a01b038581166004830152808416602483015260448201889052929350911690633456ea3090606401600060405180830381600087803b158015610c6757600080fd5b505af1158015610c7b573d6000803e3d6000fd5b5050505060008054906101000a90046001600160a01b03166001600160a01b031663b7ff5dae60048f6040518363ffffffff1660e01b8152600401610cc1929190612690565b600060405180830381600087803b158015610cdb57600080fd5b505af1158015610cef573d6000803e3d6000fd5b5050604080516001600160a01b0385168152602081018890527fa9059cbb2ab09eb219583f4a59a5d0623ade346d962bcd4e46b11da047c9049b935001905060405180910390a150505050505050505050505050565b600081610d8a5760405162461bcd60e51b8152602060048201526013602482015272496e76616c696420726571756573742069642160681b604482015260640161093c565b600083815260066020908152604080832060050180548251818502810185019093528083528493849084015b82821015610ec157838290600052602060002090600402016040518060800160405290816000820154815260200160018201548152602001600282018054610dfd906124ee565b80601f0160208091040260200160405190810160405280929190818152602001828054610e29906124ee565b8015610e765780601f10610e4b57610100808354040283529160200191610e76565b820191906000526020600020905b815481529060010190602001808311610e5957829003601f168201915b5050509183525050600382015460209091019060ff166002811115610e9d57610e9d61239b565b6002811115610eae57610eae61239b565b8152505081526020019060010190610db6565b5050505090506000815190506000805b82811015610f185786848281518110610eec57610eec6126ae565b6020026020010151600001511415610f0657809450600191505b80610f10816126c4565b915050610ed1565b50600181151514610f915760405162461bcd60e51b815260206004820152603f60248201527f596f7520686176656e277420726571756573746564206f72207468652072657160448201527f756573742068617320616c7265616479206265656e20617070726f7665642100606482015260840161093c565b8015610fec577f2341ebb88dfa6ce59e54bdde82e9746e5a27fcd12a0d5d5ca812f1d01f4102e2838581518110610fca57610fca6126ae565b602002602001015160600151604051610fe391906123c5565b60405180910390a15b828481518110610ffe57610ffe6126ae565b6020026020010151606001519450505050505b92915050565b801561136157600082815260066020908152604080832060050180548251818502810185019093528083528493849084015b8282101561115457838290600052602060002090600402016040518060800160405290816000820154815260200160018201548152602001600282018054611090906124ee565b80601f01602080910402602001604051908101604052809291908181526020018280546110bc906124ee565b80156111095780601f106110de57610100808354040283529160200191611109565b820191906000526020600020905b8154815290600101906020018083116110ec57829003601f168201915b5050509183525050600382015460209091019060ff1660028111156111305761113061239b565b60028111156111415761114161239b565b8152505081526020019060010190611049565b5050505090506000815190506000805b828110156111ab578584828151811061117f5761117f6126ae565b602002602001015160000151141561119957809450600191505b806111a3816126c4565b915050611164565b506001811515146111f45760405162461bcd60e51b8152602060048201526013602482015272496e76616c696420726571756573742069642160681b604482015260640161093c565b801561135c5760008681526006602052604090206005016112166001846126df565b81548110611226576112266126ae565b906000526020600020906004020160066000888152602001908152602001600020600501858154811061125b5761125b6126ae565b906000526020600020906004020160008201548160000155600182015481600101556002820181600201908054611291906124ee565b61129c929190611fe1565b50600382810154908201805460ff9092169160ff191660018360028111156112c6576112c661239b565b0217905550505060008681526006602052604090206005018054806112ed576112ed6126f6565b600082815260208120600460001990930192830201818155600181018290559061131a600283018261206c565b50600301805460ff1916905590556040518581527fc01a711a994234663e49bcaf267235941ef164ac0dea30de367e8cdb0eeabd5a9060200160405180910390a15b505050505b5050565b606081600554811061137657600080fd5b60008381526006602052604090206001018054611392906124ee565b80601f01602080910402602001604051908101604052809291908181526020018280546113be906124ee565b801561140b5780601f106113e05761010080835404028352916020019161140b565b820191906000526020600020905b8154815290600101906020018083116113ee57829003601f168201915b505050505091505b50919050565b6000662386f26fc1000034116114895760405162461bcd60e51b815260206004820152602f60248201527f6174206c6561737420302e303120455448206973206e656564656420746f206360448201526e7265617465206120636f6d70616e7960881b606482015260840161093c565b6005805460009160069183918261149f836126c4565b909155508152602080820192909252604001600090812090815584519092506114d0916001840191908601906120a9565b506002810180546001600160a01b031916331790556000600390910155505060055490565b600081600554811061150657600080fd5b50506000908152600660205260409020600201546001600160a01b031690565b600081600554811061153757600080fd5b505060009081526006602052604090205490565b80600554811061155a57600080fd5b60008281526006602052604090206002015482906001600160a01b0316331461158257600080fd5b600083815260066020908152604080832060050180548251818502810185019093528083529192909190849084015b828210156116bc578382906000526020600020906004020160405180608001604052908160008201548152602001600182015481526020016002820180546115f8906124ee565b80601f0160208091040260200160405190810160405280929190818152602001828054611624906124ee565b80156116715780601f1061164657610100808354040283529160200191611671565b820191906000526020600020905b81548152906001019060200180831161165457829003601f168201915b5050509183525050600382015460209091019060ff1660028111156116985761169861239b565b60028111156116a9576116a961239b565b81525050815260200190600101906115b1565b505050509050600081516001600160401b038111156116dd576116dd612238565b604051908082528060200260200182016040528015611706578160200160208202803683370190505b509050600082516001600160401b0381111561172457611724612238565b60405190808252806020026020018201604052801561174d578160200160208202803683370190505b509050600083516001600160401b0381111561176b5761176b612238565b60405190808252806020026020018201604052801561179e57816020015b60608152602001906001900390816117895790505b509050600084516001600160401b038111156117bc576117bc612238565b6040519080825280602002602001820160405280156117ef57816020015b60608152602001906001900390816117da5790505b509050600085516001600160401b0381111561180d5761180d612238565b604051908082528060200260200182016040528015611836578160200160208202803683370190505b50905060005b8651811015611a1d57868181518110611857576118576126ae565b602002602001015160000151868281518110611875576118756126ae565b602002602001018181525050868181518110611893576118936126ae565b6020026020010151602001518582815181106118b1576118b16126ae565b602090810291909101015260015487516001600160a01b0390911690635481e699908990849081106118e5576118e56126ae565b6020026020010151602001516040518263ffffffff1660e01b815260040161190f91815260200190565b600060405180830381865afa15801561192c573d6000803e3d6000fd5b505050506040513d6000823e601f3d908101601f19168201604052611954919081019061260b565b848281518110611966576119666126ae565b6020026020010181905250868181518110611983576119836126ae565b6020026020010151604001518382815181106119a1576119a16126ae565b60200260200101819052508681815181106119be576119be6126ae565b6020026020010151606001518282815181106119dc576119dc6126ae565b602002602001019060028111156119f5576119f561239b565b90816002811115611a0857611a0861239b565b90525080611a15816126c4565b91505061183c565b507fe6c75ee9cdd3e628203f6e03ddbecea0e9472f78039061cde763650d2880f7b78585858585604051611a5595949392919061279c565b60405180910390a1505050505050505050565b806005548110611a7757600080fd5b6000828152600660205260409020600381015460328110801590611a9c575060c88111155b15611aaa5760018255611b3d565b60c881118015611abc575061015e8111155b15611aca5760028255611b3d565b61015e81118015611add57506101c28111155b15611aeb5760038255611b3d565b6101c281118015611afe57506103208111155b15611b0c5760048255611b3d565b61032081118015611b1f57506107d08111155b15611b2d5760058255611b3d565b6107d0811115611b3d576103e782555b50505050565b6000805460405163383970c960e21b8152600481018790526024810186905260448101859052606481018490526001600160a01b039091169063e0e5c324906084016020604051808303816000875af1158015611ba4573d6000803e3d6000fd5b505050506040513d601f19601f82011682018060405250810190611bc89190612565565b95945050505050565b6000806000604051806080016040528060046000815480929190611bf4906126c4565b91905055815260200188815260200186868080601f016020809104026020016040519081016040528093929190818152602001838380828437600092019190915250505090825250602001600290526000878152600660209081526040808320600501805460018181018355918552938390208551600490950201938455828501519084015583015180519394508493611c9492600285019201906120a9565b50606082015160038201805460ff19166001836002811115611cb857611cb861239b565b0217905550506004546001999098509650505050505050565b60008181526006602052604090206002015481906001600160a01b03163314611cf957600080fd5b816005548110611d0857600080fd5b600083815260066020526040808220825491516342fd730160e11b8152600481018890529092916001600160a01b0316906385fae60290602401610160604051808303816000875af1158015611d62573d6000803e3d6000fd5b505050506040513d601f19601f82011682018060405250810190611d8691906128a6565b905060008054604051632e31150760e11b8152600481018990526001600160a01b0390911690635c622a0e906024016020604051808303816000875af1158015611dd4573d6000803e3d6000fd5b505050506040513d601f19601f82011682018060405250810190611df89190612592565b6005811115611e0957611e0961239b565b1415611e575760405162461bcd60e51b815260206004820152601c60248201527f6e6f7420617070726f7665642062792062656e65666963696172792100000000604482015260640161093c565b600086815260048084016020908152604092839020845181558185015160018083019190915584860151805160028401559283015160038301559382015192810192909255606090810151600583015583015160068201556080830151600782018054859460ff19909116908381811115611ed457611ed461239b565b021790555060a082015160078201805461ff001916610100836005811115611efe57611efe61239b565b021790555060c0820151600882015560e090910151600990910155600382018054906000611f2b836126c4565b919050555061135c85611a68565b600154604051635bc0350b60e01b815260048101839052602481018490526001600160a01b0390911690635bc0350b906044016020604051808303816000875af1158015611f8b573d6000803e3d6000fd5b505050506040513d601f19601f82011682018060405250810190611faf919061292b565b15611361576040517ffd265f281a37bbbf104e4de1008abc2b56ec226bc100c48a5124c5ae01e4225d90600090a15050565b828054611fed906124ee565b90600052602060002090601f01602090048101928261200f576000855561205c565b82601f10612020578054855561205c565b8280016001018555821561205c57600052602060002091601f016020900482015b8281111561205c578254825591600101919060010190612041565b5061206892915061211d565b5090565b508054612078906124ee565b6000825580601f10612088575050565b601f0160209004906000526020600020908101906120a6919061211d565b50565b8280546120b5906124ee565b90600052602060002090601f0160209004810192826120d7576000855561205c565b82601f106120f057805160ff191683800117855561205c565b8280016001018555821561205c579182015b8281111561205c578251825591602001919060010190612102565b5b80821115612068576000815560010161211e565b60006020828403121561214457600080fd5b5035919050565b60005b8381101561216657818101518382015260200161214e565b83811115611b3d5750506000910152565b6000815180845261218f81602086016020860161214b565b601f01601f19169290920160200192915050565b8481526080602082015260006121bc6080830186612177565b6001600160a01b03949094166040830152506060015292915050565b600281106120a657600080fd5b60008060008060008060c087890312156121fe57600080fd5b863595506020870135945060408701359350606087013561221e816121d8565b9598949750929560808101359460a0909101359350915050565b634e487b7160e01b600052604160045260246000fd5b60405161010081016001600160401b038111828210171561227157612271612238565b60405290565b604051601f8201601f191681016001600160401b038111828210171561229f5761229f612238565b604052919050565b60006001600160401b038211156122c0576122c0612238565b50601f01601f191660200190565b60006122e16122dc846122a7565b612277565b90508281528383830111156122f557600080fd5b828260208301376000602084830101529392505050565b6000806000806080858703121561232257600080fd5b84359350602085013592506040850135915060608501356001600160401b0381111561234d57600080fd5b8501601f8101871361235e57600080fd5b61236d878235602084016122ce565b91505092959194509250565b6000806040838503121561238c57600080fd5b50508035926020909101359150565b634e487b7160e01b600052602160045260246000fd5b600381106123c1576123c161239b565b9052565b6020810161101182846123b1565b6020815260006123e66020830184612177565b9392505050565b6000602082840312156123ff57600080fd5b81356001600160401b0381111561241557600080fd5b8201601f8101841361242657600080fd5b612435848235602084016122ce565b949350505050565b6000806000806080858703121561245357600080fd5b5050823594602084013594506040840135936060013592509050565b6000806000806060858703121561248557600080fd5b843593506020850135925060408501356001600160401b03808211156124aa57600080fd5b818701915087601f8301126124be57600080fd5b8135818111156124cd57600080fd5b8860208285010111156124df57600080fd5b95989497505060200194505050565b600181811c9082168061250257607f821691505b6020821081141561141357634e487b7160e01b600052602260045260246000fd5b868152602081018690526040810185905260c08101600285106125485761254861239b565b8460608301528360808301528260a0830152979650505050505050565b60006020828403121561257757600080fd5b5051919050565b80516006811061258d57600080fd5b919050565b6000602082840312156125a457600080fd5b6123e68261257e565b634e487b7160e01b600052601160045260246000fd5b600082198211156125d6576125d66125ad565b500190565b60006125e96122dc846122a7565b90508281528383830111156125fd57600080fd5b6123e683602083018461214b565b60006020828403121561261d57600080fd5b81516001600160401b0381111561263357600080fd5b8201601f8101841361264457600080fd5b612435848251602084016125db565b6000825161266581846020870161214b565b9190910192915050565b60006020828403121561268157600080fd5b8151600381106123e657600080fd5b60408101600684106126a4576126a461239b565b9281526020015290565b634e487b7160e01b600052603260045260246000fd5b60006000198214156126d8576126d86125ad565b5060010190565b6000828210156126f1576126f16125ad565b500390565b634e487b7160e01b600052603160045260246000fd5b600081518084526020808501945080840160005b8381101561273c57815187529582019590820190600101612720565b509495945050505050565b600081518084526020808501808196508360051b8101915082860160005b8581101561278f57828403895261277d848351612177565b98850198935090840190600101612765565b5091979650505050505050565b60a0815260006127af60a083018861270c565b6020838203818501526127c2828961270c565b915083820360408501526127d68288612747565b915083820360608501526127ea8287612747565b8481036080860152855180825282870193509082019060005b81811015612826576128168386516123b1565b9383019391830191600101612803565b50909a9950505050505050505050565b60006080828403121561284857600080fd5b604051608081018181106001600160401b038211171561286a5761286a612238565b8060405250809150825181526020830151602082015260408301516040820152606083015160608201525092915050565b805161258d816121d8565b600061016082840312156128b957600080fd5b6128c161224e565b82518152602083015160208201526128dc8460408501612836565b604082015260c083015160608201526128f760e0840161289b565b6080820152612909610100840161257e565b60a082015261012083015160c08201526101409092015160e083015250919050565b60006020828403121561293d57600080fd5b815180151581146123e657600080fdfea26469706673582212202f4b83f6e4c6d9fbc25c486c0b3c1627be593fba248b5d14b2946b0a138102f564736f6c634300080c0033",
  "immutableReferences": {},
  "source": "pragma solidity ^0.8.12;\npragma experimental ABIEncoderV2;\nimport \"./Insurance.sol\";\nimport \"./Stakeholder.sol\";\nimport \"./MedicalCert.sol\";\nimport \"./TrustInsure.sol\";\n\ncontract InsuranceCompany {\n\n    Insurance insuranceInstance;\n    Stakeholder stakeholderInstance;\n    MedicalCertificate medicalCertInstance;\n    TrustInsure trustinsureInstance;\n    enum requestStatus {approved, rejected, pending}\n\n    struct insuranceCompany {\n        uint256 credit;\n        string name;\n        address owner;\n        uint256 completed; //number range to stars\n        mapping(uint256 => Insurance.insurance) insuranceId;\n        Request[] requestLists;//!!!!!company only could have at most ten requests, they need to fast approve!!!!!!//\n    }\n\n    struct Request {\n        uint256 reqId;\n        uint256 buyerId;\n        string productType;\n        requestStatus status;\n    }\n\n    constructor(Insurance insuranceAddress, Stakeholder stakeholderAddress, \n    MedicalCertificate medicalCertInstanceAddress, TrustInsure trustinsureInstanceAddress) public {\n        insuranceInstance = insuranceAddress;\n        stakeholderInstance = stakeholderAddress;\n        medicalCertInstance = medicalCertInstanceAddress;    \n        trustinsureInstance = trustinsureInstanceAddress;   \n    }\n\n    uint256 numOfReq = 0;\n    uint256 numOfCompany = 0;\n    mapping(uint256 => insuranceCompany) public companies;\n    \n\n    event create (uint256 insuranceId);\n    event transfer (address beneficiary, uint256 amount);\n    event allRequests(uint256[] requestids,\n        uint256[] buyerids,\n        string[] buyercontacts,\n        string[] producttypes,\n        requestStatus[] statuses);\n    event requestSolve(uint256 requestId);\n    event requestReject(uint256 requestId);\n    event passedToStakeholder();\n    event checkRequest(requestStatus status);\n\n\n// =====================================================================================\n// modifiers\n// =====================================================================================\n   \n    modifier ownerOnly(uint256 companyId) {\n        require(companies[companyId].owner == msg.sender);\n        _;\n    }\n    \n    modifier validCompanyId(uint256 companyId) {\n        require(companyId < numOfCompany);\n        _;\n    }\n\n// =====================================================================================\n// functions\n// =====================================================================================\n\n\n    // /**\n    // * @dev Company register\n    // * @param name the name of the company\n    // * @return uint256 id of the company\n    // */\n    function add(string memory name) public payable returns(uint256) {\n        require(msg.value > 0.01 ether, \"at least 0.01 ETH is needed to create a company\");\n        insuranceCompany storage newCompany = companies[numOfCompany++];\n\n        newCompany.credit = 0;\n        newCompany.name = name;\n        newCompany.owner = msg.sender;\n        newCompany.completed = 0;\n        \n        return numOfCompany; \n    }\n\n    function createStakeholderInfo(uint256 policyOwner,\n        uint256 beneficiary,\n        uint256 lifeAssured,\n        uint256 payingAccount) \n    public returns(uint256) { \n        return insuranceInstance.createStakeholderInfo(policyOwner, beneficiary, lifeAssured, payingAccount);\n    }\n \n    // /**\n    // * @dev Allow insurance company to create insurance. If it is a request, automatically delete the request. \n    // * Automatically pass to stakeholder\n    // * @return uint256 new insurance id\n    // */\n    function createInsurance(\n        uint stakeholderInfoId,\n        uint256 companyId,\n        uint256 insuredAmount,\n        Insurance.insuranceType insType,\n        uint256 issueDateYYYYMMDD,\n        uint256 expiryDateYYYYMMDD\n    ) public payable validCompanyId(companyId) returns(uint256){\n\n        uint256 newId = insuranceInstance.createInsurance(\n                stakeholderInfoId,\n                companyId,\n                insuredAmount,\n                insType,\n                issueDateYYYYMMDD,\n                expiryDateYYYYMMDD\n        );\n        emit create(newId);\n        passToStakeHolder(insuranceInstance.getPolicyOwner(stakeholderInfoId), newId);\n        return newId;\n    }\n\n\n    function solveRequest(uint256 companyId, uint256 requestId) public {\n        if (requestId != 0) {\n            uint256 index;\n            Request[] memory reqs = companies[companyId].requestLists;\n            uint256 length = reqs.length;\n            bool find = false;\n            for (uint256 i = 0; i < length; i++) {\n                if (reqs[i].reqId == requestId) {\n                    index = i;\n                    find = true;\n                }\n            }\n            \n            require(find == true, \"Invalid request id!\");\n            if (find) {\n                companies[companyId].requestLists[index] = companies[companyId].requestLists[length - 1];\n                companies[companyId].requestLists.pop();\n                emit requestSolve(requestId);\n            }\n        }        \n    }\n\n    //yearly/monthly payment function\n    // function payInsurance(){\n\n    // }\n\n    // /**\n    // * @dev Allow insurance company to pass drafted insurance to stakeholder\n    // */\n    function passToStakeHolder(uint256 policyownerid,uint256 insuranceId) internal {\n        //Stakeholder st = stakeholderInstance.getStakeholder(policyownerid);\n        // add to st list\n        if (stakeholderInstance.addToSignList(insuranceId, policyownerid)) emit passedToStakeholder();\n    }\n\n    // /** \n    // * @dev insurance need to have a insurance state(boolean) to indicate whether approved by beneficiary and add count for credit\n    // * @param {uint256} insuranceId, {uint256} companyId\n    // */\n    function signInsurance(uint256 insuranceId,uint256 companyId) public payable ownerOnly(companyId) validCompanyId(companyId) {\n        insuranceCompany storage company = companies[companyId];\n        Insurance.insurance memory insurance = insuranceInstance.getInsurance(insuranceId);\n        require(insuranceInstance.getStatus(insuranceId) != Insurance.status.unapproved,\"not approved by beneficiary!\");\n        company.insuranceId[insuranceId] = insurance;\n        company.completed++;\n        updateCredit(companyId);\n    }\n\n    // /** \n    // * @dev function to update the credit of company once a insurance is signed\n    // * @param {uint256} companyId\n    // */\n    function updateCredit(uint256 companyId) public validCompanyId(companyId) {\n        insuranceCompany storage company = companies[companyId];\n        uint256 completed = company.completed;\n        if(completed >=50 && completed <=200) {\n            company.credit = 1;\n        } else if(completed >200 && completed <=350) {\n            company.credit = 2;\n        } else if(completed >350 && completed <=450) {\n            company.credit = 3;\n        } else if(completed >450 && completed <=800) {\n            company.credit = 4;\n        } else if(completed >800 && completed <=2000) {\n            company.credit = 5;\n        } else if(completed >2000) {\n            company.credit = 999;\n        } \n    }\n\n    //  /** \n    // * @dev check stakeholder details and mc details, if correct auto transfer money\n    // * @param  {uint256} insuranceId, {uint256} companyId,{uint256} _hospitalId,{bytes} mcId\n    // */\n    function autoTransfer(uint256 insuranceId,uint256 companyId,uint256 _hospitalId,bytes memory mcId) public payable{\n        // Insurance memory insurance = insuranceInstance.getInsurance(insuranceId);\n        require(insuranceInstance.getStatus(insuranceId) == Insurance.status.paid);\n        //insurance valid from date \n        require(insuranceInstance.getIssueDate(insuranceId)+ 90 days >= block.timestamp);\n        uint256 st = insuranceInstance.getBeneficiary(insuranceId);\n        //get cert details\n        //(uint256 HospitalID,string memory name,string memory NRIC,uint256 sex,uint256 birthdate,string memory race,string memory nationality,MedicalCertificate.certCategory incident,string memory dateTimeIncident,string memory placeIncident,string memory causeIncident,string memory titleOfCertifier,string memory Institution) = medicalCertInstance.getMC(mcId);\n        bytes32  mcName = keccak256(abi.encodePacked(medicalCertInstance.getMCName(mcId)));\n        bytes32  stName = keccak256(abi.encode(stakeholderInstance.getStakeholderName(st)));\n        bytes32  mcNRIC = keccak256(abi.encode(medicalCertInstance.getMCNRIC(mcId)));\n        bytes32  stNRIC = keccak256(stakeholderInstance.getStakeholderNRIC(st));\n        require(mcName == stName && mcNRIC ==  stNRIC, \"Not the same stakeholder!\");\n        //cert if its suicide\n        if(medicalCertInstance.getMCCategory(mcId) == MedicalCertificate.certCategory.suicide) {  \n            require(insuranceInstance.getIssueDate(insuranceId)+ 2*365 days >= block.timestamp);\n        }\n\n        uint256 value = insuranceInstance.getInsuredAmount(insuranceId);\n        insuranceCompany storage company = companies[companyId];\n\n        address companyOwner  = address(company.owner);\n        require(trustinsureInstance.checkInsure(companyOwner) >= value,\"not enough token to pay\");\n        \n        //// How to transfer here?\n        //company.owner.send(value);\n        \n        address recipient = address(uint160(insuranceInstance.getBeneficiary(insuranceId)));\n        trustinsureInstance.transferFromInsure(companyOwner, recipient, value);\n        insuranceInstance.updateStatus(Insurance.status.claimed, insuranceId);\n        emit transfer(recipient, value);\n    }\n\n    // /**\n    // * @dev Allow insurance market to update requests\n    // * @return bool whether added successfullly\n    // * @return uint256 numOfReq request id\n    // */\n    function addRequestLists(uint256 _buyerId, uint256 _companyId, string calldata _typeProduct) external returns(bool, uint256) {\n        Request memory req = Request(numOfReq++, _buyerId, _typeProduct, requestStatus.pending);\n        companies[_companyId].requestLists.push(req);\n\n        return (true, numOfReq);\n    }\n\n    // /**\n    // * @dev Allow insurance company check all requests\n    // */\n    function checkRequestsFromCompany(uint256 companyId) public validCompanyId(companyId) ownerOnly(companyId) {\n        Request[] memory reqs = companies[companyId].requestLists;\n        uint256[] memory requestids = new uint256[](reqs.length);\n        uint256[] memory buyerids = new uint256[](reqs.length);\n        string[] memory buyercontacts= new string[](reqs.length);\n        string[] memory producttypes = new string[](reqs.length);\n        requestStatus[] memory statuses = new requestStatus[](reqs.length);\n\n        for(uint256 i = 0;i< reqs.length;i++) {\n            requestids[i] = reqs[i].reqId;\n            buyerids[i] = reqs[i].buyerId;\n            buyercontacts[i] = stakeholderInstance.getStakeholderPhone(reqs[i].buyerId);\n            producttypes[i] = reqs[i].productType;\n            statuses[i] = reqs[i].status;\n        }\n\n        emit allRequests(requestids,\n        buyerids,\n        buyercontacts,\n        producttypes,\n        statuses);\n        \n    }\n    \n    // /**\n    // * @dev Allow insurance company reject request\n    // */\n    function reject(uint256 requestId,uint256 companyId) private {\n        require(requestId != 0, \"Input valid requestId!\");\n\n        uint256 index;\n        Request[] memory reqs = companies[companyId].requestLists;\n        uint256 length = reqs.length;\n        bool find = false;\n        for (uint256 i = 0; i < length; i++) {\n            if (reqs[i].reqId == requestId) {\n                index = i;\n                find = true;\n            }\n        }\n        \n        require(find == true, \"Invalid request id!\");\n        if (find) {\n            reqs[index].status = requestStatus.rejected;\n            emit requestReject(requestId);\n        }\n\n    }\n\n    // /**\n    // * @dev Allow stakeholder to check request status\n    // */\n    function checkRequestsFromStakeholder(uint256 companyId, uint256 requestId) public returns (requestStatus) {\n        require(requestId != 0, \"Invalid request id!\");\n\n        uint256 index;\n        Request[] memory reqs = companies[companyId].requestLists;\n        uint256 length = reqs.length;\n        bool find = false;\n        for (uint256 i = 0; i < length; i++) {\n            if (reqs[i].reqId == requestId) {\n                index = i;\n                find = true;\n            }\n        }\n        \n        require(find == true, \"You haven't requested or the request has already been approved!\");\n        if (find) {\n            emit checkRequest(reqs[index].status);\n        }\n        \n        return reqs[index].status;\n    }\n    \n// =====================================================================================\n// getters\n// =====================================================================================\n\n    function getCredit(uint256 companyId) public view validCompanyId(companyId) returns (uint256) {\n        return companies[companyId].credit;\n    }\n\n    function getName(uint256 companyId) public view validCompanyId(companyId) returns (string memory) {\n        return companies[companyId].name;\n    }\n    \n    function getOwner(uint256 companyId) public view validCompanyId(companyId) returns (address) {\n        return companies[companyId].owner;\n    }\n    \n    // function getCompanyById(uint256 companyId) public view validCompanyId(companyId) returns (insuranceCompany memory) {\n    //     return companies[companyId];\n    // }\n\n    function getNumOfCompany() public view returns (uint256) {\n        return numOfCompany;\n    }\n\n}\n",
  "sourcePath": "/Users/yco/Desktop/IS4302/IS4302_Group12/contracts/InsuranceCompany.sol",
  "compiler": {
    "name": "solc",
    "version": "0.8.12+commit.f00d7308.Emscripten.clang"
  },
  "schemaVersion": "3.4.11",
  "updatedAt": "2023-03-31T14:36:33.255Z",
  "devdoc": {
    "kind": "dev",
    "methods": {},
    "version": 1
  },
  "userdoc": {
    "kind": "user",
    "methods": {},
    "version": 1
  }
}