{
  "contractName": "InsuranceMarket",
  "abi": [
    {
      "inputs": [
        {
          "internalType": "contract InsuranceCompany",
          "name": "companyAddress",
          "type": "address"
        },
        {
          "internalType": "contract Stakeholder",
          "name": "stakeholderAddress",
          "type": "address"
        }
      ],
      "stateMutability": "nonpayable",
      "type": "constructor"
    },
    {
      "anonymous": false,
      "inputs": [],
      "name": "productPublished",
      "type": "event"
    },
    {
      "anonymous": false,
      "inputs": [],
      "name": "productWithdrawedFail",
      "type": "event"
    },
    {
      "anonymous": false,
      "inputs": [],
      "name": "productWithdrawedSucceed",
      "type": "event"
    },
    {
      "anonymous": false,
      "inputs": [],
      "name": "requestFail",
      "type": "event"
    },
    {
      "anonymous": false,
      "inputs": [],
      "name": "requestSucceed",
      "type": "event"
    },
    {
      "anonymous": false,
      "inputs": [
        {
          "indexed": false,
          "internalType": "uint256[]",
          "name": "companyids",
          "type": "uint256[]"
        },
        {
          "indexed": false,
          "internalType": "string[]",
          "name": "companynames",
          "type": "string[]"
        },
        {
          "indexed": false,
          "internalType": "uint256[]",
          "name": "companycredits",
          "type": "uint256[]"
        },
        {
          "indexed": false,
          "internalType": "enum InsuranceMarket.productType[]",
          "name": "producttypes",
          "type": "uint8[]"
        },
        {
          "indexed": false,
          "internalType": "uint256[]",
          "name": "productassured",
          "type": "uint256[]"
        }
      ],
      "name": "viewAvailableProducts",
      "type": "event"
    },
    {
      "inputs": [
        {
          "internalType": "uint256",
          "name": "companyId",
          "type": "uint256"
        },
        {
          "internalType": "string",
          "name": "_productType",
          "type": "string"
        },
        {
          "internalType": "uint256",
          "name": "_premium",
          "type": "uint256"
        },
        {
          "internalType": "uint256",
          "name": "_sumAssured",
          "type": "uint256"
        }
      ],
      "name": "publishProduct",
      "outputs": [
        {
          "internalType": "uint256",
          "name": "",
          "type": "uint256"
        }
      ],
      "stateMutability": "nonpayable",
      "type": "function"
    },
    {
      "inputs": [
        {
          "internalType": "uint256",
          "name": "companyId",
          "type": "uint256"
        },
        {
          "internalType": "uint256",
          "name": "productId",
          "type": "uint256"
        }
      ],
      "name": "withdrawProduct",
      "outputs": [
        {
          "internalType": "bool",
          "name": "",
          "type": "bool"
        }
      ],
      "stateMutability": "nonpayable",
      "type": "function"
    },
    {
      "inputs": [],
      "name": "viewProducts",
      "outputs": [],
      "stateMutability": "nonpayable",
      "type": "function"
    },
    {
      "inputs": [
        {
          "internalType": "uint256",
          "name": "companyId",
          "type": "uint256"
        },
        {
          "internalType": "uint256",
          "name": "productId",
          "type": "uint256"
        }
      ],
      "name": "wantToBuy",
      "outputs": [
        {
          "internalType": "uint256",
          "name": "",
          "type": "uint256"
        }
      ],
      "stateMutability": "nonpayable",
      "type": "function"
    }
  ],
  "bytecode": "0x6080604052600060035534801561001557600080fd5b506040516114603803806114608339810160408190526100349161007d565b600080546001600160a01b039384166001600160a01b031991821617909155600180549290931691161790556100b7565b6001600160a01b038116811461007a57600080fd5b50565b6000806040838503121561009057600080fd5b825161009b81610065565b60208401519092506100ac81610065565b809150509250929050565b61139a806100c66000396000f3fe608060405234801561001057600080fd5b506004361061004c5760003560e01c80639023c7d7146100515780639fe4f44014610077578063cb0c16b61461009a578063f9f24da1146100ad575b600080fd5b61006461005f366004610ea3565b6100b7565b6040519081526020015b60405180910390f35b61008a610085366004610ea3565b610493565b604051901515815260200161006e565b6100646100a8366004610f34565b610705565b6100b5610aae565b005b6001546040516303e1877160e21b815233600482015260009182916001600160a01b0390911690630f861dc490602401602060405180830381865afa158015610104573d6000803e3d6000fd5b505050506040513d601f19601f820116820180604052508101906101289190610fce565b90508061016e5760405162461bcd60e51b815260206004820152600f60248201526e4e6f7420726567697374657265642160881b60448201526064015b60405180910390fd5b600084815260026020908152604080832080548251818502810185019093528083529192909190849084015b8282101561022357838290600052602060002090600402016040518060800160405290816000820154815260200160018201548152602001600282015481526020016003820160009054906101000a900460ff1660018111156101ff576101ff610fe7565b600181111561021057610210610fe7565b815250508152602001906001019061019a565b505050509050600a815111156102b75760405162461bcd60e51b815260206004820152604d60248201527f54686520636f6d70616e792061726520657870657269656e63696e672068696760448201527f6820766f6c756d65206f662072657175657374732c20706c6561736520636f6d60648201526c65206261636b206c617465722160981b608482015260a401610165565b80516040805180820190915260048152636c69666560e01b60208201526000808080805b8681101561047f578781815181106102f5576102f5610ffd565b602002602001015160000151945087818151811061031557610315610ffd565b60200260200101516060015193508a85141561046d57600084600181111561033f5761033f610fe7565b141561036957604051806040016040528060088152602001671858d8da59195b9d60c21b81525095505b60008054906101000a90046001600160a01b03166001600160a01b031663e5c86f588a8e896040518463ffffffff1660e01b81526004016103ac9392919061106f565b60408051808303816000875af11580156103ca573d6000803e3d6000fd5b505050506040513d601f19601f820116820180604052508101906103ee9190611097565b90935091508215610432576040517f383053d42d986156a4286cdcbbc248c612086c31efb77b449c328deee057528e90600090a150975061048d9650505050505050565b6040517f0140f87f21890fe27173d90ed6364b8ed2b446b066c819af469a223b7ad776b190600090a16000995050505050505050505061048d565b80610477816110e0565b9150506102db565b506000985050505050505050505b92915050565b6000805460405163620d1b0560e11b815260048101859052849133916001600160a01b039091169063c41a360a90602401602060405180830381865afa1580156104e1573d6000803e3d6000fd5b505050506040513d601f19601f8201168201806040525081019061050591906110fb565b6001600160a01b03161461052b5760405162461bcd60e51b81526004016101659061112b565b60008481526002602052604081205481805b8281101561059a57600088815260026020526040902080548891908390811061056857610568610ffd565b906000526020600020906004020160000154141561058857809350600191505b80610592816110e0565b91505061053d565b5080156106d15760008781526002602052604090206105ba600184611173565b815481106105ca576105ca610ffd565b90600052602060002090600402016002600089815260200190815260200160002084815481106105fc576105fc610ffd565b6000918252602090912082546004909202019081556001808301548183015560028084015490830155600380840154908301805460ff90921692909160ff191690838181111561064e5761064e610fe7565b0217905550505060008781526002602052604090208054806106725761067261118a565b6000828152602081206004600019909301928302018181556001810182905560028101829055600301805460ff1916905591556040517f62e5e612e40441120640face53cc5b102e8b73752c06db0f790532bf1f89a5719190a16106fb565b6040517f6ce268b8b527055a271573ee97dae508396ebb8d80afa5b00e3f6a16c4e1afe990600090a15b9695505050505050565b6000805460405163620d1b0560e11b815260048101879052869133916001600160a01b039091169063c41a360a90602401602060405180830381865afa158015610753573d6000803e3d6000fd5b505050506040513d601f19601f8201168201806040525081019061077791906110fb565b6001600160a01b03161461079d5760405162461bcd60e51b81526004016101659061112b565b846040516020016107ca906020808252600890820152671858d8da59195b9d60c21b604082015260600190565b60405160208183030381529060405280519060200120816040516020016107f191906111a0565b6040516020818303038152906040528051906020012014806108755750604051602001610836906020808252600490820152636c69666560e01b604082015260600190565b604051602081830303815290604052805190602001208160405160200161085d91906111a0565b60405160208183030381529060405280519060200120145b6108e75760405162461bcd60e51b815260206004820152603a60248201527f596f752073686f756c6420696e7075742076616c69642070726f64756374207460448201527f7970652c2065672e206163636964656e74206f72206c696665210000000000006064820152608401610165565b6108ef610e6b565b60405160200161091b906020808252600890820152671858d8da59195b9d60c21b604082015260600190565b604051602081830303815290604052805190602001208760405160200161094291906111a0565b60405160208183030381529060405280519060200120141561099c576040805160808101909152600380548291600061097a836110e0565b90915550815260208101889052604081018790526060016000905290506109d6565b604080516080810190915260038054829160006109b8836110e0565b90915550815260208101889052604081018790526060016001905290505b6000888152600260208181526040808420805460018181018355918652948390208651600490960201948555918501518483015584015191830191909155606083015160038301805485949360ff19909116908381811115610a3a57610a3a610fe7565b0217905550506040517f1ae3bf8d727b8c677619c05c932e62edcd95ed521ece9e850d19577f1f5f5b119150600090a15050600480546001810182556000919091527f8a35acfbc15ff81a39ae7d344fd709f28e8600b4aa8c65c6b64bfe7fe36bd19b019590955550506003549392505050565b60608060608060606000805b600454811015610e235760006002600060048481548110610add57610add610ffd565b90600052602060002001548152602001908152602001600020805480602002602001604051908101604052809291908181526020016000905b82821015610b9f57838290600052602060002090600402016040518060800160405290816000820154815260200160018201548152602001600282015481526020016003820160009054906101000a900460ff166001811115610b7b57610b7b610fe7565b6001811115610b8c57610b8c610fe7565b8152505081526020019060010190610b16565b50505050905060005b8151811015610e0e5760048381548110610bc457610bc4610ffd565b9060005260206000200154898581518110610be157610be1610ffd565b6020908102919091010152600054600480546001600160a01b0390921691636b8ff574919086908110610c1657610c16610ffd565b90600052602060002001546040518263ffffffff1660e01b8152600401610c3f91815260200190565b600060405180830381865afa158015610c5c573d6000803e3d6000fd5b505050506040513d6000823e601f3d908101601f19168201604052610c8491908101906111b3565b888581518110610c9657610c96610ffd565b6020908102919091010152600054600480546001600160a01b039092169163da304e4d919086908110610ccb57610ccb610ffd565b90600052602060002001546040518263ffffffff1660e01b8152600401610cf491815260200190565b602060405180830381865afa158015610d11573d6000803e3d6000fd5b505050506040513d601f19601f82011682018060405250810190610d359190610fce565b878581518110610d4757610d47610ffd565b602002602001018181525050818181518110610d6557610d65610ffd565b602002602001015160600151868581518110610d8357610d83610ffd565b60200260200101906001811115610d9c57610d9c610fe7565b90816001811115610daf57610daf610fe7565b81525050818181518110610dc557610dc5610ffd565b602002602001015160400151858581518110610de357610de3610ffd565b602090810291909101015283610df8816110e0565b9450508080610e06906110e0565b915050610ba8565b50508080610e1b906110e0565b915050610aba565b507fac2464686f2977050ec21344ddefe5e5e6873858cc88a17db6c72d8b5285675b8686868686604051610e5b9594939291906112b5565b60405180910390a1505050505050565b604051806080016040528060008152602001600081526020016000815260200160006001811115610e9e57610e9e610fe7565b905290565b60008060408385031215610eb657600080fd5b50508035926020909101359150565b634e487b7160e01b600052604160045260246000fd5b604051601f8201601f1916810167ffffffffffffffff81118282101715610f0457610f04610ec5565b604052919050565b600067ffffffffffffffff821115610f2657610f26610ec5565b50601f01601f191660200190565b60008060008060808587031215610f4a57600080fd5b84359350602085013567ffffffffffffffff811115610f6857600080fd5b8501601f81018713610f7957600080fd5b8035610f8c610f8782610f0c565b610edb565b818152886020838501011115610fa157600080fd5b81602084016020830137600091810160200191909152949794965050505060408301359260600135919050565b600060208284031215610fe057600080fd5b5051919050565b634e487b7160e01b600052602160045260246000fd5b634e487b7160e01b600052603260045260246000fd5b60005b8381101561102e578181015183820152602001611016565b8381111561103d576000848401525b50505050565b6000815180845261105b816020860160208601611013565b601f01601f19169290920160200192915050565b83815282602082015260606040820152600061108e6060830184611043565b95945050505050565b600080604083850312156110aa57600080fd5b825180151581146110ba57600080fd5b6020939093015192949293505050565b634e487b7160e01b600052601160045260246000fd5b60006000198214156110f4576110f46110ca565b5060010190565b60006020828403121561110d57600080fd5b81516001600160a01b038116811461112457600080fd5b9392505050565b60208082526028908201527f596f7520617265206e6f7420616c6c6f77656420746f206c697374207468652060408201526770726f647563742160c01b606082015260800190565b600082821015611185576111856110ca565b500390565b634e487b7160e01b600052603160045260246000fd5b6020815260006111246020830184611043565b6000602082840312156111c557600080fd5b815167ffffffffffffffff8111156111dc57600080fd5b8201601f810184136111ed57600080fd5b80516111fb610f8782610f0c565b81815285602083850101111561121057600080fd5b61108e826020830160208601611013565b600081518084526020808501945080840160005b8381101561125157815187529582019590820190600101611235565b509495945050505050565b60008151808452602080850194508084016000805b848110156112a95782516002811061129757634e487b7160e01b83526021600452602483fd5b88529683019691830191600101611271565b50959695505050505050565b60a0815260006112c860a0830188611221565b6020838203818501528188518084528284019150828160051b850101838b0160005b8381101561131857601f19878403018552611306838351611043565b948601949250908501906001016112ea565b5050868103604088015261132c818b611221565b9450505050508281036060840152611344818661125c565b905082810360808401526113588185611221565b9897505050505050505056fea2646970667358221220302e8944280bda2ea246188a905fe98ae0da421ccdbc49a4ea8a7a5d903d0c8064736f6c634300080c0033",
  "immutableReferences": {},
  "source": "pragma solidity ^0.8.12;\r\npragma experimental ABIEncoderV2;\r\nimport \"./InsuranceCompany.sol\";\r\n//import \"./Insurance.sol\";\r\nimport \"./Stakeholder.sol\";\r\n\r\ncontract InsuranceMarket {\r\n\r\n    InsuranceCompany companyContract;\r\n    Stakeholder stakeholderContract;\r\n\r\n    // ---------------\r\n    // Product related\r\n    // ---------------\r\n    enum productType {accident,life}\r\n\r\n    struct Product {\r\n        uint256 productid;\r\n        uint256 premium;\r\n        uint256 sumAssured;\r\n        productType prodType;\r\n    }\r\n\r\n    mapping (uint256 => Product[]) productList;//company ids => product list\r\n    uint256 numofProds = 0;\r\n\r\n    uint256[] companyIds;\r\n\r\n    constructor (InsuranceCompany companyAddress, Stakeholder stakeholderAddress) public {\r\n        companyContract = companyAddress;\r\n        stakeholderContract = stakeholderAddress;\r\n    }\r\n\r\n    // ---------\r\n    // modifiers\r\n    // ---------\r\n    /*check company owner*/\r\n    modifier companyOwnerOnly(uint256 companyId) {\r\n        require(companyContract.getOwner(companyId) == msg.sender, \"You are not allowed to list the product!\");\r\n        _;\r\n    }\r\n    \r\n    /*check product type whether has misspelling or not valid*/\r\n    modifier validProduct(string memory _productType) {\r\n        //require(_productType == \"accident\" || _productType == \"life\", \"You should input valid product type, eg. accident or life!\");\r\n        require(keccak256(abi.encode(_productType)) == keccak256(abi.encode(\"accident\")) ||\r\n        keccak256(abi.encode(_productType)) == keccak256(abi.encode(\"life\")), \"You should input valid product type, eg. accident or life!\");\r\n      \r\n        _;\r\n    }\r\n\r\n    // ------\r\n    // events\r\n    // ------\r\n    event productPublished();\r\n    event productWithdrawedSucceed();\r\n    event productWithdrawedFail();\r\n    event viewAvailableProducts(uint256[] companyids,string[] companynames,uint256[] companycredits,productType[] producttypes,uint256[] productassured);\r\n    event requestSucceed();\r\n    event requestFail();\r\n\r\n\r\n    // ---------\r\n    // functions\r\n    // ---------\r\n\r\n\r\n    // /**\r\n    // * @dev Allow insurance company list product on the market\r\n    // * @param _premium The amount that should be paid yearly\r\n    // * @param _sumAssured Total amount to buy the insurance\r\n    // * @return uint256 productId\r\n    // */\r\n    function publishProduct(uint256 companyId, string memory _productType, uint256 _premium, uint256 _sumAssured) \r\n    public companyOwnerOnly(companyId) validProduct(_productType)\r\n    returns(uint256)\r\n    {\r\n        Product memory newProduct;\r\n        if (keccak256(abi.encode(_productType)) == keccak256(abi.encode(\"accident\"))) {\r\n            newProduct = Product(\r\n                numofProds++,\r\n                _premium,\r\n                _sumAssured,\r\n                productType.accident\r\n            );\r\n        } else {\r\n            newProduct = Product(\r\n                numofProds++,\r\n                _premium,\r\n                _sumAssured,\r\n                productType.life\r\n            );\r\n        }\r\n\r\n        productList[companyId].push(newProduct);\r\n        emit productPublished();\r\n        companyIds.push(companyId);\r\n        return numofProds;\r\n    }\r\n\r\n    // /**\r\n    // * @dev Allow insurance company unlist product on the market\r\n    // * @return bool whether successfully withdraw the product\r\n    // */\r\n    function withdrawProduct(uint256 companyId, uint256 productId)\r\n    public companyOwnerOnly(companyId)\r\n    returns(bool)\r\n    {\r\n\r\n        uint256 index;\r\n        uint256 length = productList[companyId].length;\r\n        bool find = false;\r\n        for (uint256 i = 0; i < length; i++) {\r\n            if (productList[companyId][i].productid == productId) {\r\n                index = i;\r\n                find = true;\r\n            }\r\n        }\r\n        \r\n        if (find) {\r\n            productList[companyId][index] = productList[companyId][length - 1];\r\n            productList[companyId].pop();\r\n            emit productWithdrawedSucceed();\r\n        } else {\r\n            emit productWithdrawedFail();\r\n        }\r\n        \r\n        return find;\r\n    }\r\n\r\n    // /**\r\n    // * @dev Allow stakeholders to check every company's products\r\n    // */\r\n    function viewProducts() public {\r\n        uint256[] memory companyids;\r\n        string[] memory companynames;\r\n        uint256[] memory companycredits;\r\n\r\n        productType[] memory producttypes;\r\n        uint256[] memory productassured;\r\n\r\n        uint256 total_products = 0;\r\n\r\n        for (uint256 i  = 0; i < companyIds.length; i++) {\r\n           \r\n            Product[] memory products = productList[companyIds[i]];\r\n            for (uint256 j = 0; j < products.length; j++) {\r\n                companyids[total_products] = companyIds[i];\r\n                companynames[total_products] = companyContract.getName(companyIds[i]);\r\n                companycredits[total_products] = companyContract.getCredit(companyIds[i]);\r\n\r\n                producttypes[total_products] = products[j].prodType;\r\n                productassured[total_products] = products[j].sumAssured;\r\n                total_products++;\r\n            }\r\n        }\r\n        \r\n        emit viewAvailableProducts(companyids, companynames, companycredits, producttypes, productassured);\r\n    }\r\n\r\n    /**\r\n    * @dev stakeholder could initiate buying\r\n    * @return uint256 the request id for stakeholders to track its status if return 0 indicated unsuccessful\r\n    */\r\n    function wantToBuy(uint256 companyId, uint256 productId) public returns(uint256) {\r\n        uint256 buyerId = stakeholderContract.getStakeholderId(msg.sender);\r\n        require(buyerId != 0, \"Not registered!\");\r\n\r\n        Product[] memory products = productList[companyId];\r\n        require(products.length <= 10, \"The company are experiencing high volume of requests, please come back later!\");\r\n\r\n        uint256 length = products.length;\r\n        string memory typeProduct = \"life\";\r\n        uint256 id;\r\n        productType prodtype;\r\n        bool succeed;\r\n        uint256 requestId;\r\n\r\n        for (uint256 i = 0; i < length; i++) {\r\n            id = products[i].productid;\r\n            prodtype = products[i].prodType;\r\n\r\n            if (id == productId) {\r\n                if (prodtype == productType.accident) typeProduct = \"accident\";\r\n                (succeed, requestId) = companyContract.addRequestLists(buyerId, companyId, typeProduct);\r\n                if (succeed) {\r\n                    emit requestSucceed();\r\n                    return requestId;\r\n                } else {\r\n                    emit requestFail();\r\n                    return 0;\r\n                }\r\n            }\r\n        }\r\n        \r\n        return 0;   \r\n    }\r\n\r\n    // then the company need to verify their requests within 7 days\r\n    // but usually they will check once a day so its quite fast\r\n    // then the company will approach to buyers to discuss the details of insurance - offline stuff\r\n    // then create contract in insuranceConpany contract\r\n    // then send it to policy owners to verify\r\n    // once the verification is done, the insurance is issued successfully\r\n\r\n    \r\n    function getProductInfo(Product memory _product) internal view returns(uint256, uint256,uint256, productType) {\r\n        return (_product.productid, _product.premium, _product.sumAssured, _product.prodType);\r\n    }\r\n}",
  "sourcePath": "/Users/yco/Desktop/IS4302/IS4302_Group12/contracts/InsuranceMarket.sol",
  "compiler": {
    "name": "solc",
    "version": "0.8.12+commit.f00d7308.Emscripten.clang"
  },
  "schemaVersion": "3.4.11",
  "updatedAt": "2023-03-31T14:36:33.264Z",
  "devdoc": {
    "kind": "dev",
    "methods": {
      "wantToBuy(uint256,uint256)": {
        "details": "stakeholder could initiate buying",
        "returns": {
          "_0": "uint256 the request id for stakeholders to track its status if return 0 indicated unsuccessful"
        }
      }
    },
    "version": 1
  },
  "userdoc": {
    "kind": "user",
    "methods": {},
    "version": 1
  }
}