{
  "contractName": "InsuranceCompany",
  "abi": [
    {
      "inputs": [
        {
          "internalType": "contract Hospital",
          "name": "hospitalInstanceAddress",
          "type": "address"
        },
        {
          "internalType": "contract TrustInsure",
          "name": "trustinsureInstanceAddress",
          "type": "address"
        }
      ],
      "stateMutability": "nonpayable",
      "type": "constructor"
    },
    {
      "anonymous": false,
      "inputs": [
        {
          "indexed": false,
          "internalType": "uint256",
          "name": "insuranceID",
          "type": "uint256"
        }
      ],
      "name": "allPaid",
      "type": "event"
    },
    {
      "anonymous": false,
      "inputs": [
        {
          "indexed": false,
          "internalType": "uint256[]",
          "name": "requestids",
          "type": "uint256[]"
        },
        {
          "indexed": false,
          "internalType": "uint256[]",
          "name": "buyerids",
          "type": "uint256[]"
        },
        {
          "indexed": false,
          "internalType": "string[]",
          "name": "buyercontacts",
          "type": "string[]"
        },
        {
          "indexed": false,
          "internalType": "string[]",
          "name": "producttypes",
          "type": "string[]"
        }
      ],
      "name": "allRequests",
      "type": "event"
    },
    {
      "anonymous": false,
      "inputs": [
        {
          "indexed": false,
          "internalType": "uint256",
          "name": "insuranceID",
          "type": "uint256"
        }
      ],
      "name": "askingCert",
      "type": "event"
    },
    {
      "anonymous": false,
      "inputs": [
        {
          "indexed": false,
          "internalType": "enum InsuranceCompany.requestStatus",
          "name": "status",
          "type": "uint8"
        }
      ],
      "name": "checkRequest",
      "type": "event"
    },
    {
      "anonymous": false,
      "inputs": [
        {
          "indexed": false,
          "internalType": "uint256",
          "name": "insuranceID",
          "type": "uint256"
        },
        {
          "indexed": false,
          "internalType": "uint256",
          "name": "mcId",
          "type": "uint256"
        }
      ],
      "name": "claimingFromComp",
      "type": "event"
    },
    {
      "anonymous": false,
      "inputs": [
        {
          "indexed": false,
          "internalType": "uint256",
          "name": "insuranceId",
          "type": "uint256"
        }
      ],
      "name": "create",
      "type": "event"
    },
    {
      "anonymous": false,
      "inputs": [
        {
          "indexed": false,
          "internalType": "uint256",
          "name": "requestId",
          "type": "uint256"
        }
      ],
      "name": "requestReject",
      "type": "event"
    },
    {
      "anonymous": false,
      "inputs": [
        {
          "indexed": false,
          "internalType": "uint256",
          "name": "requestId",
          "type": "uint256"
        },
        {
          "indexed": false,
          "internalType": "uint256",
          "name": "insuranceId",
          "type": "uint256"
        }
      ],
      "name": "requestSolve",
      "type": "event"
    },
    {
      "anonymous": false,
      "inputs": [
        {
          "indexed": false,
          "internalType": "address",
          "name": "beneficiary",
          "type": "address"
        },
        {
          "indexed": false,
          "internalType": "uint256",
          "name": "amount",
          "type": "uint256"
        }
      ],
      "name": "transfer",
      "type": "event"
    },
    {
      "inputs": [
        {
          "internalType": "uint256",
          "name": "",
          "type": "uint256"
        }
      ],
      "name": "companies",
      "outputs": [
        {
          "internalType": "uint256",
          "name": "companyId",
          "type": "uint256"
        },
        {
          "internalType": "uint256",
          "name": "credit",
          "type": "uint256"
        },
        {
          "internalType": "string",
          "name": "name",
          "type": "string"
        },
        {
          "internalType": "address",
          "name": "owner",
          "type": "address"
        },
        {
          "internalType": "uint256",
          "name": "completed",
          "type": "uint256"
        }
      ],
      "stateMutability": "view",
      "type": "function",
      "constant": true
    },
    {
      "inputs": [
        {
          "internalType": "uint256",
          "name": "insuranceId",
          "type": "uint256"
        }
      ],
      "name": "getBeneficiary",
      "outputs": [
        {
          "internalType": "uint256",
          "name": "",
          "type": "uint256"
        }
      ],
      "stateMutability": "view",
      "type": "function",
      "constant": true
    },
    {
      "inputs": [
        {
          "internalType": "uint256",
          "name": "insuranceId",
          "type": "uint256"
        }
      ],
      "name": "getExpiryDate",
      "outputs": [
        {
          "internalType": "uint256",
          "name": "",
          "type": "uint256"
        }
      ],
      "stateMutability": "view",
      "type": "function",
      "constant": true
    },
    {
      "inputs": [
        {
          "internalType": "uint256",
          "name": "insuranceId",
          "type": "uint256"
        }
      ],
      "name": "getInsurance",
      "outputs": [
        {
          "components": [
            {
              "internalType": "uint256",
              "name": "ID",
              "type": "uint256"
            },
            {
              "internalType": "uint256",
              "name": "companyId",
              "type": "uint256"
            },
            {
              "internalType": "uint256",
              "name": "stakeholders",
              "type": "uint256"
            },
            {
              "internalType": "uint256",
              "name": "premium",
              "type": "uint256"
            },
            {
              "internalType": "uint256",
              "name": "insuredAmount",
              "type": "uint256"
            },
            {
              "internalType": "uint256",
              "name": "currentAmount",
              "type": "uint256"
            },
            {
              "internalType": "enum Insurance.insuranceType",
              "name": "insType",
              "type": "uint8"
            },
            {
              "internalType": "enum Insurance.status",
              "name": "status",
              "type": "uint8"
            },
            {
              "internalType": "uint256",
              "name": "issueDate",
              "type": "uint256"
            },
            {
              "internalType": "uint256",
              "name": "expiryDate",
              "type": "uint256"
            }
          ],
          "internalType": "struct Insurance.insurance",
          "name": "",
          "type": "tuple"
        }
      ],
      "stateMutability": "view",
      "type": "function",
      "constant": true
    },
    {
      "inputs": [
        {
          "internalType": "uint256",
          "name": "insuranceId",
          "type": "uint256"
        }
      ],
      "name": "getInsuranceCompany",
      "outputs": [
        {
          "internalType": "uint256",
          "name": "",
          "type": "uint256"
        }
      ],
      "stateMutability": "view",
      "type": "function",
      "constant": true
    },
    {
      "inputs": [
        {
          "internalType": "uint256",
          "name": "insuranceId",
          "type": "uint256"
        }
      ],
      "name": "getInsuredAmount",
      "outputs": [
        {
          "internalType": "uint256",
          "name": "",
          "type": "uint256"
        }
      ],
      "stateMutability": "view",
      "type": "function",
      "constant": true
    },
    {
      "inputs": [
        {
          "internalType": "uint256",
          "name": "insuranceId",
          "type": "uint256"
        }
      ],
      "name": "getIssueDate",
      "outputs": [
        {
          "internalType": "uint256",
          "name": "",
          "type": "uint256"
        }
      ],
      "stateMutability": "view",
      "type": "function",
      "constant": true
    },
    {
      "inputs": [],
      "name": "getNumberOfInsurance",
      "outputs": [
        {
          "internalType": "uint256",
          "name": "",
          "type": "uint256"
        }
      ],
      "stateMutability": "view",
      "type": "function",
      "constant": true
    },
    {
      "inputs": [
        {
          "internalType": "uint256",
          "name": "stakeholderinfoId",
          "type": "uint256"
        }
      ],
      "name": "getPolicyOwner",
      "outputs": [
        {
          "internalType": "uint256",
          "name": "",
          "type": "uint256"
        }
      ],
      "stateMutability": "view",
      "type": "function",
      "constant": true
    },
    {
      "inputs": [
        {
          "internalType": "uint256",
          "name": "insuranceId",
          "type": "uint256"
        }
      ],
      "name": "getRestAmount",
      "outputs": [
        {
          "internalType": "uint256",
          "name": "",
          "type": "uint256"
        }
      ],
      "stateMutability": "view",
      "type": "function",
      "constant": true
    },
    {
      "inputs": [
        {
          "internalType": "uint256",
          "name": "insuranceId",
          "type": "uint256"
        }
      ],
      "name": "getStatus",
      "outputs": [
        {
          "internalType": "enum Insurance.status",
          "name": "",
          "type": "uint8"
        }
      ],
      "stateMutability": "view",
      "type": "function",
      "constant": true
    },
    {
      "inputs": [
        {
          "internalType": "address",
          "name": "",
          "type": "address"
        }
      ],
      "name": "ids",
      "outputs": [
        {
          "internalType": "uint256",
          "name": "",
          "type": "uint256"
        }
      ],
      "stateMutability": "view",
      "type": "function",
      "constant": true
    },
    {
      "inputs": [
        {
          "internalType": "uint256",
          "name": "",
          "type": "uint256"
        }
      ],
      "name": "insurances",
      "outputs": [
        {
          "internalType": "uint256",
          "name": "ID",
          "type": "uint256"
        },
        {
          "internalType": "uint256",
          "name": "companyId",
          "type": "uint256"
        },
        {
          "internalType": "uint256",
          "name": "stakeholders",
          "type": "uint256"
        },
        {
          "internalType": "uint256",
          "name": "premium",
          "type": "uint256"
        },
        {
          "internalType": "uint256",
          "name": "insuredAmount",
          "type": "uint256"
        },
        {
          "internalType": "uint256",
          "name": "currentAmount",
          "type": "uint256"
        },
        {
          "internalType": "enum Insurance.insuranceType",
          "name": "insType",
          "type": "uint8"
        },
        {
          "internalType": "enum Insurance.status",
          "name": "status",
          "type": "uint8"
        },
        {
          "internalType": "uint256",
          "name": "issueDate",
          "type": "uint256"
        },
        {
          "internalType": "uint256",
          "name": "expiryDate",
          "type": "uint256"
        }
      ],
      "stateMutability": "view",
      "type": "function",
      "constant": true
    },
    {
      "inputs": [],
      "name": "numInsurance",
      "outputs": [
        {
          "internalType": "uint256",
          "name": "",
          "type": "uint256"
        }
      ],
      "stateMutability": "view",
      "type": "function",
      "constant": true
    },
    {
      "inputs": [],
      "name": "numStakeholder",
      "outputs": [
        {
          "internalType": "uint256",
          "name": "",
          "type": "uint256"
        }
      ],
      "stateMutability": "view",
      "type": "function",
      "constant": true
    },
    {
      "inputs": [
        {
          "internalType": "uint256",
          "name": "newBeneficiary",
          "type": "uint256"
        },
        {
          "internalType": "uint256",
          "name": "insuranceId",
          "type": "uint256"
        }
      ],
      "name": "setBeneficiary",
      "outputs": [],
      "stateMutability": "nonpayable",
      "type": "function"
    },
    {
      "inputs": [
        {
          "internalType": "uint256",
          "name": "date",
          "type": "uint256"
        },
        {
          "internalType": "uint256",
          "name": "insuranceId",
          "type": "uint256"
        }
      ],
      "name": "setExpiryDate",
      "outputs": [],
      "stateMutability": "nonpayable",
      "type": "function"
    },
    {
      "inputs": [
        {
          "internalType": "uint256",
          "name": "",
          "type": "uint256"
        }
      ],
      "name": "stakeholderinfos",
      "outputs": [
        {
          "internalType": "uint256",
          "name": "policyOwner",
          "type": "uint256"
        },
        {
          "internalType": "uint256",
          "name": "beneficiary",
          "type": "uint256"
        },
        {
          "internalType": "uint256",
          "name": "lifeAssured",
          "type": "uint256"
        },
        {
          "internalType": "uint256",
          "name": "payingAccount",
          "type": "uint256"
        }
      ],
      "stateMutability": "view",
      "type": "function",
      "constant": true
    },
    {
      "inputs": [
        {
          "internalType": "enum Insurance.status",
          "name": "state",
          "type": "uint8"
        },
        {
          "internalType": "uint256",
          "name": "insuranceId",
          "type": "uint256"
        }
      ],
      "name": "updateStatus",
      "outputs": [],
      "stateMutability": "nonpayable",
      "type": "function"
    },
    {
      "inputs": [
        {
          "internalType": "string",
          "name": "name",
          "type": "string"
        }
      ],
      "name": "registerCompany",
      "outputs": [
        {
          "internalType": "uint256",
          "name": "",
          "type": "uint256"
        }
      ],
      "stateMutability": "payable",
      "type": "function",
      "payable": true
    },
    {
      "inputs": [
        {
          "internalType": "uint256",
          "name": "policyOwner",
          "type": "uint256"
        },
        {
          "internalType": "uint256",
          "name": "beneficiary",
          "type": "uint256"
        },
        {
          "internalType": "uint256",
          "name": "lifeAssured",
          "type": "uint256"
        },
        {
          "internalType": "uint256",
          "name": "payingAccount",
          "type": "uint256"
        }
      ],
      "name": "createStakeholderInfo",
      "outputs": [
        {
          "internalType": "uint256",
          "name": "",
          "type": "uint256"
        }
      ],
      "stateMutability": "nonpayable",
      "type": "function"
    },
    {
      "inputs": [
        {
          "internalType": "uint256",
          "name": "stakeholderInfoId",
          "type": "uint256"
        },
        {
          "internalType": "uint256",
          "name": "companyId",
          "type": "uint256"
        },
        {
          "internalType": "uint256",
          "name": "premium",
          "type": "uint256"
        },
        {
          "internalType": "uint256",
          "name": "insuredAmount",
          "type": "uint256"
        },
        {
          "internalType": "enum Insurance.insuranceType",
          "name": "insType0life1accident",
          "type": "uint8"
        },
        {
          "internalType": "uint256",
          "name": "issueDateYYYYMMDD",
          "type": "uint256"
        },
        {
          "internalType": "uint256",
          "name": "expiryDateYYYYMMDD",
          "type": "uint256"
        }
      ],
      "name": "createInsurance",
      "outputs": [
        {
          "internalType": "uint256",
          "name": "",
          "type": "uint256"
        }
      ],
      "stateMutability": "nonpayable",
      "type": "function"
    },
    {
      "inputs": [
        {
          "internalType": "uint256",
          "name": "companyId",
          "type": "uint256"
        },
        {
          "internalType": "uint256",
          "name": "requestId",
          "type": "uint256"
        },
        {
          "internalType": "uint256",
          "name": "insuranceId",
          "type": "uint256"
        }
      ],
      "name": "solveRequest",
      "outputs": [],
      "stateMutability": "nonpayable",
      "type": "function"
    },
    {
      "inputs": [
        {
          "internalType": "uint256",
          "name": "insuranceId",
          "type": "uint256"
        },
        {
          "internalType": "uint256",
          "name": "companyId",
          "type": "uint256"
        },
        {
          "internalType": "uint256",
          "name": "policyOwnerID",
          "type": "uint256"
        }
      ],
      "name": "signInsurance",
      "outputs": [],
      "stateMutability": "nonpayable",
      "type": "function"
    },
    {
      "inputs": [
        {
          "internalType": "uint256",
          "name": "insuranceId",
          "type": "uint256"
        },
        {
          "internalType": "uint256",
          "name": "amount",
          "type": "uint256"
        },
        {
          "internalType": "uint256",
          "name": "policyOwnerID",
          "type": "uint256"
        },
        {
          "internalType": "address",
          "name": "policyOwner",
          "type": "address"
        }
      ],
      "name": "payPremium",
      "outputs": [],
      "stateMutability": "nonpayable",
      "type": "function"
    },
    {
      "inputs": [
        {
          "internalType": "uint256",
          "name": "insuranceID",
          "type": "uint256"
        },
        {
          "internalType": "uint256",
          "name": "companyId",
          "type": "uint256"
        },
        {
          "internalType": "uint256",
          "name": "mcId",
          "type": "uint256"
        },
        {
          "internalType": "uint256",
          "name": "beneficiaryID",
          "type": "uint256"
        },
        {
          "internalType": "address",
          "name": "beneficiaryAddress",
          "type": "address"
        },
        {
          "internalType": "string",
          "name": "name",
          "type": "string"
        },
        {
          "internalType": "string",
          "name": "NRIC",
          "type": "string"
        }
      ],
      "name": "claim",
      "outputs": [],
      "stateMutability": "nonpayable",
      "type": "function"
    },
    {
      "inputs": [
        {
          "internalType": "uint256",
          "name": "_buyerId",
          "type": "uint256"
        },
        {
          "internalType": "uint256",
          "name": "_companyId",
          "type": "uint256"
        },
        {
          "internalType": "string",
          "name": "contact",
          "type": "string"
        },
        {
          "internalType": "string",
          "name": "_typeProduct",
          "type": "string"
        }
      ],
      "name": "addRequestLists",
      "outputs": [
        {
          "internalType": "bool",
          "name": "",
          "type": "bool"
        },
        {
          "internalType": "uint256",
          "name": "",
          "type": "uint256"
        }
      ],
      "stateMutability": "nonpayable",
      "type": "function"
    },
    {
      "inputs": [
        {
          "internalType": "uint256",
          "name": "companyId",
          "type": "uint256"
        }
      ],
      "name": "checkRequestsFromCompany",
      "outputs": [],
      "stateMutability": "nonpayable",
      "type": "function"
    },
    {
      "inputs": [
        {
          "internalType": "uint256",
          "name": "requestId",
          "type": "uint256"
        },
        {
          "internalType": "uint256",
          "name": "companyId",
          "type": "uint256"
        }
      ],
      "name": "rejectRequest",
      "outputs": [],
      "stateMutability": "nonpayable",
      "type": "function"
    },
    {
      "inputs": [
        {
          "internalType": "uint256",
          "name": "companyId",
          "type": "uint256"
        },
        {
          "internalType": "uint256",
          "name": "requestId",
          "type": "uint256"
        }
      ],
      "name": "checkRequestsFromStakeholder",
      "outputs": [
        {
          "internalType": "enum InsuranceCompany.requestStatus",
          "name": "",
          "type": "uint8"
        },
        {
          "internalType": "uint256",
          "name": "",
          "type": "uint256"
        }
      ],
      "stateMutability": "nonpayable",
      "type": "function"
    },
    {
      "inputs": [
        {
          "internalType": "uint256",
          "name": "companyId",
          "type": "uint256"
        }
      ],
      "name": "getCredit",
      "outputs": [
        {
          "internalType": "uint256",
          "name": "",
          "type": "uint256"
        }
      ],
      "stateMutability": "view",
      "type": "function",
      "constant": true
    },
    {
      "inputs": [
        {
          "internalType": "uint256",
          "name": "companyId",
          "type": "uint256"
        }
      ],
      "name": "getName",
      "outputs": [
        {
          "internalType": "string",
          "name": "",
          "type": "string"
        }
      ],
      "stateMutability": "view",
      "type": "function",
      "constant": true
    },
    {
      "inputs": [
        {
          "internalType": "uint256",
          "name": "companyId",
          "type": "uint256"
        }
      ],
      "name": "getOwner",
      "outputs": [
        {
          "internalType": "address",
          "name": "",
          "type": "address"
        }
      ],
      "stateMutability": "view",
      "type": "function",
      "constant": true
    },
    {
      "inputs": [],
      "name": "getCompanyId",
      "outputs": [
        {
          "internalType": "uint256",
          "name": "",
          "type": "uint256"
        }
      ],
      "stateMutability": "view",
      "type": "function",
      "constant": true
    },
    {
      "inputs": [],
      "name": "getNumOfCompany",
      "outputs": [
        {
          "internalType": "uint256",
          "name": "",
          "type": "uint256"
        }
      ],
      "stateMutability": "view",
      "type": "function",
      "constant": true
    }
  ],
  "bytecode": "0x6080604052600080556000600255600060065560006007553480156200002457600080fd5b506040516200364138038062003641833981016040819052620000479162000092565b600580546001600160a01b039384166001600160a01b03199182161790915560048054929093169116179055620000d1565b6001600160a01b03811681146200008f57600080fd5b50565b60008060408385031215620000a657600080fd5b8251620000b38162000079565b6020840151909250620000c68162000079565b809150509250929050565b61356080620000e16000396000f3fe6080604052600436106102035760003560e01c806362584ffe11610118578063bfcb6cfb116100a0578063da304e4d1161006f578063da304e4d14610767578063dd9937f714610787578063e02bb9af146107a7578063e0e5c324146107c7578063e22900ff146107e757600080fd5b8063bfcb6cfb146106c2578063c41a360a146106e2578063ca0090211461071a578063d91f2a0b1461074757600080fd5b806385fae602116100e757806385fae6021461061d5780638edd52971461064a57806393e949c3146106605780639f14d7c214610680578063b7ff5dae146106a257600080fd5b806362584ffe146105955780636833f200146105aa5780636b8ff574146105da578063703849d91461060757600080fd5b80633d1894af1161019b578063575c28871161016a578063575c28871461044b5780635998f7751461046b57806359fb49f91461049b5780635c622a0e146105225780635d9967011461056757600080fd5b80633d1894af146103925780633fa3ab26146103b2578063467321d514610416578063489c6eec1461043657600080fd5b806323192ed4116101d757806323192ed4146102cb57806326e1cb82146103025780632813d19d14610322578063302df0831461035357600080fd5b8062544194146102085780630386660a1461022e5780631847c06b1461025e5780631a1fc3a01461028b575b600080fd5b61021b610216366004612d21565b610818565b6040519081526020015b60405180910390f35b34801561023a57600080fd5b5061021b610249366004612d5e565b60009081526001602052604090206007015490565b34801561026a57600080fd5b5061021b610279366004612d93565b60096020526000908152604090205481565b34801561029757600080fd5b506102c96102a6366004612db5565b600090815260016020818152604080842060020154845260039091529091200155565b005b3480156102d757600080fd5b506102eb6102e6366004612dd7565b61090f565b604080519215158352602083019190915201610225565b34801561030e57600080fd5b506102c961031d366004612e4e565b6109a2565b34801561032e57600080fd5b5061034261033d366004612d5e565b610a92565b604051610225959493929190612f41565b34801561035f57600080fd5b5061021b61036e366004612d5e565b60009081526001602081815260408084206002015484526003909152909120015490565b34801561039e57600080fd5b506102c96103ad366004612db5565b610b53565b3480156103be57600080fd5b506103f66103cd366004612d5e565b600360208190526000918252604090912080546001820154600283015492909301549092919084565b604080519485526020850193909352918301526060820152608001610225565b34801561042257600080fd5b506102c9610431366004612f7d565b610edb565b34801561044257600080fd5b5060005461021b565b34801561045757600080fd5b5061021b610466366004612d5e565b61107b565b34801561047757600080fd5b5061021b610486366004612d5e565b60009081526001602052604090206004015490565b3480156104a757600080fd5b5061050c6104b6366004612d5e565b60016020819052600091825260409091208054918101546002820154600383015460048401546005850154600686015460078701546008909701549596949593949293919260ff8083169361010090930416918a565b6040516102259a99989796959493929190612ff6565b34801561052e57600080fd5b5061055a61053d366004612d5e565b600090815260016020526040902060060154610100900460ff1690565b6040516102259190613054565b34801561057357600080fd5b50610587610582366004612db5565b6110a4565b604051610225929190613072565b3480156105a157600080fd5b5060075461021b565b3480156105b657600080fd5b5061021b6105c5366004612d5e565b60009081526001602052604090206008015490565b3480156105e657600080fd5b506105fa6105f5366004612d5e565b6113e0565b604051610225919061308d565b34801561061357600080fd5b5061021b60005481565b34801561062957600080fd5b5061063d610638366004612d5e565b6114b3565b60405161022591906130a0565b34801561065657600080fd5b5061021b60025481565b34801561066c57600080fd5b5061021b61067b366004613122565b6115a2565b34801561068c57600080fd5b503360009081526009602052604090205461021b565b3480156106ae57600080fd5b506102c96106bd366004613185565b61188d565b3480156106ce57600080fd5b506102c96106dd3660046131b5565b6118c6565b3480156106ee57600080fd5b506107026106fd366004612d5e565b611a79565b6040516001600160a01b039091168152602001610225565b34801561072657600080fd5b5061021b610735366004612d5e565b60009081526003602052604090205490565b34801561075357600080fd5b506102c9610762366004612db5565b611ac9565b34801561077357600080fd5b5061021b610782366004612d5e565b611b4c565b34801561079357600080fd5b506102c96107a2366004612d5e565b611b93565b3480156107b357600080fd5b506102c96107c23660046131b5565b612086565b3480156107d357600080fd5b5061021b6107e23660046131e1565b61240b565b3480156107f357600080fd5b5061021b610802366004612d5e565b6000908152600160208190526040909120015490565b6000662386f26fc10000341161088d5760405162461bcd60e51b815260206004820152602f60248201527f6174206c6561737420302e303120455448206973206e656564656420746f206360448201526e7265617465206120636f6d70616e7960881b60648201526084015b60405180910390fd5b6007805490600061089d83613229565b909155505060075460008181526008602090815260408220928355600183019190915583516108d491600284019190860190612b5f565b506003810180546001600160a01b03191633908117909155600060049092018290556007549082526009602052604090912081905592915050565b6000838152600860209081526040822060069081018054600181018255908452918320815484938302909101918361094683613229565b9091555050600654815560018101879055845161096c9060028301906020880190612b5f565b5083516109829060038301906020870190612b5f565b50600401805460ff19166002179055505060065460019590945092505050565b600087815260016020818152604080842060020154845260039091529091200154879085908114610a0c5760405162461bcd60e51b8152602060048201526014602482015273496e76616c69642062656e65666963696172792160601b6044820152606401610884565b6040518981527f023f2fc8ada0c4baed4ee1e3ba4fe20927aeb0927885a97721dff7bf7de72a549060200160405180910390a1610a4d8989898888886124aa565b604080518a8152602081018990527fa0645bbb67237e776cc7225ab792c6c0145b76e8013248761926aee49549ae9991015b60405180910390a1505050505050505050565b60086020526000908152604090208054600182015460028301805492939192610aba90613244565b80601f0160208091040260200160405190810160405280929190818152602001828054610ae690613244565b8015610b335780601f10610b0857610100808354040283529160200191610b33565b820191906000526020600020905b815481529060010190602001808311610b1657829003601f168201915b50505050600383015460049093015491926001600160a01b031691905085565b806007548111158015610b6557508015155b610b815760405162461bcd60e51b815260040161088490613279565b60008281526008602052604090206003015482906001600160a01b03163314610bbc5760405162461bcd60e51b8152600401610884906132a6565b83610c025760405162461bcd60e51b8152602060048201526016602482015275496e7075742076616c6964207265717565737449642160501b6044820152606401610884565b600083815260086020908152604080832060060180548251818502810185019093528083528493849084015b82821015610dd557838290600052602060002090600602016040518060c00160405290816000820154815260200160018201548152602001600282018054610c7590613244565b80601f0160208091040260200160405190810160405280929190818152602001828054610ca190613244565b8015610cee5780601f10610cc357610100808354040283529160200191610cee565b820191906000526020600020905b815481529060010190602001808311610cd157829003601f168201915b50505050508152602001600382018054610d0790613244565b80601f0160208091040260200160405190810160405280929190818152602001828054610d3390613244565b8015610d805780601f10610d5557610100808354040283529160200191610d80565b820191906000526020600020905b815481529060010190602001808311610d6357829003601f168201915b5050509183525050600482015460209091019060ff166002811115610da757610da7612fbc565b6002811115610db857610db8612fbc565b815260200160058201548152505081526020019060010190610c2e565b5050505090506000815190506000805b82811015610e2c5788848281518110610e0057610e006132d6565b6020026020010151600001511415610e1a57809450600191505b80610e2481613229565b915050610de5565b50600181151514610e4f5760405162461bcd60e51b8152600401610884906132ec565b8015610ed1576001838581518110610e6957610e696132d6565b6020026020010151608001906002811115610e8657610e86612fbc565b90816002811115610e9957610e99612fbc565b9052506040518881527f8d7fed20d7d8248d56d7367c40d71b598aadef2c219eeb23c765211306d8cce8906020015b60405180910390a15b5050505050505050565b60008481526001602090815260408083206002015483526003909152902054849083908114610f445760405162461bcd60e51b8152602060048201526015602482015274496e76616c696420706f6c696379206f776e65722160581b6044820152606401610884565b60008681526001602081815260408084209092015483526008905290819020600301546004805492516303456ea360e41b81526001600160a01b03878116928201929092529181166024830181905260448301899052921690633456ea3090606401600060405180830381600087803b158015610fc057600080fd5b505af1158015610fd4573d6000803e3d6000fd5b50505060008881526001602052604081206005018054899350909190610ffb908490613319565b909155505060008781526001602052604090206003810154600590910154141561103e576000878152600160205260409020600601805461ff0019166103001790555b6040518781527f93e71af69425ab98903353cc1f5235add61a8f2f0875df40104a9161ecfca332906020015b60405180910390a150505050505050565b6000818152600160205260408120600581015460039091015461109e9190613331565b92915050565b600080826110c45760405162461bcd60e51b8152600401610884906132ec565b600084815260086020908152604080832060060180548251818502810185019093528083528493849084015b8282101561129757838290600052602060002090600602016040518060c0016040529081600082015481526020016001820154815260200160028201805461113790613244565b80601f016020809104026020016040519081016040528092919081815260200182805461116390613244565b80156111b05780601f10611185576101008083540402835291602001916111b0565b820191906000526020600020905b81548152906001019060200180831161119357829003601f168201915b505050505081526020016003820180546111c990613244565b80601f01602080910402602001604051908101604052809291908181526020018280546111f590613244565b80156112425780601f1061121757610100808354040283529160200191611242565b820191906000526020600020905b81548152906001019060200180831161122557829003601f168201915b5050509183525050600482015460209091019060ff16600281111561126957611269612fbc565b600281111561127a5761127a612fbc565b8152602001600582015481525050815260200190600101906110f0565b5050505090506000815190506000805b828110156112ee57878482815181106112c2576112c26132d6565b60200260200101516000015114156112dc57809450600191505b806112e681613229565b9150506112a7565b5060018115151461133a5760405162461bcd60e51b8152602060048201526016602482015275596f7520686176656e2774207265717565737465642160501b6044820152606401610884565b8015611395577f2341ebb88dfa6ce59e54bdde82e9746e5a27fcd12a0d5d5ca812f1d01f4102e2838581518110611373576113736132d6565b60200260200101516080015160405161138c9190613348565b60405180910390a15b8284815181106113a7576113a76132d6565b6020026020010151608001518385815181106113c5576113c56132d6565b602002602001015160a0015195509550505050509250929050565b60608160075481111580156113f457508015155b6114105760405162461bcd60e51b815260040161088490613279565b6000838152600860205260409020600201805461142c90613244565b80601f016020809104026020016040519081016040528092919081815260200182805461145890613244565b80156114a55780601f1061147a576101008083540402835291602001916114a5565b820191906000526020600020905b81548152906001019060200180831161148857829003601f168201915b505050505091505b50919050565b6114bb612be3565b60016000838152602001908152602001600020604051806101400160405290816000820154815260200160018201548152602001600282015481526020016003820154815260200160048201548152602001600582015481526020016006820160009054906101000a900460ff16600181111561153a5761153a612fbc565b600181111561154b5761154b612fbc565b81526020016006820160019054906101000a900460ff16600581111561157357611573612fbc565b600581111561158457611584612fbc565b81526007820154602082015260089091015460409091015292915050565b60008660075481111580156115b657508015155b6115d25760405162461bcd60e51b815260040161088490613279565b60008881526008602052604090206003015488906001600160a01b0316331461160d5760405162461bcd60e51b8152600401610884906132a6565b60048054604051635cdbb28560e11b815233928101929092526001916001600160a01b039091169063b9b7650a90602401602060405180830381865afa15801561165b573d6000803e3d6000fd5b505050506040513d601f19601f8201168201806040525081019061167f9190613356565b116116e65760405162461bcd60e51b815260206004820152603160248201527f31205472757374496e73757265206973206e656564656420746f206372656174604482015270652061206e657720696e737572616e636560781b6064820152608401610884565b62989680851161172e5760405162461bcd60e51b8152602060048201526013602482015272496e76616c696420697373756520646174652160681b6044820152606401610884565b6298968084116117775760405162461bcd60e51b8152602060048201526014602482015273496e76616c69642065787069727920646174652160601b6044820152606401610884565b8385106117bd5760405162461bcd60e51b8152602060048201526014602482015273496e76616c69642065787069727920646174652160601b6044820152606401610884565b6000805490806117cc83613229565b90915550506000805481526001602081905260408220600281018d90558082018c9055600381018b9055600481018a90556005810192909255600682018054899260ff1990911690838181111561182557611825612fbc565b021790555060068101805461ff001916905560078101869055600881018590556000546040519081527f780900dcfb922770b66b73546245c9d725e14dd206326f4f8f5a706976c2b61d9060200160405180910390a150506000549998505050505050505050565b6000818152600160205260409020600601805483919061ff0019166101008360058111156118bd576118bd612fbc565b02179055505050565b8160075481111580156118d857508015155b6118f45760405162461bcd60e51b815260040161088490613279565b6000848152600160209081526040808320600201548352600390915290205484908390811461195d5760405162461bcd60e51b8152602060048201526015602482015274496e76616c696420706f6c696379206f776e65722160581b6044820152606401610884565b60008681526001602081815260408084206006808201805461ff0019166101001781558b8752600885528387208d88526005908101909552929095208154815581850154818601556002808301549082015560038083015490820155600480830154908201558382015493810193909355905493820180549194929360ff90931692909160ff19169083818111156119f7576119f7612fbc565b0217905550600682810154908201805460ff61010093849004169261ff001990911690836005811115611a2c57611a2c612fbc565b02179055506007828101549082015560089182015490820155600086815260209190915260408120600401805491611a6383613229565b9190505550611a7185612a54565b505050505050565b6000816007548111158015611a8d57508015155b611aa95760405162461bcd60e51b815260040161088490613279565b50506000908152600860205260409020600301546001600160a01b031690565b600081815260016020526040902060080154611b385760405162461bcd60e51b815260206004820152602860248201527f45787069727920646174652068617320616c7265616479206265656e20696e696044820152671d1a585b1a5cd95960c21b6064820152608401610884565b600090815260016020526040902060080155565b6000816007548111158015611b6057508015155b611b7c5760405162461bcd60e51b815260040161088490613279565b505060009081526008602052604090206001015490565b806007548111158015611ba557508015155b611bc15760405162461bcd60e51b815260040161088490613279565b60008281526008602052604090206003015482906001600160a01b03163314611bfc5760405162461bcd60e51b8152600401610884906132a6565b600083815260086020908152604080832060060180548251818502810185019093528083529192909190849084015b82821015611dd257838290600052602060002090600602016040518060c00160405290816000820154815260200160018201548152602001600282018054611c7290613244565b80601f0160208091040260200160405190810160405280929190818152602001828054611c9e90613244565b8015611ceb5780601f10611cc057610100808354040283529160200191611ceb565b820191906000526020600020905b815481529060010190602001808311611cce57829003601f168201915b50505050508152602001600382018054611d0490613244565b80601f0160208091040260200160405190810160405280929190818152602001828054611d3090613244565b8015611d7d5780601f10611d5257610100808354040283529160200191611d7d565b820191906000526020600020905b815481529060010190602001808311611d6057829003601f168201915b5050509183525050600482015460209091019060ff166002811115611da457611da4612fbc565b6002811115611db557611db5612fbc565b815260200160058201548152505081526020019060010190611c2b565b5050505090506000815167ffffffffffffffff811115611df457611df4612c5c565b604051908082528060200260200182016040528015611e1d578160200160208202803683370190505b5090506000825167ffffffffffffffff811115611e3c57611e3c612c5c565b604051908082528060200260200182016040528015611e65578160200160208202803683370190505b5090506000835167ffffffffffffffff811115611e8457611e84612c5c565b604051908082528060200260200182016040528015611eb757816020015b6060815260200190600190039081611ea25790505b5090506000845167ffffffffffffffff811115611ed657611ed6612c5c565b604051908082528060200260200182016040528015611f0957816020015b6060815260200190600190039081611ef45790505b50905060005b8551811015612050576002868281518110611f2c57611f2c6132d6565b6020026020010151608001516002811115611f4957611f49612fbc565b141561203e57858181518110611f6157611f616132d6565b602002602001015160000151858281518110611f7f57611f7f6132d6565b602002602001018181525050858181518110611f9d57611f9d6132d6565b602002602001015160200151848281518110611fbb57611fbb6132d6565b602002602001018181525050858181518110611fd957611fd96132d6565b602002602001015160400151838281518110611ff757611ff76132d6565b6020026020010181905250858181518110612014576120146132d6565b602002602001015160600151828281518110612032576120326132d6565b60200260200101819052505b8061204881613229565b915050611f0f565b507ff8be3becfceddab2d6d90e42623d2779957d2177254cb3ee5fe6a9297233c8c284848484604051610ec894939291906133ff565b336000908152600960205260409020546120dc5760405162461bcd60e51b8152602060048201526017602482015276596f7520617265206e6f7420617574686f72697a65642160481b6044820152606401610884565b811561240657600083815260086020908152604080832060060180548251818502810185019093528083528493849084015b828210156122b557838290600052602060002090600602016040518060c0016040529081600082015481526020016001820154815260200160028201805461215590613244565b80601f016020809104026020016040519081016040528092919081815260200182805461218190613244565b80156121ce5780601f106121a3576101008083540402835291602001916121ce565b820191906000526020600020905b8154815290600101906020018083116121b157829003601f168201915b505050505081526020016003820180546121e790613244565b80601f016020809104026020016040519081016040528092919081815260200182805461221390613244565b80156122605780601f1061223557610100808354040283529160200191612260565b820191906000526020600020905b81548152906001019060200180831161224357829003601f168201915b5050509183525050600482015460209091019060ff16600281111561228757612287612fbc565b600281111561229857612298612fbc565b81526020016005820154815250508152602001906001019061210e565b5050505090506000815190506000805b8281101561230c57868482815181106122e0576122e06132d6565b60200260200101516000015114156122fa57809450600191505b8061230481613229565b9150506122c5565b5060018115151461232f5760405162461bcd60e51b8152600401610884906132ec565b801561240157600087815260086020526040902060060180548691908690811061235b5761235b6132d6565b9060005260206000209060060201600501819055506000600860008981526020019081526020016000206006018581548110612399576123996132d6565b60009182526020909120600460069092020101805460ff191660018360028111156123c6576123c6612fbc565b021790555060408051878152602081018790527f90218a18786a98dc15e72ee082c065814f7820762cfd88f194694627e1b7e4c6910161106a565b505050505b505050565b336000908152600960205260408120546124615760405162461bcd60e51b8152602060048201526017602482015276596f7520617265206e6f7420617574686f72697a65642160481b6044820152606401610884565b6002805490600061247183613229565b90915550506002805460009081526003602081905260409091208781556001810187905580830186905501839055549050949350505050565b6003600087815260016020526040902060060154610100900460ff1660058111156124d7576124d7612fbc565b146125345760405162461bcd60e51b815260206004820152602760248201527f5374616b65686f6c64657220686176656e277420706169642074686520696e736044820152667572616e63652160c81b6064820152608401610884565b6000868152600160205260409020600701544290612553906064613457565b612560906276a700613319565b10156125a55760405162461bcd60e51b8152602060048201526014602482015273486176656e27742074616b65206566666563742160601b6044820152606401610884565b816040516020016125b69190613476565b60408051808303601f1901815290829052805160209091012060055463302e1ab160e01b83526004830187905290916001600160a01b039091169063302e1ab190602401600060405180830381865afa158015612617573d6000803e3d6000fd5b505050506040513d6000823e601f3d908101601f1916820160405261263f9190810190613492565b60405160200161264f9190613476565b6040516020818303038152906040528051906020012014801561272f57508060405160200161267e9190613476565b60408051808303601f1901815290829052805160209091012060055463caafc4fb60e01b83526004830187905290916001600160a01b039091169063caafc4fb90602401600060405180830381865afa1580156126df573d6000803e3d6000fd5b505050506040513d6000823e601f3d908101601f191682016040526127079190810190613492565b6040516020016127179190613476565b60405160208183030381529060405280519060200120145b6127875760405162461bcd60e51b815260206004820152602360248201527f496e76616c6964206c6966652061737375726564206e616d6520616e64204e5260448201526249432160e81b6064820152608401610884565b600554604051635d555abd60e11b8152600481018690526002916001600160a01b03169063baaab57a90602401602060405180830381865afa1580156127d1573d6000803e3d6000fd5b505050506040513d601f19601f820116820180604052508101906127f59190613509565b600281111561280657612806612fbc565b141561289757600086815260016020526040902060070154429061282b906064613457565b612839906303c26700613319565b10156128975760405162461bcd60e51b815260206004820152602760248201527f496620737569636964652063616e6e6f7420636c61696d2077697468696e20326044820152662079656172732160c81b6064820152608401610884565b6000868152600160209081526040808320600490810154898552600890935292819020600381015484549251635cdbb28560e11b81526001600160a01b03918216958101869052939491939192859291169063b9b7650a90602401602060405180830381865afa15801561290f573d6000803e3d6000fd5b505050506040513d601f19601f820116820180604052508101906129339190613356565b10156129815760405162461bcd60e51b815260206004820152601e60248201527f6e6f7420656e6f756768205472757374496e7375726520746f207061792100006044820152606401610884565b600480546040516303456ea360e41b81526001600160a01b0384811693820193909352888316602482015260448101869052911690633456ea3090606401600060405180830381600087803b1580156129d957600080fd5b505af11580156129ed573d6000803e3d6000fd5b50505060008a815260016020526040902060060180546004925061ff001916610100830217905550604080516001600160a01b0388168152602081018590527fa9059cbb2ab09eb219583f4a59a5d0623ade346d962bcd4e46b11da047c9049b9101610a7f565b806007548111158015612a6657508015155b612a825760405162461bcd60e51b815260040161088490613279565b6000828152600860205260409020600481015460328110801590612aa7575060c88111155b15612ab757600182810155612b59565b60c881118015612ac9575061015e8111155b15612ada5760026001830155612b59565b61015e81118015612aed57506101c28111155b15612afe5760036001830155612b59565b6101c281118015612b1157506103208111155b15612b225760046001830155612b59565b61032081118015612b3557506107d08111155b15612b465760056001830155612b59565b6107d0811115612b59576103e760018301555b50505050565b828054612b6b90613244565b90600052602060002090601f016020900481019282612b8d5760008555612bd3565b82601f10612ba657805160ff1916838001178555612bd3565b82800160010185558215612bd3579182015b82811115612bd3578251825591602001919060010190612bb8565b50612bdf929150612c47565b5090565b60405180610140016040528060008152602001600081526020016000815260200160008152602001600081526020016000815260200160006001811115612c2c57612c2c612fbc565b81526020016000815260200160008152602001600081525090565b5b80821115612bdf5760008155600101612c48565b634e487b7160e01b600052604160045260246000fd5b604051601f8201601f1916810167ffffffffffffffff81118282101715612c9b57612c9b612c5c565b604052919050565b600067ffffffffffffffff821115612cbd57612cbd612c5c565b50601f01601f191660200190565b600082601f830112612cdc57600080fd5b8135612cef612cea82612ca3565b612c72565b818152846020838601011115612d0457600080fd5b816020850160208301376000918101602001919091529392505050565b600060208284031215612d3357600080fd5b813567ffffffffffffffff811115612d4a57600080fd5b612d5684828501612ccb565b949350505050565b600060208284031215612d7057600080fd5b5035919050565b80356001600160a01b0381168114612d8e57600080fd5b919050565b600060208284031215612da557600080fd5b612dae82612d77565b9392505050565b60008060408385031215612dc857600080fd5b50508035926020909101359150565b60008060008060808587031215612ded57600080fd5b8435935060208501359250604085013567ffffffffffffffff80821115612e1357600080fd5b612e1f88838901612ccb565b93506060870135915080821115612e3557600080fd5b50612e4287828801612ccb565b91505092959194509250565b600080600080600080600060e0888a031215612e6957600080fd5b87359650602088013595506040880135945060608801359350612e8e60808901612d77565b925060a088013567ffffffffffffffff80821115612eab57600080fd5b612eb78b838c01612ccb565b935060c08a0135915080821115612ecd57600080fd5b50612eda8a828b01612ccb565b91505092959891949750929550565b60005b83811015612f04578181015183820152602001612eec565b83811115612b595750506000910152565b60008151808452612f2d816020860160208601612ee9565b601f01601f19169290920160200192915050565b85815284602082015260a060408201526000612f6060a0830186612f15565b6001600160a01b0394909416606083015250608001529392505050565b60008060008060808587031215612f9357600080fd5b843593506020850135925060408501359150612fb160608601612d77565b905092959194509250565b634e487b7160e01b600052602160045260246000fd5b60028110612fe257612fe2612fbc565b9052565b60068110612fe257612fe2612fbc565b6000610140820190508b82528a60208301528960408301528860608301528760808301528660a083015261302d60c0830187612fd2565b61303a60e0830186612fe6565b610100820193909352610120015298975050505050505050565b6020810161109e8284612fe6565b60038110612fe257612fe2612fbc565b604081016130808285613062565b8260208301529392505050565b602081526000612dae6020830184612f15565b600061014082019050825182526020830151602083015260408301516040830152606083015160608301526080830151608083015260a083015160a083015260c08301516130f160c0840182612fd2565b5060e083015161310460e0840182612fe6565b50610100838101519083015261012092830151929091019190915290565b600080600080600080600060e0888a03121561313d57600080fd5b8735965060208801359550604088013594506060880135935060808801356002811061316857600080fd5b9699959850939692959460a0840135945060c09093013592915050565b6000806040838503121561319857600080fd5b8235600681106131a757600080fd5b946020939093013593505050565b6000806000606084860312156131ca57600080fd5b505081359360208301359350604090920135919050565b600080600080608085870312156131f757600080fd5b5050823594602084013594506040840135936060013592509050565b634e487b7160e01b600052601160045260246000fd5b600060001982141561323d5761323d613213565b5060010190565b600181811c9082168061325857607f821691505b602082108114156114ad57634e487b7160e01b600052602260045260246000fd5b602080825260139082015272496e76616c696420636f6d70616e792069642160681b604082015260600190565b602080825260169082015275596f7520617265206e6f7420746865206f776e65722160501b604082015260600190565b634e487b7160e01b600052603260045260246000fd5b602080825260139082015272496e76616c696420726571756573742069642160681b604082015260600190565b6000821982111561332c5761332c613213565b500190565b60008282101561334357613343613213565b500390565b6020810161109e8284613062565b60006020828403121561336857600080fd5b5051919050565b600081518084526020808501945080840160005b8381101561339f57815187529582019590820190600101613383565b509495945050505050565b600081518084526020808501808196508360051b8101915082860160005b858110156133f25782840389526133e0848351612f15565b988501989350908401906001016133c8565b5091979650505050505050565b608081526000613412608083018761336f565b8281036020840152613424818761336f565b9050828103604084015261343881866133aa565b9050828103606084015261344c81856133aa565b979650505050505050565b600081600019048311821515161561347157613471613213565b500290565b60008251613488818460208701612ee9565b9190910192915050565b6000602082840312156134a457600080fd5b815167ffffffffffffffff8111156134bb57600080fd5b8201601f810184136134cc57600080fd5b80516134da612cea82612ca3565b8181528560208385010111156134ef57600080fd5b613500826020830160208601612ee9565b95945050505050565b60006020828403121561351b57600080fd5b815160038110612dae57600080fdfea2646970667358221220e33f6d0185485f61983bade8d6aec01e3a8ec1ac613968f24ede2c89f2e8047264736f6c634300080c0033",
  "immutableReferences": {},
  "source": "pragma solidity ^0.8.12;\npragma experimental ABIEncoderV2;\nimport \"./Insurance.sol\";\nimport \"./Hospital.sol\";\nimport \"./TrustInsure.sol\";\n\ncontract InsuranceCompany is Insurance {\n    TrustInsure trustinsureInstance;\n    Hospital hospitalInstance;\n    enum requestStatus {approved, rejected, pending}\n\n    struct insuranceCompany {\n        uint256 companyId;\n        uint256 credit;\n        string name;\n        address owner;\n        uint256 completed; //number range to stars\n        mapping(uint256 => insurance) insuranceIds;\n        Request[] requestLists;\n    }\n\n    struct Request {\n        uint256 reqId;\n        uint256 buyerId;\n        string contact;\n        string productType;\n        requestStatus status;\n        uint256 insuranceId;\n    }\n\n    constructor(Hospital hospitalInstanceAddress, \n                TrustInsure trustinsureInstanceAddress) \n    public \n    {\n        hospitalInstance = hospitalInstanceAddress;  \n        trustinsureInstance = trustinsureInstanceAddress;    \n    }\n\n    uint256 numOfReq = 0;\n    uint256 numOfCompany = 0;\n    mapping(uint256 => insuranceCompany) public companies;\n    mapping(address => uint256) public ids;\n    \n\n    event create (uint256 insuranceId);\n    event transfer (address beneficiary, uint256 amount);\n    event allRequests(uint256[] requestids,\n        uint256[] buyerids,\n        string[] buyercontacts,\n        string[] producttypes);\n    event requestSolve(uint256 requestId,uint256 insuranceId);\n    event requestReject(uint256 requestId);\n    event checkRequest(requestStatus status);\n    event allPaid(uint256 insuranceID);\n    event askingCert (uint256 insuranceID);\n    event claimingFromComp (uint256 insuranceID, uint256 mcId);\n\n\n// =====================================================================================\n// modifiers\n// =====================================================================================\n   \n    modifier ownerOnly(uint256 companyId) {\n        require(companies[companyId].owner == msg.sender, \"You are not the owner!\");\n        _;\n    }\n    \n    modifier validCompanyId(uint256 companyId) {\n        require(companyId <= numOfCompany && companyId != 0, \"Invalid company id!\");\n        _;\n    }\n\n    modifier validBeneficiary(uint256 insuranceId, uint256 beneficiaryID) {\n        require(stakeholderinfos[insurances[insuranceId].stakeholders].beneficiary == beneficiaryID, \"Invalid beneficiary!\");\n        _;\n    }\n\n    modifier validPolicyOwner(uint256 insuranceId, uint256 policyOwnerID) {\n        require(stakeholderinfos[insurances[insuranceId].stakeholders].policyOwner == policyOwnerID, \"Invalid policy owner!\");\n        _;\n    }\n\n    modifier onlyCompanyOwner() {\n        require(ids[msg.sender] != 0, \"You are not authorized!\");\n        _;\n    }\n\n// =====================================================================================\n// functions\n// =====================================================================================\n\n\n    /**\n    * @dev Register an insurance company\n    * @param name (string): the name of the new insurance company\n    * @return uint256 id of the company\n    */\n    function registerCompany(string memory name) public payable returns(uint256) {\n        require(msg.value > 0.01 ether, \"at least 0.01 ETH is needed to create a company\");\n        \n        numOfCompany++;\n        insuranceCompany storage newCompany = companies[numOfCompany];\n        \n        newCompany.companyId = numOfCompany;\n        newCompany.credit = 0;\n        newCompany.name = name;\n        newCompany.owner = msg.sender;\n        newCompany.completed = 0;\n\n        ids[msg.sender] = numOfCompany;\n        \n        return numOfCompany; \n    }\n\n    /**\n    * @dev Create related stakeholders profile for the insurance\n    * @param policyOwner the id of the stakeholder who want to purchase the insurance policy\n    * @param beneficiary the id of the stakeholder who will be benefited when the insurance is claimed\n    * @param lifeAssured the id of the stakeholder being assured\n    * @param payingAccount the id of the stakeholder who will receive the payment\n    * @return uint256 number of stakeholder\n    */\n    function createStakeholderInfo (uint256 policyOwner,\n        uint256  beneficiary,\n        uint256 lifeAssured,\n        uint256 payingAccount) \n    public onlyCompanyOwner\n    override returns(uint256) \n    {\n        numStakeholder++;\n        stakeholderInfo storage newInfo = stakeholderinfos[numStakeholder];\n        \n        newInfo.policyOwner = policyOwner;\n        newInfo.beneficiary = beneficiary;\n        newInfo.lifeAssured = lifeAssured;\n        newInfo.payingAccount = payingAccount;\n        \n        return numStakeholder;\n    }\n\n    /**\n    * @dev Create the insurance\n    * @param stakeholderInfoId the id of the stakeholder info that created before\n    * @param companyId the id of the company\n    * @param premium the total amount of premium fee that stakeholder should pay before claim\n    * @param insuredAmount the total amount of payment when the insurnace is claimed\n    * @param insType0life1accident the type of insurance, 0 for life or 1 for accident insurance\n    * @param issueDateYYYYMMDD The date of the insurance being created\n    * @param expiryDateYYYYMMDD The date of the insurance will be expired\n    * @return uint256 insurance id\n    */\n    function createInsurance (\n        uint256 stakeholderInfoId,\n        uint256 companyId,\n        uint256 premium,\n        uint256 insuredAmount,\n        Insurance.insuranceType insType0life1accident,\n        uint256 issueDateYYYYMMDD,\n        uint256 expiryDateYYYYMMDD\n    ) \n    public validCompanyId(companyId) ownerOnly(companyId)\n    override returns(uint256) \n    {\n        require(trustinsureInstance.checkInsure(msg.sender) > 1, \"1 TrustInsure is needed to create a new insurance\"); \n        require(issueDateYYYYMMDD > 10000000, \"Invalid issue date!\");\n        require(expiryDateYYYYMMDD > 10000000, \"Invalid expiry date!\");\n        require(issueDateYYYYMMDD < expiryDateYYYYMMDD, \"Invalid expiry date!\");\n        numInsurance++;\n        //new insurance object\n        insurance storage newInsurance = insurances[numInsurance];\n        newInsurance.stakeholders = stakeholderInfoId;\n        newInsurance.companyId = companyId;\n        newInsurance.premium = premium;\n        newInsurance.insuredAmount = insuredAmount;\n        newInsurance.currentAmount = 0;\n        newInsurance.insType = insType0life1accident;\n        newInsurance.status = status.unapproved; // initialise  status to unapproved\n        newInsurance.issueDate = issueDateYYYYMMDD;\n        newInsurance.expiryDate = expiryDateYYYYMMDD; \n\n        emit create(numInsurance);\n        \n        return numInsurance;   //return new insurance Id\n    }\n\n    /**\n    * @dev Update request status and related insurance information\n    * @param companyId the id of the company\n    * @param requestId which request the company want to update and address\n    * @param insuranceId the id of the insurance that the company created specific for the request\n    */\n    function solveRequest(uint256 companyId, uint256 requestId, uint256 insuranceId) \n    public  onlyCompanyOwner\n    {\n        if (requestId != 0) {\n            uint256 index;\n            Request[] memory reqs = companies[companyId].requestLists;\n            uint256 length = reqs.length;\n            bool find = false;\n            for (uint256 i = 0; i < length; i++) {\n                if (reqs[i].reqId == requestId) {\n                    index = i;\n                    find = true;\n                }\n            }\n            \n            require(find == true, \"Invalid request id!\");\n            if (find) {\n                companies[companyId].requestLists[index].insuranceId = insuranceId;\n                companies[companyId].requestLists[index].status = requestStatus.approved;\n                emit requestSolve(requestId, insuranceId);\n            }\n        }        \n    }\n\n    /** \n    * @dev Allow the policyowner to verify the insurance contract information and sign\n    * @param insuranceId the id of the insurance\n    * @param companyId the id of the company\n    * @param policyOwnerID the id of the policy owner\n    */\n    //stakeholder call this function to sign the insurance\n    function signInsurance(uint256 insuranceId,uint256 companyId, uint256 policyOwnerID) \n    external\n    validCompanyId(companyId) validPolicyOwner(insuranceId, policyOwnerID)\n    {\n        insurances[insuranceId].status = Insurance.status.processing;\n\n        companies[companyId].insuranceIds[insuranceId] = insurances[insuranceId];\n        companies[companyId].completed++;\n        updateCredit(companyId);\n    }\n\n    /** \n    * @dev function to update the credit of company once a insurance is signed\n    * @param companyId the id of the company\n    */\n    function updateCredit(uint256 companyId) private validCompanyId(companyId) {\n        insuranceCompany storage company = companies[companyId];\n        uint256 completed = company.completed;\n        if(completed >=50 && completed <=200) {\n            company.credit = 1;\n        } else if(completed >200 && completed <=350) {\n            company.credit = 2;\n        } else if(completed >350 && completed <=450) {\n            company.credit = 3;\n        } else if(completed >450 && completed <=800) {\n            company.credit = 4;\n        } else if(completed >800 && completed <=2000) {\n            company.credit = 5;\n        } else if(completed >2000) {\n            company.credit = 999;\n        } \n    }\n\n    /** \n    * @dev Allow the policy owner to pay the premium\n    * @param insuranceId the id of the insurance\n    * @param amount the id of the insurance\n    * @param policyOwnerID the id of the policy owner\n    * @param policyOwner the address of policyowner\n    */\n    function payPremium(uint256 insuranceId, uint256 amount, uint256 policyOwnerID, address policyOwner) external validPolicyOwner(insuranceId, policyOwnerID){\n        address companyAddress = companies[insurances[insuranceId].companyId].owner;\n        trustinsureInstance.transferFromInsure(policyOwner,companyAddress,amount);\n\n        //mark as paid      \n        insurances[insuranceId].currentAmount += amount;\n        if (insurances[insuranceId].currentAmount == insurances[insuranceId].premium) {\n            insurances[insuranceId].status = status.paid;\n        }\n        \n        emit allPaid(insuranceId);\n    }\n\n    /** \n    * @dev Claim insurance\n    * @param insuranceID the id of the insurance\n    * @param companyId the id of the company\n    * @param mcId the id of the medical certificate\n    * @param beneficiaryID the id of beneficiary\n    * @param beneficiaryAddress the address of beneficiary\n    * @param name the name of the life assured\n    * @param NRIC the NRIC of the life assured\n    */\n    function claim(uint256 insuranceID,uint256 companyId, \n    uint256 mcId,uint256 beneficiaryID,\n    address beneficiaryAddress,\n    string memory name, string memory NRIC) \n    external validBeneficiary(insuranceID, beneficiaryID)\n    {\n        //step1: ask for cert from hospital\n        emit askingCert(insuranceID);\n\n        //step2: tell insurance company to pay back\n        autoTransfer(insuranceID, companyId, mcId, beneficiaryAddress, name, NRIC);\n        emit claimingFromComp(insuranceID,mcId);\n    }\n\n    //  /** \n    // * @dev check stakeholder details and mc details, if correct auto transfer money\n    // * @param  {uint256} insuranceId, {uint256} companyId,{uint256} _hospitalId,{bytes} mcId\n    // */\n    function autoTransfer(uint256 insuranceId,uint256 companyId,uint256 mcId,\n    address beneficiaryAddress,string memory name, string memory NRIC) private {\n        // Insurance memory insurance = insuranceInstance.getInsurance(insuranceId);\n        require(insurances[insuranceId].status == Insurance.status.paid, \"Stakeholder haven't paid the insurance!\");\n        //insurance valid from date \n        require(insurances[insuranceId].issueDate * 100 + 90 days >= block.timestamp, \"Haven't take effect!\");\n\n        require(keccak256(abi.encodePacked(hospitalInstance.getMCName(mcId))) == keccak256(abi.encodePacked(name)) && \n        keccak256(abi.encodePacked(hospitalInstance.getMCNRIC(mcId))) ==  keccak256(abi.encodePacked(NRIC)), \n        \"Invalid life assured name and NRIC!\");\n        //cert if its suicide\n        if(hospitalInstance.getMCCategory(mcId) == MedicalCertificate.certCategory.suicide) {  \n            require(insurances[insuranceId].issueDate * 100 + 2*365 days >= block.timestamp, \"If suicide cannot claim within 2 years!\");\n        }\n\n        uint256 value = insurances[insuranceId].insuredAmount;\n        insuranceCompany storage company = companies[companyId];\n\n        address companyOwner  = address(company.owner);\n        require(trustinsureInstance.checkInsure(companyOwner) >= value,\"not enough TrustInsure to pay!\");\n        \n        trustinsureInstance.transferFromInsure(companyOwner, beneficiaryAddress, value);\n        insurances[insuranceId].status = Insurance.status.claimed;\n        emit transfer(beneficiaryAddress, value);\n    }\n\n    // /**\n    // * @dev Allow insurance market to update requests\n    // * @return bool whether added successfullly\n    // * @return uint256 numOfReq request id\n    // */\n    function addRequestLists(uint256 _buyerId, uint256 _companyId, string memory contact, string memory _typeProduct) \n    external \n    returns(bool, uint256) \n    {\n        Request storage req =  companies[_companyId].requestLists.push();\n        \n        numOfReq++;\n        req.reqId = numOfReq;\n        req.buyerId =  _buyerId;\n        req.contact = contact;\n        req.productType = _typeProduct;\n        req.status = requestStatus.pending;\n        return (true, numOfReq);\n    }\n\n    // /**\n    // * @dev Allow insurance company check all requests\n    // */\n    function checkRequestsFromCompany(uint256 companyId) \n    public validCompanyId(companyId) ownerOnly(companyId) \n    {\n        Request[] memory reqs = companies[companyId].requestLists;\n        uint256[] memory requestids = new uint256[](reqs.length);\n        uint256[] memory buyerids = new uint256[](reqs.length);\n        string[] memory buyercontacts= new string[](reqs.length);\n        string[] memory producttypes = new string[](reqs.length);\n\n        //only show those pending requests\n        for(uint256 i = 0;i< reqs.length;i++) {\n            if (reqs[i].status == requestStatus.pending) {\n                requestids[i] = reqs[i].reqId;\n                buyerids[i] = reqs[i].buyerId;\n                buyercontacts[i] = reqs[i].contact;\n                producttypes[i] = reqs[i].productType;\n            }\n        }\n\n        emit allRequests(requestids,\n        buyerids,\n        buyercontacts,\n        producttypes);\n       \n    }\n    \n    // /**\n    // * @dev Allow insurance company reject request\n    // */\n    function rejectRequest(uint256 requestId,uint256 companyId) public\n    validCompanyId(companyId) ownerOnly(companyId)  \n    {\n        require(requestId != 0, \"Input valid requestId!\");\n\n        uint256 index;\n        Request[] memory reqs = companies[companyId].requestLists;\n        uint256 length = reqs.length;\n        bool find = false;\n        for (uint256 i = 0; i < length; i++) {\n            if (reqs[i].reqId == requestId) {\n                index = i;\n                find = true;\n            }\n        }\n        \n        require(find == true, \"Invalid request id!\");\n        if (find) {\n            reqs[index].status = requestStatus.rejected;\n            emit requestReject(requestId);\n        }\n\n    }\n\n    // /**\n    // * @dev Allow stakeholder to check request status\n    // */\n    function checkRequestsFromStakeholder(uint256 companyId, uint256 requestId) external returns (requestStatus, uint256) {\n        require(requestId != 0, \"Invalid request id!\");\n\n        uint256 index;\n        Request[] memory reqs = companies[companyId].requestLists;\n        uint256 length = reqs.length;\n        bool find = false;\n        for (uint256 i = 0; i < length; i++) {\n            if (reqs[i].reqId == requestId) {\n                index = i;\n                find = true;\n            }\n        }\n        \n        require(find == true, \"You haven't requested!\");\n        if (find) {\n            emit checkRequest(reqs[index].status);\n        }\n        \n        return (reqs[index].status, reqs[index].insuranceId);\n    }\n    \n// =====================================================================================\n// getters\n// =====================================================================================\n    \n    //get the company credit\n    function getCredit(uint256 companyId) public view validCompanyId(companyId) returns (uint256) {\n        return companies[companyId].credit;\n    }\n\n    function getName(uint256 companyId) public view validCompanyId(companyId) returns (string memory) {\n        return companies[companyId].name;\n    }\n    \n    function getOwner(uint256 companyId) public view validCompanyId(companyId) returns (address) {\n        return companies[companyId].owner;\n    }\n    \n    function getCompanyId() public view returns(uint256) {\n        return ids[msg.sender];\n    }\n    \n\n    function getNumOfCompany() public view returns (uint256) {\n        return numOfCompany;\n    }\n\n\n}\n",
  "sourcePath": "/Users/yco/Desktop/IS4302/IS4302_Group12/contracts/InsuranceCompany.sol",
  "compiler": {
    "name": "solc",
    "version": "0.8.12+commit.f00d7308.Emscripten.clang"
  },
  "schemaVersion": "3.4.11",
  "updatedAt": "2023-04-13T00:18:24.253Z",
  "networkType": "ethereum",
  "devdoc": {
    "kind": "dev",
    "methods": {
      "claim(uint256,uint256,uint256,uint256,address,string,string)": {
        "details": "Claim insurance",
        "params": {
          "NRIC": "the NRIC of the life assured",
          "beneficiaryAddress": "the address of beneficiary",
          "beneficiaryID": "the id of beneficiary",
          "companyId": "the id of the company",
          "insuranceID": "the id of the insurance",
          "mcId": "the id of the medical certificate",
          "name": "the name of the life assured"
        }
      },
      "createInsurance(uint256,uint256,uint256,uint256,uint8,uint256,uint256)": {
        "details": "Create the insurance",
        "params": {
          "companyId": "the id of the company",
          "expiryDateYYYYMMDD": "The date of the insurance will be expired",
          "insType0life1accident": "the type of insurance, 0 for life or 1 for accident insurance",
          "insuredAmount": "the total amount of payment when the insurnace is claimed",
          "issueDateYYYYMMDD": "The date of the insurance being created",
          "premium": "the total amount of premium fee that stakeholder should pay before claim",
          "stakeholderInfoId": "the id of the stakeholder info that created before"
        },
        "returns": {
          "_0": "uint256 insurance id"
        }
      },
      "createStakeholderInfo(uint256,uint256,uint256,uint256)": {
        "details": "Create related stakeholders profile for the insurance",
        "params": {
          "beneficiary": "the id of the stakeholder who will be benefited when the insurance is claimed",
          "lifeAssured": "the id of the stakeholder being assured",
          "payingAccount": "the id of the stakeholder who will receive the payment",
          "policyOwner": "the id of the stakeholder who want to purchase the insurance policy"
        },
        "returns": {
          "_0": "uint256 number of stakeholder"
        }
      },
      "payPremium(uint256,uint256,uint256,address)": {
        "details": "Allow the policy owner to pay the premium",
        "params": {
          "amount": "the id of the insurance",
          "insuranceId": "the id of the insurance",
          "policyOwner": "the address of policyowner",
          "policyOwnerID": "the id of the policy owner"
        }
      },
      "registerCompany(string)": {
        "details": "Register an insurance company",
        "params": {
          "name": "(string): the name of the new insurance company"
        },
        "returns": {
          "_0": "uint256 id of the company"
        }
      },
      "signInsurance(uint256,uint256,uint256)": {
        "details": "Allow the policyowner to verify the insurance contract information and sign",
        "params": {
          "companyId": "the id of the company",
          "insuranceId": "the id of the insurance",
          "policyOwnerID": "the id of the policy owner"
        }
      },
      "solveRequest(uint256,uint256,uint256)": {
        "details": "Update request status and related insurance information",
        "params": {
          "companyId": "the id of the company",
          "insuranceId": "the id of the insurance that the company created specific for the request",
          "requestId": "which request the company want to update and address"
        }
      }
    },
    "version": 1
  },
  "userdoc": {
    "kind": "user",
    "methods": {},
    "version": 1
  }
}