{
  "contractName": "Insurance",
  "abi": [
    {
      "inputs": [
        {
          "internalType": "uint256",
          "name": "",
          "type": "uint256"
        }
      ],
      "name": "insurances",
      "outputs": [
        {
          "internalType": "uint256",
          "name": "ID",
          "type": "uint256"
        },
        {
          "internalType": "uint256",
          "name": "companyId",
          "type": "uint256"
        },
        {
          "internalType": "uint256",
          "name": "stakeholders",
          "type": "uint256"
        },
        {
          "internalType": "uint256",
          "name": "premium",
          "type": "uint256"
        },
        {
          "internalType": "uint256",
          "name": "insuredAmount",
          "type": "uint256"
        },
        {
          "internalType": "uint256",
          "name": "currentAmount",
          "type": "uint256"
        },
        {
          "internalType": "enum Insurance.insuranceType",
          "name": "insType",
          "type": "uint8"
        },
        {
          "internalType": "enum Insurance.status",
          "name": "status",
          "type": "uint8"
        },
        {
          "internalType": "uint256",
          "name": "issueDate",
          "type": "uint256"
        },
        {
          "internalType": "uint256",
          "name": "expiryDate",
          "type": "uint256"
        }
      ],
      "stateMutability": "view",
      "type": "function"
    },
    {
      "inputs": [],
      "name": "numInsurance",
      "outputs": [
        {
          "internalType": "uint256",
          "name": "",
          "type": "uint256"
        }
      ],
      "stateMutability": "view",
      "type": "function"
    },
    {
      "inputs": [],
      "name": "numStakeholder",
      "outputs": [
        {
          "internalType": "uint256",
          "name": "",
          "type": "uint256"
        }
      ],
      "stateMutability": "view",
      "type": "function"
    },
    {
      "inputs": [
        {
          "internalType": "uint256",
          "name": "",
          "type": "uint256"
        }
      ],
      "name": "stakeholderinfos",
      "outputs": [
        {
          "internalType": "uint256",
          "name": "policyOwner",
          "type": "uint256"
        },
        {
          "internalType": "uint256",
          "name": "beneficiary",
          "type": "uint256"
        },
        {
          "internalType": "uint256",
          "name": "lifeAssured",
          "type": "uint256"
        },
        {
          "internalType": "uint256",
          "name": "payingAccount",
          "type": "uint256"
        }
      ],
      "stateMutability": "view",
      "type": "function"
    },
    {
      "inputs": [
        {
          "internalType": "uint256",
          "name": "policyOwner",
          "type": "uint256"
        },
        {
          "internalType": "uint256",
          "name": "beneficiary",
          "type": "uint256"
        },
        {
          "internalType": "uint256",
          "name": "lifeAssured",
          "type": "uint256"
        },
        {
          "internalType": "uint256",
          "name": "payingAccount",
          "type": "uint256"
        }
      ],
      "name": "createStakeholderInfo",
      "outputs": [
        {
          "internalType": "uint256",
          "name": "",
          "type": "uint256"
        }
      ],
      "stateMutability": "nonpayable",
      "type": "function"
    },
    {
      "inputs": [
        {
          "internalType": "uint256",
          "name": "stakeholderInfoId",
          "type": "uint256"
        },
        {
          "internalType": "uint256",
          "name": "companyId",
          "type": "uint256"
        },
        {
          "internalType": "uint256",
          "name": "premium",
          "type": "uint256"
        },
        {
          "internalType": "uint256",
          "name": "insuredAmount",
          "type": "uint256"
        },
        {
          "internalType": "enum Insurance.insuranceType",
          "name": "insType0life1accident",
          "type": "uint8"
        },
        {
          "internalType": "uint256",
          "name": "issueDateYYYYMMDD",
          "type": "uint256"
        },
        {
          "internalType": "uint256",
          "name": "expiryDateYYYYMMDD",
          "type": "uint256"
        }
      ],
      "name": "createInsurance",
      "outputs": [
        {
          "internalType": "uint256",
          "name": "",
          "type": "uint256"
        }
      ],
      "stateMutability": "nonpayable",
      "type": "function"
    },
    {
      "inputs": [
        {
          "internalType": "uint256",
          "name": "newBeneficiary",
          "type": "uint256"
        },
        {
          "internalType": "uint256",
          "name": "insuranceId",
          "type": "uint256"
        }
      ],
      "name": "setBeneficiary",
      "outputs": [],
      "stateMutability": "nonpayable",
      "type": "function"
    },
    {
      "inputs": [
        {
          "internalType": "enum Insurance.status",
          "name": "state",
          "type": "uint8"
        },
        {
          "internalType": "uint256",
          "name": "insuranceId",
          "type": "uint256"
        }
      ],
      "name": "updateStatus",
      "outputs": [],
      "stateMutability": "nonpayable",
      "type": "function"
    },
    {
      "inputs": [
        {
          "internalType": "uint256",
          "name": "date",
          "type": "uint256"
        },
        {
          "internalType": "uint256",
          "name": "insuranceId",
          "type": "uint256"
        }
      ],
      "name": "setExpiryDate",
      "outputs": [],
      "stateMutability": "nonpayable",
      "type": "function"
    },
    {
      "inputs": [
        {
          "internalType": "uint256",
          "name": "insuranceId",
          "type": "uint256"
        }
      ],
      "name": "getInsurance",
      "outputs": [
        {
          "components": [
            {
              "internalType": "uint256",
              "name": "ID",
              "type": "uint256"
            },
            {
              "internalType": "uint256",
              "name": "companyId",
              "type": "uint256"
            },
            {
              "internalType": "uint256",
              "name": "stakeholders",
              "type": "uint256"
            },
            {
              "internalType": "uint256",
              "name": "premium",
              "type": "uint256"
            },
            {
              "internalType": "uint256",
              "name": "insuredAmount",
              "type": "uint256"
            },
            {
              "internalType": "uint256",
              "name": "currentAmount",
              "type": "uint256"
            },
            {
              "internalType": "enum Insurance.insuranceType",
              "name": "insType",
              "type": "uint8"
            },
            {
              "internalType": "enum Insurance.status",
              "name": "status",
              "type": "uint8"
            },
            {
              "internalType": "uint256",
              "name": "issueDate",
              "type": "uint256"
            },
            {
              "internalType": "uint256",
              "name": "expiryDate",
              "type": "uint256"
            }
          ],
          "internalType": "struct Insurance.insurance",
          "name": "",
          "type": "tuple"
        }
      ],
      "stateMutability": "view",
      "type": "function"
    },
    {
      "inputs": [
        {
          "internalType": "uint256",
          "name": "insuranceId",
          "type": "uint256"
        }
      ],
      "name": "getInsuredAmount",
      "outputs": [
        {
          "internalType": "uint256",
          "name": "",
          "type": "uint256"
        }
      ],
      "stateMutability": "view",
      "type": "function"
    },
    {
      "inputs": [
        {
          "internalType": "uint256",
          "name": "insuranceId",
          "type": "uint256"
        }
      ],
      "name": "getIssueDate",
      "outputs": [
        {
          "internalType": "uint256",
          "name": "",
          "type": "uint256"
        }
      ],
      "stateMutability": "view",
      "type": "function"
    },
    {
      "inputs": [
        {
          "internalType": "uint256",
          "name": "insuranceId",
          "type": "uint256"
        }
      ],
      "name": "getExpiryDate",
      "outputs": [
        {
          "internalType": "uint256",
          "name": "",
          "type": "uint256"
        }
      ],
      "stateMutability": "view",
      "type": "function"
    },
    {
      "inputs": [
        {
          "internalType": "uint256",
          "name": "insuranceId",
          "type": "uint256"
        }
      ],
      "name": "getInsuranceCompany",
      "outputs": [
        {
          "internalType": "uint256",
          "name": "",
          "type": "uint256"
        }
      ],
      "stateMutability": "view",
      "type": "function"
    },
    {
      "inputs": [
        {
          "internalType": "uint256",
          "name": "insuranceId",
          "type": "uint256"
        }
      ],
      "name": "getStatus",
      "outputs": [
        {
          "internalType": "enum Insurance.status",
          "name": "",
          "type": "uint8"
        }
      ],
      "stateMutability": "view",
      "type": "function"
    },
    {
      "inputs": [
        {
          "internalType": "uint256",
          "name": "insuranceId",
          "type": "uint256"
        }
      ],
      "name": "getBeneficiary",
      "outputs": [
        {
          "internalType": "uint256",
          "name": "",
          "type": "uint256"
        }
      ],
      "stateMutability": "view",
      "type": "function"
    },
    {
      "inputs": [
        {
          "internalType": "uint256",
          "name": "stakeholderinfoId",
          "type": "uint256"
        }
      ],
      "name": "getPolicyOwner",
      "outputs": [
        {
          "internalType": "uint256",
          "name": "",
          "type": "uint256"
        }
      ],
      "stateMutability": "view",
      "type": "function"
    },
    {
      "inputs": [
        {
          "internalType": "uint256",
          "name": "insuranceId",
          "type": "uint256"
        }
      ],
      "name": "getRestAmount",
      "outputs": [
        {
          "internalType": "uint256",
          "name": "",
          "type": "uint256"
        }
      ],
      "stateMutability": "view",
      "type": "function"
    }
  ],
  "bytecode": "0x608060405260008055600060025534801561001957600080fd5b506108a6806100296000396000f3fe608060405234801561001057600080fd5b50600436106101165760003560e01c8063703849d9116100a2578063b7ff5dae11610071578063b7ff5dae14610365578063ca00902114610378578063d91f2a0b14610398578063e0e5c324146103ab578063e22900ff146103c357600080fd5b8063703849d91461031857806385fae602146103215780638edd52971461034157806393e949c31461034a57600080fd5b8063575c2887116100e9578063575c28871461020d5780635998f7751461022057806359fb49f9146102435780635c622a0e146102bd5780636833f200146102f557600080fd5b80630386660a1461011b5780631a1fc3a014610151578063302df083146101845780633fa3ab26146101b6575b600080fd5b61013e610129366004610623565b60009081526001602052604090206007015490565b6040519081526020015b60405180910390f35b61018261015f36600461063c565b600090815260016020818152604080842060020154845260039091529091200155565b005b61013e610192366004610623565b60009081526001602081815260408084206002015484526003909152909120015490565b6101ed6101c4366004610623565b600360208190526000918252604090912080546001820154600283015492909301549092919084565b604080519485526020850193909352918301526060820152608001610148565b61013e61021b366004610623565b6103e7565b61013e61022e366004610623565b60009081526001602052604090206004015490565b6102a7610251366004610623565b60016020819052600091825260409091208054918101546002820154600383015460048401546005850154600686015460078701546008909701549596949593949293919260ff8083169361010090930416918a565b6040516101489a99989796959493929190610698565b6102e86102cb366004610623565b600090815260016020526040902060060154610100900460ff1690565b60405161014891906106f6565b61013e610303366004610623565b60009081526001602052604090206008015490565b61013e60005481565b61033461032f366004610623565b610410565b6040516101489190610704565b61013e60025481565b61013e610358366004610786565b6000979650505050505050565b6101826103733660046107e9565b6104ff565b61013e610386366004610623565b60009081526003602052604090205490565b6101826103a636600461063c565b610538565b61013e6103b9366004610819565b6000949350505050565b61013e6103d1366004610623565b6000908152600160208190526040909120015490565b6000818152600160205260408120600581015460039091015461040a919061084b565b92915050565b6104186105bf565b60016000838152602001908152602001600020604051806101400160405290816000820154815260200160018201548152602001600282015481526020016003820154815260200160048201548152602001600582015481526020016006820160009054906101000a900460ff1660018111156104975761049761065e565b60018111156104a8576104a861065e565b81526020016006820160019054906101000a900460ff1660058111156104d0576104d061065e565b60058111156104e1576104e161065e565b81526007820154602082015260089091015460409091015292915050565b6000818152600160205260409020600601805483919061ff00191661010083600581111561052f5761052f61065e565b02179055505050565b6000818152600160205260409020600801546105ab5760405162461bcd60e51b815260206004820152602860248201527f45787069727920646174652068617320616c7265616479206265656e20696e696044820152671d1a585b1a5cd95960c21b606482015260840160405180910390fd5b600090815260016020526040902060080155565b604051806101400160405280600081526020016000815260200160008152602001600081526020016000815260200160008152602001600060018111156106085761060861065e565b81526020016000815260200160008152602001600081525090565b60006020828403121561063557600080fd5b5035919050565b6000806040838503121561064f57600080fd5b50508035926020909101359150565b634e487b7160e01b600052602160045260246000fd5b600281106106845761068461065e565b9052565b600681106106845761068461065e565b6000610140820190508b82528a60208301528960408301528860608301528760808301528660a08301526106cf60c0830187610674565b6106dc60e0830186610688565b610100820193909352610120015298975050505050505050565b6020810161040a8284610688565b600061014082019050825182526020830151602083015260408301516040830152606083015160608301526080830151608083015260a083015160a083015260c083015161075560c0840182610674565b5060e083015161076860e0840182610688565b50610100838101519083015261012092830151929091019190915290565b600080600080600080600060e0888a0312156107a157600080fd5b873596506020880135955060408801359450606088013593506080880135600281106107cc57600080fd5b9699959850939692959460a0840135945060c09093013592915050565b600080604083850312156107fc57600080fd5b82356006811061080b57600080fd5b946020939093013593505050565b6000806000806080858703121561082f57600080fd5b5050823594602084013594506040840135936060013592509050565b60008282101561086b57634e487b7160e01b600052601160045260246000fd5b50039056fea2646970667358221220ef94573f24a161b2f19fa29953587164ea1bdbbdd1666c4a0d0f3a89afa6f66364736f6c634300080c0033",
  "immutableReferences": {},
  "source": "pragma solidity ^0.8.12;\npragma experimental ABIEncoderV2;\n\ncontract Insurance {\n\n    enum insuranceType { life, accident }\n    enum status { unapproved, processing,  unpaid, paid, claimed, unclaimed}\n    enum reasonType { suicide, others }\n\n    struct stakeholderInfo {\n        uint256 policyOwner;\n        uint256 beneficiary;\n        uint256 lifeAssured;\n        uint256 payingAccount;\n\n    }\n\n    struct insurance {\n        uint256 ID;\n        uint256 companyId;\n        uint256 stakeholders;\n        uint256 premium;\n        uint256 insuredAmount;\n        uint256 currentAmount;\n        insuranceType insType;\n        status status;//\n        uint256 issueDate;\n        uint256 expiryDate;//\n    }\n    \n    uint256 public numInsurance = 0;\n    mapping(uint256 => insurance) public insurances;\n\n    uint256 public numStakeholder = 0;\n    mapping(uint256 => stakeholderInfo) public stakeholderinfos;\n\n// =====================================================================================\n// functions\n// =====================================================================================\n    \n    /** \n    * @dev Create related stakeholders profile for the insurance\n    * @param policyOwner the id of the stakeholder who want to purchase the insurance policy\n    * @param beneficiary the id of the stakeholder who will be benefited when the insurance is claimed\n    * @param lifeAssured the id of the stakeholder being assured\n    * @param payingAccount the id of the stakeholder who will receive the payment\n    */\n    function createStakeholderInfo (uint256 policyOwner,\n        uint256  beneficiary,\n        uint256 lifeAssured,\n        uint256 payingAccount) \n    public virtual returns(uint256) {}\n\n    /** \n    * @dev Create the insurance\n    * @param stakeholderInfoId the id of the stakeholder info that created before\n    * @param companyId the id of the company\n    * @param premium the total amount of premium fee that stakeholder should pay before claim\n    * @param insuredAmount the total amount of payment when the insurnace is claimed\n    * @param insType0life1accident the type of insurance, 0 for life or 1 for accident insurance\n    * @param issueDateYYYYMMDD The date of the insurance being created\n    * @param expiryDateYYYYMMDD The date of the insurance will be expired\n    */\n    function createInsurance(\n        uint256 stakeholderInfoId,\n        uint256 companyId,\n        uint256 premium,\n        uint256 insuredAmount,\n        insuranceType insType0life1accident,\n        uint256 issueDateYYYYMMDD,\n        uint256 expiryDateYYYYMMDD\n    ) \n    public virtual returns(uint256) {}\n\n    //modifier to ensure a function is callable only by its policy owner    \n    // modifier policyOwnerOnly(uint256 insuranceId) {\n    //     //stakeholderContract.getStakeholderAddress(uint256 stakeholderID)\n    //     require(stakeholderContract.getStakeholderAddress(insurances[insuranceId].stakeholders.policyOwner) ==  msg.sender);\n    //     _;\n    // }\n\n    //modifier to ensure a function is callable only by its insurance company   \n    // modifier companyOnly(uint256 insuranceId) {\n    //     require(insurances[insuranceId].company == msg.sender);\n    //     _;\n    // }\n\n// =====================================================================================\n// setters\n// =====================================================================================\n    function setBeneficiary(uint256 newBeneficiary, uint256 insuranceId) public {//policyOwnerOnly(insuranceId) {\n        stakeholderinfos[insurances[insuranceId].stakeholders].beneficiary = newBeneficiary;\n    }\n\n    function updateStatus(status state, uint256 insuranceId) public { //policyOwnerOnly(insuranceId) {\n        insurances[insuranceId].status = state;\n    }\n\n    function setExpiryDate(uint256 date, uint256 insuranceId) public {//companyOnly(insuranceId) {\n\t    require(insurances[insuranceId].expiryDate != 0, \"Expiry date has already been initialised\");\n        insurances[insuranceId].expiryDate = date;\n\n    }\n    \n    //return whether insured amount all paid\n    // function updateAmount(uint256 insuranceId, uint256 amount) public returns(bool) {\n    //     insurances[insuranceId].currentAmount += amount;\n    //     if (insurances[insuranceId].currentAmount == insurances[insuranceId].insuredAmount) {\n    //         insurances[insuranceId].status = status.paid;\n    //         return true;\n    //     }\n\n    //     return false;\n    // }\n\n// =====================================================================================\n// getters\n// =====================================================================================\n\n    function getInsurance(uint256 insuranceId) public view returns (insurance memory) {\n        return insurances[insuranceId];\n    }\n\n    function getInsuredAmount(uint256 insuranceId) public view  returns (uint256) {\n        return insurances[insuranceId].insuredAmount;\n    }\n\n    function getIssueDate(uint256 insuranceId) public  view returns (uint256) {\n        return insurances[insuranceId].issueDate;\n    }\n\n    function getExpiryDate(uint256 insuranceId) public  view returns (uint256) {\n        return insurances[insuranceId].expiryDate;\n    }\n\n    function getInsuranceCompany(uint256 insuranceId) public view returns (uint256) {\n        return insurances[insuranceId].companyId;\n    }\n\n    function getStatus(uint256 insuranceId) public view returns (status) {\n        return insurances[insuranceId].status;\n    }\n\n    function getBeneficiary(uint256 insuranceId) public view returns (uint256) {\n        return stakeholderinfos[insurances[insuranceId].stakeholders].beneficiary;\n    }\n\n    function getPolicyOwner(uint256 stakeholderinfoId) public view returns (uint256) {\n        return stakeholderinfos[stakeholderinfoId].policyOwner;\n    }\n\n    function getRestAmount(uint256 insuranceId) public view returns(uint256) {\n        return insurances[insuranceId].premium - insurances[insuranceId].currentAmount;\n    }\n\n}",
  "sourcePath": "/Users/lhhhhhy/Downloads/IS4302/IS4302_Group12/contracts/Insurance.sol",
  "compiler": {
    "name": "solc",
    "version": "0.8.12+commit.f00d7308.Emscripten.clang"
  },
  "schemaVersion": "3.4.11",
  "updatedAt": "2023-04-11T13:34:59.573Z",
  "devdoc": {
    "kind": "dev",
    "methods": {
      "createInsurance(uint256,uint256,uint256,uint256,uint8,uint256,uint256)": {
        "details": "Create the insurance",
        "params": {
          "companyId": "the id of the company",
          "expiryDateYYYYMMDD": "The date of the insurance will be expired",
          "insType0life1accident": "the type of insurance, 0 for life or 1 for accident insurance",
          "insuredAmount": "the total amount of payment when the insurnace is claimed",
          "issueDateYYYYMMDD": "The date of the insurance being created",
          "premium": "the total amount of premium fee that stakeholder should pay before claim",
          "stakeholderInfoId": "the id of the stakeholder info that created before"
        }
      },
      "createStakeholderInfo(uint256,uint256,uint256,uint256)": {
        "details": "Create related stakeholders profile for the insurance",
        "params": {
          "beneficiary": "the id of the stakeholder who will be benefited when the insurance is claimed",
          "lifeAssured": "the id of the stakeholder being assured",
          "payingAccount": "the id of the stakeholder who will receive the payment",
          "policyOwner": "the id of the stakeholder who want to purchase the insurance policy"
        }
      }
    },
    "version": 1
  },
  "userdoc": {
    "kind": "user",
    "methods": {},
    "version": 1
  }
}