{
  "contractName": "MedicalCertificate",
  "abi": [
    {
      "anonymous": false,
      "inputs": [
        {
          "indexed": false,
          "internalType": "uint256",
          "name": "numMC",
          "type": "uint256"
        }
      ],
      "name": "mcCreated",
      "type": "event"
    },
    {
      "inputs": [
        {
          "internalType": "uint256",
          "name": "hospitalId",
          "type": "uint256"
        },
        {
          "internalType": "string",
          "name": "password",
          "type": "string"
        },
        {
          "internalType": "string",
          "name": "name",
          "type": "string"
        },
        {
          "internalType": "string",
          "name": "NRIC",
          "type": "string"
        },
        {
          "internalType": "string",
          "name": "sex",
          "type": "string"
        },
        {
          "internalType": "string",
          "name": "birthdateYYYYMMDD",
          "type": "string"
        },
        {
          "internalType": "string",
          "name": "race_nationality",
          "type": "string"
        }
      ],
      "name": "createPersonalInfo",
      "outputs": [
        {
          "internalType": "uint256",
          "name": "",
          "type": "uint256"
        }
      ],
      "stateMutability": "nonpayable",
      "type": "function"
    },
    {
      "inputs": [
        {
          "internalType": "uint256",
          "name": "hospital",
          "type": "uint256"
        },
        {
          "internalType": "string",
          "name": "password",
          "type": "string"
        },
        {
          "internalType": "uint256",
          "name": "personId",
          "type": "uint256"
        },
        {
          "internalType": "enum MedicalCertificate.certCategory",
          "name": "incidentType0incident1death2suicide",
          "type": "uint8"
        },
        {
          "internalType": "string",
          "name": "incidentYYYYMMDDHHMM",
          "type": "string"
        },
        {
          "internalType": "string",
          "name": "certifierName",
          "type": "string"
        }
      ],
      "name": "addMC",
      "outputs": [
        {
          "internalType": "uint256",
          "name": "",
          "type": "uint256"
        }
      ],
      "stateMutability": "nonpayable",
      "type": "function"
    },
    {
      "inputs": [
        {
          "internalType": "uint256",
          "name": "id",
          "type": "uint256"
        }
      ],
      "name": "getMCName",
      "outputs": [
        {
          "internalType": "string",
          "name": "",
          "type": "string"
        }
      ],
      "stateMutability": "view",
      "type": "function"
    },
    {
      "inputs": [
        {
          "internalType": "uint256",
          "name": "id",
          "type": "uint256"
        }
      ],
      "name": "getMCNRIC",
      "outputs": [
        {
          "internalType": "string",
          "name": "",
          "type": "string"
        }
      ],
      "stateMutability": "view",
      "type": "function"
    },
    {
      "inputs": [
        {
          "internalType": "uint256",
          "name": "id",
          "type": "uint256"
        }
      ],
      "name": "getMCCategory",
      "outputs": [
        {
          "internalType": "enum MedicalCertificate.certCategory",
          "name": "",
          "type": "uint8"
        }
      ],
      "stateMutability": "view",
      "type": "function"
    }
  ],
  "bytecode": "0x60806040526000805534801561001457600080fd5b5061054f806100246000396000f3fe608060405234801561001057600080fd5b50600436106100575760003560e01c8063302e1ab11461005c57806366e918b81461008557806374946460146100ad578063baaab57a146100c8578063caafc4fb146100fb575b600080fd5b61006f61006a3660046101f2565b61010e565b60405161007c919061020b565b60405180910390f35b61009f610093366004610303565b60009695505050505050565b60405190815260200161007c565b61009f6100bb3660046103b6565b6000979650505050505050565b6100ee6100d63660046101f2565b60009081526001602052604090206003015460ff1690565b60405161007c91906104b6565b61006f6101093660046101f2565b6101c2565b600081815260016020818152604080842060029081015485529091529091200180546060919061013d906104de565b80601f0160208091040260200160405190810160405280929190818152602001828054610169906104de565b80156101b65780601f1061018b576101008083540402835291602001916101b6565b820191906000526020600020905b81548152906001019060200180831161019957829003601f168201915b50505050509050919050565b60008181526001602090815260408083206002908101548452918290529091200180546060919061013d906104de565b60006020828403121561020457600080fd5b5035919050565b600060208083528351808285015260005b818110156102385785810183015185820160400152820161021c565b8181111561024a576000604083870101525b50601f01601f1916929092016040019392505050565b634e487b7160e01b600052604160045260246000fd5b600082601f83011261028757600080fd5b813567ffffffffffffffff808211156102a2576102a2610260565b604051601f8301601f19908116603f011681019082821181831017156102ca576102ca610260565b816040528381528660208588010111156102e357600080fd5b836020870160208301376000602085830101528094505050505092915050565b60008060008060008060c0878903121561031c57600080fd5b86359550602087013567ffffffffffffffff8082111561033b57600080fd5b6103478a838b01610276565b965060408901359550606089013591506003821061036457600080fd5b9093506080880135908082111561037a57600080fd5b6103868a838b01610276565b935060a089013591508082111561039c57600080fd5b506103a989828a01610276565b9150509295509295509295565b600080600080600080600060e0888a0312156103d157600080fd5b87359650602088013567ffffffffffffffff808211156103f057600080fd5b6103fc8b838c01610276565b975060408a013591508082111561041257600080fd5b61041e8b838c01610276565b965060608a013591508082111561043457600080fd5b6104408b838c01610276565b955060808a013591508082111561045657600080fd5b6104628b838c01610276565b945060a08a013591508082111561047857600080fd5b6104848b838c01610276565b935060c08a013591508082111561049a57600080fd5b506104a78a828b01610276565b91505092959891949750929550565b60208101600383106104d857634e487b7160e01b600052602160045260246000fd5b91905290565b600181811c908216806104f257607f821691505b6020821081141561051357634e487b7160e01b600052602260045260246000fd5b5091905056fea2646970667358221220802cab2d9588306fe363cc024d856e28361239b287e8aaa1a6248f9bdb7231c964736f6c634300080c0033",
  "immutableReferences": {},
  "source": "pragma solidity ^0.8.12;\npragma experimental ABIEncoderV2;\n\ncontract MedicalCertificate {\n    uint256 counter = 0;\n\n    enum certCategory{\n        incident,\n        death,\n        suicide\n    }\n\n    struct personalInfo {\n        uint256 personId;\n        string name;\n        string NRIC;\n        string sex;\n        string birthdate; //YYYYMMDD\n        string race_nationality;\n    }\n\n    struct medicalCert{\n        uint256 ID;\n        uint256 HospitalID;\n        uint256 personal_info;\n        certCategory incident;\n        string dateTimeIncident; //YYYYMMDDHHMM\n        string titleOfCertifier;\n    }\n\n\n    mapping(uint256 => medicalCert) MC;\n    mapping(uint256 => personalInfo) infos;\n\n// =====================================================================================\n// events\n// =====================================================================================\n\n    event mcCreated(uint256 numMC);\n\n// =====================================================================================\n// functions\n// =====================================================================================\n    /**\n    * @dev Create information profile for the assured person\n    * @param hospitalId the id of the hospital\n    * @param password the password of the hospital\n    * @param name the name of the person who has accident\n    * @param NRIC the NRIC of the person who has accident\n    * @param sex the sex of the person who has accident\n    * @param birthdateYYYYMMDD the birthdate of the person who has accident\n    * @param race_nationality the race and nationality of the person who has accident\n    */\n    function createPersonalInfo (uint256 hospitalId, string memory password,\n    string memory name, string memory NRIC, string memory sex, \n    string memory birthdateYYYYMMDD, string memory race_nationality) public virtual returns (uint256) {}\n\n    /**\n    * @dev Create the medical certificate for the injured or dead person\n    * @param hospital the id of the hospital\n    * @param password the password of the hosptial\n    * @param personId  the id of the person who has accident\n    * @param incidentType0incident1death2suicide the incident type of accident where 0 is incident 1 is death and 2 is suicide\n    * @param incidentYYYYMMDDHHMM the incident date and time of the incident\n    * @param certifierName the certifier of the MC of the accident\n    */\n    function addMC(uint256 hospital, string memory password, uint256 personId,\n                certCategory incidentType0incident1death2suicide, string memory incidentYYYYMMDDHHMM, \n                string memory certifierName\n                ) public virtual returns(uint256) {\n    }\n\n// =====================================================================================\n// getters\n// =====================================================================================\n    // get name of MC\n    function getMCName(uint256 id) public view returns(string memory) {\n        return infos[MC[id].personal_info].name;\n    }\n\n    // get NRIC of MC\n    function getMCNRIC(uint256 id) public view returns(string memory) {\n        return infos[MC[id].personal_info].NRIC;\n    }\n\n    // get category of MC\n    function getMCCategory(uint256 id) public view returns(certCategory) {\n        return MC[id].incident;\n    }\n}",
  "sourcePath": "/Users/lhhhhhy/Downloads/IS4302/IS4302_Group12/contracts/MedicalCert.sol",
  "compiler": {
    "name": "solc",
    "version": "0.8.12+commit.f00d7308.Emscripten.clang"
  },
  "schemaVersion": "3.4.11",
  "updatedAt": "2023-04-11T14:29:57.401Z",
  "networkType": "ethereum",
  "devdoc": {
    "kind": "dev",
    "methods": {
      "addMC(uint256,string,uint256,uint8,string,string)": {
        "details": "Create the medical certificate for the injured or dead person",
        "params": {
          "certifierName": "the certifier of the MC of the accident",
          "hospital": "the id of the hospital",
          "incidentType0incident1death2suicide": "the incident type of accident where 0 is incident 1 is death and 2 is suicide",
          "incidentYYYYMMDDHHMM": "the incident date and time of the incident",
          "password": "the password of the hosptial",
          "personId": "the id of the person who has accident"
        }
      },
      "createPersonalInfo(uint256,string,string,string,string,string,string)": {
        "details": "Create information profile for the assured person",
        "params": {
          "NRIC": "the NRIC of the person who has accident",
          "birthdateYYYYMMDD": "the birthdate of the person who has accident",
          "hospitalId": "the id of the hospital",
          "name": "the name of the person who has accident",
          "password": "the password of the hospital",
          "race_nationality": "the race and nationality of the person who has accident",
          "sex": "the sex of the person who has accident"
        }
      }
    },
    "version": 1
  },
  "userdoc": {
    "kind": "user",
    "methods": {},
    "version": 1
  }
}