{
  "contractName": "MedicalCertificate",
  "abi": [
    {
      "anonymous": false,
      "inputs": [
        {
          "indexed": false,
          "internalType": "uint256",
          "name": "numMC",
          "type": "uint256"
        }
      ],
      "name": "mcCreated",
      "type": "event"
    },
    {
      "inputs": [
        {
          "internalType": "bytes32",
          "name": "",
          "type": "bytes32"
        }
      ],
      "name": "MC",
      "outputs": [
        {
          "internalType": "bytes",
          "name": "ID",
          "type": "bytes"
        },
        {
          "internalType": "uint256",
          "name": "HospitalID",
          "type": "uint256"
        },
        {
          "components": [
            {
              "internalType": "uint256",
              "name": "personId",
              "type": "uint256"
            },
            {
              "internalType": "string",
              "name": "name",
              "type": "string"
            },
            {
              "internalType": "string",
              "name": "NRIC",
              "type": "string"
            },
            {
              "internalType": "string",
              "name": "sex",
              "type": "string"
            },
            {
              "internalType": "uint256",
              "name": "birthdate",
              "type": "uint256"
            },
            {
              "internalType": "string",
              "name": "race_nationality",
              "type": "string"
            }
          ],
          "internalType": "struct MedicalCertificate.personalInfo",
          "name": "personal_info",
          "type": "tuple"
        },
        {
          "internalType": "enum MedicalCertificate.certCategory",
          "name": "incident",
          "type": "uint8"
        },
        {
          "internalType": "string",
          "name": "dateTimeIncident",
          "type": "string"
        },
        {
          "internalType": "string",
          "name": "titleOfCertifier",
          "type": "string"
        }
      ],
      "stateMutability": "view",
      "type": "function"
    },
    {
      "inputs": [
        {
          "internalType": "uint256",
          "name": "",
          "type": "uint256"
        }
      ],
      "name": "infos",
      "outputs": [
        {
          "internalType": "uint256",
          "name": "personId",
          "type": "uint256"
        },
        {
          "internalType": "string",
          "name": "name",
          "type": "string"
        },
        {
          "internalType": "string",
          "name": "NRIC",
          "type": "string"
        },
        {
          "internalType": "string",
          "name": "sex",
          "type": "string"
        },
        {
          "internalType": "uint256",
          "name": "birthdate",
          "type": "uint256"
        },
        {
          "internalType": "string",
          "name": "race_nationality",
          "type": "string"
        }
      ],
      "stateMutability": "view",
      "type": "function"
    },
    {
      "inputs": [
        {
          "internalType": "string",
          "name": "name",
          "type": "string"
        },
        {
          "internalType": "string",
          "name": "NRIC",
          "type": "string"
        },
        {
          "internalType": "string",
          "name": "sex",
          "type": "string"
        },
        {
          "internalType": "uint256",
          "name": "birthdate",
          "type": "uint256"
        },
        {
          "internalType": "string",
          "name": "race_nationality",
          "type": "string"
        }
      ],
      "name": "createPersonalInfo",
      "outputs": [
        {
          "internalType": "uint256",
          "name": "",
          "type": "uint256"
        }
      ],
      "stateMutability": "nonpayable",
      "type": "function"
    },
    {
      "inputs": [
        {
          "internalType": "uint256",
          "name": "hospital",
          "type": "uint256"
        },
        {
          "internalType": "uint256",
          "name": "personId",
          "type": "uint256"
        },
        {
          "internalType": "enum MedicalCertificate.certCategory",
          "name": "incidentType",
          "type": "uint8"
        },
        {
          "internalType": "string",
          "name": "incidentYYYYMMDDHHMM",
          "type": "string"
        },
        {
          "internalType": "string",
          "name": "titleNname",
          "type": "string"
        }
      ],
      "name": "add",
      "outputs": [
        {
          "internalType": "bytes",
          "name": "",
          "type": "bytes"
        }
      ],
      "stateMutability": "nonpayable",
      "type": "function"
    },
    {
      "inputs": [
        {
          "internalType": "bytes",
          "name": "id",
          "type": "bytes"
        }
      ],
      "name": "getMCName",
      "outputs": [
        {
          "internalType": "string",
          "name": "",
          "type": "string"
        }
      ],
      "stateMutability": "view",
      "type": "function"
    },
    {
      "inputs": [
        {
          "internalType": "bytes",
          "name": "id",
          "type": "bytes"
        }
      ],
      "name": "getMCNRIC",
      "outputs": [
        {
          "internalType": "string",
          "name": "",
          "type": "string"
        }
      ],
      "stateMutability": "view",
      "type": "function"
    },
    {
      "inputs": [
        {
          "internalType": "bytes",
          "name": "id",
          "type": "bytes"
        }
      ],
      "name": "getMCCategory",
      "outputs": [
        {
          "internalType": "enum MedicalCertificate.certCategory",
          "name": "",
          "type": "uint8"
        }
      ],
      "stateMutability": "view",
      "type": "function"
    }
  ],
  "bytecode": "0x608060405260008055600060035534801561001957600080fd5b506112ce806100296000396000f3fe608060405234801561001057600080fd5b506004361061007d5760003560e01c80632b41cdb91161005b5780632b41cdb914610110578063d353b2b114610131578063d4c8536614610151578063f29a6f441461016457600080fd5b8063109075f11461008257806328de3c9b146100b057806329efb4a9146100d5575b600080fd5b610095610090366004610dee565b610177565b6040516100a796959493929190610e8c565b60405180910390f35b6100c36100be366004610dee565b6105b0565b6040516100a796959493929190610f65565b6101036100e336600461104a565b805160209182012060009081526001909152604090206008015460ff1690565b6040516100a7919061109b565b61012361011e3660046110d6565b610782565b6040519081526020016100a7565b61014461013f36600461118d565b610820565b6040516100a79190611201565b61014461015f36600461104a565b610c76565b61014461017236600461104a565b610d28565b60016020526000908152604090208054819061019290611214565b80601f01602080910402602001604051908101604052809291908181526020018280546101be90611214565b801561020b5780601f106101e05761010080835404028352916020019161020b565b820191906000526020600020905b8154815290600101906020018083116101ee57829003601f168201915b505050505090806001015490806002016040518060c00160405290816000820154815260200160018201805461024090611214565b80601f016020809104026020016040519081016040528092919081815260200182805461026c90611214565b80156102b95780601f1061028e576101008083540402835291602001916102b9565b820191906000526020600020905b81548152906001019060200180831161029c57829003601f168201915b505050505081526020016002820180546102d290611214565b80601f01602080910402602001604051908101604052809291908181526020018280546102fe90611214565b801561034b5780601f106103205761010080835404028352916020019161034b565b820191906000526020600020905b81548152906001019060200180831161032e57829003601f168201915b5050505050815260200160038201805461036490611214565b80601f016020809104026020016040519081016040528092919081815260200182805461039090611214565b80156103dd5780601f106103b2576101008083540402835291602001916103dd565b820191906000526020600020905b8154815290600101906020018083116103c057829003601f168201915b505050505081526020016004820154815260200160058201805461040090611214565b80601f016020809104026020016040519081016040528092919081815260200182805461042c90611214565b80156104795780601f1061044e57610100808354040283529160200191610479565b820191906000526020600020905b81548152906001019060200180831161045c57829003601f168201915b505050919092525050506008820154600983018054929360ff9092169261049f90611214565b80601f01602080910402602001604051908101604052809291908181526020018280546104cb90611214565b80156105185780601f106104ed57610100808354040283529160200191610518565b820191906000526020600020905b8154815290600101906020018083116104fb57829003601f168201915b50505050509080600a01805461052d90611214565b80601f016020809104026020016040519081016040528092919081815260200182805461055990611214565b80156105a65780601f1061057b576101008083540402835291602001916105a6565b820191906000526020600020905b81548152906001019060200180831161058957829003601f168201915b5050505050905086565b600260205260009081526040902080546001820180549192916105d290611214565b80601f01602080910402602001604051908101604052809291908181526020018280546105fe90611214565b801561064b5780601f106106205761010080835404028352916020019161064b565b820191906000526020600020905b81548152906001019060200180831161062e57829003601f168201915b50505050509080600201805461066090611214565b80601f016020809104026020016040519081016040528092919081815260200182805461068c90611214565b80156106d95780601f106106ae576101008083540402835291602001916106d9565b820191906000526020600020905b8154815290600101906020018083116106bc57829003601f168201915b5050505050908060030180546106ee90611214565b80601f016020809104026020016040519081016040528092919081815260200182805461071a90611214565b80156107675780601f1061073c57610100808354040283529160200191610767565b820191906000526020600020905b81548152906001019060200180831161074a57829003601f168201915b50505050509080600401549080600501805461052d90611214565b600080600260006003600081548092919061079c90611265565b9190505581526020019081526020016000209050868160010190805190602001906107c8929190610d55565b5085516107de9060028301906020890190610d55565b5084516107f49060038301906020880190610d55565b506004810184905582516108119060058301906020860190610d55565b50506003549695505050505050565b60606000805486604051602001610841929190918252602082015260400190565b60408051601f1981840301815260c0808401835281845260208481018c905260008b815260028252848120855193840186528054845260018101805495985091969586019490928401919061089590611214565b80601f01602080910402602001604051908101604052809291908181526020018280546108c190611214565b801561090e5780601f106108e35761010080835404028352916020019161090e565b820191906000526020600020905b8154815290600101906020018083116108f157829003601f168201915b5050505050815260200160028201805461092790611214565b80601f016020809104026020016040519081016040528092919081815260200182805461095390611214565b80156109a05780601f10610975576101008083540402835291602001916109a0565b820191906000526020600020905b81548152906001019060200180831161098357829003601f168201915b505050505081526020016003820180546109b990611214565b80601f01602080910402602001604051908101604052809291908181526020018280546109e590611214565b8015610a325780601f10610a0757610100808354040283529160200191610a32565b820191906000526020600020905b815481529060010190602001808311610a1557829003601f168201915b5050505050815260200160048201548152602001600582018054610a5590611214565b80601f0160208091040260200160405190810160405280929190818152602001828054610a8190611214565b8015610ace5780601f10610aa357610100808354040283529160200191610ace565b820191906000526020600020905b815481529060010190602001808311610ab157829003601f168201915b5050505050815250508152602001876002811115610aee57610aee610e54565b815260208082018890526040918201879052845185820120600090815260018252919091208251805193945084939192610b2d92849290910190610d55565b506020828101516001830155604083015180516002840190815581830151805192939192610b619260038701920190610d55565b5060408201518051610b7d916002840191602090910190610d55565b5060608201518051610b99916003840191602090910190610d55565b506080820151600482015560a08201518051610bbf916005840191602090910190610d55565b505050606082015160088201805460ff19166001836002811115610be557610be5610e54565b021790555060808201518051610c05916009840191602090910190610d55565b5060a08201518051610c2191600a840191602090910190610d55565b50506000546040519081527f08b2c200b5f16565b86d1596988527109771ff8ed118f330cca9ee70d6ba9a16915060200160405180910390a1600054610c68906001611280565b600055509695505050505050565b606060016000838051906020012081526020019081526020016000206002016002018054610ca390611214565b80601f0160208091040260200160405190810160405280929190818152602001828054610ccf90611214565b8015610d1c5780601f10610cf157610100808354040283529160200191610d1c565b820191906000526020600020905b815481529060010190602001808311610cff57829003601f168201915b50505050509050919050565b606060016000838051906020012081526020019081526020016000206002016001018054610ca390611214565b828054610d6190611214565b90600052602060002090601f016020900481019282610d835760008555610dc9565b82601f10610d9c57805160ff1916838001178555610dc9565b82800160010185558215610dc9579182015b82811115610dc9578251825591602001919060010190610dae565b50610dd5929150610dd9565b5090565b5b80821115610dd55760008155600101610dda565b600060208284031215610e0057600080fd5b5035919050565b6000815180845260005b81811015610e2d57602081850181015186830182015201610e11565b81811115610e3f576000602083870101525b50601f01601f19169290920160200192915050565b634e487b7160e01b600052602160045260246000fd5b60038110610e8857634e487b7160e01b600052602160045260246000fd5b9052565b60c081526000610e9f60c0830189610e07565b876020840152828103604084015286518152602087015160c06020830152610eca60c0830182610e07565b905060408801518282036040840152610ee38282610e07565b91505060608801518282036060840152610efd8282610e07565b9150506080880151608083015260a088015182820360a0840152610f218282610e07565b92505050610f326060840187610e6a565b8281036080840152610f448186610e07565b905082810360a0840152610f588185610e07565b9998505050505050505050565b86815260c060208201526000610f7e60c0830188610e07565b8281036040840152610f908188610e07565b90508281036060840152610fa48187610e07565b905084608084015282810360a0840152610f588185610e07565b634e487b7160e01b600052604160045260246000fd5b600067ffffffffffffffff80841115610fef57610fef610fbe565b604051601f8501601f19908116603f0116810190828211818310171561101757611017610fbe565b8160405280935085815286868601111561103057600080fd5b858560208301376000602087830101525050509392505050565b60006020828403121561105c57600080fd5b813567ffffffffffffffff81111561107357600080fd5b8201601f8101841361108457600080fd5b61109384823560208401610fd4565b949350505050565b602081016110a98284610e6a565b92915050565b600082601f8301126110c057600080fd5b6110cf83833560208501610fd4565b9392505050565b600080600080600060a086880312156110ee57600080fd5b853567ffffffffffffffff8082111561110657600080fd5b61111289838a016110af565b9650602088013591508082111561112857600080fd5b61113489838a016110af565b9550604088013591508082111561114a57600080fd5b61115689838a016110af565b945060608801359350608088013591508082111561117357600080fd5b50611180888289016110af565b9150509295509295909350565b600080600080600060a086880312156111a557600080fd5b85359450602086013593506040860135600381106111c257600080fd5b9250606086013567ffffffffffffffff808211156111df57600080fd5b6111eb89838a016110af565b9350608088013591508082111561117357600080fd5b6020815260006110cf6020830184610e07565b600181811c9082168061122857607f821691505b6020821081141561124957634e487b7160e01b600052602260045260246000fd5b50919050565b634e487b7160e01b600052601160045260246000fd5b60006000198214156112795761127961124f565b5060010190565b600082198211156112935761129361124f565b50019056fea26469706673582212205b4f4ced14a24a8a1bcc4bc31ad9d1e9085e0bb31f8fb12539b21f2ac754c08764736f6c634300080c0033",
  "immutableReferences": {},
  "source": "pragma solidity ^0.8.12;\npragma experimental ABIEncoderV2;\n\ncontract MedicalCertificate {\n    uint256 counter = 0;\n\n    enum certCategory{\n        incident,\n        death,\n        suicide\n    }\n\n    struct personalInfo {\n        uint256 personId;\n        string name;\n        string NRIC;\n        string sex;\n        uint256 birthdate; //YYYYMMDD\n        string race_nationality;\n    }\n\n    // struct medicalCert{\n    //     bytes ID;\n    //     uint256 HospitalID;\n    //     string name;\n    //     string NRIC;\n    //     string sex;\n    //     uint256 birthdate; //YYYYMMDD\n    //     string race_nationality;\n    //     certCategory incident;\n    //     string dateTimeIncident; //YYYYMMDDHHMM\n    //     string placeIncident;\n    //     string causeIncident;\n    //     string titleOfCertifier;\n    //     //stakeholder Stakeholder;\n    //     //[]insuranceCompany access;\n    // }\n    struct medicalCert{\n        bytes ID;\n        uint256 HospitalID;\n        personalInfo personal_info;\n        certCategory incident;\n        string dateTimeIncident; //YYYYMMDDHHMM\n        string titleOfCertifier;\n        //stakeholder Stakeholder;\n        //[]insuranceCompany access;\n    }\n\n    mapping(bytes32 => medicalCert) public MC;\n    mapping(uint256 => personalInfo) public infos;\n\n    uint256 numOfPeople = 0;\n    event mcCreated(uint256 numMC);\n\n    //  /** \n    // * @dev create new mc with relevant information\n    // * @return  bytes new mc id\n    // */\n    // string memory name, string memory NRIC, uint256 sex, \n    //             uint256 birthdate, string memory race, string memory nationality, \n    //             string incidentType, string memory incidentYYYYMMDDHHMM, \n    //             string memory place, string memory cause, string memory titleNname, string memory institution\n    // function add(uint256 hospital, medicalCert memory info) public returns(bytes memory) {\n    //     bytes memory id = abi.encodePacked(counter, info.name, info.NRIC);\n    //     medicalCert memory mc = medicalCert(\n    //         id, \n    //         hospital,\n    //         info.name,\n    //         info.NRIC,\n    //         info.sex,\n    //         info.birthdate,\n    //         info.race,\n    //         info.nationality,\n    //         info.incident,\n    //         info.dateTimeIncident,\n    //         info.placeIncident,\n    //         info.causeIncident,\n    //         info.titleOfCertifier,\n    //         info.Institution\n    //         // stakeholder,\n    //         //[]insuranceCompany\n    //         );\n        \n        \n    //     MC[keccak256(id)] = mc;\n\n    //     emit mcCreated(counter);\n\n    //     counter = counter + 1;\n\n    //     return id;\n        \n    // // }\n    // function add(uint256 hospital, string memory name, string memory NRIC, string memory sex, \n    //             uint256 birthdate, string memory race_nationality,\n    //             certCategory incidentType, string memory incidentYYYYMMDDHHMM, \n    //             string memory place, string memory cause, string memory titleNname) public returns(bytes memory) {\n    //     bytes memory id = abi.encodePacked(counter, name, NRIC);\n    //     medicalCert memory mc = medicalCert(\n    //         id, \n    //         hospital,\n    //         name,\n    //         NRIC,\n    //         sex,\n    //         birthdate,\n    //         race_nationality,\n    //         incidentType,\n    //         incidentYYYYMMDDHHMM,\n    //         place,\n    //         cause,\n    //         titleNname\n    //         // stakeholder,\n    //         //[]insuranceCompany\n    //         );\n        \n        \n    //     MC[keccak256(id)] = mc;\n\n    //     emit mcCreated(counter);\n\n    //     counter = counter + 1;\n\n    //     return id;\n        \n    // }\n\n    function createPersonalInfo (string memory name, string memory NRIC, string memory sex, \n                uint256 birthdate, string memory race_nationality) public  returns (uint256) {\n        personalInfo storage person = infos[numOfPeople++];\n        person.name = name;\n        person.NRIC = NRIC;\n        person.sex = sex;\n        person.birthdate = birthdate;\n        person.race_nationality = race_nationality;\n\n        return numOfPeople;\n    }\n    //string memory place, string memory cause,\n    function add(uint256 hospital, uint256 personId,\n                certCategory incidentType, string memory incidentYYYYMMDDHHMM, string memory titleNname\n                ) public returns(bytes memory) {\n        bytes memory id = abi.encodePacked(counter, personId);\n        medicalCert memory mc = medicalCert(\n            id, \n            hospital,\n            infos[personId],\n            incidentType,\n            incidentYYYYMMDDHHMM,\n            titleNname\n            // stakeholder,\n            //[]insuranceCompany\n            );\n        \n        \n        MC[keccak256(id)] = mc;\n\n        emit mcCreated(counter);\n\n        counter = counter + 1;\n\n        return id;\n        \n    }\n    //giveAccess(byte32 ID, insuranceCompany company){\n        //require(msg.sender==MC[ID].stakeholder.address)\n        //MC[ID].access.push(company);\n    //}\n\n    //  /** \n    // * @dev get mc information by id\n    // * @param  bytes id\n    // * @return tuple of information\n    // */\n    function getMCName(bytes memory id) public view returns(string memory) {\n        return MC[keccak256(id)].personal_info.name;\n    }\n\n    function getMCNRIC(bytes memory id) public view returns(string memory) {\n        return MC[keccak256(id)].personal_info.NRIC;\n    }\n\n    function getMCCategory(bytes memory id) public view returns(certCategory) {\n        return MC[keccak256(id)].incident;\n    }\n\n    // function getMC(bytes memory id) public view returns(uint256, string memory, string memory, uint256, uint256, string memory, string memory, certCategory, string memory, string memory, string memory, string memory, string memory) {\n    //     return(MC[id].HospitalID, MC[id].name, MC[id].NRIC, MC[id].sex, MC[id].birthdate, MC[id].race, MC[id].nationality, MC[id].incident, MC[id].dateTimeIncident, MC[id].placeIncident, MC[id].causeIncident, MC[id].titleOfCertifier, MC[id].Institution);\n    // }\n}\n// Return argument type \n// tuple(uint256,string storage ref,string storage ref,string storage ref,uint256,string storage ref,string storage ref,enum MedicalCertificate.certCategory,string storage ref,string storage ref,string storage ref,string storage ref,string storage ref) \n// is not implicitly convertible to expected type \n// tuple(uint256,string memory,string memory,uint256,uint256,string memory,string memory,enum MedicalCertificate.certCategory,string memory,string memory,string memory,string memory,string memory).",
  "sourcePath": "/Users/yco/Desktop/IS4302/IS4302_Group12/contracts/MedicalCert.sol",
  "compiler": {
    "name": "solc",
    "version": "0.8.12+commit.f00d7308.Emscripten.clang"
  },
  "schemaVersion": "3.4.11",
  "updatedAt": "2023-03-31T09:25:56.917Z",
  "devdoc": {
    "kind": "dev",
    "methods": {},
    "version": 1
  },
  "userdoc": {
    "kind": "user",
    "methods": {},
    "version": 1
  }
}