{
  "contractName": "Stakeholder",
  "abi": [
    {
      "inputs": [
        {
          "internalType": "contract InsuranceMarket",
          "name": "marketAddress",
          "type": "address"
        },
        {
          "internalType": "contract Insurance",
          "name": "insuranceAddress",
          "type": "address"
        },
        {
          "internalType": "contract Hospital",
          "name": "hospitalAddress",
          "type": "address"
        }
      ],
      "stateMutability": "nonpayable",
      "type": "constructor"
    },
    {
      "anonymous": false,
      "inputs": [
        {
          "indexed": false,
          "internalType": "uint256",
          "name": "insuranceID",
          "type": "uint256"
        }
      ],
      "name": "askingCert",
      "type": "event"
    },
    {
      "anonymous": false,
      "inputs": [
        {
          "indexed": false,
          "internalType": "uint256",
          "name": "insuranceID",
          "type": "uint256"
        },
        {
          "indexed": false,
          "internalType": "bytes",
          "name": "mcId",
          "type": "bytes"
        }
      ],
      "name": "claimingFromComp",
      "type": "event"
    },
    {
      "inputs": [],
      "name": "numStakeholder",
      "outputs": [
        {
          "internalType": "uint256",
          "name": "",
          "type": "uint256"
        }
      ],
      "stateMutability": "view",
      "type": "function"
    },
    {
      "inputs": [
        {
          "internalType": "uint256",
          "name": "",
          "type": "uint256"
        }
      ],
      "name": "stakeholders",
      "outputs": [
        {
          "internalType": "uint256",
          "name": "ID",
          "type": "uint256"
        },
        {
          "internalType": "string",
          "name": "name",
          "type": "string"
        },
        {
          "internalType": "bytes",
          "name": "NRIC",
          "type": "bytes"
        },
        {
          "internalType": "address",
          "name": "stakeholderAddress",
          "type": "address"
        },
        {
          "internalType": "bytes",
          "name": "phonenum",
          "type": "bytes"
        }
      ],
      "stateMutability": "view",
      "type": "function"
    },
    {
      "inputs": [
        {
          "internalType": "string",
          "name": "_phonenum",
          "type": "string"
        },
        {
          "internalType": "string",
          "name": "name",
          "type": "string"
        },
        {
          "internalType": "string",
          "name": "NRIC",
          "type": "string"
        }
      ],
      "name": "addStakeholder",
      "outputs": [
        {
          "internalType": "uint256",
          "name": "",
          "type": "uint256"
        }
      ],
      "stateMutability": "nonpayable",
      "type": "function"
    },
    {
      "inputs": [
        {
          "internalType": "uint256",
          "name": "_policyOwnerID",
          "type": "uint256"
        },
        {
          "internalType": "uint256",
          "name": "_insuranceID",
          "type": "uint256"
        },
        {
          "internalType": "uint256",
          "name": "_beneficiaryID",
          "type": "uint256"
        },
        {
          "internalType": "uint256",
          "name": "_lifeAssuredID",
          "type": "uint256"
        },
        {
          "internalType": "uint256",
          "name": "_offerPrice",
          "type": "uint256"
        }
      ],
      "name": "signInsurance",
      "outputs": [],
      "stateMutability": "nonpayable",
      "type": "function"
    },
    {
      "inputs": [
        {
          "internalType": "uint256",
          "name": "_insuranceID",
          "type": "uint256"
        },
        {
          "internalType": "uint256",
          "name": "_policyOwnerID",
          "type": "uint256"
        }
      ],
      "name": "addToSignList",
      "outputs": [
        {
          "internalType": "bool",
          "name": "",
          "type": "bool"
        }
      ],
      "stateMutability": "nonpayable",
      "type": "function"
    },
    {
      "inputs": [
        {
          "internalType": "uint256",
          "name": "insuranceId",
          "type": "uint256"
        },
        {
          "internalType": "uint256",
          "name": "companyId",
          "type": "uint256"
        },
        {
          "internalType": "uint256",
          "name": "hospitalId",
          "type": "uint256"
        },
        {
          "internalType": "bytes",
          "name": "mcId",
          "type": "bytes"
        }
      ],
      "name": "getMCidAndPassToComp",
      "outputs": [],
      "stateMutability": "nonpayable",
      "type": "function"
    },
    {
      "inputs": [
        {
          "internalType": "uint256",
          "name": "insuranceID",
          "type": "uint256"
        },
        {
          "internalType": "uint256",
          "name": "companyId",
          "type": "uint256"
        },
        {
          "internalType": "bytes",
          "name": "mcId",
          "type": "bytes"
        },
        {
          "internalType": "uint256",
          "name": "hospitalId",
          "type": "uint256"
        },
        {
          "internalType": "uint256",
          "name": "policyOwnerID",
          "type": "uint256"
        }
      ],
      "name": "claim",
      "outputs": [],
      "stateMutability": "nonpayable",
      "type": "function"
    },
    {
      "inputs": [
        {
          "internalType": "uint256",
          "name": "companyId",
          "type": "uint256"
        },
        {
          "internalType": "uint256",
          "name": "requestId",
          "type": "uint256"
        }
      ],
      "name": "checkInsuranceRequests",
      "outputs": [
        {
          "internalType": "enum InsuranceCompany.requestStatus",
          "name": "",
          "type": "uint8"
        }
      ],
      "stateMutability": "nonpayable",
      "type": "function"
    },
    {
      "inputs": [
        {
          "internalType": "uint256",
          "name": "_hospitalId",
          "type": "uint256"
        },
        {
          "internalType": "uint256",
          "name": "_requestId",
          "type": "uint256"
        },
        {
          "internalType": "uint256",
          "name": "_stakeholderId",
          "type": "uint256"
        }
      ],
      "name": "checkMCRequests",
      "outputs": [
        {
          "internalType": "bytes",
          "name": "",
          "type": "bytes"
        }
      ],
      "stateMutability": "nonpayable",
      "type": "function"
    },
    {
      "inputs": [
        {
          "internalType": "address",
          "name": "_stakeholder",
          "type": "address"
        }
      ],
      "name": "getStakeholderId",
      "outputs": [
        {
          "internalType": "uint256",
          "name": "",
          "type": "uint256"
        }
      ],
      "stateMutability": "view",
      "type": "function"
    },
    {
      "inputs": [
        {
          "internalType": "uint256",
          "name": "stakeholderID",
          "type": "uint256"
        }
      ],
      "name": "getStakeholderPhone",
      "outputs": [
        {
          "internalType": "string",
          "name": "num",
          "type": "string"
        }
      ],
      "stateMutability": "view",
      "type": "function"
    },
    {
      "inputs": [
        {
          "internalType": "uint256",
          "name": "stakeholderID",
          "type": "uint256"
        }
      ],
      "name": "getStakeholderAddress",
      "outputs": [
        {
          "internalType": "address",
          "name": "",
          "type": "address"
        }
      ],
      "stateMutability": "view",
      "type": "function"
    },
    {
      "inputs": [
        {
          "internalType": "uint256",
          "name": "stakeholderID",
          "type": "uint256"
        }
      ],
      "name": "getStakeholderName",
      "outputs": [
        {
          "internalType": "string",
          "name": "",
          "type": "string"
        }
      ],
      "stateMutability": "view",
      "type": "function"
    },
    {
      "inputs": [
        {
          "internalType": "uint256",
          "name": "stakeholderID",
          "type": "uint256"
        }
      ],
      "name": "getStakeholderNRIC",
      "outputs": [
        {
          "internalType": "bytes",
          "name": "",
          "type": "bytes"
        }
      ],
      "stateMutability": "view",
      "type": "function"
    }
  ],
  "bytecode": "0x608060405260006004553480156200001657600080fd5b506040516200161038038062001610833981016040819052620000399162000095565b600080546001600160a01b039485166001600160a01b031991821617909155600180549385169382169390931790925560038054919093169116179055620000e9565b6001600160a01b03811681146200009257600080fd5b50565b600080600060608486031215620000ab57600080fd5b8351620000b8816200007c565b6020850151909350620000cb816200007c565b6040850151909250620000de816200007c565b809150509250925092565b61151780620000f96000396000f3fe608060405234801561001057600080fd5b50600436106100ea5760003560e01c80635a0b84f81161008c57806388c2c5191161006657806388c2c519146102445780638edd529714610257578063a57690d614610260578063a79e79791461027357600080fd5b80635a0b84f8146101ee5780635bc0350b1461020157806377f977661461022457600080fd5b80631d6b8b72116100c85780631d6b8b7214610153578063458d0dc2146101775780635481e699146101975780635564f644146101aa57600080fd5b80630d7bf806146100ef5780630f861dc414610104578063148d244314610140575b600080fd5b6101026100fd366004610ffb565b610286565b005b61012d61011236600461105d565b6001600160a01b031660009081526006602052604090205490565b6040519081526020015b60405180910390f35b61010261014e366004611086565b61038a565b6101666101613660046110e0565b6103f8565b604051610137959493929190611155565b61018a6101853660046111af565b6105ce565b60405161013791906111db565b61018a6101a53660046110e0565b61065a565b6101d66101b83660046110e0565b6000908152600560205260409020600301546001600160a01b031690565b6040516001600160a01b039091168152602001610137565b61018a6101fc3660046110e0565b610711565b61021461020f3660046111ee565b6107b6565b6040519015158152602001610137565b6102376102323660046111ee565b61081d565b6040516101379190611210565b61018a6102523660046110e0565b610894565b61012d60045481565b61010261026e366004611238565b6108b4565b61012d610281366004611273565b610bce565b60008181526005602052604090206003015481906001600160a01b031633146102ae57600080fd5b6040518681527f023f2fc8ada0c4baed4ee1e3ba4fe20927aeb0927885a97721dff7bf7de72a549060200160405180910390a160025460405163229623ab60e11b81526001600160a01b039091169063452c475690610317908990899088908a906004016112fb565b600060405180830381600087803b15801561033157600080fd5b505af1158015610345573d6000803e3d6000fd5b505050507f5865064e6acb4fff420dd41011f2a5680096a4c8d5d8b6cf9d358d6e71fbf1ac868560405161037a92919061132a565b60405180910390a1505050505050565b60025460405163229623ab60e11b81526001600160a01b039091169063452c4756906103c09087908790879087906004016112fb565b600060405180830381600087803b1580156103da57600080fd5b505af11580156103ee573d6000803e3d6000fd5b5050505050505050565b6005602052600090815260409020805460018201805491929161041a90611343565b80601f016020809104026020016040519081016040528092919081815260200182805461044690611343565b80156104935780601f1061046857610100808354040283529160200191610493565b820191906000526020600020905b81548152906001019060200180831161047657829003601f168201915b5050505050908060020180546104a890611343565b80601f01602080910402602001604051908101604052809291908181526020018280546104d490611343565b80156105215780601f106104f657610100808354040283529160200191610521565b820191906000526020600020905b81548152906001019060200180831161050457829003601f168201915b505050600384015460048501805494956001600160a01b0390921694919350915061054b90611343565b80601f016020809104026020016040519081016040528092919081815260200182805461057790611343565b80156105c45780601f10610599576101008083540402835291602001916105c4565b820191906000526020600020905b8154815290600101906020018083116105a757829003601f168201915b5050505050905085565b600354604051639cb3d01f60e01b81526004810185905260248101849052604481018390526060916001600160a01b031690639cb3d01f906064016000604051808303816000875af1158015610628573d6000803e3d6000fd5b505050506040513d6000823e601f3d908101601f1916820160405261065091908101906113ae565b90505b9392505050565b600081815260056020526040902060040180546060919061067a90611343565b80601f01602080910402602001604051908101604052809291908181526020018280546106a690611343565b80156106f35780601f106106c8576101008083540402835291602001916106f3565b820191906000526020600020905b8154815290600101906020018083116106d657829003601f168201915b505050505080602001905181019061070b91906113ae565b92915050565b600081815260056020526040902060010180546060919061073190611343565b80601f016020809104026020016040519081016040528092919081815260200182805461075d90611343565b80156107aa5780601f1061077f576101008083540402835291602001916107aa565b820191906000526020600020905b81548152906001019060200180831161078d57829003601f168201915b50505050509050919050565b6000818152600560205260408120600601805460099081106107da576107da6113ff565b90600052602060002001546000146107f157600080fd5b506000908152600560209081526040822060060180546001808201835591845291909220019190915590565b600254604051635d99670160e01b815260048101849052602481018390526000916001600160a01b031690635d996701906044016020604051808303816000875af1158015610870573d6000803e3d6000fd5b505050506040513d601f19601f820116820180604052508101906106539190611415565b600081815260056020526040902060020180546060919061073190611343565b6000858152600560205260408120600601548190815b818110156109255760008981526005602052604090206006018054829081106108f5576108f56113ff565b90600052602060002001548814156109135760019350809250610925565b8061091d8161144c565b9150506108ca565b506001831515146109755760405162461bcd60e51b8152602060048201526015602482015274496e76616c696420696e737572616e63652069642160581b60448201526064015b60405180910390fd5b6000888152600560205260409020600601610991600183611467565b815481106109a1576109a16113ff565b9060005260206000200154600560008a815260200190815260200160002060060183815481106109d3576109d36113ff565b906000526020600020018190555060056000898152602001908152602001600020600601805480610a0657610a0661147e565b600082815260208082206000199084018101839055909201909255898252600580825260408084208b855282018352808420805460ff199081169091558a85528284528185208c8652830184528185208054821660019081179091558a86528385528286208d8752909301909352808420805490931660021790925554905163e22900ff60e01b8152600481018a90526001600160a01b039091169063e22900ff906024016020604051808303816000875af1158015610aca573d6000803e3d6000fd5b505050506040513d601f19601f82011682018060405250810190610aee9190611494565b60025460015460405163e22900ff60e01b8152600481018c90529293506001600160a01b039182169263f96b5080928c92169063e22900ff906024016020604051808303816000875af1158015610b49573d6000803e3d6000fd5b505050506040513d601f19601f82011682018060405250810190610b6d9190611494565b6040516001600160e01b031960e085901b16815260048101929092526024820152604401600060405180830381600087803b158015610bab57600080fd5b505af1158015610bbf573d6000803e3d6000fd5b50505050505050505050505050565b825160009084908290819081848183610be957610be96113ff565b0160200151600094506001600160f81b03191690505b81831015610cef576000858481518110610c1b57610c1b6113ff565b01602001516001600160f81b0319169050600160ff1b811015610c4a57610c436001856114ad565b9350610cdc565b600760fd1b6001600160f81b031982161015610c6b57610c436002856114ad565b600f60fc1b6001600160f81b031982161015610c8c57610c436003856114ad565b601f60fb1b6001600160f81b031982161015610cad57610c436004856114ad565b603f60fa1b6001600160f81b031982161015610cce57610c436005856114ad565b610cd96006856114ad565b93505b5083610ce78161144c565b945050610bff565b83600814610d3f5760405162461bcd60e51b815260206004820152601f60248201527f496e76616c6964206c656e677468206f662070686f6e65206e756d6265722100604482015260640161096c565b60048054600091600591839182610d558361144c565b90915550815260208082019290925260400160002060045481558a51909250610d86916001840191908c0190610e63565b506003810180546001600160a01b03191633179055604051610dac9089906020016114c5565b604051602081830303815290604052816002019080519060200190610dd2929190610e63565b5089604051602001610de491906114c5565b604051602081830303815290604052816004019080519060200190610e0a929190610e63565b5060408051600a808252610160820190925290602082016101408036833750508151610e3f9260068501925060200190610ee7565b50506004543360009081526006602052604090208190559998505050505050505050565b828054610e6f90611343565b90600052602060002090601f016020900481019282610e915760008555610ed7565b82601f10610eaa57805160ff1916838001178555610ed7565b82800160010185558215610ed7579182015b82811115610ed7578251825591602001919060010190610ebc565b50610ee3929150610f21565b5090565b828054828255906000526020600020908101928215610ed75791602002820182811115610ed7578251825591602001919060010190610ebc565b5b80821115610ee35760008155600101610f22565b634e487b7160e01b600052604160045260246000fd5b604051601f8201601f1916810167ffffffffffffffff81118282101715610f7557610f75610f36565b604052919050565b600067ffffffffffffffff821115610f9757610f97610f36565b50601f01601f191660200190565b600082601f830112610fb657600080fd5b8135610fc9610fc482610f7d565b610f4c565b818152846020838601011115610fde57600080fd5b816020850160208301376000918101602001919091529392505050565b600080600080600060a0868803121561101357600080fd5b8535945060208601359350604086013567ffffffffffffffff81111561103857600080fd5b61104488828901610fa5565b9598949750949560608101359550608001359392505050565b60006020828403121561106f57600080fd5b81356001600160a01b038116811461065357600080fd5b6000806000806080858703121561109c57600080fd5b843593506020850135925060408501359150606085013567ffffffffffffffff8111156110c857600080fd5b6110d487828801610fa5565b91505092959194509250565b6000602082840312156110f257600080fd5b5035919050565b60005b838110156111145781810151838201526020016110fc565b83811115611123576000848401525b50505050565b600081518084526111418160208601602086016110f9565b601f01601f19169290920160200192915050565b85815260a06020820152600061116e60a0830187611129565b82810360408401526111808187611129565b6001600160a01b0386166060850152838103608085015290506111a38185611129565b98975050505050505050565b6000806000606084860312156111c457600080fd5b505081359360208301359350604090920135919050565b6020815260006106536020830184611129565b6000806040838503121561120157600080fd5b50508035926020909101359150565b602081016003831061123257634e487b7160e01b600052602160045260246000fd5b91905290565b600080600080600060a0868803121561125057600080fd5b505083359560208501359550604085013594606081013594506080013592509050565b60008060006060848603121561128857600080fd5b833567ffffffffffffffff808211156112a057600080fd5b6112ac87838801610fa5565b945060208601359150808211156112c257600080fd5b6112ce87838801610fa5565b935060408601359150808211156112e457600080fd5b506112f186828701610fa5565b9150509250925092565b8481528360208201528260408201526080606082015260006113206080830184611129565b9695505050505050565b8281526040602082015260006106506040830184611129565b600181811c9082168061135757607f821691505b6020821081141561137857634e487b7160e01b600052602260045260246000fd5b50919050565b600061138c610fc484610f7d565b90508281528383830111156113a057600080fd5b6106538360208301846110f9565b6000602082840312156113c057600080fd5b815167ffffffffffffffff8111156113d757600080fd5b8201601f810184136113e857600080fd5b6113f78482516020840161137e565b949350505050565b634e487b7160e01b600052603260045260246000fd5b60006020828403121561142757600080fd5b81516003811061065357600080fd5b634e487b7160e01b600052601160045260246000fd5b600060001982141561146057611460611436565b5060010190565b60008282101561147957611479611436565b500390565b634e487b7160e01b600052603160045260246000fd5b6000602082840312156114a657600080fd5b5051919050565b600082198211156114c0576114c0611436565b500190565b600082516114d78184602087016110f9565b919091019291505056fea2646970667358221220d1a84c8d9681398a58cb1ca50b03bdf2ed17f6c135182e0de31b3c7ef7a4d27064736f6c634300080c0033",
  "immutableReferences": {},
  "source": "pragma solidity ^0.8.12;\npragma experimental ABIEncoderV2;\nimport \"./InsuranceMarket.sol\";\nimport \"./Insurance.sol\";\nimport \"./InsuranceCompany.sol\";\nimport \"./Hospital.sol\";\n\n\ncontract Stakeholder {\n\n    InsuranceMarket marketContract;\n    Insurance insuranceContract;\n    InsuranceCompany insuranceCompanyContract;\n    Hospital hospitalContract;\n    enum position { policyOwner, beneficiary, lifeAssured }\n\n    constructor(InsuranceMarket marketAddress, Insurance insuranceAddress, Hospital hospitalAddress) public {\n        marketContract = marketAddress;\n        insuranceContract = insuranceAddress;\n        hospitalContract = hospitalAddress;\n    }\n\n    struct stakeholder {\n        uint256 ID;\n        string name;\n        bytes NRIC;\n        address stakeholderAddress;\n        bytes phonenum;\n        mapping(uint256 => position) involvingInsurances; //insurance ID to position   \n        uint256[] toBeSigned;\n    }\n    \n    event askingCert (uint256 insuranceID);\n    event claimingFromComp (uint256 insuranceID, bytes mcId);\n\n    uint256 public numStakeholder = 0;\n    mapping(uint256 => stakeholder) public stakeholders; //stakeholder ID to stakeholder\n    mapping(address => uint256) ids; //stakeholder address to id\n\n    //Modifiers\n    modifier onlyPolicyOwner(uint256 policyOwnerID) {\n        require(msg.sender == stakeholders[policyOwnerID].stakeholderAddress);\n        _;\n    } \n\n    modifier validNumber(string memory s) {\n        uint256 len;\n        uint256 i = 0;\n        uint256 bytelength = bytes(s).length;\n        bytes1 char = bytes(s)[0];\n\n        for (len = 0; i < bytelength; len++) {\n            bytes1 b = bytes(s)[i];\n            if (b < 0x80) {\n                i += 1;\n            } else if (b < 0xE0) {\n                i += 2;\n            } else if (b < 0xF0) {\n                i += 3;\n            } else if (b < 0xF8) {\n                i += 4;\n            } else if (b < 0xFC) {\n                i += 5;\n            } else {\n                i += 6;\n            }\n        }\n\n        require(len == 8, \"Invalid length of phone number!\");\n        _;\n    }\n\n\n    //Functions\n    // /** \n    // * @dev create new stakeholder\n    // * @return uint256 id of new stakeholder\n    // */\n    function addStakeholder(string memory _phonenum,string memory name,string memory NRIC) public validNumber(_phonenum) returns(uint256) {\n       \n        stakeholder storage newStakeholder = stakeholders[numStakeholder++];\n        newStakeholder.ID = numStakeholder;\n        newStakeholder.name = name;\n        newStakeholder.stakeholderAddress = msg.sender;\n        newStakeholder.NRIC = abi.encodePacked(NRIC);\n        newStakeholder.phonenum = abi.encodePacked(_phonenum);\n        newStakeholder.toBeSigned = new uint256[](10);\n\n        ids[msg.sender] = numStakeholder;\n        return numStakeholder;\n    }\n\n    // /** \n    // * @dev sign insurance from tobesigned list and pay for insurance\n    // */\n    function signInsurance(uint256 _policyOwnerID,uint256 _insuranceID, uint256 _beneficiaryID, uint256 _lifeAssuredID,uint256 _offerPrice) public {\n        // require offerPrice >= owningMoney\n        // require insurance ID valid\n\n        bool doesListContainElement = false;\n        uint256 index;\n        uint256 signedlength = stakeholders[_policyOwnerID].toBeSigned.length;\n        for (uint i=0; i < signedlength; i++) {\n            if (_insuranceID == stakeholders[_policyOwnerID].toBeSigned[i]) {\n                doesListContainElement = true;\n                index = i;\n                break;\n            }\n        }\n        \n        require(doesListContainElement == true, \"Invalid insurance id!\");\n        \n        stakeholders[_policyOwnerID].toBeSigned[index] = stakeholders[_policyOwnerID].toBeSigned[signedlength - 1];\n        stakeholders[_policyOwnerID].toBeSigned.pop();\n\n        stakeholders[_policyOwnerID].involvingInsurances[_insuranceID] = position.policyOwner;\n        stakeholders[_beneficiaryID].involvingInsurances[_insuranceID] = position.beneficiary;\n        stakeholders[_lifeAssuredID].involvingInsurances[_insuranceID] = position.lifeAssured;\n        uint256 companyAddress = insuranceContract.getInsuranceCompany(_insuranceID); // this returns id not address\n        //whats this doing ah?!\n        //marketContract.transfer(msg.sender,companyAddress,_offerPrice);\n\n        insuranceCompanyContract.signInsurance(_insuranceID, insuranceContract.getInsuranceCompany(_insuranceID));\n\n    }\n\n    // /** \n    // * @dev add the insurance pass from company to sign list of stakeholder\n    // * @return bool indicating sign successfully\n    // */\n    function addToSignList(uint256 _insuranceID,uint256 _policyOwnerID) public returns(bool){\n        require(stakeholders[_policyOwnerID].toBeSigned[9] == 0);\n        stakeholders[_policyOwnerID].toBeSigned.push(_insuranceID);\n        return true;\n    }\n\n    // function payPremium(uint256 insuranceID, uint256 amount, uint256 policyOwnerID) public onlyPolicyOwner(policyOwnerID){\n    //     address memory companyAddress = insuranceContract.getInsuranceCompany(insuranceID);\n    //     marketContract.transfer(msg.sender,companyAddress,amount);\n\n    //     //mark as paid\n    // }\n\n    // /** \n    // * @dev get MC id and pass to company\n    // Call auto transfer in company contract to claim the money\n    // */\n    function getMCidAndPassToComp(uint256 insuranceId,uint256 companyId,uint256 hospitalId,bytes memory mcId) public {\n        // uint MDid = \n        insuranceCompanyContract.autoTransfer(insuranceId, companyId,  hospitalId, mcId);\n    }\n    \n    // /** \n    // * @dev Stakeholder ask hospital for mc and call company to claim money\n    // */\n    function claim(uint256 insuranceID,uint256 companyId, bytes memory mcId,uint256 hospitalId,uint256 policyOwnerID) public onlyPolicyOwner(policyOwnerID){\n        //step1: ask for cert from hospital\n        emit askingCert(insuranceID);\n\n        //step2: tell insurance company to pay back\n        insuranceCompanyContract.autoTransfer(insuranceID, companyId,  hospitalId, mcId);\n        emit claimingFromComp(insuranceID,mcId);\n    }\n\n    function checkInsuranceRequests(uint256 companyId, uint256 requestId) public returns (InsuranceCompany.requestStatus) {\n        return insuranceCompanyContract.checkRequestsFromStakeholder(companyId, requestId);\n    }\n\n    function checkMCRequests(uint256 _hospitalId, uint256 _requestId, uint256 _stakeholderId) public \n    returns(bytes memory)\n    {\n        return hospitalContract.checkMCIdFromStakeholder(_hospitalId, _requestId,_stakeholderId);\n    }\n\n    //Getters\n    // function getStakeholder(uint256 stakeholderID) public view returns(Stakeholder){\n    //     return stakeholders[stakeholderID];\n    // }\n\n    // function getInvolvingInsurances(uint256 stakeholderID, uint256 insuranceID) public view returns(Insurance){\n    //     return stakeholders[stakeholderID].involvingInsurances[insuranceID];\n    // }\n    \n    function getStakeholderId(address _stakeholder) public view returns(uint256) {\n        return ids[_stakeholder];\n    }\n    \n    //need to restrict access for this. cannot anyone could get the phonenumber.\n    //company check request => get stakeholder phone\n    //how to restrict so that only checkrequest function could access this\n    function getStakeholderPhone(uint256 stakeholderID) public view returns(string memory num) {\n        (num) = abi.decode(stakeholders[stakeholderID].phonenum, (string));\n        return num;\n    }\n\n    function getStakeholderAddress(uint256 stakeholderID) public view returns(address) {\n        return stakeholders[stakeholderID].stakeholderAddress;\n    }\n\n    function getStakeholderName(uint256 stakeholderID) public view returns(string memory) {\n        return stakeholders[stakeholderID].name;\n    }\n\n    function getStakeholderNRIC(uint256 stakeholderID) public view returns(bytes memory) {\n        return stakeholders[stakeholderID].NRIC;\n    }\n    \n}",
  "sourcePath": "/Users/yco/Desktop/IS4302/IS4302_Group12/contracts/Stakeholder.sol",
  "compiler": {
    "name": "solc",
    "version": "0.8.12+commit.f00d7308.Emscripten.clang"
  },
  "schemaVersion": "3.4.11",
  "updatedAt": "2023-03-31T14:36:33.274Z",
  "devdoc": {
    "kind": "dev",
    "methods": {},
    "version": 1
  },
  "userdoc": {
    "kind": "user",
    "methods": {},
    "version": 1
  }
}