{
  "contractName": "Stakeholder",
  "abi": [
    {
      "inputs": [
        {
          "internalType": "contract InsuranceCompany",
          "name": "insuranceCompanyAddress",
          "type": "address"
        },
        {
          "internalType": "contract Hospital",
          "name": "hospitalAddress",
          "type": "address"
        },
        {
          "internalType": "contract TrustInsure",
          "name": "insureAddress",
          "type": "address"
        }
      ],
      "stateMutability": "nonpayable",
      "type": "constructor"
    },
    {
      "inputs": [],
      "name": "numStakeholder",
      "outputs": [
        {
          "internalType": "uint256",
          "name": "",
          "type": "uint256"
        }
      ],
      "stateMutability": "view",
      "type": "function",
      "constant": true
    },
    {
      "inputs": [
        {
          "internalType": "uint256",
          "name": "",
          "type": "uint256"
        }
      ],
      "name": "stakeholders",
      "outputs": [
        {
          "internalType": "uint256",
          "name": "ID",
          "type": "uint256"
        },
        {
          "internalType": "string",
          "name": "name",
          "type": "string"
        },
        {
          "internalType": "bytes",
          "name": "NRIC",
          "type": "bytes"
        },
        {
          "internalType": "address",
          "name": "stakeholderAddress",
          "type": "address"
        }
      ],
      "stateMutability": "view",
      "type": "function",
      "constant": true
    },
    {
      "inputs": [
        {
          "internalType": "string",
          "name": "name",
          "type": "string"
        },
        {
          "internalType": "string",
          "name": "NRIC",
          "type": "string"
        }
      ],
      "name": "addStakeholder",
      "outputs": [
        {
          "internalType": "uint256",
          "name": "",
          "type": "uint256"
        }
      ],
      "stateMutability": "nonpayable",
      "type": "function"
    },
    {
      "inputs": [
        {
          "internalType": "uint256",
          "name": "stakeholderId",
          "type": "uint256"
        },
        {
          "internalType": "uint256",
          "name": "requestId",
          "type": "uint256"
        }
      ],
      "name": "addRequestIds",
      "outputs": [],
      "stateMutability": "nonpayable",
      "type": "function"
    },
    {
      "inputs": [
        {
          "internalType": "uint256",
          "name": "hospitalId",
          "type": "uint256"
        },
        {
          "internalType": "string",
          "name": "nameAssured",
          "type": "string"
        },
        {
          "internalType": "string",
          "name": "icAssured",
          "type": "string"
        }
      ],
      "name": "requestMC",
      "outputs": [
        {
          "internalType": "uint256",
          "name": "",
          "type": "uint256"
        }
      ],
      "stateMutability": "nonpayable",
      "type": "function"
    },
    {
      "inputs": [
        {
          "internalType": "uint256",
          "name": "stakeholderId",
          "type": "uint256"
        },
        {
          "internalType": "uint256",
          "name": "companyId",
          "type": "uint256"
        },
        {
          "internalType": "uint256",
          "name": "requestId",
          "type": "uint256"
        }
      ],
      "name": "checkInsuranceRequests",
      "outputs": [
        {
          "internalType": "uint256",
          "name": "",
          "type": "uint256"
        }
      ],
      "stateMutability": "nonpayable",
      "type": "function"
    },
    {
      "inputs": [
        {
          "internalType": "uint256",
          "name": "insuranceId",
          "type": "uint256"
        },
        {
          "internalType": "uint256",
          "name": "companyId",
          "type": "uint256"
        },
        {
          "internalType": "uint256",
          "name": "policyOwnerID",
          "type": "uint256"
        },
        {
          "internalType": "string",
          "name": "signature",
          "type": "string"
        }
      ],
      "name": "signInsurance",
      "outputs": [],
      "stateMutability": "nonpayable",
      "type": "function"
    },
    {
      "inputs": [
        {
          "internalType": "uint256",
          "name": "insuranceId",
          "type": "uint256"
        },
        {
          "internalType": "uint256",
          "name": "amount",
          "type": "uint256"
        },
        {
          "internalType": "uint256",
          "name": "policyOwnerID",
          "type": "uint256"
        }
      ],
      "name": "payPremium",
      "outputs": [],
      "stateMutability": "nonpayable",
      "type": "function"
    },
    {
      "inputs": [
        {
          "internalType": "uint256",
          "name": "insuranceID",
          "type": "uint256"
        },
        {
          "internalType": "uint256",
          "name": "companyId",
          "type": "uint256"
        },
        {
          "internalType": "uint256",
          "name": "mcId",
          "type": "uint256"
        },
        {
          "internalType": "uint256",
          "name": "beneficiaryID",
          "type": "uint256"
        },
        {
          "internalType": "string",
          "name": "lifeAssuredName",
          "type": "string"
        },
        {
          "internalType": "string",
          "name": "lifeAssuredNRIC",
          "type": "string"
        }
      ],
      "name": "claimInsurance",
      "outputs": [],
      "stateMutability": "nonpayable",
      "type": "function"
    },
    {
      "inputs": [
        {
          "internalType": "uint256",
          "name": "hospitalId",
          "type": "uint256"
        },
        {
          "internalType": "uint256",
          "name": "requestId",
          "type": "uint256"
        },
        {
          "internalType": "uint256",
          "name": "stakeholderId",
          "type": "uint256"
        }
      ],
      "name": "checkMCRequests",
      "outputs": [
        {
          "internalType": "uint256",
          "name": "",
          "type": "uint256"
        }
      ],
      "stateMutability": "view",
      "type": "function",
      "constant": true
    },
    {
      "inputs": [
        {
          "internalType": "address",
          "name": "_stakeholder",
          "type": "address"
        }
      ],
      "name": "getStakeholderId",
      "outputs": [
        {
          "internalType": "uint256",
          "name": "",
          "type": "uint256"
        }
      ],
      "stateMutability": "view",
      "type": "function",
      "constant": true
    },
    {
      "inputs": [
        {
          "internalType": "uint256",
          "name": "stakeholderID",
          "type": "uint256"
        }
      ],
      "name": "getStakeholderAddress",
      "outputs": [
        {
          "internalType": "address",
          "name": "",
          "type": "address"
        }
      ],
      "stateMutability": "view",
      "type": "function",
      "constant": true
    },
    {
      "inputs": [
        {
          "internalType": "uint256",
          "name": "stakeholderID",
          "type": "uint256"
        }
      ],
      "name": "getStakeholderName",
      "outputs": [
        {
          "internalType": "string",
          "name": "",
          "type": "string"
        }
      ],
      "stateMutability": "view",
      "type": "function",
      "constant": true
    },
    {
      "inputs": [
        {
          "internalType": "uint256",
          "name": "stakeholderID",
          "type": "uint256"
        }
      ],
      "name": "getStakeholderNRIC",
      "outputs": [
        {
          "internalType": "bytes",
          "name": "",
          "type": "bytes"
        }
      ],
      "stateMutability": "view",
      "type": "function",
      "constant": true
    },
    {
      "inputs": [
        {
          "internalType": "uint256",
          "name": "stakeholderID",
          "type": "uint256"
        }
      ],
      "name": "getRequestId",
      "outputs": [
        {
          "internalType": "uint256[]",
          "name": "",
          "type": "uint256[]"
        }
      ],
      "stateMutability": "view",
      "type": "function",
      "constant": true
    },
    {
      "inputs": [
        {
          "internalType": "uint256",
          "name": "insuranceId",
          "type": "uint256"
        }
      ],
      "name": "getInsurance",
      "outputs": [
        {
          "components": [
            {
              "internalType": "uint256",
              "name": "ID",
              "type": "uint256"
            },
            {
              "internalType": "uint256",
              "name": "companyId",
              "type": "uint256"
            },
            {
              "internalType": "uint256",
              "name": "stakeholders",
              "type": "uint256"
            },
            {
              "internalType": "uint256",
              "name": "premium",
              "type": "uint256"
            },
            {
              "internalType": "uint256",
              "name": "insuredAmount",
              "type": "uint256"
            },
            {
              "internalType": "uint256",
              "name": "currentAmount",
              "type": "uint256"
            },
            {
              "internalType": "enum Insurance.insuranceType",
              "name": "insType",
              "type": "uint8"
            },
            {
              "internalType": "enum Insurance.status",
              "name": "status",
              "type": "uint8"
            },
            {
              "internalType": "uint256",
              "name": "issueDate",
              "type": "uint256"
            },
            {
              "internalType": "uint256",
              "name": "expiryDate",
              "type": "uint256"
            }
          ],
          "internalType": "struct Insurance.insurance",
          "name": "",
          "type": "tuple"
        }
      ],
      "stateMutability": "view",
      "type": "function",
      "constant": true
    },
    {
      "inputs": [
        {
          "internalType": "uint256",
          "name": "insuranceId",
          "type": "uint256"
        }
      ],
      "name": "getRestAmount",
      "outputs": [
        {
          "internalType": "uint256",
          "name": "",
          "type": "uint256"
        }
      ],
      "stateMutability": "view",
      "type": "function",
      "constant": true
    }
  ],
  "bytecode": "0x608060405260006003553480156200001657600080fd5b506040516200153438038062001534833981016040819052620000399162000095565b600080546001600160a01b039485166001600160a01b031991821617909155600180549385169382169390931790925560028054919093169116179055620000e9565b6001600160a01b03811681146200009257600080fd5b50565b600080600060608486031215620000ab57600080fd5b8351620000b8816200007c565b6020850151909350620000cb816200007c565b6040850151909250620000de816200007c565b809150509250925092565b61143b80620000f96000396000f3fe608060405234801561001057600080fd5b506004361061010b5760003560e01c806368814af8116100a25780638edd5297116100715780638edd52971461026e5780638fe2701e14610277578063a33661b51461028a578063bdbeb6fe1461029d578063d8e8a641146102ce57600080fd5b806368814af8146102085780636b4c44931461022857806385fae6021461023b57806388c2c5191461025b57600080fd5b80635564f644116100de5780635564f64414610197578063561c865b146101c2578063575c2887146101d55780635a0b84f8146101e857600080fd5b80630f861dc4146101105780631d6b8b721461014c57806334fb36c81461016f578063458d0dc214610184575b600080fd5b61013961011e366004610cfc565b6001600160a01b031660009081526005602052604090205490565b6040519081526020015b60405180910390f35b61015f61015a366004610d2c565b6102e1565b6040516101439493929190610da1565b61018261017d366004610eb3565b610423565b005b610139610192366004610f0d565b6104cf565b6101aa6101a5366004610d2c565b610553565b6040516001600160a01b039091168152602001610143565b6101826101d0366004610f0d565b6105a7565b6101396101e3366004610d2c565b610663565b6101fb6101f6366004610d2c565b6106d7565b6040516101439190610f39565b61021b610216366004610d2c565b6107ac565b6040516101439190610f4c565b610139610236366004610f90565b61083f565b61024e610249366004610d2c565b6108ea565b604051610143919061102e565b6101fb610269366004610d2c565b610960565b61013960035481565b610139610285366004610f0d565b6109af565b6101396102983660046110b0565b610a8c565b6101826102ab36600461111d565b600091825260066020908152604083208054600181018255908452922090910155565b6101826102dc36600461113f565b610b45565b60046020526000908152604090208054600182018054919291610303906111c8565b80601f016020809104026020016040519081016040528092919081815260200182805461032f906111c8565b801561037c5780601f106103515761010080835404028352916020019161037c565b820191906000526020600020905b81548152906001019060200180831161035f57829003601f168201915b505050505090806002018054610391906111c8565b80601f01602080910402602001604051908101604052809291908181526020018280546103bd906111c8565b801561040a5780601f106103df5761010080835404028352916020019161040a565b820191906000526020600020905b8154815290600101906020018083116103ed57829003601f168201915b505050600390930154919250506001600160a01b031684565b336000908152600560205260409020548290811461045c5760405162461bcd60e51b8152600401610453906111fd565b60405180910390fd5b60005460405163bfcb6cfb60e01b81526004810187905260248101869052604481018590526001600160a01b039091169063bfcb6cfb90606401600060405180830381600087803b1580156104b057600080fd5b505af11580156104c4573d6000803e3d6000fd5b505050505050505050565b600154604051639cb3d01f60e01b81526004810185905260248101849052604481018390526000916001600160a01b031690639cb3d01f90606401602060405180830381865afa158015610527573d6000803e3d6000fd5b505050506040513d601f19601f8201168201806040525081019061054b919061122b565b949350505050565b33600090815260056020526040812054829081146105835760405162461bcd60e51b8152600401610453906111fd565b6000838152600460205260409020600301546001600160a01b031691505b50919050565b33600090815260056020526040902054819081146105d75760405162461bcd60e51b8152600401610453906111fd565b600080548382526004602081905260409283902060030154925163467321d560e01b815290810187905260248101869052604481018590526001600160a01b03928316606482015291169063467321d590608401600060405180830381600087803b15801561064557600080fd5b505af1158015610659573d6000803e3d6000fd5b5050505050505050565b6000805460405163575c288760e01b8152600481018490526001600160a01b039091169063575c288790602401602060405180830381865afa1580156106ad573d6000803e3d6000fd5b505050506040513d601f19601f820116820180604052508101906106d1919061122b565b92915050565b336000908152600560205260409020546060908290811461070a5760405162461bcd60e51b8152600401610453906111fd565b60008381526004602052604090206001018054610726906111c8565b80601f0160208091040260200160405190810160405280929190818152602001828054610752906111c8565b801561079f5780601f106107745761010080835404028352916020019161079f565b820191906000526020600020905b81548152906001019060200180831161078257829003601f168201915b5050505050915050919050565b33600090815260056020526040902054606090829081146107df5760405162461bcd60e51b8152600401610453906111fd565b6000838152600660209081526040918290208054835181840281018401909452808452909183018282801561079f57602002820191906000526020600020905b81548152602001906001019080831161081f575050505050915050919050565b600380546000918261085083611244565b90915550506003546000818152600460209081526040909120918255845161088091600184019190870190610bff565b506003810180546001600160a01b031916331790556040516108a690849060200161126d565b6040516020818303038152906040528160020190805190602001906108cc929190610bff565b50506003543360009081526005602052604090208190559392505050565b6108f2610c83565b6000546040516342fd730160e11b8152600481018490526001600160a01b03909116906385fae6029060240161014060405180830381865afa15801561093c573d6000803e3d6000fd5b505050506040513d601f19601f820116820180604052508101906106d191906112ac565b33600090815260056020526040902054606090829081146109935760405162461bcd60e51b8152600401610453906111fd565b60008381526004602052604090206002018054610726906111c8565b33600090815260056020526040812054849081146109df5760405162461bcd60e51b8152600401610453906111fd565b60008054604051635d99670160e01b8152600481018790526024810186905282916001600160a01b031690635d9967019060440160408051808303816000875af1158015610a31573d6000803e3d6000fd5b505050506040513d601f19601f82011682018060405250810190610a55919061133e565b90925090506000826002811115610a6e57610a6e610ff4565b1415610a7d579250610a849050565b6000935050505b509392505050565b3360009081526005602052604080822054600154915163f043e74560e01b8152909183916001600160a01b039091169063f043e74590610ad690899086908a908a90600401611370565b6020604051808303816000875af1158015610af5573d6000803e3d6000fd5b505050506040513d601f19601f82011682018060405250810190610b19919061122b565b600092835260076020908152604084208054600181018255908552932090920182905550949350505050565b3360009081526005602052604090205483908114610b755760405162461bcd60e51b8152600401610453906111fd565b6000805485825260046020819052604092839020600301549251631370e5c160e11b81526001600160a01b03928316936326e1cb8293610bc4938d938d938d938d939116918c918c91016113ac565b600060405180830381600087803b158015610bde57600080fd5b505af1158015610bf2573d6000803e3d6000fd5b5050505050505050505050565b828054610c0b906111c8565b90600052602060002090601f016020900481019282610c2d5760008555610c73565b82601f10610c4657805160ff1916838001178555610c73565b82800160010185558215610c73579182015b82811115610c73578251825591602001919060010190610c58565b50610c7f929150610ce7565b5090565b60405180610140016040528060008152602001600081526020016000815260200160008152602001600081526020016000815260200160006001811115610ccc57610ccc610ff4565b81526020016000815260200160008152602001600081525090565b5b80821115610c7f5760008155600101610ce8565b600060208284031215610d0e57600080fd5b81356001600160a01b0381168114610d2557600080fd5b9392505050565b600060208284031215610d3e57600080fd5b5035919050565b60005b83811015610d60578181015183820152602001610d48565b83811115610d6f576000848401525b50505050565b60008151808452610d8d816020860160208601610d45565b601f01601f19169290920160200192915050565b848152608060208201526000610dba6080830186610d75565b8281036040840152610dcc8186610d75565b91505060018060a01b038316606083015295945050505050565b634e487b7160e01b600052604160045260246000fd5b604051610140810167ffffffffffffffff81118282101715610e2057610e20610de6565b60405290565b600082601f830112610e3757600080fd5b813567ffffffffffffffff80821115610e5257610e52610de6565b604051601f8301601f19908116603f01168101908282118183101715610e7a57610e7a610de6565b81604052838152866020858801011115610e9357600080fd5b836020870160208301376000602085830101528094505050505092915050565b60008060008060808587031215610ec957600080fd5b843593506020850135925060408501359150606085013567ffffffffffffffff811115610ef557600080fd5b610f0187828801610e26565b91505092959194509250565b600080600060608486031215610f2257600080fd5b505081359360208301359350604090920135919050565b602081526000610d256020830184610d75565b6020808252825182820181905260009190848201906040850190845b81811015610f8457835183529284019291840191600101610f68565b50909695505050505050565b60008060408385031215610fa357600080fd5b823567ffffffffffffffff80821115610fbb57600080fd5b610fc786838701610e26565b93506020850135915080821115610fdd57600080fd5b50610fea85828601610e26565b9150509250929050565b634e487b7160e01b600052602160045260246000fd5b6002811061101a5761101a610ff4565b9052565b6006811061101a5761101a610ff4565b600061014082019050825182526020830151602083015260408301516040830152606083015160608301526080830151608083015260a083015160a083015260c083015161107f60c084018261100a565b5060e083015161109260e084018261101e565b50610100838101519083015261012092830151929091019190915290565b6000806000606084860312156110c557600080fd5b83359250602084013567ffffffffffffffff808211156110e457600080fd5b6110f087838801610e26565b9350604086013591508082111561110657600080fd5b5061111386828701610e26565b9150509250925092565b6000806040838503121561113057600080fd5b50508035926020909101359150565b60008060008060008060c0878903121561115857600080fd5b86359550602087013594506040870135935060608701359250608087013567ffffffffffffffff8082111561118c57600080fd5b6111988a838b01610e26565b935060a08901359150808211156111ae57600080fd5b506111bb89828a01610e26565b9150509295509295509295565b600181811c908216806111dc57607f821691505b602082108114156105a157634e487b7160e01b600052602260045260246000fd5b602080825260149082015273496e76616c6964207374616b65686f6c6465722160601b604082015260600190565b60006020828403121561123d57600080fd5b5051919050565b600060001982141561126657634e487b7160e01b600052601160045260246000fd5b5060010190565b6000825161127f818460208701610d45565b9190910192915050565b80516002811061129857600080fd5b919050565b80516006811061129857600080fd5b600061014082840312156112bf57600080fd5b6112c7610dfc565b825181526020830151602082015260408301516040820152606083015160608201526080830151608082015260a083015160a082015261130960c08401611289565b60c082015261131a60e0840161129d565b60e08201526101008381015190820152610120928301519281019290925250919050565b6000806040838503121561135157600080fd5b82516003811061136057600080fd5b6020939093015192949293505050565b84815283602082015260806040820152600061138f6080830185610d75565b82810360608401526113a18185610d75565b979650505050505050565b87815286602082015285604082015284606082015260018060a01b038416608082015260e060a082015260006113e560e0830185610d75565b82810360c08401526113f78185610d75565b9a995050505050505050505056fea2646970667358221220c652a4609059695f6cb10d526bf99836a0a67dd799cf72bf4b47efa1ee58704064736f6c634300080c0033",
  "immutableReferences": {},
  "source": "pragma solidity ^0.8.12;\npragma experimental ABIEncoderV2;\nimport \"./InsuranceCompany.sol\";\nimport \"./Hospital.sol\";\nimport \"./TrustInsure.sol\";\n\n\ncontract Stakeholder {\n\n    InsuranceCompany insuranceCompanyContract;\n    Hospital hospitalContract;\n    TrustInsure insureContract;\n    //enum position { policyOwner, beneficiary, lifeAssured }\n\n\n    constructor( InsuranceCompany insuranceCompanyAddress, \n    Hospital hospitalAddress, \n    TrustInsure insureAddress) \n    public \n    {\n        insuranceCompanyContract = insuranceCompanyAddress;\n        hospitalContract = hospitalAddress;\n        insureContract = insureAddress;\n    }\n\n    struct stakeholder {\n        uint256 ID;\n        string name;\n        bytes NRIC;\n        address stakeholderAddress;\n    }\n    \n\n    uint256 public numStakeholder = 0;\n    mapping(uint256 => stakeholder) public stakeholders; //stakeholder ID to stakeholder\n    mapping(address => uint256) ids; //stakeholder address to id\n    mapping(uint256 => uint256[]) insuranceReqs; //stakeholder ids => insurance requests ids\n    mapping(uint256 => uint256[]) mcReqs; \n\n    //Modifiers\n\n    modifier validStakeholder(uint256 stakeholderId) {\n        require(ids[msg.sender] == stakeholderId, \"Invalid stakeholder!\");\n        _;\n    }\n\n// =====================================================================================\n// functions\n// =====================================================================================\n\n    /** \n    * @dev create new stakeholder\n    * @param name name of stakeholder\n    * @param NRIC NRIC of stakeholder\n    * @return uint256 id of new stakeholder\n    */\n    function addStakeholder(string memory name,string memory NRIC) public returns(uint256) {\n        numStakeholder++;\n        stakeholder storage newStakeholder = stakeholders[numStakeholder];\n        newStakeholder.ID = numStakeholder;\n        newStakeholder.name = name;\n        newStakeholder.stakeholderAddress = msg.sender;\n        newStakeholder.NRIC = abi.encodePacked(NRIC);\n        ids[msg.sender] = numStakeholder;\n        return numStakeholder;\n    }\n    \n    /** \n    * @dev Record the preferred product one wants to purchase\n    * @param stakeholderId the id of the stakeholder\n    * @param requestId the id of the request\n    */\n    function addRequestIds(uint256 stakeholderId, uint256 requestId) external {\n        insuranceReqs[stakeholderId].push(requestId);\n    }\n    \n    /** \n    * @dev Request for MC\n    * @param hospitalId the id of the hospital\n    * @param nameAssured the name of the life assured\n    * @param icAssured the NRIC of the life assured\n    * @return uint256 id of request\n    */\n    function requestMC(uint256 hospitalId, string memory nameAssured, string memory icAssured) \n    public returns(uint256) {\n        uint256 id = getStakeholderId(msg.sender);\n        uint256 reqid = hospitalContract.requestMC(hospitalId, id, nameAssured, icAssured);\n\n        mcReqs[id].push(reqid);\n\n        return reqid;\n    }\n    \n    /** \n    * @dev Check the insurance requests status\n    * @param stakeholderId id of stakeholder\n    * @param companyId id of company\n    * @param requestId id of request\n    * @return uint256 insurance id\n    */\n    function checkInsuranceRequests(uint256 stakeholderId, uint256 companyId, uint256 requestId) \n    public validStakeholder(stakeholderId) returns (uint256) {\n        (InsuranceCompany.requestStatus status, uint256 insuranceId) = insuranceCompanyContract.checkRequestsFromStakeholder(companyId, requestId);\n        if (status == InsuranceCompany.requestStatus.approved) return insuranceId;\n        else return 0; //return 0 means no request has been rejected or pending\n    }\n\n    /** \n    * @dev Sign insurance\n    * @param insuranceId id of insurance\n    * @param companyId id of company\n    * @param policyOwnerID id of policy owner\n    * @param signature  the signature of the stakeholder.\n    */\n    function signInsurance(uint256 insuranceId,uint256 companyId, \n    uint256 policyOwnerID, string memory signature) \n    public validStakeholder(policyOwnerID) {\n        insuranceCompanyContract.signInsurance(insuranceId, companyId, policyOwnerID);\n    }\n\n    /** \n    * @dev Pay premium for the contract\n    * @param insuranceId id of insurance\n    * @param amount  the sum to be paid\n    * @param policyOwnerID id of policy owner\n    */\n    function payPremium(uint256 insuranceId, uint256 amount, uint256 policyOwnerID) \n    public validStakeholder(policyOwnerID) {     \n        insuranceCompanyContract.payPremium(insuranceId, amount, policyOwnerID,stakeholders[policyOwnerID].stakeholderAddress);\n    }\n\n    /** \n    * @dev Claim insurance\n    * @param insuranceID id of insurance\n    * @param companyId the id of the company\n    * @param mcId the id of the medical certificate\n    * @param beneficiaryID the id of the policy owner\n    * @param lifeAssuredName the name of the life assured\n    * @param lifeAssuredNRIC the NRIC of the life assured\n    */\n    function claimInsurance (uint256 insuranceID,uint256 companyId, \n    uint256 mcId,uint256 beneficiaryID,\n    string memory lifeAssuredName, string memory lifeAssuredNRIC)   \n    public validStakeholder(beneficiaryID) {\n        insuranceCompanyContract.claim(insuranceID,companyId,mcId,\n         beneficiaryID, stakeholders[beneficiaryID].stakeholderAddress,\n         lifeAssuredName,lifeAssuredNRIC);\n    }\n    \n    /** \n    * @dev Check MC requests\n    * @param hospitalId id of hospital\n    * @param requestId the id of request\n    * @param stakeholderId the id of stakeholder\n    * @return uint256 mc id\n    */\n    function checkMCRequests(uint256 hospitalId, uint256 requestId, uint256 stakeholderId) public view\n    returns(uint256)\n    {\n        return hospitalContract.checkMCIdFromStakeholder(hospitalId, requestId, stakeholderId);\n    }\n\n// =====================================================================================\n// getters\n// =====================================================================================\n    // function getStakeholder(uint256 stakeholderID) public view returns(Stakeholder){\n    //     return stakeholders[stakeholderID];\n    // }\n\n    // function getInvolvingInsurances(uint256 stakeholderID, uint256 insuranceID) public view returns(Insurance){\n    //     return stakeholders[stakeholderID].involvingInsurances[insuranceID];\n    // }\n    \n    function getStakeholderId(address _stakeholder) public view returns(uint256) {\n        return ids[_stakeholder];\n    }\n\n    function getStakeholderAddress(uint256 stakeholderID) public view validStakeholder(stakeholderID) returns(address) {\n        return stakeholders[stakeholderID].stakeholderAddress;\n    }\n\n    function getStakeholderName(uint256 stakeholderID) public view validStakeholder(stakeholderID) returns(string memory) {\n        return stakeholders[stakeholderID].name;\n    }\n\n    function getStakeholderNRIC(uint256 stakeholderID) public view validStakeholder(stakeholderID) returns(bytes memory) {\n        return stakeholders[stakeholderID].NRIC;\n    }\n\n    function getRequestId(uint256 stakeholderID) public view validStakeholder(stakeholderID) returns(uint256[] memory) {\n        return insuranceReqs[stakeholderID];\n    }\n\n    function getInsurance(uint256 insuranceId) public view returns (Insurance.insurance memory) {\n        return insuranceCompanyContract.getInsurance(insuranceId);\n    }\n\n    function getRestAmount(uint256 insuranceId) public view returns(uint256) {\n        return insuranceCompanyContract.getRestAmount(insuranceId);\n    }\n    \n}",
  "sourcePath": "/Users/lhhhhhy/Downloads/IS4302/IS4302_Group12/contracts/Stakeholder.sol",
  "compiler": {
    "name": "solc",
    "version": "0.8.12+commit.f00d7308.Emscripten.clang"
  },
  "schemaVersion": "3.4.11",
  "updatedAt": "2023-04-11T14:29:57.446Z",
  "networkType": "ethereum",
  "devdoc": {
    "kind": "dev",
    "methods": {
      "addRequestIds(uint256,uint256)": {
        "details": "Record the preferred product one wants to purchase",
        "params": {
          "requestId": "the id of the request",
          "stakeholderId": "the id of the stakeholder"
        }
      },
      "addStakeholder(string,string)": {
        "details": "create new stakeholder",
        "params": {
          "NRIC": "NRIC of stakeholder",
          "name": "name of stakeholder"
        },
        "returns": {
          "_0": "uint256 id of new stakeholder"
        }
      },
      "checkInsuranceRequests(uint256,uint256,uint256)": {
        "details": "Check the insurance requests status",
        "params": {
          "companyId": "id of company",
          "requestId": "id of request",
          "stakeholderId": "id of stakeholder"
        },
        "returns": {
          "_0": "uint256 insurance id"
        }
      },
      "checkMCRequests(uint256,uint256,uint256)": {
        "details": "Check MC requests",
        "params": {
          "hospitalId": "id of hospital",
          "requestId": "the id of request",
          "stakeholderId": "the id of stakeholder"
        },
        "returns": {
          "_0": "uint256 mc id"
        }
      },
      "claimInsurance(uint256,uint256,uint256,uint256,string,string)": {
        "details": "Claim insurance",
        "params": {
          "beneficiaryID": "the id of the policy owner",
          "companyId": "the id of the company",
          "insuranceID": "id of insurance",
          "lifeAssuredNRIC": "the NRIC of the life assured",
          "lifeAssuredName": "the name of the life assured",
          "mcId": "the id of the medical certificate"
        }
      },
      "payPremium(uint256,uint256,uint256)": {
        "details": "Pay premium for the contract",
        "params": {
          "amount": "the sum to be paid",
          "insuranceId": "id of insurance",
          "policyOwnerID": "id of policy owner"
        }
      },
      "requestMC(uint256,string,string)": {
        "details": "Request for MC",
        "params": {
          "hospitalId": "the id of the hospital",
          "icAssured": "the NRIC of the life assured",
          "nameAssured": "the name of the life assured"
        },
        "returns": {
          "_0": "uint256 id of request"
        }
      },
      "signInsurance(uint256,uint256,uint256,string)": {
        "details": "Sign insurance",
        "params": {
          "companyId": "id of company",
          "insuranceId": "id of insurance",
          "policyOwnerID": "id of policy owner",
          "signature": "the signature of the stakeholder."
        }
      }
    },
    "version": 1
  },
  "userdoc": {
    "kind": "user",
    "methods": {},
    "version": 1
  }
}