{
  "contractName": "StringLength",
  "abi": [
    {
      "inputs": [
        {
          "internalType": "string",
          "name": "s",
          "type": "string"
        }
      ],
      "name": "strlen",
      "outputs": [
        {
          "internalType": "uint256",
          "name": "",
          "type": "uint256"
        }
      ],
      "stateMutability": "pure",
      "type": "function"
    }
  ],
  "bytecode": "0x608060405234801561001057600080fd5b50610367806100206000396000f3fe608060405234801561001057600080fd5b506004361061002b5760003560e01c8063367bbd7814610030575b600080fd5b61004361003e366004610260565b610055565b60405190815260200160405180910390f35b60008060008484600081811061006d5761006d6102d2565b909101356001600160f81b031916915050604160f81b81108015906100a05750602d60f91b6001600160f81b0319821611155b1580156100d65750606160f81b6001600160f81b03198216108015906100d45750603d60f91b6001600160f81b0319821611155b155b156100e65760009250505061025a565b60008086868080601f01602080910402602001604051908101604052809392919081815260200183838082843760009201829052509394505050505b815183101561025357600782848151811061013f5761013f6102d2565b01602001516001600160f81b031990811690911c1661016a576101636001846102fe565b9250610241565b8151600360f91b90600590849086908110610187576101876102d2565b01602001516001600160f81b031990811690911c1614156101ad576101636002846102fe565b8151600760f91b906004908490869081106101ca576101ca6102d2565b01602001516001600160f81b031990811690911c1614156101f0576101636003846102fe565b8151600f60f91b9060039084908690811061020d5761020d6102d2565b01602001516001600160f81b031990811690911c161415610233576101636004846102fe565b61023e6001846102fe565b92505b8061024b81610316565b915050610122565b9450505050505b92915050565b6000806020838503121561027357600080fd5b823567ffffffffffffffff8082111561028b57600080fd5b818501915085601f83011261029f57600080fd5b8135818111156102ae57600080fd5b8660208285010111156102c057600080fd5b60209290920196919550909350505050565b634e487b7160e01b600052603260045260246000fd5b634e487b7160e01b600052601160045260246000fd5b60008219821115610311576103116102e8565b500190565b600060001982141561032a5761032a6102e8565b506001019056fea2646970667358221220c319767d86efff1465e37fa4ad9ec73097aedda00f76b51bc9b4db93cbab3dba64736f6c634300080c0033",
  "immutableReferences": {},
  "source": "// SPDX-License-Identifier: MIT\n// Source:\n// https://github.com/ensdomains/ens-contracts/blob/master/contracts/ethregistrar/StringUtils.sol\npragma solidity ^0.8.12;\ncontract StringLength {\n    /**\n     * @dev Returns the length of a given string\n     *\n     * @param s The string to measure the length of\n     * @return The length of the input string\n     */\n    function strlen(string calldata s) external pure returns (uint256) {\n        uint256 len;\n        bytes1 char = bytes(s)[0];\n        if(\n            !(char >= 0x41 && char <= 0x5A) && //A-Z\n            !(char >= 0x61 && char <= 0x7A) //a-z\n        )\n        return 0;\n   \n        uint i=0;\n        bytes memory string_rep = bytes(s);\n        uint256 length = 0;\n         while (i<string_rep.length)\n        {\n            if (string_rep[i]>>7==0)\n                i+=1;\n            else if (string_rep[i]>>5==bytes1(uint8(0x6)))\n                i+=2;\n            else if (string_rep[i]>>4==bytes1(uint8(0xE)))\n                i+=3;\n            else if (string_rep[i]>>3==bytes1(uint8(0x1E)))\n                i+=4;\n            else\n                //For safety\n                i+=1;\n\n            length++;\n        }\n\n        \n        return length;\n    }\n}",
  "sourcePath": "/Users/yco/Desktop/IS4302/IS4302_Group12/contracts/StringLength.sol",
  "compiler": {
    "name": "solc",
    "version": "0.8.12+commit.f00d7308.Emscripten.clang"
  },
  "schemaVersion": "3.4.11",
  "updatedAt": "2023-03-31T14:36:33.281Z",
  "devdoc": {
    "kind": "dev",
    "methods": {
      "strlen(string)": {
        "details": "Returns the length of a given string",
        "params": {
          "s": "The string to measure the length of"
        },
        "returns": {
          "_0": "The length of the input string"
        }
      }
    },
    "version": 1
  },
  "userdoc": {
    "kind": "user",
    "methods": {},
    "version": 1
  }
}