{
  "contractName": "TrustInsure",
  "abi": [
    {
      "inputs": [],
      "stateMutability": "nonpayable",
      "type": "constructor"
    },
    {
      "inputs": [],
      "name": "getInsure",
      "outputs": [
        {
          "internalType": "uint256",
          "name": "",
          "type": "uint256"
        }
      ],
      "stateMutability": "payable",
      "type": "function",
      "payable": true
    },
    {
      "inputs": [
        {
          "internalType": "address",
          "name": "ad",
          "type": "address"
        }
      ],
      "name": "checkInsure",
      "outputs": [
        {
          "internalType": "uint256",
          "name": "",
          "type": "uint256"
        }
      ],
      "stateMutability": "view",
      "type": "function",
      "constant": true
    },
    {
      "inputs": [
        {
          "internalType": "address",
          "name": "from",
          "type": "address"
        },
        {
          "internalType": "address",
          "name": "to",
          "type": "address"
        },
        {
          "internalType": "uint256",
          "name": "amt",
          "type": "uint256"
        }
      ],
      "name": "transferFromInsure",
      "outputs": [],
      "stateMutability": "nonpayable",
      "type": "function"
    },
    {
      "inputs": [
        {
          "internalType": "address",
          "name": "to",
          "type": "address"
        },
        {
          "internalType": "uint256",
          "name": "amt",
          "type": "uint256"
        }
      ],
      "name": "transferInsure",
      "outputs": [],
      "stateMutability": "nonpayable",
      "type": "function"
    }
  ],
  "bytecode": "0x608060405234801561001057600080fd5b50600060405161001f9061006b565b604051809103906000f08015801561003b573d6000803e3d6000fd5b50600080546001600160a01b039092166001600160a01b0319928316179055600180549091163317905550610078565b6108d7806104fd83390190565b610476806100876000396000f3fe60806040526004361061003f5760003560e01c80633456ea3014610044578063371ad44714610066578063682e09b814610086578063b9b7650a146100a0575b600080fd5b34801561005057600080fd5b5061006461005f366004610315565b6100c0565b005b34801561007257600080fd5b50610064610081366004610351565b610145565b61008e6101c7565b60405190815260200160405180910390f35b3480156100ac57600080fd5b5061008e6100bb36600461037b565b610283565b6000546040516323b872dd60e01b81526001600160a01b038581166004830152848116602483015260448201849052909116906323b872dd906064016020604051808303816000875af115801561011b573d6000803e3d6000fd5b505050506040513d601f19601f8201168201806040525081019061013f9190610396565b50505050565b6000546040516323b872dd60e01b81523360048201526001600160a01b03848116602483015260448201849052909116906323b872dd906064016020604051808303816000875af115801561019e573d6000803e3d6000fd5b505050506040513d601f19601f820116820180604052508101906101c29190610396565b505050565b6000806101db662386f26fc10000346103ce565b905060c88110610208576101f060c8826103ce565b6101fb9060056103f0565b610205908261040f565b90505b6000546040516340c10f1960e01b8152336004820152602481018390526001600160a01b03909116906340c10f19906044016020604051808303816000875af1158015610259573d6000803e3d6000fd5b505050506040513d601f19601f8201168201806040525081019061027d9190610396565b50919050565b600080546040516370a0823160e01b81526001600160a01b038481166004830152839216906370a0823190602401602060405180830381865afa1580156102ce573d6000803e3d6000fd5b505050506040513d601f19601f820116820180604052508101906102f29190610427565b9392505050565b80356001600160a01b038116811461031057600080fd5b919050565b60008060006060848603121561032a57600080fd5b610333846102f9565b9250610341602085016102f9565b9150604084013590509250925092565b6000806040838503121561036457600080fd5b61036d836102f9565b946020939093013593505050565b60006020828403121561038d57600080fd5b6102f2826102f9565b6000602082840312156103a857600080fd5b815180151581146102f257600080fd5b634e487b7160e01b600052601160045260246000fd5b6000826103eb57634e487b7160e01b600052601260045260246000fd5b500490565b600081600019048311821515161561040a5761040a6103b8565b500290565b60008219821115610422576104226103b8565b500190565b60006020828403121561043957600080fd5b505191905056fea2646970667358221220d09cf9ea86d63e0e5f4ef78417221d0137e68205748452506859199715f8b53f64736f6c634300080c00336080604052600080546001600160a81b031916610100330217905534801561002657600080fd5b506108a1806100366000396000f3fe608060405234801561001057600080fd5b50600436106100ea5760003560e01c806370a082311161008c5780638da5cb5b116100665780638da5cb5b1461020857806395d89b4114610220578063a9059cbb14610241578063dd62ed3e1461025457600080fd5b806370a08231146101ad5780637d64bcb4146101d6578063893d20e8146101de57600080fd5b806318160ddd116100c857806318160ddd1461015b57806323b872dd1461016d578063313ce5671461018057806340c10f191461019a57600080fd5b806305d2035b146100ef57806306fdde0314610111578063095ea7b314610148575b600080fd5b6000546100fc9060ff1681565b60405190151581526020015b60405180910390f35b61013b6040518060400160405280600b81526020016a5472757374496e7375726560a81b81525081565b60405161010891906106eb565b6100fc61015636600461075c565b61028d565b6003545b604051908152602001610108565b6100fc61017b366004610786565b6102fa565b610188601281565b60405160ff9091168152602001610108565b6100fc6101a836600461075c565b610434565b61015f6101bb3660046107c2565b6001600160a01b031660009081526002602052604090205490565b6100fc610529565b60005461010090046001600160a01b03165b6040516001600160a01b039091168152602001610108565b6000546101f09061010090046001600160a01b031681565b61013b60405180604001604052806002815260200161544960f01b81525081565b6100fc61024f36600461075c565b610590565b61015f6102623660046107dd565b6001600160a01b03918216600090815260016020908152604080832093909416825291909152205490565b3360008181526001602090815260408083206001600160a01b038716808552925280832085905551919290917f8c5be1e5ebec7d5bd14f71427d1e84f3dd0314c0f7b2291e5b200ac8c7c3b925906102e89086815260200190565b60405180910390a35060015b92915050565b60006001600160a01b03831661030f57600080fd5b6001600160a01b03841660009081526002602052604090205482111561037c5760405162461bcd60e51b815260206004820181905260248201527f46726f6d20646f65736e2774206861766520656e6f7567682062616c616e636560448201526064015b60405180910390fd5b6001600160a01b03841660009081526002602052604090205461039f90836106aa565b6001600160a01b0380861660009081526002602052604080822093909355908516815220546103ce90836106cd565b6001600160a01b0380851660008181526002602052604090819020939093559151908616907fddf252ad1be2c89b69c2b068fc378daa952ba7f163c4a11628f55a4df523b3ef906104229086815260200190565b60405180910390a35060019392505050565b6000805461010090046001600160a01b0316331461045157600080fd5b60005460ff161561046157600080fd5b60035461046e90836106cd565b6003556001600160a01b03831660009081526002602052604090205461049490836106cd565b6001600160a01b038416600081815260026020526040908190209290925590517f0f6798a560793a54c3bcfe86a93cde1e73087d944c0ea20544137d4121396885906104e39085815260200190565b60405180910390a26040518281526001600160a01b038416906000907fddf252ad1be2c89b69c2b068fc378daa952ba7f163c4a11628f55a4df523b3ef906020016102e8565b6000805461010090046001600160a01b0316331461054657600080fd5b60005460ff161561055657600080fd5b6000805460ff191660011781556040517fae5184fba832cb2b1f702aca6117b8d265eaf03ad33eb133f19dde0f5920fa089190a150600190565b60006001600160a01b0383166105a557600080fd5b326000908152600260205260409020548211156106135760405162461bcd60e51b815260206004820152602660248201527f6d73672e73656e64657220646f65736e2774206861766520656e6f7567682062604482015265616c616e636560d01b6064820152608401610373565b3260009081526002602052604090205461062d90836106aa565b32600090815260026020526040808220929092556001600160a01b0385168152205461065990836106cd565b6001600160a01b0384166000818152600260205260409081902092909255905132907fddf252ad1be2c89b69c2b068fc378daa952ba7f163c4a11628f55a4df523b3ef906102e89086815260200190565b6000828211156106bc576106bc610810565b6106c6828461083c565b9392505050565b60006106d98284610853565b9050828110156102f4576102f4610810565b600060208083528351808285015260005b81811015610718578581018301518582016040015282016106fc565b8181111561072a576000604083870101525b50601f01601f1916929092016040019392505050565b80356001600160a01b038116811461075757600080fd5b919050565b6000806040838503121561076f57600080fd5b61077883610740565b946020939093013593505050565b60008060006060848603121561079b57600080fd5b6107a484610740565b92506107b260208501610740565b9150604084013590509250925092565b6000602082840312156107d457600080fd5b6106c682610740565b600080604083850312156107f057600080fd5b6107f983610740565b915061080760208401610740565b90509250929050565b634e487b7160e01b600052600160045260246000fd5b634e487b7160e01b600052601160045260246000fd5b60008282101561084e5761084e610826565b500390565b6000821982111561086657610866610826565b50019056fea26469706673582212208ed324c69debaee3f5f3e443ad8adc6a2e6db907c5f7d4bb243d25742f6a328464736f6c634300080c0033",
  "immutableReferences": {},
  "source": "pragma solidity ^0.8.12;\n\nimport \"./ERC20.sol\";\n\ncontract TrustInsure {\n    ERC20 erc20Contract;\n    address owner;\n\n    constructor() public {\n        ERC20 e = new ERC20();\n        erc20Contract = e;\n        owner = msg.sender;\n    }\n\n// =====================================================================================\n// functions\n// =====================================================================================\n    \n    /** \n    * @dev Mint TrustInsure tokens\n    * @return uint256 amount of tokens minted and transferred to the user's address\n    */\n    function getInsure()\n        public payable\n        returns (uint256)\n    {\n        //uint256 amt = weiAmt / (1000000000000000000/100);\n        uint256  amt = msg.value / (1000000000000000000/100);\n        if (amt >= 200) amt += (amt/200) * 5;\n        erc20Contract.mint(msg.sender, amt);\n        return amt; \n    }\n\n    /** \n    * @dev Check balance of tokens\n    * @param ad Input the address of the user who want to check balance of\n    * @return uint256 credit balance of the input address\n    */\n    function checkInsure(address ad) public view returns (uint256) {\n        uint256 credit = erc20Contract.balanceOf(ad);\n        return credit;\n    }\n\n    /** \n    * @dev Transfer tokens from one address to another\n    * @param from the address of the account which TrustInsure will be transfered from\n    * @param to the address of the account which TrustInsure will be transfered to\n    * @param amt the amount of tokens to be transfered\n    */\n    function transferFromInsure(address from, address to, uint256 amt) public {\n        erc20Contract.transferFrom(from, to, amt);\n    }\n\n    /** \n    * @dev Transfer tokens to others\n    * @param to the address of the account which TrustInsure will be transfered to\n    * @param amt the amount of tokens to be transfered\n    */\n    function transferInsure(address to, uint256 amt) public {\n        erc20Contract.transferFrom(msg.sender, to, amt);\n    }\n}\n",
  "sourcePath": "/Users/lhhhhhy/Downloads/IS4302/IS4302_Group12/contracts/TrustInsure.sol",
  "compiler": {
    "name": "solc",
    "version": "0.8.12+commit.f00d7308.Emscripten.clang"
  },
  "schemaVersion": "3.4.11",
  "updatedAt": "2023-04-11T14:29:57.405Z",
  "networkType": "ethereum",
  "devdoc": {
    "kind": "dev",
    "methods": {
      "checkInsure(address)": {
        "details": "Check balance of tokens",
        "params": {
          "ad": "Input the address of the user who want to check balance of"
        },
        "returns": {
          "_0": "uint256 credit balance of the input address"
        }
      },
      "getInsure()": {
        "details": "Mint TrustInsure tokens",
        "returns": {
          "_0": "uint256 amount of tokens minted and transferred to the user's address"
        }
      },
      "transferFromInsure(address,address,uint256)": {
        "details": "Transfer tokens from one address to another",
        "params": {
          "amt": "the amount of tokens to be transfered",
          "from": "the address of the account which TrustInsure will be transfered from",
          "to": "the address of the account which TrustInsure will be transfered to"
        }
      },
      "transferInsure(address,uint256)": {
        "details": "Transfer tokens to others",
        "params": {
          "amt": "the amount of tokens to be transfered",
          "to": "the address of the account which TrustInsure will be transfered to"
        }
      }
    },
    "version": 1
  },
  "userdoc": {
    "kind": "user",
    "methods": {},
    "version": 1
  }
}